{
	"battle.sol": {
		"BattleContract": {
			"abi": [
				{
					"inputs": [
						{
							"internalType": "address",
							"name": "fighterContractAddress_",
							"type": "address"
						},
						{
							"internalType": "address",
							"name": "fighterMoneyContractAddress_",
							"type": "address"
						}
					],
					"stateMutability": "nonpayable",
					"type": "constructor"
				},
				{
					"anonymous": false,
					"inputs": [
						{
							"indexed": false,
							"internalType": "uint256",
							"name": "player1",
							"type": "uint256"
						},
						{
							"indexed": false,
							"internalType": "uint256",
							"name": "player2",
							"type": "uint256"
						},
						{
							"indexed": false,
							"internalType": "uint256",
							"name": "winner",
							"type": "uint256"
						},
						{
							"indexed": false,
							"internalType": "uint256",
							"name": "purse",
							"type": "uint256"
						}
					],
					"name": "BattleRecorded",
					"type": "event"
				},
				{
					"anonymous": false,
					"inputs": [
						{
							"indexed": false,
							"internalType": "uint8",
							"name": "",
							"type": "uint8"
						},
						{
							"indexed": false,
							"internalType": "uint256",
							"name": "",
							"type": "uint256"
						}
					],
					"name": "LogError",
					"type": "event"
				},
				{
					"anonymous": false,
					"inputs": [
						{
							"indexed": false,
							"internalType": "address",
							"name": "previousOwner",
							"type": "address"
						},
						{
							"indexed": false,
							"internalType": "bool",
							"name": "isActive",
							"type": "bool"
						}
					],
					"name": "SetAdmin",
					"type": "event"
				},
				{
					"anonymous": false,
					"inputs": [
						{
							"indexed": false,
							"internalType": "address",
							"name": "previousOwner",
							"type": "address"
						},
						{
							"indexed": false,
							"internalType": "address",
							"name": "newOwner",
							"type": "address"
						}
					],
					"name": "SetOwner",
					"type": "event"
				},
				{
					"anonymous": false,
					"inputs": [
						{
							"indexed": false,
							"internalType": "uint256",
							"name": "",
							"type": "uint256"
						}
					],
					"name": "updatedMoneyExpDivider",
					"type": "event"
				},
				{
					"inputs": [
						{
							"internalType": "bytes32",
							"name": "",
							"type": "bytes32"
						}
					],
					"name": "battles",
					"outputs": [
						{
							"internalType": "uint256",
							"name": "blockNumber",
							"type": "uint256"
						},
						{
							"internalType": "uint256",
							"name": "opponent1",
							"type": "uint256"
						},
						{
							"internalType": "uint256",
							"name": "opponent2",
							"type": "uint256"
						},
						{
							"internalType": "uint256",
							"name": "winner",
							"type": "uint256"
						}
					],
					"stateMutability": "view",
					"type": "function"
				},
				{
					"inputs": [
						{
							"internalType": "uint256",
							"name": "fighterLevel",
							"type": "uint256"
						},
						{
							"internalType": "uint256",
							"name": "opponentLevel",
							"type": "uint256"
						},
						{
							"internalType": "uint256",
							"name": "damageDealt",
							"type": "uint256"
						}
					],
					"name": "calculateExpirience",
					"outputs": [
						{
							"internalType": "uint256",
							"name": "",
							"type": "uint256"
						}
					],
					"stateMutability": "nonpayable",
					"type": "function"
				},
				{
					"inputs": [],
					"name": "owner",
					"outputs": [
						{
							"internalType": "address",
							"name": "",
							"type": "address"
						}
					],
					"stateMutability": "view",
					"type": "function"
				},
				{
					"inputs": [
						{
							"internalType": "uint256[7]",
							"name": "vals1",
							"type": "uint256[7]"
						},
						{
							"internalType": "uint256[7]",
							"name": "vals2",
							"type": "uint256[7]"
						},
						{
							"internalType": "uint256",
							"name": "battleNonce",
							"type": "uint256"
						}
					],
					"name": "recordFight",
					"outputs": [],
					"stateMutability": "nonpayable",
					"type": "function"
				},
				{
					"inputs": [
						{
							"internalType": "uint256",
							"name": "a",
							"type": "uint256"
						},
						{
							"internalType": "uint256",
							"name": "b",
							"type": "uint256"
						}
					],
					"name": "safeAdd",
					"outputs": [
						{
							"internalType": "uint256",
							"name": "",
							"type": "uint256"
						}
					],
					"stateMutability": "nonpayable",
					"type": "function"
				},
				{
					"inputs": [
						{
							"internalType": "uint256",
							"name": "a",
							"type": "uint256"
						},
						{
							"internalType": "uint256",
							"name": "b",
							"type": "uint256"
						}
					],
					"name": "safeMul",
					"outputs": [
						{
							"internalType": "uint256",
							"name": "",
							"type": "uint256"
						}
					],
					"stateMutability": "nonpayable",
					"type": "function"
				},
				{
					"inputs": [
						{
							"internalType": "uint256",
							"name": "a",
							"type": "uint256"
						},
						{
							"internalType": "uint256",
							"name": "b",
							"type": "uint256"
						}
					],
					"name": "safeSub",
					"outputs": [
						{
							"internalType": "uint256",
							"name": "",
							"type": "uint256"
						}
					],
					"stateMutability": "nonpayable",
					"type": "function"
				},
				{
					"inputs": [
						{
							"internalType": "address",
							"name": "addy",
							"type": "address"
						},
						{
							"internalType": "bool",
							"name": "isActive",
							"type": "bool"
						}
					],
					"name": "setAdmin",
					"outputs": [],
					"stateMutability": "nonpayable",
					"type": "function"
				},
				{
					"inputs": [
						{
							"internalType": "uint256",
							"name": "val",
							"type": "uint256"
						}
					],
					"name": "setMoneyExpDivider",
					"outputs": [],
					"stateMutability": "nonpayable",
					"type": "function"
				},
				{
					"inputs": [
						{
							"internalType": "address",
							"name": "newOwner",
							"type": "address"
						}
					],
					"name": "setOwner",
					"outputs": [],
					"stateMutability": "nonpayable",
					"type": "function"
				}
			],
			"devdoc": {
				"kind": "dev",
				"methods": {},
				"version": 1
			},
			"evm": {
				"assembly": "    /* \"battle.sol\":1828:9503  contract BattleContract {... */\n  mstore(0x40, 0x80)\n    /* \"battle.sol\":8153:8156  100 */\n  0x64\n    /* \"battle.sol\":8127:8156  uint256 moneyExpDivider = 100 */\n  0x05\n  sstore\n    /* \"battle.sol\":9226:9501  constructor(address fighterContractAddress_, address fighterMoneyContractAddress_) {... */\n  callvalue\n  dup1\n  iszero\n  tag_1\n  jumpi\n  0x00\n  dup1\n  revert\ntag_1:\n  pop\n  mload(0x40)\n  sub(codesize, bytecodeSize)\n  dup1\n  bytecodeSize\n  dup4\n  codecopy\n  dup2\n  add\n  0x40\n  dup2\n  swap1\n  mstore\n  tag_2\n  swap2\n  tag_3\n  jump\t// in\ntag_2:\n    /* \"battle.sol\":9319:9341  fighterContractAddress */\n  0x01\n    /* \"battle.sol\":9319:9367  fighterContractAddress = fighterContractAddress_ */\n  dup1\n  sload\n  not(sub(shl(0xa0, 0x01), 0x01))\n  swap1\n  dup2\n  and\n  sub(shl(0xa0, 0x01), 0x01)\n  swap5\n  dup6\n  and\n  or\n  dup3\n  sstore\n    /* \"battle.sol\":9377:9404  fighterMoneyContractAddress */\n  0x02\n    /* \"battle.sol\":9377:9435  fighterMoneyContractAddress = fighterMoneyContractAddress_ */\n  dup1\n  sload\n  dup3\n  and\n  swap4\n  swap1\n  swap5\n  and\n  swap3\n  swap1\n  swap3\n  or\n  swap1\n  swap3\n  sstore\n    /* \"battle.sol\":9445:9450  owner */\n  0x03\n    /* \"battle.sol\":9445:9463  owner = msg.sender */\n  dup1\n  sload\n    /* \"battle.sol\":9453:9463  msg.sender */\n  caller\n    /* \"battle.sol\":9445:9463  owner = msg.sender */\n  swap3\n  and\n  dup3\n  or\n  swap1\n  sstore\n  0x00\n    /* \"battle.sol\":9473:9487  isAdmin[owner] */\n  swap1\n  dup2\n  mstore\n    /* \"battle.sol\":9473:9480  isAdmin */\n  0x04\n    /* \"battle.sol\":9473:9487  isAdmin[owner] */\n  0x20\n  mstore\n  0x40\n  swap1\n  keccak256\n    /* \"battle.sol\":9473:9494  isAdmin[owner] = true */\n  dup1\n  sload\n  not(0xff)\n  and\n  swap1\n  swap2\n  or\n  swap1\n  sstore\n    /* \"battle.sol\":1828:9503  contract BattleContract {... */\n  jump(tag_8)\n    /* \"#utility.yul\":14:191   */\ntag_7:\n    /* \"#utility.yul\":93:106   */\n  dup1\n  mload\n  sub(shl(0xa0, 0x01), 0x01)\n    /* \"#utility.yul\":135:166   */\n  dup2\n  and\n    /* \"#utility.yul\":125:167   */\n  dup2\n  eq\n    /* \"#utility.yul\":115:185   */\n  tag_10\n  jumpi\n    /* \"#utility.yul\":181:182   */\n  0x00\n    /* \"#utility.yul\":178:179   */\n  dup1\n    /* \"#utility.yul\":171:183   */\n  revert\n    /* \"#utility.yul\":115:185   */\ntag_10:\n    /* \"#utility.yul\":14:191   */\n  swap2\n  swap1\n  pop\n  jump\t// out\n    /* \"#utility.yul\":196:489   */\ntag_3:\n    /* \"#utility.yul\":275:281   */\n  0x00\n    /* \"#utility.yul\":283:289   */\n  dup1\n    /* \"#utility.yul\":336:338   */\n  0x40\n    /* \"#utility.yul\":324:333   */\n  dup4\n    /* \"#utility.yul\":315:322   */\n  dup6\n    /* \"#utility.yul\":311:334   */\n  sub\n    /* \"#utility.yul\":307:339   */\n  slt\n    /* \"#utility.yul\":304:356   */\n  iszero\n  tag_12\n  jumpi\n    /* \"#utility.yul\":352:353   */\n  0x00\n    /* \"#utility.yul\":349:350   */\n  dup1\n    /* \"#utility.yul\":342:354   */\n  revert\n    /* \"#utility.yul\":304:356   */\ntag_12:\n    /* \"#utility.yul\":375:415   */\n  tag_13\n    /* \"#utility.yul\":405:414   */\n  dup4\n    /* \"#utility.yul\":375:415   */\n  tag_7\n  jump\t// in\ntag_13:\n    /* \"#utility.yul\":365:415   */\n  swap2\n  pop\n    /* \"#utility.yul\":434:483   */\n  tag_14\n    /* \"#utility.yul\":479:481   */\n  0x20\n    /* \"#utility.yul\":468:477   */\n  dup5\n    /* \"#utility.yul\":464:482   */\n  add\n    /* \"#utility.yul\":434:483   */\n  tag_7\n  jump\t// in\ntag_14:\n    /* \"#utility.yul\":424:483   */\n  swap1\n  pop\n    /* \"#utility.yul\":196:489   */\n  swap3\n  pop\n  swap3\n  swap1\n  pop\n  jump\t// out\ntag_8:\n    /* \"battle.sol\":1828:9503  contract BattleContract {... */\n  dataSize(sub_0)\n  dup1\n  dataOffset(sub_0)\n  0x00\n  codecopy\n  0x00\n  return\nstop\n\nsub_0: assembly {\n        /* \"battle.sol\":1828:9503  contract BattleContract {... */\n      mstore(0x40, 0x80)\n      callvalue\n      dup1\n      iszero\n      tag_1\n      jumpi\n      0x00\n      dup1\n      revert\n    tag_1:\n      pop\n      jumpi(tag_2, lt(calldatasize, 0x04))\n      shr(0xe0, calldataload(0x00))\n      dup1\n      0x78547e6c\n      gt\n      tag_13\n      jumpi\n      dup1\n      0x78547e6c\n      eq\n      tag_8\n      jumpi\n      dup1\n      0x8da5cb5b\n      eq\n      tag_9\n      jumpi\n      dup1\n      0xa293d1e8\n      eq\n      tag_10\n      jumpi\n      dup1\n      0xd05c78da\n      eq\n      tag_11\n      jumpi\n      dup1\n      0xe6cb9013\n      eq\n      tag_12\n      jumpi\n      0x00\n      dup1\n      revert\n    tag_13:\n      dup1\n      0x13af4035\n      eq\n      tag_3\n      jumpi\n      dup1\n      0x1fedfd0a\n      eq\n      tag_4\n      jumpi\n      dup1\n      0x4b0bddd2\n      eq\n      tag_5\n      jumpi\n      dup1\n      0x57bcd00d\n      eq\n      tag_6\n      jumpi\n      dup1\n      0x74440e9e\n      eq\n      tag_7\n      jumpi\n    tag_2:\n      0x00\n      dup1\n      revert\n        /* \"battle.sol\":7751:7877  function setOwner(address newOwner) public onlyOwner {... */\n    tag_3:\n      tag_14\n      tag_15\n      calldatasize\n      0x04\n      tag_16\n      jump\t// in\n    tag_15:\n      tag_17\n      jump\t// in\n    tag_14:\n      stop\n        /* \"battle.sol\":8208:8349  function setMoneyExpDivider(uint256 val) external onlyOwner {... */\n    tag_4:\n      tag_14\n      tag_19\n      calldatasize\n      0x04\n      tag_20\n      jump\t// in\n    tag_19:\n      tag_21\n      jump\t// in\n        /* \"battle.sol\":7959:8109  function setAdmin(address addy, bool isActive) external onlyOwner... */\n    tag_5:\n      tag_14\n      tag_23\n      calldatasize\n      0x04\n      tag_24\n      jump\t// in\n    tag_23:\n      tag_25\n      jump\t// in\n        /* \"battle.sol\":2395:6165  function recordFight(... */\n    tag_6:\n      tag_14\n      tag_27\n      calldatasize\n      0x04\n      tag_28\n      jump\t// in\n    tag_27:\n      tag_29\n      jump\t// in\n        /* \"battle.sol\":6172:6908  function calculateExpirience(uint256 fighterLevel, uint256 opponentLevel, uint256 damageDealt) public returns (uint256) {... */\n    tag_7:\n      tag_30\n      tag_31\n      calldatasize\n      0x04\n      tag_32\n      jump\t// in\n    tag_31:\n      tag_33\n      jump\t// in\n    tag_30:\n      mload(0x40)\n        /* \"#utility.yul\":2074:2099   */\n      swap1\n      dup2\n      mstore\n        /* \"#utility.yul\":2062:2064   */\n      0x20\n        /* \"#utility.yul\":2047:2065   */\n      add\n        /* \"battle.sol\":6172:6908  function calculateExpirience(uint256 fighterLevel, uint256 opponentLevel, uint256 damageDealt) public returns (uint256) {... */\n    tag_34:\n      mload(0x40)\n      dup1\n      swap2\n      sub\n      swap1\n      return\n        /* \"battle.sol\":2007:2048  mapping(bytes32 => Battle) public battles */\n    tag_8:\n      tag_36\n      tag_37\n      calldatasize\n      0x04\n      tag_20\n      jump\t// in\n    tag_37:\n      0x00\n      0x20\n      dup2\n      swap1\n      mstore\n      swap1\n      dup2\n      mstore\n      0x40\n      swap1\n      keccak256\n      dup1\n      sload\n      0x01\n      dup3\n      add\n      sload\n      0x02\n      dup4\n      add\n      sload\n      0x03\n      swap1\n      swap4\n      add\n      sload\n      swap2\n      swap3\n      swap1\n      swap2\n      dup5\n      jump\n    tag_36:\n      0x40\n      dup1\n      mload\n        /* \"#utility.yul\":2526:2551   */\n      swap5\n      dup6\n      mstore\n        /* \"#utility.yul\":2582:2584   */\n      0x20\n        /* \"#utility.yul\":2567:2585   */\n      dup6\n      add\n        /* \"#utility.yul\":2560:2594   */\n      swap4\n      swap1\n      swap4\n      mstore\n        /* \"#utility.yul\":2610:2628   */\n      swap2\n      dup4\n      add\n        /* \"#utility.yul\":2603:2637   */\n      mstore\n        /* \"#utility.yul\":2668:2670   */\n      0x60\n        /* \"#utility.yul\":2653:2671   */\n      dup3\n      add\n        /* \"#utility.yul\":2646:2680   */\n      mstore\n        /* \"#utility.yul\":2513:2516   */\n      0x80\n        /* \"#utility.yul\":2498:2517   */\n      add\n        /* \"battle.sol\":2007:2048  mapping(bytes32 => Battle) public battles */\n      tag_34\n        /* \"#utility.yul\":2295:2686   */\n      jump\n        /* \"battle.sol\":7158:7178  address public owner */\n    tag_9:\n      sload(0x03)\n      tag_42\n      swap1\n      sub(shl(0xa0, 0x01), 0x01)\n      and\n      dup2\n      jump\n    tag_42:\n      mload(0x40)\n      sub(shl(0xa0, 0x01), 0x01)\n        /* \"#utility.yul\":2855:2887   */\n      swap1\n      swap2\n      and\n        /* \"#utility.yul\":2837:2888   */\n      dup2\n      mstore\n        /* \"#utility.yul\":2825:2827   */\n      0x20\n        /* \"#utility.yul\":2810:2828   */\n      add\n        /* \"battle.sol\":7158:7178  address public owner */\n      tag_34\n        /* \"#utility.yul\":2691:2894   */\n      jump\n        /* \"battle.sol\":8910:9018  function safeSub(uint a, uint b) public returns (uint) {... */\n    tag_10:\n      tag_30\n      tag_47\n      calldatasize\n      0x04\n      tag_48\n      jump\t// in\n    tag_47:\n      tag_49\n      jump\t// in\n        /* \"battle.sol\":8700:8842  function safeMul(uint a, uint b) public returns (uint) {... */\n    tag_11:\n      tag_30\n      tag_52\n      calldatasize\n      0x04\n      tag_48\n      jump\t// in\n    tag_52:\n      tag_53\n      jump\t// in\n        /* \"battle.sol\":9083:9217  function safeAdd(uint a, uint b) public returns (uint) {... */\n    tag_12:\n      tag_30\n      tag_56\n      calldatasize\n      0x04\n      tag_48\n      jump\t// in\n    tag_56:\n      tag_57\n      jump\t// in\n        /* \"battle.sol\":7751:7877  function setOwner(address newOwner) public onlyOwner {... */\n    tag_17:\n        /* \"battle.sol\":7529:7534  owner */\n      and(sub(shl(0xa0, 0x01), 0x01), sload(0x03))\n        /* \"battle.sol\":7515:7525  msg.sender */\n      caller\n        /* \"battle.sol\":7515:7534  msg.sender == owner */\n      eq\n        /* \"battle.sol\":7508:7535  assert(msg.sender == owner) */\n      tag_61\n      jumpi\n      tag_61\n      tag_62\n      jump\t// in\n    tag_61:\n        /* \"battle.sol\":7828:7833  owner */\n      sload(0x03)\n        /* \"battle.sol\":7819:7844  SetOwner(owner, newOwner) */\n      0x40\n      dup1\n      mload\n      sub(shl(0xa0, 0x01), 0x01)\n        /* \"battle.sol\":7828:7833  owner */\n      swap3\n      dup4\n      and\n        /* \"#utility.yul\":3496:3530   */\n      dup2\n      mstore\n        /* \"#utility.yul\":3566:3581   */\n      swap2\n      dup4\n      and\n        /* \"#utility.yul\":3561:3563   */\n      0x20\n        /* \"#utility.yul\":3546:3564   */\n      dup4\n      add\n        /* \"#utility.yul\":3539:3582   */\n      mstore\n        /* \"battle.sol\":7819:7844  SetOwner(owner, newOwner) */\n      0xcbf985117192c8f614a58aaf97226bb80a754772f5f6edf06f87c675f2e6c663\n      swap2\n        /* \"#utility.yul\":3431:3449   */\n      add\n        /* \"battle.sol\":7819:7844  SetOwner(owner, newOwner) */\n      mload(0x40)\n      dup1\n      swap2\n      sub\n      swap1\n      log1\n        /* \"battle.sol\":7854:7859  owner */\n      0x03\n        /* \"battle.sol\":7854:7870  owner = newOwner */\n      dup1\n      sload\n      not(sub(shl(0xa0, 0x01), 0x01))\n      and\n      sub(shl(0xa0, 0x01), 0x01)\n      swap3\n      swap1\n      swap3\n      and\n      swap2\n      swap1\n      swap2\n      or\n      swap1\n      sstore\n        /* \"battle.sol\":7751:7877  function setOwner(address newOwner) public onlyOwner {... */\n      jump\t// out\n        /* \"battle.sol\":8208:8349  function setMoneyExpDivider(uint256 val) external onlyOwner {... */\n    tag_21:\n        /* \"battle.sol\":7529:7534  owner */\n      and(sub(shl(0xa0, 0x01), 0x01), sload(0x03))\n        /* \"battle.sol\":7515:7525  msg.sender */\n      caller\n        /* \"battle.sol\":7515:7534  msg.sender == owner */\n      eq\n        /* \"battle.sol\":7508:7535  assert(msg.sender == owner) */\n      tag_68\n      jumpi\n      tag_68\n      tag_62\n      jump\t// in\n    tag_68:\n        /* \"battle.sol\":8278:8293  moneyExpDivider */\n      0x05\n        /* \"battle.sol\":8278:8299  moneyExpDivider = val */\n      dup2\n      swap1\n      sstore\n        /* \"battle.sol\":8315:8342  updatedMoneyExpDivider(val) */\n      mload(0x40)\n        /* \"#utility.yul\":2074:2099   */\n      dup2\n      dup2\n      mstore\n        /* \"battle.sol\":8315:8342  updatedMoneyExpDivider(val) */\n      0x127404d508a0cf69493bfd98baf6b96ec49407cc6fe58263bcf55e98d9994e34\n      swap1\n        /* \"#utility.yul\":2062:2064   */\n      0x20\n        /* \"#utility.yul\":2047:2065   */\n      add\n        /* \"battle.sol\":8315:8342  updatedMoneyExpDivider(val) */\n      mload(0x40)\n      dup1\n      swap2\n      sub\n      swap1\n      log1\n        /* \"battle.sol\":8208:8349  function setMoneyExpDivider(uint256 val) external onlyOwner {... */\n      pop\n      jump\t// out\n        /* \"battle.sol\":7959:8109  function setAdmin(address addy, bool isActive) external onlyOwner... */\n    tag_25:\n        /* \"battle.sol\":7529:7534  owner */\n      and(sub(shl(0xa0, 0x01), 0x01), sload(0x03))\n        /* \"battle.sol\":7515:7525  msg.sender */\n      caller\n        /* \"battle.sol\":7515:7534  msg.sender == owner */\n      eq\n        /* \"battle.sol\":7508:7535  assert(msg.sender == owner) */\n      tag_73\n      jumpi\n      tag_73\n      tag_62\n      jump\t// in\n    tag_73:\n      sub(shl(0xa0, 0x01), 0x01)\n        /* \"battle.sol\":8039:8052  isAdmin[addy] */\n      dup3\n      and\n      0x00\n      dup2\n      dup2\n      mstore\n        /* \"battle.sol\":8039:8046  isAdmin */\n      0x04\n        /* \"battle.sol\":8039:8052  isAdmin[addy] */\n      0x20\n      swap1\n      dup2\n      mstore\n      0x40\n      swap2\n      dup3\n      swap1\n      keccak256\n        /* \"battle.sol\":8039:8063  isAdmin[addy] = isActive */\n      dup1\n      sload\n      not(0xff)\n      and\n      dup6\n      iszero\n      iszero\n      swap1\n      dup2\n      or\n      swap1\n      swap2\n      sstore\n        /* \"battle.sol\":8078:8102  SetAdmin(addy, isActive) */\n      dup3\n      mload\n        /* \"#utility.yul\":3761:3812   */\n      swap4\n      dup5\n      mstore\n        /* \"#utility.yul\":3828:3846   */\n      swap1\n      dup4\n      add\n        /* \"#utility.yul\":3821:3871   */\n      mstore\n        /* \"battle.sol\":8078:8102  SetAdmin(addy, isActive) */\n      0x55a5194bc0174fcaf12b2978bef43911466bf63b34db8d1dd1a0d5dcd5c41bea\n      swap2\n        /* \"#utility.yul\":3734:3752   */\n      add\n        /* \"battle.sol\":8078:8102  SetAdmin(addy, isActive) */\n      mload(0x40)\n      dup1\n      swap2\n      sub\n      swap1\n      log1\n        /* \"battle.sol\":7959:8109  function setAdmin(address addy, bool isActive) external onlyOwner... */\n      pop\n      pop\n      jump\t// out\n        /* \"battle.sol\":2395:6165  function recordFight(... */\n    tag_29:\n        /* \"battle.sol\":7673:7683  msg.sender */\n      caller\n        /* \"battle.sol\":7665:7684  isAdmin[msg.sender] */\n      0x00\n      swap1\n      dup2\n      mstore\n        /* \"battle.sol\":7665:7672  isAdmin */\n      0x04\n        /* \"battle.sol\":7665:7684  isAdmin[msg.sender] */\n      0x20\n      mstore\n      0x40\n      swap1\n      keccak256\n      sload\n      0xff\n      and\n        /* \"battle.sol\":7658:7685  assert(isAdmin[msg.sender]) */\n      tag_79\n      jumpi\n      tag_79\n      tag_62\n      jump\t// in\n    tag_79:\n        /* \"battle.sol\":7089:7138  abi.encode(this, opponent1id, opponent2id, nonce) */\n      0x40\n      dup1\n      mload\n        /* \"battle.sol\":7100:7104  this */\n      address\n        /* \"battle.sol\":7089:7138  abi.encode(this, opponent1id, opponent2id, nonce) */\n      0x20\n      dup1\n      dup4\n      add\n        /* \"#utility.yul\":7753:7804   */\n      swap2\n      swap1\n      swap2\n      mstore\n        /* \"battle.sol\":2920:2928  vals1[0] */\n      dup6\n      calldataload\n        /* \"#utility.yul\":7820:7838   */\n      dup3\n      dup5\n      add\n        /* \"#utility.yul\":7813:7847   */\n      mstore\n        /* \"battle.sol\":2930:2938  vals2[0] */\n      dup5\n      calldataload\n        /* \"#utility.yul\":7863:7881   */\n      0x60\n      dup4\n      add\n        /* \"#utility.yul\":7856:7890   */\n      mstore\n        /* \"#utility.yul\":7906:7924   */\n      0x80\n      dup1\n      dup4\n      add\n        /* \"#utility.yul\":7899:7933   */\n      dup6\n      swap1\n      mstore\n        /* \"battle.sol\":7089:7138  abi.encode(this, opponent1id, opponent2id, nonce) */\n      dup4\n      mload\n      dup1\n      dup5\n      sub\n      swap1\n      swap2\n      add\n      dup2\n      mstore\n        /* \"#utility.yul\":7725:7744   */\n      0xa0\n      swap1\n      swap3\n      add\n        /* \"battle.sol\":7089:7138  abi.encode(this, opponent1id, opponent2id, nonce) */\n      dup4\n      mstore\n        /* \"battle.sol\":7079:7139  keccak256(abi.encode(this, opponent1id, opponent2id, nonce)) */\n      dup2\n      mload\n      swap2\n      dup2\n      add\n      swap2\n      swap1\n      swap2\n      keccak256\n      0x00\n        /* \"battle.sol\":2970:2989  battles[battleHash] */\n      dup2\n      dup2\n      mstore\n      swap2\n      dup3\n      swap1\n      mstore\n      swap2\n      swap1\n      keccak256\n        /* \"battle.sol\":2970:3001  battles[battleHash].blockNumber */\n      sload\n        /* \"battle.sol\":2970:3006  battles[battleHash].blockNumber == 0 */\n      iszero\n        /* \"battle.sol\":2962:3034  require(battles[battleHash].blockNumber == 0, \"Battle already recorded\") */\n      tag_88\n      jumpi\n      mload(0x40)\n      shl(0xe5, 0x461bcd)\n      dup2\n      mstore\n        /* \"#utility.yul\":4216:4218   */\n      0x20\n        /* \"battle.sol\":2962:3034  require(battles[battleHash].blockNumber == 0, \"Battle already recorded\") */\n      0x04\n      dup3\n      add\n        /* \"#utility.yul\":4198:4219   */\n      mstore\n        /* \"#utility.yul\":4255:4257   */\n      0x17\n        /* \"#utility.yul\":4235:4253   */\n      0x24\n      dup3\n      add\n        /* \"#utility.yul\":4228:4258   */\n      mstore\n        /* \"#utility.yul\":4294:4319   */\n      0x426174746c6520616c7265616479207265636f72646564000000000000000000\n        /* \"#utility.yul\":4274:4292   */\n      0x44\n      dup3\n      add\n        /* \"#utility.yul\":4267:4320   */\n      mstore\n        /* \"#utility.yul\":4337:4355   */\n      0x64\n      add\n        /* \"battle.sol\":2962:3034  require(battles[battleHash].blockNumber == 0, \"Battle already recorded\") */\n      mload(0x40)\n      dup1\n      swap2\n      sub\n      swap1\n      revert\n    tag_88:\n        /* \"battle.sol\":3077:3398  FightVars({... */\n      0x40\n      dup1\n      mload\n      0x80\n      dup2\n      add\n      swap2\n      dup3\n      swap1\n      mstore\n        /* \"battle.sol\":3125:3147  fighterContractAddress */\n      sload(0x01)\n      shl(0xe6, 0x02192075)\n        /* \"battle.sol\":3109:3167  FighterContract(fighterContractAddress).getLevel(vals1[0]) */\n      swap1\n      swap3\n      mstore\n        /* \"battle.sol\":3158:3166  vals1[0] */\n      dup6\n      calldataload\n        /* \"battle.sol\":3109:3167  FighterContract(fighterContractAddress).getLevel(vals1[0]) */\n      0x84\n      dup3\n      add\n        /* \"#utility.yul\":2074:2099   */\n      mstore\n      0x00\n      swap2\n        /* \"battle.sol\":3077:3398  FightVars({... */\n      dup2\n      swap1\n      sub(shl(0xa0, 0x01), 0x01)\n        /* \"battle.sol\":3125:3147  fighterContractAddress */\n      and\n        /* \"battle.sol\":3109:3157  FighterContract(fighterContractAddress).getLevel */\n      0x86481d40\n        /* \"#utility.yul\":2047:2065   */\n      0xa4\n      dup4\n      add\n        /* \"battle.sol\":3109:3167  FighterContract(fighterContractAddress).getLevel(vals1[0]) */\n      0x20\n      mload(0x40)\n      dup1\n      dup4\n      sub\n      dup2\n      0x00\n      dup8\n      gas\n      call\n      iszero\n      dup1\n      iszero\n      tag_95\n      jumpi\n      returndatasize\n      0x00\n      dup1\n      returndatacopy\n      revert(0x00, returndatasize)\n    tag_95:\n      pop\n      pop\n      pop\n      pop\n      mload(0x40)\n      returndatasize\n      not(0x1f)\n      0x1f\n      dup3\n      add\n      and\n      dup3\n      add\n      dup1\n      0x40\n      mstore\n      pop\n      dup2\n      add\n      swap1\n      tag_96\n      swap2\n      swap1\n      tag_97\n      jump\t// in\n    tag_96:\n        /* \"battle.sol\":3077:3398  FightVars({... */\n      dup2\n      mstore\n        /* \"battle.sol\":3205:3227  fighterContractAddress */\n      sload(0x01)\n        /* \"battle.sol\":3189:3247  FighterContract(fighterContractAddress).getLevel(vals2[0]) */\n      mload(0x40)\n      shl(0xe6, 0x02192075)\n      dup2\n      mstore\n        /* \"battle.sol\":3238:3246  vals2[0] */\n      dup8\n      calldataload\n        /* \"battle.sol\":3189:3247  FighterContract(fighterContractAddress).getLevel(vals2[0]) */\n      0x04\n      dup3\n      add\n        /* \"#utility.yul\":2074:2099   */\n      mstore\n        /* \"battle.sol\":3077:3398  FightVars({... */\n      0x20\n      swap1\n      swap3\n      add\n      swap2\n      sub(shl(0xa0, 0x01), 0x01)\n        /* \"battle.sol\":3205:3227  fighterContractAddress */\n      swap1\n      swap2\n      and\n      swap1\n        /* \"battle.sol\":3189:3237  FighterContract(fighterContractAddress).getLevel */\n      0x86481d40\n      swap1\n        /* \"#utility.yul\":2047:2065   */\n      0x24\n      add\n        /* \"battle.sol\":3189:3247  FighterContract(fighterContractAddress).getLevel(vals2[0]) */\n      0x20\n      mload(0x40)\n      dup1\n      dup4\n      sub\n      dup2\n      0x00\n      dup8\n      gas\n      call\n      iszero\n      dup1\n      iszero\n      tag_102\n      jumpi\n      returndatasize\n      0x00\n      dup1\n      returndatacopy\n      revert(0x00, returndatasize)\n    tag_102:\n      pop\n      pop\n      pop\n      pop\n      mload(0x40)\n      returndatasize\n      not(0x1f)\n      0x1f\n      dup3\n      add\n      and\n      dup3\n      add\n      dup1\n      0x40\n      mstore\n      pop\n      dup2\n      add\n      swap1\n      tag_103\n      swap2\n      swap1\n      tag_97\n      jump\t// in\n    tag_103:\n        /* \"battle.sol\":3077:3398  FightVars({... */\n      dup2\n      mstore\n        /* \"battle.sol\":3276:3298  fighterContractAddress */\n      sload(0x01)\n        /* \"battle.sol\":3269:3317  ERC721(fighterContractAddress).ownerOf(vals1[0]) */\n      mload(0x40)\n      shl(0xe1, 0x31a9108f)\n      dup2\n      mstore\n        /* \"battle.sol\":3308:3316  vals1[0] */\n      dup9\n      calldataload\n        /* \"battle.sol\":3269:3317  ERC721(fighterContractAddress).ownerOf(vals1[0]) */\n      0x04\n      dup3\n      add\n        /* \"#utility.yul\":2074:2099   */\n      mstore\n        /* \"battle.sol\":3077:3398  FightVars({... */\n      0x20\n      swap1\n      swap3\n      add\n      swap2\n      sub(shl(0xa0, 0x01), 0x01)\n        /* \"battle.sol\":3276:3298  fighterContractAddress */\n      swap1\n      swap2\n      and\n      swap1\n        /* \"battle.sol\":3269:3307  ERC721(fighterContractAddress).ownerOf */\n      0x6352211e\n      swap1\n        /* \"#utility.yul\":2047:2065   */\n      0x24\n      add\n        /* \"battle.sol\":3269:3317  ERC721(fighterContractAddress).ownerOf(vals1[0]) */\n      0x20\n      mload(0x40)\n      dup1\n      dup4\n      sub\n      dup2\n      dup7\n      gas\n      staticcall\n      iszero\n      dup1\n      iszero\n      tag_108\n      jumpi\n      returndatasize\n      0x00\n      dup1\n      returndatacopy\n      revert(0x00, returndatasize)\n    tag_108:\n      pop\n      pop\n      pop\n      pop\n      mload(0x40)\n      returndatasize\n      not(0x1f)\n      0x1f\n      dup3\n      add\n      and\n      dup3\n      add\n      dup1\n      0x40\n      mstore\n      pop\n      dup2\n      add\n      swap1\n      tag_109\n      swap2\n      swap1\n      tag_110\n      jump\t// in\n    tag_109:\n      sub(shl(0xa0, 0x01), 0x01)\n        /* \"battle.sol\":3077:3398  FightVars({... */\n      swap1\n      dup2\n      and\n      dup3\n      mstore\n        /* \"battle.sol\":3346:3368  fighterContractAddress */\n      sload(0x01)\n        /* \"battle.sol\":3339:3387  ERC721(fighterContractAddress).ownerOf(vals2[0]) */\n      mload(0x40)\n      shl(0xe1, 0x31a9108f)\n      dup2\n      mstore\n        /* \"battle.sol\":3378:3386  vals2[0] */\n      dup9\n      calldataload\n        /* \"battle.sol\":3339:3387  ERC721(fighterContractAddress).ownerOf(vals2[0]) */\n      0x04\n      dup3\n      add\n        /* \"#utility.yul\":2074:2099   */\n      mstore\n        /* \"battle.sol\":3077:3398  FightVars({... */\n      0x20\n      swap1\n      swap4\n      add\n      swap3\n        /* \"battle.sol\":3346:3368  fighterContractAddress */\n      swap2\n      and\n      swap1\n        /* \"battle.sol\":3339:3377  ERC721(fighterContractAddress).ownerOf */\n      0x6352211e\n      swap1\n        /* \"#utility.yul\":2047:2065   */\n      0x24\n      add\n        /* \"battle.sol\":3339:3387  ERC721(fighterContractAddress).ownerOf(vals2[0]) */\n      0x20\n      mload(0x40)\n      dup1\n      dup4\n      sub\n      dup2\n      dup7\n      gas\n      staticcall\n      iszero\n      dup1\n      iszero\n      tag_115\n      jumpi\n      returndatasize\n      0x00\n      dup1\n      returndatacopy\n      revert(0x00, returndatasize)\n    tag_115:\n      pop\n      pop\n      pop\n      pop\n      mload(0x40)\n      returndatasize\n      not(0x1f)\n      0x1f\n      dup3\n      add\n      and\n      dup3\n      add\n      dup1\n      0x40\n      mstore\n      pop\n      dup2\n      add\n      swap1\n      tag_116\n      swap2\n      swap1\n      tag_110\n      jump\t// in\n    tag_116:\n      sub(shl(0xa0, 0x01), 0x01)\n        /* \"battle.sol\":3077:3398  FightVars({... */\n      swap1\n      dup2\n      and\n      swap1\n      swap2\n      mstore\n        /* \"battle.sol\":4257:4279  fighterContractAddress */\n      sload(0x01)\n        /* \"battle.sol\":4241:4315  FighterContract(fighterContractAddress).decreaseHealth(vals1[0], vals1[4]) */\n      mload(0x40)\n      shl(0xe0, 0xa7518eb1)\n      dup2\n      mstore\n        /* \"battle.sol\":4296:4304  vals1[0] */\n      dup9\n      calldataload\n        /* \"battle.sol\":4312:4313  4 */\n      0x04\n        /* \"battle.sol\":4241:4315  FighterContract(fighterContractAddress).decreaseHealth(vals1[0], vals1[4]) */\n      dup3\n      add\n        /* \"#utility.yul\":4985:5010   */\n      mstore\n        /* \"battle.sol\":4306:4314  vals1[4] */\n      0x80\n      dup10\n      add\n      calldataload\n        /* \"#utility.yul\":5026:5044   */\n      0x24\n      dup3\n      add\n        /* \"#utility.yul\":5019:5053   */\n      mstore\n        /* \"battle.sol\":3055:3398  FightVars memory t  = FightVars({... */\n      swap3\n      swap4\n      pop\n        /* \"battle.sol\":4257:4279  fighterContractAddress */\n      and\n      swap1\n        /* \"battle.sol\":4241:4295  FighterContract(fighterContractAddress).decreaseHealth */\n      0xa7518eb1\n      swap1\n        /* \"#utility.yul\":4958:4976   */\n      0x44\n      add\n        /* \"battle.sol\":4241:4315  FighterContract(fighterContractAddress).decreaseHealth(vals1[0], vals1[4]) */\n      0x00\n      mload(0x40)\n      dup1\n      dup4\n      sub\n      dup2\n      0x00\n      dup8\n      dup1\n      extcodesize\n      iszero\n      dup1\n      iszero\n      tag_123\n      jumpi\n      0x00\n      dup1\n      revert\n    tag_123:\n      pop\n      gas\n      call\n      iszero\n      dup1\n      iszero\n      tag_125\n      jumpi\n      returndatasize\n      0x00\n      dup1\n      returndatacopy\n      revert(0x00, returndatasize)\n    tag_125:\n      pop\n      pop\n        /* \"battle.sol\":4341:4363  fighterContractAddress */\n      sload(0x01)\n        /* \"battle.sol\":4325:4399  FighterContract(fighterContractAddress).decreaseHealth(vals2[0], vals2[4]) */\n      mload(0x40)\n      shl(0xe0, 0xa7518eb1)\n      dup2\n      mstore\n        /* \"battle.sol\":4380:4388  vals2[0] */\n      dup8\n      calldataload\n        /* \"battle.sol\":4396:4397  4 */\n      0x04\n        /* \"battle.sol\":4325:4399  FighterContract(fighterContractAddress).decreaseHealth(vals2[0], vals2[4]) */\n      dup3\n      add\n        /* \"#utility.yul\":4985:5010   */\n      mstore\n        /* \"battle.sol\":4390:4398  vals2[4] */\n      0x80\n      dup9\n      add\n      calldataload\n        /* \"#utility.yul\":5026:5044   */\n      0x24\n      dup3\n      add\n        /* \"#utility.yul\":5019:5053   */\n      mstore\n      sub(shl(0xa0, 0x01), 0x01)\n        /* \"battle.sol\":4341:4363  fighterContractAddress */\n      swap1\n      swap2\n      and\n      swap3\n      pop\n        /* \"battle.sol\":4325:4379  FighterContract(fighterContractAddress).decreaseHealth */\n      0xa7518eb1\n      swap2\n      pop\n        /* \"#utility.yul\":4958:4976   */\n      0x44\n      add\n        /* \"battle.sol\":4325:4399  FighterContract(fighterContractAddress).decreaseHealth(vals2[0], vals2[4]) */\n      0x00\n      mload(0x40)\n      dup1\n      dup4\n      sub\n      dup2\n      0x00\n      dup8\n      dup1\n      extcodesize\n      iszero\n      dup1\n      iszero\n      tag_131\n      jumpi\n      0x00\n      dup1\n      revert\n    tag_131:\n      pop\n      gas\n      call\n      iszero\n      dup1\n      iszero\n      tag_133\n      jumpi\n      returndatasize\n      0x00\n      dup1\n      returndatacopy\n      revert(0x00, returndatasize)\n    tag_133:\n      pop\n      pop\n        /* \"battle.sol\":4473:4495  fighterContractAddress */\n      sload(0x01)\n        /* \"battle.sol\":4457:4529  FighterContract(fighterContractAddress).decreaseMana(vals1[0], vals1[5]) */\n      mload(0x40)\n      shl(0xe0, 0x8dc14247)\n      dup2\n      mstore\n        /* \"battle.sol\":4510:4518  vals1[0] */\n      dup9\n      calldataload\n        /* \"battle.sol\":4457:4529  FighterContract(fighterContractAddress).decreaseMana(vals1[0], vals1[5]) */\n      0x04\n      dup3\n      add\n        /* \"#utility.yul\":4985:5010   */\n      mstore\n        /* \"battle.sol\":4520:4528  vals1[5] */\n      0xa0\n      dup10\n      add\n      calldataload\n        /* \"#utility.yul\":5026:5044   */\n      0x24\n      dup3\n      add\n        /* \"#utility.yul\":5019:5053   */\n      mstore\n      sub(shl(0xa0, 0x01), 0x01)\n        /* \"battle.sol\":4473:4495  fighterContractAddress */\n      swap1\n      swap2\n      and\n      swap3\n      pop\n        /* \"battle.sol\":4457:4509  FighterContract(fighterContractAddress).decreaseMana */\n      0x8dc14247\n      swap2\n      pop\n        /* \"#utility.yul\":4958:4976   */\n      0x44\n      add\n        /* \"battle.sol\":4457:4529  FighterContract(fighterContractAddress).decreaseMana(vals1[0], vals1[5]) */\n      0x00\n      mload(0x40)\n      dup1\n      dup4\n      sub\n      dup2\n      0x00\n      dup8\n      dup1\n      extcodesize\n      iszero\n      dup1\n      iszero\n      tag_139\n      jumpi\n      0x00\n      dup1\n      revert\n    tag_139:\n      pop\n      gas\n      call\n      iszero\n      dup1\n      iszero\n      tag_141\n      jumpi\n      returndatasize\n      0x00\n      dup1\n      returndatacopy\n      revert(0x00, returndatasize)\n    tag_141:\n      pop\n      pop\n        /* \"battle.sol\":4555:4577  fighterContractAddress */\n      sload(0x01)\n        /* \"battle.sol\":4539:4611  FighterContract(fighterContractAddress).decreaseMana(vals2[0], vals2[5]) */\n      mload(0x40)\n      shl(0xe0, 0x8dc14247)\n      dup2\n      mstore\n        /* \"battle.sol\":4592:4600  vals2[0] */\n      dup8\n      calldataload\n        /* \"battle.sol\":4539:4611  FighterContract(fighterContractAddress).decreaseMana(vals2[0], vals2[5]) */\n      0x04\n      dup3\n      add\n        /* \"#utility.yul\":4985:5010   */\n      mstore\n        /* \"battle.sol\":4602:4610  vals2[5] */\n      0xa0\n      dup9\n      add\n      calldataload\n        /* \"#utility.yul\":5026:5044   */\n      0x24\n      dup3\n      add\n        /* \"#utility.yul\":5019:5053   */\n      mstore\n      sub(shl(0xa0, 0x01), 0x01)\n        /* \"battle.sol\":4555:4577  fighterContractAddress */\n      swap1\n      swap2\n      and\n      swap3\n      pop\n        /* \"battle.sol\":4539:4591  FighterContract(fighterContractAddress).decreaseMana */\n      0x8dc14247\n      swap2\n      pop\n        /* \"#utility.yul\":4958:4976   */\n      0x44\n      add\n        /* \"battle.sol\":4539:4611  FighterContract(fighterContractAddress).decreaseMana(vals2[0], vals2[5]) */\n      0x00\n      mload(0x40)\n      dup1\n      dup4\n      sub\n      dup2\n      0x00\n      dup8\n      dup1\n      extcodesize\n      iszero\n      dup1\n      iszero\n      tag_147\n      jumpi\n      0x00\n      dup1\n      revert\n    tag_147:\n      pop\n      gas\n      call\n      iszero\n      dup1\n      iszero\n      tag_149\n      jumpi\n      returndatasize\n      0x00\n      dup1\n      returndatacopy\n      revert(0x00, returndatasize)\n    tag_149:\n      pop\n      pop\n        /* \"battle.sol\":4700:4708  t.level1 */\n      dup3\n      mload\n        /* \"battle.sol\":4710:4718  t.level2 */\n      0x20\n      dup5\n      add\n      mload\n        /* \"battle.sol\":4665:4677  uint256 exp1 */\n      0x00\n      swap4\n      pop\n        /* \"battle.sol\":4680:4729  calculateExpirience(t.level1, t.level2, vals1[3]) */\n      tag_150\n      swap3\n      pop\n        /* \"battle.sol\":4720:4725  vals1 */\n      dup9\n        /* \"battle.sol\":4726:4727  3 */\n      0x03\n        /* \"battle.sol\":4720:4728  vals1[3] */\n    tag_152:\n      0x20\n      mul\n      add\n      calldataload\n        /* \"battle.sol\":4680:4699  calculateExpirience */\n      tag_33\n        /* \"battle.sol\":4680:4729  calculateExpirience(t.level1, t.level2, vals1[3]) */\n      jump\t// in\n    tag_150:\n        /* \"battle.sol\":4745:4762  LogError(21,exp1) */\n      0x40\n      dup1\n      mload\n        /* \"battle.sol\":4754:4756  21 */\n      0x15\n        /* \"#utility.yul\":5245:5281   */\n      dup2\n      mstore\n        /* \"#utility.yul\":5312:5314   */\n      0x20\n        /* \"#utility.yul\":5297:5315   */\n      dup2\n      add\n        /* \"#utility.yul\":5290:5324   */\n      dup4\n      swap1\n      mstore\n        /* \"battle.sol\":4665:4729  uint256 exp1 = calculateExpirience(t.level1, t.level2, vals1[3]) */\n      swap2\n      swap3\n      pop\n      0x00\n      dup1\n      mload\n      0x20\n      data_20ea0a067f32200f959cf5aa71f9a8dcdf8923d0708fe13b36637a93c4c6ad12\n      dup4\n      codecopy\n      dup2\n      mload\n      swap2\n      mstore\n        /* \"battle.sol\":4745:4762  LogError(21,exp1) */\n      swap2\n        /* \"#utility.yul\":5218:5236   */\n      add\n        /* \"battle.sol\":4745:4762  LogError(21,exp1) */\n      mload(0x40)\n      dup1\n      swap2\n      sub\n      swap1\n      log1\n        /* \"battle.sol\":4826:4834  t.level2 */\n      0x20\n      dup3\n      add\n      mload\n        /* \"battle.sol\":4836:4844  t.level1 */\n      dup3\n      mload\n        /* \"battle.sol\":4791:4803  uint256 exp2 */\n      0x00\n      swap2\n        /* \"battle.sol\":4806:4855  calculateExpirience(t.level2, t.level1, vals2[3]) */\n      tag_155\n      swap2\n        /* \"battle.sol\":4846:4851  vals2 */\n      dup9\n        /* \"battle.sol\":4852:4853  3 */\n      0x03\n        /* \"battle.sol\":4846:4854  vals2[3] */\n      jump(tag_152)\n        /* \"battle.sol\":4806:4855  calculateExpirience(t.level2, t.level1, vals2[3]) */\n    tag_155:\n        /* \"battle.sol\":4873:4889  LogError(3,exp1) */\n      0x40\n      dup1\n      mload\n        /* \"battle.sol\":4882:4883  3 */\n      0x03\n        /* \"#utility.yul\":5245:5281   */\n      dup2\n      mstore\n        /* \"#utility.yul\":5312:5314   */\n      0x20\n        /* \"#utility.yul\":5297:5315   */\n      dup2\n      add\n        /* \"#utility.yul\":5290:5324   */\n      dup6\n      swap1\n      mstore\n        /* \"battle.sol\":4791:4855  uint256 exp2 = calculateExpirience(t.level2, t.level1, vals2[3]) */\n      swap2\n      swap3\n      pop\n      0x00\n      dup1\n      mload\n      0x20\n      data_20ea0a067f32200f959cf5aa71f9a8dcdf8923d0708fe13b36637a93c4c6ad12\n      dup4\n      codecopy\n      dup2\n      mload\n      swap2\n      mstore\n        /* \"battle.sol\":4873:4889  LogError(3,exp1) */\n      swap2\n        /* \"#utility.yul\":5218:5236   */\n      add\n        /* \"battle.sol\":4873:4889  LogError(3,exp1) */\n      mload(0x40)\n      dup1\n      swap2\n      sub\n      swap1\n      log1\n        /* \"battle.sol\":4904:4920  LogError(4,exp2) */\n      0x40\n      dup1\n      mload\n        /* \"battle.sol\":4913:4914  4 */\n      0x04\n        /* \"#utility.yul\":5245:5281   */\n      dup2\n      mstore\n        /* \"#utility.yul\":5312:5314   */\n      0x20\n        /* \"#utility.yul\":5297:5315   */\n      dup2\n      add\n        /* \"#utility.yul\":5290:5324   */\n      dup4\n      swap1\n      mstore\n      0x00\n      dup1\n      mload\n      0x20\n      data_20ea0a067f32200f959cf5aa71f9a8dcdf8923d0708fe13b36637a93c4c6ad12\n      dup4\n      codecopy\n      dup2\n      mload\n      swap2\n      mstore\n        /* \"battle.sol\":4904:4920  LogError(4,exp2) */\n      swap2\n        /* \"#utility.yul\":5218:5236   */\n      add\n        /* \"battle.sol\":4904:4920  LogError(4,exp2) */\n      mload(0x40)\n      dup1\n      swap2\n      sub\n      swap1\n      log1\n        /* \"battle.sol\":5014:5036  fighterContractAddress */\n      sload(0x01)\n        /* \"battle.sol\":4998:5072  FighterContract(fighterContractAddress).increaseExperience(vals1[0], exp1) */\n      mload(0x40)\n      shl(0xe0, 0x243a7c7b)\n      dup2\n      mstore\n        /* \"battle.sol\":5057:5065  vals1[0] */\n      dup9\n      calldataload\n        /* \"battle.sol\":4998:5072  FighterContract(fighterContractAddress).increaseExperience(vals1[0], exp1) */\n      0x04\n      dup3\n      add\n        /* \"#utility.yul\":4985:5010   */\n      mstore\n        /* \"#utility.yul\":5026:5044   */\n      0x24\n      dup2\n      add\n        /* \"#utility.yul\":5019:5053   */\n      dup5\n      swap1\n      mstore\n      sub(shl(0xa0, 0x01), 0x01)\n        /* \"battle.sol\":5014:5036  fighterContractAddress */\n      swap1\n      swap2\n      and\n      swap1\n        /* \"battle.sol\":4998:5056  FighterContract(fighterContractAddress).increaseExperience */\n      0x243a7c7b\n      swap1\n        /* \"#utility.yul\":4958:4976   */\n      0x44\n      add\n        /* \"battle.sol\":4998:5072  FighterContract(fighterContractAddress).increaseExperience(vals1[0], exp1) */\n      0x00\n      mload(0x40)\n      dup1\n      dup4\n      sub\n      dup2\n      0x00\n      dup8\n      dup1\n      extcodesize\n      iszero\n      dup1\n      iszero\n      tag_165\n      jumpi\n      0x00\n      dup1\n      revert\n    tag_165:\n      pop\n      gas\n      call\n      iszero\n      dup1\n      iszero\n      tag_167\n      jumpi\n      returndatasize\n      0x00\n      dup1\n      returndatacopy\n      revert(0x00, returndatasize)\n    tag_167:\n      pop\n      pop\n        /* \"battle.sol\":5098:5120  fighterContractAddress */\n      sload(0x01)\n        /* \"battle.sol\":5082:5156  FighterContract(fighterContractAddress).increaseExperience(vals2[0], exp2) */\n      mload(0x40)\n      shl(0xe0, 0x243a7c7b)\n      dup2\n      mstore\n        /* \"battle.sol\":5141:5149  vals2[0] */\n      dup10\n      calldataload\n        /* \"battle.sol\":5082:5156  FighterContract(fighterContractAddress).increaseExperience(vals2[0], exp2) */\n      0x04\n      dup3\n      add\n        /* \"#utility.yul\":4985:5010   */\n      mstore\n        /* \"#utility.yul\":5026:5044   */\n      0x24\n      dup2\n      add\n        /* \"#utility.yul\":5019:5053   */\n      dup6\n      swap1\n      mstore\n      sub(shl(0xa0, 0x01), 0x01)\n        /* \"battle.sol\":5098:5120  fighterContractAddress */\n      swap1\n      swap2\n      and\n      swap3\n      pop\n        /* \"battle.sol\":5082:5140  FighterContract(fighterContractAddress).increaseExperience */\n      0x243a7c7b\n      swap2\n      pop\n        /* \"#utility.yul\":4958:4976   */\n      0x44\n      add\n        /* \"battle.sol\":5082:5156  FighterContract(fighterContractAddress).increaseExperience(vals2[0], exp2) */\n      0x00\n      mload(0x40)\n      dup1\n      dup4\n      sub\n      dup2\n      0x00\n      dup8\n      dup1\n      extcodesize\n      iszero\n      dup1\n      iszero\n      tag_171\n      jumpi\n      0x00\n      dup1\n      revert\n    tag_171:\n      pop\n      gas\n      call\n      iszero\n      dup1\n      iszero\n      tag_173\n      jumpi\n      returndatasize\n      0x00\n      dup1\n      returndatacopy\n      revert(0x00, returndatasize)\n    tag_173:\n      pop\n      pop\n        /* \"battle.sol\":5172:5185  LogError(5,0) */\n      0x40\n      dup1\n      mload\n        /* \"battle.sol\":5181:5182  5 */\n      0x05\n        /* \"#utility.yul\":5245:5281   */\n      dup2\n      mstore\n        /* \"battle.sol\":5183:5184  0 */\n      0x00\n        /* \"#utility.yul\":5312:5314   */\n      0x20\n        /* \"#utility.yul\":5297:5315   */\n      dup3\n      add\n        /* \"#utility.yul\":5290:5324   */\n      mstore\n      0x00\n      dup1\n      mload\n      0x20\n      data_20ea0a067f32200f959cf5aa71f9a8dcdf8923d0708fe13b36637a93c4c6ad12\n      dup4\n      codecopy\n      dup2\n      mload\n      swap2\n      mstore\n        /* \"battle.sol\":5172:5185  LogError(5,0) */\n      swap4\n      pop\n        /* \"#utility.yul\":5218:5236   */\n      add\n      swap1\n      pop\n        /* \"battle.sol\":5172:5185  LogError(5,0) */\n      mload(0x40)\n      dup1\n      swap2\n      sub\n      swap1\n      log1\n        /* \"battle.sol\":5204:5218  uint256 winner */\n      0x00\n        /* \"battle.sol\":5236:5244  vals1[6] */\n      0xc0\n      dup9\n      add\n      calldataload\n        /* \"battle.sol\":5248:5249  1 */\n      0x01\n        /* \"battle.sol\":5236:5249  vals1[6] == 1 */\n      sub\n        /* \"battle.sol\":5232:5302  if (vals1[6] == 1) ... */\n      tag_178\n      jumpi\n      pop\n        /* \"battle.sol\":5283:5291  vals1[0] */\n      dup7\n      calldataload\n        /* \"battle.sol\":5232:5302  if (vals1[6] == 1) ... */\n    tag_178:\n        /* \"battle.sol\":5324:5332  vals2[6] */\n      0xc0\n      dup8\n      add\n      calldataload\n        /* \"battle.sol\":5336:5337  1 */\n      0x01\n        /* \"battle.sol\":5324:5337  vals2[6] == 1 */\n      sub\n        /* \"battle.sol\":5320:5389  if (vals2[6] == 1)... */\n      tag_183\n      jumpi\n      pop\n        /* \"battle.sol\":5370:5378  vals2[0] */\n      dup6\n      calldataload\n        /* \"battle.sol\":5320:5389  if (vals2[6] == 1)... */\n    tag_183:\n        /* \"battle.sol\":5413:5426  LogError(6,0) */\n      0x40\n      dup1\n      mload\n        /* \"battle.sol\":5422:5423  6 */\n      0x06\n        /* \"#utility.yul\":5245:5281   */\n      dup2\n      mstore\n        /* \"battle.sol\":5424:5425  0 */\n      0x00\n        /* \"#utility.yul\":5312:5314   */\n      0x20\n        /* \"#utility.yul\":5297:5315   */\n      dup3\n      add\n        /* \"#utility.yul\":5290:5324   */\n      mstore\n      0x00\n      dup1\n      mload\n      0x20\n      data_20ea0a067f32200f959cf5aa71f9a8dcdf8923d0708fe13b36637a93c4c6ad12\n      dup4\n      codecopy\n      dup2\n      mload\n      swap2\n      mstore\n        /* \"battle.sol\":5413:5426  LogError(6,0) */\n      swap2\n        /* \"#utility.yul\":5218:5236   */\n      add\n        /* \"battle.sol\":5413:5426  LogError(6,0) */\n      mload(0x40)\n      dup1\n      swap2\n      sub\n      swap1\n      log1\n        /* \"battle.sol\":5455:5468  uint256 purse */\n      0x00\n        /* \"battle.sol\":5497:5505  vals1[0] */\n      dup9\n      calldataload\n        /* \"battle.sol\":5487:5505  winner == vals1[0] */\n      dup3\n      sub\n        /* \"battle.sol\":5483:5890  if (winner == vals1[0]) ... */\n      tag_190\n      jumpi\n        /* \"battle.sol\":5560:5575  moneyExpDivider */\n      sload(0x05)\n        /* \"battle.sol\":5538:5557  safeMul(exp1, 1e18) */\n      tag_191\n        /* \"battle.sol\":5546:5550  exp1 */\n      dup6\n        /* \"battle.sol\":5552:5556  1e18 */\n      0x0de0b6b3a7640000\n        /* \"battle.sol\":5538:5545  safeMul */\n      tag_53\n        /* \"battle.sol\":5538:5557  safeMul(exp1, 1e18) */\n      jump\t// in\n    tag_191:\n        /* \"battle.sol\":5538:5575  safeMul(exp1, 1e18) / moneyExpDivider */\n      tag_192\n      swap2\n      swap1\n      tag_193\n      jump\t// in\n    tag_192:\n        /* \"battle.sol\":5610:5637  fighterMoneyContractAddress */\n      sload(0x02)\n        /* \"battle.sol\":5657:5665  t.owner1 */\n      0x40\n      dup8\n      dup2\n      add\n      mload\n        /* \"battle.sol\":5589:5673  FighterMoneyContract(fighterMoneyContractAddress).payoutBattlePurse(t.owner1, purse) */\n      swap1\n      mload\n      shl(0xe0, 0xb78636a1)\n      dup2\n      mstore\n      sub(shl(0xa0, 0x01), 0x01)\n        /* \"#utility.yul\":6977:7009   */\n      swap2\n      dup3\n      and\n        /* \"battle.sol\":5589:5673  FighterMoneyContract(fighterMoneyContractAddress).payoutBattlePurse(t.owner1, purse) */\n      0x04\n      dup3\n      add\n        /* \"#utility.yul\":6959:7010   */\n      mstore\n        /* \"#utility.yul\":7026:7044   */\n      0x24\n      dup2\n      add\n        /* \"#utility.yul\":7019:7053   */\n      dup5\n      swap1\n      mstore\n        /* \"battle.sol\":5530:5575  purse = safeMul(exp1, 1e18) / moneyExpDivider */\n      swap3\n      swap4\n      pop\n        /* \"battle.sol\":5610:5637  fighterMoneyContractAddress */\n      and\n      swap1\n        /* \"battle.sol\":5589:5656  FighterMoneyContract(fighterMoneyContractAddress).payoutBattlePurse */\n      0xb78636a1\n      swap1\n        /* \"#utility.yul\":6932:6950   */\n      0x44\n      add\n        /* \"battle.sol\":5589:5673  FighterMoneyContract(fighterMoneyContractAddress).payoutBattlePurse(t.owner1, purse) */\n      0x00\n      mload(0x40)\n      dup1\n      dup4\n      sub\n      dup2\n      0x00\n      dup8\n      dup1\n      extcodesize\n      iszero\n      dup1\n      iszero\n      tag_196\n      jumpi\n      0x00\n      dup1\n      revert\n    tag_196:\n      pop\n      gas\n      call\n      iszero\n      dup1\n      iszero\n      tag_198\n      jumpi\n      returndatasize\n      0x00\n      dup1\n      returndatacopy\n      revert(0x00, returndatasize)\n    tag_198:\n      pop\n      pop\n      pop\n      pop\n        /* \"battle.sol\":5483:5890  if (winner == vals1[0]) ... */\n      jump(tag_202)\n    tag_190:\n        /* \"battle.sol\":5704:5712  vals2[0] */\n      dup8\n      calldataload\n        /* \"battle.sol\":5694:5712  winner == vals2[0] */\n      dup3\n      sub\n        /* \"battle.sol\":5690:5890  if (winner == vals2[0])... */\n      tag_202\n      jumpi\n        /* \"battle.sol\":5766:5781  moneyExpDivider */\n      sload(0x05)\n        /* \"battle.sol\":5744:5763  safeMul(exp2, 1e18) */\n      tag_203\n        /* \"battle.sol\":5752:5756  exp2 */\n      dup5\n        /* \"battle.sol\":5758:5762  1e18 */\n      0x0de0b6b3a7640000\n        /* \"battle.sol\":5744:5751  safeMul */\n      tag_53\n        /* \"battle.sol\":5744:5763  safeMul(exp2, 1e18) */\n      jump\t// in\n    tag_203:\n        /* \"battle.sol\":5744:5781  safeMul(exp2, 1e18) / moneyExpDivider */\n      tag_204\n      swap2\n      swap1\n      tag_193\n      jump\t// in\n    tag_204:\n        /* \"battle.sol\":5816:5843  fighterMoneyContractAddress */\n      sload(0x02)\n        /* \"battle.sol\":5863:5871  t.owner2 */\n      0x60\n      dup8\n      add\n      mload\n        /* \"battle.sol\":5795:5879  FighterMoneyContract(fighterMoneyContractAddress).payoutBattlePurse(t.owner2, purse) */\n      mload(0x40)\n      shl(0xe0, 0xb78636a1)\n      dup2\n      mstore\n      sub(shl(0xa0, 0x01), 0x01)\n        /* \"#utility.yul\":6977:7009   */\n      swap2\n      dup3\n      and\n        /* \"battle.sol\":5795:5879  FighterMoneyContract(fighterMoneyContractAddress).payoutBattlePurse(t.owner2, purse) */\n      0x04\n      dup3\n      add\n        /* \"#utility.yul\":6959:7010   */\n      mstore\n        /* \"#utility.yul\":7026:7044   */\n      0x24\n      dup2\n      add\n        /* \"#utility.yul\":7019:7053   */\n      dup5\n      swap1\n      mstore\n        /* \"battle.sol\":5736:5781  purse = safeMul(exp2, 1e18) / moneyExpDivider */\n      swap3\n      swap4\n      pop\n        /* \"battle.sol\":5816:5843  fighterMoneyContractAddress */\n      and\n      swap1\n        /* \"battle.sol\":5795:5862  FighterMoneyContract(fighterMoneyContractAddress).payoutBattlePurse */\n      0xb78636a1\n      swap1\n        /* \"#utility.yul\":6932:6950   */\n      0x44\n      add\n        /* \"battle.sol\":5795:5879  FighterMoneyContract(fighterMoneyContractAddress).payoutBattlePurse(t.owner2, purse) */\n      0x00\n      mload(0x40)\n      dup1\n      dup4\n      sub\n      dup2\n      0x00\n      dup8\n      dup1\n      extcodesize\n      iszero\n      dup1\n      iszero\n      tag_206\n      jumpi\n      0x00\n      dup1\n      revert\n    tag_206:\n      pop\n      gas\n      call\n      iszero\n      dup1\n      iszero\n      tag_208\n      jumpi\n      returndatasize\n      0x00\n      dup1\n      returndatacopy\n      revert(0x00, returndatasize)\n    tag_208:\n      pop\n      pop\n      pop\n      pop\n        /* \"battle.sol\":5690:5890  if (winner == vals2[0])... */\n    tag_202:\n        /* \"battle.sol\":5942:6093  Battle({... */\n      0x40\n      dup1\n      mload\n      0x80\n      dup2\n      add\n      dup3\n      mstore\n        /* \"battle.sol\":5976:5988  block.number */\n      number\n        /* \"battle.sol\":5942:6093  Battle({... */\n      dup2\n      mstore\n        /* \"battle.sol\":6013:6021  vals1[0] */\n      dup11\n      calldataload\n        /* \"battle.sol\":5942:6093  Battle({... */\n      0x20\n      dup3\n      add\n      mstore\n      swap1\n      dup2\n      add\n        /* \"battle.sol\":6046:6051  vals2 */\n      dup10\n      0x00\n        /* \"battle.sol\":6046:6054  vals2[0] */\n      0x20\n      swap1\n      dup2\n      mul\n      swap2\n      swap1\n      swap2\n      add\n      calldataload\n        /* \"battle.sol\":5942:6093  Battle({... */\n      dup3\n      mstore\n      swap1\n      dup2\n      add\n      dup5\n      swap1\n      mstore\n      0x00\n        /* \"battle.sol\":5920:5939  battles[battleHash] */\n      dup9\n      dup2\n      mstore\n      dup1\n      dup3\n      mstore\n      0x40\n      swap1\n      dup2\n      swap1\n      keccak256\n        /* \"battle.sol\":5920:6093  battles[battleHash] = Battle({... */\n      dup4\n      mload\n      dup2\n      sstore\n      dup4\n      dup4\n      add\n      mload\n      0x01\n      dup3\n      add\n      sstore\n      dup4\n      dup3\n      add\n      mload\n      0x02\n      dup3\n      add\n      sstore\n      0x60\n      swap4\n      dup5\n      add\n      mload\n      0x03\n      swap1\n      swap2\n      add\n      sstore\n        /* \"battle.sol\":6109:6158  BattleRecorded(vals1[0], vals2[0], winner, purse) */\n      dup1\n      mload\n        /* \"battle.sol\":6124:6132  vals1[0] */\n      dup13\n      calldataload\n        /* \"#utility.yul\":2526:2551   */\n      dup2\n      mstore\n        /* \"battle.sol\":6134:6142  vals2[0] */\n      dup12\n      calldataload\n        /* \"#utility.yul\":2567:2585   */\n      swap3\n      dup2\n      add\n        /* \"#utility.yul\":2560:2594   */\n      swap3\n      swap1\n      swap3\n      mstore\n        /* \"#utility.yul\":2610:2628   */\n      dup2\n      add\n        /* \"#utility.yul\":2603:2637   */\n      dup5\n      swap1\n      mstore\n        /* \"#utility.yul\":2653:2671   */\n      swap1\n      dup2\n      add\n        /* \"#utility.yul\":2646:2680   */\n      dup3\n      swap1\n      mstore\n        /* \"battle.sol\":6109:6158  BattleRecorded(vals1[0], vals2[0], winner, purse) */\n      0x3ea69882536ba5c0664cf3bdef8a6b5c27996390aa0f0f3fb10c6812ee9f787e\n      swap1\n        /* \"#utility.yul\":2513:2516   */\n      0x80\n        /* \"#utility.yul\":2498:2517   */\n      add\n        /* \"battle.sol\":6109:6158  BattleRecorded(vals1[0], vals2[0], winner, purse) */\n      mload(0x40)\n      dup1\n      swap2\n      sub\n      swap1\n      log1\n        /* \"battle.sol\":2611:6165  {... */\n      pop\n      pop\n      pop\n      pop\n      pop\n      pop\n        /* \"battle.sol\":2395:6165  function recordFight(... */\n      pop\n      pop\n      pop\n      jump\t// out\n        /* \"battle.sol\":6172:6908  function calculateExpirience(uint256 fighterLevel, uint256 opponentLevel, uint256 damageDealt) public returns (uint256) {... */\n    tag_33:\n        /* \"battle.sol\":6283:6290  uint256 */\n      0x00\n        /* \"battle.sol\":6302:6325  uint256 levelDifference */\n      dup1\n        /* \"battle.sol\":6335:6346  uint256 exp */\n      0x00\n        /* \"battle.sol\":6375:6388  opponentLevel */\n      dup5\n        /* \"battle.sol\":6360:6372  fighterLevel */\n      dup7\n        /* \"battle.sol\":6360:6388  fighterLevel > opponentLevel */\n      gt\n        /* \"battle.sol\":6356:6881  if (fighterLevel > opponentLevel)... */\n      iszero\n      tag_219\n      jumpi\n        /* \"battle.sol\":6430:6458  fighterLevel - opponentLevel */\n      tag_220\n        /* \"battle.sol\":6445:6458  opponentLevel */\n      dup6\n        /* \"battle.sol\":6430:6442  fighterLevel */\n      dup8\n        /* \"battle.sol\":6430:6458  fighterLevel - opponentLevel */\n      tag_221\n      jump\t// in\n    tag_220:\n        /* \"battle.sol\":6412:6458  levelDifference = fighterLevel - opponentLevel */\n      swap2\n      pop\n        /* \"battle.sol\":6564:6568  1e18 */\n      0x0de0b6b3a7640000\n        /* \"battle.sol\":6479:6561  safeMul(damageDealt, safeSub(1e18, safeMul(levelDifference, 1e18) / fighterLevel)) */\n      tag_222\n        /* \"battle.sol\":6487:6498  damageDealt */\n      dup6\n        /* \"battle.sol\":6500:6560  safeSub(1e18, safeMul(levelDifference, 1e18) / fighterLevel) */\n      tag_52\n        /* \"battle.sol\":6508:6512  1e18 */\n      0x0de0b6b3a7640000\n        /* \"battle.sol\":6547:6559  fighterLevel */\n      dup11\n        /* \"battle.sol\":6514:6544  safeMul(levelDifference, 1e18) */\n      tag_224\n        /* \"battle.sol\":6522:6537  levelDifference */\n      dup9\n        /* \"battle.sol\":6539:6543  1e18 */\n      0x0de0b6b3a7640000\n        /* \"battle.sol\":6514:6521  safeMul */\n      tag_53\n        /* \"battle.sol\":6514:6544  safeMul(levelDifference, 1e18) */\n      jump\t// in\n    tag_224:\n        /* \"battle.sol\":6514:6559  safeMul(levelDifference, 1e18) / fighterLevel */\n      tag_47\n      swap2\n      swap1\n      tag_193\n      jump\t// in\n        /* \"battle.sol\":6479:6561  safeMul(damageDealt, safeSub(1e18, safeMul(levelDifference, 1e18) / fighterLevel)) */\n    tag_222:\n        /* \"battle.sol\":6479:6568  safeMul(damageDealt, safeSub(1e18, safeMul(levelDifference, 1e18) / fighterLevel)) / 1e18 */\n      tag_226\n      swap2\n      swap1\n      tag_193\n      jump\t// in\n    tag_226:\n        /* \"battle.sol\":6473:6568  exp = safeMul(damageDealt, safeSub(1e18, safeMul(levelDifference, 1e18) / fighterLevel)) / 1e18 */\n      swap1\n      pop\n        /* \"battle.sol\":6356:6881  if (fighterLevel > opponentLevel)... */\n      jump(tag_235)\n    tag_219:\n        /* \"battle.sol\":6612:6625  opponentLevel */\n      dup5\n        /* \"battle.sol\":6597:6609  fighterLevel */\n      dup7\n        /* \"battle.sol\":6597:6625  fighterLevel < opponentLevel */\n      lt\n        /* \"battle.sol\":6593:6881  if (fighterLevel < opponentLevel)... */\n      iszero\n      tag_228\n      jumpi\n        /* \"battle.sol\":6667:6695  opponentLevel - fighterLevel */\n      tag_229\n        /* \"battle.sol\":6683:6695  fighterLevel */\n      dup7\n        /* \"battle.sol\":6667:6680  opponentLevel */\n      dup7\n        /* \"battle.sol\":6667:6695  opponentLevel - fighterLevel */\n      tag_221\n      jump\t// in\n    tag_229:\n        /* \"battle.sol\":6649:6695  levelDifference = opponentLevel - fighterLevel */\n      swap2\n      pop\n        /* \"battle.sol\":6801:6805  1e18 */\n      0x0de0b6b3a7640000\n        /* \"battle.sol\":6716:6798  safeMul(damageDealt, safeAdd(safeMul(levelDifference, 1e18) / fighterLevel, 1e18)) */\n      tag_222\n        /* \"battle.sol\":6724:6735  damageDealt */\n      dup6\n        /* \"battle.sol\":6737:6797  safeAdd(safeMul(levelDifference, 1e18) / fighterLevel, 1e18) */\n      tag_52\n        /* \"battle.sol\":6778:6790  fighterLevel */\n      dup10\n        /* \"battle.sol\":6745:6775  safeMul(levelDifference, 1e18) */\n      tag_232\n        /* \"battle.sol\":6753:6768  levelDifference */\n      dup8\n        /* \"battle.sol\":6770:6774  1e18 */\n      0x0de0b6b3a7640000\n        /* \"battle.sol\":6745:6752  safeMul */\n      tag_53\n        /* \"battle.sol\":6745:6775  safeMul(levelDifference, 1e18) */\n      jump\t// in\n    tag_232:\n        /* \"battle.sol\":6745:6790  safeMul(levelDifference, 1e18) / fighterLevel */\n      tag_233\n      swap2\n      swap1\n      tag_193\n      jump\t// in\n    tag_233:\n        /* \"battle.sol\":6792:6796  1e18 */\n      0x0de0b6b3a7640000\n        /* \"battle.sol\":6737:6744  safeAdd */\n      tag_57\n        /* \"battle.sol\":6737:6797  safeAdd(safeMul(levelDifference, 1e18) / fighterLevel, 1e18) */\n      jump\t// in\n        /* \"battle.sol\":6593:6881  if (fighterLevel < opponentLevel)... */\n    tag_228:\n      pop\n        /* \"battle.sol\":6859:6870  damageDealt */\n      dup3\n        /* \"battle.sol\":6593:6881  if (fighterLevel < opponentLevel)... */\n    tag_235:\n        /* \"battle.sol\":6898:6901  exp */\n      swap6\n        /* \"battle.sol\":6172:6908  function calculateExpirience(uint256 fighterLevel, uint256 opponentLevel, uint256 damageDealt) public returns (uint256) {... */\n      swap5\n      pop\n      pop\n      pop\n      pop\n      pop\n      jump\t// out\n        /* \"battle.sol\":8910:9018  function safeSub(uint a, uint b) public returns (uint) {... */\n    tag_49:\n        /* \"battle.sol\":8959:8963  uint */\n      0x00\n        /* \"battle.sol\":8987:8988  a */\n      dup3\n        /* \"battle.sol\":8982:8983  b */\n      dup3\n        /* \"battle.sol\":8982:8988  b <= a */\n      gt\n      iszero\n        /* \"battle.sol\":8975:8989  assert(b <= a) */\n      tag_238\n      jumpi\n      tag_238\n      tag_62\n      jump\t// in\n    tag_238:\n        /* \"battle.sol\":9006:9011  a - b */\n      tag_239\n        /* \"battle.sol\":9010:9011  b */\n      dup3\n        /* \"battle.sol\":9006:9007  a */\n      dup5\n        /* \"battle.sol\":9006:9011  a - b */\n      tag_221\n      jump\t// in\n    tag_239:\n        /* \"battle.sol\":8999:9011  return a - b */\n      swap1\n      pop\n        /* \"battle.sol\":8910:9018  function safeSub(uint a, uint b) public returns (uint) {... */\n    tag_236:\n      swap3\n      swap2\n      pop\n      pop\n      jump\t// out\n        /* \"battle.sol\":8700:8842  function safeMul(uint a, uint b) public returns (uint) {... */\n    tag_53:\n        /* \"battle.sol\":8749:8753  uint */\n      0x00\n      dup1\n        /* \"battle.sol\":8774:8779  a * b */\n      tag_241\n        /* \"battle.sol\":8778:8779  b */\n      dup4\n        /* \"battle.sol\":8774:8775  a */\n      dup6\n        /* \"battle.sol\":8774:8779  a * b */\n      tag_242\n      jump\t// in\n    tag_241:\n        /* \"battle.sol\":8765:8779  uint c = a * b */\n      swap1\n      pop\n        /* \"battle.sol\":8796:8802  a == 0 */\n      dup4\n      iszero\n      dup1\n        /* \"battle.sol\":8796:8816  a == 0 || c / a == b */\n      tag_243\n      jumpi\n      pop\n        /* \"battle.sol\":8815:8816  b */\n      dup3\n        /* \"battle.sol\":8806:8811  c / a */\n      tag_244\n        /* \"battle.sol\":8810:8811  a */\n      dup6\n        /* \"battle.sol\":8806:8807  c */\n      dup4\n        /* \"battle.sol\":8806:8811  c / a */\n      tag_193\n      jump\t// in\n    tag_244:\n        /* \"battle.sol\":8806:8816  c / a == b */\n      eq\n        /* \"battle.sol\":8796:8816  a == 0 || c / a == b */\n    tag_243:\n        /* \"battle.sol\":8789:8817  assert(a == 0 || c / a == b) */\n      tag_239\n      jumpi\n      tag_239\n      tag_62\n      jump\t// in\n        /* \"battle.sol\":9083:9217  function safeAdd(uint a, uint b) public returns (uint) {... */\n    tag_57:\n        /* \"battle.sol\":9132:9136  uint */\n      0x00\n      dup1\n        /* \"battle.sol\":9157:9162  a + b */\n      tag_248\n        /* \"battle.sol\":9161:9162  b */\n      dup4\n        /* \"battle.sol\":9157:9158  a */\n      dup6\n        /* \"battle.sol\":9157:9162  a + b */\n      tag_249\n      jump\t// in\n    tag_248:\n        /* \"battle.sol\":9148:9162  uint c = a + b */\n      swap1\n      pop\n        /* \"battle.sol\":9182:9183  a */\n      dup4\n        /* \"battle.sol\":9179:9180  c */\n      dup2\n        /* \"battle.sol\":9179:9183  c>=a */\n      lt\n      iszero\n        /* \"battle.sol\":9179:9191  c>=a && c>=b */\n      dup1\n      iszero\n      tag_243\n      jumpi\n      pop\n        /* \"battle.sol\":9190:9191  b */\n      dup3\n        /* \"battle.sol\":9187:9188  c */\n      dup2\n        /* \"battle.sol\":9187:9191  c>=b */\n      lt\n      iszero\n        /* \"battle.sol\":9172:9192  assert(c>=a && c>=b) */\n      tag_239\n      jumpi\n      tag_239\n      tag_62\n      jump\t// in\n        /* \"#utility.yul\":14:145   */\n    tag_256:\n      sub(shl(0xa0, 0x01), 0x01)\n        /* \"#utility.yul\":89:120   */\n      dup2\n      and\n        /* \"#utility.yul\":79:121   */\n      dup2\n      eq\n        /* \"#utility.yul\":69:139   */\n      tag_261\n      jumpi\n        /* \"#utility.yul\":135:136   */\n      0x00\n        /* \"#utility.yul\":132:133   */\n      dup1\n        /* \"#utility.yul\":125:137   */\n      revert\n        /* \"#utility.yul\":69:139   */\n    tag_261:\n        /* \"#utility.yul\":14:145   */\n      pop\n      jump\t// out\n        /* \"#utility.yul\":150:397   */\n    tag_16:\n        /* \"#utility.yul\":209:215   */\n      0x00\n        /* \"#utility.yul\":262:264   */\n      0x20\n        /* \"#utility.yul\":250:259   */\n      dup3\n        /* \"#utility.yul\":241:248   */\n      dup5\n        /* \"#utility.yul\":237:260   */\n      sub\n        /* \"#utility.yul\":233:265   */\n      slt\n        /* \"#utility.yul\":230:282   */\n      iszero\n      tag_263\n      jumpi\n        /* \"#utility.yul\":278:279   */\n      0x00\n        /* \"#utility.yul\":275:276   */\n      dup1\n        /* \"#utility.yul\":268:280   */\n      revert\n        /* \"#utility.yul\":230:282   */\n    tag_263:\n        /* \"#utility.yul\":317:326   */\n      dup2\n        /* \"#utility.yul\":304:327   */\n      calldataload\n        /* \"#utility.yul\":336:367   */\n      tag_239\n        /* \"#utility.yul\":361:366   */\n      dup2\n        /* \"#utility.yul\":336:367   */\n      tag_256\n      jump\t// in\n        /* \"#utility.yul\":402:582   */\n    tag_20:\n        /* \"#utility.yul\":461:467   */\n      0x00\n        /* \"#utility.yul\":514:516   */\n      0x20\n        /* \"#utility.yul\":502:511   */\n      dup3\n        /* \"#utility.yul\":493:500   */\n      dup5\n        /* \"#utility.yul\":489:512   */\n      sub\n        /* \"#utility.yul\":485:517   */\n      slt\n        /* \"#utility.yul\":482:534   */\n      iszero\n      tag_266\n      jumpi\n        /* \"#utility.yul\":530:531   */\n      0x00\n        /* \"#utility.yul\":527:528   */\n      dup1\n        /* \"#utility.yul\":520:532   */\n      revert\n        /* \"#utility.yul\":482:534   */\n    tag_266:\n      pop\n        /* \"#utility.yul\":553:576   */\n      calldataload\n      swap2\n        /* \"#utility.yul\":402:582   */\n      swap1\n      pop\n      jump\t// out\n        /* \"#utility.yul\":587:1003   */\n    tag_24:\n        /* \"#utility.yul\":652:658   */\n      0x00\n        /* \"#utility.yul\":660:666   */\n      dup1\n        /* \"#utility.yul\":713:715   */\n      0x40\n        /* \"#utility.yul\":701:710   */\n      dup4\n        /* \"#utility.yul\":692:699   */\n      dup6\n        /* \"#utility.yul\":688:711   */\n      sub\n        /* \"#utility.yul\":684:716   */\n      slt\n        /* \"#utility.yul\":681:733   */\n      iszero\n      tag_268\n      jumpi\n        /* \"#utility.yul\":729:730   */\n      0x00\n        /* \"#utility.yul\":726:727   */\n      dup1\n        /* \"#utility.yul\":719:731   */\n      revert\n        /* \"#utility.yul\":681:733   */\n    tag_268:\n        /* \"#utility.yul\":768:777   */\n      dup3\n        /* \"#utility.yul\":755:778   */\n      calldataload\n        /* \"#utility.yul\":787:818   */\n      tag_269\n        /* \"#utility.yul\":812:817   */\n      dup2\n        /* \"#utility.yul\":787:818   */\n      tag_256\n      jump\t// in\n    tag_269:\n        /* \"#utility.yul\":837:842   */\n      swap2\n      pop\n        /* \"#utility.yul\":894:896   */\n      0x20\n        /* \"#utility.yul\":879:897   */\n      dup4\n      add\n        /* \"#utility.yul\":866:898   */\n      calldataload\n        /* \"#utility.yul\":936:951   */\n      dup1\n      iszero\n        /* \"#utility.yul\":929:952   */\n      iszero\n        /* \"#utility.yul\":917:953   */\n      dup2\n      eq\n        /* \"#utility.yul\":907:971   */\n      tag_270\n      jumpi\n        /* \"#utility.yul\":967:968   */\n      0x00\n        /* \"#utility.yul\":964:965   */\n      dup1\n        /* \"#utility.yul\":957:969   */\n      revert\n        /* \"#utility.yul\":907:971   */\n    tag_270:\n        /* \"#utility.yul\":990:997   */\n      dup1\n        /* \"#utility.yul\":980:997   */\n      swap2\n      pop\n      pop\n        /* \"#utility.yul\":587:1003   */\n      swap3\n      pop\n      swap3\n      swap1\n      pop\n      jump\t// out\n        /* \"#utility.yul\":1008:1168   */\n    tag_257:\n        /* \"#utility.yul\":1102:1108   */\n      dup1\n        /* \"#utility.yul\":1135:1138   */\n      0xe0\n        /* \"#utility.yul\":1123:1139   */\n      dup2\n      add\n        /* \"#utility.yul\":1120:1145   */\n      dup4\n      lt\n        /* \"#utility.yul\":1117:1162   */\n      iszero\n      tag_236\n      jumpi\n        /* \"#utility.yul\":1158:1159   */\n      0x00\n        /* \"#utility.yul\":1155:1156   */\n      dup1\n        /* \"#utility.yul\":1148:1160   */\n      revert\n        /* \"#utility.yul\":1173:1602   */\n    tag_28:\n        /* \"#utility.yul\":1300:1306   */\n      0x00\n        /* \"#utility.yul\":1308:1314   */\n      dup1\n        /* \"#utility.yul\":1316:1322   */\n      0x00\n        /* \"#utility.yul\":1369:1372   */\n      0x01e0\n        /* \"#utility.yul\":1357:1366   */\n      dup5\n        /* \"#utility.yul\":1348:1355   */\n      dup7\n        /* \"#utility.yul\":1344:1367   */\n      sub\n        /* \"#utility.yul\":1340:1373   */\n      slt\n        /* \"#utility.yul\":1337:1390   */\n      iszero\n      tag_274\n      jumpi\n        /* \"#utility.yul\":1386:1387   */\n      0x00\n        /* \"#utility.yul\":1383:1384   */\n      dup1\n        /* \"#utility.yul\":1376:1388   */\n      revert\n        /* \"#utility.yul\":1337:1390   */\n    tag_274:\n        /* \"#utility.yul\":1409:1462   */\n      tag_275\n        /* \"#utility.yul\":1454:1461   */\n      dup6\n        /* \"#utility.yul\":1443:1452   */\n      dup6\n        /* \"#utility.yul\":1409:1462   */\n      tag_257\n      jump\t// in\n    tag_275:\n        /* \"#utility.yul\":1399:1462   */\n      swap3\n      pop\n        /* \"#utility.yul\":1481:1544   */\n      tag_276\n        /* \"#utility.yul\":1536:1543   */\n      dup6\n        /* \"#utility.yul\":1530:1533   */\n      0xe0\n        /* \"#utility.yul\":1519:1528   */\n      dup7\n        /* \"#utility.yul\":1515:1534   */\n      add\n        /* \"#utility.yul\":1481:1544   */\n      tag_257\n      jump\t// in\n    tag_276:\n        /* \"#utility.yul\":1471:1544   */\n      swap2\n      pop\n        /* \"#utility.yul\":1591:1594   */\n      0x01c0\n        /* \"#utility.yul\":1580:1589   */\n      dup5\n        /* \"#utility.yul\":1576:1595   */\n      add\n        /* \"#utility.yul\":1563:1596   */\n      calldataload\n        /* \"#utility.yul\":1553:1596   */\n      swap1\n      pop\n        /* \"#utility.yul\":1173:1602   */\n      swap3\n      pop\n      swap3\n      pop\n      swap3\n      jump\t// out\n        /* \"#utility.yul\":1607:1923   */\n    tag_32:\n        /* \"#utility.yul\":1684:1690   */\n      0x00\n        /* \"#utility.yul\":1692:1698   */\n      dup1\n        /* \"#utility.yul\":1700:1706   */\n      0x00\n        /* \"#utility.yul\":1753:1755   */\n      0x60\n        /* \"#utility.yul\":1741:1750   */\n      dup5\n        /* \"#utility.yul\":1732:1739   */\n      dup7\n        /* \"#utility.yul\":1728:1751   */\n      sub\n        /* \"#utility.yul\":1724:1756   */\n      slt\n        /* \"#utility.yul\":1721:1773   */\n      iszero\n      tag_278\n      jumpi\n        /* \"#utility.yul\":1769:1770   */\n      0x00\n        /* \"#utility.yul\":1766:1767   */\n      dup1\n        /* \"#utility.yul\":1759:1771   */\n      revert\n        /* \"#utility.yul\":1721:1773   */\n    tag_278:\n      pop\n      pop\n        /* \"#utility.yul\":1792:1815   */\n      dup2\n      calldataload\n      swap4\n        /* \"#utility.yul\":1862:1864   */\n      0x20\n        /* \"#utility.yul\":1847:1865   */\n      dup4\n      add\n        /* \"#utility.yul\":1834:1866   */\n      calldataload\n      swap4\n      pop\n        /* \"#utility.yul\":1913:1915   */\n      0x40\n        /* \"#utility.yul\":1898:1916   */\n      swap1\n      swap3\n      add\n        /* \"#utility.yul\":1885:1917   */\n      calldataload\n      swap2\n        /* \"#utility.yul\":1607:1923   */\n      swap1\n      pop\n      jump\t// out\n        /* \"#utility.yul\":2899:3147   */\n    tag_48:\n        /* \"#utility.yul\":2967:2973   */\n      0x00\n        /* \"#utility.yul\":2975:2981   */\n      dup1\n        /* \"#utility.yul\":3028:3030   */\n      0x40\n        /* \"#utility.yul\":3016:3025   */\n      dup4\n        /* \"#utility.yul\":3007:3014   */\n      dup6\n        /* \"#utility.yul\":3003:3026   */\n      sub\n        /* \"#utility.yul\":2999:3031   */\n      slt\n        /* \"#utility.yul\":2996:3048   */\n      iszero\n      tag_285\n      jumpi\n        /* \"#utility.yul\":3044:3045   */\n      0x00\n        /* \"#utility.yul\":3041:3042   */\n      dup1\n        /* \"#utility.yul\":3034:3046   */\n      revert\n        /* \"#utility.yul\":2996:3048   */\n    tag_285:\n      pop\n      pop\n        /* \"#utility.yul\":3067:3090   */\n      dup1\n      calldataload\n      swap3\n        /* \"#utility.yul\":3137:3139   */\n      0x20\n        /* \"#utility.yul\":3122:3140   */\n      swap1\n      swap2\n      add\n        /* \"#utility.yul\":3109:3141   */\n      calldataload\n      swap2\n      pop\n        /* \"#utility.yul\":2899:3147   */\n      jump\t// out\n        /* \"#utility.yul\":3152:3279   */\n    tag_62:\n        /* \"#utility.yul\":3213:3223   */\n      0x4e487b71\n        /* \"#utility.yul\":3208:3211   */\n      0xe0\n        /* \"#utility.yul\":3204:3224   */\n      shl\n        /* \"#utility.yul\":3201:3202   */\n      0x00\n        /* \"#utility.yul\":3194:3225   */\n      mstore\n        /* \"#utility.yul\":3244:3248   */\n      0x01\n        /* \"#utility.yul\":3241:3242   */\n      0x04\n        /* \"#utility.yul\":3234:3249   */\n      mstore\n        /* \"#utility.yul\":3268:3272   */\n      0x24\n        /* \"#utility.yul\":3265:3266   */\n      0x00\n        /* \"#utility.yul\":3258:3273   */\n      revert\n        /* \"#utility.yul\":4366:4550   */\n    tag_97:\n        /* \"#utility.yul\":4436:4442   */\n      0x00\n        /* \"#utility.yul\":4489:4491   */\n      0x20\n        /* \"#utility.yul\":4477:4486   */\n      dup3\n        /* \"#utility.yul\":4468:4475   */\n      dup5\n        /* \"#utility.yul\":4464:4487   */\n      sub\n        /* \"#utility.yul\":4460:4492   */\n      slt\n        /* \"#utility.yul\":4457:4509   */\n      iszero\n      tag_292\n      jumpi\n        /* \"#utility.yul\":4505:4506   */\n      0x00\n        /* \"#utility.yul\":4502:4503   */\n      dup1\n        /* \"#utility.yul\":4495:4507   */\n      revert\n        /* \"#utility.yul\":4457:4509   */\n    tag_292:\n      pop\n        /* \"#utility.yul\":4528:4544   */\n      mload\n      swap2\n        /* \"#utility.yul\":4366:4550   */\n      swap1\n      pop\n      jump\t// out\n        /* \"#utility.yul\":4555:4806   */\n    tag_110:\n        /* \"#utility.yul\":4625:4631   */\n      0x00\n        /* \"#utility.yul\":4678:4680   */\n      0x20\n        /* \"#utility.yul\":4666:4675   */\n      dup3\n        /* \"#utility.yul\":4657:4664   */\n      dup5\n        /* \"#utility.yul\":4653:4676   */\n      sub\n        /* \"#utility.yul\":4649:4681   */\n      slt\n        /* \"#utility.yul\":4646:4698   */\n      iszero\n      tag_294\n      jumpi\n        /* \"#utility.yul\":4694:4695   */\n      0x00\n        /* \"#utility.yul\":4691:4692   */\n      dup1\n        /* \"#utility.yul\":4684:4696   */\n      revert\n        /* \"#utility.yul\":4646:4698   */\n    tag_294:\n        /* \"#utility.yul\":4726:4735   */\n      dup2\n        /* \"#utility.yul\":4720:4736   */\n      mload\n        /* \"#utility.yul\":4745:4776   */\n      tag_239\n        /* \"#utility.yul\":4770:4775   */\n      dup2\n        /* \"#utility.yul\":4745:4776   */\n      tag_256\n      jump\t// in\n        /* \"#utility.yul\":6431:6558   */\n    tag_258:\n        /* \"#utility.yul\":6492:6502   */\n      0x4e487b71\n        /* \"#utility.yul\":6487:6490   */\n      0xe0\n        /* \"#utility.yul\":6483:6503   */\n      shl\n        /* \"#utility.yul\":6480:6481   */\n      0x00\n        /* \"#utility.yul\":6473:6504   */\n      mstore\n        /* \"#utility.yul\":6523:6527   */\n      0x11\n        /* \"#utility.yul\":6520:6521   */\n      0x04\n        /* \"#utility.yul\":6513:6528   */\n      mstore\n        /* \"#utility.yul\":6547:6551   */\n      0x24\n        /* \"#utility.yul\":6544:6545   */\n      0x00\n        /* \"#utility.yul\":6537:6552   */\n      revert\n        /* \"#utility.yul\":6563:6780   */\n    tag_193:\n        /* \"#utility.yul\":6603:6604   */\n      0x00\n        /* \"#utility.yul\":6629:6630   */\n      dup3\n        /* \"#utility.yul\":6619:6751   */\n      tag_304\n      jumpi\n        /* \"#utility.yul\":6673:6683   */\n      0x4e487b71\n        /* \"#utility.yul\":6668:6671   */\n      0xe0\n        /* \"#utility.yul\":6664:6684   */\n      shl\n        /* \"#utility.yul\":6661:6662   */\n      0x00\n        /* \"#utility.yul\":6654:6685   */\n      mstore\n        /* \"#utility.yul\":6708:6712   */\n      0x12\n        /* \"#utility.yul\":6705:6706   */\n      0x04\n        /* \"#utility.yul\":6698:6713   */\n      mstore\n        /* \"#utility.yul\":6736:6740   */\n      0x24\n        /* \"#utility.yul\":6733:6734   */\n      0x00\n        /* \"#utility.yul\":6726:6741   */\n      revert\n        /* \"#utility.yul\":6619:6751   */\n    tag_304:\n      pop\n        /* \"#utility.yul\":6765:6774   */\n      div\n      swap1\n        /* \"#utility.yul\":6563:6780   */\n      jump\t// out\n        /* \"#utility.yul\":7064:7192   */\n    tag_221:\n        /* \"#utility.yul\":7131:7140   */\n      dup2\n      dup2\n      sub\n        /* \"#utility.yul\":7152:7163   */\n      dup2\n      dup2\n      gt\n        /* \"#utility.yul\":7149:7186   */\n      iszero\n      tag_236\n      jumpi\n        /* \"#utility.yul\":7166:7184   */\n      tag_236\n      tag_258\n      jump\t// in\n        /* \"#utility.yul\":7197:7365   */\n    tag_242:\n        /* \"#utility.yul\":7270:7279   */\n      dup1\n      dup3\n      mul\n        /* \"#utility.yul\":7301:7310   */\n      dup2\n      iszero\n        /* \"#utility.yul\":7318:7333   */\n      dup3\n      dup3\n      div\n        /* \"#utility.yul\":7312:7334   */\n      dup5\n      eq\n        /* \"#utility.yul\":7298:7335   */\n      or\n        /* \"#utility.yul\":7288:7359   */\n      tag_236\n      jumpi\n        /* \"#utility.yul\":7339:7357   */\n      tag_236\n      tag_258\n      jump\t// in\n        /* \"#utility.yul\":7370:7495   */\n    tag_249:\n        /* \"#utility.yul\":7435:7444   */\n      dup1\n      dup3\n      add\n        /* \"#utility.yul\":7456:7466   */\n      dup1\n      dup3\n      gt\n        /* \"#utility.yul\":7453:7489   */\n      iszero\n      tag_236\n      jumpi\n        /* \"#utility.yul\":7469:7487   */\n      tag_236\n      tag_258\n      jump\t// in\n    stop\n    data_20ea0a067f32200f959cf5aa71f9a8dcdf8923d0708fe13b36637a93c4c6ad12 93f9b03ea0c4f6f4154119b4b78510f183504fad78f2517d46d84a546ac0e97d\n\n    auxdata: 0xa2646970667358221220c9baabbcd65c54f4741fd3faa8fe60c42aa3d45864940de4b3e7a82be83db23b64736f6c63430008130033\n}\n",
				"bytecode": {
					"linkReferences": {},
					"object": "6080604052606460055534801561001557600080fd5b50604051610f93380380610f93833981016040819052610034916100a8565b600180546001600160a01b03199081166001600160a01b03948516178255600280548216939094169290921790925560038054339216821790556000908152600460205260409020805460ff191690911790556100db565b80516001600160a01b03811681146100a357600080fd5b919050565b600080604083850312156100bb57600080fd5b6100c48361008c565b91506100d26020840161008c565b90509250929050565b610ea9806100ea6000396000f3fe608060405234801561001057600080fd5b506004361061009e5760003560e01c806378547e6c1161006657806378547e6c146101175780638da5cb5b1461016c578063a293d1e814610197578063d05c78da146101aa578063e6cb9013146101bd57600080fd5b806313af4035146100a35780631fedfd0a146100b85780634b0bddd2146100cb57806357bcd00d146100de57806374440e9e146100f1575b600080fd5b6100b66100b1366004610c7f565b6101d0565b005b6100b66100c6366004610c9c565b610253565b6100b66100d9366004610cb5565b6102a8565b6100b66100ec366004610d04565b610325565b6101046100ff366004610d44565b610b2d565b6040519081526020015b60405180910390f35b61014c610125366004610c9c565b60006020819052908152604090208054600182015460028301546003909301549192909184565b60408051948552602085019390935291830152606082015260800161010e565b60035461017f906001600160a01b031681565b6040516001600160a01b03909116815260200161010e565b6101046101a5366004610d70565b610be8565b6101046101b8366004610d70565b610c0d565b6101046101cb366004610d70565b610c3d565b6003546001600160a01b031633146101ea576101ea610d92565b600354604080516001600160a01b03928316815291831660208301527fcbf985117192c8f614a58aaf97226bb80a754772f5f6edf06f87c675f2e6c663910160405180910390a1600380546001600160a01b0319166001600160a01b0392909216919091179055565b6003546001600160a01b0316331461026d5761026d610d92565b60058190556040518181527f127404d508a0cf69493bfd98baf6b96ec49407cc6fe58263bcf55e98d9994e349060200160405180910390a150565b6003546001600160a01b031633146102c2576102c2610d92565b6001600160a01b038216600081815260046020908152604091829020805460ff19168515159081179091558251938452908301527f55a5194bc0174fcaf12b2978bef43911466bf63b34db8d1dd1a0d5dcd5c41bea910160405180910390a15050565b3360009081526004602052604090205460ff1661034457610344610d92565b60408051306020808301919091528535828401528435606083015260808083018590528351808403909101815260a0909201835281519181019190912060008181529182905291902054156103df5760405162461bcd60e51b815260206004820152601760248201527f426174746c6520616c7265616479207265636f72646564000000000000000000604482015260640160405180910390fd5b604080516080810191829052600154630219207560e61b9092528535608482015260009181906001600160a01b03166386481d4060a483016020604051808303816000875af1158015610436573d6000803e3d6000fd5b505050506040513d601f19601f8201168201806040525081019061045a9190610da8565b8152600154604051630219207560e61b8152873560048201526020909201916001600160a01b03909116906386481d40906024016020604051808303816000875af11580156104ad573d6000803e3d6000fd5b505050506040513d601f19601f820116820180604052508101906104d19190610da8565b81526001546040516331a9108f60e11b8152883560048201526020909201916001600160a01b0390911690636352211e90602401602060405180830381865afa158015610522573d6000803e3d6000fd5b505050506040513d601f19601f820116820180604052508101906105469190610dc1565b6001600160a01b0390811682526001546040516331a9108f60e11b815288356004820152602090930192911690636352211e90602401602060405180830381865afa158015610599573d6000803e3d6000fd5b505050506040513d601f19601f820116820180604052508101906105bd9190610dc1565b6001600160a01b0390811690915260015460405163a7518eb160e01b81528835600482015260808901356024820152929350169063a7518eb190604401600060405180830381600087803b15801561061457600080fd5b505af1158015610628573d6000803e3d6000fd5b505060015460405163a7518eb160e01b815287356004820152608088013560248201526001600160a01b03909116925063a7518eb19150604401600060405180830381600087803b15801561067c57600080fd5b505af1158015610690573d6000803e3d6000fd5b5050600154604051638dc1424760e01b81528835600482015260a089013560248201526001600160a01b039091169250638dc142479150604401600060405180830381600087803b1580156106e457600080fd5b505af11580156106f8573d6000803e3d6000fd5b5050600154604051638dc1424760e01b81528735600482015260a088013560248201526001600160a01b039091169250638dc142479150604401600060405180830381600087803b15801561074c57600080fd5b505af1158015610760573d6000803e3d6000fd5b5050825160208401516000935061078092508860035b6020020135610b2d565b604080516015815260208101839052919250600080516020610e54833981519152910160405180910390a1602082015182516000916107c191886003610776565b604080516003815260208101859052919250600080516020610e54833981519152910160405180910390a1604080516004815260208101839052600080516020610e54833981519152910160405180910390a160015460405163243a7c7b60e01b815288356004820152602481018490526001600160a01b039091169063243a7c7b90604401600060405180830381600087803b15801561086157600080fd5b505af1158015610875573d6000803e3d6000fd5b505060015460405163243a7c7b60e01b815289356004820152602481018590526001600160a01b03909116925063243a7c7b9150604401600060405180830381600087803b1580156108c657600080fd5b505af11580156108da573d6000803e3d6000fd5b5050604080516005815260006020820152600080516020610e54833981519152935001905060405180910390a1600060c0880135600103610919575086355b60c0870135600103610929575085355b604080516006815260006020820152600080516020610e54833981519152910160405180910390a16000883582036109eb5760055461097085670de0b6b3a7640000610c0d565b61097a9190610df4565b600254604087810151905163b78636a160e01b81526001600160a01b03918216600482015260248101849052929350169063b78636a190604401600060405180830381600087803b1580156109ce57600080fd5b505af11580156109e2573d6000803e3d6000fd5b50505050610a7f565b87358203610a7f57600554610a0884670de0b6b3a7640000610c0d565b610a129190610df4565b600254606087015160405163b78636a160e01b81526001600160a01b03918216600482015260248101849052929350169063b78636a190604401600060405180830381600087803b158015610a6657600080fd5b505af1158015610a7a573d6000803e3d6000fd5b505050505b604080516080810182524381528a35602082015290810189600060209081029190910135825290810184905260008881528082526040908190208351815583830151600182015583820151600282015560609384015160039091015580518c3581528b359281019290925281018490529081018290527f3ea69882536ba5c0664cf3bdef8a6b5c27996390aa0f0f3fb10c6812ee9f787e9060800160405180910390a1505050505050505050565b600080600084861115610b8d57610b448587610e16565b9150670de0b6b3a7640000610b7c856101b8670de0b6b3a76400008a610b7288670de0b6b3a7640000610c0d565b6101a59190610df4565b610b869190610df4565b9050610bdf565b84861015610bdc57610b9f8686610e16565b9150670de0b6b3a7640000610b7c856101b889610bc487670de0b6b3a7640000610c0d565b610bce9190610df4565b670de0b6b3a7640000610c3d565b50825b95945050505050565b600082821115610bfa57610bfa610d92565b610c048284610e16565b90505b92915050565b600080610c1a8385610e29565b9050831580610c31575082610c2f8583610df4565b145b610c0457610c04610d92565b600080610c4a8385610e40565b9050838110158015610c31575082811015610c0457610c04610d92565b6001600160a01b0381168114610c7c57600080fd5b50565b600060208284031215610c9157600080fd5b8135610c0481610c67565b600060208284031215610cae57600080fd5b5035919050565b60008060408385031215610cc857600080fd5b8235610cd381610c67565b915060208301358015158114610ce857600080fd5b809150509250929050565b8060e08101831015610c0757600080fd5b60008060006101e08486031215610d1a57600080fd5b610d248585610cf3565b9250610d338560e08601610cf3565b91506101c084013590509250925092565b600080600060608486031215610d5957600080fd5b505081359360208301359350604090920135919050565b60008060408385031215610d8357600080fd5b50508035926020909101359150565b634e487b7160e01b600052600160045260246000fd5b600060208284031215610dba57600080fd5b5051919050565b600060208284031215610dd357600080fd5b8151610c0481610c67565b634e487b7160e01b600052601160045260246000fd5b600082610e1157634e487b7160e01b600052601260045260246000fd5b500490565b81810381811115610c0757610c07610dde565b8082028115828204841417610c0757610c07610dde565b80820180821115610c0757610c07610dde56fe93f9b03ea0c4f6f4154119b4b78510f183504fad78f2517d46d84a546ac0e97da2646970667358221220c9baabbcd65c54f4741fd3faa8fe60c42aa3d45864940de4b3e7a82be83db23b64736f6c63430008130033",
					"opcodes": "PUSH1 0x80 PUSH1 0x40 MSTORE PUSH1 0x64 PUSH1 0x5 SSTORE CALLVALUE DUP1 ISZERO PUSH2 0x15 JUMPI PUSH1 0x0 DUP1 REVERT JUMPDEST POP PUSH1 0x40 MLOAD PUSH2 0xF93 CODESIZE SUB DUP1 PUSH2 0xF93 DUP4 CODECOPY DUP2 ADD PUSH1 0x40 DUP2 SWAP1 MSTORE PUSH2 0x34 SWAP2 PUSH2 0xA8 JUMP JUMPDEST PUSH1 0x1 DUP1 SLOAD PUSH1 0x1 PUSH1 0x1 PUSH1 0xA0 SHL SUB NOT SWAP1 DUP2 AND PUSH1 0x1 PUSH1 0x1 PUSH1 0xA0 SHL SUB SWAP5 DUP6 AND OR DUP3 SSTORE PUSH1 0x2 DUP1 SLOAD DUP3 AND SWAP4 SWAP1 SWAP5 AND SWAP3 SWAP1 SWAP3 OR SWAP1 SWAP3 SSTORE PUSH1 0x3 DUP1 SLOAD CALLER SWAP3 AND DUP3 OR SWAP1 SSTORE PUSH1 0x0 SWAP1 DUP2 MSTORE PUSH1 0x4 PUSH1 0x20 MSTORE PUSH1 0x40 SWAP1 KECCAK256 DUP1 SLOAD PUSH1 0xFF NOT AND SWAP1 SWAP2 OR SWAP1 SSTORE PUSH2 0xDB JUMP JUMPDEST DUP1 MLOAD PUSH1 0x1 PUSH1 0x1 PUSH1 0xA0 SHL SUB DUP2 AND DUP2 EQ PUSH2 0xA3 JUMPI PUSH1 0x0 DUP1 REVERT JUMPDEST SWAP2 SWAP1 POP JUMP JUMPDEST PUSH1 0x0 DUP1 PUSH1 0x40 DUP4 DUP6 SUB SLT ISZERO PUSH2 0xBB JUMPI PUSH1 0x0 DUP1 REVERT JUMPDEST PUSH2 0xC4 DUP4 PUSH2 0x8C JUMP JUMPDEST SWAP2 POP PUSH2 0xD2 PUSH1 0x20 DUP5 ADD PUSH2 0x8C JUMP JUMPDEST SWAP1 POP SWAP3 POP SWAP3 SWAP1 POP JUMP JUMPDEST PUSH2 0xEA9 DUP1 PUSH2 0xEA PUSH1 0x0 CODECOPY PUSH1 0x0 RETURN INVALID PUSH1 0x80 PUSH1 0x40 MSTORE CALLVALUE DUP1 ISZERO PUSH2 0x10 JUMPI PUSH1 0x0 DUP1 REVERT JUMPDEST POP PUSH1 0x4 CALLDATASIZE LT PUSH2 0x9E JUMPI PUSH1 0x0 CALLDATALOAD PUSH1 0xE0 SHR DUP1 PUSH4 0x78547E6C GT PUSH2 0x66 JUMPI DUP1 PUSH4 0x78547E6C EQ PUSH2 0x117 JUMPI DUP1 PUSH4 0x8DA5CB5B EQ PUSH2 0x16C JUMPI DUP1 PUSH4 0xA293D1E8 EQ PUSH2 0x197 JUMPI DUP1 PUSH4 0xD05C78DA EQ PUSH2 0x1AA JUMPI DUP1 PUSH4 0xE6CB9013 EQ PUSH2 0x1BD JUMPI PUSH1 0x0 DUP1 REVERT JUMPDEST DUP1 PUSH4 0x13AF4035 EQ PUSH2 0xA3 JUMPI DUP1 PUSH4 0x1FEDFD0A EQ PUSH2 0xB8 JUMPI DUP1 PUSH4 0x4B0BDDD2 EQ PUSH2 0xCB JUMPI DUP1 PUSH4 0x57BCD00D EQ PUSH2 0xDE JUMPI DUP1 PUSH4 0x74440E9E EQ PUSH2 0xF1 JUMPI JUMPDEST PUSH1 0x0 DUP1 REVERT JUMPDEST PUSH2 0xB6 PUSH2 0xB1 CALLDATASIZE PUSH1 0x4 PUSH2 0xC7F JUMP JUMPDEST PUSH2 0x1D0 JUMP JUMPDEST STOP JUMPDEST PUSH2 0xB6 PUSH2 0xC6 CALLDATASIZE PUSH1 0x4 PUSH2 0xC9C JUMP JUMPDEST PUSH2 0x253 JUMP JUMPDEST PUSH2 0xB6 PUSH2 0xD9 CALLDATASIZE PUSH1 0x4 PUSH2 0xCB5 JUMP JUMPDEST PUSH2 0x2A8 JUMP JUMPDEST PUSH2 0xB6 PUSH2 0xEC CALLDATASIZE PUSH1 0x4 PUSH2 0xD04 JUMP JUMPDEST PUSH2 0x325 JUMP JUMPDEST PUSH2 0x104 PUSH2 0xFF CALLDATASIZE PUSH1 0x4 PUSH2 0xD44 JUMP JUMPDEST PUSH2 0xB2D JUMP JUMPDEST PUSH1 0x40 MLOAD SWAP1 DUP2 MSTORE PUSH1 0x20 ADD JUMPDEST PUSH1 0x40 MLOAD DUP1 SWAP2 SUB SWAP1 RETURN JUMPDEST PUSH2 0x14C PUSH2 0x125 CALLDATASIZE PUSH1 0x4 PUSH2 0xC9C JUMP JUMPDEST PUSH1 0x0 PUSH1 0x20 DUP2 SWAP1 MSTORE SWAP1 DUP2 MSTORE PUSH1 0x40 SWAP1 KECCAK256 DUP1 SLOAD PUSH1 0x1 DUP3 ADD SLOAD PUSH1 0x2 DUP4 ADD SLOAD PUSH1 0x3 SWAP1 SWAP4 ADD SLOAD SWAP2 SWAP3 SWAP1 SWAP2 DUP5 JUMP JUMPDEST PUSH1 0x40 DUP1 MLOAD SWAP5 DUP6 MSTORE PUSH1 0x20 DUP6 ADD SWAP4 SWAP1 SWAP4 MSTORE SWAP2 DUP4 ADD MSTORE PUSH1 0x60 DUP3 ADD MSTORE PUSH1 0x80 ADD PUSH2 0x10E JUMP JUMPDEST PUSH1 0x3 SLOAD PUSH2 0x17F SWAP1 PUSH1 0x1 PUSH1 0x1 PUSH1 0xA0 SHL SUB AND DUP2 JUMP JUMPDEST PUSH1 0x40 MLOAD PUSH1 0x1 PUSH1 0x1 PUSH1 0xA0 SHL SUB SWAP1 SWAP2 AND DUP2 MSTORE PUSH1 0x20 ADD PUSH2 0x10E JUMP JUMPDEST PUSH2 0x104 PUSH2 0x1A5 CALLDATASIZE PUSH1 0x4 PUSH2 0xD70 JUMP JUMPDEST PUSH2 0xBE8 JUMP JUMPDEST PUSH2 0x104 PUSH2 0x1B8 CALLDATASIZE PUSH1 0x4 PUSH2 0xD70 JUMP JUMPDEST PUSH2 0xC0D JUMP JUMPDEST PUSH2 0x104 PUSH2 0x1CB CALLDATASIZE PUSH1 0x4 PUSH2 0xD70 JUMP JUMPDEST PUSH2 0xC3D JUMP JUMPDEST PUSH1 0x3 SLOAD PUSH1 0x1 PUSH1 0x1 PUSH1 0xA0 SHL SUB AND CALLER EQ PUSH2 0x1EA JUMPI PUSH2 0x1EA PUSH2 0xD92 JUMP JUMPDEST PUSH1 0x3 SLOAD PUSH1 0x40 DUP1 MLOAD PUSH1 0x1 PUSH1 0x1 PUSH1 0xA0 SHL SUB SWAP3 DUP4 AND DUP2 MSTORE SWAP2 DUP4 AND PUSH1 0x20 DUP4 ADD MSTORE PUSH32 0xCBF985117192C8F614A58AAF97226BB80A754772F5F6EDF06F87C675F2E6C663 SWAP2 ADD PUSH1 0x40 MLOAD DUP1 SWAP2 SUB SWAP1 LOG1 PUSH1 0x3 DUP1 SLOAD PUSH1 0x1 PUSH1 0x1 PUSH1 0xA0 SHL SUB NOT AND PUSH1 0x1 PUSH1 0x1 PUSH1 0xA0 SHL SUB SWAP3 SWAP1 SWAP3 AND SWAP2 SWAP1 SWAP2 OR SWAP1 SSTORE JUMP JUMPDEST PUSH1 0x3 SLOAD PUSH1 0x1 PUSH1 0x1 PUSH1 0xA0 SHL SUB AND CALLER EQ PUSH2 0x26D JUMPI PUSH2 0x26D PUSH2 0xD92 JUMP JUMPDEST PUSH1 0x5 DUP2 SWAP1 SSTORE PUSH1 0x40 MLOAD DUP2 DUP2 MSTORE PUSH32 0x127404D508A0CF69493BFD98BAF6B96EC49407CC6FE58263BCF55E98D9994E34 SWAP1 PUSH1 0x20 ADD PUSH1 0x40 MLOAD DUP1 SWAP2 SUB SWAP1 LOG1 POP JUMP JUMPDEST PUSH1 0x3 SLOAD PUSH1 0x1 PUSH1 0x1 PUSH1 0xA0 SHL SUB AND CALLER EQ PUSH2 0x2C2 JUMPI PUSH2 0x2C2 PUSH2 0xD92 JUMP JUMPDEST PUSH1 0x1 PUSH1 0x1 PUSH1 0xA0 SHL SUB DUP3 AND PUSH1 0x0 DUP2 DUP2 MSTORE PUSH1 0x4 PUSH1 0x20 SWAP1 DUP2 MSTORE PUSH1 0x40 SWAP2 DUP3 SWAP1 KECCAK256 DUP1 SLOAD PUSH1 0xFF NOT AND DUP6 ISZERO ISZERO SWAP1 DUP2 OR SWAP1 SWAP2 SSTORE DUP3 MLOAD SWAP4 DUP5 MSTORE SWAP1 DUP4 ADD MSTORE PUSH32 0x55A5194BC0174FCAF12B2978BEF43911466BF63B34DB8D1DD1A0D5DCD5C41BEA SWAP2 ADD PUSH1 0x40 MLOAD DUP1 SWAP2 SUB SWAP1 LOG1 POP POP JUMP JUMPDEST CALLER PUSH1 0x0 SWAP1 DUP2 MSTORE PUSH1 0x4 PUSH1 0x20 MSTORE PUSH1 0x40 SWAP1 KECCAK256 SLOAD PUSH1 0xFF AND PUSH2 0x344 JUMPI PUSH2 0x344 PUSH2 0xD92 JUMP JUMPDEST PUSH1 0x40 DUP1 MLOAD ADDRESS PUSH1 0x20 DUP1 DUP4 ADD SWAP2 SWAP1 SWAP2 MSTORE DUP6 CALLDATALOAD DUP3 DUP5 ADD MSTORE DUP5 CALLDATALOAD PUSH1 0x60 DUP4 ADD MSTORE PUSH1 0x80 DUP1 DUP4 ADD DUP6 SWAP1 MSTORE DUP4 MLOAD DUP1 DUP5 SUB SWAP1 SWAP2 ADD DUP2 MSTORE PUSH1 0xA0 SWAP1 SWAP3 ADD DUP4 MSTORE DUP2 MLOAD SWAP2 DUP2 ADD SWAP2 SWAP1 SWAP2 KECCAK256 PUSH1 0x0 DUP2 DUP2 MSTORE SWAP2 DUP3 SWAP1 MSTORE SWAP2 SWAP1 KECCAK256 SLOAD ISZERO PUSH2 0x3DF JUMPI PUSH1 0x40 MLOAD PUSH3 0x461BCD PUSH1 0xE5 SHL DUP2 MSTORE PUSH1 0x20 PUSH1 0x4 DUP3 ADD MSTORE PUSH1 0x17 PUSH1 0x24 DUP3 ADD MSTORE PUSH32 0x426174746C6520616C7265616479207265636F72646564000000000000000000 PUSH1 0x44 DUP3 ADD MSTORE PUSH1 0x64 ADD PUSH1 0x40 MLOAD DUP1 SWAP2 SUB SWAP1 REVERT JUMPDEST PUSH1 0x40 DUP1 MLOAD PUSH1 0x80 DUP2 ADD SWAP2 DUP3 SWAP1 MSTORE PUSH1 0x1 SLOAD PUSH4 0x2192075 PUSH1 0xE6 SHL SWAP1 SWAP3 MSTORE DUP6 CALLDATALOAD PUSH1 0x84 DUP3 ADD MSTORE PUSH1 0x0 SWAP2 DUP2 SWAP1 PUSH1 0x1 PUSH1 0x1 PUSH1 0xA0 SHL SUB AND PUSH4 0x86481D40 PUSH1 0xA4 DUP4 ADD PUSH1 0x20 PUSH1 0x40 MLOAD DUP1 DUP4 SUB DUP2 PUSH1 0x0 DUP8 GAS CALL ISZERO DUP1 ISZERO PUSH2 0x436 JUMPI RETURNDATASIZE PUSH1 0x0 DUP1 RETURNDATACOPY RETURNDATASIZE PUSH1 0x0 REVERT JUMPDEST POP POP POP POP PUSH1 0x40 MLOAD RETURNDATASIZE PUSH1 0x1F NOT PUSH1 0x1F DUP3 ADD AND DUP3 ADD DUP1 PUSH1 0x40 MSTORE POP DUP2 ADD SWAP1 PUSH2 0x45A SWAP2 SWAP1 PUSH2 0xDA8 JUMP JUMPDEST DUP2 MSTORE PUSH1 0x1 SLOAD PUSH1 0x40 MLOAD PUSH4 0x2192075 PUSH1 0xE6 SHL DUP2 MSTORE DUP8 CALLDATALOAD PUSH1 0x4 DUP3 ADD MSTORE PUSH1 0x20 SWAP1 SWAP3 ADD SWAP2 PUSH1 0x1 PUSH1 0x1 PUSH1 0xA0 SHL SUB SWAP1 SWAP2 AND SWAP1 PUSH4 0x86481D40 SWAP1 PUSH1 0x24 ADD PUSH1 0x20 PUSH1 0x40 MLOAD DUP1 DUP4 SUB DUP2 PUSH1 0x0 DUP8 GAS CALL ISZERO DUP1 ISZERO PUSH2 0x4AD JUMPI RETURNDATASIZE PUSH1 0x0 DUP1 RETURNDATACOPY RETURNDATASIZE PUSH1 0x0 REVERT JUMPDEST POP POP POP POP PUSH1 0x40 MLOAD RETURNDATASIZE PUSH1 0x1F NOT PUSH1 0x1F DUP3 ADD AND DUP3 ADD DUP1 PUSH1 0x40 MSTORE POP DUP2 ADD SWAP1 PUSH2 0x4D1 SWAP2 SWAP1 PUSH2 0xDA8 JUMP JUMPDEST DUP2 MSTORE PUSH1 0x1 SLOAD PUSH1 0x40 MLOAD PUSH4 0x31A9108F PUSH1 0xE1 SHL DUP2 MSTORE DUP9 CALLDATALOAD PUSH1 0x4 DUP3 ADD MSTORE PUSH1 0x20 SWAP1 SWAP3 ADD SWAP2 PUSH1 0x1 PUSH1 0x1 PUSH1 0xA0 SHL SUB SWAP1 SWAP2 AND SWAP1 PUSH4 0x6352211E SWAP1 PUSH1 0x24 ADD PUSH1 0x20 PUSH1 0x40 MLOAD DUP1 DUP4 SUB DUP2 DUP7 GAS STATICCALL ISZERO DUP1 ISZERO PUSH2 0x522 JUMPI RETURNDATASIZE PUSH1 0x0 DUP1 RETURNDATACOPY RETURNDATASIZE PUSH1 0x0 REVERT JUMPDEST POP POP POP POP PUSH1 0x40 MLOAD RETURNDATASIZE PUSH1 0x1F NOT PUSH1 0x1F DUP3 ADD AND DUP3 ADD DUP1 PUSH1 0x40 MSTORE POP DUP2 ADD SWAP1 PUSH2 0x546 SWAP2 SWAP1 PUSH2 0xDC1 JUMP JUMPDEST PUSH1 0x1 PUSH1 0x1 PUSH1 0xA0 SHL SUB SWAP1 DUP2 AND DUP3 MSTORE PUSH1 0x1 SLOAD PUSH1 0x40 MLOAD PUSH4 0x31A9108F PUSH1 0xE1 SHL DUP2 MSTORE DUP9 CALLDATALOAD PUSH1 0x4 DUP3 ADD MSTORE PUSH1 0x20 SWAP1 SWAP4 ADD SWAP3 SWAP2 AND SWAP1 PUSH4 0x6352211E SWAP1 PUSH1 0x24 ADD PUSH1 0x20 PUSH1 0x40 MLOAD DUP1 DUP4 SUB DUP2 DUP7 GAS STATICCALL ISZERO DUP1 ISZERO PUSH2 0x599 JUMPI RETURNDATASIZE PUSH1 0x0 DUP1 RETURNDATACOPY RETURNDATASIZE PUSH1 0x0 REVERT JUMPDEST POP POP POP POP PUSH1 0x40 MLOAD RETURNDATASIZE PUSH1 0x1F NOT PUSH1 0x1F DUP3 ADD AND DUP3 ADD DUP1 PUSH1 0x40 MSTORE POP DUP2 ADD SWAP1 PUSH2 0x5BD SWAP2 SWAP1 PUSH2 0xDC1 JUMP JUMPDEST PUSH1 0x1 PUSH1 0x1 PUSH1 0xA0 SHL SUB SWAP1 DUP2 AND SWAP1 SWAP2 MSTORE PUSH1 0x1 SLOAD PUSH1 0x40 MLOAD PUSH4 0xA7518EB1 PUSH1 0xE0 SHL DUP2 MSTORE DUP9 CALLDATALOAD PUSH1 0x4 DUP3 ADD MSTORE PUSH1 0x80 DUP10 ADD CALLDATALOAD PUSH1 0x24 DUP3 ADD MSTORE SWAP3 SWAP4 POP AND SWAP1 PUSH4 0xA7518EB1 SWAP1 PUSH1 0x44 ADD PUSH1 0x0 PUSH1 0x40 MLOAD DUP1 DUP4 SUB DUP2 PUSH1 0x0 DUP8 DUP1 EXTCODESIZE ISZERO DUP1 ISZERO PUSH2 0x614 JUMPI PUSH1 0x0 DUP1 REVERT JUMPDEST POP GAS CALL ISZERO DUP1 ISZERO PUSH2 0x628 JUMPI RETURNDATASIZE PUSH1 0x0 DUP1 RETURNDATACOPY RETURNDATASIZE PUSH1 0x0 REVERT JUMPDEST POP POP PUSH1 0x1 SLOAD PUSH1 0x40 MLOAD PUSH4 0xA7518EB1 PUSH1 0xE0 SHL DUP2 MSTORE DUP8 CALLDATALOAD PUSH1 0x4 DUP3 ADD MSTORE PUSH1 0x80 DUP9 ADD CALLDATALOAD PUSH1 0x24 DUP3 ADD MSTORE PUSH1 0x1 PUSH1 0x1 PUSH1 0xA0 SHL SUB SWAP1 SWAP2 AND SWAP3 POP PUSH4 0xA7518EB1 SWAP2 POP PUSH1 0x44 ADD PUSH1 0x0 PUSH1 0x40 MLOAD DUP1 DUP4 SUB DUP2 PUSH1 0x0 DUP8 DUP1 EXTCODESIZE ISZERO DUP1 ISZERO PUSH2 0x67C JUMPI PUSH1 0x0 DUP1 REVERT JUMPDEST POP GAS CALL ISZERO DUP1 ISZERO PUSH2 0x690 JUMPI RETURNDATASIZE PUSH1 0x0 DUP1 RETURNDATACOPY RETURNDATASIZE PUSH1 0x0 REVERT JUMPDEST POP POP PUSH1 0x1 SLOAD PUSH1 0x40 MLOAD PUSH4 0x8DC14247 PUSH1 0xE0 SHL DUP2 MSTORE DUP9 CALLDATALOAD PUSH1 0x4 DUP3 ADD MSTORE PUSH1 0xA0 DUP10 ADD CALLDATALOAD PUSH1 0x24 DUP3 ADD MSTORE PUSH1 0x1 PUSH1 0x1 PUSH1 0xA0 SHL SUB SWAP1 SWAP2 AND SWAP3 POP PUSH4 0x8DC14247 SWAP2 POP PUSH1 0x44 ADD PUSH1 0x0 PUSH1 0x40 MLOAD DUP1 DUP4 SUB DUP2 PUSH1 0x0 DUP8 DUP1 EXTCODESIZE ISZERO DUP1 ISZERO PUSH2 0x6E4 JUMPI PUSH1 0x0 DUP1 REVERT JUMPDEST POP GAS CALL ISZERO DUP1 ISZERO PUSH2 0x6F8 JUMPI RETURNDATASIZE PUSH1 0x0 DUP1 RETURNDATACOPY RETURNDATASIZE PUSH1 0x0 REVERT JUMPDEST POP POP PUSH1 0x1 SLOAD PUSH1 0x40 MLOAD PUSH4 0x8DC14247 PUSH1 0xE0 SHL DUP2 MSTORE DUP8 CALLDATALOAD PUSH1 0x4 DUP3 ADD MSTORE PUSH1 0xA0 DUP9 ADD CALLDATALOAD PUSH1 0x24 DUP3 ADD MSTORE PUSH1 0x1 PUSH1 0x1 PUSH1 0xA0 SHL SUB SWAP1 SWAP2 AND SWAP3 POP PUSH4 0x8DC14247 SWAP2 POP PUSH1 0x44 ADD PUSH1 0x0 PUSH1 0x40 MLOAD DUP1 DUP4 SUB DUP2 PUSH1 0x0 DUP8 DUP1 EXTCODESIZE ISZERO DUP1 ISZERO PUSH2 0x74C JUMPI PUSH1 0x0 DUP1 REVERT JUMPDEST POP GAS CALL ISZERO DUP1 ISZERO PUSH2 0x760 JUMPI RETURNDATASIZE PUSH1 0x0 DUP1 RETURNDATACOPY RETURNDATASIZE PUSH1 0x0 REVERT JUMPDEST POP POP DUP3 MLOAD PUSH1 0x20 DUP5 ADD MLOAD PUSH1 0x0 SWAP4 POP PUSH2 0x780 SWAP3 POP DUP9 PUSH1 0x3 JUMPDEST PUSH1 0x20 MUL ADD CALLDATALOAD PUSH2 0xB2D JUMP JUMPDEST PUSH1 0x40 DUP1 MLOAD PUSH1 0x15 DUP2 MSTORE PUSH1 0x20 DUP2 ADD DUP4 SWAP1 MSTORE SWAP2 SWAP3 POP PUSH1 0x0 DUP1 MLOAD PUSH1 0x20 PUSH2 0xE54 DUP4 CODECOPY DUP2 MLOAD SWAP2 MSTORE SWAP2 ADD PUSH1 0x40 MLOAD DUP1 SWAP2 SUB SWAP1 LOG1 PUSH1 0x20 DUP3 ADD MLOAD DUP3 MLOAD PUSH1 0x0 SWAP2 PUSH2 0x7C1 SWAP2 DUP9 PUSH1 0x3 PUSH2 0x776 JUMP JUMPDEST PUSH1 0x40 DUP1 MLOAD PUSH1 0x3 DUP2 MSTORE PUSH1 0x20 DUP2 ADD DUP6 SWAP1 MSTORE SWAP2 SWAP3 POP PUSH1 0x0 DUP1 MLOAD PUSH1 0x20 PUSH2 0xE54 DUP4 CODECOPY DUP2 MLOAD SWAP2 MSTORE SWAP2 ADD PUSH1 0x40 MLOAD DUP1 SWAP2 SUB SWAP1 LOG1 PUSH1 0x40 DUP1 MLOAD PUSH1 0x4 DUP2 MSTORE PUSH1 0x20 DUP2 ADD DUP4 SWAP1 MSTORE PUSH1 0x0 DUP1 MLOAD PUSH1 0x20 PUSH2 0xE54 DUP4 CODECOPY DUP2 MLOAD SWAP2 MSTORE SWAP2 ADD PUSH1 0x40 MLOAD DUP1 SWAP2 SUB SWAP1 LOG1 PUSH1 0x1 SLOAD PUSH1 0x40 MLOAD PUSH4 0x243A7C7B PUSH1 0xE0 SHL DUP2 MSTORE DUP9 CALLDATALOAD PUSH1 0x4 DUP3 ADD MSTORE PUSH1 0x24 DUP2 ADD DUP5 SWAP1 MSTORE PUSH1 0x1 PUSH1 0x1 PUSH1 0xA0 SHL SUB SWAP1 SWAP2 AND SWAP1 PUSH4 0x243A7C7B SWAP1 PUSH1 0x44 ADD PUSH1 0x0 PUSH1 0x40 MLOAD DUP1 DUP4 SUB DUP2 PUSH1 0x0 DUP8 DUP1 EXTCODESIZE ISZERO DUP1 ISZERO PUSH2 0x861 JUMPI PUSH1 0x0 DUP1 REVERT JUMPDEST POP GAS CALL ISZERO DUP1 ISZERO PUSH2 0x875 JUMPI RETURNDATASIZE PUSH1 0x0 DUP1 RETURNDATACOPY RETURNDATASIZE PUSH1 0x0 REVERT JUMPDEST POP POP PUSH1 0x1 SLOAD PUSH1 0x40 MLOAD PUSH4 0x243A7C7B PUSH1 0xE0 SHL DUP2 MSTORE DUP10 CALLDATALOAD PUSH1 0x4 DUP3 ADD MSTORE PUSH1 0x24 DUP2 ADD DUP6 SWAP1 MSTORE PUSH1 0x1 PUSH1 0x1 PUSH1 0xA0 SHL SUB SWAP1 SWAP2 AND SWAP3 POP PUSH4 0x243A7C7B SWAP2 POP PUSH1 0x44 ADD PUSH1 0x0 PUSH1 0x40 MLOAD DUP1 DUP4 SUB DUP2 PUSH1 0x0 DUP8 DUP1 EXTCODESIZE ISZERO DUP1 ISZERO PUSH2 0x8C6 JUMPI PUSH1 0x0 DUP1 REVERT JUMPDEST POP GAS CALL ISZERO DUP1 ISZERO PUSH2 0x8DA JUMPI RETURNDATASIZE PUSH1 0x0 DUP1 RETURNDATACOPY RETURNDATASIZE PUSH1 0x0 REVERT JUMPDEST POP POP PUSH1 0x40 DUP1 MLOAD PUSH1 0x5 DUP2 MSTORE PUSH1 0x0 PUSH1 0x20 DUP3 ADD MSTORE PUSH1 0x0 DUP1 MLOAD PUSH1 0x20 PUSH2 0xE54 DUP4 CODECOPY DUP2 MLOAD SWAP2 MSTORE SWAP4 POP ADD SWAP1 POP PUSH1 0x40 MLOAD DUP1 SWAP2 SUB SWAP1 LOG1 PUSH1 0x0 PUSH1 0xC0 DUP9 ADD CALLDATALOAD PUSH1 0x1 SUB PUSH2 0x919 JUMPI POP DUP7 CALLDATALOAD JUMPDEST PUSH1 0xC0 DUP8 ADD CALLDATALOAD PUSH1 0x1 SUB PUSH2 0x929 JUMPI POP DUP6 CALLDATALOAD JUMPDEST PUSH1 0x40 DUP1 MLOAD PUSH1 0x6 DUP2 MSTORE PUSH1 0x0 PUSH1 0x20 DUP3 ADD MSTORE PUSH1 0x0 DUP1 MLOAD PUSH1 0x20 PUSH2 0xE54 DUP4 CODECOPY DUP2 MLOAD SWAP2 MSTORE SWAP2 ADD PUSH1 0x40 MLOAD DUP1 SWAP2 SUB SWAP1 LOG1 PUSH1 0x0 DUP9 CALLDATALOAD DUP3 SUB PUSH2 0x9EB JUMPI PUSH1 0x5 SLOAD PUSH2 0x970 DUP6 PUSH8 0xDE0B6B3A7640000 PUSH2 0xC0D JUMP JUMPDEST PUSH2 0x97A SWAP2 SWAP1 PUSH2 0xDF4 JUMP JUMPDEST PUSH1 0x2 SLOAD PUSH1 0x40 DUP8 DUP2 ADD MLOAD SWAP1 MLOAD PUSH4 0xB78636A1 PUSH1 0xE0 SHL DUP2 MSTORE PUSH1 0x1 PUSH1 0x1 PUSH1 0xA0 SHL SUB SWAP2 DUP3 AND PUSH1 0x4 DUP3 ADD MSTORE PUSH1 0x24 DUP2 ADD DUP5 SWAP1 MSTORE SWAP3 SWAP4 POP AND SWAP1 PUSH4 0xB78636A1 SWAP1 PUSH1 0x44 ADD PUSH1 0x0 PUSH1 0x40 MLOAD DUP1 DUP4 SUB DUP2 PUSH1 0x0 DUP8 DUP1 EXTCODESIZE ISZERO DUP1 ISZERO PUSH2 0x9CE JUMPI PUSH1 0x0 DUP1 REVERT JUMPDEST POP GAS CALL ISZERO DUP1 ISZERO PUSH2 0x9E2 JUMPI RETURNDATASIZE PUSH1 0x0 DUP1 RETURNDATACOPY RETURNDATASIZE PUSH1 0x0 REVERT JUMPDEST POP POP POP POP PUSH2 0xA7F JUMP JUMPDEST DUP8 CALLDATALOAD DUP3 SUB PUSH2 0xA7F JUMPI PUSH1 0x5 SLOAD PUSH2 0xA08 DUP5 PUSH8 0xDE0B6B3A7640000 PUSH2 0xC0D JUMP JUMPDEST PUSH2 0xA12 SWAP2 SWAP1 PUSH2 0xDF4 JUMP JUMPDEST PUSH1 0x2 SLOAD PUSH1 0x60 DUP8 ADD MLOAD PUSH1 0x40 MLOAD PUSH4 0xB78636A1 PUSH1 0xE0 SHL DUP2 MSTORE PUSH1 0x1 PUSH1 0x1 PUSH1 0xA0 SHL SUB SWAP2 DUP3 AND PUSH1 0x4 DUP3 ADD MSTORE PUSH1 0x24 DUP2 ADD DUP5 SWAP1 MSTORE SWAP3 SWAP4 POP AND SWAP1 PUSH4 0xB78636A1 SWAP1 PUSH1 0x44 ADD PUSH1 0x0 PUSH1 0x40 MLOAD DUP1 DUP4 SUB DUP2 PUSH1 0x0 DUP8 DUP1 EXTCODESIZE ISZERO DUP1 ISZERO PUSH2 0xA66 JUMPI PUSH1 0x0 DUP1 REVERT JUMPDEST POP GAS CALL ISZERO DUP1 ISZERO PUSH2 0xA7A JUMPI RETURNDATASIZE PUSH1 0x0 DUP1 RETURNDATACOPY RETURNDATASIZE PUSH1 0x0 REVERT JUMPDEST POP POP POP POP JUMPDEST PUSH1 0x40 DUP1 MLOAD PUSH1 0x80 DUP2 ADD DUP3 MSTORE NUMBER DUP2 MSTORE DUP11 CALLDATALOAD PUSH1 0x20 DUP3 ADD MSTORE SWAP1 DUP2 ADD DUP10 PUSH1 0x0 PUSH1 0x20 SWAP1 DUP2 MUL SWAP2 SWAP1 SWAP2 ADD CALLDATALOAD DUP3 MSTORE SWAP1 DUP2 ADD DUP5 SWAP1 MSTORE PUSH1 0x0 DUP9 DUP2 MSTORE DUP1 DUP3 MSTORE PUSH1 0x40 SWAP1 DUP2 SWAP1 KECCAK256 DUP4 MLOAD DUP2 SSTORE DUP4 DUP4 ADD MLOAD PUSH1 0x1 DUP3 ADD SSTORE DUP4 DUP3 ADD MLOAD PUSH1 0x2 DUP3 ADD SSTORE PUSH1 0x60 SWAP4 DUP5 ADD MLOAD PUSH1 0x3 SWAP1 SWAP2 ADD SSTORE DUP1 MLOAD DUP13 CALLDATALOAD DUP2 MSTORE DUP12 CALLDATALOAD SWAP3 DUP2 ADD SWAP3 SWAP1 SWAP3 MSTORE DUP2 ADD DUP5 SWAP1 MSTORE SWAP1 DUP2 ADD DUP3 SWAP1 MSTORE PUSH32 0x3EA69882536BA5C0664CF3BDEF8A6B5C27996390AA0F0F3FB10C6812EE9F787E SWAP1 PUSH1 0x80 ADD PUSH1 0x40 MLOAD DUP1 SWAP2 SUB SWAP1 LOG1 POP POP POP POP POP POP POP POP POP JUMP JUMPDEST PUSH1 0x0 DUP1 PUSH1 0x0 DUP5 DUP7 GT ISZERO PUSH2 0xB8D JUMPI PUSH2 0xB44 DUP6 DUP8 PUSH2 0xE16 JUMP JUMPDEST SWAP2 POP PUSH8 0xDE0B6B3A7640000 PUSH2 0xB7C DUP6 PUSH2 0x1B8 PUSH8 0xDE0B6B3A7640000 DUP11 PUSH2 0xB72 DUP9 PUSH8 0xDE0B6B3A7640000 PUSH2 0xC0D JUMP JUMPDEST PUSH2 0x1A5 SWAP2 SWAP1 PUSH2 0xDF4 JUMP JUMPDEST PUSH2 0xB86 SWAP2 SWAP1 PUSH2 0xDF4 JUMP JUMPDEST SWAP1 POP PUSH2 0xBDF JUMP JUMPDEST DUP5 DUP7 LT ISZERO PUSH2 0xBDC JUMPI PUSH2 0xB9F DUP7 DUP7 PUSH2 0xE16 JUMP JUMPDEST SWAP2 POP PUSH8 0xDE0B6B3A7640000 PUSH2 0xB7C DUP6 PUSH2 0x1B8 DUP10 PUSH2 0xBC4 DUP8 PUSH8 0xDE0B6B3A7640000 PUSH2 0xC0D JUMP JUMPDEST PUSH2 0xBCE SWAP2 SWAP1 PUSH2 0xDF4 JUMP JUMPDEST PUSH8 0xDE0B6B3A7640000 PUSH2 0xC3D JUMP JUMPDEST POP DUP3 JUMPDEST SWAP6 SWAP5 POP POP POP POP POP JUMP JUMPDEST PUSH1 0x0 DUP3 DUP3 GT ISZERO PUSH2 0xBFA JUMPI PUSH2 0xBFA PUSH2 0xD92 JUMP JUMPDEST PUSH2 0xC04 DUP3 DUP5 PUSH2 0xE16 JUMP JUMPDEST SWAP1 POP JUMPDEST SWAP3 SWAP2 POP POP JUMP JUMPDEST PUSH1 0x0 DUP1 PUSH2 0xC1A DUP4 DUP6 PUSH2 0xE29 JUMP JUMPDEST SWAP1 POP DUP4 ISZERO DUP1 PUSH2 0xC31 JUMPI POP DUP3 PUSH2 0xC2F DUP6 DUP4 PUSH2 0xDF4 JUMP JUMPDEST EQ JUMPDEST PUSH2 0xC04 JUMPI PUSH2 0xC04 PUSH2 0xD92 JUMP JUMPDEST PUSH1 0x0 DUP1 PUSH2 0xC4A DUP4 DUP6 PUSH2 0xE40 JUMP JUMPDEST SWAP1 POP DUP4 DUP2 LT ISZERO DUP1 ISZERO PUSH2 0xC31 JUMPI POP DUP3 DUP2 LT ISZERO PUSH2 0xC04 JUMPI PUSH2 0xC04 PUSH2 0xD92 JUMP JUMPDEST PUSH1 0x1 PUSH1 0x1 PUSH1 0xA0 SHL SUB DUP2 AND DUP2 EQ PUSH2 0xC7C JUMPI PUSH1 0x0 DUP1 REVERT JUMPDEST POP JUMP JUMPDEST PUSH1 0x0 PUSH1 0x20 DUP3 DUP5 SUB SLT ISZERO PUSH2 0xC91 JUMPI PUSH1 0x0 DUP1 REVERT JUMPDEST DUP2 CALLDATALOAD PUSH2 0xC04 DUP2 PUSH2 0xC67 JUMP JUMPDEST PUSH1 0x0 PUSH1 0x20 DUP3 DUP5 SUB SLT ISZERO PUSH2 0xCAE JUMPI PUSH1 0x0 DUP1 REVERT JUMPDEST POP CALLDATALOAD SWAP2 SWAP1 POP JUMP JUMPDEST PUSH1 0x0 DUP1 PUSH1 0x40 DUP4 DUP6 SUB SLT ISZERO PUSH2 0xCC8 JUMPI PUSH1 0x0 DUP1 REVERT JUMPDEST DUP3 CALLDATALOAD PUSH2 0xCD3 DUP2 PUSH2 0xC67 JUMP JUMPDEST SWAP2 POP PUSH1 0x20 DUP4 ADD CALLDATALOAD DUP1 ISZERO ISZERO DUP2 EQ PUSH2 0xCE8 JUMPI PUSH1 0x0 DUP1 REVERT JUMPDEST DUP1 SWAP2 POP POP SWAP3 POP SWAP3 SWAP1 POP JUMP JUMPDEST DUP1 PUSH1 0xE0 DUP2 ADD DUP4 LT ISZERO PUSH2 0xC07 JUMPI PUSH1 0x0 DUP1 REVERT JUMPDEST PUSH1 0x0 DUP1 PUSH1 0x0 PUSH2 0x1E0 DUP5 DUP7 SUB SLT ISZERO PUSH2 0xD1A JUMPI PUSH1 0x0 DUP1 REVERT JUMPDEST PUSH2 0xD24 DUP6 DUP6 PUSH2 0xCF3 JUMP JUMPDEST SWAP3 POP PUSH2 0xD33 DUP6 PUSH1 0xE0 DUP7 ADD PUSH2 0xCF3 JUMP JUMPDEST SWAP2 POP PUSH2 0x1C0 DUP5 ADD CALLDATALOAD SWAP1 POP SWAP3 POP SWAP3 POP SWAP3 JUMP JUMPDEST PUSH1 0x0 DUP1 PUSH1 0x0 PUSH1 0x60 DUP5 DUP7 SUB SLT ISZERO PUSH2 0xD59 JUMPI PUSH1 0x0 DUP1 REVERT JUMPDEST POP POP DUP2 CALLDATALOAD SWAP4 PUSH1 0x20 DUP4 ADD CALLDATALOAD SWAP4 POP PUSH1 0x40 SWAP1 SWAP3 ADD CALLDATALOAD SWAP2 SWAP1 POP JUMP JUMPDEST PUSH1 0x0 DUP1 PUSH1 0x40 DUP4 DUP6 SUB SLT ISZERO PUSH2 0xD83 JUMPI PUSH1 0x0 DUP1 REVERT JUMPDEST POP POP DUP1 CALLDATALOAD SWAP3 PUSH1 0x20 SWAP1 SWAP2 ADD CALLDATALOAD SWAP2 POP JUMP JUMPDEST PUSH4 0x4E487B71 PUSH1 0xE0 SHL PUSH1 0x0 MSTORE PUSH1 0x1 PUSH1 0x4 MSTORE PUSH1 0x24 PUSH1 0x0 REVERT JUMPDEST PUSH1 0x0 PUSH1 0x20 DUP3 DUP5 SUB SLT ISZERO PUSH2 0xDBA JUMPI PUSH1 0x0 DUP1 REVERT JUMPDEST POP MLOAD SWAP2 SWAP1 POP JUMP JUMPDEST PUSH1 0x0 PUSH1 0x20 DUP3 DUP5 SUB SLT ISZERO PUSH2 0xDD3 JUMPI PUSH1 0x0 DUP1 REVERT JUMPDEST DUP2 MLOAD PUSH2 0xC04 DUP2 PUSH2 0xC67 JUMP JUMPDEST PUSH4 0x4E487B71 PUSH1 0xE0 SHL PUSH1 0x0 MSTORE PUSH1 0x11 PUSH1 0x4 MSTORE PUSH1 0x24 PUSH1 0x0 REVERT JUMPDEST PUSH1 0x0 DUP3 PUSH2 0xE11 JUMPI PUSH4 0x4E487B71 PUSH1 0xE0 SHL PUSH1 0x0 MSTORE PUSH1 0x12 PUSH1 0x4 MSTORE PUSH1 0x24 PUSH1 0x0 REVERT JUMPDEST POP DIV SWAP1 JUMP JUMPDEST DUP2 DUP2 SUB DUP2 DUP2 GT ISZERO PUSH2 0xC07 JUMPI PUSH2 0xC07 PUSH2 0xDDE JUMP JUMPDEST DUP1 DUP3 MUL DUP2 ISZERO DUP3 DUP3 DIV DUP5 EQ OR PUSH2 0xC07 JUMPI PUSH2 0xC07 PUSH2 0xDDE JUMP JUMPDEST DUP1 DUP3 ADD DUP1 DUP3 GT ISZERO PUSH2 0xC07 JUMPI PUSH2 0xC07 PUSH2 0xDDE JUMP INVALID SWAP4 0xF9 0xB0 RETURNDATACOPY LOG0 0xC4 0xF6 DELEGATECALL ISZERO COINBASE NOT 0xB4 0xB7 DUP6 LT CALL DUP4 POP 0x4F 0xAD PUSH25 0xF2517D46D84A546AC0E97DA2646970667358221220C9BAABBC 0xD6 0x5C SLOAD DELEGATECALL PUSH21 0x1FD3FAA8FE60C42AA3D45864940DE4B3E7A82BE83D 0xB2 EXTCODESIZE PUSH5 0x736F6C6343 STOP ADDMOD SGT STOP CALLER "
				},
				"gasEstimates": {
					"creation": {
						"codeDepositCost": "750600",
						"executionCost": "infinite",
						"totalCost": "infinite"
					},
					"external": {
						"battles(bytes32)": "8843",
						"calculateExpirience(uint256,uint256,uint256)": "infinite",
						"owner()": "2359",
						"recordFight(uint256[7],uint256[7],uint256)": "infinite",
						"safeAdd(uint256,uint256)": "infinite",
						"safeMul(uint256,uint256)": "infinite",
						"safeSub(uint256,uint256)": "infinite",
						"setAdmin(address,bool)": "28208",
						"setMoneyExpDivider(uint256)": "25552",
						"setOwner(address)": "30171"
					},
					"internal": {
						"generateBattleHash(uint256,uint256,uint256)": "infinite",
						"max(uint256,uint256)": "infinite",
						"min(uint256,uint256)": "infinite"
					}
				},
				"methodIdentifiers": {
					"battles(bytes32)": "78547e6c",
					"calculateExpirience(uint256,uint256,uint256)": "74440e9e",
					"owner()": "8da5cb5b",
					"recordFight(uint256[7],uint256[7],uint256)": "57bcd00d",
					"safeAdd(uint256,uint256)": "e6cb9013",
					"safeMul(uint256,uint256)": "d05c78da",
					"safeSub(uint256,uint256)": "a293d1e8",
					"setAdmin(address,bool)": "4b0bddd2",
					"setMoneyExpDivider(uint256)": "1fedfd0a",
					"setOwner(address)": "13af4035"
				}
			},
			"storageLayout": {
				"storage": [
					{
						"astId": 161,
						"contract": "battle.sol:BattleContract",
						"label": "battles",
						"offset": 0,
						"slot": "0",
						"type": "t_mapping(t_bytes32,t_struct(Battle)156_storage)"
					},
					{
						"astId": 163,
						"contract": "battle.sol:BattleContract",
						"label": "fighterContractAddress",
						"offset": 0,
						"slot": "1",
						"type": "t_address"
					},
					{
						"astId": 165,
						"contract": "battle.sol:BattleContract",
						"label": "fighterMoneyContractAddress",
						"offset": 0,
						"slot": "2",
						"type": "t_address"
					},
					{
						"astId": 599,
						"contract": "battle.sol:BattleContract",
						"label": "owner",
						"offset": 0,
						"slot": "3",
						"type": "t_address"
					},
					{
						"astId": 654,
						"contract": "battle.sol:BattleContract",
						"label": "isAdmin",
						"offset": 0,
						"slot": "4",
						"type": "t_mapping(t_address,t_bool)"
					},
					{
						"astId": 678,
						"contract": "battle.sol:BattleContract",
						"label": "moneyExpDivider",
						"offset": 0,
						"slot": "5",
						"type": "t_uint256"
					}
				],
				"types": {
					"t_address": {
						"encoding": "inplace",
						"label": "address",
						"numberOfBytes": "20"
					},
					"t_bool": {
						"encoding": "inplace",
						"label": "bool",
						"numberOfBytes": "1"
					},
					"t_bytes32": {
						"encoding": "inplace",
						"label": "bytes32",
						"numberOfBytes": "32"
					},
					"t_mapping(t_address,t_bool)": {
						"encoding": "mapping",
						"key": "t_address",
						"label": "mapping(address => bool)",
						"numberOfBytes": "32",
						"value": "t_bool"
					},
					"t_mapping(t_bytes32,t_struct(Battle)156_storage)": {
						"encoding": "mapping",
						"key": "t_bytes32",
						"label": "mapping(bytes32 => struct BattleContract.Battle)",
						"numberOfBytes": "32",
						"value": "t_struct(Battle)156_storage"
					},
					"t_struct(Battle)156_storage": {
						"encoding": "inplace",
						"label": "struct BattleContract.Battle",
						"members": [
							{
								"astId": 149,
								"contract": "battle.sol:BattleContract",
								"label": "blockNumber",
								"offset": 0,
								"slot": "0",
								"type": "t_uint256"
							},
							{
								"astId": 151,
								"contract": "battle.sol:BattleContract",
								"label": "opponent1",
								"offset": 0,
								"slot": "1",
								"type": "t_uint256"
							},
							{
								"astId": 153,
								"contract": "battle.sol:BattleContract",
								"label": "opponent2",
								"offset": 0,
								"slot": "2",
								"type": "t_uint256"
							},
							{
								"astId": 155,
								"contract": "battle.sol:BattleContract",
								"label": "winner",
								"offset": 0,
								"slot": "3",
								"type": "t_uint256"
							}
						],
						"numberOfBytes": "128"
					},
					"t_uint256": {
						"encoding": "inplace",
						"label": "uint256",
						"numberOfBytes": "32"
					}
				}
			},
			"userdoc": {
				"kind": "user",
				"methods": {},
				"version": 1
			}
		}
	}
}