{
	"chaos.sol": {
		"ChaosMachine": {
			"abi": [
				{
					"anonymous": false,
					"inputs": [
						{
							"indexed": false,
							"internalType": "uint256",
							"name": "itemId",
							"type": "uint256"
						},
						{
							"indexed": false,
							"internalType": "address",
							"name": "player",
							"type": "address"
						}
					],
					"name": "ItemCrafted",
					"type": "event"
				},
				{
					"inputs": [
						{
							"internalType": "uint256",
							"name": "recipeId",
							"type": "uint256"
						},
						{
							"internalType": "uint256[]",
							"name": "itemIds",
							"type": "uint256[]"
						},
						{
							"internalType": "uint256",
							"name": "successRate",
							"type": "uint256"
						},
						{
							"internalType": "uint256",
							"name": "resultItemId",
							"type": "uint256"
						}
					],
					"name": "addRecipe",
					"outputs": [],
					"stateMutability": "nonpayable",
					"type": "function"
				},
				{
					"inputs": [
						{
							"internalType": "uint256",
							"name": "recipeId",
							"type": "uint256"
						}
					],
					"name": "craftItem",
					"outputs": [],
					"stateMutability": "nonpayable",
					"type": "function"
				},
				{
					"inputs": [
						{
							"internalType": "uint256",
							"name": "",
							"type": "uint256"
						}
					],
					"name": "recipes",
					"outputs": [
						{
							"internalType": "uint256",
							"name": "successRate",
							"type": "uint256"
						},
						{
							"internalType": "uint256",
							"name": "resultItemId",
							"type": "uint256"
						}
					],
					"stateMutability": "view",
					"type": "function"
				}
			],
			"devdoc": {
				"kind": "dev",
				"methods": {},
				"version": 1
			},
			"evm": {
				"assembly": "    /* \"chaos.sol\":25:2383  contract ChaosMachine {... */\n  mstore(0x40, 0x80)\n  callvalue\n  dup1\n  iszero\n  tag_1\n  jumpi\n  0x00\n  dup1\n  revert\ntag_1:\n  pop\n  dataSize(sub_0)\n  dup1\n  dataOffset(sub_0)\n  0x00\n  codecopy\n  0x00\n  return\nstop\n\nsub_0: assembly {\n        /* \"chaos.sol\":25:2383  contract ChaosMachine {... */\n      mstore(0x40, 0x80)\n      callvalue\n      dup1\n      iszero\n      tag_1\n      jumpi\n      0x00\n      dup1\n      revert\n    tag_1:\n      pop\n      jumpi(tag_2, lt(calldatasize, 0x04))\n      shr(0xe0, calldataload(0x00))\n      dup1\n      0x42f551b5\n      eq\n      tag_3\n      jumpi\n      dup1\n      0x443c227c\n      eq\n      tag_4\n      jumpi\n      dup1\n      0x7309cbbd\n      eq\n      tag_5\n      jumpi\n    tag_2:\n      0x00\n      dup1\n      revert\n        /* \"chaos.sol\":512:834  function addRecipe(uint256 recipeId, uint256[] memory itemIds, uint256 successRate, uint256 resultItemId) public {... */\n    tag_3:\n      tag_6\n      tag_7\n      calldatasize\n      0x04\n      tag_8\n      jump\t// in\n    tag_7:\n      tag_9\n      jump\t// in\n    tag_6:\n      stop\n        /* \"chaos.sol\":298:339  mapping(uint256 => Recipe) public recipes */\n    tag_4:\n      tag_10\n      tag_11\n      calldatasize\n      0x04\n      tag_12\n      jump\t// in\n    tag_11:\n      0x00\n      0x20\n      dup2\n      swap1\n      mstore\n      swap1\n      dup2\n      mstore\n      0x40\n      swap1\n      keccak256\n      0x01\n      dup2\n      add\n      sload\n      0x02\n      swap1\n      swap2\n      add\n      sload\n      dup3\n      jump\n    tag_10:\n      0x40\n      dup1\n      mload\n        /* \"#utility.yul\":1830:1855   */\n      swap3\n      dup4\n      mstore\n        /* \"#utility.yul\":1886:1888   */\n      0x20\n        /* \"#utility.yul\":1871:1889   */\n      dup4\n      add\n        /* \"#utility.yul\":1864:1898   */\n      swap2\n      swap1\n      swap2\n      mstore\n        /* \"#utility.yul\":1803:1821   */\n      add\n        /* \"chaos.sol\":298:339  mapping(uint256 => Recipe) public recipes */\n      mload(0x40)\n      dup1\n      swap2\n      sub\n      swap1\n      return\n        /* \"chaos.sol\":873:1714  function craftItem(uint256 recipeId) public {... */\n    tag_5:\n      tag_6\n      tag_17\n      calldatasize\n      0x04\n      tag_12\n      jump\t// in\n    tag_17:\n      tag_18\n      jump\t// in\n        /* \"chaos.sol\":512:834  function addRecipe(uint256 recipeId, uint256[] memory itemIds, uint256 successRate, uint256 resultItemId) public {... */\n    tag_9:\n        /* \"chaos.sol\":661:787  Recipe({... */\n      0x40\n      dup1\n      mload\n      0x60\n      dup2\n      add\n      dup3\n      mstore\n      dup5\n      dup2\n      mstore\n      0x20\n      dup1\n      dup3\n      add\n      dup6\n      swap1\n      mstore\n      dup2\n      dup4\n      add\n      dup5\n      swap1\n      mstore\n        /* \"chaos.sol\":635:658  Recipe memory newRecipe */\n      0x00\n        /* \"chaos.sol\":798:815  recipes[recipeId] */\n      dup8\n      dup2\n      mstore\n      dup1\n      dup3\n      mstore\n      swap3\n      swap1\n      swap3\n      keccak256\n        /* \"chaos.sol\":798:827  recipes[recipeId] = newRecipe */\n      dup2\n      mload\n      dup1\n      mload\n        /* \"chaos.sol\":661:787  Recipe({... */\n      swap3\n      swap4\n      dup5\n      swap4\n        /* \"chaos.sol\":798:827  recipes[recipeId] = newRecipe */\n      tag_20\n      swap3\n        /* \"chaos.sol\":798:815  recipes[recipeId] */\n      dup5\n      swap3\n        /* \"chaos.sol\":798:827  recipes[recipeId] = newRecipe */\n      add\n      swap1\n      tag_21\n      jump\t// in\n    tag_20:\n      pop\n      0x20\n      dup3\n      add\n      mload\n      0x01\n      dup3\n      add\n      sstore\n      0x40\n      swap1\n      swap2\n      add\n      mload\n      0x02\n      swap1\n      swap2\n      add\n      sstore\n      pop\n      pop\n      pop\n      pop\n      pop\n        /* \"chaos.sol\":512:834  function addRecipe(uint256 recipeId, uint256[] memory itemIds, uint256 successRate, uint256 resultItemId) public {... */\n      jump\t// out\n        /* \"chaos.sol\":873:1714  function craftItem(uint256 recipeId) public {... */\n    tag_18:\n        /* \"chaos.sol\":927:947  Recipe memory recipe */\n      0x00\n        /* \"chaos.sol\":950:967  recipes[recipeId] */\n      dup2\n      dup2\n      mstore\n      0x20\n      dup2\n      dup2\n      mstore\n      0x40\n      dup1\n      dup4\n      keccak256\n        /* \"chaos.sol\":927:967  Recipe memory recipe = recipes[recipeId] */\n      dup2\n      mload\n      dup2\n      sload\n      0x80\n      swap5\n      dup2\n      mul\n      dup3\n      add\n      dup6\n      add\n      swap1\n      swap4\n      mstore\n      0x60\n      dup2\n      add\n      dup4\n      dup2\n      mstore\n      swap1\n      swap4\n        /* \"chaos.sol\":950:967  recipes[recipeId] */\n      swap2\n      swap3\n        /* \"chaos.sol\":927:967  Recipe memory recipe = recipes[recipeId] */\n      dup5\n      swap3\n        /* \"chaos.sol\":950:967  recipes[recipeId] */\n      dup5\n      swap2\n        /* \"chaos.sol\":927:967  Recipe memory recipe = recipes[recipeId] */\n      swap1\n      dup5\n      add\n        /* \"chaos.sol\":950:967  recipes[recipeId] */\n      dup3\n        /* \"chaos.sol\":927:967  Recipe memory recipe = recipes[recipeId] */\n      dup3\n      dup1\n      iszero\n      tag_23\n      jumpi\n      0x20\n      mul\n      dup3\n      add\n      swap2\n      swap1\n      0x00\n      mstore\n      keccak256(0x00, 0x20)\n      swap1\n    tag_24:\n      dup2\n      sload\n      dup2\n      mstore\n      0x20\n      add\n      swap1\n      0x01\n      add\n      swap1\n      dup1\n      dup4\n      gt\n      tag_24\n      jumpi\n    tag_23:\n      pop\n      pop\n      pop\n      pop\n      pop\n      dup2\n      mstore\n      0x20\n      add\n      0x01\n      dup3\n      add\n      sload\n      dup2\n      mstore\n      0x20\n      add\n      0x02\n      dup3\n      add\n      sload\n      dup2\n      mstore\n      pop\n      pop\n      swap1\n      pop\n        /* \"chaos.sol\":1041:1050  uint256 i */\n      0x00\n        /* \"chaos.sol\":1036:1185  for (uint256 i = 0; i < recipe.itemIds.length; i++) {... */\n    tag_25:\n        /* \"chaos.sol\":1060:1074  recipe.itemIds */\n      dup2\n      mload\n        /* \"chaos.sol\":1060:1081  recipe.itemIds.length */\n      mload\n        /* \"chaos.sol\":1056:1081  i < recipe.itemIds.length */\n      dup2\n      lt\n        /* \"chaos.sol\":1036:1185  for (uint256 i = 0; i < recipe.itemIds.length; i++) {... */\n      iszero\n      tag_26\n      jumpi\n        /* \"chaos.sol\":1110:1148  hasItem(msg.sender, recipe.itemIds[i]) */\n      tag_28\n        /* \"chaos.sol\":1118:1128  msg.sender */\n      caller\n        /* \"chaos.sol\":1130:1136  recipe */\n      dup4\n        /* \"chaos.sol\":1130:1144  recipe.itemIds */\n      0x00\n      add\n      mload\n        /* \"chaos.sol\":1145:1146  i */\n      dup4\n        /* \"chaos.sol\":1130:1147  recipe.itemIds[i] */\n      dup2\n      mload\n      dup2\n      lt\n      tag_30\n      jumpi\n      tag_30\n      tag_31\n      jump\t// in\n    tag_30:\n      pop\n        /* \"chaos.sol\":1855:1859  bool */\n      0x00\n      swap3\n        /* \"chaos.sol\":1784:1894  function hasItem(address player, uint256 itemId) private view returns (bool) {... */\n      swap2\n      pop\n      pop\n      jump\n        /* \"chaos.sol\":1110:1148  hasItem(msg.sender, recipe.itemIds[i]) */\n    tag_28:\n        /* \"chaos.sol\":1102:1174  require(hasItem(msg.sender, recipe.itemIds[i]), \"Missing required item\") */\n      tag_33\n      jumpi\n      mload(0x40)\n      shl(0xe5, 0x461bcd)\n      dup2\n      mstore\n        /* \"#utility.yul\":2243:2245   */\n      0x20\n        /* \"chaos.sol\":1102:1174  require(hasItem(msg.sender, recipe.itemIds[i]), \"Missing required item\") */\n      0x04\n      dup3\n      add\n        /* \"#utility.yul\":2225:2246   */\n      mstore\n        /* \"#utility.yul\":2282:2284   */\n      0x15\n        /* \"#utility.yul\":2262:2280   */\n      0x24\n      dup3\n      add\n        /* \"#utility.yul\":2255:2285   */\n      mstore\n      shl(0x58, 0x4d697373696e67207265717569726564206974656d)\n        /* \"#utility.yul\":2301:2319   */\n      0x44\n      dup3\n      add\n        /* \"#utility.yul\":2294:2345   */\n      mstore\n        /* \"#utility.yul\":2362:2380   */\n      0x64\n      add\n        /* \"chaos.sol\":1102:1174  require(hasItem(msg.sender, recipe.itemIds[i]), \"Missing required item\") */\n      mload(0x40)\n      dup1\n      swap2\n      sub\n      swap1\n      revert\n    tag_33:\n        /* \"chaos.sol\":1083:1086  i++ */\n      dup1\n      tag_36\n      dup2\n      tag_37\n      jump\t// in\n    tag_36:\n      swap2\n      pop\n      pop\n        /* \"chaos.sol\":1036:1185  for (uint256 i = 0; i < recipe.itemIds.length; i++) {... */\n      jump(tag_25)\n    tag_26:\n      pop\n        /* \"chaos.sol\":1388:1397  uint256 i */\n      0x00\n        /* \"chaos.sol\":1383:1501  for (uint256 i = 0; i < recipe.itemIds.length; i++) {... */\n    tag_43:\n        /* \"chaos.sol\":1407:1421  recipe.itemIds */\n      dup2\n      mload\n        /* \"chaos.sol\":1407:1428  recipe.itemIds.length */\n      mload\n        /* \"chaos.sol\":1403:1428  i < recipe.itemIds.length */\n      dup2\n      lt\n        /* \"chaos.sol\":1383:1501  for (uint256 i = 0; i < recipe.itemIds.length; i++) {... */\n      iszero\n      tag_44\n      jumpi\n        /* \"chaos.sol\":1449:1490  removeItem(msg.sender, recipe.itemIds[i]) */\n      tag_46\n        /* \"chaos.sol\":1460:1470  msg.sender */\n      caller\n        /* \"chaos.sol\":1472:1478  recipe */\n      dup4\n        /* \"chaos.sol\":1472:1486  recipe.itemIds */\n      0x00\n      add\n      mload\n        /* \"chaos.sol\":1487:1488  i */\n      dup4\n        /* \"chaos.sol\":1472:1489  recipe.itemIds[i] */\n      dup2\n      mload\n      dup2\n      lt\n      tag_48\n      jumpi\n      tag_48\n      tag_31\n      jump\t// in\n    tag_48:\n      pop\n      pop\n      pop\n        /* \"chaos.sol\":1967:2060  function removeItem(address player, uint256 itemId) private {... */\n      jump\n        /* \"chaos.sol\":1449:1490  removeItem(msg.sender, recipe.itemIds[i]) */\n    tag_46:\n        /* \"chaos.sol\":1430:1433  i++ */\n      dup1\n      tag_50\n      dup2\n      tag_37\n      jump\t// in\n    tag_50:\n      swap2\n      pop\n      pop\n        /* \"chaos.sol\":1383:1501  for (uint256 i = 0; i < recipe.itemIds.length; i++) {... */\n      jump(tag_43)\n    tag_44:\n      pop\n        /* \"chaos.sol\":1675:1694  recipe.resultItemId */\n      0x40\n      dup1\n      dup3\n      add\n      mload\n        /* \"chaos.sol\":1663:1707  ItemCrafted(recipe.resultItemId, msg.sender) */\n      dup2\n      mload\n        /* \"#utility.yul\":3146:3171   */\n      swap1\n      dup2\n      mstore\n        /* \"chaos.sol\":1696:1706  msg.sender */\n      caller\n        /* \"#utility.yul\":3202:3204   */\n      0x20\n        /* \"#utility.yul\":3187:3205   */\n      dup3\n      add\n        /* \"#utility.yul\":3180:3240   */\n      mstore\n        /* \"chaos.sol\":1663:1707  ItemCrafted(recipe.resultItemId, msg.sender) */\n      0xf4473e01e7e33eba564ae7f36b473379296cca33e825b2b99b10adfbf13d3896\n      swap2\n        /* \"#utility.yul\":3119:3137   */\n      add\n        /* \"chaos.sol\":1663:1707  ItemCrafted(recipe.resultItemId, msg.sender) */\n      mload(0x40)\n      dup1\n      swap2\n      sub\n      swap1\n      log1\n        /* \"chaos.sol\":917:1714  {... */\n      pop\n        /* \"chaos.sol\":873:1714  function craftItem(uint256 recipeId) public {... */\n      pop\n      jump\t// out\n    tag_21:\n      dup3\n      dup1\n      sload\n      dup3\n      dup3\n      sstore\n      swap1\n      0x00\n      mstore\n      keccak256(0x00, 0x20)\n      swap1\n      dup2\n      add\n      swap3\n      dup3\n      iszero\n      tag_61\n      jumpi\n      swap2\n      0x20\n      mul\n      dup3\n      add\n    tag_60:\n      dup3\n      dup2\n      gt\n      iszero\n      tag_61\n      jumpi\n      dup3\n      mload\n      dup3\n      sstore\n      swap2\n      0x20\n      add\n      swap2\n      swap1\n      0x01\n      add\n      swap1\n      jump(tag_60)\n    tag_61:\n      pop\n      tag_62\n      swap3\n      swap2\n      pop\n      tag_63\n      jump\t// in\n    tag_62:\n      pop\n      swap1\n      jump\t// out\n    tag_63:\n    tag_64:\n      dup1\n      dup3\n      gt\n      iszero\n      tag_62\n      jumpi\n      0x00\n      dup2\n      sstore\n      0x01\n      add\n      jump(tag_64)\n        /* \"#utility.yul\":14:141   */\n    tag_66:\n        /* \"#utility.yul\":75:85   */\n      0x4e487b71\n        /* \"#utility.yul\":70:73   */\n      0xe0\n        /* \"#utility.yul\":66:86   */\n      shl\n        /* \"#utility.yul\":63:64   */\n      0x00\n        /* \"#utility.yul\":56:87   */\n      mstore\n        /* \"#utility.yul\":106:110   */\n      0x41\n        /* \"#utility.yul\":103:104   */\n      0x04\n        /* \"#utility.yul\":96:111   */\n      mstore\n        /* \"#utility.yul\":130:134   */\n      0x24\n        /* \"#utility.yul\":127:128   */\n      0x00\n        /* \"#utility.yul\":120:135   */\n      revert\n        /* \"#utility.yul\":146:1466   */\n    tag_8:\n        /* \"#utility.yul\":257:263   */\n      0x00\n        /* \"#utility.yul\":265:271   */\n      dup1\n        /* \"#utility.yul\":273:279   */\n      0x00\n        /* \"#utility.yul\":281:287   */\n      dup1\n        /* \"#utility.yul\":334:337   */\n      0x80\n        /* \"#utility.yul\":322:331   */\n      dup6\n        /* \"#utility.yul\":313:320   */\n      dup8\n        /* \"#utility.yul\":309:332   */\n      sub\n        /* \"#utility.yul\":305:338   */\n      slt\n        /* \"#utility.yul\":302:355   */\n      iszero\n      tag_70\n      jumpi\n        /* \"#utility.yul\":351:352   */\n      0x00\n        /* \"#utility.yul\":348:349   */\n      dup1\n        /* \"#utility.yul\":341:353   */\n      revert\n        /* \"#utility.yul\":302:355   */\n    tag_70:\n        /* \"#utility.yul\":387:396   */\n      dup5\n        /* \"#utility.yul\":374:397   */\n      calldataload\n        /* \"#utility.yul\":364:397   */\n      swap4\n      pop\n        /* \"#utility.yul\":416:418   */\n      0x20\n        /* \"#utility.yul\":469:471   */\n      dup1\n        /* \"#utility.yul\":458:467   */\n      dup7\n        /* \"#utility.yul\":454:472   */\n      add\n        /* \"#utility.yul\":441:473   */\n      calldataload\n        /* \"#utility.yul\":492:510   */\n      0xffffffffffffffff\n        /* \"#utility.yul\":533:535   */\n      dup1\n        /* \"#utility.yul\":525:531   */\n      dup3\n        /* \"#utility.yul\":522:536   */\n      gt\n        /* \"#utility.yul\":519:553   */\n      iszero\n      tag_71\n      jumpi\n        /* \"#utility.yul\":549:550   */\n      0x00\n        /* \"#utility.yul\":546:547   */\n      dup1\n        /* \"#utility.yul\":539:551   */\n      revert\n        /* \"#utility.yul\":519:553   */\n    tag_71:\n        /* \"#utility.yul\":587:593   */\n      dup2\n        /* \"#utility.yul\":576:585   */\n      dup9\n        /* \"#utility.yul\":572:594   */\n      add\n        /* \"#utility.yul\":562:594   */\n      swap2\n      pop\n        /* \"#utility.yul\":632:639   */\n      dup9\n        /* \"#utility.yul\":625:629   */\n      0x1f\n        /* \"#utility.yul\":621:623   */\n      dup4\n        /* \"#utility.yul\":617:630   */\n      add\n        /* \"#utility.yul\":613:640   */\n      slt\n        /* \"#utility.yul\":603:658   */\n      tag_72\n      jumpi\n        /* \"#utility.yul\":654:655   */\n      0x00\n        /* \"#utility.yul\":651:652   */\n      dup1\n        /* \"#utility.yul\":644:656   */\n      revert\n        /* \"#utility.yul\":603:658   */\n    tag_72:\n        /* \"#utility.yul\":690:692   */\n      dup2\n        /* \"#utility.yul\":677:693   */\n      calldataload\n        /* \"#utility.yul\":712:714   */\n      dup2\n        /* \"#utility.yul\":708:710   */\n      dup2\n        /* \"#utility.yul\":705:715   */\n      gt\n        /* \"#utility.yul\":702:738   */\n      iszero\n      tag_74\n      jumpi\n        /* \"#utility.yul\":718:736   */\n      tag_74\n      tag_66\n      jump\t// in\n    tag_74:\n        /* \"#utility.yul\":764:766   */\n      dup1\n        /* \"#utility.yul\":761:762   */\n      0x05\n        /* \"#utility.yul\":757:767   */\n      shl\n        /* \"#utility.yul\":796:798   */\n      0x40\n        /* \"#utility.yul\":790:799   */\n      mload\n        /* \"#utility.yul\":859:861   */\n      0x1f\n        /* \"#utility.yul\":855:862   */\n      not\n        /* \"#utility.yul\":850:852   */\n      0x3f\n        /* \"#utility.yul\":846:848   */\n      dup4\n        /* \"#utility.yul\":842:853   */\n      add\n        /* \"#utility.yul\":838:863   */\n      and\n        /* \"#utility.yul\":830:836   */\n      dup2\n        /* \"#utility.yul\":826:864   */\n      add\n        /* \"#utility.yul\":914:920   */\n      dup2\n        /* \"#utility.yul\":902:912   */\n      dup2\n        /* \"#utility.yul\":899:921   */\n      lt\n        /* \"#utility.yul\":894:896   */\n      dup6\n        /* \"#utility.yul\":882:892   */\n      dup3\n        /* \"#utility.yul\":879:897   */\n      gt\n        /* \"#utility.yul\":876:922   */\n      or\n        /* \"#utility.yul\":873:945   */\n      iszero\n      tag_76\n      jumpi\n        /* \"#utility.yul\":925:943   */\n      tag_76\n      tag_66\n      jump\t// in\n    tag_76:\n        /* \"#utility.yul\":961:963   */\n      0x40\n        /* \"#utility.yul\":954:976   */\n      mstore\n        /* \"#utility.yul\":1011:1029   */\n      swap2\n      dup3\n      mstore\n        /* \"#utility.yul\":1045:1060   */\n      dup5\n      dup3\n      add\n      swap3\n      pop\n        /* \"#utility.yul\":1087:1098   */\n      dup4\n      dup2\n      add\n        /* \"#utility.yul\":1083:1103   */\n      dup6\n      add\n      swap2\n        /* \"#utility.yul\":1115:1134   */\n      dup12\n      dup4\n      gt\n        /* \"#utility.yul\":1112:1151   */\n      iszero\n      tag_77\n      jumpi\n        /* \"#utility.yul\":1147:1148   */\n      0x00\n        /* \"#utility.yul\":1144:1145   */\n      dup1\n        /* \"#utility.yul\":1137:1149   */\n      revert\n        /* \"#utility.yul\":1112:1151   */\n    tag_77:\n        /* \"#utility.yul\":1171:1182   */\n      swap4\n      dup6\n      add\n      swap4\n        /* \"#utility.yul\":1191:1333   */\n    tag_78:\n        /* \"#utility.yul\":1207:1213   */\n      dup3\n        /* \"#utility.yul\":1202:1205   */\n      dup6\n        /* \"#utility.yul\":1199:1214   */\n      lt\n        /* \"#utility.yul\":1191:1333   */\n      iszero\n      tag_80\n      jumpi\n        /* \"#utility.yul\":1273:1290   */\n      dup5\n      calldataload\n        /* \"#utility.yul\":1261:1291   */\n      dup5\n      mstore\n        /* \"#utility.yul\":1224:1236   */\n      swap4\n      dup6\n      add\n      swap4\n        /* \"#utility.yul\":1311:1323   */\n      swap3\n      dup6\n      add\n      swap3\n        /* \"#utility.yul\":1191:1333   */\n      jump(tag_78)\n    tag_80:\n        /* \"#utility.yul\":146:1466   */\n      swap9\n      swap12\n        /* \"#utility.yul\":1352:1358   */\n      swap9\n      swap11\n      pop\n      pop\n      pop\n      pop\n        /* \"#utility.yul\":1405:1407   */\n      0x40\n        /* \"#utility.yul\":1390:1408   */\n      dup8\n      add\n        /* \"#utility.yul\":1377:1409   */\n      calldataload\n      swap7\n        /* \"#utility.yul\":1456:1458   */\n      0x60\n        /* \"#utility.yul\":1441:1459   */\n      add\n        /* \"#utility.yul\":1428:1460   */\n      calldataload\n      swap6\n        /* \"#utility.yul\":146:1466   */\n      swap5\n      pop\n      pop\n      pop\n      pop\n      pop\n      jump\t// out\n        /* \"#utility.yul\":1471:1651   */\n    tag_12:\n        /* \"#utility.yul\":1530:1536   */\n      0x00\n        /* \"#utility.yul\":1583:1585   */\n      0x20\n        /* \"#utility.yul\":1571:1580   */\n      dup3\n        /* \"#utility.yul\":1562:1569   */\n      dup5\n        /* \"#utility.yul\":1558:1581   */\n      sub\n        /* \"#utility.yul\":1554:1586   */\n      slt\n        /* \"#utility.yul\":1551:1603   */\n      iszero\n      tag_82\n      jumpi\n        /* \"#utility.yul\":1599:1600   */\n      0x00\n        /* \"#utility.yul\":1596:1597   */\n      dup1\n        /* \"#utility.yul\":1589:1601   */\n      revert\n        /* \"#utility.yul\":1551:1603   */\n    tag_82:\n      pop\n        /* \"#utility.yul\":1622:1645   */\n      calldataload\n      swap2\n        /* \"#utility.yul\":1471:1651   */\n      swap1\n      pop\n      jump\t// out\n        /* \"#utility.yul\":1909:2036   */\n    tag_31:\n        /* \"#utility.yul\":1970:1980   */\n      0x4e487b71\n        /* \"#utility.yul\":1965:1968   */\n      0xe0\n        /* \"#utility.yul\":1961:1981   */\n      shl\n        /* \"#utility.yul\":1958:1959   */\n      0x00\n        /* \"#utility.yul\":1951:1982   */\n      mstore\n        /* \"#utility.yul\":2001:2005   */\n      0x32\n        /* \"#utility.yul\":1998:1999   */\n      0x04\n        /* \"#utility.yul\":1991:2006   */\n      mstore\n        /* \"#utility.yul\":2025:2029   */\n      0x24\n        /* \"#utility.yul\":2022:2023   */\n      0x00\n        /* \"#utility.yul\":2015:2030   */\n      revert\n        /* \"#utility.yul\":2391:2623   */\n    tag_37:\n        /* \"#utility.yul\":2430:2433   */\n      0x00\n        /* \"#utility.yul\":2451:2468   */\n      0x01\n      dup3\n      add\n        /* \"#utility.yul\":2448:2588   */\n      tag_87\n      jumpi\n        /* \"#utility.yul\":2510:2520   */\n      0x4e487b71\n        /* \"#utility.yul\":2505:2508   */\n      0xe0\n        /* \"#utility.yul\":2501:2521   */\n      shl\n        /* \"#utility.yul\":2498:2499   */\n      0x00\n        /* \"#utility.yul\":2491:2522   */\n      mstore\n        /* \"#utility.yul\":2545:2549   */\n      0x11\n        /* \"#utility.yul\":2542:2543   */\n      0x04\n        /* \"#utility.yul\":2535:2550   */\n      mstore\n        /* \"#utility.yul\":2573:2577   */\n      0x24\n        /* \"#utility.yul\":2570:2571   */\n      0x00\n        /* \"#utility.yul\":2563:2578   */\n      revert\n        /* \"#utility.yul\":2448:2588   */\n    tag_87:\n      pop\n        /* \"#utility.yul\":2615:2616   */\n      0x01\n        /* \"#utility.yul\":2604:2617   */\n      add\n      swap1\n        /* \"#utility.yul\":2391:2623   */\n      jump\t// out\n\n    auxdata: 0xa2646970667358221220fe09abe73ae7b057131760f1bbdd1b548efb6c92958c6c81e67bbaf4d7097d8664736f6c63430008130033\n}\n",
				"bytecode": {
					"linkReferences": {},
					"object": "608060405234801561001057600080fd5b5061046c806100206000396000f3fe608060405234801561001057600080fd5b50600436106100415760003560e01c806342f551b514610046578063443c227c1461005b5780637309cbbd1461009e575b600080fd5b610059610054366004610308565b6100b1565b005b6100856100693660046103e0565b6000602081905290815260409020600181015460029091015482565b6040805192835260208301919091520160405180910390f35b6100596100ac3660046103e0565b61010b565b60408051606081018252848152602080820185905281830184905260008781528082529290922081518051929384936100ed9284920190610292565b50602082015160018201556040909101516002909101555050505050565b600081815260208181526040808320815181546080948102820185019093526060810183815290939192849284919084018282801561016957602002820191906000526020600020905b815481526020019060010190808311610155575b5050505050815260200160018201548152602001600282015481525050905060005b815151811015610212576101b833836000015183815181106101af576101af6103f9565b50600092915050565b6102005760405162461bcd60e51b81526020600482015260156024820152744d697373696e67207265717569726564206974656d60581b604482015260640160405180910390fd5b8061020a8161040f565b91505061018b565b5060005b8151518110156102515761023f338360000151838151811061023a5761023a6103f9565b505050565b806102498161040f565b915050610216565b5060408082015181519081523360208201527ff4473e01e7e33eba564ae7f36b473379296cca33e825b2b99b10adfbf13d3896910160405180910390a15050565b8280548282559060005260206000209081019282156102cd579160200282015b828111156102cd5782518255916020019190600101906102b2565b506102d99291506102dd565b5090565b5b808211156102d957600081556001016102de565b634e487b7160e01b600052604160045260246000fd5b6000806000806080858703121561031e57600080fd5b8435935060208086013567ffffffffffffffff8082111561033e57600080fd5b818801915088601f83011261035257600080fd5b813581811115610364576103646102f2565b8060051b604051601f19603f83011681018181108582111715610389576103896102f2565b60405291825284820192508381018501918b8311156103a757600080fd5b938501935b828510156103c5578435845293850193928501926103ac565b989b989a505050506040870135966060013595945050505050565b6000602082840312156103f257600080fd5b5035919050565b634e487b7160e01b600052603260045260246000fd5b60006001820161042f57634e487b7160e01b600052601160045260246000fd5b506001019056fea2646970667358221220fe09abe73ae7b057131760f1bbdd1b548efb6c92958c6c81e67bbaf4d7097d8664736f6c63430008130033",
					"opcodes": "PUSH1 0x80 PUSH1 0x40 MSTORE CALLVALUE DUP1 ISZERO PUSH2 0x10 JUMPI PUSH1 0x0 DUP1 REVERT JUMPDEST POP PUSH2 0x46C DUP1 PUSH2 0x20 PUSH1 0x0 CODECOPY PUSH1 0x0 RETURN INVALID PUSH1 0x80 PUSH1 0x40 MSTORE CALLVALUE DUP1 ISZERO PUSH2 0x10 JUMPI PUSH1 0x0 DUP1 REVERT JUMPDEST POP PUSH1 0x4 CALLDATASIZE LT PUSH2 0x41 JUMPI PUSH1 0x0 CALLDATALOAD PUSH1 0xE0 SHR DUP1 PUSH4 0x42F551B5 EQ PUSH2 0x46 JUMPI DUP1 PUSH4 0x443C227C EQ PUSH2 0x5B JUMPI DUP1 PUSH4 0x7309CBBD EQ PUSH2 0x9E JUMPI JUMPDEST PUSH1 0x0 DUP1 REVERT JUMPDEST PUSH2 0x59 PUSH2 0x54 CALLDATASIZE PUSH1 0x4 PUSH2 0x308 JUMP JUMPDEST PUSH2 0xB1 JUMP JUMPDEST STOP JUMPDEST PUSH2 0x85 PUSH2 0x69 CALLDATASIZE PUSH1 0x4 PUSH2 0x3E0 JUMP JUMPDEST PUSH1 0x0 PUSH1 0x20 DUP2 SWAP1 MSTORE SWAP1 DUP2 MSTORE PUSH1 0x40 SWAP1 KECCAK256 PUSH1 0x1 DUP2 ADD SLOAD PUSH1 0x2 SWAP1 SWAP2 ADD SLOAD DUP3 JUMP JUMPDEST PUSH1 0x40 DUP1 MLOAD SWAP3 DUP4 MSTORE PUSH1 0x20 DUP4 ADD SWAP2 SWAP1 SWAP2 MSTORE ADD PUSH1 0x40 MLOAD DUP1 SWAP2 SUB SWAP1 RETURN JUMPDEST PUSH2 0x59 PUSH2 0xAC CALLDATASIZE PUSH1 0x4 PUSH2 0x3E0 JUMP JUMPDEST PUSH2 0x10B JUMP JUMPDEST PUSH1 0x40 DUP1 MLOAD PUSH1 0x60 DUP2 ADD DUP3 MSTORE DUP5 DUP2 MSTORE PUSH1 0x20 DUP1 DUP3 ADD DUP6 SWAP1 MSTORE DUP2 DUP4 ADD DUP5 SWAP1 MSTORE PUSH1 0x0 DUP8 DUP2 MSTORE DUP1 DUP3 MSTORE SWAP3 SWAP1 SWAP3 KECCAK256 DUP2 MLOAD DUP1 MLOAD SWAP3 SWAP4 DUP5 SWAP4 PUSH2 0xED SWAP3 DUP5 SWAP3 ADD SWAP1 PUSH2 0x292 JUMP JUMPDEST POP PUSH1 0x20 DUP3 ADD MLOAD PUSH1 0x1 DUP3 ADD SSTORE PUSH1 0x40 SWAP1 SWAP2 ADD MLOAD PUSH1 0x2 SWAP1 SWAP2 ADD SSTORE POP POP POP POP POP JUMP JUMPDEST PUSH1 0x0 DUP2 DUP2 MSTORE PUSH1 0x20 DUP2 DUP2 MSTORE PUSH1 0x40 DUP1 DUP4 KECCAK256 DUP2 MLOAD DUP2 SLOAD PUSH1 0x80 SWAP5 DUP2 MUL DUP3 ADD DUP6 ADD SWAP1 SWAP4 MSTORE PUSH1 0x60 DUP2 ADD DUP4 DUP2 MSTORE SWAP1 SWAP4 SWAP2 SWAP3 DUP5 SWAP3 DUP5 SWAP2 SWAP1 DUP5 ADD DUP3 DUP3 DUP1 ISZERO PUSH2 0x169 JUMPI PUSH1 0x20 MUL DUP3 ADD SWAP2 SWAP1 PUSH1 0x0 MSTORE PUSH1 0x20 PUSH1 0x0 KECCAK256 SWAP1 JUMPDEST DUP2 SLOAD DUP2 MSTORE PUSH1 0x20 ADD SWAP1 PUSH1 0x1 ADD SWAP1 DUP1 DUP4 GT PUSH2 0x155 JUMPI JUMPDEST POP POP POP POP POP DUP2 MSTORE PUSH1 0x20 ADD PUSH1 0x1 DUP3 ADD SLOAD DUP2 MSTORE PUSH1 0x20 ADD PUSH1 0x2 DUP3 ADD SLOAD DUP2 MSTORE POP POP SWAP1 POP PUSH1 0x0 JUMPDEST DUP2 MLOAD MLOAD DUP2 LT ISZERO PUSH2 0x212 JUMPI PUSH2 0x1B8 CALLER DUP4 PUSH1 0x0 ADD MLOAD DUP4 DUP2 MLOAD DUP2 LT PUSH2 0x1AF JUMPI PUSH2 0x1AF PUSH2 0x3F9 JUMP JUMPDEST POP PUSH1 0x0 SWAP3 SWAP2 POP POP JUMP JUMPDEST PUSH2 0x200 JUMPI PUSH1 0x40 MLOAD PUSH3 0x461BCD PUSH1 0xE5 SHL DUP2 MSTORE PUSH1 0x20 PUSH1 0x4 DUP3 ADD MSTORE PUSH1 0x15 PUSH1 0x24 DUP3 ADD MSTORE PUSH21 0x4D697373696E67207265717569726564206974656D PUSH1 0x58 SHL PUSH1 0x44 DUP3 ADD MSTORE PUSH1 0x64 ADD PUSH1 0x40 MLOAD DUP1 SWAP2 SUB SWAP1 REVERT JUMPDEST DUP1 PUSH2 0x20A DUP2 PUSH2 0x40F JUMP JUMPDEST SWAP2 POP POP PUSH2 0x18B JUMP JUMPDEST POP PUSH1 0x0 JUMPDEST DUP2 MLOAD MLOAD DUP2 LT ISZERO PUSH2 0x251 JUMPI PUSH2 0x23F CALLER DUP4 PUSH1 0x0 ADD MLOAD DUP4 DUP2 MLOAD DUP2 LT PUSH2 0x23A JUMPI PUSH2 0x23A PUSH2 0x3F9 JUMP JUMPDEST POP POP POP JUMP JUMPDEST DUP1 PUSH2 0x249 DUP2 PUSH2 0x40F JUMP JUMPDEST SWAP2 POP POP PUSH2 0x216 JUMP JUMPDEST POP PUSH1 0x40 DUP1 DUP3 ADD MLOAD DUP2 MLOAD SWAP1 DUP2 MSTORE CALLER PUSH1 0x20 DUP3 ADD MSTORE PUSH32 0xF4473E01E7E33EBA564AE7F36B473379296CCA33E825B2B99B10ADFBF13D3896 SWAP2 ADD PUSH1 0x40 MLOAD DUP1 SWAP2 SUB SWAP1 LOG1 POP POP JUMP JUMPDEST DUP3 DUP1 SLOAD DUP3 DUP3 SSTORE SWAP1 PUSH1 0x0 MSTORE PUSH1 0x20 PUSH1 0x0 KECCAK256 SWAP1 DUP2 ADD SWAP3 DUP3 ISZERO PUSH2 0x2CD JUMPI SWAP2 PUSH1 0x20 MUL DUP3 ADD JUMPDEST DUP3 DUP2 GT ISZERO PUSH2 0x2CD JUMPI DUP3 MLOAD DUP3 SSTORE SWAP2 PUSH1 0x20 ADD SWAP2 SWAP1 PUSH1 0x1 ADD SWAP1 PUSH2 0x2B2 JUMP JUMPDEST POP PUSH2 0x2D9 SWAP3 SWAP2 POP PUSH2 0x2DD JUMP JUMPDEST POP SWAP1 JUMP JUMPDEST JUMPDEST DUP1 DUP3 GT ISZERO PUSH2 0x2D9 JUMPI PUSH1 0x0 DUP2 SSTORE PUSH1 0x1 ADD PUSH2 0x2DE JUMP JUMPDEST PUSH4 0x4E487B71 PUSH1 0xE0 SHL PUSH1 0x0 MSTORE PUSH1 0x41 PUSH1 0x4 MSTORE PUSH1 0x24 PUSH1 0x0 REVERT JUMPDEST PUSH1 0x0 DUP1 PUSH1 0x0 DUP1 PUSH1 0x80 DUP6 DUP8 SUB SLT ISZERO PUSH2 0x31E JUMPI PUSH1 0x0 DUP1 REVERT JUMPDEST DUP5 CALLDATALOAD SWAP4 POP PUSH1 0x20 DUP1 DUP7 ADD CALLDATALOAD PUSH8 0xFFFFFFFFFFFFFFFF DUP1 DUP3 GT ISZERO PUSH2 0x33E JUMPI PUSH1 0x0 DUP1 REVERT JUMPDEST DUP2 DUP9 ADD SWAP2 POP DUP9 PUSH1 0x1F DUP4 ADD SLT PUSH2 0x352 JUMPI PUSH1 0x0 DUP1 REVERT JUMPDEST DUP2 CALLDATALOAD DUP2 DUP2 GT ISZERO PUSH2 0x364 JUMPI PUSH2 0x364 PUSH2 0x2F2 JUMP JUMPDEST DUP1 PUSH1 0x5 SHL PUSH1 0x40 MLOAD PUSH1 0x1F NOT PUSH1 0x3F DUP4 ADD AND DUP2 ADD DUP2 DUP2 LT DUP6 DUP3 GT OR ISZERO PUSH2 0x389 JUMPI PUSH2 0x389 PUSH2 0x2F2 JUMP JUMPDEST PUSH1 0x40 MSTORE SWAP2 DUP3 MSTORE DUP5 DUP3 ADD SWAP3 POP DUP4 DUP2 ADD DUP6 ADD SWAP2 DUP12 DUP4 GT ISZERO PUSH2 0x3A7 JUMPI PUSH1 0x0 DUP1 REVERT JUMPDEST SWAP4 DUP6 ADD SWAP4 JUMPDEST DUP3 DUP6 LT ISZERO PUSH2 0x3C5 JUMPI DUP5 CALLDATALOAD DUP5 MSTORE SWAP4 DUP6 ADD SWAP4 SWAP3 DUP6 ADD SWAP3 PUSH2 0x3AC JUMP JUMPDEST SWAP9 SWAP12 SWAP9 SWAP11 POP POP POP POP PUSH1 0x40 DUP8 ADD CALLDATALOAD SWAP7 PUSH1 0x60 ADD CALLDATALOAD SWAP6 SWAP5 POP POP POP POP POP JUMP JUMPDEST PUSH1 0x0 PUSH1 0x20 DUP3 DUP5 SUB SLT ISZERO PUSH2 0x3F2 JUMPI PUSH1 0x0 DUP1 REVERT JUMPDEST POP CALLDATALOAD SWAP2 SWAP1 POP JUMP JUMPDEST PUSH4 0x4E487B71 PUSH1 0xE0 SHL PUSH1 0x0 MSTORE PUSH1 0x32 PUSH1 0x4 MSTORE PUSH1 0x24 PUSH1 0x0 REVERT JUMPDEST PUSH1 0x0 PUSH1 0x1 DUP3 ADD PUSH2 0x42F JUMPI PUSH4 0x4E487B71 PUSH1 0xE0 SHL PUSH1 0x0 MSTORE PUSH1 0x11 PUSH1 0x4 MSTORE PUSH1 0x24 PUSH1 0x0 REVERT JUMPDEST POP PUSH1 0x1 ADD SWAP1 JUMP INVALID LOG2 PUSH5 0x6970667358 0x22 SLT KECCAK256 INVALID MULMOD 0xAB 0xE7 GASPRICE 0xE7 0xB0 JUMPI SGT OR PUSH1 0xF1 0xBB 0xDD SHL SLOAD DUP15 0xFB PUSH13 0x92958C6C81E67BBAF4D7097D86 PUSH5 0x736F6C6343 STOP ADDMOD SGT STOP CALLER "
				},
				"gasEstimates": {
					"creation": {
						"codeDepositCost": "226400",
						"executionCost": "269",
						"totalCost": "226669"
					},
					"external": {
						"addRecipe(uint256,uint256[],uint256,uint256)": "infinite",
						"craftItem(uint256)": "infinite",
						"recipes(uint256)": "4574"
					},
					"internal": {
						"addItem(address,uint256)": "infinite",
						"hasItem(address,uint256)": "infinite",
						"randomNumber()": "infinite",
						"removeItem(address,uint256)": "infinite"
					}
				},
				"methodIdentifiers": {
					"addRecipe(uint256,uint256[],uint256,uint256)": "42f551b5",
					"craftItem(uint256)": "7309cbbd",
					"recipes(uint256)": "443c227c"
				}
			},
			"storageLayout": {
				"storage": [
					{
						"astId": 14,
						"contract": "chaos.sol:ChaosMachine",
						"label": "recipes",
						"offset": 0,
						"slot": "0",
						"type": "t_mapping(t_uint256,t_struct(Recipe)9_storage)"
					}
				],
				"types": {
					"t_array(t_uint256)dyn_storage": {
						"base": "t_uint256",
						"encoding": "dynamic_array",
						"label": "uint256[]",
						"numberOfBytes": "32"
					},
					"t_mapping(t_uint256,t_struct(Recipe)9_storage)": {
						"encoding": "mapping",
						"key": "t_uint256",
						"label": "mapping(uint256 => struct ChaosMachine.Recipe)",
						"numberOfBytes": "32",
						"value": "t_struct(Recipe)9_storage"
					},
					"t_struct(Recipe)9_storage": {
						"encoding": "inplace",
						"label": "struct ChaosMachine.Recipe",
						"members": [
							{
								"astId": 4,
								"contract": "chaos.sol:ChaosMachine",
								"label": "itemIds",
								"offset": 0,
								"slot": "0",
								"type": "t_array(t_uint256)dyn_storage"
							},
							{
								"astId": 6,
								"contract": "chaos.sol:ChaosMachine",
								"label": "successRate",
								"offset": 0,
								"slot": "1",
								"type": "t_uint256"
							},
							{
								"astId": 8,
								"contract": "chaos.sol:ChaosMachine",
								"label": "resultItemId",
								"offset": 0,
								"slot": "2",
								"type": "t_uint256"
							}
						],
						"numberOfBytes": "96"
					},
					"t_uint256": {
						"encoding": "inplace",
						"label": "uint256",
						"numberOfBytes": "32"
					}
				}
			},
			"userdoc": {
				"kind": "user",
				"methods": {},
				"version": 1
			}
		}
	}
}