{
	"money.sol": {
		"FightclubMoney": {
			"abi": [
				{
					"inputs": [],
					"stateMutability": "nonpayable",
					"type": "constructor"
				},
				{
					"anonymous": false,
					"inputs": [
						{
							"indexed": true,
							"internalType": "address",
							"name": "owner",
							"type": "address"
						},
						{
							"indexed": true,
							"internalType": "address",
							"name": "spender",
							"type": "address"
						},
						{
							"indexed": false,
							"internalType": "uint256",
							"name": "value",
							"type": "uint256"
						}
					],
					"name": "Approval",
					"type": "event"
				},
				{
					"anonymous": false,
					"inputs": [
						{
							"indexed": true,
							"internalType": "address",
							"name": "player",
							"type": "address"
						},
						{
							"indexed": false,
							"internalType": "uint256",
							"name": "amount",
							"type": "uint256"
						}
					],
					"name": "Mint",
					"type": "event"
				},
				{
					"anonymous": false,
					"inputs": [
						{
							"indexed": false,
							"internalType": "address",
							"name": "battleContract",
							"type": "address"
						},
						{
							"indexed": false,
							"internalType": "bool",
							"name": "isActive",
							"type": "bool"
						}
					],
					"name": "SetBattleContract",
					"type": "event"
				},
				{
					"anonymous": false,
					"inputs": [
						{
							"indexed": true,
							"internalType": "address",
							"name": "previousOwner",
							"type": "address"
						},
						{
							"indexed": true,
							"internalType": "address",
							"name": "newOwner",
							"type": "address"
						}
					],
					"name": "SetOwner",
					"type": "event"
				},
				{
					"anonymous": false,
					"inputs": [
						{
							"indexed": true,
							"internalType": "address",
							"name": "from",
							"type": "address"
						},
						{
							"indexed": true,
							"internalType": "address",
							"name": "to",
							"type": "address"
						},
						{
							"indexed": false,
							"internalType": "uint256",
							"name": "value",
							"type": "uint256"
						}
					],
					"name": "Transfer",
					"type": "event"
				},
				{
					"inputs": [
						{
							"internalType": "address",
							"name": "owner",
							"type": "address"
						},
						{
							"internalType": "address",
							"name": "spender",
							"type": "address"
						}
					],
					"name": "allowance",
					"outputs": [
						{
							"internalType": "uint256",
							"name": "",
							"type": "uint256"
						}
					],
					"stateMutability": "view",
					"type": "function"
				},
				{
					"inputs": [
						{
							"internalType": "address",
							"name": "spender",
							"type": "address"
						},
						{
							"internalType": "uint256",
							"name": "amount",
							"type": "uint256"
						}
					],
					"name": "approve",
					"outputs": [
						{
							"internalType": "bool",
							"name": "",
							"type": "bool"
						}
					],
					"stateMutability": "nonpayable",
					"type": "function"
				},
				{
					"inputs": [
						{
							"internalType": "address",
							"name": "account",
							"type": "address"
						}
					],
					"name": "balanceOf",
					"outputs": [
						{
							"internalType": "uint256",
							"name": "",
							"type": "uint256"
						}
					],
					"stateMutability": "view",
					"type": "function"
				},
				{
					"inputs": [],
					"name": "decimals",
					"outputs": [
						{
							"internalType": "uint8",
							"name": "",
							"type": "uint8"
						}
					],
					"stateMutability": "view",
					"type": "function"
				},
				{
					"inputs": [],
					"name": "name",
					"outputs": [
						{
							"internalType": "string",
							"name": "",
							"type": "string"
						}
					],
					"stateMutability": "view",
					"type": "function"
				},
				{
					"inputs": [],
					"name": "owner",
					"outputs": [
						{
							"internalType": "address",
							"name": "",
							"type": "address"
						}
					],
					"stateMutability": "view",
					"type": "function"
				},
				{
					"inputs": [
						{
							"internalType": "address",
							"name": "playerAddress",
							"type": "address"
						},
						{
							"internalType": "uint256",
							"name": "amount",
							"type": "uint256"
						}
					],
					"name": "payoutBattlePurse",
					"outputs": [],
					"stateMutability": "nonpayable",
					"type": "function"
				},
				{
					"inputs": [
						{
							"internalType": "uint256",
							"name": "a",
							"type": "uint256"
						},
						{
							"internalType": "uint256",
							"name": "b",
							"type": "uint256"
						}
					],
					"name": "safeAdd",
					"outputs": [
						{
							"internalType": "uint256",
							"name": "",
							"type": "uint256"
						}
					],
					"stateMutability": "nonpayable",
					"type": "function"
				},
				{
					"inputs": [
						{
							"internalType": "uint256",
							"name": "a",
							"type": "uint256"
						},
						{
							"internalType": "uint256",
							"name": "b",
							"type": "uint256"
						}
					],
					"name": "safeMul",
					"outputs": [
						{
							"internalType": "uint256",
							"name": "",
							"type": "uint256"
						}
					],
					"stateMutability": "nonpayable",
					"type": "function"
				},
				{
					"inputs": [
						{
							"internalType": "uint256",
							"name": "a",
							"type": "uint256"
						},
						{
							"internalType": "uint256",
							"name": "b",
							"type": "uint256"
						}
					],
					"name": "safeSub",
					"outputs": [
						{
							"internalType": "uint256",
							"name": "",
							"type": "uint256"
						}
					],
					"stateMutability": "nonpayable",
					"type": "function"
				},
				{
					"inputs": [
						{
							"internalType": "address",
							"name": "contr",
							"type": "address"
						},
						{
							"internalType": "bool",
							"name": "isActive",
							"type": "bool"
						}
					],
					"name": "setBattleContract",
					"outputs": [],
					"stateMutability": "nonpayable",
					"type": "function"
				},
				{
					"inputs": [
						{
							"internalType": "address",
							"name": "newOwner",
							"type": "address"
						}
					],
					"name": "setOwner",
					"outputs": [],
					"stateMutability": "nonpayable",
					"type": "function"
				},
				{
					"inputs": [],
					"name": "symbol",
					"outputs": [
						{
							"internalType": "string",
							"name": "",
							"type": "string"
						}
					],
					"stateMutability": "view",
					"type": "function"
				},
				{
					"inputs": [],
					"name": "totalSupply",
					"outputs": [
						{
							"internalType": "uint256",
							"name": "",
							"type": "uint256"
						}
					],
					"stateMutability": "view",
					"type": "function"
				},
				{
					"inputs": [
						{
							"internalType": "address",
							"name": "recipient",
							"type": "address"
						},
						{
							"internalType": "uint256",
							"name": "amount",
							"type": "uint256"
						}
					],
					"name": "transfer",
					"outputs": [
						{
							"internalType": "bool",
							"name": "",
							"type": "bool"
						}
					],
					"stateMutability": "nonpayable",
					"type": "function"
				},
				{
					"inputs": [
						{
							"internalType": "address",
							"name": "sender",
							"type": "address"
						},
						{
							"internalType": "address",
							"name": "recipient",
							"type": "address"
						},
						{
							"internalType": "uint256",
							"name": "amount",
							"type": "uint256"
						}
					],
					"name": "transferFrom",
					"outputs": [
						{
							"internalType": "bool",
							"name": "",
							"type": "bool"
						}
					],
					"stateMutability": "nonpayable",
					"type": "function"
				}
			],
			"devdoc": {
				"kind": "dev",
				"methods": {},
				"version": 1
			},
			"evm": {
				"assembly": "    /* \"money.sol\":785:5163  contract FightclubMoney is IERC20 {... */\n  mstore(0x40, 0x80)\n    /* \"money.sol\":1152:1227  constructor() {... */\n  callvalue\n  dup1\n  iszero\n  tag_1\n  jumpi\n  0x00\n  dup1\n  revert\ntag_1:\n  pop\n    /* \"money.sol\":1191:1192  0 */\n  0x00\n    /* \"money.sol\":1176:1192  _totalSupply = 0 */\n  dup1\n  sstore\n    /* \"money.sol\":1202:1207  owner */\n  0x03\n    /* \"money.sol\":1202:1220  owner = msg.sender */\n  dup1\n  sload\n  not(sub(shl(0xa0, 0x01), 0x01))\n  and\n    /* \"money.sol\":1210:1220  msg.sender */\n  caller\n    /* \"money.sol\":1202:1220  owner = msg.sender */\n  or\n  swap1\n  sstore\n    /* \"money.sol\":785:5163  contract FightclubMoney is IERC20 {... */\n  dataSize(sub_0)\n  dup1\n  dataOffset(sub_0)\n  0x00\n  codecopy\n  0x00\n  return\nstop\n\nsub_0: assembly {\n        /* \"money.sol\":785:5163  contract FightclubMoney is IERC20 {... */\n      mstore(0x40, 0x80)\n      callvalue\n      dup1\n      iszero\n      tag_1\n      jumpi\n      0x00\n      dup1\n      revert\n    tag_1:\n      pop\n      jumpi(tag_2, lt(calldatasize, 0x04))\n      shr(0xe0, calldataload(0x00))\n      dup1\n      0x95d89b41\n      gt\n      tag_19\n      jumpi\n      dup1\n      0xd05c78da\n      gt\n      tag_20\n      jumpi\n      dup1\n      0xd05c78da\n      eq\n      tag_15\n      jumpi\n      dup1\n      0xd5a93d68\n      eq\n      tag_16\n      jumpi\n      dup1\n      0xdd62ed3e\n      eq\n      tag_17\n      jumpi\n      dup1\n      0xe6cb9013\n      eq\n      tag_18\n      jumpi\n      0x00\n      dup1\n      revert\n    tag_20:\n      dup1\n      0x95d89b41\n      eq\n      tag_11\n      jumpi\n      dup1\n      0xa293d1e8\n      eq\n      tag_12\n      jumpi\n      dup1\n      0xa9059cbb\n      eq\n      tag_13\n      jumpi\n      dup1\n      0xb78636a1\n      eq\n      tag_14\n      jumpi\n      0x00\n      dup1\n      revert\n    tag_19:\n      dup1\n      0x23b872dd\n      gt\n      tag_21\n      jumpi\n      dup1\n      0x23b872dd\n      eq\n      tag_7\n      jumpi\n      dup1\n      0x313ce567\n      eq\n      tag_8\n      jumpi\n      dup1\n      0x70a08231\n      eq\n      tag_9\n      jumpi\n      dup1\n      0x8da5cb5b\n      eq\n      tag_10\n      jumpi\n      0x00\n      dup1\n      revert\n    tag_21:\n      dup1\n      0x06fdde03\n      eq\n      tag_3\n      jumpi\n      dup1\n      0x095ea7b3\n      eq\n      tag_4\n      jumpi\n      dup1\n      0x13af4035\n      eq\n      tag_5\n      jumpi\n      dup1\n      0x18160ddd\n      eq\n      tag_6\n      jumpi\n    tag_2:\n      0x00\n      dup1\n      revert\n        /* \"money.sol\":825:872  string public constant name = \"Fightclub Money\" */\n    tag_3:\n      tag_22\n      mload(0x40)\n      dup1\n      0x40\n      add\n      0x40\n      mstore\n      dup1\n      0x0f\n      dup2\n      mstore\n      0x20\n      add\n      shl(0x88, 0x4669676874636c7562204d6f6e6579)\n      dup2\n      mstore\n      pop\n      dup2\n      jump\n    tag_22:\n      mload(0x40)\n      tag_24\n      swap2\n      swap1\n      tag_25\n      jump\t// in\n    tag_24:\n      mload(0x40)\n      dup1\n      swap2\n      sub\n      swap1\n      return\n        /* \"money.sol\":3125:3281  function approve(address spender, uint256 amount) public override returns (bool) {... */\n    tag_4:\n      tag_26\n      tag_27\n      calldatasize\n      0x04\n      tag_28\n      jump\t// in\n    tag_27:\n      tag_29\n      jump\t// in\n    tag_26:\n      mload(0x40)\n        /* \"#utility.yul\":1169:1183   */\n      swap1\n      iszero\n        /* \"#utility.yul\":1162:1184   */\n      iszero\n        /* \"#utility.yul\":1144:1185   */\n      dup2\n      mstore\n        /* \"#utility.yul\":1132:1134   */\n      0x20\n        /* \"#utility.yul\":1117:1135   */\n      add\n        /* \"money.sol\":3125:3281  function approve(address spender, uint256 amount) public override returns (bool) {... */\n      tag_24\n        /* \"#utility.yul\":1004:1191   */\n      jump\n        /* \"money.sol\":2165:2291  function setOwner(address newOwner) public onlyOwner {... */\n    tag_5:\n      tag_32\n      tag_33\n      calldatasize\n      0x04\n      tag_34\n      jump\t// in\n    tag_33:\n      tag_35\n      jump\t// in\n    tag_32:\n      stop\n        /* \"money.sol\":2567:2665  function totalSupply() public view override returns (uint256) {... */\n    tag_6:\n        /* \"money.sol\":2620:2627  uint256 */\n      0x00\n        /* \"money.sol\":2646:2658  _totalSupply */\n      sload\n        /* \"money.sol\":2567:2665  function totalSupply() public view override returns (uint256) {... */\n    tag_36:\n      mload(0x40)\n        /* \"#utility.yul\":1533:1558   */\n      swap1\n      dup2\n      mstore\n        /* \"#utility.yul\":1521:1523   */\n      0x20\n        /* \"#utility.yul\":1506:1524   */\n      add\n        /* \"money.sol\":2567:2665  function totalSupply() public view override returns (uint256) {... */\n      tag_24\n        /* \"#utility.yul\":1387:1564   */\n      jump\n        /* \"money.sol\":3291:3549  function transferFrom(address sender, address recipient, uint256 amount) public override returns (bool) {... */\n    tag_7:\n      tag_26\n      tag_41\n      calldatasize\n      0x04\n      tag_42\n      jump\t// in\n    tag_41:\n      tag_43\n      jump\t// in\n        /* \"money.sol\":922:957  uint8 public constant decimals = 18 */\n    tag_8:\n      tag_45\n        /* \"money.sol\":955:957  18 */\n      0x12\n        /* \"money.sol\":922:957  uint8 public constant decimals = 18 */\n      dup2\n      jump\n    tag_45:\n      mload(0x40)\n        /* \"#utility.yul\":2074:2078   */\n      0xff\n        /* \"#utility.yul\":2062:2079   */\n      swap1\n      swap2\n      and\n        /* \"#utility.yul\":2044:2080   */\n      dup2\n      mstore\n        /* \"#utility.yul\":2032:2034   */\n      0x20\n        /* \"#utility.yul\":2017:2035   */\n      add\n        /* \"money.sol\":922:957  uint8 public constant decimals = 18 */\n      tag_24\n        /* \"#utility.yul\":1902:2086   */\n      jump\n        /* \"money.sol\":2675:2792  function balanceOf(address account) public view override returns (uint256) {... */\n    tag_9:\n      tag_36\n      tag_50\n      calldatasize\n      0x04\n      tag_34\n      jump\t// in\n    tag_50:\n      sub(shl(0xa0, 0x01), 0x01)\n        /* \"money.sol\":2767:2785  _balances[account] */\n      and\n        /* \"money.sol\":2741:2748  uint256 */\n      0x00\n        /* \"money.sol\":2767:2785  _balances[account] */\n      swap1\n      dup2\n      mstore\n        /* \"money.sol\":2767:2776  _balances */\n      0x01\n        /* \"money.sol\":2767:2785  _balances[account] */\n      0x20\n      mstore\n      0x40\n      swap1\n      keccak256\n      sload\n      swap1\n        /* \"money.sol\":2675:2792  function balanceOf(address account) public view override returns (uint256) {... */\n      jump\n        /* \"money.sol\":1121:1141  address public owner */\n    tag_10:\n      sload(0x03)\n      tag_53\n      swap1\n      sub(shl(0xa0, 0x01), 0x01)\n      and\n      dup2\n      jump\n    tag_53:\n      mload(0x40)\n      sub(shl(0xa0, 0x01), 0x01)\n        /* \"#utility.yul\":2255:2287   */\n      swap1\n      swap2\n      and\n        /* \"#utility.yul\":2237:2288   */\n      dup2\n      mstore\n        /* \"#utility.yul\":2225:2227   */\n      0x20\n        /* \"#utility.yul\":2210:2228   */\n      add\n        /* \"money.sol\":1121:1141  address public owner */\n      tag_24\n        /* \"#utility.yul\":2091:2294   */\n      jump\n        /* \"money.sol\":878:916  string public constant symbol = \"FUKC\" */\n    tag_11:\n      tag_22\n      mload(0x40)\n      dup1\n      0x40\n      add\n      0x40\n      mstore\n      dup1\n      0x04\n      dup2\n      mstore\n      0x20\n      add\n      shl(0xe0, 0x46554b43)\n      dup2\n      mstore\n      pop\n      dup2\n      jump\n        /* \"money.sol\":4854:4962  function safeSub(uint a, uint b) public returns (uint) {... */\n    tag_12:\n      tag_36\n      tag_61\n      calldatasize\n      0x04\n      tag_62\n      jump\t// in\n    tag_61:\n      tag_63\n      jump\t// in\n        /* \"money.sol\":2802:2964  function transfer(address recipient, uint256 amount) public override returns (bool) {... */\n    tag_13:\n      tag_26\n      tag_66\n      calldatasize\n      0x04\n      tag_28\n      jump\t// in\n    tag_66:\n      tag_67\n      jump\t// in\n        /* \"money.sol\":1244:1595  function payoutBattlePurse(address playerAddress, uint256 amount) external onlyBattleContract {... */\n    tag_14:\n      tag_32\n      tag_70\n      calldatasize\n      0x04\n      tag_28\n      jump\t// in\n    tag_70:\n      tag_71\n      jump\t// in\n        /* \"money.sol\":4644:4786  function safeMul(uint a, uint b) public returns (uint) {... */\n    tag_15:\n      tag_36\n      tag_73\n      calldatasize\n      0x04\n      tag_62\n      jump\t// in\n    tag_73:\n      tag_74\n      jump\t// in\n        /* \"money.sol\":2381:2561  function setBattleContract(address contr, bool isActive) external onlyOwner... */\n    tag_16:\n      tag_32\n      tag_77\n      calldatasize\n      0x04\n      tag_78\n      jump\t// in\n    tag_77:\n      tag_79\n      jump\t// in\n        /* \"money.sol\":2974:3115  function allowance(address owner, address spender) public view override returns (uint256) {... */\n    tag_17:\n      tag_36\n      tag_81\n      calldatasize\n      0x04\n      tag_82\n      jump\t// in\n    tag_81:\n      sub(shl(0xa0, 0x01), 0x01)\n        /* \"money.sol\":3081:3099  _allowances[owner] */\n      swap2\n      dup3\n      and\n        /* \"money.sol\":3055:3062  uint256 */\n      0x00\n        /* \"money.sol\":3081:3099  _allowances[owner] */\n      swap1\n      dup2\n      mstore\n        /* \"money.sol\":3081:3092  _allowances */\n      0x02\n        /* \"money.sol\":3081:3099  _allowances[owner] */\n      0x20\n      swap1\n      dup2\n      mstore\n      0x40\n      dup1\n      dup4\n      keccak256\n        /* \"money.sol\":3081:3108  _allowances[owner][spender] */\n      swap4\n      swap1\n      swap5\n      and\n      dup3\n      mstore\n      swap2\n      swap1\n      swap2\n      mstore\n      keccak256\n      sload\n      swap1\n        /* \"money.sol\":2974:3115  function allowance(address owner, address spender) public view override returns (uint256) {... */\n      jump\n        /* \"money.sol\":5027:5161  function safeAdd(uint a, uint b) public returns (uint) {... */\n    tag_18:\n      tag_36\n      tag_86\n      calldatasize\n      0x04\n      tag_62\n      jump\t// in\n    tag_86:\n      tag_87\n      jump\t// in\n        /* \"money.sol\":3125:3281  function approve(address spender, uint256 amount) public override returns (bool) {... */\n    tag_29:\n        /* \"money.sol\":3200:3204  bool */\n      0x00\n        /* \"money.sol\":3216:3253  _approve(msg.sender, spender, amount) */\n      tag_90\n        /* \"money.sol\":3225:3235  msg.sender */\n      caller\n        /* \"money.sol\":3237:3244  spender */\n      dup5\n        /* \"money.sol\":3246:3252  amount */\n      dup5\n        /* \"money.sol\":3216:3224  _approve */\n      tag_91\n        /* \"money.sol\":3216:3253  _approve(msg.sender, spender, amount) */\n      jump\t// in\n    tag_90:\n      pop\n        /* \"money.sol\":3270:3274  true */\n      0x01\n        /* \"money.sol\":3125:3281  function approve(address spender, uint256 amount) public override returns (bool) {... */\n    tag_89:\n      swap3\n      swap2\n      pop\n      pop\n      jump\t// out\n        /* \"money.sol\":2165:2291  function setOwner(address newOwner) public onlyOwner {... */\n    tag_35:\n        /* \"money.sol\":1927:1932  owner */\n      and(sub(shl(0xa0, 0x01), 0x01), sload(0x03))\n        /* \"money.sol\":1913:1923  msg.sender */\n      caller\n        /* \"money.sol\":1913:1932  msg.sender == owner */\n      eq\n        /* \"money.sol\":1906:1933  assert(msg.sender == owner) */\n      tag_94\n      jumpi\n      tag_94\n      tag_95\n      jump\t// in\n    tag_94:\n        /* \"money.sol\":2242:2247  owner */\n      sload(0x03)\n        /* \"money.sol\":2233:2258  SetOwner(owner, newOwner) */\n      mload(0x40)\n      sub(shl(0xa0, 0x01), 0x01)\n      dup1\n      dup5\n      and\n      swap3\n        /* \"money.sol\":2242:2247  owner */\n      and\n      swap1\n        /* \"money.sol\":2233:2258  SetOwner(owner, newOwner) */\n      0xcbf985117192c8f614a58aaf97226bb80a754772f5f6edf06f87c675f2e6c663\n      swap1\n        /* \"money.sol\":2242:2247  owner */\n      0x00\n      swap1\n        /* \"money.sol\":2233:2258  SetOwner(owner, newOwner) */\n      log3\n        /* \"money.sol\":2268:2273  owner */\n      0x03\n        /* \"money.sol\":2268:2284  owner = newOwner */\n      dup1\n      sload\n      not(sub(shl(0xa0, 0x01), 0x01))\n      and\n      sub(shl(0xa0, 0x01), 0x01)\n      swap3\n      swap1\n      swap3\n      and\n      swap2\n      swap1\n      swap2\n      or\n      swap1\n      sstore\n        /* \"money.sol\":2165:2291  function setOwner(address newOwner) public onlyOwner {... */\n      jump\t// out\n        /* \"money.sol\":3291:3549  function transferFrom(address sender, address recipient, uint256 amount) public override returns (bool) {... */\n    tag_43:\n        /* \"money.sol\":3389:3393  bool */\n      0x00\n        /* \"money.sol\":3405:3441  _transfer(sender, recipient, amount) */\n      tag_99\n        /* \"money.sol\":3415:3421  sender */\n      dup5\n        /* \"money.sol\":3423:3432  recipient */\n      dup5\n        /* \"money.sol\":3434:3440  amount */\n      dup5\n        /* \"money.sol\":3405:3414  _transfer */\n      tag_100\n        /* \"money.sol\":3405:3441  _transfer(sender, recipient, amount) */\n      jump\t// in\n    tag_99:\n      sub(shl(0xa0, 0x01), 0x01)\n        /* \"money.sol\":3480:3499  _allowances[sender] */\n      dup5\n      and\n      0x00\n      swap1\n      dup2\n      mstore\n        /* \"money.sol\":3480:3491  _allowances */\n      0x02\n        /* \"money.sol\":3480:3499  _allowances[sender] */\n      0x20\n      swap1\n      dup2\n      mstore\n      0x40\n      dup1\n      dup4\n      keccak256\n        /* \"money.sol\":3468:3478  msg.sender */\n      caller\n        /* \"money.sol\":3480:3511  _allowances[sender][msg.sender] */\n      dup1\n      dup6\n      mstore\n      swap3\n      mstore\n      swap1\n      swap2\n      keccak256\n      sload\n        /* \"money.sol\":3451:3521  _approve(sender, msg.sender, _allowances[sender][msg.sender] - amount) */\n      tag_101\n      swap2\n        /* \"money.sol\":3460:3466  sender */\n      dup7\n      swap2\n        /* \"money.sol\":3480:3520  _allowances[sender][msg.sender] - amount */\n      tag_102\n      swap1\n        /* \"money.sol\":3514:3520  amount */\n      dup7\n      swap1\n        /* \"money.sol\":3480:3520  _allowances[sender][msg.sender] - amount */\n      tag_103\n      jump\t// in\n    tag_102:\n        /* \"money.sol\":3451:3459  _approve */\n      tag_91\n        /* \"money.sol\":3451:3521  _approve(sender, msg.sender, _allowances[sender][msg.sender] - amount) */\n      jump\t// in\n    tag_101:\n      pop\n        /* \"money.sol\":3538:3542  true */\n      0x01\n        /* \"money.sol\":3291:3549  function transferFrom(address sender, address recipient, uint256 amount) public override returns (bool) {... */\n      swap4\n      swap3\n      pop\n      pop\n      pop\n      jump\t// out\n        /* \"money.sol\":4854:4962  function safeSub(uint a, uint b) public returns (uint) {... */\n    tag_63:\n        /* \"money.sol\":4903:4907  uint */\n      0x00\n        /* \"money.sol\":4931:4932  a */\n      dup3\n        /* \"money.sol\":4926:4927  b */\n      dup3\n        /* \"money.sol\":4926:4932  b <= a */\n      gt\n      iszero\n        /* \"money.sol\":4919:4933  assert(b <= a) */\n      tag_107\n      jumpi\n      tag_107\n      tag_95\n      jump\t// in\n    tag_107:\n        /* \"money.sol\":4950:4955  a - b */\n      tag_108\n        /* \"money.sol\":4954:4955  b */\n      dup3\n        /* \"money.sol\":4950:4951  a */\n      dup5\n        /* \"money.sol\":4950:4955  a - b */\n      tag_103\n      jump\t// in\n    tag_108:\n        /* \"money.sol\":4943:4955  return a - b */\n      swap4\n        /* \"money.sol\":4854:4962  function safeSub(uint a, uint b) public returns (uint) {... */\n      swap3\n      pop\n      pop\n      pop\n      jump\t// out\n        /* \"money.sol\":2802:2964  function transfer(address recipient, uint256 amount) public override returns (bool) {... */\n    tag_67:\n        /* \"money.sol\":2880:2884  bool */\n      0x00\n        /* \"money.sol\":2896:2936  _transfer(msg.sender, recipient, amount) */\n      tag_90\n        /* \"money.sol\":2906:2916  msg.sender */\n      caller\n        /* \"money.sol\":2918:2927  recipient */\n      dup5\n        /* \"money.sol\":2929:2935  amount */\n      dup5\n        /* \"money.sol\":2896:2905  _transfer */\n      tag_100\n        /* \"money.sol\":2896:2936  _transfer(msg.sender, recipient, amount) */\n      jump\t// in\n        /* \"money.sol\":1244:1595  function payoutBattlePurse(address playerAddress, uint256 amount) external onlyBattleContract {... */\n    tag_71:\n        /* \"money.sol\":2088:2098  msg.sender */\n      caller\n        /* \"money.sol\":2071:2099  isBattleContract[msg.sender] */\n      0x00\n      swap1\n      dup2\n      mstore\n        /* \"money.sol\":2071:2087  isBattleContract */\n      0x04\n        /* \"money.sol\":2071:2099  isBattleContract[msg.sender] */\n      0x20\n      mstore\n      0x40\n      swap1\n      keccak256\n      sload\n      0xff\n      and\n        /* \"money.sol\":2064:2100  assert(isBattleContract[msg.sender]) */\n      tag_113\n      jumpi\n      tag_113\n      tag_95\n      jump\t// in\n    tag_113:\n        /* \"money.sol\":1363:1392  safeAdd(_totalSupply, amount) */\n      tag_115\n        /* \"money.sol\":1371:1383  _totalSupply */\n      sload(0x00)\n        /* \"money.sol\":1385:1391  amount */\n      dup3\n        /* \"money.sol\":1363:1370  safeAdd */\n      tag_87\n        /* \"money.sol\":1363:1392  safeAdd(_totalSupply, amount) */\n      jump\t// in\n    tag_115:\n        /* \"money.sol\":1348:1360  _totalSupply */\n      0x00\n        /* \"money.sol\":1348:1392  _totalSupply = safeAdd(_totalSupply, amount) */\n      swap1\n      dup2\n      sstore\n      sub(shl(0xa0, 0x01), 0x01)\n        /* \"money.sol\":1437:1461  _balances[playerAddress] */\n      dup4\n      and\n      dup2\n      mstore\n        /* \"money.sol\":1437:1446  _balances */\n      0x01\n        /* \"money.sol\":1437:1461  _balances[playerAddress] */\n      0x20\n      mstore\n      0x40\n      swap1\n      keccak256\n      sload\n        /* \"money.sol\":1429:1470  safeAdd(_balances[playerAddress], amount) */\n      tag_116\n      swap1\n        /* \"money.sol\":1463:1469  amount */\n      dup3\n        /* \"money.sol\":1429:1436  safeAdd */\n      tag_87\n        /* \"money.sol\":1429:1470  safeAdd(_balances[playerAddress], amount) */\n      jump\t// in\n    tag_116:\n      sub(shl(0xa0, 0x01), 0x01)\n        /* \"money.sol\":1402:1426  _balances[playerAddress] */\n      dup4\n      and\n      0x00\n      dup2\n      dup2\n      mstore\n        /* \"money.sol\":1402:1411  _balances */\n      0x01\n        /* \"money.sol\":1402:1426  _balances[playerAddress] */\n      0x20\n      mstore\n      0x40\n      swap1\n      dup2\n      swap1\n      keccak256\n        /* \"money.sol\":1402:1470  _balances[playerAddress] = safeAdd(_balances[playerAddress], amount) */\n      swap3\n      swap1\n      swap3\n      sstore\n        /* \"money.sol\":1485:1512  Mint(playerAddress, amount) */\n      swap1\n      mload\n      0x0f6798a560793a54c3bcfe86a93cde1e73087d944c0ea20544137d4121396885\n      swap1\n      tag_117\n      swap1\n        /* \"money.sol\":1505:1511  amount */\n      dup5\n        /* \"#utility.yul\":1533:1558   */\n      dup2\n      mstore\n        /* \"#utility.yul\":1521:1523   */\n      0x20\n        /* \"#utility.yul\":1506:1524   */\n      add\n      swap1\n        /* \"#utility.yul\":1387:1564   */\n      jump\n        /* \"money.sol\":1485:1512  Mint(playerAddress, amount) */\n    tag_117:\n      mload(0x40)\n      dup1\n      swap2\n      sub\n      swap1\n      log2\n      sub(shl(0xa0, 0x01), 0x01)\n        /* \"money.sol\":1527:1588  Transfer(address(0), playerAddress, _balances[playerAddress]) */\n      dup3\n      and\n        /* \"money.sol\":1544:1545  0 */\n      0x00\n        /* \"money.sol\":1563:1587  _balances[playerAddress] */\n      dup2\n      dup2\n      mstore\n        /* \"money.sol\":1563:1572  _balances */\n      0x01\n        /* \"money.sol\":1563:1587  _balances[playerAddress] */\n      0x20\n      swap1\n      dup2\n      mstore\n      0x40\n      dup1\n      dup4\n      keccak256\n      sload\n        /* \"money.sol\":1527:1588  Transfer(address(0), playerAddress, _balances[playerAddress]) */\n      swap1\n      mload\n        /* \"#utility.yul\":1533:1558   */\n      swap1\n      dup2\n      mstore\n        /* \"money.sol\":1527:1588  Transfer(address(0), playerAddress, _balances[playerAddress]) */\n      0xddf252ad1be2c89b69c2b068fc378daa952ba7f163c4a11628f55a4df523b3ef\n      swap2\n        /* \"#utility.yul\":1506:1524   */\n      add\n        /* \"money.sol\":1527:1588  Transfer(address(0), playerAddress, _balances[playerAddress]) */\n      mload(0x40)\n      dup1\n      swap2\n      sub\n      swap1\n      log3\n        /* \"money.sol\":1244:1595  function payoutBattlePurse(address playerAddress, uint256 amount) external onlyBattleContract {... */\n      pop\n      pop\n      jump\t// out\n        /* \"money.sol\":4644:4786  function safeMul(uint a, uint b) public returns (uint) {... */\n    tag_74:\n        /* \"money.sol\":4693:4697  uint */\n      0x00\n      dup1\n        /* \"money.sol\":4718:4723  a * b */\n      tag_120\n        /* \"money.sol\":4722:4723  b */\n      dup4\n        /* \"money.sol\":4718:4719  a */\n      dup6\n        /* \"money.sol\":4718:4723  a * b */\n      tag_121\n      jump\t// in\n    tag_120:\n        /* \"money.sol\":4709:4723  uint c = a * b */\n      swap1\n      pop\n        /* \"money.sol\":4740:4746  a == 0 */\n      dup4\n      iszero\n      dup1\n        /* \"money.sol\":4740:4760  a == 0 || c / a == b */\n      tag_122\n      jumpi\n      pop\n        /* \"money.sol\":4759:4760  b */\n      dup3\n        /* \"money.sol\":4750:4755  c / a */\n      tag_123\n        /* \"money.sol\":4754:4755  a */\n      dup6\n        /* \"money.sol\":4750:4751  c */\n      dup4\n        /* \"money.sol\":4750:4755  c / a */\n      tag_124\n      jump\t// in\n    tag_123:\n        /* \"money.sol\":4750:4760  c / a == b */\n      eq\n        /* \"money.sol\":4740:4760  a == 0 || c / a == b */\n    tag_122:\n        /* \"money.sol\":4733:4761  assert(a == 0 || c / a == b) */\n      tag_108\n      jumpi\n      tag_108\n      tag_95\n      jump\t// in\n        /* \"money.sol\":2381:2561  function setBattleContract(address contr, bool isActive) external onlyOwner... */\n    tag_79:\n        /* \"money.sol\":1927:1932  owner */\n      and(sub(shl(0xa0, 0x01), 0x01), sload(0x03))\n        /* \"money.sol\":1913:1923  msg.sender */\n      caller\n        /* \"money.sol\":1913:1932  msg.sender == owner */\n      eq\n        /* \"money.sol\":1906:1933  assert(msg.sender == owner) */\n      tag_129\n      jumpi\n      tag_129\n      tag_95\n      jump\t// in\n    tag_129:\n      sub(shl(0xa0, 0x01), 0x01)\n        /* \"money.sol\":2471:2494  isBattleContract[contr] */\n      dup3\n      and\n      0x00\n      dup2\n      dup2\n      mstore\n        /* \"money.sol\":2471:2487  isBattleContract */\n      0x04\n        /* \"money.sol\":2471:2494  isBattleContract[contr] */\n      0x20\n      swap1\n      dup2\n      mstore\n      0x40\n      swap2\n      dup3\n      swap1\n      keccak256\n        /* \"money.sol\":2471:2505  isBattleContract[contr] = isActive */\n      dup1\n      sload\n      not(0xff)\n      and\n      dup6\n      iszero\n      iszero\n      swap1\n      dup2\n      or\n      swap1\n      swap2\n      sstore\n        /* \"money.sol\":2520:2554  SetBattleContract(contr, isActive) */\n      dup3\n      mload\n        /* \"#utility.yul\":4129:4180   */\n      swap4\n      dup5\n      mstore\n        /* \"#utility.yul\":4196:4214   */\n      swap1\n      dup4\n      add\n        /* \"#utility.yul\":4189:4239   */\n      mstore\n        /* \"money.sol\":2520:2554  SetBattleContract(contr, isActive) */\n      0x01c144ac08fce1689d8f39e7c6b611ff5de0a11668f47d49788f2d8add83669a\n      swap2\n        /* \"#utility.yul\":4102:4120   */\n      add\n        /* \"money.sol\":2520:2554  SetBattleContract(contr, isActive) */\n      mload(0x40)\n      dup1\n      swap2\n      sub\n      swap1\n      log1\n        /* \"money.sol\":2381:2561  function setBattleContract(address contr, bool isActive) external onlyOwner... */\n      pop\n      pop\n      jump\t// out\n        /* \"money.sol\":5027:5161  function safeAdd(uint a, uint b) public returns (uint) {... */\n    tag_87:\n        /* \"money.sol\":5076:5080  uint */\n      0x00\n      dup1\n        /* \"money.sol\":5101:5106  a + b */\n      tag_135\n        /* \"money.sol\":5105:5106  b */\n      dup4\n        /* \"money.sol\":5101:5102  a */\n      dup6\n        /* \"money.sol\":5101:5106  a + b */\n      tag_136\n      jump\t// in\n    tag_135:\n        /* \"money.sol\":5092:5106  uint c = a + b */\n      swap1\n      pop\n        /* \"money.sol\":5126:5127  a */\n      dup4\n        /* \"money.sol\":5123:5124  c */\n      dup2\n        /* \"money.sol\":5123:5127  c>=a */\n      lt\n      iszero\n        /* \"money.sol\":5123:5135  c>=a && c>=b */\n      dup1\n      iszero\n      tag_122\n      jumpi\n      pop\n        /* \"money.sol\":5134:5135  b */\n      dup3\n        /* \"money.sol\":5131:5132  c */\n      dup2\n        /* \"money.sol\":5131:5135  c>=b */\n      lt\n      iszero\n        /* \"money.sol\":5116:5136  assert(c>=a && c>=b) */\n      tag_108\n      jumpi\n      tag_108\n      tag_95\n      jump\t// in\n        /* \"money.sol\":3952:4292  function _approve(address owner, address spender, uint256 amount) internal {... */\n    tag_91:\n      sub(shl(0xa0, 0x01), 0x01)\n        /* \"money.sol\":4045:4064  owner != address(0) */\n      dup4\n      and\n        /* \"money.sol\":4037:4105  require(owner != address(0), \"ERC20: approve from the zero address\") */\n      tag_141\n      jumpi\n      mload(0x40)\n      shl(0xe5, 0x461bcd)\n      dup2\n      mstore\n        /* \"#utility.yul\":4582:4584   */\n      0x20\n        /* \"money.sol\":4037:4105  require(owner != address(0), \"ERC20: approve from the zero address\") */\n      0x04\n      dup3\n      add\n        /* \"#utility.yul\":4564:4585   */\n      mstore\n        /* \"#utility.yul\":4621:4623   */\n      0x24\n        /* \"#utility.yul\":4601:4619   */\n      dup1\n      dup3\n      add\n        /* \"#utility.yul\":4594:4624   */\n      mstore\n        /* \"#utility.yul\":4660:4694   */\n      0x45524332303a20617070726f76652066726f6d20746865207a65726f20616464\n        /* \"#utility.yul\":4640:4658   */\n      0x44\n      dup3\n      add\n        /* \"#utility.yul\":4633:4695   */\n      mstore\n      shl(0xe0, 0x72657373)\n        /* \"#utility.yul\":4711:4729   */\n      0x64\n      dup3\n      add\n        /* \"#utility.yul\":4704:4738   */\n      mstore\n        /* \"#utility.yul\":4755:4774   */\n      0x84\n      add\n        /* \"money.sol\":4037:4105  require(owner != address(0), \"ERC20: approve from the zero address\") */\n    tag_142:\n      mload(0x40)\n      dup1\n      swap2\n      sub\n      swap1\n      revert\n    tag_141:\n      sub(shl(0xa0, 0x01), 0x01)\n        /* \"money.sol\":4123:4144  spender != address(0) */\n      dup3\n      and\n        /* \"money.sol\":4115:4183  require(spender != address(0), \"ERC20: approve to the zero address\") */\n      tag_144\n      jumpi\n      mload(0x40)\n      shl(0xe5, 0x461bcd)\n      dup2\n      mstore\n        /* \"#utility.yul\":4987:4989   */\n      0x20\n        /* \"money.sol\":4115:4183  require(spender != address(0), \"ERC20: approve to the zero address\") */\n      0x04\n      dup3\n      add\n        /* \"#utility.yul\":4969:4990   */\n      mstore\n        /* \"#utility.yul\":5026:5028   */\n      0x22\n        /* \"#utility.yul\":5006:5024   */\n      0x24\n      dup3\n      add\n        /* \"#utility.yul\":4999:5029   */\n      mstore\n        /* \"#utility.yul\":5065:5099   */\n      0x45524332303a20617070726f766520746f20746865207a65726f206164647265\n        /* \"#utility.yul\":5045:5063   */\n      0x44\n      dup3\n      add\n        /* \"#utility.yul\":5038:5100   */\n      mstore\n      shl(0xf0, 0x7373)\n        /* \"#utility.yul\":5116:5134   */\n      0x64\n      dup3\n      add\n        /* \"#utility.yul\":5109:5141   */\n      mstore\n        /* \"#utility.yul\":5158:5177   */\n      0x84\n      add\n        /* \"money.sol\":4115:4183  require(spender != address(0), \"ERC20: approve to the zero address\") */\n      tag_142\n        /* \"#utility.yul\":4785:5183   */\n      jump\n        /* \"money.sol\":4115:4183  require(spender != address(0), \"ERC20: approve to the zero address\") */\n    tag_144:\n      sub(shl(0xa0, 0x01), 0x01)\n        /* \"money.sol\":4202:4220  _allowances[owner] */\n      dup4\n      dup2\n      and\n      0x00\n      dup2\n      dup2\n      mstore\n        /* \"money.sol\":4202:4213  _allowances */\n      0x02\n        /* \"money.sol\":4202:4220  _allowances[owner] */\n      0x20\n      swap1\n      dup2\n      mstore\n      0x40\n      dup1\n      dup4\n      keccak256\n        /* \"money.sol\":4202:4229  _allowances[owner][spender] */\n      swap5\n      dup8\n      and\n      dup1\n      dup5\n      mstore\n      swap5\n      dup3\n      mstore\n      swap2\n      dup3\n      swap1\n      keccak256\n        /* \"money.sol\":4202:4238  _allowances[owner][spender] = amount */\n      dup6\n      swap1\n      sstore\n        /* \"money.sol\":4253:4285  Approval(owner, spender, amount) */\n      swap1\n      mload\n        /* \"#utility.yul\":1533:1558   */\n      dup5\n      dup2\n      mstore\n        /* \"money.sol\":4253:4285  Approval(owner, spender, amount) */\n      0x8c5be1e5ebec7d5bd14f71427d1e84f3dd0314c0f7b2291e5b200ac8c7c3b925\n      swap2\n        /* \"#utility.yul\":1506:1524   */\n      add\n        /* \"money.sol\":4253:4285  Approval(owner, spender, amount) */\n    tag_147:\n      mload(0x40)\n      dup1\n      swap2\n      sub\n      swap1\n      log3\n        /* \"money.sol\":3952:4292  function _approve(address owner, address spender, uint256 amount) internal {... */\n      pop\n      pop\n      pop\n      jump\t// out\n        /* \"money.sol\":3559:3942  function _transfer(address sender, address recipient, uint256 amount) internal {... */\n    tag_100:\n      sub(shl(0xa0, 0x01), 0x01)\n        /* \"money.sol\":3656:3676  sender != address(0) */\n      dup4\n      and\n        /* \"money.sol\":3648:3718  require(sender != address(0), \"ERC20: transfer from the zero address\") */\n      tag_149\n      jumpi\n      mload(0x40)\n      shl(0xe5, 0x461bcd)\n      dup2\n      mstore\n        /* \"#utility.yul\":5390:5392   */\n      0x20\n        /* \"money.sol\":3648:3718  require(sender != address(0), \"ERC20: transfer from the zero address\") */\n      0x04\n      dup3\n      add\n        /* \"#utility.yul\":5372:5393   */\n      mstore\n        /* \"#utility.yul\":5429:5431   */\n      0x25\n        /* \"#utility.yul\":5409:5427   */\n      0x24\n      dup3\n      add\n        /* \"#utility.yul\":5402:5432   */\n      mstore\n        /* \"#utility.yul\":5468:5502   */\n      0x45524332303a207472616e736665722066726f6d20746865207a65726f206164\n        /* \"#utility.yul\":5448:5466   */\n      0x44\n      dup3\n      add\n        /* \"#utility.yul\":5441:5503   */\n      mstore\n      shl(0xd8, 0x6472657373)\n        /* \"#utility.yul\":5519:5537   */\n      0x64\n      dup3\n      add\n        /* \"#utility.yul\":5512:5547   */\n      mstore\n        /* \"#utility.yul\":5564:5583   */\n      0x84\n      add\n        /* \"money.sol\":3648:3718  require(sender != address(0), \"ERC20: transfer from the zero address\") */\n      tag_142\n        /* \"#utility.yul\":5188:5589   */\n      jump\n        /* \"money.sol\":3648:3718  require(sender != address(0), \"ERC20: transfer from the zero address\") */\n    tag_149:\n      sub(shl(0xa0, 0x01), 0x01)\n        /* \"money.sol\":3736:3759  recipient != address(0) */\n      dup3\n      and\n        /* \"money.sol\":3728:3799  require(recipient != address(0), \"ERC20: transfer to the zero address\") */\n      tag_152\n      jumpi\n      mload(0x40)\n      shl(0xe5, 0x461bcd)\n      dup2\n      mstore\n        /* \"#utility.yul\":5796:5798   */\n      0x20\n        /* \"money.sol\":3728:3799  require(recipient != address(0), \"ERC20: transfer to the zero address\") */\n      0x04\n      dup3\n      add\n        /* \"#utility.yul\":5778:5799   */\n      mstore\n        /* \"#utility.yul\":5835:5837   */\n      0x23\n        /* \"#utility.yul\":5815:5833   */\n      0x24\n      dup3\n      add\n        /* \"#utility.yul\":5808:5838   */\n      mstore\n        /* \"#utility.yul\":5874:5908   */\n      0x45524332303a207472616e7366657220746f20746865207a65726f2061646472\n        /* \"#utility.yul\":5854:5872   */\n      0x44\n      dup3\n      add\n        /* \"#utility.yul\":5847:5909   */\n      mstore\n      shl(0xe8, 0x657373)\n        /* \"#utility.yul\":5925:5943   */\n      0x64\n      dup3\n      add\n        /* \"#utility.yul\":5918:5951   */\n      mstore\n        /* \"#utility.yul\":5968:5987   */\n      0x84\n      add\n        /* \"money.sol\":3728:3799  require(recipient != address(0), \"ERC20: transfer to the zero address\") */\n      tag_142\n        /* \"#utility.yul\":5594:5993   */\n      jump\n        /* \"money.sol\":3728:3799  require(recipient != address(0), \"ERC20: transfer to the zero address\") */\n    tag_152:\n      sub(shl(0xa0, 0x01), 0x01)\n        /* \"money.sol\":3818:3835  _balances[sender] */\n      dup4\n      and\n      0x00\n      swap1\n      dup2\n      mstore\n        /* \"money.sol\":3818:3827  _balances */\n      0x01\n        /* \"money.sol\":3818:3835  _balances[sender] */\n      0x20\n      mstore\n      0x40\n      dup2\n      keccak256\n        /* \"money.sol\":3818:3845  _balances[sender] -= amount */\n      dup1\n      sload\n        /* \"money.sol\":3839:3845  amount */\n      dup4\n      swap3\n        /* \"money.sol\":3818:3835  _balances[sender] */\n      swap1\n        /* \"money.sol\":3818:3845  _balances[sender] -= amount */\n      tag_155\n      swap1\n        /* \"money.sol\":3839:3845  amount */\n      dup5\n      swap1\n        /* \"money.sol\":3818:3845  _balances[sender] -= amount */\n      tag_103\n      jump\t// in\n    tag_155:\n      swap1\n      swap2\n      sstore\n      pop\n      pop\n      sub(shl(0xa0, 0x01), 0x01)\n        /* \"money.sol\":3855:3875  _balances[recipient] */\n      dup3\n      and\n      0x00\n      swap1\n      dup2\n      mstore\n        /* \"money.sol\":3855:3864  _balances */\n      0x01\n        /* \"money.sol\":3855:3875  _balances[recipient] */\n      0x20\n      mstore\n      0x40\n      dup2\n      keccak256\n        /* \"money.sol\":3855:3885  _balances[recipient] += amount */\n      dup1\n      sload\n        /* \"money.sol\":3879:3885  amount */\n      dup4\n      swap3\n        /* \"money.sol\":3855:3875  _balances[recipient] */\n      swap1\n        /* \"money.sol\":3855:3885  _balances[recipient] += amount */\n      tag_156\n      swap1\n        /* \"money.sol\":3879:3885  amount */\n      dup5\n      swap1\n        /* \"money.sol\":3855:3885  _balances[recipient] += amount */\n      tag_136\n      jump\t// in\n    tag_156:\n      swap3\n      pop\n      pop\n      dup2\n      swap1\n      sstore\n      pop\n        /* \"money.sol\":3917:3926  recipient */\n      dup2\n      sub(shl(0xa0, 0x01), 0x01)\n        /* \"money.sol\":3900:3935  Transfer(sender, recipient, amount) */\n      and\n        /* \"money.sol\":3909:3915  sender */\n      dup4\n      sub(shl(0xa0, 0x01), 0x01)\n        /* \"money.sol\":3900:3935  Transfer(sender, recipient, amount) */\n      and\n      0xddf252ad1be2c89b69c2b068fc378daa952ba7f163c4a11628f55a4df523b3ef\n        /* \"money.sol\":3928:3934  amount */\n      dup4\n        /* \"money.sol\":3900:3935  Transfer(sender, recipient, amount) */\n      mload(0x40)\n      tag_147\n      swap2\n        /* \"#utility.yul\":1533:1558   */\n      dup2\n      mstore\n        /* \"#utility.yul\":1521:1523   */\n      0x20\n        /* \"#utility.yul\":1506:1524   */\n      add\n      swap1\n        /* \"#utility.yul\":1387:1564   */\n      jump\n        /* \"#utility.yul\":14:562   */\n    tag_25:\n        /* \"#utility.yul\":126:130   */\n      0x00\n        /* \"#utility.yul\":155:157   */\n      0x20\n        /* \"#utility.yul\":184:186   */\n      dup1\n        /* \"#utility.yul\":173:182   */\n      dup4\n        /* \"#utility.yul\":166:187   */\n      mstore\n        /* \"#utility.yul\":216:222   */\n      dup4\n        /* \"#utility.yul\":210:223   */\n      mload\n        /* \"#utility.yul\":259:265   */\n      dup1\n        /* \"#utility.yul\":254:256   */\n      dup3\n        /* \"#utility.yul\":243:252   */\n      dup6\n        /* \"#utility.yul\":239:257   */\n      add\n        /* \"#utility.yul\":232:266   */\n      mstore\n        /* \"#utility.yul\":284:285   */\n      0x00\n        /* \"#utility.yul\":294:434   */\n    tag_162:\n        /* \"#utility.yul\":308:314   */\n      dup2\n        /* \"#utility.yul\":305:306   */\n      dup2\n        /* \"#utility.yul\":302:315   */\n      lt\n        /* \"#utility.yul\":294:434   */\n      iszero\n      tag_164\n      jumpi\n        /* \"#utility.yul\":403:417   */\n      dup6\n      dup2\n      add\n        /* \"#utility.yul\":399:422   */\n      dup4\n      add\n        /* \"#utility.yul\":393:423   */\n      mload\n        /* \"#utility.yul\":369:386   */\n      dup6\n      dup3\n      add\n        /* \"#utility.yul\":388:390   */\n      0x40\n        /* \"#utility.yul\":365:391   */\n      add\n        /* \"#utility.yul\":358:424   */\n      mstore\n        /* \"#utility.yul\":323:333   */\n      dup3\n      add\n        /* \"#utility.yul\":294:434   */\n      jump(tag_162)\n    tag_164:\n        /* \"#utility.yul\":298:301   */\n      pop\n        /* \"#utility.yul\":483:484   */\n      0x00\n        /* \"#utility.yul\":478:480   */\n      0x40\n        /* \"#utility.yul\":469:475   */\n      dup3\n        /* \"#utility.yul\":458:467   */\n      dup7\n        /* \"#utility.yul\":454:476   */\n      add\n        /* \"#utility.yul\":450:481   */\n      add\n        /* \"#utility.yul\":443:485   */\n      mstore\n        /* \"#utility.yul\":553:555   */\n      0x40\n        /* \"#utility.yul\":546:548   */\n      0x1f\n        /* \"#utility.yul\":542:549   */\n      not\n        /* \"#utility.yul\":537:539   */\n      0x1f\n        /* \"#utility.yul\":529:535   */\n      dup4\n        /* \"#utility.yul\":525:540   */\n      add\n        /* \"#utility.yul\":521:550   */\n      and\n        /* \"#utility.yul\":510:519   */\n      dup6\n        /* \"#utility.yul\":506:551   */\n      add\n        /* \"#utility.yul\":502:556   */\n      add\n        /* \"#utility.yul\":494:556   */\n      swap3\n      pop\n      pop\n      pop\n        /* \"#utility.yul\":14:562   */\n      swap3\n      swap2\n      pop\n      pop\n      jump\t// out\n        /* \"#utility.yul\":567:740   */\n    tag_158:\n        /* \"#utility.yul\":635:655   */\n      dup1\n      calldataload\n      sub(shl(0xa0, 0x01), 0x01)\n        /* \"#utility.yul\":684:715   */\n      dup2\n      and\n        /* \"#utility.yul\":674:716   */\n      dup2\n      eq\n        /* \"#utility.yul\":664:734   */\n      tag_166\n      jumpi\n        /* \"#utility.yul\":730:731   */\n      0x00\n        /* \"#utility.yul\":727:728   */\n      dup1\n        /* \"#utility.yul\":720:732   */\n      revert\n        /* \"#utility.yul\":664:734   */\n    tag_166:\n        /* \"#utility.yul\":567:740   */\n      swap2\n      swap1\n      pop\n      jump\t// out\n        /* \"#utility.yul\":745:999   */\n    tag_28:\n        /* \"#utility.yul\":813:819   */\n      0x00\n        /* \"#utility.yul\":821:827   */\n      dup1\n        /* \"#utility.yul\":874:876   */\n      0x40\n        /* \"#utility.yul\":862:871   */\n      dup4\n        /* \"#utility.yul\":853:860   */\n      dup6\n        /* \"#utility.yul\":849:872   */\n      sub\n        /* \"#utility.yul\":845:877   */\n      slt\n        /* \"#utility.yul\":842:894   */\n      iszero\n      tag_168\n      jumpi\n        /* \"#utility.yul\":890:891   */\n      0x00\n        /* \"#utility.yul\":887:888   */\n      dup1\n        /* \"#utility.yul\":880:892   */\n      revert\n        /* \"#utility.yul\":842:894   */\n    tag_168:\n        /* \"#utility.yul\":913:942   */\n      tag_169\n        /* \"#utility.yul\":932:941   */\n      dup4\n        /* \"#utility.yul\":913:942   */\n      tag_158\n      jump\t// in\n    tag_169:\n        /* \"#utility.yul\":903:942   */\n      swap5\n        /* \"#utility.yul\":989:991   */\n      0x20\n        /* \"#utility.yul\":974:992   */\n      swap4\n      swap1\n      swap4\n      add\n        /* \"#utility.yul\":961:993   */\n      calldataload\n      swap4\n      pop\n      pop\n      pop\n        /* \"#utility.yul\":745:999   */\n      jump\t// out\n        /* \"#utility.yul\":1196:1382   */\n    tag_34:\n        /* \"#utility.yul\":1255:1261   */\n      0x00\n        /* \"#utility.yul\":1308:1310   */\n      0x20\n        /* \"#utility.yul\":1296:1305   */\n      dup3\n        /* \"#utility.yul\":1287:1294   */\n      dup5\n        /* \"#utility.yul\":1283:1306   */\n      sub\n        /* \"#utility.yul\":1279:1311   */\n      slt\n        /* \"#utility.yul\":1276:1328   */\n      iszero\n      tag_172\n      jumpi\n        /* \"#utility.yul\":1324:1325   */\n      0x00\n        /* \"#utility.yul\":1321:1322   */\n      dup1\n        /* \"#utility.yul\":1314:1326   */\n      revert\n        /* \"#utility.yul\":1276:1328   */\n    tag_172:\n        /* \"#utility.yul\":1347:1376   */\n      tag_108\n        /* \"#utility.yul\":1366:1375   */\n      dup3\n        /* \"#utility.yul\":1347:1376   */\n      tag_158\n      jump\t// in\n        /* \"#utility.yul\":1569:1897   */\n    tag_42:\n        /* \"#utility.yul\":1646:1652   */\n      0x00\n        /* \"#utility.yul\":1654:1660   */\n      dup1\n        /* \"#utility.yul\":1662:1668   */\n      0x00\n        /* \"#utility.yul\":1715:1717   */\n      0x60\n        /* \"#utility.yul\":1703:1712   */\n      dup5\n        /* \"#utility.yul\":1694:1701   */\n      dup7\n        /* \"#utility.yul\":1690:1713   */\n      sub\n        /* \"#utility.yul\":1686:1718   */\n      slt\n        /* \"#utility.yul\":1683:1735   */\n      iszero\n      tag_176\n      jumpi\n        /* \"#utility.yul\":1731:1732   */\n      0x00\n        /* \"#utility.yul\":1728:1729   */\n      dup1\n        /* \"#utility.yul\":1721:1733   */\n      revert\n        /* \"#utility.yul\":1683:1735   */\n    tag_176:\n        /* \"#utility.yul\":1754:1783   */\n      tag_177\n        /* \"#utility.yul\":1773:1782   */\n      dup5\n        /* \"#utility.yul\":1754:1783   */\n      tag_158\n      jump\t// in\n    tag_177:\n        /* \"#utility.yul\":1744:1783   */\n      swap3\n      pop\n        /* \"#utility.yul\":1802:1840   */\n      tag_178\n        /* \"#utility.yul\":1836:1838   */\n      0x20\n        /* \"#utility.yul\":1825:1834   */\n      dup6\n        /* \"#utility.yul\":1821:1839   */\n      add\n        /* \"#utility.yul\":1802:1840   */\n      tag_158\n      jump\t// in\n    tag_178:\n        /* \"#utility.yul\":1792:1840   */\n      swap2\n      pop\n        /* \"#utility.yul\":1887:1889   */\n      0x40\n        /* \"#utility.yul\":1876:1885   */\n      dup5\n        /* \"#utility.yul\":1872:1890   */\n      add\n        /* \"#utility.yul\":1859:1891   */\n      calldataload\n        /* \"#utility.yul\":1849:1891   */\n      swap1\n      pop\n        /* \"#utility.yul\":1569:1897   */\n      swap3\n      pop\n      swap3\n      pop\n      swap3\n      jump\t// out\n        /* \"#utility.yul\":2299:2547   */\n    tag_62:\n        /* \"#utility.yul\":2367:2373   */\n      0x00\n        /* \"#utility.yul\":2375:2381   */\n      dup1\n        /* \"#utility.yul\":2428:2430   */\n      0x40\n        /* \"#utility.yul\":2416:2425   */\n      dup4\n        /* \"#utility.yul\":2407:2414   */\n      dup6\n        /* \"#utility.yul\":2403:2426   */\n      sub\n        /* \"#utility.yul\":2399:2431   */\n      slt\n        /* \"#utility.yul\":2396:2448   */\n      iszero\n      tag_182\n      jumpi\n        /* \"#utility.yul\":2444:2445   */\n      0x00\n        /* \"#utility.yul\":2441:2442   */\n      dup1\n        /* \"#utility.yul\":2434:2446   */\n      revert\n        /* \"#utility.yul\":2396:2448   */\n    tag_182:\n      pop\n      pop\n        /* \"#utility.yul\":2467:2490   */\n      dup1\n      calldataload\n      swap3\n        /* \"#utility.yul\":2537:2539   */\n      0x20\n        /* \"#utility.yul\":2522:2540   */\n      swap1\n      swap2\n      add\n        /* \"#utility.yul\":2509:2541   */\n      calldataload\n      swap2\n      pop\n        /* \"#utility.yul\":2299:2547   */\n      jump\t// out\n        /* \"#utility.yul\":2552:2899   */\n    tag_78:\n        /* \"#utility.yul\":2617:2623   */\n      0x00\n        /* \"#utility.yul\":2625:2631   */\n      dup1\n        /* \"#utility.yul\":2678:2680   */\n      0x40\n        /* \"#utility.yul\":2666:2675   */\n      dup4\n        /* \"#utility.yul\":2657:2664   */\n      dup6\n        /* \"#utility.yul\":2653:2676   */\n      sub\n        /* \"#utility.yul\":2649:2681   */\n      slt\n        /* \"#utility.yul\":2646:2698   */\n      iszero\n      tag_184\n      jumpi\n        /* \"#utility.yul\":2694:2695   */\n      0x00\n        /* \"#utility.yul\":2691:2692   */\n      dup1\n        /* \"#utility.yul\":2684:2696   */\n      revert\n        /* \"#utility.yul\":2646:2698   */\n    tag_184:\n        /* \"#utility.yul\":2717:2746   */\n      tag_185\n        /* \"#utility.yul\":2736:2745   */\n      dup4\n        /* \"#utility.yul\":2717:2746   */\n      tag_158\n      jump\t// in\n    tag_185:\n        /* \"#utility.yul\":2707:2746   */\n      swap2\n      pop\n        /* \"#utility.yul\":2796:2798   */\n      0x20\n        /* \"#utility.yul\":2785:2794   */\n      dup4\n        /* \"#utility.yul\":2781:2799   */\n      add\n        /* \"#utility.yul\":2768:2800   */\n      calldataload\n        /* \"#utility.yul\":2843:2848   */\n      dup1\n        /* \"#utility.yul\":2836:2849   */\n      iszero\n        /* \"#utility.yul\":2829:2850   */\n      iszero\n        /* \"#utility.yul\":2822:2827   */\n      dup2\n        /* \"#utility.yul\":2819:2851   */\n      eq\n        /* \"#utility.yul\":2809:2869   */\n      tag_186\n      jumpi\n        /* \"#utility.yul\":2865:2866   */\n      0x00\n        /* \"#utility.yul\":2862:2863   */\n      dup1\n        /* \"#utility.yul\":2855:2867   */\n      revert\n        /* \"#utility.yul\":2809:2869   */\n    tag_186:\n        /* \"#utility.yul\":2888:2893   */\n      dup1\n        /* \"#utility.yul\":2878:2893   */\n      swap2\n      pop\n      pop\n        /* \"#utility.yul\":2552:2899   */\n      swap3\n      pop\n      swap3\n      swap1\n      pop\n      jump\t// out\n        /* \"#utility.yul\":2904:3164   */\n    tag_82:\n        /* \"#utility.yul\":2972:2978   */\n      0x00\n        /* \"#utility.yul\":2980:2986   */\n      dup1\n        /* \"#utility.yul\":3033:3035   */\n      0x40\n        /* \"#utility.yul\":3021:3030   */\n      dup4\n        /* \"#utility.yul\":3012:3019   */\n      dup6\n        /* \"#utility.yul\":3008:3031   */\n      sub\n        /* \"#utility.yul\":3004:3036   */\n      slt\n        /* \"#utility.yul\":3001:3053   */\n      iszero\n      tag_188\n      jumpi\n        /* \"#utility.yul\":3049:3050   */\n      0x00\n        /* \"#utility.yul\":3046:3047   */\n      dup1\n        /* \"#utility.yul\":3039:3051   */\n      revert\n        /* \"#utility.yul\":3001:3053   */\n    tag_188:\n        /* \"#utility.yul\":3072:3101   */\n      tag_189\n        /* \"#utility.yul\":3091:3100   */\n      dup4\n        /* \"#utility.yul\":3072:3101   */\n      tag_158\n      jump\t// in\n    tag_189:\n        /* \"#utility.yul\":3062:3101   */\n      swap2\n      pop\n        /* \"#utility.yul\":3120:3158   */\n      tag_190\n        /* \"#utility.yul\":3154:3156   */\n      0x20\n        /* \"#utility.yul\":3143:3152   */\n      dup5\n        /* \"#utility.yul\":3139:3157   */\n      add\n        /* \"#utility.yul\":3120:3158   */\n      tag_158\n      jump\t// in\n    tag_190:\n        /* \"#utility.yul\":3110:3158   */\n      swap1\n      pop\n        /* \"#utility.yul\":2904:3164   */\n      swap3\n      pop\n      swap3\n      swap1\n      pop\n      jump\t// out\n        /* \"#utility.yul\":3169:3296   */\n    tag_95:\n        /* \"#utility.yul\":3230:3240   */\n      0x4e487b71\n        /* \"#utility.yul\":3225:3228   */\n      0xe0\n        /* \"#utility.yul\":3221:3241   */\n      shl\n        /* \"#utility.yul\":3218:3219   */\n      0x00\n        /* \"#utility.yul\":3211:3242   */\n      mstore\n        /* \"#utility.yul\":3261:3265   */\n      0x01\n        /* \"#utility.yul\":3258:3259   */\n      0x04\n        /* \"#utility.yul\":3251:3266   */\n      mstore\n        /* \"#utility.yul\":3285:3289   */\n      0x24\n        /* \"#utility.yul\":3282:3283   */\n      0x00\n        /* \"#utility.yul\":3275:3290   */\n      revert\n        /* \"#utility.yul\":3301:3428   */\n    tag_159:\n        /* \"#utility.yul\":3362:3372   */\n      0x4e487b71\n        /* \"#utility.yul\":3357:3360   */\n      0xe0\n        /* \"#utility.yul\":3353:3373   */\n      shl\n        /* \"#utility.yul\":3350:3351   */\n      0x00\n        /* \"#utility.yul\":3343:3374   */\n      mstore\n        /* \"#utility.yul\":3393:3397   */\n      0x11\n        /* \"#utility.yul\":3390:3391   */\n      0x04\n        /* \"#utility.yul\":3383:3398   */\n      mstore\n        /* \"#utility.yul\":3417:3421   */\n      0x24\n        /* \"#utility.yul\":3414:3415   */\n      0x00\n        /* \"#utility.yul\":3407:3422   */\n      revert\n        /* \"#utility.yul\":3433:3561   */\n    tag_103:\n        /* \"#utility.yul\":3500:3509   */\n      dup2\n      dup2\n      sub\n        /* \"#utility.yul\":3521:3532   */\n      dup2\n      dup2\n      gt\n        /* \"#utility.yul\":3518:3555   */\n      iszero\n      tag_89\n      jumpi\n        /* \"#utility.yul\":3535:3553   */\n      tag_89\n      tag_159\n      jump\t// in\n        /* \"#utility.yul\":3566:3734   */\n    tag_121:\n        /* \"#utility.yul\":3639:3648   */\n      dup1\n      dup3\n      mul\n        /* \"#utility.yul\":3670:3679   */\n      dup2\n      iszero\n        /* \"#utility.yul\":3687:3702   */\n      dup3\n      dup3\n      div\n        /* \"#utility.yul\":3681:3703   */\n      dup5\n      eq\n        /* \"#utility.yul\":3667:3704   */\n      or\n        /* \"#utility.yul\":3657:3728   */\n      tag_89\n      jumpi\n        /* \"#utility.yul\":3708:3726   */\n      tag_89\n      tag_159\n      jump\t// in\n        /* \"#utility.yul\":3739:3956   */\n    tag_124:\n        /* \"#utility.yul\":3779:3780   */\n      0x00\n        /* \"#utility.yul\":3805:3806   */\n      dup3\n        /* \"#utility.yul\":3795:3927   */\n      tag_200\n      jumpi\n        /* \"#utility.yul\":3849:3859   */\n      0x4e487b71\n        /* \"#utility.yul\":3844:3847   */\n      0xe0\n        /* \"#utility.yul\":3840:3860   */\n      shl\n        /* \"#utility.yul\":3837:3838   */\n      0x00\n        /* \"#utility.yul\":3830:3861   */\n      mstore\n        /* \"#utility.yul\":3884:3888   */\n      0x12\n        /* \"#utility.yul\":3881:3882   */\n      0x04\n        /* \"#utility.yul\":3874:3889   */\n      mstore\n        /* \"#utility.yul\":3912:3916   */\n      0x24\n        /* \"#utility.yul\":3909:3910   */\n      0x00\n        /* \"#utility.yul\":3902:3917   */\n      revert\n        /* \"#utility.yul\":3795:3927   */\n    tag_200:\n      pop\n        /* \"#utility.yul\":3941:3950   */\n      div\n      swap1\n        /* \"#utility.yul\":3739:3956   */\n      jump\t// out\n        /* \"#utility.yul\":4250:4375   */\n    tag_136:\n        /* \"#utility.yul\":4315:4324   */\n      dup1\n      dup3\n      add\n        /* \"#utility.yul\":4336:4346   */\n      dup1\n      dup3\n      gt\n        /* \"#utility.yul\":4333:4369   */\n      iszero\n      tag_89\n      jumpi\n        /* \"#utility.yul\":4349:4367   */\n      tag_89\n      tag_159\n      jump\t// in\n\n    auxdata: 0xa26469706673582212200008dc95e0b069835f0c3281719053a975a77140320478a1b6af8e92c863c04f64736f6c63430008130033\n}\n",
				"bytecode": {
					"linkReferences": {},
					"object": "608060405234801561001057600080fd5b5060008055600380546001600160a01b03191633179055610a8d806100366000396000f3fe608060405234801561001057600080fd5b50600436106101005760003560e01c806395d89b4111610097578063d05c78da11610066578063d05c78da14610270578063d5a93d6814610283578063dd62ed3e14610296578063e6cb9013146102cf57600080fd5b806395d89b4114610214578063a293d1e814610237578063a9059cbb1461024a578063b78636a11461025d57600080fd5b806323b872dd116100d357806323b872dd14610193578063313ce567146101a657806370a08231146101c05780638da5cb5b146101e957600080fd5b806306fdde0314610105578063095ea7b31461014957806313af40351461016c57806318160ddd14610181575b600080fd5b6101336040518060400160405280600f81526020016e4669676874636c7562204d6f6e657960881b81525081565b6040516101409190610850565b60405180910390f35b61015c6101573660046108ba565b6102e2565b6040519015158152602001610140565b61017f61017a3660046108e4565b6102f9565b005b6000545b604051908152602001610140565b61015c6101a13660046108ff565b61036f565b6101ae601281565b60405160ff9091168152602001610140565b6101856101ce3660046108e4565b6001600160a01b031660009081526001602052604090205490565b6003546101fc906001600160a01b031681565b6040516001600160a01b039091168152602001610140565b6101336040518060400160405280600481526020016346554b4360e01b81525081565b61018561024536600461093b565b6103c1565b61015c6102583660046108ba565b6103e4565b61017f61026b3660046108ba565b6103f1565b61018561027e36600461093b565b6104e8565b61017f61029136600461095d565b610518565b6101856102a4366004610999565b6001600160a01b03918216600090815260026020908152604080832093909416825291909152205490565b6101856102dd36600461093b565b610595565b60006102ef3384846105bf565b5060015b92915050565b6003546001600160a01b03163314610313576103136109cc565b6003546040516001600160a01b038084169216907fcbf985117192c8f614a58aaf97226bb80a754772f5f6edf06f87c675f2e6c66390600090a3600380546001600160a01b0319166001600160a01b0392909216919091179055565b600061037c8484846106e9565b6001600160a01b0384166000908152600260209081526040808320338085529252909120546103b79186916103b29086906109f8565b6105bf565b5060019392505050565b6000828211156103d3576103d36109cc565b6103dd82846109f8565b9392505050565b60006102ef3384846106e9565b3360009081526004602052604090205460ff16610410576104106109cc565b61041c60005482610595565b60009081556001600160a01b0383168152600160205260409020546104419082610595565b6001600160a01b038316600081815260016020526040908190209290925590517f0f6798a560793a54c3bcfe86a93cde1e73087d944c0ea20544137d4121396885906104909084815260200190565b60405180910390a26001600160a01b03821660008181526001602090815260408083205490519081527fddf252ad1be2c89b69c2b068fc378daa952ba7f163c4a11628f55a4df523b3ef910160405180910390a35050565b6000806104f58385610a0b565b905083158061050c57508261050a8583610a22565b145b6103dd576103dd6109cc565b6003546001600160a01b03163314610532576105326109cc565b6001600160a01b038216600081815260046020908152604091829020805460ff19168515159081179091558251938452908301527f01c144ac08fce1689d8f39e7c6b611ff5de0a11668f47d49788f2d8add83669a910160405180910390a15050565b6000806105a28385610a44565b905083811015801561050c5750828110156103dd576103dd6109cc565b6001600160a01b0383166106265760405162461bcd60e51b8152602060048201526024808201527f45524332303a20617070726f76652066726f6d20746865207a65726f206164646044820152637265737360e01b60648201526084015b60405180910390fd5b6001600160a01b0382166106875760405162461bcd60e51b815260206004820152602260248201527f45524332303a20617070726f766520746f20746865207a65726f206164647265604482015261737360f01b606482015260840161061d565b6001600160a01b0383811660008181526002602090815260408083209487168084529482529182902085905590518481527f8c5be1e5ebec7d5bd14f71427d1e84f3dd0314c0f7b2291e5b200ac8c7c3b92591015b60405180910390a3505050565b6001600160a01b03831661074d5760405162461bcd60e51b815260206004820152602560248201527f45524332303a207472616e736665722066726f6d20746865207a65726f206164604482015264647265737360d81b606482015260840161061d565b6001600160a01b0382166107af5760405162461bcd60e51b815260206004820152602360248201527f45524332303a207472616e7366657220746f20746865207a65726f206164647260448201526265737360e81b606482015260840161061d565b6001600160a01b038316600090815260016020526040812080548392906107d79084906109f8565b90915550506001600160a01b03821660009081526001602052604081208054839290610804908490610a44565b92505081905550816001600160a01b0316836001600160a01b03167fddf252ad1be2c89b69c2b068fc378daa952ba7f163c4a11628f55a4df523b3ef836040516106dc91815260200190565b600060208083528351808285015260005b8181101561087d57858101830151858201604001528201610861565b506000604082860101526040601f19601f8301168501019250505092915050565b80356001600160a01b03811681146108b557600080fd5b919050565b600080604083850312156108cd57600080fd5b6108d68361089e565b946020939093013593505050565b6000602082840312156108f657600080fd5b6103dd8261089e565b60008060006060848603121561091457600080fd5b61091d8461089e565b925061092b6020850161089e565b9150604084013590509250925092565b6000806040838503121561094e57600080fd5b50508035926020909101359150565b6000806040838503121561097057600080fd5b6109798361089e565b91506020830135801515811461098e57600080fd5b809150509250929050565b600080604083850312156109ac57600080fd5b6109b58361089e565b91506109c36020840161089e565b90509250929050565b634e487b7160e01b600052600160045260246000fd5b634e487b7160e01b600052601160045260246000fd5b818103818111156102f3576102f36109e2565b80820281158282048414176102f3576102f36109e2565b600082610a3f57634e487b7160e01b600052601260045260246000fd5b500490565b808201808211156102f3576102f36109e256fea26469706673582212200008dc95e0b069835f0c3281719053a975a77140320478a1b6af8e92c863c04f64736f6c63430008130033",
					"opcodes": "PUSH1 0x80 PUSH1 0x40 MSTORE CALLVALUE DUP1 ISZERO PUSH2 0x10 JUMPI PUSH1 0x0 DUP1 REVERT JUMPDEST POP PUSH1 0x0 DUP1 SSTORE PUSH1 0x3 DUP1 SLOAD PUSH1 0x1 PUSH1 0x1 PUSH1 0xA0 SHL SUB NOT AND CALLER OR SWAP1 SSTORE PUSH2 0xA8D DUP1 PUSH2 0x36 PUSH1 0x0 CODECOPY PUSH1 0x0 RETURN INVALID PUSH1 0x80 PUSH1 0x40 MSTORE CALLVALUE DUP1 ISZERO PUSH2 0x10 JUMPI PUSH1 0x0 DUP1 REVERT JUMPDEST POP PUSH1 0x4 CALLDATASIZE LT PUSH2 0x100 JUMPI PUSH1 0x0 CALLDATALOAD PUSH1 0xE0 SHR DUP1 PUSH4 0x95D89B41 GT PUSH2 0x97 JUMPI DUP1 PUSH4 0xD05C78DA GT PUSH2 0x66 JUMPI DUP1 PUSH4 0xD05C78DA EQ PUSH2 0x270 JUMPI DUP1 PUSH4 0xD5A93D68 EQ PUSH2 0x283 JUMPI DUP1 PUSH4 0xDD62ED3E EQ PUSH2 0x296 JUMPI DUP1 PUSH4 0xE6CB9013 EQ PUSH2 0x2CF JUMPI PUSH1 0x0 DUP1 REVERT JUMPDEST DUP1 PUSH4 0x95D89B41 EQ PUSH2 0x214 JUMPI DUP1 PUSH4 0xA293D1E8 EQ PUSH2 0x237 JUMPI DUP1 PUSH4 0xA9059CBB EQ PUSH2 0x24A JUMPI DUP1 PUSH4 0xB78636A1 EQ PUSH2 0x25D JUMPI PUSH1 0x0 DUP1 REVERT JUMPDEST DUP1 PUSH4 0x23B872DD GT PUSH2 0xD3 JUMPI DUP1 PUSH4 0x23B872DD EQ PUSH2 0x193 JUMPI DUP1 PUSH4 0x313CE567 EQ PUSH2 0x1A6 JUMPI DUP1 PUSH4 0x70A08231 EQ PUSH2 0x1C0 JUMPI DUP1 PUSH4 0x8DA5CB5B EQ PUSH2 0x1E9 JUMPI PUSH1 0x0 DUP1 REVERT JUMPDEST DUP1 PUSH4 0x6FDDE03 EQ PUSH2 0x105 JUMPI DUP1 PUSH4 0x95EA7B3 EQ PUSH2 0x149 JUMPI DUP1 PUSH4 0x13AF4035 EQ PUSH2 0x16C JUMPI DUP1 PUSH4 0x18160DDD EQ PUSH2 0x181 JUMPI JUMPDEST PUSH1 0x0 DUP1 REVERT JUMPDEST PUSH2 0x133 PUSH1 0x40 MLOAD DUP1 PUSH1 0x40 ADD PUSH1 0x40 MSTORE DUP1 PUSH1 0xF DUP2 MSTORE PUSH1 0x20 ADD PUSH15 0x4669676874636C7562204D6F6E6579 PUSH1 0x88 SHL DUP2 MSTORE POP DUP2 JUMP JUMPDEST PUSH1 0x40 MLOAD PUSH2 0x140 SWAP2 SWAP1 PUSH2 0x850 JUMP JUMPDEST PUSH1 0x40 MLOAD DUP1 SWAP2 SUB SWAP1 RETURN JUMPDEST PUSH2 0x15C PUSH2 0x157 CALLDATASIZE PUSH1 0x4 PUSH2 0x8BA JUMP JUMPDEST PUSH2 0x2E2 JUMP JUMPDEST PUSH1 0x40 MLOAD SWAP1 ISZERO ISZERO DUP2 MSTORE PUSH1 0x20 ADD PUSH2 0x140 JUMP JUMPDEST PUSH2 0x17F PUSH2 0x17A CALLDATASIZE PUSH1 0x4 PUSH2 0x8E4 JUMP JUMPDEST PUSH2 0x2F9 JUMP JUMPDEST STOP JUMPDEST PUSH1 0x0 SLOAD JUMPDEST PUSH1 0x40 MLOAD SWAP1 DUP2 MSTORE PUSH1 0x20 ADD PUSH2 0x140 JUMP JUMPDEST PUSH2 0x15C PUSH2 0x1A1 CALLDATASIZE PUSH1 0x4 PUSH2 0x8FF JUMP JUMPDEST PUSH2 0x36F JUMP JUMPDEST PUSH2 0x1AE PUSH1 0x12 DUP2 JUMP JUMPDEST PUSH1 0x40 MLOAD PUSH1 0xFF SWAP1 SWAP2 AND DUP2 MSTORE PUSH1 0x20 ADD PUSH2 0x140 JUMP JUMPDEST PUSH2 0x185 PUSH2 0x1CE CALLDATASIZE PUSH1 0x4 PUSH2 0x8E4 JUMP JUMPDEST PUSH1 0x1 PUSH1 0x1 PUSH1 0xA0 SHL SUB AND PUSH1 0x0 SWAP1 DUP2 MSTORE PUSH1 0x1 PUSH1 0x20 MSTORE PUSH1 0x40 SWAP1 KECCAK256 SLOAD SWAP1 JUMP JUMPDEST PUSH1 0x3 SLOAD PUSH2 0x1FC SWAP1 PUSH1 0x1 PUSH1 0x1 PUSH1 0xA0 SHL SUB AND DUP2 JUMP JUMPDEST PUSH1 0x40 MLOAD PUSH1 0x1 PUSH1 0x1 PUSH1 0xA0 SHL SUB SWAP1 SWAP2 AND DUP2 MSTORE PUSH1 0x20 ADD PUSH2 0x140 JUMP JUMPDEST PUSH2 0x133 PUSH1 0x40 MLOAD DUP1 PUSH1 0x40 ADD PUSH1 0x40 MSTORE DUP1 PUSH1 0x4 DUP2 MSTORE PUSH1 0x20 ADD PUSH4 0x46554B43 PUSH1 0xE0 SHL DUP2 MSTORE POP DUP2 JUMP JUMPDEST PUSH2 0x185 PUSH2 0x245 CALLDATASIZE PUSH1 0x4 PUSH2 0x93B JUMP JUMPDEST PUSH2 0x3C1 JUMP JUMPDEST PUSH2 0x15C PUSH2 0x258 CALLDATASIZE PUSH1 0x4 PUSH2 0x8BA JUMP JUMPDEST PUSH2 0x3E4 JUMP JUMPDEST PUSH2 0x17F PUSH2 0x26B CALLDATASIZE PUSH1 0x4 PUSH2 0x8BA JUMP JUMPDEST PUSH2 0x3F1 JUMP JUMPDEST PUSH2 0x185 PUSH2 0x27E CALLDATASIZE PUSH1 0x4 PUSH2 0x93B JUMP JUMPDEST PUSH2 0x4E8 JUMP JUMPDEST PUSH2 0x17F PUSH2 0x291 CALLDATASIZE PUSH1 0x4 PUSH2 0x95D JUMP JUMPDEST PUSH2 0x518 JUMP JUMPDEST PUSH2 0x185 PUSH2 0x2A4 CALLDATASIZE PUSH1 0x4 PUSH2 0x999 JUMP JUMPDEST PUSH1 0x1 PUSH1 0x1 PUSH1 0xA0 SHL SUB SWAP2 DUP3 AND PUSH1 0x0 SWAP1 DUP2 MSTORE PUSH1 0x2 PUSH1 0x20 SWAP1 DUP2 MSTORE PUSH1 0x40 DUP1 DUP4 KECCAK256 SWAP4 SWAP1 SWAP5 AND DUP3 MSTORE SWAP2 SWAP1 SWAP2 MSTORE KECCAK256 SLOAD SWAP1 JUMP JUMPDEST PUSH2 0x185 PUSH2 0x2DD CALLDATASIZE PUSH1 0x4 PUSH2 0x93B JUMP JUMPDEST PUSH2 0x595 JUMP JUMPDEST PUSH1 0x0 PUSH2 0x2EF CALLER DUP5 DUP5 PUSH2 0x5BF JUMP JUMPDEST POP PUSH1 0x1 JUMPDEST SWAP3 SWAP2 POP POP JUMP JUMPDEST PUSH1 0x3 SLOAD PUSH1 0x1 PUSH1 0x1 PUSH1 0xA0 SHL SUB AND CALLER EQ PUSH2 0x313 JUMPI PUSH2 0x313 PUSH2 0x9CC JUMP JUMPDEST PUSH1 0x3 SLOAD PUSH1 0x40 MLOAD PUSH1 0x1 PUSH1 0x1 PUSH1 0xA0 SHL SUB DUP1 DUP5 AND SWAP3 AND SWAP1 PUSH32 0xCBF985117192C8F614A58AAF97226BB80A754772F5F6EDF06F87C675F2E6C663 SWAP1 PUSH1 0x0 SWAP1 LOG3 PUSH1 0x3 DUP1 SLOAD PUSH1 0x1 PUSH1 0x1 PUSH1 0xA0 SHL SUB NOT AND PUSH1 0x1 PUSH1 0x1 PUSH1 0xA0 SHL SUB SWAP3 SWAP1 SWAP3 AND SWAP2 SWAP1 SWAP2 OR SWAP1 SSTORE JUMP JUMPDEST PUSH1 0x0 PUSH2 0x37C DUP5 DUP5 DUP5 PUSH2 0x6E9 JUMP JUMPDEST PUSH1 0x1 PUSH1 0x1 PUSH1 0xA0 SHL SUB DUP5 AND PUSH1 0x0 SWAP1 DUP2 MSTORE PUSH1 0x2 PUSH1 0x20 SWAP1 DUP2 MSTORE PUSH1 0x40 DUP1 DUP4 KECCAK256 CALLER DUP1 DUP6 MSTORE SWAP3 MSTORE SWAP1 SWAP2 KECCAK256 SLOAD PUSH2 0x3B7 SWAP2 DUP7 SWAP2 PUSH2 0x3B2 SWAP1 DUP7 SWAP1 PUSH2 0x9F8 JUMP JUMPDEST PUSH2 0x5BF JUMP JUMPDEST POP PUSH1 0x1 SWAP4 SWAP3 POP POP POP JUMP JUMPDEST PUSH1 0x0 DUP3 DUP3 GT ISZERO PUSH2 0x3D3 JUMPI PUSH2 0x3D3 PUSH2 0x9CC JUMP JUMPDEST PUSH2 0x3DD DUP3 DUP5 PUSH2 0x9F8 JUMP JUMPDEST SWAP4 SWAP3 POP POP POP JUMP JUMPDEST PUSH1 0x0 PUSH2 0x2EF CALLER DUP5 DUP5 PUSH2 0x6E9 JUMP JUMPDEST CALLER PUSH1 0x0 SWAP1 DUP2 MSTORE PUSH1 0x4 PUSH1 0x20 MSTORE PUSH1 0x40 SWAP1 KECCAK256 SLOAD PUSH1 0xFF AND PUSH2 0x410 JUMPI PUSH2 0x410 PUSH2 0x9CC JUMP JUMPDEST PUSH2 0x41C PUSH1 0x0 SLOAD DUP3 PUSH2 0x595 JUMP JUMPDEST PUSH1 0x0 SWAP1 DUP2 SSTORE PUSH1 0x1 PUSH1 0x1 PUSH1 0xA0 SHL SUB DUP4 AND DUP2 MSTORE PUSH1 0x1 PUSH1 0x20 MSTORE PUSH1 0x40 SWAP1 KECCAK256 SLOAD PUSH2 0x441 SWAP1 DUP3 PUSH2 0x595 JUMP JUMPDEST PUSH1 0x1 PUSH1 0x1 PUSH1 0xA0 SHL SUB DUP4 AND PUSH1 0x0 DUP2 DUP2 MSTORE PUSH1 0x1 PUSH1 0x20 MSTORE PUSH1 0x40 SWAP1 DUP2 SWAP1 KECCAK256 SWAP3 SWAP1 SWAP3 SSTORE SWAP1 MLOAD PUSH32 0xF6798A560793A54C3BCFE86A93CDE1E73087D944C0EA20544137D4121396885 SWAP1 PUSH2 0x490 SWAP1 DUP5 DUP2 MSTORE PUSH1 0x20 ADD SWAP1 JUMP JUMPDEST PUSH1 0x40 MLOAD DUP1 SWAP2 SUB SWAP1 LOG2 PUSH1 0x1 PUSH1 0x1 PUSH1 0xA0 SHL SUB DUP3 AND PUSH1 0x0 DUP2 DUP2 MSTORE PUSH1 0x1 PUSH1 0x20 SWAP1 DUP2 MSTORE PUSH1 0x40 DUP1 DUP4 KECCAK256 SLOAD SWAP1 MLOAD SWAP1 DUP2 MSTORE PUSH32 0xDDF252AD1BE2C89B69C2B068FC378DAA952BA7F163C4A11628F55A4DF523B3EF SWAP2 ADD PUSH1 0x40 MLOAD DUP1 SWAP2 SUB SWAP1 LOG3 POP POP JUMP JUMPDEST PUSH1 0x0 DUP1 PUSH2 0x4F5 DUP4 DUP6 PUSH2 0xA0B JUMP JUMPDEST SWAP1 POP DUP4 ISZERO DUP1 PUSH2 0x50C JUMPI POP DUP3 PUSH2 0x50A DUP6 DUP4 PUSH2 0xA22 JUMP JUMPDEST EQ JUMPDEST PUSH2 0x3DD JUMPI PUSH2 0x3DD PUSH2 0x9CC JUMP JUMPDEST PUSH1 0x3 SLOAD PUSH1 0x1 PUSH1 0x1 PUSH1 0xA0 SHL SUB AND CALLER EQ PUSH2 0x532 JUMPI PUSH2 0x532 PUSH2 0x9CC JUMP JUMPDEST PUSH1 0x1 PUSH1 0x1 PUSH1 0xA0 SHL SUB DUP3 AND PUSH1 0x0 DUP2 DUP2 MSTORE PUSH1 0x4 PUSH1 0x20 SWAP1 DUP2 MSTORE PUSH1 0x40 SWAP2 DUP3 SWAP1 KECCAK256 DUP1 SLOAD PUSH1 0xFF NOT AND DUP6 ISZERO ISZERO SWAP1 DUP2 OR SWAP1 SWAP2 SSTORE DUP3 MLOAD SWAP4 DUP5 MSTORE SWAP1 DUP4 ADD MSTORE PUSH32 0x1C144AC08FCE1689D8F39E7C6B611FF5DE0A11668F47D49788F2D8ADD83669A SWAP2 ADD PUSH1 0x40 MLOAD DUP1 SWAP2 SUB SWAP1 LOG1 POP POP JUMP JUMPDEST PUSH1 0x0 DUP1 PUSH2 0x5A2 DUP4 DUP6 PUSH2 0xA44 JUMP JUMPDEST SWAP1 POP DUP4 DUP2 LT ISZERO DUP1 ISZERO PUSH2 0x50C JUMPI POP DUP3 DUP2 LT ISZERO PUSH2 0x3DD JUMPI PUSH2 0x3DD PUSH2 0x9CC JUMP JUMPDEST PUSH1 0x1 PUSH1 0x1 PUSH1 0xA0 SHL SUB DUP4 AND PUSH2 0x626 JUMPI PUSH1 0x40 MLOAD PUSH3 0x461BCD PUSH1 0xE5 SHL DUP2 MSTORE PUSH1 0x20 PUSH1 0x4 DUP3 ADD MSTORE PUSH1 0x24 DUP1 DUP3 ADD MSTORE PUSH32 0x45524332303A20617070726F76652066726F6D20746865207A65726F20616464 PUSH1 0x44 DUP3 ADD MSTORE PUSH4 0x72657373 PUSH1 0xE0 SHL PUSH1 0x64 DUP3 ADD MSTORE PUSH1 0x84 ADD JUMPDEST PUSH1 0x40 MLOAD DUP1 SWAP2 SUB SWAP1 REVERT JUMPDEST PUSH1 0x1 PUSH1 0x1 PUSH1 0xA0 SHL SUB DUP3 AND PUSH2 0x687 JUMPI PUSH1 0x40 MLOAD PUSH3 0x461BCD PUSH1 0xE5 SHL DUP2 MSTORE PUSH1 0x20 PUSH1 0x4 DUP3 ADD MSTORE PUSH1 0x22 PUSH1 0x24 DUP3 ADD MSTORE PUSH32 0x45524332303A20617070726F766520746F20746865207A65726F206164647265 PUSH1 0x44 DUP3 ADD MSTORE PUSH2 0x7373 PUSH1 0xF0 SHL PUSH1 0x64 DUP3 ADD MSTORE PUSH1 0x84 ADD PUSH2 0x61D JUMP JUMPDEST PUSH1 0x1 PUSH1 0x1 PUSH1 0xA0 SHL SUB DUP4 DUP2 AND PUSH1 0x0 DUP2 DUP2 MSTORE PUSH1 0x2 PUSH1 0x20 SWAP1 DUP2 MSTORE PUSH1 0x40 DUP1 DUP4 KECCAK256 SWAP5 DUP8 AND DUP1 DUP5 MSTORE SWAP5 DUP3 MSTORE SWAP2 DUP3 SWAP1 KECCAK256 DUP6 SWAP1 SSTORE SWAP1 MLOAD DUP5 DUP2 MSTORE PUSH32 0x8C5BE1E5EBEC7D5BD14F71427D1E84F3DD0314C0F7B2291E5B200AC8C7C3B925 SWAP2 ADD JUMPDEST PUSH1 0x40 MLOAD DUP1 SWAP2 SUB SWAP1 LOG3 POP POP POP JUMP JUMPDEST PUSH1 0x1 PUSH1 0x1 PUSH1 0xA0 SHL SUB DUP4 AND PUSH2 0x74D JUMPI PUSH1 0x40 MLOAD PUSH3 0x461BCD PUSH1 0xE5 SHL DUP2 MSTORE PUSH1 0x20 PUSH1 0x4 DUP3 ADD MSTORE PUSH1 0x25 PUSH1 0x24 DUP3 ADD MSTORE PUSH32 0x45524332303A207472616E736665722066726F6D20746865207A65726F206164 PUSH1 0x44 DUP3 ADD MSTORE PUSH5 0x6472657373 PUSH1 0xD8 SHL PUSH1 0x64 DUP3 ADD MSTORE PUSH1 0x84 ADD PUSH2 0x61D JUMP JUMPDEST PUSH1 0x1 PUSH1 0x1 PUSH1 0xA0 SHL SUB DUP3 AND PUSH2 0x7AF JUMPI PUSH1 0x40 MLOAD PUSH3 0x461BCD PUSH1 0xE5 SHL DUP2 MSTORE PUSH1 0x20 PUSH1 0x4 DUP3 ADD MSTORE PUSH1 0x23 PUSH1 0x24 DUP3 ADD MSTORE PUSH32 0x45524332303A207472616E7366657220746F20746865207A65726F2061646472 PUSH1 0x44 DUP3 ADD MSTORE PUSH3 0x657373 PUSH1 0xE8 SHL PUSH1 0x64 DUP3 ADD MSTORE PUSH1 0x84 ADD PUSH2 0x61D JUMP JUMPDEST PUSH1 0x1 PUSH1 0x1 PUSH1 0xA0 SHL SUB DUP4 AND PUSH1 0x0 SWAP1 DUP2 MSTORE PUSH1 0x1 PUSH1 0x20 MSTORE PUSH1 0x40 DUP2 KECCAK256 DUP1 SLOAD DUP4 SWAP3 SWAP1 PUSH2 0x7D7 SWAP1 DUP5 SWAP1 PUSH2 0x9F8 JUMP JUMPDEST SWAP1 SWAP2 SSTORE POP POP PUSH1 0x1 PUSH1 0x1 PUSH1 0xA0 SHL SUB DUP3 AND PUSH1 0x0 SWAP1 DUP2 MSTORE PUSH1 0x1 PUSH1 0x20 MSTORE PUSH1 0x40 DUP2 KECCAK256 DUP1 SLOAD DUP4 SWAP3 SWAP1 PUSH2 0x804 SWAP1 DUP5 SWAP1 PUSH2 0xA44 JUMP JUMPDEST SWAP3 POP POP DUP2 SWAP1 SSTORE POP DUP2 PUSH1 0x1 PUSH1 0x1 PUSH1 0xA0 SHL SUB AND DUP4 PUSH1 0x1 PUSH1 0x1 PUSH1 0xA0 SHL SUB AND PUSH32 0xDDF252AD1BE2C89B69C2B068FC378DAA952BA7F163C4A11628F55A4DF523B3EF DUP4 PUSH1 0x40 MLOAD PUSH2 0x6DC SWAP2 DUP2 MSTORE PUSH1 0x20 ADD SWAP1 JUMP JUMPDEST PUSH1 0x0 PUSH1 0x20 DUP1 DUP4 MSTORE DUP4 MLOAD DUP1 DUP3 DUP6 ADD MSTORE PUSH1 0x0 JUMPDEST DUP2 DUP2 LT ISZERO PUSH2 0x87D JUMPI DUP6 DUP2 ADD DUP4 ADD MLOAD DUP6 DUP3 ADD PUSH1 0x40 ADD MSTORE DUP3 ADD PUSH2 0x861 JUMP JUMPDEST POP PUSH1 0x0 PUSH1 0x40 DUP3 DUP7 ADD ADD MSTORE PUSH1 0x40 PUSH1 0x1F NOT PUSH1 0x1F DUP4 ADD AND DUP6 ADD ADD SWAP3 POP POP POP SWAP3 SWAP2 POP POP JUMP JUMPDEST DUP1 CALLDATALOAD PUSH1 0x1 PUSH1 0x1 PUSH1 0xA0 SHL SUB DUP2 AND DUP2 EQ PUSH2 0x8B5 JUMPI PUSH1 0x0 DUP1 REVERT JUMPDEST SWAP2 SWAP1 POP JUMP JUMPDEST PUSH1 0x0 DUP1 PUSH1 0x40 DUP4 DUP6 SUB SLT ISZERO PUSH2 0x8CD JUMPI PUSH1 0x0 DUP1 REVERT JUMPDEST PUSH2 0x8D6 DUP4 PUSH2 0x89E JUMP JUMPDEST SWAP5 PUSH1 0x20 SWAP4 SWAP1 SWAP4 ADD CALLDATALOAD SWAP4 POP POP POP JUMP JUMPDEST PUSH1 0x0 PUSH1 0x20 DUP3 DUP5 SUB SLT ISZERO PUSH2 0x8F6 JUMPI PUSH1 0x0 DUP1 REVERT JUMPDEST PUSH2 0x3DD DUP3 PUSH2 0x89E JUMP JUMPDEST PUSH1 0x0 DUP1 PUSH1 0x0 PUSH1 0x60 DUP5 DUP7 SUB SLT ISZERO PUSH2 0x914 JUMPI PUSH1 0x0 DUP1 REVERT JUMPDEST PUSH2 0x91D DUP5 PUSH2 0x89E JUMP JUMPDEST SWAP3 POP PUSH2 0x92B PUSH1 0x20 DUP6 ADD PUSH2 0x89E JUMP JUMPDEST SWAP2 POP PUSH1 0x40 DUP5 ADD CALLDATALOAD SWAP1 POP SWAP3 POP SWAP3 POP SWAP3 JUMP JUMPDEST PUSH1 0x0 DUP1 PUSH1 0x40 DUP4 DUP6 SUB SLT ISZERO PUSH2 0x94E JUMPI PUSH1 0x0 DUP1 REVERT JUMPDEST POP POP DUP1 CALLDATALOAD SWAP3 PUSH1 0x20 SWAP1 SWAP2 ADD CALLDATALOAD SWAP2 POP JUMP JUMPDEST PUSH1 0x0 DUP1 PUSH1 0x40 DUP4 DUP6 SUB SLT ISZERO PUSH2 0x970 JUMPI PUSH1 0x0 DUP1 REVERT JUMPDEST PUSH2 0x979 DUP4 PUSH2 0x89E JUMP JUMPDEST SWAP2 POP PUSH1 0x20 DUP4 ADD CALLDATALOAD DUP1 ISZERO ISZERO DUP2 EQ PUSH2 0x98E JUMPI PUSH1 0x0 DUP1 REVERT JUMPDEST DUP1 SWAP2 POP POP SWAP3 POP SWAP3 SWAP1 POP JUMP JUMPDEST PUSH1 0x0 DUP1 PUSH1 0x40 DUP4 DUP6 SUB SLT ISZERO PUSH2 0x9AC JUMPI PUSH1 0x0 DUP1 REVERT JUMPDEST PUSH2 0x9B5 DUP4 PUSH2 0x89E JUMP JUMPDEST SWAP2 POP PUSH2 0x9C3 PUSH1 0x20 DUP5 ADD PUSH2 0x89E JUMP JUMPDEST SWAP1 POP SWAP3 POP SWAP3 SWAP1 POP JUMP JUMPDEST PUSH4 0x4E487B71 PUSH1 0xE0 SHL PUSH1 0x0 MSTORE PUSH1 0x1 PUSH1 0x4 MSTORE PUSH1 0x24 PUSH1 0x0 REVERT JUMPDEST PUSH4 0x4E487B71 PUSH1 0xE0 SHL PUSH1 0x0 MSTORE PUSH1 0x11 PUSH1 0x4 MSTORE PUSH1 0x24 PUSH1 0x0 REVERT JUMPDEST DUP2 DUP2 SUB DUP2 DUP2 GT ISZERO PUSH2 0x2F3 JUMPI PUSH2 0x2F3 PUSH2 0x9E2 JUMP JUMPDEST DUP1 DUP3 MUL DUP2 ISZERO DUP3 DUP3 DIV DUP5 EQ OR PUSH2 0x2F3 JUMPI PUSH2 0x2F3 PUSH2 0x9E2 JUMP JUMPDEST PUSH1 0x0 DUP3 PUSH2 0xA3F JUMPI PUSH4 0x4E487B71 PUSH1 0xE0 SHL PUSH1 0x0 MSTORE PUSH1 0x12 PUSH1 0x4 MSTORE PUSH1 0x24 PUSH1 0x0 REVERT JUMPDEST POP DIV SWAP1 JUMP JUMPDEST DUP1 DUP3 ADD DUP1 DUP3 GT ISZERO PUSH2 0x2F3 JUMPI PUSH2 0x2F3 PUSH2 0x9E2 JUMP INVALID LOG2 PUSH5 0x6970667358 0x22 SLT KECCAK256 STOP ADDMOD 0xDC SWAP6 0xE0 0xB0 PUSH10 0x835F0C3281719053A975 0xA7 PUSH18 0x40320478A1B6AF8E92C863C04F64736F6C63 NUMBER STOP ADDMOD SGT STOP CALLER "
				},
				"gasEstimates": {
					"creation": {
						"codeDepositCost": "540200",
						"executionCost": "29816",
						"totalCost": "570016"
					},
					"external": {
						"allowance(address,address)": "infinite",
						"approve(address,uint256)": "24644",
						"balanceOf(address)": "2604",
						"decimals()": "249",
						"name()": "infinite",
						"owner()": "2426",
						"payoutBattlePurse(address,uint256)": "infinite",
						"safeAdd(uint256,uint256)": "546",
						"safeMul(uint256,uint256)": "542",
						"safeSub(uint256,uint256)": "462",
						"setBattleContract(address,bool)": "28213",
						"setOwner(address)": "30433",
						"symbol()": "infinite",
						"totalSupply()": "2371",
						"transfer(address,uint256)": "infinite",
						"transferFrom(address,address,uint256)": "infinite"
					},
					"internal": {
						"_approve(address,address,uint256)": "infinite",
						"_transfer(address,address,uint256)": "infinite",
						"max(uint256,uint256)": "infinite",
						"min(uint256,uint256)": "infinite"
					}
				},
				"methodIdentifiers": {
					"allowance(address,address)": "dd62ed3e",
					"approve(address,uint256)": "095ea7b3",
					"balanceOf(address)": "70a08231",
					"decimals()": "313ce567",
					"name()": "06fdde03",
					"owner()": "8da5cb5b",
					"payoutBattlePurse(address,uint256)": "b78636a1",
					"safeAdd(uint256,uint256)": "e6cb9013",
					"safeMul(uint256,uint256)": "d05c78da",
					"safeSub(uint256,uint256)": "a293d1e8",
					"setBattleContract(address,bool)": "d5a93d68",
					"setOwner(address)": "13af4035",
					"symbol()": "95d89b41",
					"totalSupply()": "18160ddd",
					"transfer(address,uint256)": "a9059cbb",
					"transferFrom(address,address,uint256)": "23b872dd"
				}
			},
			"storageLayout": {
				"storage": [
					{
						"astId": 87,
						"contract": "money.sol:FightclubMoney",
						"label": "_totalSupply",
						"offset": 0,
						"slot": "0",
						"type": "t_uint256"
					},
					{
						"astId": 91,
						"contract": "money.sol:FightclubMoney",
						"label": "_balances",
						"offset": 0,
						"slot": "1",
						"type": "t_mapping(t_address,t_uint256)"
					},
					{
						"astId": 97,
						"contract": "money.sol:FightclubMoney",
						"label": "_allowances",
						"offset": 0,
						"slot": "2",
						"type": "t_mapping(t_address,t_mapping(t_address,t_uint256))"
					},
					{
						"astId": 99,
						"contract": "money.sol:FightclubMoney",
						"label": "owner",
						"offset": 0,
						"slot": "3",
						"type": "t_address"
					},
					{
						"astId": 211,
						"contract": "money.sol:FightclubMoney",
						"label": "isBattleContract",
						"offset": 0,
						"slot": "4",
						"type": "t_mapping(t_address,t_bool)"
					}
				],
				"types": {
					"t_address": {
						"encoding": "inplace",
						"label": "address",
						"numberOfBytes": "20"
					},
					"t_bool": {
						"encoding": "inplace",
						"label": "bool",
						"numberOfBytes": "1"
					},
					"t_mapping(t_address,t_bool)": {
						"encoding": "mapping",
						"key": "t_address",
						"label": "mapping(address => bool)",
						"numberOfBytes": "32",
						"value": "t_bool"
					},
					"t_mapping(t_address,t_mapping(t_address,t_uint256))": {
						"encoding": "mapping",
						"key": "t_address",
						"label": "mapping(address => mapping(address => uint256))",
						"numberOfBytes": "32",
						"value": "t_mapping(t_address,t_uint256)"
					},
					"t_mapping(t_address,t_uint256)": {
						"encoding": "mapping",
						"key": "t_address",
						"label": "mapping(address => uint256)",
						"numberOfBytes": "32",
						"value": "t_uint256"
					},
					"t_uint256": {
						"encoding": "inplace",
						"label": "uint256",
						"numberOfBytes": "32"
					}
				}
			},
			"userdoc": {
				"kind": "user",
				"methods": {},
				"version": 1
			}
		}
	}
}