{
  "contractName": "BackpackHelper",
  "abi": [
    {
      "inputs": [
        {
          "internalType": "address",
          "name": "backpackAddress",
          "type": "address"
        }
      ],
      "stateMutability": "nonpayable",
      "type": "constructor"
    },
    {
      "inputs": [
        {
          "internalType": "uint256",
          "name": "tokenId",
          "type": "uint256"
        },
        {
          "internalType": "uint256",
          "name": "qty",
          "type": "uint256"
        }
      ],
      "name": "dropBackpackItem",
      "outputs": [],
      "stateMutability": "nonpayable",
      "type": "function"
    },
    {
      "inputs": [
        {
          "internalType": "bytes32",
          "name": "itemHash",
          "type": "bytes32"
        },
        {
          "components": [
            {
              "internalType": "string",
              "name": "name",
              "type": "string"
            },
            {
              "internalType": "uint256",
              "name": "tokenId",
              "type": "uint256"
            },
            {
              "internalType": "uint256",
              "name": "itemLevel",
              "type": "uint256"
            },
            {
              "internalType": "uint256",
              "name": "maxLevel",
              "type": "uint256"
            },
            {
              "internalType": "uint256",
              "name": "durability",
              "type": "uint256"
            },
            {
              "internalType": "uint256",
              "name": "classRequired",
              "type": "uint256"
            },
            {
              "internalType": "uint256",
              "name": "strengthRequired",
              "type": "uint256"
            },
            {
              "internalType": "uint256",
              "name": "agilityRequired",
              "type": "uint256"
            },
            {
              "internalType": "uint256",
              "name": "energyRequired",
              "type": "uint256"
            },
            {
              "internalType": "uint256",
              "name": "vitalityRequired",
              "type": "uint256"
            },
            {
              "internalType": "uint256",
              "name": "itemWidth",
              "type": "uint256"
            },
            {
              "internalType": "uint256",
              "name": "itemHeight",
              "type": "uint256"
            },
            {
              "internalType": "uint256",
              "name": "acceptableSlot1",
              "type": "uint256"
            },
            {
              "internalType": "uint256",
              "name": "acceptableSlot2",
              "type": "uint256"
            },
            {
              "internalType": "uint256",
              "name": "baseMinPhysicalDamage",
              "type": "uint256"
            },
            {
              "internalType": "uint256",
              "name": "baseMaxPhysicalDamage",
              "type": "uint256"
            },
            {
              "internalType": "uint256",
              "name": "baseMinMagicDamage",
              "type": "uint256"
            },
            {
              "internalType": "uint256",
              "name": "baseMaxMagicDamage",
              "type": "uint256"
            },
            {
              "internalType": "uint256",
              "name": "baseDefense",
              "type": "uint256"
            },
            {
              "internalType": "uint256",
              "name": "attackSpeed",
              "type": "uint256"
            },
            {
              "internalType": "uint256",
              "name": "additionalDamage",
              "type": "uint256"
            },
            {
              "internalType": "uint256",
              "name": "additionalDefense",
              "type": "uint256"
            },
            {
              "internalType": "uint256",
              "name": "fighterId",
              "type": "uint256"
            },
            {
              "internalType": "uint256",
              "name": "lastUpdBlock",
              "type": "uint256"
            },
            {
              "internalType": "uint256",
              "name": "itemRarityLevel",
              "type": "uint256"
            },
            {
              "internalType": "uint256",
              "name": "itemAttributesId",
              "type": "uint256"
            },
            {
              "internalType": "uint256",
              "name": "packSize",
              "type": "uint256"
            },
            {
              "internalType": "bool",
              "name": "luck",
              "type": "bool"
            },
            {
              "internalType": "bool",
              "name": "skill",
              "type": "bool"
            },
            {
              "internalType": "bool",
              "name": "isPackable",
              "type": "bool"
            },
            {
              "internalType": "bool",
              "name": "isBox",
              "type": "bool"
            },
            {
              "internalType": "bool",
              "name": "isWeapon",
              "type": "bool"
            },
            {
              "internalType": "bool",
              "name": "isArmour",
              "type": "bool"
            },
            {
              "internalType": "bool",
              "name": "isJewel",
              "type": "bool"
            },
            {
              "internalType": "bool",
              "name": "isWings",
              "type": "bool"
            },
            {
              "internalType": "bool",
              "name": "isMisc",
              "type": "bool"
            },
            {
              "internalType": "bool",
              "name": "isConsumable",
              "type": "bool"
            },
            {
              "internalType": "bool",
              "name": "inShop",
              "type": "bool"
            },
            {
              "internalType": "uint256",
              "name": "increaseAttackSpeedPoints",
              "type": "uint256"
            },
            {
              "internalType": "uint256",
              "name": "reflectDamagePercent",
              "type": "uint256"
            },
            {
              "internalType": "uint256",
              "name": "restoreHPChance",
              "type": "uint256"
            },
            {
              "internalType": "uint256",
              "name": "restoreMPChance",
              "type": "uint256"
            },
            {
              "internalType": "uint256",
              "name": "doubleDamageChance",
              "type": "uint256"
            },
            {
              "internalType": "uint256",
              "name": "ignoreOpponentDefenseChance",
              "type": "uint256"
            },
            {
              "internalType": "uint256",
              "name": "lifeAfterMonsterIncrease",
              "type": "uint256"
            },
            {
              "internalType": "uint256",
              "name": "manaAfterMonsterIncrease",
              "type": "uint256"
            },
            {
              "internalType": "uint256",
              "name": "excellentDamageProbabilityIncrease",
              "type": "uint256"
            },
            {
              "internalType": "uint256",
              "name": "attackSpeedIncrease",
              "type": "uint256"
            },
            {
              "internalType": "uint256",
              "name": "attackLvl20",
              "type": "uint256"
            },
            {
              "internalType": "uint256",
              "name": "attackIncreasePercent",
              "type": "uint256"
            },
            {
              "internalType": "uint256",
              "name": "defenseSuccessRateIncrease",
              "type": "uint256"
            },
            {
              "internalType": "uint256",
              "name": "goldAfterMonsterIncrease",
              "type": "uint256"
            },
            {
              "internalType": "uint256",
              "name": "reflectDamage",
              "type": "uint256"
            },
            {
              "internalType": "uint256",
              "name": "maxLifeIncrease",
              "type": "uint256"
            },
            {
              "internalType": "uint256",
              "name": "maxManaIncrease",
              "type": "uint256"
            },
            {
              "internalType": "uint256",
              "name": "hpRecoveryRateIncrease",
              "type": "uint256"
            },
            {
              "internalType": "uint256",
              "name": "mpRecoveryRateIncrease",
              "type": "uint256"
            },
            {
              "internalType": "uint256",
              "name": "decreaseDamageRateIncrease",
              "type": "uint256"
            }
          ],
          "internalType": "struct ItemsExcellentAtts.ExcellentItemAtts",
          "name": "itemAtts",
          "type": "tuple"
        },
        {
          "internalType": "uint256",
          "name": "dropBlock",
          "type": "uint256"
        },
        {
          "internalType": "uint256",
          "name": "fighterId",
          "type": "uint256"
        }
      ],
      "name": "pickupItem",
      "outputs": [],
      "stateMutability": "nonpayable",
      "type": "function"
    }
  ],
  "bytecode": "0x60806040526064600055601c60015560326002556032600355601e600455601e60055560026006556001600755600060085534801561003d57600080fd5b50604051610a7e380380610a7e83398101604081905261005c91610081565b600980546001600160a01b0319166001600160a01b03929092169190911790556100b1565b60006020828403121561009357600080fd5b81516001600160a01b03811681146100aa57600080fd5b9392505050565b6109be806100c06000396000f3fe608060405234801561001057600080fd5b50600436106100365760003560e01c80636773a1dc1461003b578063ce8d887314610050575b600080fd5b61004e61004936600461013a565b610063565b005b61004e61005e36600461023e565b6100cc565b6009546040516319dce87760e21b815260048101849052602481018390526001600160a01b0390911690636773a1dc90604401600060405180830381600087803b1580156100b057600080fd5b505af11580156100c4573d6000803e3d6000fd5b505050505050565b60095460405163ce8d887360e01b81526001600160a01b039091169063ce8d8873906101029087908790879087906004016105de565b600060405180830381600087803b15801561011c57600080fd5b505af1158015610130573d6000803e3d6000fd5b5050505050505050565b6000806040838503121561014d57600080fd5b50508035926020909101359150565b634e487b7160e01b600052604160045260246000fd5b604051610740810167ffffffffffffffff811182821017156101965761019661015c565b60405290565b600082601f8301126101ad57600080fd5b813567ffffffffffffffff808211156101c8576101c861015c565b604051601f8301601f19908116603f011681019082821181831017156101f0576101f061015c565b8160405283815286602085880101111561020957600080fd5b836020870160208301376000602085830101528094505050505092915050565b8035801515811461023957600080fd5b919050565b6000806000806080858703121561025457600080fd5b84359350602085013567ffffffffffffffff8082111561027357600080fd5b90860190610740828903121561028857600080fd5b610290610172565b82358281111561029f57600080fd5b6102ab8a82860161019c565b8252506020838101359082015260408084013590820152606080840135908201526080808401359082015260a0808401359082015260c0808401359082015260e08084013590820152610100808401359082015261012080840135908201526101408084013590820152610160808401359082015261018080840135908201526101a080840135908201526101c080840135908201526101e08084013590820152610200808401359082015261022080840135908201526102408084013590820152610260808401359082015261028080840135908201526102a080840135908201526102c080840135908201526102e0808401359082015261030080840135908201526103208084013590820152610340808401359082015261036091506103d5828401610229565b8282015261038091506103e9828401610229565b828201526103a091506103fd828401610229565b828201526103c09150610411828401610229565b828201526103e09150610425828401610229565b828201526104009150610439828401610229565b82820152610420915061044d828401610229565b828201526104409150610461828401610229565b828201526104609150610475828401610229565b828201526104809150610489828401610229565b828201526104a0915061049d828401610229565b918101919091526104c082810135908201526104e08083013590820152610500808301359082015261052080830135908201526105408083013590820152610560808301359082015261058080830135908201526105a080830135908201526105c080830135908201526105e08083013590820152610600808301359082015261062080830135908201526106408083013590820152610660808301359082015261068080830135908201526106a080830135908201526106c080830135908201526106e080830135908201526107008083013590820152610720918201359181019190915293969395505050506040820135916060013590565b6000815180845260005b818110156105be576020818501810151868301820152016105a2565b506000602082860101526020601f19601f83011685010191505092915050565b84815260806020820152600084516107408060808501526106036107c0850183610598565b602088015160a086810191909152604089015160c08088019190915260608a015160e08089019190915260808b0151610100808a0191909152928b0151610120808a0191909152918b0151610140808a0191909152908b0151610160808a0191909152928b0151610180808a0191909152918b01516101a0808a0191909152908b01516101c0808a0191909152928b01516101e0808a0191909152918b0151610200808a0191909152908b0151610220808a0191909152928b0151610240808a0191909152918b0151610260808a0191909152908b0151610280808a0191909152928b01516102a0808a0191909152918b01516102c0808a0191909152908b01516102e0808a0191909152928b0151610300808a0191909152918b0151610320808a0191909152908b0151610340808a0191909152928b0151610360808a0191909152918b0151610380808a0191909152908b01516103a0808a0191909152928b01516103c0808a0191909152918b015193955091906103e0610789818a018615159052565b928b01519350610400926107a08985018615159052565b918b01519350610420916107b78984018615159052565b908b01519350610440906107ce8983018615159052565b8b015193506104606107e38982018615159052565b928b01519350610480926107fa8985018615159052565b918b015193506104a0916108118984018615159052565b908b015193506104c0906108288983018615159052565b8b015193506104e061083d8982018615159052565b928b01519350610500926108548985018615159052565b918b015193506105209161086b8984018615159052565b908b015161054089810191909152908b0151610560808a0191909152928b0151610580808a0191909152918b01516105a0808a0191909152908b01516105c0808a0191909152928b01516105e0808a0191909152918b0151610600808a0191909152908b0151610620808a0191909152928b0151610640808a0191909152918b0151610660808a0191909152908b0151610680808a0191909152928b01516106a0808a0191909152918b01516106c0808a0191909152908b01516106e0808a0191909152928b0151610700808a0191909152918b0151610720808a0191909152908b0151948801949094529089015161076087015288015161078086015250909501516107a083015250604081019290925260609091015291905056fea264697066735822122097aabb6e39ce57f15e59fad6fe38fa51b896e941b56e861e3ef6c5fce0018f2864736f6c63430008130033",
  "immutableReferences": {},
  "source": "// SPDX-License-Identifier: MIT\npragma solidity ^0.8.18;\nimport \"./Backpack.sol\";\nimport \"./ItemsExcellentAtts.sol\";\ncontract BackpackHelper is ItemsExcellentAtts {\n    Backpack private _backpack;\n\n    constructor(address backpackAddress) {\n        _backpack = Backpack(backpackAddress);\n    }    \n\n    function dropBackpackItem(uint256 tokenId, uint256 qty) external {\n        return _backpack.dropBackpackItem(tokenId, qty);\n    }\n\n    function pickupItem(bytes32 itemHash, ExcellentItemAtts memory itemAtts, uint256 dropBlock, uint256 fighterId) external {\n        return _backpack.pickupItem(itemHash, itemAtts, dropBlock, fighterId);\n    }\n}",
  "sourcePath": "/Users/max/Documents/prog/game-contracts/contracts/BackpackHelper.sol",
  "compiler": {
    "name": "solc",
    "version": "0.8.19+commit.7dd6d404.Emscripten.clang"
  },
  "schemaVersion": "3.4.13",
  "updatedAt": "2023-08-02T05:50:26.129Z",
  "networkType": "ethereum",
  "devdoc": {
    "kind": "dev",
    "methods": {},
    "version": 1
  },
  "userdoc": {
    "kind": "user",
    "methods": {},
    "version": 1
  }
}