{
  "contractName": "Backpack",
  "abi": [
    {
      "inputs": [
        {
          "internalType": "address",
          "name": "fighterHelperContract",
          "type": "address"
        },
        {
          "internalType": "address",
          "name": "itemsHelperContract",
          "type": "address"
        },
        {
          "internalType": "address",
          "name": "moneyHelperContract",
          "type": "address"
        }
      ],
      "stateMutability": "nonpayable",
      "type": "constructor"
    },
    {
      "anonymous": false,
      "inputs": [
        {
          "indexed": false,
          "internalType": "bytes32",
          "name": "itemHash",
          "type": "bytes32"
        },
        {
          "components": [
            {
              "internalType": "string",
              "name": "name",
              "type": "string"
            },
            {
              "internalType": "uint256",
              "name": "tokenId",
              "type": "uint256"
            },
            {
              "internalType": "uint256",
              "name": "itemLevel",
              "type": "uint256"
            },
            {
              "internalType": "uint256",
              "name": "maxLevel",
              "type": "uint256"
            },
            {
              "internalType": "uint256",
              "name": "durability",
              "type": "uint256"
            },
            {
              "internalType": "uint256",
              "name": "classRequired",
              "type": "uint256"
            },
            {
              "internalType": "uint256",
              "name": "strengthRequired",
              "type": "uint256"
            },
            {
              "internalType": "uint256",
              "name": "agilityRequired",
              "type": "uint256"
            },
            {
              "internalType": "uint256",
              "name": "energyRequired",
              "type": "uint256"
            },
            {
              "internalType": "uint256",
              "name": "vitalityRequired",
              "type": "uint256"
            },
            {
              "internalType": "uint256",
              "name": "itemWidth",
              "type": "uint256"
            },
            {
              "internalType": "uint256",
              "name": "itemHeight",
              "type": "uint256"
            },
            {
              "internalType": "uint256",
              "name": "acceptableSlot1",
              "type": "uint256"
            },
            {
              "internalType": "uint256",
              "name": "acceptableSlot2",
              "type": "uint256"
            },
            {
              "internalType": "uint256",
              "name": "physicalDamage",
              "type": "uint256"
            },
            {
              "internalType": "uint256",
              "name": "magicDamage",
              "type": "uint256"
            },
            {
              "internalType": "uint256",
              "name": "defense",
              "type": "uint256"
            },
            {
              "internalType": "uint256",
              "name": "attackSpeed",
              "type": "uint256"
            },
            {
              "internalType": "uint256",
              "name": "defenseSuccessRate",
              "type": "uint256"
            },
            {
              "internalType": "uint256",
              "name": "additionalDamage",
              "type": "uint256"
            },
            {
              "internalType": "uint256",
              "name": "additionalDefense",
              "type": "uint256"
            },
            {
              "internalType": "uint256",
              "name": "increasedExperienceGain",
              "type": "uint256"
            },
            {
              "internalType": "uint256",
              "name": "damageIncrease",
              "type": "uint256"
            },
            {
              "internalType": "uint256",
              "name": "defenseSuccessRateIncrease",
              "type": "uint256"
            },
            {
              "internalType": "uint256",
              "name": "lifeAfterMonsterIncrease",
              "type": "uint256"
            },
            {
              "internalType": "uint256",
              "name": "manaAfterMonsterIncrease",
              "type": "uint256"
            },
            {
              "internalType": "uint256",
              "name": "goldAfterMonsterIncrease",
              "type": "uint256"
            },
            {
              "internalType": "uint256",
              "name": "doubleDamageProbabilityIncrease",
              "type": "uint256"
            },
            {
              "internalType": "uint256",
              "name": "excellentDamageProbabilityIncrease",
              "type": "uint256"
            },
            {
              "internalType": "uint256",
              "name": "ignoreOpponentsDefenseRateIncrease",
              "type": "uint256"
            },
            {
              "internalType": "uint256",
              "name": "reflectDamage",
              "type": "uint256"
            },
            {
              "internalType": "uint256",
              "name": "maxLifeIncrease",
              "type": "uint256"
            },
            {
              "internalType": "uint256",
              "name": "maxManaIncrease",
              "type": "uint256"
            },
            {
              "internalType": "uint256",
              "name": "excellentDamageRateIncrease",
              "type": "uint256"
            },
            {
              "internalType": "uint256",
              "name": "doubleDamageRateIncrease",
              "type": "uint256"
            },
            {
              "internalType": "uint256",
              "name": "ignoreOpponentsDefenseSuccessRateIncrease",
              "type": "uint256"
            },
            {
              "internalType": "uint256",
              "name": "attackDamageIncrease",
              "type": "uint256"
            },
            {
              "internalType": "uint256",
              "name": "isAncient",
              "type": "uint256"
            },
            {
              "internalType": "uint256",
              "name": "reflectDamageRateIncrease",
              "type": "uint256"
            },
            {
              "internalType": "uint256",
              "name": "decreaseDamageRateIncrease",
              "type": "uint256"
            },
            {
              "internalType": "uint256",
              "name": "hpRecoveryRateIncrease",
              "type": "uint256"
            },
            {
              "internalType": "uint256",
              "name": "mpRecoveryRateIncrease",
              "type": "uint256"
            },
            {
              "internalType": "uint256",
              "name": "defenceIncreasePerLevel",
              "type": "uint256"
            },
            {
              "internalType": "uint256",
              "name": "damageIncreasePerLevel",
              "type": "uint256"
            },
            {
              "internalType": "uint256",
              "name": "increaseDefenseRate",
              "type": "uint256"
            },
            {
              "internalType": "uint256",
              "name": "strengthReqIncreasePerLevel",
              "type": "uint256"
            },
            {
              "internalType": "uint256",
              "name": "agilityReqIncreasePerLevel",
              "type": "uint256"
            },
            {
              "internalType": "uint256",
              "name": "energyReqIncreasePerLevel",
              "type": "uint256"
            },
            {
              "internalType": "uint256",
              "name": "vitalityReqIncreasePerLevel",
              "type": "uint256"
            },
            {
              "internalType": "uint256",
              "name": "attackSpeedIncrease",
              "type": "uint256"
            },
            {
              "internalType": "uint256",
              "name": "fighterId",
              "type": "uint256"
            },
            {
              "internalType": "uint256",
              "name": "lastUpdBlock",
              "type": "uint256"
            },
            {
              "internalType": "uint256",
              "name": "itemRarityLevel",
              "type": "uint256"
            },
            {
              "internalType": "uint256",
              "name": "itemAttributesId",
              "type": "uint256"
            },
            {
              "internalType": "bool",
              "name": "luck",
              "type": "bool"
            },
            {
              "internalType": "bool",
              "name": "skill",
              "type": "bool"
            },
            {
              "internalType": "bool",
              "name": "isBox",
              "type": "bool"
            },
            {
              "internalType": "bool",
              "name": "isWeapon",
              "type": "bool"
            },
            {
              "internalType": "bool",
              "name": "isArmour",
              "type": "bool"
            },
            {
              "internalType": "bool",
              "name": "isJewel",
              "type": "bool"
            },
            {
              "internalType": "bool",
              "name": "isMisc",
              "type": "bool"
            },
            {
              "internalType": "bool",
              "name": "isConsumable",
              "type": "bool"
            },
            {
              "internalType": "bool",
              "name": "inShop",
              "type": "bool"
            }
          ],
          "indexed": false,
          "internalType": "struct ItemAtts.ItemAttributes",
          "name": "item",
          "type": "tuple"
        },
        {
          "indexed": false,
          "internalType": "uint256",
          "name": "qty",
          "type": "uint256"
        },
        {
          "indexed": false,
          "internalType": "uint256",
          "name": "tokenId",
          "type": "uint256"
        }
      ],
      "name": "BackpackItemDropped",
      "type": "event"
    },
    {
      "anonymous": false,
      "inputs": [
        {
          "indexed": false,
          "internalType": "uint256",
          "name": "tokenId",
          "type": "uint256"
        },
        {
          "indexed": false,
          "internalType": "uint256",
          "name": "fighterId",
          "type": "uint256"
        },
        {
          "indexed": false,
          "internalType": "uint256",
          "name": "qty",
          "type": "uint256"
        }
      ],
      "name": "ItemPicked",
      "type": "event"
    },
    {
      "inputs": [
        {
          "internalType": "uint256",
          "name": "tokenId",
          "type": "uint256"
        }
      ],
      "name": "dropBackpackItem",
      "outputs": [],
      "stateMutability": "nonpayable",
      "type": "function"
    },
    {
      "inputs": [
        {
          "internalType": "bytes32",
          "name": "itemHash",
          "type": "bytes32"
        },
        {
          "components": [
            {
              "internalType": "string",
              "name": "name",
              "type": "string"
            },
            {
              "internalType": "uint256",
              "name": "tokenId",
              "type": "uint256"
            },
            {
              "internalType": "uint256",
              "name": "itemLevel",
              "type": "uint256"
            },
            {
              "internalType": "uint256",
              "name": "maxLevel",
              "type": "uint256"
            },
            {
              "internalType": "uint256",
              "name": "durability",
              "type": "uint256"
            },
            {
              "internalType": "uint256",
              "name": "classRequired",
              "type": "uint256"
            },
            {
              "internalType": "uint256",
              "name": "strengthRequired",
              "type": "uint256"
            },
            {
              "internalType": "uint256",
              "name": "agilityRequired",
              "type": "uint256"
            },
            {
              "internalType": "uint256",
              "name": "energyRequired",
              "type": "uint256"
            },
            {
              "internalType": "uint256",
              "name": "vitalityRequired",
              "type": "uint256"
            },
            {
              "internalType": "uint256",
              "name": "itemWidth",
              "type": "uint256"
            },
            {
              "internalType": "uint256",
              "name": "itemHeight",
              "type": "uint256"
            },
            {
              "internalType": "uint256",
              "name": "acceptableSlot1",
              "type": "uint256"
            },
            {
              "internalType": "uint256",
              "name": "acceptableSlot2",
              "type": "uint256"
            },
            {
              "internalType": "uint256",
              "name": "physicalDamage",
              "type": "uint256"
            },
            {
              "internalType": "uint256",
              "name": "magicDamage",
              "type": "uint256"
            },
            {
              "internalType": "uint256",
              "name": "defense",
              "type": "uint256"
            },
            {
              "internalType": "uint256",
              "name": "attackSpeed",
              "type": "uint256"
            },
            {
              "internalType": "uint256",
              "name": "defenseSuccessRate",
              "type": "uint256"
            },
            {
              "internalType": "uint256",
              "name": "additionalDamage",
              "type": "uint256"
            },
            {
              "internalType": "uint256",
              "name": "additionalDefense",
              "type": "uint256"
            },
            {
              "internalType": "uint256",
              "name": "increasedExperienceGain",
              "type": "uint256"
            },
            {
              "internalType": "uint256",
              "name": "damageIncrease",
              "type": "uint256"
            },
            {
              "internalType": "uint256",
              "name": "defenseSuccessRateIncrease",
              "type": "uint256"
            },
            {
              "internalType": "uint256",
              "name": "lifeAfterMonsterIncrease",
              "type": "uint256"
            },
            {
              "internalType": "uint256",
              "name": "manaAfterMonsterIncrease",
              "type": "uint256"
            },
            {
              "internalType": "uint256",
              "name": "goldAfterMonsterIncrease",
              "type": "uint256"
            },
            {
              "internalType": "uint256",
              "name": "doubleDamageProbabilityIncrease",
              "type": "uint256"
            },
            {
              "internalType": "uint256",
              "name": "excellentDamageProbabilityIncrease",
              "type": "uint256"
            },
            {
              "internalType": "uint256",
              "name": "ignoreOpponentsDefenseRateIncrease",
              "type": "uint256"
            },
            {
              "internalType": "uint256",
              "name": "reflectDamage",
              "type": "uint256"
            },
            {
              "internalType": "uint256",
              "name": "maxLifeIncrease",
              "type": "uint256"
            },
            {
              "internalType": "uint256",
              "name": "maxManaIncrease",
              "type": "uint256"
            },
            {
              "internalType": "uint256",
              "name": "excellentDamageRateIncrease",
              "type": "uint256"
            },
            {
              "internalType": "uint256",
              "name": "doubleDamageRateIncrease",
              "type": "uint256"
            },
            {
              "internalType": "uint256",
              "name": "ignoreOpponentsDefenseSuccessRateIncrease",
              "type": "uint256"
            },
            {
              "internalType": "uint256",
              "name": "attackDamageIncrease",
              "type": "uint256"
            },
            {
              "internalType": "uint256",
              "name": "isAncient",
              "type": "uint256"
            },
            {
              "internalType": "uint256",
              "name": "reflectDamageRateIncrease",
              "type": "uint256"
            },
            {
              "internalType": "uint256",
              "name": "decreaseDamageRateIncrease",
              "type": "uint256"
            },
            {
              "internalType": "uint256",
              "name": "hpRecoveryRateIncrease",
              "type": "uint256"
            },
            {
              "internalType": "uint256",
              "name": "mpRecoveryRateIncrease",
              "type": "uint256"
            },
            {
              "internalType": "uint256",
              "name": "defenceIncreasePerLevel",
              "type": "uint256"
            },
            {
              "internalType": "uint256",
              "name": "damageIncreasePerLevel",
              "type": "uint256"
            },
            {
              "internalType": "uint256",
              "name": "increaseDefenseRate",
              "type": "uint256"
            },
            {
              "internalType": "uint256",
              "name": "strengthReqIncreasePerLevel",
              "type": "uint256"
            },
            {
              "internalType": "uint256",
              "name": "agilityReqIncreasePerLevel",
              "type": "uint256"
            },
            {
              "internalType": "uint256",
              "name": "energyReqIncreasePerLevel",
              "type": "uint256"
            },
            {
              "internalType": "uint256",
              "name": "vitalityReqIncreasePerLevel",
              "type": "uint256"
            },
            {
              "internalType": "uint256",
              "name": "attackSpeedIncrease",
              "type": "uint256"
            },
            {
              "internalType": "uint256",
              "name": "fighterId",
              "type": "uint256"
            },
            {
              "internalType": "uint256",
              "name": "lastUpdBlock",
              "type": "uint256"
            },
            {
              "internalType": "uint256",
              "name": "itemRarityLevel",
              "type": "uint256"
            },
            {
              "internalType": "uint256",
              "name": "itemAttributesId",
              "type": "uint256"
            },
            {
              "internalType": "bool",
              "name": "luck",
              "type": "bool"
            },
            {
              "internalType": "bool",
              "name": "skill",
              "type": "bool"
            },
            {
              "internalType": "bool",
              "name": "isBox",
              "type": "bool"
            },
            {
              "internalType": "bool",
              "name": "isWeapon",
              "type": "bool"
            },
            {
              "internalType": "bool",
              "name": "isArmour",
              "type": "bool"
            },
            {
              "internalType": "bool",
              "name": "isJewel",
              "type": "bool"
            },
            {
              "internalType": "bool",
              "name": "isMisc",
              "type": "bool"
            },
            {
              "internalType": "bool",
              "name": "isConsumable",
              "type": "bool"
            },
            {
              "internalType": "bool",
              "name": "inShop",
              "type": "bool"
            }
          ],
          "internalType": "struct ItemAtts.ItemAttributes",
          "name": "itemAtts",
          "type": "tuple"
        },
        {
          "internalType": "uint256",
          "name": "dropBlock",
          "type": "uint256"
        },
        {
          "internalType": "uint256",
          "name": "fighterId",
          "type": "uint256"
        }
      ],
      "name": "pickupItem",
      "outputs": [],
      "stateMutability": "nonpayable",
      "type": "function"
    }
  ],
  "bytecode": "0x60806040526064600055601c60015560326002556032600355601e600455601e60055560026006556001600755600060085534801561003d57600080fd5b50604051620014353803806200143583398101604081905261005e916100bf565b600980546001600160a01b039384166001600160a01b031991821617909155600a805492841692821692909217909155600b8054939092169216919091179055610102565b80516001600160a01b03811681146100ba57600080fd5b919050565b6000806000606084860312156100d457600080fd5b6100dd846100a3565b92506100eb602085016100a3565b91506100f9604085016100a3565b90509250925092565b61132380620001126000396000f3fe608060405234801561001057600080fd5b50600436106100365760003560e01c80633803ac191461003b578063a4fc7a7e14610050575b600080fd5b61004e61004936600461077b565b610063565b005b61004e61005e366004610af9565b6103fc565b60095460405163f108ff2b60e01b8152600481018690526000916001600160a01b03169063f108ff2b906024016020604051808303816000875af11580156100af573d6000803e3d6000fd5b505050506040513d601f19601f820116820180604052508101906100d39190610b12565b9050600081116101205760405162461bcd60e51b8152602060048201526013602482015272125d195b481a185cda081b9bdd08199bdd5b99606a1b60448201526064015b60405180910390fd5b600084828560405160200161013793929190610e52565b6040516020818303038152906040528051906020012090508581146101965760405162461bcd60e51b8152602060048201526015602482015274092e8cada40d0c2e6d040c8decae6e840dac2e8c6d605b1b6044820152606401610117565b600b5460405163620d1b0560e11b8152600481018590526000916001600160a01b03169063c41a360a90602401602060405180830381865afa1580156101e0573d6000803e3d6000fd5b505050506040513d601f19601f820116820180604052508101906102049190610e77565b9050600754866106a00151036102c357600a5460405163edf52d1360e01b81526001600160a01b038381166004830152602482018690529091169063edf52d1390604401600060405180830381600087803b15801561026257600080fd5b505af1158015610276573d6000803e3d6000fd5b5050600654604080519182526020820188905281018690527fbde402c68999d1d437511b74f215440675c9dfb8e45b6755d7e2ffd6ffd60b2d9250606001905060405180910390a16103f3565b6009546040516340d097c360e01b81526001600160a01b03838116600483015260009216906340d097c3906024016020604051808303816000875af1158015610310573d6000803e3d6000fd5b505050506040513d601f19601f820116820180604052508101906103349190610b12565b60208801819052610640880186905243610660890152600954604051633acdafe760e21b81529192506001600160a01b03169063eb36bf9c9061037d9084908b90600401610ea7565b600060405180830381600087803b15801561039757600080fd5b505af11580156103ab573d6000803e3d6000fd5b505060408051848152602081018990529081018790527fbde402c68999d1d437511b74f215440675c9dfb8e45b6755d7e2ffd6ffd60b2d9250606001905060405180910390a1505b50505050505050565b60095460405163843bd64160e01b8152600481018390526001600160a01b039091169063843bd641906024016020604051808303816000875af1158015610447573d6000803e3d6000fd5b505050506040513d601f19601f8201168201806040525081019061046b9190610ed3565b6104a95760405162461bcd60e51b815260206004820152600f60248201526e151bdad95b881b9bdd08199bdd5b99608a1b6044820152606401610117565b600954604051631f4f5a2360e01b8152600481018390526001916000916001600160a01b0390911690631f4f5a23906024016000604051808303816000875af11580156104fa573d6000803e3d6000fd5b505050506040513d6000823e601f3d908101601f191682016040526105229190810190610f35565b600061064082018190526020808301829052604051929350909161054d918491600191439101611299565b60408051808303601f190181529082905280516020909101206009546324b9c59560e01b835260048301829052600160248401529092506001600160a01b0316906324b9c59590604401600060405180830381600087803b1580156105b157600080fd5b505af11580156105c5573d6000803e3d6000fd5b505060095460405163576cc0f760e01b8152600481018890526001600160a01b03909116925063576cc0f79150602401600060405180830381600087803b15801561060f57600080fd5b505af1158015610623573d6000803e3d6000fd5b505050507f8c7e10f93ffce1b28fb12d412f03f7ae4d9e50e99bc79bf43cba6139ced3a129818360018760405161065d94939291906112c1565b60405180910390a150505050565b634e487b7160e01b600052604160045260246000fd5b6040516107e0810167ffffffffffffffff811182821017156106a5576106a561066b565b60405290565b604051601f8201601f1916810167ffffffffffffffff811182821017156106d4576106d461066b565b604052919050565b600067ffffffffffffffff8211156106f6576106f661066b565b50601f01601f191660200190565b600082601f83011261071557600080fd5b8135610728610723826106dc565b6106ab565b81815284602083860101111561073d57600080fd5b816020850160208301376000918101602001919091529392505050565b801515811461076857600080fd5b50565b80356107768161075a565b919050565b6000806000806080858703121561079157600080fd5b84359350602085013567ffffffffffffffff808211156107b057600080fd5b908601906107e082890312156107c557600080fd5b6107cd610681565b8235828111156107dc57600080fd5b6107e88a828601610704565b8252506020838101359082015260408084013590820152606080840135908201526080808401359082015260a0808401359082015260c0808401359082015260e08084013590820152610100808401359082015261012080840135908201526101408084013590820152610160808401359082015261018080840135908201526101a080840135908201526101c080840135908201526101e08084013590820152610200808401359082015261022080840135908201526102408084013590820152610260808401359082015261028080840135908201526102a080840135908201526102c080840135908201526102e08084013590820152610300808401359082015261032080840135908201526103408084013590820152610360808401359082015261038080840135908201526103a080840135908201526103c080840135908201526103e08084013590820152610400808401359082015261042080840135908201526104408084013590820152610460808401359082015261048080840135908201526104a080840135908201526104c080840135908201526104e08084013590820152610500808401359082015261052080840135908201526105408084013590820152610560808401359082015261058080840135908201526105a080840135908201526105c080840135908201526105e08084013590820152610600808401359082015261062080840135908201526106408084013590820152610660808401359082015261068080840135908201526106a080840135908201526106c09150610a3b82840161076b565b828201526106e09150610a4f82840161076b565b828201526107009150610a6382840161076b565b828201526107209150610a7782840161076b565b828201526107409150610a8b82840161076b565b828201526107609150610a9f82840161076b565b828201526107809150610ab382840161076b565b828201526107a09150610ac782840161076b565b828201526107c09150610adb82840161076b565b91810191909152949794965050505060408301359260600135919050565b600060208284031215610b0b57600080fd5b5035919050565b600060208284031215610b2457600080fd5b5051919050565b60005b83811015610b46578181015183820152602001610b2e565b50506000910152565b60008151808452610b67816020860160208601610b2b565b601f01601f19169290920160200192915050565b60006107e08251818552610b9182860182610b4f565b6020858101519087015260408086015190870152606080860151908701526080808601519087015260a0808601519087015260c0808601519087015260e08086015190870152610100808601519087015261012080860151908701526101408086015190870152610160808601519087015261018080860151908701526101a080860151908701526101c080860151908701526101e08086015190870152610200808601519087015261022080860151908701526102408086015190870152610260808601519087015261028080860151908701526102a080860151908701526102c080860151908701526102e08086015190870152610300808601519087015261032080860151908701526103408086015190870152610360808601519087015261038080860151908701526103a080860151908701526103c080860151908701526103e08086015190870152610400808601519087015261042080860151908701526104408086015190870152610460808601519087015261048080860151908701526104a080860151908701526104c080860151908701526104e08086015190870152610500808601519087015261052080860151908701526105408086015190870152610560808601519087015261058080860151908701526105a080860151908701526105c080860151908701526105e08086015190870152610600808601519087015261062080860151908701526106408086015190870152610660808601519087015261068080860151908701526106a080860151908701526106c0808601511515908701526106e08086015115159087015261070080860151151590870152610720808601511515908701526107408086015115159087015261076080860151151590870152610780808601511515908701526107a0808601511515908701526107c09485015115159490950193909352509192915050565b606081526000610e656060830186610b7b565b60208301949094525060400152919050565b600060208284031215610e8957600080fd5b81516001600160a01b0381168114610ea057600080fd5b9392505050565b828152604060208201526000610ec06040830184610b7b565b949350505050565b80516107768161075a565b600060208284031215610ee557600080fd5b8151610ea08161075a565b600082601f830112610f0157600080fd5b8151610f0f610723826106dc565b818152846020838601011115610f2457600080fd5b610ec0826020830160208701610b2b565b600060208284031215610f4757600080fd5b815167ffffffffffffffff80821115610f5f57600080fd5b908301906107e08286031215610f7457600080fd5b610f7c610681565b825182811115610f8b57600080fd5b610f9787828601610ef0565b8252506020838101519082015260408084015190820152606080840151908201526080808401519082015260a0808401519082015260c0808401519082015260e08084015190820152610100808401519082015261012080840151908201526101408084015190820152610160808401519082015261018080840151908201526101a080840151908201526101c080840151908201526101e08084015190820152610200808401519082015261022080840151908201526102408084015190820152610260808401519082015261028080840151908201526102a080840151908201526102c080840151908201526102e08084015190820152610300808401519082015261032080840151908201526103408084015190820152610360808401519082015261038080840151908201526103a080840151908201526103c080840151908201526103e08084015190820152610400808401519082015261042080840151908201526104408084015190820152610460808401519082015261048080840151908201526104a080840151908201526104c080840151908201526104e08084015190820152610500808401519082015261052080840151908201526105408084015190820152610560808401519082015261058080840151908201526105a080840151908201526105c080840151908201526105e08084015190820152610600808401519082015261062080840151908201526106408084015190820152610660808401519082015261068080840151908201526106a080840151908201526106c091506111ea828401610ec8565b828201526106e091506111fe828401610ec8565b828201526107009150611212828401610ec8565b828201526107209150611226828401610ec8565b82820152610740915061123a828401610ec8565b82820152610760915061124e828401610ec8565b828201526107809150611262828401610ec8565b828201526107a09150611276828401610ec8565b828201526107c0915061128a828401610ec8565b91810191909152949350505050565b6060815260006112ac6060830186610b7b565b60ff9490941660208301525060400152919050565b8481526080602082015260006112da6080830186610b7b565b604083019490945250606001529291505056fea2646970667358221220ccd491c69b2a61ee3a571bb6ab9c4533cdda35c861abf75845de96048b60c41e64736f6c63430008130033",
  "immutableReferences": {},
  "source": "// SPDX-License-Identifier: MIT\npragma solidity ^0.8.18;\n\nimport \"./FighterHelper.sol\";\nimport \"./MoneyHelper.sol\";\nimport \"./ItemsHelper.sol\";\n\ncontract Backpack is ItemAtts { \n    ItemsHelper private _itemsHelper;\n    MoneyHelper private _moneyHelper;\n    FighterHelper private _fighterHelper;\n\n\n    constructor ( address fighterHelperContract, address itemsHelperContract, address moneyHelperContract ) {\n        _itemsHelper = ItemsHelper(itemsHelperContract);\n        _moneyHelper = MoneyHelper(moneyHelperContract);\n        _fighterHelper = FighterHelper(fighterHelperContract);\n    }\n\n    event BackpackItemDropped(bytes32 itemHash, ItemAttributes item, uint256 qty, uint256 tokenId);\n    event ItemPicked(uint256 tokenId, uint256 fighterId, uint256 qty);\n\n    function dropBackpackItem(uint256 tokenId) external {\n        require(_itemsHelper.itemExists(tokenId), \"Token not found\");\n        uint256 qty = 1;\n\n        ItemAttributes memory tokenAttributes = _itemsHelper.getTokenAttributes(tokenId);\n\n        tokenAttributes.fighterId = 0;\n        tokenAttributes.tokenId = 0;\n\n        bytes32 itemHash = keccak256(abi.encode(tokenAttributes, 1, block.number));\n        _itemsHelper.createDropHash(itemHash, 1);\n\n        _itemsHelper.burnItem(tokenId);\n        emit BackpackItemDropped(itemHash, tokenAttributes, 1, tokenId);\n    }\n\n    function pickupItem(bytes32 itemHash, ItemAttributes memory itemAtts, uint256 dropBlock, uint256 fighterId) external {\n        uint256 dropQty = _itemsHelper.getDropQty(itemHash);\n        require(dropQty > 0, \"Item hash not found\");\n\n        bytes32 genHash = keccak256(abi.encode(itemAtts, dropQty, dropBlock));\n        require(genHash == itemHash, \"Item hash doest match\");\n\n        address fighterOwner = _fighterHelper.getOwner(fighterId);\n        \n\n        if (itemAtts.itemAttributesId == goldItemId) {\n            \n            _moneyHelper.mintGold(fighterOwner, dropQty);\n            emit ItemPicked(goldTokenId, fighterId, dropQty);\n            \n        } else {\n            uint256 newTokenId = _itemsHelper.safeMint(fighterOwner);\n\n            \n\n            itemAtts.tokenId = newTokenId;      \n            itemAtts.fighterId = fighterId;      \n            itemAtts.lastUpdBlock = block.number; \n\n            _itemsHelper.setTokenAttributes(newTokenId, itemAtts);\n            emit ItemPicked(newTokenId, fighterId, dropQty);\n            \n        } \n    }\n}",
  "sourcePath": "/Users/max/Documents/prog/game-contracts/contracts/Backpack.sol",
  "compiler": {
    "name": "solc",
    "version": "0.8.19+commit.7dd6d404.Emscripten.clang"
  },
  "schemaVersion": "3.4.13",
  "updatedAt": "2023-07-25T15:06:12.093Z",
  "networkType": "ethereum",
  "devdoc": {
    "kind": "dev",
    "methods": {},
    "version": 1
  },
  "userdoc": {
    "kind": "user",
    "methods": {},
    "version": 1
  }
}