{
  "contractName": "BackpackHelper",
  "abi": [
    {
      "inputs": [
        {
          "internalType": "address",
          "name": "backpackAddress",
          "type": "address"
        }
      ],
      "stateMutability": "nonpayable",
      "type": "constructor"
    },
    {
      "inputs": [
        {
          "internalType": "uint256",
          "name": "tokenId",
          "type": "uint256"
        }
      ],
      "name": "dropBackpackItem",
      "outputs": [],
      "stateMutability": "nonpayable",
      "type": "function"
    },
    {
      "inputs": [
        {
          "internalType": "bytes32",
          "name": "itemHash",
          "type": "bytes32"
        },
        {
          "components": [
            {
              "internalType": "string",
              "name": "name",
              "type": "string"
            },
            {
              "internalType": "uint256",
              "name": "tokenId",
              "type": "uint256"
            },
            {
              "internalType": "uint256",
              "name": "itemLevel",
              "type": "uint256"
            },
            {
              "internalType": "uint256",
              "name": "maxLevel",
              "type": "uint256"
            },
            {
              "internalType": "uint256",
              "name": "durability",
              "type": "uint256"
            },
            {
              "internalType": "uint256",
              "name": "classRequired",
              "type": "uint256"
            },
            {
              "internalType": "uint256",
              "name": "strengthRequired",
              "type": "uint256"
            },
            {
              "internalType": "uint256",
              "name": "agilityRequired",
              "type": "uint256"
            },
            {
              "internalType": "uint256",
              "name": "energyRequired",
              "type": "uint256"
            },
            {
              "internalType": "uint256",
              "name": "vitalityRequired",
              "type": "uint256"
            },
            {
              "internalType": "uint256",
              "name": "itemWidth",
              "type": "uint256"
            },
            {
              "internalType": "uint256",
              "name": "itemHeight",
              "type": "uint256"
            },
            {
              "internalType": "uint256",
              "name": "acceptableSlot1",
              "type": "uint256"
            },
            {
              "internalType": "uint256",
              "name": "acceptableSlot2",
              "type": "uint256"
            },
            {
              "internalType": "uint256",
              "name": "baseMinPhysicalDamage",
              "type": "uint256"
            },
            {
              "internalType": "uint256",
              "name": "baseMaxPhysicalDamage",
              "type": "uint256"
            },
            {
              "internalType": "uint256",
              "name": "baseMinMagicDamage",
              "type": "uint256"
            },
            {
              "internalType": "uint256",
              "name": "baseMaxMagicDamage",
              "type": "uint256"
            },
            {
              "internalType": "uint256",
              "name": "baseDefense",
              "type": "uint256"
            },
            {
              "internalType": "uint256",
              "name": "attackSpeed",
              "type": "uint256"
            },
            {
              "internalType": "uint256",
              "name": "additionalDamage",
              "type": "uint256"
            },
            {
              "internalType": "uint256",
              "name": "additionalDefense",
              "type": "uint256"
            },
            {
              "internalType": "uint256",
              "name": "fighterId",
              "type": "uint256"
            },
            {
              "internalType": "uint256",
              "name": "lastUpdBlock",
              "type": "uint256"
            },
            {
              "internalType": "uint256",
              "name": "itemRarityLevel",
              "type": "uint256"
            },
            {
              "internalType": "uint256",
              "name": "itemAttributesId",
              "type": "uint256"
            },
            {
              "internalType": "uint256",
              "name": "packSize",
              "type": "uint256"
            },
            {
              "internalType": "bool",
              "name": "luck",
              "type": "bool"
            },
            {
              "internalType": "bool",
              "name": "skill",
              "type": "bool"
            },
            {
              "internalType": "bool",
              "name": "isPackable",
              "type": "bool"
            },
            {
              "internalType": "bool",
              "name": "isBox",
              "type": "bool"
            },
            {
              "internalType": "bool",
              "name": "isWeapon",
              "type": "bool"
            },
            {
              "internalType": "bool",
              "name": "isArmour",
              "type": "bool"
            },
            {
              "internalType": "bool",
              "name": "isJewel",
              "type": "bool"
            },
            {
              "internalType": "bool",
              "name": "isWings",
              "type": "bool"
            },
            {
              "internalType": "bool",
              "name": "isMisc",
              "type": "bool"
            },
            {
              "internalType": "bool",
              "name": "inShop",
              "type": "bool"
            },
            {
              "internalType": "uint256",
              "name": "increaseAttackSpeedPoints",
              "type": "uint256"
            },
            {
              "internalType": "uint256",
              "name": "reflectDamagePercent",
              "type": "uint256"
            },
            {
              "internalType": "uint256",
              "name": "restoreHPChance",
              "type": "uint256"
            },
            {
              "internalType": "uint256",
              "name": "restoreMPChance",
              "type": "uint256"
            },
            {
              "internalType": "uint256",
              "name": "doubleDamageChance",
              "type": "uint256"
            },
            {
              "internalType": "uint256",
              "name": "ignoreOpponentDefenseChance",
              "type": "uint256"
            },
            {
              "internalType": "uint256",
              "name": "lifeAfterMonsterIncrease",
              "type": "uint256"
            },
            {
              "internalType": "uint256",
              "name": "manaAfterMonsterIncrease",
              "type": "uint256"
            },
            {
              "internalType": "uint256",
              "name": "excellentDamageProbabilityIncrease",
              "type": "uint256"
            },
            {
              "internalType": "uint256",
              "name": "attackSpeedIncrease",
              "type": "uint256"
            },
            {
              "internalType": "uint256",
              "name": "attackLvl20",
              "type": "uint256"
            },
            {
              "internalType": "uint256",
              "name": "attackIncreasePercent",
              "type": "uint256"
            },
            {
              "internalType": "uint256",
              "name": "defenseSuccessRateIncrease",
              "type": "uint256"
            },
            {
              "internalType": "uint256",
              "name": "goldAfterMonsterIncrease",
              "type": "uint256"
            },
            {
              "internalType": "uint256",
              "name": "reflectDamage",
              "type": "uint256"
            },
            {
              "internalType": "uint256",
              "name": "maxLifeIncrease",
              "type": "uint256"
            },
            {
              "internalType": "uint256",
              "name": "maxManaIncrease",
              "type": "uint256"
            },
            {
              "internalType": "uint256",
              "name": "hpRecoveryRateIncrease",
              "type": "uint256"
            },
            {
              "internalType": "uint256",
              "name": "mpRecoveryRateIncrease",
              "type": "uint256"
            },
            {
              "internalType": "uint256",
              "name": "decreaseDamageRateIncrease",
              "type": "uint256"
            }
          ],
          "internalType": "struct ItemsExcellentAtts.ExcellentItemAtts",
          "name": "itemAtts",
          "type": "tuple"
        },
        {
          "internalType": "uint256",
          "name": "dropBlock",
          "type": "uint256"
        },
        {
          "internalType": "uint256",
          "name": "fighterId",
          "type": "uint256"
        }
      ],
      "name": "pickupItem",
      "outputs": [],
      "stateMutability": "nonpayable",
      "type": "function"
    }
  ],
  "bytecode": "0x60806040526064600055601c60015560326002556032600355601e600455601e60055560026006556001600755600060085534801561003d57600080fd5b50604051610a41380380610a4183398101604081905261005c91610081565b600980546001600160a01b0319166001600160a01b03929092169190911790556100b1565b60006020828403121561009357600080fd5b81516001600160a01b03811681146100aa57600080fd5b9392505050565b610981806100c06000396000f3fe608060405234801561001057600080fd5b50600436106100365760003560e01c80630fc66a4e1461003b578063a4fc7a7e14610050575b600080fd5b61004e610049366004610214565b610063565b005b61004e61005e36600461055a565b6100d1565b6009546040516307e3352760e11b81526001600160a01b0390911690630fc66a4e906100999087908790879087906004016105b9565b600060405180830381600087803b1580156100b357600080fd5b505af11580156100c7573d6000803e3d6000fd5b5050505050505050565b60095460405163527e3d3f60e11b8152600481018390526001600160a01b039091169063a4fc7a7e90602401600060405180830381600087803b15801561011757600080fd5b505af115801561012b573d6000803e3d6000fd5b5050505050565b634e487b7160e01b600052604160045260246000fd5b604051610720810167ffffffffffffffff8111828210171561016c5761016c610132565b60405290565b600082601f83011261018357600080fd5b813567ffffffffffffffff8082111561019e5761019e610132565b604051601f8301601f19908116603f011681019082821181831017156101c6576101c6610132565b816040528381528660208588010111156101df57600080fd5b836020870160208301376000602085830101528094505050505092915050565b8035801515811461020f57600080fd5b919050565b6000806000806080858703121561022a57600080fd5b84359350602085013567ffffffffffffffff8082111561024957600080fd5b90860190610720828903121561025e57600080fd5b610266610148565b82358281111561027557600080fd5b6102818a828601610172565b8252506020838101359082015260408084013590820152606080840135908201526080808401359082015260a0808401359082015260c0808401359082015260e08084013590820152610100808401359082015261012080840135908201526101408084013590820152610160808401359082015261018080840135908201526101a080840135908201526101c080840135908201526101e08084013590820152610200808401359082015261022080840135908201526102408084013590820152610260808401359082015261028080840135908201526102a080840135908201526102c080840135908201526102e0808401359082015261030080840135908201526103208084013590820152610340808401359082015261036091506103ab8284016101ff565b8282015261038091506103bf8284016101ff565b828201526103a091506103d38284016101ff565b828201526103c091506103e78284016101ff565b828201526103e091506103fb8284016101ff565b82820152610400915061040f8284016101ff565b8282015261042091506104238284016101ff565b8282015261044091506104378284016101ff565b82820152610460915061044b8284016101ff565b82820152610480915061045f8284016101ff565b918101919091526104a082810135908201526104c080830135908201526104e08083013590820152610500808301359082015261052080830135908201526105408083013590820152610560808301359082015261058080830135908201526105a080830135908201526105c080830135908201526105e08083013590820152610600808301359082015261062080830135908201526106408083013590820152610660808301359082015261068080830135908201526106a080830135908201526106c080830135908201526106e08083013590820152610700918201359181019190915293969395505050506040820135916060013590565b60006020828403121561056c57600080fd5b5035919050565b6000815180845260005b818110156105995760208185018101518683018201520161057d565b506000602082860101526020601f19601f83011685010191505092915050565b84815260806020820152600084516107208060808501526105de6107a0850183610573565b602088015160a086810191909152604089015160c08088019190915260608a015160e08089019190915260808b0151610100808a0191909152928b0151610120808a0191909152918b0151610140808a0191909152908b0151610160808a0191909152928b0151610180808a0191909152918b01516101a0808a0191909152908b01516101c0808a0191909152928b01516101e0808a0191909152918b0151610200808a0191909152908b0151610220808a0191909152928b0151610240808a0191909152918b0151610260808a0191909152908b0151610280808a0191909152928b01516102a0808a0191909152918b01516102c0808a0191909152908b01516102e0808a0191909152928b0151610300808a0191909152918b0151610320808a0191909152908b0151610340808a0191909152928b0151610360808a0191909152918b0151610380808a0191909152908b01516103a0808a0191909152928b01516103c0808a0191909152918b015193955091906103e0610764818a018615159052565b928b015193506104009261077b8985018615159052565b918b01519350610420916107928984018615159052565b908b01519350610440906107a98983018615159052565b8b015193506104606107be8982018615159052565b928b01519350610480926107d58985018615159052565b918b015193506104a0916107ec8984018615159052565b908b015193506104c0906108038983018615159052565b8b015193506104e06108188982018615159052565b928b015193506105009261082f8985018615159052565b918b015161052089810191909152908b0151610540808a0191909152918b0151610560808a0191909152928b0151610580808a0191909152908b01516105a0808a0191909152918b01516105c0808a0191909152928b01516105e0808a0191909152908b0151610600808a0191909152918b0151610620808a0191909152928b0151610640808a0191909152908b0151610660808a0191909152918b0151610680808a0191909152928b01516106a0808a0191909152908b01516106c0808a0191909152918b01516106e0808a0191909152928b0151610700808a0191909152908b015194880194909452890151610740870152880151610760860152509095015161078083015250604081019290925260609091015291905056fea2646970667358221220a4014d7261e50801631d07840c896557917c44e1322f9c308dfdfecf767218e464736f6c63430008130033",
  "immutableReferences": {},
  "source": "// SPDX-License-Identifier: MIT\npragma solidity ^0.8.18;\nimport \"./Backpack.sol\";\nimport \"./ItemsExcellentAtts.sol\";\ncontract BackpackHelper is ItemsExcellentAtts {\n    Backpack private _backpack;\n\n    constructor(address backpackAddress) {\n        _backpack = Backpack(backpackAddress);\n    }    \n\n    function dropBackpackItem(uint256 tokenId) external {\n        return _backpack.dropBackpackItem(tokenId);\n    }\n\n    function pickupItem(bytes32 itemHash, ExcellentItemAtts memory itemAtts, uint256 dropBlock, uint256 fighterId) external {\n        return _backpack.pickupItem(itemHash, itemAtts, dropBlock, fighterId);\n    }\n}",
  "sourcePath": "/Users/max/Documents/prog/game-contracts/contracts/BackpackHelper.sol",
  "compiler": {
    "name": "solc",
    "version": "0.8.19+commit.7dd6d404.Emscripten.clang"
  },
  "schemaVersion": "3.4.13",
  "updatedAt": "2023-08-01T05:39:18.071Z",
  "networkType": "ethereum",
  "devdoc": {
    "kind": "dev",
    "methods": {},
    "version": 1
  },
  "userdoc": {
    "kind": "user",
    "methods": {},
    "version": 1
  }
}