{
  "contractName": "Backpack",
  "abi": [
    {
      "inputs": [
        {
          "internalType": "address",
          "name": "fightersHelperContract",
          "type": "address"
        },
        {
          "internalType": "address",
          "name": "itemsHelperContract",
          "type": "address"
        },
        {
          "internalType": "address",
          "name": "moneyHelperContract",
          "type": "address"
        },
        {
          "internalType": "address",
          "name": "dropHelperContract",
          "type": "address"
        }
      ],
      "stateMutability": "nonpayable",
      "type": "constructor"
    },
    {
      "anonymous": false,
      "inputs": [
        {
          "indexed": false,
          "internalType": "bytes32",
          "name": "itemHash",
          "type": "bytes32"
        },
        {
          "components": [
            {
              "internalType": "string",
              "name": "name",
              "type": "string"
            },
            {
              "internalType": "uint256",
              "name": "tokenId",
              "type": "uint256"
            },
            {
              "internalType": "uint256",
              "name": "itemLevel",
              "type": "uint256"
            },
            {
              "internalType": "uint256",
              "name": "maxLevel",
              "type": "uint256"
            },
            {
              "internalType": "uint256",
              "name": "additionalDamage",
              "type": "uint256"
            },
            {
              "internalType": "uint256",
              "name": "additionalDefense",
              "type": "uint256"
            },
            {
              "internalType": "uint256",
              "name": "fighterId",
              "type": "uint256"
            },
            {
              "internalType": "uint256",
              "name": "lastUpdBlock",
              "type": "uint256"
            },
            {
              "internalType": "uint256",
              "name": "itemRarityLevel",
              "type": "uint256"
            },
            {
              "internalType": "uint256",
              "name": "packSize",
              "type": "uint256"
            },
            {
              "internalType": "bool",
              "name": "luck",
              "type": "bool"
            },
            {
              "internalType": "bool",
              "name": "skill",
              "type": "bool"
            },
            {
              "internalType": "bool",
              "name": "isPackable",
              "type": "bool"
            },
            {
              "internalType": "bool",
              "name": "isBox",
              "type": "bool"
            },
            {
              "internalType": "bool",
              "name": "isWeapon",
              "type": "bool"
            },
            {
              "internalType": "bool",
              "name": "isArmour",
              "type": "bool"
            },
            {
              "internalType": "bool",
              "name": "isJewel",
              "type": "bool"
            },
            {
              "internalType": "bool",
              "name": "isWings",
              "type": "bool"
            },
            {
              "internalType": "bool",
              "name": "isMisc",
              "type": "bool"
            },
            {
              "internalType": "bool",
              "name": "isConsumable",
              "type": "bool"
            },
            {
              "internalType": "bool",
              "name": "inShop",
              "type": "bool"
            },
            {
              "internalType": "uint256",
              "name": "increaseAttackSpeedPoints",
              "type": "uint256"
            },
            {
              "internalType": "uint256",
              "name": "reflectDamagePercent",
              "type": "uint256"
            },
            {
              "internalType": "uint256",
              "name": "restoreHPChance",
              "type": "uint256"
            },
            {
              "internalType": "uint256",
              "name": "restoreMPChance",
              "type": "uint256"
            },
            {
              "internalType": "uint256",
              "name": "doubleDamageChance",
              "type": "uint256"
            },
            {
              "internalType": "uint256",
              "name": "ignoreOpponentDefenseChance",
              "type": "uint256"
            },
            {
              "internalType": "uint256",
              "name": "lifeAfterMonsterIncrease",
              "type": "uint256"
            },
            {
              "internalType": "uint256",
              "name": "manaAfterMonsterIncrease",
              "type": "uint256"
            },
            {
              "internalType": "uint256",
              "name": "excellentDamageProbabilityIncrease",
              "type": "uint256"
            },
            {
              "internalType": "uint256",
              "name": "attackSpeedIncrease",
              "type": "uint256"
            },
            {
              "internalType": "uint256",
              "name": "attackLvl20",
              "type": "uint256"
            },
            {
              "internalType": "uint256",
              "name": "attackIncreasePercent",
              "type": "uint256"
            },
            {
              "internalType": "uint256",
              "name": "defenseSuccessRateIncrease",
              "type": "uint256"
            },
            {
              "internalType": "uint256",
              "name": "goldAfterMonsterIncrease",
              "type": "uint256"
            },
            {
              "internalType": "uint256",
              "name": "reflectDamage",
              "type": "uint256"
            },
            {
              "internalType": "uint256",
              "name": "maxLifeIncrease",
              "type": "uint256"
            },
            {
              "internalType": "uint256",
              "name": "maxManaIncrease",
              "type": "uint256"
            },
            {
              "internalType": "uint256",
              "name": "hpRecoveryRateIncrease",
              "type": "uint256"
            },
            {
              "internalType": "uint256",
              "name": "mpRecoveryRateIncrease",
              "type": "uint256"
            },
            {
              "internalType": "uint256",
              "name": "decreaseDamageRateIncrease",
              "type": "uint256"
            }
          ],
          "indexed": false,
          "internalType": "struct ItemsExcellentAtts.ExcellentItemAtts",
          "name": "item",
          "type": "tuple"
        },
        {
          "indexed": false,
          "internalType": "uint256",
          "name": "qty",
          "type": "uint256"
        },
        {
          "indexed": false,
          "internalType": "uint256",
          "name": "tokenId",
          "type": "uint256"
        }
      ],
      "name": "BackpackItemDropped",
      "type": "event"
    },
    {
      "anonymous": false,
      "inputs": [
        {
          "indexed": false,
          "internalType": "uint256",
          "name": "tokenId",
          "type": "uint256"
        },
        {
          "indexed": false,
          "internalType": "uint256",
          "name": "fighterId",
          "type": "uint256"
        },
        {
          "indexed": false,
          "internalType": "uint256",
          "name": "qty",
          "type": "uint256"
        }
      ],
      "name": "ItemPicked",
      "type": "event"
    },
    {
      "inputs": [
        {
          "internalType": "uint256",
          "name": "seed",
          "type": "uint256"
        }
      ],
      "name": "getRandomNumber",
      "outputs": [
        {
          "internalType": "uint256",
          "name": "",
          "type": "uint256"
        }
      ],
      "stateMutability": "view",
      "type": "function",
      "constant": true
    },
    {
      "inputs": [
        {
          "internalType": "uint256",
          "name": "seed",
          "type": "uint256"
        },
        {
          "internalType": "uint256",
          "name": "maxNum",
          "type": "uint256"
        }
      ],
      "name": "getRandomNumberMax",
      "outputs": [
        {
          "internalType": "uint256",
          "name": "",
          "type": "uint256"
        }
      ],
      "stateMutability": "view",
      "type": "function",
      "constant": true
    },
    {
      "inputs": [
        {
          "internalType": "uint256",
          "name": "a",
          "type": "uint256"
        },
        {
          "internalType": "uint256",
          "name": "b",
          "type": "uint256"
        }
      ],
      "name": "max",
      "outputs": [
        {
          "internalType": "uint256",
          "name": "",
          "type": "uint256"
        }
      ],
      "stateMutability": "view",
      "type": "function",
      "constant": true
    },
    {
      "inputs": [
        {
          "internalType": "uint256",
          "name": "a",
          "type": "uint256"
        },
        {
          "internalType": "uint256",
          "name": "b",
          "type": "uint256"
        }
      ],
      "name": "min",
      "outputs": [
        {
          "internalType": "uint256",
          "name": "",
          "type": "uint256"
        }
      ],
      "stateMutability": "view",
      "type": "function",
      "constant": true
    },
    {
      "inputs": [
        {
          "internalType": "uint256",
          "name": "a",
          "type": "uint256"
        },
        {
          "internalType": "uint256",
          "name": "b",
          "type": "uint256"
        }
      ],
      "name": "safeAdd",
      "outputs": [
        {
          "internalType": "uint256",
          "name": "",
          "type": "uint256"
        }
      ],
      "stateMutability": "view",
      "type": "function",
      "constant": true
    },
    {
      "inputs": [
        {
          "internalType": "uint256",
          "name": "a",
          "type": "uint256"
        },
        {
          "internalType": "uint256",
          "name": "b",
          "type": "uint256"
        }
      ],
      "name": "safeMul",
      "outputs": [
        {
          "internalType": "uint256",
          "name": "",
          "type": "uint256"
        }
      ],
      "stateMutability": "view",
      "type": "function",
      "constant": true
    },
    {
      "inputs": [
        {
          "internalType": "uint256",
          "name": "a",
          "type": "uint256"
        },
        {
          "internalType": "uint256",
          "name": "b",
          "type": "uint256"
        }
      ],
      "name": "safeSub",
      "outputs": [
        {
          "internalType": "uint256",
          "name": "",
          "type": "uint256"
        }
      ],
      "stateMutability": "view",
      "type": "function",
      "constant": true
    },
    {
      "inputs": [
        {
          "internalType": "string",
          "name": "a",
          "type": "string"
        },
        {
          "internalType": "string",
          "name": "b",
          "type": "string"
        }
      ],
      "name": "stringsEqual",
      "outputs": [
        {
          "internalType": "bool",
          "name": "",
          "type": "bool"
        }
      ],
      "stateMutability": "view",
      "type": "function",
      "constant": true
    },
    {
      "inputs": [
        {
          "internalType": "uint256",
          "name": "tokenId",
          "type": "uint256"
        },
        {
          "internalType": "uint256",
          "name": "qty",
          "type": "uint256"
        }
      ],
      "name": "dropBackpackItem",
      "outputs": [],
      "stateMutability": "nonpayable",
      "type": "function"
    },
    {
      "inputs": [
        {
          "internalType": "bytes32",
          "name": "itemHash",
          "type": "bytes32"
        },
        {
          "components": [
            {
              "internalType": "string",
              "name": "name",
              "type": "string"
            },
            {
              "internalType": "uint256",
              "name": "tokenId",
              "type": "uint256"
            },
            {
              "internalType": "uint256",
              "name": "itemLevel",
              "type": "uint256"
            },
            {
              "internalType": "uint256",
              "name": "maxLevel",
              "type": "uint256"
            },
            {
              "internalType": "uint256",
              "name": "additionalDamage",
              "type": "uint256"
            },
            {
              "internalType": "uint256",
              "name": "additionalDefense",
              "type": "uint256"
            },
            {
              "internalType": "uint256",
              "name": "fighterId",
              "type": "uint256"
            },
            {
              "internalType": "uint256",
              "name": "lastUpdBlock",
              "type": "uint256"
            },
            {
              "internalType": "uint256",
              "name": "itemRarityLevel",
              "type": "uint256"
            },
            {
              "internalType": "uint256",
              "name": "packSize",
              "type": "uint256"
            },
            {
              "internalType": "bool",
              "name": "luck",
              "type": "bool"
            },
            {
              "internalType": "bool",
              "name": "skill",
              "type": "bool"
            },
            {
              "internalType": "bool",
              "name": "isPackable",
              "type": "bool"
            },
            {
              "internalType": "bool",
              "name": "isBox",
              "type": "bool"
            },
            {
              "internalType": "bool",
              "name": "isWeapon",
              "type": "bool"
            },
            {
              "internalType": "bool",
              "name": "isArmour",
              "type": "bool"
            },
            {
              "internalType": "bool",
              "name": "isJewel",
              "type": "bool"
            },
            {
              "internalType": "bool",
              "name": "isWings",
              "type": "bool"
            },
            {
              "internalType": "bool",
              "name": "isMisc",
              "type": "bool"
            },
            {
              "internalType": "bool",
              "name": "isConsumable",
              "type": "bool"
            },
            {
              "internalType": "bool",
              "name": "inShop",
              "type": "bool"
            },
            {
              "internalType": "uint256",
              "name": "increaseAttackSpeedPoints",
              "type": "uint256"
            },
            {
              "internalType": "uint256",
              "name": "reflectDamagePercent",
              "type": "uint256"
            },
            {
              "internalType": "uint256",
              "name": "restoreHPChance",
              "type": "uint256"
            },
            {
              "internalType": "uint256",
              "name": "restoreMPChance",
              "type": "uint256"
            },
            {
              "internalType": "uint256",
              "name": "doubleDamageChance",
              "type": "uint256"
            },
            {
              "internalType": "uint256",
              "name": "ignoreOpponentDefenseChance",
              "type": "uint256"
            },
            {
              "internalType": "uint256",
              "name": "lifeAfterMonsterIncrease",
              "type": "uint256"
            },
            {
              "internalType": "uint256",
              "name": "manaAfterMonsterIncrease",
              "type": "uint256"
            },
            {
              "internalType": "uint256",
              "name": "excellentDamageProbabilityIncrease",
              "type": "uint256"
            },
            {
              "internalType": "uint256",
              "name": "attackSpeedIncrease",
              "type": "uint256"
            },
            {
              "internalType": "uint256",
              "name": "attackLvl20",
              "type": "uint256"
            },
            {
              "internalType": "uint256",
              "name": "attackIncreasePercent",
              "type": "uint256"
            },
            {
              "internalType": "uint256",
              "name": "defenseSuccessRateIncrease",
              "type": "uint256"
            },
            {
              "internalType": "uint256",
              "name": "goldAfterMonsterIncrease",
              "type": "uint256"
            },
            {
              "internalType": "uint256",
              "name": "reflectDamage",
              "type": "uint256"
            },
            {
              "internalType": "uint256",
              "name": "maxLifeIncrease",
              "type": "uint256"
            },
            {
              "internalType": "uint256",
              "name": "maxManaIncrease",
              "type": "uint256"
            },
            {
              "internalType": "uint256",
              "name": "hpRecoveryRateIncrease",
              "type": "uint256"
            },
            {
              "internalType": "uint256",
              "name": "mpRecoveryRateIncrease",
              "type": "uint256"
            },
            {
              "internalType": "uint256",
              "name": "decreaseDamageRateIncrease",
              "type": "uint256"
            }
          ],
          "internalType": "struct ItemsExcellentAtts.ExcellentItemAtts",
          "name": "itemAtts",
          "type": "tuple"
        },
        {
          "internalType": "uint256",
          "name": "dropBlock",
          "type": "uint256"
        },
        {
          "internalType": "uint256",
          "name": "fighterId",
          "type": "uint256"
        }
      ],
      "name": "pickupItem",
      "outputs": [],
      "stateMutability": "nonpayable",
      "type": "function"
    }
  ],
  "bytecode": "0x6080346100e857601f620013fe38819003918201601f19168301916001600160401b038311848410176100ed578084926080946040528339810103126100e85761004881610103565b61005460208301610103565b9161006d606061006660408401610103565b9201610103565b906064600055601c60015560326002556032600355601e600455601e60055560026006556001600755600060085560018060a01b03928380928160018060a01b031997168760095416176009551685600b541617600b551683600c541617600c551690600a541617600a556040516112e69081620001188239f35b600080fd5b634e487b7160e01b600052604160045260246000fd5b51906001600160a01b03821682036100e85756fe608080604052600436101561001357600080fd5b600090813560e01c9081629df65b14610e745750806305c7203d146107e357806313d19950146107825780636773a1dc1461024f5780636d5433e6146102295780637ae2b5c7146101fc578063a293d1e8146101ca578063b37217a414610150578063d05c78da146100eb5763e6cb90131461008e57600080fd5b346100e85761009c36610ef4565b9190828101918282116100d457506020926100c19183101590816100c9575b50611233565b604051908152f35b9050821015386100bb565b634e487b7160e01b81526011600452602490fd5b80fd5b50346100e8576100fa36610ef4565b808202918083049015938183148517156100d457848015610122575b6020856100c188611233565b909192945061013c57506020926100c19114923880610116565b634e487b7160e01b81526012600452602490fd5b50346100e85760203660031901126100e85760206064604051828101906101be816101b033424360043544899391609495939185526020850152604084015260608301526bffffffffffffffffffffffff199060601b1660808201520190565b03601f198101835282610f56565b51902006604051908152f35b50346100e8576101d936610ef4565b6101e882829493941115611233565b82039182116100d457602082604051908152f35b50346100e85760209061020e36610ef4565b909150808210156102225750604051908152f35b90506100c1565b50346100e85760209061023b36610ef4565b909150808211156102225750604051908152f35b50346100e8578061025f36610ef4565b60018060a01b0390816009541692604051809463843bd64160e01b825282600483015260209586918160249a8b925af1908115610777578691610742575b501561070c5784958584600954168260405180998193631f4f5a2360e01b83528760048401525af1958615610701578796610457575b5082610120870151106104145786908160c0880152818688015260405186810190610304816101b043898d87611211565b5190209480600a5416803b15610410578380916044604051809481936324b9c59560e01b83528c60048401528b898401525af19081156104055784916103f1575b50506009541690813b156103ed57829182916040518094819363576cc0f760e01b83528860048401525af180156103e2576103ca575b50506103b97f72aea803b8b1832bdfe74be20835e2e1d80eda5a1f89430a2bbf8b54974efe7e95608060405196879687528601526080850190611018565b91604084015260608301520390a180f35b6103d390610f42565b6103de57853861037b565b8580fd5b6040513d84823e3d90fd5b8280fd5b6103fa90610f42565b6103ed578238610345565b6040513d86823e3d90fd5b8380fd5b8460196064926040519262461bcd60e51b845260048401528201527f517479206c6172676572207468616e207061636b2073697a65000000000000006044820152fd5b9095503d8088833e6104698183610f56565b810185828203126106fd57815167ffffffffffffffff928382116106f5570190610520828203126106f957604051926104a184610f0f565b82519081116106f557820181601f820112156106f55780516104c281610f78565b926104d06040519485610f56565b8184528982840101116106f1576104ec91898085019101610ff5565b8252858101518683015260408101516040830152606081015160608301526080810151608083015260a081015160a083015260c081015160c083015260e081015160e083015261010080820151908301526101208082015190830152610140610556818301610fe8565b90830152610160610568818301610fe8565b9083015261018061057a818301610fe8565b908301526101a061058c818301610fe8565b908301526101c061059e818301610fe8565b908301526101e06105b0818301610fe8565b908301526102006105c2818301610fe8565b908301526102206105d4818301610fe8565b908301526102406105e6818301610fe8565b908301526102606105f8818301610fe8565b9083015261028061060a818301610fe8565b908301526102a080820151908301526102c080820151908301526102e08082015190830152610300808201519083015261032080820151908301526103408082015190830152610360808201519083015261038080820151908301526103a080820151908301526103c080820151908301526103e08082015190830152610400808201519083015261042080820151908301526104408082015190830152610460808201519083015261048080820151908301526104a080820151908301526104c080820151908301526104e08082015190830152610500809101519082015294386102d3565b8a80fd5b8980fd5b8880fd5b8780fd5b6040513d89823e3d90fd5b60405162461bcd60e51b815260048101859052600f818801526e151bdad95b881b9bdd08199bdd5b99608a1b6044820152606490fd5b90508481813d8311610770575b6107598183610f56565b810103126103de5761076a90610fe8565b3861029d565b503d61074f565b6040513d88823e3d90fd5b50346100e85760403660031901126100e85767ffffffffffffffff6004358181116103ed576107b5903690600401610f94565b916024359182116100e85760206107d9846107d33660048701610f94565b90611250565b6040519015158152f35b50346100e85780600319608036820112610e71576004356024359167ffffffffffffffff8311610e6c57610520908336030112610e68576040519161082783610f0f565b80600401359067ffffffffffffffff8211610e645761084f6105049260043691840101610f94565b84526024810135602085015260448101356040850152606481013560608501526084810135608085015260a481013560a085015260c481013560c085015260e481013560e08501526101048101356101008501526101248101356101208501526108bc6101448201610fdb565b6101408501526108cf6101648201610fdb565b6101608501526108e26101848201610fdb565b6101808501526108f56101a48201610fdb565b6101a08501526109086101c48201610fdb565b6101c085015261091b6101e48201610fdb565b6101e085015261092e6102048201610fdb565b6102008501526109416102248201610fdb565b6102208501526109546102448201610fdb565b6102408501526109676102648201610fdb565b61026085015261097a6102848201610fdb565b6102808501526102a48101356102a08501526102c48101356102c08501526102e48101356102e08501526103048101356103008501526103248101356103208501526103448101356103408501526103648101356103608501526103848101356103808501526103a48101356103a08501526103c48101356103c08501526103e48101356103e08501526104048101356104008501526104248101356104208501526104448101356104408501526104648101356104608501526104848101356104808501526104a48101356104a08501526104c48101356104c08501526104e48101356104e08501520135610500830152600a5460405163f108ff2b60e01b8152600481018390529360209185916024918391906001600160a01b03165af1928315610405578493610e30575b508215610df5576040516020810190610ac9816101b0604435888887611211565b51902003610db857600c5460405163620d1b0560e11b815260643560048201529190602090839060249082906001600160a01b03165afa918215610405578492610d74575b508051604051906040820182811067ffffffffffffffff821117610d6057604052600482526311dbdb1960e21b602083015285939291610b4d91611250565b15610c045750600b546001600160a01b031690813b156103ed5760405163edf52d1360e01b81526001600160a01b039091166004820152602481018490529082908290604490829084905af180156103e257610bec575b50506006546040805191825260643560208301528101919091527fbde402c68999d1d437511b74f215440675c9dfb8e45b6755d7e2ffd6ffd60b2d9080606081015b0390a180f35b610bf590610f42565b610c00578138610ba4565b5080fd5b6009546040516340d097c360e01b81526001600160a01b0393841660048201529593949391926020928792602492849291165af1938415610d21578394610d2c575b506020810184905260643560c08201524360e08201526009546001600160a01b031690813b1561041057610ca18492839260405194858094819363a9ed8e2160e01b83528b6004840152604060248401526044830190611018565b03925af18015610d2157610cf0575b50604080519384526064356020850152830152907fbde402c68999d1d437511b74f215440675c9dfb8e45b6755d7e2ffd6ffd60b2d908060608101610be6565b91610d1b7fbde402c68999d1d437511b74f215440675c9dfb8e45b6755d7e2ffd6ffd60b2d93610f42565b91610cb0565b6040513d85823e3d90fd5b9093506020813d602011610d58575b81610d4860209383610f56565b810103126103ed57519238610c46565b3d9150610d3b565b634e487b7160e01b87526041600452602487fd5b9091506020813d602011610db0575b81610d9060209383610f56565b8101031261041057516001600160a01b0381168103610410579038610b0e565b3d9150610d83565b60405162461bcd60e51b8152602060048201526015602482015274092e8cada40d0c2e6d040c8decae6e840dac2e8c6d605b1b6044820152606490fd5b60405162461bcd60e51b8152602060048201526013602482015272125d195b481a185cda081b9bdd08199bdd5b99606a1b6044820152606490fd5b9092506020813d602011610e5c575b81610e4c60209383610f56565b8101031261041057519138610aa8565b3d9150610e3f565b8480fd5b5050fd5b505050fd5b50fd5b905034610c0057610e8436610ef4565b446020840190815260408401929092524360608085019190915242608085015233901b6bffffffffffffffffffffffff191660a084015291610ec98160b481016101b0565b519020908015610ee0576020925060405191068152f35b634e487b7160e01b83526012600452602483fd5b6040906003190112610f0a576004359060243590565b600080fd5b610520810190811067ffffffffffffffff821117610f2c57604052565b634e487b7160e01b600052604160045260246000fd5b67ffffffffffffffff8111610f2c57604052565b90601f8019910116810190811067ffffffffffffffff821117610f2c57604052565b67ffffffffffffffff8111610f2c57601f01601f191660200190565b81601f82011215610f0a57803590610fab82610f78565b92610fb96040519485610f56565b82845260208383010111610f0a57816000926020809301838601378301015290565b35908115158203610f0a57565b51908115158203610f0a57565b60005b8381106110085750506000910152565b8181015183820152602001610ff8565b90815191610520908183528351809284015261103e826105409560208787019101610ff5565b6020810151602084015260408101516040840152606081015160608401526080810151608084015260a081015160a084015260c081015160c084015260e081015160e0840152610100808201519084015261012080820151908401526101408082015115159084015261016080820151151590840152610180808201511515908401526101a0808201511515908401526101c0808201511515908401526101e08082015115159084015261020080820151151590840152610220808201511515908401526102408082015115159084015261026080820151151590840152610280808201511515908401526102a080820151908401526102c080820151908401526102e08082015190840152610300808201519084015261032080820151908401526103408082015190840152610360808201519084015261038080820151908401526103a080820151908401526103c080820151908401526103e08082015190840152610400808201519084015261042080820151908401526104408082015190840152610460808201519084015261048080820151908401526104a080820151908401526104c080820151908401526104e080820151908401526105008091015190830152601f8019910116010190565b61122960409295949395606083526060830190611018565b9460208201520152565b1561123a57565b634e487b7160e01b600052600160045260246000fd5b906040519160209261127e8482816112718183019687815193849201610ff5565b8101038084520182610f56565b5190209161129e6040519182816112718183019687815193849201610ff5565b519020036112ab57600190565b60009056fea264697066735822122087e889a314a445b41671061425300e722db894f1c0b5a24ee7ff4c4a1ad7c2d264736f6c63430008130033",
  "immutableReferences": {},
  "source": "// SPDX-License-Identifier: MIT\npragma solidity ^0.8.18;\n\nimport \"./SafeMath.sol\";\nimport \"./FightersHelper.sol\";\nimport \"./MoneyHelper.sol\";\nimport \"./ItemsHelper.sol\";\nimport \"./DropHelper.sol\";\n\ncontract Backpack is ItemsExcellentAtts, SafeMath { \n    ItemsHelper private _itemsHelper;\n    DropHelper private _dropHelper;\n    MoneyHelper private _moneyHelper;\n    FightersHelper private _fightersHelper;\n\n\n    constructor ( address fightersHelperContract, address itemsHelperContract, address moneyHelperContract, address dropHelperContract ) {\n        _itemsHelper = ItemsHelper(itemsHelperContract);\n        _moneyHelper = MoneyHelper(moneyHelperContract);\n        _fightersHelper = FightersHelper(fightersHelperContract);\n        _dropHelper = DropHelper(dropHelperContract);\n    }\n\n    event BackpackItemDropped(bytes32 itemHash, ExcellentItemAtts item, uint256 qty, uint256 tokenId);\n    event ItemPicked(uint256 tokenId, uint256 fighterId, uint256 qty);\n\n    function dropBackpackItem(uint256 tokenId, uint256 qty) external {\n        require(_itemsHelper.itemExists(tokenId), \"Token not found\");\n\n        ExcellentItemAtts memory tokenAttributes = _itemsHelper.getTokenAttributes(tokenId);\n\n        require(tokenAttributes.packSize >= qty, \"Qty larger than pack size\");\n\n        tokenAttributes.fighterId = 0;\n        tokenAttributes.tokenId = 0;\n\n        bytes32 itemHash = keccak256(abi.encode(tokenAttributes, qty, block.number));\n        _dropHelper.createDropHash(itemHash, qty);\n\n        _itemsHelper.burnItem(tokenId);\n        emit BackpackItemDropped(itemHash, tokenAttributes, qty, tokenId);\n    }\n\n    function pickupItem(bytes32 itemHash, ExcellentItemAtts memory itemAtts, uint256 dropBlock, uint256 fighterId) external {\n        uint256 dropQty = _dropHelper.getDropQty(itemHash);\n        require(dropQty > 0, \"Item hash not found\");\n\n        bytes32 genHash = keccak256(abi.encode(itemAtts, dropQty, dropBlock));\n        require(genHash == itemHash, \"Item hash doest match\");\n\n        address fighterOwner = _fightersHelper.getOwner(fighterId);\n        \n\n        if (stringsEqual(itemAtts.name, \"Gold\")) {\n            \n            _moneyHelper.mintGold(fighterOwner, dropQty);\n            emit ItemPicked(goldTokenId, fighterId, dropQty);\n            \n        } else {\n            uint256 newTokenId = _itemsHelper.safeMint(fighterOwner);\n\n            \n\n            itemAtts.tokenId = newTokenId;      \n            itemAtts.fighterId = fighterId;      \n            itemAtts.lastUpdBlock = block.number; \n\n            _itemsHelper.setTokenAttributes(newTokenId, itemAtts);\n            emit ItemPicked(newTokenId, fighterId, dropQty);\n            \n        } \n    }\n\n\n}",
  "sourcePath": "/Users/max/Documents/prog/game-contracts/contracts/Backpack.sol",
  "compiler": {
    "name": "solc",
    "version": "0.8.19+commit.7dd6d404.Emscripten.clang"
  },
  "schemaVersion": "3.4.13",
  "updatedAt": "2023-08-09T04:15:28.913Z",
  "networkType": "ethereum",
  "devdoc": {
    "kind": "dev",
    "methods": {},
    "version": 1
  },
  "userdoc": {
    "kind": "user",
    "methods": {},
    "version": 1
  }
}