{
  "contractName": "Backpack",
  "abi": [
    {
      "inputs": [
        {
          "internalType": "address",
          "name": "fightersHelperContract",
          "type": "address"
        },
        {
          "internalType": "address",
          "name": "itemsHelperContract",
          "type": "address"
        },
        {
          "internalType": "address",
          "name": "moneyHelperContract",
          "type": "address"
        },
        {
          "internalType": "address",
          "name": "dropHelperContract",
          "type": "address"
        }
      ],
      "stateMutability": "nonpayable",
      "type": "constructor"
    },
    {
      "anonymous": false,
      "inputs": [
        {
          "indexed": false,
          "internalType": "bytes32",
          "name": "itemHash",
          "type": "bytes32"
        },
        {
          "components": [
            {
              "internalType": "string",
              "name": "name",
              "type": "string"
            },
            {
              "internalType": "uint256",
              "name": "tokenId",
              "type": "uint256"
            },
            {
              "internalType": "uint256",
              "name": "itemLevel",
              "type": "uint256"
            },
            {
              "internalType": "uint256",
              "name": "maxLevel",
              "type": "uint256"
            },
            {
              "internalType": "uint256",
              "name": "durability",
              "type": "uint256"
            },
            {
              "internalType": "uint256",
              "name": "classRequired",
              "type": "uint256"
            },
            {
              "internalType": "uint256",
              "name": "strengthRequired",
              "type": "uint256"
            },
            {
              "internalType": "uint256",
              "name": "agilityRequired",
              "type": "uint256"
            },
            {
              "internalType": "uint256",
              "name": "energyRequired",
              "type": "uint256"
            },
            {
              "internalType": "uint256",
              "name": "vitalityRequired",
              "type": "uint256"
            },
            {
              "internalType": "uint256",
              "name": "itemWidth",
              "type": "uint256"
            },
            {
              "internalType": "uint256",
              "name": "itemHeight",
              "type": "uint256"
            },
            {
              "internalType": "uint256",
              "name": "acceptableSlot1",
              "type": "uint256"
            },
            {
              "internalType": "uint256",
              "name": "acceptableSlot2",
              "type": "uint256"
            },
            {
              "internalType": "uint256",
              "name": "baseMinPhysicalDamage",
              "type": "uint256"
            },
            {
              "internalType": "uint256",
              "name": "baseMaxPhysicalDamage",
              "type": "uint256"
            },
            {
              "internalType": "uint256",
              "name": "baseMinMagicDamage",
              "type": "uint256"
            },
            {
              "internalType": "uint256",
              "name": "baseMaxMagicDamage",
              "type": "uint256"
            },
            {
              "internalType": "uint256",
              "name": "baseDefense",
              "type": "uint256"
            },
            {
              "internalType": "uint256",
              "name": "attackSpeed",
              "type": "uint256"
            },
            {
              "internalType": "uint256",
              "name": "additionalDamage",
              "type": "uint256"
            },
            {
              "internalType": "uint256",
              "name": "additionalDefense",
              "type": "uint256"
            },
            {
              "internalType": "uint256",
              "name": "fighterId",
              "type": "uint256"
            },
            {
              "internalType": "uint256",
              "name": "lastUpdBlock",
              "type": "uint256"
            },
            {
              "internalType": "uint256",
              "name": "itemRarityLevel",
              "type": "uint256"
            },
            {
              "internalType": "uint256",
              "name": "itemAttributesId",
              "type": "uint256"
            },
            {
              "internalType": "uint256",
              "name": "packSize",
              "type": "uint256"
            },
            {
              "internalType": "bool",
              "name": "luck",
              "type": "bool"
            },
            {
              "internalType": "bool",
              "name": "skill",
              "type": "bool"
            },
            {
              "internalType": "bool",
              "name": "isPackable",
              "type": "bool"
            },
            {
              "internalType": "bool",
              "name": "isBox",
              "type": "bool"
            },
            {
              "internalType": "bool",
              "name": "isWeapon",
              "type": "bool"
            },
            {
              "internalType": "bool",
              "name": "isArmour",
              "type": "bool"
            },
            {
              "internalType": "bool",
              "name": "isJewel",
              "type": "bool"
            },
            {
              "internalType": "bool",
              "name": "isWings",
              "type": "bool"
            },
            {
              "internalType": "bool",
              "name": "isMisc",
              "type": "bool"
            },
            {
              "internalType": "bool",
              "name": "isConsumable",
              "type": "bool"
            },
            {
              "internalType": "bool",
              "name": "inShop",
              "type": "bool"
            },
            {
              "internalType": "uint256",
              "name": "increaseAttackSpeedPoints",
              "type": "uint256"
            },
            {
              "internalType": "uint256",
              "name": "reflectDamagePercent",
              "type": "uint256"
            },
            {
              "internalType": "uint256",
              "name": "restoreHPChance",
              "type": "uint256"
            },
            {
              "internalType": "uint256",
              "name": "restoreMPChance",
              "type": "uint256"
            },
            {
              "internalType": "uint256",
              "name": "doubleDamageChance",
              "type": "uint256"
            },
            {
              "internalType": "uint256",
              "name": "ignoreOpponentDefenseChance",
              "type": "uint256"
            },
            {
              "internalType": "uint256",
              "name": "lifeAfterMonsterIncrease",
              "type": "uint256"
            },
            {
              "internalType": "uint256",
              "name": "manaAfterMonsterIncrease",
              "type": "uint256"
            },
            {
              "internalType": "uint256",
              "name": "excellentDamageProbabilityIncrease",
              "type": "uint256"
            },
            {
              "internalType": "uint256",
              "name": "attackSpeedIncrease",
              "type": "uint256"
            },
            {
              "internalType": "uint256",
              "name": "attackLvl20",
              "type": "uint256"
            },
            {
              "internalType": "uint256",
              "name": "attackIncreasePercent",
              "type": "uint256"
            },
            {
              "internalType": "uint256",
              "name": "defenseSuccessRateIncrease",
              "type": "uint256"
            },
            {
              "internalType": "uint256",
              "name": "goldAfterMonsterIncrease",
              "type": "uint256"
            },
            {
              "internalType": "uint256",
              "name": "reflectDamage",
              "type": "uint256"
            },
            {
              "internalType": "uint256",
              "name": "maxLifeIncrease",
              "type": "uint256"
            },
            {
              "internalType": "uint256",
              "name": "maxManaIncrease",
              "type": "uint256"
            },
            {
              "internalType": "uint256",
              "name": "hpRecoveryRateIncrease",
              "type": "uint256"
            },
            {
              "internalType": "uint256",
              "name": "mpRecoveryRateIncrease",
              "type": "uint256"
            },
            {
              "internalType": "uint256",
              "name": "decreaseDamageRateIncrease",
              "type": "uint256"
            }
          ],
          "indexed": false,
          "internalType": "struct ItemsExcellentAtts.ExcellentItemAtts",
          "name": "item",
          "type": "tuple"
        },
        {
          "indexed": false,
          "internalType": "uint256",
          "name": "qty",
          "type": "uint256"
        },
        {
          "indexed": false,
          "internalType": "uint256",
          "name": "tokenId",
          "type": "uint256"
        }
      ],
      "name": "BackpackItemDropped",
      "type": "event"
    },
    {
      "anonymous": false,
      "inputs": [
        {
          "indexed": false,
          "internalType": "uint256",
          "name": "tokenId",
          "type": "uint256"
        },
        {
          "indexed": false,
          "internalType": "uint256",
          "name": "fighterId",
          "type": "uint256"
        },
        {
          "indexed": false,
          "internalType": "uint256",
          "name": "qty",
          "type": "uint256"
        }
      ],
      "name": "ItemPicked",
      "type": "event"
    },
    {
      "inputs": [
        {
          "internalType": "uint256",
          "name": "tokenId",
          "type": "uint256"
        },
        {
          "internalType": "uint256",
          "name": "qty",
          "type": "uint256"
        }
      ],
      "name": "dropBackpackItem",
      "outputs": [],
      "stateMutability": "nonpayable",
      "type": "function"
    },
    {
      "inputs": [
        {
          "internalType": "bytes32",
          "name": "itemHash",
          "type": "bytes32"
        },
        {
          "components": [
            {
              "internalType": "string",
              "name": "name",
              "type": "string"
            },
            {
              "internalType": "uint256",
              "name": "tokenId",
              "type": "uint256"
            },
            {
              "internalType": "uint256",
              "name": "itemLevel",
              "type": "uint256"
            },
            {
              "internalType": "uint256",
              "name": "maxLevel",
              "type": "uint256"
            },
            {
              "internalType": "uint256",
              "name": "durability",
              "type": "uint256"
            },
            {
              "internalType": "uint256",
              "name": "classRequired",
              "type": "uint256"
            },
            {
              "internalType": "uint256",
              "name": "strengthRequired",
              "type": "uint256"
            },
            {
              "internalType": "uint256",
              "name": "agilityRequired",
              "type": "uint256"
            },
            {
              "internalType": "uint256",
              "name": "energyRequired",
              "type": "uint256"
            },
            {
              "internalType": "uint256",
              "name": "vitalityRequired",
              "type": "uint256"
            },
            {
              "internalType": "uint256",
              "name": "itemWidth",
              "type": "uint256"
            },
            {
              "internalType": "uint256",
              "name": "itemHeight",
              "type": "uint256"
            },
            {
              "internalType": "uint256",
              "name": "acceptableSlot1",
              "type": "uint256"
            },
            {
              "internalType": "uint256",
              "name": "acceptableSlot2",
              "type": "uint256"
            },
            {
              "internalType": "uint256",
              "name": "baseMinPhysicalDamage",
              "type": "uint256"
            },
            {
              "internalType": "uint256",
              "name": "baseMaxPhysicalDamage",
              "type": "uint256"
            },
            {
              "internalType": "uint256",
              "name": "baseMinMagicDamage",
              "type": "uint256"
            },
            {
              "internalType": "uint256",
              "name": "baseMaxMagicDamage",
              "type": "uint256"
            },
            {
              "internalType": "uint256",
              "name": "baseDefense",
              "type": "uint256"
            },
            {
              "internalType": "uint256",
              "name": "attackSpeed",
              "type": "uint256"
            },
            {
              "internalType": "uint256",
              "name": "additionalDamage",
              "type": "uint256"
            },
            {
              "internalType": "uint256",
              "name": "additionalDefense",
              "type": "uint256"
            },
            {
              "internalType": "uint256",
              "name": "fighterId",
              "type": "uint256"
            },
            {
              "internalType": "uint256",
              "name": "lastUpdBlock",
              "type": "uint256"
            },
            {
              "internalType": "uint256",
              "name": "itemRarityLevel",
              "type": "uint256"
            },
            {
              "internalType": "uint256",
              "name": "itemAttributesId",
              "type": "uint256"
            },
            {
              "internalType": "uint256",
              "name": "packSize",
              "type": "uint256"
            },
            {
              "internalType": "bool",
              "name": "luck",
              "type": "bool"
            },
            {
              "internalType": "bool",
              "name": "skill",
              "type": "bool"
            },
            {
              "internalType": "bool",
              "name": "isPackable",
              "type": "bool"
            },
            {
              "internalType": "bool",
              "name": "isBox",
              "type": "bool"
            },
            {
              "internalType": "bool",
              "name": "isWeapon",
              "type": "bool"
            },
            {
              "internalType": "bool",
              "name": "isArmour",
              "type": "bool"
            },
            {
              "internalType": "bool",
              "name": "isJewel",
              "type": "bool"
            },
            {
              "internalType": "bool",
              "name": "isWings",
              "type": "bool"
            },
            {
              "internalType": "bool",
              "name": "isMisc",
              "type": "bool"
            },
            {
              "internalType": "bool",
              "name": "isConsumable",
              "type": "bool"
            },
            {
              "internalType": "bool",
              "name": "inShop",
              "type": "bool"
            },
            {
              "internalType": "uint256",
              "name": "increaseAttackSpeedPoints",
              "type": "uint256"
            },
            {
              "internalType": "uint256",
              "name": "reflectDamagePercent",
              "type": "uint256"
            },
            {
              "internalType": "uint256",
              "name": "restoreHPChance",
              "type": "uint256"
            },
            {
              "internalType": "uint256",
              "name": "restoreMPChance",
              "type": "uint256"
            },
            {
              "internalType": "uint256",
              "name": "doubleDamageChance",
              "type": "uint256"
            },
            {
              "internalType": "uint256",
              "name": "ignoreOpponentDefenseChance",
              "type": "uint256"
            },
            {
              "internalType": "uint256",
              "name": "lifeAfterMonsterIncrease",
              "type": "uint256"
            },
            {
              "internalType": "uint256",
              "name": "manaAfterMonsterIncrease",
              "type": "uint256"
            },
            {
              "internalType": "uint256",
              "name": "excellentDamageProbabilityIncrease",
              "type": "uint256"
            },
            {
              "internalType": "uint256",
              "name": "attackSpeedIncrease",
              "type": "uint256"
            },
            {
              "internalType": "uint256",
              "name": "attackLvl20",
              "type": "uint256"
            },
            {
              "internalType": "uint256",
              "name": "attackIncreasePercent",
              "type": "uint256"
            },
            {
              "internalType": "uint256",
              "name": "defenseSuccessRateIncrease",
              "type": "uint256"
            },
            {
              "internalType": "uint256",
              "name": "goldAfterMonsterIncrease",
              "type": "uint256"
            },
            {
              "internalType": "uint256",
              "name": "reflectDamage",
              "type": "uint256"
            },
            {
              "internalType": "uint256",
              "name": "maxLifeIncrease",
              "type": "uint256"
            },
            {
              "internalType": "uint256",
              "name": "maxManaIncrease",
              "type": "uint256"
            },
            {
              "internalType": "uint256",
              "name": "hpRecoveryRateIncrease",
              "type": "uint256"
            },
            {
              "internalType": "uint256",
              "name": "mpRecoveryRateIncrease",
              "type": "uint256"
            },
            {
              "internalType": "uint256",
              "name": "decreaseDamageRateIncrease",
              "type": "uint256"
            }
          ],
          "internalType": "struct ItemsExcellentAtts.ExcellentItemAtts",
          "name": "itemAtts",
          "type": "tuple"
        },
        {
          "internalType": "uint256",
          "name": "dropBlock",
          "type": "uint256"
        },
        {
          "internalType": "uint256",
          "name": "fighterId",
          "type": "uint256"
        }
      ],
      "name": "pickupItem",
      "outputs": [],
      "stateMutability": "nonpayable",
      "type": "function"
    }
  ],
  "bytecode": "0x60806040526064600055601c60015560326002556032600355601e600455601e6005556002600655600160075560006008553480156200003e57600080fd5b5060405162001416380380620014168339810160408190526200006191620000d4565b600980546001600160a01b03199081166001600160a01b0395861617909155600b8054821693851693909317909255600c8054831694841694909417909355600a80549091169290911691909117905562000131565b80516001600160a01b0381168114620000cf57600080fd5b919050565b60008060008060808587031215620000eb57600080fd5b620000f685620000b7565b93506200010660208601620000b7565b92506200011660408601620000b7565b91506200012660608601620000b7565b905092959194509250565b6112d580620001416000396000f3fe608060405234801561001057600080fd5b50600436106100365760003560e01c80636773a1dc1461003b578063ce8d887314610050575b600080fd5b61004e6100493660046106b6565b610063565b005b61004e61005e3660046107e8565b610322565b60095460405163843bd64160e01b8152600481018490526001600160a01b039091169063843bd641906024016020604051808303816000875af11580156100ae573d6000803e3d6000fd5b505050506040513d601f19601f820116820180604052508101906100d29190610b4d565b6101155760405162461bcd60e51b815260206004820152600f60248201526e151bdad95b881b9bdd08199bdd5b99608a1b60448201526064015b60405180910390fd5b600954604051631f4f5a2360e01b8152600481018490526000916001600160a01b031690631f4f5a23906024016000604051808303816000875af1158015610161573d6000803e3d6000fd5b505050506040513d6000823e601f3d908101601f191682016040526101899190810190610be2565b90508181610340015110156101e05760405162461bcd60e51b815260206004820152601960248201527f517479206c6172676572207468616e207061636b2073697a6500000000000000604482015260640161010c565b60006102c08201819052602080830182905260405161020591849186914391016111f3565b60408051808303601f19018152908290528051602090910120600a546324b9c59560e01b835260048301829052602483018690529092506001600160a01b0316906324b9c59590604401600060405180830381600087803b15801561026957600080fd5b505af115801561027d573d6000803e3d6000fd5b505060095460405163576cc0f760e01b8152600481018890526001600160a01b03909116925063576cc0f79150602401600060405180830381600087803b1580156102c757600080fd5b505af11580156102db573d6000803e3d6000fd5b505050507f16607028d4df9c74b13f60af885b7eb1fe235af8d48cac2f926548536401fcc2818385876040516103149493929190611218565b60405180910390a150505050565b600a5460405163f108ff2b60e01b8152600481018690526000916001600160a01b03169063f108ff2b906024016020604051808303816000875af115801561036e573d6000803e3d6000fd5b505050506040513d601f19601f820116820180604052508101906103929190611244565b9050600081116103da5760405162461bcd60e51b8152602060048201526013602482015272125d195b481a185cda081b9bdd08199bdd5b99606a1b604482015260640161010c565b60008482856040516020016103f1939291906111f3565b6040516020818303038152906040528051906020012090508581146104505760405162461bcd60e51b8152602060048201526015602482015274092e8cada40d0c2e6d040c8decae6e840dac2e8c6d605b1b604482015260640161010c565b600c5460405163620d1b0560e11b8152600481018590526000916001600160a01b03169063c41a360a90602401602060405180830381865afa15801561049a573d6000803e3d6000fd5b505050506040513d601f19601f820116820180604052508101906104be919061125d565b90506007548661032001510361057d57600b5460405163edf52d1360e01b81526001600160a01b038381166004830152602482018690529091169063edf52d1390604401600060405180830381600087803b15801561051c57600080fd5b505af1158015610530573d6000803e3d6000fd5b5050600654604080519182526020820188905281018690527fbde402c68999d1d437511b74f215440675c9dfb8e45b6755d7e2ffd6ffd60b2d9250606001905060405180910390a16106ad565b6009546040516340d097c360e01b81526001600160a01b03838116600483015260009216906340d097c3906024016020604051808303816000875af11580156105ca573d6000803e3d6000fd5b505050506040513d601f19601f820116820180604052508101906105ee9190611244565b602088018190526102c08801869052436102e0890152600954604051635ff5901360e01b81529192506001600160a01b031690635ff59013906106379084908b90600401611286565b600060405180830381600087803b15801561065157600080fd5b505af1158015610665573d6000803e3d6000fd5b505060408051848152602081018990529081018790527fbde402c68999d1d437511b74f215440675c9dfb8e45b6755d7e2ffd6ffd60b2d9250606001905060405180910390a1505b50505050505050565b600080604083850312156106c957600080fd5b50508035926020909101359150565b634e487b7160e01b600052604160045260246000fd5b604051610740810167ffffffffffffffff81118282101715610712576107126106d8565b60405290565b604051601f8201601f1916810167ffffffffffffffff81118282101715610741576107416106d8565b604052919050565b600067ffffffffffffffff821115610763576107636106d8565b50601f01601f191660200190565b600082601f83011261078257600080fd5b813561079561079082610749565b610718565b8181528460208386010111156107aa57600080fd5b816020850160208301376000918101602001919091529392505050565b80151581146107d557600080fd5b50565b80356107e3816107c7565b919050565b600080600080608085870312156107fe57600080fd5b84359350602085013567ffffffffffffffff8082111561081d57600080fd5b90860190610740828903121561083257600080fd5b61083a6106ee565b82358281111561084957600080fd5b6108558a828601610771565b8252506020838101359082015260408084013590820152606080840135908201526080808401359082015260a0808401359082015260c0808401359082015260e08084013590820152610100808401359082015261012080840135908201526101408084013590820152610160808401359082015261018080840135908201526101a080840135908201526101c080840135908201526101e08084013590820152610200808401359082015261022080840135908201526102408084013590820152610260808401359082015261028080840135908201526102a080840135908201526102c080840135908201526102e08084013590820152610300808401359082015261032080840135908201526103408084013590820152610360915061097f8284016107d8565b8282015261038091506109938284016107d8565b828201526103a091506109a78284016107d8565b828201526103c091506109bb8284016107d8565b828201526103e091506109cf8284016107d8565b8282015261040091506109e38284016107d8565b8282015261042091506109f78284016107d8565b828201526104409150610a0b8284016107d8565b828201526104609150610a1f8284016107d8565b828201526104809150610a338284016107d8565b828201526104a09150610a478284016107d8565b918101919091526104c082810135908201526104e08083013590820152610500808301359082015261052080830135908201526105408083013590820152610560808301359082015261058080830135908201526105a080830135908201526105c080830135908201526105e08083013590820152610600808301359082015261062080830135908201526106408083013590820152610660808301359082015261068080830135908201526106a080830135908201526106c080830135908201526106e080830135908201526107008083013590820152610720918201359181019190915293969395505050506040820135916060013590565b80516107e3816107c7565b600060208284031215610b5f57600080fd5b8151610b6a816107c7565b9392505050565b60005b83811015610b8c578181015183820152602001610b74565b50506000910152565b600082601f830112610ba657600080fd5b8151610bb461079082610749565b818152846020838601011115610bc957600080fd5b610bda826020830160208701610b71565b949350505050565b600060208284031215610bf457600080fd5b815167ffffffffffffffff80821115610c0c57600080fd5b908301906107408286031215610c2157600080fd5b610c296106ee565b825182811115610c3857600080fd5b610c4487828601610b95565b8252506020838101519082015260408084015190820152606080840151908201526080808401519082015260a0808401519082015260c0808401519082015260e08084015190820152610100808401519082015261012080840151908201526101408084015190820152610160808401519082015261018080840151908201526101a080840151908201526101c080840151908201526101e08084015190820152610200808401519082015261022080840151908201526102408084015190820152610260808401519082015261028080840151908201526102a080840151908201526102c080840151908201526102e080840151908201526103008084015190820152610320808401519082015261034080840151908201526103609150610d6e828401610b42565b828201526103809150610d82828401610b42565b828201526103a09150610d96828401610b42565b828201526103c09150610daa828401610b42565b828201526103e09150610dbe828401610b42565b828201526104009150610dd2828401610b42565b828201526104209150610de6828401610b42565b828201526104409150610dfa828401610b42565b828201526104609150610e0e828401610b42565b828201526104809150610e22828401610b42565b828201526104a09150610e36828401610b42565b918101919091526104c082810151908201526104e08083015190820152610500808301519082015261052080830151908201526105408083015190820152610560808301519082015261058080830151908201526105a080830151908201526105c080830151908201526105e08083015190820152610600808301519082015261062080830151908201526106408083015190820152610660808301519082015261068080830151908201526106a080830151908201526106c080830151908201526106e08083015190820152610700808301519082015261072091820151918101919091529392505050565b60008151808452610f3b816020860160208601610b71565b601f01601f19169290920160200192915050565b60006107408251818552610f6582860182610f23565b6020858101519087015260408086015190870152606080860151908701526080808601519087015260a0808601519087015260c0808601519087015260e08086015190870152610100808601519087015261012080860151908701526101408086015190870152610160808601519087015261018080860151908701526101a080860151908701526101c080860151908701526101e08086015190870152610200808601519087015261022080860151908701526102408086015190870152610260808601519087015261028080860151908701526102a080860151908701526102c080860151908701526102e0808601519087015261030080860151908701526103208086015190870152610340808601519087015261036080860151151590870152610380808601511515908701526103a0808601511515908701526103c0808601511515908701526103e08086015115159087015261040080860151151590870152610420808601511515908701526104408086015115159087015261046080860151151590870152610480808601511515908701526104a0808601511515908701526104c080860151908701526104e08086015190870152610500808601519087015261052080860151908701526105408086015190870152610560808601519087015261058080860151908701526105a080860151908701526105c080860151908701526105e08086015190870152610600808601519087015261062080860151908701526106408086015190870152610660808601519087015261068080860151908701526106a080860151908701526106c080860151908701526106e080860151908701526107008086015190870152610720948501519490950193909352509192915050565b6060815260006112066060830186610f4f565b60208301949094525060400152919050565b8481526080602082015260006112316080830186610f4f565b6040830194909452506060015292915050565b60006020828403121561125657600080fd5b5051919050565b60006020828403121561126f57600080fd5b81516001600160a01b0381168114610b6a57600080fd5b828152604060208201526000610bda6040830184610f4f56fea26469706673582212208f0b8b13b0881679a8fb708fe7c162bb3f440c64a8799e3aebfdba11bca9824564736f6c63430008130033",
  "immutableReferences": {},
  "source": "// SPDX-License-Identifier: MIT\npragma solidity ^0.8.18;\n\nimport \"./FightersHelper.sol\";\nimport \"./MoneyHelper.sol\";\nimport \"./ItemsHelper.sol\";\nimport \"./DropHelper.sol\";\n\ncontract Backpack is ItemsExcellentAtts { \n    ItemsHelper private _itemsHelper;\n    DropHelper private _dropHelper;\n    MoneyHelper private _moneyHelper;\n    FightersHelper private _fightersHelper;\n\n\n    constructor ( address fightersHelperContract, address itemsHelperContract, address moneyHelperContract, address dropHelperContract ) {\n        _itemsHelper = ItemsHelper(itemsHelperContract);\n        _moneyHelper = MoneyHelper(moneyHelperContract);\n        _fightersHelper = FightersHelper(fightersHelperContract);\n        _dropHelper = DropHelper(dropHelperContract);\n    }\n\n    event BackpackItemDropped(bytes32 itemHash, ExcellentItemAtts item, uint256 qty, uint256 tokenId);\n    event ItemPicked(uint256 tokenId, uint256 fighterId, uint256 qty);\n\n    function dropBackpackItem(uint256 tokenId, uint256 qty) external {\n        require(_itemsHelper.itemExists(tokenId), \"Token not found\");\n\n        ExcellentItemAtts memory tokenAttributes = _itemsHelper.getTokenAttributes(tokenId);\n\n        require(tokenAttributes.packSize >= qty, \"Qty larger than pack size\");\n\n        tokenAttributes.fighterId = 0;\n        tokenAttributes.tokenId = 0;\n\n        bytes32 itemHash = keccak256(abi.encode(tokenAttributes, qty, block.number));\n        _dropHelper.createDropHash(itemHash, qty);\n\n        _itemsHelper.burnItem(tokenId);\n        emit BackpackItemDropped(itemHash, tokenAttributes, qty, tokenId);\n    }\n\n    function pickupItem(bytes32 itemHash, ExcellentItemAtts memory itemAtts, uint256 dropBlock, uint256 fighterId) external {\n        uint256 dropQty = _dropHelper.getDropQty(itemHash);\n        require(dropQty > 0, \"Item hash not found\");\n\n        bytes32 genHash = keccak256(abi.encode(itemAtts, dropQty, dropBlock));\n        require(genHash == itemHash, \"Item hash doest match\");\n\n        address fighterOwner = _fightersHelper.getOwner(fighterId);\n        \n\n        if (itemAtts.itemAttributesId == goldItemId) {\n            \n            _moneyHelper.mintGold(fighterOwner, dropQty);\n            emit ItemPicked(goldTokenId, fighterId, dropQty);\n            \n        } else {\n            uint256 newTokenId = _itemsHelper.safeMint(fighterOwner);\n\n            \n\n            itemAtts.tokenId = newTokenId;      \n            itemAtts.fighterId = fighterId;      \n            itemAtts.lastUpdBlock = block.number; \n\n            _itemsHelper.setTokenAttributes(newTokenId, itemAtts);\n            emit ItemPicked(newTokenId, fighterId, dropQty);\n            \n        } \n    }\n}",
  "sourcePath": "/Users/max/Documents/prog/game-contracts/contracts/Backpack.sol",
  "compiler": {
    "name": "solc",
    "version": "0.8.19+commit.7dd6d404.Emscripten.clang"
  },
  "schemaVersion": "3.4.13",
  "updatedAt": "2023-08-04T05:17:18.212Z",
  "networkType": "ethereum",
  "devdoc": {
    "kind": "dev",
    "methods": {},
    "version": 1
  },
  "userdoc": {
    "kind": "user",
    "methods": {},
    "version": 1
  }
}