{
  "contractName": "Battle",
  "abi": [
    {
      "inputs": [
        {
          "internalType": "address",
          "name": "fighterContractAddress_",
          "type": "address"
        },
        {
          "internalType": "address",
          "name": "fighterMoneyContractAddress_",
          "type": "address"
        },
        {
          "internalType": "address",
          "name": "itemsHelperContract",
          "type": "address"
        }
      ],
      "stateMutability": "nonpayable",
      "type": "constructor"
    },
    {
      "anonymous": false,
      "inputs": [
        {
          "indexed": false,
          "internalType": "uint256",
          "name": "player1",
          "type": "uint256"
        },
        {
          "indexed": false,
          "internalType": "uint256",
          "name": "player2",
          "type": "uint256"
        },
        {
          "indexed": false,
          "internalType": "uint256",
          "name": "winner",
          "type": "uint256"
        },
        {
          "indexed": false,
          "internalType": "uint256",
          "name": "purse",
          "type": "uint256"
        }
      ],
      "name": "BattleRecorded",
      "type": "event"
    },
    {
      "anonymous": false,
      "inputs": [
        {
          "indexed": false,
          "internalType": "uint8",
          "name": "",
          "type": "uint8"
        },
        {
          "indexed": false,
          "internalType": "uint256",
          "name": "",
          "type": "uint256"
        }
      ],
      "name": "LogError",
      "type": "event"
    },
    {
      "anonymous": false,
      "inputs": [
        {
          "indexed": false,
          "internalType": "address",
          "name": "previousOwner",
          "type": "address"
        },
        {
          "indexed": false,
          "internalType": "bool",
          "name": "isActive",
          "type": "bool"
        }
      ],
      "name": "SetAdmin",
      "type": "event"
    },
    {
      "anonymous": false,
      "inputs": [
        {
          "indexed": false,
          "internalType": "address",
          "name": "previousOwner",
          "type": "address"
        },
        {
          "indexed": false,
          "internalType": "address",
          "name": "newOwner",
          "type": "address"
        }
      ],
      "name": "SetOwner",
      "type": "event"
    },
    {
      "anonymous": false,
      "inputs": [
        {
          "indexed": false,
          "internalType": "uint256",
          "name": "",
          "type": "uint256"
        }
      ],
      "name": "updatedMoneyExpDivider",
      "type": "event"
    },
    {
      "inputs": [
        {
          "internalType": "bytes32",
          "name": "",
          "type": "bytes32"
        }
      ],
      "name": "battles",
      "outputs": [
        {
          "internalType": "uint256",
          "name": "blockNumber",
          "type": "uint256"
        },
        {
          "internalType": "uint256",
          "name": "opponent1",
          "type": "uint256"
        },
        {
          "internalType": "uint256",
          "name": "opponent2",
          "type": "uint256"
        },
        {
          "internalType": "uint256",
          "name": "winner",
          "type": "uint256"
        }
      ],
      "stateMutability": "view",
      "type": "function",
      "constant": true
    },
    {
      "inputs": [],
      "name": "itemsContract",
      "outputs": [
        {
          "internalType": "address",
          "name": "",
          "type": "address"
        }
      ],
      "stateMutability": "view",
      "type": "function",
      "constant": true
    },
    {
      "inputs": [],
      "name": "owner",
      "outputs": [
        {
          "internalType": "address",
          "name": "",
          "type": "address"
        }
      ],
      "stateMutability": "view",
      "type": "function",
      "constant": true
    },
    {
      "inputs": [
        {
          "internalType": "uint256[7]",
          "name": "vals1",
          "type": "uint256[7]"
        },
        {
          "internalType": "uint256[7]",
          "name": "vals2",
          "type": "uint256[7]"
        },
        {
          "internalType": "uint256",
          "name": "battleNonce",
          "type": "uint256"
        }
      ],
      "name": "recordFight",
      "outputs": [],
      "stateMutability": "nonpayable",
      "type": "function"
    },
    {
      "inputs": [
        {
          "internalType": "uint256",
          "name": "fighterLevel",
          "type": "uint256"
        },
        {
          "internalType": "uint256",
          "name": "opponentLevel",
          "type": "uint256"
        },
        {
          "internalType": "uint256",
          "name": "damageDealt",
          "type": "uint256"
        }
      ],
      "name": "calculateExpirience",
      "outputs": [
        {
          "internalType": "uint256",
          "name": "",
          "type": "uint256"
        }
      ],
      "stateMutability": "nonpayable",
      "type": "function"
    },
    {
      "inputs": [
        {
          "internalType": "address",
          "name": "newOwner",
          "type": "address"
        }
      ],
      "name": "setOwner",
      "outputs": [],
      "stateMutability": "nonpayable",
      "type": "function"
    },
    {
      "inputs": [
        {
          "internalType": "address",
          "name": "addy",
          "type": "address"
        },
        {
          "internalType": "bool",
          "name": "isActive",
          "type": "bool"
        }
      ],
      "name": "setAdmin",
      "outputs": [],
      "stateMutability": "nonpayable",
      "type": "function"
    },
    {
      "inputs": [
        {
          "internalType": "uint256",
          "name": "val",
          "type": "uint256"
        }
      ],
      "name": "setMoneyExpDivider",
      "outputs": [],
      "stateMutability": "nonpayable",
      "type": "function"
    },
    {
      "inputs": [
        {
          "internalType": "uint256",
          "name": "a",
          "type": "uint256"
        },
        {
          "internalType": "uint256",
          "name": "b",
          "type": "uint256"
        }
      ],
      "name": "safeMul",
      "outputs": [
        {
          "internalType": "uint256",
          "name": "",
          "type": "uint256"
        }
      ],
      "stateMutability": "nonpayable",
      "type": "function"
    },
    {
      "inputs": [
        {
          "internalType": "uint256",
          "name": "a",
          "type": "uint256"
        },
        {
          "internalType": "uint256",
          "name": "b",
          "type": "uint256"
        }
      ],
      "name": "safeSub",
      "outputs": [
        {
          "internalType": "uint256",
          "name": "",
          "type": "uint256"
        }
      ],
      "stateMutability": "nonpayable",
      "type": "function"
    },
    {
      "inputs": [
        {
          "internalType": "uint256",
          "name": "a",
          "type": "uint256"
        },
        {
          "internalType": "uint256",
          "name": "b",
          "type": "uint256"
        }
      ],
      "name": "safeAdd",
      "outputs": [
        {
          "internalType": "uint256",
          "name": "",
          "type": "uint256"
        }
      ],
      "stateMutability": "nonpayable",
      "type": "function"
    }
  ],
  "bytecode": "0x6080604052606460065534801561001557600080fd5b50604051610fd5380380610fd5833981016040819052610034916100b6565b600280546001600160a01b039485166001600160a01b0319918216179091556003805493851693821693909317909255600480548316339081179091556000908152600560205260408120805460ff1916600117905580549190931691161790556100f9565b80516001600160a01b03811681146100b157600080fd5b919050565b6000806000606084860312156100cb57600080fd5b6100d48461009a565b92506100e26020850161009a565b91506100f06040850161009a565b90509250925092565b610ecd806101086000396000f3fe608060405234801561001057600080fd5b50600436106100a95760003560e01c806378547e6c1161007157806378547e6c146101225780638da5cb5b14610178578063a293d1e8146101a3578063a971e842146101b6578063d05c78da146101c9578063e6cb9013146101dc57600080fd5b806313af4035146100ae5780631fedfd0a146100c35780634b0bddd2146100d657806357bcd00d146100e957806374440e9e146100fc575b600080fd5b6100c16100bc366004610ca3565b6101ef565b005b6100c16100d1366004610cc0565b610272565b6100c16100e4366004610cd9565b6102c7565b6100c16100f7366004610d28565b610344565b61010f61010a366004610d68565b610b51565b6040519081526020015b60405180910390f35b610158610130366004610cc0565b6001602081905260009182526040909120805491810154600282015460039092015490919084565b604080519485526020850193909352918301526060820152608001610119565b60045461018b906001600160a01b031681565b6040516001600160a01b039091168152602001610119565b61010f6101b1366004610d94565b610c0c565b60075461018b906001600160a01b031681565b61010f6101d7366004610d94565b610c31565b61010f6101ea366004610d94565b610c61565b6004546001600160a01b0316331461020957610209610db6565b600454604080516001600160a01b03928316815291831660208301527fcbf985117192c8f614a58aaf97226bb80a754772f5f6edf06f87c675f2e6c663910160405180910390a1600480546001600160a01b0319166001600160a01b0392909216919091179055565b6004546001600160a01b0316331461028c5761028c610db6565b60068190556040518181527f127404d508a0cf69493bfd98baf6b96ec49407cc6fe58263bcf55e98d9994e349060200160405180910390a150565b6004546001600160a01b031633146102e1576102e1610db6565b6001600160a01b038216600081815260056020908152604091829020805460ff19168515159081179091558251938452908301527f55a5194bc0174fcaf12b2978bef43911466bf63b34db8d1dd1a0d5dcd5c41bea910160405180910390a15050565b3360009081526005602052604090205460ff1661036357610363610db6565b60408051306020808301919091528535828401528435606083015260808083018590528351808403909101815260a090920183528151918101919091206000818152600190925291902054156103ff5760405162461bcd60e51b815260206004820152601760248201527f426174746c6520616c7265616479207265636f72646564000000000000000000604482015260640160405180910390fd5b604080516080810191829052600254630219207560e61b9092528535608482015260009181906001600160a01b03166386481d4060a483016020604051808303816000875af1158015610456573d6000803e3d6000fd5b505050506040513d601f19601f8201168201806040525081019061047a9190610dcc565b8152600254604051630219207560e61b8152873560048201526020909201916001600160a01b03909116906386481d40906024016020604051808303816000875af11580156104cd573d6000803e3d6000fd5b505050506040513d601f19601f820116820180604052508101906104f19190610dcc565b81526002546040516331a9108f60e11b8152883560048201526020909201916001600160a01b0390911690636352211e90602401602060405180830381865afa158015610542573d6000803e3d6000fd5b505050506040513d601f19601f820116820180604052508101906105669190610de5565b6001600160a01b0390811682526002546040516331a9108f60e11b815288356004820152602090930192911690636352211e90602401602060405180830381865afa1580156105b9573d6000803e3d6000fd5b505050506040513d601f19601f820116820180604052508101906105dd9190610de5565b6001600160a01b0390811690915260025460405163a7518eb160e01b81528835600482015260808901356024820152929350169063a7518eb190604401600060405180830381600087803b15801561063457600080fd5b505af1158015610648573d6000803e3d6000fd5b505060025460405163a7518eb160e01b815287356004820152608088013560248201526001600160a01b03909116925063a7518eb19150604401600060405180830381600087803b15801561069c57600080fd5b505af11580156106b0573d6000803e3d6000fd5b5050600254604051638dc1424760e01b81528835600482015260a089013560248201526001600160a01b039091169250638dc142479150604401600060405180830381600087803b15801561070457600080fd5b505af1158015610718573d6000803e3d6000fd5b5050600254604051638dc1424760e01b81528735600482015260a088013560248201526001600160a01b039091169250638dc142479150604401600060405180830381600087803b15801561076c57600080fd5b505af1158015610780573d6000803e3d6000fd5b505082516020840151600093506107a092508860035b6020020135610b51565b604080516015815260208101839052919250600080516020610e78833981519152910160405180910390a1602082015182516000916107e191886003610796565b604080516003815260208101859052919250600080516020610e78833981519152910160405180910390a1604080516004815260208101839052600080516020610e78833981519152910160405180910390a160025460405163243a7c7b60e01b815288356004820152602481018490526001600160a01b039091169063243a7c7b90604401600060405180830381600087803b15801561088157600080fd5b505af1158015610895573d6000803e3d6000fd5b505060025460405163243a7c7b60e01b815289356004820152602481018590526001600160a01b03909116925063243a7c7b9150604401600060405180830381600087803b1580156108e657600080fd5b505af11580156108fa573d6000803e3d6000fd5b5050604080516005815260006020820152600080516020610e78833981519152935001905060405180910390a1600060c0880135600103610939575086355b60c0870135600103610949575085355b604080516006815260006020820152600080516020610e78833981519152910160405180910390a1600088358203610a0b5760065461099085670de0b6b3a7640000610c31565b61099a9190610e18565b600354604087810151905163b78636a160e01b81526001600160a01b03918216600482015260248101849052929350169063b78636a190604401600060405180830381600087803b1580156109ee57600080fd5b505af1158015610a02573d6000803e3d6000fd5b50505050610a9f565b87358203610a9f57600654610a2884670de0b6b3a7640000610c31565b610a329190610e18565b600354606087015160405163b78636a160e01b81526001600160a01b03918216600482015260248101849052929350169063b78636a190604401600060405180830381600087803b158015610a8657600080fd5b505af1158015610a9a573d6000803e3d6000fd5b505050505b604080516080810182524381528a3560208201529081018960006020908102919091013582529081018490526000888152600180835260409182902084518155848401519181019190915583820151600282015560609384015160039091015580518c3581528b359281019290925281018490529081018290527f3ea69882536ba5c0664cf3bdef8a6b5c27996390aa0f0f3fb10c6812ee9f787e9060800160405180910390a1505050505050505050565b600080600084861115610bb157610b688587610e3a565b9150670de0b6b3a7640000610ba0856101d7670de0b6b3a76400008a610b9688670de0b6b3a7640000610c31565b6101b19190610e18565b610baa9190610e18565b9050610c03565b84861015610c0057610bc38686610e3a565b9150670de0b6b3a7640000610ba0856101d789610be887670de0b6b3a7640000610c31565b610bf29190610e18565b670de0b6b3a7640000610c61565b50825b95945050505050565b600082821115610c1e57610c1e610db6565b610c288284610e3a565b90505b92915050565b600080610c3e8385610e4d565b9050831580610c55575082610c538583610e18565b145b610c2857610c28610db6565b600080610c6e8385610e64565b9050838110158015610c55575082811015610c2857610c28610db6565b6001600160a01b0381168114610ca057600080fd5b50565b600060208284031215610cb557600080fd5b8135610c2881610c8b565b600060208284031215610cd257600080fd5b5035919050565b60008060408385031215610cec57600080fd5b8235610cf781610c8b565b915060208301358015158114610d0c57600080fd5b809150509250929050565b8060e08101831015610c2b57600080fd5b60008060006101e08486031215610d3e57600080fd5b610d488585610d17565b9250610d578560e08601610d17565b91506101c084013590509250925092565b600080600060608486031215610d7d57600080fd5b505081359360208301359350604090920135919050565b60008060408385031215610da757600080fd5b50508035926020909101359150565b634e487b7160e01b600052600160045260246000fd5b600060208284031215610dde57600080fd5b5051919050565b600060208284031215610df757600080fd5b8151610c2881610c8b565b634e487b7160e01b600052601160045260246000fd5b600082610e3557634e487b7160e01b600052601260045260246000fd5b500490565b81810381811115610c2b57610c2b610e02565b8082028115828204841417610c2b57610c2b610e02565b80820180821115610c2b57610c2b610e0256fe93f9b03ea0c4f6f4154119b4b78510f183504fad78f2517d46d84a546ac0e97da26469706673582212205910fba7e72781dfe2a90523bfc6d95b94aee7ce026bb66192e8c477e121184e64736f6c63430008130033",
  "immutableReferences": {},
  "source": "// SPDX-License-Identifier: MIT\npragma solidity ^0.8.0;\nimport \"./Items.sol\";\n\nabstract contract FighterContract {\n    function increaseExperience(uint256 tokenId, uint256 addExp) external virtual;\n    function decreaseHealth(uint256 tokenId, uint256 damage) external virtual;\n    function getHealth(uint256 tokenId) public virtual returns (uint256);\n    function getMana(uint256 tokenId) public virtual returns (uint256);\n    function getLevel(uint256 tokenId) public virtual returns (uint256);\n    function getDefence (uint256 tokenId) public virtual returns (uint256);\n    function getDamage (uint256 tokenId) public virtual returns (uint256);\n    function decreaseMana(uint256 tokenId, uint256 manaUsed) external virtual;\n    function decreaseStamina(uint256 tokenId, uint256 staminaUsed) external virtual;\n}\n\nabstract contract  FighterMoneyContract {\n    function payoutBattlePurse(address playerAddress, uint256 amount) external virtual;\n}\n\ncontract Battle {\n    ItemsHelper private _itemsHelper;\n\n    struct Battle {\n        uint256 blockNumber;\n        uint256 opponent1;\n        uint256 opponent2;\n        uint256 winner; \n    }\n\n   \n    mapping(bytes32 => Battle) public battles;\n    \n    address fighterContractAddress; \n    address fighterMoneyContractAddress; \n\n\n    struct FightVars {\n        uint256 level1;\n        uint256 level2;\n        address owner1;\n        address owner2;\n\n    }\n\n    event LogError(uint8, uint256);\n    event BattleRecorded(uint256 player1, uint256 player2, uint256 winner, uint256 purse);\n\n\n    constructor(address fighterContractAddress_, address fighterMoneyContractAddress_, address itemsHelperContract) {\n        fighterContractAddress = fighterContractAddress_;\n        fighterMoneyContractAddress = fighterMoneyContractAddress_;\n        owner = msg.sender;\n        isAdmin[owner] = true;\n        _itemsHelper = ItemsHelper(itemsHelperContract);\n    }\n\n    function recordFight(\n        uint256[7] calldata vals1,\n        uint256[7] calldata vals2,\n        // uint8[2] calldata v,\n        // bytes32[4] calldata rs,\n        uint256 battleNonce\n    ) external onlyAdmin\n    {\n        /*\n            Opponent Vals\n            [0] opponentId\n            [1] health\n            [2] mana\n            [3] damageDealt\n            [4] damageReceived\n            [5] manaConsumed\n            [6] win (0 - loss, 1 - win, 2 - draw)\n\n        */\n\n        bytes32 battleHash = generateBattleHash(vals1[0], vals2[0], battleNonce);\n        require(battles[battleHash].blockNumber == 0, \"Battle already recorded\");\n\n        \n\n        FightVars memory t  = FightVars({\n            level1: FighterContract(fighterContractAddress).getLevel(vals1[0]),\n            level2: FighterContract(fighterContractAddress).getLevel(vals2[0]),\n            owner1: ERC721(fighterContractAddress).ownerOf(vals1[0]),\n            owner2: ERC721(fighterContractAddress).ownerOf(vals2[0])\n        });\n\n\n\n        /*\n            vals1: [1, 100, 50, 10, 5, 7, 0]\n            vals2: [2, 100, 50, 5, 10, 14, 1]\n\n\n        */\n        \n\n        // check owner signatures\n\n        // Generate owner hash\n        // hash: this, battleNonce, opponentId, health, mana\n        // bytes32 owner1hash = keccak256(abi.encode(this, battleNonce, vals2[0], vals1[1], vals1[2]));\n        // require(ecrecover(keccak256(abi.encode(\"\\x19Ethereum Signed Message:\\n32\", owner1hash)), v[0], rs[0], rs[1]) == t.owner1, \"Wrong Opponent1 signature\");\n\n        // bytes32 owner2hash = keccak256(abi.encode(this, battleNonce, vals1[0], vals2[1], vals2[2]));\n        // require(ecrecover(keccak256(abi.encode(\"\\x19Ethereum Signed Message:\\n32\", owner1hash)), v[0], rs[0], rs[1]) == t.owner2, \"Wrong Opponent2 signature\");\n\n   \n\n        // update health of fighters\n        FighterContract(fighterContractAddress).decreaseHealth(vals1[0], vals1[4]);\n        FighterContract(fighterContractAddress).decreaseHealth(vals2[0], vals2[4]);\n\n             \n\n        // update fighters mana\n        FighterContract(fighterContractAddress).decreaseMana(vals1[0], vals1[5]);\n        FighterContract(fighterContractAddress).decreaseMana(vals2[0], vals2[5]);\n\n\n        \n \n\n        // get fighter levels\n        uint256 exp1 = calculateExpirience(t.level1, t.level2, vals1[3]);\n\n        emit LogError(21,exp1);\n       // return; \n        uint256 exp2 = calculateExpirience(t.level2, t.level1, vals2[3]);\n\n\n\n        emit LogError(3,exp1);\n        emit LogError(4,exp2);\n        \n        //return;\n\n\n        // increase fighter experience\n        FighterContract(fighterContractAddress).increaseExperience(vals1[0], exp1);\n        FighterContract(fighterContractAddress).increaseExperience(vals2[0], exp2);\n\n        emit LogError(5,0);\n        \n        uint256 winner = 0;\n        if (vals1[6] == 1) \n        {\n            winner = vals1[0];\n        }\n        \n        if (vals2[6] == 1)\n        {\n            winner = vals2[0];\n        }\n        \n\n        emit LogError(6,0);\n        //return;\n\n        uint256 purse = 0;\n\n        if (winner == vals1[0]) \n        {\n            purse = safeMul(exp1, 1e18) / moneyExpDivider;\n            FighterMoneyContract(fighterMoneyContractAddress).payoutBattlePurse(t.owner1, purse);\n        } else if (winner == vals2[0])\n        {\n            purse = safeMul(exp2, 1e18) / moneyExpDivider;\n            FighterMoneyContract(fighterMoneyContractAddress).payoutBattlePurse(t.owner2, purse);\n        }\n\n        \n        \n\n\n        battles[battleHash] = Battle({\n            blockNumber: block.number,\n            opponent1: vals1[0],\n            opponent2: vals2[0],\n            winner: winner\n        });\n\n        emit BattleRecorded(vals1[0], vals2[0], winner, purse);\n    }\n\n\n    function calculateExpirience(uint256 fighterLevel, uint256 opponentLevel, uint256 damageDealt) public returns (uint256) {\n        uint256 levelDifference;\n        uint256 exp;\n        if (fighterLevel > opponentLevel)\n        {\n            levelDifference = fighterLevel - opponentLevel;\n\n            exp = safeMul(damageDealt, safeSub(1e18, safeMul(levelDifference, 1e18) / fighterLevel)) / 1e18;\n        }\n        else if (fighterLevel < opponentLevel)\n        {\n            levelDifference = opponentLevel - fighterLevel;\n\n            exp = safeMul(damageDealt, safeAdd(safeMul(levelDifference, 1e18) / fighterLevel, 1e18)) / 1e18;\n        } \n        else\n        {\n            exp = damageDealt;\n        }\n\n        return exp;\n    }\n\n    function generateBattleHash (\n        uint256 opponent1id,\n        uint256 opponent2id,\n        uint256 nonce\n    ) internal returns (bytes32)\n    {\n\n        return keccak256(abi.encode(this, opponent1id, opponent2id, nonce));\n    }\n\n\n    \n    address public owner; // holds the address of the contract owner\n\n    // Event fired when the owner of the contract is changed\n    event SetOwner(address previousOwner, address newOwner);\n    event SetAdmin(address  previousOwner, bool isActive);\n\n    // Allows only the owner of the contract to execute the function\n    modifier onlyOwner {\n        assert(msg.sender == owner);\n        _;\n    }\n\n\n    // Allows only the owner of the contract to execute the function\n    modifier onlyAdmin {\n        assert(isAdmin[msg.sender]);\n        _;\n    }\n\n\n    // Changes the owner of the contract\n    function setOwner(address newOwner) public onlyOwner {\n        emit SetOwner(owner, newOwner);\n        owner = newOwner;\n    }\n\n\n    mapping (address => bool) private isAdmin;\n\n    // Set battle contract\n    function setAdmin(address addy, bool isActive) external onlyOwner\n    {\n        isAdmin[addy] = isActive;\n        emit SetAdmin(addy, isActive);\n    }\n\n\n\n\n\n\n\n\n    \n    uint256 moneyExpDivider = 100;\n\n\n    event updatedMoneyExpDivider(uint256);\n\n    function setMoneyExpDivider(uint256 val) external onlyOwner {\n        moneyExpDivider = val;\n\n        emit updatedMoneyExpDivider(val);\n    }\n\n    // Returns the smaller of two values\n    function min(uint a, uint b) private pure returns (uint) {\n        return a < b ? a : b;\n    }\n\n    // Returns the largest of the two values\n    function max(uint a, uint b) private pure returns (uint) {\n        return a > b ? a : b;\n    }\n\n    // Safe Multiply Function - prevents integer overflow \n    function safeMul(uint a, uint b) public returns (uint) {\n        uint c = a * b;\n        assert(a == 0 || c / a == b);\n        return c;\n    }\n\n    // Safe Subtraction Function - prevents integer overflow \n    function safeSub(uint a, uint b) public returns (uint) {\n        assert(b <= a);\n        return a - b;\n    }\n\n    // Safe Addition Function - prevents integer overflow \n    function safeAdd(uint a, uint b) public returns (uint) {\n        uint c = a + b;\n        assert(c>=a && c>=b);\n        return c;\n    }\n\n    address public itemsContract;\n\n\n\n}\n",
  "sourcePath": "/Users/max/Documents/prog/game-contracts/contracts/battle.sol",
  "compiler": {
    "name": "solc",
    "version": "0.8.19+commit.7dd6d404.Emscripten.clang"
  },
  "schemaVersion": "3.4.13",
  "updatedAt": "2023-04-19T07:39:54.908Z",
  "networkType": "ethereum",
  "devdoc": {
    "kind": "dev",
    "methods": {},
    "version": 1
  },
  "userdoc": {
    "kind": "user",
    "methods": {},
    "version": 1
  }
}