{
  "contractName": "BattleHelper",
  "abi": [
    {
      "inputs": [
        {
          "internalType": "address",
          "name": "battleAddress",
          "type": "address"
        }
      ],
      "stateMutability": "nonpayable",
      "type": "constructor"
    },
    {
      "inputs": [
        {
          "internalType": "uint256",
          "name": "killedFighter",
          "type": "uint256"
        },
        {
          "components": [
            {
              "internalType": "uint256",
              "name": "fighterId",
              "type": "uint256"
            },
            {
              "internalType": "uint256",
              "name": "damage",
              "type": "uint256"
            }
          ],
          "internalType": "struct Battle.Damage[]",
          "name": "damageDealt",
          "type": "tuple[]"
        },
        {
          "internalType": "uint256",
          "name": "battleNonce",
          "type": "uint256"
        }
      ],
      "name": "recordKill",
      "outputs": [],
      "stateMutability": "nonpayable",
      "type": "function"
    }
  ],
  "bytecode": "0x60803461007457601f6102a938819003918201601f19168301916001600160401b038311848410176100795780849260209460405283398101031261007457516001600160a01b0381169081900361007457600080546001600160a01b03191691909117905560405161021990816100908239f35b600080fd5b634e487b7160e01b600052604160045260246000fdfe608060048036101561001057600080fd5b600091823560e01c63a6bae2301461002757600080fd5b346101df5760603660031901126101df57602480359267ffffffffffffffff8085116101db57366023860112156101db5784820135938185116101c957601f19603f8660051b0116810194818610838711176101b757604095865280825260209687830186819360061b830101913683116101b3578701905b82821061016d57505088546001600160a01b0316929050823b15610169578651630a6bae2360e41b815285358682015260608782015290516064820181905290978993899390926084850192865b8b83821061014657505050505083838092604435604483015203925af1801561013c57610119578580f35b841161012b5750505238808080808580f35b634e487b7160e01b85526041905283fd5b84513d88823e3d90fd5b845180518752830151838701528e98508d975090940193928101926001016100ee565b8880fd5b88823603126101b3578851898101818110888211176101a1578a5282358152828b0135818c015281529088019089016100a0565b634e487b7160e01b8d5260418952898dfd5b8a80fd5b634e487b7160e01b8852604184528488fd5b634e487b7160e01b8752604183528387fd5b8580fd5b8280fdfea2646970667358221220f1e47c4aab659bdf02c914efdb8652ea059b7a8f27f425b735e7cf8ce93d1dd364736f6c63430008130033",
  "immutableReferences": {},
  "source": "// SPDX-License-Identifier: MIT\npragma solidity ^0.8.18;\nimport \"./Battle.sol\";\ncontract BattleHelper {\n    Battle private _battle;\n\n    constructor(address battleAddress) {\n        _battle = Battle(battleAddress);\n    }    \n\n    function recordKill(uint256 killedFighter, Battle.Damage[] memory damageDealt, uint256 battleNonce) external  {\n        return _battle.recordKill(killedFighter, damageDealt, battleNonce);\n    }\n}",
  "sourcePath": "/Users/max/Documents/prog/game-contracts/contracts/BattleHelper.sol",
  "compiler": {
    "name": "solc",
    "version": "0.8.19+commit.7dd6d404.Emscripten.clang"
  },
  "schemaVersion": "3.4.13",
  "updatedAt": "2023-08-10T08:51:38.755Z",
  "networkType": "ethereum",
  "devdoc": {
    "kind": "dev",
    "methods": {},
    "version": 1
  },
  "userdoc": {
    "kind": "user",
    "methods": {},
    "version": 1
  }
}