{
  "contractName": "BattleContract",
  "abi": [
    {
      "inputs": [
        {
          "internalType": "address",
          "name": "fighterContractAddress_",
          "type": "address"
        },
        {
          "internalType": "address",
          "name": "fighterMoneyContractAddress_",
          "type": "address"
        },
        {
          "internalType": "address",
          "name": "itemsContract_",
          "type": "address"
        }
      ],
      "stateMutability": "nonpayable",
      "type": "constructor"
    },
    {
      "anonymous": false,
      "inputs": [
        {
          "indexed": false,
          "internalType": "uint256",
          "name": "player1",
          "type": "uint256"
        },
        {
          "indexed": false,
          "internalType": "uint256",
          "name": "player2",
          "type": "uint256"
        },
        {
          "indexed": false,
          "internalType": "uint256",
          "name": "winner",
          "type": "uint256"
        },
        {
          "indexed": false,
          "internalType": "uint256",
          "name": "purse",
          "type": "uint256"
        }
      ],
      "name": "BattleRecorded",
      "type": "event"
    },
    {
      "anonymous": false,
      "inputs": [
        {
          "indexed": false,
          "internalType": "uint8",
          "name": "",
          "type": "uint8"
        },
        {
          "indexed": false,
          "internalType": "uint256",
          "name": "",
          "type": "uint256"
        }
      ],
      "name": "LogError",
      "type": "event"
    },
    {
      "anonymous": false,
      "inputs": [
        {
          "indexed": false,
          "internalType": "address",
          "name": "previousOwner",
          "type": "address"
        },
        {
          "indexed": false,
          "internalType": "bool",
          "name": "isActive",
          "type": "bool"
        }
      ],
      "name": "SetAdmin",
      "type": "event"
    },
    {
      "anonymous": false,
      "inputs": [
        {
          "indexed": false,
          "internalType": "address",
          "name": "previousOwner",
          "type": "address"
        },
        {
          "indexed": false,
          "internalType": "address",
          "name": "newOwner",
          "type": "address"
        }
      ],
      "name": "SetOwner",
      "type": "event"
    },
    {
      "anonymous": false,
      "inputs": [
        {
          "indexed": false,
          "internalType": "uint256",
          "name": "",
          "type": "uint256"
        }
      ],
      "name": "updatedMoneyExpDivider",
      "type": "event"
    },
    {
      "inputs": [
        {
          "internalType": "bytes32",
          "name": "",
          "type": "bytes32"
        }
      ],
      "name": "battles",
      "outputs": [
        {
          "internalType": "uint256",
          "name": "blockNumber",
          "type": "uint256"
        },
        {
          "internalType": "uint256",
          "name": "opponent1",
          "type": "uint256"
        },
        {
          "internalType": "uint256",
          "name": "opponent2",
          "type": "uint256"
        },
        {
          "internalType": "uint256",
          "name": "winner",
          "type": "uint256"
        }
      ],
      "stateMutability": "view",
      "type": "function"
    },
    {
      "inputs": [],
      "name": "itemsContract",
      "outputs": [
        {
          "internalType": "address",
          "name": "",
          "type": "address"
        }
      ],
      "stateMutability": "view",
      "type": "function"
    },
    {
      "inputs": [],
      "name": "owner",
      "outputs": [
        {
          "internalType": "address",
          "name": "",
          "type": "address"
        }
      ],
      "stateMutability": "view",
      "type": "function"
    },
    {
      "inputs": [
        {
          "internalType": "uint256[7]",
          "name": "vals1",
          "type": "uint256[7]"
        },
        {
          "internalType": "uint256[7]",
          "name": "vals2",
          "type": "uint256[7]"
        },
        {
          "internalType": "uint256",
          "name": "battleNonce",
          "type": "uint256"
        }
      ],
      "name": "recordFight",
      "outputs": [],
      "stateMutability": "nonpayable",
      "type": "function"
    },
    {
      "inputs": [
        {
          "internalType": "uint256",
          "name": "fighterLevel",
          "type": "uint256"
        },
        {
          "internalType": "uint256",
          "name": "opponentLevel",
          "type": "uint256"
        },
        {
          "internalType": "uint256",
          "name": "damageDealt",
          "type": "uint256"
        }
      ],
      "name": "calculateExpirience",
      "outputs": [
        {
          "internalType": "uint256",
          "name": "",
          "type": "uint256"
        }
      ],
      "stateMutability": "nonpayable",
      "type": "function"
    },
    {
      "inputs": [
        {
          "internalType": "address",
          "name": "newOwner",
          "type": "address"
        }
      ],
      "name": "setOwner",
      "outputs": [],
      "stateMutability": "nonpayable",
      "type": "function"
    },
    {
      "inputs": [
        {
          "internalType": "address",
          "name": "addy",
          "type": "address"
        },
        {
          "internalType": "bool",
          "name": "isActive",
          "type": "bool"
        }
      ],
      "name": "setAdmin",
      "outputs": [],
      "stateMutability": "nonpayable",
      "type": "function"
    },
    {
      "inputs": [
        {
          "internalType": "uint256",
          "name": "val",
          "type": "uint256"
        }
      ],
      "name": "setMoneyExpDivider",
      "outputs": [],
      "stateMutability": "nonpayable",
      "type": "function"
    },
    {
      "inputs": [
        {
          "internalType": "uint256",
          "name": "a",
          "type": "uint256"
        },
        {
          "internalType": "uint256",
          "name": "b",
          "type": "uint256"
        }
      ],
      "name": "safeMul",
      "outputs": [
        {
          "internalType": "uint256",
          "name": "",
          "type": "uint256"
        }
      ],
      "stateMutability": "nonpayable",
      "type": "function"
    },
    {
      "inputs": [
        {
          "internalType": "uint256",
          "name": "a",
          "type": "uint256"
        },
        {
          "internalType": "uint256",
          "name": "b",
          "type": "uint256"
        }
      ],
      "name": "safeSub",
      "outputs": [
        {
          "internalType": "uint256",
          "name": "",
          "type": "uint256"
        }
      ],
      "stateMutability": "nonpayable",
      "type": "function"
    },
    {
      "inputs": [
        {
          "internalType": "uint256",
          "name": "a",
          "type": "uint256"
        },
        {
          "internalType": "uint256",
          "name": "b",
          "type": "uint256"
        }
      ],
      "name": "safeAdd",
      "outputs": [
        {
          "internalType": "uint256",
          "name": "",
          "type": "uint256"
        }
      ],
      "stateMutability": "nonpayable",
      "type": "function"
    }
  ],
  "bytecode": "0x6080604052606460055534801561001557600080fd5b50604051610fd1380380610fd1833981016040819052610034916100b8565b600180546001600160a01b03199081166001600160a01b0395861617825560028054821694861694909417909355600680548416929094169190911790925560038054339216821790556000908152600460205260409020805460ff191690911790556100fb565b80516001600160a01b03811681146100b357600080fd5b919050565b6000806000606084860312156100cd57600080fd5b6100d68461009c565b92506100e46020850161009c565b91506100f26040850161009c565b90509250925092565b610ec78061010a6000396000f3fe608060405234801561001057600080fd5b50600436106100a95760003560e01c806378547e6c1161007157806378547e6c146101225780638da5cb5b14610177578063a293d1e8146101a2578063a971e842146101b5578063d05c78da146101c8578063e6cb9013146101db57600080fd5b806313af4035146100ae5780631fedfd0a146100c35780634b0bddd2146100d657806357bcd00d146100e957806374440e9e146100fc575b600080fd5b6100c16100bc366004610c9d565b6101ee565b005b6100c16100d1366004610cba565b610271565b6100c16100e4366004610cd3565b6102c6565b6100c16100f7366004610d22565b610343565b61010f61010a366004610d62565b610b4b565b6040519081526020015b60405180910390f35b610157610130366004610cba565b60006020819052908152604090208054600182015460028301546003909301549192909184565b604080519485526020850193909352918301526060820152608001610119565b60035461018a906001600160a01b031681565b6040516001600160a01b039091168152602001610119565b61010f6101b0366004610d8e565b610c06565b60065461018a906001600160a01b031681565b61010f6101d6366004610d8e565b610c2b565b61010f6101e9366004610d8e565b610c5b565b6003546001600160a01b0316331461020857610208610db0565b600354604080516001600160a01b03928316815291831660208301527fcbf985117192c8f614a58aaf97226bb80a754772f5f6edf06f87c675f2e6c663910160405180910390a1600380546001600160a01b0319166001600160a01b0392909216919091179055565b6003546001600160a01b0316331461028b5761028b610db0565b60058190556040518181527f127404d508a0cf69493bfd98baf6b96ec49407cc6fe58263bcf55e98d9994e349060200160405180910390a150565b6003546001600160a01b031633146102e0576102e0610db0565b6001600160a01b038216600081815260046020908152604091829020805460ff19168515159081179091558251938452908301527f55a5194bc0174fcaf12b2978bef43911466bf63b34db8d1dd1a0d5dcd5c41bea910160405180910390a15050565b3360009081526004602052604090205460ff1661036257610362610db0565b60408051306020808301919091528535828401528435606083015260808083018590528351808403909101815260a0909201835281519181019190912060008181529182905291902054156103fd5760405162461bcd60e51b815260206004820152601760248201527f426174746c6520616c7265616479207265636f72646564000000000000000000604482015260640160405180910390fd5b604080516080810191829052600154630219207560e61b9092528535608482015260009181906001600160a01b03166386481d4060a483016020604051808303816000875af1158015610454573d6000803e3d6000fd5b505050506040513d601f19601f820116820180604052508101906104789190610dc6565b8152600154604051630219207560e61b8152873560048201526020909201916001600160a01b03909116906386481d40906024016020604051808303816000875af11580156104cb573d6000803e3d6000fd5b505050506040513d601f19601f820116820180604052508101906104ef9190610dc6565b81526001546040516331a9108f60e11b8152883560048201526020909201916001600160a01b0390911690636352211e90602401602060405180830381865afa158015610540573d6000803e3d6000fd5b505050506040513d601f19601f820116820180604052508101906105649190610ddf565b6001600160a01b0390811682526001546040516331a9108f60e11b815288356004820152602090930192911690636352211e90602401602060405180830381865afa1580156105b7573d6000803e3d6000fd5b505050506040513d601f19601f820116820180604052508101906105db9190610ddf565b6001600160a01b0390811690915260015460405163a7518eb160e01b81528835600482015260808901356024820152929350169063a7518eb190604401600060405180830381600087803b15801561063257600080fd5b505af1158015610646573d6000803e3d6000fd5b505060015460405163a7518eb160e01b815287356004820152608088013560248201526001600160a01b03909116925063a7518eb19150604401600060405180830381600087803b15801561069a57600080fd5b505af11580156106ae573d6000803e3d6000fd5b5050600154604051638dc1424760e01b81528835600482015260a089013560248201526001600160a01b039091169250638dc142479150604401600060405180830381600087803b15801561070257600080fd5b505af1158015610716573d6000803e3d6000fd5b5050600154604051638dc1424760e01b81528735600482015260a088013560248201526001600160a01b039091169250638dc142479150604401600060405180830381600087803b15801561076a57600080fd5b505af115801561077e573d6000803e3d6000fd5b5050825160208401516000935061079e92508860035b6020020135610b4b565b604080516015815260208101839052919250600080516020610e72833981519152910160405180910390a1602082015182516000916107df91886003610794565b604080516003815260208101859052919250600080516020610e72833981519152910160405180910390a1604080516004815260208101839052600080516020610e72833981519152910160405180910390a160015460405163243a7c7b60e01b815288356004820152602481018490526001600160a01b039091169063243a7c7b90604401600060405180830381600087803b15801561087f57600080fd5b505af1158015610893573d6000803e3d6000fd5b505060015460405163243a7c7b60e01b815289356004820152602481018590526001600160a01b03909116925063243a7c7b9150604401600060405180830381600087803b1580156108e457600080fd5b505af11580156108f8573d6000803e3d6000fd5b5050604080516005815260006020820152600080516020610e72833981519152935001905060405180910390a1600060c0880135600103610937575086355b60c0870135600103610947575085355b604080516006815260006020820152600080516020610e72833981519152910160405180910390a1600088358203610a095760055461098e85670de0b6b3a7640000610c2b565b6109989190610e12565b600254604087810151905163b78636a160e01b81526001600160a01b03918216600482015260248101849052929350169063b78636a190604401600060405180830381600087803b1580156109ec57600080fd5b505af1158015610a00573d6000803e3d6000fd5b50505050610a9d565b87358203610a9d57600554610a2684670de0b6b3a7640000610c2b565b610a309190610e12565b600254606087015160405163b78636a160e01b81526001600160a01b03918216600482015260248101849052929350169063b78636a190604401600060405180830381600087803b158015610a8457600080fd5b505af1158015610a98573d6000803e3d6000fd5b505050505b604080516080810182524381528a35602082015290810189600060209081029190910135825290810184905260008881528082526040908190208351815583830151600182015583820151600282015560609384015160039091015580518c3581528b359281019290925281018490529081018290527f3ea69882536ba5c0664cf3bdef8a6b5c27996390aa0f0f3fb10c6812ee9f787e9060800160405180910390a1505050505050505050565b600080600084861115610bab57610b628587610e34565b9150670de0b6b3a7640000610b9a856101d6670de0b6b3a76400008a610b9088670de0b6b3a7640000610c2b565b6101b09190610e12565b610ba49190610e12565b9050610bfd565b84861015610bfa57610bbd8686610e34565b9150670de0b6b3a7640000610b9a856101d689610be287670de0b6b3a7640000610c2b565b610bec9190610e12565b670de0b6b3a7640000610c5b565b50825b95945050505050565b600082821115610c1857610c18610db0565b610c228284610e34565b90505b92915050565b600080610c388385610e47565b9050831580610c4f575082610c4d8583610e12565b145b610c2257610c22610db0565b600080610c688385610e5e565b9050838110158015610c4f575082811015610c2257610c22610db0565b6001600160a01b0381168114610c9a57600080fd5b50565b600060208284031215610caf57600080fd5b8135610c2281610c85565b600060208284031215610ccc57600080fd5b5035919050565b60008060408385031215610ce657600080fd5b8235610cf181610c85565b915060208301358015158114610d0657600080fd5b809150509250929050565b8060e08101831015610c2557600080fd5b60008060006101e08486031215610d3857600080fd5b610d428585610d11565b9250610d518560e08601610d11565b91506101c084013590509250925092565b600080600060608486031215610d7757600080fd5b505081359360208301359350604090920135919050565b60008060408385031215610da157600080fd5b50508035926020909101359150565b634e487b7160e01b600052600160045260246000fd5b600060208284031215610dd857600080fd5b5051919050565b600060208284031215610df157600080fd5b8151610c2281610c85565b634e487b7160e01b600052601160045260246000fd5b600082610e2f57634e487b7160e01b600052601260045260246000fd5b500490565b81810381811115610c2557610c25610dfc565b8082028115828204841417610c2557610c25610dfc565b80820180821115610c2557610c25610dfc56fe93f9b03ea0c4f6f4154119b4b78510f183504fad78f2517d46d84a546ac0e97da2646970667358221220cc3917741ff6ce1650c590e3f86f1bfa8488ef515f83ebf3c9bb6cb033efdc2864736f6c63430008130033",
  "immutableReferences": {},
  "source": "// SPDX-License-Identifier: MIT\npragma solidity ^0.8.0;\n\n\n/* Interface for ERC20 Tokens */\nabstract contract ERC721 {\n    function balanceOf(address _owner) external virtual view returns (uint256);\n    function ownerOf(uint256 _tokenId) external virtual view returns (address);\n    function safeTransferFrom(address _from, address _to, uint256 _tokenId, bytes memory data) external virtual payable;\n    function safeTransferFrom(address _from, address _to, uint256 _tokenId) external virtual payable;\n    function transferFrom(address _from, address _to, uint256 _tokenId) external virtual payable;\n    function approve(address _approved, uint256 _tokenId) external virtual payable;\n    function setApprovalForAll(address _operator, bool _approved) external virtual;\n    function getApproved(uint256 _tokenId) external virtual view returns (address);\n    function isApprovedForAll(address _owner, address _operator) external virtual view returns (bool);\n\n}\n\n\nabstract contract FighterContract {\n    function increaseExperience(uint256 tokenId, uint256 addExp) external virtual;\n    function decreaseHealth(uint256 tokenId, uint256 damage) external virtual;\n    function getHealth(uint256 tokenId) public virtual returns (uint256);\n    function getMana(uint256 tokenId) public virtual returns (uint256);\n    function getLevel(uint256 tokenId) public virtual returns (uint256);\n    function getDefence (uint256 tokenId) public virtual returns (uint256);\n    function getDamage (uint256 tokenId) public virtual returns (uint256);\n    function decreaseMana(uint256 tokenId, uint256 manaUsed) external virtual;\n    function decreaseStamina(uint256 tokenId, uint256 staminaUsed) external virtual;\n}\n\n\nabstract contract  FighterMoneyContract {\n    function payoutBattlePurse(address playerAddress, uint256 amount) external virtual;\n}\n\ncontract BattleContract {\n    \n\n\n\n\n\n    struct Battle {\n        uint256 blockNumber;\n        uint256 opponent1;\n        uint256 opponent2;\n        uint256 winner; \n    }\n\n   \n    mapping(bytes32 => Battle) public battles;\n    \n    address fighterContractAddress; \n    address fighterMoneyContractAddress; \n\n\n    struct FightVars {\n        uint256 level1;\n        uint256 level2;\n        address owner1;\n        address owner2;\n\n    }\n\n    event LogError(uint8, uint256);\n    event BattleRecorded(uint256 player1, uint256 player2, uint256 winner, uint256 purse);\n\n    function recordFight(\n        uint256[7] calldata vals1,\n        uint256[7] calldata vals2,\n        // uint8[2] calldata v,\n        // bytes32[4] calldata rs,\n        uint256 battleNonce\n    ) external onlyAdmin\n    {\n        /*\n            Opponent Vals\n            [0] opponentId\n            [1] health\n            [2] mana\n            [3] damageDealt\n            [4] damageReceived\n            [5] manaConsumed\n            [6] win (0 - loss, 1 - win, 2 - draw)\n\n        */\n\n        bytes32 battleHash = generateBattleHash(vals1[0], vals2[0], battleNonce);\n        require(battles[battleHash].blockNumber == 0, \"Battle already recorded\");\n\n        \n\n        FightVars memory t  = FightVars({\n            level1: FighterContract(fighterContractAddress).getLevel(vals1[0]),\n            level2: FighterContract(fighterContractAddress).getLevel(vals2[0]),\n            owner1: ERC721(fighterContractAddress).ownerOf(vals1[0]),\n            owner2: ERC721(fighterContractAddress).ownerOf(vals2[0])\n        });\n\n\n\n        /*\n            vals1: [1, 100, 50, 10, 5, 7, 0]\n            vals2: [2, 100, 50, 5, 10, 14, 1]\n\n\n        */\n        \n\n        // check owner signatures\n\n        // Generate owner hash\n        // hash: this, battleNonce, opponentId, health, mana\n        // bytes32 owner1hash = keccak256(abi.encode(this, battleNonce, vals2[0], vals1[1], vals1[2]));\n        // require(ecrecover(keccak256(abi.encode(\"\\x19Ethereum Signed Message:\\n32\", owner1hash)), v[0], rs[0], rs[1]) == t.owner1, \"Wrong Opponent1 signature\");\n\n        // bytes32 owner2hash = keccak256(abi.encode(this, battleNonce, vals1[0], vals2[1], vals2[2]));\n        // require(ecrecover(keccak256(abi.encode(\"\\x19Ethereum Signed Message:\\n32\", owner1hash)), v[0], rs[0], rs[1]) == t.owner2, \"Wrong Opponent2 signature\");\n\n   \n\n        // update health of fighters\n        FighterContract(fighterContractAddress).decreaseHealth(vals1[0], vals1[4]);\n        FighterContract(fighterContractAddress).decreaseHealth(vals2[0], vals2[4]);\n\n             \n\n        // update fighters mana\n        FighterContract(fighterContractAddress).decreaseMana(vals1[0], vals1[5]);\n        FighterContract(fighterContractAddress).decreaseMana(vals2[0], vals2[5]);\n\n\n        \n \n\n        // get fighter levels\n        uint256 exp1 = calculateExpirience(t.level1, t.level2, vals1[3]);\n\n        emit LogError(21,exp1);\n       // return; \n        uint256 exp2 = calculateExpirience(t.level2, t.level1, vals2[3]);\n\n\n\n        emit LogError(3,exp1);\n        emit LogError(4,exp2);\n        \n        //return;\n\n\n        // increase fighter experience\n        FighterContract(fighterContractAddress).increaseExperience(vals1[0], exp1);\n        FighterContract(fighterContractAddress).increaseExperience(vals2[0], exp2);\n\n        emit LogError(5,0);\n        \n        uint256 winner = 0;\n        if (vals1[6] == 1) \n        {\n            winner = vals1[0];\n        }\n        \n        if (vals2[6] == 1)\n        {\n            winner = vals2[0];\n        }\n        \n\n        emit LogError(6,0);\n        //return;\n\n        uint256 purse = 0;\n\n        if (winner == vals1[0]) \n        {\n            purse = safeMul(exp1, 1e18) / moneyExpDivider;\n            FighterMoneyContract(fighterMoneyContractAddress).payoutBattlePurse(t.owner1, purse);\n        } else if (winner == vals2[0])\n        {\n            purse = safeMul(exp2, 1e18) / moneyExpDivider;\n            FighterMoneyContract(fighterMoneyContractAddress).payoutBattlePurse(t.owner2, purse);\n        }\n\n        \n        \n\n\n        battles[battleHash] = Battle({\n            blockNumber: block.number,\n            opponent1: vals1[0],\n            opponent2: vals2[0],\n            winner: winner\n        });\n\n        emit BattleRecorded(vals1[0], vals2[0], winner, purse);\n    }\n\n\n    function calculateExpirience(uint256 fighterLevel, uint256 opponentLevel, uint256 damageDealt) public returns (uint256) {\n        uint256 levelDifference;\n        uint256 exp;\n        if (fighterLevel > opponentLevel)\n        {\n            levelDifference = fighterLevel - opponentLevel;\n\n            exp = safeMul(damageDealt, safeSub(1e18, safeMul(levelDifference, 1e18) / fighterLevel)) / 1e18;\n        }\n        else if (fighterLevel < opponentLevel)\n        {\n            levelDifference = opponentLevel - fighterLevel;\n\n            exp = safeMul(damageDealt, safeAdd(safeMul(levelDifference, 1e18) / fighterLevel, 1e18)) / 1e18;\n        } \n        else\n        {\n            exp = damageDealt;\n        }\n\n        return exp;\n    }\n\n    function generateBattleHash (\n        uint256 opponent1id,\n        uint256 opponent2id,\n        uint256 nonce\n    ) internal returns (bytes32)\n    {\n\n        return keccak256(abi.encode(this, opponent1id, opponent2id, nonce));\n    }\n\n\n    \n    address public owner; // holds the address of the contract owner\n\n    // Event fired when the owner of the contract is changed\n    event SetOwner(address previousOwner, address newOwner);\n    event SetAdmin(address  previousOwner, bool isActive);\n\n    // Allows only the owner of the contract to execute the function\n    modifier onlyOwner {\n        assert(msg.sender == owner);\n        _;\n    }\n\n\n    // Allows only the owner of the contract to execute the function\n    modifier onlyAdmin {\n        assert(isAdmin[msg.sender]);\n        _;\n    }\n\n\n    // Changes the owner of the contract\n    function setOwner(address newOwner) public onlyOwner {\n        emit SetOwner(owner, newOwner);\n        owner = newOwner;\n    }\n\n\n    mapping (address => bool) private isAdmin;\n\n    // Set battle contract\n    function setAdmin(address addy, bool isActive) external onlyOwner\n    {\n        isAdmin[addy] = isActive;\n        emit SetAdmin(addy, isActive);\n    }\n\n\n\n\n\n\n\n\n    \n    uint256 moneyExpDivider = 100;\n\n\n    event updatedMoneyExpDivider(uint256);\n\n    function setMoneyExpDivider(uint256 val) external onlyOwner {\n        moneyExpDivider = val;\n\n        emit updatedMoneyExpDivider(val);\n    }\n\n    // Returns the smaller of two values\n    function min(uint a, uint b) private pure returns (uint) {\n        return a < b ? a : b;\n    }\n\n    // Returns the largest of the two values\n    function max(uint a, uint b) private pure returns (uint) {\n        return a > b ? a : b;\n    }\n\n    // Safe Multiply Function - prevents integer overflow \n    function safeMul(uint a, uint b) public returns (uint) {\n        uint c = a * b;\n        assert(a == 0 || c / a == b);\n        return c;\n    }\n\n    // Safe Subtraction Function - prevents integer overflow \n    function safeSub(uint a, uint b) public returns (uint) {\n        assert(b <= a);\n        return a - b;\n    }\n\n    // Safe Addition Function - prevents integer overflow \n    function safeAdd(uint a, uint b) public returns (uint) {\n        uint c = a + b;\n        assert(c>=a && c>=b);\n        return c;\n    }\n\n    address public itemsContract;\n\n\n    constructor(address fighterContractAddress_, address fighterMoneyContractAddress_, address itemsContract_) {\n        fighterContractAddress = fighterContractAddress_;\n        fighterMoneyContractAddress = fighterMoneyContractAddress_;\n        itemsContract = itemsContract_;\n        owner = msg.sender;\n        isAdmin[owner] = true;\n    }\n}\n",
  "sourcePath": "/Users/max/Documents/prog/mriusd/contracts/battle.sol",
  "compiler": {
    "name": "solc",
    "version": "0.8.19+commit.7dd6d404.Emscripten.clang"
  },
  "schemaVersion": "3.4.13",
  "updatedAt": "2023-04-14T07:13:07.196Z",
  "devdoc": {
    "kind": "dev",
    "methods": {},
    "version": 1
  },
  "userdoc": {
    "kind": "user",
    "methods": {},
    "version": 1
  }
}