{
  "contractName": "Battle",
  "abi": [
    {
      "inputs": [
        {
          "internalType": "address",
          "name": "fighterHelperContract",
          "type": "address"
        },
        {
          "internalType": "address",
          "name": "itemsHelperContract",
          "type": "address"
        }
      ],
      "stateMutability": "nonpayable",
      "type": "constructor"
    },
    {
      "anonymous": false,
      "inputs": [
        {
          "indexed": false,
          "internalType": "uint256",
          "name": "killedFighter",
          "type": "uint256"
        },
        {
          "indexed": false,
          "internalType": "bytes32",
          "name": "battleHash",
          "type": "bytes32"
        },
        {
          "indexed": false,
          "internalType": "uint256",
          "name": "battleNonce",
          "type": "uint256"
        }
      ],
      "name": "BattleRecorded",
      "type": "event"
    },
    {
      "anonymous": false,
      "inputs": [
        {
          "indexed": false,
          "internalType": "uint8",
          "name": "",
          "type": "uint8"
        },
        {
          "indexed": false,
          "internalType": "uint256",
          "name": "",
          "type": "uint256"
        }
      ],
      "name": "LogError",
      "type": "event"
    },
    {
      "inputs": [
        {
          "internalType": "bytes32",
          "name": "",
          "type": "bytes32"
        }
      ],
      "name": "battles",
      "outputs": [
        {
          "internalType": "uint256",
          "name": "",
          "type": "uint256"
        }
      ],
      "stateMutability": "view",
      "type": "function",
      "constant": true
    },
    {
      "inputs": [
        {
          "internalType": "uint256",
          "name": "killedFighter",
          "type": "uint256"
        },
        {
          "components": [
            {
              "internalType": "uint256",
              "name": "fighterId",
              "type": "uint256"
            },
            {
              "internalType": "uint256",
              "name": "damage",
              "type": "uint256"
            }
          ],
          "internalType": "struct Battle.Damage[]",
          "name": "damageDealt",
          "type": "tuple[]"
        },
        {
          "internalType": "uint256",
          "name": "battleNonce",
          "type": "uint256"
        }
      ],
      "name": "recordKill",
      "outputs": [],
      "stateMutability": "nonpayable",
      "type": "function"
    },
    {
      "inputs": [
        {
          "internalType": "uint256",
          "name": "fighterLevel",
          "type": "uint256"
        },
        {
          "internalType": "uint256",
          "name": "opponentLevel",
          "type": "uint256"
        },
        {
          "internalType": "uint256",
          "name": "damageDealt",
          "type": "uint256"
        }
      ],
      "name": "calculateExperience",
      "outputs": [
        {
          "internalType": "uint256",
          "name": "",
          "type": "uint256"
        }
      ],
      "stateMutability": "nonpayable",
      "type": "function"
    },
    {
      "inputs": [
        {
          "internalType": "uint256",
          "name": "a",
          "type": "uint256"
        },
        {
          "internalType": "uint256",
          "name": "b",
          "type": "uint256"
        }
      ],
      "name": "safeMul",
      "outputs": [
        {
          "internalType": "uint256",
          "name": "",
          "type": "uint256"
        }
      ],
      "stateMutability": "nonpayable",
      "type": "function"
    },
    {
      "inputs": [
        {
          "internalType": "uint256",
          "name": "a",
          "type": "uint256"
        },
        {
          "internalType": "uint256",
          "name": "b",
          "type": "uint256"
        }
      ],
      "name": "safeSub",
      "outputs": [
        {
          "internalType": "uint256",
          "name": "",
          "type": "uint256"
        }
      ],
      "stateMutability": "nonpayable",
      "type": "function"
    },
    {
      "inputs": [
        {
          "internalType": "uint256",
          "name": "a",
          "type": "uint256"
        },
        {
          "internalType": "uint256",
          "name": "b",
          "type": "uint256"
        }
      ],
      "name": "safeAdd",
      "outputs": [
        {
          "internalType": "uint256",
          "name": "",
          "type": "uint256"
        }
      ],
      "stateMutability": "nonpayable",
      "type": "function"
    }
  ],
  "bytecode": "0x608060405234801561001057600080fd5b506040516109f63803806109f683398101604081905261002f9161007c565b600180546001600160a01b039384166001600160a01b031991821617909155600080549290931691161790556100af565b80516001600160a01b038116811461007757600080fd5b919050565b6000806040838503121561008f57600080fd5b61009883610060565b91506100a660208401610060565b90509250929050565b610938806100be6000396000f3fe608060405234801561001057600080fd5b50600436106100625760003560e01c80636c7ad6c11461006757806378547e6c1461008c578063a293d1e8146100ac578063a6bae230146100bf578063d05c78da146100d4578063e6cb9013146100e7575b600080fd5b61007a610075366004610677565b6100fa565b60405190815260200160405180910390f35b61007a61009a3660046106a3565b60026020526000908152604090205481565b61007a6100ba3660046106bc565b6101c2565b6100d26100cd36600461074e565b6101e7565b005b61007a6100e23660046106bc565b610607565b61007a6100f53660046106bc565b610637565b600080600061010a600187610661565b9550848611156101675761011e8587610845565b9150670de0b6b3a7640000610156856100e2670de0b6b3a76400008a61014c88670de0b6b3a7640000610607565b6100ba9190610858565b6101609190610858565b90506101b9565b848610156101b6576101798686610845565b9150670de0b6b3a7640000610156856100e28961019e87670de0b6b3a7640000610607565b6101a89190610858565b670de0b6b3a7640000610637565b50825b95945050505050565b6000828211156101d4576101d461087a565b6101de8284610845565b90505b92915050565b60408051306020808301919091528183018690526060808301859052835180840390910181526080909201835281519181019190912060008181526002909252919020541561027d5760405162461bcd60e51b815260206004820152601760248201527f426174746c6520616c7265616479207265636f7264656400000000000000000060448201526064015b60405180910390fd5b60008351116102be5760405162461bcd60e51b815260206004820152600d60248201526c44616d6167657320656d70747960981b6044820152606401610274565b600154604051630219207560e61b8152600481018690526000916001600160a01b0316906386481d4090602401602060405180830381865afa158015610308573d6000803e3d6000fd5b505050506040513d601f19601f8201168201806040525081019061032c9190610890565b905060008060005b86518110156105aa5760015487516001600160a01b03909116906386481d4090899084908110610366576103666108a9565b6020026020010151600001516040518263ffffffff1660e01b815260040161039091815260200190565b602060405180830381865afa1580156103ad573d6000803e3d6000fd5b505050506040513d601f19601f820116820180604052508101906103d19190610890565b92506103fb83858984815181106103ea576103ea6108a9565b6020026020010151602001516100fa565b60015488519193506001600160a01b03169063243a7c7b90899084908110610425576104256108a9565b602002602001015160000151846040518363ffffffff1660e01b8152600401610458929190918252602082015260400190565b600060405180830381600087803b15801561047257600080fd5b505af1158015610486573d6000803e3d6000fd5b5050505080600003610598576000546001546040516339f4fa5f60e01b8152600481018b90526001600160a01b039283169263eceb69029216906339f4fa5f90602401602060405180830381865afa1580156104e6573d6000803e3d6000fd5b505050506040513d601f19601f8201168201806040525081019061050a9190610890565b89848151811061051c5761051c6108a9565b6020908102919091010151516040516001600160e01b031960e085901b16815260048101929092526024820152604481018590526064016020604051808303816000875af1158015610572573d6000803e3d6000fd5b505050506040513d601f19601f820116820180604052508101906105969190610890565b505b806105a2816108bf565b915050610334565b5060008481526002602090815260409182902043905581518981529081018690529081018690527ffbd683633721322acba9a3e7bab4b11f73234e3696f7c4a466166e4dbf8dab219060600160405180910390a150505050505050565b60008061061483856108d8565b905083158061062b5750826106298583610858565b145b6101de576101de61087a565b60008061064483856108ef565b905083811015801561062b5750828110156101de576101de61087a565b600081831161067057816101de565b5090919050565b60008060006060848603121561068c57600080fd5b505081359360208301359350604090920135919050565b6000602082840312156106b557600080fd5b5035919050565b600080604083850312156106cf57600080fd5b50508035926020909101359150565b634e487b7160e01b600052604160045260246000fd5b6040805190810167ffffffffffffffff81118282101715610717576107176106de565b60405290565b604051601f8201601f1916810167ffffffffffffffff81118282101715610746576107466106de565b604052919050565b60008060006060848603121561076357600080fd5b8335925060208085013567ffffffffffffffff8082111561078357600080fd5b818701915087601f83011261079757600080fd5b8135818111156107a9576107a96106de565b6107b7848260051b0161071d565b818152848101925060069190911b8301840190898211156107d757600080fd5b928401925b8184101561081a576040848b0312156107f55760008081fd5b6107fd6106f4565b8435815285850135868201528352604090930192918401916107dc565b96999698505050506040949094013593505050565b634e487b7160e01b600052601160045260246000fd5b818103818111156101e1576101e161082f565b60008261087557634e487b7160e01b600052601260045260246000fd5b500490565b634e487b7160e01b600052600160045260246000fd5b6000602082840312156108a257600080fd5b5051919050565b634e487b7160e01b600052603260045260246000fd5b6000600182016108d1576108d161082f565b5060010190565b80820281158282048414176101e1576101e161082f565b808201808211156101e1576101e161082f56fea2646970667358221220d30a7a0a8a072fb695bb1a1bb65a04601ba80cc037a8d89fdf5c798151291aa464736f6c63430008130033",
  "immutableReferences": {},
  "source": "// SPDX-License-Identifier: MIT\npragma solidity ^0.8.10;\nimport \"./ItemsHelper.sol\";\nimport \"./FighterHelper.sol\";\n\ncontract Battle {\n    ItemsHelper private _itemsHelper;\n    FighterHelper private _fighterHelper;\n\n\n    mapping(bytes32 => uint256) public battles;\n\n    event LogError(uint8, uint256);\n    event BattleRecorded(uint256 killedFighter, bytes32 battleHash, uint256 battleNonce);\n\n\n    constructor(address fighterHelperContract, address itemsHelperContract) {\n        _fighterHelper = FighterHelper(fighterHelperContract);        \n        _itemsHelper = ItemsHelper(itemsHelperContract);\n    }\n\n    struct Damage {\n        uint256 fighterId;\n        uint256 damage;\n    }\n\n    function recordKill(\n        uint256 killedFighter,\n        Damage[] memory damageDealt,\n        uint256 battleNonce\n    ) external \n    {\n        bytes32 battleHash = generateBattleHash(killedFighter, battleNonce);\n        require(battles[battleHash] == 0, \"Battle already recorded\");        \n        require(damageDealt.length > 0, \"Damages empty\");\n        \n        uint256 killLevel = _fighterHelper.getLevel(killedFighter);\n\n        uint256 killerLevel;\n        uint256 killerExp;\n        for (uint256 i =0; i<damageDealt.length; i++) {\n            killerLevel = _fighterHelper.getLevel(damageDealt[i].fighterId);\n            killerExp = calculateExperience(killerLevel, killLevel, damageDealt[i].damage);\n            _fighterHelper.increaseExperience(damageDealt[i].fighterId, killerExp);\n\n            if (i == 0) {\n                _itemsHelper.dropItem(_fighterHelper.getDropRarityLevel(killedFighter), damageDealt[i].fighterId, killerExp);\n            }\n        }       \n\n        battles[battleHash] = block.number;\n        \n        emit BattleRecorded(killedFighter, battleHash, battleNonce);\n    }\n\n\n    function calculateExperience(uint256 fighterLevel, uint256 opponentLevel, uint256 damageDealt) public returns (uint256) {\n        uint256 levelDifference;\n        uint256 exp;\n\n        fighterLevel = max(1, fighterLevel);\n        if (fighterLevel > opponentLevel)\n        {\n            levelDifference = fighterLevel - opponentLevel;\n\n            exp = safeMul(damageDealt, safeSub(1e18, safeMul(levelDifference, 1e18) / fighterLevel)) / 1e18;\n        }\n        else if (fighterLevel < opponentLevel)\n        {\n            levelDifference = opponentLevel - fighterLevel;\n\n            exp = safeMul(damageDealt, safeAdd(safeMul(levelDifference, 1e18) / fighterLevel, 1e18)) / 1e18;\n        } \n        else\n        {\n            exp = damageDealt;\n        }\n\n        return exp;\n    }\n\n    function generateBattleHash (\n        uint256 killedFighter,\n        uint256 nonce\n    ) internal returns (bytes32)\n    {\n        return keccak256(abi.encode(this, killedFighter, nonce));\n    }\n\n\n   \n\n    // Returns the smaller of two values\n    function min(uint a, uint b) private pure returns (uint) {\n        return a < b ? a : b;\n    }\n\n    // Returns the largest of the two values\n    function max(uint a, uint b) private pure returns (uint) {\n        return a > b ? a : b;\n    }\n\n    // Safe Multiply Function - prevents integer overflow \n    function safeMul(uint a, uint b) public returns (uint) {\n        uint c = a * b;\n        assert(a == 0 || c / a == b);\n        return c;\n    }\n\n    // Safe Subtraction Function - prevents integer overflow \n    function safeSub(uint a, uint b) public returns (uint) {\n        assert(b <= a);\n        return a - b;\n    }\n\n    // Safe Addition Function - prevents integer overflow \n    function safeAdd(uint a, uint b) public returns (uint) {\n        uint c = a + b;\n        assert(c>=a && c>=b);\n        return c;\n    }\n\n}\n",
  "sourcePath": "/Users/max/Documents/prog/game-contracts/contracts/battle.sol",
  "compiler": {
    "name": "solc",
    "version": "0.8.19+commit.7dd6d404.Emscripten.clang"
  },
  "schemaVersion": "3.4.13",
  "updatedAt": "2023-07-25T05:51:08.400Z",
  "networkType": "ethereum",
  "devdoc": {
    "kind": "dev",
    "methods": {},
    "version": 1
  },
  "userdoc": {
    "kind": "user",
    "methods": {},
    "version": 1
  }
}