{
  "contractName": "Battle",
  "abi": [
    {
      "inputs": [
        {
          "internalType": "address",
          "name": "fighterHelperContract",
          "type": "address"
        },
        {
          "internalType": "address",
          "name": "itemsHelperContract",
          "type": "address"
        }
      ],
      "stateMutability": "nonpayable",
      "type": "constructor"
    },
    {
      "anonymous": false,
      "inputs": [
        {
          "indexed": false,
          "internalType": "uint256",
          "name": "killedFighter",
          "type": "uint256"
        },
        {
          "indexed": false,
          "internalType": "bytes32",
          "name": "battleHash",
          "type": "bytes32"
        },
        {
          "indexed": false,
          "internalType": "uint256",
          "name": "battleNonce",
          "type": "uint256"
        }
      ],
      "name": "BattleRecorded",
      "type": "event"
    },
    {
      "anonymous": false,
      "inputs": [
        {
          "indexed": false,
          "internalType": "uint8",
          "name": "",
          "type": "uint8"
        },
        {
          "indexed": false,
          "internalType": "uint256",
          "name": "",
          "type": "uint256"
        }
      ],
      "name": "LogError",
      "type": "event"
    },
    {
      "inputs": [
        {
          "internalType": "bytes32",
          "name": "",
          "type": "bytes32"
        }
      ],
      "name": "battles",
      "outputs": [
        {
          "internalType": "uint256",
          "name": "",
          "type": "uint256"
        }
      ],
      "stateMutability": "view",
      "type": "function",
      "constant": true
    },
    {
      "inputs": [
        {
          "internalType": "uint256",
          "name": "killedFighter",
          "type": "uint256"
        },
        {
          "components": [
            {
              "internalType": "uint256",
              "name": "fighterId",
              "type": "uint256"
            },
            {
              "internalType": "uint256",
              "name": "damage",
              "type": "uint256"
            },
            {
              "internalType": "uint256",
              "name": "medianPartyLevel",
              "type": "uint256"
            }
          ],
          "internalType": "struct Battle.Damage[]",
          "name": "damageDealt",
          "type": "tuple[]"
        },
        {
          "internalType": "uint256",
          "name": "battleNonce",
          "type": "uint256"
        }
      ],
      "name": "recordKill",
      "outputs": [],
      "stateMutability": "nonpayable",
      "type": "function"
    },
    {
      "inputs": [
        {
          "internalType": "uint256",
          "name": "fighterLevel",
          "type": "uint256"
        },
        {
          "internalType": "uint256",
          "name": "opponentLevel",
          "type": "uint256"
        },
        {
          "internalType": "uint256",
          "name": "damageDealt",
          "type": "uint256"
        }
      ],
      "name": "calculateExpirience",
      "outputs": [
        {
          "internalType": "uint256",
          "name": "",
          "type": "uint256"
        }
      ],
      "stateMutability": "nonpayable",
      "type": "function"
    },
    {
      "inputs": [
        {
          "internalType": "uint256",
          "name": "a",
          "type": "uint256"
        },
        {
          "internalType": "uint256",
          "name": "b",
          "type": "uint256"
        }
      ],
      "name": "safeMul",
      "outputs": [
        {
          "internalType": "uint256",
          "name": "",
          "type": "uint256"
        }
      ],
      "stateMutability": "nonpayable",
      "type": "function"
    },
    {
      "inputs": [
        {
          "internalType": "uint256",
          "name": "a",
          "type": "uint256"
        },
        {
          "internalType": "uint256",
          "name": "b",
          "type": "uint256"
        }
      ],
      "name": "safeSub",
      "outputs": [
        {
          "internalType": "uint256",
          "name": "",
          "type": "uint256"
        }
      ],
      "stateMutability": "nonpayable",
      "type": "function"
    },
    {
      "inputs": [
        {
          "internalType": "uint256",
          "name": "a",
          "type": "uint256"
        },
        {
          "internalType": "uint256",
          "name": "b",
          "type": "uint256"
        }
      ],
      "name": "safeAdd",
      "outputs": [
        {
          "internalType": "uint256",
          "name": "",
          "type": "uint256"
        }
      ],
      "stateMutability": "nonpayable",
      "type": "function"
    }
  ],
  "bytecode": "0x608060405234801561001057600080fd5b506040516108e93803806108e983398101604081905261002f9161007c565b600180546001600160a01b039384166001600160a01b031991821617909155600080549290931691161790556100af565b80516001600160a01b038116811461007757600080fd5b919050565b6000806040838503121561008f57600080fd5b61009883610060565b91506100a660208401610060565b90509250929050565b61082b806100be6000396000f3fe608060405234801561001057600080fd5b50600436106100625760003560e01c806374440e9e1461006757806378547e6c1461008c578063a293d1e8146100ac578063d05c78da146100bf578063e6cb9013146100d2578063f9346d9a146100e5575b600080fd5b61007a610075366004610564565b6100fa565b60405190815260200160405180910390f35b61007a61009a366004610590565b60026020526000908152604090205481565b61007a6100ba3660046105a9565b6101b5565b61007a6100cd3660046105a9565b6101da565b61007a6100e03660046105a9565b61020a565b6100f86100f336600461063b565b610234565b005b60008060008486111561015a576101118587610738565b9150670de0b6b3a7640000610149856100cd670de0b6b3a76400008a61013f88670de0b6b3a76400006101da565b6100ba919061074b565b610153919061074b565b90506101ac565b848610156101a95761016c8686610738565b9150670de0b6b3a7640000610149856100cd8961019187670de0b6b3a76400006101da565b61019b919061074b565b670de0b6b3a764000061020a565b50825b95945050505050565b6000828211156101c7576101c761076d565b6101d18284610738565b90505b92915050565b6000806101e78385610783565b90508315806101fe5750826101fc858361074b565b145b6101d1576101d161076d565b600080610217838561079a565b90508381101580156101fe5750828110156101d1576101d161076d565b6040805130602080830191909152818301869052606080830185905283518084039091018152608090920183528151918101919091206000818152600290925291902054156102ca5760405162461bcd60e51b815260206004820152601760248201527f426174746c6520616c7265616479207265636f7264656400000000000000000060448201526064015b60405180910390fd5b600083511161030b5760405162461bcd60e51b815260206004820152600d60248201526c44616d6167657320656d70747960981b60448201526064016102c1565b600154604051630219207560e61b8152600481018690526000916001600160a01b0316906386481d4090602401602060405180830381865afa158015610355573d6000803e3d6000fd5b505050506040513d601f19601f8201168201806040525081019061037991906107ad565b905060008060005b86518110156105075760015487516001600160a01b03909116906386481d40908990849081106103b3576103b36107c6565b6020026020010151600001516040518263ffffffff1660e01b81526004016103dd91815260200190565b602060405180830381865afa1580156103fa573d6000803e3d6000fd5b505050506040513d601f19601f8201168201806040525081019061041e91906107ad565b9250610465878281518110610435576104356107c6565b60200260200101516040015185898481518110610454576104546107c6565b6020026020010151602001516100fa565b60015488519193506001600160a01b03169063243a7c7b9089908490811061048f5761048f6107c6565b602002602001015160000151846040518363ffffffff1660e01b81526004016104c2929190918252602082015260400190565b600060405180830381600087803b1580156104dc57600080fd5b505af11580156104f0573d6000803e3d6000fd5b5050505080806104ff906107dc565b915050610381565b5060008481526002602090815260409182902043905581518981529081018690529081018690527ffbd683633721322acba9a3e7bab4b11f73234e3696f7c4a466166e4dbf8dab219060600160405180910390a150505050505050565b60008060006060848603121561057957600080fd5b505081359360208301359350604090920135919050565b6000602082840312156105a257600080fd5b5035919050565b600080604083850312156105bc57600080fd5b50508035926020909101359150565b634e487b7160e01b600052604160045260246000fd5b6040516060810167ffffffffffffffff81118282101715610604576106046105cb565b60405290565b604051601f8201601f1916810167ffffffffffffffff81118282101715610633576106336105cb565b604052919050565b6000806000606080858703121561065157600080fd5b8435935060208086013567ffffffffffffffff8082111561067157600080fd5b818801915088601f83011261068557600080fd5b813581811115610697576106976105cb565b6106a5848260051b0161060a565b818152848101925090850283018401908a8211156106c257600080fd5b928401925b8184101561070c5785848c0312156106df5760008081fd5b6106e76105e1565b84358152858501358682015260408086013590820152835292850192918401916106c7565b979a979950505050604095909501359450505050565b634e487b7160e01b600052601160045260246000fd5b818103818111156101d4576101d4610722565b60008261076857634e487b7160e01b600052601260045260246000fd5b500490565b634e487b7160e01b600052600160045260246000fd5b80820281158282048414176101d4576101d4610722565b808201808211156101d4576101d4610722565b6000602082840312156107bf57600080fd5b5051919050565b634e487b7160e01b600052603260045260246000fd5b6000600182016107ee576107ee610722565b506001019056fea2646970667358221220f1c2a221a969f8cf55cee8cfd8989583d1cc98639d3175f78d30508159d4790564736f6c63430008130033",
  "immutableReferences": {},
  "source": "// SPDX-License-Identifier: MIT\npragma solidity ^0.8.0;\nimport \"./ItemsHelper.sol\";\nimport \"./FighterHelper.sol\";\n\ncontract Battle {\n    ItemsHelper private _itemsHelper;\n    FighterHelper private _fighterHelper;\n\n\n    mapping(bytes32 => uint256) public battles;\n\n    event LogError(uint8, uint256);\n    event BattleRecorded(uint256 killedFighter, bytes32 battleHash, uint256 battleNonce);\n\n\n    constructor(address fighterHelperContract, address itemsHelperContract) {\n        _fighterHelper = FighterHelper(fighterHelperContract);        \n        _itemsHelper = ItemsHelper(itemsHelperContract);\n    }\n\n    struct Damage {\n        uint256 fighterId;\n        uint256 damage;\n        uint256 medianPartyLevel;\n    }\n\n    function recordKill(\n        uint256 killedFighter,\n        Damage[] memory damageDealt,\n        uint256 battleNonce\n    ) external \n    {\n        bytes32 battleHash = generateBattleHash(killedFighter, battleNonce);\n        require(battles[battleHash] == 0, \"Battle already recorded\");        \n        require(damageDealt.length > 0, \"Damages empty\");\n        \n        uint256 killLevel = _fighterHelper.getLevel(killedFighter);\n\n        uint256 killerLevel;\n        uint256 killerExp;\n        for (uint256 i =0; i<damageDealt.length; i++) {\n            killerLevel = _fighterHelper.getLevel(damageDealt[i].fighterId);\n            killerExp = calculateExpirience(damageDealt[i].medianPartyLevel, killLevel, damageDealt[i].damage);\n            _fighterHelper.increaseExperience(damageDealt[i].fighterId, killerExp);\n        }       \n\n        battles[battleHash] = block.number;\n\n        emit BattleRecorded(killedFighter, battleHash, battleNonce);\n    }\n\n\n    function calculateExpirience(uint256 fighterLevel, uint256 opponentLevel, uint256 damageDealt) public returns (uint256) {\n        uint256 levelDifference;\n        uint256 exp;\n        if (fighterLevel > opponentLevel)\n        {\n            levelDifference = fighterLevel - opponentLevel;\n\n            exp = safeMul(damageDealt, safeSub(1e18, safeMul(levelDifference, 1e18) / fighterLevel)) / 1e18;\n        }\n        else if (fighterLevel < opponentLevel)\n        {\n            levelDifference = opponentLevel - fighterLevel;\n\n            exp = safeMul(damageDealt, safeAdd(safeMul(levelDifference, 1e18) / fighterLevel, 1e18)) / 1e18;\n        } \n        else\n        {\n            exp = damageDealt;\n        }\n\n        return exp;\n    }\n\n    function generateBattleHash (\n        uint256 killedFighter,\n        uint256 nonce\n    ) internal returns (bytes32)\n    {\n        return keccak256(abi.encode(this, killedFighter, nonce));\n    }\n\n\n   \n\n    // Returns the smaller of two values\n    function min(uint a, uint b) private pure returns (uint) {\n        return a < b ? a : b;\n    }\n\n    // Returns the largest of the two values\n    function max(uint a, uint b) private pure returns (uint) {\n        return a > b ? a : b;\n    }\n\n    // Safe Multiply Function - prevents integer overflow \n    function safeMul(uint a, uint b) public returns (uint) {\n        uint c = a * b;\n        assert(a == 0 || c / a == b);\n        return c;\n    }\n\n    // Safe Subtraction Function - prevents integer overflow \n    function safeSub(uint a, uint b) public returns (uint) {\n        assert(b <= a);\n        return a - b;\n    }\n\n    // Safe Addition Function - prevents integer overflow \n    function safeAdd(uint a, uint b) public returns (uint) {\n        uint c = a + b;\n        assert(c>=a && c>=b);\n        return c;\n    }\n\n}\n",
  "sourcePath": "/Users/max/Documents/prog/game-contracts/contracts/battle.sol",
  "compiler": {
    "name": "solc",
    "version": "0.8.19+commit.7dd6d404.Emscripten.clang"
  },
  "schemaVersion": "3.4.13",
  "updatedAt": "2023-04-20T09:33:16.352Z",
  "networkType": "ethereum",
  "devdoc": {
    "kind": "dev",
    "methods": {},
    "version": 1
  },
  "userdoc": {
    "kind": "user",
    "methods": {},
    "version": 1
  }
}