{
  "contractName": "BattleHelper",
  "abi": [
    {
      "inputs": [
        {
          "internalType": "address",
          "name": "battleAddress",
          "type": "address"
        }
      ],
      "stateMutability": "nonpayable",
      "type": "constructor"
    },
    {
      "inputs": [
        {
          "internalType": "uint256",
          "name": "killedFighter",
          "type": "uint256"
        },
        {
          "components": [
            {
              "internalType": "uint256",
              "name": "fighterId",
              "type": "uint256"
            },
            {
              "internalType": "uint256",
              "name": "damage",
              "type": "uint256"
            }
          ],
          "internalType": "struct Battle.Damage[]",
          "name": "damageDealt",
          "type": "tuple[]"
        },
        {
          "internalType": "uint256",
          "name": "battleNonce",
          "type": "uint256"
        }
      ],
      "name": "recordKill",
      "outputs": [],
      "stateMutability": "nonpayable",
      "type": "function"
    }
  ],
  "bytecode": "0x608060405234801561001057600080fd5b5060405161032c38038061032c83398101604081905261002f91610054565b600080546001600160a01b0319166001600160a01b0392909216919091179055610084565b60006020828403121561006657600080fd5b81516001600160a01b038116811461007d57600080fd5b9392505050565b610299806100936000396000f3fe608060405234801561001057600080fd5b506004361061002b5760003560e01c8063a6bae23014610030575b600080fd5b61004361003e366004610120565b610045565b005b600054604051630a6bae2360e41b81526001600160a01b039091169063a6bae2309061007990869086908690600401610201565b600060405180830381600087803b15801561009357600080fd5b505af11580156100a7573d6000803e3d6000fd5b50505050505050565b634e487b7160e01b600052604160045260246000fd5b6040805190810167ffffffffffffffff811182821017156100e9576100e96100b0565b60405290565b604051601f8201601f1916810167ffffffffffffffff81118282101715610118576101186100b0565b604052919050565b60008060006060848603121561013557600080fd5b8335925060208085013567ffffffffffffffff8082111561015557600080fd5b818701915087601f83011261016957600080fd5b81358181111561017b5761017b6100b0565b610189848260051b016100ef565b818152848101925060069190911b8301840190898211156101a957600080fd5b928401925b818410156101ec576040848b0312156101c75760008081fd5b6101cf6100c6565b8435815285850135868201528352604090930192918401916101ae565b96999698505050506040949094013593505050565b6000606082018583526020606081850152818651808452608086019150828801935060005b8181101561024d578451805184528401518484015293830193604090920191600101610226565b505080935050505082604083015294935050505056fea26469706673582212201a735bb876aaacc8b9b7eca784a9e5df78ec693b2a6485586bbbd19859fc59c964736f6c63430008130033",
  "immutableReferences": {},
  "source": "// SPDX-License-Identifier: MIT\npragma solidity ^0.8.18;\nimport \"./Battle.sol\";\ncontract BattleHelper {\n    Battle private _battle;\n\n    constructor(address battleAddress) {\n        _battle = Battle(battleAddress);\n    }    \n\n    function recordKill(uint256 killedFighter, Battle.Damage[] memory damageDealt, uint256 battleNonce) external  {\n        return _battle.recordKill(killedFighter, damageDealt, battleNonce);\n    }\n}",
  "sourcePath": "/Users/max/Documents/prog/game-contracts/contracts/BattleHelper.sol",
  "compiler": {
    "name": "solc",
    "version": "0.8.19+commit.7dd6d404.Emscripten.clang"
  },
  "schemaVersion": "3.4.13",
  "updatedAt": "2023-08-04T05:17:18.208Z",
  "networkType": "ethereum",
  "devdoc": {
    "kind": "dev",
    "methods": {},
    "version": 1
  },
  "userdoc": {
    "kind": "user",
    "methods": {},
    "version": 1
  }
}