{
  "contractName": "Battle",
  "abi": [
    {
      "inputs": [
        {
          "internalType": "address",
          "name": "fightersHelperContract",
          "type": "address"
        },
        {
          "internalType": "address",
          "name": "dropHelperContract",
          "type": "address"
        }
      ],
      "stateMutability": "nonpayable",
      "type": "constructor"
    },
    {
      "anonymous": false,
      "inputs": [
        {
          "indexed": false,
          "internalType": "uint256",
          "name": "killedFighter",
          "type": "uint256"
        },
        {
          "indexed": false,
          "internalType": "bytes32",
          "name": "battleHash",
          "type": "bytes32"
        },
        {
          "indexed": false,
          "internalType": "uint256",
          "name": "battleNonce",
          "type": "uint256"
        }
      ],
      "name": "BattleRecorded",
      "type": "event"
    },
    {
      "anonymous": false,
      "inputs": [
        {
          "indexed": false,
          "internalType": "uint8",
          "name": "",
          "type": "uint8"
        },
        {
          "indexed": false,
          "internalType": "uint256",
          "name": "",
          "type": "uint256"
        }
      ],
      "name": "LogError",
      "type": "event"
    },
    {
      "inputs": [
        {
          "internalType": "bytes32",
          "name": "",
          "type": "bytes32"
        }
      ],
      "name": "battles",
      "outputs": [
        {
          "internalType": "uint256",
          "name": "",
          "type": "uint256"
        }
      ],
      "stateMutability": "view",
      "type": "function",
      "constant": true
    },
    {
      "inputs": [
        {
          "internalType": "uint256",
          "name": "killedFighter",
          "type": "uint256"
        },
        {
          "components": [
            {
              "internalType": "uint256",
              "name": "fighterId",
              "type": "uint256"
            },
            {
              "internalType": "uint256",
              "name": "damage",
              "type": "uint256"
            }
          ],
          "internalType": "struct Battle.Damage[]",
          "name": "damageDealt",
          "type": "tuple[]"
        },
        {
          "internalType": "uint256",
          "name": "battleNonce",
          "type": "uint256"
        }
      ],
      "name": "recordKill",
      "outputs": [],
      "stateMutability": "nonpayable",
      "type": "function"
    },
    {
      "inputs": [
        {
          "internalType": "uint256",
          "name": "fighterLevel",
          "type": "uint256"
        },
        {
          "internalType": "uint256",
          "name": "opponentLevel",
          "type": "uint256"
        },
        {
          "internalType": "uint256",
          "name": "damageDealt",
          "type": "uint256"
        }
      ],
      "name": "calculateExperience",
      "outputs": [
        {
          "internalType": "uint256",
          "name": "",
          "type": "uint256"
        }
      ],
      "stateMutability": "nonpayable",
      "type": "function"
    },
    {
      "inputs": [
        {
          "internalType": "uint256",
          "name": "a",
          "type": "uint256"
        },
        {
          "internalType": "uint256",
          "name": "b",
          "type": "uint256"
        }
      ],
      "name": "safeMul",
      "outputs": [
        {
          "internalType": "uint256",
          "name": "",
          "type": "uint256"
        }
      ],
      "stateMutability": "nonpayable",
      "type": "function"
    },
    {
      "inputs": [
        {
          "internalType": "uint256",
          "name": "a",
          "type": "uint256"
        },
        {
          "internalType": "uint256",
          "name": "b",
          "type": "uint256"
        }
      ],
      "name": "safeSub",
      "outputs": [
        {
          "internalType": "uint256",
          "name": "",
          "type": "uint256"
        }
      ],
      "stateMutability": "nonpayable",
      "type": "function"
    },
    {
      "inputs": [
        {
          "internalType": "uint256",
          "name": "a",
          "type": "uint256"
        },
        {
          "internalType": "uint256",
          "name": "b",
          "type": "uint256"
        }
      ],
      "name": "safeAdd",
      "outputs": [
        {
          "internalType": "uint256",
          "name": "",
          "type": "uint256"
        }
      ],
      "stateMutability": "nonpayable",
      "type": "function"
    }
  ],
  "bytecode": "0x60803461008d57601f61087d38819003918201601f19168301916001600160401b0383118484101761009257808492604094855283398101031261008d57610052602061004b836100a8565b92016100a8565b600180546001600160a01b039384166001600160a01b031991821617909155600080549290931691161790556040516107c090816100bd8239f35b600080fd5b634e487b7160e01b600052604160045260246000fd5b51906001600160a01b038216820361008d5756fe6080604052600436101561001257600080fd5b60003560e01c80636c7ad6c11461059857806378547e6c1461056c578063a293d1e814610547578063a6bae230146100d6578063d05c78da146100bd5763e6cb90131461005e57600080fd5b346100b85761006c366105bc565b90818101908181116100a25760209261008f918310159081610097575b50610706565b604051908152f35b905082101538610089565b634e487b7160e01b600052601160045260246000fd5b600080fd5b346100b857602061008f6100d0366105bc565b90610766565b346100b85760603660031901126100b85760243567ffffffffffffffff81116100b857366023820112156100b857806004013567ffffffffffffffff81116103c1576040519161012c60208360051b01846105d2565b8183526024602084019260061b820101903682116100b857602401915b8183106105025783604435906040519060208201308152600435604084015283606084015260608352608083019083821067ffffffffffffffff8311176103c1578160405283519020928360005260026020526040600020546104bf57505080511561048a57600154604051630219207560e61b815260048035908201529290602090849060249082906001600160a01b03165afa92831561036857600093610456575b5060005b825181101561040b576001546001600160a01b031661021082856105f4565b515160405190630219207560e61b82526004820152602081602481855afa8015610368576000906103d7575b610257915086602061024e86896105f4565b5101519161064b565b9061026283866105f4565b5151813b156100b85760009160448392604051948593849263243a7c7b60e01b845260048401528760248401525af18015610368576103a9575b5081156102b6575b5060001981146100a2576001016101f1565b6000546001546040516339f4fa5f60e01b81526004803590820152916001600160a01b039081169160209184916024918391165afa91821561036857600092610374575b506064602092600061030c878a6105f4565b5151936040519687958694637675b48160e11b86526004860152602485015260448401525af1801561036857156102a457602090813d8311610361575b61035381836105d2565b810103126100b857856102a4565b503d610349565b6040513d6000823e3d90fd5b91506020823d6020116103a1575b8161038f602093836105d2565b810103126100b85790519060646102fa565b3d9150610382565b67ffffffffffffffff81116103c1576040528661029c565b634e487b7160e01b600052604160045260246000fd5b506020813d602011610403575b816103f1602093836105d2565b810103126100b857610257905161023c565b3d91506103e4565b7ffbd683633721322acba9a3e7bab4b11f73234e3696f7c4a466166e4dbf8dab21606083878160005260026020524360406000205560405191600435835260208301526040820152a1005b9092506020813d602011610482575b81610472602093836105d2565b810103126100b8575191846101ed565b3d9150610465565b60405162461bcd60e51b815260206004820152600d60248201526c44616d6167657320656d70747960981b6044820152606490fd5b62461bcd60e51b825260206084820152601760a48201527f426174746c6520616c7265616479207265636f7264656400000000000000000060c490910152606490fd5b6040833603126100b85760405190604082019082821067ffffffffffffffff8311176103c1576040926020928452853581528286013583820152815201920191610149565b346100b857602061008f61055a366105bc565b9061056781831115610706565b61061e565b346100b85760203660031901126100b85760043560005260026020526020604060002054604051908152f35b346100b85760603660031901126100b857602061008f60443560243560043561064b565b60409060031901126100b8576004359060243590565b90601f8019910116810190811067ffffffffffffffff8211176103c157604052565b80518210156106085760209160051b010190565b634e487b7160e01b600052603260045260246000fd5b919082039182116100a257565b8115610635570490565b634e487b7160e01b600052601260045260246000fd5b80600111600014610701575060015b818111156106aa5761067761067261067c938361061e565b610723565b61062b565b90670de0b6b3a76400009161069383821115610706565b82038281116100a2576106a591610766565b045b90565b818110156106fc57610677610672826106c29461061e565b670de0b6b3a764000091828201908183116100a2576106a592821015806106f2575b6106ed90610706565b610766565b50838210156106e4565b505090565b61065a565b1561070d57565b634e487b7160e01b600052600160045260246000fd5b670de0b6b3a7640000908181029181159082840481148217156100a2576106a7928215610752575b5050610706565b61075e9192508461062b565b14388061074b565b8181029181159082840481148217156100a2576106a792821561075257505061070656fea2646970667358221220817e0e90c82fd410420dfb17761d2ab858c041b840175ba55d7e155ebbde278f64736f6c63430008130033",
  "immutableReferences": {},
  "source": "// SPDX-License-Identifier: MIT\npragma solidity ^0.8.10;\nimport \"./DropHelper.sol\";\nimport \"./FightersHelper.sol\";\n\ncontract Battle {\n    DropHelper private _dropHelper;\n    FightersHelper private _fightersHelper;\n\n\n    mapping(bytes32 => uint256) public battles;\n\n    event LogError(uint8, uint256);\n    event BattleRecorded(uint256 killedFighter, bytes32 battleHash, uint256 battleNonce);\n\n\n    constructor(address fightersHelperContract, address dropHelperContract) {\n        _fightersHelper = FightersHelper(fightersHelperContract);        \n        _dropHelper = DropHelper(dropHelperContract);\n    }\n\n    struct Damage {\n        uint256 fighterId;\n        uint256 damage;\n    }\n\n    function recordKill(\n        uint256 killedFighter,\n        Damage[] memory damageDealt,\n        uint256 battleNonce\n    ) external \n    {\n        bytes32 battleHash = generateBattleHash(killedFighter, battleNonce);\n        require(battles[battleHash] == 0, \"Battle already recorded\");        \n        require(damageDealt.length > 0, \"Damages empty\");\n        \n        uint256 killLevel = _fightersHelper.getLevel(killedFighter);\n\n        uint256 killerLevel;\n        uint256 killerExp;\n        for (uint256 i =0; i<damageDealt.length; i++) {\n            killerLevel = _fightersHelper.getLevel(damageDealt[i].fighterId);\n            killerExp = calculateExperience(killerLevel, killLevel, damageDealt[i].damage);\n            _fightersHelper.increaseExperience(damageDealt[i].fighterId, killerExp);\n\n            if (i == 0) {\n                _dropHelper.dropItem(_fightersHelper.getDropRarityLevel(killedFighter), damageDealt[i].fighterId, killerExp);\n            }\n        }       \n\n        battles[battleHash] = block.number;\n        \n        emit BattleRecorded(killedFighter, battleHash, battleNonce);\n    }\n\n\n    function calculateExperience(uint256 fighterLevel, uint256 opponentLevel, uint256 damageDealt) public returns (uint256) {\n        uint256 levelDifference;\n        uint256 exp;\n\n        fighterLevel = max(1, fighterLevel);\n        if (fighterLevel > opponentLevel)\n        {\n            levelDifference = fighterLevel - opponentLevel;\n\n            exp = safeMul(damageDealt, safeSub(1e18, safeMul(levelDifference, 1e18) / fighterLevel)) / 1e18;\n        }\n        else if (fighterLevel < opponentLevel)\n        {\n            levelDifference = opponentLevel - fighterLevel;\n\n            exp = safeMul(damageDealt, safeAdd(safeMul(levelDifference, 1e18) / fighterLevel, 1e18)) / 1e18;\n        } \n        else\n        {\n            exp = damageDealt;\n        }\n\n        return exp;\n    }\n\n    function generateBattleHash (\n        uint256 killedFighter,\n        uint256 nonce\n    ) internal returns (bytes32)\n    {\n        return keccak256(abi.encode(this, killedFighter, nonce));\n    }\n\n\n   \n\n    // Returns the smaller of two values\n    function min(uint a, uint b) private pure returns (uint) {\n        return a < b ? a : b;\n    }\n\n    // Returns the largest of the two values\n    function max(uint a, uint b) private pure returns (uint) {\n        return a > b ? a : b;\n    }\n\n    // Safe Multiply Function - prevents integer overflow \n    function safeMul(uint a, uint b) public returns (uint) {\n        uint c = a * b;\n        assert(a == 0 || c / a == b);\n        return c;\n    }\n\n    // Safe Subtraction Function - prevents integer overflow \n    function safeSub(uint a, uint b) public returns (uint) {\n        assert(b <= a);\n        return a - b;\n    }\n\n    // Safe Addition Function - prevents integer overflow \n    function safeAdd(uint a, uint b) public returns (uint) {\n        uint c = a + b;\n        assert(c>=a && c>=b);\n        return c;\n    }\n\n}\n",
  "sourcePath": "/Users/max/Documents/prog/game-contracts/contracts/battle.sol",
  "compiler": {
    "name": "solc",
    "version": "0.8.19+commit.7dd6d404.Emscripten.clang"
  },
  "schemaVersion": "3.4.13",
  "updatedAt": "2023-08-10T07:36:56.083Z",
  "networkType": "ethereum",
  "devdoc": {
    "kind": "dev",
    "methods": {},
    "version": 1
  },
  "userdoc": {
    "kind": "user",
    "methods": {},
    "version": 1
  }
}