{
  "contractName": "ChaosMachine",
  "abi": [
    {
      "anonymous": false,
      "inputs": [
        {
          "indexed": false,
          "internalType": "uint256",
          "name": "itemId",
          "type": "uint256"
        },
        {
          "indexed": false,
          "internalType": "address",
          "name": "player",
          "type": "address"
        }
      ],
      "name": "ItemCrafted",
      "type": "event"
    },
    {
      "inputs": [
        {
          "internalType": "uint256",
          "name": "",
          "type": "uint256"
        }
      ],
      "name": "recipes",
      "outputs": [
        {
          "internalType": "uint256",
          "name": "successRate",
          "type": "uint256"
        },
        {
          "internalType": "uint256",
          "name": "resultItemId",
          "type": "uint256"
        }
      ],
      "stateMutability": "view",
      "type": "function"
    },
    {
      "inputs": [
        {
          "internalType": "uint256",
          "name": "recipeId",
          "type": "uint256"
        },
        {
          "internalType": "uint256[]",
          "name": "itemIds",
          "type": "uint256[]"
        },
        {
          "internalType": "uint256",
          "name": "successRate",
          "type": "uint256"
        },
        {
          "internalType": "uint256",
          "name": "resultItemId",
          "type": "uint256"
        }
      ],
      "name": "addRecipe",
      "outputs": [],
      "stateMutability": "nonpayable",
      "type": "function"
    },
    {
      "inputs": [
        {
          "internalType": "uint256",
          "name": "recipeId",
          "type": "uint256"
        }
      ],
      "name": "craftItem",
      "outputs": [],
      "stateMutability": "nonpayable",
      "type": "function"
    }
  ],
  "bytecode": "0x608060405234801561001057600080fd5b5061046c806100206000396000f3fe608060405234801561001057600080fd5b50600436106100415760003560e01c806342f551b514610046578063443c227c1461005b5780637309cbbd1461009e575b600080fd5b610059610054366004610308565b6100b1565b005b6100856100693660046103e0565b6000602081905290815260409020600181015460029091015482565b6040805192835260208301919091520160405180910390f35b6100596100ac3660046103e0565b61010b565b60408051606081018252848152602080820185905281830184905260008781528082529290922081518051929384936100ed9284920190610292565b50602082015160018201556040909101516002909101555050505050565b600081815260208181526040808320815181546080948102820185019093526060810183815290939192849284919084018282801561016957602002820191906000526020600020905b815481526020019060010190808311610155575b5050505050815260200160018201548152602001600282015481525050905060005b815151811015610212576101b833836000015183815181106101af576101af6103f9565b50600092915050565b6102005760405162461bcd60e51b81526020600482015260156024820152744d697373696e67207265717569726564206974656d60581b604482015260640160405180910390fd5b8061020a8161040f565b91505061018b565b5060005b8151518110156102515761023f338360000151838151811061023a5761023a6103f9565b505050565b806102498161040f565b915050610216565b5060408082015181519081523360208201527ff4473e01e7e33eba564ae7f36b473379296cca33e825b2b99b10adfbf13d3896910160405180910390a15050565b8280548282559060005260206000209081019282156102cd579160200282015b828111156102cd5782518255916020019190600101906102b2565b506102d99291506102dd565b5090565b5b808211156102d957600081556001016102de565b634e487b7160e01b600052604160045260246000fd5b6000806000806080858703121561031e57600080fd5b8435935060208086013567ffffffffffffffff8082111561033e57600080fd5b818801915088601f83011261035257600080fd5b813581811115610364576103646102f2565b8060051b604051601f19603f83011681018181108582111715610389576103896102f2565b60405291825284820192508381018501918b8311156103a757600080fd5b938501935b828510156103c5578435845293850193928501926103ac565b989b989a505050506040870135966060013595945050505050565b6000602082840312156103f257600080fd5b5035919050565b634e487b7160e01b600052603260045260246000fd5b60006001820161042f57634e487b7160e01b600052601160045260246000fd5b506001019056fea2646970667358221220f8b957496132b36ca4477a5bd278217eff0eec70420a18796728ad09e21c942064736f6c63430008130033",
  "immutableReferences": {},
  "source": "pragma solidity ^0.8.0;\n\ncontract ChaosMachine {\n    struct Recipe {\n        uint256[] itemIds; // IDs of the items required to craft this recipe\n        uint256 successRate; // Success rate of the recipe (in percent)\n        uint256 resultItemId; // ID of the item that will be crafted\n    }\n\n    mapping(uint256 => Recipe) public recipes;\n\n    // Event that will be emitted when an item is crafted\n    event ItemCrafted(uint256 itemId, address player);\n\n    // Function to add a new recipe to the contract\n    function addRecipe(uint256 recipeId, uint256[] memory itemIds, uint256 successRate, uint256 resultItemId) public {\n        Recipe memory newRecipe = Recipe({\n            itemIds: itemIds,\n            successRate: successRate,\n            resultItemId: resultItemId\n        });\n\n        recipes[recipeId] = newRecipe;\n    }\n\n    // Function to craft an item\n    function craftItem(uint256 recipeId) public {\n        Recipe memory recipe = recipes[recipeId];\n\n        // Check if the player has all the required items\n        for (uint256 i = 0; i < recipe.itemIds.length; i++) {\n            require(hasItem(msg.sender, recipe.itemIds[i]), \"Missing required item\");\n        }\n\n        // Check if the crafting was successful\n        require(randomNumber() <= recipe.successRate, \"Crafting failed\");\n\n        // Remove the required items from the player's inventory\n        for (uint256 i = 0; i < recipe.itemIds.length; i++) {\n            removeItem(msg.sender, recipe.itemIds[i]);\n        }\n\n        // Add the crafted item to the player's inventory\n        addItem(msg.sender, recipe.resultItemId);\n\n        // Emit the ItemCrafted event\n        emit ItemCrafted(recipe.resultItemId, msg.sender);\n    }\n\n    // Helper function to check if a player has a specific item\n    function hasItem(address player, uint256 itemId) private view returns (bool) {\n        // implementation\n    }\n\n    // Helper function to remove an item from a player's inventory\n    function removeItem(address player, uint256 itemId) private {\n        // implementation\n    }\n\n    // Helper function to add an item to a player's inventory\n    function addItem(address player, uint256 itemId) private {\n        // implementation\n    }\n\n    // Helper function to generate a random number between 1 and 100\n    function randomNumber() private view returns (uint256) {\n        // implementation\n    }\n}",
  "sourcePath": "/Users/max/Documents/prog/mriusd/contracts/chaos.sol",
  "compiler": {
    "name": "solc",
    "version": "0.8.19+commit.7dd6d404.Emscripten.clang"
  },
  "schemaVersion": "3.4.13",
  "updatedAt": "2023-04-14T07:13:07.206Z",
  "devdoc": {
    "kind": "dev",
    "methods": {},
    "version": 1
  },
  "userdoc": {
    "kind": "user",
    "methods": {},
    "version": 1
  }
}