{
  "contractName": "ChaosMachine",
  "abi": [
    {
      "inputs": [
        {
          "internalType": "address",
          "name": "itemsContract",
          "type": "address"
        }
      ],
      "stateMutability": "nonpayable",
      "type": "constructor"
    },
    {
      "anonymous": false,
      "inputs": [
        {
          "indexed": false,
          "internalType": "uint256",
          "name": "tokenId",
          "type": "uint256"
        },
        {
          "indexed": false,
          "internalType": "address",
          "name": "itemOwner",
          "type": "address"
        }
      ],
      "name": "ItemCrafted",
      "type": "event"
    },
    {
      "anonymous": false,
      "inputs": [
        {
          "indexed": false,
          "internalType": "uint256",
          "name": "logValue",
          "type": "uint256"
        }
      ],
      "name": "LogUint",
      "type": "event"
    },
    {
      "anonymous": false,
      "inputs": [
        {
          "indexed": false,
          "internalType": "uint256",
          "name": "RecipeId",
          "type": "uint256"
        },
        {
          "components": [
            {
              "internalType": "uint256[]",
              "name": "itemIds",
              "type": "uint256[]"
            },
            {
              "internalType": "uint256",
              "name": "successRate",
              "type": "uint256"
            },
            {
              "internalType": "uint256[]",
              "name": "successItemIds",
              "type": "uint256[]"
            }
          ],
          "indexed": false,
          "internalType": "struct ChaosMachine.CombinationRecipe",
          "name": "",
          "type": "tuple"
        }
      ],
      "name": "NewRecipeCreated",
      "type": "event"
    },
    {
      "inputs": [
        {
          "components": [
            {
              "internalType": "uint256[]",
              "name": "itemIds",
              "type": "uint256[]"
            },
            {
              "internalType": "uint256",
              "name": "successRate",
              "type": "uint256"
            },
            {
              "internalType": "uint256[]",
              "name": "successItemIds",
              "type": "uint256[]"
            }
          ],
          "internalType": "struct ChaosMachine.CombinationRecipe",
          "name": "newRecipe",
          "type": "tuple"
        }
      ],
      "name": "createRecipe",
      "outputs": [
        {
          "internalType": "uint256",
          "name": "",
          "type": "uint256"
        }
      ],
      "stateMutability": "nonpayable",
      "type": "function"
    },
    {
      "inputs": [
        {
          "internalType": "uint256[]",
          "name": "tokenIds",
          "type": "uint256[]"
        },
        {
          "internalType": "uint256",
          "name": "recipeId",
          "type": "uint256"
        },
        {
          "internalType": "address",
          "name": "itemOwner",
          "type": "address"
        }
      ],
      "name": "combineItems",
      "outputs": [],
      "stateMutability": "nonpayable",
      "type": "function"
    }
  ],
  "bytecode": "0x6080604052601c60005560326001556032600255601e600355601e60045534801561002957600080fd5b506040516109953803806109958339810160408190526100489161006d565b600580546001600160a01b0319166001600160a01b039290921691909117905561009d565b60006020828403121561007f57600080fd5b81516001600160a01b038116811461009657600080fd5b9392505050565b6108e9806100ac6000396000f3fe608060405234801561001057600080fd5b50600436106100365760003560e01c806309117ea11461003b578063334ae4de14610050575b600080fd5b61004e61004936600461069b565b610075565b005b61006361005e366004610702565b610473565b60405190815260200160405180910390f35b60065482106100bd5760405162461bcd60e51b815260206004820152601060248201526f149958da5c19481b9bdd08199bdd5b9960821b604482015260640160405180910390fd5b6000600683815481106100d2576100d26107b3565b90600052602060002090600302016040518060600160405290816000820180548060200260200160405190810160405280929190818152602001828054801561013a57602002820191906000526020600020905b815481526020019060010190808311610126575b50505050508152602001600182015481526020016002820180548060200260200160405190810160405280929190818152602001828054801561019c57602002820191906000526020600020905b815481526020019060010190808311610188575b5050505050815250509050610382604051806107e001604052806060815260200160008152602001600081526020016000815260200160008152602001600081526020016000815260200160008152602001600081526020016000815260200160008152602001600081526020016000815260200160008152602001600081526020016000815260200160008152602001600081526020016000815260200160008152602001600081526020016000815260200160008152602001600081526020016000815260200160008152602001600081526020016000815260200160008152602001600081526020016000815260200160008152602001600081526020016000815260200160008152602001600081526020016000815260200160008152602001600081526020016000815260200160008152602001600081526020016000815260200160008152602001600081526020016000815260200160008152602001600081526020016000815260200160008152602001600081526020016000815260200160008152602001600081526020016000151581526020016000151581526020016000151581526020016000151581526020016000151581526020016000151581526020016000151581526020016000151581526020016000151581525090565b600082604001516103996029856040015151610540565b815181106103a9576103a96107b3565b6020908102919091010151600554604051633359f89f60e11b8152600481018390523360248201529192506000916001600160a01b03909116906366b3f13e906044016020604051808303816000875af115801561040b573d6000803e3d6000fd5b505050506040513d601f19601f8201168201806040525081019061042f91906107c9565b604080518281523360208201529192507ff4473e01e7e33eba564ae7f36b473379296cca33e825b2b99b10adfbf13d3896910160405180910390a150505050505050565b6006805460018101825560009182528251805184926003027ff652222313e28459528d920b65115c16c04f3efc82aaedc97be59f3f377c0d3f01916104bd9183916020019061058a565b506020828101516001830155604083015180516104e0926002850192019061058a565b50506006547feaceb7d39ac727ce550bac23f15b24ac8aa09d4c20d7506f58303faf6a1103079150610514906001906107e2565b8360405161052392919061083e565b60405180910390a160065461053a906001906107e2565b92915050565b60408051446020820152908101839052436060820152600090819060800160408051601f19818403018152919052805160209091012090506105828382610891565b949350505050565b8280548282559060005260206000209081019282156105c5579160200282015b828111156105c55782518255916020019190600101906105aa565b506105d19291506105d5565b5090565b5b808211156105d157600081556001016105d6565b634e487b7160e01b600052604160045260246000fd5b600082601f83011261061157600080fd5b8135602067ffffffffffffffff8083111561062e5761062e6105ea565b8260051b604051601f19603f83011681018181108482111715610653576106536105ea565b60405293845285810183019383810192508785111561067157600080fd5b83870191505b8482101561069057813583529183019190830190610677565b979650505050505050565b6000806000606084860312156106b057600080fd5b833567ffffffffffffffff8111156106c757600080fd5b6106d386828701610600565b9350506020840135915060408401356001600160a01b03811681146106f757600080fd5b809150509250925092565b60006020828403121561071457600080fd5b813567ffffffffffffffff8082111561072c57600080fd5b908301906060828603121561074057600080fd5b60405160608101818110838211171561075b5761075b6105ea565b60405282358281111561076d57600080fd5b61077987828601610600565b8252506020830135602082015260408301358281111561079857600080fd5b6107a487828601610600565b60408301525095945050505050565b634e487b7160e01b600052603260045260246000fd5b6000602082840312156107db57600080fd5b5051919050565b8181038181111561053a57634e487b7160e01b600052601160045260246000fd5b600081518084526020808501945080840160005b8381101561083357815187529582019590820190600101610817565b509495945050505050565b82815260406020820152600082516060604084015261086060a0840182610803565b9050602084015160608401526040840151603f198483030160808501526108878282610803565b9695505050505050565b6000826108ae57634e487b7160e01b600052601260045260246000fd5b50069056fea2646970667358221220aafc438b5bc79e136cfe2ff94c124560101c9c9ccbdd6c07bee1497846efec0364736f6c63430008130033",
  "immutableReferences": {},
  "source": "// SPDX-License-Identifier: MIT\npragma solidity ^0.8.18;\nimport \"./ItemAtts.sol\";\n\nabstract contract MainItems {\n    function setAdditionalPoints(uint256 tokenId, uint256 points) external virtual;\n    function setItemLevel(uint256 tokenId, uint256 level)  external virtual;\n    function burnItem(uint256 itemId)  external virtual;\n    function getTokenAttributes(uint256 tokenId) external virtual view returns (ItemAtts.ItemAttributes memory);\n    function craftItem(uint256 itemId, address itemOwner) external virtual returns (uint256);\n}\n\ncontract ChaosMachine is ItemAtts {\n    address ItemsContractAddress;   \n\n    constructor (address itemsContract) {\n        ItemsContractAddress = itemsContract;\n    }\n\n    struct CombinationRecipe {\n        uint256[] itemIds;\n        uint256 successRate;\n        uint256[] successItemIds;\n    }\n\n    CombinationRecipe[] Recipes;\n\n    event NewRecipeCreated(uint256 RecipeId, CombinationRecipe);\n    event ItemCrafted(uint256 tokenId, address itemOwner);\n    event LogUint(uint256 logValue);\n\n    function createRecipe(CombinationRecipe memory newRecipe) external returns (uint256) {\n        Recipes.push(newRecipe);\n        emit NewRecipeCreated(Recipes.length -1, newRecipe);\n        return Recipes.length -1;\n    }\n\n    function combineItems(uint256[] memory tokenIds, uint256 recipeId, address itemOwner) external {\n        require(Recipes.length > recipeId, \"Recipe not found\");\n\n        CombinationRecipe memory recipe = Recipes[recipeId];\n        ItemAttributes memory item;\n\n        \n        // for (uint256 i = 0; i <recipe.itemIds.length; i++) {\n        //     item =  MainItems(ItemsContractAddress).getTokenAttributes(tokenIds[i]);\n\n        //     require(item.itemAttributesId == recipe.itemIds[i], \"Invalid item\");\n\n        //     MainItems(ItemsContractAddress).burnItem(item.tokenId);            \n        // }\n\n        // if (getRandomNumber(42) < recipe.successRate) {\n            // get random item from successItems\n            uint256 randomItem = recipe.successItemIds[getRandomNumberMax(41, recipe.successItemIds.length)];\n            uint256 newTokenId = MainItems(ItemsContractAddress).craftItem(randomItem, msg.sender);\n            emit ItemCrafted(newTokenId, msg.sender);\n        // } else {\n        //     emit ItemCrafted(0, msg.sender);\n        // }\n    }\n}",
  "sourcePath": "/Users/max/Documents/prog/game-contracts/contracts/ChaosMachine.sol",
  "compiler": {
    "name": "solc",
    "version": "0.8.19+commit.7dd6d404.Emscripten.clang"
  },
  "schemaVersion": "3.4.13",
  "updatedAt": "2023-04-18T16:44:23.721Z",
  "networkType": "ethereum",
  "devdoc": {
    "kind": "dev",
    "methods": {},
    "version": 1
  },
  "userdoc": {
    "kind": "user",
    "methods": {},
    "version": 1
  }
}