{
  "contractName": "ChaosMachine",
  "abi": [
    {
      "inputs": [
        {
          "internalType": "address",
          "name": "itemsContract",
          "type": "address"
        },
        {
          "internalType": "address",
          "name": "itemsHelperContract",
          "type": "address"
        }
      ],
      "stateMutability": "nonpayable",
      "type": "constructor"
    },
    {
      "anonymous": false,
      "inputs": [
        {
          "indexed": false,
          "internalType": "uint256",
          "name": "tokenId",
          "type": "uint256"
        },
        {
          "indexed": false,
          "internalType": "address",
          "name": "itemOwner",
          "type": "address"
        }
      ],
      "name": "ItemCrafted",
      "type": "event"
    },
    {
      "anonymous": false,
      "inputs": [
        {
          "indexed": false,
          "internalType": "uint256",
          "name": "logValue",
          "type": "uint256"
        }
      ],
      "name": "LogUint",
      "type": "event"
    },
    {
      "anonymous": false,
      "inputs": [
        {
          "indexed": false,
          "internalType": "uint256",
          "name": "RecipeId",
          "type": "uint256"
        },
        {
          "components": [
            {
              "components": [
                {
                  "internalType": "uint256",
                  "name": "itemId",
                  "type": "uint256"
                },
                {
                  "internalType": "uint256",
                  "name": "minLevel",
                  "type": "uint256"
                },
                {
                  "internalType": "uint256",
                  "name": "maxLevel",
                  "type": "uint256"
                },
                {
                  "internalType": "uint256",
                  "name": "minAddPoints",
                  "type": "uint256"
                },
                {
                  "internalType": "uint256",
                  "name": "maxAddPoints",
                  "type": "uint256"
                }
              ],
              "internalType": "struct ChaosMachine.RecipeItem[]",
              "name": "inputItems",
              "type": "tuple[]"
            },
            {
              "components": [
                {
                  "internalType": "uint256",
                  "name": "itemId",
                  "type": "uint256"
                },
                {
                  "internalType": "uint256",
                  "name": "minLevel",
                  "type": "uint256"
                },
                {
                  "internalType": "uint256",
                  "name": "maxLevel",
                  "type": "uint256"
                },
                {
                  "internalType": "uint256",
                  "name": "minAddPoints",
                  "type": "uint256"
                },
                {
                  "internalType": "uint256",
                  "name": "maxAddPoints",
                  "type": "uint256"
                }
              ],
              "internalType": "struct ChaosMachine.RecipeItem[]",
              "name": "outputItems",
              "type": "tuple[]"
            },
            {
              "internalType": "uint256",
              "name": "successRate",
              "type": "uint256"
            }
          ],
          "indexed": false,
          "internalType": "struct ChaosMachine.CombinationRecipe",
          "name": "",
          "type": "tuple"
        }
      ],
      "name": "NewRecipeCreated",
      "type": "event"
    },
    {
      "inputs": [
        {
          "internalType": "uint256",
          "name": "",
          "type": "uint256"
        }
      ],
      "name": "Recipes",
      "outputs": [
        {
          "internalType": "uint256",
          "name": "successRate",
          "type": "uint256"
        }
      ],
      "stateMutability": "view",
      "type": "function",
      "constant": true
    }
  ],
  "bytecode": "0x60806040526064600055601c60015560326002556032600355601e600455601e60055560026006556001600755600060085534801561003d57600080fd5b506040516101a33803806101a383398101604081905261005c9161009e565b600980546001600160a01b0319166001600160a01b0392909216919091179055506100d1565b80516001600160a01b038116811461009957600080fd5b919050565b600080604083850312156100b157600080fd5b6100ba83610082565b91506100c860208401610082565b90509250929050565b60c4806100df6000396000f3fe6080604052348015600f57600080fd5b506004361060285760003560e01c80630e7198bd14602d575b600080fd5b603c60383660046076565b604e565b60405190815260200160405180910390f35b600a8181548110605d57600080fd5b6000918252602090912060026003909202010154905081565b600060208284031215608757600080fd5b503591905056fea26469706673582212209c8eb10a1b8f6a71f88ba04255a6662a2fcb3f23a342369bd084e47e3185b79864736f6c63430008130033",
  "immutableReferences": {},
  "source": "// SPDX-License-Identifier: MIT\npragma solidity ^0.8.18;\n\nimport \"./ItemsHelper.sol\";\n\ncontract ChaosMachine is ItemsAtts { \n    ItemsHelper private _itemsHelper;\n\n    constructor (address itemsContract, address itemsHelperContract) {\n        _itemsHelper = ItemsHelper(itemsHelperContract);\n    }\n\n    struct RecipeItem {\n        uint256 itemId;\n        uint256 minLevel;\n        uint256 maxLevel;\n        uint256 minAddPoints;\n        uint256 maxAddPoints;\n    }\n\n\n    struct CombinationRecipe {\n        RecipeItem[] inputItems;\n        RecipeItem[] outputItems;\n        uint256 successRate;\n    }\n\n    CombinationRecipe[] public Recipes;\n\n    event NewRecipeCreated(uint256 RecipeId, CombinationRecipe);\n    event ItemCrafted(uint256 tokenId, address itemOwner);\n    event LogUint(uint256 logValue);\n\n    // function createRecipe(CombinationRecipe memory newRecipe) external returns (uint256) {\n    //     RecipeItem[] memory inputItems = newRecipe.inputItems;\n    //     RecipeItem[] memory outputItems = newRecipe.outputItems;\n        \n    //     CombinationRecipe storage recipe = Recipes.push();\n    //     recipe.successRate = newRecipe.successRate;\n        \n    //     for (uint256 i = 0; i < inputItems.length; i++) {\n    //         recipe.inputItems.push(inputItems[i]);\n    //     }\n\n    //     for (uint256 i = 0; i < outputItems.length; i++) {\n    //         recipe.outputItems.push(outputItems[i]);\n    //     }\n\n    //     emit NewRecipeCreated(Recipes.length - 1, newRecipe);\n    //     return Recipes.length - 1;\n    // }\n\n    // function combineItems(uint256[] memory tokenIds, uint256 recipeId, address itemOwner) external {\n    //     require(Recipes.length > recipeId, \"Recipe not found\");\n\n    //     CombinationRecipe memory recipe = Recipes[recipeId];\n    //     ItemAttributes memory item;\n        \n    //     for (uint256 i = 0; i <recipe.inputItems.length; i++) {\n    //         item =  _itemsHelper.getTokenAttributes(tokenIds[i]);\n\n    //         require(item.itemAttributesId == recipe.inputItems[i].itemId, \"Invalid item\");\n    //         require(item.itemLevel >= recipe.inputItems[i].minLevel, \"Item level low\");\n    //         require(item.additionalDamage + item.additionalDefense >= recipe.inputItems[i].minAddPoints, \"Item add points low\");\n\n    //         _itemsHelper.burnItem(item.tokenId);            \n    //     }\n\n    //     if (getRandomNumber(42) < recipe.successRate) {\n    //         // get random item from successItems\n    //         RecipeItem memory outputItem = recipe.outputItems[getRandomNumberMax(41, recipe.outputItems.length)];\n    //         uint256 randomItem = outputItem.itemId;\n    //         uint256 newTokenId = _itemsHelper.craftItem(randomItem, msg.sender, outputItem.maxLevel,  outputItem.maxAddPoints);\n    //         emit ItemCrafted(newTokenId, msg.sender);\n    //     } else {\n    //         emit ItemCrafted(0, msg.sender);\n    //     }\n    // }\n}",
  "sourcePath": "/Users/max/Documents/prog/game-contracts/contracts/ChaosMachine.sol",
  "compiler": {
    "name": "solc",
    "version": "0.8.19+commit.7dd6d404.Emscripten.clang"
  },
  "schemaVersion": "3.4.13",
  "updatedAt": "2023-07-30T04:48:21.107Z",
  "networkType": "ethereum",
  "devdoc": {
    "kind": "dev",
    "methods": {},
    "version": 1
  },
  "userdoc": {
    "kind": "user",
    "methods": {},
    "version": 1
  }
}