{
  "contractName": "ChaosMachine",
  "abi": [
    {
      "inputs": [
        {
          "internalType": "address",
          "name": "itemsContract",
          "type": "address"
        },
        {
          "internalType": "address",
          "name": "itemsHelperContract",
          "type": "address"
        }
      ],
      "stateMutability": "nonpayable",
      "type": "constructor"
    },
    {
      "anonymous": false,
      "inputs": [
        {
          "indexed": false,
          "internalType": "uint256",
          "name": "tokenId",
          "type": "uint256"
        },
        {
          "indexed": false,
          "internalType": "address",
          "name": "itemOwner",
          "type": "address"
        }
      ],
      "name": "ItemCrafted",
      "type": "event"
    },
    {
      "anonymous": false,
      "inputs": [
        {
          "indexed": false,
          "internalType": "uint256",
          "name": "logValue",
          "type": "uint256"
        }
      ],
      "name": "LogUint",
      "type": "event"
    },
    {
      "anonymous": false,
      "inputs": [
        {
          "indexed": false,
          "internalType": "uint256",
          "name": "RecipeId",
          "type": "uint256"
        },
        {
          "components": [
            {
              "components": [
                {
                  "internalType": "uint256",
                  "name": "itemId",
                  "type": "uint256"
                },
                {
                  "internalType": "uint256",
                  "name": "minLevel",
                  "type": "uint256"
                },
                {
                  "internalType": "uint256",
                  "name": "maxLevel",
                  "type": "uint256"
                },
                {
                  "internalType": "uint256",
                  "name": "minAddPoints",
                  "type": "uint256"
                },
                {
                  "internalType": "uint256",
                  "name": "maxAddPoints",
                  "type": "uint256"
                }
              ],
              "internalType": "struct ChaosMachine.RecipeItem[]",
              "name": "inputItems",
              "type": "tuple[]"
            },
            {
              "components": [
                {
                  "internalType": "uint256",
                  "name": "itemId",
                  "type": "uint256"
                },
                {
                  "internalType": "uint256",
                  "name": "minLevel",
                  "type": "uint256"
                },
                {
                  "internalType": "uint256",
                  "name": "maxLevel",
                  "type": "uint256"
                },
                {
                  "internalType": "uint256",
                  "name": "minAddPoints",
                  "type": "uint256"
                },
                {
                  "internalType": "uint256",
                  "name": "maxAddPoints",
                  "type": "uint256"
                }
              ],
              "internalType": "struct ChaosMachine.RecipeItem[]",
              "name": "outputItems",
              "type": "tuple[]"
            },
            {
              "internalType": "uint256",
              "name": "successRate",
              "type": "uint256"
            }
          ],
          "indexed": false,
          "internalType": "struct ChaosMachine.CombinationRecipe",
          "name": "",
          "type": "tuple"
        }
      ],
      "name": "NewRecipeCreated",
      "type": "event"
    },
    {
      "inputs": [
        {
          "internalType": "uint256",
          "name": "",
          "type": "uint256"
        }
      ],
      "name": "Recipes",
      "outputs": [
        {
          "internalType": "uint256",
          "name": "successRate",
          "type": "uint256"
        }
      ],
      "stateMutability": "view",
      "type": "function",
      "constant": true
    },
    {
      "inputs": [
        {
          "components": [
            {
              "components": [
                {
                  "internalType": "uint256",
                  "name": "itemId",
                  "type": "uint256"
                },
                {
                  "internalType": "uint256",
                  "name": "minLevel",
                  "type": "uint256"
                },
                {
                  "internalType": "uint256",
                  "name": "maxLevel",
                  "type": "uint256"
                },
                {
                  "internalType": "uint256",
                  "name": "minAddPoints",
                  "type": "uint256"
                },
                {
                  "internalType": "uint256",
                  "name": "maxAddPoints",
                  "type": "uint256"
                }
              ],
              "internalType": "struct ChaosMachine.RecipeItem[]",
              "name": "inputItems",
              "type": "tuple[]"
            },
            {
              "components": [
                {
                  "internalType": "uint256",
                  "name": "itemId",
                  "type": "uint256"
                },
                {
                  "internalType": "uint256",
                  "name": "minLevel",
                  "type": "uint256"
                },
                {
                  "internalType": "uint256",
                  "name": "maxLevel",
                  "type": "uint256"
                },
                {
                  "internalType": "uint256",
                  "name": "minAddPoints",
                  "type": "uint256"
                },
                {
                  "internalType": "uint256",
                  "name": "maxAddPoints",
                  "type": "uint256"
                }
              ],
              "internalType": "struct ChaosMachine.RecipeItem[]",
              "name": "outputItems",
              "type": "tuple[]"
            },
            {
              "internalType": "uint256",
              "name": "successRate",
              "type": "uint256"
            }
          ],
          "internalType": "struct ChaosMachine.CombinationRecipe",
          "name": "newRecipe",
          "type": "tuple"
        }
      ],
      "name": "createRecipe",
      "outputs": [
        {
          "internalType": "uint256",
          "name": "",
          "type": "uint256"
        }
      ],
      "stateMutability": "nonpayable",
      "type": "function"
    },
    {
      "inputs": [
        {
          "internalType": "uint256[]",
          "name": "tokenIds",
          "type": "uint256[]"
        },
        {
          "internalType": "uint256",
          "name": "recipeId",
          "type": "uint256"
        },
        {
          "internalType": "address",
          "name": "itemOwner",
          "type": "address"
        }
      ],
      "name": "combineItems",
      "outputs": [],
      "stateMutability": "nonpayable",
      "type": "function"
    }
  ],
  "bytecode": "0x6080604052601c60005560326001556032600255601e600355601e60045534801561002957600080fd5b506040516113c93803806113c98339810160408190526100489161008a565b600580546001600160a01b0319166001600160a01b0392909216919091179055506100bd565b80516001600160a01b038116811461008557600080fd5b919050565b6000806040838503121561009d57600080fd5b6100a68361006e565b91506100b46020840161006e565b90509250929050565b6112fd806100cc6000396000f3fe608060405234801561001057600080fd5b50600436106100415760003560e01c806309117ea1146100465780630e7198bd1461005b578063183a313f14610080575b600080fd5b610059610054366004610b48565b610093565b005b61006e610069366004610bf7565b6107d9565b60405190815260200160405180910390f35b61006e61008e366004610cb8565b610802565b60065482106100dc5760405162461bcd60e51b815260206004820152601060248201526f149958da5c19481b9bdd08199bdd5b9960821b60448201526064015b60405180910390fd5b6000600683815481106100f1576100f1610d6c565b906000526020600020906003020160405180606001604052908160008201805480602002602001604051908101604052809291908181526020016000905b8282101561019357838290600052602060002090600502016040518060a0016040529081600082015481526020016001820154815260200160028201548152602001600382015481526020016004820154815250508152602001906001019061012f565b50505050815260200160018201805480602002602001604051908101604052809291908181526020016000905b8282101561022457838290600052602060002090600502016040518060a001604052908160008201548152602001600182015481526020016002820154815260200160038201548152602001600482015481525050815260200190600101906101c0565b5050505081526020016002820154815250509050610413604051806107e001604052806060815260200160008152602001600081526020016000815260200160008152602001600081526020016000815260200160008152602001600081526020016000815260200160008152602001600081526020016000815260200160008152602001600081526020016000815260200160008152602001600081526020016000815260200160008152602001600081526020016000815260200160008152602001600081526020016000815260200160008152602001600081526020016000815260200160008152602001600081526020016000815260200160008152602001600081526020016000815260200160008152602001600081526020016000815260200160008152602001600081526020016000815260200160008152602001600081526020016000815260200160008152602001600081526020016000815260200160008152602001600081526020016000815260200160008152602001600081526020016000815260200160008152602001600081526020016000151581526020016000151581526020016000151581526020016000151581526020016000151581526020016000151581526020016000151581526020016000151581526020016000151581525090565b60005b8251518110156106765760055486516001600160a01b0390911690631f4f5a239088908490811061044957610449610d6c565b60200260200101516040518263ffffffff1660e01b815260040161046f91815260200190565b6000604051808303816000875af115801561048e573d6000803e3d6000fd5b505050506040513d6000823e601f3d908101601f191682016040526104b69190810190610e17565b9150826000015181815181106104ce576104ce610d6c565b602002602001015160000151826106a001511461051c5760405162461bcd60e51b815260206004820152600c60248201526b496e76616c6964206974656d60a01b60448201526064016100d3565b825180518290811061053057610530610d6c565b602002602001015160200151826040015110156105805760405162461bcd60e51b815260206004820152600e60248201526d4974656d206c6576656c206c6f7760901b60448201526064016100d3565b825180518290811061059457610594610d6c565b6020026020010151606001518261028001518361026001516105b69190611191565b10156105fa5760405162461bcd60e51b81526020600482015260136024820152724974656d2061646420706f696e7473206c6f7760681b60448201526064016100d3565b600554602083015160405163576cc0f760e01b81526001600160a01b039092169163576cc0f7916106319160040190815260200190565b600060405180830381600087803b15801561064b57600080fd5b505af115801561065f573d6000803e3d6000fd5b50505050808061066e906111a4565b915050610416565b508160400151610686602a6109de565b101561079857600082602001516106a36029856020015151610a28565b815181106106b3576106b3610d6c565b602090810291909101015180516005546040808401516080850151915163081214c360e21b8152600481018590523360248201526044810191909152606481019190915292935090916000916001600160a01b031690632048530c906084016020604051808303816000875af1158015610731573d6000803e3d6000fd5b505050506040513d601f19601f8201168201806040525081019061075591906111bd565b604080518281523360208201529192507ff4473e01e7e33eba564ae7f36b473379296cca33e825b2b99b10adfbf13d3896910160405180910390a15050506107d2565b60408051600081523360208201527ff4473e01e7e33eba564ae7f36b473379296cca33e825b2b99b10adfbf13d3896910160405180910390a15b5050505050565b600681815481106107e957600080fd5b6000918252602090912060026003909202010154905081565b8051602082015160068054600181018255600091825260408501517ff652222313e28459528d920b65115c16c04f3efc82aaedc97be59f3f377c0d41600390920291820155909291907ff652222313e28459528d920b65115c16c04f3efc82aaedc97be59f3f377c0d3f01835b83518110156108f4578160000184828151811061088e5761088e610d6c565b602090810291909101810151825460018181018555600094855293839020825160059092020190815591810151928201929092556040820151600282015560608201516003820155608090910151600490910155806108ec816111a4565b91505061086f565b5060005b825181101561097d578160010183828151811061091757610917610d6c565b60209081029190910181015182546001818101855560009485529383902082516005909202019081559181015192820192909255604082015160028201556060820151600382015560809091015160049091015580610975816111a4565b9150506108f8565b506006547f61cbb8d06b48c8b5f78d54c801848e3e1460f2ab175105f72cdc0f7fa6ca7182906109af906001906111d6565b866040516109be92919061124e565b60405180910390a16006546109d5906001906111d6565b95945050505050565b60408051446020820152908101829052436060820152600090819060800160408051601f1981840301815291905280516020909101209050610a216064826112a5565b9392505050565b60408051446020820152908101839052436060820152600090819060800160408051601f1981840301815291905280516020909101209050610a6a83826112a5565b9150505b92915050565b634e487b7160e01b600052604160045260246000fd5b60405160a0810167ffffffffffffffff81118282101715610aad57610aad610a74565b60405290565b6040516107e0810167ffffffffffffffff81118282101715610aad57610aad610a74565b604051601f8201601f1916810167ffffffffffffffff81118282101715610b0057610b00610a74565b604052919050565b600067ffffffffffffffff821115610b2257610b22610a74565b5060051b60200190565b80356001600160a01b0381168114610b4357600080fd5b919050565b600080600060608486031215610b5d57600080fd5b833567ffffffffffffffff811115610b7457600080fd5b8401601f81018613610b8557600080fd5b80356020610b9a610b9583610b08565b610ad7565b82815260059290921b83018101918181019089841115610bb957600080fd5b938201935b83851015610bd757843582529382019390820190610bbe565b9650508601359350610bee91505060408501610b2c565b90509250925092565b600060208284031215610c0957600080fd5b5035919050565b600082601f830112610c2157600080fd5b81356020610c31610b9583610b08565b82815260a09283028501820192828201919087851115610c5057600080fd5b8387015b85811015610cab5781818a031215610c6c5760008081fd5b610c74610a8a565b8135815285820135868201526040808301359082015260608083013590820152608080830135908201528452928401928101610c54565b5090979650505050505050565b600060208284031215610cca57600080fd5b813567ffffffffffffffff80821115610ce257600080fd5b9083019060608286031215610cf657600080fd5b604051606081018181108382111715610d1157610d11610a74565b604052823582811115610d2357600080fd5b610d2f87828601610c10565b825250602083013582811115610d4457600080fd5b610d5087828601610c10565b6020830152506040830135604082015280935050505092915050565b634e487b7160e01b600052603260045260246000fd5b600082601f830112610d9357600080fd5b815167ffffffffffffffff811115610dad57610dad610a74565b6020610dc1601f8301601f19168201610ad7565b8281528582848701011115610dd557600080fd5b60005b83811015610df3578581018301518282018401528201610dd8565b506000928101909101919091529392505050565b80518015158114610b4357600080fd5b600060208284031215610e2957600080fd5b815167ffffffffffffffff80821115610e4157600080fd5b908301906107e08286031215610e5657600080fd5b610e5e610ab3565b825182811115610e6d57600080fd5b610e7987828601610d82565b8252506020838101519082015260408084015190820152606080840151908201526080808401519082015260a0808401519082015260c0808401519082015260e08084015190820152610100808401519082015261012080840151908201526101408084015190820152610160808401519082015261018080840151908201526101a080840151908201526101c080840151908201526101e08084015190820152610200808401519082015261022080840151908201526102408084015190820152610260808401519082015261028080840151908201526102a080840151908201526102c080840151908201526102e08084015190820152610300808401519082015261032080840151908201526103408084015190820152610360808401519082015261038080840151908201526103a080840151908201526103c080840151908201526103e08084015190820152610400808401519082015261042080840151908201526104408084015190820152610460808401519082015261048080840151908201526104a080840151908201526104c080840151908201526104e08084015190820152610500808401519082015261052080840151908201526105408084015190820152610560808401519082015261058080840151908201526105a080840151908201526105c080840151908201526105e08084015190820152610600808401519082015261062080840151908201526106408084015190820152610660808401519082015261068080840151908201526106a080840151908201526106c091506110cc828401610e07565b828201526106e091506110e0828401610e07565b8282015261070091506110f4828401610e07565b828201526107209150611108828401610e07565b82820152610740915061111c828401610e07565b828201526107609150611130828401610e07565b828201526107809150611144828401610e07565b828201526107a09150611158828401610e07565b828201526107c0915061116c828401610e07565b91810191909152949350505050565b634e487b7160e01b600052601160045260246000fd5b80820180821115610a6e57610a6e61117b565b6000600182016111b6576111b661117b565b5060010190565b6000602082840312156111cf57600080fd5b5051919050565b81810381811115610a6e57610a6e61117b565b600081518084526020808501945080840160005b8381101561124357815180518852838101518489015260408082015190890152606080820151908901526080908101519088015260a090960195908201906001016111fd565b509495945050505050565b82815260406020820152600082516060604084015261127060a08401826111e9565b90506020840151603f1984830301606085015261128d82826111e9565b91505060408401516080840152809150509392505050565b6000826112c257634e487b7160e01b600052601260045260246000fd5b50069056fea2646970667358221220c9ae2c0298137c244f3b4e847606409bee6328ff656ced73afd04aa3d022485364736f6c63430008130033",
  "immutableReferences": {},
  "source": "// SPDX-License-Identifier: MIT\npragma solidity ^0.8.18;\n\nimport \"./ItemsHelper.sol\";\n\ncontract ChaosMachine is ItemAtts { \n    ItemsHelper private _itemsHelper;\n\n    constructor (address itemsContract, address itemsHelperContract) {\n        _itemsHelper = ItemsHelper(itemsHelperContract);\n    }\n\n    struct RecipeItem {\n        uint256 itemId;\n        uint256 minLevel;\n        uint256 maxLevel;\n        uint256 minAddPoints;\n        uint256 maxAddPoints;\n    }\n\n\n    struct CombinationRecipe {\n        RecipeItem[] inputItems;\n        RecipeItem[] outputItems;\n        uint256 successRate;\n    }\n\n    CombinationRecipe[] public Recipes;\n\n    event NewRecipeCreated(uint256 RecipeId, CombinationRecipe);\n    event ItemCrafted(uint256 tokenId, address itemOwner);\n    event LogUint(uint256 logValue);\n\n    function createRecipe(CombinationRecipe memory newRecipe) external returns (uint256) {\n        RecipeItem[] memory inputItems = newRecipe.inputItems;\n        RecipeItem[] memory outputItems = newRecipe.outputItems;\n        \n        CombinationRecipe storage recipe = Recipes.push();\n        recipe.successRate = newRecipe.successRate;\n        \n        for (uint256 i = 0; i < inputItems.length; i++) {\n            recipe.inputItems.push(inputItems[i]);\n        }\n\n        for (uint256 i = 0; i < outputItems.length; i++) {\n            recipe.outputItems.push(outputItems[i]);\n        }\n\n        emit NewRecipeCreated(Recipes.length - 1, newRecipe);\n        return Recipes.length - 1;\n    }\n\n    function combineItems(uint256[] memory tokenIds, uint256 recipeId, address itemOwner) external {\n        require(Recipes.length > recipeId, \"Recipe not found\");\n\n        CombinationRecipe memory recipe = Recipes[recipeId];\n        ItemAttributes memory item;\n        \n        for (uint256 i = 0; i <recipe.inputItems.length; i++) {\n            item =  _itemsHelper.getTokenAttributes(tokenIds[i]);\n\n            require(item.itemAttributesId == recipe.inputItems[i].itemId, \"Invalid item\");\n            require(item.itemLevel >= recipe.inputItems[i].minLevel, \"Item level low\");\n            require(item.additionalDamage + item.additionalDefense >= recipe.inputItems[i].minAddPoints, \"Item add points low\");\n\n            _itemsHelper.burnItem(item.tokenId);            \n        }\n\n        if (getRandomNumber(42) < recipe.successRate) {\n            // get random item from successItems\n            RecipeItem memory outputItem = recipe.outputItems[getRandomNumberMax(41, recipe.outputItems.length)];\n            uint256 randomItem = outputItem.itemId;\n            uint256 newTokenId = _itemsHelper.craftItem(randomItem, msg.sender, outputItem.maxLevel,  outputItem.maxAddPoints);\n            emit ItemCrafted(newTokenId, msg.sender);\n        } else {\n            emit ItemCrafted(0, msg.sender);\n        }\n    }\n}",
  "sourcePath": "/Users/max/Documents/prog/game-contracts/contracts/ChaosMachine.sol",
  "compiler": {
    "name": "solc",
    "version": "0.8.19+commit.7dd6d404.Emscripten.clang"
  },
  "schemaVersion": "3.4.13",
  "updatedAt": "2023-04-24T15:17:06.998Z",
  "networkType": "ethereum",
  "devdoc": {
    "kind": "dev",
    "methods": {},
    "version": 1
  },
  "userdoc": {
    "kind": "user",
    "methods": {},
    "version": 1
  }
}