{
  "contractName": "ChaosMachine",
  "abi": [
    {
      "inputs": [
        {
          "internalType": "address",
          "name": "itemsContract",
          "type": "address"
        },
        {
          "internalType": "address",
          "name": "itemsHelperContract",
          "type": "address"
        }
      ],
      "stateMutability": "nonpayable",
      "type": "constructor"
    },
    {
      "anonymous": false,
      "inputs": [
        {
          "indexed": false,
          "internalType": "uint256",
          "name": "tokenId",
          "type": "uint256"
        },
        {
          "indexed": false,
          "internalType": "address",
          "name": "itemOwner",
          "type": "address"
        }
      ],
      "name": "ItemCrafted",
      "type": "event"
    },
    {
      "anonymous": false,
      "inputs": [
        {
          "indexed": false,
          "internalType": "uint256",
          "name": "logValue",
          "type": "uint256"
        }
      ],
      "name": "LogUint",
      "type": "event"
    },
    {
      "anonymous": false,
      "inputs": [
        {
          "indexed": false,
          "internalType": "uint256",
          "name": "RecipeId",
          "type": "uint256"
        },
        {
          "components": [
            {
              "components": [
                {
                  "internalType": "uint256",
                  "name": "itemId",
                  "type": "uint256"
                },
                {
                  "internalType": "uint256",
                  "name": "minLevel",
                  "type": "uint256"
                },
                {
                  "internalType": "uint256",
                  "name": "maxLevel",
                  "type": "uint256"
                },
                {
                  "internalType": "uint256",
                  "name": "minAddPoints",
                  "type": "uint256"
                },
                {
                  "internalType": "uint256",
                  "name": "maxAddPoints",
                  "type": "uint256"
                }
              ],
              "internalType": "struct ChaosMachine.RecipeItem[]",
              "name": "inputItems",
              "type": "tuple[]"
            },
            {
              "components": [
                {
                  "internalType": "uint256",
                  "name": "itemId",
                  "type": "uint256"
                },
                {
                  "internalType": "uint256",
                  "name": "minLevel",
                  "type": "uint256"
                },
                {
                  "internalType": "uint256",
                  "name": "maxLevel",
                  "type": "uint256"
                },
                {
                  "internalType": "uint256",
                  "name": "minAddPoints",
                  "type": "uint256"
                },
                {
                  "internalType": "uint256",
                  "name": "maxAddPoints",
                  "type": "uint256"
                }
              ],
              "internalType": "struct ChaosMachine.RecipeItem[]",
              "name": "outputItems",
              "type": "tuple[]"
            },
            {
              "internalType": "uint256",
              "name": "successRate",
              "type": "uint256"
            }
          ],
          "indexed": false,
          "internalType": "struct ChaosMachine.CombinationRecipe",
          "name": "",
          "type": "tuple"
        }
      ],
      "name": "NewRecipeCreated",
      "type": "event"
    },
    {
      "inputs": [
        {
          "internalType": "uint256",
          "name": "",
          "type": "uint256"
        }
      ],
      "name": "Recipes",
      "outputs": [
        {
          "internalType": "uint256",
          "name": "successRate",
          "type": "uint256"
        }
      ],
      "stateMutability": "view",
      "type": "function",
      "constant": true
    }
  ],
  "bytecode": "0x6080346100a657601f61018838819003918201601f19168301916001600160401b038311848410176100ab5780849260409485528339810103126100a65760208161004c610053936100c1565b50016100c1565b6064600055601c60015560326002556032600355601e600455601e60055560026006556001600755600060085560018060a01b031660018060a01b0319600954161760095560405160b290816100d68239f35b600080fd5b634e487b7160e01b600052604160045260246000fd5b51906001600160a01b03821682036100a65756fe6080806040526004361015601257600080fd5b600090813560e01c630e7198bd14602857600080fd5b346078576020366003190112607857600435600a5481101560745760037fc65a7bb8d6351c1cf70c95a316cc6a92839c986682d98bc35f958f4883f9d2aa91600a602095520201548152f35b8280fd5b5080fdfea2646970667358221220dc8991ded5415670fed6ac8606aa419eb8b14ca274b1ba15ec0cff036ea37f9764736f6c63430008130033",
  "immutableReferences": {},
  "source": "// SPDX-License-Identifier: MIT\npragma solidity ^0.8.18;\n\nimport \"./ItemsHelper.sol\";\n\ncontract ChaosMachine is ItemsAtts { \n    ItemsHelper private _itemsHelper;\n\n    constructor (address itemsContract, address itemsHelperContract) {\n        _itemsHelper = ItemsHelper(itemsHelperContract);\n    }\n\n    struct RecipeItem {\n        uint256 itemId;\n        uint256 minLevel;\n        uint256 maxLevel;\n        uint256 minAddPoints;\n        uint256 maxAddPoints;\n    }\n\n\n    struct CombinationRecipe {\n        RecipeItem[] inputItems;\n        RecipeItem[] outputItems;\n        uint256 successRate;\n    }\n\n    CombinationRecipe[] public Recipes;\n\n    event NewRecipeCreated(uint256 RecipeId, CombinationRecipe);\n    event ItemCrafted(uint256 tokenId, address itemOwner);\n    event LogUint(uint256 logValue);\n\n    // function createRecipe(CombinationRecipe memory newRecipe) external returns (uint256) {\n    //     RecipeItem[] memory inputItems = newRecipe.inputItems;\n    //     RecipeItem[] memory outputItems = newRecipe.outputItems;\n        \n    //     CombinationRecipe storage recipe = Recipes.push();\n    //     recipe.successRate = newRecipe.successRate;\n        \n    //     for (uint256 i = 0; i < inputItems.length; i++) {\n    //         recipe.inputItems.push(inputItems[i]);\n    //     }\n\n    //     for (uint256 i = 0; i < outputItems.length; i++) {\n    //         recipe.outputItems.push(outputItems[i]);\n    //     }\n\n    //     emit NewRecipeCreated(Recipes.length - 1, newRecipe);\n    //     return Recipes.length - 1;\n    // }\n\n    // function combineItems(uint256[] memory tokenIds, uint256 recipeId, address itemOwner) external {\n    //     require(Recipes.length > recipeId, \"Recipe not found\");\n\n    //     CombinationRecipe memory recipe = Recipes[recipeId];\n    //     ItemAttributes memory item;\n        \n    //     for (uint256 i = 0; i <recipe.inputItems.length; i++) {\n    //         item =  _itemsHelper.getTokenAttributes(tokenIds[i]);\n\n    //         require(item.itemAttributesId == recipe.inputItems[i].itemId, \"Invalid item\");\n    //         require(item.itemLevel >= recipe.inputItems[i].minLevel, \"Item level low\");\n    //         require(item.additionalDamage + item.additionalDefense >= recipe.inputItems[i].minAddPoints, \"Item add points low\");\n\n    //         _itemsHelper.burnItem(item.tokenId);            \n    //     }\n\n    //     if (getRandomNumber(42) < recipe.successRate) {\n    //         // get random item from successItems\n    //         RecipeItem memory outputItem = recipe.outputItems[getRandomNumberMax(41, recipe.outputItems.length)];\n    //         uint256 randomItem = outputItem.itemId;\n    //         uint256 newTokenId = _itemsHelper.craftItem(randomItem, msg.sender, outputItem.maxLevel,  outputItem.maxAddPoints);\n    //         emit ItemCrafted(newTokenId, msg.sender);\n    //     } else {\n    //         emit ItemCrafted(0, msg.sender);\n    //     }\n    // }\n}",
  "sourcePath": "/Users/max/Documents/prog/game-contracts/contracts/ChaosMachine.sol",
  "compiler": {
    "name": "solc",
    "version": "0.8.19+commit.7dd6d404.Emscripten.clang"
  },
  "schemaVersion": "3.4.13",
  "updatedAt": "2023-08-09T04:15:28.869Z",
  "networkType": "ethereum",
  "devdoc": {
    "kind": "dev",
    "methods": {},
    "version": 1
  },
  "userdoc": {
    "kind": "user",
    "methods": {},
    "version": 1
  }
}