{
  "contractName": "ChaosMachine",
  "abi": [
    {
      "inputs": [
        {
          "internalType": "address",
          "name": "itemsContract",
          "type": "address"
        }
      ],
      "stateMutability": "nonpayable",
      "type": "constructor"
    },
    {
      "anonymous": false,
      "inputs": [
        {
          "indexed": false,
          "internalType": "uint256",
          "name": "tokenId",
          "type": "uint256"
        },
        {
          "indexed": false,
          "internalType": "address",
          "name": "itemOwner",
          "type": "address"
        }
      ],
      "name": "ItemCrafted",
      "type": "event"
    },
    {
      "anonymous": false,
      "inputs": [
        {
          "indexed": false,
          "internalType": "uint256",
          "name": "logValue",
          "type": "uint256"
        }
      ],
      "name": "LogUint",
      "type": "event"
    },
    {
      "anonymous": false,
      "inputs": [
        {
          "indexed": false,
          "internalType": "uint256",
          "name": "RecipeId",
          "type": "uint256"
        },
        {
          "components": [
            {
              "internalType": "uint256[]",
              "name": "itemIds",
              "type": "uint256[]"
            },
            {
              "internalType": "uint256",
              "name": "successRate",
              "type": "uint256"
            },
            {
              "internalType": "uint256[]",
              "name": "successItemIds",
              "type": "uint256[]"
            }
          ],
          "indexed": false,
          "internalType": "struct ChaosMachine.CombinationRecipe",
          "name": "",
          "type": "tuple"
        }
      ],
      "name": "NewRecipeCreated",
      "type": "event"
    },
    {
      "inputs": [
        {
          "internalType": "address",
          "name": "itemsContract",
          "type": "address"
        }
      ],
      "name": "setItemsContractAddress",
      "outputs": [],
      "stateMutability": "nonpayable",
      "type": "function"
    },
    {
      "inputs": [
        {
          "components": [
            {
              "internalType": "uint256[]",
              "name": "itemIds",
              "type": "uint256[]"
            },
            {
              "internalType": "uint256",
              "name": "successRate",
              "type": "uint256"
            },
            {
              "internalType": "uint256[]",
              "name": "successItemIds",
              "type": "uint256[]"
            }
          ],
          "internalType": "struct ChaosMachine.CombinationRecipe",
          "name": "newRecipe",
          "type": "tuple"
        }
      ],
      "name": "createRecipe",
      "outputs": [
        {
          "internalType": "uint256",
          "name": "",
          "type": "uint256"
        }
      ],
      "stateMutability": "nonpayable",
      "type": "function"
    },
    {
      "inputs": [
        {
          "internalType": "uint256[]",
          "name": "tokenIds",
          "type": "uint256[]"
        },
        {
          "internalType": "uint256",
          "name": "recipeId",
          "type": "uint256"
        },
        {
          "internalType": "address",
          "name": "itemOwner",
          "type": "address"
        }
      ],
      "name": "combineItems",
      "outputs": [],
      "stateMutability": "nonpayable",
      "type": "function"
    }
  ],
  "bytecode": "0x6080604052601c60005560326001556032600255601e600355601e60045534801561002957600080fd5b506040516109fe3803806109fe8339810160408190526100489161006d565b600580546001600160a01b0319166001600160a01b039290921691909117905561009d565b60006020828403121561007f57600080fd5b81516001600160a01b038116811461009657600080fd5b9392505050565b610952806100ac6000396000f3fe608060405234801561001057600080fd5b50600436106100415760003560e01c806309117ea114610046578063334ae4de1461005b5780636eba878414610080575b600080fd5b6100596100543660046106f2565b6100b0565b005b61006e610069366004610749565b6104ae565b60405190815260200160405180910390f35b61005961008e3660046107fa565b600580546001600160a01b0319166001600160a01b0392909216919091179055565b60065482106100f85760405162461bcd60e51b815260206004820152601060248201526f149958da5c19481b9bdd08199bdd5b9960821b604482015260640160405180910390fd5b60006006838154811061010d5761010d61081c565b90600052602060002090600302016040518060600160405290816000820180548060200260200160405190810160405280929190818152602001828054801561017557602002820191906000526020600020905b815481526020019060010190808311610161575b5050505050815260200160018201548152602001600282018054806020026020016040519081016040528092919081815260200182805480156101d757602002820191906000526020600020905b8154815260200190600101908083116101c3575b50505050508152505090506103bd604051806107e001604052806060815260200160008152602001600081526020016000815260200160008152602001600081526020016000815260200160008152602001600081526020016000815260200160008152602001600081526020016000815260200160008152602001600081526020016000815260200160008152602001600081526020016000815260200160008152602001600081526020016000815260200160008152602001600081526020016000815260200160008152602001600081526020016000815260200160008152602001600081526020016000815260200160008152602001600081526020016000815260200160008152602001600081526020016000815260200160008152602001600081526020016000815260200160008152602001600081526020016000815260200160008152602001600081526020016000815260200160008152602001600081526020016000815260200160008152602001600081526020016000815260200160008152602001600081526020016000151581526020016000151581526020016000151581526020016000151581526020016000151581526020016000151581526020016000151581526020016000151581526020016000151581525090565b600082604001516103d4602985604001515161057b565b815181106103e4576103e461081c565b6020908102919091010151600554604051633359f89f60e11b8152600481018390523360248201529192506000916001600160a01b03909116906366b3f13e906044016020604051808303816000875af1158015610446573d6000803e3d6000fd5b505050506040513d601f19601f8201168201806040525081019061046a9190610832565b604080518281523360208201529192507ff4473e01e7e33eba564ae7f36b473379296cca33e825b2b99b10adfbf13d3896910160405180910390a150505050505050565b6006805460018101825560009182528251805184926003027ff652222313e28459528d920b65115c16c04f3efc82aaedc97be59f3f377c0d3f01916104f8918391602001906105c5565b5060208281015160018301556040830151805161051b92600285019201906105c5565b50506006547feaceb7d39ac727ce550bac23f15b24ac8aa09d4c20d7506f58303faf6a110307915061054f9060019061084b565b8360405161055e9291906108a7565b60405180910390a16006546105759060019061084b565b92915050565b60408051446020820152908101839052436060820152600090819060800160408051601f19818403018152919052805160209091012090506105bd83826108fa565b949350505050565b828054828255906000526020600020908101928215610600579160200282015b828111156106005782518255916020019190600101906105e5565b5061060c929150610610565b5090565b5b8082111561060c5760008155600101610611565b634e487b7160e01b600052604160045260246000fd5b600082601f83011261064c57600080fd5b8135602067ffffffffffffffff8083111561066957610669610625565b8260051b604051601f19603f8301168101818110848211171561068e5761068e610625565b6040529384528581018301938381019250878511156106ac57600080fd5b83870191505b848210156106cb578135835291830191908301906106b2565b979650505050505050565b80356001600160a01b03811681146106ed57600080fd5b919050565b60008060006060848603121561070757600080fd5b833567ffffffffffffffff81111561071e57600080fd5b61072a8682870161063b565b93505060208401359150610740604085016106d6565b90509250925092565b60006020828403121561075b57600080fd5b813567ffffffffffffffff8082111561077357600080fd5b908301906060828603121561078757600080fd5b6040516060810181811083821117156107a2576107a2610625565b6040528235828111156107b457600080fd5b6107c08782860161063b565b825250602083013560208201526040830135828111156107df57600080fd5b6107eb8782860161063b565b60408301525095945050505050565b60006020828403121561080c57600080fd5b610815826106d6565b9392505050565b634e487b7160e01b600052603260045260246000fd5b60006020828403121561084457600080fd5b5051919050565b8181038181111561057557634e487b7160e01b600052601160045260246000fd5b600081518084526020808501945080840160005b8381101561089c57815187529582019590820190600101610880565b509495945050505050565b8281526040602082015260008251606060408401526108c960a084018261086c565b9050602084015160608401526040840151603f198483030160808501526108f0828261086c565b9695505050505050565b60008261091757634e487b7160e01b600052601260045260246000fd5b50069056fea26469706673582212208379fed0b06d72a5f6bf491729e8e627edd4712749bb027ce22ecba4cc925f4864736f6c63430008130033",
  "immutableReferences": {},
  "source": "// SPDX-License-Identifier: MIT\npragma solidity ^0.8.18;\nimport \"./ItemAtts.sol\";\n\nabstract contract MainItems {\n    function setAdditionalPoints(uint256 tokenId, uint256 points) external virtual;\n    function setItemLevel(uint256 tokenId, uint256 level)  external virtual;\n    function burnItem(uint256 itemId)  external virtual;\n    function getTokenAttributes(uint256 tokenId) external virtual view returns (ItemAtts.ItemAttributes memory);\n    function craftItem(uint256 itemId, address itemOwner) external virtual returns (uint256);\n}\n\ncontract ChaosMachine is ItemAtts {\n    address ItemsContractAddress;   \n\n    constructor (address itemsContract) {\n        ItemsContractAddress = itemsContract;\n    }\n\n    function setItemsContractAddress(address itemsContract) external {\n        ItemsContractAddress = itemsContract;\n    }\n\n    struct CombinationRecipe {\n        uint256[] itemIds;\n        uint256 successRate;\n        uint256[] successItemIds;\n    }\n\n    CombinationRecipe[] Recipes;\n\n    event NewRecipeCreated(uint256 RecipeId, CombinationRecipe);\n    event ItemCrafted(uint256 tokenId, address itemOwner);\n    event LogUint(uint256 logValue);\n\n    function createRecipe(CombinationRecipe memory newRecipe) external returns (uint256) {\n        Recipes.push(newRecipe);\n        emit NewRecipeCreated(Recipes.length -1, newRecipe);\n        return Recipes.length -1;\n    }\n\n    function combineItems(uint256[] memory tokenIds, uint256 recipeId, address itemOwner) external {\n        require(Recipes.length > recipeId, \"Recipe not found\");\n\n        CombinationRecipe memory recipe = Recipes[recipeId];\n        ItemAttributes memory item;\n\n        \n        // for (uint256 i = 0; i <recipe.itemIds.length; i++) {\n        //     item =  MainItems(ItemsContractAddress).getTokenAttributes(tokenIds[i]);\n\n        //     require(item.itemAttributesId == recipe.itemIds[i], \"Invalid item\");\n\n        //     //MainItems(ItemsContractAddress).burnItem(item.tokenId);            \n        // }\n        //uint256 newTokenId = MainItems(ItemsContractAddress).craftItem(11, msg.sender);\n        //emit ItemCrafted(newTokenId, itemOwner);\n        // if (getRandomNumber(42) < recipe.successRate) {\n            // get random item from successItems\n            uint256 randomItem = recipe.successItemIds[getRandomNumberMax(41, recipe.successItemIds.length)];\n            uint256 newTokenId = MainItems(ItemsContractAddress).craftItem(randomItem, msg.sender);\n            emit ItemCrafted(newTokenId, msg.sender);\n        // } else {\n        //     emit ItemCrafted(0, msg.sender);\n        // }\n    }\n}",
  "sourcePath": "/Users/max/Documents/prog/game-contracts/contracts/ChaosMachine.sol",
  "compiler": {
    "name": "solc",
    "version": "0.8.19+commit.7dd6d404.Emscripten.clang"
  },
  "schemaVersion": "3.4.13",
  "updatedAt": "2023-04-18T13:47:18.193Z",
  "networkType": "ethereum",
  "devdoc": {
    "kind": "dev",
    "methods": {},
    "version": 1
  },
  "userdoc": {
    "kind": "user",
    "methods": {},
    "version": 1
  }
}