{
  "contractName": "CreditsHelper",
  "abi": [
    {
      "inputs": [
        {
          "internalType": "address",
          "name": "baseContract",
          "type": "address"
        }
      ],
      "stateMutability": "nonpayable",
      "type": "constructor"
    },
    {
      "anonymous": false,
      "inputs": [
        {
          "indexed": false,
          "internalType": "address",
          "name": "owner",
          "type": "address"
        },
        {
          "indexed": false,
          "internalType": "uint256",
          "name": "amount",
          "type": "uint256"
        }
      ],
      "name": "Faucet",
      "type": "event"
    },
    {
      "inputs": [
        {
          "internalType": "uint256",
          "name": "seed",
          "type": "uint256"
        }
      ],
      "name": "getRandomNumber",
      "outputs": [
        {
          "internalType": "uint256",
          "name": "",
          "type": "uint256"
        }
      ],
      "stateMutability": "view",
      "type": "function",
      "constant": true
    },
    {
      "inputs": [
        {
          "internalType": "uint256",
          "name": "seed",
          "type": "uint256"
        },
        {
          "internalType": "uint256",
          "name": "maxNum",
          "type": "uint256"
        }
      ],
      "name": "getRandomNumberMax",
      "outputs": [
        {
          "internalType": "uint256",
          "name": "",
          "type": "uint256"
        }
      ],
      "stateMutability": "view",
      "type": "function",
      "constant": true
    },
    {
      "inputs": [
        {
          "internalType": "uint256",
          "name": "a",
          "type": "uint256"
        },
        {
          "internalType": "uint256",
          "name": "b",
          "type": "uint256"
        }
      ],
      "name": "max",
      "outputs": [
        {
          "internalType": "uint256",
          "name": "",
          "type": "uint256"
        }
      ],
      "stateMutability": "view",
      "type": "function",
      "constant": true
    },
    {
      "inputs": [
        {
          "internalType": "uint256",
          "name": "a",
          "type": "uint256"
        },
        {
          "internalType": "uint256",
          "name": "b",
          "type": "uint256"
        }
      ],
      "name": "min",
      "outputs": [
        {
          "internalType": "uint256",
          "name": "",
          "type": "uint256"
        }
      ],
      "stateMutability": "view",
      "type": "function",
      "constant": true
    },
    {
      "inputs": [
        {
          "internalType": "uint256",
          "name": "a",
          "type": "uint256"
        },
        {
          "internalType": "uint256",
          "name": "b",
          "type": "uint256"
        }
      ],
      "name": "safeAdd",
      "outputs": [
        {
          "internalType": "uint256",
          "name": "",
          "type": "uint256"
        }
      ],
      "stateMutability": "view",
      "type": "function",
      "constant": true
    },
    {
      "inputs": [
        {
          "internalType": "uint256",
          "name": "a",
          "type": "uint256"
        },
        {
          "internalType": "uint256",
          "name": "b",
          "type": "uint256"
        }
      ],
      "name": "safeMul",
      "outputs": [
        {
          "internalType": "uint256",
          "name": "",
          "type": "uint256"
        }
      ],
      "stateMutability": "view",
      "type": "function",
      "constant": true
    },
    {
      "inputs": [
        {
          "internalType": "uint256",
          "name": "a",
          "type": "uint256"
        },
        {
          "internalType": "uint256",
          "name": "b",
          "type": "uint256"
        }
      ],
      "name": "safeSub",
      "outputs": [
        {
          "internalType": "uint256",
          "name": "",
          "type": "uint256"
        }
      ],
      "stateMutability": "view",
      "type": "function",
      "constant": true
    },
    {
      "inputs": [
        {
          "internalType": "string",
          "name": "a",
          "type": "string"
        },
        {
          "internalType": "string",
          "name": "b",
          "type": "string"
        }
      ],
      "name": "stringsEqual",
      "outputs": [
        {
          "internalType": "bool",
          "name": "",
          "type": "bool"
        }
      ],
      "stateMutability": "view",
      "type": "function",
      "constant": true
    },
    {
      "inputs": [
        {
          "internalType": "address",
          "name": "account",
          "type": "address"
        }
      ],
      "name": "balanceOf",
      "outputs": [
        {
          "internalType": "uint256",
          "name": "",
          "type": "uint256"
        }
      ],
      "stateMutability": "view",
      "type": "function",
      "constant": true
    },
    {
      "inputs": [
        {
          "internalType": "address",
          "name": "playerAddress",
          "type": "address"
        },
        {
          "internalType": "uint256",
          "name": "amount",
          "type": "uint256"
        }
      ],
      "name": "mintCredits",
      "outputs": [
        {
          "internalType": "bool",
          "name": "",
          "type": "bool"
        }
      ],
      "stateMutability": "nonpayable",
      "type": "function"
    },
    {
      "inputs": [
        {
          "internalType": "address",
          "name": "playerAddress",
          "type": "address"
        },
        {
          "internalType": "uint256",
          "name": "amount",
          "type": "uint256"
        }
      ],
      "name": "faucetCredits",
      "outputs": [],
      "stateMutability": "nonpayable",
      "type": "function"
    },
    {
      "inputs": [
        {
          "internalType": "address",
          "name": "playerAddress",
          "type": "address"
        },
        {
          "internalType": "uint256",
          "name": "amount",
          "type": "uint256"
        }
      ],
      "name": "burnCredits",
      "outputs": [
        {
          "internalType": "bool",
          "name": "",
          "type": "bool"
        }
      ],
      "stateMutability": "nonpayable",
      "type": "function"
    },
    {
      "inputs": [
        {
          "internalType": "address",
          "name": "sender",
          "type": "address"
        },
        {
          "internalType": "address",
          "name": "recipient",
          "type": "address"
        },
        {
          "internalType": "uint256",
          "name": "amount",
          "type": "uint256"
        }
      ],
      "name": "transferThroughTrade",
      "outputs": [
        {
          "internalType": "bool",
          "name": "",
          "type": "bool"
        }
      ],
      "stateMutability": "nonpayable",
      "type": "function"
    }
  ],
  "bytecode": "0x60803461007f57601f6109cd38819003918201601f19168301916001600160401b038311848410176100845780849260209460405283398101031261007f57516001600160a01b0381169081900361007f576103e86001556096600255600080546001600160a01b031916919091179055604051610932908161009b8239f35b600080fd5b634e487b7160e01b600052604160045260246000fdfe60806040908082526004918236101561001757600080fd5b600091823560e01c9081629df65b146106ce5750806313d199501461066b5780632189670e1461060f578063427ad5e7146104435780636d5433e61461041e57806370a08231146103845780637ae2b5c7146103575780639bae8747146102df578063a293d1e8146102bd578063a58d3b4714610202578063b37217a41461018d578063d05c78da1461010d5763e6cb9013146100b357600080fd5b34610109576100c13661074d565b90818101938482116100f657602085856100e58583101587816100eb575b50610825565b51908152f35b9050831015856100df565b634e487b7160e01b815260118652602490fd5b5080fd5b508290346101895761011e3661074d565b811594828202949285049081831487171561017657868015610148575b602087876100e58b610825565b90919293965061016357501492506100e5602085808061013b565b634e487b7160e01b815260128652602490fd5b634e487b7160e01b815260118452602490fd5b8280fd5b5090346101ff5760203660031901126101ff57508051446020828101918252933560408301524360608084019190915242608084015233901b6bffffffffffffffffffffffff191660a08301526064916101f48160b481015b03601f198101835282610768565b519020069051908152f35b80fd5b50829034610189576060366003190112610189578261021f6107f7565b6001600160a01b039060243582811691908290036102b95783606492846020965416908751988996879563a58d3b4760e01b87521690850152602484015260443560448401525af19182156102af5760209392610280575b50519015158152f35b6102a1919250833d81116102a8575b6102998183610768565b81019061080d565b9083610277565b503d61028f565b81513d85823e3d90fd5b8380fd5b5034610109576020906102d86102d23661074d565b90610842565b9051908152f35b50829034610189578060031936011261018957602061033b926103006107f7565b85548451639bae874760e01b81526001600160a01b039283169381019384526024356020850152958693919092169183918891839160400190565b03925af19182156102af57602093926102805750519015158152f35b5034610109576020916103693661074d565b9091508082101561037c57509051908152f35b9050906100e5565b5034610109576020928360031936011261018957836103a16107f7565b845484516370a0823160e01b81526001600160a01b039283169481019490945283916024918391165afa9283156104135780936103e1575b505051908152f35b909192508382813d831161040c575b6103fa8183610768565b810103126101ff5750519038806103d9565b503d6103f0565b8251903d90823e3d90fd5b5034610109576020916104303661074d565b9091508082111561037c57509051908152f35b50823461018957816003193601126101895761045d6107f7565b835483516370a0823160e01b81526001600160a01b03808416828601529293602093909216908381602481855afa9081156106055787916105d4575b50600154809110156105915792809261050092866104bc8a989760243590610842565b6002548082101561058757509788935b8a51639bae874760e01b81526001600160a01b03909316908301908152602081019490945290948593849291839160400190565b03925af1801561057d57917f1c5347d1e37925b93058518c26d7daabe45f0a3227e8d058aaf3682960eb2b9495916105599361055f575b5050516001600160a01b03909216825260208201929092529081906040820190565b0390a180f35b8161057592903d106102a8576102998183610768565b508680610537565b85513d88823e3d90fd5b90509788936104cc565b855162461bcd60e51b8152808401859052601e60248201527f4d61782063726564697473207265616368656420666f722066617563657400006044820152606490fd5b90508381813d83116105fe575b6105eb8183610768565b810103126105fa575187610499565b8680fd5b503d6105e1565b86513d89823e3d90fd5b50829034610189578060031936011261018957602061033b926106306107f7565b855484516310c4b38760e11b81526001600160a01b039283169381019384526024356020850152958693919092169183918891839160400190565b50823461018957816003193601126101895767ffffffffffffffff81358181116106ca5761069c90369084016107a0565b936024359182116101ff5750926106bb6106c1926020953691016107a0565b9061089c565b90519015158152f35b8480fd5b91905034610189576106df3661074d565b446020850190815260408501929092524360608086019190915242608086015233901b6bffffffffffffffffffffffff191660a0850152926107248160b481016101e6565b51902092821561073a5750602093505191068152f35b634e487b7160e01b815260128552602490fd5b6040906003190112610763576004359060243590565b600080fd5b90601f8019910116810190811067ffffffffffffffff82111761078a57604052565b634e487b7160e01b600052604160045260246000fd5b81601f820112156107635780359067ffffffffffffffff821161078a57604051926107d5601f8401601f191660200185610768565b8284526020838301011161076357816000926020809301838601378301015290565b600435906001600160a01b038216820361076357565b90816020910312610763575180151581036107635790565b1561082c57565b634e487b7160e01b600052600160045260246000fd5b9061084f82821115610825565b810390811161085b5790565b634e487b7160e01b600052601160045260246000fd5b9081519160005b838110610889575050016000815290565b8060208092840101518185015201610878565b9060405191826108b0602082018093610871565b03926108c4601f1994858101835282610768565b519020916108ea60405191826108de602082018096610871565b03908101835282610768565b519020036108f757600190565b60009056fea26469706673582212209048f8fc69b0084838b67387ff54e3cf464d692a3cf3fc35395e5973e3019abf64736f6c63430008130033",
  "immutableReferences": {},
  "source": "// SPDX-License-Identifier: MIT\npragma solidity ^0.8.18;\n\nimport \"./Credits.sol\";\n\ncontract CreditsHelper is SafeMath {\n    Credits private _credits;\n\n    uint256 maxFaucetAmount = 1000;\n    uint256 dailyFaucetLimit = 150;\n\n    constructor(address baseContract) {\n        _credits = Credits(baseContract);\n    }\n\n    event Faucet(address owner, uint256 amount);   \n\n    function balanceOf(address account) public view returns (uint256) {\n        return _credits.balanceOf(account);\n    }\n\n    function mintCredits(address playerAddress, uint256 amount) external returns (bool)  {\n        return _credits.mintCredits(playerAddress, amount);\n    }\n\n    function faucetCredits(address playerAddress, uint256 amount) external  {\n        require(_credits.balanceOf(playerAddress) < maxFaucetAmount, \"Max credits reached for faucet\");\n\n        amount = min(safeSub(maxFaucetAmount, amount), dailyFaucetLimit);\n        _credits.mintCredits(playerAddress, amount);\n        emit Faucet(playerAddress, amount);\n    }\n\n    function burnCredits(address playerAddress, uint256 amount) external returns (bool) {\n        return _credits.burnCredits(playerAddress, amount);\n    }\n\n    function transferThroughTrade(address sender, address recipient, uint256 amount) public  returns (bool) {\n        return _credits.transferThroughTrade(sender, recipient, amount);\n    }\n}",
  "sourcePath": "/Users/max/Documents/prog/game-contracts/contracts/CreditsHelper.sol",
  "compiler": {
    "name": "solc",
    "version": "0.8.19+commit.7dd6d404.Emscripten.clang"
  },
  "schemaVersion": "3.4.13",
  "updatedAt": "2023-08-09T04:15:28.917Z",
  "networkType": "ethereum",
  "devdoc": {
    "kind": "dev",
    "methods": {},
    "version": 1
  },
  "userdoc": {
    "kind": "user",
    "methods": {},
    "version": 1
  }
}