{
  "contractName": "CreditsHelper",
  "abi": [
    {
      "inputs": [
        {
          "internalType": "address",
          "name": "baseContract",
          "type": "address"
        }
      ],
      "stateMutability": "nonpayable",
      "type": "constructor"
    },
    {
      "anonymous": false,
      "inputs": [
        {
          "indexed": false,
          "internalType": "address",
          "name": "owner",
          "type": "address"
        },
        {
          "indexed": false,
          "internalType": "uint256",
          "name": "amount",
          "type": "uint256"
        }
      ],
      "name": "Faucet",
      "type": "event"
    },
    {
      "inputs": [
        {
          "internalType": "uint256",
          "name": "seed",
          "type": "uint256"
        }
      ],
      "name": "getRandomNumber",
      "outputs": [
        {
          "internalType": "uint256",
          "name": "",
          "type": "uint256"
        }
      ],
      "stateMutability": "view",
      "type": "function",
      "constant": true
    },
    {
      "inputs": [
        {
          "internalType": "uint256",
          "name": "seed",
          "type": "uint256"
        },
        {
          "internalType": "uint256",
          "name": "maxNum",
          "type": "uint256"
        }
      ],
      "name": "getRandomNumberMax",
      "outputs": [
        {
          "internalType": "uint256",
          "name": "",
          "type": "uint256"
        }
      ],
      "stateMutability": "view",
      "type": "function",
      "constant": true
    },
    {
      "inputs": [
        {
          "internalType": "uint256",
          "name": "a",
          "type": "uint256"
        },
        {
          "internalType": "uint256",
          "name": "b",
          "type": "uint256"
        }
      ],
      "name": "max",
      "outputs": [
        {
          "internalType": "uint256",
          "name": "",
          "type": "uint256"
        }
      ],
      "stateMutability": "view",
      "type": "function",
      "constant": true
    },
    {
      "inputs": [
        {
          "internalType": "uint256",
          "name": "a",
          "type": "uint256"
        },
        {
          "internalType": "uint256",
          "name": "b",
          "type": "uint256"
        }
      ],
      "name": "min",
      "outputs": [
        {
          "internalType": "uint256",
          "name": "",
          "type": "uint256"
        }
      ],
      "stateMutability": "view",
      "type": "function",
      "constant": true
    },
    {
      "inputs": [
        {
          "internalType": "uint256",
          "name": "a",
          "type": "uint256"
        },
        {
          "internalType": "uint256",
          "name": "b",
          "type": "uint256"
        }
      ],
      "name": "safeAdd",
      "outputs": [
        {
          "internalType": "uint256",
          "name": "",
          "type": "uint256"
        }
      ],
      "stateMutability": "view",
      "type": "function",
      "constant": true
    },
    {
      "inputs": [
        {
          "internalType": "uint256",
          "name": "a",
          "type": "uint256"
        },
        {
          "internalType": "uint256",
          "name": "b",
          "type": "uint256"
        }
      ],
      "name": "safeMul",
      "outputs": [
        {
          "internalType": "uint256",
          "name": "",
          "type": "uint256"
        }
      ],
      "stateMutability": "view",
      "type": "function",
      "constant": true
    },
    {
      "inputs": [
        {
          "internalType": "uint256",
          "name": "a",
          "type": "uint256"
        },
        {
          "internalType": "uint256",
          "name": "b",
          "type": "uint256"
        }
      ],
      "name": "safeSub",
      "outputs": [
        {
          "internalType": "uint256",
          "name": "",
          "type": "uint256"
        }
      ],
      "stateMutability": "view",
      "type": "function",
      "constant": true
    },
    {
      "inputs": [
        {
          "internalType": "address",
          "name": "account",
          "type": "address"
        }
      ],
      "name": "balanceOf",
      "outputs": [
        {
          "internalType": "uint256",
          "name": "",
          "type": "uint256"
        }
      ],
      "stateMutability": "view",
      "type": "function",
      "constant": true
    },
    {
      "inputs": [
        {
          "internalType": "address",
          "name": "playerAddress",
          "type": "address"
        },
        {
          "internalType": "uint256",
          "name": "amount",
          "type": "uint256"
        }
      ],
      "name": "mintCredits",
      "outputs": [
        {
          "internalType": "bool",
          "name": "",
          "type": "bool"
        }
      ],
      "stateMutability": "nonpayable",
      "type": "function"
    },
    {
      "inputs": [
        {
          "internalType": "address",
          "name": "playerAddress",
          "type": "address"
        },
        {
          "internalType": "uint256",
          "name": "amount",
          "type": "uint256"
        }
      ],
      "name": "faucetCredits",
      "outputs": [],
      "stateMutability": "nonpayable",
      "type": "function"
    },
    {
      "inputs": [
        {
          "internalType": "address",
          "name": "playerAddress",
          "type": "address"
        },
        {
          "internalType": "uint256",
          "name": "amount",
          "type": "uint256"
        }
      ],
      "name": "burnCredits",
      "outputs": [
        {
          "internalType": "bool",
          "name": "",
          "type": "bool"
        }
      ],
      "stateMutability": "nonpayable",
      "type": "function"
    },
    {
      "inputs": [
        {
          "internalType": "address",
          "name": "sender",
          "type": "address"
        },
        {
          "internalType": "address",
          "name": "recipient",
          "type": "address"
        },
        {
          "internalType": "uint256",
          "name": "amount",
          "type": "uint256"
        }
      ],
      "name": "transferThroughTrade",
      "outputs": [
        {
          "internalType": "bool",
          "name": "",
          "type": "bool"
        }
      ],
      "stateMutability": "nonpayable",
      "type": "function"
    }
  ],
  "bytecode": "0x60806040526103e8600155609660025534801561001b57600080fd5b506040516108f63803806108f683398101604081905261003a9161005f565b600080546001600160a01b0319166001600160a01b039290921691909117905561008f565b60006020828403121561007157600080fd5b81516001600160a01b038116811461008857600080fd5b9392505050565b6108588061009e6000396000f3fe608060405234801561001057600080fd5b50600436106100b35760003560e01c80639bae8747116100715780639bae87471461014f578063a293d1e814610162578063a58d3b4714610175578063b37217a414610188578063d05c78da1461019b578063e6cb9013146101ae57600080fd5b80629df65b146100b85780632189670e146100de578063427ad5e7146101015780636d5433e61461011657806370a08231146101295780637ae2b5c71461013c575b600080fd5b6100cb6100c6366004610631565b6101c1565b6040519081526020015b60405180910390f35b6100f16100ec36600461066f565b61020b565b60405190151581526020016100d5565b61011461010f36600461066f565b61028b565b005b6100cb610124366004610631565b610424565b6100cb610137366004610699565b61043a565b6100cb61014a366004610631565b6104a9565b6100f161015d36600461066f565b6104b8565b6100cb610170366004610631565b6104f2565b6100f16101833660046106b4565b61050e565b6100cb6101963660046106f0565b610596565b6100cb6101a9366004610631565b6105d7565b6100cb6101bc366004610631565b610607565b60008044844342336040516020016101dd959493929190610709565b60408051601f19818403018152919052805160209091012090506102018382610756565b9150505b92915050565b600080546040516310c4b38760e11b81526001600160a01b0385811660048301526024820185905290911690632189670e906044015b6020604051808303816000875af1158015610260573d6000803e3d6000fd5b505050506040513d601f19601f82011682018060405250810190610284919061076a565b9392505050565b6001546000546040516370a0823160e01b81526001600160a01b038581166004830152909116906370a0823190602401602060405180830381865afa1580156102d8573d6000803e3d6000fd5b505050506040513d601f19601f820116820180604052508101906102fc919061078c565b1061034d5760405162461bcd60e51b815260206004820152601e60248201527f4d61782063726564697473207265616368656420666f72206661756365740000604482015260640160405180910390fd5b61036461035c600154836104f2565b6002546104a9565b600054604051639bae874760e01b81526001600160a01b03858116600483015260248201849052929350911690639bae8747906044016020604051808303816000875af11580156103b9573d6000803e3d6000fd5b505050506040513d601f19601f820116820180604052508101906103dd919061076a565b50604080516001600160a01b0384168152602081018390527f1c5347d1e37925b93058518c26d7daabe45f0a3227e8d058aaf3682960eb2b94910160405180910390a15050565b60008183116104335781610284565b5090919050565b600080546040516370a0823160e01b81526001600160a01b038481166004830152909116906370a0823190602401602060405180830381865afa158015610485573d6000803e3d6000fd5b505050506040513d601f19601f82011682018060405250810190610205919061078c565b60008183106104335781610284565b60008054604051639bae874760e01b81526001600160a01b0385811660048301526024820185905290911690639bae874790604401610241565b600082821115610504576105046107a5565b61028482846107d1565b6000805460405163a58d3b4760e01b81526001600160a01b0386811660048301528581166024830152604482018590529091169063a58d3b47906064016020604051808303816000875af115801561056a573d6000803e3d6000fd5b505050506040513d601f19601f8201168201806040525081019061058e919061076a565b949350505050565b60008044834342336040516020016105b2959493929190610709565b60408051601f1981840301815291905280516020909101209050610284606482610756565b6000806105e483856107e4565b90508315806105fb5750826105f985836107fb565b145b610284576102846107a5565b600080610614838561080f565b90508381101580156105fb575082811015610284576102846107a5565b6000806040838503121561064457600080fd5b50508035926020909101359150565b80356001600160a01b038116811461066a57600080fd5b919050565b6000806040838503121561068257600080fd5b61068b83610653565b946020939093013593505050565b6000602082840312156106ab57600080fd5b61028482610653565b6000806000606084860312156106c957600080fd5b6106d284610653565b92506106e060208501610653565b9150604084013590509250925092565b60006020828403121561070257600080fd5b5035919050565b948552602085019390935260408401919091526060808401919091521b6bffffffffffffffffffffffff1916608082015260940190565b634e487b7160e01b600052601260045260246000fd5b60008261076557610765610740565b500690565b60006020828403121561077c57600080fd5b8151801515811461028457600080fd5b60006020828403121561079e57600080fd5b5051919050565b634e487b7160e01b600052600160045260246000fd5b634e487b7160e01b600052601160045260246000fd5b81810381811115610205576102056107bb565b8082028115828204841417610205576102056107bb565b60008261080a5761080a610740565b500490565b80820180821115610205576102056107bb56fea264697066735822122083d1107cf44b7d1b318a1a3583b2738fa660ba2a3116379c980804eca6fac23464736f6c63430008130033",
  "immutableReferences": {},
  "source": "// SPDX-License-Identifier: MIT\npragma solidity ^0.8.18;\n\nimport \"./Credits.sol\";\n\ncontract CreditsHelper is SafeMath {\n    Credits private _credits;\n\n    uint256 maxFaucetAmount = 1000;\n    uint256 dailyFaucetLimit = 150;\n\n    constructor(address baseContract) {\n        _credits = Credits(baseContract);\n    }\n\n    event Faucet(address owner, uint256 amount);   \n\n    function balanceOf(address account) public view returns (uint256) {\n        return _credits.balanceOf(account);\n    }\n\n    function mintCredits(address playerAddress, uint256 amount) external returns (bool)  {\n        return _credits.mintCredits(playerAddress, amount);\n    }\n\n    function faucetCredits(address playerAddress, uint256 amount) external  {\n        require(_credits.balanceOf(playerAddress) < maxFaucetAmount, \"Max credits reached for faucet\");\n\n        amount = min(safeSub(maxFaucetAmount, amount), dailyFaucetLimit);\n        _credits.mintCredits(playerAddress, amount);\n        emit Faucet(playerAddress, amount);\n    }\n\n    function burnCredits(address playerAddress, uint256 amount) external returns (bool) {\n        return _credits.burnCredits(playerAddress, amount);\n    }\n\n    function transferThroughTrade(address sender, address recipient, uint256 amount) public  returns (bool) {\n        return _credits.transferThroughTrade(sender, recipient, amount);\n    }\n}",
  "sourcePath": "/Users/max/Documents/prog/game-contracts/contracts/CreditsHelper.sol",
  "compiler": {
    "name": "solc",
    "version": "0.8.19+commit.7dd6d404.Emscripten.clang"
  },
  "schemaVersion": "3.4.13",
  "updatedAt": "2023-08-04T05:17:18.229Z",
  "networkType": "ethereum",
  "devdoc": {
    "kind": "dev",
    "methods": {},
    "version": 1
  },
  "userdoc": {
    "kind": "user",
    "methods": {},
    "version": 1
  }
}