{
  "contractName": "Credits",
  "abi": [
    {
      "inputs": [],
      "stateMutability": "nonpayable",
      "type": "constructor"
    },
    {
      "anonymous": false,
      "inputs": [
        {
          "indexed": true,
          "internalType": "address",
          "name": "owner",
          "type": "address"
        },
        {
          "indexed": true,
          "internalType": "address",
          "name": "spender",
          "type": "address"
        },
        {
          "indexed": false,
          "internalType": "uint256",
          "name": "value",
          "type": "uint256"
        }
      ],
      "name": "Approval",
      "type": "event"
    },
    {
      "anonymous": false,
      "inputs": [
        {
          "indexed": true,
          "internalType": "address",
          "name": "from",
          "type": "address"
        },
        {
          "indexed": true,
          "internalType": "address",
          "name": "to",
          "type": "address"
        },
        {
          "indexed": false,
          "internalType": "uint256",
          "name": "value",
          "type": "uint256"
        }
      ],
      "name": "Transfer",
      "type": "event"
    },
    {
      "inputs": [],
      "name": "decimals",
      "outputs": [
        {
          "internalType": "uint8",
          "name": "",
          "type": "uint8"
        }
      ],
      "stateMutability": "view",
      "type": "function",
      "constant": true
    },
    {
      "inputs": [
        {
          "internalType": "uint256",
          "name": "seed",
          "type": "uint256"
        }
      ],
      "name": "getRandomNumber",
      "outputs": [
        {
          "internalType": "uint256",
          "name": "",
          "type": "uint256"
        }
      ],
      "stateMutability": "view",
      "type": "function",
      "constant": true
    },
    {
      "inputs": [
        {
          "internalType": "uint256",
          "name": "seed",
          "type": "uint256"
        },
        {
          "internalType": "uint256",
          "name": "maxNum",
          "type": "uint256"
        }
      ],
      "name": "getRandomNumberMax",
      "outputs": [
        {
          "internalType": "uint256",
          "name": "",
          "type": "uint256"
        }
      ],
      "stateMutability": "view",
      "type": "function",
      "constant": true
    },
    {
      "inputs": [
        {
          "internalType": "uint256",
          "name": "a",
          "type": "uint256"
        },
        {
          "internalType": "uint256",
          "name": "b",
          "type": "uint256"
        }
      ],
      "name": "max",
      "outputs": [
        {
          "internalType": "uint256",
          "name": "",
          "type": "uint256"
        }
      ],
      "stateMutability": "view",
      "type": "function",
      "constant": true
    },
    {
      "inputs": [
        {
          "internalType": "uint256",
          "name": "a",
          "type": "uint256"
        },
        {
          "internalType": "uint256",
          "name": "b",
          "type": "uint256"
        }
      ],
      "name": "min",
      "outputs": [
        {
          "internalType": "uint256",
          "name": "",
          "type": "uint256"
        }
      ],
      "stateMutability": "view",
      "type": "function",
      "constant": true
    },
    {
      "inputs": [],
      "name": "name",
      "outputs": [
        {
          "internalType": "string",
          "name": "",
          "type": "string"
        }
      ],
      "stateMutability": "view",
      "type": "function",
      "constant": true
    },
    {
      "inputs": [
        {
          "internalType": "uint256",
          "name": "a",
          "type": "uint256"
        },
        {
          "internalType": "uint256",
          "name": "b",
          "type": "uint256"
        }
      ],
      "name": "safeAdd",
      "outputs": [
        {
          "internalType": "uint256",
          "name": "",
          "type": "uint256"
        }
      ],
      "stateMutability": "view",
      "type": "function",
      "constant": true
    },
    {
      "inputs": [
        {
          "internalType": "uint256",
          "name": "a",
          "type": "uint256"
        },
        {
          "internalType": "uint256",
          "name": "b",
          "type": "uint256"
        }
      ],
      "name": "safeMul",
      "outputs": [
        {
          "internalType": "uint256",
          "name": "",
          "type": "uint256"
        }
      ],
      "stateMutability": "view",
      "type": "function",
      "constant": true
    },
    {
      "inputs": [
        {
          "internalType": "uint256",
          "name": "a",
          "type": "uint256"
        },
        {
          "internalType": "uint256",
          "name": "b",
          "type": "uint256"
        }
      ],
      "name": "safeSub",
      "outputs": [
        {
          "internalType": "uint256",
          "name": "",
          "type": "uint256"
        }
      ],
      "stateMutability": "view",
      "type": "function",
      "constant": true
    },
    {
      "inputs": [
        {
          "internalType": "string",
          "name": "a",
          "type": "string"
        },
        {
          "internalType": "string",
          "name": "b",
          "type": "string"
        }
      ],
      "name": "stringsEqual",
      "outputs": [
        {
          "internalType": "bool",
          "name": "",
          "type": "bool"
        }
      ],
      "stateMutability": "view",
      "type": "function",
      "constant": true
    },
    {
      "inputs": [],
      "name": "symbol",
      "outputs": [
        {
          "internalType": "string",
          "name": "",
          "type": "string"
        }
      ],
      "stateMutability": "view",
      "type": "function",
      "constant": true
    },
    {
      "inputs": [
        {
          "internalType": "address",
          "name": "playerAddress",
          "type": "address"
        },
        {
          "internalType": "uint256",
          "name": "amount",
          "type": "uint256"
        }
      ],
      "name": "mintCredits",
      "outputs": [
        {
          "internalType": "bool",
          "name": "",
          "type": "bool"
        }
      ],
      "stateMutability": "nonpayable",
      "type": "function"
    },
    {
      "inputs": [
        {
          "internalType": "address",
          "name": "playerAddress",
          "type": "address"
        },
        {
          "internalType": "uint256",
          "name": "amount",
          "type": "uint256"
        }
      ],
      "name": "burnCredits",
      "outputs": [
        {
          "internalType": "bool",
          "name": "",
          "type": "bool"
        }
      ],
      "stateMutability": "nonpayable",
      "type": "function"
    },
    {
      "inputs": [],
      "name": "totalSupply",
      "outputs": [
        {
          "internalType": "uint256",
          "name": "",
          "type": "uint256"
        }
      ],
      "stateMutability": "view",
      "type": "function",
      "constant": true
    },
    {
      "inputs": [
        {
          "internalType": "address",
          "name": "account",
          "type": "address"
        }
      ],
      "name": "balanceOf",
      "outputs": [
        {
          "internalType": "uint256",
          "name": "",
          "type": "uint256"
        }
      ],
      "stateMutability": "view",
      "type": "function",
      "constant": true
    },
    {
      "inputs": [
        {
          "internalType": "address",
          "name": "recipient",
          "type": "address"
        },
        {
          "internalType": "uint256",
          "name": "amount",
          "type": "uint256"
        }
      ],
      "name": "transfer",
      "outputs": [
        {
          "internalType": "bool",
          "name": "",
          "type": "bool"
        }
      ],
      "stateMutability": "nonpayable",
      "type": "function"
    },
    {
      "inputs": [
        {
          "internalType": "address",
          "name": "sender",
          "type": "address"
        },
        {
          "internalType": "address",
          "name": "recipient",
          "type": "address"
        },
        {
          "internalType": "uint256",
          "name": "amount",
          "type": "uint256"
        }
      ],
      "name": "transferThroughTrade",
      "outputs": [
        {
          "internalType": "bool",
          "name": "",
          "type": "bool"
        }
      ],
      "stateMutability": "nonpayable",
      "type": "function"
    },
    {
      "inputs": [
        {
          "internalType": "address",
          "name": "owner",
          "type": "address"
        },
        {
          "internalType": "address",
          "name": "spender",
          "type": "address"
        }
      ],
      "name": "allowance",
      "outputs": [
        {
          "internalType": "uint256",
          "name": "",
          "type": "uint256"
        }
      ],
      "stateMutability": "view",
      "type": "function",
      "constant": true
    },
    {
      "inputs": [
        {
          "internalType": "address",
          "name": "spender",
          "type": "address"
        },
        {
          "internalType": "uint256",
          "name": "amount",
          "type": "uint256"
        }
      ],
      "name": "approve",
      "outputs": [
        {
          "internalType": "bool",
          "name": "",
          "type": "bool"
        }
      ],
      "stateMutability": "nonpayable",
      "type": "function"
    },
    {
      "inputs": [
        {
          "internalType": "address",
          "name": "sender",
          "type": "address"
        },
        {
          "internalType": "address",
          "name": "recipient",
          "type": "address"
        },
        {
          "internalType": "uint256",
          "name": "amount",
          "type": "uint256"
        }
      ],
      "name": "transferFrom",
      "outputs": [
        {
          "internalType": "bool",
          "name": "",
          "type": "bool"
        }
      ],
      "stateMutability": "nonpayable",
      "type": "function"
    }
  ],
  "bytecode": "0x6080806040523461001a5760008055610b8890816100208239f35b600080fdfe608060408181526004918236101561001657600080fd5b600092833560e01c9182629df65b146106775750816306fdde0314610631578163095ea7b31461060757816313d19950146105a857816318160ddd1461058b5781632189670e146104a957816323b872dd1461045a578163313ce5671461043f5781636d5433e61461041957816370a08231146103e15781637ae2b5c7146103b357816395d89b41146103715781639bae8747146102e8578163a293d1e8146102c0578163a58d3b47146102a4578163a9059cbb14610273578163b37217a4146101fe578163d05c78da1461017857508063dd62ed3e146101255763e6cb90131461010057600080fd5b346101215760209061011a610114366106f6565b90610ac4565b9051908152f35b5080fd5b503461012157806003193601126101215761013e6107b4565b6001600160a01b036024358181169290839003610174579160209491849316825260028552828220908252845220549051908152f35b8480fd5b919050346101fa57610189366106f6565b81159482820294928504908183148717156101e7578680156101b9575b602087876101b38b610aa7565b51908152f35b9091929396506101d457501492506101b360203880806101a6565b634e487b7160e01b815260128652602490fd5b634e487b7160e01b815260118452602490fd5b8280fd5b82843461027057602036600319011261027057508051446020828101918252933560408301524360608084019190915242608084015233901b6bffffffffffffffffffffffff191660a08301526064916102658160b481015b03601f198101835282610743565b519020069051908152f35b80fd5b50503461012157806003193601126101215760209061029d6102936107b4565b6024359033610886565b5160018152f35b5050346101215760209061029d6102ba36610821565b91610886565b5050346101215760209061011a6102d6366106f6565b906102e381831115610aa7565b610856565b5050346101215780600319360112610121576020916103056107b4565b907fddf252ad1be2c89b69c2b068fc378daa952ba7f163c4a11628f55a4df523b3ef846103586024359461033a868654610ac4565b85556001600160a01b03168085526001835286852054909590610ac4565b8484526001825280868520558551908152a35160018152f35b50503461012157816003193601126101215780516103af9161039282610711565b60068252654d524955534360d01b60208301525191829182610788565b0390f35b505034610121576020916103c6366106f6565b909150808210156103d957509051908152f35b9050906101b3565b5050346101215760203660031901126101215760209181906001600160a01b036104096107b4565b1681526001845220549051908152f35b5050346101215760209161042c366106f6565b909150808211156103d957509051908152f35b50503461012157816003193601126101215751908152602090f35b5050346101215761029d6104826104a16020948461047736610821565b829691819593610886565b6001600160a01b03851681526002885281812033825288522054610856565b9033906109a5565b8284346102705781600319360112610270576104c36107b4565b6001600160a01b0316808252600160209081528383205490946024359182116105515750848161051c7fddf252ad1be2c89b69c2b068fc378daa952ba7f163c4a11628f55a4df523b3ef9386546102e381831115610aa7565b85558385526001825261053981878720546102e381831115610aa7565b84865260018352868620558551908152a35160018152f35b845162461bcd60e51b81529081018690526014602482015273496e73756666696369656e742062616c616e636560601b6044820152606490fd5b505034610121578160031936011261012157602091549051908152f35b9050346101fa57816003193601126101fa5767ffffffffffffffff8135818111610174576105d990369084016107ca565b936024359182116102705750926105f86105fe926020953691016107ca565b90610af2565b90519015158152f35b50503461012157806003193601126101215760209061029d6106276107b4565b60243590336109a5565b50503461012157816003193601126101215780516103af9161065282610711565b600e82526d4d5249555344204372656469747360901b60208301525191829182610788565b849084346101fa57610688366106f6565b446020850190815260408501929092524360608086019190915242608086015233901b6bffffffffffffffffffffffff191660a0850152926106cd8160b48101610257565b5190209282156106e35750602093505191068152f35b634e487b7160e01b815260128552602490fd5b604090600319011261070c576004359060243590565b600080fd5b6040810190811067ffffffffffffffff82111761072d57604052565b634e487b7160e01b600052604160045260246000fd5b90601f8019910116810190811067ffffffffffffffff82111761072d57604052565b60005b8381106107785750506000910152565b8181015183820152602001610768565b604091602082526107a88151809281602086015260208686019101610765565b601f01601f1916010190565b600435906001600160a01b038216820361070c57565b81601f8201121561070c5780359067ffffffffffffffff821161072d57604051926107ff601f8401601f191660200185610743565b8284526020838301011161070c57816000926020809301838601378301015290565b606090600319011261070c576001600160a01b0390600435828116810361070c5791602435908116810361070c579060443590565b9190820391821161086357565b634e487b7160e01b600052601160045260246000fd5b9190820180921161086357565b6001600160a01b0390811691821561095257169182156109015760207fddf252ad1be2c89b69c2b068fc378daa952ba7f163c4a11628f55a4df523b3ef91836000526001825260406000206108dc828254610856565b9055846000526001825260406000206108f6828254610879565b9055604051908152a3565b60405162461bcd60e51b815260206004820152602360248201527f45524332303a207472616e7366657220746f20746865207a65726f206164647260448201526265737360e81b6064820152608490fd5b60405162461bcd60e51b815260206004820152602560248201527f45524332303a207472616e736665722066726f6d20746865207a65726f206164604482015264647265737360d81b6064820152608490fd5b6001600160a01b03908116918215610a565716918215610a065760207f8c5be1e5ebec7d5bd14f71427d1e84f3dd0314c0f7b2291e5b200ac8c7c3b925918360005260028252604060002085600052825280604060002055604051908152a3565b60405162461bcd60e51b815260206004820152602260248201527f45524332303a20617070726f766520746f20746865207a65726f206164647265604482015261737360f01b6064820152608490fd5b60405162461bcd60e51b8152602060048201526024808201527f45524332303a20617070726f76652066726f6d20746865207a65726f206164646044820152637265737360e01b6064820152608490fd5b15610aae57565b634e487b7160e01b600052600160045260246000fd5b90610ae490610ad38184610879565b928310159081610ae7575b50610aa7565b90565b905082101538610ade565b9060405191602092610b20848281610b138183019687815193849201610765565b8101038084520182610743565b51902091610b40604051918281610b138183019687815193849201610765565b51902003610b4d57600190565b60009056fea2646970667358221220ea88c4d9f68080378a72b573f026eecee8d8c572f8d29a7c269b9e17664b595164736f6c63430008130033",
  "immutableReferences": {},
  "source": "// SPDX-License-Identifier: MIT\npragma solidity ^0.8.18;\n\nimport \"@openzeppelin/contracts/token/ERC20/ERC20.sol\";\nimport \"./SafeMath.sol\";\n\ncontract Credits is IERC20, SafeMath {\n    string public constant name = \"MRIUSD Credits\";\n    string public constant symbol = \"MRIUSC\";\n    uint8 public constant decimals = 0;\n\n    uint256 private _totalSupply;\n\n    mapping(address => uint256) private _balances;\n    mapping(address => mapping(address => uint256)) private _allowances;\n    mapping(address => uint256) private lastFaucetTopUp;\n    \n    constructor() {\n        _totalSupply = 0;\n    } \n\n    \n\n    function mintCredits(address playerAddress, uint256 amount) external returns (bool) {\n        _totalSupply = safeAdd(_totalSupply, amount);\n        _balances[playerAddress] = safeAdd(_balances[playerAddress], amount);\n        emit Transfer(address(0), playerAddress, _balances[playerAddress]);\n        return true;\n    }\n\n    function burnCredits(address playerAddress, uint256 amount) external returns (bool) {\n        require(amount <= balanceOf(playerAddress), \"Insufficient balance\");\n        _totalSupply = safeSub(_totalSupply, amount);\n        _balances[playerAddress] = safeSub(_balances[playerAddress], amount);\n        emit Transfer(playerAddress, address(0), amount);\n        return true;\n    }\n\n    function totalSupply() public view override returns (uint256) {\n        return _totalSupply;\n    }\n    \n    function balanceOf(address account) public view override returns (uint256) {\n        return _balances[account];\n    }\n    \n    function transfer(address recipient, uint256 amount) public override returns (bool) {\n        _transfer(msg.sender, recipient, amount);\n        return true;\n    }\n\n    function transferThroughTrade(address sender, address recipient, uint256 amount) public returns (bool) {\n        _transfer(sender, recipient, amount);\n        return true;\n    }\n    \n    function allowance(address owner, address spender) public view override returns (uint256) {\n        return _allowances[owner][spender];\n    }\n    \n    function approve(address spender, uint256 amount) public override returns (bool) {\n        _approve(msg.sender, spender, amount);\n        return true;\n    }\n    \n    function transferFrom(address sender, address recipient, uint256 amount) public override returns (bool) {\n        _transfer(sender, recipient, amount);\n        _approve(sender, msg.sender, _allowances[sender][msg.sender] - amount);\n        return true;\n    }\n    \n    function _transfer(address sender, address recipient, uint256 amount) internal {\n        require(sender != address(0), \"ERC20: transfer from the zero address\");\n        require(recipient != address(0), \"ERC20: transfer to the zero address\");\n        \n        _balances[sender] -= amount;\n        _balances[recipient] += amount;\n        emit Transfer(sender, recipient, amount);\n    }\n    \n    function _approve(address owner, address spender, uint256 amount) internal {\n        require(owner != address(0), \"ERC20: approve from the zero address\");\n        require(spender != address(0), \"ERC20: approve to the zero address\");\n        \n        _allowances[owner][spender] = amount;\n        emit Approval(owner, spender, amount);\n    }\n}\n",
  "sourcePath": "/Users/max/Documents/prog/game-contracts/contracts/Credits.sol",
  "compiler": {
    "name": "solc",
    "version": "0.8.19+commit.7dd6d404.Emscripten.clang"
  },
  "schemaVersion": "3.4.13",
  "updatedAt": "2023-08-09T04:15:28.916Z",
  "networkType": "ethereum",
  "devdoc": {
    "events": {
      "Approval(address,address,uint256)": {
        "details": "Emitted when the allowance of a `spender` for an `owner` is set by a call to {approve}. `value` is the new allowance."
      },
      "Transfer(address,address,uint256)": {
        "details": "Emitted when `value` tokens are moved from one account (`from`) to another (`to`). Note that `value` may be zero."
      }
    },
    "kind": "dev",
    "methods": {
      "allowance(address,address)": {
        "details": "Returns the remaining number of tokens that `spender` will be allowed to spend on behalf of `owner` through {transferFrom}. This is zero by default. This value changes when {approve} or {transferFrom} are called."
      },
      "approve(address,uint256)": {
        "details": "Sets `amount` as the allowance of `spender` over the caller's tokens. Returns a boolean value indicating whether the operation succeeded. IMPORTANT: Beware that changing an allowance with this method brings the risk that someone may use both the old and the new allowance by unfortunate transaction ordering. One possible solution to mitigate this race condition is to first reduce the spender's allowance to 0 and set the desired value afterwards: https://github.com/ethereum/EIPs/issues/20#issuecomment-263524729 Emits an {Approval} event."
      },
      "balanceOf(address)": {
        "details": "Returns the amount of tokens owned by `account`."
      },
      "totalSupply()": {
        "details": "Returns the amount of tokens in existence."
      }
    },
    "version": 1
  },
  "userdoc": {
    "kind": "user",
    "methods": {},
    "version": 1
  }
}