{
  "contractName": "Drop",
  "abi": [
    {
      "inputs": [
        {
          "internalType": "address",
          "name": "itemsHelperContract",
          "type": "address"
        },
        {
          "internalType": "address",
          "name": "moneyHelperContract",
          "type": "address"
        }
      ],
      "stateMutability": "nonpayable",
      "type": "constructor"
    },
    {
      "anonymous": false,
      "inputs": [
        {
          "indexed": false,
          "internalType": "uint256",
          "name": "rarityLevel",
          "type": "uint256"
        },
        {
          "components": [
            {
              "internalType": "uint256",
              "name": "weaponsDropRate",
              "type": "uint256"
            },
            {
              "internalType": "uint256",
              "name": "armoursDropRate",
              "type": "uint256"
            },
            {
              "internalType": "uint256",
              "name": "jewelsDropRate",
              "type": "uint256"
            },
            {
              "internalType": "uint256",
              "name": "miscDropRate",
              "type": "uint256"
            },
            {
              "internalType": "uint256",
              "name": "boxDropRate",
              "type": "uint256"
            },
            {
              "internalType": "uint256",
              "name": "excDropRate",
              "type": "uint256"
            },
            {
              "internalType": "uint256",
              "name": "minItemLevel",
              "type": "uint256"
            },
            {
              "internalType": "uint256",
              "name": "maxItemLevel",
              "type": "uint256"
            },
            {
              "internalType": "uint256",
              "name": "maxAddPoints",
              "type": "uint256"
            },
            {
              "internalType": "uint256",
              "name": "blockCrated",
              "type": "uint256"
            }
          ],
          "indexed": false,
          "internalType": "struct Drop.DropParams",
          "name": "params",
          "type": "tuple"
        }
      ],
      "name": "BoxDropParametersChange",
      "type": "event"
    },
    {
      "anonymous": false,
      "inputs": [
        {
          "indexed": false,
          "internalType": "uint256",
          "name": "tokenId",
          "type": "uint256"
        },
        {
          "indexed": false,
          "internalType": "uint256",
          "name": "rarityLevel",
          "type": "uint256"
        },
        {
          "indexed": false,
          "internalType": "address",
          "name": "owner",
          "type": "address"
        }
      ],
      "name": "BoxOppened",
      "type": "event"
    },
    {
      "anonymous": false,
      "inputs": [
        {
          "indexed": false,
          "internalType": "uint256",
          "name": "rarityLevel",
          "type": "uint256"
        },
        {
          "components": [
            {
              "internalType": "uint256",
              "name": "weaponsDropRate",
              "type": "uint256"
            },
            {
              "internalType": "uint256",
              "name": "armoursDropRate",
              "type": "uint256"
            },
            {
              "internalType": "uint256",
              "name": "jewelsDropRate",
              "type": "uint256"
            },
            {
              "internalType": "uint256",
              "name": "miscDropRate",
              "type": "uint256"
            },
            {
              "internalType": "uint256",
              "name": "boxDropRate",
              "type": "uint256"
            },
            {
              "internalType": "uint256",
              "name": "excDropRate",
              "type": "uint256"
            },
            {
              "internalType": "uint256",
              "name": "minItemLevel",
              "type": "uint256"
            },
            {
              "internalType": "uint256",
              "name": "maxItemLevel",
              "type": "uint256"
            },
            {
              "internalType": "uint256",
              "name": "maxAddPoints",
              "type": "uint256"
            },
            {
              "internalType": "uint256",
              "name": "blockCrated",
              "type": "uint256"
            }
          ],
          "indexed": false,
          "internalType": "struct Drop.DropParams",
          "name": "params",
          "type": "tuple"
        }
      ],
      "name": "DropParametersChange",
      "type": "event"
    },
    {
      "anonymous": false,
      "inputs": [
        {
          "indexed": false,
          "internalType": "bytes32",
          "name": "itemHash",
          "type": "bytes32"
        },
        {
          "components": [
            {
              "internalType": "string",
              "name": "name",
              "type": "string"
            },
            {
              "internalType": "uint256",
              "name": "tokenId",
              "type": "uint256"
            },
            {
              "internalType": "uint256",
              "name": "itemLevel",
              "type": "uint256"
            },
            {
              "internalType": "uint256",
              "name": "maxLevel",
              "type": "uint256"
            },
            {
              "internalType": "uint256",
              "name": "additionalDamage",
              "type": "uint256"
            },
            {
              "internalType": "uint256",
              "name": "additionalDefense",
              "type": "uint256"
            },
            {
              "internalType": "uint256",
              "name": "fighterId",
              "type": "uint256"
            },
            {
              "internalType": "uint256",
              "name": "lastUpdBlock",
              "type": "uint256"
            },
            {
              "internalType": "uint256",
              "name": "itemRarityLevel",
              "type": "uint256"
            },
            {
              "internalType": "uint256",
              "name": "packSize",
              "type": "uint256"
            },
            {
              "internalType": "bool",
              "name": "luck",
              "type": "bool"
            },
            {
              "internalType": "bool",
              "name": "skill",
              "type": "bool"
            },
            {
              "internalType": "bool",
              "name": "isPackable",
              "type": "bool"
            },
            {
              "internalType": "bool",
              "name": "isBox",
              "type": "bool"
            },
            {
              "internalType": "bool",
              "name": "isWeapon",
              "type": "bool"
            },
            {
              "internalType": "bool",
              "name": "isArmour",
              "type": "bool"
            },
            {
              "internalType": "bool",
              "name": "isJewel",
              "type": "bool"
            },
            {
              "internalType": "bool",
              "name": "isWings",
              "type": "bool"
            },
            {
              "internalType": "bool",
              "name": "isMisc",
              "type": "bool"
            },
            {
              "internalType": "bool",
              "name": "isConsumable",
              "type": "bool"
            },
            {
              "internalType": "bool",
              "name": "inShop",
              "type": "bool"
            },
            {
              "internalType": "uint256",
              "name": "increaseAttackSpeedPoints",
              "type": "uint256"
            },
            {
              "internalType": "uint256",
              "name": "reflectDamagePercent",
              "type": "uint256"
            },
            {
              "internalType": "uint256",
              "name": "restoreHPChance",
              "type": "uint256"
            },
            {
              "internalType": "uint256",
              "name": "restoreMPChance",
              "type": "uint256"
            },
            {
              "internalType": "uint256",
              "name": "doubleDamageChance",
              "type": "uint256"
            },
            {
              "internalType": "uint256",
              "name": "ignoreOpponentDefenseChance",
              "type": "uint256"
            },
            {
              "internalType": "uint256",
              "name": "lifeAfterMonsterIncrease",
              "type": "uint256"
            },
            {
              "internalType": "uint256",
              "name": "manaAfterMonsterIncrease",
              "type": "uint256"
            },
            {
              "internalType": "uint256",
              "name": "excellentDamageProbabilityIncrease",
              "type": "uint256"
            },
            {
              "internalType": "uint256",
              "name": "attackSpeedIncrease",
              "type": "uint256"
            },
            {
              "internalType": "uint256",
              "name": "attackLvl20",
              "type": "uint256"
            },
            {
              "internalType": "uint256",
              "name": "attackIncreasePercent",
              "type": "uint256"
            },
            {
              "internalType": "uint256",
              "name": "defenseSuccessRateIncrease",
              "type": "uint256"
            },
            {
              "internalType": "uint256",
              "name": "goldAfterMonsterIncrease",
              "type": "uint256"
            },
            {
              "internalType": "uint256",
              "name": "reflectDamage",
              "type": "uint256"
            },
            {
              "internalType": "uint256",
              "name": "maxLifeIncrease",
              "type": "uint256"
            },
            {
              "internalType": "uint256",
              "name": "maxManaIncrease",
              "type": "uint256"
            },
            {
              "internalType": "uint256",
              "name": "hpRecoveryRateIncrease",
              "type": "uint256"
            },
            {
              "internalType": "uint256",
              "name": "mpRecoveryRateIncrease",
              "type": "uint256"
            },
            {
              "internalType": "uint256",
              "name": "decreaseDamageRateIncrease",
              "type": "uint256"
            }
          ],
          "indexed": false,
          "internalType": "struct ItemsExcellentAtts.ExcellentItemAtts",
          "name": "item",
          "type": "tuple"
        },
        {
          "indexed": false,
          "internalType": "uint256",
          "name": "qty",
          "type": "uint256"
        },
        {
          "indexed": false,
          "internalType": "uint256",
          "name": "tokenId",
          "type": "uint256"
        }
      ],
      "name": "ItemDropped",
      "type": "event"
    },
    {
      "anonymous": false,
      "inputs": [
        {
          "indexed": false,
          "internalType": "uint256",
          "name": "tokenId",
          "type": "uint256"
        },
        {
          "indexed": false,
          "internalType": "uint256",
          "name": "fighterId",
          "type": "uint256"
        },
        {
          "indexed": false,
          "internalType": "uint256",
          "name": "qty",
          "type": "uint256"
        }
      ],
      "name": "ItemPicked",
      "type": "event"
    },
    {
      "inputs": [
        {
          "internalType": "uint256",
          "name": "",
          "type": "uint256"
        }
      ],
      "name": "BoxDropPramsList",
      "outputs": [
        {
          "internalType": "uint256",
          "name": "weaponsDropRate",
          "type": "uint256"
        },
        {
          "internalType": "uint256",
          "name": "armoursDropRate",
          "type": "uint256"
        },
        {
          "internalType": "uint256",
          "name": "jewelsDropRate",
          "type": "uint256"
        },
        {
          "internalType": "uint256",
          "name": "miscDropRate",
          "type": "uint256"
        },
        {
          "internalType": "uint256",
          "name": "boxDropRate",
          "type": "uint256"
        },
        {
          "internalType": "uint256",
          "name": "excDropRate",
          "type": "uint256"
        },
        {
          "internalType": "uint256",
          "name": "minItemLevel",
          "type": "uint256"
        },
        {
          "internalType": "uint256",
          "name": "maxItemLevel",
          "type": "uint256"
        },
        {
          "internalType": "uint256",
          "name": "maxAddPoints",
          "type": "uint256"
        },
        {
          "internalType": "uint256",
          "name": "blockCrated",
          "type": "uint256"
        }
      ],
      "stateMutability": "view",
      "type": "function",
      "constant": true
    },
    {
      "inputs": [
        {
          "internalType": "uint256",
          "name": "",
          "type": "uint256"
        }
      ],
      "name": "DropParamsList",
      "outputs": [
        {
          "internalType": "uint256",
          "name": "weaponsDropRate",
          "type": "uint256"
        },
        {
          "internalType": "uint256",
          "name": "armoursDropRate",
          "type": "uint256"
        },
        {
          "internalType": "uint256",
          "name": "jewelsDropRate",
          "type": "uint256"
        },
        {
          "internalType": "uint256",
          "name": "miscDropRate",
          "type": "uint256"
        },
        {
          "internalType": "uint256",
          "name": "boxDropRate",
          "type": "uint256"
        },
        {
          "internalType": "uint256",
          "name": "excDropRate",
          "type": "uint256"
        },
        {
          "internalType": "uint256",
          "name": "minItemLevel",
          "type": "uint256"
        },
        {
          "internalType": "uint256",
          "name": "maxItemLevel",
          "type": "uint256"
        },
        {
          "internalType": "uint256",
          "name": "maxAddPoints",
          "type": "uint256"
        },
        {
          "internalType": "uint256",
          "name": "blockCrated",
          "type": "uint256"
        }
      ],
      "stateMutability": "view",
      "type": "function",
      "constant": true
    },
    {
      "inputs": [
        {
          "internalType": "bytes32",
          "name": "",
          "type": "bytes32"
        }
      ],
      "name": "dropHashes",
      "outputs": [
        {
          "internalType": "uint256",
          "name": "",
          "type": "uint256"
        }
      ],
      "stateMutability": "view",
      "type": "function",
      "constant": true
    },
    {
      "inputs": [
        {
          "internalType": "uint256",
          "name": "seed",
          "type": "uint256"
        }
      ],
      "name": "getRandomNumber",
      "outputs": [
        {
          "internalType": "uint256",
          "name": "",
          "type": "uint256"
        }
      ],
      "stateMutability": "view",
      "type": "function",
      "constant": true
    },
    {
      "inputs": [
        {
          "internalType": "uint256",
          "name": "seed",
          "type": "uint256"
        },
        {
          "internalType": "uint256",
          "name": "maxNum",
          "type": "uint256"
        }
      ],
      "name": "getRandomNumberMax",
      "outputs": [
        {
          "internalType": "uint256",
          "name": "",
          "type": "uint256"
        }
      ],
      "stateMutability": "view",
      "type": "function",
      "constant": true
    },
    {
      "inputs": [
        {
          "internalType": "uint256",
          "name": "a",
          "type": "uint256"
        },
        {
          "internalType": "uint256",
          "name": "b",
          "type": "uint256"
        }
      ],
      "name": "max",
      "outputs": [
        {
          "internalType": "uint256",
          "name": "",
          "type": "uint256"
        }
      ],
      "stateMutability": "view",
      "type": "function",
      "constant": true
    },
    {
      "inputs": [
        {
          "internalType": "uint256",
          "name": "a",
          "type": "uint256"
        },
        {
          "internalType": "uint256",
          "name": "b",
          "type": "uint256"
        }
      ],
      "name": "min",
      "outputs": [
        {
          "internalType": "uint256",
          "name": "",
          "type": "uint256"
        }
      ],
      "stateMutability": "view",
      "type": "function",
      "constant": true
    },
    {
      "inputs": [
        {
          "internalType": "uint256",
          "name": "a",
          "type": "uint256"
        },
        {
          "internalType": "uint256",
          "name": "b",
          "type": "uint256"
        }
      ],
      "name": "safeAdd",
      "outputs": [
        {
          "internalType": "uint256",
          "name": "",
          "type": "uint256"
        }
      ],
      "stateMutability": "view",
      "type": "function",
      "constant": true
    },
    {
      "inputs": [
        {
          "internalType": "uint256",
          "name": "a",
          "type": "uint256"
        },
        {
          "internalType": "uint256",
          "name": "b",
          "type": "uint256"
        }
      ],
      "name": "safeMul",
      "outputs": [
        {
          "internalType": "uint256",
          "name": "",
          "type": "uint256"
        }
      ],
      "stateMutability": "view",
      "type": "function",
      "constant": true
    },
    {
      "inputs": [
        {
          "internalType": "uint256",
          "name": "a",
          "type": "uint256"
        },
        {
          "internalType": "uint256",
          "name": "b",
          "type": "uint256"
        }
      ],
      "name": "safeSub",
      "outputs": [
        {
          "internalType": "uint256",
          "name": "",
          "type": "uint256"
        }
      ],
      "stateMutability": "view",
      "type": "function",
      "constant": true
    },
    {
      "inputs": [
        {
          "internalType": "string",
          "name": "a",
          "type": "string"
        },
        {
          "internalType": "string",
          "name": "b",
          "type": "string"
        }
      ],
      "name": "stringsEqual",
      "outputs": [
        {
          "internalType": "bool",
          "name": "",
          "type": "bool"
        }
      ],
      "stateMutability": "view",
      "type": "function",
      "constant": true
    },
    {
      "inputs": [
        {
          "components": [
            {
              "internalType": "string",
              "name": "name",
              "type": "string"
            },
            {
              "internalType": "uint256",
              "name": "tokenId",
              "type": "uint256"
            },
            {
              "internalType": "uint256",
              "name": "itemLevel",
              "type": "uint256"
            },
            {
              "internalType": "uint256",
              "name": "maxLevel",
              "type": "uint256"
            },
            {
              "internalType": "uint256",
              "name": "additionalDamage",
              "type": "uint256"
            },
            {
              "internalType": "uint256",
              "name": "additionalDefense",
              "type": "uint256"
            },
            {
              "internalType": "uint256",
              "name": "fighterId",
              "type": "uint256"
            },
            {
              "internalType": "uint256",
              "name": "lastUpdBlock",
              "type": "uint256"
            },
            {
              "internalType": "uint256",
              "name": "itemRarityLevel",
              "type": "uint256"
            },
            {
              "internalType": "uint256",
              "name": "packSize",
              "type": "uint256"
            },
            {
              "internalType": "bool",
              "name": "luck",
              "type": "bool"
            },
            {
              "internalType": "bool",
              "name": "skill",
              "type": "bool"
            },
            {
              "internalType": "bool",
              "name": "isPackable",
              "type": "bool"
            },
            {
              "internalType": "bool",
              "name": "isBox",
              "type": "bool"
            },
            {
              "internalType": "bool",
              "name": "isWeapon",
              "type": "bool"
            },
            {
              "internalType": "bool",
              "name": "isArmour",
              "type": "bool"
            },
            {
              "internalType": "bool",
              "name": "isJewel",
              "type": "bool"
            },
            {
              "internalType": "bool",
              "name": "isWings",
              "type": "bool"
            },
            {
              "internalType": "bool",
              "name": "isMisc",
              "type": "bool"
            },
            {
              "internalType": "bool",
              "name": "isConsumable",
              "type": "bool"
            },
            {
              "internalType": "bool",
              "name": "inShop",
              "type": "bool"
            },
            {
              "internalType": "uint256",
              "name": "increaseAttackSpeedPoints",
              "type": "uint256"
            },
            {
              "internalType": "uint256",
              "name": "reflectDamagePercent",
              "type": "uint256"
            },
            {
              "internalType": "uint256",
              "name": "restoreHPChance",
              "type": "uint256"
            },
            {
              "internalType": "uint256",
              "name": "restoreMPChance",
              "type": "uint256"
            },
            {
              "internalType": "uint256",
              "name": "doubleDamageChance",
              "type": "uint256"
            },
            {
              "internalType": "uint256",
              "name": "ignoreOpponentDefenseChance",
              "type": "uint256"
            },
            {
              "internalType": "uint256",
              "name": "lifeAfterMonsterIncrease",
              "type": "uint256"
            },
            {
              "internalType": "uint256",
              "name": "manaAfterMonsterIncrease",
              "type": "uint256"
            },
            {
              "internalType": "uint256",
              "name": "excellentDamageProbabilityIncrease",
              "type": "uint256"
            },
            {
              "internalType": "uint256",
              "name": "attackSpeedIncrease",
              "type": "uint256"
            },
            {
              "internalType": "uint256",
              "name": "attackLvl20",
              "type": "uint256"
            },
            {
              "internalType": "uint256",
              "name": "attackIncreasePercent",
              "type": "uint256"
            },
            {
              "internalType": "uint256",
              "name": "defenseSuccessRateIncrease",
              "type": "uint256"
            },
            {
              "internalType": "uint256",
              "name": "goldAfterMonsterIncrease",
              "type": "uint256"
            },
            {
              "internalType": "uint256",
              "name": "reflectDamage",
              "type": "uint256"
            },
            {
              "internalType": "uint256",
              "name": "maxLifeIncrease",
              "type": "uint256"
            },
            {
              "internalType": "uint256",
              "name": "maxManaIncrease",
              "type": "uint256"
            },
            {
              "internalType": "uint256",
              "name": "hpRecoveryRateIncrease",
              "type": "uint256"
            },
            {
              "internalType": "uint256",
              "name": "mpRecoveryRateIncrease",
              "type": "uint256"
            },
            {
              "internalType": "uint256",
              "name": "decreaseDamageRateIncrease",
              "type": "uint256"
            }
          ],
          "internalType": "struct ItemsExcellentAtts.ExcellentItemAtts",
          "name": "itemAtts",
          "type": "tuple"
        }
      ],
      "name": "makeItem",
      "outputs": [
        {
          "internalType": "bytes32",
          "name": "",
          "type": "bytes32"
        }
      ],
      "stateMutability": "nonpayable",
      "type": "function"
    },
    {
      "inputs": [
        {
          "internalType": "uint256",
          "name": "rarityLevel",
          "type": "uint256"
        },
        {
          "components": [
            {
              "internalType": "uint256",
              "name": "weaponsDropRate",
              "type": "uint256"
            },
            {
              "internalType": "uint256",
              "name": "armoursDropRate",
              "type": "uint256"
            },
            {
              "internalType": "uint256",
              "name": "jewelsDropRate",
              "type": "uint256"
            },
            {
              "internalType": "uint256",
              "name": "miscDropRate",
              "type": "uint256"
            },
            {
              "internalType": "uint256",
              "name": "boxDropRate",
              "type": "uint256"
            },
            {
              "internalType": "uint256",
              "name": "excDropRate",
              "type": "uint256"
            },
            {
              "internalType": "uint256",
              "name": "minItemLevel",
              "type": "uint256"
            },
            {
              "internalType": "uint256",
              "name": "maxItemLevel",
              "type": "uint256"
            },
            {
              "internalType": "uint256",
              "name": "maxAddPoints",
              "type": "uint256"
            },
            {
              "internalType": "uint256",
              "name": "blockCrated",
              "type": "uint256"
            }
          ],
          "internalType": "struct Drop.DropParams",
          "name": "params",
          "type": "tuple"
        }
      ],
      "name": "setDropParams",
      "outputs": [],
      "stateMutability": "nonpayable",
      "type": "function"
    },
    {
      "inputs": [
        {
          "internalType": "uint256",
          "name": "rarityLevel",
          "type": "uint256"
        },
        {
          "components": [
            {
              "internalType": "uint256",
              "name": "weaponsDropRate",
              "type": "uint256"
            },
            {
              "internalType": "uint256",
              "name": "armoursDropRate",
              "type": "uint256"
            },
            {
              "internalType": "uint256",
              "name": "jewelsDropRate",
              "type": "uint256"
            },
            {
              "internalType": "uint256",
              "name": "miscDropRate",
              "type": "uint256"
            },
            {
              "internalType": "uint256",
              "name": "boxDropRate",
              "type": "uint256"
            },
            {
              "internalType": "uint256",
              "name": "excDropRate",
              "type": "uint256"
            },
            {
              "internalType": "uint256",
              "name": "minItemLevel",
              "type": "uint256"
            },
            {
              "internalType": "uint256",
              "name": "maxItemLevel",
              "type": "uint256"
            },
            {
              "internalType": "uint256",
              "name": "maxAddPoints",
              "type": "uint256"
            },
            {
              "internalType": "uint256",
              "name": "blockCrated",
              "type": "uint256"
            }
          ],
          "internalType": "struct Drop.DropParams",
          "name": "params",
          "type": "tuple"
        }
      ],
      "name": "setBoxDropParams",
      "outputs": [],
      "stateMutability": "nonpayable",
      "type": "function"
    },
    {
      "inputs": [
        {
          "internalType": "uint256",
          "name": "tokenId",
          "type": "uint256"
        }
      ],
      "name": "openBox",
      "outputs": [
        {
          "internalType": "uint256",
          "name": "",
          "type": "uint256"
        }
      ],
      "stateMutability": "nonpayable",
      "type": "function"
    },
    {
      "inputs": [
        {
          "internalType": "uint256",
          "name": "rarityLevel",
          "type": "uint256"
        },
        {
          "internalType": "uint256",
          "name": "fighterId",
          "type": "uint256"
        },
        {
          "internalType": "uint256",
          "name": "experience",
          "type": "uint256"
        }
      ],
      "name": "dropItem",
      "outputs": [
        {
          "internalType": "bytes32",
          "name": "",
          "type": "bytes32"
        }
      ],
      "stateMutability": "nonpayable",
      "type": "function"
    },
    {
      "inputs": [
        {
          "internalType": "bytes32",
          "name": "dropHash",
          "type": "bytes32"
        }
      ],
      "name": "getDropQty",
      "outputs": [
        {
          "internalType": "uint256",
          "name": "",
          "type": "uint256"
        }
      ],
      "stateMutability": "nonpayable",
      "type": "function"
    },
    {
      "inputs": [
        {
          "internalType": "bytes32",
          "name": "itemHash",
          "type": "bytes32"
        },
        {
          "internalType": "uint256",
          "name": "qty",
          "type": "uint256"
        }
      ],
      "name": "createDropHash",
      "outputs": [],
      "stateMutability": "nonpayable",
      "type": "function"
    }
  ],
  "bytecode": "0x608034620000bd57601f6200230a38819003918201601f19168301916001600160401b03831184841017620000c2578084926040948552833981010312620000bd576200005a60206200005283620000d8565b9201620000d8565b6064600055601c60015560326002556032600355601e600455601e60055560026006556001600755600060085560018060a01b03908160018060a01b031993168360095416176009551690600a541617600a5560405161221c9081620000ee8239f35b600080fd5b634e487b7160e01b600052604160045260246000fd5b51906001600160a01b0382168203620000bd5756fe608060408181526004908136101561001657600080fd5b600092833560e01c9081629df65b14610ba85750806313d1995014610b495780631678cfce1461084257806324b9c5951461081e57806338d7b37b146107735780636d5433e61461074d5780637ae2b5c71461071f578063a293d1e8146106f7578063b1e5e2b714610453578063b37217a4146103e1578063c6d6f6b114610341578063c864b1eb1461019d578063d05c78da146102db578063d0660b3714610237578063e6cb9013146101f3578063eceb6902146101c5578063f108ff2b1461019d5763f364750e146100e957600080fd5b34610199577f77f2c225a36d18b8e29b84835b3b183235b39e29b7525283d2b2f064df242d5a9161019361011c36610d40565b939092838752600c6020528187209085518255602086015160018301558286015160028301556060860151600383015560808601519082015560a0850151600582015560c0850151600682015560e08501516007820155610100850151600882015560096101208601519101555192839283610fe5565b0390a180f35b8280fd5b509034610199576020366003190112610199576020928291358152600b845220549051908152f35b5082346101f05760603660031901126101f057506101e96020926044359035611337565b9051908152f35b80fd5b5082346101f05760206102268361020936610c0b565b61021581839593611696565b93841015908161022c575b50612102565b51908152f35b905083101585610220565b5082346101f05760203660031901126101f057816102d79184358152600d60205220918254926001810154946002820154906003830154908301546005840154906006850154926007860154946009600888015497015497519a8b9a8b9693909a9998959261012098959261014089019c8952602089015260408801526060870152608086015260a085015260c084015260e08301526101008201520152565b0390f35b5082346101f057506102ec36610c0b565b808293920292801594818504831486171561032c575093610226916020958215610318575b5050612102565b61032491925085611317565b148580610311565b601190634e487b7160e01b6000525260246000fd5b5082346101f05760203660031901126101f057816102d79184358152600c60205220918254926001810154946002820154906003830154908301546005840154906006850154926007860154946009600888015497015497519a8b9a8b9693909a9998959261012098959261014089019c8952602089015260408801526060870152608086015260a085015260c084015260e08301526101008201520152565b5082346101f05760203660031901126101f057508051446020828101918252933560408301524360608084019190915242608084015233901b6bffffffffffffffffffffffff191660a08301526064916104488160b481015b03601f198101835282610cae565b519020069051908152f35b5082346101f057602092836003193601126106f357600954835163843bd64160e01b81528235818401819052916001600160a01b0391908216908781602481855afa9081156106e95786916106b0575b5015610677578480916024885180948193631f4f5a2360e01b8352888a8401525af190811561066d576000805160206121c78339815191529161056591879161064b575b5061010080910180518852600d8a5260098989208a519361050785610c59565b8154855260018201548d86015260028201548c86015260038201546060860152898201546080860152600582015460a0860152600682015460c0860152600782015460e086015260088201549085015201546101208301525161178e565b8651888101906060825261059a816105806080820186610e07565b60018c83015243606083015203601f198101835282610cae565b519020808752600b89526001888820556105c48851928392835260808b8401526080830190610e07565b6001898301528760608301520390a16009541690813b1561064757839291602484928751958693849263576cc0f760e01b8452878401525af1801561063d57610611575b50509051908152f35b67ffffffffffffffff821161062a575082528380610608565b634e487b7160e01b835260419052602482fd5b84513d85823e3d90fd5b8380fd5b61066791503d8089833e61065f8183610cae565b8101906110a9565b896104e7565b86513d87823e3d90fd5b855162461bcd60e51b81528085018890526013602482015272151bdad95b88191bd95cdb89dd08195e1a5cdd606a1b6044820152606490fd5b90508781813d83116106e2575b6106c78183610cae565b810103126106de576106d890611057565b886104a3565b8580fd5b503d6106bd565b87513d88823e3d90fd5b5080fd5b8382346106f3576020906101e961070d36610c0b565b9061071a81831115612102565b611777565b8382346106f35760209161073236610c0b565b9091508082101561074557509051908152f35b905090610226565b8382346106f35760209161076036610c0b565b9091508082111561074557509051908152f35b5034610199577f6d62c88c377226267464112cb40b7f6f40d02a22f520078b3513085e828439f9916101936107a736610d40565b939092838752600d6020528187209085518255602086015160018301558286015160028301556060860151600383015560808601519082015560a0850151600582015560c0850151600682015560e08501516007820155610100850151600882015560096101208601519101555192839283610fe5565b509034610199578160031936011261019957358252600b6020526024359082205580f35b508290346106f35760209260031984813601126106475781359067ffffffffffffffff908183116106de57610520908336030112610b455783519261088684610c26565b828101359182116106de57610b30926108b76000805160206121c78339815191529593610504933691840101610cec565b8352602481013588840152604481013586840152606481013560608401526084810135608084015260a481013560a084015260c481013560c084015260e481013560e08401526101048101356101008401526101248101356101208401526109226101448201610d33565b6101408401526109356101648201610d33565b6101608401526109486101848201610d33565b61018084015261095b6101a48201610d33565b6101a084015261096e6101c48201610d33565b6101c08401526109816101e48201610d33565b6101e08401526109946102048201610d33565b6102008401526109a76102248201610d33565b6102208401526109ba6102448201610d33565b6102408401526109cd6102648201610d33565b6102608401526109e06102848201610d33565b6102808401526102a48101356102a08401526102c48101356102c08401526102e48101356102e08401526103048101356103008401526103248101356103208401526103448101356103408401526103648101356103608401526103848101356103808401526103a48101356103a08401526103c48101356103c08401526103e48101356103e08401526104048101356104008401526104248101356104208401526104448101356104408401526104648101356104608401526104848101356104808401526104a48101356104a08401526104c48101356104c08401526104e48101356104e0840152013561050082015283518681019060608252610b0781610aed6080820186610e07565b60018983015243606083015203601f198101835282610cae565b51902094858152600b875260018582205584519283928784526080898501526080840190610e07565b9060018684015260608301520390a151908152f35b8480fd5b50903461019957816003193601126101995767ffffffffffffffff8135818111610b4557610b7a9036908401610cec565b936024359182116101f0575092610b99610b9f92602095369101610cec565b90612166565b90519015158152f35b8285346101f057506101e9602092610bbf36610c0b565b4486840190815260208101929092524360408301524260608084019190915233901b6bffffffffffffffffffffffff1916608083015291610c03816094840161043a565b519020611784565b6040906003190112610c21576004359060243590565b600080fd5b610520810190811067ffffffffffffffff821117610c4357604052565b634e487b7160e01b600052604160045260246000fd5b610140810190811067ffffffffffffffff821117610c4357604052565b6040810190811067ffffffffffffffff821117610c4357604052565b60c0810190811067ffffffffffffffff821117610c4357604052565b90601f8019910116810190811067ffffffffffffffff821117610c4357604052565b67ffffffffffffffff8111610c4357601f01601f191660200190565b81601f82011215610c2157803590610d0382610cd0565b92610d116040519485610cae565b82845260208383010111610c2157816000926020809301838601378301015290565b35908115158203610c2157565b90610160600319830112610c2157610140600435926023190112610c2157604051610d6a81610c59565b602435815260443560208201526064356040820152608435606082015260a435608082015260c43560a082015260e43560c08201526101043560e0820152610124356101008201526101443561012082015290565b60005b838110610dd25750506000910152565b8181015183820152602001610dc2565b90602091610dfb81518092818552858086019101610dbf565b601f01601f1916010190565b90610e1b8251610520808452830190610de2565b916020810151602083015260408101516040830152606081015160608301526080810151608083015260a081015160a083015260c081015160c083015260e081015160e0830152610100808201519083015261012080820151908301526101408082015115159083015261016080820151151590830152610180808201511515908301526101a0808201511515908301526101c0808201511515908301526101e08082015115159083015261020080820151151590830152610220808201511515908301526102408082015115159083015261026080820151151590830152610280808201511515908301526102a080820151908301526102c080820151908301526102e08082015190830152610300808201519083015261032080820151908301526103408082015190830152610360808201519083015261038080820151908301526103a080820151908301526103c080820151908301526103e08082015190830152610400808201519083015261042080820151908301526104408082015190830152610460808201519083015261048080820151908301526104a080820151908301526104c080820151908301526104e080820151908301526105008091015191015290565b90929161014090610160830194835280516020840152602081015160408401526040810151606084015260608101516080840152608081015160a084015260a081015160c084015260c081015160e084015260e081015161010090818501528101519061012091828501520151910152565b51908115158203610c2157565b81601f82011215610c2157805161107a81610cd0565b926110886040519485610cae565b81845260208284010111610c21576110a69160208085019101610dbf565b90565b602081830312610c2157805167ffffffffffffffff91828211610c2157019061052082840312610c2157604051926110e084610c26565b8251918211610c21576110f4918301611064565b82526020810151602083015260408101516040830152606081015160608301526080810151608083015260a081015160a083015260c081015160c083015260e081015160e083015261010080820151908301526101208082015190830152610140611160818301611057565b90830152610160611172818301611057565b90830152610180611184818301611057565b908301526101a0611196818301611057565b908301526101c06111a8818301611057565b908301526101e06111ba818301611057565b908301526102006111cc818301611057565b908301526102206111de818301611057565b908301526102406111f0818301611057565b90830152610260611202818301611057565b90830152610280611214818301611057565b908301526102a080820151908301526102c080820151908301526102e08082015190830152610300808201519083015261032080820151908301526103408082015190830152610360808201519083015261038080820151908301526103a080820151908301526103c080820151908301526103e08082015190830152610400808201519083015261042080820151908301526104408082015190830152610460808201519083015261048080820151908301526104a080820151908301526104c080820151908301526104e08082015190830152610500809101519082015290565b6040519061130482610c76565b600482526311dbdb1960e21b6020830152565b8115611321570490565b634e487b7160e01b600052601260045260246000fd5b91909160008181526020600c8152604080832092815161135681610c59565b8454815260018501548482015260028501548382015260038501549560609687830152600960048701549660809788850152600581015460a0850152600681015460c0850152600781015460e085015260088101546101008501520154806101208401521561164757881561160357906113cf9161178e565b94606483518581019044825260c886820152438482015242888201526001600160601b031933851b1660a08201526094815261140a81610c92565b51902006600190835410611550576114258751610b996112f7565b6114a3575b6000805160206121c7833981519152969798506114968451868101908482526114728161145a8d8c830190610e07565b868a830152438883015203601f198101835282610cae565b51902098898552600b875282868620558786519889988c8a52890152870190610e07565b938501528301520390a190565b600a548451630795b70b60e21b8152908690829060049082906001600160a01b03165afa90811561154657849161150b575b506114f1906000805160206121c783398151915298999a611317565b8082111561150457505b8897965061142a565b90506114fb565b90508581813d831161153f575b6115228183610cae565b8101031261064757516000805160206121c78339815191526114d5565b503d611518565b85513d86823e3d90fd5b5060095483516321f1ead760e21b815260048101869052600a602482015269456d707479206974656d60b01b604482015298509195509293929085908890606490829084906001600160a01b03165af19687156115f957908561149681989982946000805160206121c783398151915299916115df575b5060085496808751998a998a52890152870190610e07565b6115f391503d8085833e61065f8183610cae565b386115c7565b82513d87823e3d90fd5b835162461bcd60e51b815260048101869052601b60248201527f457870657269656e6365206d757374206265206e6f6e207a65726f00000000006044820152606490fd5b835162461bcd60e51b815260048101869052602260248201527f4e6f2064726f7020706172616d657465727320666f72207261726974794c6576604482015261195b60f21b6064820152608490fd5b919082018092116116a357565b634e487b7160e01b600052601160045260246000fd5b906020908183820312610c2157825167ffffffffffffffff93848211610c21570181601f82011215610c2157805193808511610c43578460051b906040519561170486840188610cae565b8652848087019284010193808511610c2157858401925b85841061172c575050505050505090565b8351838111610c21578791611746848480948a0101611064565b81520193019261171b565b6040519061175e82610c76565b600a825269456d707479206974656d60b01b6020830152565b919082039182116116a357565b8115611321570690565b9060006105006040516117a081610c26565b606081528260208201528260408201528260608201528260808201528260a08201528260c08201528260e08201528261010082015282610120820152826101408201528261016082015282610180820152826101a0820152826101c0820152826101e08201528261020082015282610220820152826102408201528261026082015282610280820152826102a0820152826102c0820152826102e08201528261030082015282610320820152826103408201528261036082015282610380820152826103a0820152826103c0820152826103e08201528261040082015282610420820152826104408201528261046082015282610480820152826104a0820152826104c0820152826104e082015201526064604051446020820152600060408201524360608201524260808201526001600160601b03193360601b1660a0820152609481526118ee81610c92565b60208151910120066040820151808210600014611dff5750506009546040516303f46b8b60e01b8152600481018490529190600090839060249082906001600160a01b03165afa918215611acb57600092611dda575b50611993606460405160208101904482528260408201524360608201524260808201526001600160601b03193360601b1660a08201526094815261198781610c92565b51902006835190611784565b8251811015611dc4576119e16020600094859360051b0101515b6009546040516321f1ead760e21b8152602060048201529586936001600160a01b0390921692849283916024830190610de2565b03925af1918215611acb57600092611da7575b5081926102008301511580611d9a575b80611d8d575b80611d3e575b80611d2a575b80611d16575b611d09575b6101c0830151151580611cba575b611cad575b6101a083015115611b395760408301525b6101c08201511590811591611b2a575b81611ad7575b50611a64575090565b600954604051635c3c271d60e01b815260206004820152925060009183916001600160a01b031690829084908290611aa0906024830190610e07565b03925af1908115611acb57600091611ab6575090565b6110a691503d806000833e61065f8183610cae565b6040513d6000823e3d90fd5b905060a06103e86040516020810190448252600360408201524360608201524260808201526001600160601b03193360601b168482015260948152611b1b81610c92565b51902006910151101538611a5b565b6101e083015115159150611a55565b506102408201511580611ca0575b80611c8c575b80611c78575b611b5d575b611a45565b60c081018051611bb860646040516020810190448252600460408201524360608201524260808201526001600160601b03193360601b1660a082015260948152611ba681610c92565b519020069260e0850151905190611777565b6001810181116116a357611bd9926001611bd3920190611784565b90611696565b60408301526101c082015115611c2b57611bf161211f565b61010082015160021c600181018091116116a357611c0e91611784565b6001600160fe1b03811681036116a35760021b6080830152611a45565b6101e082015115611b5857611c3e61211f565b61010082015160021c600181018091116116a357611c5b91611784565b6001600160fe1b03811681036116a35760021b60a0830152611a45565b50611c868251610b996112f7565b15611b53565b50611c9a8251610b99611751565b15611b4d565b5061020082015115611b47565b6001610160840152611a34565b5060646040516020810190448252600260408201524360608201524260808201526001600160601b03193360601b1660a082015260948152611cfb81610c92565b519020066005541015611a2f565b6001610140840152611a21565b50611d248351610b996112f7565b15611a1c565b50611d388351610b99611751565b15611a16565b5060646040516020810190448252600160408201524360608201524260808201526001600160601b03193360601b1660a082015260948152611d7f81610c92565b519020066004541015611a10565b506101a083015115611a0a565b5061024083015115611a04565b611dbd9192503d806000833e61065f8183610cae565b90386119f4565b634e487b7160e01b600052603260045260246000fd5b611df89192503d806000833e611df08183610cae565b8101906116b9565b9038611944565b6020830151611e0d91611696565b80821015611ed3575050600954604051639b94680f60e01b8152600481018490529190600090839060249082906001600160a01b03165afa918215611acb57600092611eb6575b50611e9860646040516020810190448252606560408201524360608201524260808201526001600160601b03193360601b1660a08201526094815261198781610c92565b8251811015611dc4576119e16020600094859360051b0101516119ad565b611ecc9192503d806000833e611df08183610cae565b9038611e54565b8251611ede91611696565b80821015611f8657505060095460405163e8af18f360e01b8152600481018490529190600090839060249082906001600160a01b03165afa918215611acb57600092611f69575b50611e9860646040516020810190448252606660408201524360608201524260808201526001600160601b03193360601b1660a08201526094815261198781610c92565b611f7f9192503d806000833e611df08183610cae565b9038611f25565b6060830151611f9491611696565b8082101561203c575050600954604051630fd8f61760e41b8152600481018490529190600090839060249082906001600160a01b03165afa918215611acb5760009261201f575b50611e9860646040516020810190448252606760408201524360608201524260808201526001600160601b03193360601b1660a08201526094815261198781610c92565b6120359192503d806000833e611df08183610cae565b9038611fdb565b608083015161204a91611696565b11156120ee57600954604051633267f8ab60e01b8152600481018490529190600090839060249082906001600160a01b03165afa918215611acb576000926120d1575b50611e9860646040516020810190448252606860408201524360608201524260808201526001600160601b03193360601b1660a08201526094815261198781610c92565b6120e79192503d806000833e611df08183610cae565b903861208d565b600090816119e16120fd6112f7565b6119ad565b1561210957565b634e487b7160e01b600052600160045260246000fd5b60646040516020810190448252600560408201524360608201524260808201526001600160601b03193360601b1660a08201526094815261215f81610c92565b5190200690565b90604051916020926121948482816121878183019687815193849201610dbf565b8101038084520182610cae565b519020916121b46040519182816121878183019687815193849201610dbf565b519020036121c157600190565b60009056fe668f5599c9d5e26ba422a2468b21112c36dad51242a864164a30be8897134951a2646970667358221220398e34644515bd705a24b35b486977dae0e1f16108a9f22894ce57a10a48c3bd64736f6c63430008130033",
  "immutableReferences": {},
  "source": "// SPDX-License-Identifier: MIT\npragma solidity ^0.8.10;\n\nimport \"./SafeMath.sol\";\nimport \"./ItemsHelper.sol\";\nimport \"./MoneyHelper.sol\";\n\ncontract Drop is ItemsExcellentAtts, SafeMath {\n    ItemsHelper private _itemsHelper;\n    MoneyHelper private _moneyHelper;\n\n    constructor(address itemsHelperContract, address moneyHelperContract) {     \n        _itemsHelper = ItemsHelper(itemsHelperContract);\n        _moneyHelper = MoneyHelper(moneyHelperContract);\n    }\n\n    mapping (bytes32 => uint256) public dropHashes;\n\n    event ItemDropped(bytes32 itemHash, ExcellentItemAtts item, uint256 qty, uint256 tokenId);\n    event ItemPicked(uint256 tokenId, uint256 fighterId, uint256 qty);\n    event BoxOppened(uint256 tokenId, uint256 rarityLevel, address owner);\n    event DropParametersChange(uint256 rarityLevel, DropParams params);\n    event BoxDropParametersChange(uint256 rarityLevel, DropParams params);\n\n\n    struct DropParams {\n        uint256 weaponsDropRate;\n        uint256 armoursDropRate;\n        uint256 jewelsDropRate;\n        uint256 miscDropRate;\n        uint256 boxDropRate;\n\n        uint256 excDropRate;\n\n        uint256 minItemLevel;\n        uint256 maxItemLevel;\n        uint256 maxAddPoints;\n\n        uint256 blockCrated;\n    }\n\n    mapping (uint256 => DropParams) public DropParamsList; // mapping of rarityLevels to drop parameters\n    mapping (uint256 => DropParams) public BoxDropPramsList; // mapping of rarityLevels to drop parameters\n    \n    // This function is for development and testing only\n    // Should be disabled in Production\n    function makeItem(ExcellentItemAtts memory itemAtts) external returns (bytes32) {\n        bytes32 itemHash = keccak256(abi.encode(itemAtts, 1, block.number));\n        dropHashes[itemHash] = 1;\n        emit ItemDropped(itemHash, itemAtts, 1, 0);\n        return itemHash;\n    }\n\n    function setDropParams(uint256 rarityLevel, DropParams memory params) external {\n        DropParamsList[rarityLevel] = params;\n        emit DropParametersChange(rarityLevel, params);\n    }\n\n    function setBoxDropParams(uint256 rarityLevel, DropParams memory params) external {\n        BoxDropPramsList[rarityLevel] = params;\n        emit BoxDropParametersChange(rarityLevel, params);\n    }\n\n    function openBox(uint256 tokenId) external returns (uint256) {\n        require(_itemsHelper.itemExists(tokenId), \"Token doesn't exist\");\n        ExcellentItemAtts memory box = _itemsHelper.getTokenAttributes(tokenId);\n        DropParams memory params = BoxDropPramsList[box.itemRarityLevel];\n\n        ExcellentItemAtts memory itemAtts = getDropItem(box.itemRarityLevel, params);\n\n        uint256 qty = 1;\n\n        bytes32 itemHash = keccak256(abi.encode(itemAtts, qty, block.number));\n        dropHashes[itemHash] = qty;\n         emit ItemDropped(itemHash, itemAtts, qty, 0);\n        _itemsHelper.burnItem(tokenId);\n       \n    }  \n\n    function dropItem(uint256 rarityLevel, uint256 fighterId, uint256 experience) external returns (bytes32) {\n        DropParams memory params = DropParamsList[rarityLevel];\n        require(params.blockCrated > 0, \"No drop parameters for rarityLevel\");\n        require(experience > 0, \"Experience must be non zero\");\n\n        ExcellentItemAtts memory itemAtts = getDropItem(rarityLevel, params);        \n\n        uint256 randomNumber = getRandomNumber(200);\n\n        uint256 qty = 1;\n\n        if (randomNumber > generalDropRate) {\n            itemAtts = _itemsHelper.getItemAttributes(\"Empty item\");\n            emit ItemDropped(dummyHash, itemAtts, 0, 0);\n            return 0;\n        }\n\n        if (stringsEqual(itemAtts.name, \"Gold\")) {\n            qty = max(1, experience/_moneyHelper.getExperienceDivider());\n        }\n\n        bytes32 itemHash = keccak256(abi.encode(itemAtts, qty, block.number));\n        dropHashes[itemHash] = qty;\n        emit ItemDropped(itemHash, itemAtts, qty, 0);\n        return itemHash;\n    }\n\n\n\n    function getDropItem(uint256 rarityLevel, DropParams memory params) internal returns (ExcellentItemAtts memory) {\n\n        uint256 randomNumber = getRandomNumberMax(0, 100);\n        string memory randomItem;\n        \n        //emit LogDropValues(randomNumber, params.jewelsDropRate, params.weaponsDropRate, params.armoursDropRate, params.miscDropRate, params.boxDropRate);\n        \n        uint256 cumulativeRate = params.jewelsDropRate;\n        if (randomNumber < cumulativeRate) {\n            randomItem = returnRandomItemFromDropList(100, _itemsHelper.getJewels(rarityLevel));\n        } else {\n            cumulativeRate += params.armoursDropRate;\n            if (randomNumber < cumulativeRate) {\n                randomItem = returnRandomItemFromDropList(101, _itemsHelper.getArmours(rarityLevel));\n            } else {\n                cumulativeRate += params.weaponsDropRate;\n                if (randomNumber < cumulativeRate) {\n                    randomItem = returnRandomItemFromDropList(102, _itemsHelper.getWeapons(rarityLevel));\n                } else {\n                    cumulativeRate += params.miscDropRate;\n                    if (randomNumber < cumulativeRate) {\n                        randomItem = returnRandomItemFromDropList(103, _itemsHelper.getMisc(rarityLevel));\n                    } else {\n                        cumulativeRate += params.boxDropRate;\n                        if (randomNumber < cumulativeRate) {\n                            randomItem = returnRandomItemFromDropList(104, _itemsHelper.getBoxes(rarityLevel));\n                        } else {\n                            randomItem = \"Gold\";\n                        }\n                    }\n                }\n            }\n        }\n\n\n        ExcellentItemAtts memory itemAtts = _itemsHelper.getItemAttributes(randomItem);\n\n\n        if (!itemAtts.isJewel && !itemAtts.isMisc && !itemAtts.isBox && getRandomNumber(1) <= luckDropRate && !stringsEqual(itemAtts.name, \"Empty item\") && !stringsEqual(itemAtts.name, \"Gold\")) {\n            itemAtts.luck  = true;\n        }\n\n        if (itemAtts.isWeapon && getRandomNumber(2) <= skillDropRate) {\n            itemAtts.skill  = true;\n        }\n\n        if (itemAtts.isBox) {\n            itemAtts.itemLevel = rarityLevel;\n        } else if (!itemAtts.isMisc && !itemAtts.isJewel && !stringsEqual(itemAtts.name, \"Empty item\") && !stringsEqual(itemAtts.name, \"Gold\")) {\n            itemAtts.itemLevel = params.minItemLevel + getRandomNumber(4) % (params.maxItemLevel-params.minItemLevel+1);\n\n            if (itemAtts.isWeapon) {\n                itemAtts.additionalDamage = 4 * (getRandomNumber(5) % (params.maxAddPoints/4+1));\n            } else if (itemAtts.isArmour) {\n                itemAtts.additionalDefense = 4 * (getRandomNumber(5) % (params.maxAddPoints/4+1));\n            }\n        }\n\n        if ((itemAtts.isWeapon || itemAtts.isArmour) && getRandomNumberMax(3, 1000) <= params.excDropRate) {\n            itemAtts = _itemsHelper.addExcellentOption(itemAtts);\n        }\n\n\n        \n        return itemAtts;  \n    }\n\n\n    \n\n    function getDropQty(bytes32 dropHash) external returns (uint256) {\n        return dropHashes[dropHash];\n    }\n\n    function createDropHash(bytes32 itemHash, uint256 qty) external {\n        dropHashes[itemHash] = qty;\n    }\n\n    function returnRandomItemFromDropList(uint256 seed, string[] memory items) internal returns (string memory) {\n        uint256 randomNumber = getRandomNumber(seed);\n        uint256 len = items.length;\n\n        return items[randomNumber % len];\n\n    }\n\n    \n}\n",
  "sourcePath": "/Users/max/Documents/prog/game-contracts/contracts/Drop.sol",
  "compiler": {
    "name": "solc",
    "version": "0.8.19+commit.7dd6d404.Emscripten.clang"
  },
  "schemaVersion": "3.4.13",
  "updatedAt": "2023-08-10T07:36:56.046Z",
  "networkType": "ethereum",
  "devdoc": {
    "kind": "dev",
    "methods": {},
    "version": 1
  },
  "userdoc": {
    "kind": "user",
    "methods": {},
    "version": 1
  }
}