{
  "contractName": "DropHelper",
  "abi": [
    {
      "inputs": [
        {
          "internalType": "address",
          "name": "dropAddress",
          "type": "address"
        }
      ],
      "stateMutability": "nonpayable",
      "type": "constructor"
    },
    {
      "inputs": [
        {
          "components": [
            {
              "internalType": "string",
              "name": "name",
              "type": "string"
            },
            {
              "internalType": "uint256",
              "name": "tokenId",
              "type": "uint256"
            },
            {
              "internalType": "uint256",
              "name": "itemLevel",
              "type": "uint256"
            },
            {
              "internalType": "uint256",
              "name": "maxLevel",
              "type": "uint256"
            },
            {
              "internalType": "uint256",
              "name": "durability",
              "type": "uint256"
            },
            {
              "internalType": "uint256",
              "name": "classRequired",
              "type": "uint256"
            },
            {
              "internalType": "uint256",
              "name": "strengthRequired",
              "type": "uint256"
            },
            {
              "internalType": "uint256",
              "name": "agilityRequired",
              "type": "uint256"
            },
            {
              "internalType": "uint256",
              "name": "energyRequired",
              "type": "uint256"
            },
            {
              "internalType": "uint256",
              "name": "vitalityRequired",
              "type": "uint256"
            },
            {
              "internalType": "uint256",
              "name": "itemWidth",
              "type": "uint256"
            },
            {
              "internalType": "uint256",
              "name": "itemHeight",
              "type": "uint256"
            },
            {
              "internalType": "uint256",
              "name": "acceptableSlot1",
              "type": "uint256"
            },
            {
              "internalType": "uint256",
              "name": "acceptableSlot2",
              "type": "uint256"
            },
            {
              "internalType": "uint256",
              "name": "baseMinPhysicalDamage",
              "type": "uint256"
            },
            {
              "internalType": "uint256",
              "name": "baseMaxPhysicalDamage",
              "type": "uint256"
            },
            {
              "internalType": "uint256",
              "name": "baseMinMagicDamage",
              "type": "uint256"
            },
            {
              "internalType": "uint256",
              "name": "baseMaxMagicDamage",
              "type": "uint256"
            },
            {
              "internalType": "uint256",
              "name": "baseDefense",
              "type": "uint256"
            },
            {
              "internalType": "uint256",
              "name": "attackSpeed",
              "type": "uint256"
            },
            {
              "internalType": "uint256",
              "name": "additionalDamage",
              "type": "uint256"
            },
            {
              "internalType": "uint256",
              "name": "additionalDefense",
              "type": "uint256"
            },
            {
              "internalType": "uint256",
              "name": "fighterId",
              "type": "uint256"
            },
            {
              "internalType": "uint256",
              "name": "lastUpdBlock",
              "type": "uint256"
            },
            {
              "internalType": "uint256",
              "name": "itemRarityLevel",
              "type": "uint256"
            },
            {
              "internalType": "uint256",
              "name": "itemAttributesId",
              "type": "uint256"
            },
            {
              "internalType": "bool",
              "name": "luck",
              "type": "bool"
            },
            {
              "internalType": "bool",
              "name": "skill",
              "type": "bool"
            },
            {
              "internalType": "bool",
              "name": "isBox",
              "type": "bool"
            },
            {
              "internalType": "bool",
              "name": "isWeapon",
              "type": "bool"
            },
            {
              "internalType": "bool",
              "name": "isArmour",
              "type": "bool"
            },
            {
              "internalType": "bool",
              "name": "isJewel",
              "type": "bool"
            },
            {
              "internalType": "bool",
              "name": "isWings",
              "type": "bool"
            },
            {
              "internalType": "bool",
              "name": "isMisc",
              "type": "bool"
            },
            {
              "internalType": "bool",
              "name": "inShop",
              "type": "bool"
            },
            {
              "internalType": "uint256",
              "name": "increaseAttackSpeedPoints",
              "type": "uint256"
            },
            {
              "internalType": "uint256",
              "name": "reflectDamagePercent",
              "type": "uint256"
            },
            {
              "internalType": "uint256",
              "name": "restoreHPChance",
              "type": "uint256"
            },
            {
              "internalType": "uint256",
              "name": "restoreMPChance",
              "type": "uint256"
            },
            {
              "internalType": "uint256",
              "name": "doubleDamageChance",
              "type": "uint256"
            },
            {
              "internalType": "uint256",
              "name": "ignoreOpponentDefenseChance",
              "type": "uint256"
            },
            {
              "internalType": "uint256",
              "name": "lifeAfterMonsterIncrease",
              "type": "uint256"
            },
            {
              "internalType": "uint256",
              "name": "manaAfterMonsterIncrease",
              "type": "uint256"
            },
            {
              "internalType": "uint256",
              "name": "excellentDamageProbabilityIncrease",
              "type": "uint256"
            },
            {
              "internalType": "uint256",
              "name": "attackSpeedIncrease",
              "type": "uint256"
            },
            {
              "internalType": "uint256",
              "name": "attackLvl20",
              "type": "uint256"
            },
            {
              "internalType": "uint256",
              "name": "attackIncreasePercent",
              "type": "uint256"
            },
            {
              "internalType": "uint256",
              "name": "defenseSuccessRateIncrease",
              "type": "uint256"
            },
            {
              "internalType": "uint256",
              "name": "goldAfterMonsterIncrease",
              "type": "uint256"
            },
            {
              "internalType": "uint256",
              "name": "reflectDamage",
              "type": "uint256"
            },
            {
              "internalType": "uint256",
              "name": "maxLifeIncrease",
              "type": "uint256"
            },
            {
              "internalType": "uint256",
              "name": "maxManaIncrease",
              "type": "uint256"
            },
            {
              "internalType": "uint256",
              "name": "hpRecoveryRateIncrease",
              "type": "uint256"
            },
            {
              "internalType": "uint256",
              "name": "mpRecoveryRateIncrease",
              "type": "uint256"
            },
            {
              "internalType": "uint256",
              "name": "decreaseDamageRateIncrease",
              "type": "uint256"
            }
          ],
          "internalType": "struct ItemsExcellentAtts.ExcellentItemAtts",
          "name": "itemAtts",
          "type": "tuple"
        }
      ],
      "name": "makeItem",
      "outputs": [
        {
          "internalType": "bytes32",
          "name": "",
          "type": "bytes32"
        }
      ],
      "stateMutability": "nonpayable",
      "type": "function"
    },
    {
      "inputs": [
        {
          "internalType": "uint256",
          "name": "rarityLevel",
          "type": "uint256"
        },
        {
          "components": [
            {
              "internalType": "uint256",
              "name": "weaponsDropRate",
              "type": "uint256"
            },
            {
              "internalType": "uint256",
              "name": "armoursDropRate",
              "type": "uint256"
            },
            {
              "internalType": "uint256",
              "name": "jewelsDropRate",
              "type": "uint256"
            },
            {
              "internalType": "uint256",
              "name": "miscDropRate",
              "type": "uint256"
            },
            {
              "internalType": "uint256",
              "name": "boxDropRate",
              "type": "uint256"
            },
            {
              "internalType": "uint256",
              "name": "excDropRate",
              "type": "uint256"
            },
            {
              "internalType": "uint256",
              "name": "boxId",
              "type": "uint256"
            },
            {
              "internalType": "uint256",
              "name": "minItemLevel",
              "type": "uint256"
            },
            {
              "internalType": "uint256",
              "name": "maxItemLevel",
              "type": "uint256"
            },
            {
              "internalType": "uint256",
              "name": "maxAddPoints",
              "type": "uint256"
            },
            {
              "internalType": "uint256",
              "name": "blockCrated",
              "type": "uint256"
            }
          ],
          "internalType": "struct Drop.DropParams",
          "name": "params",
          "type": "tuple"
        }
      ],
      "name": "setDropParams",
      "outputs": [],
      "stateMutability": "nonpayable",
      "type": "function"
    },
    {
      "inputs": [
        {
          "internalType": "uint256",
          "name": "rarityLevel",
          "type": "uint256"
        },
        {
          "components": [
            {
              "internalType": "uint256",
              "name": "weaponsDropRate",
              "type": "uint256"
            },
            {
              "internalType": "uint256",
              "name": "armoursDropRate",
              "type": "uint256"
            },
            {
              "internalType": "uint256",
              "name": "jewelsDropRate",
              "type": "uint256"
            },
            {
              "internalType": "uint256",
              "name": "miscDropRate",
              "type": "uint256"
            },
            {
              "internalType": "uint256",
              "name": "boxDropRate",
              "type": "uint256"
            },
            {
              "internalType": "uint256",
              "name": "excDropRate",
              "type": "uint256"
            },
            {
              "internalType": "uint256",
              "name": "boxId",
              "type": "uint256"
            },
            {
              "internalType": "uint256",
              "name": "minItemLevel",
              "type": "uint256"
            },
            {
              "internalType": "uint256",
              "name": "maxItemLevel",
              "type": "uint256"
            },
            {
              "internalType": "uint256",
              "name": "maxAddPoints",
              "type": "uint256"
            },
            {
              "internalType": "uint256",
              "name": "blockCrated",
              "type": "uint256"
            }
          ],
          "internalType": "struct Drop.DropParams",
          "name": "params",
          "type": "tuple"
        }
      ],
      "name": "setBoxDropParams",
      "outputs": [],
      "stateMutability": "nonpayable",
      "type": "function"
    },
    {
      "inputs": [
        {
          "internalType": "uint256",
          "name": "rarityLevel",
          "type": "uint256"
        },
        {
          "internalType": "uint256",
          "name": "fighterId",
          "type": "uint256"
        },
        {
          "internalType": "uint256",
          "name": "experience",
          "type": "uint256"
        }
      ],
      "name": "dropItem",
      "outputs": [
        {
          "internalType": "bytes32",
          "name": "",
          "type": "bytes32"
        }
      ],
      "stateMutability": "nonpayable",
      "type": "function"
    },
    {
      "inputs": [
        {
          "internalType": "uint256",
          "name": "tokenId",
          "type": "uint256"
        }
      ],
      "name": "openBox",
      "outputs": [
        {
          "internalType": "uint256",
          "name": "",
          "type": "uint256"
        }
      ],
      "stateMutability": "nonpayable",
      "type": "function"
    },
    {
      "inputs": [
        {
          "internalType": "bytes32",
          "name": "itemHash",
          "type": "bytes32"
        }
      ],
      "name": "getDropQty",
      "outputs": [
        {
          "internalType": "uint256",
          "name": "",
          "type": "uint256"
        }
      ],
      "stateMutability": "nonpayable",
      "type": "function"
    },
    {
      "inputs": [
        {
          "internalType": "bytes32",
          "name": "itemHash",
          "type": "bytes32"
        },
        {
          "internalType": "uint256",
          "name": "qty",
          "type": "uint256"
        }
      ],
      "name": "createDropHash",
      "outputs": [],
      "stateMutability": "nonpayable",
      "type": "function"
    }
  ],
  "bytecode": "0x60806040526064600055601c60015560326002556032600355601e600455601e60055560026006556001600755600060085534801561003d57600080fd5b50604051610d83380380610d8383398101604081905261005c91610081565b600980546001600160a01b0319166001600160a01b03929092169190911790556100b1565b60006020828403121561009357600080fd5b81516001600160a01b03811681146100aa57600080fd5b9392505050565b610cc3806100c06000396000f3fe608060405234801561001057600080fd5b506004361061007d5760003560e01c8063683c277d1161005b578063683c277d146100cf578063b1e5e2b7146100e2578063eceb6902146100f5578063f108ff2b1461010857600080fd5b806324b9c595146100825780633ba6b6a014610097578063590956cd146100bc575b600080fd5b61009561009036600461034d565b61011b565b005b6100aa6100a5366004610475565b610185565b60405190815260200160405180910390f35b6100956100ca366004610783565b6101ff565b6100956100dd366004610783565b610231565b6100aa6100f0366004610837565b610263565b6100aa610103366004610850565b610295565b6100aa610116366004610837565b61031b565b6009546040516324b9c59560e01b815260048101849052602481018390526001600160a01b03909116906324b9c595906044015b600060405180830381600087803b15801561016957600080fd5b505af115801561017d573d6000803e3d6000fd5b505050505050565b6009546040516301dd35b560e51b81526000916001600160a01b031690633ba6b6a0906101b69085906004016108c2565b6020604051808303816000875af11580156101d5573d6000803e3d6000fd5b505050506040513d601f19601f820116820180604052508101906101f99190610be7565b92915050565b60095460405163590956cd60e01b81526001600160a01b039091169063590956cd9061014f9085908590600401610c00565b60095460405163683c277d60e01b81526001600160a01b039091169063683c277d9061014f9085908590600401610c00565b60095460405163b1e5e2b760e01b8152600481018390526000916001600160a01b03169063b1e5e2b7906024016101b6565b600954604051637675b48160e11b81526004810185905260248101849052604481018390526000916001600160a01b03169063eceb6902906064016020604051808303816000875af11580156102ef573d6000803e3d6000fd5b505050506040513d601f19601f820116820180604052508101906103139190610be7565b949350505050565b60095460405163f108ff2b60e01b8152600481018390526000916001600160a01b03169063f108ff2b906024016101b6565b6000806040838503121561036057600080fd5b50508035926020909101359150565b634e487b7160e01b600052604160045260246000fd5b6040516106e0810167ffffffffffffffff811182821017156103a9576103a961036f565b60405290565b604051610160810167ffffffffffffffff811182821017156103a9576103a961036f565b600082601f8301126103e457600080fd5b813567ffffffffffffffff808211156103ff576103ff61036f565b604051601f8301601f19908116603f011681019082821181831017156104275761042761036f565b8160405283815286602085880101111561044057600080fd5b836020870160208301376000602085830101528094505050505092915050565b8035801515811461047057600080fd5b919050565b60006020828403121561048757600080fd5b813567ffffffffffffffff8082111561049f57600080fd5b908301906106e082860312156104b457600080fd5b6104bc610385565b8235828111156104cb57600080fd5b6104d7878286016103d3565b8252506020838101359082015260408084013590820152606080840135908201526080808401359082015260a0808401359082015260c0808401359082015260e08084013590820152610100808401359082015261012080840135908201526101408084013590820152610160808401359082015261018080840135908201526101a080840135908201526101c080840135908201526101e08084013590820152610200808401359082015261022080840135908201526102408084013590820152610260808401359082015261028080840135908201526102a080840135908201526102c080840135908201526102e080840135908201526103008084013590820152610320808401359082015261034091506105f6828401610460565b82820152610360915061060a828401610460565b82820152610380915061061e828401610460565b828201526103a09150610632828401610460565b828201526103c09150610646828401610460565b828201526103e0915061065a828401610460565b82820152610400915061066e828401610460565b828201526104209150610682828401610460565b828201526104409150610696828401610460565b91810191909152610460828101359082015261048080830135908201526104a080830135908201526104c080830135908201526104e08083013590820152610500808301359082015261052080830135908201526105408083013590820152610560808301359082015261058080830135908201526105a080830135908201526105c080830135908201526105e08083013590820152610600808301359082015261062080830135908201526106408083013590820152610660808301359082015261068080830135908201526106a080830135908201526106c091820135918101919091529392505050565b60008082840361018081121561079857600080fd5b8335925061016080601f19830112156107b057600080fd5b6107b86103af565b91506020850135825260408501356020830152606085013560408301526080850135606083015260a0850135608083015260c085013560a083015260e085013560c08301526101008086013560e08401526101208087013582850152610140915081870135818501525081860135818401525050809150509250929050565b60006020828403121561084957600080fd5b5035919050565b60008060006060848603121561086557600080fd5b505081359360208301359350604090920135919050565b6000815180845260005b818110156108a257602081850181015186830182015201610886565b506000602082860101526020601f19601f83011685010191505092915050565b60208152600082516106e08060208501526108e161070085018361087c565b602086015160408681019190915286015160608087019190915286015160808087019190915286015160a08087019190915286015160c08087019190915286015160e08087019190915286015161010080870191909152860151610120808701919091528601516101408087019190915286015161016080870191909152860151610180808701919091528601516101a0808701919091528601516101c0808701919091528601516101e08087019190915286015161020080870191909152860151610220808701919091528601516102408087019190915286015161026080870191909152860151610280808701919091528601516102a0808701919091528601516102c0808701919091528601516102e080870191909152860151610300808701919091528601516103208087019190915286015161034080870191909152860151909250610360610a388187018315159052565b8601519050610380610a4d8682018315159052565b86015190506103a0610a628682018315159052565b86015190506103c0610a778682018315159052565b86015190506103e0610a8c8682018315159052565b8601519050610400610aa18682018315159052565b8601519050610420610ab68682018315159052565b8601519050610440610acb8682018315159052565b8601519050610460610ae08682018315159052565b860151610480868101919091528601516104a0808701919091528601516104c0808701919091528601516104e08087019190915286015161050080870191909152860151610520808701919091528601516105408087019190915286015161056080870191909152860151610580808701919091528601516105a0808701919091528601516105c0808701919091528601516105e08087019190915286015161060080870191909152860151610620808701919091528601516106408087019190915286015161066080870191909152860151610680808701919091528601516106a0808701919091528601516106c0808701919091529095015193019290925250919050565b600060208284031215610bf957600080fd5b5051919050565b60006101808201905083825282516020830152602083015160408301526040830151606083015260608301516080830152608083015160a083015260a083015160c083015260c083015160e083015260e08301516101008181850152808501519150506101208181850152808501519150506101408181850152808501516101608501525050939250505056fea26469706673582212203419e119005d63748c0b72b58d864ff57dd3dc38009a7513ebb8eda0e70a7cf864736f6c63430008130033",
  "immutableReferences": {},
  "source": "// SPDX-License-Identifier: MIT\npragma solidity ^0.8.18;\nimport \"./Drop.sol\";\nimport \"./ItemsExcellentAtts.sol\";\ncontract DropHelper  is ItemsExcellentAtts {\n    Drop private _drop;\n\n    constructor(address dropAddress) {\n        _drop = Drop(dropAddress);\n    }    \n\n    function makeItem(ExcellentItemAtts memory itemAtts) external returns (bytes32) {\n        return _drop.makeItem(itemAtts);\n    }\n\n    function setDropParams(uint256 rarityLevel, Drop.DropParams memory params) external {\n        return _drop.setDropParams(rarityLevel, params);\n    }\n\n    function setBoxDropParams(uint256 rarityLevel, Drop.DropParams memory params) external {\n        return _drop.setBoxDropParams(rarityLevel, params);\n    }\n\n    function dropItem(uint256 rarityLevel, uint256 fighterId, uint256 experience) external returns (bytes32) {\n        return _drop.dropItem(rarityLevel, fighterId, experience);\n    }\n\n    function openBox(uint256 tokenId) external returns (uint256) {\n        return _drop.openBox(tokenId);\n    }\n\n    function getDropQty(bytes32 itemHash) external returns (uint256)  {\n        return _drop.getDropQty(itemHash);\n    }\n\n    function createDropHash(bytes32 itemHash, uint256 qty) external {\n        _drop.createDropHash(itemHash, qty);\n    }\n}",
  "sourcePath": "/Users/max/Documents/prog/game-contracts/contracts/DropHelper.sol",
  "compiler": {
    "name": "solc",
    "version": "0.8.19+commit.7dd6d404.Emscripten.clang"
  },
  "schemaVersion": "3.4.13",
  "updatedAt": "2023-07-30T04:48:21.128Z",
  "networkType": "ethereum",
  "devdoc": {
    "kind": "dev",
    "methods": {},
    "version": 1
  },
  "userdoc": {
    "kind": "user",
    "methods": {},
    "version": 1
  }
}