{
  "contractName": "Drop",
  "abi": [
    {
      "inputs": [
        {
          "internalType": "address",
          "name": "itemsHelperContract",
          "type": "address"
        },
        {
          "internalType": "address",
          "name": "moneyHelperContract",
          "type": "address"
        }
      ],
      "stateMutability": "nonpayable",
      "type": "constructor"
    },
    {
      "anonymous": false,
      "inputs": [
        {
          "indexed": false,
          "internalType": "uint256",
          "name": "rarityLevel",
          "type": "uint256"
        },
        {
          "components": [
            {
              "internalType": "uint256",
              "name": "weaponsDropRate",
              "type": "uint256"
            },
            {
              "internalType": "uint256",
              "name": "armoursDropRate",
              "type": "uint256"
            },
            {
              "internalType": "uint256",
              "name": "jewelsDropRate",
              "type": "uint256"
            },
            {
              "internalType": "uint256",
              "name": "miscDropRate",
              "type": "uint256"
            },
            {
              "internalType": "uint256",
              "name": "boxDropRate",
              "type": "uint256"
            },
            {
              "internalType": "uint256",
              "name": "excDropRate",
              "type": "uint256"
            },
            {
              "internalType": "uint256",
              "name": "boxId",
              "type": "uint256"
            },
            {
              "internalType": "uint256",
              "name": "minItemLevel",
              "type": "uint256"
            },
            {
              "internalType": "uint256",
              "name": "maxItemLevel",
              "type": "uint256"
            },
            {
              "internalType": "uint256",
              "name": "maxAddPoints",
              "type": "uint256"
            },
            {
              "internalType": "uint256",
              "name": "blockCrated",
              "type": "uint256"
            }
          ],
          "indexed": false,
          "internalType": "struct Drop.DropParams",
          "name": "params",
          "type": "tuple"
        }
      ],
      "name": "BoxDropParametersChange",
      "type": "event"
    },
    {
      "anonymous": false,
      "inputs": [
        {
          "indexed": false,
          "internalType": "uint256",
          "name": "tokenId",
          "type": "uint256"
        },
        {
          "indexed": false,
          "internalType": "uint256",
          "name": "rarityLevel",
          "type": "uint256"
        },
        {
          "indexed": false,
          "internalType": "address",
          "name": "owner",
          "type": "address"
        }
      ],
      "name": "BoxOppened",
      "type": "event"
    },
    {
      "anonymous": false,
      "inputs": [
        {
          "indexed": false,
          "internalType": "uint256",
          "name": "rarityLevel",
          "type": "uint256"
        },
        {
          "components": [
            {
              "internalType": "uint256",
              "name": "weaponsDropRate",
              "type": "uint256"
            },
            {
              "internalType": "uint256",
              "name": "armoursDropRate",
              "type": "uint256"
            },
            {
              "internalType": "uint256",
              "name": "jewelsDropRate",
              "type": "uint256"
            },
            {
              "internalType": "uint256",
              "name": "miscDropRate",
              "type": "uint256"
            },
            {
              "internalType": "uint256",
              "name": "boxDropRate",
              "type": "uint256"
            },
            {
              "internalType": "uint256",
              "name": "excDropRate",
              "type": "uint256"
            },
            {
              "internalType": "uint256",
              "name": "boxId",
              "type": "uint256"
            },
            {
              "internalType": "uint256",
              "name": "minItemLevel",
              "type": "uint256"
            },
            {
              "internalType": "uint256",
              "name": "maxItemLevel",
              "type": "uint256"
            },
            {
              "internalType": "uint256",
              "name": "maxAddPoints",
              "type": "uint256"
            },
            {
              "internalType": "uint256",
              "name": "blockCrated",
              "type": "uint256"
            }
          ],
          "indexed": false,
          "internalType": "struct Drop.DropParams",
          "name": "params",
          "type": "tuple"
        }
      ],
      "name": "DropParametersChange",
      "type": "event"
    },
    {
      "anonymous": false,
      "inputs": [
        {
          "indexed": false,
          "internalType": "bytes32",
          "name": "itemHash",
          "type": "bytes32"
        },
        {
          "components": [
            {
              "internalType": "string",
              "name": "name",
              "type": "string"
            },
            {
              "internalType": "uint256",
              "name": "tokenId",
              "type": "uint256"
            },
            {
              "internalType": "uint256",
              "name": "itemLevel",
              "type": "uint256"
            },
            {
              "internalType": "uint256",
              "name": "maxLevel",
              "type": "uint256"
            },
            {
              "internalType": "uint256",
              "name": "durability",
              "type": "uint256"
            },
            {
              "internalType": "uint256",
              "name": "classRequired",
              "type": "uint256"
            },
            {
              "internalType": "uint256",
              "name": "strengthRequired",
              "type": "uint256"
            },
            {
              "internalType": "uint256",
              "name": "agilityRequired",
              "type": "uint256"
            },
            {
              "internalType": "uint256",
              "name": "energyRequired",
              "type": "uint256"
            },
            {
              "internalType": "uint256",
              "name": "vitalityRequired",
              "type": "uint256"
            },
            {
              "internalType": "uint256",
              "name": "itemWidth",
              "type": "uint256"
            },
            {
              "internalType": "uint256",
              "name": "itemHeight",
              "type": "uint256"
            },
            {
              "internalType": "uint256",
              "name": "acceptableSlot1",
              "type": "uint256"
            },
            {
              "internalType": "uint256",
              "name": "acceptableSlot2",
              "type": "uint256"
            },
            {
              "internalType": "uint256",
              "name": "baseMinPhysicalDamage",
              "type": "uint256"
            },
            {
              "internalType": "uint256",
              "name": "baseMaxPhysicalDamage",
              "type": "uint256"
            },
            {
              "internalType": "uint256",
              "name": "baseMinMagicDamage",
              "type": "uint256"
            },
            {
              "internalType": "uint256",
              "name": "baseMaxMagicDamage",
              "type": "uint256"
            },
            {
              "internalType": "uint256",
              "name": "baseDefense",
              "type": "uint256"
            },
            {
              "internalType": "uint256",
              "name": "attackSpeed",
              "type": "uint256"
            },
            {
              "internalType": "uint256",
              "name": "additionalDamage",
              "type": "uint256"
            },
            {
              "internalType": "uint256",
              "name": "additionalDefense",
              "type": "uint256"
            },
            {
              "internalType": "uint256",
              "name": "fighterId",
              "type": "uint256"
            },
            {
              "internalType": "uint256",
              "name": "lastUpdBlock",
              "type": "uint256"
            },
            {
              "internalType": "uint256",
              "name": "itemRarityLevel",
              "type": "uint256"
            },
            {
              "internalType": "uint256",
              "name": "itemAttributesId",
              "type": "uint256"
            },
            {
              "internalType": "uint256",
              "name": "packSize",
              "type": "uint256"
            },
            {
              "internalType": "bool",
              "name": "luck",
              "type": "bool"
            },
            {
              "internalType": "bool",
              "name": "skill",
              "type": "bool"
            },
            {
              "internalType": "bool",
              "name": "isPackable",
              "type": "bool"
            },
            {
              "internalType": "bool",
              "name": "isBox",
              "type": "bool"
            },
            {
              "internalType": "bool",
              "name": "isWeapon",
              "type": "bool"
            },
            {
              "internalType": "bool",
              "name": "isArmour",
              "type": "bool"
            },
            {
              "internalType": "bool",
              "name": "isJewel",
              "type": "bool"
            },
            {
              "internalType": "bool",
              "name": "isWings",
              "type": "bool"
            },
            {
              "internalType": "bool",
              "name": "isMisc",
              "type": "bool"
            },
            {
              "internalType": "bool",
              "name": "isConsumable",
              "type": "bool"
            },
            {
              "internalType": "bool",
              "name": "inShop",
              "type": "bool"
            },
            {
              "internalType": "uint256",
              "name": "increaseAttackSpeedPoints",
              "type": "uint256"
            },
            {
              "internalType": "uint256",
              "name": "reflectDamagePercent",
              "type": "uint256"
            },
            {
              "internalType": "uint256",
              "name": "restoreHPChance",
              "type": "uint256"
            },
            {
              "internalType": "uint256",
              "name": "restoreMPChance",
              "type": "uint256"
            },
            {
              "internalType": "uint256",
              "name": "doubleDamageChance",
              "type": "uint256"
            },
            {
              "internalType": "uint256",
              "name": "ignoreOpponentDefenseChance",
              "type": "uint256"
            },
            {
              "internalType": "uint256",
              "name": "lifeAfterMonsterIncrease",
              "type": "uint256"
            },
            {
              "internalType": "uint256",
              "name": "manaAfterMonsterIncrease",
              "type": "uint256"
            },
            {
              "internalType": "uint256",
              "name": "excellentDamageProbabilityIncrease",
              "type": "uint256"
            },
            {
              "internalType": "uint256",
              "name": "attackSpeedIncrease",
              "type": "uint256"
            },
            {
              "internalType": "uint256",
              "name": "attackLvl20",
              "type": "uint256"
            },
            {
              "internalType": "uint256",
              "name": "attackIncreasePercent",
              "type": "uint256"
            },
            {
              "internalType": "uint256",
              "name": "defenseSuccessRateIncrease",
              "type": "uint256"
            },
            {
              "internalType": "uint256",
              "name": "goldAfterMonsterIncrease",
              "type": "uint256"
            },
            {
              "internalType": "uint256",
              "name": "reflectDamage",
              "type": "uint256"
            },
            {
              "internalType": "uint256",
              "name": "maxLifeIncrease",
              "type": "uint256"
            },
            {
              "internalType": "uint256",
              "name": "maxManaIncrease",
              "type": "uint256"
            },
            {
              "internalType": "uint256",
              "name": "hpRecoveryRateIncrease",
              "type": "uint256"
            },
            {
              "internalType": "uint256",
              "name": "mpRecoveryRateIncrease",
              "type": "uint256"
            },
            {
              "internalType": "uint256",
              "name": "decreaseDamageRateIncrease",
              "type": "uint256"
            }
          ],
          "indexed": false,
          "internalType": "struct ItemsExcellentAtts.ExcellentItemAtts",
          "name": "item",
          "type": "tuple"
        },
        {
          "indexed": false,
          "internalType": "uint256",
          "name": "qty",
          "type": "uint256"
        },
        {
          "indexed": false,
          "internalType": "uint256",
          "name": "tokenId",
          "type": "uint256"
        }
      ],
      "name": "ItemDropped",
      "type": "event"
    },
    {
      "anonymous": false,
      "inputs": [
        {
          "indexed": false,
          "internalType": "uint256",
          "name": "tokenId",
          "type": "uint256"
        },
        {
          "indexed": false,
          "internalType": "uint256",
          "name": "fighterId",
          "type": "uint256"
        },
        {
          "indexed": false,
          "internalType": "uint256",
          "name": "qty",
          "type": "uint256"
        }
      ],
      "name": "ItemPicked",
      "type": "event"
    },
    {
      "inputs": [
        {
          "internalType": "uint256",
          "name": "",
          "type": "uint256"
        }
      ],
      "name": "BoxDropPramsList",
      "outputs": [
        {
          "internalType": "uint256",
          "name": "weaponsDropRate",
          "type": "uint256"
        },
        {
          "internalType": "uint256",
          "name": "armoursDropRate",
          "type": "uint256"
        },
        {
          "internalType": "uint256",
          "name": "jewelsDropRate",
          "type": "uint256"
        },
        {
          "internalType": "uint256",
          "name": "miscDropRate",
          "type": "uint256"
        },
        {
          "internalType": "uint256",
          "name": "boxDropRate",
          "type": "uint256"
        },
        {
          "internalType": "uint256",
          "name": "excDropRate",
          "type": "uint256"
        },
        {
          "internalType": "uint256",
          "name": "boxId",
          "type": "uint256"
        },
        {
          "internalType": "uint256",
          "name": "minItemLevel",
          "type": "uint256"
        },
        {
          "internalType": "uint256",
          "name": "maxItemLevel",
          "type": "uint256"
        },
        {
          "internalType": "uint256",
          "name": "maxAddPoints",
          "type": "uint256"
        },
        {
          "internalType": "uint256",
          "name": "blockCrated",
          "type": "uint256"
        }
      ],
      "stateMutability": "view",
      "type": "function",
      "constant": true
    },
    {
      "inputs": [
        {
          "internalType": "uint256",
          "name": "",
          "type": "uint256"
        }
      ],
      "name": "DropParamsList",
      "outputs": [
        {
          "internalType": "uint256",
          "name": "weaponsDropRate",
          "type": "uint256"
        },
        {
          "internalType": "uint256",
          "name": "armoursDropRate",
          "type": "uint256"
        },
        {
          "internalType": "uint256",
          "name": "jewelsDropRate",
          "type": "uint256"
        },
        {
          "internalType": "uint256",
          "name": "miscDropRate",
          "type": "uint256"
        },
        {
          "internalType": "uint256",
          "name": "boxDropRate",
          "type": "uint256"
        },
        {
          "internalType": "uint256",
          "name": "excDropRate",
          "type": "uint256"
        },
        {
          "internalType": "uint256",
          "name": "boxId",
          "type": "uint256"
        },
        {
          "internalType": "uint256",
          "name": "minItemLevel",
          "type": "uint256"
        },
        {
          "internalType": "uint256",
          "name": "maxItemLevel",
          "type": "uint256"
        },
        {
          "internalType": "uint256",
          "name": "maxAddPoints",
          "type": "uint256"
        },
        {
          "internalType": "uint256",
          "name": "blockCrated",
          "type": "uint256"
        }
      ],
      "stateMutability": "view",
      "type": "function",
      "constant": true
    },
    {
      "inputs": [
        {
          "internalType": "bytes32",
          "name": "",
          "type": "bytes32"
        }
      ],
      "name": "dropHashes",
      "outputs": [
        {
          "internalType": "uint256",
          "name": "",
          "type": "uint256"
        }
      ],
      "stateMutability": "view",
      "type": "function",
      "constant": true
    },
    {
      "inputs": [
        {
          "internalType": "uint256",
          "name": "seed",
          "type": "uint256"
        }
      ],
      "name": "getRandomNumber",
      "outputs": [
        {
          "internalType": "uint256",
          "name": "",
          "type": "uint256"
        }
      ],
      "stateMutability": "view",
      "type": "function",
      "constant": true
    },
    {
      "inputs": [
        {
          "internalType": "uint256",
          "name": "seed",
          "type": "uint256"
        },
        {
          "internalType": "uint256",
          "name": "maxNum",
          "type": "uint256"
        }
      ],
      "name": "getRandomNumberMax",
      "outputs": [
        {
          "internalType": "uint256",
          "name": "",
          "type": "uint256"
        }
      ],
      "stateMutability": "view",
      "type": "function",
      "constant": true
    },
    {
      "inputs": [
        {
          "internalType": "uint256",
          "name": "a",
          "type": "uint256"
        },
        {
          "internalType": "uint256",
          "name": "b",
          "type": "uint256"
        }
      ],
      "name": "max",
      "outputs": [
        {
          "internalType": "uint256",
          "name": "",
          "type": "uint256"
        }
      ],
      "stateMutability": "view",
      "type": "function",
      "constant": true
    },
    {
      "inputs": [
        {
          "internalType": "uint256",
          "name": "a",
          "type": "uint256"
        },
        {
          "internalType": "uint256",
          "name": "b",
          "type": "uint256"
        }
      ],
      "name": "min",
      "outputs": [
        {
          "internalType": "uint256",
          "name": "",
          "type": "uint256"
        }
      ],
      "stateMutability": "view",
      "type": "function",
      "constant": true
    },
    {
      "inputs": [
        {
          "internalType": "uint256",
          "name": "a",
          "type": "uint256"
        },
        {
          "internalType": "uint256",
          "name": "b",
          "type": "uint256"
        }
      ],
      "name": "safeAdd",
      "outputs": [
        {
          "internalType": "uint256",
          "name": "",
          "type": "uint256"
        }
      ],
      "stateMutability": "view",
      "type": "function",
      "constant": true
    },
    {
      "inputs": [
        {
          "internalType": "uint256",
          "name": "a",
          "type": "uint256"
        },
        {
          "internalType": "uint256",
          "name": "b",
          "type": "uint256"
        }
      ],
      "name": "safeMul",
      "outputs": [
        {
          "internalType": "uint256",
          "name": "",
          "type": "uint256"
        }
      ],
      "stateMutability": "view",
      "type": "function",
      "constant": true
    },
    {
      "inputs": [
        {
          "internalType": "uint256",
          "name": "a",
          "type": "uint256"
        },
        {
          "internalType": "uint256",
          "name": "b",
          "type": "uint256"
        }
      ],
      "name": "safeSub",
      "outputs": [
        {
          "internalType": "uint256",
          "name": "",
          "type": "uint256"
        }
      ],
      "stateMutability": "view",
      "type": "function",
      "constant": true
    },
    {
      "inputs": [
        {
          "components": [
            {
              "internalType": "string",
              "name": "name",
              "type": "string"
            },
            {
              "internalType": "uint256",
              "name": "tokenId",
              "type": "uint256"
            },
            {
              "internalType": "uint256",
              "name": "itemLevel",
              "type": "uint256"
            },
            {
              "internalType": "uint256",
              "name": "maxLevel",
              "type": "uint256"
            },
            {
              "internalType": "uint256",
              "name": "durability",
              "type": "uint256"
            },
            {
              "internalType": "uint256",
              "name": "classRequired",
              "type": "uint256"
            },
            {
              "internalType": "uint256",
              "name": "strengthRequired",
              "type": "uint256"
            },
            {
              "internalType": "uint256",
              "name": "agilityRequired",
              "type": "uint256"
            },
            {
              "internalType": "uint256",
              "name": "energyRequired",
              "type": "uint256"
            },
            {
              "internalType": "uint256",
              "name": "vitalityRequired",
              "type": "uint256"
            },
            {
              "internalType": "uint256",
              "name": "itemWidth",
              "type": "uint256"
            },
            {
              "internalType": "uint256",
              "name": "itemHeight",
              "type": "uint256"
            },
            {
              "internalType": "uint256",
              "name": "acceptableSlot1",
              "type": "uint256"
            },
            {
              "internalType": "uint256",
              "name": "acceptableSlot2",
              "type": "uint256"
            },
            {
              "internalType": "uint256",
              "name": "baseMinPhysicalDamage",
              "type": "uint256"
            },
            {
              "internalType": "uint256",
              "name": "baseMaxPhysicalDamage",
              "type": "uint256"
            },
            {
              "internalType": "uint256",
              "name": "baseMinMagicDamage",
              "type": "uint256"
            },
            {
              "internalType": "uint256",
              "name": "baseMaxMagicDamage",
              "type": "uint256"
            },
            {
              "internalType": "uint256",
              "name": "baseDefense",
              "type": "uint256"
            },
            {
              "internalType": "uint256",
              "name": "attackSpeed",
              "type": "uint256"
            },
            {
              "internalType": "uint256",
              "name": "additionalDamage",
              "type": "uint256"
            },
            {
              "internalType": "uint256",
              "name": "additionalDefense",
              "type": "uint256"
            },
            {
              "internalType": "uint256",
              "name": "fighterId",
              "type": "uint256"
            },
            {
              "internalType": "uint256",
              "name": "lastUpdBlock",
              "type": "uint256"
            },
            {
              "internalType": "uint256",
              "name": "itemRarityLevel",
              "type": "uint256"
            },
            {
              "internalType": "uint256",
              "name": "itemAttributesId",
              "type": "uint256"
            },
            {
              "internalType": "uint256",
              "name": "packSize",
              "type": "uint256"
            },
            {
              "internalType": "bool",
              "name": "luck",
              "type": "bool"
            },
            {
              "internalType": "bool",
              "name": "skill",
              "type": "bool"
            },
            {
              "internalType": "bool",
              "name": "isPackable",
              "type": "bool"
            },
            {
              "internalType": "bool",
              "name": "isBox",
              "type": "bool"
            },
            {
              "internalType": "bool",
              "name": "isWeapon",
              "type": "bool"
            },
            {
              "internalType": "bool",
              "name": "isArmour",
              "type": "bool"
            },
            {
              "internalType": "bool",
              "name": "isJewel",
              "type": "bool"
            },
            {
              "internalType": "bool",
              "name": "isWings",
              "type": "bool"
            },
            {
              "internalType": "bool",
              "name": "isMisc",
              "type": "bool"
            },
            {
              "internalType": "bool",
              "name": "isConsumable",
              "type": "bool"
            },
            {
              "internalType": "bool",
              "name": "inShop",
              "type": "bool"
            },
            {
              "internalType": "uint256",
              "name": "increaseAttackSpeedPoints",
              "type": "uint256"
            },
            {
              "internalType": "uint256",
              "name": "reflectDamagePercent",
              "type": "uint256"
            },
            {
              "internalType": "uint256",
              "name": "restoreHPChance",
              "type": "uint256"
            },
            {
              "internalType": "uint256",
              "name": "restoreMPChance",
              "type": "uint256"
            },
            {
              "internalType": "uint256",
              "name": "doubleDamageChance",
              "type": "uint256"
            },
            {
              "internalType": "uint256",
              "name": "ignoreOpponentDefenseChance",
              "type": "uint256"
            },
            {
              "internalType": "uint256",
              "name": "lifeAfterMonsterIncrease",
              "type": "uint256"
            },
            {
              "internalType": "uint256",
              "name": "manaAfterMonsterIncrease",
              "type": "uint256"
            },
            {
              "internalType": "uint256",
              "name": "excellentDamageProbabilityIncrease",
              "type": "uint256"
            },
            {
              "internalType": "uint256",
              "name": "attackSpeedIncrease",
              "type": "uint256"
            },
            {
              "internalType": "uint256",
              "name": "attackLvl20",
              "type": "uint256"
            },
            {
              "internalType": "uint256",
              "name": "attackIncreasePercent",
              "type": "uint256"
            },
            {
              "internalType": "uint256",
              "name": "defenseSuccessRateIncrease",
              "type": "uint256"
            },
            {
              "internalType": "uint256",
              "name": "goldAfterMonsterIncrease",
              "type": "uint256"
            },
            {
              "internalType": "uint256",
              "name": "reflectDamage",
              "type": "uint256"
            },
            {
              "internalType": "uint256",
              "name": "maxLifeIncrease",
              "type": "uint256"
            },
            {
              "internalType": "uint256",
              "name": "maxManaIncrease",
              "type": "uint256"
            },
            {
              "internalType": "uint256",
              "name": "hpRecoveryRateIncrease",
              "type": "uint256"
            },
            {
              "internalType": "uint256",
              "name": "mpRecoveryRateIncrease",
              "type": "uint256"
            },
            {
              "internalType": "uint256",
              "name": "decreaseDamageRateIncrease",
              "type": "uint256"
            }
          ],
          "internalType": "struct ItemsExcellentAtts.ExcellentItemAtts",
          "name": "itemAtts",
          "type": "tuple"
        }
      ],
      "name": "makeItem",
      "outputs": [
        {
          "internalType": "bytes32",
          "name": "",
          "type": "bytes32"
        }
      ],
      "stateMutability": "nonpayable",
      "type": "function"
    },
    {
      "inputs": [
        {
          "internalType": "uint256",
          "name": "rarityLevel",
          "type": "uint256"
        },
        {
          "components": [
            {
              "internalType": "uint256",
              "name": "weaponsDropRate",
              "type": "uint256"
            },
            {
              "internalType": "uint256",
              "name": "armoursDropRate",
              "type": "uint256"
            },
            {
              "internalType": "uint256",
              "name": "jewelsDropRate",
              "type": "uint256"
            },
            {
              "internalType": "uint256",
              "name": "miscDropRate",
              "type": "uint256"
            },
            {
              "internalType": "uint256",
              "name": "boxDropRate",
              "type": "uint256"
            },
            {
              "internalType": "uint256",
              "name": "excDropRate",
              "type": "uint256"
            },
            {
              "internalType": "uint256",
              "name": "boxId",
              "type": "uint256"
            },
            {
              "internalType": "uint256",
              "name": "minItemLevel",
              "type": "uint256"
            },
            {
              "internalType": "uint256",
              "name": "maxItemLevel",
              "type": "uint256"
            },
            {
              "internalType": "uint256",
              "name": "maxAddPoints",
              "type": "uint256"
            },
            {
              "internalType": "uint256",
              "name": "blockCrated",
              "type": "uint256"
            }
          ],
          "internalType": "struct Drop.DropParams",
          "name": "params",
          "type": "tuple"
        }
      ],
      "name": "setDropParams",
      "outputs": [],
      "stateMutability": "nonpayable",
      "type": "function"
    },
    {
      "inputs": [
        {
          "internalType": "uint256",
          "name": "rarityLevel",
          "type": "uint256"
        },
        {
          "components": [
            {
              "internalType": "uint256",
              "name": "weaponsDropRate",
              "type": "uint256"
            },
            {
              "internalType": "uint256",
              "name": "armoursDropRate",
              "type": "uint256"
            },
            {
              "internalType": "uint256",
              "name": "jewelsDropRate",
              "type": "uint256"
            },
            {
              "internalType": "uint256",
              "name": "miscDropRate",
              "type": "uint256"
            },
            {
              "internalType": "uint256",
              "name": "boxDropRate",
              "type": "uint256"
            },
            {
              "internalType": "uint256",
              "name": "excDropRate",
              "type": "uint256"
            },
            {
              "internalType": "uint256",
              "name": "boxId",
              "type": "uint256"
            },
            {
              "internalType": "uint256",
              "name": "minItemLevel",
              "type": "uint256"
            },
            {
              "internalType": "uint256",
              "name": "maxItemLevel",
              "type": "uint256"
            },
            {
              "internalType": "uint256",
              "name": "maxAddPoints",
              "type": "uint256"
            },
            {
              "internalType": "uint256",
              "name": "blockCrated",
              "type": "uint256"
            }
          ],
          "internalType": "struct Drop.DropParams",
          "name": "params",
          "type": "tuple"
        }
      ],
      "name": "setBoxDropParams",
      "outputs": [],
      "stateMutability": "nonpayable",
      "type": "function"
    },
    {
      "inputs": [
        {
          "internalType": "uint256",
          "name": "tokenId",
          "type": "uint256"
        }
      ],
      "name": "openBox",
      "outputs": [
        {
          "internalType": "uint256",
          "name": "",
          "type": "uint256"
        }
      ],
      "stateMutability": "nonpayable",
      "type": "function"
    },
    {
      "inputs": [
        {
          "internalType": "uint256",
          "name": "rarityLevel",
          "type": "uint256"
        },
        {
          "internalType": "uint256",
          "name": "fighterId",
          "type": "uint256"
        },
        {
          "internalType": "uint256",
          "name": "experience",
          "type": "uint256"
        }
      ],
      "name": "dropItem",
      "outputs": [
        {
          "internalType": "bytes32",
          "name": "",
          "type": "bytes32"
        }
      ],
      "stateMutability": "nonpayable",
      "type": "function"
    },
    {
      "inputs": [
        {
          "internalType": "bytes32",
          "name": "dropHash",
          "type": "bytes32"
        }
      ],
      "name": "getDropQty",
      "outputs": [
        {
          "internalType": "uint256",
          "name": "",
          "type": "uint256"
        }
      ],
      "stateMutability": "nonpayable",
      "type": "function"
    },
    {
      "inputs": [
        {
          "internalType": "bytes32",
          "name": "itemHash",
          "type": "bytes32"
        },
        {
          "internalType": "uint256",
          "name": "qty",
          "type": "uint256"
        }
      ],
      "name": "createDropHash",
      "outputs": [],
      "stateMutability": "nonpayable",
      "type": "function"
    }
  ],
  "bytecode": "0x60806040526064600055601c60015560326002556032600355601e600455601e6005556002600655600160075560006008553480156200003e57600080fd5b5060405162002361380380620023618339810160408190526200006191620000b0565b600980546001600160a01b039384166001600160a01b031991821617909155600a8054929093169116179055620000e8565b80516001600160a01b0381168114620000ab57600080fd5b919050565b60008060408385031215620000c457600080fd5b620000cf8362000093565b9150620000df6020840162000093565b90509250929050565b61226980620000f86000396000f3fe608060405234801561001057600080fd5b506004361061010a5760003560e01c8063b37217a4116100a2578063d0660b3711610071578063d0660b37146102ca578063d126b49c14610332578063e6cb901314610345578063eceb690214610358578063f108ff2b1461036b57600080fd5b8063b37217a4146101c9578063c6d6f6b1146101dc578063c864b1eb14610297578063d05c78da146102b757600080fd5b80636d5433e6116100de5780636d5433e61461017d5780637ae2b5c714610190578063a293d1e8146101a3578063b1e5e2b7146101b657600080fd5b80629df65b1461010f57806324b9c59514610135578063590956cd14610157578063683c277d1461016a575b600080fd5b61012261011d36600461130d565b61038b565b6040519081526020015b60405180910390f35b61015561014336600461130d565b6000918252600b602052604090912055565b005b6101556101653660046113c4565b6103d5565b6101556101783660046113c4565b61048d565b61012261018b36600461130d565b610539565b61012261019e36600461130d565b610551565b6101226101b136600461130d565b610560565b6101226101c4366004611478565b61057c565b6101226101d7366004611478565b610820565b6102446101ea366004611478565b600c60205280600052604060002060009150905080600001549080600101549080600201549080600301549080600401549080600501549080600601549080600701549080600801549080600901549080600a015490508b565b604080519b8c5260208c019a909a52988a01979097526060890195909552608088019390935260a087019190915260c086015260e08501526101008401526101208301526101408201526101600161012c565b6101226102a5366004611478565b600b6020526000908152604090205481565b6101226102c536600461130d565b610861565b6102446102d8366004611478565b600d60205280600052604060002060009150905080600001549080600101549080600201549080600301549080600401549080600501549080600601549080600701549080600801549080600901549080600a015490508b565b610122610340366004611530565b610891565b61012261035336600461130d565b610903565b610122610366366004611871565b61092d565b610122610379366004611478565b6000908152600b602052604090205490565b60008044844342336040516020016103a795949392919061189d565b60408051601f19818403018152919052805160209091012090506103cb83826118ea565b9150505b92915050565b6000828152600d602090815260409182902083518155908301516001820155818301516002820155606083015160038201556080830151600482015560a0830151600582015560c0830151600682015560e0830151600782015561010083015160088201556101208301516009820155610140830151600a90910155517f38ba25a70ea7fc2424eb4bb439184f5c089930d5f9e2b0fb1da7bc6302717a3f9061048190849084906118fe565b60405180910390a15050565b6000828152600c602090815260409182902083518155908301516001820155818301516002820155606083015160038201556080830151600482015560a0830151600582015560c0830151600682015560e0830151600782015561010083015160088201556101208301516009820155610140830151600a90910155517f888ff831b3adb1b32886789f0933b0a05ec1c94ee21c8989f11f236ab465e86e9061048190849084906118fe565b6000818311610548578161054a565b825b9392505050565b6000818310610548578161054a565b6000828211156105725761057261198b565b61054a82846119b7565b60095460405163843bd64160e01b8152600481018390526000916001600160a01b03169063843bd641906024016020604051808303816000875af11580156105c8573d6000803e3d6000fd5b505050506040513d601f19601f820116820180604052508101906105ec91906119d5565b6106335760405162461bcd60e51b8152602060048201526013602482015272151bdad95b88191bd95cdb89dd08195e1a5cdd606a1b60448201526064015b60405180910390fd5b600954604051631f4f5a2360e01b8152600481018490526000916001600160a01b031690631f4f5a23906024016000604051808303816000875af115801561067f573d6000803e3d6000fd5b505050506040513d6000823e601f3d908101601f191682016040526106a79190810190611a63565b610300810180516000908152600d60209081526040808320815161016081018352815481526001820154938101939093526002810154918301919091526003810154606083015260048101546080830152600581015460a0830152600681015460c0830152600781015460e083015260088101546101008301526009810154610120830152600a0154610140820152915192935090916107479083610c45565b9050600060019050600082824360405160200161076693929190612074565b60408051601f1981840301815282825280516020918201206000818152600b909252918120859055909250600080516020612214833981519152916107b091849187918791612099565b60405180910390a160095460405163576cc0f760e01b8152600481018990526001600160a01b039091169063576cc0f790602401600060405180830381600087803b1580156107fe57600080fd5b505af1158015610812573d6000803e3d6000fd5b505050505050505050919050565b600080448343423360405160200161083c95949392919061189d565b60408051601f198184030181529190528051602090910120905061054a6064826118ea565b60008061086e83856120c5565b905083158061088557508261088385836120dc565b145b61054a5761054a61198b565b600080826001436040516020016108aa939291906120f0565b60408051601f1981840301815282825280516020918201206000818152600b909252918120600190819055919350600080516020612214833981519152926108f59285928892612099565b60405180910390a192915050565b6000806109108385612118565b905083811015801561088557508281101561054a5761054a61198b565b6000838152600c60209081526040808320815161016081018352815481526001820154938101939093526002810154918301919091526003810154606083015260048101546080830152600581015460a0830152600681015460c0830152600781015460e083015260088101546101008301526009810154610120830152600a01546101408201819052610a0e5760405162461bcd60e51b815260206004820152602260248201527f4e6f2064726f7020706172616d657465727320666f72207261726974794c6576604482015261195b60f21b606482015260840161062a565b60008311610a5e5760405162461bcd60e51b815260206004820152601b60248201527f457870657269656e6365206d757374206265206e6f6e207a65726f0000000000604482015260640161062a565b6000610a6a8683610c45565b90506000610a7860c8610820565b600054909150600190821115610b3957600954604051636995795b60e01b8152600160048201526001600160a01b0390911690636995795b906024016000604051808303816000875af1158015610ad3573d6000803e3d6000fd5b505050506040513d6000823e601f3d908101601f19168201604052610afb9190810190611a63565b925060008051602061221483398151915260085484600080604051610b239493929190612099565b60405180910390a1506000935061054a92505050565b60075483610320015103610bd057610bcd6001600a60009054906101000a90046001600160a01b03166001600160a01b0316631e56dc2c6040518163ffffffff1660e01b8152600401602060405180830381865afa158015610b9f573d6000803e3d6000fd5b505050506040513d601f19601f82011682018060405250810190610bc3919061212b565b61018b90896120dc565b90505b6000838243604051602001610be793929190612074565b60408051601f1981840301815282825280516020918201206000818152600b90925291812085905590925060008051602061221483398151915291610c3191849188918791612099565b60405180910390a198975050505050505050565b610e0160405180610740016040528060608152602001600081526020016000815260200160008152602001600081526020016000815260200160008152602001600081526020016000815260200160008152602001600081526020016000815260200160008152602001600081526020016000815260200160008152602001600081526020016000815260200160008152602001600081526020016000815260200160008152602001600081526020016000815260200160008152602001600081526020016000815260200160001515815260200160001515815260200160001515815260200160001515815260200160001515815260200160001515815260200160001515815260200160001515815260200160001515815260200160001515815260200160001515815260200160008152602001600081526020016000815260200160008152602001600081526020016000815260200160008152602001600081526020016000815260200160008152602001600081526020016000815260200160008152602001600081526020016000815260200160008152602001600081526020016000815260200160008152602001600081525090565b6000610e0f6000606461038b565b604084015190915060009080831015610ea7576009546040516303f46b8b60e01b815260048101889052610ea0916064916001600160a01b03909116906303f46b8b906024015b600060405180830381865afa158015610e73573d6000803e3d6000fd5b505050506040513d6000823e601f3d908101601f19168201604052610e9b9190810190612144565b6112cf565b9150610fc1565b6020850151610eb69082612118565b905080831015610ef857600954604051639b94680f60e01b815260048101889052610ea0916065916001600160a01b0390911690639b94680f90602401610e56565b8451610f049082612118565b905080831015610f465760095460405163e8af18f360e01b815260048101889052610ea0916066916001600160a01b039091169063e8af18f390602401610e56565b6060850151610f559082612118565b905080831015610f9757600954604051630fd8f61760e41b815260048101889052610ea0916067916001600160a01b039091169063fd8f617090602401610e56565b6080850151610fa69082612118565b905080831015610fbc578460c001519150610fc1565b600191505b600954604051636995795b60e01b8152600481018490526000916001600160a01b031690636995795b906024016000604051808303816000875af115801561100d573d6000803e3d6000fd5b505050506040513d6000823e601f3d908101601f191682016040526110359190810190611a63565b61032081018490526104208101519091501580156110565750806104600151155b80156110655750806103c00151155b801561107c57506004546110796001610820565b11155b801561108e5750806103200151600114155b80156110a05750806103200151600214155b156110ae5760016103608201525b806103e0015180156110cb57506005546110c86002610820565b11155b156110d95760016103808201525b806103c00151156110f05760408101879052611217565b8061046001511580156111065750806104200151155b80156111185750806103200151600114155b801561112a5750806103200151600214155b15611217578560e0015186610100015161114491906119b7565b61114f906001612118565b6111596004610820565b61116391906118ea565b8660e001516111729190612118565b60408201526103e0810151156111c957600486610120015161119491906120dc565b61119f906001612118565b6111a96005610820565b6111b391906118ea565b6111be9060046120c5565b610280820152611217565b806104000151156112175760048661012001516111e691906120dc565b6111f1906001612118565b6111fb6005610820565b61120591906118ea565b6112109060046120c5565b6102a08201525b806103e001518061122a57508061040001515b801561124657508560a0015161124360036103e861038b565b11155b156112c5576009546040516383302ff760e01b81526001600160a01b03909116906383302ff79061127b9084906004016121ea565b6000604051808303816000875af115801561129a573d6000803e3d6000fd5b505050506040513d6000823e601f3d908101601f191682016040526112c29190810190611a63565b90505b9695505050505050565b6000806112db84610820565b8351909150836112eb82846118ea565b815181106112fb576112fb6121fd565b60200260200101519250505092915050565b6000806040838503121561132057600080fd5b50508035926020909101359150565b634e487b7160e01b600052604160045260246000fd5b604051610160810167ffffffffffffffff811182821017156113695761136961132f565b60405290565b604051610740810167ffffffffffffffff811182821017156113695761136961132f565b604051601f8201601f1916810167ffffffffffffffff811182821017156113bc576113bc61132f565b604052919050565b6000808284036101808112156113d957600080fd5b8335925061016080601f19830112156113f157600080fd5b6113f9611345565b91506020850135825260408501356020830152606085013560408301526080850135606083015260a0850135608083015260c085013560a083015260e085013560c08301526101008086013560e08401526101208087013582850152610140915081870135818501525081860135818401525050809150509250929050565b60006020828403121561148a57600080fd5b5035919050565b600067ffffffffffffffff8211156114ab576114ab61132f565b50601f01601f191660200190565b600082601f8301126114ca57600080fd5b81356114dd6114d882611491565b611393565b8181528460208386010111156114f257600080fd5b816020850160208301376000918101602001919091529392505050565b801515811461151d57600080fd5b50565b803561152b8161150f565b919050565b60006020828403121561154257600080fd5b813567ffffffffffffffff8082111561155a57600080fd5b90830190610740828603121561156f57600080fd5b61157761136f565b82358281111561158657600080fd5b611592878286016114b9565b8252506020838101359082015260408084013590820152606080840135908201526080808401359082015260a0808401359082015260c0808401359082015260e08084013590820152610100808401359082015261012080840135908201526101408084013590820152610160808401359082015261018080840135908201526101a080840135908201526101c080840135908201526101e08084013590820152610200808401359082015261022080840135908201526102408084013590820152610260808401359082015261028080840135908201526102a080840135908201526102c080840135908201526102e0808401359082015261030080840135908201526103208084013590820152610340808401359082015261036091506116bc828401611520565b8282015261038091506116d0828401611520565b828201526103a091506116e4828401611520565b828201526103c091506116f8828401611520565b828201526103e0915061170c828401611520565b828201526104009150611720828401611520565b828201526104209150611734828401611520565b828201526104409150611748828401611520565b82820152610460915061175c828401611520565b828201526104809150611770828401611520565b828201526104a09150611784828401611520565b918101919091526104c082810135908201526104e08083013590820152610500808301359082015261052080830135908201526105408083013590820152610560808301359082015261058080830135908201526105a080830135908201526105c080830135908201526105e08083013590820152610600808301359082015261062080830135908201526106408083013590820152610660808301359082015261068080830135908201526106a080830135908201526106c080830135908201526106e08083013590820152610700808301359082015261072091820135918101919091529392505050565b60008060006060848603121561188657600080fd5b505081359360208301359350604090920135919050565b948552602085019390935260408401919091526060808401919091521b6bffffffffffffffffffffffff1916608082015260940190565b634e487b7160e01b600052601260045260246000fd5b6000826118f9576118f96118d4565b500690565b60006101808201905083825282516020830152602083015160408301526040830151606083015260608301516080830152608083015160a083015260a083015160c083015260c083015160e083015260e083015161010081818501528085015191505061012081818501528085015191505061014081818501528085015161016085015250509392505050565b634e487b7160e01b600052600160045260246000fd5b634e487b7160e01b600052601160045260246000fd5b818103818111156103cf576103cf6119a1565b805161152b8161150f565b6000602082840312156119e757600080fd5b815161054a8161150f565b60005b83811015611a0d5781810151838201526020016119f5565b50506000910152565b600082601f830112611a2757600080fd5b8151611a356114d882611491565b818152846020838601011115611a4a57600080fd5b611a5b8260208301602087016119f2565b949350505050565b600060208284031215611a7557600080fd5b815167ffffffffffffffff80821115611a8d57600080fd5b908301906107408286031215611aa257600080fd5b611aaa61136f565b825182811115611ab957600080fd5b611ac587828601611a16565b8252506020838101519082015260408084015190820152606080840151908201526080808401519082015260a0808401519082015260c0808401519082015260e08084015190820152610100808401519082015261012080840151908201526101408084015190820152610160808401519082015261018080840151908201526101a080840151908201526101c080840151908201526101e08084015190820152610200808401519082015261022080840151908201526102408084015190820152610260808401519082015261028080840151908201526102a080840151908201526102c080840151908201526102e080840151908201526103008084015190820152610320808401519082015261034080840151908201526103609150611bef8284016119ca565b828201526103809150611c038284016119ca565b828201526103a09150611c178284016119ca565b828201526103c09150611c2b8284016119ca565b828201526103e09150611c3f8284016119ca565b828201526104009150611c538284016119ca565b828201526104209150611c678284016119ca565b828201526104409150611c7b8284016119ca565b828201526104609150611c8f8284016119ca565b828201526104809150611ca38284016119ca565b828201526104a09150611cb78284016119ca565b918101919091526104c082810151908201526104e08083015190820152610500808301519082015261052080830151908201526105408083015190820152610560808301519082015261058080830151908201526105a080830151908201526105c080830151908201526105e08083015190820152610600808301519082015261062080830151908201526106408083015190820152610660808301519082015261068080830151908201526106a080830151908201526106c080830151908201526106e08083015190820152610700808301519082015261072091820151918101919091529392505050565b60008151808452611dbc8160208601602086016119f2565b601f01601f19169290920160200192915050565b60006107408251818552611de682860182611da4565b6020858101519087015260408086015190870152606080860151908701526080808601519087015260a0808601519087015260c0808601519087015260e08086015190870152610100808601519087015261012080860151908701526101408086015190870152610160808601519087015261018080860151908701526101a080860151908701526101c080860151908701526101e08086015190870152610200808601519087015261022080860151908701526102408086015190870152610260808601519087015261028080860151908701526102a080860151908701526102c080860151908701526102e0808601519087015261030080860151908701526103208086015190870152610340808601519087015261036080860151151590870152610380808601511515908701526103a0808601511515908701526103c0808601511515908701526103e08086015115159087015261040080860151151590870152610420808601511515908701526104408086015115159087015261046080860151151590870152610480808601511515908701526104a0808601511515908701526104c080860151908701526104e08086015190870152610500808601519087015261052080860151908701526105408086015190870152610560808601519087015261058080860151908701526105a080860151908701526105c080860151908701526105e08086015190870152610600808601519087015261062080860151908701526106408086015190870152610660808601519087015261068080860151908701526106a080860151908701526106c080860151908701526106e080860151908701526107008086015190870152610720948501519490950193909352509192915050565b6060815260006120876060830186611dd0565b60208301949094525060400152919050565b8481526080602082015260006120b26080830186611dd0565b6040830194909452506060015292915050565b80820281158282048414176103cf576103cf6119a1565b6000826120eb576120eb6118d4565b500490565b6060815260006121036060830186611dd0565b60ff9490941660208301525060400152919050565b808201808211156103cf576103cf6119a1565b60006020828403121561213d57600080fd5b5051919050565b6000602080838503121561215757600080fd5b825167ffffffffffffffff8082111561216f57600080fd5b818501915085601f83011261218357600080fd5b8151818111156121955761219561132f565b8060051b91506121a6848301611393565b81815291830184019184810190888411156121c057600080fd5b938501935b838510156121de578451825293850193908501906121c5565b98975050505050505050565b60208152600061054a6020830184611dd0565b634e487b7160e01b600052603260045260246000fdfe62ff58b81147668695084606597b24b4d3cad6bff185118bacc098191c3e8dd2a264697066735822122060683e70e0cde233a1029d6a7f6a48691e15a93b3cc9fdbb67750f44cbf21cd764736f6c63430008130033",
  "immutableReferences": {},
  "source": "// SPDX-License-Identifier: MIT\npragma solidity ^0.8.10;\n\nimport \"./SafeMath.sol\";\nimport \"./ItemsHelper.sol\";\nimport \"./MoneyHelper.sol\";\n\ncontract Drop is ItemsExcellentAtts, SafeMath {\n    ItemsHelper private _itemsHelper;\n    MoneyHelper private _moneyHelper;\n\n    constructor(address itemsHelperContract, address moneyHelperContract) {     \n        _itemsHelper = ItemsHelper(itemsHelperContract);\n        _moneyHelper = MoneyHelper(moneyHelperContract);\n    }\n\n    mapping (bytes32 => uint256) public dropHashes;\n\n    event ItemDropped(bytes32 itemHash, ExcellentItemAtts item, uint256 qty, uint256 tokenId);\n    event ItemPicked(uint256 tokenId, uint256 fighterId, uint256 qty);\n    event BoxOppened(uint256 tokenId, uint256 rarityLevel, address owner);\n    event DropParametersChange(uint256 rarityLevel, DropParams params);\n    event BoxDropParametersChange(uint256 rarityLevel, DropParams params);\n\n\n    struct DropParams {\n        uint256 weaponsDropRate;\n        uint256 armoursDropRate;\n        uint256 jewelsDropRate;\n        uint256 miscDropRate;\n        uint256 boxDropRate;\n\n        uint256 excDropRate;\n        uint256 boxId;\n\n        uint256 minItemLevel;\n        uint256 maxItemLevel;\n        uint256 maxAddPoints;\n\n        uint256 blockCrated;\n    }\n\n    mapping (uint256 => DropParams) public DropParamsList; // mapping of rarityLevels to drop parameters\n    mapping (uint256 => DropParams) public BoxDropPramsList; // mapping of rarityLevels to drop parameters\n    \n    // This function is for development and testing only\n    // Should be disabled in Production\n    function makeItem(ExcellentItemAtts memory itemAtts) external returns (bytes32) {\n        bytes32 itemHash = keccak256(abi.encode(itemAtts, 1, block.number));\n        dropHashes[itemHash] = 1;\n        emit ItemDropped(itemHash, itemAtts, 1, 0);\n        return itemHash;\n    }\n\n    function setDropParams(uint256 rarityLevel, DropParams memory params) external {\n        DropParamsList[rarityLevel] = params;\n        emit DropParametersChange(rarityLevel, params);\n    }\n\n    function setBoxDropParams(uint256 rarityLevel, DropParams memory params) external {\n        BoxDropPramsList[rarityLevel] = params;\n        emit BoxDropParametersChange(rarityLevel, params);\n    }\n\n    function openBox(uint256 tokenId) external returns (uint256) {\n        require(_itemsHelper.itemExists(tokenId), \"Token doesn't exist\");\n        ExcellentItemAtts memory box = _itemsHelper.getTokenAttributes(tokenId);\n        DropParams memory params = BoxDropPramsList[box.itemRarityLevel];\n\n        ExcellentItemAtts memory itemAtts = getDropItem(box.itemRarityLevel, params);\n\n        uint256 qty = 1;\n\n        bytes32 itemHash = keccak256(abi.encode(itemAtts, qty, block.number));\n        dropHashes[itemHash] = qty;\n         emit ItemDropped(itemHash, itemAtts, qty, 0);\n        _itemsHelper.burnItem(tokenId);\n       \n    }  \n\n    function dropItem(uint256 rarityLevel, uint256 fighterId, uint256 experience) external returns (bytes32) {\n        DropParams memory params = DropParamsList[rarityLevel];\n        require(params.blockCrated > 0, \"No drop parameters for rarityLevel\");\n        require(experience > 0, \"Experience must be non zero\");\n\n        ExcellentItemAtts memory itemAtts = getDropItem(rarityLevel, params);        \n\n        uint256 randomNumber = getRandomNumber(200);\n\n        uint256 qty = 1;\n\n        if (randomNumber > generalDropRate) {\n            itemAtts = _itemsHelper.getItemAttributes(1);\n            emit ItemDropped(dummyHash, itemAtts, 0, 0);\n            return 0;\n        }\n\n        if (itemAtts.itemAttributesId == goldItemId) {\n            qty = max(1, experience/_moneyHelper.getExperienceDivider());\n        }\n\n        bytes32 itemHash = keccak256(abi.encode(itemAtts, qty, block.number));\n        dropHashes[itemHash] = qty;\n        emit ItemDropped(itemHash, itemAtts, qty, 0);\n        return itemHash;\n    }\n\n    function getDropItem(uint256 rarityLevel, DropParams memory params) internal returns (ExcellentItemAtts memory) {\n\n        uint256 randomNumber = getRandomNumberMax(0, 100);\n        uint256 randomItem;\n        \n        //emit LogDropValues(randomNumber, params.jewelsDropRate, params.weaponsDropRate, params.armoursDropRate, params.miscDropRate, params.boxDropRate);\n        \n        uint256 cumulativeRate = params.jewelsDropRate;\n        if (randomNumber < cumulativeRate) {\n            randomItem = returnRandomItemFromDropList(100, _itemsHelper.getJewels(rarityLevel));\n        } else {\n            cumulativeRate += params.armoursDropRate;\n            if (randomNumber < cumulativeRate) {\n                randomItem = returnRandomItemFromDropList(101, _itemsHelper.getArmours(rarityLevel));\n            } else {\n                cumulativeRate += params.weaponsDropRate;\n                if (randomNumber < cumulativeRate) {\n                    randomItem = returnRandomItemFromDropList(102, _itemsHelper.getWeapons(rarityLevel));\n                } else {\n                    cumulativeRate += params.miscDropRate;\n                    if (randomNumber < cumulativeRate) {\n                        randomItem = returnRandomItemFromDropList(103, _itemsHelper.getMisc(rarityLevel));\n                    } else {\n                        cumulativeRate += params.boxDropRate;\n                        if (randomNumber < cumulativeRate) {\n                            randomItem = params.boxId;\n                        } else {\n                            randomItem = 1;\n                        }\n                    }\n                }\n            }\n        }\n\n\n        ExcellentItemAtts memory itemAtts = _itemsHelper.getItemAttributes(randomItem);\n        itemAtts.itemAttributesId = randomItem;\n\n\n        if (!itemAtts.isJewel && !itemAtts.isMisc && !itemAtts.isBox && getRandomNumber(1) <= luckDropRate && itemAtts.itemAttributesId != 1 && itemAtts.itemAttributesId != 2) {\n            itemAtts.luck  = true;\n        }\n\n        if (itemAtts.isWeapon && getRandomNumber(2) <= skillDropRate) {\n            itemAtts.skill  = true;\n        }\n\n        if (itemAtts.isBox) {\n            itemAtts.itemLevel = rarityLevel;\n        } else if (!itemAtts.isMisc && !itemAtts.isJewel && itemAtts.itemAttributesId != 1 && itemAtts.itemAttributesId != 2) {\n            itemAtts.itemLevel = params.minItemLevel + getRandomNumber(4) % (params.maxItemLevel-params.minItemLevel+1);\n\n            if (itemAtts.isWeapon) {\n                itemAtts.additionalDamage = 4 * (getRandomNumber(5) % (params.maxAddPoints/4+1));\n            } else if (itemAtts.isArmour) {\n                itemAtts.additionalDefense = 4 * (getRandomNumber(5) % (params.maxAddPoints/4+1));\n            }\n        }\n\n        if ((itemAtts.isWeapon || itemAtts.isArmour) && getRandomNumberMax(3, 1000) <= params.excDropRate) {\n            itemAtts = _itemsHelper.addExcellentOption(itemAtts);\n        }\n\n\n        \n        return itemAtts;  \n    }\n\n\n    \n\n    function getDropQty(bytes32 dropHash) external returns(uint256) {\n        return dropHashes[dropHash];\n    }\n\n    function createDropHash(bytes32 itemHash, uint256 qty) external {\n        dropHashes[itemHash] = qty;\n    }\n\n    function returnRandomItemFromDropList(uint256 seed, uint256[] memory items) internal returns (uint256) {\n        uint256 randomNumber = getRandomNumber(seed);\n        uint256 len = items.length;\n\n        return items[randomNumber % len];\n\n    }\n}\n",
  "sourcePath": "/Users/max/Documents/prog/game-contracts/contracts/Drop.sol",
  "compiler": {
    "name": "solc",
    "version": "0.8.19+commit.7dd6d404.Emscripten.clang"
  },
  "schemaVersion": "3.4.13",
  "updatedAt": "2023-08-04T05:17:18.107Z",
  "networkType": "ethereum",
  "devdoc": {
    "kind": "dev",
    "methods": {},
    "version": 1
  },
  "userdoc": {
    "kind": "user",
    "methods": {},
    "version": 1
  }
}