{
  "contractName": "Drop",
  "abi": [
    {
      "inputs": [
        {
          "internalType": "address",
          "name": "itemsHelperContract",
          "type": "address"
        },
        {
          "internalType": "address",
          "name": "moneyHelperContract",
          "type": "address"
        }
      ],
      "stateMutability": "nonpayable",
      "type": "constructor"
    },
    {
      "anonymous": false,
      "inputs": [
        {
          "indexed": false,
          "internalType": "uint256",
          "name": "rarityLevel",
          "type": "uint256"
        },
        {
          "components": [
            {
              "internalType": "uint256",
              "name": "weaponsDropRate",
              "type": "uint256"
            },
            {
              "internalType": "uint256",
              "name": "armoursDropRate",
              "type": "uint256"
            },
            {
              "internalType": "uint256",
              "name": "jewelsDropRate",
              "type": "uint256"
            },
            {
              "internalType": "uint256",
              "name": "miscDropRate",
              "type": "uint256"
            },
            {
              "internalType": "uint256",
              "name": "boxDropRate",
              "type": "uint256"
            },
            {
              "internalType": "uint256",
              "name": "excDropRate",
              "type": "uint256"
            },
            {
              "internalType": "uint256",
              "name": "boxId",
              "type": "uint256"
            },
            {
              "internalType": "uint256",
              "name": "minItemLevel",
              "type": "uint256"
            },
            {
              "internalType": "uint256",
              "name": "maxItemLevel",
              "type": "uint256"
            },
            {
              "internalType": "uint256",
              "name": "maxAddPoints",
              "type": "uint256"
            },
            {
              "internalType": "uint256",
              "name": "blockCrated",
              "type": "uint256"
            }
          ],
          "indexed": false,
          "internalType": "struct Drop.DropParams",
          "name": "params",
          "type": "tuple"
        }
      ],
      "name": "BoxDropParametersChange",
      "type": "event"
    },
    {
      "anonymous": false,
      "inputs": [
        {
          "indexed": false,
          "internalType": "uint256",
          "name": "tokenId",
          "type": "uint256"
        },
        {
          "indexed": false,
          "internalType": "uint256",
          "name": "rarityLevel",
          "type": "uint256"
        },
        {
          "indexed": false,
          "internalType": "address",
          "name": "owner",
          "type": "address"
        }
      ],
      "name": "BoxOppened",
      "type": "event"
    },
    {
      "anonymous": false,
      "inputs": [
        {
          "indexed": false,
          "internalType": "uint256",
          "name": "rarityLevel",
          "type": "uint256"
        },
        {
          "components": [
            {
              "internalType": "uint256",
              "name": "weaponsDropRate",
              "type": "uint256"
            },
            {
              "internalType": "uint256",
              "name": "armoursDropRate",
              "type": "uint256"
            },
            {
              "internalType": "uint256",
              "name": "jewelsDropRate",
              "type": "uint256"
            },
            {
              "internalType": "uint256",
              "name": "miscDropRate",
              "type": "uint256"
            },
            {
              "internalType": "uint256",
              "name": "boxDropRate",
              "type": "uint256"
            },
            {
              "internalType": "uint256",
              "name": "excDropRate",
              "type": "uint256"
            },
            {
              "internalType": "uint256",
              "name": "boxId",
              "type": "uint256"
            },
            {
              "internalType": "uint256",
              "name": "minItemLevel",
              "type": "uint256"
            },
            {
              "internalType": "uint256",
              "name": "maxItemLevel",
              "type": "uint256"
            },
            {
              "internalType": "uint256",
              "name": "maxAddPoints",
              "type": "uint256"
            },
            {
              "internalType": "uint256",
              "name": "blockCrated",
              "type": "uint256"
            }
          ],
          "indexed": false,
          "internalType": "struct Drop.DropParams",
          "name": "params",
          "type": "tuple"
        }
      ],
      "name": "DropParametersChange",
      "type": "event"
    },
    {
      "anonymous": false,
      "inputs": [
        {
          "indexed": false,
          "internalType": "bytes32",
          "name": "itemHash",
          "type": "bytes32"
        },
        {
          "components": [
            {
              "internalType": "string",
              "name": "name",
              "type": "string"
            },
            {
              "internalType": "uint256",
              "name": "tokenId",
              "type": "uint256"
            },
            {
              "internalType": "uint256",
              "name": "itemLevel",
              "type": "uint256"
            },
            {
              "internalType": "uint256",
              "name": "maxLevel",
              "type": "uint256"
            },
            {
              "internalType": "uint256",
              "name": "durability",
              "type": "uint256"
            },
            {
              "internalType": "uint256",
              "name": "classRequired",
              "type": "uint256"
            },
            {
              "internalType": "uint256",
              "name": "strengthRequired",
              "type": "uint256"
            },
            {
              "internalType": "uint256",
              "name": "agilityRequired",
              "type": "uint256"
            },
            {
              "internalType": "uint256",
              "name": "energyRequired",
              "type": "uint256"
            },
            {
              "internalType": "uint256",
              "name": "vitalityRequired",
              "type": "uint256"
            },
            {
              "internalType": "uint256",
              "name": "itemWidth",
              "type": "uint256"
            },
            {
              "internalType": "uint256",
              "name": "itemHeight",
              "type": "uint256"
            },
            {
              "internalType": "uint256",
              "name": "acceptableSlot1",
              "type": "uint256"
            },
            {
              "internalType": "uint256",
              "name": "acceptableSlot2",
              "type": "uint256"
            },
            {
              "internalType": "uint256",
              "name": "baseMinPhysicalDamage",
              "type": "uint256"
            },
            {
              "internalType": "uint256",
              "name": "baseMaxPhysicalDamage",
              "type": "uint256"
            },
            {
              "internalType": "uint256",
              "name": "baseMinMagicDamage",
              "type": "uint256"
            },
            {
              "internalType": "uint256",
              "name": "baseMaxMagicDamage",
              "type": "uint256"
            },
            {
              "internalType": "uint256",
              "name": "baseDefense",
              "type": "uint256"
            },
            {
              "internalType": "uint256",
              "name": "attackSpeed",
              "type": "uint256"
            },
            {
              "internalType": "uint256",
              "name": "additionalDamage",
              "type": "uint256"
            },
            {
              "internalType": "uint256",
              "name": "additionalDefense",
              "type": "uint256"
            },
            {
              "internalType": "uint256",
              "name": "fighterId",
              "type": "uint256"
            },
            {
              "internalType": "uint256",
              "name": "lastUpdBlock",
              "type": "uint256"
            },
            {
              "internalType": "uint256",
              "name": "itemRarityLevel",
              "type": "uint256"
            },
            {
              "internalType": "uint256",
              "name": "itemAttributesId",
              "type": "uint256"
            },
            {
              "internalType": "bool",
              "name": "luck",
              "type": "bool"
            },
            {
              "internalType": "bool",
              "name": "skill",
              "type": "bool"
            },
            {
              "internalType": "bool",
              "name": "isBox",
              "type": "bool"
            },
            {
              "internalType": "bool",
              "name": "isWeapon",
              "type": "bool"
            },
            {
              "internalType": "bool",
              "name": "isArmour",
              "type": "bool"
            },
            {
              "internalType": "bool",
              "name": "isJewel",
              "type": "bool"
            },
            {
              "internalType": "bool",
              "name": "isWings",
              "type": "bool"
            },
            {
              "internalType": "bool",
              "name": "isMisc",
              "type": "bool"
            },
            {
              "internalType": "bool",
              "name": "inShop",
              "type": "bool"
            },
            {
              "internalType": "uint256",
              "name": "increaseAttackSpeedPoints",
              "type": "uint256"
            },
            {
              "internalType": "uint256",
              "name": "reflectDamagePercent",
              "type": "uint256"
            },
            {
              "internalType": "uint256",
              "name": "restoreHPChance",
              "type": "uint256"
            },
            {
              "internalType": "uint256",
              "name": "restoreMPChance",
              "type": "uint256"
            },
            {
              "internalType": "uint256",
              "name": "doubleDamageChance",
              "type": "uint256"
            },
            {
              "internalType": "uint256",
              "name": "ignoreOpponentDefenseChance",
              "type": "uint256"
            },
            {
              "internalType": "uint256",
              "name": "lifeAfterMonsterIncrease",
              "type": "uint256"
            },
            {
              "internalType": "uint256",
              "name": "manaAfterMonsterIncrease",
              "type": "uint256"
            },
            {
              "internalType": "uint256",
              "name": "excellentDamageProbabilityIncrease",
              "type": "uint256"
            },
            {
              "internalType": "uint256",
              "name": "attackSpeedIncrease",
              "type": "uint256"
            },
            {
              "internalType": "uint256",
              "name": "attackLvl20",
              "type": "uint256"
            },
            {
              "internalType": "uint256",
              "name": "attackIncreasePercent",
              "type": "uint256"
            },
            {
              "internalType": "uint256",
              "name": "defenseSuccessRateIncrease",
              "type": "uint256"
            },
            {
              "internalType": "uint256",
              "name": "goldAfterMonsterIncrease",
              "type": "uint256"
            },
            {
              "internalType": "uint256",
              "name": "reflectDamage",
              "type": "uint256"
            },
            {
              "internalType": "uint256",
              "name": "maxLifeIncrease",
              "type": "uint256"
            },
            {
              "internalType": "uint256",
              "name": "maxManaIncrease",
              "type": "uint256"
            },
            {
              "internalType": "uint256",
              "name": "hpRecoveryRateIncrease",
              "type": "uint256"
            },
            {
              "internalType": "uint256",
              "name": "mpRecoveryRateIncrease",
              "type": "uint256"
            },
            {
              "internalType": "uint256",
              "name": "decreaseDamageRateIncrease",
              "type": "uint256"
            }
          ],
          "indexed": false,
          "internalType": "struct ItemsExcellentAtts.ExcellentItemAtts",
          "name": "item",
          "type": "tuple"
        },
        {
          "indexed": false,
          "internalType": "uint256",
          "name": "qty",
          "type": "uint256"
        },
        {
          "indexed": false,
          "internalType": "uint256",
          "name": "tokenId",
          "type": "uint256"
        }
      ],
      "name": "ItemDropped",
      "type": "event"
    },
    {
      "anonymous": false,
      "inputs": [
        {
          "indexed": false,
          "internalType": "uint256",
          "name": "tokenId",
          "type": "uint256"
        },
        {
          "indexed": false,
          "internalType": "uint256",
          "name": "fighterId",
          "type": "uint256"
        },
        {
          "indexed": false,
          "internalType": "uint256",
          "name": "qty",
          "type": "uint256"
        }
      ],
      "name": "ItemPicked",
      "type": "event"
    },
    {
      "inputs": [
        {
          "internalType": "uint256",
          "name": "",
          "type": "uint256"
        }
      ],
      "name": "BoxDropPramsList",
      "outputs": [
        {
          "internalType": "uint256",
          "name": "weaponsDropRate",
          "type": "uint256"
        },
        {
          "internalType": "uint256",
          "name": "armoursDropRate",
          "type": "uint256"
        },
        {
          "internalType": "uint256",
          "name": "jewelsDropRate",
          "type": "uint256"
        },
        {
          "internalType": "uint256",
          "name": "miscDropRate",
          "type": "uint256"
        },
        {
          "internalType": "uint256",
          "name": "boxDropRate",
          "type": "uint256"
        },
        {
          "internalType": "uint256",
          "name": "excDropRate",
          "type": "uint256"
        },
        {
          "internalType": "uint256",
          "name": "boxId",
          "type": "uint256"
        },
        {
          "internalType": "uint256",
          "name": "minItemLevel",
          "type": "uint256"
        },
        {
          "internalType": "uint256",
          "name": "maxItemLevel",
          "type": "uint256"
        },
        {
          "internalType": "uint256",
          "name": "maxAddPoints",
          "type": "uint256"
        },
        {
          "internalType": "uint256",
          "name": "blockCrated",
          "type": "uint256"
        }
      ],
      "stateMutability": "view",
      "type": "function",
      "constant": true
    },
    {
      "inputs": [
        {
          "internalType": "uint256",
          "name": "",
          "type": "uint256"
        }
      ],
      "name": "DropParamsList",
      "outputs": [
        {
          "internalType": "uint256",
          "name": "weaponsDropRate",
          "type": "uint256"
        },
        {
          "internalType": "uint256",
          "name": "armoursDropRate",
          "type": "uint256"
        },
        {
          "internalType": "uint256",
          "name": "jewelsDropRate",
          "type": "uint256"
        },
        {
          "internalType": "uint256",
          "name": "miscDropRate",
          "type": "uint256"
        },
        {
          "internalType": "uint256",
          "name": "boxDropRate",
          "type": "uint256"
        },
        {
          "internalType": "uint256",
          "name": "excDropRate",
          "type": "uint256"
        },
        {
          "internalType": "uint256",
          "name": "boxId",
          "type": "uint256"
        },
        {
          "internalType": "uint256",
          "name": "minItemLevel",
          "type": "uint256"
        },
        {
          "internalType": "uint256",
          "name": "maxItemLevel",
          "type": "uint256"
        },
        {
          "internalType": "uint256",
          "name": "maxAddPoints",
          "type": "uint256"
        },
        {
          "internalType": "uint256",
          "name": "blockCrated",
          "type": "uint256"
        }
      ],
      "stateMutability": "view",
      "type": "function",
      "constant": true
    },
    {
      "inputs": [
        {
          "internalType": "bytes32",
          "name": "",
          "type": "bytes32"
        }
      ],
      "name": "dropHashes",
      "outputs": [
        {
          "internalType": "uint256",
          "name": "",
          "type": "uint256"
        }
      ],
      "stateMutability": "view",
      "type": "function",
      "constant": true
    },
    {
      "inputs": [
        {
          "components": [
            {
              "internalType": "string",
              "name": "name",
              "type": "string"
            },
            {
              "internalType": "uint256",
              "name": "tokenId",
              "type": "uint256"
            },
            {
              "internalType": "uint256",
              "name": "itemLevel",
              "type": "uint256"
            },
            {
              "internalType": "uint256",
              "name": "maxLevel",
              "type": "uint256"
            },
            {
              "internalType": "uint256",
              "name": "durability",
              "type": "uint256"
            },
            {
              "internalType": "uint256",
              "name": "classRequired",
              "type": "uint256"
            },
            {
              "internalType": "uint256",
              "name": "strengthRequired",
              "type": "uint256"
            },
            {
              "internalType": "uint256",
              "name": "agilityRequired",
              "type": "uint256"
            },
            {
              "internalType": "uint256",
              "name": "energyRequired",
              "type": "uint256"
            },
            {
              "internalType": "uint256",
              "name": "vitalityRequired",
              "type": "uint256"
            },
            {
              "internalType": "uint256",
              "name": "itemWidth",
              "type": "uint256"
            },
            {
              "internalType": "uint256",
              "name": "itemHeight",
              "type": "uint256"
            },
            {
              "internalType": "uint256",
              "name": "acceptableSlot1",
              "type": "uint256"
            },
            {
              "internalType": "uint256",
              "name": "acceptableSlot2",
              "type": "uint256"
            },
            {
              "internalType": "uint256",
              "name": "baseMinPhysicalDamage",
              "type": "uint256"
            },
            {
              "internalType": "uint256",
              "name": "baseMaxPhysicalDamage",
              "type": "uint256"
            },
            {
              "internalType": "uint256",
              "name": "baseMinMagicDamage",
              "type": "uint256"
            },
            {
              "internalType": "uint256",
              "name": "baseMaxMagicDamage",
              "type": "uint256"
            },
            {
              "internalType": "uint256",
              "name": "baseDefense",
              "type": "uint256"
            },
            {
              "internalType": "uint256",
              "name": "attackSpeed",
              "type": "uint256"
            },
            {
              "internalType": "uint256",
              "name": "additionalDamage",
              "type": "uint256"
            },
            {
              "internalType": "uint256",
              "name": "additionalDefense",
              "type": "uint256"
            },
            {
              "internalType": "uint256",
              "name": "fighterId",
              "type": "uint256"
            },
            {
              "internalType": "uint256",
              "name": "lastUpdBlock",
              "type": "uint256"
            },
            {
              "internalType": "uint256",
              "name": "itemRarityLevel",
              "type": "uint256"
            },
            {
              "internalType": "uint256",
              "name": "itemAttributesId",
              "type": "uint256"
            },
            {
              "internalType": "bool",
              "name": "luck",
              "type": "bool"
            },
            {
              "internalType": "bool",
              "name": "skill",
              "type": "bool"
            },
            {
              "internalType": "bool",
              "name": "isBox",
              "type": "bool"
            },
            {
              "internalType": "bool",
              "name": "isWeapon",
              "type": "bool"
            },
            {
              "internalType": "bool",
              "name": "isArmour",
              "type": "bool"
            },
            {
              "internalType": "bool",
              "name": "isJewel",
              "type": "bool"
            },
            {
              "internalType": "bool",
              "name": "isWings",
              "type": "bool"
            },
            {
              "internalType": "bool",
              "name": "isMisc",
              "type": "bool"
            },
            {
              "internalType": "bool",
              "name": "inShop",
              "type": "bool"
            },
            {
              "internalType": "uint256",
              "name": "increaseAttackSpeedPoints",
              "type": "uint256"
            },
            {
              "internalType": "uint256",
              "name": "reflectDamagePercent",
              "type": "uint256"
            },
            {
              "internalType": "uint256",
              "name": "restoreHPChance",
              "type": "uint256"
            },
            {
              "internalType": "uint256",
              "name": "restoreMPChance",
              "type": "uint256"
            },
            {
              "internalType": "uint256",
              "name": "doubleDamageChance",
              "type": "uint256"
            },
            {
              "internalType": "uint256",
              "name": "ignoreOpponentDefenseChance",
              "type": "uint256"
            },
            {
              "internalType": "uint256",
              "name": "lifeAfterMonsterIncrease",
              "type": "uint256"
            },
            {
              "internalType": "uint256",
              "name": "manaAfterMonsterIncrease",
              "type": "uint256"
            },
            {
              "internalType": "uint256",
              "name": "excellentDamageProbabilityIncrease",
              "type": "uint256"
            },
            {
              "internalType": "uint256",
              "name": "attackSpeedIncrease",
              "type": "uint256"
            },
            {
              "internalType": "uint256",
              "name": "attackLvl20",
              "type": "uint256"
            },
            {
              "internalType": "uint256",
              "name": "attackIncreasePercent",
              "type": "uint256"
            },
            {
              "internalType": "uint256",
              "name": "defenseSuccessRateIncrease",
              "type": "uint256"
            },
            {
              "internalType": "uint256",
              "name": "goldAfterMonsterIncrease",
              "type": "uint256"
            },
            {
              "internalType": "uint256",
              "name": "reflectDamage",
              "type": "uint256"
            },
            {
              "internalType": "uint256",
              "name": "maxLifeIncrease",
              "type": "uint256"
            },
            {
              "internalType": "uint256",
              "name": "maxManaIncrease",
              "type": "uint256"
            },
            {
              "internalType": "uint256",
              "name": "hpRecoveryRateIncrease",
              "type": "uint256"
            },
            {
              "internalType": "uint256",
              "name": "mpRecoveryRateIncrease",
              "type": "uint256"
            },
            {
              "internalType": "uint256",
              "name": "decreaseDamageRateIncrease",
              "type": "uint256"
            }
          ],
          "internalType": "struct ItemsExcellentAtts.ExcellentItemAtts",
          "name": "itemAtts",
          "type": "tuple"
        }
      ],
      "name": "makeItem",
      "outputs": [
        {
          "internalType": "bytes32",
          "name": "",
          "type": "bytes32"
        }
      ],
      "stateMutability": "nonpayable",
      "type": "function"
    },
    {
      "inputs": [
        {
          "internalType": "uint256",
          "name": "rarityLevel",
          "type": "uint256"
        },
        {
          "components": [
            {
              "internalType": "uint256",
              "name": "weaponsDropRate",
              "type": "uint256"
            },
            {
              "internalType": "uint256",
              "name": "armoursDropRate",
              "type": "uint256"
            },
            {
              "internalType": "uint256",
              "name": "jewelsDropRate",
              "type": "uint256"
            },
            {
              "internalType": "uint256",
              "name": "miscDropRate",
              "type": "uint256"
            },
            {
              "internalType": "uint256",
              "name": "boxDropRate",
              "type": "uint256"
            },
            {
              "internalType": "uint256",
              "name": "excDropRate",
              "type": "uint256"
            },
            {
              "internalType": "uint256",
              "name": "boxId",
              "type": "uint256"
            },
            {
              "internalType": "uint256",
              "name": "minItemLevel",
              "type": "uint256"
            },
            {
              "internalType": "uint256",
              "name": "maxItemLevel",
              "type": "uint256"
            },
            {
              "internalType": "uint256",
              "name": "maxAddPoints",
              "type": "uint256"
            },
            {
              "internalType": "uint256",
              "name": "blockCrated",
              "type": "uint256"
            }
          ],
          "internalType": "struct Drop.DropParams",
          "name": "params",
          "type": "tuple"
        }
      ],
      "name": "setDropParams",
      "outputs": [],
      "stateMutability": "nonpayable",
      "type": "function"
    },
    {
      "inputs": [
        {
          "internalType": "uint256",
          "name": "rarityLevel",
          "type": "uint256"
        },
        {
          "components": [
            {
              "internalType": "uint256",
              "name": "weaponsDropRate",
              "type": "uint256"
            },
            {
              "internalType": "uint256",
              "name": "armoursDropRate",
              "type": "uint256"
            },
            {
              "internalType": "uint256",
              "name": "jewelsDropRate",
              "type": "uint256"
            },
            {
              "internalType": "uint256",
              "name": "miscDropRate",
              "type": "uint256"
            },
            {
              "internalType": "uint256",
              "name": "boxDropRate",
              "type": "uint256"
            },
            {
              "internalType": "uint256",
              "name": "excDropRate",
              "type": "uint256"
            },
            {
              "internalType": "uint256",
              "name": "boxId",
              "type": "uint256"
            },
            {
              "internalType": "uint256",
              "name": "minItemLevel",
              "type": "uint256"
            },
            {
              "internalType": "uint256",
              "name": "maxItemLevel",
              "type": "uint256"
            },
            {
              "internalType": "uint256",
              "name": "maxAddPoints",
              "type": "uint256"
            },
            {
              "internalType": "uint256",
              "name": "blockCrated",
              "type": "uint256"
            }
          ],
          "internalType": "struct Drop.DropParams",
          "name": "params",
          "type": "tuple"
        }
      ],
      "name": "setBoxDropParams",
      "outputs": [],
      "stateMutability": "nonpayable",
      "type": "function"
    },
    {
      "inputs": [
        {
          "internalType": "uint256",
          "name": "tokenId",
          "type": "uint256"
        }
      ],
      "name": "openBox",
      "outputs": [
        {
          "internalType": "uint256",
          "name": "",
          "type": "uint256"
        }
      ],
      "stateMutability": "nonpayable",
      "type": "function"
    },
    {
      "inputs": [
        {
          "internalType": "uint256",
          "name": "rarityLevel",
          "type": "uint256"
        },
        {
          "internalType": "uint256",
          "name": "fighterId",
          "type": "uint256"
        },
        {
          "internalType": "uint256",
          "name": "experience",
          "type": "uint256"
        }
      ],
      "name": "dropItem",
      "outputs": [
        {
          "internalType": "bytes32",
          "name": "",
          "type": "bytes32"
        }
      ],
      "stateMutability": "nonpayable",
      "type": "function"
    },
    {
      "inputs": [
        {
          "internalType": "bytes32",
          "name": "dropHash",
          "type": "bytes32"
        }
      ],
      "name": "getDropQty",
      "outputs": [
        {
          "internalType": "uint256",
          "name": "",
          "type": "uint256"
        }
      ],
      "stateMutability": "nonpayable",
      "type": "function"
    },
    {
      "inputs": [
        {
          "internalType": "bytes32",
          "name": "itemHash",
          "type": "bytes32"
        },
        {
          "internalType": "uint256",
          "name": "qty",
          "type": "uint256"
        }
      ],
      "name": "createDropHash",
      "outputs": [],
      "stateMutability": "nonpayable",
      "type": "function"
    },
    {
      "inputs": [
        {
          "internalType": "uint256",
          "name": "a",
          "type": "uint256"
        },
        {
          "internalType": "uint256",
          "name": "b",
          "type": "uint256"
        }
      ],
      "name": "safeMul",
      "outputs": [
        {
          "internalType": "uint256",
          "name": "",
          "type": "uint256"
        }
      ],
      "stateMutability": "nonpayable",
      "type": "function"
    },
    {
      "inputs": [
        {
          "internalType": "uint256",
          "name": "a",
          "type": "uint256"
        },
        {
          "internalType": "uint256",
          "name": "b",
          "type": "uint256"
        }
      ],
      "name": "safeSub",
      "outputs": [
        {
          "internalType": "uint256",
          "name": "",
          "type": "uint256"
        }
      ],
      "stateMutability": "nonpayable",
      "type": "function"
    },
    {
      "inputs": [
        {
          "internalType": "uint256",
          "name": "a",
          "type": "uint256"
        },
        {
          "internalType": "uint256",
          "name": "b",
          "type": "uint256"
        }
      ],
      "name": "safeAdd",
      "outputs": [
        {
          "internalType": "uint256",
          "name": "",
          "type": "uint256"
        }
      ],
      "stateMutability": "nonpayable",
      "type": "function"
    }
  ],
  "bytecode": "0x60806040526064600055601c60015560326002556032600355601e600455601e6005556002600655600160075560006008553480156200003e57600080fd5b506040516200222b3803806200222b8339810160408190526200006191620000b0565b600980546001600160a01b039384166001600160a01b031991821617909155600a8054929093169116179055620000e8565b80516001600160a01b0381168114620000ab57600080fd5b919050565b60008060408385031215620000c457600080fd5b620000cf8362000093565b9150620000df6020840162000093565b90509250929050565b61213380620000f86000396000f3fe608060405234801561001057600080fd5b50600436106100cf5760003560e01c8063c6d6f6b11161008c578063d0660b3711610066578063d0660b3714610256578063e6cb9013146102be578063eceb6902146102d1578063f108ff2b146102e457600080fd5b8063c6d6f6b114610168578063c864b1eb14610223578063d05c78da1461024357600080fd5b806324b9c595146100d45780633ba6b6a0146100f6578063590956cd1461011c578063683c277d1461012f578063a293d1e814610142578063b1e5e2b714610155575b600080fd5b6100f46100e236600461126a565b6000918252600b602052604090912055565b005b6101096101043660046113c0565b610304565b6040519081526020015b60405180910390f35b6100f461012a3660046116ce565b610376565b6100f461013d3660046116ce565b61042e565b61010961015036600461126a565b6104da565b610109610163366004611782565b6104ff565b6101d0610176366004611782565b600c60205280600052604060002060009150905080600001549080600101549080600201549080600301549080600401549080600501549080600601549080600701549080600801549080600901549080600a015490508b565b604080519b8c5260208c019a909a52988a01979097526060890195909552608088019390935260a087019190915260c086015260e085015261010084015261012083015261014082015261016001610113565b610109610231366004611782565b600b6020526000908152604090205481565b61010961025136600461126a565b6107a3565b6101d0610264366004611782565b600d60205280600052604060002060009150905080600001549080600101549080600201549080600301549080600401549080600501549080600601549080600701549080600801549080600901549080600a015490508b565b6101096102cc36600461126a565b6107d3565b6101096102df36600461179b565b6107fd565b6101096102f2366004611782565b6000908152600b602052604090205490565b6000808260014360405160200161031d93929190611a96565b60408051601f1981840301815282825280516020918201206000818152600b9092529181206001908190559193506000805160206120de833981519152926103689285928892611abe565b60405180910390a192915050565b6000828152600d602090815260409182902083518155908301516001820155818301516002820155606083015160038201556080830151600482015560a0830151600582015560c0830151600682015560e0830151600782015561010083015160088201556101208301516009820155610140830151600a90910155517f38ba25a70ea7fc2424eb4bb439184f5c089930d5f9e2b0fb1da7bc6302717a3f906104229084908490611aea565b60405180910390a15050565b6000828152600c602090815260409182902083518155908301516001820155818301516002820155606083015160038201556080830151600482015560a0830151600582015560c0830151600682015560e0830151600782015561010083015160088201556101208301516009820155610140830151600a90910155517f888ff831b3adb1b32886789f0933b0a05ec1c94ee21c8989f11f236ab465e86e906104229084908490611aea565b6000828211156104ec576104ec611b77565b6104f68284611ba3565b90505b92915050565b60095460405163843bd64160e01b8152600481018390526000916001600160a01b03169063843bd641906024016020604051808303816000875af115801561054b573d6000803e3d6000fd5b505050506040513d601f19601f8201168201806040525081019061056f9190611bc1565b6105b65760405162461bcd60e51b8152602060048201526013602482015272151bdad95b88191bd95cdb89dd08195e1a5cdd606a1b60448201526064015b60405180910390fd5b600954604051631f4f5a2360e01b8152600481018490526000916001600160a01b031690631f4f5a23906024016000604051808303816000875af1158015610602573d6000803e3d6000fd5b505050506040513d6000823e601f3d908101601f1916820160405261062a9190810190611c23565b610300810180516000908152600d60209081526040808320815161016081018352815481526001820154938101939093526002810154918301919091526003810154606083015260048101546080830152600581015460a0830152600681015460c0830152600781015460e083015260088101546101008301526009810154610120830152600a0154610140820152915192935090916106ca9083610b1c565b905060006001905060008282436040516020016106e993929190611f31565b60408051601f1981840301815282825280516020918201206000818152600b9092529181208590559092506000805160206120de8339815191529161073391849187918791611abe565b60405180910390a160095460405163576cc0f760e01b8152600481018990526001600160a01b039091169063576cc0f790602401600060405180830381600087803b15801561078157600080fd5b505af1158015610795573d6000803e3d6000fd5b505050505050505050919050565b6000806107b08385611f56565b90508315806107c75750826107c58583611f83565b145b6104f6576104f6611b77565b6000806107e08385611f97565b90508381101580156107c75750828110156104f6576104f6611b77565b6000838152600c60209081526040808320815161016081018352815481526001820154938101939093526002810154918301919091526003810154606083015260048101546080830152600581015460a0830152600681015460c0830152600781015460e083015260088101546101008301526009810154610120830152600a015461014082018190526108de5760405162461bcd60e51b815260206004820152602260248201527f4e6f2064726f7020706172616d657465727320666f72207261726974794c6576604482015261195b60f21b60648201526084016105ad565b6000831161092e5760405162461bcd60e51b815260206004820152601b60248201527f457870657269656e6365206d757374206265206e6f6e207a65726f000000000060448201526064016105ad565b600061093a8683610b1c565b9050600061094860c861118d565b600054909150600190821115610a0957600954604051636995795b60e01b8152600160048201526001600160a01b0390911690636995795b906024016000604051808303816000875af11580156109a3573d6000803e3d6000fd5b505050506040513d6000823e601f3d908101601f191682016040526109cb9190810190611c23565b92506000805160206120de833981519152600854846000806040516109f39493929190611abe565b60405180910390a15060009350610b1592505050565b60075483610320015103610aa557610aa26001600a60009054906101000a90046001600160a01b03166001600160a01b0316631e56dc2c6040518163ffffffff1660e01b8152600401602060405180830381865afa158015610a6f573d6000803e3d6000fd5b505050506040513d601f19601f82011682018060405250810190610a939190611faa565b610a9d9089611f83565b6111ce565b90505b6000838243604051602001610abc93929190611f31565b60408051601f1981840301815282825280516020918201206000818152600b9092529181208590559092506000805160206120de83398151915291610b0691849188918791611abe565b60405180910390a19450505050505b9392505050565b610cbf604051806106e00160405280606081526020016000815260200160008152602001600081526020016000815260200160008152602001600081526020016000815260200160008152602001600081526020016000815260200160008152602001600081526020016000815260200160008152602001600081526020016000815260200160008152602001600081526020016000815260200160008152602001600081526020016000815260200160008152602001600081526020016000815260200160001515815260200160001515815260200160001515815260200160001515815260200160001515815260200160001515815260200160001515815260200160001515815260200160001515815260200160008152602001600081526020016000815260200160008152602001600081526020016000815260200160008152602001600081526020016000815260200160008152602001600081526020016000815260200160008152602001600081526020016000815260200160008152602001600081526020016000815260200160008152602001600081525090565b6000610ccd600060646111e4565b604084015190915060009080831015610d65576009546040516303f46b8b60e01b815260048101889052610d5e916064916001600160a01b03909116906303f46b8b906024015b600060405180830381865afa158015610d31573d6000803e3d6000fd5b505050506040513d6000823e601f3d908101601f19168201604052610d599190810190611fc3565b61122c565b9150610e7f565b6020850151610d749082611f97565b905080831015610db657600954604051639b94680f60e01b815260048101889052610d5e916065916001600160a01b0390911690639b94680f90602401610d14565b8451610dc29082611f97565b905080831015610e045760095460405163e8af18f360e01b815260048101889052610d5e916066916001600160a01b039091169063e8af18f390602401610d14565b6060850151610e139082611f97565b905080831015610e5557600954604051630fd8f61760e41b815260048101889052610d5e916067916001600160a01b039091169063fd8f617090602401610d14565b6080850151610e649082611f97565b905080831015610e7a578460c001519150610e7f565b600191505b600954604051636995795b60e01b8152600481018490526000916001600160a01b031690636995795b906024016000604051808303816000875af1158015610ecb573d6000803e3d6000fd5b505050506040513d6000823e601f3d908101601f19168201604052610ef39190810190611c23565b61032081018490526103e0810151909150158015610f145750806104200151155b8015610f235750806103800151155b8015610f3a5750600454610f37600161118d565b11155b8015610f4c5750806103200151600114155b8015610f5e5750806103200151600214155b15610f6c5760016103408201525b806103a001518015610f895750600554610f86600261118d565b11155b15610f975760016103608201525b80610380015115610fae57604081018790526110d5565b806104200151158015610fc45750806103e00151155b8015610fd65750806103200151600114155b8015610fe85750806103200151600214155b156110d5578560e001518661010001516110029190611ba3565b61100d906001611f97565b611017600461118d565b6110219190612069565b8660e001516110309190611f97565b60408201526103a0810151156110875760048661012001516110529190611f83565b61105d906001611f97565b611067600561118d565b6110719190612069565b61107c906004611f56565b6102808201526110d5565b806103c00151156110d55760048661012001516110a49190611f83565b6110af906001611f97565b6110b9600561118d565b6110c39190612069565b6110ce906004611f56565b6102a08201525b806103a00151806110e85750806103c001515b801561110457508560a0015161110160036103e86111e4565b11155b15611183576009546040516326c70b8960e21b81526001600160a01b0390911690639b1c2e249061113990849060040161207d565b6000604051808303816000875af1158015611158573d6000803e3d6000fd5b505050506040513d6000823e601f3d908101601f191682016040526111809190810190611c23565b90505b9695505050505050565b60008044834342336040516020016111a9959493929190612090565b60408051601f1981840301815291905280516020909101209050610b15606482612069565b60008183116111dd57816104f6565b5090919050565b6000804484434233604051602001611200959493929190612090565b60408051601f19818403018152919052805160209091012090506112248382612069565b949350505050565b6000806112388461118d565b8351909150836112488284612069565b81518110611258576112586120c7565b60200260200101519250505092915050565b6000806040838503121561127d57600080fd5b50508035926020909101359150565b634e487b7160e01b600052604160045260246000fd5b6040516106e0810167ffffffffffffffff811182821017156112c6576112c661128c565b60405290565b604051610160810167ffffffffffffffff811182821017156112c6576112c661128c565b604051601f8201601f1916810167ffffffffffffffff811182821017156113195761131961128c565b604052919050565b600067ffffffffffffffff82111561133b5761133b61128c565b50601f01601f191660200190565b600082601f83011261135a57600080fd5b813561136d61136882611321565b6112f0565b81815284602083860101111561138257600080fd5b816020850160208301376000918101602001919091529392505050565b80151581146113ad57600080fd5b50565b80356113bb8161139f565b919050565b6000602082840312156113d257600080fd5b813567ffffffffffffffff808211156113ea57600080fd5b908301906106e082860312156113ff57600080fd5b6114076112a2565b82358281111561141657600080fd5b61142287828601611349565b8252506020838101359082015260408084013590820152606080840135908201526080808401359082015260a0808401359082015260c0808401359082015260e08084013590820152610100808401359082015261012080840135908201526101408084013590820152610160808401359082015261018080840135908201526101a080840135908201526101c080840135908201526101e08084013590820152610200808401359082015261022080840135908201526102408084013590820152610260808401359082015261028080840135908201526102a080840135908201526102c080840135908201526102e080840135908201526103008084013590820152610320808401359082015261034091506115418284016113b0565b8282015261036091506115558284016113b0565b8282015261038091506115698284016113b0565b828201526103a0915061157d8284016113b0565b828201526103c091506115918284016113b0565b828201526103e091506115a58284016113b0565b8282015261040091506115b98284016113b0565b8282015261042091506115cd8284016113b0565b8282015261044091506115e18284016113b0565b91810191909152610460828101359082015261048080830135908201526104a080830135908201526104c080830135908201526104e08083013590820152610500808301359082015261052080830135908201526105408083013590820152610560808301359082015261058080830135908201526105a080830135908201526105c080830135908201526105e08083013590820152610600808301359082015261062080830135908201526106408083013590820152610660808301359082015261068080830135908201526106a080830135908201526106c091820135918101919091529392505050565b6000808284036101808112156116e357600080fd5b8335925061016080601f19830112156116fb57600080fd5b6117036112cc565b91506020850135825260408501356020830152606085013560408301526080850135606083015260a0850135608083015260c085013560a083015260e085013560c08301526101008086013560e08401526101208087013582850152610140915081870135818501525081860135818401525050809150509250929050565b60006020828403121561179457600080fd5b5035919050565b6000806000606084860312156117b057600080fd5b505081359360208301359350604090920135919050565b60005b838110156117e25781810151838201526020016117ca565b50506000910152565b600081518084526118038160208601602086016117c7565b601f01601f19169290920160200192915050565b60006106e0825181855261182d828601826117eb565b6020858101519087015260408086015190870152606080860151908701526080808601519087015260a0808601519087015260c0808601519087015260e08086015190870152610100808601519087015261012080860151908701526101408086015190870152610160808601519087015261018080860151908701526101a080860151908701526101c080860151908701526101e08086015190870152610200808601519087015261022080860151908701526102408086015190870152610260808601519087015261028080860151908701526102a080860151908701526102c080860151908701526102e08086015190870152610300808601519087015261032080860151908701526103408086015115159087015261036080860151151590870152610380808601511515908701526103a0808601511515908701526103c0808601511515908701526103e080860151151590870152610400808601511515908701526104208086015115159087015261044080860151151590870152610460808601519087015261048080860151908701526104a080860151908701526104c080860151908701526104e08086015190870152610500808601519087015261052080860151908701526105408086015190870152610560808601519087015261058080860151908701526105a080860151908701526105c080860151908701526105e08086015190870152610600808601519087015261062080860151908701526106408086015190870152610660808601519087015261068080860151908701526106a080860151908701526106c0948501519490950193909352509192915050565b606081526000611aa96060830186611817565b60ff9490941660208301525060400152919050565b848152608060208201526000611ad76080830186611817565b6040830194909452506060015292915050565b60006101808201905083825282516020830152602083015160408301526040830151606083015260608301516080830152608083015160a083015260a083015160c083015260c083015160e083015260e083015161010081818501528085015191505061012081818501528085015191505061014081818501528085015161016085015250509392505050565b634e487b7160e01b600052600160045260246000fd5b634e487b7160e01b600052601160045260246000fd5b818103818111156104f9576104f9611b8d565b80516113bb8161139f565b600060208284031215611bd357600080fd5b81516104f68161139f565b600082601f830112611bef57600080fd5b8151611bfd61136882611321565b818152846020838601011115611c1257600080fd5b6112248260208301602087016117c7565b600060208284031215611c3557600080fd5b815167ffffffffffffffff80821115611c4d57600080fd5b908301906106e08286031215611c6257600080fd5b611c6a6112a2565b825182811115611c7957600080fd5b611c8587828601611bde565b8252506020838101519082015260408084015190820152606080840151908201526080808401519082015260a0808401519082015260c0808401519082015260e08084015190820152610100808401519082015261012080840151908201526101408084015190820152610160808401519082015261018080840151908201526101a080840151908201526101c080840151908201526101e08084015190820152610200808401519082015261022080840151908201526102408084015190820152610260808401519082015261028080840151908201526102a080840151908201526102c080840151908201526102e08084015190820152610300808401519082015261032080840151908201526103409150611da4828401611bb6565b828201526103609150611db8828401611bb6565b828201526103809150611dcc828401611bb6565b828201526103a09150611de0828401611bb6565b828201526103c09150611df4828401611bb6565b828201526103e09150611e08828401611bb6565b828201526104009150611e1c828401611bb6565b828201526104209150611e30828401611bb6565b828201526104409150611e44828401611bb6565b91810191909152610460828101519082015261048080830151908201526104a080830151908201526104c080830151908201526104e08083015190820152610500808301519082015261052080830151908201526105408083015190820152610560808301519082015261058080830151908201526105a080830151908201526105c080830151908201526105e08083015190820152610600808301519082015261062080830151908201526106408083015190820152610660808301519082015261068080830151908201526106a080830151908201526106c091820151918101919091529392505050565b606081526000611f446060830186611817565b60208301949094525060400152919050565b80820281158282048414176104f9576104f9611b8d565b634e487b7160e01b600052601260045260246000fd5b600082611f9257611f92611f6d565b500490565b808201808211156104f9576104f9611b8d565b600060208284031215611fbc57600080fd5b5051919050565b60006020808385031215611fd657600080fd5b825167ffffffffffffffff80821115611fee57600080fd5b818501915085601f83011261200257600080fd5b8151818111156120145761201461128c565b8060051b91506120258483016112f0565b818152918301840191848101908884111561203f57600080fd5b938501935b8385101561205d57845182529385019390850190612044565b98975050505050505050565b60008261207857612078611f6d565b500690565b6020815260006104f66020830184611817565b948552602085019390935260408401919091526060808401919091521b6bffffffffffffffffffffffff1916608082015260940190565b634e487b7160e01b600052603260045260246000fdfec757f656d431c403ec168ae2526cc64be4e99e32cb16aafbf8c8dd517e4c7047a264697066735822122035620d6bd43766a7aa1095480666c1cac6617a0b30e911ca4df3d99f2e23e8b564736f6c63430008130033",
  "immutableReferences": {},
  "source": "// SPDX-License-Identifier: MIT\npragma solidity ^0.8.10;\nimport \"./ItemsHelper.sol\";\nimport \"./MoneyHelper.sol\";\n\ncontract Drop is ItemsExcellentAtts {\n    ItemsHelper private _itemsHelper;\n    MoneyHelper private _moneyHelper;\n\n    constructor(address itemsHelperContract, address moneyHelperContract) {     \n        _itemsHelper = ItemsHelper(itemsHelperContract);\n        _moneyHelper = MoneyHelper(moneyHelperContract);\n    }\n\n    mapping (bytes32 => uint256) public dropHashes;\n\n    event ItemDropped(bytes32 itemHash, ExcellentItemAtts item, uint256 qty, uint256 tokenId);\n    event ItemPicked(uint256 tokenId, uint256 fighterId, uint256 qty);\n    event BoxOppened(uint256 tokenId, uint256 rarityLevel, address owner);\n    event DropParametersChange(uint256 rarityLevel, DropParams params);\n    event BoxDropParametersChange(uint256 rarityLevel, DropParams params);\n\n\n    struct DropParams {\n        uint256 weaponsDropRate;\n        uint256 armoursDropRate;\n        uint256 jewelsDropRate;\n        uint256 miscDropRate;\n        uint256 boxDropRate;\n\n        uint256 excDropRate;\n        uint256 boxId;\n\n        uint256 minItemLevel;\n        uint256 maxItemLevel;\n        uint256 maxAddPoints;\n\n        uint256 blockCrated;\n    }\n\n    mapping (uint256 => DropParams) public DropParamsList; // mapping of rarityLevels to drop parameters\n    mapping (uint256 => DropParams) public BoxDropPramsList; // mapping of rarityLevels to drop parameters\n    \n    // This function is for development and testing only\n    // Should be disabled in Production\n    function makeItem(ExcellentItemAtts memory itemAtts) external returns (bytes32) {\n        bytes32 itemHash = keccak256(abi.encode(itemAtts, 1, block.number));\n        dropHashes[itemHash] = 1;\n        emit ItemDropped(itemHash, itemAtts, 1, 0);\n        return itemHash;\n    }\n\n    function setDropParams(uint256 rarityLevel, DropParams memory params) external {\n        DropParamsList[rarityLevel] = params;\n        emit DropParametersChange(rarityLevel, params);\n    }\n\n    function setBoxDropParams(uint256 rarityLevel, DropParams memory params) external {\n        BoxDropPramsList[rarityLevel] = params;\n        emit BoxDropParametersChange(rarityLevel, params);\n    }\n\n    function openBox(uint256 tokenId) external returns (uint256) {\n        require(_itemsHelper.itemExists(tokenId), \"Token doesn't exist\");\n        ExcellentItemAtts memory box = _itemsHelper.getTokenAttributes(tokenId);\n        DropParams memory params = BoxDropPramsList[box.itemRarityLevel];\n\n        ExcellentItemAtts memory itemAtts = getDropItem(box.itemRarityLevel, params);\n\n        uint256 qty = 1;\n\n        bytes32 itemHash = keccak256(abi.encode(itemAtts, qty, block.number));\n        dropHashes[itemHash] = qty;\n         emit ItemDropped(itemHash, itemAtts, qty, 0);\n        _itemsHelper.burnItem(tokenId);\n       \n    }  \n\n    function dropItem(uint256 rarityLevel, uint256 fighterId, uint256 experience) external returns (bytes32) {\n        DropParams memory params = DropParamsList[rarityLevel];\n        require(params.blockCrated > 0, \"No drop parameters for rarityLevel\");\n        require(experience > 0, \"Experience must be non zero\");\n\n        ExcellentItemAtts memory itemAtts = getDropItem(rarityLevel, params);        \n\n        uint256 randomNumber = getRandomNumber(200);\n\n        uint256 qty = 1;\n\n        if (randomNumber > generalDropRate) {\n            itemAtts = _itemsHelper.getItemAttributes(1);\n            emit ItemDropped(dummyHash, itemAtts, 0, 0);\n            return 0;\n        }\n\n        if (itemAtts.itemAttributesId == goldItemId) {\n            qty = max(1, experience/_moneyHelper.getExperienceDivider());\n        }\n\n        bytes32 itemHash = keccak256(abi.encode(itemAtts, qty, block.number));\n        dropHashes[itemHash] = qty;\n        emit ItemDropped(itemHash, itemAtts, qty, 0);\n        return itemHash;\n    }\n\n    function getDropItem(uint256 rarityLevel, DropParams memory params) internal returns (ExcellentItemAtts memory) {\n\n        uint256 randomNumber = getRandomNumberMax(0, 100);\n        uint256 randomItem;\n        \n        //emit LogDropValues(randomNumber, params.jewelsDropRate, params.weaponsDropRate, params.armoursDropRate, params.miscDropRate, params.boxDropRate);\n        \n        uint256 cumulativeRate = params.jewelsDropRate;\n        if (randomNumber < cumulativeRate) {\n            randomItem = returnRandomItemFromDropList(100, _itemsHelper.getJewels(rarityLevel));\n        } else {\n            cumulativeRate += params.armoursDropRate;\n            if (randomNumber < cumulativeRate) {\n                randomItem = returnRandomItemFromDropList(101, _itemsHelper.getArmours(rarityLevel));\n            } else {\n                cumulativeRate += params.weaponsDropRate;\n                if (randomNumber < cumulativeRate) {\n                    randomItem = returnRandomItemFromDropList(102, _itemsHelper.getWeapons(rarityLevel));\n                } else {\n                    cumulativeRate += params.miscDropRate;\n                    if (randomNumber < cumulativeRate) {\n                        randomItem = returnRandomItemFromDropList(103, _itemsHelper.getMisc(rarityLevel));\n                    } else {\n                        cumulativeRate += params.boxDropRate;\n                        if (randomNumber < cumulativeRate) {\n                            randomItem = params.boxId;\n                        } else {\n                            randomItem = 1;\n                        }\n                    }\n                }\n            }\n        }\n\n\n        ExcellentItemAtts memory itemAtts = _itemsHelper.getItemAttributes(randomItem);\n        itemAtts.itemAttributesId = randomItem;\n\n\n        if (!itemAtts.isJewel && !itemAtts.isMisc && !itemAtts.isBox && getRandomNumber(1) <= luckDropRate && itemAtts.itemAttributesId != 1 && itemAtts.itemAttributesId != 2) {\n            itemAtts.luck  = true;\n        }\n\n        if (itemAtts.isWeapon && getRandomNumber(2) <= skillDropRate) {\n            itemAtts.skill  = true;\n        }\n\n        if (itemAtts.isBox) {\n            itemAtts.itemLevel = rarityLevel;\n        } else if (!itemAtts.isMisc && !itemAtts.isJewel && itemAtts.itemAttributesId != 1 && itemAtts.itemAttributesId != 2) {\n            itemAtts.itemLevel = params.minItemLevel + getRandomNumber(4) % (params.maxItemLevel-params.minItemLevel+1);\n\n            if (itemAtts.isWeapon) {\n                itemAtts.additionalDamage = 4 * (getRandomNumber(5) % (params.maxAddPoints/4+1));\n            } else if (itemAtts.isArmour) {\n                itemAtts.additionalDefense = 4 * (getRandomNumber(5) % (params.maxAddPoints/4+1));\n            }\n        }\n\n        if ((itemAtts.isWeapon || itemAtts.isArmour) && getRandomNumberMax(3, 1000) <= params.excDropRate) {\n            itemAtts = _itemsHelper.addExcellentOption(itemAtts);\n        }\n\n\n        \n        return itemAtts;  \n    }\n\n\n    \n\n    function getDropQty(bytes32 dropHash) external returns(uint256) {\n        return dropHashes[dropHash];\n    }\n\n    function createDropHash(bytes32 itemHash, uint256 qty) external {\n        dropHashes[itemHash] = qty;\n    }\n\n    function returnRandomItemFromDropList(uint256 seed, uint256[] memory items) internal returns (uint256) {\n        uint256 randomNumber = getRandomNumber(seed);\n        uint256 len = items.length;\n\n        return items[randomNumber % len];\n\n    }\n\n    // Returns the smaller of two values\n    function min(uint a, uint b) private pure returns (uint) {\n        return a < b ? a : b;\n    }\n\n    // Returns the largest of the two values\n    function max(uint a, uint b) private pure returns (uint) {\n        return a > b ? a : b;\n    }\n\n    // Safe Multiply Function - prevents integer overflow \n    function safeMul(uint a, uint b) public returns (uint) {\n        uint c = a * b;\n        assert(a == 0 || c / a == b);\n        return c;\n    }\n\n    // Safe Subtraction Function - prevents integer overflow \n    function safeSub(uint a, uint b) public returns (uint) {\n        assert(b <= a);\n        return a - b;\n    }\n\n    // Safe Addition Function - prevents integer overflow \n    function safeAdd(uint a, uint b) public returns (uint) {\n        uint c = a + b;\n        assert(c>=a && c>=b);\n        return c;\n    }\n}\n",
  "sourcePath": "/Users/max/Documents/prog/game-contracts/contracts/Drop.sol",
  "compiler": {
    "name": "solc",
    "version": "0.8.19+commit.7dd6d404.Emscripten.clang"
  },
  "schemaVersion": "3.4.13",
  "updatedAt": "2023-07-26T15:13:57.970Z",
  "networkType": "ethereum",
  "devdoc": {
    "kind": "dev",
    "methods": {},
    "version": 1
  },
  "userdoc": {
    "kind": "user",
    "methods": {},
    "version": 1
  }
}