{
  "contractName": "DropHelper",
  "abi": [
    {
      "inputs": [
        {
          "internalType": "address",
          "name": "dropAddress",
          "type": "address"
        }
      ],
      "stateMutability": "nonpayable",
      "type": "constructor"
    },
    {
      "inputs": [
        {
          "components": [
            {
              "internalType": "string",
              "name": "name",
              "type": "string"
            },
            {
              "internalType": "uint256",
              "name": "tokenId",
              "type": "uint256"
            },
            {
              "internalType": "uint256",
              "name": "itemLevel",
              "type": "uint256"
            },
            {
              "internalType": "uint256",
              "name": "maxLevel",
              "type": "uint256"
            },
            {
              "internalType": "uint256",
              "name": "additionalDamage",
              "type": "uint256"
            },
            {
              "internalType": "uint256",
              "name": "additionalDefense",
              "type": "uint256"
            },
            {
              "internalType": "uint256",
              "name": "fighterId",
              "type": "uint256"
            },
            {
              "internalType": "uint256",
              "name": "lastUpdBlock",
              "type": "uint256"
            },
            {
              "internalType": "uint256",
              "name": "itemRarityLevel",
              "type": "uint256"
            },
            {
              "internalType": "uint256",
              "name": "packSize",
              "type": "uint256"
            },
            {
              "internalType": "bool",
              "name": "luck",
              "type": "bool"
            },
            {
              "internalType": "bool",
              "name": "skill",
              "type": "bool"
            },
            {
              "internalType": "bool",
              "name": "isPackable",
              "type": "bool"
            },
            {
              "internalType": "bool",
              "name": "isBox",
              "type": "bool"
            },
            {
              "internalType": "bool",
              "name": "isWeapon",
              "type": "bool"
            },
            {
              "internalType": "bool",
              "name": "isArmour",
              "type": "bool"
            },
            {
              "internalType": "bool",
              "name": "isJewel",
              "type": "bool"
            },
            {
              "internalType": "bool",
              "name": "isWings",
              "type": "bool"
            },
            {
              "internalType": "bool",
              "name": "isMisc",
              "type": "bool"
            },
            {
              "internalType": "bool",
              "name": "isConsumable",
              "type": "bool"
            },
            {
              "internalType": "bool",
              "name": "inShop",
              "type": "bool"
            },
            {
              "internalType": "bool",
              "name": "isExcellent",
              "type": "bool"
            },
            {
              "internalType": "uint256",
              "name": "increaseAttackSpeedPoints",
              "type": "uint256"
            },
            {
              "internalType": "uint256",
              "name": "reflectDamagePercent",
              "type": "uint256"
            },
            {
              "internalType": "uint256",
              "name": "restoreHPChance",
              "type": "uint256"
            },
            {
              "internalType": "uint256",
              "name": "restoreMPChance",
              "type": "uint256"
            },
            {
              "internalType": "uint256",
              "name": "doubleDamageChance",
              "type": "uint256"
            },
            {
              "internalType": "uint256",
              "name": "ignoreOpponentDefenseChance",
              "type": "uint256"
            },
            {
              "internalType": "uint256",
              "name": "lifeAfterMonsterIncrease",
              "type": "uint256"
            },
            {
              "internalType": "uint256",
              "name": "manaAfterMonsterIncrease",
              "type": "uint256"
            },
            {
              "internalType": "uint256",
              "name": "excellentDamageProbabilityIncrease",
              "type": "uint256"
            },
            {
              "internalType": "uint256",
              "name": "attackSpeedIncrease",
              "type": "uint256"
            },
            {
              "internalType": "uint256",
              "name": "attackLvl20",
              "type": "uint256"
            },
            {
              "internalType": "uint256",
              "name": "attackIncreasePercent",
              "type": "uint256"
            },
            {
              "internalType": "uint256",
              "name": "defenseSuccessRateIncrease",
              "type": "uint256"
            },
            {
              "internalType": "uint256",
              "name": "goldAfterMonsterIncrease",
              "type": "uint256"
            },
            {
              "internalType": "uint256",
              "name": "reflectDamage",
              "type": "uint256"
            },
            {
              "internalType": "uint256",
              "name": "maxLifeIncrease",
              "type": "uint256"
            },
            {
              "internalType": "uint256",
              "name": "maxManaIncrease",
              "type": "uint256"
            },
            {
              "internalType": "uint256",
              "name": "hpRecoveryRateIncrease",
              "type": "uint256"
            },
            {
              "internalType": "uint256",
              "name": "mpRecoveryRateIncrease",
              "type": "uint256"
            },
            {
              "internalType": "uint256",
              "name": "decreaseDamageRateIncrease",
              "type": "uint256"
            }
          ],
          "internalType": "struct ItemsExcellentAtts.ExcellentItemAtts",
          "name": "itemAtts",
          "type": "tuple"
        }
      ],
      "name": "makeItem",
      "outputs": [
        {
          "internalType": "bytes32",
          "name": "",
          "type": "bytes32"
        }
      ],
      "stateMutability": "nonpayable",
      "type": "function"
    },
    {
      "inputs": [
        {
          "internalType": "uint256",
          "name": "rarityLevel",
          "type": "uint256"
        },
        {
          "components": [
            {
              "internalType": "uint256",
              "name": "weaponsDropRate",
              "type": "uint256"
            },
            {
              "internalType": "uint256",
              "name": "armoursDropRate",
              "type": "uint256"
            },
            {
              "internalType": "uint256",
              "name": "jewelsDropRate",
              "type": "uint256"
            },
            {
              "internalType": "uint256",
              "name": "miscDropRate",
              "type": "uint256"
            },
            {
              "internalType": "uint256",
              "name": "boxDropRate",
              "type": "uint256"
            },
            {
              "internalType": "uint256",
              "name": "excDropRate",
              "type": "uint256"
            },
            {
              "internalType": "uint256",
              "name": "minItemLevel",
              "type": "uint256"
            },
            {
              "internalType": "uint256",
              "name": "maxItemLevel",
              "type": "uint256"
            },
            {
              "internalType": "uint256",
              "name": "maxAddPoints",
              "type": "uint256"
            },
            {
              "internalType": "uint256",
              "name": "blockCrated",
              "type": "uint256"
            }
          ],
          "internalType": "struct Drop.DropParams",
          "name": "params",
          "type": "tuple"
        }
      ],
      "name": "setDropParams",
      "outputs": [],
      "stateMutability": "nonpayable",
      "type": "function"
    },
    {
      "inputs": [
        {
          "internalType": "uint256",
          "name": "rarityLevel",
          "type": "uint256"
        },
        {
          "components": [
            {
              "internalType": "uint256",
              "name": "weaponsDropRate",
              "type": "uint256"
            },
            {
              "internalType": "uint256",
              "name": "armoursDropRate",
              "type": "uint256"
            },
            {
              "internalType": "uint256",
              "name": "jewelsDropRate",
              "type": "uint256"
            },
            {
              "internalType": "uint256",
              "name": "miscDropRate",
              "type": "uint256"
            },
            {
              "internalType": "uint256",
              "name": "boxDropRate",
              "type": "uint256"
            },
            {
              "internalType": "uint256",
              "name": "excDropRate",
              "type": "uint256"
            },
            {
              "internalType": "uint256",
              "name": "minItemLevel",
              "type": "uint256"
            },
            {
              "internalType": "uint256",
              "name": "maxItemLevel",
              "type": "uint256"
            },
            {
              "internalType": "uint256",
              "name": "maxAddPoints",
              "type": "uint256"
            },
            {
              "internalType": "uint256",
              "name": "blockCrated",
              "type": "uint256"
            }
          ],
          "internalType": "struct Drop.DropParams",
          "name": "params",
          "type": "tuple"
        }
      ],
      "name": "setBoxDropParams",
      "outputs": [],
      "stateMutability": "nonpayable",
      "type": "function"
    },
    {
      "inputs": [
        {
          "internalType": "uint256",
          "name": "rarityLevel",
          "type": "uint256"
        },
        {
          "internalType": "uint256",
          "name": "fighterId",
          "type": "uint256"
        },
        {
          "internalType": "uint256",
          "name": "experience",
          "type": "uint256"
        }
      ],
      "name": "dropItem",
      "outputs": [
        {
          "internalType": "bytes32",
          "name": "",
          "type": "bytes32"
        }
      ],
      "stateMutability": "nonpayable",
      "type": "function"
    },
    {
      "inputs": [
        {
          "internalType": "uint256",
          "name": "tokenId",
          "type": "uint256"
        }
      ],
      "name": "openBox",
      "outputs": [
        {
          "internalType": "uint256",
          "name": "",
          "type": "uint256"
        }
      ],
      "stateMutability": "nonpayable",
      "type": "function"
    },
    {
      "inputs": [
        {
          "internalType": "bytes32",
          "name": "itemHash",
          "type": "bytes32"
        }
      ],
      "name": "getDropQty",
      "outputs": [
        {
          "internalType": "uint256",
          "name": "",
          "type": "uint256"
        }
      ],
      "stateMutability": "nonpayable",
      "type": "function"
    },
    {
      "inputs": [
        {
          "internalType": "bytes32",
          "name": "itemHash",
          "type": "bytes32"
        },
        {
          "internalType": "uint256",
          "name": "qty",
          "type": "uint256"
        }
      ],
      "name": "createDropHash",
      "outputs": [],
      "stateMutability": "nonpayable",
      "type": "function"
    }
  ],
  "bytecode": "0x60803461009d57601f610b3338819003918201601f19168301916001600160401b038311848410176100a25780849260209460405283398101031261009d57516001600160a01b0381169081900361009d576064600055601c60015560326002556032600355601e600455601e60055560026006556001600755600060085560018060a01b03196009541617600955604051610a7a90816100b98239f35b600080fd5b634e487b7160e01b600052604160045260246000fdfe608080604052600436101561001357600080fd5b600090813560e01c90816324b9c5951461089a5750806338d7b37b14610852578063571413241461026f578063b1e5e2b714610217578063eceb690214610180578063f108ff2b146100e95763f364750e1461006e57600080fd5b346100d6578061007d36610934565b6009546001600160a01b03169190823b156100e4576100b5928492836040518096819582946379b23a8760e11b8452600484016109d2565b03925af180156100d9576100c65750f35b6100cf906108fe565b6100d65780f35b80fd5b6040513d84823e3d90fd5b505050fd5b50346100d657602090816003193601126100d65760095460405163f108ff2b60e01b815260048035908201529083908290602490829086906001600160a01b03165af19182156101745791610142575b50604051908152f35b90508181813d831161016d575b6101598183610912565b81010312610168575138610139565b600080fd5b503d61014f565b604051903d90823e3d90fd5b50346100d65760603660031901126100d65780602060018060a01b0360095416606460405180958193637675b48160e11b83526004356004840152602435602484015260443560448401525af190811561017457906101e5575b602090604051908152f35b506020813d821161020f575b816101fe60209383610912565b8101031261016857602090516101da565b3d91506101f1565b50346100d657602090816003193601126100d65760095460405163b1e5e2b760e01b815260048035908201529083908290602490829086906001600160a01b03165af191821561017457916101425750604051908152f35b50346100d657600319906020368301126100d65767ffffffffffffffff91826004351161084e5761054090600435360301126100d6576040519161054083018381108282111761083857604052600435600401358181116108345760043501903660238301121561083457600482013590811161082057604051916102fe601f8301601f191660200184610912565b818352366024838301011161081c57602082859694936024879401838601378301015281526004356024810135602083015260448101356040830152606481013560608301526084810135608083015260a481013560a083015260c481013560c083015260e481013560e083015261010481013561010083015261012481013561012083015261039190610144016109c5565b6101408201526103a6610164600435016109c5565b6101608201526103bb610184600435016109c5565b6101808201526103d06101a4600435016109c5565b6101a08201526103e56101c4600435016109c5565b6101c08201526103fa6101e4600435016109c5565b6101e082015261040f610204600435016109c5565b610200820152610424610224600435016109c5565b610220820152610439610244600435016109c5565b61024082015261044e610264600435016109c5565b610260820152610463610284600435016109c5565b6102808201526104786102a4600435016109c5565b6102a0820152600480356102c48101356102c08401526102e48101356102e08401526103048101356103008401526103248101356103208401526103448101356103408401526103648101356103608401526103848101356103808401526103a48101356103a08401526103c48101356103c08401526103e48101356103e08401526104048101356104008401526104248101356104208401526104448101356104408401526104648101356104608401526104848101356104808401526104a48101356104a08401526104c48101356104c08401526104e48101356104e084015261050481013561050084015261052401356105208301526009546040516315c504c960e21b8152602092810192909252825161054060248401528051610564840181905292956001600160a01b039290921693869391835b8381106108005750509161058484836105206020989685858598860101528981015160448501526040810151606485015260608101516084850152608081015160a485015260a081015160c485015260c081015160e485015260e08101516101048501526101008101516101248501526101208101516101448501526101408101511515610164850152610160810151151561018485015261018081015115156101a48501526101a081015115156101c48501526101c081015115156101e48501526101e08101511515610204850152610200810151151561022485015261022081015115156102448501526102408101511515610264850152610260810151151561028485015261028081015115156102a48501526102a081015115156102c48501526102c08101516102e48501526102e08101516103048501526103008101516103248501526103208101516103448501526103408101516103648501526103608101516103848501526103808101516103a48501526103a08101516103c48501526103c08101516103e48501526103e08101516104048501526104008101516104248501526104208101516104448501526104408101516104648501526104608101516104848501526104808101516104a48501526104a08101516104c48501526104c08101516104e48501526104e08101516105048501526105008101516105248501520151610544830152601f801991011681010301925af190811561017457906107e757602090604051908152f35b506020813d60201161020f57816101fe60209383610912565b60208183018101516105848b84010152899650889550016105b2565b8380fd5b634e487b7160e01b83526041600452602483fd5b8280fd5b634e487b7160e01b600052604160045260246000fd5b5080fd5b50346100d6578061086236610934565b6009546001600160a01b03169190823b156100e4576100b5928492836040518096819582946338d7b37b60e01b8452600484016109d2565b90503461084e57604036600319011261084e5760095482906001600160a01b0316803b1561084e576044838381936324b9c59560e01b8352600435600484015260243560248401525af180156100d9576108f2575080f35b6108fb906108fe565b80f35b67ffffffffffffffff811161083857604052565b90601f8019910116810190811067ffffffffffffffff82111761083857604052565b906101606003198301126101685760043591610140809160231901126101685760405190810181811067ffffffffffffffff82111761083857604052602435815260443560208201526064356040820152608435606082015260a435608082015260c43560a082015260e43560c08201526101043560e0820152610124356101008201526101443561012082015290565b3590811515820361016857565b90929161014090610160830194835280516020840152602081015160408401526040810151606084015260608101516080840152608081015160a084015260a081015160c084015260c081015160e084015260e08101516101009081850152810151906101209182850152015191015256fea26469706673582212203eb1974d842867b21576411b1fa8c5a28e159f74a0776d5dac30ecb6072114cb64736f6c63430008130033",
  "immutableReferences": {},
  "source": "// SPDX-License-Identifier: MIT\npragma solidity ^0.8.18;\nimport \"./Drop.sol\";\nimport \"./ItemsExcellentAtts.sol\";\ncontract DropHelper  is ItemsExcellentAtts {\n    Drop private _drop;\n\n    constructor(address dropAddress) {\n        _drop = Drop(dropAddress);\n    }    \n\n    function makeItem(ExcellentItemAtts memory itemAtts) external returns (bytes32) {\n        return _drop.makeItem(itemAtts);\n    }\n\n    function setDropParams(uint256 rarityLevel, Drop.DropParams memory params) external {\n        return _drop.setDropParams(rarityLevel, params);\n    }\n\n    function setBoxDropParams(uint256 rarityLevel, Drop.DropParams memory params) external {\n        return _drop.setBoxDropParams(rarityLevel, params);\n    }\n\n    function dropItem(uint256 rarityLevel, uint256 fighterId, uint256 experience) external returns (bytes32) {\n        return _drop.dropItem(rarityLevel, fighterId, experience);\n    }\n\n    function openBox(uint256 tokenId) external returns (uint256) {\n        return _drop.openBox(tokenId);\n    }\n\n    function getDropQty(bytes32 itemHash) external returns (uint256)  {\n        return _drop.getDropQty(itemHash);\n    }\n\n    function createDropHash(bytes32 itemHash, uint256 qty) external {\n        _drop.createDropHash(itemHash, qty);\n    }\n}",
  "sourcePath": "/Users/max/Documents/prog/game-contracts/contracts/DropHelper.sol",
  "compiler": {
    "name": "solc",
    "version": "0.8.19+commit.7dd6d404.Emscripten.clang"
  },
  "schemaVersion": "3.4.13",
  "updatedAt": "2023-08-13T03:48:15.189Z",
  "networkType": "ethereum",
  "devdoc": {
    "kind": "dev",
    "methods": {},
    "version": 1
  },
  "userdoc": {
    "kind": "user",
    "methods": {},
    "version": 1
  }
}