{
  "contractName": "Drop",
  "abi": [
    {
      "inputs": [
        {
          "internalType": "address",
          "name": "itemsHelperContract",
          "type": "address"
        },
        {
          "internalType": "address",
          "name": "moneyHelperContract",
          "type": "address"
        }
      ],
      "stateMutability": "nonpayable",
      "type": "constructor"
    },
    {
      "anonymous": false,
      "inputs": [
        {
          "indexed": false,
          "internalType": "uint256",
          "name": "rarityLevel",
          "type": "uint256"
        },
        {
          "components": [
            {
              "internalType": "uint256",
              "name": "weaponsDropRate",
              "type": "uint256"
            },
            {
              "internalType": "uint256",
              "name": "armoursDropRate",
              "type": "uint256"
            },
            {
              "internalType": "uint256",
              "name": "jewelsDropRate",
              "type": "uint256"
            },
            {
              "internalType": "uint256",
              "name": "miscDropRate",
              "type": "uint256"
            },
            {
              "internalType": "uint256",
              "name": "boxDropRate",
              "type": "uint256"
            },
            {
              "internalType": "uint256",
              "name": "excDropRate",
              "type": "uint256"
            },
            {
              "internalType": "uint256",
              "name": "minItemLevel",
              "type": "uint256"
            },
            {
              "internalType": "uint256",
              "name": "maxItemLevel",
              "type": "uint256"
            },
            {
              "internalType": "uint256",
              "name": "maxAddPoints",
              "type": "uint256"
            },
            {
              "internalType": "uint256",
              "name": "blockCrated",
              "type": "uint256"
            }
          ],
          "indexed": false,
          "internalType": "struct Drop.DropParams",
          "name": "params",
          "type": "tuple"
        }
      ],
      "name": "BoxDropParametersChange",
      "type": "event"
    },
    {
      "anonymous": false,
      "inputs": [
        {
          "indexed": false,
          "internalType": "uint256",
          "name": "tokenId",
          "type": "uint256"
        },
        {
          "indexed": false,
          "internalType": "uint256",
          "name": "rarityLevel",
          "type": "uint256"
        },
        {
          "indexed": false,
          "internalType": "address",
          "name": "owner",
          "type": "address"
        }
      ],
      "name": "BoxOppened",
      "type": "event"
    },
    {
      "anonymous": false,
      "inputs": [
        {
          "indexed": false,
          "internalType": "uint256",
          "name": "rarityLevel",
          "type": "uint256"
        },
        {
          "components": [
            {
              "internalType": "uint256",
              "name": "weaponsDropRate",
              "type": "uint256"
            },
            {
              "internalType": "uint256",
              "name": "armoursDropRate",
              "type": "uint256"
            },
            {
              "internalType": "uint256",
              "name": "jewelsDropRate",
              "type": "uint256"
            },
            {
              "internalType": "uint256",
              "name": "miscDropRate",
              "type": "uint256"
            },
            {
              "internalType": "uint256",
              "name": "boxDropRate",
              "type": "uint256"
            },
            {
              "internalType": "uint256",
              "name": "excDropRate",
              "type": "uint256"
            },
            {
              "internalType": "uint256",
              "name": "minItemLevel",
              "type": "uint256"
            },
            {
              "internalType": "uint256",
              "name": "maxItemLevel",
              "type": "uint256"
            },
            {
              "internalType": "uint256",
              "name": "maxAddPoints",
              "type": "uint256"
            },
            {
              "internalType": "uint256",
              "name": "blockCrated",
              "type": "uint256"
            }
          ],
          "indexed": false,
          "internalType": "struct Drop.DropParams",
          "name": "params",
          "type": "tuple"
        }
      ],
      "name": "DropParametersChange",
      "type": "event"
    },
    {
      "anonymous": false,
      "inputs": [
        {
          "indexed": false,
          "internalType": "bytes32",
          "name": "itemHash",
          "type": "bytes32"
        },
        {
          "components": [
            {
              "internalType": "string",
              "name": "name",
              "type": "string"
            },
            {
              "internalType": "uint256",
              "name": "tokenId",
              "type": "uint256"
            },
            {
              "internalType": "uint256",
              "name": "itemLevel",
              "type": "uint256"
            },
            {
              "internalType": "uint256",
              "name": "maxLevel",
              "type": "uint256"
            },
            {
              "internalType": "uint256",
              "name": "additionalDamage",
              "type": "uint256"
            },
            {
              "internalType": "uint256",
              "name": "additionalDefense",
              "type": "uint256"
            },
            {
              "internalType": "uint256",
              "name": "fighterId",
              "type": "uint256"
            },
            {
              "internalType": "uint256",
              "name": "lastUpdBlock",
              "type": "uint256"
            },
            {
              "internalType": "uint256",
              "name": "itemRarityLevel",
              "type": "uint256"
            },
            {
              "internalType": "uint256",
              "name": "packSize",
              "type": "uint256"
            },
            {
              "internalType": "bool",
              "name": "luck",
              "type": "bool"
            },
            {
              "internalType": "bool",
              "name": "skill",
              "type": "bool"
            },
            {
              "internalType": "bool",
              "name": "isPackable",
              "type": "bool"
            },
            {
              "internalType": "bool",
              "name": "isBox",
              "type": "bool"
            },
            {
              "internalType": "bool",
              "name": "isWeapon",
              "type": "bool"
            },
            {
              "internalType": "bool",
              "name": "isArmour",
              "type": "bool"
            },
            {
              "internalType": "bool",
              "name": "isJewel",
              "type": "bool"
            },
            {
              "internalType": "bool",
              "name": "isWings",
              "type": "bool"
            },
            {
              "internalType": "bool",
              "name": "isMisc",
              "type": "bool"
            },
            {
              "internalType": "bool",
              "name": "isConsumable",
              "type": "bool"
            },
            {
              "internalType": "bool",
              "name": "inShop",
              "type": "bool"
            },
            {
              "internalType": "bool",
              "name": "isExcellent",
              "type": "bool"
            },
            {
              "internalType": "uint256",
              "name": "increaseAttackSpeedPoints",
              "type": "uint256"
            },
            {
              "internalType": "uint256",
              "name": "reflectDamagePercent",
              "type": "uint256"
            },
            {
              "internalType": "uint256",
              "name": "restoreHPChance",
              "type": "uint256"
            },
            {
              "internalType": "uint256",
              "name": "restoreMPChance",
              "type": "uint256"
            },
            {
              "internalType": "uint256",
              "name": "doubleDamageChance",
              "type": "uint256"
            },
            {
              "internalType": "uint256",
              "name": "ignoreOpponentDefenseChance",
              "type": "uint256"
            },
            {
              "internalType": "uint256",
              "name": "lifeAfterMonsterIncrease",
              "type": "uint256"
            },
            {
              "internalType": "uint256",
              "name": "manaAfterMonsterIncrease",
              "type": "uint256"
            },
            {
              "internalType": "uint256",
              "name": "excellentDamageProbabilityIncrease",
              "type": "uint256"
            },
            {
              "internalType": "uint256",
              "name": "attackSpeedIncrease",
              "type": "uint256"
            },
            {
              "internalType": "uint256",
              "name": "attackLvl20",
              "type": "uint256"
            },
            {
              "internalType": "uint256",
              "name": "attackIncreasePercent",
              "type": "uint256"
            },
            {
              "internalType": "uint256",
              "name": "defenseSuccessRateIncrease",
              "type": "uint256"
            },
            {
              "internalType": "uint256",
              "name": "goldAfterMonsterIncrease",
              "type": "uint256"
            },
            {
              "internalType": "uint256",
              "name": "reflectDamage",
              "type": "uint256"
            },
            {
              "internalType": "uint256",
              "name": "maxLifeIncrease",
              "type": "uint256"
            },
            {
              "internalType": "uint256",
              "name": "maxManaIncrease",
              "type": "uint256"
            },
            {
              "internalType": "uint256",
              "name": "hpRecoveryRateIncrease",
              "type": "uint256"
            },
            {
              "internalType": "uint256",
              "name": "mpRecoveryRateIncrease",
              "type": "uint256"
            },
            {
              "internalType": "uint256",
              "name": "decreaseDamageRateIncrease",
              "type": "uint256"
            }
          ],
          "indexed": false,
          "internalType": "struct ItemsExcellentAtts.ExcellentItemAtts",
          "name": "item",
          "type": "tuple"
        },
        {
          "indexed": false,
          "internalType": "uint256",
          "name": "qty",
          "type": "uint256"
        },
        {
          "indexed": false,
          "internalType": "uint256",
          "name": "tokenId",
          "type": "uint256"
        }
      ],
      "name": "ItemDropped",
      "type": "event"
    },
    {
      "anonymous": false,
      "inputs": [
        {
          "indexed": false,
          "internalType": "uint256",
          "name": "tokenId",
          "type": "uint256"
        },
        {
          "indexed": false,
          "internalType": "uint256",
          "name": "fighterId",
          "type": "uint256"
        },
        {
          "indexed": false,
          "internalType": "uint256",
          "name": "qty",
          "type": "uint256"
        }
      ],
      "name": "ItemPicked",
      "type": "event"
    },
    {
      "inputs": [
        {
          "internalType": "uint256",
          "name": "",
          "type": "uint256"
        }
      ],
      "name": "BoxDropPramsList",
      "outputs": [
        {
          "internalType": "uint256",
          "name": "weaponsDropRate",
          "type": "uint256"
        },
        {
          "internalType": "uint256",
          "name": "armoursDropRate",
          "type": "uint256"
        },
        {
          "internalType": "uint256",
          "name": "jewelsDropRate",
          "type": "uint256"
        },
        {
          "internalType": "uint256",
          "name": "miscDropRate",
          "type": "uint256"
        },
        {
          "internalType": "uint256",
          "name": "boxDropRate",
          "type": "uint256"
        },
        {
          "internalType": "uint256",
          "name": "excDropRate",
          "type": "uint256"
        },
        {
          "internalType": "uint256",
          "name": "minItemLevel",
          "type": "uint256"
        },
        {
          "internalType": "uint256",
          "name": "maxItemLevel",
          "type": "uint256"
        },
        {
          "internalType": "uint256",
          "name": "maxAddPoints",
          "type": "uint256"
        },
        {
          "internalType": "uint256",
          "name": "blockCrated",
          "type": "uint256"
        }
      ],
      "stateMutability": "view",
      "type": "function",
      "constant": true
    },
    {
      "inputs": [
        {
          "internalType": "uint256",
          "name": "",
          "type": "uint256"
        }
      ],
      "name": "DropParamsList",
      "outputs": [
        {
          "internalType": "uint256",
          "name": "weaponsDropRate",
          "type": "uint256"
        },
        {
          "internalType": "uint256",
          "name": "armoursDropRate",
          "type": "uint256"
        },
        {
          "internalType": "uint256",
          "name": "jewelsDropRate",
          "type": "uint256"
        },
        {
          "internalType": "uint256",
          "name": "miscDropRate",
          "type": "uint256"
        },
        {
          "internalType": "uint256",
          "name": "boxDropRate",
          "type": "uint256"
        },
        {
          "internalType": "uint256",
          "name": "excDropRate",
          "type": "uint256"
        },
        {
          "internalType": "uint256",
          "name": "minItemLevel",
          "type": "uint256"
        },
        {
          "internalType": "uint256",
          "name": "maxItemLevel",
          "type": "uint256"
        },
        {
          "internalType": "uint256",
          "name": "maxAddPoints",
          "type": "uint256"
        },
        {
          "internalType": "uint256",
          "name": "blockCrated",
          "type": "uint256"
        }
      ],
      "stateMutability": "view",
      "type": "function",
      "constant": true
    },
    {
      "inputs": [
        {
          "internalType": "bytes32",
          "name": "",
          "type": "bytes32"
        }
      ],
      "name": "dropHashes",
      "outputs": [
        {
          "internalType": "uint256",
          "name": "",
          "type": "uint256"
        }
      ],
      "stateMutability": "view",
      "type": "function",
      "constant": true
    },
    {
      "inputs": [
        {
          "internalType": "uint256",
          "name": "seed",
          "type": "uint256"
        }
      ],
      "name": "getRandomNumber",
      "outputs": [
        {
          "internalType": "uint256",
          "name": "",
          "type": "uint256"
        }
      ],
      "stateMutability": "view",
      "type": "function",
      "constant": true
    },
    {
      "inputs": [
        {
          "internalType": "uint256",
          "name": "seed",
          "type": "uint256"
        },
        {
          "internalType": "uint256",
          "name": "maxNum",
          "type": "uint256"
        }
      ],
      "name": "getRandomNumberMax",
      "outputs": [
        {
          "internalType": "uint256",
          "name": "",
          "type": "uint256"
        }
      ],
      "stateMutability": "view",
      "type": "function",
      "constant": true
    },
    {
      "inputs": [
        {
          "internalType": "uint256",
          "name": "a",
          "type": "uint256"
        },
        {
          "internalType": "uint256",
          "name": "b",
          "type": "uint256"
        }
      ],
      "name": "max",
      "outputs": [
        {
          "internalType": "uint256",
          "name": "",
          "type": "uint256"
        }
      ],
      "stateMutability": "view",
      "type": "function",
      "constant": true
    },
    {
      "inputs": [
        {
          "internalType": "uint256",
          "name": "a",
          "type": "uint256"
        },
        {
          "internalType": "uint256",
          "name": "b",
          "type": "uint256"
        }
      ],
      "name": "min",
      "outputs": [
        {
          "internalType": "uint256",
          "name": "",
          "type": "uint256"
        }
      ],
      "stateMutability": "view",
      "type": "function",
      "constant": true
    },
    {
      "inputs": [
        {
          "internalType": "uint256",
          "name": "a",
          "type": "uint256"
        },
        {
          "internalType": "uint256",
          "name": "b",
          "type": "uint256"
        }
      ],
      "name": "safeAdd",
      "outputs": [
        {
          "internalType": "uint256",
          "name": "",
          "type": "uint256"
        }
      ],
      "stateMutability": "view",
      "type": "function",
      "constant": true
    },
    {
      "inputs": [
        {
          "internalType": "uint256",
          "name": "a",
          "type": "uint256"
        },
        {
          "internalType": "uint256",
          "name": "b",
          "type": "uint256"
        }
      ],
      "name": "safeMul",
      "outputs": [
        {
          "internalType": "uint256",
          "name": "",
          "type": "uint256"
        }
      ],
      "stateMutability": "view",
      "type": "function",
      "constant": true
    },
    {
      "inputs": [
        {
          "internalType": "uint256",
          "name": "a",
          "type": "uint256"
        },
        {
          "internalType": "uint256",
          "name": "b",
          "type": "uint256"
        }
      ],
      "name": "safeSub",
      "outputs": [
        {
          "internalType": "uint256",
          "name": "",
          "type": "uint256"
        }
      ],
      "stateMutability": "view",
      "type": "function",
      "constant": true
    },
    {
      "inputs": [
        {
          "internalType": "string",
          "name": "a",
          "type": "string"
        },
        {
          "internalType": "string",
          "name": "b",
          "type": "string"
        }
      ],
      "name": "stringsEqual",
      "outputs": [
        {
          "internalType": "bool",
          "name": "",
          "type": "bool"
        }
      ],
      "stateMutability": "view",
      "type": "function",
      "constant": true
    },
    {
      "inputs": [
        {
          "components": [
            {
              "internalType": "string",
              "name": "name",
              "type": "string"
            },
            {
              "internalType": "uint256",
              "name": "tokenId",
              "type": "uint256"
            },
            {
              "internalType": "uint256",
              "name": "itemLevel",
              "type": "uint256"
            },
            {
              "internalType": "uint256",
              "name": "maxLevel",
              "type": "uint256"
            },
            {
              "internalType": "uint256",
              "name": "additionalDamage",
              "type": "uint256"
            },
            {
              "internalType": "uint256",
              "name": "additionalDefense",
              "type": "uint256"
            },
            {
              "internalType": "uint256",
              "name": "fighterId",
              "type": "uint256"
            },
            {
              "internalType": "uint256",
              "name": "lastUpdBlock",
              "type": "uint256"
            },
            {
              "internalType": "uint256",
              "name": "itemRarityLevel",
              "type": "uint256"
            },
            {
              "internalType": "uint256",
              "name": "packSize",
              "type": "uint256"
            },
            {
              "internalType": "bool",
              "name": "luck",
              "type": "bool"
            },
            {
              "internalType": "bool",
              "name": "skill",
              "type": "bool"
            },
            {
              "internalType": "bool",
              "name": "isPackable",
              "type": "bool"
            },
            {
              "internalType": "bool",
              "name": "isBox",
              "type": "bool"
            },
            {
              "internalType": "bool",
              "name": "isWeapon",
              "type": "bool"
            },
            {
              "internalType": "bool",
              "name": "isArmour",
              "type": "bool"
            },
            {
              "internalType": "bool",
              "name": "isJewel",
              "type": "bool"
            },
            {
              "internalType": "bool",
              "name": "isWings",
              "type": "bool"
            },
            {
              "internalType": "bool",
              "name": "isMisc",
              "type": "bool"
            },
            {
              "internalType": "bool",
              "name": "isConsumable",
              "type": "bool"
            },
            {
              "internalType": "bool",
              "name": "inShop",
              "type": "bool"
            },
            {
              "internalType": "bool",
              "name": "isExcellent",
              "type": "bool"
            },
            {
              "internalType": "uint256",
              "name": "increaseAttackSpeedPoints",
              "type": "uint256"
            },
            {
              "internalType": "uint256",
              "name": "reflectDamagePercent",
              "type": "uint256"
            },
            {
              "internalType": "uint256",
              "name": "restoreHPChance",
              "type": "uint256"
            },
            {
              "internalType": "uint256",
              "name": "restoreMPChance",
              "type": "uint256"
            },
            {
              "internalType": "uint256",
              "name": "doubleDamageChance",
              "type": "uint256"
            },
            {
              "internalType": "uint256",
              "name": "ignoreOpponentDefenseChance",
              "type": "uint256"
            },
            {
              "internalType": "uint256",
              "name": "lifeAfterMonsterIncrease",
              "type": "uint256"
            },
            {
              "internalType": "uint256",
              "name": "manaAfterMonsterIncrease",
              "type": "uint256"
            },
            {
              "internalType": "uint256",
              "name": "excellentDamageProbabilityIncrease",
              "type": "uint256"
            },
            {
              "internalType": "uint256",
              "name": "attackSpeedIncrease",
              "type": "uint256"
            },
            {
              "internalType": "uint256",
              "name": "attackLvl20",
              "type": "uint256"
            },
            {
              "internalType": "uint256",
              "name": "attackIncreasePercent",
              "type": "uint256"
            },
            {
              "internalType": "uint256",
              "name": "defenseSuccessRateIncrease",
              "type": "uint256"
            },
            {
              "internalType": "uint256",
              "name": "goldAfterMonsterIncrease",
              "type": "uint256"
            },
            {
              "internalType": "uint256",
              "name": "reflectDamage",
              "type": "uint256"
            },
            {
              "internalType": "uint256",
              "name": "maxLifeIncrease",
              "type": "uint256"
            },
            {
              "internalType": "uint256",
              "name": "maxManaIncrease",
              "type": "uint256"
            },
            {
              "internalType": "uint256",
              "name": "hpRecoveryRateIncrease",
              "type": "uint256"
            },
            {
              "internalType": "uint256",
              "name": "mpRecoveryRateIncrease",
              "type": "uint256"
            },
            {
              "internalType": "uint256",
              "name": "decreaseDamageRateIncrease",
              "type": "uint256"
            }
          ],
          "internalType": "struct ItemsExcellentAtts.ExcellentItemAtts",
          "name": "itemAtts",
          "type": "tuple"
        }
      ],
      "name": "makeItem",
      "outputs": [
        {
          "internalType": "bytes32",
          "name": "",
          "type": "bytes32"
        }
      ],
      "stateMutability": "nonpayable",
      "type": "function"
    },
    {
      "inputs": [
        {
          "internalType": "uint256",
          "name": "rarityLevel",
          "type": "uint256"
        },
        {
          "components": [
            {
              "internalType": "uint256",
              "name": "weaponsDropRate",
              "type": "uint256"
            },
            {
              "internalType": "uint256",
              "name": "armoursDropRate",
              "type": "uint256"
            },
            {
              "internalType": "uint256",
              "name": "jewelsDropRate",
              "type": "uint256"
            },
            {
              "internalType": "uint256",
              "name": "miscDropRate",
              "type": "uint256"
            },
            {
              "internalType": "uint256",
              "name": "boxDropRate",
              "type": "uint256"
            },
            {
              "internalType": "uint256",
              "name": "excDropRate",
              "type": "uint256"
            },
            {
              "internalType": "uint256",
              "name": "minItemLevel",
              "type": "uint256"
            },
            {
              "internalType": "uint256",
              "name": "maxItemLevel",
              "type": "uint256"
            },
            {
              "internalType": "uint256",
              "name": "maxAddPoints",
              "type": "uint256"
            },
            {
              "internalType": "uint256",
              "name": "blockCrated",
              "type": "uint256"
            }
          ],
          "internalType": "struct Drop.DropParams",
          "name": "params",
          "type": "tuple"
        }
      ],
      "name": "setDropParams",
      "outputs": [],
      "stateMutability": "nonpayable",
      "type": "function"
    },
    {
      "inputs": [
        {
          "internalType": "uint256",
          "name": "rarityLevel",
          "type": "uint256"
        },
        {
          "components": [
            {
              "internalType": "uint256",
              "name": "weaponsDropRate",
              "type": "uint256"
            },
            {
              "internalType": "uint256",
              "name": "armoursDropRate",
              "type": "uint256"
            },
            {
              "internalType": "uint256",
              "name": "jewelsDropRate",
              "type": "uint256"
            },
            {
              "internalType": "uint256",
              "name": "miscDropRate",
              "type": "uint256"
            },
            {
              "internalType": "uint256",
              "name": "boxDropRate",
              "type": "uint256"
            },
            {
              "internalType": "uint256",
              "name": "excDropRate",
              "type": "uint256"
            },
            {
              "internalType": "uint256",
              "name": "minItemLevel",
              "type": "uint256"
            },
            {
              "internalType": "uint256",
              "name": "maxItemLevel",
              "type": "uint256"
            },
            {
              "internalType": "uint256",
              "name": "maxAddPoints",
              "type": "uint256"
            },
            {
              "internalType": "uint256",
              "name": "blockCrated",
              "type": "uint256"
            }
          ],
          "internalType": "struct Drop.DropParams",
          "name": "params",
          "type": "tuple"
        }
      ],
      "name": "setBoxDropParams",
      "outputs": [],
      "stateMutability": "nonpayable",
      "type": "function"
    },
    {
      "inputs": [
        {
          "internalType": "uint256",
          "name": "tokenId",
          "type": "uint256"
        }
      ],
      "name": "openBox",
      "outputs": [
        {
          "internalType": "uint256",
          "name": "",
          "type": "uint256"
        }
      ],
      "stateMutability": "nonpayable",
      "type": "function"
    },
    {
      "inputs": [
        {
          "internalType": "uint256",
          "name": "rarityLevel",
          "type": "uint256"
        },
        {
          "internalType": "uint256",
          "name": "fighterId",
          "type": "uint256"
        },
        {
          "internalType": "uint256",
          "name": "experience",
          "type": "uint256"
        }
      ],
      "name": "dropItem",
      "outputs": [
        {
          "internalType": "bytes32",
          "name": "",
          "type": "bytes32"
        }
      ],
      "stateMutability": "nonpayable",
      "type": "function"
    },
    {
      "inputs": [
        {
          "internalType": "bytes32",
          "name": "dropHash",
          "type": "bytes32"
        }
      ],
      "name": "getDropQty",
      "outputs": [
        {
          "internalType": "uint256",
          "name": "",
          "type": "uint256"
        }
      ],
      "stateMutability": "nonpayable",
      "type": "function"
    },
    {
      "inputs": [
        {
          "internalType": "bytes32",
          "name": "itemHash",
          "type": "bytes32"
        },
        {
          "internalType": "uint256",
          "name": "qty",
          "type": "uint256"
        }
      ],
      "name": "createDropHash",
      "outputs": [],
      "stateMutability": "nonpayable",
      "type": "function"
    }
  ],
  "bytecode": "0x608034620000bd57601f6200234338819003918201601f19168301916001600160401b03831184841017620000c2578084926040948552833981010312620000bd576200005a60206200005283620000d8565b9201620000d8565b6064600055601c60015560326002556032600355601e600455601e60055560026006556001600755600060085560018060a01b03908160018060a01b031993168360095416176009551690600a541617600a556040516122559081620000ee8239f35b600080fd5b634e487b7160e01b600052604160045260246000fd5b51906001600160a01b0382168203620000bd5756fe608060408181526004908136101561001657600080fd5b600092833560e01c9081629df65b14610bbb5750806313d1995014610b5c57806324b9c59514610b3857806338d7b37b14610a8d57806357141324146107735780636d5433e61461074d5780637ae2b5c71461071f578063a293d1e8146106f7578063b1e5e2b714610453578063b37217a4146103e1578063c6d6f6b114610341578063c864b1eb1461019d578063d05c78da146102db578063d0660b3714610237578063e6cb9013146101f3578063eceb6902146101c5578063f108ff2b1461019d5763f364750e146100e957600080fd5b34610199577f77f2c225a36d18b8e29b84835b3b183235b39e29b7525283d2b2f064df242d5a9161019361011c36610d46565b939092838752600c6020528187209085518255602086015160018301558286015160028301556060860151600383015560808601519082015560a0850151600582015560c0850151600682015560e08501516007820155610100850151600882015560096101208601519101555192839283611005565b0390a180f35b8280fd5b509034610199576020366003190112610199576020928291358152600b845220549051908152f35b5082346101f05760603660031901126101f057506101e96020926044359035611369565b9051908152f35b80fd5b5082346101f05760206102268361020936610c1e565b610215818395936116c8565b93841015908161022c575b5061213b565b51908152f35b905083101585610220565b5082346101f05760203660031901126101f057816102d79184358152600d60205220918254926001810154946002820154906003830154908301546005840154906006850154926007860154946009600888015497015497519a8b9a8b9693909a9998959261012098959261014089019c8952602089015260408801526060870152608086015260a085015260c084015260e08301526101008201520152565b0390f35b5082346101f057506102ec36610c1e565b808293920292801594818504831486171561032c575093610226916020958215610318575b505061213b565b61032491925085611349565b148580610311565b601190634e487b7160e01b6000525260246000fd5b5082346101f05760203660031901126101f057816102d79184358152600c60205220918254926001810154946002820154906003830154908301546005840154906006850154926007860154946009600888015497015497519a8b9a8b9693909a9998959261012098959261014089019c8952602089015260408801526060870152608086015260a085015260c084015260e08301526101008201520152565b5082346101f05760203660031901126101f057508051446020828101918252933560408301524360608084019190915242608084015233901b6bffffffffffffffffffffffff191660a08301526064916104488160b481015b03601f198101835282610cc1565b519020069051908152f35b5082346101f057602092836003193601126106f357600954835163843bd64160e01b81528235818401819052916001600160a01b0391908216908781602481855afa9081156106e95786916106b0575b5015610677578480916024885180948193631f4f5a2360e01b8352888a8401525af190811561066d576000805160206122008339815191529161056591879161064b575b5061010080910180518852600d8a5260098989208a519361050785610c6c565b8154855260018201548d86015260028201548c86015260038201546060860152898201546080860152600582015460a0860152600682015460c0860152600782015460e08601526008820154908501520154610120830152516117c0565b8651888101906060825261059a816105806080820186610e1a565b60018c83015243606083015203601f198101835282610cc1565b519020808752600b89526001888820556105c48851928392835260808b8401526080830190610e1a565b6001898301528760608301520390a16009541690813b1561064757839291602484928751958693849263576cc0f760e01b8452878401525af1801561063d57610611575b50509051908152f35b67ffffffffffffffff821161062a575082528380610608565b634e487b7160e01b835260419052602482fd5b84513d85823e3d90fd5b8380fd5b61066791503d8089833e61065f8183610cc1565b8101906110c9565b896104e7565b86513d87823e3d90fd5b855162461bcd60e51b81528085018890526013602482015272151bdad95b88191bd95cdb89dd08195e1a5cdd606a1b6044820152606490fd5b90508781813d83116106e2575b6106c78183610cc1565b810103126106de576106d890611077565b886104a3565b8580fd5b503d6106bd565b87513d88823e3d90fd5b5080fd5b8382346106f3576020906101e961070d36610c1e565b9061071a8183111561213b565b6117a9565b8382346106f35760209161073236610c1e565b9091508082101561074557509051908152f35b905090610226565b8382346106f35760209161076036610c1e565b9091508082111561074557509051908152f35b508290346106f35760209260031984813601126106475781359067ffffffffffffffff908183116106de57610540908336030112610a89578351926107b784610c39565b828101359182116106de57610a74926107e86000805160206122008339815191529593610524933691840101610cff565b8352602481013588840152604481013586840152606481013560608401526084810135608084015260a481013560a084015260c481013560c084015260e481013560e08401526101048101356101008401526101248101356101208401526108536101448201610dc5565b6101408401526108666101648201610dc5565b6101608401526108796101848201610dc5565b61018084015261088c6101a48201610dc5565b6101a084015261089f6101c48201610dc5565b6101c08401526108b26101e48201610dc5565b6101e08401526108c56102048201610dc5565b6102008401526108d86102248201610dc5565b6102208401526108eb6102448201610dc5565b6102408401526108fe6102648201610dc5565b6102608401526109116102848201610dc5565b6102808401526109246102a48201610dc5565b6102a08401526102c48101356102c08401526102e48101356102e08401526103048101356103008401526103248101356103208401526103448101356103408401526103648101356103608401526103848101356103808401526103a48101356103a08401526103c48101356103c08401526103e48101356103e08401526104048101356104008401526104248101356104208401526104448101356104408401526104648101356104608401526104848101356104808401526104a48101356104a08401526104c48101356104c08401526104e48101356104e0840152610504810135610500840152013561052082015283518681019060608252610a4b81610a316080820186610e1a565b60018983015243606083015203601f198101835282610cc1565b51902094858152600b875260018582205584519283928784526080898501526080840190610e1a565b9060018684015260608301520390a151908152f35b8480fd5b5034610199577f6d62c88c377226267464112cb40b7f6f40d02a22f520078b3513085e828439f991610193610ac136610d46565b939092838752600d6020528187209085518255602086015160018301558286015160028301556060860151600383015560808601519082015560a0850151600582015560c0850151600682015560e08501516007820155610100850151600882015560096101208601519101555192839283611005565b509034610199578160031936011261019957358252600b6020526024359082205580f35b50903461019957816003193601126101995767ffffffffffffffff8135818111610a8957610b8d9036908401610cff565b936024359182116101f0575092610bac610bb292602095369101610cff565b9061219f565b90519015158152f35b8285346101f057506101e9602092610bd236610c1e565b4486840190815260208101929092524360408301524260608084019190915233901b6bffffffffffffffffffffffff1916608083015291610c16816094840161043a565b5190206117b6565b6040906003190112610c34576004359060243590565b600080fd5b610540810190811067ffffffffffffffff821117610c5657604052565b634e487b7160e01b600052604160045260246000fd5b610140810190811067ffffffffffffffff821117610c5657604052565b6040810190811067ffffffffffffffff821117610c5657604052565b60c0810190811067ffffffffffffffff821117610c5657604052565b90601f8019910116810190811067ffffffffffffffff821117610c5657604052565b67ffffffffffffffff8111610c5657601f01601f191660200190565b81601f82011215610c3457803590610d1682610ce3565b92610d246040519485610cc1565b82845260208383010111610c3457816000926020809301838601378301015290565b90610160600319830112610c3457610140600435926023190112610c3457604051610d7081610c6c565b602435815260443560208201526064356040820152608435606082015260a435608082015260c43560a082015260e43560c08201526101043560e0820152610124356101008201526101443561012082015290565b35908115158203610c3457565b60005b838110610de55750506000910152565b8181015183820152602001610dd5565b90602091610e0e81518092818552858086019101610dd2565b601f01601f1916010190565b90610e2e8251610540808452830190610df5565b916020810151602083015260408101516040830152606081015160608301526080810151608083015260a081015160a083015260c081015160c083015260e081015160e0830152610100808201519083015261012080820151908301526101408082015115159083015261016080820151151590830152610180808201511515908301526101a0808201511515908301526101c0808201511515908301526101e08082015115159083015261020080820151151590830152610220808201511515908301526102408082015115159083015261026080820151151590830152610280808201511515908301526102a0808201511515908301526102c080820151908301526102e08082015190830152610300808201519083015261032080820151908301526103408082015190830152610360808201519083015261038080820151908301526103a080820151908301526103c080820151908301526103e08082015190830152610400808201519083015261042080820151908301526104408082015190830152610460808201519083015261048080820151908301526104a080820151908301526104c080820151908301526104e0808201519083015261050080820151908301526105208091015191015290565b90929161014090610160830194835280516020840152602081015160408401526040810151606084015260608101516080840152608081015160a084015260a081015160c084015260c081015160e084015260e081015161010090818501528101519061012091828501520151910152565b51908115158203610c3457565b81601f82011215610c3457805161109a81610ce3565b926110a86040519485610cc1565b81845260208284010111610c34576110c69160208085019101610dd2565b90565b602081830312610c3457805167ffffffffffffffff91828211610c3457019061054082840312610c34576040519261110084610c39565b8251918211610c3457611114918301611084565b82526020810151602083015260408101516040830152606081015160608301526080810151608083015260a081015160a083015260c081015160c083015260e081015160e083015261010080820151908301526101208082015190830152610140611180818301611077565b90830152610160611192818301611077565b908301526101806111a4818301611077565b908301526101a06111b6818301611077565b908301526101c06111c8818301611077565b908301526101e06111da818301611077565b908301526102006111ec818301611077565b908301526102206111fe818301611077565b90830152610240611210818301611077565b90830152610260611222818301611077565b90830152610280611234818301611077565b908301526102a0611246818301611077565b908301526102c080820151908301526102e08082015190830152610300808201519083015261032080820151908301526103408082015190830152610360808201519083015261038080820151908301526103a080820151908301526103c080820151908301526103e08082015190830152610400808201519083015261042080820151908301526104408082015190830152610460808201519083015261048080820151908301526104a080820151908301526104c080820151908301526104e080820151908301526105008082015190830152610520809101519082015290565b6040519061133682610c89565b600482526311dbdb1960e21b6020830152565b8115611353570490565b634e487b7160e01b600052601260045260246000fd5b91909160008181526020600c8152604080832092815161138881610c6c565b8454815260018501548482015260028501548382015260038501549560609687830152600960048701549660809788850152600581015460a0850152600681015460c0850152600781015460e08501526008810154610100850152015480610120840152156116795788156116355790611401916117c0565b94606483518581019044825260c886820152438482015242888201526001600160601b031933851b1660a08201526094815261143c81610ca5565b51902006600190835410611582576114578751610bac611329565b6114d5575b600080516020612200833981519152969798506114c88451868101908482526114a48161148c8d8c830190610e1a565b868a830152438883015203601f198101835282610cc1565b51902098898552600b875282868620558786519889988c8a52890152870190610e1a565b938501528301520390a190565b600a548451630795b70b60e21b8152908690829060049082906001600160a01b03165afa90811561157857849161153d575b506115239060008051602061220083398151915298999a611349565b8082111561153657505b8897965061145c565b905061152d565b90508581813d8311611571575b6115548183610cc1565b810103126106475751600080516020612200833981519152611507565b503d61154a565b85513d86823e3d90fd5b5060095483516321f1ead760e21b815260048101869052600a602482015269456d707479206974656d60b01b604482015298509195509293929085908890606490829084906001600160a01b03165af196871561162b5790856114c881989982946000805160206122008339815191529991611611575b5060085496808751998a998a52890152870190610e1a565b61162591503d8085833e61065f8183610cc1565b386115f9565b82513d87823e3d90fd5b835162461bcd60e51b815260048101869052601b60248201527f457870657269656e6365206d757374206265206e6f6e207a65726f00000000006044820152606490fd5b835162461bcd60e51b815260048101869052602260248201527f4e6f2064726f7020706172616d657465727320666f72207261726974794c6576604482015261195b60f21b6064820152608490fd5b919082018092116116d557565b634e487b7160e01b600052601160045260246000fd5b906020908183820312610c3457825167ffffffffffffffff93848211610c34570181601f82011215610c3457805193808511610c56578460051b906040519561173686840188610cc1565b8652848087019284010193808511610c3457858401925b85841061175e575050505050505090565b8351838111610c34578791611778848480948a0101611084565b81520193019261174d565b6040519061179082610c89565b600a825269456d707479206974656d60b01b6020830152565b919082039182116116d557565b8115611353570690565b9060006105206040516117d281610c39565b606081528260208201528260408201528260608201528260808201528260a08201528260c08201528260e08201528261010082015282610120820152826101408201528261016082015282610180820152826101a0820152826101c0820152826101e08201528261020082015282610220820152826102408201528261026082015282610280820152826102a0820152826102c0820152826102e08201528261030082015282610320820152826103408201528261036082015282610380820152826103a0820152826103c0820152826103e08201528261040082015282610420820152826104408201528261046082015282610480820152826104a0820152826104c0820152826104e08201528261050082015201526064604051446020820152600060408201524360608201524260808201526001600160601b03193360601b1660a08201526094815261192781610ca5565b60208151910120066040820151808210600014611e385750506009546040516303f46b8b60e01b8152600481018490529190600090839060249082906001600160a01b03165afa918215611b0457600092611e13575b506119cc606460405160208101904482528260408201524360608201524260808201526001600160601b03193360601b1660a0820152609481526119c081610ca5565b519020068351906117b6565b8251811015611dfd57611a1a6020600094859360051b0101515b6009546040516321f1ead760e21b8152602060048201529586936001600160a01b0390921692849283916024830190610df5565b03925af1918215611b0457600092611de0575b5081926102008301511580611dd3575b80611dc6575b80611d77575b80611d63575b80611d4f575b611d42575b6101c0830151151580611cf3575b611ce6575b6101a083015115611b725760408301525b6101c08201511590811591611b63575b81611b10575b50611a9d575090565b60095460405163ef5b94d360e01b815260206004820152925060009183916001600160a01b031690829084908290611ad9906024830190610e1a565b03925af1908115611b0457600091611aef575090565b6110c691503d806000833e61065f8183610cc1565b6040513d6000823e3d90fd5b905060a06103e86040516020810190448252600360408201524360608201524260808201526001600160601b03193360601b168482015260948152611b5481610ca5565b51902006910151101538611a94565b6101e083015115159150611a8e565b506102408201511580611cd9575b80611cc5575b80611cb1575b611b96575b611a7e565b60c081018051611bf160646040516020810190448252600460408201524360608201524260808201526001600160601b03193360601b1660a082015260948152611bdf81610ca5565b519020069260e08501519051906117a9565b6001810181116116d557611c12926001611c0c9201906117b6565b906116c8565b60408301526101c082015115611c6457611c2a612158565b61010082015160021c600181018091116116d557611c47916117b6565b6001600160fe1b03811681036116d55760021b6080830152611a7e565b6101e082015115611b9157611c77612158565b61010082015160021c600181018091116116d557611c94916117b6565b6001600160fe1b03811681036116d55760021b60a0830152611a7e565b50611cbf8251610bac611329565b15611b8c565b50611cd38251610bac611783565b15611b86565b5061020082015115611b80565b6001610160840152611a6d565b5060646040516020810190448252600260408201524360608201524260808201526001600160601b03193360601b1660a082015260948152611d3481610ca5565b519020066005541015611a68565b6001610140840152611a5a565b50611d5d8351610bac611329565b15611a55565b50611d718351610bac611783565b15611a4f565b5060646040516020810190448252600160408201524360608201524260808201526001600160601b03193360601b1660a082015260948152611db881610ca5565b519020066004541015611a49565b506101a083015115611a43565b5061024083015115611a3d565b611df69192503d806000833e61065f8183610cc1565b9038611a2d565b634e487b7160e01b600052603260045260246000fd5b611e319192503d806000833e611e298183610cc1565b8101906116eb565b903861197d565b6020830151611e46916116c8565b80821015611f0c575050600954604051639b94680f60e01b8152600481018490529190600090839060249082906001600160a01b03165afa918215611b0457600092611eef575b50611ed160646040516020810190448252606560408201524360608201524260808201526001600160601b03193360601b1660a0820152609481526119c081610ca5565b8251811015611dfd57611a1a6020600094859360051b0101516119e6565b611f059192503d806000833e611e298183610cc1565b9038611e8d565b8251611f17916116c8565b80821015611fbf57505060095460405163e8af18f360e01b8152600481018490529190600090839060249082906001600160a01b03165afa918215611b0457600092611fa2575b50611ed160646040516020810190448252606660408201524360608201524260808201526001600160601b03193360601b1660a0820152609481526119c081610ca5565b611fb89192503d806000833e611e298183610cc1565b9038611f5e565b6060830151611fcd916116c8565b80821015612075575050600954604051630fd8f61760e41b8152600481018490529190600090839060249082906001600160a01b03165afa918215611b0457600092612058575b50611ed160646040516020810190448252606760408201524360608201524260808201526001600160601b03193360601b1660a0820152609481526119c081610ca5565b61206e9192503d806000833e611e298183610cc1565b9038612014565b6080830151612083916116c8565b111561212757600954604051633267f8ab60e01b8152600481018490529190600090839060249082906001600160a01b03165afa918215611b045760009261210a575b50611ed160646040516020810190448252606860408201524360608201524260808201526001600160601b03193360601b1660a0820152609481526119c081610ca5565b6121209192503d806000833e611e298183610cc1565b90386120c6565b60009081611a1a612136611329565b6119e6565b1561214257565b634e487b7160e01b600052600160045260246000fd5b60646040516020810190448252600560408201524360608201524260808201526001600160601b03193360601b1660a08201526094815261219881610ca5565b5190200690565b90604051916020926121cd8482816121c08183019687815193849201610dd2565b8101038084520182610cc1565b519020916121ed6040519182816121c08183019687815193849201610dd2565b519020036121fa57600190565b60009056fe530c2a7485cb5ddaeeab3c317e211403afd5df3130f3904e50da8678a9d53e6ca264697066735822122080ad5ef53948f6d5903784913c91abad6073333db7ec8ce9677e6aa1273a7a2f64736f6c63430008130033",
  "immutableReferences": {},
  "source": "// SPDX-License-Identifier: MIT\npragma solidity ^0.8.10;\n\nimport \"./SafeMath.sol\";\nimport \"./ItemsHelper.sol\";\nimport \"./MoneyHelper.sol\";\n\ncontract Drop is ItemsExcellentAtts, SafeMath {\n    ItemsHelper private _itemsHelper;\n    MoneyHelper private _moneyHelper;\n\n    constructor(address itemsHelperContract, address moneyHelperContract) {     \n        _itemsHelper = ItemsHelper(itemsHelperContract);\n        _moneyHelper = MoneyHelper(moneyHelperContract);\n    }\n\n    mapping (bytes32 => uint256) public dropHashes;\n\n    event ItemDropped(bytes32 itemHash, ExcellentItemAtts item, uint256 qty, uint256 tokenId);\n    event ItemPicked(uint256 tokenId, uint256 fighterId, uint256 qty);\n    event BoxOppened(uint256 tokenId, uint256 rarityLevel, address owner);\n    event DropParametersChange(uint256 rarityLevel, DropParams params);\n    event BoxDropParametersChange(uint256 rarityLevel, DropParams params);\n\n\n    struct DropParams {\n        uint256 weaponsDropRate;\n        uint256 armoursDropRate;\n        uint256 jewelsDropRate;\n        uint256 miscDropRate;\n        uint256 boxDropRate;\n\n        uint256 excDropRate;\n\n        uint256 minItemLevel;\n        uint256 maxItemLevel;\n        uint256 maxAddPoints;\n\n        uint256 blockCrated;\n    }\n\n    mapping (uint256 => DropParams) public DropParamsList; // mapping of rarityLevels to drop parameters\n    mapping (uint256 => DropParams) public BoxDropPramsList; // mapping of rarityLevels to drop parameters\n    \n    // This function is for development and testing only\n    // Should be disabled in Production\n    function makeItem(ExcellentItemAtts memory itemAtts) external returns (bytes32) {\n        bytes32 itemHash = keccak256(abi.encode(itemAtts, 1, block.number));\n        dropHashes[itemHash] = 1;\n        emit ItemDropped(itemHash, itemAtts, 1, 0);\n        return itemHash;\n    }\n\n    function setDropParams(uint256 rarityLevel, DropParams memory params) external {\n        DropParamsList[rarityLevel] = params;\n        emit DropParametersChange(rarityLevel, params);\n    }\n\n    function setBoxDropParams(uint256 rarityLevel, DropParams memory params) external {\n        BoxDropPramsList[rarityLevel] = params;\n        emit BoxDropParametersChange(rarityLevel, params);\n    }\n\n    function openBox(uint256 tokenId) external returns (uint256) {\n        require(_itemsHelper.itemExists(tokenId), \"Token doesn't exist\");\n        ExcellentItemAtts memory box = _itemsHelper.getTokenAttributes(tokenId);\n        DropParams memory params = BoxDropPramsList[box.itemRarityLevel];\n\n        ExcellentItemAtts memory itemAtts = getDropItem(box.itemRarityLevel, params);\n\n        uint256 qty = 1;\n\n        bytes32 itemHash = keccak256(abi.encode(itemAtts, qty, block.number));\n        dropHashes[itemHash] = qty;\n         emit ItemDropped(itemHash, itemAtts, qty, 0);\n        _itemsHelper.burnItem(tokenId);\n       \n    }  \n\n    function dropItem(uint256 rarityLevel, uint256 fighterId, uint256 experience) external returns (bytes32) {\n        DropParams memory params = DropParamsList[rarityLevel];\n        require(params.blockCrated > 0, \"No drop parameters for rarityLevel\");\n        require(experience > 0, \"Experience must be non zero\");\n\n        ExcellentItemAtts memory itemAtts = getDropItem(rarityLevel, params);        \n\n        uint256 randomNumber = getRandomNumber(200);\n\n        uint256 qty = 1;\n\n        if (randomNumber > generalDropRate) {\n            itemAtts = _itemsHelper.getItemAttributes(\"Empty item\");\n            emit ItemDropped(dummyHash, itemAtts, 0, 0);\n            return 0;\n        }\n\n        if (stringsEqual(itemAtts.name, \"Gold\")) {\n            qty = max(1, experience/_moneyHelper.getExperienceDivider());\n        }\n\n        bytes32 itemHash = keccak256(abi.encode(itemAtts, qty, block.number));\n        dropHashes[itemHash] = qty;\n        emit ItemDropped(itemHash, itemAtts, qty, 0);\n        return itemHash;\n    }\n\n\n\n    function getDropItem(uint256 rarityLevel, DropParams memory params) internal returns (ExcellentItemAtts memory) {\n\n        uint256 randomNumber = getRandomNumberMax(0, 100);\n        string memory randomItem;\n        \n        //emit LogDropValues(randomNumber, params.jewelsDropRate, params.weaponsDropRate, params.armoursDropRate, params.miscDropRate, params.boxDropRate);\n        \n        uint256 cumulativeRate = params.jewelsDropRate;\n        if (randomNumber < cumulativeRate) {\n            randomItem = returnRandomItemFromDropList(100, _itemsHelper.getJewels(rarityLevel));\n        } else {\n            cumulativeRate += params.armoursDropRate;\n            if (randomNumber < cumulativeRate) {\n                randomItem = returnRandomItemFromDropList(101, _itemsHelper.getArmours(rarityLevel));\n            } else {\n                cumulativeRate += params.weaponsDropRate;\n                if (randomNumber < cumulativeRate) {\n                    randomItem = returnRandomItemFromDropList(102, _itemsHelper.getWeapons(rarityLevel));\n                } else {\n                    cumulativeRate += params.miscDropRate;\n                    if (randomNumber < cumulativeRate) {\n                        randomItem = returnRandomItemFromDropList(103, _itemsHelper.getMisc(rarityLevel));\n                    } else {\n                        cumulativeRate += params.boxDropRate;\n                        if (randomNumber < cumulativeRate) {\n                            randomItem = returnRandomItemFromDropList(104, _itemsHelper.getBoxes(rarityLevel));\n                        } else {\n                            randomItem = \"Gold\";\n                        }\n                    }\n                }\n            }\n        }\n\n\n        ExcellentItemAtts memory itemAtts = _itemsHelper.getItemAttributes(randomItem);\n\n\n        if (!itemAtts.isJewel && !itemAtts.isMisc && !itemAtts.isBox && getRandomNumber(1) <= luckDropRate && !stringsEqual(itemAtts.name, \"Empty item\") && !stringsEqual(itemAtts.name, \"Gold\")) {\n            itemAtts.luck  = true;\n        }\n\n        if (itemAtts.isWeapon && getRandomNumber(2) <= skillDropRate) {\n            itemAtts.skill  = true;\n        }\n\n        if (itemAtts.isBox) {\n            itemAtts.itemLevel = rarityLevel;\n        } else if (!itemAtts.isMisc && !itemAtts.isJewel && !stringsEqual(itemAtts.name, \"Empty item\") && !stringsEqual(itemAtts.name, \"Gold\")) {\n            itemAtts.itemLevel = params.minItemLevel + getRandomNumber(4) % (params.maxItemLevel-params.minItemLevel+1);\n\n            if (itemAtts.isWeapon) {\n                itemAtts.additionalDamage = 4 * (getRandomNumber(5) % (params.maxAddPoints/4+1));\n            } else if (itemAtts.isArmour) {\n                itemAtts.additionalDefense = 4 * (getRandomNumber(5) % (params.maxAddPoints/4+1));\n            }\n        }\n\n        if ((itemAtts.isWeapon || itemAtts.isArmour) && getRandomNumberMax(3, 1000) <= params.excDropRate) {\n            itemAtts = _itemsHelper.addExcellentOption(itemAtts);\n        }\n\n\n        \n        return itemAtts;  \n    }\n\n\n    \n\n    function getDropQty(bytes32 dropHash) external returns (uint256) {\n        return dropHashes[dropHash];\n    }\n\n    function createDropHash(bytes32 itemHash, uint256 qty) external {\n        dropHashes[itemHash] = qty;\n    }\n\n    function returnRandomItemFromDropList(uint256 seed, string[] memory items) internal returns (string memory) {\n        uint256 randomNumber = getRandomNumber(seed);\n        uint256 len = items.length;\n\n        return items[randomNumber % len];\n\n    }\n\n    \n}\n",
  "sourcePath": "/Users/max/Documents/prog/game-contracts/contracts/Drop.sol",
  "compiler": {
    "name": "solc",
    "version": "0.8.19+commit.7dd6d404.Emscripten.clang"
  },
  "schemaVersion": "3.4.13",
  "updatedAt": "2023-09-03T04:36:07.054Z",
  "networkType": "ethereum",
  "devdoc": {
    "kind": "dev",
    "methods": {},
    "version": 1
  },
  "userdoc": {
    "kind": "user",
    "methods": {},
    "version": 1
  }
}