{
  "contractName": "Fighters",
  "abi": [
    {
      "inputs": [],
      "stateMutability": "nonpayable",
      "type": "constructor"
    },
    {
      "anonymous": false,
      "inputs": [
        {
          "indexed": true,
          "internalType": "address",
          "name": "owner",
          "type": "address"
        },
        {
          "indexed": true,
          "internalType": "address",
          "name": "approved",
          "type": "address"
        },
        {
          "indexed": true,
          "internalType": "uint256",
          "name": "tokenId",
          "type": "uint256"
        }
      ],
      "name": "Approval",
      "type": "event"
    },
    {
      "anonymous": false,
      "inputs": [
        {
          "indexed": true,
          "internalType": "address",
          "name": "owner",
          "type": "address"
        },
        {
          "indexed": true,
          "internalType": "address",
          "name": "operator",
          "type": "address"
        },
        {
          "indexed": false,
          "internalType": "bool",
          "name": "approved",
          "type": "bool"
        }
      ],
      "name": "ApprovalForAll",
      "type": "event"
    },
    {
      "anonymous": false,
      "inputs": [
        {
          "indexed": false,
          "internalType": "uint256",
          "name": "tokenId",
          "type": "uint256"
        },
        {
          "indexed": false,
          "internalType": "address",
          "name": "owner",
          "type": "address"
        },
        {
          "indexed": false,
          "internalType": "string",
          "name": "fighterClass",
          "type": "string"
        },
        {
          "indexed": false,
          "internalType": "string",
          "name": "name",
          "type": "string"
        }
      ],
      "name": "FighterCreated",
      "type": "event"
    },
    {
      "anonymous": false,
      "inputs": [
        {
          "indexed": false,
          "internalType": "uint256",
          "name": "tokenId",
          "type": "uint256"
        },
        {
          "indexed": false,
          "internalType": "uint256",
          "name": "itemId",
          "type": "uint256"
        },
        {
          "indexed": false,
          "internalType": "uint256",
          "name": "slot",
          "type": "uint256"
        }
      ],
      "name": "ItemEquiped",
      "type": "event"
    },
    {
      "anonymous": false,
      "inputs": [
        {
          "indexed": true,
          "internalType": "address",
          "name": "creator",
          "type": "address"
        },
        {
          "indexed": false,
          "internalType": "uint256",
          "name": "tokenId",
          "type": "uint256"
        },
        {
          "indexed": false,
          "internalType": "string",
          "name": "className",
          "type": "string"
        },
        {
          "indexed": false,
          "internalType": "string",
          "name": "npcName",
          "type": "string"
        }
      ],
      "name": "NPCCreated",
      "type": "event"
    },
    {
      "anonymous": false,
      "inputs": [
        {
          "indexed": false,
          "internalType": "uint256",
          "name": "tokenId",
          "type": "uint256"
        },
        {
          "indexed": false,
          "internalType": "uint256",
          "name": "strength",
          "type": "uint256"
        },
        {
          "indexed": false,
          "internalType": "uint256",
          "name": "agility",
          "type": "uint256"
        },
        {
          "indexed": false,
          "internalType": "uint256",
          "name": "energy",
          "type": "uint256"
        },
        {
          "indexed": false,
          "internalType": "uint256",
          "name": "vitality",
          "type": "uint256"
        }
      ],
      "name": "StatsUpdated",
      "type": "event"
    },
    {
      "anonymous": false,
      "inputs": [
        {
          "indexed": true,
          "internalType": "address",
          "name": "from",
          "type": "address"
        },
        {
          "indexed": true,
          "internalType": "address",
          "name": "to",
          "type": "address"
        },
        {
          "indexed": true,
          "internalType": "uint256",
          "name": "tokenId",
          "type": "uint256"
        }
      ],
      "name": "Transfer",
      "type": "event"
    },
    {
      "anonymous": false,
      "inputs": [
        {
          "indexed": false,
          "internalType": "uint256",
          "name": "",
          "type": "uint256"
        }
      ],
      "name": "updateAgilityPerDefence",
      "type": "event"
    },
    {
      "anonymous": false,
      "inputs": [
        {
          "indexed": false,
          "internalType": "uint256",
          "name": "",
          "type": "uint256"
        }
      ],
      "name": "updateEnergyPerDamage",
      "type": "event"
    },
    {
      "anonymous": false,
      "inputs": [
        {
          "indexed": false,
          "internalType": "uint256",
          "name": "",
          "type": "uint256"
        }
      ],
      "name": "updateExperienceDivider",
      "type": "event"
    },
    {
      "anonymous": false,
      "inputs": [
        {
          "indexed": false,
          "internalType": "uint256",
          "name": "",
          "type": "uint256"
        }
      ],
      "name": "updateHealthRegenerationDivider",
      "type": "event"
    },
    {
      "anonymous": false,
      "inputs": [
        {
          "indexed": false,
          "internalType": "uint256",
          "name": "",
          "type": "uint256"
        }
      ],
      "name": "updateManaRegenerationDivider",
      "type": "event"
    },
    {
      "anonymous": false,
      "inputs": [
        {
          "indexed": false,
          "internalType": "uint256",
          "name": "",
          "type": "uint256"
        }
      ],
      "name": "updateMaxExperience",
      "type": "event"
    },
    {
      "anonymous": false,
      "inputs": [
        {
          "indexed": false,
          "internalType": "uint256",
          "name": "",
          "type": "uint256"
        }
      ],
      "name": "updateStrengthPerDamage",
      "type": "event"
    },
    {
      "inputs": [
        {
          "internalType": "string",
          "name": "",
          "type": "string"
        }
      ],
      "name": "FighterClasses",
      "outputs": [
        {
          "internalType": "uint256",
          "name": "baseStrength",
          "type": "uint256"
        },
        {
          "internalType": "uint256",
          "name": "baseAgility",
          "type": "uint256"
        },
        {
          "internalType": "uint256",
          "name": "baseEnergy",
          "type": "uint256"
        },
        {
          "internalType": "uint256",
          "name": "baseVitality",
          "type": "uint256"
        },
        {
          "internalType": "uint256",
          "name": "hpPerVitalityPoint",
          "type": "uint256"
        },
        {
          "internalType": "uint256",
          "name": "manaPerEnergyPoint",
          "type": "uint256"
        },
        {
          "internalType": "uint256",
          "name": "hpIncreasePerLevel",
          "type": "uint256"
        },
        {
          "internalType": "uint256",
          "name": "manaIncreasePerLevel",
          "type": "uint256"
        },
        {
          "internalType": "uint256",
          "name": "statPointsPerLevel",
          "type": "uint256"
        },
        {
          "internalType": "uint256",
          "name": "attackSpeed",
          "type": "uint256"
        },
        {
          "internalType": "uint256",
          "name": "agilityPointsPerSpeed",
          "type": "uint256"
        },
        {
          "internalType": "uint256",
          "name": "isNpc",
          "type": "uint256"
        },
        {
          "internalType": "uint256",
          "name": "dropRarityLevel",
          "type": "uint256"
        }
      ],
      "stateMutability": "view",
      "type": "function",
      "constant": true
    },
    {
      "inputs": [
        {
          "internalType": "address",
          "name": "to",
          "type": "address"
        },
        {
          "internalType": "uint256",
          "name": "tokenId",
          "type": "uint256"
        }
      ],
      "name": "approve",
      "outputs": [],
      "stateMutability": "nonpayable",
      "type": "function"
    },
    {
      "inputs": [
        {
          "internalType": "address",
          "name": "owner",
          "type": "address"
        }
      ],
      "name": "balanceOf",
      "outputs": [
        {
          "internalType": "uint256",
          "name": "",
          "type": "uint256"
        }
      ],
      "stateMutability": "view",
      "type": "function",
      "constant": true
    },
    {
      "inputs": [
        {
          "internalType": "string",
          "name": "className",
          "type": "string"
        }
      ],
      "name": "fighterClassExists",
      "outputs": [
        {
          "internalType": "bool",
          "name": "",
          "type": "bool"
        }
      ],
      "stateMutability": "view",
      "type": "function",
      "constant": true
    },
    {
      "inputs": [
        {
          "internalType": "uint256",
          "name": "tokenId",
          "type": "uint256"
        }
      ],
      "name": "getApproved",
      "outputs": [
        {
          "internalType": "address",
          "name": "",
          "type": "address"
        }
      ],
      "stateMutability": "view",
      "type": "function",
      "constant": true
    },
    {
      "inputs": [
        {
          "internalType": "uint256",
          "name": "seed",
          "type": "uint256"
        }
      ],
      "name": "getRandomNumber",
      "outputs": [
        {
          "internalType": "uint256",
          "name": "",
          "type": "uint256"
        }
      ],
      "stateMutability": "view",
      "type": "function",
      "constant": true
    },
    {
      "inputs": [
        {
          "internalType": "uint256",
          "name": "seed",
          "type": "uint256"
        },
        {
          "internalType": "uint256",
          "name": "maxNum",
          "type": "uint256"
        }
      ],
      "name": "getRandomNumberMax",
      "outputs": [
        {
          "internalType": "uint256",
          "name": "",
          "type": "uint256"
        }
      ],
      "stateMutability": "view",
      "type": "function",
      "constant": true
    },
    {
      "inputs": [
        {
          "internalType": "address",
          "name": "owner",
          "type": "address"
        },
        {
          "internalType": "address",
          "name": "operator",
          "type": "address"
        }
      ],
      "name": "isApprovedForAll",
      "outputs": [
        {
          "internalType": "bool",
          "name": "",
          "type": "bool"
        }
      ],
      "stateMutability": "view",
      "type": "function",
      "constant": true
    },
    {
      "inputs": [
        {
          "internalType": "uint256",
          "name": "a",
          "type": "uint256"
        },
        {
          "internalType": "uint256",
          "name": "b",
          "type": "uint256"
        }
      ],
      "name": "max",
      "outputs": [
        {
          "internalType": "uint256",
          "name": "",
          "type": "uint256"
        }
      ],
      "stateMutability": "view",
      "type": "function",
      "constant": true
    },
    {
      "inputs": [
        {
          "internalType": "uint256",
          "name": "a",
          "type": "uint256"
        },
        {
          "internalType": "uint256",
          "name": "b",
          "type": "uint256"
        }
      ],
      "name": "min",
      "outputs": [
        {
          "internalType": "uint256",
          "name": "",
          "type": "uint256"
        }
      ],
      "stateMutability": "view",
      "type": "function",
      "constant": true
    },
    {
      "inputs": [],
      "name": "name",
      "outputs": [
        {
          "internalType": "string",
          "name": "",
          "type": "string"
        }
      ],
      "stateMutability": "view",
      "type": "function",
      "constant": true
    },
    {
      "inputs": [
        {
          "internalType": "string",
          "name": "",
          "type": "string"
        }
      ],
      "name": "names",
      "outputs": [
        {
          "internalType": "bool",
          "name": "",
          "type": "bool"
        }
      ],
      "stateMutability": "view",
      "type": "function",
      "constant": true
    },
    {
      "inputs": [
        {
          "internalType": "uint256",
          "name": "tokenId",
          "type": "uint256"
        }
      ],
      "name": "ownerOf",
      "outputs": [
        {
          "internalType": "address",
          "name": "",
          "type": "address"
        }
      ],
      "stateMutability": "view",
      "type": "function",
      "constant": true
    },
    {
      "inputs": [
        {
          "internalType": "uint256",
          "name": "a",
          "type": "uint256"
        },
        {
          "internalType": "uint256",
          "name": "b",
          "type": "uint256"
        }
      ],
      "name": "safeAdd",
      "outputs": [
        {
          "internalType": "uint256",
          "name": "",
          "type": "uint256"
        }
      ],
      "stateMutability": "view",
      "type": "function",
      "constant": true
    },
    {
      "inputs": [
        {
          "internalType": "uint256",
          "name": "a",
          "type": "uint256"
        },
        {
          "internalType": "uint256",
          "name": "b",
          "type": "uint256"
        }
      ],
      "name": "safeMul",
      "outputs": [
        {
          "internalType": "uint256",
          "name": "",
          "type": "uint256"
        }
      ],
      "stateMutability": "view",
      "type": "function",
      "constant": true
    },
    {
      "inputs": [
        {
          "internalType": "uint256",
          "name": "a",
          "type": "uint256"
        },
        {
          "internalType": "uint256",
          "name": "b",
          "type": "uint256"
        }
      ],
      "name": "safeSub",
      "outputs": [
        {
          "internalType": "uint256",
          "name": "",
          "type": "uint256"
        }
      ],
      "stateMutability": "view",
      "type": "function",
      "constant": true
    },
    {
      "inputs": [
        {
          "internalType": "address",
          "name": "from",
          "type": "address"
        },
        {
          "internalType": "address",
          "name": "to",
          "type": "address"
        },
        {
          "internalType": "uint256",
          "name": "tokenId",
          "type": "uint256"
        }
      ],
      "name": "safeTransferFrom",
      "outputs": [],
      "stateMutability": "nonpayable",
      "type": "function"
    },
    {
      "inputs": [
        {
          "internalType": "address",
          "name": "from",
          "type": "address"
        },
        {
          "internalType": "address",
          "name": "to",
          "type": "address"
        },
        {
          "internalType": "uint256",
          "name": "tokenId",
          "type": "uint256"
        },
        {
          "internalType": "bytes",
          "name": "data",
          "type": "bytes"
        }
      ],
      "name": "safeTransferFrom",
      "outputs": [],
      "stateMutability": "nonpayable",
      "type": "function"
    },
    {
      "inputs": [
        {
          "internalType": "address",
          "name": "operator",
          "type": "address"
        },
        {
          "internalType": "bool",
          "name": "approved",
          "type": "bool"
        }
      ],
      "name": "setApprovalForAll",
      "outputs": [],
      "stateMutability": "nonpayable",
      "type": "function"
    },
    {
      "inputs": [
        {
          "internalType": "bytes4",
          "name": "interfaceId",
          "type": "bytes4"
        }
      ],
      "name": "supportsInterface",
      "outputs": [
        {
          "internalType": "bool",
          "name": "",
          "type": "bool"
        }
      ],
      "stateMutability": "view",
      "type": "function",
      "constant": true
    },
    {
      "inputs": [],
      "name": "symbol",
      "outputs": [
        {
          "internalType": "string",
          "name": "",
          "type": "string"
        }
      ],
      "stateMutability": "view",
      "type": "function",
      "constant": true
    },
    {
      "inputs": [
        {
          "internalType": "uint256",
          "name": "index",
          "type": "uint256"
        }
      ],
      "name": "tokenByIndex",
      "outputs": [
        {
          "internalType": "uint256",
          "name": "",
          "type": "uint256"
        }
      ],
      "stateMutability": "view",
      "type": "function",
      "constant": true
    },
    {
      "inputs": [
        {
          "internalType": "address",
          "name": "owner",
          "type": "address"
        },
        {
          "internalType": "uint256",
          "name": "index",
          "type": "uint256"
        }
      ],
      "name": "tokenOfOwnerByIndex",
      "outputs": [
        {
          "internalType": "uint256",
          "name": "",
          "type": "uint256"
        }
      ],
      "stateMutability": "view",
      "type": "function",
      "constant": true
    },
    {
      "inputs": [
        {
          "internalType": "uint256",
          "name": "tokenId",
          "type": "uint256"
        }
      ],
      "name": "tokenURI",
      "outputs": [
        {
          "internalType": "string",
          "name": "",
          "type": "string"
        }
      ],
      "stateMutability": "view",
      "type": "function",
      "constant": true
    },
    {
      "inputs": [],
      "name": "totalSupply",
      "outputs": [
        {
          "internalType": "uint256",
          "name": "",
          "type": "uint256"
        }
      ],
      "stateMutability": "view",
      "type": "function",
      "constant": true
    },
    {
      "inputs": [
        {
          "internalType": "address",
          "name": "from",
          "type": "address"
        },
        {
          "internalType": "address",
          "name": "to",
          "type": "address"
        },
        {
          "internalType": "uint256",
          "name": "tokenId",
          "type": "uint256"
        }
      ],
      "name": "transferFrom",
      "outputs": [],
      "stateMutability": "nonpayable",
      "type": "function"
    },
    {
      "inputs": [
        {
          "internalType": "string",
          "name": "className",
          "type": "string"
        },
        {
          "components": [
            {
              "internalType": "uint256",
              "name": "baseStrength",
              "type": "uint256"
            },
            {
              "internalType": "uint256",
              "name": "baseAgility",
              "type": "uint256"
            },
            {
              "internalType": "uint256",
              "name": "baseEnergy",
              "type": "uint256"
            },
            {
              "internalType": "uint256",
              "name": "baseVitality",
              "type": "uint256"
            },
            {
              "internalType": "uint256",
              "name": "hpPerVitalityPoint",
              "type": "uint256"
            },
            {
              "internalType": "uint256",
              "name": "manaPerEnergyPoint",
              "type": "uint256"
            },
            {
              "internalType": "uint256",
              "name": "hpIncreasePerLevel",
              "type": "uint256"
            },
            {
              "internalType": "uint256",
              "name": "manaIncreasePerLevel",
              "type": "uint256"
            },
            {
              "internalType": "uint256",
              "name": "statPointsPerLevel",
              "type": "uint256"
            },
            {
              "internalType": "uint256",
              "name": "attackSpeed",
              "type": "uint256"
            },
            {
              "internalType": "uint256",
              "name": "agilityPointsPerSpeed",
              "type": "uint256"
            },
            {
              "internalType": "uint256",
              "name": "isNpc",
              "type": "uint256"
            },
            {
              "internalType": "uint256",
              "name": "dropRarityLevel",
              "type": "uint256"
            }
          ],
          "internalType": "struct FightersClasses.FightersClassAttributes",
          "name": "atts",
          "type": "tuple"
        }
      ],
      "name": "updateFighterClass",
      "outputs": [],
      "stateMutability": "nonpayable",
      "type": "function"
    },
    {
      "inputs": [
        {
          "internalType": "uint256",
          "name": "tokenId",
          "type": "uint256"
        },
        {
          "internalType": "uint256",
          "name": "strength",
          "type": "uint256"
        },
        {
          "internalType": "uint256",
          "name": "agility",
          "type": "uint256"
        },
        {
          "internalType": "uint256",
          "name": "energy",
          "type": "uint256"
        },
        {
          "internalType": "uint256",
          "name": "vitality",
          "type": "uint256"
        }
      ],
      "name": "updateFighterStats",
      "outputs": [],
      "stateMutability": "nonpayable",
      "type": "function"
    },
    {
      "inputs": [
        {
          "internalType": "uint256",
          "name": "tokenId",
          "type": "uint256"
        }
      ],
      "name": "getMaxStatPoints",
      "outputs": [
        {
          "internalType": "uint256",
          "name": "",
          "type": "uint256"
        }
      ],
      "stateMutability": "view",
      "type": "function",
      "constant": true
    },
    {
      "inputs": [
        {
          "internalType": "uint256",
          "name": "tokenId",
          "type": "uint256"
        }
      ],
      "name": "getTotalUsedStatPoints",
      "outputs": [
        {
          "internalType": "uint256",
          "name": "",
          "type": "uint256"
        }
      ],
      "stateMutability": "view",
      "type": "function",
      "constant": true
    },
    {
      "inputs": [
        {
          "internalType": "address",
          "name": "userAddress",
          "type": "address"
        }
      ],
      "name": "getUserFighters",
      "outputs": [
        {
          "internalType": "uint256[]",
          "name": "",
          "type": "uint256[]"
        }
      ],
      "stateMutability": "view",
      "type": "function",
      "constant": true
    },
    {
      "inputs": [
        {
          "internalType": "address",
          "name": "owner",
          "type": "address"
        },
        {
          "internalType": "string",
          "name": "name",
          "type": "string"
        },
        {
          "internalType": "string",
          "name": "fighterClass",
          "type": "string"
        }
      ],
      "name": "createFighter",
      "outputs": [
        {
          "internalType": "uint256",
          "name": "",
          "type": "uint256"
        }
      ],
      "stateMutability": "nonpayable",
      "type": "function"
    },
    {
      "inputs": [
        {
          "internalType": "string",
          "name": "name",
          "type": "string"
        }
      ],
      "name": "validateFighterName",
      "outputs": [],
      "stateMutability": "view",
      "type": "function",
      "constant": true
    },
    {
      "inputs": [
        {
          "internalType": "string",
          "name": "npcName",
          "type": "string"
        },
        {
          "internalType": "string",
          "name": "className",
          "type": "string"
        },
        {
          "internalType": "address",
          "name": "ownerAddress",
          "type": "address"
        }
      ],
      "name": "createNPC",
      "outputs": [
        {
          "internalType": "uint256",
          "name": "",
          "type": "uint256"
        }
      ],
      "stateMutability": "nonpayable",
      "type": "function"
    },
    {
      "inputs": [
        {
          "internalType": "uint256",
          "name": "tokenId",
          "type": "uint256"
        }
      ],
      "name": "getTokenAttributes",
      "outputs": [
        {
          "components": [
            {
              "internalType": "string",
              "name": "name",
              "type": "string"
            },
            {
              "internalType": "string",
              "name": "class",
              "type": "string"
            },
            {
              "internalType": "uint256",
              "name": "tokenId",
              "type": "uint256"
            },
            {
              "internalType": "uint256",
              "name": "strength",
              "type": "uint256"
            },
            {
              "internalType": "uint256",
              "name": "agility",
              "type": "uint256"
            },
            {
              "internalType": "uint256",
              "name": "energy",
              "type": "uint256"
            },
            {
              "internalType": "uint256",
              "name": "vitality",
              "type": "uint256"
            },
            {
              "internalType": "uint256",
              "name": "experience",
              "type": "uint256"
            },
            {
              "internalType": "uint256",
              "name": "hpPerVitalityPoint",
              "type": "uint256"
            },
            {
              "internalType": "uint256",
              "name": "manaPerEnergyPoint",
              "type": "uint256"
            },
            {
              "internalType": "uint256",
              "name": "hpIncreasePerLevel",
              "type": "uint256"
            },
            {
              "internalType": "uint256",
              "name": "manaIncreasePerLevel",
              "type": "uint256"
            },
            {
              "internalType": "uint256",
              "name": "statPointsPerLevel",
              "type": "uint256"
            },
            {
              "internalType": "uint256",
              "name": "attackSpeed",
              "type": "uint256"
            },
            {
              "internalType": "uint256",
              "name": "agilityPointsPerSpeed",
              "type": "uint256"
            },
            {
              "internalType": "uint256",
              "name": "isNpc",
              "type": "uint256"
            },
            {
              "internalType": "uint256",
              "name": "dropRarityLevel",
              "type": "uint256"
            }
          ],
          "internalType": "struct FightersAtts.Attributes",
          "name": "",
          "type": "tuple"
        }
      ],
      "stateMutability": "view",
      "type": "function",
      "constant": true
    },
    {
      "inputs": [
        {
          "internalType": "uint256",
          "name": "tokenId",
          "type": "uint256"
        }
      ],
      "name": "getOwner",
      "outputs": [
        {
          "internalType": "address",
          "name": "",
          "type": "address"
        }
      ],
      "stateMutability": "view",
      "type": "function",
      "constant": true
    },
    {
      "inputs": [
        {
          "internalType": "uint256",
          "name": "tokenId",
          "type": "uint256"
        }
      ],
      "name": "getDropRarityLevel",
      "outputs": [
        {
          "internalType": "uint256",
          "name": "",
          "type": "uint256"
        }
      ],
      "stateMutability": "view",
      "type": "function",
      "constant": true
    },
    {
      "inputs": [
        {
          "internalType": "uint256",
          "name": "tokenId",
          "type": "uint256"
        },
        {
          "internalType": "uint256",
          "name": "addExp",
          "type": "uint256"
        }
      ],
      "name": "increaseExperience",
      "outputs": [],
      "stateMutability": "nonpayable",
      "type": "function"
    },
    {
      "inputs": [
        {
          "internalType": "uint256",
          "name": "tokenId",
          "type": "uint256"
        }
      ],
      "name": "getMaxHealth",
      "outputs": [
        {
          "internalType": "uint256",
          "name": "",
          "type": "uint256"
        }
      ],
      "stateMutability": "view",
      "type": "function",
      "constant": true
    },
    {
      "inputs": [
        {
          "internalType": "uint256",
          "name": "tokenId",
          "type": "uint256"
        }
      ],
      "name": "getMaxMana",
      "outputs": [
        {
          "internalType": "uint256",
          "name": "",
          "type": "uint256"
        }
      ],
      "stateMutability": "view",
      "type": "function",
      "constant": true
    },
    {
      "inputs": [
        {
          "internalType": "uint256",
          "name": "tokenId",
          "type": "uint256"
        }
      ],
      "name": "getFighterStats",
      "outputs": [
        {
          "components": [
            {
              "internalType": "uint256",
              "name": "tokenId",
              "type": "uint256"
            },
            {
              "internalType": "uint256",
              "name": "maxHealth",
              "type": "uint256"
            },
            {
              "internalType": "uint256",
              "name": "maxMana",
              "type": "uint256"
            },
            {
              "internalType": "uint256",
              "name": "level",
              "type": "uint256"
            },
            {
              "internalType": "uint256",
              "name": "exp",
              "type": "uint256"
            },
            {
              "internalType": "uint256",
              "name": "totalStatPoints",
              "type": "uint256"
            },
            {
              "internalType": "uint256",
              "name": "maxStatPoints",
              "type": "uint256"
            }
          ],
          "internalType": "struct FightersAtts.FighterStats",
          "name": "",
          "type": "tuple"
        }
      ],
      "stateMutability": "view",
      "type": "function",
      "constant": true
    },
    {
      "inputs": [
        {
          "internalType": "uint256",
          "name": "tokenId",
          "type": "uint256"
        }
      ],
      "name": "getExperience",
      "outputs": [
        {
          "internalType": "uint256",
          "name": "",
          "type": "uint256"
        }
      ],
      "stateMutability": "view",
      "type": "function",
      "constant": true
    },
    {
      "inputs": [
        {
          "internalType": "uint256",
          "name": "tokenId",
          "type": "uint256"
        }
      ],
      "name": "getLevel",
      "outputs": [
        {
          "internalType": "uint256",
          "name": "",
          "type": "uint256"
        }
      ],
      "stateMutability": "view",
      "type": "function",
      "constant": true
    },
    {
      "inputs": [
        {
          "internalType": "uint256",
          "name": "level",
          "type": "uint256"
        }
      ],
      "name": "getExpFromLevel",
      "outputs": [
        {
          "internalType": "uint256",
          "name": "",
          "type": "uint256"
        }
      ],
      "stateMutability": "view",
      "type": "function",
      "constant": true
    },
    {
      "inputs": [
        {
          "internalType": "uint256",
          "name": "val",
          "type": "uint256"
        }
      ],
      "name": "setHealthRegenerationDivider",
      "outputs": [],
      "stateMutability": "nonpayable",
      "type": "function"
    },
    {
      "inputs": [
        {
          "internalType": "uint256",
          "name": "val",
          "type": "uint256"
        }
      ],
      "name": "setManaRegenerationDivider",
      "outputs": [],
      "stateMutability": "nonpayable",
      "type": "function"
    },
    {
      "inputs": [
        {
          "internalType": "uint256",
          "name": "val",
          "type": "uint256"
        }
      ],
      "name": "setAgilityPerDefence",
      "outputs": [],
      "stateMutability": "nonpayable",
      "type": "function"
    },
    {
      "inputs": [
        {
          "internalType": "uint256",
          "name": "val",
          "type": "uint256"
        }
      ],
      "name": "setStrengthPerDamage",
      "outputs": [],
      "stateMutability": "nonpayable",
      "type": "function"
    },
    {
      "inputs": [
        {
          "internalType": "uint256",
          "name": "val",
          "type": "uint256"
        }
      ],
      "name": "setEnergyPerDamage",
      "outputs": [],
      "stateMutability": "nonpayable",
      "type": "function"
    },
    {
      "inputs": [
        {
          "internalType": "uint256",
          "name": "val",
          "type": "uint256"
        }
      ],
      "name": "setMaxExperience",
      "outputs": [],
      "stateMutability": "nonpayable",
      "type": "function"
    },
    {
      "inputs": [
        {
          "internalType": "uint256",
          "name": "val",
          "type": "uint256"
        }
      ],
      "name": "setExperienceDivider",
      "outputs": [],
      "stateMutability": "nonpayable",
      "type": "function"
    }
  ],
  "bytecode": "0x60806040526008600f55600860105560046011556008601255600860135563115d88a460145560056015553480156200003757600080fd5b50604051806040016040528060058152602001644d5249555360d81b815250604051806040016040528060078152602001662334b3b43a32b960c91b815250816000908162000087919062000315565b50600162000096828262000315565b5050506200012e604051806040016040528060078152602001662bb0b93934b7b960c91b815250604051806101a00160405280602a81526020016015815260200160058152602001601481526020016005815260200160058152602001600581526020016001815260200160058152602001601b815260200160078152602001600081526020016000815250620001c860201b60201c565b620001c26040518060400160405280600681526020016515da5e985c9960d21b815250604051806101a00160405280600f815260200160148152602001603281526020016014815260200160038152602001600a81526020016003815260200160058152602001600581526020016010815260200160058152602001600081526020016000815250620001c860201b60201c565b62000412565b80600a83604051620001db9190620003e1565b9081526040805160209281900383019020835181559183015160018301558201516002820155606082015160038201556080820151600482015560a0820151600582015560c0820151600682015560e0820151600782015561010082015160088201556101208201516009820155610140820151600a820155610160820151600b82015561018090910151600c909101555050565b634e487b7160e01b600052604160045260246000fd5b600181811c908216806200029b57607f821691505b602082108103620002bc57634e487b7160e01b600052602260045260246000fd5b50919050565b601f8211156200031057600081815260208120601f850160051c81016020861015620002eb5750805b601f850160051c820191505b818110156200030c57828155600101620002f7565b5050505b505050565b81516001600160401b0381111562000331576200033162000270565b620003498162000342845462000286565b84620002c2565b602080601f831160018114620003815760008415620003685750858301515b600019600386901b1c1916600185901b1785556200030c565b600085815260208120601f198616915b82811015620003b25788860151825594840194600190910190840162000391565b5085821015620003d15787850151600019600388901b60f8161c191681555b5050505050600190811b01905550565b6000825160005b81811015620004045760208186018101518583015201620003e8565b506000920191825250919050565b613d0780620004226000396000f3fe608060405234801561001057600080fd5b50600436106102f05760003560e01c80636d9cbb4e1161019d578063c320864f116100e9578063d05c78da116100a2578063e6cb90131161007c578063e6cb901314610808578063e9366bb01461081b578063e985e9c51461082e578063f04968be1461086a57600080fd5b8063d05c78da146107cf578063d1e5ef57146107e2578063d20a53c8146107f557600080fd5b8063c320864f1461067e578063c41a360a14610763578063c77daef614610776578063c87b56dd14610789578063cb0830411461079c578063cd00ff62146107af57600080fd5b806395d89b4111610156578063a32b560d11610130578063a32b560d14610632578063b1ca210614610645578063b37217a414610658578063b88d4fde1461066b57600080fd5b806395d89b4114610604578063a22cb4651461060c578063a293d1e81461061f57600080fd5b80636d9cbb4e1461057757806370a082311461058a578063745bd4531461059d5780637ae2b5c7146105b0578063822fbf58146105c357806386481d40146105f157600080fd5b80632f745c591161025c5780634f6ccce7116102155780636599273f116101ef5780636599273f1461052b578063688f30ac1461053e5780636ae15f76146105515780636d5433e61461056457600080fd5b80634f6ccce71461049c57806355af86c4146104af5780636352211e1461051857600080fd5b80632f745c591461041a578063377c5eee1461042d57806339f4fa5f1461044057806342842e0e1461046357806343c6916b146104765780634eecf3421461048957600080fd5b806317a40576116102ae57806317a40576146103a657806318160ddd146103b95780631f4f5a23146103c15780631fa783cd146103e157806323b872dd146103f4578063243a7c7b1461040757600080fd5b80629df65b146102f557806301ffc9a71461031b57806306fdde031461033e578063081812fc14610353578063095ea7b31461037e5780630b1f15cd14610393575b600080fd5b610308610303366004612f73565b61087d565b6040519081526020015b60405180910390f35b61032e610329366004612fab565b6108c7565b6040519015158152602001610312565b6103466108ec565b6040516103129190613018565b61036661036136600461302b565b61097e565b6040516001600160a01b039091168152602001610312565b61039161038c36600461305b565b6109a5565b005b6103916103a136600461302b565b610abf565b6103916103b436600461302b565b610afb565b600854610308565b6103d46103cf36600461302b565b610b30565b6040516103129190613085565b6103086103ef3660046131cd565b61101a565b61039161040236600461324d565b61130f565b610391610415366004612f73565b611340565b61030861042836600461305b565b6113a2565b61032e61043b36600461335d565b611438565b61030861044e36600461302b565b6000908152600c602052604090206010015490565b61039161047136600461324d565b611471565b61030861048436600461302b565b61148c565b610308610497366004613391565b6114de565b6103086104aa36600461302b565b611617565b6104c26104bd36600461302b565b6116aa565b6040516103129190600060e082019050825182526020830151602083015260408301516040830152606083015160608301526080830151608083015260a083015160a083015260c083015160c083015292915050565b61036661052636600461302b565b61177a565b61039161053936600461302b565b6117da565b61039161054c36600461302b565b61180f565b61039161055f36600461302b565b611844565b610308610572366004612f73565b611879565b61030861058536600461302b565b61188f565b610308610598366004613411565b611966565b6103916105ab36600461302b565b6119ec565b6103086105be366004612f73565b611a21565b61032e6105d136600461335d565b8051602081830181018051600d8252928201919093012091525460ff1681565b6103086105ff36600461302b565b611a30565b610346611aa2565b61039161061a36600461342c565b611ab1565b61030861062d366004612f73565b611ac0565b610391610640366004613468565b611adc565b61030861065336600461302b565b611c91565b61030861066636600461302b565b611cce565b6103916106793660046134a9565b611d0f565b61070161068c36600461335d565b8051602081830181018051600a80835293830192909401919091209290528154600183015460028401546003850154600486015460058701546006880154600789015460088a015460098b0154998b0154600b8c0154600c909c0154999b989a9799969895979496939592949193919290918d565b604080519d8e5260208e019c909c529a8c019990995260608b019790975260808a019590955260a089019390935260c088019190915260e08701526101008601526101208501526101408401526101608301526101808201526101a001610312565b61036661077136600461302b565b611d47565b61030861078436600461302b565b611d52565b61034661079736600461302b565b611e1d565b6103916107aa36600461302b565b611e90565b6107c26107bd366004613411565b611ec5565b6040516103129190613524565b6103086107dd366004612f73565b611f66565b6103916107f0366004613568565b611f96565b61030861080336600461302b565b61226d565b610308610816366004612f73565b61229d565b6103916108293660046135a3565b6122c7565b61032e61083c366004613691565b6001600160a01b03918216600090815260056020908152604080832093909416825291909152205460ff1690565b61030861087836600461302b565b61236d565b60008044844342336040516020016108999594939291906136c4565b60408051601f19818403018152919052805160209091012090506108bd8382613711565b9150505b92915050565b60006001600160e01b0319821663780e9d6360e01b14806108c157506108c1826123a2565b6060600080546108fb90613725565b80601f016020809104026020016040519081016040528092919081815260200182805461092790613725565b80156109745780601f1061094957610100808354040283529160200191610974565b820191906000526020600020905b81548152906001019060200180831161095757829003601f168201915b5050505050905090565b6000610989826123f2565b506000908152600460205260409020546001600160a01b031690565b60006109b08261177a565b9050806001600160a01b0316836001600160a01b031603610a225760405162461bcd60e51b815260206004820152602160248201527f4552433732313a20617070726f76616c20746f2063757272656e74206f776e656044820152603960f91b60648201526084015b60405180910390fd5b336001600160a01b0382161480610a3e5750610a3e813361083c565b610ab05760405162461bcd60e51b815260206004820152603d60248201527f4552433732313a20617070726f76652063616c6c6572206973206e6f7420746f60448201527f6b656e206f776e6572206f7220617070726f76656420666f7220616c6c0000006064820152608401610a19565b610aba8383612445565b505050565b60128190556040518181527f2709c3545e934f71bad88a10628cfcb26544abef6d319e025dafcfaa8ecd371b906020015b60405180910390a150565b60138190556040518181527f8bc6f507740334e03eb54c47352da054221b790b05465e2e8abf2c6e2bd9fd1090602001610af0565b610bb760405180610220016040528060608152602001606081526020016000815260200160008152602001600081526020016000815260200160008152602001600081526020016000815260200160008152602001600081526020016000815260200160008152602001600081526020016000815260200160008152602001600081525090565b610bc0826124b3565b610bdc5760405162461bcd60e51b8152600401610a1990613759565b6000828152600c602052604080822081516102208101909252805482908290610c0490613725565b80601f0160208091040260200160405190810160405280929190818152602001828054610c3090613725565b8015610c7d5780601f10610c5257610100808354040283529160200191610c7d565b820191906000526020600020905b815481529060010190602001808311610c6057829003601f168201915b50505050508152602001600182018054610c9690613725565b80601f0160208091040260200160405190810160405280929190818152602001828054610cc290613725565b8015610d0f5780601f10610ce457610100808354040283529160200191610d0f565b820191906000526020600020905b815481529060010190602001808311610cf257829003601f168201915b505050505081526020016002820154815260200160038201548152602001600482015481526020016005820154815260200160068201548152602001600782015481526020016008820154815260200160098201548152602001600a8201548152602001600b8201548152602001600c8201548152602001600d8201548152602001600e8201548152602001600f82015481526020016010820154815250509050610de18160600151600a8360200151604051610dcc9190613787565b9081526040519081900360200190205461229d565b606082015260808101516020820151604051610e1c9291600a91610e059190613787565b90815260200160405180910390206001015461229d565b608082015260a08101516020820151604051610e579291600a91610e409190613787565b90815260200160405180910390206002015461229d565b60a082015260c08101516020820151604051610e929291600a91610e7b9190613787565b90815260200160405180910390206003015461229d565b60c08201526020810151604051600a91610eab91613787565b90815260200160405180910390206004015481610100018181525050600a8160200151604051610edb9190613787565b90815260200160405180910390206005015481610120018181525050600a8160200151604051610f0b9190613787565b90815260200160405180910390206006015481610140018181525050600a8160200151604051610f3b9190613787565b90815260200160405180910390206008015481610180018181525050600a8160200151604051610f6b9190613787565b908152602001604051809103902060090154816101a0018181525050600a8160200151604051610f9b9190613787565b9081526020016040518091039020600a0154816101c0018181525050600a8160200151604051610fcb9190613787565b9081526020016040518091039020600b0154816101e0018181525050600a8160200151604051610ffb9190613787565b908152604051908190036020019020600c015461020082015292915050565b600061105b83838080601f01602080910402602001604051908101604052809392919081815260200183838082843760009201919091525061143892505050565b61109f5760405162461bcd60e51b8152602060048201526015602482015274496e76616c6964206669676874657220636c61737360581b6044820152606401610a19565b6110a98585611adc565b6110b7600e80546001019055565b60006110c2600e5490565b90507fb7197fa40ee24f2a1e922164952a047abc5001df3d3c8d254bde064b6b589de6818886868a8a6040516110fd969594939291906137cc565b60405180910390a161110f87826124d0565b60405180610220016040528087878080601f016020809104026020016040519081016040528093929190818152602001838380828437600092019190915250505090825250604080516020601f880181900481028201810190925286815291810191908790879081908401838280828437600092018290525093855250505060208083018590526040808401839052606084018390526080840183905260a0840183905260c0840183905260e08401839052610100840183905261012084018390526101408401839052610160840183905261018084018390526101a084018390526101c084018390526101e0909301829052848252600c905220815181906112189082613865565b506020820151600182019061122d9082613865565b5060408201518160020155606082015181600301556080820151816004015560a0820151816005015560c0820151816006015560e082015181600701556101008201518160080155610120820151816009015561014082015181600a015561016082015181600b015561018082015181600c01556101a082015181600d01556101c082015181600e01556101e082015181600f015561020082015181601001559050506001600d87876040516112e4929190613924565b908152604051908190036020019020805491151560ff19909216919091179055905095945050505050565b61131933826124ea565b6113355760405162461bcd60e51b8152600401610a1990613934565b610aba838383612568565b611349826124b3565b6113655760405162461bcd60e51b8152600401610a1990613759565b6014546000838152600c602052604090206007015461138991906105be908461229d565b6000928352600c60205260409092206007019190915550565b60006113ad83611966565b821061140f5760405162461bcd60e51b815260206004820152602b60248201527f455243373231456e756d657261626c653a206f776e657220696e646578206f7560448201526a74206f6620626f756e647360a81b6064820152608401610a19565b506001600160a01b03919091166000908152600660209081526040808320938352929052205490565b6000600a8260405161144a9190613787565b9081526040519081900360200190205460000361146957506000919050565b506001919050565b610aba83838360405180602001604052806000815250611d0f565b6000806114d761149b84611a30565b600a600c60008781526020019081526020016000206001016040516114c09190613981565b908152602001604051809103902060080154611f66565b9392505050565b60006114ea8686611adc565b6114f8600e80546001019055565b6000611503600e5490565b905061150f83826124d0565b6000818152600c602052604090206002810182905561152f8789836139f7565b506000818152600c6020526040902060010161154c8587836139f7565b50611579600a8686604051611562929190613924565b9081526020016040518091039020600c015461236d565b6000828152600c6020526040908190206007019190915551600190600d906115a4908a908a90613924565b908152604051908190036020018120805492151560ff19909316929092179091556001600160a01b038416907f0bc842a38419931e57661b949472cca48dca9a1cde6afb0c6c7fe1b82bdb8725906116059084908b908b908b908b90613ab6565b60405180910390a29695505050505050565b600061162260085490565b82106116855760405162461bcd60e51b815260206004820152602c60248201527f455243373231456e756d657261626c653a20676c6f62616c20696e646578206f60448201526b7574206f6620626f756e647360a01b6064820152608401610a19565b6008828154811061169857611698613aef565b90600052602060002001549050919050565b6116ea6040518060e00160405280600081526020016000815260200160008152602001600081526020016000815260200160008152602001600081525090565b6116f3826124b3565b61170f5760405162461bcd60e51b8152600401610a1990613759565b60006040518060e0016040528084815260200161172b85611d52565b81526020016117398561188f565b815260200161174785611a30565b815260200161175585611c91565b81526020016117638561226d565b81526020016117718561148c565b90529392505050565b6000818152600260205260408120546001600160a01b0316806108c15760405162461bcd60e51b8152602060048201526018602482015277115490cdcc8c4e881a5b9d985b1a59081d1bdad95b88125160421b6044820152606401610a19565b60118190556040518181527f8e5252d2d2f885f4bae3553bbe34c3630f9274028f3c343ce0eac0dd710c6a0390602001610af0565b60148190556040518181527f8b92a2a371ec2af95aa1740562d5031b28f403d2780beaecdce6befd43667fb890602001610af0565b60108190556040518181527f0665124c1d0c6d84ba8a4d99cb0c2a03455171ce7503623c6cceb9da5bbd7a9190602001610af0565b600081831161188857816114d7565b5090919050565b600061189a826124b3565b6118b65760405162461bcd60e51b8152600401610a1990613759565b6000806000600a600c60008781526020019081526020016000206001016040516118e09190613981565b9081526020016040518091039020600701549250600a600c60008781526020019081526020016000206001016040516119199190613981565b908152602001604051809103902060050154915061195d61195083600c600089815260200190815260200160002060050154611f66565b610816856107dd89611a30565b95945050505050565b60006001600160a01b0382166119d05760405162461bcd60e51b815260206004820152602960248201527f4552433732313a2061646472657373207a65726f206973206e6f7420612076616044820152683634b21037bbb732b960b91b6064820152608401610a19565b506001600160a01b031660009081526003602052604090205490565b60158190556040518181527f0dbed17fa1cbd28e0338d43e05619d042b9ca1ac23a9d5383ebe0ab7049ff16e90602001610af0565b600081831061188857816114d7565b6000611a3b826124b3565b611a575760405162461bcd60e51b8152600401610a1990613759565b6000828152600c6020526040902060070154601554600a90611a9890611a9190611a8c90611a859086611f66565b607d61229d565b6126d9565b6005611ac0565b6114d79190613b1b565b6060600180546108fb90613725565b611abc338383612749565b5050565b600082821115611ad257611ad2613b2f565b6114d78284613b45565b600d8282604051611aee929190613924565b9081526040519081900360200190205460ff1615611b3b5760405162461bcd60e51b815260206004820152600a6024820152692730b6b2903a30b5b2b760b11b6044820152606401610a19565b600d811115611b7c5760405162461bcd60e51b815260206004820152600d60248201526c4e616d6520746f6f206c6f6e6760981b6044820152606401610a19565b60005b81811015610aba576000838383818110611b9b57611b9b613aef565b909101356001600160f81b031916915050600360fc1b8110801590611bce5750603960f81b6001600160f81b0319821611155b80611c005750604160f81b6001600160f81b0319821610801590611c005750602d60f91b6001600160f81b0319821611155b80611c325750606160f81b6001600160f81b0319821610801590611c325750603d60f91b6001600160f81b0319821611155b611c7e5760405162461bcd60e51b815260206004820181905260248201527f4e616d6520636f6e7461696e7320696e76616c696420636861726163746572736044820152606401610a19565b5080611c8981613b58565b915050611b7f565b6000611c9c826124b3565b611cb85760405162461bcd60e51b8152600401610a1990613759565b506000908152600c602052604090206007015490565b6000804483434233604051602001611cea9594939291906136c4565b60408051601f19818403018152919052805160209091012090506114d7606482613711565b611d1933836124ea565b611d355760405162461bcd60e51b8152600401610a1990613934565b611d4184848484612817565b50505050565b60006108c18261177a565b6000611d5d826124b3565b611d795760405162461bcd60e51b8152600401610a1990613759565b6000806000600a600c6000878152602001908152602001600020600101604051611da39190613981565b9081526020016040518091039020600601549250600a600c6000878152602001908152602001600020600101604051611ddc9190613981565b908152602001604051809103902060040154915061195d611e00846107dd88611a30565b6000878152600c6020526040902060060154610816908590611f66565b6060611e28826123f2565b6000611e3f60408051602081019091526000815290565b90506000815111611e5f57604051806020016040528060008152506114d7565b80611e698461284a565b604051602001611e7a929190613b71565b6040516020818303038152906040529392505050565b600f8190556040518181527f3dc2199ccebb6b521944bbb446fd55ec36fc6b23c37808e7304ac55d535d3ac490602001610af0565b60606000611ed283611966565b90506000816001600160401b03811115611eee57611eee613289565b604051908082528060200260200182016040528015611f17578160200160208202803683370190505b50905060005b82811015611f5e57611f2f85826113a2565b828281518110611f4157611f41613aef565b602090810291909101015280611f5681613b58565b915050611f1d565b509392505050565b600080611f738385613ba0565b9050831580611f8a575082611f888583613b1b565b145b6114d7576114d7613b2f565b33611fa08661177a565b6001600160a01b031614611fe65760405162461bcd60e51b815260206004820152600d60248201526c1058d8d95cdcc811195b9a5959609a1b6044820152606401610a19565b6000858152600c60205260409020600301548410156120475760405162461bcd60e51b815260206004820152601b60248201527f537472656e6774682063616e27742062652064656372656173656400000000006044820152606401610a19565b6000858152600c60205260409020600401548310156120a85760405162461bcd60e51b815260206004820152601a60248201527f4167696c6974792063616e2774206265206465637265617365640000000000006044820152606401610a19565b6000858152600c60205260409020600501548210156121095760405162461bcd60e51b815260206004820152601960248201527f456e657267792063616e277420626520646563726561736564000000000000006044820152606401610a19565b6000858152600c602052604090206006015481101561216a5760405162461bcd60e51b815260206004820152601b60248201527f566974616c6974792063616e27742062652064656372656173656400000000006044820152606401610a19565b60006121758661148c565b905060006121828761226d565b905060006121988761081688610816898961229d565b9050828111156121ea5760405162461bcd60e51b815260206004820152601e60248201527f547279696e6720746f6f2061646420746f6f206d616e7920706f696e747300006044820152606401610a19565b6000888152600c6020908152604091829020600381018a9055600481018990556005810188905560060186905581518a815290810189905290810187905260608101869052608081018590527f9e28895821cef6daa08da1e82406e8be9675974fd115ccca84e332e6c15cff8f9060a00160405180910390a15050505050505050565b6000818152600c602052604081206003810154600482015460058301546006909301546108c19361081692918391905b6000806122aa8385613bb7565b9050838110158015611f8a5750828110156114d7576114d7613b2f565b80600a836040516122d89190613787565b9081526040805160209281900383019020835181559183015160018301558201516002820155606082015160038201556080820151600482015560a0820151600582015560c0820151600682015560e0820151600782015561010082015160088201556101208201516009820155610140820151600a820155610160820151600b82015561018090910151600c909101555050565b60008061238561237e84600a611f66565b600561229d565b90506123928160026128dc565b9050601554611a9882607d611ac0565b60006001600160e01b031982166380ac58cd60e01b14806123d357506001600160e01b03198216635b5e139f60e01b145b806108c157506301ffc9a760e01b6001600160e01b03198316146108c1565b6123fb816124b3565b6124425760405162461bcd60e51b8152602060048201526018602482015277115490cdcc8c4e881a5b9d985b1a59081d1bdad95b88125160421b6044820152606401610a19565b50565b600081815260046020526040902080546001600160a01b0319166001600160a01b038416908117909155819061247a8261177a565b6001600160a01b03167f8c5be1e5ebec7d5bd14f71427d1e84f3dd0314c0f7b2291e5b200ac8c7c3b92560405160405180910390a45050565b6000908152600260205260409020546001600160a01b0316151590565b611abc828260405180602001604052806000815250612927565b6000806124f68361177a565b9050806001600160a01b0316846001600160a01b0316148061253d57506001600160a01b0380821660009081526005602090815260408083209388168352929052205460ff165b806108bd5750836001600160a01b03166125568461097e565b6001600160a01b031614949350505050565b826001600160a01b031661257b8261177a565b6001600160a01b0316146125a15760405162461bcd60e51b8152600401610a1990613bca565b6001600160a01b0382166126035760405162461bcd60e51b8152602060048201526024808201527f4552433732313a207472616e7366657220746f20746865207a65726f206164646044820152637265737360e01b6064820152608401610a19565b612610838383600161295a565b826001600160a01b03166126238261177a565b6001600160a01b0316146126495760405162461bcd60e51b8152600401610a1990613bca565b600081815260046020908152604080832080546001600160a01b03199081169091556001600160a01b0387811680865260038552838620805460001901905590871680865283862080546001019055868652600290945282852080549092168417909155905184937fddf252ad1be2c89b69c2b068fc378daa952ba7f163c4a11628f55a4df523b3ef91a4505050565b6000600382111561273a57508060006126f3600283613b1b565b6126fe906001613bb7565b90505b81811015612734579050806002816127198186613b1b565b6127239190613bb7565b61272d9190613b1b565b9050612701565b50919050565b8115612744575060015b919050565b816001600160a01b0316836001600160a01b0316036127aa5760405162461bcd60e51b815260206004820152601960248201527f4552433732313a20617070726f766520746f2063616c6c6572000000000000006044820152606401610a19565b6001600160a01b03838116600081815260056020908152604080832094871680845294825291829020805460ff191686151590811790915591519182527f17307eab39ab6107e8899845ad3d59bd9653f200f220920489ca2b5937696c31910160405180910390a3505050565b612822848484612568565b61282e84848484612a8e565b611d415760405162461bcd60e51b8152600401610a1990613c0f565b6060600061285783612b90565b60010190506000816001600160401b0381111561287657612876613289565b6040519080825280601f01601f1916602001820160405280156128a0576020820181803683370190505b5090508181016020015b600019016f181899199a1a9b1b9c1cb0b131b232b360811b600a86061a8153600a85049450846128aa57509392505050565b6000816000036128ee575060016108c1565b816001036128fd5750816108c1565b8260015b83811015611f5e576129138286611f66565b91508061291f81613b58565b915050612901565b6129318383612c68565b61293e6000848484612a8e565b610aba5760405162461bcd60e51b8152600401610a1990613c0f565b60018111156129c95760405162461bcd60e51b815260206004820152603560248201527f455243373231456e756d657261626c653a20636f6e7365637574697665207472604482015274185b9cd9995c9cc81b9bdd081cdd5c1c1bdc9d1959605a1b6064820152608401610a19565b816001600160a01b038516612a2557612a2081600880546000838152600960205260408120829055600182018355919091527ff3f7a9fe364faab93b216da50a3214154f22a0a2b415b23a84c8169e8b636ee30155565b612a48565b836001600160a01b0316856001600160a01b031614612a4857612a488582612de3565b6001600160a01b038416612a6457612a5f81612e80565b612a87565b846001600160a01b0316846001600160a01b031614612a8757612a878482612f2f565b5050505050565b60006001600160a01b0384163b15612b8457604051630a85bd0160e11b81526001600160a01b0385169063150b7a0290612ad2903390899088908890600401613c61565b6020604051808303816000875af1925050508015612b0d575060408051601f3d908101601f19168201909252612b0a91810190613c9e565b60015b612b6a573d808015612b3b576040519150601f19603f3d011682016040523d82523d6000602084013e612b40565b606091505b508051600003612b625760405162461bcd60e51b8152600401610a1990613c0f565b805181602001fd5b6001600160e01b031916630a85bd0160e11b149050612b88565b5060015b949350505050565b60008072184f03e93ff9f4daa797ed6e38ed64bf6a1f0160401b8310612bcf5772184f03e93ff9f4daa797ed6e38ed64bf6a1f0160401b830492506040015b6d04ee2d6d415b85acef81000000008310612bfb576d04ee2d6d415b85acef8100000000830492506020015b662386f26fc100008310612c1957662386f26fc10000830492506010015b6305f5e1008310612c31576305f5e100830492506008015b6127108310612c4557612710830492506004015b60648310612c57576064830492506002015b600a83106108c15760010192915050565b6001600160a01b038216612cbe5760405162461bcd60e51b815260206004820181905260248201527f4552433732313a206d696e7420746f20746865207a65726f20616464726573736044820152606401610a19565b612cc7816124b3565b15612d145760405162461bcd60e51b815260206004820152601c60248201527f4552433732313a20746f6b656e20616c7265616479206d696e746564000000006044820152606401610a19565b612d2260008383600161295a565b612d2b816124b3565b15612d785760405162461bcd60e51b815260206004820152601c60248201527f4552433732313a20746f6b656e20616c7265616479206d696e746564000000006044820152606401610a19565b6001600160a01b038216600081815260036020908152604080832080546001019055848352600290915280822080546001600160a01b0319168417905551839291907fddf252ad1be2c89b69c2b068fc378daa952ba7f163c4a11628f55a4df523b3ef908290a45050565b60006001612df084611966565b612dfa9190613b45565b600083815260076020526040902054909150808214612e4d576001600160a01b03841660009081526006602090815260408083208584528252808320548484528184208190558352600790915290208190555b5060009182526007602090815260408084208490556001600160a01b039094168352600681528383209183525290812055565b600854600090612e9290600190613b45565b60008381526009602052604081205460088054939450909284908110612eba57612eba613aef565b906000526020600020015490508060088381548110612edb57612edb613aef565b6000918252602080832090910192909255828152600990915260408082208490558582528120556008805480612f1357612f13613cbb565b6001900381819060005260206000200160009055905550505050565b6000612f3a83611966565b6001600160a01b039093166000908152600660209081526040808320868452825280832085905593825260079052919091209190915550565b60008060408385031215612f8657600080fd5b50508035926020909101359150565b6001600160e01b03198116811461244257600080fd5b600060208284031215612fbd57600080fd5b81356114d781612f95565b60005b83811015612fe3578181015183820152602001612fcb565b50506000910152565b60008151808452613004816020860160208601612fc8565b601f01601f19169290920160200192915050565b6020815260006114d76020830184612fec565b60006020828403121561303d57600080fd5b5035919050565b80356001600160a01b038116811461274457600080fd5b6000806040838503121561306e57600080fd5b61307783613044565b946020939093013593505050565b60208152600082516102208060208501526130a4610240850183612fec565b91506020850151601f198584030160408601526130c18382612fec565b604087015160608781019190915287015160808088019190915287015160a08088019190915287015160c08088019190915287015160e08088019190915287015161010080880191909152870151610120808801919091528701516101408088019190915287015161016080880191909152870151610180808801919091528701516101a0808801919091528701516101c0808801919091528701516101e08088019190915287015161020080880191909152909601519190940152509192915050565b60008083601f84011261319757600080fd5b5081356001600160401b038111156131ae57600080fd5b6020830191508360208285010111156131c657600080fd5b9250929050565b6000806000806000606086880312156131e557600080fd5b6131ee86613044565b945060208601356001600160401b038082111561320a57600080fd5b61321689838a01613185565b9096509450604088013591508082111561322f57600080fd5b5061323c88828901613185565b969995985093965092949392505050565b60008060006060848603121561326257600080fd5b61326b84613044565b925061327960208501613044565b9150604084013590509250925092565b634e487b7160e01b600052604160045260246000fd5b6040516101a081016001600160401b03811182821017156132c2576132c2613289565b60405290565b60006001600160401b03808411156132e2576132e2613289565b604051601f8501601f19908116603f0116810190828211818310171561330a5761330a613289565b8160405280935085815286868601111561332357600080fd5b858560208301376000602087830101525050509392505050565b600082601f83011261334e57600080fd5b6114d7838335602085016132c8565b60006020828403121561336f57600080fd5b81356001600160401b0381111561338557600080fd5b6108bd8482850161333d565b6000806000806000606086880312156133a957600080fd5b85356001600160401b03808211156133c057600080fd5b6133cc89838a01613185565b909750955060208801359150808211156133e557600080fd5b506133f288828901613185565b9094509250613405905060408701613044565b90509295509295909350565b60006020828403121561342357600080fd5b6114d782613044565b6000806040838503121561343f57600080fd5b61344883613044565b91506020830135801515811461345d57600080fd5b809150509250929050565b6000806020838503121561347b57600080fd5b82356001600160401b0381111561349157600080fd5b61349d85828601613185565b90969095509350505050565b600080600080608085870312156134bf57600080fd5b6134c885613044565b93506134d660208601613044565b92506040850135915060608501356001600160401b038111156134f857600080fd5b8501601f8101871361350957600080fd5b613518878235602084016132c8565b91505092959194509250565b6020808252825182820181905260009190848201906040850190845b8181101561355c57835183529284019291840191600101613540565b50909695505050505050565b600080600080600060a0868803121561358057600080fd5b505083359560208501359550604085013594606081013594506080013592509050565b6000808284036101c08112156135b857600080fd5b83356001600160401b038111156135ce57600080fd5b6135da8682870161333d565b9350506101a080601f19830112156135f157600080fd5b6135f961329f565b91506020850135825260408501356020830152606085013560408301526080850135606083015260a0850135608083015260c085013560a083015260e085013560c08301526101008086013560e0840152610120808701358285015261014091508187013581850152506101608087013582850152610180915081870135818501525081860135818401525050809150509250929050565b600080604083850312156136a457600080fd5b6136ad83613044565b91506136bb60208401613044565b90509250929050565b948552602085019390935260408401919091526060808401919091521b6bffffffffffffffffffffffff1916608082015260940190565b634e487b7160e01b600052601260045260246000fd5b600082613720576137206136fb565b500690565b600181811c9082168061373957607f821691505b60208210810361273457634e487b7160e01b600052602260045260246000fd5b602080825260149082015273151bdad95b88191bd95cc81b9bdd08195e1a5cdd60621b604082015260600190565b60008251613799818460208701612fc8565b9190910192915050565b81835281816020850137506000828201602090810191909152601f909101601f19169091010190565b8681526001600160a01b03861660208201526080604082018190526000906137f790830186886137a3565b828103606084015261380a8185876137a3565b9998505050505050505050565b601f821115610aba57600081815260208120601f850160051c8101602086101561383e5750805b601f850160051c820191505b8181101561385d5782815560010161384a565b505050505050565b81516001600160401b0381111561387e5761387e613289565b6138928161388c8454613725565b84613817565b602080601f8311600181146138c757600084156138af5750858301515b600019600386901b1c1916600185901b17855561385d565b600085815260208120601f198616915b828110156138f6578886015182559484019460019091019084016138d7565b50858210156139145787850151600019600388901b60f8161c191681555b5050505050600190811b01905550565b8183823760009101908152919050565b6020808252602d908201527f4552433732313a2063616c6c6572206973206e6f7420746f6b656e206f776e6560408201526c1c881bdc88185c1c1c9bdd9959609a1b606082015260800190565b600080835461398f81613725565b600182811680156139a757600181146139bc576139eb565b60ff19841687528215158302870194506139eb565b8760005260208060002060005b858110156139e25781548a8201529084019082016139c9565b50505082870194505b50929695505050505050565b6001600160401b03831115613a0e57613a0e613289565b613a2283613a1c8354613725565b83613817565b6000601f841160018114613a565760008515613a3e5750838201355b600019600387901b1c1916600186901b178355612a87565b600083815260209020601f19861690835b82811015613a875786850135825560209485019460019092019101613a67565b5086821015613aa45760001960f88860031b161c19848701351681555b505060018560011b0183555050505050565b858152606060208201526000613ad06060830186886137a3565b8281036040840152613ae38185876137a3565b98975050505050505050565b634e487b7160e01b600052603260045260246000fd5b634e487b7160e01b600052601160045260246000fd5b600082613b2a57613b2a6136fb565b500490565b634e487b7160e01b600052600160045260246000fd5b818103818111156108c1576108c1613b05565b600060018201613b6a57613b6a613b05565b5060010190565b60008351613b83818460208801612fc8565b835190830190613b97818360208801612fc8565b01949350505050565b80820281158282048414176108c1576108c1613b05565b808201808211156108c1576108c1613b05565b60208082526025908201527f4552433732313a207472616e736665722066726f6d20696e636f72726563742060408201526437bbb732b960d91b606082015260800190565b60208082526032908201527f4552433732313a207472616e7366657220746f206e6f6e20455243373231526560408201527131b2b4bb32b91034b6b83632b6b2b73a32b960711b606082015260800190565b6001600160a01b0385811682528416602082015260408101839052608060608201819052600090613c9490830184612fec565b9695505050505050565b600060208284031215613cb057600080fd5b81516114d781612f95565b634e487b7160e01b600052603160045260246000fdfea2646970667358221220e021de6a08018f421f2fdb37823b7da3acb090920d8d5d5ffcca4e449504d7ba64736f6c63430008130033",
  "immutableReferences": {},
  "source": "// SPDX-License-Identifier: MIT\npragma solidity ^0.8.18;\n\nimport \"@openzeppelin/contracts/token/ERC721/ERC721.sol\";\nimport \"@openzeppelin/contracts/utils/Counters.sol\";\nimport \"@openzeppelin/contracts/token/ERC721/extensions/ERC721Enumerable.sol\";\n\n\nimport \"./SafeMath.sol\";\nimport \"./FightersClasses.sol\";\nimport \"./FightersAtts.sol\";\n\ncontract Fighters is ERC721Enumerable, FightersAtts, FightersClasses, SafeMath {\n    using Counters for Counters.Counter;\n\n    // Initial attributes by class\n    mapping (uint256 => Attributes) private _initialAttributes;\n    mapping (uint256 => Attributes) private _tokenAttributes;\n    mapping (string => bool) public names;\n\n    // Events\n    event FighterCreated(uint256 tokenId, address owner, string fighterClass, string name);\n    event NPCCreated(address indexed creator, uint256 tokenId, string className, string npcName);\n    event StatsUpdated(uint256 tokenId, uint256 strength, uint256 agility, uint256 energy, uint256 vitality);\n    event ItemEquiped(uint256 tokenId, uint256 itemId, uint256 slot);\n\n    // Counter for token IDs\n    Counters.Counter private _tokenIdCounter;\n\n    constructor() ERC721(\"MRIUS\", \"Fighter\") {\n        // Set initial attributes for each class\n        // _initialAttributes[uint256(FighterClass.DarkKnight)]        = Attributes(\"\", 0, 42, 21,  5, 20, 0, 1,     5,  5, 5, 1, 5, 27, 7, 0, 0);\n        // _initialAttributes[uint256(FighterClass.DarkWizard)]        = Attributes(\"\", 0, 15, 20, 50, 20, 0, 2,     3, 10, 3, 5, 5, 16, 5, 0, 0);\n        // _initialAttributes[uint256(FighterClass.FairyElf)]          = Attributes(\"\", 0, 20, 25, 15, 20, 0, 3,     3,  5, 3, 4, 5, 12, 5, 0, 0);\n        // _initialAttributes[uint256(FighterClass.MagicGladiator)]    = Attributes(\"\", 0, 28, 14, 20, 20, 0, 4,     4,  7, 6, 2, 7, 23, 7, 0, 0);\n\n\n        // DK\n        updateFighterClass(\"Warrior\",   FightersClassAttributes(42, 21,  5, 20,  5,  5, 5, 1, 5, 27, 7,  0, 0));\n        updateFighterClass(\"Wizard\",    FightersClassAttributes(15, 20, 50, 20,  3, 10, 3, 5, 5, 16, 5,  0, 0));\n    }\n\n    function updateFighterStats(uint256 tokenId, uint256 strength, uint256 agility, uint256 energy, uint256 vitality)  external  {\n        // Check msg.sender is the NFT owner\n        require(ownerOf(tokenId) == msg.sender, \"Access Denied\");\n        \n        require(strength >= _tokenAttributes[tokenId].strength, \"Strength can't be decreased\");\n        require(agility >= _tokenAttributes[tokenId].agility, \"Agility can't be decreased\");\n        require(energy >= _tokenAttributes[tokenId].energy, \"Energy can't be decreased\");\n        require(vitality >= _tokenAttributes[tokenId].vitality, \"Vitality can't be decreased\");\n\n\n        uint256 maxPoints = getMaxStatPoints(tokenId);\n        uint256 usedStatPoints = getTotalUsedStatPoints(tokenId);\n\n        uint256 newTotalStats = safeAdd(strength, safeAdd(agility, safeAdd(energy, vitality)));\n\n        require(newTotalStats <= maxPoints, \"Trying too add too many points\");\n\n        _tokenAttributes[tokenId].strength = strength;\n        _tokenAttributes[tokenId].agility = agility;\n        _tokenAttributes[tokenId].energy = energy;\n        _tokenAttributes[tokenId].vitality = vitality;\n\n        emit StatsUpdated(tokenId, strength, agility, energy, vitality);\n    }\n\n    function getMaxStatPoints(uint256 tokenId) public view returns (uint256) {\n        uint256 levelPoints = safeMul(getLevel(tokenId), FighterClasses[_tokenAttributes[tokenId].class].statPointsPerLevel);\n\n        return levelPoints;\n    }\n\n    function getTotalUsedStatPoints(uint256 tokenId) public view returns (uint256) {\n        return safeAdd(_tokenAttributes[tokenId].strength,\n                safeAdd(_tokenAttributes[tokenId].agility, \n                safeAdd(_tokenAttributes[tokenId].energy,\n                _tokenAttributes[tokenId].vitality)));\n    }\n\n    function getUserFighters(address userAddress) external view returns (uint256[] memory) {        \n        uint256 numTokens = balanceOf(userAddress);\n        uint256[] memory tokenIds = new uint256[](numTokens);\n\n        for (uint256 i = 0; i < numTokens; i++) {\n            tokenIds[i] = tokenOfOwnerByIndex(userAddress, i);\n        }\n\n        return tokenIds;\n    }\n\n    // Create a new fighter NFT with initial attributes\n    function createFighter(address owner, string calldata name, string calldata fighterClass) external returns (uint256) {\n        // Make sure the class is valid\n        require(fighterClassExists(fighterClass), \"Invalid fighter class\");\n\n        validateFighterName(name);\n        \n\n        // Mint the NFT with the initial attributes\n        _tokenIdCounter.increment();\n        uint256 tokenId = _tokenIdCounter.current();       \n\n        emit FighterCreated(tokenId, owner, fighterClass, name);\n\n        \n\n        _safeMint(owner, tokenId);\n        \n\n        _tokenAttributes[tokenId] = Attributes({\n            name: name,\n            class: fighterClass,\n            tokenId: tokenId,\n            strength: 0,\n            agility: 0,\n            energy: 0,\n            vitality: 0,\n            experience: 0,\n            hpPerVitalityPoint: 0,\n            manaPerEnergyPoint: 0,\n            hpIncreasePerLevel: 0,\n            manaIncreasePerLevel: 0,\n            statPointsPerLevel: 0,\n            attackSpeed: 0,\n            agilityPointsPerSpeed: 0,\n            isNpc: 0,\n            dropRarityLevel: 0\n        });  \n\n        names[name] = true; \n\n        return tokenId;\n    }\n\n    function validateFighterName(string calldata name) public view {\n        require(!names[name], \"Name taken\");   \n        require(bytes(name).length <= 13, \"Name too long\");\n\n        // Check if name contains only A-Z, a-z, 0-9\n        for (uint i = 0; i < bytes(name).length; i++) {\n            bytes1 char = bytes(name)[i];\n            require((char >= '0' && char <= '9') || \n                    (char >= 'A' && char <= 'Z') || \n                    (char >= 'a' && char <= 'z'), \"Name contains invalid characters\");\n        }\n    }\n\n    function createNPC(string calldata npcName, string calldata className, address ownerAddress) external returns (uint256) {\n        validateFighterName(npcName);\n        _tokenIdCounter.increment();\n        uint256 tokenId = _tokenIdCounter.current();\n        _safeMint(ownerAddress, tokenId);\n        _tokenAttributes[tokenId].tokenId = tokenId;\n        _tokenAttributes[tokenId].name = npcName;\n        _tokenAttributes[tokenId].class = className;\n        _tokenAttributes[tokenId].experience = getExpFromLevel(FighterClasses[className].dropRarityLevel);      \n\n        names[npcName] = true;\n\n        emit NPCCreated(ownerAddress, tokenId, npcName, className);\n\n        return tokenId;\n    }\n\n    // Get the attributes for a fighter NFT\n    function getTokenAttributes(uint256 tokenId) public view returns (Attributes memory) {\n        require(_exists(tokenId), \"Token does not exist\");\n\n        Attributes memory atts = _tokenAttributes[tokenId];\n\n        atts.strength   = safeAdd(atts.strength,    FighterClasses[atts.class].baseStrength);\n        atts.agility    = safeAdd(atts.agility,     FighterClasses[atts.class].baseAgility);\n        atts.energy     = safeAdd(atts.energy,      FighterClasses[atts.class].baseEnergy);\n        atts.vitality   = safeAdd(atts.vitality,    FighterClasses[atts.class].baseVitality);\n\n        atts.hpPerVitalityPoint     = FighterClasses[atts.class].hpPerVitalityPoint;\n        atts.manaPerEnergyPoint     = FighterClasses[atts.class].manaPerEnergyPoint;\n        atts.hpIncreasePerLevel     = FighterClasses[atts.class].hpIncreasePerLevel;\n        atts.statPointsPerLevel     = FighterClasses[atts.class].statPointsPerLevel;\n        atts.attackSpeed            = FighterClasses[atts.class].attackSpeed;\n        atts.agilityPointsPerSpeed  = FighterClasses[atts.class].agilityPointsPerSpeed;\n        atts.isNpc                  = FighterClasses[atts.class].isNpc;\n        atts.dropRarityLevel        = FighterClasses[atts.class].dropRarityLevel; \n\n        return atts;\n    }\n\n    function getOwner(uint256 tokenId) public view returns (address) {\n        return ownerOf(tokenId);\n    }\n\n    function getDropRarityLevel(uint256 tokenId) public view returns (uint256) {\n        return _tokenAttributes[tokenId].dropRarityLevel;\n    }\n\n    // Set the attributes for a fighter NFT\n    function _setTokenAttributes(uint256 tokenId, Attributes memory atts) internal {\n        require(_exists(tokenId), \"Token does not exist\");\n\n        _tokenAttributes[tokenId].strength  = atts.strength;\n        _tokenAttributes[tokenId].agility   = atts.agility;\n        _tokenAttributes[tokenId].energy    = atts.energy;\n        _tokenAttributes[tokenId].vitality  = atts.vitality;\n    }\n\n    // Increase fighter experience\n    function increaseExperience(uint256 tokenId, uint256 addExp) external  {\n        require(_exists(tokenId), \"Token does not exist\");\n\n        _tokenAttributes[tokenId].experience = min(maxExperience, safeAdd(_tokenAttributes[tokenId].experience, addExp));\n    }\n\n\n    function getMaxHealth(uint256 tokenId) public view returns (uint256) \n    {\n        require(_exists(tokenId), \"Token does not exist\");\n        uint256 increasePerLevel = 0;\n        uint256 hpPerVitalityPoint = 0;\n        uint256 vitalityPoints;\n\n        increasePerLevel = FighterClasses[_tokenAttributes[tokenId].class].hpIncreasePerLevel;\n        hpPerVitalityPoint = FighterClasses[_tokenAttributes[tokenId].class].hpPerVitalityPoint;\n        \n\n        return safeAdd(safeMul(increasePerLevel, getLevel(tokenId)), safeMul(hpPerVitalityPoint, _tokenAttributes[tokenId].vitality));\n    }\n\n\n    function getMaxMana(uint256 tokenId) public view returns (uint256) \n    {\n        require(_exists(tokenId), \"Token does not exist\");\n        uint256 increasePerLevel = 0;\n        uint256 mpPerEnergyPoint = 0;\n        uint256 energyPoints;\n\n        \n        increasePerLevel = FighterClasses[_tokenAttributes[tokenId].class].manaIncreasePerLevel;\n        mpPerEnergyPoint = FighterClasses[_tokenAttributes[tokenId].class].manaPerEnergyPoint;\n        \n\n        return safeAdd(safeMul(mpPerEnergyPoint, _tokenAttributes[tokenId].energy), safeMul(increasePerLevel, getLevel(tokenId)));\n    }\n\n    \n\n    function getFighterStats(uint256 tokenId) public view returns (FighterStats memory)\n    {\n        require(_exists(tokenId), \"Token does not exist\");\n        FighterStats memory stats = FighterStats({\n            tokenId: tokenId,\n            maxHealth: getMaxHealth(tokenId),\n            maxMana: getMaxMana(tokenId),\n            level: getLevel(tokenId),\n            exp: getExperience(tokenId),\n            totalStatPoints: getTotalUsedStatPoints(tokenId),\n            maxStatPoints: getMaxStatPoints(tokenId)\n        });\n\n        return stats;\n    }\n\n    function getExperience(uint256 tokenId) public view returns (uint256)\n    {\n        require(_exists(tokenId), \"Token does not exist\");\n\n        // Health = Health_After_Last_Damage + (Current Block Number - Last Damage Block Number) * Health Regeneration Rate\n        return _tokenAttributes[tokenId].experience;\n    }\n\n    // Get player level\n    function getLevel(uint256 tokenId) public view returns (uint256) \n    {\n        require(_exists(tokenId), \"Token does not exist\");\n\n        uint256 exp = _tokenAttributes[tokenId].experience;\n\n        return safeSub(sqrt(safeAdd(safeMul(experienceDivider, exp), 125)), 5) / 10;\n    }\n\n    // Reverse function for getLevel\n    function getExpFromLevel(uint256 level) public view returns (uint256) {\n        uint256 exp = safeAdd(safeMul(level, 10), 5); // level.mul(10).add(5) \n        exp = safePow(exp, 2);\n        exp = safeSub(exp, 125)/experienceDivider; // exp.sub(125).div(experienceDivider);\n        return exp;\n    }\n\n    uint256 healthRegenerationDivider = 8;\n    uint256 manaRegenerationDivider = 8;\n    uint256 agilityPerDefence = 4;\n    uint256 strengthPerDamage = 8;\n    uint256 energyPerDamage = 8;\n    uint256 maxExperience = 291342500;\n    uint256 experienceDivider = 5;\n\n\n    event updateHealthRegenerationDivider(uint256);\n    event updateManaRegenerationDivider(uint256);\n    event updateAgilityPerDefence(uint256);\n    event updateStrengthPerDamage(uint256);\n    event updateEnergyPerDamage(uint256);\n    event updateMaxExperience(uint256);\n    event updateExperienceDivider(uint256);\n    \n\n    function setHealthRegenerationDivider(uint256 val) external {\n        healthRegenerationDivider = val;\n\n        emit updateHealthRegenerationDivider(val);\n    }\n\n   function setManaRegenerationDivider(uint256 val) external {\n        manaRegenerationDivider = val;\n\n        emit updateManaRegenerationDivider(val);\n    }\n\n   function setAgilityPerDefence(uint256 val) external {\n        agilityPerDefence = val;\n\n        emit updateAgilityPerDefence(val);\n    }\n\n   function setStrengthPerDamage(uint256 val) external {\n        strengthPerDamage = val;\n\n        emit updateStrengthPerDamage(val);\n    }\n\n   function setEnergyPerDamage(uint256 val) external  {\n        energyPerDamage = val;\n\n        emit updateEnergyPerDamage(val);\n    }\n\n    function setMaxExperience(uint256 val) external  {\n        maxExperience = val;\n\n        emit updateMaxExperience(val);\n    }\n\n    function setExperienceDivider(uint256 val) external  {\n        experienceDivider = val;\n\n        emit updateExperienceDivider(val);\n    }\n}\n",
  "sourcePath": "/Users/max/Documents/prog/game-contracts/contracts/Fighters.sol",
  "compiler": {
    "name": "solc",
    "version": "0.8.19+commit.7dd6d404.Emscripten.clang"
  },
  "schemaVersion": "3.4.13",
  "updatedAt": "2023-08-06T07:11:13.352Z",
  "networkType": "ethereum",
  "devdoc": {
    "events": {
      "Approval(address,address,uint256)": {
        "details": "Emitted when `owner` enables `approved` to manage the `tokenId` token."
      },
      "ApprovalForAll(address,address,bool)": {
        "details": "Emitted when `owner` enables or disables (`approved`) `operator` to manage all of its assets."
      },
      "Transfer(address,address,uint256)": {
        "details": "Emitted when `tokenId` token is transferred from `from` to `to`."
      }
    },
    "kind": "dev",
    "methods": {
      "approve(address,uint256)": {
        "details": "See {IERC721-approve}."
      },
      "balanceOf(address)": {
        "details": "See {IERC721-balanceOf}."
      },
      "getApproved(uint256)": {
        "details": "See {IERC721-getApproved}."
      },
      "isApprovedForAll(address,address)": {
        "details": "See {IERC721-isApprovedForAll}."
      },
      "name()": {
        "details": "See {IERC721Metadata-name}."
      },
      "ownerOf(uint256)": {
        "details": "See {IERC721-ownerOf}."
      },
      "safeTransferFrom(address,address,uint256)": {
        "details": "See {IERC721-safeTransferFrom}."
      },
      "safeTransferFrom(address,address,uint256,bytes)": {
        "details": "See {IERC721-safeTransferFrom}."
      },
      "setApprovalForAll(address,bool)": {
        "details": "See {IERC721-setApprovalForAll}."
      },
      "supportsInterface(bytes4)": {
        "details": "See {IERC165-supportsInterface}."
      },
      "symbol()": {
        "details": "See {IERC721Metadata-symbol}."
      },
      "tokenByIndex(uint256)": {
        "details": "See {IERC721Enumerable-tokenByIndex}."
      },
      "tokenOfOwnerByIndex(address,uint256)": {
        "details": "See {IERC721Enumerable-tokenOfOwnerByIndex}."
      },
      "tokenURI(uint256)": {
        "details": "See {IERC721Metadata-tokenURI}."
      },
      "totalSupply()": {
        "details": "See {IERC721Enumerable-totalSupply}."
      },
      "transferFrom(address,address,uint256)": {
        "details": "See {IERC721-transferFrom}."
      }
    },
    "version": 1
  },
  "userdoc": {
    "kind": "user",
    "methods": {},
    "version": 1
  }
}