{
  "contractName": "FightclubMoney",
  "abi": [
    {
      "inputs": [],
      "stateMutability": "nonpayable",
      "type": "constructor"
    },
    {
      "anonymous": false,
      "inputs": [
        {
          "indexed": true,
          "internalType": "address",
          "name": "owner",
          "type": "address"
        },
        {
          "indexed": true,
          "internalType": "address",
          "name": "spender",
          "type": "address"
        },
        {
          "indexed": false,
          "internalType": "uint256",
          "name": "value",
          "type": "uint256"
        }
      ],
      "name": "Approval",
      "type": "event"
    },
    {
      "anonymous": false,
      "inputs": [
        {
          "indexed": true,
          "internalType": "address",
          "name": "player",
          "type": "address"
        },
        {
          "indexed": false,
          "internalType": "uint256",
          "name": "amount",
          "type": "uint256"
        }
      ],
      "name": "Mint",
      "type": "event"
    },
    {
      "anonymous": false,
      "inputs": [
        {
          "indexed": false,
          "internalType": "address",
          "name": "battleContract",
          "type": "address"
        },
        {
          "indexed": false,
          "internalType": "bool",
          "name": "isActive",
          "type": "bool"
        }
      ],
      "name": "SetBattleContract",
      "type": "event"
    },
    {
      "anonymous": false,
      "inputs": [
        {
          "indexed": true,
          "internalType": "address",
          "name": "previousOwner",
          "type": "address"
        },
        {
          "indexed": true,
          "internalType": "address",
          "name": "newOwner",
          "type": "address"
        }
      ],
      "name": "SetOwner",
      "type": "event"
    },
    {
      "anonymous": false,
      "inputs": [
        {
          "indexed": true,
          "internalType": "address",
          "name": "from",
          "type": "address"
        },
        {
          "indexed": true,
          "internalType": "address",
          "name": "to",
          "type": "address"
        },
        {
          "indexed": false,
          "internalType": "uint256",
          "name": "value",
          "type": "uint256"
        }
      ],
      "name": "Transfer",
      "type": "event"
    },
    {
      "inputs": [],
      "name": "decimals",
      "outputs": [
        {
          "internalType": "uint8",
          "name": "",
          "type": "uint8"
        }
      ],
      "stateMutability": "view",
      "type": "function"
    },
    {
      "inputs": [],
      "name": "name",
      "outputs": [
        {
          "internalType": "string",
          "name": "",
          "type": "string"
        }
      ],
      "stateMutability": "view",
      "type": "function"
    },
    {
      "inputs": [],
      "name": "owner",
      "outputs": [
        {
          "internalType": "address",
          "name": "",
          "type": "address"
        }
      ],
      "stateMutability": "view",
      "type": "function"
    },
    {
      "inputs": [],
      "name": "symbol",
      "outputs": [
        {
          "internalType": "string",
          "name": "",
          "type": "string"
        }
      ],
      "stateMutability": "view",
      "type": "function"
    },
    {
      "inputs": [
        {
          "internalType": "address",
          "name": "playerAddress",
          "type": "address"
        },
        {
          "internalType": "uint256",
          "name": "amount",
          "type": "uint256"
        }
      ],
      "name": "payoutBattlePurse",
      "outputs": [],
      "stateMutability": "nonpayable",
      "type": "function"
    },
    {
      "inputs": [
        {
          "internalType": "address",
          "name": "newOwner",
          "type": "address"
        }
      ],
      "name": "setOwner",
      "outputs": [],
      "stateMutability": "nonpayable",
      "type": "function"
    },
    {
      "inputs": [
        {
          "internalType": "address",
          "name": "contr",
          "type": "address"
        },
        {
          "internalType": "bool",
          "name": "isActive",
          "type": "bool"
        }
      ],
      "name": "setBattleContract",
      "outputs": [],
      "stateMutability": "nonpayable",
      "type": "function"
    },
    {
      "inputs": [],
      "name": "totalSupply",
      "outputs": [
        {
          "internalType": "uint256",
          "name": "",
          "type": "uint256"
        }
      ],
      "stateMutability": "view",
      "type": "function"
    },
    {
      "inputs": [
        {
          "internalType": "address",
          "name": "account",
          "type": "address"
        }
      ],
      "name": "balanceOf",
      "outputs": [
        {
          "internalType": "uint256",
          "name": "",
          "type": "uint256"
        }
      ],
      "stateMutability": "view",
      "type": "function"
    },
    {
      "inputs": [
        {
          "internalType": "address",
          "name": "recipient",
          "type": "address"
        },
        {
          "internalType": "uint256",
          "name": "amount",
          "type": "uint256"
        }
      ],
      "name": "transfer",
      "outputs": [
        {
          "internalType": "bool",
          "name": "",
          "type": "bool"
        }
      ],
      "stateMutability": "nonpayable",
      "type": "function"
    },
    {
      "inputs": [
        {
          "internalType": "address",
          "name": "owner",
          "type": "address"
        },
        {
          "internalType": "address",
          "name": "spender",
          "type": "address"
        }
      ],
      "name": "allowance",
      "outputs": [
        {
          "internalType": "uint256",
          "name": "",
          "type": "uint256"
        }
      ],
      "stateMutability": "view",
      "type": "function"
    },
    {
      "inputs": [
        {
          "internalType": "address",
          "name": "spender",
          "type": "address"
        },
        {
          "internalType": "uint256",
          "name": "amount",
          "type": "uint256"
        }
      ],
      "name": "approve",
      "outputs": [
        {
          "internalType": "bool",
          "name": "",
          "type": "bool"
        }
      ],
      "stateMutability": "nonpayable",
      "type": "function"
    },
    {
      "inputs": [
        {
          "internalType": "address",
          "name": "sender",
          "type": "address"
        },
        {
          "internalType": "address",
          "name": "recipient",
          "type": "address"
        },
        {
          "internalType": "uint256",
          "name": "amount",
          "type": "uint256"
        }
      ],
      "name": "transferFrom",
      "outputs": [
        {
          "internalType": "bool",
          "name": "",
          "type": "bool"
        }
      ],
      "stateMutability": "nonpayable",
      "type": "function"
    },
    {
      "inputs": [
        {
          "internalType": "uint256",
          "name": "a",
          "type": "uint256"
        },
        {
          "internalType": "uint256",
          "name": "b",
          "type": "uint256"
        }
      ],
      "name": "safeMul",
      "outputs": [
        {
          "internalType": "uint256",
          "name": "",
          "type": "uint256"
        }
      ],
      "stateMutability": "nonpayable",
      "type": "function"
    },
    {
      "inputs": [
        {
          "internalType": "uint256",
          "name": "a",
          "type": "uint256"
        },
        {
          "internalType": "uint256",
          "name": "b",
          "type": "uint256"
        }
      ],
      "name": "safeSub",
      "outputs": [
        {
          "internalType": "uint256",
          "name": "",
          "type": "uint256"
        }
      ],
      "stateMutability": "nonpayable",
      "type": "function"
    },
    {
      "inputs": [
        {
          "internalType": "uint256",
          "name": "a",
          "type": "uint256"
        },
        {
          "internalType": "uint256",
          "name": "b",
          "type": "uint256"
        }
      ],
      "name": "safeAdd",
      "outputs": [
        {
          "internalType": "uint256",
          "name": "",
          "type": "uint256"
        }
      ],
      "stateMutability": "nonpayable",
      "type": "function"
    }
  ],
  "bytecode": "0x608060405234801561001057600080fd5b5060008055600380546001600160a01b03191633179055610a8d806100366000396000f3fe608060405234801561001057600080fd5b50600436106101005760003560e01c806395d89b4111610097578063d05c78da11610066578063d05c78da14610270578063d5a93d6814610283578063dd62ed3e14610296578063e6cb9013146102cf57600080fd5b806395d89b4114610214578063a293d1e814610237578063a9059cbb1461024a578063b78636a11461025d57600080fd5b806323b872dd116100d357806323b872dd14610193578063313ce567146101a657806370a08231146101c05780638da5cb5b146101e957600080fd5b806306fdde0314610105578063095ea7b31461014957806313af40351461016c57806318160ddd14610181575b600080fd5b6101336040518060400160405280600f81526020016e4669676874636c7562204d6f6e657960881b81525081565b6040516101409190610850565b60405180910390f35b61015c6101573660046108ba565b6102e2565b6040519015158152602001610140565b61017f61017a3660046108e4565b6102f9565b005b6000545b604051908152602001610140565b61015c6101a13660046108ff565b61036f565b6101ae601281565b60405160ff9091168152602001610140565b6101856101ce3660046108e4565b6001600160a01b031660009081526001602052604090205490565b6003546101fc906001600160a01b031681565b6040516001600160a01b039091168152602001610140565b6101336040518060400160405280600481526020016346554b4360e01b81525081565b61018561024536600461093b565b6103c1565b61015c6102583660046108ba565b6103e4565b61017f61026b3660046108ba565b6103f1565b61018561027e36600461093b565b6104e8565b61017f61029136600461095d565b610518565b6101856102a4366004610999565b6001600160a01b03918216600090815260026020908152604080832093909416825291909152205490565b6101856102dd36600461093b565b610595565b60006102ef3384846105bf565b5060015b92915050565b6003546001600160a01b03163314610313576103136109cc565b6003546040516001600160a01b038084169216907fcbf985117192c8f614a58aaf97226bb80a754772f5f6edf06f87c675f2e6c66390600090a3600380546001600160a01b0319166001600160a01b0392909216919091179055565b600061037c8484846106e9565b6001600160a01b0384166000908152600260209081526040808320338085529252909120546103b79186916103b29086906109f8565b6105bf565b5060019392505050565b6000828211156103d3576103d36109cc565b6103dd82846109f8565b9392505050565b60006102ef3384846106e9565b3360009081526004602052604090205460ff16610410576104106109cc565b61041c60005482610595565b60009081556001600160a01b0383168152600160205260409020546104419082610595565b6001600160a01b038316600081815260016020526040908190209290925590517f0f6798a560793a54c3bcfe86a93cde1e73087d944c0ea20544137d4121396885906104909084815260200190565b60405180910390a26001600160a01b03821660008181526001602090815260408083205490519081527fddf252ad1be2c89b69c2b068fc378daa952ba7f163c4a11628f55a4df523b3ef910160405180910390a35050565b6000806104f58385610a0b565b905083158061050c57508261050a8583610a22565b145b6103dd576103dd6109cc565b6003546001600160a01b03163314610532576105326109cc565b6001600160a01b038216600081815260046020908152604091829020805460ff19168515159081179091558251938452908301527f01c144ac08fce1689d8f39e7c6b611ff5de0a11668f47d49788f2d8add83669a910160405180910390a15050565b6000806105a28385610a44565b905083811015801561050c5750828110156103dd576103dd6109cc565b6001600160a01b0383166106265760405162461bcd60e51b8152602060048201526024808201527f45524332303a20617070726f76652066726f6d20746865207a65726f206164646044820152637265737360e01b60648201526084015b60405180910390fd5b6001600160a01b0382166106875760405162461bcd60e51b815260206004820152602260248201527f45524332303a20617070726f766520746f20746865207a65726f206164647265604482015261737360f01b606482015260840161061d565b6001600160a01b0383811660008181526002602090815260408083209487168084529482529182902085905590518481527f8c5be1e5ebec7d5bd14f71427d1e84f3dd0314c0f7b2291e5b200ac8c7c3b92591015b60405180910390a3505050565b6001600160a01b03831661074d5760405162461bcd60e51b815260206004820152602560248201527f45524332303a207472616e736665722066726f6d20746865207a65726f206164604482015264647265737360d81b606482015260840161061d565b6001600160a01b0382166107af5760405162461bcd60e51b815260206004820152602360248201527f45524332303a207472616e7366657220746f20746865207a65726f206164647260448201526265737360e81b606482015260840161061d565b6001600160a01b038316600090815260016020526040812080548392906107d79084906109f8565b90915550506001600160a01b03821660009081526001602052604081208054839290610804908490610a44565b92505081905550816001600160a01b0316836001600160a01b03167fddf252ad1be2c89b69c2b068fc378daa952ba7f163c4a11628f55a4df523b3ef836040516106dc91815260200190565b600060208083528351808285015260005b8181101561087d57858101830151858201604001528201610861565b506000604082860101526040601f19601f8301168501019250505092915050565b80356001600160a01b03811681146108b557600080fd5b919050565b600080604083850312156108cd57600080fd5b6108d68361089e565b946020939093013593505050565b6000602082840312156108f657600080fd5b6103dd8261089e565b60008060006060848603121561091457600080fd5b61091d8461089e565b925061092b6020850161089e565b9150604084013590509250925092565b6000806040838503121561094e57600080fd5b50508035926020909101359150565b6000806040838503121561097057600080fd5b6109798361089e565b91506020830135801515811461098e57600080fd5b809150509250929050565b600080604083850312156109ac57600080fd5b6109b58361089e565b91506109c36020840161089e565b90509250929050565b634e487b7160e01b600052600160045260246000fd5b634e487b7160e01b600052601160045260246000fd5b818103818111156102f3576102f36109e2565b80820281158282048414176102f3576102f36109e2565b600082610a3f57634e487b7160e01b600052601260045260246000fd5b500490565b808201808211156102f3576102f36109e256fea26469706673582212209b7334b6288fedc6dd8618888889f3740f27ac17d2f27bb61e963b987640694564736f6c63430008130033",
  "immutableReferences": {},
  "source": "// SPDX-License-Identifier: MIT\n\npragma solidity ^0.8.0;\n\ninterface IERC20 {\n    function totalSupply() external view returns (uint256);\n    function balanceOf(address account) external view returns (uint256);\n    function transfer(address recipient, uint256 amount) external returns (bool);\n    function allowance(address owner, address spender) external view returns (uint256);\n    function approve(address spender, uint256 amount) external returns (bool);\n    function transferFrom(address sender, address recipient, uint256 amount) external returns (bool);\n    \n    event Transfer(address indexed from, address indexed to, uint256 value);\n    event Approval(address indexed owner, address indexed spender, uint256 value);\n    event Mint(address indexed player, uint256 amount);\n}\n\ncontract FightclubMoney is IERC20 {\n    string public constant name = \"Fightclub Money\";\n    string public constant symbol = \"FUKC\";\n    uint8 public constant decimals = 18;\n    uint256 private _totalSupply;\n    mapping(address => uint256) private _balances;\n    mapping(address => mapping(address => uint256)) private _allowances;\n    address public owner;\n    \n    constructor() {\n        _totalSupply = 0;\n        owner = msg.sender;\n    }\n    \n\n    \n\n    function payoutBattlePurse(address playerAddress, uint256 amount) external onlyBattleContract {\n        _totalSupply = safeAdd(_totalSupply, amount);\n        _balances[playerAddress] = safeAdd(_balances[playerAddress], amount);\n        emit Mint(playerAddress, amount);\n        emit Transfer(address(0), playerAddress, _balances[playerAddress]);\n    }\n\n    // Event fired when the owner of the contract is changed\n    event SetOwner(address indexed previousOwner, address indexed newOwner);\n    event SetBattleContract(address battleContract, bool isActive);\n\n    // Allows only the owner of the contract to execute the function\n    modifier onlyOwner {\n        assert(msg.sender == owner);\n        _;\n    }\n\n    // Allows only the owner of the contract to execute the function\n    modifier onlyBattleContract {\n        assert(isBattleContract[msg.sender]);\n        _;\n    }\n\n    // Changes the owner of the contract\n    function setOwner(address newOwner) public onlyOwner {\n        emit SetOwner(owner, newOwner);\n        owner = newOwner;\n    }\n\n    mapping (address => bool) private isBattleContract;\n\n    // Set battle contract\n    function setBattleContract(address contr, bool isActive) external onlyOwner\n    {\n        isBattleContract[contr] = isActive;\n        emit SetBattleContract(contr, isActive);\n    }\n\n    function totalSupply() public view override returns (uint256) {\n        return _totalSupply;\n    }\n    \n    function balanceOf(address account) public view override returns (uint256) {\n        return _balances[account];\n    }\n    \n    function transfer(address recipient, uint256 amount) public override returns (bool) {\n        _transfer(msg.sender, recipient, amount);\n        return true;\n    }\n    \n    function allowance(address owner, address spender) public view override returns (uint256) {\n        return _allowances[owner][spender];\n    }\n    \n    function approve(address spender, uint256 amount) public override returns (bool) {\n        _approve(msg.sender, spender, amount);\n        return true;\n    }\n    \n    function transferFrom(address sender, address recipient, uint256 amount) public override returns (bool) {\n        _transfer(sender, recipient, amount);\n        _approve(sender, msg.sender, _allowances[sender][msg.sender] - amount);\n        return true;\n    }\n    \n    function _transfer(address sender, address recipient, uint256 amount) internal {\n        require(sender != address(0), \"ERC20: transfer from the zero address\");\n        require(recipient != address(0), \"ERC20: transfer to the zero address\");\n        \n        _balances[sender] -= amount;\n        _balances[recipient] += amount;\n        emit Transfer(sender, recipient, amount);\n    }\n    \n    function _approve(address owner, address spender, uint256 amount) internal {\n        require(owner != address(0), \"ERC20: approve from the zero address\");\n        require(spender != address(0), \"ERC20: approve to the zero address\");\n        \n        _allowances[owner][spender] = amount;\n        emit Approval(owner, spender, amount);\n    }\n\n\n    // Returns the smaller of two values\n    function min(uint a, uint b) private pure returns (uint) {\n        return a < b ? a : b;\n    }\n\n    // Returns the largest of the two values\n    function max(uint a, uint b) private pure returns (uint) {\n        return a > b ? a : b;\n    }\n\n    // Safe Multiply Function - prevents integer overflow \n    function safeMul(uint a, uint b) public returns (uint) {\n        uint c = a * b;\n        assert(a == 0 || c / a == b);\n        return c;\n    }\n\n    // Safe Subtraction Function - prevents integer overflow \n    function safeSub(uint a, uint b) public returns (uint) {\n        assert(b <= a);\n        return a - b;\n    }\n\n    // Safe Addition Function - prevents integer overflow \n    function safeAdd(uint a, uint b) public returns (uint) {\n        uint c = a + b;\n        assert(c>=a && c>=b);\n        return c;\n    }\n}\n",
  "sourcePath": "/Users/max/Documents/prog/mriusd/contracts/money.sol",
  "compiler": {
    "name": "solc",
    "version": "0.8.19+commit.7dd6d404.Emscripten.clang"
  },
  "schemaVersion": "3.4.13",
  "updatedAt": "2023-04-14T07:13:07.220Z",
  "devdoc": {
    "kind": "dev",
    "methods": {},
    "version": 1
  },
  "userdoc": {
    "kind": "user",
    "methods": {},
    "version": 1
  }
}