{
  "contractName": "FightersClasses",
  "abi": [
    {
      "inputs": [
        {
          "internalType": "string",
          "name": "",
          "type": "string"
        }
      ],
      "name": "FighterClasses",
      "outputs": [
        {
          "internalType": "uint256",
          "name": "baseStrength",
          "type": "uint256"
        },
        {
          "internalType": "uint256",
          "name": "baseAgility",
          "type": "uint256"
        },
        {
          "internalType": "uint256",
          "name": "baseEnergy",
          "type": "uint256"
        },
        {
          "internalType": "uint256",
          "name": "baseVitality",
          "type": "uint256"
        },
        {
          "internalType": "uint256",
          "name": "hpPerVitalityPoint",
          "type": "uint256"
        },
        {
          "internalType": "uint256",
          "name": "manaPerEnergyPoint",
          "type": "uint256"
        },
        {
          "internalType": "uint256",
          "name": "hpIncreasePerLevel",
          "type": "uint256"
        },
        {
          "internalType": "uint256",
          "name": "manaIncreasePerLevel",
          "type": "uint256"
        },
        {
          "internalType": "uint256",
          "name": "statPointsPerLevel",
          "type": "uint256"
        },
        {
          "internalType": "uint256",
          "name": "attackSpeed",
          "type": "uint256"
        },
        {
          "internalType": "uint256",
          "name": "agilityPointsPerSpeed",
          "type": "uint256"
        },
        {
          "internalType": "uint256",
          "name": "isNpc",
          "type": "uint256"
        },
        {
          "internalType": "uint256",
          "name": "dropRarityLevel",
          "type": "uint256"
        }
      ],
      "stateMutability": "view",
      "type": "function"
    },
    {
      "inputs": [
        {
          "internalType": "string",
          "name": "className",
          "type": "string"
        },
        {
          "components": [
            {
              "internalType": "uint256",
              "name": "baseStrength",
              "type": "uint256"
            },
            {
              "internalType": "uint256",
              "name": "baseAgility",
              "type": "uint256"
            },
            {
              "internalType": "uint256",
              "name": "baseEnergy",
              "type": "uint256"
            },
            {
              "internalType": "uint256",
              "name": "baseVitality",
              "type": "uint256"
            },
            {
              "internalType": "uint256",
              "name": "hpPerVitalityPoint",
              "type": "uint256"
            },
            {
              "internalType": "uint256",
              "name": "manaPerEnergyPoint",
              "type": "uint256"
            },
            {
              "internalType": "uint256",
              "name": "hpIncreasePerLevel",
              "type": "uint256"
            },
            {
              "internalType": "uint256",
              "name": "manaIncreasePerLevel",
              "type": "uint256"
            },
            {
              "internalType": "uint256",
              "name": "statPointsPerLevel",
              "type": "uint256"
            },
            {
              "internalType": "uint256",
              "name": "attackSpeed",
              "type": "uint256"
            },
            {
              "internalType": "uint256",
              "name": "agilityPointsPerSpeed",
              "type": "uint256"
            },
            {
              "internalType": "uint256",
              "name": "isNpc",
              "type": "uint256"
            },
            {
              "internalType": "uint256",
              "name": "dropRarityLevel",
              "type": "uint256"
            }
          ],
          "internalType": "struct FightersClasses.FightersClassAttributes",
          "name": "atts",
          "type": "tuple"
        }
      ],
      "name": "updateFighterClass",
      "outputs": [],
      "stateMutability": "nonpayable",
      "type": "function"
    },
    {
      "inputs": [
        {
          "internalType": "string",
          "name": "className",
          "type": "string"
        }
      ],
      "name": "fighterClassExists",
      "outputs": [
        {
          "internalType": "bool",
          "name": "",
          "type": "bool"
        }
      ],
      "stateMutability": "view",
      "type": "function"
    }
  ],
  "bytecode": "0x60808060405234610016576103ac908161001c8239f35b600080fdfe6040608081526004908136101561001557600080fd5b600091823560e01c8063377c5eee14610260578063c320864f146101935763e9366bb01461004257600080fd5b3461018f576101c036600319011261018f5767ffffffffffffffff813581811161018b5761007390369084016102a6565b916101a0918260231936011261018757845192830190811183821017610174578452602435825260208201936044358552820190606435825260608301906084358252608084019060a435825260a0850160c435815260c086019060e435825260e08701926101043584526101008801946101243586526101208901966101443588526101408a0198610164358a526101608b019a610184358c5261018081019c8d6101a435905261012490610324565b9d8e915182555190600101555160028d01555160038c015551908a015551600589015551600688015551600787015551600886015551600985015551600a84015551600b8301555190600c015580f35b634e487b7160e01b865260418252602486fd5b8580fd5b8480fd5b8280fd5b503461018f57602036600319011261018f5780359267ffffffffffffffff841161025d57506101d06101cb6101a094369084016102a6565b610324565b8054926001820154926002830154906003840154908401546005850154600686015490600787015492600888015494600989015496600a8a015498600c600b8c01549b01549b602082519e8f90815201528c015260608b015260808a015260a089015260c088015260e0870152610100860152610120850152610140840152610160830152610180820152f35b80fd5b50913461025d57602036600319011261025d5782359067ffffffffffffffff821161025d575061029860209361029d923691016102a6565b61035d565b90519015158152f35b81601f820112156103095780359067ffffffffffffffff9283831161030e5760405193601f8401601f19908116603f011685019081118582101761030e576040528284526020838301011161030957816000926020809301838601378301015290565b600080fd5b634e487b7160e01b600052604160045260246000fd5b604051908181519160005b8381106103485750506020918101600081520301902090565b6020828201810151868301528593500161032f565b61036690610324565b541561037157600190565b60009056fea2646970667358221220b61ad50f726ac8ca859f15f166aed19f38107ef2e0711f122d3d5425b311590e64736f6c63430008130033",
  "immutableReferences": {},
  "source": "// SPDX-License-Identifier: MIT\npragma solidity ^0.8.18;\n\n\ncontract FightersClasses {\n\n    // Struct for fighter class attributes\n    struct FightersClassAttributes {\n        uint256 baseStrength;\n        uint256 baseAgility;\n        uint256 baseEnergy;\n        uint256 baseVitality;\n\n        uint256 hpPerVitalityPoint;\n        uint256 manaPerEnergyPoint;\n        uint256 hpIncreasePerLevel;\n        uint256 manaIncreasePerLevel;\n        uint256 statPointsPerLevel;\n        uint256 attackSpeed;\n        uint256 agilityPointsPerSpeed;\n\n        uint256 isNpc;\n        uint256 dropRarityLevel; // for npcs        \n    }\n\n    mapping (string => FightersClassAttributes) public FighterClasses;\n\n    function updateFighterClass(string memory className, FightersClassAttributes memory atts) public {\n        FighterClasses[className] = atts;\n    }\n\n    function fighterClassExists(string memory className) public view returns (bool) {\n        if (FighterClasses[className].baseStrength == 0) {\n            return false;\n        }\n\n        return true;\n    }\n}",
  "sourcePath": "/Users/max/Documents/prog/game-contracts/contracts/FightersClasses.sol",
  "compiler": {
    "name": "solc",
    "version": "0.8.19+commit.7dd6d404.Emscripten.clang"
  },
  "schemaVersion": "3.4.13",
  "updatedAt": "2023-08-10T07:16:14.285Z",
  "devdoc": {
    "kind": "dev",
    "methods": {},
    "version": 1
  },
  "userdoc": {
    "kind": "user",
    "methods": {},
    "version": 1
  }
}