{
  "contractName": "FightersHelper",
  "abi": [
    {
      "inputs": [
        {
          "internalType": "address",
          "name": "fightersContract",
          "type": "address"
        }
      ],
      "stateMutability": "nonpayable",
      "type": "constructor"
    },
    {
      "inputs": [
        {
          "internalType": "address",
          "name": "owner",
          "type": "address"
        },
        {
          "internalType": "string",
          "name": "name",
          "type": "string"
        },
        {
          "internalType": "enum FightersAtts.FighterClass",
          "name": "fighterClass",
          "type": "uint8"
        }
      ],
      "name": "createFighter",
      "outputs": [
        {
          "internalType": "uint256",
          "name": "",
          "type": "uint256"
        }
      ],
      "stateMutability": "nonpayable",
      "type": "function"
    },
    {
      "inputs": [
        {
          "internalType": "uint256",
          "name": "tokenId",
          "type": "uint256"
        }
      ],
      "name": "getTokenAttributes",
      "outputs": [
        {
          "components": [
            {
              "internalType": "string",
              "name": "name",
              "type": "string"
            },
            {
              "internalType": "uint256",
              "name": "tokenId",
              "type": "uint256"
            },
            {
              "internalType": "uint256",
              "name": "strength",
              "type": "uint256"
            },
            {
              "internalType": "uint256",
              "name": "agility",
              "type": "uint256"
            },
            {
              "internalType": "uint256",
              "name": "energy",
              "type": "uint256"
            },
            {
              "internalType": "uint256",
              "name": "vitality",
              "type": "uint256"
            },
            {
              "internalType": "uint256",
              "name": "experience",
              "type": "uint256"
            },
            {
              "internalType": "uint256",
              "name": "class",
              "type": "uint256"
            },
            {
              "internalType": "uint256",
              "name": "hpPerVitalityPoint",
              "type": "uint256"
            },
            {
              "internalType": "uint256",
              "name": "manaPerEnergyPoint",
              "type": "uint256"
            },
            {
              "internalType": "uint256",
              "name": "hpIncreasePerLevel",
              "type": "uint256"
            },
            {
              "internalType": "uint256",
              "name": "manaIncreasePerLevel",
              "type": "uint256"
            },
            {
              "internalType": "uint256",
              "name": "statPointsPerLevel",
              "type": "uint256"
            },
            {
              "internalType": "uint256",
              "name": "attackSpeed",
              "type": "uint256"
            },
            {
              "internalType": "uint256",
              "name": "agilityPointsPerSpeed",
              "type": "uint256"
            },
            {
              "internalType": "uint256",
              "name": "isNpc",
              "type": "uint256"
            },
            {
              "internalType": "uint256",
              "name": "dropRarityLevel",
              "type": "uint256"
            }
          ],
          "internalType": "struct FightersAtts.Attributes",
          "name": "",
          "type": "tuple"
        }
      ],
      "stateMutability": "view",
      "type": "function",
      "constant": true
    },
    {
      "inputs": [
        {
          "internalType": "uint256",
          "name": "tokenId",
          "type": "uint256"
        }
      ],
      "name": "getLevel",
      "outputs": [
        {
          "internalType": "uint256",
          "name": "",
          "type": "uint256"
        }
      ],
      "stateMutability": "view",
      "type": "function",
      "constant": true
    },
    {
      "inputs": [
        {
          "internalType": "uint256",
          "name": "tokenId",
          "type": "uint256"
        },
        {
          "internalType": "uint256",
          "name": "addExp",
          "type": "uint256"
        }
      ],
      "name": "increaseExperience",
      "outputs": [],
      "stateMutability": "nonpayable",
      "type": "function"
    },
    {
      "inputs": [
        {
          "internalType": "uint256",
          "name": "tokenId",
          "type": "uint256"
        }
      ],
      "name": "getOwner",
      "outputs": [
        {
          "internalType": "address",
          "name": "",
          "type": "address"
        }
      ],
      "stateMutability": "view",
      "type": "function",
      "constant": true
    },
    {
      "inputs": [
        {
          "internalType": "uint256",
          "name": "tokenId",
          "type": "uint256"
        }
      ],
      "name": "getDropRarityLevel",
      "outputs": [
        {
          "internalType": "uint256",
          "name": "",
          "type": "uint256"
        }
      ],
      "stateMutability": "view",
      "type": "function",
      "constant": true
    },
    {
      "inputs": [
        {
          "internalType": "uint256",
          "name": "tokenId",
          "type": "uint256"
        }
      ],
      "name": "getFighterStats",
      "outputs": [
        {
          "components": [
            {
              "internalType": "uint256",
              "name": "tokenId",
              "type": "uint256"
            },
            {
              "internalType": "uint256",
              "name": "maxHealth",
              "type": "uint256"
            },
            {
              "internalType": "uint256",
              "name": "maxMana",
              "type": "uint256"
            },
            {
              "internalType": "uint256",
              "name": "level",
              "type": "uint256"
            },
            {
              "internalType": "uint256",
              "name": "exp",
              "type": "uint256"
            },
            {
              "internalType": "uint256",
              "name": "totalStatPoints",
              "type": "uint256"
            },
            {
              "internalType": "uint256",
              "name": "maxStatPoints",
              "type": "uint256"
            }
          ],
          "internalType": "struct FightersAtts.FighterStats",
          "name": "",
          "type": "tuple"
        }
      ],
      "stateMutability": "view",
      "type": "function",
      "constant": true
    }
  ],
  "bytecode": "0x608060405234801561001057600080fd5b50604051610b42380380610b4283398101604081905261002f91610054565b600080546001600160a01b0319166001600160a01b0392909216919091179055610084565b60006020828403121561006657600080fd5b81516001600160a01b038116811461007d57600080fd5b9392505050565b610aaf806100936000396000f3fe608060405234801561001057600080fd5b506004361061007d5760003560e01c806339f4fa5f1161005b57806339f4fa5f146100e157806355af86c4146100f457806386481d401461015d578063c41a360a1461017057600080fd5b80631f4f5a231461008257806321e3ae70146100ab578063243a7c7b146100cc575b600080fd5b610095610090366004610541565b61019b565b6040516100a291906105aa565b60405180910390f35b6100be6100b93660046106b1565b610299565b6040519081526020016100a2565b6100df6100da36600461074d565b61031c565b005b6100be6100ef366004610541565b610385565b610107610102366004610541565b6103f4565b6040516100a29190600060e082019050825182526020830151602083015260408301516040830152606083015160608301526080830151608083015260a083015160a083015260c083015160c083015292915050565b6100be61016b366004610541565b6104a1565b61018361017e366004610541565b6104d3565b6040516001600160a01b0390911681526020016100a2565b61022260405180610220016040528060608152602001600081526020016000815260200160008152602001600081526020016000815260200160008152602001600081526020016000815260200160008152602001600081526020016000815260200160008152602001600081526020016000815260200160008152602001600081525090565b600054604051631f4f5a2360e01b8152600481018490526001600160a01b0390911690631f4f5a2390602401600060405180830381865afa15801561026b573d6000803e3d6000fd5b505050506040513d6000823e601f3d908101601f191682016040526102939190810190610837565b92915050565b6000805460405163021e3ae760e41b81526001600160a01b03909116906321e3ae70906102d0908890889088908890600401610950565b6020604051808303816000875af11580156102ef573d6000803e3d6000fd5b505050506040513d601f19601f8201168201806040525081019061031391906109b8565b95945050505050565b60005460405163243a7c7b60e01b815260048101849052602481018390526001600160a01b039091169063243a7c7b90604401600060405180830381600087803b15801561036957600080fd5b505af115801561037d573d6000803e3d6000fd5b505050505050565b600080546040516339f4fa5f60e01b8152600481018490526001600160a01b03909116906339f4fa5f906024015b602060405180830381865afa1580156103d0573d6000803e3d6000fd5b505050506040513d601f19601f8201168201806040525081019061029391906109b8565b6104346040518060e00160405280600081526020016000815260200160008152602001600081526020016000815260200160008152602001600081525090565b60005460405163156be1b160e21b8152600481018490526001600160a01b03909116906355af86c49060240160e060405180830381865afa15801561047d573d6000803e3d6000fd5b505050506040513d601f19601f8201168201806040525081019061029391906109d1565b60008054604051630219207560e61b8152600481018490526001600160a01b03909116906386481d40906024016103b3565b6000805460405163620d1b0560e11b8152600481018490526001600160a01b039091169063c41a360a90602401602060405180830381865afa15801561051d573d6000803e3d6000fd5b505050506040513d601f19601f820116820180604052508101906102939190610a55565b60006020828403121561055357600080fd5b5035919050565b60005b8381101561057557818101518382015260200161055d565b50506000910152565b6000815180845261059681602086016020860161055a565b601f01601f19169290920160200192915050565b60208152600082516102208060208501526105c961024085018361057e565b602086015160408681019190915286015160608087019190915286015160808087019190915286015160a08087019190915286015160c08087019190915286015160e08087019190915286015161010080870191909152860151610120808701919091528601516101408087019190915286015161016080870191909152860151610180808701919091528601516101a0808701919091528601516101c0808701919091528601516101e08087019190915286015161020080870191909152909501519301929092525090919050565b6001600160a01b03811681146106ae57600080fd5b50565b600080600080606085870312156106c757600080fd5b84356106d281610699565b9350602085013567ffffffffffffffff808211156106ef57600080fd5b818701915087601f83011261070357600080fd5b81358181111561071257600080fd5b88602082850101111561072457600080fd5b60208301955080945050505060408501356005811061074257600080fd5b939692955090935050565b6000806040838503121561076057600080fd5b50508035926020909101359150565b634e487b7160e01b600052604160045260246000fd5b604051610220810167ffffffffffffffff811182821017156107a9576107a961076f565b60405290565b600082601f8301126107c057600080fd5b815167ffffffffffffffff808211156107db576107db61076f565b604051601f8301601f19908116603f011681019082821181831017156108035761080361076f565b8160405283815286602085880101111561081c57600080fd5b61082d84602083016020890161055a565b9695505050505050565b60006020828403121561084957600080fd5b815167ffffffffffffffff8082111561086157600080fd5b90830190610220828603121561087657600080fd5b61087e610785565b82518281111561088d57600080fd5b610899878286016107af565b8252506020838101519082015260408084015190820152606080840151908201526080808401519082015260a0808401519082015260c0808401519082015260e08084015190820152610100808401519082015261012080840151908201526101408084015190820152610160808401519082015261018080840151908201526101a080840151908201526101c080840151908201526101e080840151908201526102009283015192810192909252509392505050565b6001600160a01b038516815260606020820181905281018390528284608083013760006080848301015260006080601f19601f8601168301019050600583106109a957634e487b7160e01b600052602160045260246000fd5b82604083015295945050505050565b6000602082840312156109ca57600080fd5b5051919050565b600060e082840312156109e357600080fd5b60405160e0810181811067ffffffffffffffff82111715610a0657610a0661076f565b8060405250825181526020830151602082015260408301516040820152606083015160608201526080830151608082015260a083015160a082015260c083015160c08201528091505092915050565b600060208284031215610a6757600080fd5b8151610a7281610699565b939250505056fea264697066735822122046658f235d3cfc706b640539196f4f5b78ec0a7444aac6d3414f0606b06524dc64736f6c63430008130033",
  "immutableReferences": {},
  "source": "// SPDX-License-Identifier: MIT\npragma solidity ^0.8.18;\nimport \"./Fighters.sol\";\nimport \"./FightersAtts.sol\";\n\ncontract FightersHelper is FightersAtts {\n    Fighters private _fighters;\n\n    constructor(address fightersContract) {\n        _fighters = Fighters(fightersContract);\n    }\n\n    function createFighter(address owner, string calldata name, FightersAtts.FighterClass fighterClass) external returns (uint256) {\n        return _fighters.createFighter(owner, name, fighterClass);\n    }\n\n    function getTokenAttributes(uint256 tokenId) public view returns (Attributes memory) {\n        return _fighters.getTokenAttributes(tokenId);\n    }\n\n    function getLevel(uint256 tokenId) public view returns (uint256) {\n        return _fighters.getLevel(tokenId);\n    }\n\n    function increaseExperience(uint256 tokenId, uint256 addExp) external {\n        _fighters.increaseExperience(tokenId, addExp);\n    }\n\n    function getOwner(uint256 tokenId) public view returns (address) {\n        return _fighters.getOwner(tokenId);\n    }\n\n    function getDropRarityLevel(uint256 tokenId) public view returns (uint256) {\n        return _fighters.getDropRarityLevel(tokenId);\n    }\n\n    function getFighterStats(uint256 tokenId) public view returns (FighterStats memory) {\n        return _fighters.getFighterStats(tokenId);\n    }\n}",
  "sourcePath": "/Users/max/Documents/prog/game-contracts/contracts/FightersHelper.sol",
  "compiler": {
    "name": "solc",
    "version": "0.8.19+commit.7dd6d404.Emscripten.clang"
  },
  "schemaVersion": "3.4.13",
  "updatedAt": "2023-07-26T15:13:58.004Z",
  "networkType": "ethereum",
  "devdoc": {
    "kind": "dev",
    "methods": {},
    "version": 1
  },
  "userdoc": {
    "kind": "user",
    "methods": {},
    "version": 1
  }
}