{
  "contractName": "FightersHelper",
  "abi": [
    {
      "inputs": [
        {
          "internalType": "address",
          "name": "fightersContract",
          "type": "address"
        }
      ],
      "stateMutability": "nonpayable",
      "type": "constructor"
    },
    {
      "inputs": [
        {
          "internalType": "address",
          "name": "owner",
          "type": "address"
        },
        {
          "internalType": "string",
          "name": "name",
          "type": "string"
        },
        {
          "internalType": "enum FightersAtts.FighterClass",
          "name": "fighterClass",
          "type": "uint8"
        }
      ],
      "name": "createFighter",
      "outputs": [
        {
          "internalType": "uint256",
          "name": "",
          "type": "uint256"
        }
      ],
      "stateMutability": "nonpayable",
      "type": "function"
    },
    {
      "inputs": [
        {
          "internalType": "uint256",
          "name": "tokenId",
          "type": "uint256"
        }
      ],
      "name": "getTokenAttributes",
      "outputs": [
        {
          "components": [
            {
              "internalType": "string",
              "name": "name",
              "type": "string"
            },
            {
              "internalType": "uint256",
              "name": "tokenId",
              "type": "uint256"
            },
            {
              "internalType": "uint256",
              "name": "strength",
              "type": "uint256"
            },
            {
              "internalType": "uint256",
              "name": "agility",
              "type": "uint256"
            },
            {
              "internalType": "uint256",
              "name": "energy",
              "type": "uint256"
            },
            {
              "internalType": "uint256",
              "name": "vitality",
              "type": "uint256"
            },
            {
              "internalType": "uint256",
              "name": "experience",
              "type": "uint256"
            },
            {
              "internalType": "uint256",
              "name": "class",
              "type": "uint256"
            },
            {
              "internalType": "uint256",
              "name": "hpPerVitalityPoint",
              "type": "uint256"
            },
            {
              "internalType": "uint256",
              "name": "manaPerEnergyPoint",
              "type": "uint256"
            },
            {
              "internalType": "uint256",
              "name": "hpIncreasePerLevel",
              "type": "uint256"
            },
            {
              "internalType": "uint256",
              "name": "manaIncreasePerLevel",
              "type": "uint256"
            },
            {
              "internalType": "uint256",
              "name": "statPointsPerLevel",
              "type": "uint256"
            },
            {
              "internalType": "uint256",
              "name": "attackSpeed",
              "type": "uint256"
            },
            {
              "internalType": "uint256",
              "name": "agilityPointsPerSpeed",
              "type": "uint256"
            },
            {
              "internalType": "uint256",
              "name": "isNpc",
              "type": "uint256"
            },
            {
              "internalType": "uint256",
              "name": "dropRarityLevel",
              "type": "uint256"
            }
          ],
          "internalType": "struct FightersAtts.Attributes",
          "name": "",
          "type": "tuple"
        }
      ],
      "stateMutability": "view",
      "type": "function",
      "constant": true
    },
    {
      "inputs": [
        {
          "internalType": "uint256",
          "name": "tokenId",
          "type": "uint256"
        }
      ],
      "name": "getLevel",
      "outputs": [
        {
          "internalType": "uint256",
          "name": "",
          "type": "uint256"
        }
      ],
      "stateMutability": "view",
      "type": "function",
      "constant": true
    },
    {
      "inputs": [
        {
          "internalType": "uint256",
          "name": "tokenId",
          "type": "uint256"
        },
        {
          "internalType": "uint256",
          "name": "addExp",
          "type": "uint256"
        }
      ],
      "name": "increaseExperience",
      "outputs": [],
      "stateMutability": "nonpayable",
      "type": "function"
    },
    {
      "inputs": [
        {
          "internalType": "uint256",
          "name": "tokenId",
          "type": "uint256"
        }
      ],
      "name": "getOwner",
      "outputs": [
        {
          "internalType": "address",
          "name": "",
          "type": "address"
        }
      ],
      "stateMutability": "view",
      "type": "function",
      "constant": true
    },
    {
      "inputs": [
        {
          "internalType": "uint256",
          "name": "tokenId",
          "type": "uint256"
        }
      ],
      "name": "getDropRarityLevel",
      "outputs": [
        {
          "internalType": "uint256",
          "name": "",
          "type": "uint256"
        }
      ],
      "stateMutability": "view",
      "type": "function",
      "constant": true
    },
    {
      "inputs": [
        {
          "internalType": "uint256",
          "name": "tokenId",
          "type": "uint256"
        }
      ],
      "name": "getFighterStats",
      "outputs": [
        {
          "components": [
            {
              "internalType": "uint256",
              "name": "tokenId",
              "type": "uint256"
            },
            {
              "internalType": "uint256",
              "name": "maxHealth",
              "type": "uint256"
            },
            {
              "internalType": "uint256",
              "name": "maxMana",
              "type": "uint256"
            },
            {
              "internalType": "uint256",
              "name": "level",
              "type": "uint256"
            },
            {
              "internalType": "uint256",
              "name": "exp",
              "type": "uint256"
            },
            {
              "internalType": "uint256",
              "name": "totalStatPoints",
              "type": "uint256"
            },
            {
              "internalType": "uint256",
              "name": "maxStatPoints",
              "type": "uint256"
            }
          ],
          "internalType": "struct FightersAtts.FighterStats",
          "name": "",
          "type": "tuple"
        }
      ],
      "stateMutability": "view",
      "type": "function",
      "constant": true
    },
    {
      "inputs": [
        {
          "internalType": "address",
          "name": "userAddress",
          "type": "address"
        }
      ],
      "name": "getUserFighters",
      "outputs": [
        {
          "internalType": "uint256[]",
          "name": "",
          "type": "uint256[]"
        }
      ],
      "stateMutability": "view",
      "type": "function",
      "constant": true
    }
  ],
  "bytecode": "0x608060405234801561001057600080fd5b50604051610cfc380380610cfc83398101604081905261002f91610054565b600080546001600160a01b0319166001600160a01b0392909216919091179055610084565b60006020828403121561006657600080fd5b81516001600160a01b038116811461007d57600080fd5b9392505050565b610c69806100936000396000f3fe608060405234801561001057600080fd5b50600436106100885760003560e01c806355af86c41161005b57806355af86c4146100ff57806386481d4014610168578063c41a360a1461017b578063cd00ff62146101a657600080fd5b80631f4f5a231461008d57806321e3ae70146100b6578063243a7c7b146100d757806339f4fa5f146100ec575b600080fd5b6100a061009b3660046105df565b6101c6565b6040516100ad9190610648565b60405180910390f35b6100c96100c436600461074f565b6102c4565b6040519081526020016100ad565b6100ea6100e53660046107eb565b610347565b005b6100c96100fa3660046105df565b6103b0565b61011261010d3660046105df565b61041f565b6040516100ad9190600060e082019050825182526020830151602083015260408301516040830152606083015160608301526080830151608083015260a083015160a083015260c083015160c083015292915050565b6100c96101763660046105df565b6104cc565b61018e6101893660046105df565b6104fe565b6040516001600160a01b0390911681526020016100ad565b6101b96101b436600461080d565b61056c565b6040516100ad9190610831565b61024d60405180610220016040528060608152602001600081526020016000815260200160008152602001600081526020016000815260200160008152602001600081526020016000815260200160008152602001600081526020016000815260200160008152602001600081526020016000815260200160008152602001600081525090565b600054604051631f4f5a2360e01b8152600481018490526001600160a01b0390911690631f4f5a2390602401600060405180830381865afa158015610296573d6000803e3d6000fd5b505050506040513d6000823e601f3d908101601f191682016040526102be9190810190610952565b92915050565b6000805460405163021e3ae760e41b81526001600160a01b03909116906321e3ae70906102fb908890889088908890600401610a6b565b6020604051808303816000875af115801561031a573d6000803e3d6000fd5b505050506040513d601f19601f8201168201806040525081019061033e9190610ad3565b95945050505050565b60005460405163243a7c7b60e01b815260048101849052602481018390526001600160a01b039091169063243a7c7b90604401600060405180830381600087803b15801561039457600080fd5b505af11580156103a8573d6000803e3d6000fd5b505050505050565b600080546040516339f4fa5f60e01b8152600481018490526001600160a01b03909116906339f4fa5f906024015b602060405180830381865afa1580156103fb573d6000803e3d6000fd5b505050506040513d601f19601f820116820180604052508101906102be9190610ad3565b61045f6040518060e00160405280600081526020016000815260200160008152602001600081526020016000815260200160008152602001600081525090565b60005460405163156be1b160e21b8152600481018490526001600160a01b03909116906355af86c49060240160e060405180830381865afa1580156104a8573d6000803e3d6000fd5b505050506040513d601f19601f820116820180604052508101906102be9190610aec565b60008054604051630219207560e61b8152600481018490526001600160a01b03909116906386481d40906024016103de565b6000805460405163620d1b0560e11b8152600481018490526001600160a01b039091169063c41a360a90602401602060405180830381865afa158015610548573d6000803e3d6000fd5b505050506040513d601f19601f820116820180604052508101906102be9190610b70565b6000546040516366807fb160e11b81526001600160a01b038381166004830152606092169063cd00ff6290602401600060405180830381865afa1580156105b7573d6000803e3d6000fd5b505050506040513d6000823e601f3d908101601f191682016040526102be9190810190610b8d565b6000602082840312156105f157600080fd5b5035919050565b60005b838110156106135781810151838201526020016105fb565b50506000910152565b600081518084526106348160208601602086016105f8565b601f01601f19169290920160200192915050565b602081526000825161022080602085015261066761024085018361061c565b602086015160408681019190915286015160608087019190915286015160808087019190915286015160a08087019190915286015160c08087019190915286015160e08087019190915286015161010080870191909152860151610120808701919091528601516101408087019190915286015161016080870191909152860151610180808701919091528601516101a0808701919091528601516101c0808701919091528601516101e08087019190915286015161020080870191909152909501519301929092525090919050565b6001600160a01b038116811461074c57600080fd5b50565b6000806000806060858703121561076557600080fd5b843561077081610737565b9350602085013567ffffffffffffffff8082111561078d57600080fd5b818701915087601f8301126107a157600080fd5b8135818111156107b057600080fd5b8860208285010111156107c257600080fd5b6020830195508094505050506040850135600581106107e057600080fd5b939692955090935050565b600080604083850312156107fe57600080fd5b50508035926020909101359150565b60006020828403121561081f57600080fd5b813561082a81610737565b9392505050565b6020808252825182820181905260009190848201906040850190845b818110156108695783518352928401929184019160010161084d565b50909695505050505050565b634e487b7160e01b600052604160045260246000fd5b604051610220810167ffffffffffffffff811182821017156108af576108af610875565b60405290565b604051601f8201601f1916810167ffffffffffffffff811182821017156108de576108de610875565b604052919050565b600082601f8301126108f757600080fd5b815167ffffffffffffffff81111561091157610911610875565b610924601f8201601f19166020016108b5565b81815284602083860101111561093957600080fd5b61094a8260208301602087016105f8565b949350505050565b60006020828403121561096457600080fd5b815167ffffffffffffffff8082111561097c57600080fd5b90830190610220828603121561099157600080fd5b61099961088b565b8251828111156109a857600080fd5b6109b4878286016108e6565b8252506020838101519082015260408084015190820152606080840151908201526080808401519082015260a0808401519082015260c0808401519082015260e08084015190820152610100808401519082015261012080840151908201526101408084015190820152610160808401519082015261018080840151908201526101a080840151908201526101c080840151908201526101e080840151908201526102009283015192810192909252509392505050565b6001600160a01b038516815260606020820181905281018390528284608083013760006080848301015260006080601f19601f860116830101905060058310610ac457634e487b7160e01b600052602160045260246000fd5b82604083015295945050505050565b600060208284031215610ae557600080fd5b5051919050565b600060e08284031215610afe57600080fd5b60405160e0810181811067ffffffffffffffff82111715610b2157610b21610875565b8060405250825181526020830151602082015260408301516040820152606083015160608201526080830151608082015260a083015160a082015260c083015160c08201528091505092915050565b600060208284031215610b8257600080fd5b815161082a81610737565b60006020808385031215610ba057600080fd5b825167ffffffffffffffff80821115610bb857600080fd5b818501915085601f830112610bcc57600080fd5b815181811115610bde57610bde610875565b8060051b9150610bef8483016108b5565b8181529183018401918481019088841115610c0957600080fd5b938501935b83851015610c2757845182529385019390850190610c0e565b9897505050505050505056fea2646970667358221220ad7ec6074214687b82aab4dd830165ce3ac0862cfbb7136f868fe58ac288755664736f6c63430008130033",
  "immutableReferences": {},
  "source": "// SPDX-License-Identifier: MIT\npragma solidity ^0.8.18;\nimport \"./Fighters.sol\";\nimport \"./FightersAtts.sol\";\n\ncontract FightersHelper is FightersAtts {\n    Fighters private _fighters;\n\n    constructor(address fightersContract) {\n        _fighters = Fighters(fightersContract);\n    }\n\n    function createFighter(address owner, string calldata name, FightersAtts.FighterClass fighterClass) external returns (uint256) {\n        return _fighters.createFighter(owner, name, fighterClass);\n    }\n\n    function getTokenAttributes(uint256 tokenId) public view returns (Attributes memory) {\n        return _fighters.getTokenAttributes(tokenId);\n    }\n\n    function getLevel(uint256 tokenId) public view returns (uint256) {\n        return _fighters.getLevel(tokenId);\n    }\n\n    function increaseExperience(uint256 tokenId, uint256 addExp) external {\n        _fighters.increaseExperience(tokenId, addExp);\n    }\n\n    function getOwner(uint256 tokenId) public view returns (address) {\n        return _fighters.getOwner(tokenId);\n    }\n\n    function getDropRarityLevel(uint256 tokenId) public view returns (uint256) {\n        return _fighters.getDropRarityLevel(tokenId);\n    }\n\n    function getFighterStats(uint256 tokenId) public view returns (FighterStats memory) {\n        return _fighters.getFighterStats(tokenId);\n    }\n\n    function getUserFighters(address userAddress) external view returns (uint256[] memory) {\n        return _fighters.getUserFighters(userAddress);\n    }\n}",
  "sourcePath": "/Users/max/Documents/prog/game-contracts/contracts/FightersHelper.sol",
  "compiler": {
    "name": "solc",
    "version": "0.8.19+commit.7dd6d404.Emscripten.clang"
  },
  "schemaVersion": "3.4.13",
  "updatedAt": "2023-08-04T05:17:18.145Z",
  "networkType": "ethereum",
  "devdoc": {
    "kind": "dev",
    "methods": {},
    "version": 1
  },
  "userdoc": {
    "kind": "user",
    "methods": {},
    "version": 1
  }
}