{
  "contractName": "FighterHelper",
  "abi": [
    {
      "inputs": [
        {
          "internalType": "address",
          "name": "fighterAttributesContract",
          "type": "address"
        }
      ],
      "stateMutability": "nonpayable",
      "type": "constructor"
    },
    {
      "inputs": [
        {
          "internalType": "uint256",
          "name": "tokenId",
          "type": "uint256"
        }
      ],
      "name": "getLevel",
      "outputs": [
        {
          "internalType": "uint256",
          "name": "",
          "type": "uint256"
        }
      ],
      "stateMutability": "view",
      "type": "function",
      "constant": true
    },
    {
      "inputs": [
        {
          "internalType": "uint256",
          "name": "tokenId",
          "type": "uint256"
        },
        {
          "internalType": "uint256",
          "name": "addExp",
          "type": "uint256"
        }
      ],
      "name": "increaseExperience",
      "outputs": [],
      "stateMutability": "nonpayable",
      "type": "function"
    }
  ],
  "bytecode": "0x608060405234801561001057600080fd5b5060405161026f38038061026f83398101604081905261002f91610054565b600080546001600160a01b0319166001600160a01b0392909216919091179055610084565b60006020828403121561006657600080fd5b81516001600160a01b038116811461007d57600080fd5b9392505050565b6101dc806100936000396000f3fe608060405234801561001057600080fd5b50600436106100365760003560e01c8063243a7c7b1461003b57806386481d4014610050575b600080fd5b61004e610049366004610152565b610075565b005b61006361005e366004610174565b6100de565b60405190815260200160405180910390f35b60005460405163243a7c7b60e01b815260048101849052602481018390526001600160a01b039091169063243a7c7b90604401600060405180830381600087803b1580156100c257600080fd5b505af11580156100d6573d6000803e3d6000fd5b505050505050565b60008054604051630219207560e61b8152600481018490526001600160a01b03909116906386481d4090602401602060405180830381865afa158015610128573d6000803e3d6000fd5b505050506040513d601f19601f8201168201806040525081019061014c919061018d565b92915050565b6000806040838503121561016557600080fd5b50508035926020909101359150565b60006020828403121561018657600080fd5b5035919050565b60006020828403121561019f57600080fd5b505191905056fea26469706673582212207e940e27e8fb603b71fae92f3264b90ec2ce0ef23d70cd74b5e333249273690f64736f6c63430008130033",
  "immutableReferences": {},
  "source": "// SPDX-License-Identifier: MIT\npragma solidity ^0.8.0;\nimport \"./FighterAttributes.sol\";\n\ncontract FighterHelper {\n    FighterAttributes private _fighter;\n\n    constructor(address fighterAttributesContract) {\n        _fighter = FighterAttributes(fighterAttributesContract);\n    }\n\n    function getLevel(uint256 tokenId) public view returns (uint256) {\n        return _fighter.getLevel(tokenId);\n    }\n\n    function increaseExperience(uint256 tokenId, uint256 addExp) external {\n        _fighter.increaseExperience(tokenId, addExp);\n    }\n}",
  "sourcePath": "/Users/max/Documents/prog/game-contracts/contracts/FighterHelper.sol",
  "compiler": {
    "name": "solc",
    "version": "0.8.19+commit.7dd6d404.Emscripten.clang"
  },
  "schemaVersion": "3.4.13",
  "updatedAt": "2023-04-20T09:33:16.345Z",
  "networkType": "ethereum",
  "devdoc": {
    "kind": "dev",
    "methods": {},
    "version": 1
  },
  "userdoc": {
    "kind": "user",
    "methods": {},
    "version": 1
  }
}