{
  "contractName": "Fighters",
  "abi": [
    {
      "inputs": [],
      "stateMutability": "nonpayable",
      "type": "constructor"
    },
    {
      "anonymous": false,
      "inputs": [
        {
          "indexed": true,
          "internalType": "address",
          "name": "owner",
          "type": "address"
        },
        {
          "indexed": true,
          "internalType": "address",
          "name": "approved",
          "type": "address"
        },
        {
          "indexed": true,
          "internalType": "uint256",
          "name": "tokenId",
          "type": "uint256"
        }
      ],
      "name": "Approval",
      "type": "event"
    },
    {
      "anonymous": false,
      "inputs": [
        {
          "indexed": true,
          "internalType": "address",
          "name": "owner",
          "type": "address"
        },
        {
          "indexed": true,
          "internalType": "address",
          "name": "operator",
          "type": "address"
        },
        {
          "indexed": false,
          "internalType": "bool",
          "name": "approved",
          "type": "bool"
        }
      ],
      "name": "ApprovalForAll",
      "type": "event"
    },
    {
      "anonymous": false,
      "inputs": [
        {
          "indexed": false,
          "internalType": "uint256",
          "name": "tokenId",
          "type": "uint256"
        },
        {
          "indexed": false,
          "internalType": "address",
          "name": "owner",
          "type": "address"
        },
        {
          "indexed": false,
          "internalType": "string",
          "name": "fighterClass",
          "type": "string"
        },
        {
          "indexed": false,
          "internalType": "string",
          "name": "name",
          "type": "string"
        }
      ],
      "name": "FighterCreated",
      "type": "event"
    },
    {
      "anonymous": false,
      "inputs": [
        {
          "indexed": false,
          "internalType": "uint256",
          "name": "tokenId",
          "type": "uint256"
        },
        {
          "indexed": false,
          "internalType": "uint256",
          "name": "itemId",
          "type": "uint256"
        },
        {
          "indexed": false,
          "internalType": "uint256",
          "name": "slot",
          "type": "uint256"
        }
      ],
      "name": "ItemEquiped",
      "type": "event"
    },
    {
      "anonymous": false,
      "inputs": [
        {
          "indexed": true,
          "internalType": "address",
          "name": "creator",
          "type": "address"
        },
        {
          "indexed": false,
          "internalType": "uint256",
          "name": "tokenId",
          "type": "uint256"
        },
        {
          "indexed": false,
          "internalType": "string",
          "name": "className",
          "type": "string"
        },
        {
          "indexed": false,
          "internalType": "string",
          "name": "npcName",
          "type": "string"
        }
      ],
      "name": "NPCCreated",
      "type": "event"
    },
    {
      "anonymous": false,
      "inputs": [
        {
          "indexed": false,
          "internalType": "uint256",
          "name": "tokenId",
          "type": "uint256"
        },
        {
          "indexed": false,
          "internalType": "uint256",
          "name": "strength",
          "type": "uint256"
        },
        {
          "indexed": false,
          "internalType": "uint256",
          "name": "agility",
          "type": "uint256"
        },
        {
          "indexed": false,
          "internalType": "uint256",
          "name": "energy",
          "type": "uint256"
        },
        {
          "indexed": false,
          "internalType": "uint256",
          "name": "vitality",
          "type": "uint256"
        }
      ],
      "name": "StatsUpdated",
      "type": "event"
    },
    {
      "anonymous": false,
      "inputs": [
        {
          "indexed": true,
          "internalType": "address",
          "name": "from",
          "type": "address"
        },
        {
          "indexed": true,
          "internalType": "address",
          "name": "to",
          "type": "address"
        },
        {
          "indexed": true,
          "internalType": "uint256",
          "name": "tokenId",
          "type": "uint256"
        }
      ],
      "name": "Transfer",
      "type": "event"
    },
    {
      "anonymous": false,
      "inputs": [
        {
          "indexed": false,
          "internalType": "uint256",
          "name": "",
          "type": "uint256"
        }
      ],
      "name": "updateAgilityPerDefence",
      "type": "event"
    },
    {
      "anonymous": false,
      "inputs": [
        {
          "indexed": false,
          "internalType": "uint256",
          "name": "",
          "type": "uint256"
        }
      ],
      "name": "updateEnergyPerDamage",
      "type": "event"
    },
    {
      "anonymous": false,
      "inputs": [
        {
          "indexed": false,
          "internalType": "uint256",
          "name": "",
          "type": "uint256"
        }
      ],
      "name": "updateExperienceDivider",
      "type": "event"
    },
    {
      "anonymous": false,
      "inputs": [
        {
          "indexed": false,
          "internalType": "uint256",
          "name": "",
          "type": "uint256"
        }
      ],
      "name": "updateHealthRegenerationDivider",
      "type": "event"
    },
    {
      "anonymous": false,
      "inputs": [
        {
          "indexed": false,
          "internalType": "uint256",
          "name": "",
          "type": "uint256"
        }
      ],
      "name": "updateManaRegenerationDivider",
      "type": "event"
    },
    {
      "anonymous": false,
      "inputs": [
        {
          "indexed": false,
          "internalType": "uint256",
          "name": "",
          "type": "uint256"
        }
      ],
      "name": "updateMaxExperience",
      "type": "event"
    },
    {
      "anonymous": false,
      "inputs": [
        {
          "indexed": false,
          "internalType": "uint256",
          "name": "",
          "type": "uint256"
        }
      ],
      "name": "updateStrengthPerDamage",
      "type": "event"
    },
    {
      "inputs": [
        {
          "internalType": "string",
          "name": "",
          "type": "string"
        }
      ],
      "name": "FighterClasses",
      "outputs": [
        {
          "internalType": "uint256",
          "name": "baseStrength",
          "type": "uint256"
        },
        {
          "internalType": "uint256",
          "name": "baseAgility",
          "type": "uint256"
        },
        {
          "internalType": "uint256",
          "name": "baseEnergy",
          "type": "uint256"
        },
        {
          "internalType": "uint256",
          "name": "baseVitality",
          "type": "uint256"
        },
        {
          "internalType": "uint256",
          "name": "hpPerVitalityPoint",
          "type": "uint256"
        },
        {
          "internalType": "uint256",
          "name": "manaPerEnergyPoint",
          "type": "uint256"
        },
        {
          "internalType": "uint256",
          "name": "hpIncreasePerLevel",
          "type": "uint256"
        },
        {
          "internalType": "uint256",
          "name": "manaIncreasePerLevel",
          "type": "uint256"
        },
        {
          "internalType": "uint256",
          "name": "statPointsPerLevel",
          "type": "uint256"
        },
        {
          "internalType": "uint256",
          "name": "attackSpeed",
          "type": "uint256"
        },
        {
          "internalType": "uint256",
          "name": "agilityPointsPerSpeed",
          "type": "uint256"
        },
        {
          "internalType": "uint256",
          "name": "isNpc",
          "type": "uint256"
        },
        {
          "internalType": "uint256",
          "name": "dropRarityLevel",
          "type": "uint256"
        }
      ],
      "stateMutability": "view",
      "type": "function",
      "constant": true
    },
    {
      "inputs": [
        {
          "internalType": "address",
          "name": "to",
          "type": "address"
        },
        {
          "internalType": "uint256",
          "name": "tokenId",
          "type": "uint256"
        }
      ],
      "name": "approve",
      "outputs": [],
      "stateMutability": "nonpayable",
      "type": "function"
    },
    {
      "inputs": [
        {
          "internalType": "address",
          "name": "owner",
          "type": "address"
        }
      ],
      "name": "balanceOf",
      "outputs": [
        {
          "internalType": "uint256",
          "name": "",
          "type": "uint256"
        }
      ],
      "stateMutability": "view",
      "type": "function",
      "constant": true
    },
    {
      "inputs": [
        {
          "internalType": "string",
          "name": "className",
          "type": "string"
        }
      ],
      "name": "fighterClassExists",
      "outputs": [
        {
          "internalType": "bool",
          "name": "",
          "type": "bool"
        }
      ],
      "stateMutability": "view",
      "type": "function",
      "constant": true
    },
    {
      "inputs": [
        {
          "internalType": "uint256",
          "name": "tokenId",
          "type": "uint256"
        }
      ],
      "name": "getApproved",
      "outputs": [
        {
          "internalType": "address",
          "name": "",
          "type": "address"
        }
      ],
      "stateMutability": "view",
      "type": "function",
      "constant": true
    },
    {
      "inputs": [
        {
          "internalType": "uint256",
          "name": "seed",
          "type": "uint256"
        }
      ],
      "name": "getRandomNumber",
      "outputs": [
        {
          "internalType": "uint256",
          "name": "",
          "type": "uint256"
        }
      ],
      "stateMutability": "view",
      "type": "function",
      "constant": true
    },
    {
      "inputs": [
        {
          "internalType": "uint256",
          "name": "seed",
          "type": "uint256"
        },
        {
          "internalType": "uint256",
          "name": "maxNum",
          "type": "uint256"
        }
      ],
      "name": "getRandomNumberMax",
      "outputs": [
        {
          "internalType": "uint256",
          "name": "",
          "type": "uint256"
        }
      ],
      "stateMutability": "view",
      "type": "function",
      "constant": true
    },
    {
      "inputs": [
        {
          "internalType": "address",
          "name": "owner",
          "type": "address"
        },
        {
          "internalType": "address",
          "name": "operator",
          "type": "address"
        }
      ],
      "name": "isApprovedForAll",
      "outputs": [
        {
          "internalType": "bool",
          "name": "",
          "type": "bool"
        }
      ],
      "stateMutability": "view",
      "type": "function",
      "constant": true
    },
    {
      "inputs": [
        {
          "internalType": "uint256",
          "name": "a",
          "type": "uint256"
        },
        {
          "internalType": "uint256",
          "name": "b",
          "type": "uint256"
        }
      ],
      "name": "max",
      "outputs": [
        {
          "internalType": "uint256",
          "name": "",
          "type": "uint256"
        }
      ],
      "stateMutability": "view",
      "type": "function",
      "constant": true
    },
    {
      "inputs": [
        {
          "internalType": "uint256",
          "name": "a",
          "type": "uint256"
        },
        {
          "internalType": "uint256",
          "name": "b",
          "type": "uint256"
        }
      ],
      "name": "min",
      "outputs": [
        {
          "internalType": "uint256",
          "name": "",
          "type": "uint256"
        }
      ],
      "stateMutability": "view",
      "type": "function",
      "constant": true
    },
    {
      "inputs": [],
      "name": "name",
      "outputs": [
        {
          "internalType": "string",
          "name": "",
          "type": "string"
        }
      ],
      "stateMutability": "view",
      "type": "function",
      "constant": true
    },
    {
      "inputs": [
        {
          "internalType": "string",
          "name": "",
          "type": "string"
        }
      ],
      "name": "names",
      "outputs": [
        {
          "internalType": "bool",
          "name": "",
          "type": "bool"
        }
      ],
      "stateMutability": "view",
      "type": "function",
      "constant": true
    },
    {
      "inputs": [
        {
          "internalType": "uint256",
          "name": "tokenId",
          "type": "uint256"
        }
      ],
      "name": "ownerOf",
      "outputs": [
        {
          "internalType": "address",
          "name": "",
          "type": "address"
        }
      ],
      "stateMutability": "view",
      "type": "function",
      "constant": true
    },
    {
      "inputs": [
        {
          "internalType": "uint256",
          "name": "a",
          "type": "uint256"
        },
        {
          "internalType": "uint256",
          "name": "b",
          "type": "uint256"
        }
      ],
      "name": "safeAdd",
      "outputs": [
        {
          "internalType": "uint256",
          "name": "",
          "type": "uint256"
        }
      ],
      "stateMutability": "view",
      "type": "function",
      "constant": true
    },
    {
      "inputs": [
        {
          "internalType": "uint256",
          "name": "a",
          "type": "uint256"
        },
        {
          "internalType": "uint256",
          "name": "b",
          "type": "uint256"
        }
      ],
      "name": "safeMul",
      "outputs": [
        {
          "internalType": "uint256",
          "name": "",
          "type": "uint256"
        }
      ],
      "stateMutability": "view",
      "type": "function",
      "constant": true
    },
    {
      "inputs": [
        {
          "internalType": "uint256",
          "name": "a",
          "type": "uint256"
        },
        {
          "internalType": "uint256",
          "name": "b",
          "type": "uint256"
        }
      ],
      "name": "safeSub",
      "outputs": [
        {
          "internalType": "uint256",
          "name": "",
          "type": "uint256"
        }
      ],
      "stateMutability": "view",
      "type": "function",
      "constant": true
    },
    {
      "inputs": [
        {
          "internalType": "address",
          "name": "from",
          "type": "address"
        },
        {
          "internalType": "address",
          "name": "to",
          "type": "address"
        },
        {
          "internalType": "uint256",
          "name": "tokenId",
          "type": "uint256"
        }
      ],
      "name": "safeTransferFrom",
      "outputs": [],
      "stateMutability": "nonpayable",
      "type": "function"
    },
    {
      "inputs": [
        {
          "internalType": "address",
          "name": "from",
          "type": "address"
        },
        {
          "internalType": "address",
          "name": "to",
          "type": "address"
        },
        {
          "internalType": "uint256",
          "name": "tokenId",
          "type": "uint256"
        },
        {
          "internalType": "bytes",
          "name": "data",
          "type": "bytes"
        }
      ],
      "name": "safeTransferFrom",
      "outputs": [],
      "stateMutability": "nonpayable",
      "type": "function"
    },
    {
      "inputs": [
        {
          "internalType": "address",
          "name": "operator",
          "type": "address"
        },
        {
          "internalType": "bool",
          "name": "approved",
          "type": "bool"
        }
      ],
      "name": "setApprovalForAll",
      "outputs": [],
      "stateMutability": "nonpayable",
      "type": "function"
    },
    {
      "inputs": [
        {
          "internalType": "string",
          "name": "a",
          "type": "string"
        },
        {
          "internalType": "string",
          "name": "b",
          "type": "string"
        }
      ],
      "name": "stringsEqual",
      "outputs": [
        {
          "internalType": "bool",
          "name": "",
          "type": "bool"
        }
      ],
      "stateMutability": "view",
      "type": "function",
      "constant": true
    },
    {
      "inputs": [
        {
          "internalType": "bytes4",
          "name": "interfaceId",
          "type": "bytes4"
        }
      ],
      "name": "supportsInterface",
      "outputs": [
        {
          "internalType": "bool",
          "name": "",
          "type": "bool"
        }
      ],
      "stateMutability": "view",
      "type": "function",
      "constant": true
    },
    {
      "inputs": [],
      "name": "symbol",
      "outputs": [
        {
          "internalType": "string",
          "name": "",
          "type": "string"
        }
      ],
      "stateMutability": "view",
      "type": "function",
      "constant": true
    },
    {
      "inputs": [
        {
          "internalType": "uint256",
          "name": "index",
          "type": "uint256"
        }
      ],
      "name": "tokenByIndex",
      "outputs": [
        {
          "internalType": "uint256",
          "name": "",
          "type": "uint256"
        }
      ],
      "stateMutability": "view",
      "type": "function",
      "constant": true
    },
    {
      "inputs": [
        {
          "internalType": "address",
          "name": "owner",
          "type": "address"
        },
        {
          "internalType": "uint256",
          "name": "index",
          "type": "uint256"
        }
      ],
      "name": "tokenOfOwnerByIndex",
      "outputs": [
        {
          "internalType": "uint256",
          "name": "",
          "type": "uint256"
        }
      ],
      "stateMutability": "view",
      "type": "function",
      "constant": true
    },
    {
      "inputs": [
        {
          "internalType": "uint256",
          "name": "tokenId",
          "type": "uint256"
        }
      ],
      "name": "tokenURI",
      "outputs": [
        {
          "internalType": "string",
          "name": "",
          "type": "string"
        }
      ],
      "stateMutability": "view",
      "type": "function",
      "constant": true
    },
    {
      "inputs": [],
      "name": "totalSupply",
      "outputs": [
        {
          "internalType": "uint256",
          "name": "",
          "type": "uint256"
        }
      ],
      "stateMutability": "view",
      "type": "function",
      "constant": true
    },
    {
      "inputs": [
        {
          "internalType": "address",
          "name": "from",
          "type": "address"
        },
        {
          "internalType": "address",
          "name": "to",
          "type": "address"
        },
        {
          "internalType": "uint256",
          "name": "tokenId",
          "type": "uint256"
        }
      ],
      "name": "transferFrom",
      "outputs": [],
      "stateMutability": "nonpayable",
      "type": "function"
    },
    {
      "inputs": [
        {
          "internalType": "string",
          "name": "className",
          "type": "string"
        },
        {
          "components": [
            {
              "internalType": "uint256",
              "name": "baseStrength",
              "type": "uint256"
            },
            {
              "internalType": "uint256",
              "name": "baseAgility",
              "type": "uint256"
            },
            {
              "internalType": "uint256",
              "name": "baseEnergy",
              "type": "uint256"
            },
            {
              "internalType": "uint256",
              "name": "baseVitality",
              "type": "uint256"
            },
            {
              "internalType": "uint256",
              "name": "hpPerVitalityPoint",
              "type": "uint256"
            },
            {
              "internalType": "uint256",
              "name": "manaPerEnergyPoint",
              "type": "uint256"
            },
            {
              "internalType": "uint256",
              "name": "hpIncreasePerLevel",
              "type": "uint256"
            },
            {
              "internalType": "uint256",
              "name": "manaIncreasePerLevel",
              "type": "uint256"
            },
            {
              "internalType": "uint256",
              "name": "statPointsPerLevel",
              "type": "uint256"
            },
            {
              "internalType": "uint256",
              "name": "attackSpeed",
              "type": "uint256"
            },
            {
              "internalType": "uint256",
              "name": "agilityPointsPerSpeed",
              "type": "uint256"
            },
            {
              "internalType": "uint256",
              "name": "isNpc",
              "type": "uint256"
            },
            {
              "internalType": "uint256",
              "name": "dropRarityLevel",
              "type": "uint256"
            }
          ],
          "internalType": "struct FightersClasses.FightersClassAttributes",
          "name": "atts",
          "type": "tuple"
        }
      ],
      "name": "updateFighterClass",
      "outputs": [],
      "stateMutability": "nonpayable",
      "type": "function"
    },
    {
      "inputs": [
        {
          "internalType": "uint256",
          "name": "tokenId",
          "type": "uint256"
        },
        {
          "internalType": "uint256",
          "name": "strength",
          "type": "uint256"
        },
        {
          "internalType": "uint256",
          "name": "agility",
          "type": "uint256"
        },
        {
          "internalType": "uint256",
          "name": "energy",
          "type": "uint256"
        },
        {
          "internalType": "uint256",
          "name": "vitality",
          "type": "uint256"
        }
      ],
      "name": "updateFighterStats",
      "outputs": [],
      "stateMutability": "nonpayable",
      "type": "function"
    },
    {
      "inputs": [
        {
          "internalType": "uint256",
          "name": "tokenId",
          "type": "uint256"
        }
      ],
      "name": "getMaxStatPoints",
      "outputs": [
        {
          "internalType": "uint256",
          "name": "",
          "type": "uint256"
        }
      ],
      "stateMutability": "view",
      "type": "function",
      "constant": true
    },
    {
      "inputs": [
        {
          "internalType": "uint256",
          "name": "tokenId",
          "type": "uint256"
        }
      ],
      "name": "getTotalUsedStatPoints",
      "outputs": [
        {
          "internalType": "uint256",
          "name": "",
          "type": "uint256"
        }
      ],
      "stateMutability": "view",
      "type": "function",
      "constant": true
    },
    {
      "inputs": [
        {
          "internalType": "address",
          "name": "userAddress",
          "type": "address"
        }
      ],
      "name": "getUserFighters",
      "outputs": [
        {
          "internalType": "uint256[]",
          "name": "",
          "type": "uint256[]"
        }
      ],
      "stateMutability": "view",
      "type": "function",
      "constant": true
    },
    {
      "inputs": [
        {
          "internalType": "address",
          "name": "owner",
          "type": "address"
        },
        {
          "internalType": "string",
          "name": "name",
          "type": "string"
        },
        {
          "internalType": "string",
          "name": "fighterClass",
          "type": "string"
        }
      ],
      "name": "createFighter",
      "outputs": [
        {
          "internalType": "uint256",
          "name": "",
          "type": "uint256"
        }
      ],
      "stateMutability": "nonpayable",
      "type": "function"
    },
    {
      "inputs": [
        {
          "internalType": "string",
          "name": "name",
          "type": "string"
        }
      ],
      "name": "validateFighterName",
      "outputs": [],
      "stateMutability": "view",
      "type": "function",
      "constant": true
    },
    {
      "inputs": [
        {
          "internalType": "string",
          "name": "npcName",
          "type": "string"
        },
        {
          "internalType": "string",
          "name": "className",
          "type": "string"
        },
        {
          "internalType": "address",
          "name": "ownerAddress",
          "type": "address"
        }
      ],
      "name": "createNPC",
      "outputs": [
        {
          "internalType": "uint256",
          "name": "",
          "type": "uint256"
        }
      ],
      "stateMutability": "nonpayable",
      "type": "function"
    },
    {
      "inputs": [
        {
          "internalType": "uint256",
          "name": "tokenId",
          "type": "uint256"
        }
      ],
      "name": "getTokenAttributes",
      "outputs": [
        {
          "components": [
            {
              "internalType": "string",
              "name": "name",
              "type": "string"
            },
            {
              "internalType": "string",
              "name": "class",
              "type": "string"
            },
            {
              "internalType": "uint256",
              "name": "tokenId",
              "type": "uint256"
            },
            {
              "internalType": "uint256",
              "name": "birthBlock",
              "type": "uint256"
            },
            {
              "internalType": "uint256",
              "name": "strength",
              "type": "uint256"
            },
            {
              "internalType": "uint256",
              "name": "agility",
              "type": "uint256"
            },
            {
              "internalType": "uint256",
              "name": "energy",
              "type": "uint256"
            },
            {
              "internalType": "uint256",
              "name": "vitality",
              "type": "uint256"
            },
            {
              "internalType": "uint256",
              "name": "experience",
              "type": "uint256"
            },
            {
              "internalType": "uint256",
              "name": "hpPerVitalityPoint",
              "type": "uint256"
            },
            {
              "internalType": "uint256",
              "name": "manaPerEnergyPoint",
              "type": "uint256"
            },
            {
              "internalType": "uint256",
              "name": "hpIncreasePerLevel",
              "type": "uint256"
            },
            {
              "internalType": "uint256",
              "name": "manaIncreasePerLevel",
              "type": "uint256"
            },
            {
              "internalType": "uint256",
              "name": "statPointsPerLevel",
              "type": "uint256"
            },
            {
              "internalType": "uint256",
              "name": "attackSpeed",
              "type": "uint256"
            },
            {
              "internalType": "uint256",
              "name": "agilityPointsPerSpeed",
              "type": "uint256"
            },
            {
              "internalType": "uint256",
              "name": "isNpc",
              "type": "uint256"
            },
            {
              "internalType": "uint256",
              "name": "dropRarityLevel",
              "type": "uint256"
            }
          ],
          "internalType": "struct FightersAtts.Attributes",
          "name": "",
          "type": "tuple"
        }
      ],
      "stateMutability": "view",
      "type": "function",
      "constant": true
    },
    {
      "inputs": [
        {
          "internalType": "uint256",
          "name": "tokenId",
          "type": "uint256"
        }
      ],
      "name": "getOwner",
      "outputs": [
        {
          "internalType": "address",
          "name": "",
          "type": "address"
        }
      ],
      "stateMutability": "view",
      "type": "function",
      "constant": true
    },
    {
      "inputs": [
        {
          "internalType": "uint256",
          "name": "tokenId",
          "type": "uint256"
        }
      ],
      "name": "getDropRarityLevel",
      "outputs": [
        {
          "internalType": "uint256",
          "name": "",
          "type": "uint256"
        }
      ],
      "stateMutability": "view",
      "type": "function",
      "constant": true
    },
    {
      "inputs": [
        {
          "internalType": "uint256",
          "name": "tokenId",
          "type": "uint256"
        },
        {
          "internalType": "uint256",
          "name": "addExp",
          "type": "uint256"
        }
      ],
      "name": "increaseExperience",
      "outputs": [],
      "stateMutability": "nonpayable",
      "type": "function"
    },
    {
      "inputs": [
        {
          "internalType": "uint256",
          "name": "tokenId",
          "type": "uint256"
        }
      ],
      "name": "getMaxHealth",
      "outputs": [
        {
          "internalType": "uint256",
          "name": "",
          "type": "uint256"
        }
      ],
      "stateMutability": "view",
      "type": "function",
      "constant": true
    },
    {
      "inputs": [
        {
          "internalType": "uint256",
          "name": "tokenId",
          "type": "uint256"
        }
      ],
      "name": "getMaxMana",
      "outputs": [
        {
          "internalType": "uint256",
          "name": "",
          "type": "uint256"
        }
      ],
      "stateMutability": "view",
      "type": "function",
      "constant": true
    },
    {
      "inputs": [
        {
          "internalType": "uint256",
          "name": "tokenId",
          "type": "uint256"
        }
      ],
      "name": "getFighterStats",
      "outputs": [
        {
          "components": [
            {
              "internalType": "uint256",
              "name": "tokenId",
              "type": "uint256"
            },
            {
              "internalType": "uint256",
              "name": "maxHealth",
              "type": "uint256"
            },
            {
              "internalType": "uint256",
              "name": "maxMana",
              "type": "uint256"
            },
            {
              "internalType": "uint256",
              "name": "level",
              "type": "uint256"
            },
            {
              "internalType": "uint256",
              "name": "exp",
              "type": "uint256"
            },
            {
              "internalType": "uint256",
              "name": "totalStatPoints",
              "type": "uint256"
            },
            {
              "internalType": "uint256",
              "name": "maxStatPoints",
              "type": "uint256"
            }
          ],
          "internalType": "struct FightersAtts.FighterStats",
          "name": "",
          "type": "tuple"
        }
      ],
      "stateMutability": "view",
      "type": "function",
      "constant": true
    },
    {
      "inputs": [
        {
          "internalType": "uint256",
          "name": "tokenId",
          "type": "uint256"
        }
      ],
      "name": "getExperience",
      "outputs": [
        {
          "internalType": "uint256",
          "name": "",
          "type": "uint256"
        }
      ],
      "stateMutability": "view",
      "type": "function",
      "constant": true
    },
    {
      "inputs": [
        {
          "internalType": "uint256",
          "name": "tokenId",
          "type": "uint256"
        }
      ],
      "name": "getLevel",
      "outputs": [
        {
          "internalType": "uint256",
          "name": "",
          "type": "uint256"
        }
      ],
      "stateMutability": "view",
      "type": "function",
      "constant": true
    },
    {
      "inputs": [
        {
          "internalType": "uint256",
          "name": "level",
          "type": "uint256"
        }
      ],
      "name": "getExpFromLevel",
      "outputs": [
        {
          "internalType": "uint256",
          "name": "",
          "type": "uint256"
        }
      ],
      "stateMutability": "view",
      "type": "function",
      "constant": true
    },
    {
      "inputs": [
        {
          "internalType": "uint256",
          "name": "val",
          "type": "uint256"
        }
      ],
      "name": "setHealthRegenerationDivider",
      "outputs": [],
      "stateMutability": "nonpayable",
      "type": "function"
    },
    {
      "inputs": [
        {
          "internalType": "uint256",
          "name": "val",
          "type": "uint256"
        }
      ],
      "name": "setManaRegenerationDivider",
      "outputs": [],
      "stateMutability": "nonpayable",
      "type": "function"
    },
    {
      "inputs": [
        {
          "internalType": "uint256",
          "name": "val",
          "type": "uint256"
        }
      ],
      "name": "setAgilityPerDefence",
      "outputs": [],
      "stateMutability": "nonpayable",
      "type": "function"
    },
    {
      "inputs": [
        {
          "internalType": "uint256",
          "name": "val",
          "type": "uint256"
        }
      ],
      "name": "setStrengthPerDamage",
      "outputs": [],
      "stateMutability": "nonpayable",
      "type": "function"
    },
    {
      "inputs": [
        {
          "internalType": "uint256",
          "name": "val",
          "type": "uint256"
        }
      ],
      "name": "setEnergyPerDamage",
      "outputs": [],
      "stateMutability": "nonpayable",
      "type": "function"
    },
    {
      "inputs": [
        {
          "internalType": "uint256",
          "name": "val",
          "type": "uint256"
        }
      ],
      "name": "setMaxExperience",
      "outputs": [],
      "stateMutability": "nonpayable",
      "type": "function"
    },
    {
      "inputs": [
        {
          "internalType": "uint256",
          "name": "val",
          "type": "uint256"
        }
      ],
      "name": "setExperienceDivider",
      "outputs": [],
      "stateMutability": "nonpayable",
      "type": "function"
    }
  ],
  "bytecode": "0x6080604052346200042657620000146200044c565b60058082526020644d5249555360d81b81840152620000326200044c565b60078152662334b3b43a32b960c91b8282015283516001600160401b03949085811162000410576000928354916001938484811c9416801562000405575b87851014620003f1578190601f94858111620003a0575b5087908583116001146200033c57879262000330575b5050600019600383901b1c191690841b1784555b80519687116200031c5782548381811c9116801562000311575b86821014620002fd57828111620002b7575b50849187116001146200024f5762000233969184918362000243575b5050600019600383901b1c191690821b1781555b6008600f55600860105560046011556008601255600860135563115d88a4601455836015556200013c6200042b565b90602a8252601584830152846040830152601460608301528460808301528460a08301528460c083015260e08201528161010094808684015261012090601b828501526101406007818601526010610160938585880152620001c3610180978789820152620001aa6200044c565b60078152662bb0b93934b7b960c91b8c8201526200046c565b83620001ce6200042b565b9a600f8c5260148b8d0152603260408d0152601460608d0152600360808d0152600a60a08d0152600360c08d01528160e08d01528b01528901528701528501528301526515da5e985c9960d21b620002256200044c565b91600683528201526200046c565b6040516137689081620005278239f35b015190503880620000f9565b8284528484209190601f198816855b818110620002a157509184939189620002339a941062000287575b505050811b0181556200010d565b015160001960f88460031b161c1916905538808062000279565b828401518555938501939287019287016200025e565b83855285852083808a01891c820192888b10620002f3575b01881c019084905b828110620002e7575050620000dd565b868155018490620002d7565b92508192620002cf565b634e487b7160e01b85526022600452602485fd5b90607f1690620000cb565b634e487b7160e01b84526041600452602484fd5b0151905038806200009d565b8780528888208794509190601f198416895b8b8282106200038957505084116200036f575b505050811b018455620000b1565b015160001960f88460031b161c1916905538808062000361565b8385015186558a979095019493840193016200034e565b909150868052878720858085018b1c8201928a8610620003e7575b91889186959493018c1c01915b828110620003d857505062000087565b898155859450889101620003c8565b92508192620003bb565b634e487b7160e01b86526022600452602486fd5b93607f169362000070565b634e487b7160e01b600052604160045260246000fd5b600080fd5b604051906101a082016001600160401b038111838210176200041057604052565b60408051919082016001600160401b038111838210176200041057604052565b6040519080519060005b828110620005125750508160208161018093600c9501600a81520301902092805184556020810151600185015560408101516002850155606081015160038501556080810151600485015560a0810151600585015560c0810151600685015560e0810151600785015561010081015160088501556101208101516009850155610140810151600a850155610160810151600b8501550151910155565b80602080928401015181860152016200047656fe608080604052600436101561001357600080fd5b60003560e01c9081629df65b1461212d5750806301ffc9a7146120a557806306fdde0314612002578063081812fc14611fe4578063095ea7b314611e6a5780630b1f15cd14611e2657806313d1995014611dd057806317a4057614611d8c57806318160ddd14611d6e5780631f4f5a23146119b95780631fa783cd1461155a57806323b872dd14611536578063243a7c7b146114be5780632f745c5914611497578063377c5eee1461145357806339f4fa5f1461142457806342842e0e146113f157806343c6916b146113d35780634eecf342146110f75780634f6ccce71461106657806355af86c414610f595780636352211e146108f45780636599273f14610f15578063688f30ac14610ed15780636ae15f7614610e8d5780636d5433e614610e6c5780636d9cbb4e14610e4e57806370a0823114610e2b578063745bd45314610de75780637ae2b5c714610dbf578063822fbf5814610d7157806386481d4014610d5357806395d89b4114610c74578063a22cb46514610ba2578063a293d1e814610b5e578063a32b560d14610b25578063b1ca210614610b07578063b37217a414610a8e578063b88d4fde14610a07578063c320864f14610924578063c41a360a146108f4578063c77daef6146108d6578063c87b56dd14610865578063cb08304114610821578063cd00ff6214610740578063d05c78da14610727578063d1e5ef5714610478578063d20a53c81461045a578063e6cb901314610441578063e9366bb0146102db578063e985e9c5146102855763f04968be1461025a57600080fd5b34610280576020366003190112610280576020610278600435613566565b604051908152f35b600080fd5b346102805760403660031901126102805761029e612209565b6102a661221f565b9060018060a01b03809116600052600560205260406000209116600052602052602060ff604060002054166040519015158152f35b34610280576101c0366003190112610280576001600160401b036004358181116102805761030d9036906004016122fa565b906101a09182602319360112610280576040519283019182118383101761042b57600c916040526024358352602083019260443584526040810160643581526060820160843581526080830160a435815260a0840160c435815260c0850160e435815260e08601916101043583526101008701936101243585526101208801956101443587526101408901976101643589526101608a0199610184358b5260016103d2602061018084019e8f6101a435905281604051938285809451938492016121c1565b8101600a8152030190209e8f92518355519101555160028d01555160038c01555160048b01555160058a015551600689015551600788015551600887015551600986015551600a85015551600b84015551910155600080f35b634e487b7160e01b600052604160045260246000fd5b34610280576020610278610454366121ab565b906136ad565b34610280576020366003190112610280576020610278600435612cbd565b346102805760a0366003190112610280576004356024803590604491823590606492833593608435956104aa88612463565b336001600160a01b03909116036106f65787600052602092600c845260046040600020015485106106b65788600052600c845260056040600020015486106106765788600052600c845260066040600020015487106106365788600052600c845260076040600020015488106105f65761052389612c09565b61052c8a612cbd565b5061054961054361053d8b8b6136ad565b896136ad565b876136ad565b116105b6577f9e28895821cef6daa08da1e82406e8be9675974fd115ccca84e332e6c15cff8f60a08a8a8a8a8a8a85600052600c815284600760406000208460048201558560058201558660068201550155604051958652850152604084015260608301526080820152a1005b8391601e7f547279696e6720746f6f2061646420746f6f206d616e7920706f696e74730000926040519462461bcd60e51b86526004860152840152820152fd5b8391601b7f566974616c6974792063616e2774206265206465637265617365640000000000926040519462461bcd60e51b86526004860152840152820152fd5b839160197f456e657267792063616e27742062652064656372656173656400000000000000926040519462461bcd60e51b86526004860152840152820152fd5b8391601a7f4167696c6974792063616e277420626520646563726561736564000000000000926040519462461bcd60e51b86526004860152840152820152fd5b8391601b7f537472656e6774682063616e2774206265206465637265617365640000000000926040519462461bcd60e51b86526004860152840152820152fd5b6c1058d8d95cdcc811195b9a5959609a1b8391600d6040519362461bcd60e51b855260206004860152840152820152fd5b3461028057602061027861073a366121ab565b90613667565b34610280576020806003193601126102805761075a612209565b610763816123a0565b61076c81612cef565b9061077a6040519283612287565b80825261078681612cef565b8285019390601f190136853760005b8281106107e05750505090604051928392818401908285525180915260408401929160005b8281106107c957505050500390f35b8351855286955093810193928101926001016107ba565b6107ea8183612b3a565b90845181101561080b5761080691878260051b87010152612d06565b610795565b634e487b7160e01b600052603260045260246000fd5b34610280576020366003190112610280577f3dc2199ccebb6b521944bbb446fd55ec36fc6b23c37808e7304ac55d535d3ac4602060043580600f55604051908152a1005b346102805760203660031901126102805760043560009081526002602052604090205461089c906001600160a01b03161515612417565b60006040516108aa8161226c565b526108d26040516108ba8161226c565b600081526040519182916020835260208301906121e4565b0390f35b34610280576020366003190112610280576020610278600435613115565b34610280576020366003190112610280576020610912600435612463565b6040516001600160a01b039091168152f35b34610280576020366003190112610280576004356001600160401b0381116102805761096f602061095c6101a09336906004016122fa565b81604051938285809451938492016121c1565b8101600a81520301902080549060018101549060028101546003820154600483015460058401546006850154600786015491600887015493600988015495600a89015497600c600b8b01549a01549a6040519c8d5260208d015260408c015260608b015260808a015260a089015260c088015260e0870152610100860152610120850152610140840152610160830152610180820152f35b3461028057608036600319011261028057610a20612209565b610a2861221f565b90606435906044356001600160401b038311610280573660238401121561028057610a8c93610a64610a879436906024816004013591016122c3565b92610a77610a72843361267d565b6125a4565b610a82838383612745565b612aaf565b612659565b005b34610280576020366003190112610280576020606460405182810190610afb81610aed33424360043544899391609495939185526020850152604084015260608301526bffffffffffffffffffffffff199060601b1660808201520190565b03601f198101835282612287565b51902006604051908152f35b3461028057602036600319011261028057602061027860043561340f565b34610280576020366003190112610280576004356001600160401b03811161028057610b58610a8c913690600401612318565b90612f57565b3461028057610b6c366121ab565b610b788282111561364a565b8103908111610b8c57602090604051908152f35b634e487b7160e01b600052601160045260246000fd5b3461028057604036600319011261028057610bbb612209565b60243590811515809203610280576001600160a01b031690338214610c2f57336000526005602052604060002082600052602052604060002060ff1981541660ff83161790556040519081527f17307eab39ab6107e8899845ad3d59bd9653f200f220920489ca2b5937696c3160203392a3005b60405162461bcd60e51b815260206004820152601960248201527f4552433732313a20617070726f766520746f2063616c6c6572000000000000006044820152606490fd5b346102805760003660031901126102805760405160006001805490610c9882612486565b80855291818116908115610d2c5750600114610cd3575b6108d284610cbf81860382612287565b6040519182916020835260208301906121e4565b600081815292507fb10e2d527612073b26eecdfd717e6a320cf44b4afac2b0732d9fcbe2b7fa0cf65b828410610d14575050508101602001610cbf82610caf565b80546020858701810191909152909301928101610cfc565b60ff191660208087019190915292151560051b85019092019250610cbf9150839050610caf565b34610280576020366003190112610280576020610278600435613446565b34610280576020366003190112610280576004356001600160401b0381116102805760ff610da9602061095c819436906004016122fa565b8101600d81520301902054166040519015158152f35b34610280576020610dcf366121ab565b80821015610de05750604051908152f35b9050610278565b34610280576020366003190112610280577f0dbed17fa1cbd28e0338d43e05619d042b9ca1ac23a9d5383ebe0ab7049ff16e602060043580601555604051908152a1005b34610280576020366003190112610280576020610278610e49612209565b6123a0565b34610280576020366003190112610280576020610278600435613291565b34610280576020610e7c366121ab565b80821115610de05750604051908152f35b34610280576020366003190112610280577f0665124c1d0c6d84ba8a4d99cb0c2a03455171ce7503623c6cceb9da5bbd7a91602060043580601055604051908152a1005b34610280576020366003190112610280577f8b92a2a371ec2af95aa1740562d5031b28f403d2780beaecdce6befd43667fb8602060043580601455604051908152a1005b34610280576020366003190112610280577f8e5252d2d2f885f4bae3553bbe34c3630f9274028f3c343ce0eac0dd710c6a03602060043580601155604051908152a1005b346102805760203660031901126102805760e0600435600060c0604051610f7f81612251565b8281528260208201528260408201528260608201528260808201528260a08201520152610fc9610fc482600052600260205260018060a01b0360406000205416151590565b6130d2565b610fd281613115565b610fdb82613291565b610fe483613446565b610fed8461340f565b90610ff785612cbd565b9261100186612c09565b9460c060405161101081612251565b8881526020810192835260408101938452606081019485526080810195865260a08101968752019586526040519687525160208701525160408601525160608501525160808401525160a08301525160c0820152f35b346102805760203660031901126102805760043560085481101561109d5761108f602091612bc8565b90546040519160031b1c8152f35b60405162461bcd60e51b815260206004820152602c60248201527f455243373231456e756d657261626c653a20676c6f62616c20696e646578206f60448201526b7574206f6620626f756e647360a01b6064820152608490fd5b34610280576060366003190112610280576001600160401b0360043581811161028057611128903690600401612318565b60243583811161028057611140903690600401612318565b92604435926001600160a01b03841692838503610280576111618284612f57565b600161117681600e5401809781600e55612d8a565b85600052602097600c8952604060002087600282015581851161042b576111a7856111a18354612486565b83612d36565b846000601f821160011461136e57600091611363575b50600019600387901b1c191685841b1790555b86600052600c89528160406000200190881161042b576111f4886111a18354612486565b6000601f89116001146112d7579188917f0bc842a38419931e57661b949472cca48dca9a1cde6afb0c6c7fe1b82bdb87259798996112c195946000916112cc575b50600019600385901b1c191683831b1790555b611268600c604051848682378c81868101600a8152030190200154613566565b89600052600c8b52600860406000200155604051858782378a81878101600d8152030190209060ff198254161790556112b36040519586958a875260608c8801526060870191612d15565b918483036040860152612d15565b0390a2604051908152f35b90508401358c611235565b601f19891690826000528a6000209160005b8c82821061134f575050918a93917f0bc842a38419931e57661b949472cca48dca9a1cde6afb0c6c7fe1b82bdb8725999a9b6112c197969410611335575b50508183811b019055611248565b850135600019600386901b60f8161c191690558b80611327565b8784013585559386019392830192016112e9565b90508601358b6111bd565b60008381528c812092508790601f198216908e5b888383106113bb57505050106113a1575b50508285811b0190556111d0565b870135600019600388901b60f8161c191690558a80611393565b858d0135875590950194938401938a9350018e611382565b34610280576020366003190112610280576020610278600435612c09565b3461028057610a8c610a8761140536612345565b90604051926114138461226c565b60008452610a77610a72843361267d565b3461028057602036600319011261028057600435600052600c6020526020601160406000200154604051908152f35b34610280576020366003190112610280576004356001600160401b0381116102805761148d61148860209236906004016122fa565b613617565b6040519015158152f35b346102805760403660031901126102805760206102786114b5612209565b60243590612b3a565b34610280576114cc366121ab565b6000828152600260205260409020546114ef906001600160a01b031615156130d2565b61150d6014549183600052600c6020526008604060002001546136ad565b8082101561152e5750905b600052600c602052600860406000200155600080f35b905090611518565b3461028057610a8c61154736612345565b91611555610a72843361267d565b612745565b3461028057606036600319011261028057611573612209565b6024356001600160401b03811161028057611592903690600401612318565b6044929192356001600160401b038111610280576115b4903690600401612318565b93906115c46114883687846122c3565b1561197c5761166d906115d78484612f57565b61164c6001600e5401809681600e557fb7197fa40ee24f2a1e922164952a047abc5001df3d3c8d254bde064b6b589de660405183815260018060a01b038316602082015260806040820152806116446116358d60808401908a612d15565b82810360608401528b8b612d15565b0390a1612d8a565b6040519561165987612235565b6116643686866122c3565b875236916122c3565b602085015282604085015243606085015260006080850152600060a0850152600060c0850152600060e08501526000610100850152600061012085015260006101408501526000610160850152600061018085015260006101a085015260006101c085015260006101e08501526000610200850152600061022085015282600052600c602052604060002084518051906001600160401b03821161042b5781906117218261171b8654612486565b86612d36565b602090601f831160011461191057600092611905575b50508160011b916000199060031b1c19161781555b60208501519485516001600160401b03811161042b5760209661177f826117766001870154612486565b60018701612d36565b8790601f831160011461188e579282601193610220938b989796600092611883575b50508160011b916000199060031b1c19161760018501555b60408101516002850155606081015160038501556080810151600485015560a0810151600585015560c0810151600685015560e0810151600785015561010081015160088501556101208101516009850155610140810151600a850155610160810151600b850155610180810151600c8501556101a0810151600d8501556101c0810151600e8501556101e0810151600f850155610200810151601085015501519101558260405193849283378101600d815203019020600160ff19825416179055604051908152f35b015190508b806117a1565b9060018501600052886000209160005b601f19851681106118ee575083610220938b98979693600193601197601f198116106118d5575b505050811b0160018501556117b9565b015160001960f88460031b161c191690558b80806118c5565b91928a60018192868501518155019401920161189e565b015190508780611737565b9250836000526020600020906000935b601f1984168510611961576001945083601f19811610611948575b505050811b01815561174c565b015160001960f88460031b161c1916905587808061193b565b81810151835560209485019460019093019290910190611920565b60405162461bcd60e51b8152602060048201526015602482015274496e76616c6964206669676874657220636c61737360581b6044820152606490fd5b346102805760203660031901126102805760006102206040516119db81612235565b60608152606060208201528260408201528260608201528260808201528260a08201528260c08201528260e08201528261010082015282610120820152826101408201528261016082015282610180820152826101a0820152826101c0820152826101e0820152826102008201520152600435611a70610fc482600052600260205260018060a01b0360406000205416151590565b600052600c6020526040600020611b6460405191611a8d83612235565b611a96816124c0565b8352611b5d611aa7600183016124c0565b80602086015260028301546040860152600383015460608601526011600484015493846080880152600581015460a0880152600681015460c0880152600781015460e088015260088101546101008801526009810154610120880152600a810154610140880152600b810154610160880152600c810154610180880152600d8101546101a0880152600e8101546101c0880152600f8101546101e08801526010810154610200880152015461022086015261237a565b54906136ad565b6080820152611b8860a08201516001611b80602085015161237a565b0154906136ad565b60a0820152611ba460c08201516002611b80602085015161237a565b60c0820152611bc060e08201516003611b80602085015161237a565b60e08201526004611bd4602083015161237a565b01546101208201526005611beb602083015161237a565b01546101408201526006611c02602083015161237a565b01546101608201526008611c19602083015161237a565b01546101a08201526009611c30602083015161237a565b01546101c0820152600a611c47602083015161237a565b01546101e0820152600b611c5e602083015161237a565b0154610200820152600c611c75602083015161237a565b0154610220820152604051809160208252610220611cba611ca4835161024060208701526102608601906121e4565b6020840151858203601f190160408701526121e4565b916040810151606085015260608101516080850152608081015160a085015260a081015160c085015260c081015160e085015260e08101516101008501526101008101516101208501526101208101516101408501526101408101516101608501526101608101516101808501526101808101516101a08501526101a08101516101c08501526101c08101516101e08501526101e08101516102008501526102008101518285015201516102408301520390f35b34610280576000366003190112610280576020600854604051908152f35b34610280576020366003190112610280577f8bc6f507740334e03eb54c47352da054221b790b05465e2e8abf2c6e2bd9fd10602060043580601355604051908152a1005b34610280576040366003190112610280576001600160401b0360043581811161028057611e019036906004016122fa565b9060243590811161028057602091611e2061148d9236906004016122fa565b906136d7565b34610280576020366003190112610280577f2709c3545e934f71bad88a10628cfcb26544abef6d319e025dafcfaa8ecd371b602060043580601255604051908152a1005b3461028057604036600319011261028057611e83612209565b602435906001600160a01b038080611e9a85612463565b16921691808314611f9557803314908115611f70575b5015611f0557600083815260046020526040902080546001600160a01b03191683179055611edd83612463565b167f8c5be1e5ebec7d5bd14f71427d1e84f3dd0314c0f7b2291e5b200ac8c7c3b925600080a4005b60405162461bcd60e51b815260206004820152603d60248201527f4552433732313a20617070726f76652063616c6c6572206973206e6f7420746f60448201527f6b656e206f776e6572206f7220617070726f76656420666f7220616c6c0000006064820152608490fd5b9050600052600560205260406000203360005260205260ff6040600020541684611eb0565b60405162461bcd60e51b815260206004820152602160248201527f4552433732313a20617070726f76616c20746f2063757272656e74206f776e656044820152603960f91b6064820152608490fd5b34610280576020366003190112610280576020610912600435612566565b34610280576000366003190112610280576040516000805461202381612486565b80845290600190818116908115610d2c575060011461204c576108d284610cbf81860382612287565b600080805292507f290decd9548b62a8d60345a988386fc84ba6bc95484008f6362f93160ef3e5635b82841061208d575050508101602001610cbf82610caf565b80546020858701810191909152909301928101612075565b346102805760203660031901126102805760043563ffffffff60e01b81168091036102805760209063780e9d6360e01b81149081156120ea575b506040519015158152f35b6380ac58cd60e01b81149150811561211c575b811561210b575b50826120df565b6301ffc9a760e01b14905082612104565b635b5e139f60e01b811491506120fd565b346102805761213b366121ab565b446020840190815260408401929092524360608085019190915242608085015233901b6bffffffffffffffffffffffff191660a0840152916121808160b48101610aed565b51902081156121955760209160405191068152f35b634e487b7160e01b600052601260045260246000fd5b6040906003190112610280576004359060243590565b60005b8381106121d45750506000910152565b81810151838201526020016121c4565b906020916121fd815180928185528580860191016121c1565b601f01601f1916010190565b600435906001600160a01b038216820361028057565b602435906001600160a01b038216820361028057565b61024081019081106001600160401b0382111761042b57604052565b60e081019081106001600160401b0382111761042b57604052565b602081019081106001600160401b0382111761042b57604052565b90601f801991011681019081106001600160401b0382111761042b57604052565b6001600160401b03811161042b57601f01601f191660200190565b9291926122cf826122a8565b916122dd6040519384612287565b829481845281830111610280578281602093846000960137010152565b9080601f8301121561028057816020612315933591016122c3565b90565b9181601f84011215610280578235916001600160401b038311610280576020838186019501011161028057565b6060906003190112610280576001600160a01b0390600435828116810361028057916024359081168103610280579060443590565b60206123939181604051938285809451938492016121c1565b8101600a81520301902090565b6001600160a01b031680156123c057600052600360205260406000205490565b60405162461bcd60e51b815260206004820152602960248201527f4552433732313a2061646472657373207a65726f206973206e6f7420612076616044820152683634b21037bbb732b960b91b6064820152608490fd5b1561241e57565b60405162461bcd60e51b815260206004820152601860248201527f4552433732313a20696e76616c696420746f6b656e20494400000000000000006044820152606490fd5b6000908152600260205260409020546001600160a01b0316612315811515612417565b90600182811c921680156124b6575b60208310146124a057565b634e487b7160e01b600052602260045260246000fd5b91607f1691612495565b90604051918260008254926124d484612486565b9081845260019485811690816000146125435750600114612500575b50506124fe92500383612287565b565b9093915060005260209081600020936000915b81831061252b5750506124fe935082010138806124f0565b85548884018501529485019487945091830191612513565b9150506124fe94506020925060ff191682840152151560051b82010138806124f0565b600081815260026020526040902054612589906001600160a01b03161515612417565b6000908152600460205260409020546001600160a01b031690565b156125ab57565b60405162461bcd60e51b815260206004820152602d60248201527f4552433732313a2063616c6c6572206973206e6f7420746f6b656e206f776e6560448201526c1c881bdc88185c1c1c9bdd9959609a1b6064820152608490fd5b60809060208152603260208201527f4552433732313a207472616e7366657220746f206e6f6e20455243373231526560408201527131b2b4bb32b91034b6b83632b6b2b73a32b960711b60608201520190565b1561266057565b60405162461bcd60e51b81528061267960048201612606565b0390fd5b906001600160a01b03808061269184612463565b169316918383149384156126c4575b5083156126ae575b50505090565b6126ba91929350612566565b16143880806126a8565b909350600052600560205260406000208260005260205260ff6040600020541692386126a0565b156126f257565b60405162461bcd60e51b815260206004820152602560248201527f4552433732313a207472616e736665722066726f6d20696e636f72726563742060448201526437bbb732b960d91b6064820152608490fd5b6127699161275284612463565b6001600160a01b03938484169391851684146126eb565b83821693841561293e5783918261289b575090506008549085600052600960205281604060002055600160401b82101561042b576127e8926127cf876127b6856001899701600855612bc8565b90919082549060031b91821b91600019901b1916179055565b828603612868575b506127e186612463565b16146126eb565b7fddf252ad1be2c89b69c2b068fc378daa952ba7f163c4a11628f55a4df523b3ef60008481526004602052604081206bffffffffffffffffffffffff60a01b9081815416905583825260036020526040822060001981540190558482526040822060018154019055858252600260205284604083209182541617905580a4565b612871906123a0565b604060008781526006602052818120838252602052888282205588815260076020522055386127d7565b8583036128ad575b506127e8926127cf565b6128b89192506123a0565b600019810191908211610b8c576127e89284926000908882526020906007825260409182842054828103612907575b508a845283838120558684526006815282842091845252812055926128a3565b87855260068252838520838652825283852054888652600683528486208287528352808587205585526007825283852055386128e7565b60405162461bcd60e51b8152602060048201526024808201527f4552433732313a207472616e7366657220746f20746865207a65726f206164646044820152637265737360e01b6064820152608490fd5b9192600092909190803b15612aa5576129dd946040518092630a85bd0160e11b9485835233600484015287602484015260448301526080606483015281878160209a8b9660848301906121e4565b03926001600160a01b03165af1849181612a61575b50612a50575050503d600014612a48573d612a0c816122a8565b90612a1a6040519283612287565b81528091833d92013e5b80519182612a455760405162461bcd60e51b81528061267960048201612606565b01fd5b506060612a24565b6001600160e01b0319161492509050565b9091508581813d8311612a9e575b612a798183612287565b81010312612a9a57516001600160e01b031981168103612a9a5790386129f2565b8480fd5b503d612a6f565b5050915050600190565b9293600093909291803b15612b2f57948491612b099660405180948193630a85bd0160e11b9788845233600485015260018060a01b0380921660248501526044840152608060648401528260209b8c9760848301906121e4565b0393165af1849181612a615750612a50575050503d600014612a48573d612a0c816122a8565b505050915050600190565b612b43816123a0565b821015612b6f5760018060a01b0316600052600660205260406000209060005260205260406000205490565b60405162461bcd60e51b815260206004820152602b60248201527f455243373231456e756d657261626c653a206f776e657220696e646578206f7560448201526a74206f6620626f756e647360a81b6064820152608490fd5b60085481101561080b5760086000527ff3f7a9fe364faab93b216da50a3214154f22a0a2b415b23a84c8169e8b636ee30190600090565b8115612195570490565b90612c1382613446565b6000928352602092600c84526001806040832001604051928092825492612c3984612486565b93828116908115612c9f5750600114612c6b575b505050509061231593948183600a6008955203019020015490613667565b909180939450528682205b838310612c8e57505050810184826008612315612c4d565b805485840152918701918101612c76565b60ff1916875250505050801515028201905084826008612315612c4d565b600052600c602052612315604060002061045460048201549161045460058201549160076006820154910154906136ad565b6001600160401b03811161042b5760051b60200190565b6000198114610b8c5760010190565b908060209392818452848401376000828201840152601f01601f1916010190565b90601f8111612d4457505050565b600091825260208220906020601f850160051c83019410612d80575b601f0160051c01915b828110612d7557505050565b818155600101612d69565b9092508290612d60565b90604091825192612d9a8461226c565b60008085526001600160a01b038316918215612ec857600085815260026020526040902054612dd5906001600160a01b031615155b15612f0b565b600854858352602090600982528083852055600160401b811015612eb457928694919260028694612e18610a879a6127b68960016124fe9f9d9b01600855612bc8565b612e21876123a0565b8585526006825283852081865282528385208790558685526007825283852055600086815260026020526040902054612e64906001600160a01b03161515612dcf565b848452600381528284208054600101905585845252812080546001600160a01b031916831790557fddf252ad1be2c89b69c2b068fc378daa952ba7f163c4a11628f55a4df523b3ef8180a461298f565b634e487b7160e01b84526041600452602484fd5b5162461bcd60e51b815260206004820181905260248201527f4552433732313a206d696e7420746f20746865207a65726f20616464726573736044820152606490fd5b15612f1257565b60405162461bcd60e51b815260206004820152601c60248201527f4552433732313a20746f6b656e20616c7265616479206d696e746564000000006044820152606490fd5b60408051918381843760ff83858101600d815260209586910301902054166130a157600d841161306d5760005b848110612f92575050505050565b600360fc1b828201356001600160f81b03191690811015908161305e575b811561303a575b8115613014575b5015612fd257612fcd90612d06565b612f84565b60648484519062461bcd60e51b825280600483015260248201527f4e616d6520636f6e7461696e7320696e76616c696420636861726163746572736044820152fd5b606160f81b81101591508161302b575b5038612fbe565b603d60f91b1015905038613024565b9050604160f81b81101580613050575b90612fb7565b50602d60f91b81111561304a565b603960f81b8111159150612fb0565b815162461bcd60e51b815260048101849052600d60248201526c4e616d6520746f6f206c6f6e6760981b6044820152606490fd5b815162461bcd60e51b815260048101849052600a6024820152692730b6b2903a30b5b2b760b11b6044820152606490fd5b156130d957565b60405162461bcd60e51b8152602060048201526014602482015273151bdad95b88191bd95cc81b9bdd08195e1a5cdd60621b6044820152606490fd5b60008181526002602052604090205490919061313b906001600160a01b031615156130d2565b600091808352602092600c84526001908160408220018560405191839080549061316482612486565b918781169081156132795750600114613247575b5050908282600a600695945203019020015491838252600c8652806040832001906040519183918154916131ab83612486565b9282811690811561322d57506001146131fc575b5050506104549392600c886131ef6004866123159b9c60079888600a60409a520301902001549661073a8a613446565b9783525220015490613667565b855288852091925084915b83831061321c57505050810182600c886131bf565b805485840152918901918101613207565b60ff19168652505050801515028201905082600c886131bf565b90915084528184208585915b838310613267575050508201826006613178565b80548684015291840191879101613253565b60ff1916865250508015150283019050826006613178565b6000818152600260205260409020549091906132b7906001600160a01b031615156130d2565b600091808352602092600c8452600190816040822001856040519183908054906132e082612486565b918781169081156133f757506001146133c5575b5050908282600a600795945203019020015491838252600c86528060408320019060405191839181549161332783612486565b928281169081156133aa5750600114613378575b50505086600660406104549695600c6005876123159c9d61073a9989600a6133729b52030190200154948a83525220015490613667565b93613446565b855288852091925084915b838310613399575050508101866006604061333b565b805485840152918901918101613383565b60ff191686525050508015150282019050866006604061333b565b90915084528184208585915b8383106133e55750505082018260076132f4565b805486840152918401918791016133d1565b60ff19168652505080151502830190508260076132f4565b600081815260026020526040902054613432906001600160a01b031615156130d2565b600052600c60205260086040600020015490565b600081815260026020526040902054613469906001600160a01b031615156130d2565b6000908152600c6020526134866008604083200154601554613667565b90607d8201918281116135525782101580613547575b6134a59061364a565b80600383111561353857508160019080821c8281018091116135245791905b848310613504575050505b6134dc826005111561364a565b60041982019182116134f05750600a900490565b634e487b7160e01b81526011600452602490fd5b9091935061351b846135168184612bff565b6136a0565b821c91906134c4565b634e487b7160e01b84526011600452602484fd5b91156134cf57600191506134cf565b50607d82101561349c565b634e487b7160e01b82526011600452602482fd5b600a8102908015818304600a14811715610b8c5761358b918115613602575b5061364a565b6005810190818111610b8c57811015806135f7575b6135a99061364a565b6001815b600282106135dc5750506135c481607d111561364a565b607c198101908111610b8c5760155461231591612bff565b90916135eb826135f192613667565b92612d06565b906135ad565b5060058110156135a0565b600a91506136109084612bff565b1438613585565b60206136309181604051938285809451938492016121c1565b8101600a815203019020541561364557600190565b600090565b1561365157565b634e487b7160e01b600052600160045260246000fd5b818102918115908284048114821715610b8c5761231592821561368c575b505061364a565b61369891925084612bff565b143880613685565b91908201809211610b8c57565b90612315906136bc81846136a0565b9283101590816136cc575061364a565b905082101538613585565b90604051916020926137058482816136f881830196878151938492016121c1565b8101038084520182612287565b519020916137256040519182816136f881830196878151938492016121c1565b519020036136455760019056fea264697066735822122013250754d3b9b529cf2f6a2e4081fde866026602dc797ea06ba64c88d2286bb064736f6c63430008130033",
  "immutableReferences": {},
  "source": "// SPDX-License-Identifier: MIT\npragma solidity ^0.8.18;\n\nimport \"@openzeppelin/contracts/token/ERC721/ERC721.sol\";\nimport \"@openzeppelin/contracts/utils/Counters.sol\";\nimport \"@openzeppelin/contracts/token/ERC721/extensions/ERC721Enumerable.sol\";\n\n\nimport \"./SafeMath.sol\";\nimport \"./FightersClasses.sol\";\nimport \"./FightersAtts.sol\";\n\ncontract Fighters is ERC721Enumerable, FightersAtts, FightersClasses, SafeMath {\n    using Counters for Counters.Counter;\n\n    // Initial attributes by class\n    mapping (uint256 => Attributes) private _initialAttributes;\n    mapping (uint256 => Attributes) private _tokenAttributes;\n    mapping (string => bool) public names;\n\n    // Events\n    event FighterCreated(uint256 tokenId, address owner, string fighterClass, string name);\n    event NPCCreated(address indexed creator, uint256 tokenId, string className, string npcName);\n    event StatsUpdated(uint256 tokenId, uint256 strength, uint256 agility, uint256 energy, uint256 vitality);\n    event ItemEquiped(uint256 tokenId, uint256 itemId, uint256 slot);\n\n    // Counter for token IDs\n    Counters.Counter private _tokenIdCounter;\n\n    constructor() ERC721(\"MRIUS\", \"Fighter\") {\n        // Set initial attributes for each class\n        // _initialAttributes[uint256(FighterClass.DarkKnight)]        = Attributes(\"\", 0, 42, 21,  5, 20, 0, 1,     5,  5, 5, 1, 5, 27, 7, 0, 0);\n        // _initialAttributes[uint256(FighterClass.DarkWizard)]        = Attributes(\"\", 0, 15, 20, 50, 20, 0, 2,     3, 10, 3, 5, 5, 16, 5, 0, 0);\n        // _initialAttributes[uint256(FighterClass.FairyElf)]          = Attributes(\"\", 0, 20, 25, 15, 20, 0, 3,     3,  5, 3, 4, 5, 12, 5, 0, 0);\n        // _initialAttributes[uint256(FighterClass.MagicGladiator)]    = Attributes(\"\", 0, 28, 14, 20, 20, 0, 4,     4,  7, 6, 2, 7, 23, 7, 0, 0);\n\n\n        // DK\n        updateFighterClass(\"Warrior\",   FightersClassAttributes(42, 21,  5, 20,  5,  5, 5, 1, 5, 27, 7,  0, 0));\n        updateFighterClass(\"Wizard\",    FightersClassAttributes(15, 20, 50, 20,  3, 10, 3, 5, 5, 16, 5,  0, 0));\n    }\n\n    function updateFighterStats(uint256 tokenId, uint256 strength, uint256 agility, uint256 energy, uint256 vitality)  external  {\n        // Check msg.sender is the NFT owner\n        require(ownerOf(tokenId) == msg.sender, \"Access Denied\");\n        \n        require(strength >= _tokenAttributes[tokenId].strength, \"Strength can't be decreased\");\n        require(agility >= _tokenAttributes[tokenId].agility, \"Agility can't be decreased\");\n        require(energy >= _tokenAttributes[tokenId].energy, \"Energy can't be decreased\");\n        require(vitality >= _tokenAttributes[tokenId].vitality, \"Vitality can't be decreased\");\n\n\n        uint256 maxPoints = getMaxStatPoints(tokenId);\n        uint256 usedStatPoints = getTotalUsedStatPoints(tokenId);\n\n        uint256 newTotalStats = safeAdd(strength, safeAdd(agility, safeAdd(energy, vitality)));\n\n        require(newTotalStats <= maxPoints, \"Trying too add too many points\");\n\n        _tokenAttributes[tokenId].strength = strength;\n        _tokenAttributes[tokenId].agility = agility;\n        _tokenAttributes[tokenId].energy = energy;\n        _tokenAttributes[tokenId].vitality = vitality;\n\n        emit StatsUpdated(tokenId, strength, agility, energy, vitality);\n    }\n\n    function getMaxStatPoints(uint256 tokenId) public view returns (uint256) {\n        uint256 levelPoints = safeMul(getLevel(tokenId), FighterClasses[_tokenAttributes[tokenId].class].statPointsPerLevel);\n\n        return levelPoints;\n    }\n\n    function getTotalUsedStatPoints(uint256 tokenId) public view returns (uint256) {\n        return safeAdd(_tokenAttributes[tokenId].strength,\n                safeAdd(_tokenAttributes[tokenId].agility, \n                safeAdd(_tokenAttributes[tokenId].energy,\n                _tokenAttributes[tokenId].vitality)));\n    }\n\n    function getUserFighters(address userAddress) external view returns (uint256[] memory) {        \n        uint256 numTokens = balanceOf(userAddress);\n        uint256[] memory tokenIds = new uint256[](numTokens);\n\n        for (uint256 i = 0; i < numTokens; i++) {\n            tokenIds[i] = tokenOfOwnerByIndex(userAddress, i);\n        }\n\n        return tokenIds;\n    }\n\n    // Create a new fighter NFT with initial attributes\n    function createFighter(address owner, string calldata name, string calldata fighterClass) external returns (uint256) {\n        // Make sure the class is valid\n        require(fighterClassExists(fighterClass), \"Invalid fighter class\");\n\n        validateFighterName(name);\n        \n\n        // Mint the NFT with the initial attributes\n        _tokenIdCounter.increment();\n        uint256 tokenId = _tokenIdCounter.current();       \n\n        emit FighterCreated(tokenId, owner, fighterClass, name);\n\n        \n\n        _safeMint(owner, tokenId);\n        \n\n        _tokenAttributes[tokenId] = Attributes({\n            name: name,\n            class: fighterClass,\n            tokenId: tokenId,\n            birthBlock: block.number,\n            strength: 0,\n            agility: 0,\n            energy: 0,\n            vitality: 0,\n            experience: 0,\n            hpPerVitalityPoint: 0,\n            manaPerEnergyPoint: 0,\n            hpIncreasePerLevel: 0,\n            manaIncreasePerLevel: 0,\n            statPointsPerLevel: 0,\n            attackSpeed: 0,\n            agilityPointsPerSpeed: 0,\n            isNpc: 0,\n            dropRarityLevel: 0\n        });  \n\n        names[name] = true; \n\n        return tokenId;\n    }\n\n    function validateFighterName(string calldata name) public view {\n        require(!names[name], \"Name taken\");   \n        require(bytes(name).length <= 13, \"Name too long\");\n\n        // Check if name contains only A-Z, a-z, 0-9\n        for (uint i = 0; i < bytes(name).length; i++) {\n            bytes1 char = bytes(name)[i];\n            require((char >= '0' && char <= '9') || \n                    (char >= 'A' && char <= 'Z') || \n                    (char >= 'a' && char <= 'z'), \"Name contains invalid characters\");\n        }\n    }\n\n    function createNPC(string calldata npcName, string calldata className, address ownerAddress) external returns (uint256) {\n        validateFighterName(npcName);\n        _tokenIdCounter.increment();\n        uint256 tokenId = _tokenIdCounter.current();\n        _safeMint(ownerAddress, tokenId);\n        _tokenAttributes[tokenId].tokenId = tokenId;\n        _tokenAttributes[tokenId].name = npcName;\n        _tokenAttributes[tokenId].class = className;\n        _tokenAttributes[tokenId].experience = getExpFromLevel(FighterClasses[className].dropRarityLevel);      \n\n        names[npcName] = true;\n\n        emit NPCCreated(ownerAddress, tokenId, npcName, className);\n\n        return tokenId;\n    }\n\n    // Get the attributes for a fighter NFT\n    function getTokenAttributes(uint256 tokenId) public view returns (Attributes memory) {\n        require(_exists(tokenId), \"Token does not exist\");\n\n        Attributes memory atts = _tokenAttributes[tokenId];\n\n        atts.strength   = safeAdd(atts.strength,    FighterClasses[atts.class].baseStrength);\n        atts.agility    = safeAdd(atts.agility,     FighterClasses[atts.class].baseAgility);\n        atts.energy     = safeAdd(atts.energy,      FighterClasses[atts.class].baseEnergy);\n        atts.vitality   = safeAdd(atts.vitality,    FighterClasses[atts.class].baseVitality);\n\n        atts.hpPerVitalityPoint     = FighterClasses[atts.class].hpPerVitalityPoint;\n        atts.manaPerEnergyPoint     = FighterClasses[atts.class].manaPerEnergyPoint;\n        atts.hpIncreasePerLevel     = FighterClasses[atts.class].hpIncreasePerLevel;\n        atts.statPointsPerLevel     = FighterClasses[atts.class].statPointsPerLevel;\n        atts.attackSpeed            = FighterClasses[atts.class].attackSpeed;\n        atts.agilityPointsPerSpeed  = FighterClasses[atts.class].agilityPointsPerSpeed;\n        atts.isNpc                  = FighterClasses[atts.class].isNpc;\n        atts.dropRarityLevel        = FighterClasses[atts.class].dropRarityLevel; \n\n        return atts;\n    }\n\n    function getOwner(uint256 tokenId) public view returns (address) {\n        return ownerOf(tokenId);\n    }\n\n    function getDropRarityLevel(uint256 tokenId) public view returns (uint256) {\n        return _tokenAttributes[tokenId].dropRarityLevel;\n    }\n\n    // Set the attributes for a fighter NFT\n    function _setTokenAttributes(uint256 tokenId, Attributes memory atts) internal {\n        require(_exists(tokenId), \"Token does not exist\");\n\n        _tokenAttributes[tokenId].strength  = atts.strength;\n        _tokenAttributes[tokenId].agility   = atts.agility;\n        _tokenAttributes[tokenId].energy    = atts.energy;\n        _tokenAttributes[tokenId].vitality  = atts.vitality;\n    }\n\n    // Increase fighter experience\n    function increaseExperience(uint256 tokenId, uint256 addExp) external  {\n        require(_exists(tokenId), \"Token does not exist\");\n\n        _tokenAttributes[tokenId].experience = min(maxExperience, safeAdd(_tokenAttributes[tokenId].experience, addExp));\n    }\n\n\n    function getMaxHealth(uint256 tokenId) public view returns (uint256) \n    {\n        require(_exists(tokenId), \"Token does not exist\");\n        uint256 increasePerLevel = 0;\n        uint256 hpPerVitalityPoint = 0;\n        uint256 vitalityPoints;\n\n        increasePerLevel = FighterClasses[_tokenAttributes[tokenId].class].hpIncreasePerLevel;\n        hpPerVitalityPoint = FighterClasses[_tokenAttributes[tokenId].class].hpPerVitalityPoint;\n        \n\n        return safeAdd(safeMul(increasePerLevel, getLevel(tokenId)), safeMul(hpPerVitalityPoint, _tokenAttributes[tokenId].vitality));\n    }\n\n\n    function getMaxMana(uint256 tokenId) public view returns (uint256) \n    {\n        require(_exists(tokenId), \"Token does not exist\");\n        uint256 increasePerLevel = 0;\n        uint256 mpPerEnergyPoint = 0;\n        uint256 energyPoints;\n\n        \n        increasePerLevel = FighterClasses[_tokenAttributes[tokenId].class].manaIncreasePerLevel;\n        mpPerEnergyPoint = FighterClasses[_tokenAttributes[tokenId].class].manaPerEnergyPoint;\n        \n\n        return safeAdd(safeMul(mpPerEnergyPoint, _tokenAttributes[tokenId].energy), safeMul(increasePerLevel, getLevel(tokenId)));\n    }\n\n    \n\n    function getFighterStats(uint256 tokenId) public view returns (FighterStats memory)\n    {\n        require(_exists(tokenId), \"Token does not exist\");\n        FighterStats memory stats = FighterStats({\n            tokenId: tokenId,\n            maxHealth: getMaxHealth(tokenId),\n            maxMana: getMaxMana(tokenId),\n            level: getLevel(tokenId),\n            exp: getExperience(tokenId),\n            totalStatPoints: getTotalUsedStatPoints(tokenId),\n            maxStatPoints: getMaxStatPoints(tokenId)\n        });\n\n        return stats;\n    }\n\n    function getExperience(uint256 tokenId) public view returns (uint256)\n    {\n        require(_exists(tokenId), \"Token does not exist\");\n\n        // Health = Health_After_Last_Damage + (Current Block Number - Last Damage Block Number) * Health Regeneration Rate\n        return _tokenAttributes[tokenId].experience;\n    }\n\n    // Get player level\n    function getLevel(uint256 tokenId) public view returns (uint256) \n    {\n        require(_exists(tokenId), \"Token does not exist\");\n\n        uint256 exp = _tokenAttributes[tokenId].experience;\n\n        return safeSub(sqrt(safeAdd(safeMul(experienceDivider, exp), 125)), 5) / 10;\n    }\n\n    // Reverse function for getLevel\n    function getExpFromLevel(uint256 level) public view returns (uint256) {\n        uint256 exp = safeAdd(safeMul(level, 10), 5); // level.mul(10).add(5) \n        exp = safePow(exp, 2);\n        exp = safeSub(exp, 125)/experienceDivider; // exp.sub(125).div(experienceDivider);\n        return exp;\n    }\n\n    uint256 healthRegenerationDivider = 8;\n    uint256 manaRegenerationDivider = 8;\n    uint256 agilityPerDefence = 4;\n    uint256 strengthPerDamage = 8;\n    uint256 energyPerDamage = 8;\n    uint256 maxExperience = 291342500;\n    uint256 experienceDivider = 5;\n\n\n    event updateHealthRegenerationDivider(uint256);\n    event updateManaRegenerationDivider(uint256);\n    event updateAgilityPerDefence(uint256);\n    event updateStrengthPerDamage(uint256);\n    event updateEnergyPerDamage(uint256);\n    event updateMaxExperience(uint256);\n    event updateExperienceDivider(uint256);\n    \n\n    function setHealthRegenerationDivider(uint256 val) external {\n        healthRegenerationDivider = val;\n\n        emit updateHealthRegenerationDivider(val);\n    }\n\n   function setManaRegenerationDivider(uint256 val) external {\n        manaRegenerationDivider = val;\n\n        emit updateManaRegenerationDivider(val);\n    }\n\n   function setAgilityPerDefence(uint256 val) external {\n        agilityPerDefence = val;\n\n        emit updateAgilityPerDefence(val);\n    }\n\n   function setStrengthPerDamage(uint256 val) external {\n        strengthPerDamage = val;\n\n        emit updateStrengthPerDamage(val);\n    }\n\n   function setEnergyPerDamage(uint256 val) external  {\n        energyPerDamage = val;\n\n        emit updateEnergyPerDamage(val);\n    }\n\n    function setMaxExperience(uint256 val) external  {\n        maxExperience = val;\n\n        emit updateMaxExperience(val);\n    }\n\n    function setExperienceDivider(uint256 val) external  {\n        experienceDivider = val;\n\n        emit updateExperienceDivider(val);\n    }\n}\n",
  "sourcePath": "/Users/max/Documents/prog/game-contracts/contracts/Fighters.sol",
  "compiler": {
    "name": "solc",
    "version": "0.8.19+commit.7dd6d404.Emscripten.clang"
  },
  "schemaVersion": "3.4.13",
  "updatedAt": "2023-09-03T04:36:07.061Z",
  "networkType": "ethereum",
  "devdoc": {
    "events": {
      "Approval(address,address,uint256)": {
        "details": "Emitted when `owner` enables `approved` to manage the `tokenId` token."
      },
      "ApprovalForAll(address,address,bool)": {
        "details": "Emitted when `owner` enables or disables (`approved`) `operator` to manage all of its assets."
      },
      "Transfer(address,address,uint256)": {
        "details": "Emitted when `tokenId` token is transferred from `from` to `to`."
      }
    },
    "kind": "dev",
    "methods": {
      "approve(address,uint256)": {
        "details": "See {IERC721-approve}."
      },
      "balanceOf(address)": {
        "details": "See {IERC721-balanceOf}."
      },
      "getApproved(uint256)": {
        "details": "See {IERC721-getApproved}."
      },
      "isApprovedForAll(address,address)": {
        "details": "See {IERC721-isApprovedForAll}."
      },
      "name()": {
        "details": "See {IERC721Metadata-name}."
      },
      "ownerOf(uint256)": {
        "details": "See {IERC721-ownerOf}."
      },
      "safeTransferFrom(address,address,uint256)": {
        "details": "See {IERC721-safeTransferFrom}."
      },
      "safeTransferFrom(address,address,uint256,bytes)": {
        "details": "See {IERC721-safeTransferFrom}."
      },
      "setApprovalForAll(address,bool)": {
        "details": "See {IERC721-setApprovalForAll}."
      },
      "supportsInterface(bytes4)": {
        "details": "See {IERC165-supportsInterface}."
      },
      "symbol()": {
        "details": "See {IERC721Metadata-symbol}."
      },
      "tokenByIndex(uint256)": {
        "details": "See {IERC721Enumerable-tokenByIndex}."
      },
      "tokenOfOwnerByIndex(address,uint256)": {
        "details": "See {IERC721Enumerable-tokenOfOwnerByIndex}."
      },
      "tokenURI(uint256)": {
        "details": "See {IERC721Metadata-tokenURI}."
      },
      "totalSupply()": {
        "details": "See {IERC721Enumerable-totalSupply}."
      },
      "transferFrom(address,address,uint256)": {
        "details": "See {IERC721-transferFrom}."
      }
    },
    "version": 1
  },
  "userdoc": {
    "kind": "user",
    "methods": {},
    "version": 1
  }
}