{
  "contractName": "Fighters",
  "abi": [
    {
      "inputs": [],
      "stateMutability": "nonpayable",
      "type": "constructor"
    },
    {
      "anonymous": false,
      "inputs": [
        {
          "indexed": true,
          "internalType": "address",
          "name": "owner",
          "type": "address"
        },
        {
          "indexed": true,
          "internalType": "address",
          "name": "approved",
          "type": "address"
        },
        {
          "indexed": true,
          "internalType": "uint256",
          "name": "tokenId",
          "type": "uint256"
        }
      ],
      "name": "Approval",
      "type": "event"
    },
    {
      "anonymous": false,
      "inputs": [
        {
          "indexed": true,
          "internalType": "address",
          "name": "owner",
          "type": "address"
        },
        {
          "indexed": true,
          "internalType": "address",
          "name": "operator",
          "type": "address"
        },
        {
          "indexed": false,
          "internalType": "bool",
          "name": "approved",
          "type": "bool"
        }
      ],
      "name": "ApprovalForAll",
      "type": "event"
    },
    {
      "anonymous": false,
      "inputs": [
        {
          "indexed": false,
          "internalType": "uint256",
          "name": "tokenId",
          "type": "uint256"
        },
        {
          "indexed": false,
          "internalType": "address",
          "name": "owner",
          "type": "address"
        },
        {
          "indexed": false,
          "internalType": "uint8",
          "name": "fighterClass",
          "type": "uint8"
        },
        {
          "indexed": false,
          "internalType": "string",
          "name": "name",
          "type": "string"
        }
      ],
      "name": "FighterCreated",
      "type": "event"
    },
    {
      "anonymous": false,
      "inputs": [
        {
          "indexed": false,
          "internalType": "uint256",
          "name": "tokenId",
          "type": "uint256"
        },
        {
          "indexed": false,
          "internalType": "uint256",
          "name": "itemId",
          "type": "uint256"
        },
        {
          "indexed": false,
          "internalType": "uint256",
          "name": "slot",
          "type": "uint256"
        }
      ],
      "name": "ItemEquiped",
      "type": "event"
    },
    {
      "anonymous": false,
      "inputs": [
        {
          "indexed": true,
          "internalType": "address",
          "name": "creator",
          "type": "address"
        },
        {
          "indexed": false,
          "internalType": "uint256",
          "name": "tokenId",
          "type": "uint256"
        },
        {
          "indexed": false,
          "internalType": "uint8",
          "name": "class",
          "type": "uint8"
        }
      ],
      "name": "NPCCreated",
      "type": "event"
    },
    {
      "anonymous": false,
      "inputs": [
        {
          "indexed": false,
          "internalType": "uint256",
          "name": "tokenId",
          "type": "uint256"
        },
        {
          "indexed": false,
          "internalType": "uint256",
          "name": "strength",
          "type": "uint256"
        },
        {
          "indexed": false,
          "internalType": "uint256",
          "name": "agility",
          "type": "uint256"
        },
        {
          "indexed": false,
          "internalType": "uint256",
          "name": "energy",
          "type": "uint256"
        },
        {
          "indexed": false,
          "internalType": "uint256",
          "name": "vitality",
          "type": "uint256"
        }
      ],
      "name": "StatsUpdated",
      "type": "event"
    },
    {
      "anonymous": false,
      "inputs": [
        {
          "indexed": true,
          "internalType": "address",
          "name": "from",
          "type": "address"
        },
        {
          "indexed": true,
          "internalType": "address",
          "name": "to",
          "type": "address"
        },
        {
          "indexed": true,
          "internalType": "uint256",
          "name": "tokenId",
          "type": "uint256"
        }
      ],
      "name": "Transfer",
      "type": "event"
    },
    {
      "anonymous": false,
      "inputs": [
        {
          "indexed": false,
          "internalType": "uint256",
          "name": "",
          "type": "uint256"
        }
      ],
      "name": "updateAgilityPerDefence",
      "type": "event"
    },
    {
      "anonymous": false,
      "inputs": [
        {
          "indexed": false,
          "internalType": "uint256",
          "name": "",
          "type": "uint256"
        }
      ],
      "name": "updateEnergyPerDamage",
      "type": "event"
    },
    {
      "anonymous": false,
      "inputs": [
        {
          "indexed": false,
          "internalType": "uint256",
          "name": "",
          "type": "uint256"
        }
      ],
      "name": "updateExperienceDivider",
      "type": "event"
    },
    {
      "anonymous": false,
      "inputs": [
        {
          "indexed": false,
          "internalType": "uint256",
          "name": "",
          "type": "uint256"
        }
      ],
      "name": "updateHealthRegenerationDivider",
      "type": "event"
    },
    {
      "anonymous": false,
      "inputs": [
        {
          "indexed": false,
          "internalType": "uint256",
          "name": "",
          "type": "uint256"
        }
      ],
      "name": "updateManaRegenerationDivider",
      "type": "event"
    },
    {
      "anonymous": false,
      "inputs": [
        {
          "indexed": false,
          "internalType": "uint256",
          "name": "",
          "type": "uint256"
        }
      ],
      "name": "updateMaxExperience",
      "type": "event"
    },
    {
      "anonymous": false,
      "inputs": [
        {
          "indexed": false,
          "internalType": "uint256",
          "name": "",
          "type": "uint256"
        }
      ],
      "name": "updateStrengthPerDamage",
      "type": "event"
    },
    {
      "inputs": [
        {
          "internalType": "address",
          "name": "to",
          "type": "address"
        },
        {
          "internalType": "uint256",
          "name": "tokenId",
          "type": "uint256"
        }
      ],
      "name": "approve",
      "outputs": [],
      "stateMutability": "nonpayable",
      "type": "function"
    },
    {
      "inputs": [
        {
          "internalType": "address",
          "name": "owner",
          "type": "address"
        }
      ],
      "name": "balanceOf",
      "outputs": [
        {
          "internalType": "uint256",
          "name": "",
          "type": "uint256"
        }
      ],
      "stateMutability": "view",
      "type": "function",
      "constant": true
    },
    {
      "inputs": [
        {
          "internalType": "uint256",
          "name": "tokenId",
          "type": "uint256"
        }
      ],
      "name": "getApproved",
      "outputs": [
        {
          "internalType": "address",
          "name": "",
          "type": "address"
        }
      ],
      "stateMutability": "view",
      "type": "function",
      "constant": true
    },
    {
      "inputs": [
        {
          "internalType": "address",
          "name": "owner",
          "type": "address"
        },
        {
          "internalType": "address",
          "name": "operator",
          "type": "address"
        }
      ],
      "name": "isApprovedForAll",
      "outputs": [
        {
          "internalType": "bool",
          "name": "",
          "type": "bool"
        }
      ],
      "stateMutability": "view",
      "type": "function",
      "constant": true
    },
    {
      "inputs": [],
      "name": "name",
      "outputs": [
        {
          "internalType": "string",
          "name": "",
          "type": "string"
        }
      ],
      "stateMutability": "view",
      "type": "function",
      "constant": true
    },
    {
      "inputs": [
        {
          "internalType": "string",
          "name": "",
          "type": "string"
        }
      ],
      "name": "names",
      "outputs": [
        {
          "internalType": "bool",
          "name": "",
          "type": "bool"
        }
      ],
      "stateMutability": "view",
      "type": "function",
      "constant": true
    },
    {
      "inputs": [
        {
          "internalType": "uint256",
          "name": "tokenId",
          "type": "uint256"
        }
      ],
      "name": "ownerOf",
      "outputs": [
        {
          "internalType": "address",
          "name": "",
          "type": "address"
        }
      ],
      "stateMutability": "view",
      "type": "function",
      "constant": true
    },
    {
      "inputs": [
        {
          "internalType": "address",
          "name": "from",
          "type": "address"
        },
        {
          "internalType": "address",
          "name": "to",
          "type": "address"
        },
        {
          "internalType": "uint256",
          "name": "tokenId",
          "type": "uint256"
        }
      ],
      "name": "safeTransferFrom",
      "outputs": [],
      "stateMutability": "nonpayable",
      "type": "function"
    },
    {
      "inputs": [
        {
          "internalType": "address",
          "name": "from",
          "type": "address"
        },
        {
          "internalType": "address",
          "name": "to",
          "type": "address"
        },
        {
          "internalType": "uint256",
          "name": "tokenId",
          "type": "uint256"
        },
        {
          "internalType": "bytes",
          "name": "data",
          "type": "bytes"
        }
      ],
      "name": "safeTransferFrom",
      "outputs": [],
      "stateMutability": "nonpayable",
      "type": "function"
    },
    {
      "inputs": [
        {
          "internalType": "address",
          "name": "operator",
          "type": "address"
        },
        {
          "internalType": "bool",
          "name": "approved",
          "type": "bool"
        }
      ],
      "name": "setApprovalForAll",
      "outputs": [],
      "stateMutability": "nonpayable",
      "type": "function"
    },
    {
      "inputs": [
        {
          "internalType": "bytes4",
          "name": "interfaceId",
          "type": "bytes4"
        }
      ],
      "name": "supportsInterface",
      "outputs": [
        {
          "internalType": "bool",
          "name": "",
          "type": "bool"
        }
      ],
      "stateMutability": "view",
      "type": "function",
      "constant": true
    },
    {
      "inputs": [],
      "name": "symbol",
      "outputs": [
        {
          "internalType": "string",
          "name": "",
          "type": "string"
        }
      ],
      "stateMutability": "view",
      "type": "function",
      "constant": true
    },
    {
      "inputs": [
        {
          "internalType": "uint256",
          "name": "index",
          "type": "uint256"
        }
      ],
      "name": "tokenByIndex",
      "outputs": [
        {
          "internalType": "uint256",
          "name": "",
          "type": "uint256"
        }
      ],
      "stateMutability": "view",
      "type": "function",
      "constant": true
    },
    {
      "inputs": [
        {
          "internalType": "address",
          "name": "owner",
          "type": "address"
        },
        {
          "internalType": "uint256",
          "name": "index",
          "type": "uint256"
        }
      ],
      "name": "tokenOfOwnerByIndex",
      "outputs": [
        {
          "internalType": "uint256",
          "name": "",
          "type": "uint256"
        }
      ],
      "stateMutability": "view",
      "type": "function",
      "constant": true
    },
    {
      "inputs": [
        {
          "internalType": "uint256",
          "name": "tokenId",
          "type": "uint256"
        }
      ],
      "name": "tokenURI",
      "outputs": [
        {
          "internalType": "string",
          "name": "",
          "type": "string"
        }
      ],
      "stateMutability": "view",
      "type": "function",
      "constant": true
    },
    {
      "inputs": [],
      "name": "totalSupply",
      "outputs": [
        {
          "internalType": "uint256",
          "name": "",
          "type": "uint256"
        }
      ],
      "stateMutability": "view",
      "type": "function",
      "constant": true
    },
    {
      "inputs": [
        {
          "internalType": "address",
          "name": "from",
          "type": "address"
        },
        {
          "internalType": "address",
          "name": "to",
          "type": "address"
        },
        {
          "internalType": "uint256",
          "name": "tokenId",
          "type": "uint256"
        }
      ],
      "name": "transferFrom",
      "outputs": [],
      "stateMutability": "nonpayable",
      "type": "function"
    },
    {
      "inputs": [
        {
          "internalType": "uint256",
          "name": "tokenId",
          "type": "uint256"
        },
        {
          "internalType": "uint256",
          "name": "strength",
          "type": "uint256"
        },
        {
          "internalType": "uint256",
          "name": "agility",
          "type": "uint256"
        },
        {
          "internalType": "uint256",
          "name": "energy",
          "type": "uint256"
        },
        {
          "internalType": "uint256",
          "name": "vitality",
          "type": "uint256"
        }
      ],
      "name": "updateFighterStats",
      "outputs": [],
      "stateMutability": "nonpayable",
      "type": "function"
    },
    {
      "inputs": [
        {
          "internalType": "uint256",
          "name": "tokenId",
          "type": "uint256"
        }
      ],
      "name": "getMaxStatPoints",
      "outputs": [
        {
          "internalType": "uint256",
          "name": "",
          "type": "uint256"
        }
      ],
      "stateMutability": "view",
      "type": "function",
      "constant": true
    },
    {
      "inputs": [
        {
          "internalType": "uint256",
          "name": "tokenId",
          "type": "uint256"
        }
      ],
      "name": "getTotalUsedStatPoints",
      "outputs": [
        {
          "internalType": "uint256",
          "name": "",
          "type": "uint256"
        }
      ],
      "stateMutability": "view",
      "type": "function",
      "constant": true
    },
    {
      "inputs": [
        {
          "internalType": "address",
          "name": "userAddress",
          "type": "address"
        }
      ],
      "name": "getUserFighters",
      "outputs": [
        {
          "internalType": "uint256[]",
          "name": "",
          "type": "uint256[]"
        }
      ],
      "stateMutability": "view",
      "type": "function",
      "constant": true
    },
    {
      "inputs": [
        {
          "internalType": "address",
          "name": "owner",
          "type": "address"
        },
        {
          "internalType": "string",
          "name": "name",
          "type": "string"
        },
        {
          "internalType": "enum FightersAtts.FighterClass",
          "name": "fighterClass",
          "type": "uint8"
        }
      ],
      "name": "createFighter",
      "outputs": [
        {
          "internalType": "uint256",
          "name": "",
          "type": "uint256"
        }
      ],
      "stateMutability": "nonpayable",
      "type": "function"
    },
    {
      "inputs": [
        {
          "internalType": "string",
          "name": "name",
          "type": "string"
        },
        {
          "internalType": "uint256",
          "name": "strength",
          "type": "uint256"
        },
        {
          "internalType": "uint256",
          "name": "agility",
          "type": "uint256"
        },
        {
          "internalType": "uint256",
          "name": "energy",
          "type": "uint256"
        },
        {
          "internalType": "uint256",
          "name": "vitality",
          "type": "uint256"
        },
        {
          "internalType": "uint256",
          "name": "attackSpeed",
          "type": "uint256"
        },
        {
          "internalType": "uint256",
          "name": "level",
          "type": "uint256"
        },
        {
          "internalType": "uint256",
          "name": "dropRarityLevel",
          "type": "uint256"
        }
      ],
      "name": "createNPC",
      "outputs": [
        {
          "internalType": "uint256",
          "name": "",
          "type": "uint256"
        }
      ],
      "stateMutability": "nonpayable",
      "type": "function"
    },
    {
      "inputs": [
        {
          "internalType": "uint256",
          "name": "tokenId",
          "type": "uint256"
        }
      ],
      "name": "getTokenAttributes",
      "outputs": [
        {
          "components": [
            {
              "internalType": "string",
              "name": "name",
              "type": "string"
            },
            {
              "internalType": "uint256",
              "name": "tokenId",
              "type": "uint256"
            },
            {
              "internalType": "uint256",
              "name": "strength",
              "type": "uint256"
            },
            {
              "internalType": "uint256",
              "name": "agility",
              "type": "uint256"
            },
            {
              "internalType": "uint256",
              "name": "energy",
              "type": "uint256"
            },
            {
              "internalType": "uint256",
              "name": "vitality",
              "type": "uint256"
            },
            {
              "internalType": "uint256",
              "name": "experience",
              "type": "uint256"
            },
            {
              "internalType": "uint256",
              "name": "class",
              "type": "uint256"
            },
            {
              "internalType": "uint256",
              "name": "hpPerVitalityPoint",
              "type": "uint256"
            },
            {
              "internalType": "uint256",
              "name": "manaPerEnergyPoint",
              "type": "uint256"
            },
            {
              "internalType": "uint256",
              "name": "hpIncreasePerLevel",
              "type": "uint256"
            },
            {
              "internalType": "uint256",
              "name": "manaIncreasePerLevel",
              "type": "uint256"
            },
            {
              "internalType": "uint256",
              "name": "statPointsPerLevel",
              "type": "uint256"
            },
            {
              "internalType": "uint256",
              "name": "attackSpeed",
              "type": "uint256"
            },
            {
              "internalType": "uint256",
              "name": "agilityPointsPerSpeed",
              "type": "uint256"
            },
            {
              "internalType": "uint256",
              "name": "isNpc",
              "type": "uint256"
            },
            {
              "internalType": "uint256",
              "name": "dropRarityLevel",
              "type": "uint256"
            }
          ],
          "internalType": "struct FightersAtts.Attributes",
          "name": "",
          "type": "tuple"
        }
      ],
      "stateMutability": "view",
      "type": "function",
      "constant": true
    },
    {
      "inputs": [
        {
          "internalType": "uint256",
          "name": "tokenId",
          "type": "uint256"
        }
      ],
      "name": "getOwner",
      "outputs": [
        {
          "internalType": "address",
          "name": "",
          "type": "address"
        }
      ],
      "stateMutability": "view",
      "type": "function",
      "constant": true
    },
    {
      "inputs": [
        {
          "internalType": "uint256",
          "name": "tokenId",
          "type": "uint256"
        }
      ],
      "name": "getDropRarityLevel",
      "outputs": [
        {
          "internalType": "uint256",
          "name": "",
          "type": "uint256"
        }
      ],
      "stateMutability": "view",
      "type": "function",
      "constant": true
    },
    {
      "inputs": [
        {
          "internalType": "uint256",
          "name": "tokenId",
          "type": "uint256"
        },
        {
          "internalType": "uint256",
          "name": "addExp",
          "type": "uint256"
        }
      ],
      "name": "increaseExperience",
      "outputs": [],
      "stateMutability": "nonpayable",
      "type": "function"
    },
    {
      "inputs": [
        {
          "internalType": "uint256",
          "name": "tokenId",
          "type": "uint256"
        }
      ],
      "name": "getMaxHealth",
      "outputs": [
        {
          "internalType": "uint256",
          "name": "",
          "type": "uint256"
        }
      ],
      "stateMutability": "view",
      "type": "function",
      "constant": true
    },
    {
      "inputs": [
        {
          "internalType": "uint256",
          "name": "tokenId",
          "type": "uint256"
        }
      ],
      "name": "getMaxMana",
      "outputs": [
        {
          "internalType": "uint256",
          "name": "",
          "type": "uint256"
        }
      ],
      "stateMutability": "view",
      "type": "function",
      "constant": true
    },
    {
      "inputs": [
        {
          "internalType": "uint256",
          "name": "tokenId",
          "type": "uint256"
        }
      ],
      "name": "getFighterStats",
      "outputs": [
        {
          "components": [
            {
              "internalType": "uint256",
              "name": "tokenId",
              "type": "uint256"
            },
            {
              "internalType": "uint256",
              "name": "maxHealth",
              "type": "uint256"
            },
            {
              "internalType": "uint256",
              "name": "maxMana",
              "type": "uint256"
            },
            {
              "internalType": "uint256",
              "name": "level",
              "type": "uint256"
            },
            {
              "internalType": "uint256",
              "name": "exp",
              "type": "uint256"
            },
            {
              "internalType": "uint256",
              "name": "totalStatPoints",
              "type": "uint256"
            },
            {
              "internalType": "uint256",
              "name": "maxStatPoints",
              "type": "uint256"
            }
          ],
          "internalType": "struct FightersAtts.FighterStats",
          "name": "",
          "type": "tuple"
        }
      ],
      "stateMutability": "view",
      "type": "function",
      "constant": true
    },
    {
      "inputs": [
        {
          "internalType": "uint256",
          "name": "tokenId",
          "type": "uint256"
        }
      ],
      "name": "getExperience",
      "outputs": [
        {
          "internalType": "uint256",
          "name": "",
          "type": "uint256"
        }
      ],
      "stateMutability": "view",
      "type": "function",
      "constant": true
    },
    {
      "inputs": [
        {
          "internalType": "uint256",
          "name": "tokenId",
          "type": "uint256"
        }
      ],
      "name": "getLevel",
      "outputs": [
        {
          "internalType": "uint256",
          "name": "",
          "type": "uint256"
        }
      ],
      "stateMutability": "view",
      "type": "function",
      "constant": true
    },
    {
      "inputs": [
        {
          "internalType": "uint256",
          "name": "level",
          "type": "uint256"
        }
      ],
      "name": "getExpFromLevel",
      "outputs": [
        {
          "internalType": "uint256",
          "name": "",
          "type": "uint256"
        }
      ],
      "stateMutability": "view",
      "type": "function",
      "constant": true
    },
    {
      "inputs": [
        {
          "internalType": "uint256",
          "name": "val",
          "type": "uint256"
        }
      ],
      "name": "setHealthRegenerationDivider",
      "outputs": [],
      "stateMutability": "nonpayable",
      "type": "function"
    },
    {
      "inputs": [
        {
          "internalType": "uint256",
          "name": "val",
          "type": "uint256"
        }
      ],
      "name": "setManaRegenerationDivider",
      "outputs": [],
      "stateMutability": "nonpayable",
      "type": "function"
    },
    {
      "inputs": [
        {
          "internalType": "uint256",
          "name": "val",
          "type": "uint256"
        }
      ],
      "name": "setAgilityPerDefence",
      "outputs": [],
      "stateMutability": "nonpayable",
      "type": "function"
    },
    {
      "inputs": [
        {
          "internalType": "uint256",
          "name": "val",
          "type": "uint256"
        }
      ],
      "name": "setStrengthPerDamage",
      "outputs": [],
      "stateMutability": "nonpayable",
      "type": "function"
    },
    {
      "inputs": [
        {
          "internalType": "uint256",
          "name": "val",
          "type": "uint256"
        }
      ],
      "name": "setEnergyPerDamage",
      "outputs": [],
      "stateMutability": "nonpayable",
      "type": "function"
    },
    {
      "inputs": [
        {
          "internalType": "uint256",
          "name": "val",
          "type": "uint256"
        }
      ],
      "name": "setMaxExperience",
      "outputs": [],
      "stateMutability": "nonpayable",
      "type": "function"
    },
    {
      "inputs": [
        {
          "internalType": "uint256",
          "name": "val",
          "type": "uint256"
        }
      ],
      "name": "setExperienceDivider",
      "outputs": [],
      "stateMutability": "nonpayable",
      "type": "function"
    },
    {
      "inputs": [
        {
          "internalType": "uint256",
          "name": "a",
          "type": "uint256"
        },
        {
          "internalType": "uint256",
          "name": "b",
          "type": "uint256"
        }
      ],
      "name": "safeMul",
      "outputs": [
        {
          "internalType": "uint256",
          "name": "",
          "type": "uint256"
        }
      ],
      "stateMutability": "view",
      "type": "function",
      "constant": true
    },
    {
      "inputs": [
        {
          "internalType": "uint256",
          "name": "a",
          "type": "uint256"
        },
        {
          "internalType": "uint256",
          "name": "b",
          "type": "uint256"
        }
      ],
      "name": "safeSub",
      "outputs": [
        {
          "internalType": "uint256",
          "name": "",
          "type": "uint256"
        }
      ],
      "stateMutability": "view",
      "type": "function",
      "constant": true
    },
    {
      "inputs": [
        {
          "internalType": "uint256",
          "name": "a",
          "type": "uint256"
        },
        {
          "internalType": "uint256",
          "name": "b",
          "type": "uint256"
        }
      ],
      "name": "safeAdd",
      "outputs": [
        {
          "internalType": "uint256",
          "name": "",
          "type": "uint256"
        }
      ],
      "stateMutability": "view",
      "type": "function",
      "constant": true
    }
  ],
  "bytecode": "0x60806040526008600e556008600f5560046010556008601155600860125563115d88a460135560056014553480156200003757600080fd5b50604051806040016040528060068152602001651354925554d160d21b815250604051806040016040528060078152602001662334b3b43a32b960c91b81525081600090816200008891906200071b565b5060016200009782826200071b565b50505060405180610220016040528060405180602001604052806000815250815260200160008152602001602a815260200160158152602001600581526020016014815260200160008152602001600181526020016005815260200160058152602001600581526020016001815260200160058152602001601b815260200160078152602001600081526020016000815250600a600060016004811115620001435762000143620007e7565b81526020810191909152604001600020815181906200016390826200071b565b506020820151816001015560408201518160020155606082015181600301556080820151816004015560a0820151816005015560c0820151816006015560e082015181600701556101008201518160080155610120820151816009015561014082015181600a015561016082015181600b015561018082015181600c01556101a082015181600d01556101c082015181600e01556101e082015181600f0155610200820151816010015590505060405180610220016040528060405180602001604052806000815250815260200160008152602001600f8152602001601481526020016032815260200160148152602001600081526020016002815260200160038152602001600a81526020016003815260200160058152602001600581526020016010815260200160058152602001600081526020016000815250600a600060026004811115620002b957620002b9620007e7565b8152602081019190915260400160002081518190620002d990826200071b565b506020820151816001015560408201518160020155606082015181600301556080820151816004015560a0820151816005015560c0820151816006015560e082015181600701556101008201518160080155610120820151816009015561014082015181600a015561016082015181600b015561018082015181600c01556101a082015181600d01556101c082015181600e01556101e082015181600f01556102008201518160100155905050604051806102200160405280604051806020016040528060008152508152602001600081526020016014815260200160198152602001600f81526020016014815260200160008152602001600381526020016003815260200160058152602001600381526020016004815260200160058152602001600c815260200160058152602001600081526020016000815250600a6000600360048111156200042f576200042f620007e7565b81526020810191909152604001600020815181906200044f90826200071b565b506020820151816001015560408201518160020155606082015181600301556080820151816004015560a0820151816005015560c0820151816006015560e082015181600701556101008201518160080155610120820151816009015561014082015181600a015561016082015181600b015561018082015181600c01556101a082015181600d01556101c082015181600e01556101e082015181600f0155610200820151816010015590505060405180610220016040528060405180602001604052806000815250815260200160008152602001601c8152602001600e81526020016014815260200160148152602001600081526020016004815260200160048152602001600781526020016006815260200160028152602001600781526020016017815260200160078152602001600081526020016000815250600a6000600480811115620005a457620005a4620007e7565b8152602081019190915260400160002081518190620005c490826200071b565b506020820151600182015560408201516002820155606082015160038201556080820151600482015560a0820151600582015560c0820151600682015560e0820151600782015561010082015160088201556101208201516009820155610140820151600a820155610160820151600b820155610180820151600c8201556101a0820151600d8201556101c0820151600e8201556101e0820151600f82015561020090910151601090910155620007fd565b634e487b7160e01b600052604160045260246000fd5b600181811c90821680620006a157607f821691505b602082108103620006c257634e487b7160e01b600052602260045260246000fd5b50919050565b601f8211156200071657600081815260208120601f850160051c81016020861015620006f15750805b601f850160051c820191505b818110156200071257828155600101620006fd565b5050505b505050565b81516001600160401b0381111562000737576200073762000676565b6200074f816200074884546200068c565b84620006c8565b602080601f8311600181146200078757600084156200076e5750858301515b600019600386901b1c1916600185901b17855562000712565b600085815260208120601f198616915b82811015620007b85788860151825594840194600190910190840162000797565b5085821015620007d75787850151600019600388901b60f8161c191681555b5050505050600190811b01905550565b634e487b7160e01b600052602160045260246000fd5b6132c1806200080d6000396000f3fe608060405234801561001057600080fd5b50600436106102695760003560e01c80636d9cbb4e11610151578063c41a360a116100c3578063d05c78da11610087578063d05c78da146105ed578063d1e5ef5714610600578063d20a53c814610613578063e6cb901314610626578063e985e9c514610639578063f04968be1461067557600080fd5b8063c41a360a14610581578063c77daef614610594578063c87b56dd146105a7578063cb083041146105ba578063cd00ff62146105cd57600080fd5b806386481d401161011557806386481d401461051a57806395d89b411461052d578063a22cb46514610535578063a293d1e814610548578063b1ca21061461055b578063b88d4fde1461056e57600080fd5b80636d9cbb4e146104a057806370a08231146104b3578063744c1d69146104c6578063745bd453146104d9578063822fbf58146104ec57600080fd5b8063243a7c7b116101ea5780634f6ccce7116101ae5780634f6ccce7146103d857806355af86c4146103eb5780636352211e146104545780636599273f14610467578063688f30ac1461047a5780636ae15f761461048d57600080fd5b8063243a7c7b146103695780632f745c591461037c57806339f4fa5f1461038f57806342842e0e146103b257806343c6916b146103c557600080fd5b806317a405761161023157806317a40576146102fe57806318160ddd146103115780631f4f5a231461032357806321e3ae701461034357806323b872dd1461035657600080fd5b806301ffc9a71461026e57806306fdde0314610296578063081812fc146102ab578063095ea7b3146102d65780630b1f15cd146102eb575b600080fd5b61028161027c3660046128cc565b610688565b60405190151581526020015b60405180910390f35b61029e6106b3565b60405161028d9190612939565b6102be6102b936600461294c565b610745565b6040516001600160a01b03909116815260200161028d565b6102e96102e436600461297c565b61076c565b005b6102e96102f936600461294c565b610886565b6102e961030c36600461294c565b6108c2565b6008545b60405190815260200161028d565b61033661033136600461294c565b6108f7565b60405161028d91906129a6565b610315610351366004612ade565b610af5565b6102e9610364366004612b48565b610dec565b6102e9610377366004612b84565b610e1d565b61031561038a36600461297c565b610e84565b61031561039d36600461294c565b6000908152600b602052604090206010015490565b6102e96103c0366004612b48565b610f1a565b6103156103d336600461294c565b610f35565b6103156103e636600461294c565b610faf565b6103fe6103f936600461294c565b611042565b60405161028d9190600060e082019050825182526020830151602083015260408301516040830152606083015160608301526080830151608083015260a083015160a083015260c083015160c083015292915050565b6102be61046236600461294c565b611112565b6102e961047536600461294c565b611172565b6102e961048836600461294c565b6111a7565b6102e961049b36600461294c565b6111dc565b6103156104ae36600461294c565b611211565b6103156104c1366004612ba6565b61127f565b6103156104d4366004612bc1565b611305565b6102e96104e736600461294c565b611457565b6102816104fa366004612cca565b8051602081830181018051600c8252928201919093012091525460ff1681565b61031561052836600461294c565b61148c565b61029e611505565b6102e9610543366004612d13565b611514565b610315610556366004612b84565b611523565b61031561056936600461294c565b611570565b6102e961057c366004612d4f565b6115ad565b6102be61058f36600461294c565b6115e5565b6103156105a236600461294c565b6115f0565b61029e6105b536600461294c565b61165f565b6102e96105c836600461294c565b6116d2565b6105e06105db366004612ba6565b611707565b60405161028d9190612dcb565b6103156105fb366004612b84565b6117a9565b6102e961060e366004612e0f565b61180a565b61031561062136600461294c565b611ae1565b610315610634366004612b84565b611b11565b610281610647366004612e4a565b6001600160a01b03918216600090815260056020908152604080832093909416825291909152205460ff1690565b61031561068336600461294c565b611b6d565b60006001600160e01b0319821663780e9d6360e01b14806106ad57506106ad82611bae565b92915050565b6060600080546106c290612e7d565b80601f01602080910402602001604051908101604052809291908181526020018280546106ee90612e7d565b801561073b5780601f106107105761010080835404028352916020019161073b565b820191906000526020600020905b81548152906001019060200180831161071e57829003601f168201915b5050505050905090565b600061075082611bfe565b506000908152600460205260409020546001600160a01b031690565b600061077782611112565b9050806001600160a01b0316836001600160a01b0316036107e95760405162461bcd60e51b815260206004820152602160248201527f4552433732313a20617070726f76616c20746f2063757272656e74206f776e656044820152603960f91b60648201526084015b60405180910390fd5b336001600160a01b038216148061080557506108058133610647565b6108775760405162461bcd60e51b815260206004820152603d60248201527f4552433732313a20617070726f76652063616c6c6572206973206e6f7420746f60448201527f6b656e206f776e6572206f7220617070726f76656420666f7220616c6c00000060648201526084016107e0565b6108818383611c51565b505050565b60118190556040518181527f2709c3545e934f71bad88a10628cfcb26544abef6d319e025dafcfaa8ecd371b906020015b60405180910390a150565b60128190556040518181527f8bc6f507740334e03eb54c47352da054221b790b05465e2e8abf2c6e2bd9fd10906020016108b7565b61097e60405180610220016040528060608152602001600081526020016000815260200160008152602001600081526020016000815260200160008152602001600081526020016000815260200160008152602001600081526020016000815260200160008152602001600081526020016000815260200160008152602001600081525090565b61098782611cbf565b6109a35760405162461bcd60e51b81526004016107e090612eb1565b6000828152600b602052604090819020815161022081019092528054829082906109cc90612e7d565b80601f01602080910402602001604051908101604052809291908181526020018280546109f890612e7d565b8015610a455780601f10610a1a57610100808354040283529160200191610a45565b820191906000526020600020905b815481529060010190602001808311610a2857829003601f168201915b50505050508152602001600182015481526020016002820154815260200160038201548152602001600482015481526020016005820154815260200160068201548152602001600782015481526020016008820154815260200160098201548152602001600a8201548152602001600b8201548152602001600c8201548152602001600d8201548152602001600e8201548152602001600f82015481526020016010820154815250509050919050565b600080826004811115610b0a57610b0a612edf565b03610b4f5760405162461bcd60e51b8152602060048201526015602482015274496e76616c6964206669676874657220636c61737360581b60448201526064016107e0565b600c8484604051610b61929190612ef5565b9081526040519081900360200190205460ff1615610bae5760405162461bcd60e51b815260206004820152600a6024820152692730b6b2903a30b5b2b760b11b60448201526064016107e0565b6000600a6000846004811115610bc657610bc6612edf565b815260200190815260200160002060405180610220016040529081600082018054610bf090612e7d565b80601f0160208091040260200160405190810160405280929190818152602001828054610c1c90612e7d565b8015610c695780601f10610c3e57610100808354040283529160200191610c69565b820191906000526020600020905b815481529060010190602001808311610c4c57829003601f168201915b50505050508152602001600182015481526020016002820154815260200160038201548152602001600482015481526020016005820154815260200160068201548152602001600782015481526020016008820154815260200160098201548152602001600a8201548152602001600b8201548152602001600c8201548152602001600d8201548152602001600e8201548152602001600f8201548152602001601082015481525050905084848080601f016020809104026020016040519081016040528093929190818152602001838380828437600092019190915250505090825250610d5b600d80546001019055565b6000610d66600d5490565b90507fa9465b37ad9791df34687f5d85a8cc5951aa8c3b36d42960727f0b98bf7b23908188866004811115610d9d57610d9d612edf565b8989604051610db0959493929190612f05565b60405180910390a1610dc28782611cdc565b610dcc8183611cf6565b6000818152600b602052604090206001018190559150505b949350505050565b610df63382611dea565b610e125760405162461bcd60e51b81526004016107e090612f56565b610881838383611e68565b610e2682611cbf565b610e425760405162461bcd60e51b81526004016107e090612eb1565b6013546000838152600b6020526040902060060154610e6b9190610e669084611b11565b611fd9565b6000928352600b60205260409092206006019190915550565b6000610e8f8361127f565b8210610ef15760405162461bcd60e51b815260206004820152602b60248201527f455243373231456e756d657261626c653a206f776e657220696e646578206f7560448201526a74206f6620626f756e647360a81b60648201526084016107e0565b506001600160a01b03919091166000908152600660209081526040808320938352929052205490565b610881838383604051806020016040528060008152506115ad565b6000818152600b60209081526040808320600701548352600a90915281206002810154600382015460048301546005909301548493610f7c93926106349290918391611b11565b90506000610fa3610f8c8561148c565b6000868152600b60205260409020600c01546117a9565b9050610de48282611b11565b6000610fba60085490565b821061101d5760405162461bcd60e51b815260206004820152602c60248201527f455243373231456e756d657261626c653a20676c6f62616c20696e646578206f60448201526b7574206f6620626f756e647360a01b60648201526084016107e0565b6008828154811061103057611030612fa3565b90600052602060002001549050919050565b6110826040518060e00160405280600081526020016000815260200160008152602001600081526020016000815260200160008152602001600081525090565b61108b82611cbf565b6110a75760405162461bcd60e51b81526004016107e090612eb1565b60006040518060e001604052808481526020016110c3856115f0565b81526020016110d185611211565b81526020016110df8561148c565b81526020016110ed85611570565b81526020016110fb85611ae1565b815260200161110985610f35565b90529392505050565b6000818152600260205260408120546001600160a01b0316806106ad5760405162461bcd60e51b8152602060048201526018602482015277115490cdcc8c4e881a5b9d985b1a59081d1bdad95b88125160421b60448201526064016107e0565b60108190556040518181527f8e5252d2d2f885f4bae3553bbe34c3630f9274028f3c343ce0eac0dd710c6a03906020016108b7565b60138190556040518181527f8b92a2a371ec2af95aa1740562d5031b28f403d2780beaecdce6befd43667fb8906020016108b7565b600f8190556040518181527f0665124c1d0c6d84ba8a4d99cb0c2a03455171ce7503623c6cceb9da5bbd7a91906020016108b7565b600061121c82611cbf565b6112385760405162461bcd60e51b81526004016107e090612eb1565b6000828152600b602081905260408220908101546009820154600490920154909290611276906112699084906117a9565b610634856105fb8961148c565b95945050505050565b60006001600160a01b0382166112e95760405162461bcd60e51b815260206004820152602960248201527f4552433732313a2061646472657373207a65726f206973206e6f7420612076616044820152683634b21037bbb732b960b91b60648201526084016107e0565b506001600160a01b031660009081526003602052604090205490565b6000806040518061022001604052808c8c8080601f01602080910402602001604051908101604052809392919081815260200183838082843760009201829052509385525050506020820152604081018b9052606081018a90526080810189905260a0810188905260c00161137986611b6d565b815260200160008152602001600081526020016000815260200160008152602001600081526020016000815260200186815260200160008152602001600181526020018481525090506113d0600d80546001019055565b60006113db600d5490565b90506113e73382611cdc565b6113f18183611cf6565b6000818152600b60205260408082206001018390555133917fe6ad03ae09e6216384922d74b5734a0ebc9aa6de15bcd7d61ed9999ba2cb1df5916114409185825260ff16602082015260400190565b60405180910390a29b9a5050505050505050505050565b60148190556040518181527f0dbed17fa1cbd28e0338d43e05619d042b9ca1ac23a9d5383ebe0ab7049ff16e906020016108b7565b600061149782611cbf565b6114b35760405162461bcd60e51b81526004016107e090612eb1565b6000828152600b6020526040902060060154601454600a906114f4906114ed906114e8906114e190866117a9565b607d611b11565b611fef565b6005611523565b6114fe9190612fcf565b9392505050565b6060600180546106c290612e7d565b61151f33838361205f565b5050565b6000828211156115665760405162461bcd60e51b815260206004820152600e60248201526d1cd8599954dd588811985a5b195960921b60448201526064016107e0565b6114fe8284612ff1565b600061157b82611cbf565b6115975760405162461bcd60e51b81526004016107e090612eb1565b506000908152600b602052604090206006015490565b6115b73383611dea565b6115d35760405162461bcd60e51b81526004016107e090612f56565b6115df8484848461212d565b50505050565b60006106ad82611112565b60006115fb82611cbf565b6116175760405162461bcd60e51b81526004016107e090612eb1565b6000828152600b60205260408120600a8101546008909101549091611276611642846105fb8861148c565b6000878152600b60205260409020600501546106349085906117a9565b606061166a82611bfe565b600061168160408051602081019091526000815290565b905060008151116116a157604051806020016040528060008152506114fe565b806116ab84612160565b6040516020016116bc929190613004565b6040516020818303038152906040529392505050565b600e8190556040518181527f3dc2199ccebb6b521944bbb446fd55ec36fc6b23c37808e7304ac55d535d3ac4906020016108b7565b606060006117148361127f565b905060008167ffffffffffffffff81111561173157611731612c3e565b60405190808252806020026020018201604052801561175a578160200160208202803683370190505b50905060005b828110156117a1576117728582610e84565b82828151811061178457611784612fa3565b60209081029190910101528061179981613033565b915050611760565b509392505050565b6000806117b6838561304c565b90508315806117cd5750826117cb8583612fcf565b145b6114fe5760405162461bcd60e51b815260206004820152600e60248201526d1cd85999535d5b0811985a5b195960921b60448201526064016107e0565b3361181486611112565b6001600160a01b03161461185a5760405162461bcd60e51b815260206004820152600d60248201526c1058d8d95cdcc811195b9a5959609a1b60448201526064016107e0565b6000858152600b60205260409020600201548410156118bb5760405162461bcd60e51b815260206004820152601b60248201527f537472656e6774682063616e277420626520646563726561736564000000000060448201526064016107e0565b6000858152600b602052604090206003015483101561191c5760405162461bcd60e51b815260206004820152601a60248201527f4167696c6974792063616e27742062652064656372656173656400000000000060448201526064016107e0565b6000858152600b602052604090206004015482101561197d5760405162461bcd60e51b815260206004820152601960248201527f456e657267792063616e2774206265206465637265617365640000000000000060448201526064016107e0565b6000858152600b60205260409020600501548110156119de5760405162461bcd60e51b815260206004820152601b60248201527f566974616c6974792063616e277420626520646563726561736564000000000060448201526064016107e0565b60006119e986610f35565b905060006119f687611ae1565b90506000611a0c87610634886106348989611b11565b905082811115611a5e5760405162461bcd60e51b815260206004820152601e60248201527f547279696e6720746f6f2061646420746f6f206d616e7920706f696e7473000060448201526064016107e0565b6000888152600b6020908152604091829020600281018a9055600381018990556004810188905560050186905581518a815290810189905290810187905260608101869052608081018590527f9e28895821cef6daa08da1e82406e8be9675974fd115ccca84e332e6c15cff8f9060a00160405180910390a15050505050505050565b6000818152600b602052604081206002810154600382015460048301546005909301546106ad9361063492918391905b600080611b1e8385613063565b9050838110158015611b305750828110155b6114fe5760405162461bcd60e51b815260206004820152600e60248201526d1cd859995059190811985a5b195960921b60448201526064016107e0565b600080611b866005611b8085600a6121f3565b906121ff565b9050611b9381600261220b565b6014549091506114fe90611ba883607d612256565b90612262565b60006001600160e01b031982166380ac58cd60e01b1480611bdf57506001600160e01b03198216635b5e139f60e01b145b806106ad57506301ffc9a760e01b6001600160e01b03198316146106ad565b611c0781611cbf565b611c4e5760405162461bcd60e51b8152602060048201526018602482015277115490cdcc8c4e881a5b9d985b1a59081d1bdad95b88125160421b60448201526064016107e0565b50565b600081815260046020526040902080546001600160a01b0319166001600160a01b0384169081179091558190611c8682611112565b6001600160a01b03167f8c5be1e5ebec7d5bd14f71427d1e84f3dd0314c0f7b2291e5b200ac8c7c3b92560405160405180910390a45050565b6000908152600260205260409020546001600160a01b0316151590565b61151f82826040518060200160405280600081525061226e565b611cff82611cbf565b611d1b5760405162461bcd60e51b81526004016107e090612eb1565b6000828152600b6020526040902081518291908190611d3a90826130c4565b506020820151600182015560408201516002820155606082015160038201556080820151600482015560a0820151600582015560c0820151600682015560e0820151600782015561010082015160088201556101208201516009820155610140820151600a820155610160820151600b820155610180820151600c8201556101a0820151600d8201556101c0820151600e8201556101e0820151600f820155610200909101516010909101555050565b600080611df683611112565b9050806001600160a01b0316846001600160a01b03161480611e3d57506001600160a01b0380821660009081526005602090815260408083209388168352929052205460ff165b80610de45750836001600160a01b0316611e5684610745565b6001600160a01b031614949350505050565b826001600160a01b0316611e7b82611112565b6001600160a01b031614611ea15760405162461bcd60e51b81526004016107e090613184565b6001600160a01b038216611f035760405162461bcd60e51b8152602060048201526024808201527f4552433732313a207472616e7366657220746f20746865207a65726f206164646044820152637265737360e01b60648201526084016107e0565b611f1083838360016122a1565b826001600160a01b0316611f2382611112565b6001600160a01b031614611f495760405162461bcd60e51b81526004016107e090613184565b600081815260046020908152604080832080546001600160a01b03199081169091556001600160a01b0387811680865260038552838620805460001901905590871680865283862080546001019055868652600290945282852080549092168417909155905184937fddf252ad1be2c89b69c2b068fc378daa952ba7f163c4a11628f55a4df523b3ef91a4505050565b6000818310611fe857816114fe565b5090919050565b600060038211156120505750806000612009600283612fcf565b612014906001613063565b90505b8181101561204a5790508060028161202f8186612fcf565b6120399190613063565b6120439190612fcf565b9050612017565b50919050565b811561205a575060015b919050565b816001600160a01b0316836001600160a01b0316036120c05760405162461bcd60e51b815260206004820152601960248201527f4552433732313a20617070726f766520746f2063616c6c65720000000000000060448201526064016107e0565b6001600160a01b03838116600081815260056020908152604080832094871680845294825291829020805460ff191686151590811790915591519182527f17307eab39ab6107e8899845ad3d59bd9653f200f220920489ca2b5937696c31910160405180910390a3505050565b612138848484611e68565b612144848484846123d5565b6115df5760405162461bcd60e51b81526004016107e0906131c9565b6060600061216d836124d3565b600101905060008167ffffffffffffffff81111561218d5761218d612c3e565b6040519080825280601f01601f1916602001820160405280156121b7576020820181803683370190505b5090508181016020015b600019016f181899199a1a9b1b9c1cb0b131b232b360811b600a86061a8153600a85049450846121c157509392505050565b60006114fe828461304c565b60006114fe8284613063565b60008160000361221d575060016106ad565b8160010361222c5750816106ad565b8260015b838110156117a15761224282866121f3565b91508061224e81613033565b915050612230565b60006114fe8284612ff1565b60006114fe8284612fcf565b61227883836125ab565b61228560008484846123d5565b6108815760405162461bcd60e51b81526004016107e0906131c9565b60018111156123105760405162461bcd60e51b815260206004820152603560248201527f455243373231456e756d657261626c653a20636f6e7365637574697665207472604482015274185b9cd9995c9cc81b9bdd081cdd5c1c1bdc9d1959605a1b60648201526084016107e0565b816001600160a01b03851661236c5761236781600880546000838152600960205260408120829055600182018355919091527ff3f7a9fe364faab93b216da50a3214154f22a0a2b415b23a84c8169e8b636ee30155565b61238f565b836001600160a01b0316856001600160a01b03161461238f5761238f8582612726565b6001600160a01b0384166123ab576123a6816127c3565b6123ce565b846001600160a01b0316846001600160a01b0316146123ce576123ce8482612872565b5050505050565b60006001600160a01b0384163b156124cb57604051630a85bd0160e11b81526001600160a01b0385169063150b7a029061241990339089908890889060040161321b565b6020604051808303816000875af1925050508015612454575060408051601f3d908101601f1916820190925261245191810190613258565b60015b6124b1573d808015612482576040519150601f19603f3d011682016040523d82523d6000602084013e612487565b606091505b5080516000036124a95760405162461bcd60e51b81526004016107e0906131c9565b805181602001fd5b6001600160e01b031916630a85bd0160e11b149050610de4565b506001610de4565b60008072184f03e93ff9f4daa797ed6e38ed64bf6a1f0160401b83106125125772184f03e93ff9f4daa797ed6e38ed64bf6a1f0160401b830492506040015b6d04ee2d6d415b85acef8100000000831061253e576d04ee2d6d415b85acef8100000000830492506020015b662386f26fc10000831061255c57662386f26fc10000830492506010015b6305f5e1008310612574576305f5e100830492506008015b612710831061258857612710830492506004015b6064831061259a576064830492506002015b600a83106106ad5760010192915050565b6001600160a01b0382166126015760405162461bcd60e51b815260206004820181905260248201527f4552433732313a206d696e7420746f20746865207a65726f206164647265737360448201526064016107e0565b61260a81611cbf565b156126575760405162461bcd60e51b815260206004820152601c60248201527f4552433732313a20746f6b656e20616c7265616479206d696e7465640000000060448201526064016107e0565b6126656000838360016122a1565b61266e81611cbf565b156126bb5760405162461bcd60e51b815260206004820152601c60248201527f4552433732313a20746f6b656e20616c7265616479206d696e7465640000000060448201526064016107e0565b6001600160a01b038216600081815260036020908152604080832080546001019055848352600290915280822080546001600160a01b0319168417905551839291907fddf252ad1be2c89b69c2b068fc378daa952ba7f163c4a11628f55a4df523b3ef908290a45050565b600060016127338461127f565b61273d9190612ff1565b600083815260076020526040902054909150808214612790576001600160a01b03841660009081526006602090815260408083208584528252808320548484528184208190558352600790915290208190555b5060009182526007602090815260408084208490556001600160a01b039094168352600681528383209183525290812055565b6008546000906127d590600190612ff1565b600083815260096020526040812054600880549394509092849081106127fd576127fd612fa3565b90600052602060002001549050806008838154811061281e5761281e612fa3565b600091825260208083209091019290925582815260099091526040808220849055858252812055600880548061285657612856613275565b6001900381819060005260206000200160009055905550505050565b600061287d8361127f565b6001600160a01b039093166000908152600660209081526040808320868452825280832085905593825260079052919091209190915550565b6001600160e01b031981168114611c4e57600080fd5b6000602082840312156128de57600080fd5b81356114fe816128b6565b60005b838110156129045781810151838201526020016128ec565b50506000910152565b600081518084526129258160208601602086016128e9565b601f01601f19169290920160200192915050565b6020815260006114fe602083018461290d565b60006020828403121561295e57600080fd5b5035919050565b80356001600160a01b038116811461205a57600080fd5b6000806040838503121561298f57600080fd5b61299883612965565b946020939093013593505050565b60208152600082516102208060208501526129c561024085018361290d565b602086015160408681019190915286015160608087019190915286015160808087019190915286015160a08087019190915286015160c08087019190915286015160e08087019190915286015161010080870191909152860151610120808701919091528601516101408087019190915286015161016080870191909152860151610180808701919091528601516101a0808701919091528601516101c0808701919091528601516101e08087019190915286015161020080870191909152909501519301929092525090919050565b60008083601f840112612aa757600080fd5b50813567ffffffffffffffff811115612abf57600080fd5b602083019150836020828501011115612ad757600080fd5b9250929050565b60008060008060608587031215612af457600080fd5b612afd85612965565b9350602085013567ffffffffffffffff811115612b1957600080fd5b612b2587828801612a95565b909450925050604085013560058110612b3d57600080fd5b939692955090935050565b600080600060608486031215612b5d57600080fd5b612b6684612965565b9250612b7460208501612965565b9150604084013590509250925092565b60008060408385031215612b9757600080fd5b50508035926020909101359150565b600060208284031215612bb857600080fd5b6114fe82612965565b60008060008060008060008060006101008a8c031215612be057600080fd5b893567ffffffffffffffff811115612bf757600080fd5b612c038c828d01612a95565b909d909c5060208c01359b60408101359b5060608101359a506080810135995060a0810135985060c0810135975060e0013595509350505050565b634e487b7160e01b600052604160045260246000fd5b600067ffffffffffffffff80841115612c6f57612c6f612c3e565b604051601f8501601f19908116603f01168101908282118183101715612c9757612c97612c3e565b81604052809350858152868686011115612cb057600080fd5b858560208301376000602087830101525050509392505050565b600060208284031215612cdc57600080fd5b813567ffffffffffffffff811115612cf357600080fd5b8201601f81018413612d0457600080fd5b610de484823560208401612c54565b60008060408385031215612d2657600080fd5b612d2f83612965565b915060208301358015158114612d4457600080fd5b809150509250929050565b60008060008060808587031215612d6557600080fd5b612d6e85612965565b9350612d7c60208601612965565b925060408501359150606085013567ffffffffffffffff811115612d9f57600080fd5b8501601f81018713612db057600080fd5b612dbf87823560208401612c54565b91505092959194509250565b6020808252825182820181905260009190848201906040850190845b81811015612e0357835183529284019291840191600101612de7565b50909695505050505050565b600080600080600060a08688031215612e2757600080fd5b505083359560208501359550604085013594606081013594506080013592509050565b60008060408385031215612e5d57600080fd5b612e6683612965565b9150612e7460208401612965565b90509250929050565b600181811c90821680612e9157607f821691505b60208210810361204a57634e487b7160e01b600052602260045260246000fd5b602080825260149082015273151bdad95b88191bd95cc81b9bdd08195e1a5cdd60621b604082015260600190565b634e487b7160e01b600052602160045260246000fd5b8183823760009101908152919050565b8581526001600160a01b038516602082015260ff841660408201526080606082018190528101829052818360a0830137600081830160a090810191909152601f909201601f19160101949350505050565b6020808252602d908201527f4552433732313a2063616c6c6572206973206e6f7420746f6b656e206f776e6560408201526c1c881bdc88185c1c1c9bdd9959609a1b606082015260800190565b634e487b7160e01b600052603260045260246000fd5b634e487b7160e01b600052601160045260246000fd5b600082612fec57634e487b7160e01b600052601260045260246000fd5b500490565b818103818111156106ad576106ad612fb9565b600083516130168184602088016128e9565b83519083019061302a8183602088016128e9565b01949350505050565b60006001820161304557613045612fb9565b5060010190565b80820281158282048414176106ad576106ad612fb9565b808201808211156106ad576106ad612fb9565b601f82111561088157600081815260208120601f850160051c8101602086101561309d5750805b601f850160051c820191505b818110156130bc578281556001016130a9565b505050505050565b815167ffffffffffffffff8111156130de576130de612c3e565b6130f2816130ec8454612e7d565b84613076565b602080601f831160018114613127576000841561310f5750858301515b600019600386901b1c1916600185901b1785556130bc565b600085815260208120601f198616915b8281101561315657888601518255948401946001909101908401613137565b50858210156131745787850151600019600388901b60f8161c191681555b5050505050600190811b01905550565b60208082526025908201527f4552433732313a207472616e736665722066726f6d20696e636f72726563742060408201526437bbb732b960d91b606082015260800190565b60208082526032908201527f4552433732313a207472616e7366657220746f206e6f6e20455243373231526560408201527131b2b4bb32b91034b6b83632b6b2b73a32b960711b606082015260800190565b6001600160a01b038581168252841660208201526040810183905260806060820181905260009061324e9083018461290d565b9695505050505050565b60006020828403121561326a57600080fd5b81516114fe816128b6565b634e487b7160e01b600052603160045260246000fdfea2646970667358221220d56a3551bece91fe4f0ff9d238eb9bfa4b67a99427f1f15533ac0f6a594e4a5964736f6c63430008130033",
  "immutableReferences": {},
  "source": "// SPDX-License-Identifier: MIT\npragma solidity ^0.8.18;\n\nimport \"@openzeppelin/contracts/token/ERC721/ERC721.sol\";\nimport \"@openzeppelin/contracts/utils/Counters.sol\";\nimport \"@openzeppelin/contracts/token/ERC721/extensions/ERC721Enumerable.sol\";\nimport \"@openzeppelin/contracts/utils/math/SafeMath.sol\";\n\nimport \"./FightersAtts.sol\";\n\ncontract Fighters is ERC721Enumerable, FightersAtts {\n    using Counters for Counters.Counter;\n    using SafeMath for uint256;\n\n\n\n\n    // Initial attributes by class\n    mapping (uint256 => Attributes) private _initialAttributes;\n    mapping (uint256 => Attributes) private _tokenAttributes;\n    mapping (string => bool) public names;\n\n    // Events\n    event FighterCreated(uint256 tokenId, address owner, uint8 fighterClass, string name);\n    event NPCCreated(address indexed creator, uint256 tokenId, uint8 class);\n    event StatsUpdated(uint256 tokenId, uint256 strength, uint256 agility, uint256 energy, uint256 vitality);\n    event ItemEquiped(uint256 tokenId, uint256 itemId, uint256 slot);\n\n    // Counter for token IDs\n    Counters.Counter private _tokenIdCounter;\n\n    constructor() ERC721(\"MRIUSD\", \"Fighter\") {\n        // Set initial attributes for each class\n        _initialAttributes[uint256(FighterClass.DarkKnight)]        = Attributes(\"\", 0, 42, 21,  5, 20, 0, 1,     5,  5, 5, 1, 5, 27, 7, 0, 0);\n        _initialAttributes[uint256(FighterClass.DarkWizard)]        = Attributes(\"\", 0, 15, 20, 50, 20, 0, 2,     3, 10, 3, 5, 5, 16, 5, 0, 0);\n        _initialAttributes[uint256(FighterClass.FairyElf)]          = Attributes(\"\", 0, 20, 25, 15, 20, 0, 3,     3,  5, 3, 4, 5, 12, 5, 0, 0);\n        _initialAttributes[uint256(FighterClass.MagicGladiator)]    = Attributes(\"\", 0, 28, 14, 20, 20, 0, 4,     4,  7, 6, 2, 7, 23, 7, 0, 0);\n    }\n\n    function updateFighterStats(uint256 tokenId, uint256 strength, uint256 agility, uint256 energy, uint256 vitality)  external  {\n        // Check msg.sender is the NFT owner\n        require(ownerOf(tokenId) == msg.sender, \"Access Denied\");\n        \n        require(strength >= _tokenAttributes[tokenId].strength, \"Strength can't be decreased\");\n        require(agility >= _tokenAttributes[tokenId].agility, \"Agility can't be decreased\");\n        require(energy >= _tokenAttributes[tokenId].energy, \"Energy can't be decreased\");\n        require(vitality >= _tokenAttributes[tokenId].vitality, \"Vitality can't be decreased\");\n\n\n        uint256 maxPoints = getMaxStatPoints(tokenId);\n        uint256 usedStatPoints = getTotalUsedStatPoints(tokenId);\n\n        uint256 newTotalStats = safeAdd(strength, safeAdd(agility, safeAdd(energy, vitality)));\n\n        require(newTotalStats <= maxPoints, \"Trying too add too many points\");\n\n        _tokenAttributes[tokenId].strength = strength;\n        _tokenAttributes[tokenId].agility = agility;\n        _tokenAttributes[tokenId].energy = energy;\n        _tokenAttributes[tokenId].vitality = vitality;\n\n        emit StatsUpdated(tokenId, strength, agility, energy, vitality);\n    }\n\n    function getMaxStatPoints(uint256 tokenId) public view returns (uint256) {\n        uint256 initialPoints = safeAdd(_initialAttributes[_tokenAttributes[tokenId].class].strength,\n                safeAdd(_initialAttributes[_tokenAttributes[tokenId].class].agility, \n                safeAdd(_initialAttributes[_tokenAttributes[tokenId].class].energy,\n                _initialAttributes[_tokenAttributes[tokenId].class].vitality)));\n\n        uint256 levelPoints = safeMul(getLevel(tokenId), _tokenAttributes[tokenId].statPointsPerLevel);\n\n        return safeAdd(initialPoints, levelPoints);\n    }\n\n    function getTotalUsedStatPoints(uint256 tokenId) public view returns (uint256) {\n        return safeAdd(_tokenAttributes[tokenId].strength,\n                safeAdd(_tokenAttributes[tokenId].agility, \n                safeAdd(_tokenAttributes[tokenId].energy,\n                _tokenAttributes[tokenId].vitality)));\n    }\n\n    function getUserFighters(address userAddress) external view returns (uint256[] memory) {        \n        uint256 numTokens = balanceOf(userAddress);\n        uint256[] memory tokenIds = new uint256[](numTokens);\n\n        for (uint256 i = 0; i < numTokens; i++) {\n            tokenIds[i] = tokenOfOwnerByIndex(userAddress, i);\n        }\n\n        return tokenIds;\n    }\n\n    // Create a new fighter NFT with initial attributes\n    function createFighter(address owner, string calldata name, FighterClass fighterClass) external returns (uint256) {\n        // Make sure the class is valid\n        require(fighterClass != FighterClass.None, \"Invalid fighter class\");\n        require(!names[name], \"Name taken\");\n\n        // Get the initial attributes for the class\n        Attributes memory initialAttrs = _initialAttributes[uint256(fighterClass)];\n        initialAttrs.name = name;\n       \n\n        // Mint the NFT with the initial attributes\n        _tokenIdCounter.increment();\n        uint256 tokenId = _tokenIdCounter.current();       \n\n        emit FighterCreated(tokenId, owner, uint8(fighterClass), name);\n\n        _safeMint(owner, tokenId);\n        _setTokenAttributes(tokenId, initialAttrs);\n\n        _tokenAttributes[tokenId].tokenId = tokenId;\n\n        return tokenId;\n    }\n\n    function createNPC(string calldata name, uint256 strength, uint256 agility, uint256 energy, uint256 vitality, uint256 attackSpeed, uint256 level, uint256 dropRarityLevel) external returns (uint256) {\n        Attributes memory atts = Attributes(name, 0, strength, agility, energy,vitality, getExpFromLevel(level), 0,        0, 0, 0, 0, 0, attackSpeed,      0, 1, dropRarityLevel);\n        _tokenIdCounter.increment();\n        uint256 tokenId = _tokenIdCounter.current();\n        _safeMint(msg.sender, tokenId);\n        _setTokenAttributes(tokenId, atts);\n        _tokenAttributes[tokenId].tokenId = tokenId;\n\n        emit NPCCreated(msg.sender, tokenId, 0);\n\n        return tokenId;\n    }\n\n    // Get the attributes for a fighter NFT\n    function getTokenAttributes(uint256 tokenId) public view returns (Attributes memory) {\n        require(_exists(tokenId), \"Token does not exist\");\n\n        return _tokenAttributes[tokenId];\n    }\n\n    function getOwner(uint256 tokenId) public view returns (address) {\n        return ownerOf(tokenId);\n    }\n\n    function getDropRarityLevel(uint256 tokenId) public view returns (uint256) {\n        return _tokenAttributes[tokenId].dropRarityLevel;\n    }\n\n    // Set the attributes for a fighter NFT\n    function _setTokenAttributes(uint256 tokenId, Attributes memory attrs) internal {\n        require(_exists(tokenId), \"Token does not exist\");\n\n        _tokenAttributes[tokenId] = attrs;\n    }\n\n    // Increase fighter experience\n    function increaseExperience(uint256 tokenId, uint256 addExp) external  {\n        require(_exists(tokenId), \"Token does not exist\");\n\n        _tokenAttributes[tokenId].experience = min(maxExperience, safeAdd(_tokenAttributes[tokenId].experience, addExp));\n    }\n\n\n    function getMaxHealth(uint256 tokenId) public view returns (uint256) \n    {\n        require(_exists(tokenId), \"Token does not exist\");\n        uint256 increasePerLevel = 0;\n        uint256 hpPerVitalityPoint = 0;\n        uint256 vitalityPoints;\n\n        increasePerLevel = _tokenAttributes[tokenId].hpIncreasePerLevel;\n        hpPerVitalityPoint = _tokenAttributes[tokenId].hpPerVitalityPoint;\n        \n\n        return safeAdd(safeMul(increasePerLevel, getLevel(tokenId)), safeMul(hpPerVitalityPoint, _tokenAttributes[tokenId].vitality));\n    }\n\n\n    function getMaxMana(uint256 tokenId) public view returns (uint256) \n    {\n        require(_exists(tokenId), \"Token does not exist\");\n        uint256 increasePerLevel = 0;\n        uint256 mpPerEnergyPoint = 0;\n        uint256 energyPoints;\n\n        \n        increasePerLevel = _tokenAttributes[tokenId].manaIncreasePerLevel;\n        mpPerEnergyPoint = _tokenAttributes[tokenId].manaPerEnergyPoint;\n        \n\n        return safeAdd(safeMul(mpPerEnergyPoint, _tokenAttributes[tokenId].energy), safeMul(increasePerLevel, getLevel(tokenId)));\n    }\n\n    \n\n    function getFighterStats(uint256 tokenId) public view returns (FighterStats memory)\n    {\n        require(_exists(tokenId), \"Token does not exist\");\n        FighterStats memory stats = FighterStats({\n            tokenId: tokenId,\n            maxHealth: getMaxHealth(tokenId),\n            maxMana: getMaxMana(tokenId),\n            level: getLevel(tokenId),\n            exp: getExperience(tokenId),\n            totalStatPoints: getTotalUsedStatPoints(tokenId),\n            maxStatPoints: getMaxStatPoints(tokenId)\n        });\n\n        return stats;\n    }\n\n    function getExperience(uint256 tokenId) public view returns (uint256)\n    {\n        require(_exists(tokenId), \"Token does not exist\");\n\n        // Health = Health_After_Last_Damage + (Current Block Number - Last Damage Block Number) * Health Regeneration Rate\n        return _tokenAttributes[tokenId].experience;\n    }\n\n    // Get player level\n    function getLevel(uint256 tokenId) public view returns (uint256) \n    {\n        require(_exists(tokenId), \"Token does not exist\");\n\n        uint256 exp = _tokenAttributes[tokenId].experience;\n\n        return safeSub(sqrt(safeAdd(safeMul(experienceDivider, exp), 125)), 5) / 10;\n    }\n\n    // Reverse function for getLevel\n    function getExpFromLevel(uint256 level) public view returns (uint256) {\n        uint256 exp = level.mul(10).add(5);\n        exp = safePow(exp, 2);\n        exp = exp.sub(125).div(experienceDivider);\n        return exp;\n    }\n\n    uint256 healthRegenerationDivider = 8;\n    uint256 manaRegenerationDivider = 8;\n    uint256 agilityPerDefence = 4;\n    uint256 strengthPerDamage = 8;\n    uint256 energyPerDamage = 8;\n    uint256 maxExperience = 291342500;\n    uint256 experienceDivider = 5;\n\n\n    event updateHealthRegenerationDivider(uint256);\n    event updateManaRegenerationDivider(uint256);\n    event updateAgilityPerDefence(uint256);\n    event updateStrengthPerDamage(uint256);\n    event updateEnergyPerDamage(uint256);\n    event updateMaxExperience(uint256);\n    event updateExperienceDivider(uint256);\n    \n\n    function setHealthRegenerationDivider(uint256 val) external {\n        healthRegenerationDivider = val;\n\n        emit updateHealthRegenerationDivider(val);\n    }\n\n   function setManaRegenerationDivider(uint256 val) external {\n        manaRegenerationDivider = val;\n\n        emit updateManaRegenerationDivider(val);\n    }\n\n   function setAgilityPerDefence(uint256 val) external {\n        agilityPerDefence = val;\n\n        emit updateAgilityPerDefence(val);\n    }\n\n   function setStrengthPerDamage(uint256 val) external {\n        strengthPerDamage = val;\n\n        emit updateStrengthPerDamage(val);\n    }\n\n   function setEnergyPerDamage(uint256 val) external  {\n        energyPerDamage = val;\n\n        emit updateEnergyPerDamage(val);\n    }\n\n    function setMaxExperience(uint256 val) external  {\n        maxExperience = val;\n\n        emit updateMaxExperience(val);\n    }\n\n    function setExperienceDivider(uint256 val) external  {\n        experienceDivider = val;\n\n        emit updateExperienceDivider(val);\n    }\n\n\n\n    // Cube Root function\n    function sqrt(uint y) internal pure returns (uint z) {\n        if (y > 3) {\n            z = y;\n            uint x = y / 2 + 1;\n            while (x < z) {\n                z = x;\n                x = (y / x + x) / 2;\n            }\n        } else if (y != 0) {\n            z = 1;\n        }\n\n        return z;\n    }\n\n    // Returns the smaller of two values\n    function min(uint a, uint b) private pure returns (uint) {\n        return a < b ? a : b;\n    }\n\n    // Returns the largest of the two values\n    function max(uint a, uint b) private pure returns (uint) {\n        return a > b ? a : b;\n    }\n\n    // Safe Multiply Function - prevents integer overflow \n    function safeMul(uint a, uint b) public view returns (uint) {\n        uint c = a * b;\n        require(a == 0 || c / a == b, \"safeMul Failed\");\n        return c;\n    }\n\n    // Safe Subtraction Function - prevents integer overflow \n    function safeSub(uint a, uint b) public view returns (uint) {\n        require(b <= a, \"safeSub Failed\");\n        return a - b;\n    }\n\n    // Safe Addition Function - prevents integer overflow \n    function safeAdd(uint a, uint b) public view returns (uint) {\n        uint c = a + b;\n        require(c>=a && c>=b, \"safeAdd Failed\");\n        return c;\n    }\n\n    function safePow(uint256 base, uint256 exponent) internal pure returns (uint256) {\n        if (exponent == 0) {\n            return 1;\n        } else if (exponent == 1) {\n            return base;\n        }\n\n        uint256 result = base;\n        for (uint256 i = 1; i < exponent; i++) {\n            result = result.mul(base);\n        }\n        return result;\n    }\n}\n",
  "sourcePath": "/Users/max/Documents/prog/game-contracts/contracts/Fighters.sol",
  "compiler": {
    "name": "solc",
    "version": "0.8.19+commit.7dd6d404.Emscripten.clang"
  },
  "schemaVersion": "3.4.13",
  "updatedAt": "2023-07-26T15:13:57.992Z",
  "networkType": "ethereum",
  "devdoc": {
    "events": {
      "Approval(address,address,uint256)": {
        "details": "Emitted when `owner` enables `approved` to manage the `tokenId` token."
      },
      "ApprovalForAll(address,address,bool)": {
        "details": "Emitted when `owner` enables or disables (`approved`) `operator` to manage all of its assets."
      },
      "Transfer(address,address,uint256)": {
        "details": "Emitted when `tokenId` token is transferred from `from` to `to`."
      }
    },
    "kind": "dev",
    "methods": {
      "approve(address,uint256)": {
        "details": "See {IERC721-approve}."
      },
      "balanceOf(address)": {
        "details": "See {IERC721-balanceOf}."
      },
      "getApproved(uint256)": {
        "details": "See {IERC721-getApproved}."
      },
      "isApprovedForAll(address,address)": {
        "details": "See {IERC721-isApprovedForAll}."
      },
      "name()": {
        "details": "See {IERC721Metadata-name}."
      },
      "ownerOf(uint256)": {
        "details": "See {IERC721-ownerOf}."
      },
      "safeTransferFrom(address,address,uint256)": {
        "details": "See {IERC721-safeTransferFrom}."
      },
      "safeTransferFrom(address,address,uint256,bytes)": {
        "details": "See {IERC721-safeTransferFrom}."
      },
      "setApprovalForAll(address,bool)": {
        "details": "See {IERC721-setApprovalForAll}."
      },
      "supportsInterface(bytes4)": {
        "details": "See {IERC165-supportsInterface}."
      },
      "symbol()": {
        "details": "See {IERC721Metadata-symbol}."
      },
      "tokenByIndex(uint256)": {
        "details": "See {IERC721Enumerable-tokenByIndex}."
      },
      "tokenOfOwnerByIndex(address,uint256)": {
        "details": "See {IERC721Enumerable-tokenOfOwnerByIndex}."
      },
      "tokenURI(uint256)": {
        "details": "See {IERC721Metadata-tokenURI}."
      },
      "totalSupply()": {
        "details": "See {IERC721Enumerable-totalSupply}."
      },
      "transferFrom(address,address,uint256)": {
        "details": "See {IERC721-transferFrom}."
      }
    },
    "version": 1
  },
  "userdoc": {
    "kind": "user",
    "methods": {},
    "version": 1
  }
}