{
  "contractName": "FighterHelper",
  "abi": [
    {
      "inputs": [
        {
          "internalType": "address",
          "name": "fighterAttributesContract",
          "type": "address"
        }
      ],
      "stateMutability": "nonpayable",
      "type": "constructor"
    },
    {
      "inputs": [
        {
          "internalType": "uint256",
          "name": "tokenId",
          "type": "uint256"
        }
      ],
      "name": "getLevel",
      "outputs": [
        {
          "internalType": "uint256",
          "name": "",
          "type": "uint256"
        }
      ],
      "stateMutability": "view",
      "type": "function",
      "constant": true
    },
    {
      "inputs": [
        {
          "internalType": "uint256",
          "name": "tokenId",
          "type": "uint256"
        },
        {
          "internalType": "uint256",
          "name": "addExp",
          "type": "uint256"
        }
      ],
      "name": "increaseExperience",
      "outputs": [],
      "stateMutability": "nonpayable",
      "type": "function"
    },
    {
      "inputs": [
        {
          "internalType": "uint256",
          "name": "tokenId",
          "type": "uint256"
        }
      ],
      "name": "getOwner",
      "outputs": [
        {
          "internalType": "address",
          "name": "",
          "type": "address"
        }
      ],
      "stateMutability": "view",
      "type": "function",
      "constant": true
    },
    {
      "inputs": [
        {
          "internalType": "uint256",
          "name": "tokenId",
          "type": "uint256"
        }
      ],
      "name": "getDropRarityLevel",
      "outputs": [
        {
          "internalType": "uint256",
          "name": "",
          "type": "uint256"
        }
      ],
      "stateMutability": "view",
      "type": "function",
      "constant": true
    }
  ],
  "bytecode": "0x608060405234801561001057600080fd5b5060405161039538038061039583398101604081905261002f91610054565b600080546001600160a01b0319166001600160a01b0392909216919091179055610084565b60006020828403121561006657600080fd5b81516001600160a01b038116811461007d57600080fd5b9392505050565b610302806100936000396000f3fe608060405234801561001057600080fd5b506004361061004c5760003560e01c8063243a7c7b1461005157806339f4fa5f1461006657806386481d401461008c578063c41a360a1461009f575b600080fd5b61006461005f366004610248565b6100ca565b005b61007961007436600461026a565b610133565b6040519081526020015b60405180910390f35b61007961009a36600461026a565b6101a8565b6100b26100ad36600461026a565b6101da565b6040516001600160a01b039091168152602001610083565b60005460405163243a7c7b60e01b815260048101849052602481018390526001600160a01b039091169063243a7c7b90604401600060405180830381600087803b15801561011757600080fd5b505af115801561012b573d6000803e3d6000fd5b505050505050565b600080546040516339f4fa5f60e01b8152600481018490526001600160a01b03909116906339f4fa5f906024015b602060405180830381865afa15801561017e573d6000803e3d6000fd5b505050506040513d601f19601f820116820180604052508101906101a29190610283565b92915050565b60008054604051630219207560e61b8152600481018490526001600160a01b03909116906386481d4090602401610161565b6000805460405163620d1b0560e11b8152600481018490526001600160a01b039091169063c41a360a90602401602060405180830381865afa158015610224573d6000803e3d6000fd5b505050506040513d601f19601f820116820180604052508101906101a2919061029c565b6000806040838503121561025b57600080fd5b50508035926020909101359150565b60006020828403121561027c57600080fd5b5035919050565b60006020828403121561029557600080fd5b5051919050565b6000602082840312156102ae57600080fd5b81516001600160a01b03811681146102c557600080fd5b939250505056fea2646970667358221220fb8a30113db3f0275c440c2368ac1015e8768e07a9f0ea2a7a90a02d9a10d59464736f6c63430008130033",
  "immutableReferences": {},
  "source": "// SPDX-License-Identifier: MIT\npragma solidity ^0.8.18;\nimport \"./FighterAttributes.sol\";\n\ncontract FighterHelper {\n    FighterAttributes private _fighter;\n\n    constructor(address fighterAttributesContract) {\n        _fighter = FighterAttributes(fighterAttributesContract);\n    }\n\n    function getLevel(uint256 tokenId) public view returns (uint256) {\n        return _fighter.getLevel(tokenId);\n    }\n\n    function increaseExperience(uint256 tokenId, uint256 addExp) external {\n        _fighter.increaseExperience(tokenId, addExp);\n    }\n\n    function getOwner(uint256 tokenId) public view returns (address) {\n        return _fighter.getOwner(tokenId);\n    }\n\n    function getDropRarityLevel(uint256 tokenId) public view returns (uint256) {\n        return _fighter.getDropRarityLevel(tokenId);\n    }\n}",
  "sourcePath": "/Users/max/Documents/prog/game-contracts/contracts/FighterHelper.sol",
  "compiler": {
    "name": "solc",
    "version": "0.8.19+commit.7dd6d404.Emscripten.clang"
  },
  "schemaVersion": "3.4.13",
  "updatedAt": "2023-04-24T15:17:06.942Z",
  "networkType": "ethereum",
  "devdoc": {
    "kind": "dev",
    "methods": {},
    "version": 1
  },
  "userdoc": {
    "kind": "user",
    "methods": {},
    "version": 1
  }
}