{
  "contractName": "Fighters",
  "abi": [
    {
      "inputs": [],
      "stateMutability": "nonpayable",
      "type": "constructor"
    },
    {
      "anonymous": false,
      "inputs": [
        {
          "indexed": true,
          "internalType": "address",
          "name": "owner",
          "type": "address"
        },
        {
          "indexed": true,
          "internalType": "address",
          "name": "approved",
          "type": "address"
        },
        {
          "indexed": true,
          "internalType": "uint256",
          "name": "tokenId",
          "type": "uint256"
        }
      ],
      "name": "Approval",
      "type": "event"
    },
    {
      "anonymous": false,
      "inputs": [
        {
          "indexed": true,
          "internalType": "address",
          "name": "owner",
          "type": "address"
        },
        {
          "indexed": true,
          "internalType": "address",
          "name": "operator",
          "type": "address"
        },
        {
          "indexed": false,
          "internalType": "bool",
          "name": "approved",
          "type": "bool"
        }
      ],
      "name": "ApprovalForAll",
      "type": "event"
    },
    {
      "anonymous": false,
      "inputs": [
        {
          "indexed": false,
          "internalType": "uint256",
          "name": "tokenId",
          "type": "uint256"
        },
        {
          "indexed": false,
          "internalType": "address",
          "name": "owner",
          "type": "address"
        },
        {
          "indexed": false,
          "internalType": "uint8",
          "name": "fighterClass",
          "type": "uint8"
        },
        {
          "indexed": false,
          "internalType": "string",
          "name": "name",
          "type": "string"
        }
      ],
      "name": "FighterCreated",
      "type": "event"
    },
    {
      "anonymous": false,
      "inputs": [
        {
          "indexed": false,
          "internalType": "uint256",
          "name": "tokenId",
          "type": "uint256"
        },
        {
          "indexed": false,
          "internalType": "uint256",
          "name": "itemId",
          "type": "uint256"
        },
        {
          "indexed": false,
          "internalType": "uint256",
          "name": "slot",
          "type": "uint256"
        }
      ],
      "name": "ItemEquiped",
      "type": "event"
    },
    {
      "anonymous": false,
      "inputs": [
        {
          "indexed": true,
          "internalType": "address",
          "name": "creator",
          "type": "address"
        },
        {
          "indexed": false,
          "internalType": "uint256",
          "name": "tokenId",
          "type": "uint256"
        },
        {
          "indexed": false,
          "internalType": "uint8",
          "name": "class",
          "type": "uint8"
        }
      ],
      "name": "NPCCreated",
      "type": "event"
    },
    {
      "anonymous": false,
      "inputs": [
        {
          "indexed": false,
          "internalType": "uint256",
          "name": "tokenId",
          "type": "uint256"
        },
        {
          "indexed": false,
          "internalType": "uint256",
          "name": "strength",
          "type": "uint256"
        },
        {
          "indexed": false,
          "internalType": "uint256",
          "name": "agility",
          "type": "uint256"
        },
        {
          "indexed": false,
          "internalType": "uint256",
          "name": "energy",
          "type": "uint256"
        },
        {
          "indexed": false,
          "internalType": "uint256",
          "name": "vitality",
          "type": "uint256"
        }
      ],
      "name": "StatsUpdated",
      "type": "event"
    },
    {
      "anonymous": false,
      "inputs": [
        {
          "indexed": true,
          "internalType": "address",
          "name": "from",
          "type": "address"
        },
        {
          "indexed": true,
          "internalType": "address",
          "name": "to",
          "type": "address"
        },
        {
          "indexed": true,
          "internalType": "uint256",
          "name": "tokenId",
          "type": "uint256"
        }
      ],
      "name": "Transfer",
      "type": "event"
    },
    {
      "anonymous": false,
      "inputs": [
        {
          "indexed": false,
          "internalType": "uint256",
          "name": "",
          "type": "uint256"
        }
      ],
      "name": "updateAgilityPerDefence",
      "type": "event"
    },
    {
      "anonymous": false,
      "inputs": [
        {
          "indexed": false,
          "internalType": "uint256",
          "name": "",
          "type": "uint256"
        }
      ],
      "name": "updateEnergyPerDamage",
      "type": "event"
    },
    {
      "anonymous": false,
      "inputs": [
        {
          "indexed": false,
          "internalType": "uint256",
          "name": "",
          "type": "uint256"
        }
      ],
      "name": "updateExperienceDivider",
      "type": "event"
    },
    {
      "anonymous": false,
      "inputs": [
        {
          "indexed": false,
          "internalType": "uint256",
          "name": "",
          "type": "uint256"
        }
      ],
      "name": "updateHealthRegenerationDivider",
      "type": "event"
    },
    {
      "anonymous": false,
      "inputs": [
        {
          "indexed": false,
          "internalType": "uint256",
          "name": "",
          "type": "uint256"
        }
      ],
      "name": "updateManaRegenerationDivider",
      "type": "event"
    },
    {
      "anonymous": false,
      "inputs": [
        {
          "indexed": false,
          "internalType": "uint256",
          "name": "",
          "type": "uint256"
        }
      ],
      "name": "updateMaxExperience",
      "type": "event"
    },
    {
      "anonymous": false,
      "inputs": [
        {
          "indexed": false,
          "internalType": "uint256",
          "name": "",
          "type": "uint256"
        }
      ],
      "name": "updateStrengthPerDamage",
      "type": "event"
    },
    {
      "inputs": [
        {
          "internalType": "address",
          "name": "to",
          "type": "address"
        },
        {
          "internalType": "uint256",
          "name": "tokenId",
          "type": "uint256"
        }
      ],
      "name": "approve",
      "outputs": [],
      "stateMutability": "nonpayable",
      "type": "function"
    },
    {
      "inputs": [
        {
          "internalType": "address",
          "name": "owner",
          "type": "address"
        }
      ],
      "name": "balanceOf",
      "outputs": [
        {
          "internalType": "uint256",
          "name": "",
          "type": "uint256"
        }
      ],
      "stateMutability": "view",
      "type": "function",
      "constant": true
    },
    {
      "inputs": [
        {
          "internalType": "uint256",
          "name": "tokenId",
          "type": "uint256"
        }
      ],
      "name": "getApproved",
      "outputs": [
        {
          "internalType": "address",
          "name": "",
          "type": "address"
        }
      ],
      "stateMutability": "view",
      "type": "function",
      "constant": true
    },
    {
      "inputs": [
        {
          "internalType": "uint256",
          "name": "seed",
          "type": "uint256"
        }
      ],
      "name": "getRandomNumber",
      "outputs": [
        {
          "internalType": "uint256",
          "name": "",
          "type": "uint256"
        }
      ],
      "stateMutability": "view",
      "type": "function",
      "constant": true
    },
    {
      "inputs": [
        {
          "internalType": "uint256",
          "name": "seed",
          "type": "uint256"
        },
        {
          "internalType": "uint256",
          "name": "maxNum",
          "type": "uint256"
        }
      ],
      "name": "getRandomNumberMax",
      "outputs": [
        {
          "internalType": "uint256",
          "name": "",
          "type": "uint256"
        }
      ],
      "stateMutability": "view",
      "type": "function",
      "constant": true
    },
    {
      "inputs": [
        {
          "internalType": "address",
          "name": "owner",
          "type": "address"
        },
        {
          "internalType": "address",
          "name": "operator",
          "type": "address"
        }
      ],
      "name": "isApprovedForAll",
      "outputs": [
        {
          "internalType": "bool",
          "name": "",
          "type": "bool"
        }
      ],
      "stateMutability": "view",
      "type": "function",
      "constant": true
    },
    {
      "inputs": [
        {
          "internalType": "uint256",
          "name": "a",
          "type": "uint256"
        },
        {
          "internalType": "uint256",
          "name": "b",
          "type": "uint256"
        }
      ],
      "name": "max",
      "outputs": [
        {
          "internalType": "uint256",
          "name": "",
          "type": "uint256"
        }
      ],
      "stateMutability": "view",
      "type": "function",
      "constant": true
    },
    {
      "inputs": [
        {
          "internalType": "uint256",
          "name": "a",
          "type": "uint256"
        },
        {
          "internalType": "uint256",
          "name": "b",
          "type": "uint256"
        }
      ],
      "name": "min",
      "outputs": [
        {
          "internalType": "uint256",
          "name": "",
          "type": "uint256"
        }
      ],
      "stateMutability": "view",
      "type": "function",
      "constant": true
    },
    {
      "inputs": [],
      "name": "name",
      "outputs": [
        {
          "internalType": "string",
          "name": "",
          "type": "string"
        }
      ],
      "stateMutability": "view",
      "type": "function",
      "constant": true
    },
    {
      "inputs": [
        {
          "internalType": "string",
          "name": "",
          "type": "string"
        }
      ],
      "name": "names",
      "outputs": [
        {
          "internalType": "bool",
          "name": "",
          "type": "bool"
        }
      ],
      "stateMutability": "view",
      "type": "function",
      "constant": true
    },
    {
      "inputs": [
        {
          "internalType": "uint256",
          "name": "tokenId",
          "type": "uint256"
        }
      ],
      "name": "ownerOf",
      "outputs": [
        {
          "internalType": "address",
          "name": "",
          "type": "address"
        }
      ],
      "stateMutability": "view",
      "type": "function",
      "constant": true
    },
    {
      "inputs": [
        {
          "internalType": "uint256",
          "name": "a",
          "type": "uint256"
        },
        {
          "internalType": "uint256",
          "name": "b",
          "type": "uint256"
        }
      ],
      "name": "safeAdd",
      "outputs": [
        {
          "internalType": "uint256",
          "name": "",
          "type": "uint256"
        }
      ],
      "stateMutability": "view",
      "type": "function",
      "constant": true
    },
    {
      "inputs": [
        {
          "internalType": "uint256",
          "name": "a",
          "type": "uint256"
        },
        {
          "internalType": "uint256",
          "name": "b",
          "type": "uint256"
        }
      ],
      "name": "safeMul",
      "outputs": [
        {
          "internalType": "uint256",
          "name": "",
          "type": "uint256"
        }
      ],
      "stateMutability": "view",
      "type": "function",
      "constant": true
    },
    {
      "inputs": [
        {
          "internalType": "uint256",
          "name": "a",
          "type": "uint256"
        },
        {
          "internalType": "uint256",
          "name": "b",
          "type": "uint256"
        }
      ],
      "name": "safeSub",
      "outputs": [
        {
          "internalType": "uint256",
          "name": "",
          "type": "uint256"
        }
      ],
      "stateMutability": "view",
      "type": "function",
      "constant": true
    },
    {
      "inputs": [
        {
          "internalType": "address",
          "name": "from",
          "type": "address"
        },
        {
          "internalType": "address",
          "name": "to",
          "type": "address"
        },
        {
          "internalType": "uint256",
          "name": "tokenId",
          "type": "uint256"
        }
      ],
      "name": "safeTransferFrom",
      "outputs": [],
      "stateMutability": "nonpayable",
      "type": "function"
    },
    {
      "inputs": [
        {
          "internalType": "address",
          "name": "from",
          "type": "address"
        },
        {
          "internalType": "address",
          "name": "to",
          "type": "address"
        },
        {
          "internalType": "uint256",
          "name": "tokenId",
          "type": "uint256"
        },
        {
          "internalType": "bytes",
          "name": "data",
          "type": "bytes"
        }
      ],
      "name": "safeTransferFrom",
      "outputs": [],
      "stateMutability": "nonpayable",
      "type": "function"
    },
    {
      "inputs": [
        {
          "internalType": "address",
          "name": "operator",
          "type": "address"
        },
        {
          "internalType": "bool",
          "name": "approved",
          "type": "bool"
        }
      ],
      "name": "setApprovalForAll",
      "outputs": [],
      "stateMutability": "nonpayable",
      "type": "function"
    },
    {
      "inputs": [
        {
          "internalType": "bytes4",
          "name": "interfaceId",
          "type": "bytes4"
        }
      ],
      "name": "supportsInterface",
      "outputs": [
        {
          "internalType": "bool",
          "name": "",
          "type": "bool"
        }
      ],
      "stateMutability": "view",
      "type": "function",
      "constant": true
    },
    {
      "inputs": [],
      "name": "symbol",
      "outputs": [
        {
          "internalType": "string",
          "name": "",
          "type": "string"
        }
      ],
      "stateMutability": "view",
      "type": "function",
      "constant": true
    },
    {
      "inputs": [
        {
          "internalType": "uint256",
          "name": "index",
          "type": "uint256"
        }
      ],
      "name": "tokenByIndex",
      "outputs": [
        {
          "internalType": "uint256",
          "name": "",
          "type": "uint256"
        }
      ],
      "stateMutability": "view",
      "type": "function",
      "constant": true
    },
    {
      "inputs": [
        {
          "internalType": "address",
          "name": "owner",
          "type": "address"
        },
        {
          "internalType": "uint256",
          "name": "index",
          "type": "uint256"
        }
      ],
      "name": "tokenOfOwnerByIndex",
      "outputs": [
        {
          "internalType": "uint256",
          "name": "",
          "type": "uint256"
        }
      ],
      "stateMutability": "view",
      "type": "function",
      "constant": true
    },
    {
      "inputs": [
        {
          "internalType": "uint256",
          "name": "tokenId",
          "type": "uint256"
        }
      ],
      "name": "tokenURI",
      "outputs": [
        {
          "internalType": "string",
          "name": "",
          "type": "string"
        }
      ],
      "stateMutability": "view",
      "type": "function",
      "constant": true
    },
    {
      "inputs": [],
      "name": "totalSupply",
      "outputs": [
        {
          "internalType": "uint256",
          "name": "",
          "type": "uint256"
        }
      ],
      "stateMutability": "view",
      "type": "function",
      "constant": true
    },
    {
      "inputs": [
        {
          "internalType": "address",
          "name": "from",
          "type": "address"
        },
        {
          "internalType": "address",
          "name": "to",
          "type": "address"
        },
        {
          "internalType": "uint256",
          "name": "tokenId",
          "type": "uint256"
        }
      ],
      "name": "transferFrom",
      "outputs": [],
      "stateMutability": "nonpayable",
      "type": "function"
    },
    {
      "inputs": [
        {
          "internalType": "uint256",
          "name": "tokenId",
          "type": "uint256"
        },
        {
          "internalType": "uint256",
          "name": "strength",
          "type": "uint256"
        },
        {
          "internalType": "uint256",
          "name": "agility",
          "type": "uint256"
        },
        {
          "internalType": "uint256",
          "name": "energy",
          "type": "uint256"
        },
        {
          "internalType": "uint256",
          "name": "vitality",
          "type": "uint256"
        }
      ],
      "name": "updateFighterStats",
      "outputs": [],
      "stateMutability": "nonpayable",
      "type": "function"
    },
    {
      "inputs": [
        {
          "internalType": "uint256",
          "name": "tokenId",
          "type": "uint256"
        }
      ],
      "name": "getMaxStatPoints",
      "outputs": [
        {
          "internalType": "uint256",
          "name": "",
          "type": "uint256"
        }
      ],
      "stateMutability": "view",
      "type": "function",
      "constant": true
    },
    {
      "inputs": [
        {
          "internalType": "uint256",
          "name": "tokenId",
          "type": "uint256"
        }
      ],
      "name": "getTotalUsedStatPoints",
      "outputs": [
        {
          "internalType": "uint256",
          "name": "",
          "type": "uint256"
        }
      ],
      "stateMutability": "view",
      "type": "function",
      "constant": true
    },
    {
      "inputs": [
        {
          "internalType": "address",
          "name": "userAddress",
          "type": "address"
        }
      ],
      "name": "getUserFighters",
      "outputs": [
        {
          "internalType": "uint256[]",
          "name": "",
          "type": "uint256[]"
        }
      ],
      "stateMutability": "view",
      "type": "function",
      "constant": true
    },
    {
      "inputs": [
        {
          "internalType": "address",
          "name": "owner",
          "type": "address"
        },
        {
          "internalType": "string",
          "name": "name",
          "type": "string"
        },
        {
          "internalType": "enum FightersAtts.FighterClass",
          "name": "fighterClass",
          "type": "uint8"
        }
      ],
      "name": "createFighter",
      "outputs": [
        {
          "internalType": "uint256",
          "name": "",
          "type": "uint256"
        }
      ],
      "stateMutability": "nonpayable",
      "type": "function"
    },
    {
      "inputs": [
        {
          "internalType": "string",
          "name": "name",
          "type": "string"
        },
        {
          "internalType": "uint256",
          "name": "strength",
          "type": "uint256"
        },
        {
          "internalType": "uint256",
          "name": "agility",
          "type": "uint256"
        },
        {
          "internalType": "uint256",
          "name": "energy",
          "type": "uint256"
        },
        {
          "internalType": "uint256",
          "name": "vitality",
          "type": "uint256"
        },
        {
          "internalType": "uint256",
          "name": "attackSpeed",
          "type": "uint256"
        },
        {
          "internalType": "uint256",
          "name": "level",
          "type": "uint256"
        },
        {
          "internalType": "uint256",
          "name": "dropRarityLevel",
          "type": "uint256"
        }
      ],
      "name": "createNPC",
      "outputs": [
        {
          "internalType": "uint256",
          "name": "",
          "type": "uint256"
        }
      ],
      "stateMutability": "nonpayable",
      "type": "function"
    },
    {
      "inputs": [
        {
          "internalType": "uint256",
          "name": "tokenId",
          "type": "uint256"
        }
      ],
      "name": "getTokenAttributes",
      "outputs": [
        {
          "components": [
            {
              "internalType": "string",
              "name": "name",
              "type": "string"
            },
            {
              "internalType": "uint256",
              "name": "tokenId",
              "type": "uint256"
            },
            {
              "internalType": "uint256",
              "name": "strength",
              "type": "uint256"
            },
            {
              "internalType": "uint256",
              "name": "agility",
              "type": "uint256"
            },
            {
              "internalType": "uint256",
              "name": "energy",
              "type": "uint256"
            },
            {
              "internalType": "uint256",
              "name": "vitality",
              "type": "uint256"
            },
            {
              "internalType": "uint256",
              "name": "experience",
              "type": "uint256"
            },
            {
              "internalType": "uint256",
              "name": "class",
              "type": "uint256"
            },
            {
              "internalType": "uint256",
              "name": "hpPerVitalityPoint",
              "type": "uint256"
            },
            {
              "internalType": "uint256",
              "name": "manaPerEnergyPoint",
              "type": "uint256"
            },
            {
              "internalType": "uint256",
              "name": "hpIncreasePerLevel",
              "type": "uint256"
            },
            {
              "internalType": "uint256",
              "name": "manaIncreasePerLevel",
              "type": "uint256"
            },
            {
              "internalType": "uint256",
              "name": "statPointsPerLevel",
              "type": "uint256"
            },
            {
              "internalType": "uint256",
              "name": "attackSpeed",
              "type": "uint256"
            },
            {
              "internalType": "uint256",
              "name": "agilityPointsPerSpeed",
              "type": "uint256"
            },
            {
              "internalType": "uint256",
              "name": "isNpc",
              "type": "uint256"
            },
            {
              "internalType": "uint256",
              "name": "dropRarityLevel",
              "type": "uint256"
            }
          ],
          "internalType": "struct FightersAtts.Attributes",
          "name": "",
          "type": "tuple"
        }
      ],
      "stateMutability": "view",
      "type": "function",
      "constant": true
    },
    {
      "inputs": [
        {
          "internalType": "uint256",
          "name": "tokenId",
          "type": "uint256"
        }
      ],
      "name": "getOwner",
      "outputs": [
        {
          "internalType": "address",
          "name": "",
          "type": "address"
        }
      ],
      "stateMutability": "view",
      "type": "function",
      "constant": true
    },
    {
      "inputs": [
        {
          "internalType": "uint256",
          "name": "tokenId",
          "type": "uint256"
        }
      ],
      "name": "getDropRarityLevel",
      "outputs": [
        {
          "internalType": "uint256",
          "name": "",
          "type": "uint256"
        }
      ],
      "stateMutability": "view",
      "type": "function",
      "constant": true
    },
    {
      "inputs": [
        {
          "internalType": "uint256",
          "name": "tokenId",
          "type": "uint256"
        },
        {
          "internalType": "uint256",
          "name": "addExp",
          "type": "uint256"
        }
      ],
      "name": "increaseExperience",
      "outputs": [],
      "stateMutability": "nonpayable",
      "type": "function"
    },
    {
      "inputs": [
        {
          "internalType": "uint256",
          "name": "tokenId",
          "type": "uint256"
        }
      ],
      "name": "getMaxHealth",
      "outputs": [
        {
          "internalType": "uint256",
          "name": "",
          "type": "uint256"
        }
      ],
      "stateMutability": "view",
      "type": "function",
      "constant": true
    },
    {
      "inputs": [
        {
          "internalType": "uint256",
          "name": "tokenId",
          "type": "uint256"
        }
      ],
      "name": "getMaxMana",
      "outputs": [
        {
          "internalType": "uint256",
          "name": "",
          "type": "uint256"
        }
      ],
      "stateMutability": "view",
      "type": "function",
      "constant": true
    },
    {
      "inputs": [
        {
          "internalType": "uint256",
          "name": "tokenId",
          "type": "uint256"
        }
      ],
      "name": "getFighterStats",
      "outputs": [
        {
          "components": [
            {
              "internalType": "uint256",
              "name": "tokenId",
              "type": "uint256"
            },
            {
              "internalType": "uint256",
              "name": "maxHealth",
              "type": "uint256"
            },
            {
              "internalType": "uint256",
              "name": "maxMana",
              "type": "uint256"
            },
            {
              "internalType": "uint256",
              "name": "level",
              "type": "uint256"
            },
            {
              "internalType": "uint256",
              "name": "exp",
              "type": "uint256"
            },
            {
              "internalType": "uint256",
              "name": "totalStatPoints",
              "type": "uint256"
            },
            {
              "internalType": "uint256",
              "name": "maxStatPoints",
              "type": "uint256"
            }
          ],
          "internalType": "struct FightersAtts.FighterStats",
          "name": "",
          "type": "tuple"
        }
      ],
      "stateMutability": "view",
      "type": "function",
      "constant": true
    },
    {
      "inputs": [
        {
          "internalType": "uint256",
          "name": "tokenId",
          "type": "uint256"
        }
      ],
      "name": "getExperience",
      "outputs": [
        {
          "internalType": "uint256",
          "name": "",
          "type": "uint256"
        }
      ],
      "stateMutability": "view",
      "type": "function",
      "constant": true
    },
    {
      "inputs": [
        {
          "internalType": "uint256",
          "name": "tokenId",
          "type": "uint256"
        }
      ],
      "name": "getLevel",
      "outputs": [
        {
          "internalType": "uint256",
          "name": "",
          "type": "uint256"
        }
      ],
      "stateMutability": "view",
      "type": "function",
      "constant": true
    },
    {
      "inputs": [
        {
          "internalType": "uint256",
          "name": "level",
          "type": "uint256"
        }
      ],
      "name": "getExpFromLevel",
      "outputs": [
        {
          "internalType": "uint256",
          "name": "",
          "type": "uint256"
        }
      ],
      "stateMutability": "view",
      "type": "function",
      "constant": true
    },
    {
      "inputs": [
        {
          "internalType": "uint256",
          "name": "val",
          "type": "uint256"
        }
      ],
      "name": "setHealthRegenerationDivider",
      "outputs": [],
      "stateMutability": "nonpayable",
      "type": "function"
    },
    {
      "inputs": [
        {
          "internalType": "uint256",
          "name": "val",
          "type": "uint256"
        }
      ],
      "name": "setManaRegenerationDivider",
      "outputs": [],
      "stateMutability": "nonpayable",
      "type": "function"
    },
    {
      "inputs": [
        {
          "internalType": "uint256",
          "name": "val",
          "type": "uint256"
        }
      ],
      "name": "setAgilityPerDefence",
      "outputs": [],
      "stateMutability": "nonpayable",
      "type": "function"
    },
    {
      "inputs": [
        {
          "internalType": "uint256",
          "name": "val",
          "type": "uint256"
        }
      ],
      "name": "setStrengthPerDamage",
      "outputs": [],
      "stateMutability": "nonpayable",
      "type": "function"
    },
    {
      "inputs": [
        {
          "internalType": "uint256",
          "name": "val",
          "type": "uint256"
        }
      ],
      "name": "setEnergyPerDamage",
      "outputs": [],
      "stateMutability": "nonpayable",
      "type": "function"
    },
    {
      "inputs": [
        {
          "internalType": "uint256",
          "name": "val",
          "type": "uint256"
        }
      ],
      "name": "setMaxExperience",
      "outputs": [],
      "stateMutability": "nonpayable",
      "type": "function"
    },
    {
      "inputs": [
        {
          "internalType": "uint256",
          "name": "val",
          "type": "uint256"
        }
      ],
      "name": "setExperienceDivider",
      "outputs": [],
      "stateMutability": "nonpayable",
      "type": "function"
    }
  ],
  "bytecode": "0x60806040526008600e556008600f5560046010556008601155600860125563115d88a460135560056014553480156200003757600080fd5b50604051806040016040528060058152602001644d5249555360d81b815250604051806040016040528060078152602001662334b3b43a32b960c91b81525081600090816200008791906200071a565b5060016200009682826200071a565b50505060405180610220016040528060405180602001604052806000815250815260200160008152602001602a815260200160158152602001600581526020016014815260200160008152602001600181526020016005815260200160058152602001600581526020016001815260200160058152602001601b815260200160078152602001600081526020016000815250600a600060016004811115620001425762000142620007e6565b81526020810191909152604001600020815181906200016290826200071a565b506020820151816001015560408201518160020155606082015181600301556080820151816004015560a0820151816005015560c0820151816006015560e082015181600701556101008201518160080155610120820151816009015561014082015181600a015561016082015181600b015561018082015181600c01556101a082015181600d01556101c082015181600e01556101e082015181600f0155610200820151816010015590505060405180610220016040528060405180602001604052806000815250815260200160008152602001600f8152602001601481526020016032815260200160148152602001600081526020016002815260200160038152602001600a81526020016003815260200160058152602001600581526020016010815260200160058152602001600081526020016000815250600a600060026004811115620002b857620002b8620007e6565b8152602081019190915260400160002081518190620002d890826200071a565b506020820151816001015560408201518160020155606082015181600301556080820151816004015560a0820151816005015560c0820151816006015560e082015181600701556101008201518160080155610120820151816009015561014082015181600a015561016082015181600b015561018082015181600c01556101a082015181600d01556101c082015181600e01556101e082015181600f01556102008201518160100155905050604051806102200160405280604051806020016040528060008152508152602001600081526020016014815260200160198152602001600f81526020016014815260200160008152602001600381526020016003815260200160058152602001600381526020016004815260200160058152602001600c815260200160058152602001600081526020016000815250600a6000600360048111156200042e576200042e620007e6565b81526020810191909152604001600020815181906200044e90826200071a565b506020820151816001015560408201518160020155606082015181600301556080820151816004015560a0820151816005015560c0820151816006015560e082015181600701556101008201518160080155610120820151816009015561014082015181600a015561016082015181600b015561018082015181600c01556101a082015181600d01556101c082015181600e01556101e082015181600f0155610200820151816010015590505060405180610220016040528060405180602001604052806000815250815260200160008152602001601c8152602001600e81526020016014815260200160148152602001600081526020016004815260200160048152602001600781526020016006815260200160028152602001600781526020016017815260200160078152602001600081526020016000815250600a6000600480811115620005a357620005a3620007e6565b8152602081019190915260400160002081518190620005c390826200071a565b506020820151600182015560408201516002820155606082015160038201556080820151600482015560a0820151600582015560c0820151600682015560e0820151600782015561010082015160088201556101208201516009820155610140820151600a820155610160820151600b820155610180820151600c8201556101a0820151600d8201556101c0820151600e8201556101e0820151600f82015561020090910151601090910155620007fc565b634e487b7160e01b600052604160045260246000fd5b600181811c90821680620006a057607f821691505b602082108103620006c157634e487b7160e01b600052602260045260246000fd5b50919050565b601f8211156200071557600081815260208120601f850160051c81016020861015620006f05750805b601f850160051c820191505b818110156200071157828155600101620006fc565b5050505b505050565b81516001600160401b0381111562000736576200073662000675565b6200074e816200074784546200068b565b84620006c7565b602080601f8311600181146200078657600084156200076d5750858301515b600019600386901b1c1916600185901b17855562000711565b600085815260208120601f198616915b82811015620007b75788860151825594840194600190910190840162000796565b5085821015620007d65787850151600019600388901b60f8161c191681555b5050505050600190811b01905550565b634e487b7160e01b600052602160045260246000fd5b6134bf806200080c6000396000f3fe608060405234801561001057600080fd5b50600436106102945760003560e01c80636d9cbb4e11610167578063b88d4fde116100ce578063d05c78da11610087578063d05c78da14610668578063d1e5ef571461067b578063d20a53c81461068e578063e6cb9013146106a1578063e985e9c5146106b4578063f04968be146106f057600080fd5b8063b88d4fde146105e9578063c41a360a146105fc578063c77daef61461060f578063c87b56dd14610622578063cb08304114610635578063cd00ff621461064857600080fd5b806386481d401161012057806386481d401461058257806395d89b4114610595578063a22cb4651461059d578063a293d1e8146105b0578063b1ca2106146105c3578063b37217a4146105d657600080fd5b80636d9cbb4e146104f557806370a0823114610508578063744c1d691461051b578063745bd4531461052e5780637ae2b5c714610541578063822fbf581461055457600080fd5b8063243a7c7b1161020b57806355af86c4116101c457806355af86c41461042d5780636352211e146104965780636599273f146104a9578063688f30ac146104bc5780636ae15f76146104cf5780636d5433e6146104e257600080fd5b8063243a7c7b146103ab5780632f745c59146103be57806339f4fa5f146103d157806342842e0e146103f457806343c6916b146104075780634f6ccce71461041a57600080fd5b80630b1f15cd1161025d5780630b1f15cd1461033757806317a405761461034a57806318160ddd1461035d5780631f4f5a231461036557806321e3ae701461038557806323b872dd1461039857600080fd5b80629df65b1461029957806301ffc9a7146102bf57806306fdde03146102e2578063081812fc146102f7578063095ea7b314610322575b600080fd5b6102ac6102a7366004612a4b565b610703565b6040519081526020015b60405180910390f35b6102d26102cd366004612a83565b61074d565b60405190151581526020016102b6565b6102ea610772565b6040516102b69190612af0565b61030a610305366004612b03565b610804565b6040516001600160a01b0390911681526020016102b6565b610335610330366004612b33565b61082b565b005b610335610345366004612b03565b610945565b610335610358366004612b03565b610981565b6008546102ac565b610378610373366004612b03565b6109b6565b6040516102b69190612b5d565b6102ac610393366004612c95565b610bb4565b6103356103a6366004612cff565b610eb5565b6103356103b9366004612a4b565b610ee6565b6102ac6103cc366004612b33565b610f48565b6102ac6103df366004612b03565b6000908152600b602052604090206010015490565b610335610402366004612cff565b610fde565b6102ac610415366004612b03565b610ff9565b6102ac610428366004612b03565b611073565b61044061043b366004612b03565b611106565b6040516102b69190600060e082019050825182526020830151602083015260408301516040830152606083015160608301526080830151608083015260a083015160a083015260c083015160c083015292915050565b61030a6104a4366004612b03565b6111d6565b6103356104b7366004612b03565b611236565b6103356104ca366004612b03565b61126b565b6103356104dd366004612b03565b6112a0565b6102ac6104f0366004612a4b565b6112d5565b6102ac610503366004612b03565b6112ed565b6102ac610516366004612d3b565b61135b565b6102ac610529366004612d56565b6113e1565b61033561053c366004612b03565b611533565b6102ac61054f366004612a4b565b611568565b6102d2610562366004612e5f565b8051602081830181018051600c8252928201919093012091525460ff1681565b6102ac610590366004612b03565b611577565b6102ea6115e9565b6103356105ab366004612ea8565b6115f8565b6102ac6105be366004612a4b565b611607565b6102ac6105d1366004612b03565b611623565b6102ac6105e4366004612b03565b611660565b6103356105f7366004612ee4565b6116a1565b61030a61060a366004612b03565b6116d9565b6102ac61061d366004612b03565b6116e4565b6102ea610630366004612b03565b611753565b610335610643366004612b03565b6117c6565b61065b610656366004612d3b565b6117fb565b6040516102b69190612f60565b6102ac610676366004612a4b565b61189d565b610335610689366004612fa4565b6118cd565b6102ac61069c366004612b03565b611ba4565b6102ac6106af366004612a4b565b611bd4565b6102d26106c2366004612fdf565b6001600160a01b03918216600090815260056020908152604080832093909416825291909152205460ff1690565b6102ac6106fe366004612b03565b611bfe565b600080448443423360405160200161071f959493929190613012565b60408051601f1981840301815291905280516020909101209050610743838261305f565b9150505b92915050565b60006001600160e01b0319821663780e9d6360e01b1480610747575061074782611c33565b60606000805461078190613073565b80601f01602080910402602001604051908101604052809291908181526020018280546107ad90613073565b80156107fa5780601f106107cf576101008083540402835291602001916107fa565b820191906000526020600020905b8154815290600101906020018083116107dd57829003601f168201915b5050505050905090565b600061080f82611c83565b506000908152600460205260409020546001600160a01b031690565b6000610836826111d6565b9050806001600160a01b0316836001600160a01b0316036108a85760405162461bcd60e51b815260206004820152602160248201527f4552433732313a20617070726f76616c20746f2063757272656e74206f776e656044820152603960f91b60648201526084015b60405180910390fd5b336001600160a01b03821614806108c457506108c481336106c2565b6109365760405162461bcd60e51b815260206004820152603d60248201527f4552433732313a20617070726f76652063616c6c6572206973206e6f7420746f60448201527f6b656e206f776e6572206f7220617070726f76656420666f7220616c6c000000606482015260840161089f565b6109408383611cd6565b505050565b60118190556040518181527f2709c3545e934f71bad88a10628cfcb26544abef6d319e025dafcfaa8ecd371b906020015b60405180910390a150565b60128190556040518181527f8bc6f507740334e03eb54c47352da054221b790b05465e2e8abf2c6e2bd9fd1090602001610976565b610a3d60405180610220016040528060608152602001600081526020016000815260200160008152602001600081526020016000815260200160008152602001600081526020016000815260200160008152602001600081526020016000815260200160008152602001600081526020016000815260200160008152602001600081525090565b610a4682611d44565b610a625760405162461bcd60e51b815260040161089f906130a7565b6000828152600b60205260409081902081516102208101909252805482908290610a8b90613073565b80601f0160208091040260200160405190810160405280929190818152602001828054610ab790613073565b8015610b045780601f10610ad957610100808354040283529160200191610b04565b820191906000526020600020905b815481529060010190602001808311610ae757829003601f168201915b50505050508152602001600182015481526020016002820154815260200160038201548152602001600482015481526020016005820154815260200160068201548152602001600782015481526020016008820154815260200160098201548152602001600a8201548152602001600b8201548152602001600c8201548152602001600d8201548152602001600e8201548152602001600f82015481526020016010820154815250509050919050565b600080826004811115610bc957610bc96130d5565b03610c0e5760405162461bcd60e51b8152602060048201526015602482015274496e76616c6964206669676874657220636c61737360581b604482015260640161089f565b610c188484611d61565b600c8484604051610c2a9291906130eb565b9081526040519081900360200190205460ff1615610c775760405162461bcd60e51b815260206004820152600a6024820152692730b6b2903a30b5b2b760b11b604482015260640161089f565b6000600a6000846004811115610c8f57610c8f6130d5565b815260200190815260200160002060405180610220016040529081600082018054610cb990613073565b80601f0160208091040260200160405190810160405280929190818152602001828054610ce590613073565b8015610d325780601f10610d0757610100808354040283529160200191610d32565b820191906000526020600020905b815481529060010190602001808311610d1557829003601f168201915b50505050508152602001600182015481526020016002820154815260200160038201548152602001600482015481526020016005820154815260200160068201548152602001600782015481526020016008820154815260200160098201548152602001600a8201548152602001600b8201548152602001600c8201548152602001600d8201548152602001600e8201548152602001600f8201548152602001601082015481525050905084848080601f016020809104026020016040519081016040528093929190818152602001838380828437600092019190915250505090825250610e24600d80546001019055565b6000610e2f600d5490565b90507fa9465b37ad9791df34687f5d85a8cc5951aa8c3b36d42960727f0b98bf7b23908188866004811115610e6657610e666130d5565b8989604051610e799594939291906130fb565b60405180910390a1610e8b8782611eb7565b610e958183611ed1565b6000818152600b602052604090206001018190559150505b949350505050565b610ebf3382611fc5565b610edb5760405162461bcd60e51b815260040161089f9061314c565b610940838383612043565b610eef82611d44565b610f0b5760405162461bcd60e51b815260040161089f906130a7565b6013546000838152600b6020526040902060060154610f2f919061054f9084611bd4565b6000928352600b60205260409092206006019190915550565b6000610f538361135b565b8210610fb55760405162461bcd60e51b815260206004820152602b60248201527f455243373231456e756d657261626c653a206f776e657220696e646578206f7560448201526a74206f6620626f756e647360a81b606482015260840161089f565b506001600160a01b03919091166000908152600660209081526040808320938352929052205490565b610940838383604051806020016040528060008152506116a1565b6000818152600b60209081526040808320600701548352600a9091528120600281015460038201546004830154600590930154849361104093926106af9290918391611bd4565b9050600061106761105085611577565b6000868152600b60205260409020600c015461189d565b9050610ead8282611bd4565b600061107e60085490565b82106110e15760405162461bcd60e51b815260206004820152602c60248201527f455243373231456e756d657261626c653a20676c6f62616c20696e646578206f60448201526b7574206f6620626f756e647360a01b606482015260840161089f565b600882815481106110f4576110f4613199565b90600052602060002001549050919050565b6111466040518060e00160405280600081526020016000815260200160008152602001600081526020016000815260200160008152602001600081525090565b61114f82611d44565b61116b5760405162461bcd60e51b815260040161089f906130a7565b60006040518060e00160405280848152602001611187856116e4565b8152602001611195856112ed565b81526020016111a385611577565b81526020016111b185611623565b81526020016111bf85611ba4565b81526020016111cd85610ff9565b90529392505050565b6000818152600260205260408120546001600160a01b0316806107475760405162461bcd60e51b8152602060048201526018602482015277115490cdcc8c4e881a5b9d985b1a59081d1bdad95b88125160421b604482015260640161089f565b60108190556040518181527f8e5252d2d2f885f4bae3553bbe34c3630f9274028f3c343ce0eac0dd710c6a0390602001610976565b60138190556040518181527f8b92a2a371ec2af95aa1740562d5031b28f403d2780beaecdce6befd43667fb890602001610976565b600f8190556040518181527f0665124c1d0c6d84ba8a4d99cb0c2a03455171ce7503623c6cceb9da5bbd7a9190602001610976565b60008183116112e457816112e6565b825b9392505050565b60006112f882611d44565b6113145760405162461bcd60e51b815260040161089f906130a7565b6000828152600b6020819052604082209081015460098201546004909201549092906113529061134590849061189d565b6106af8561067689611577565b95945050505050565b60006001600160a01b0382166113c55760405162461bcd60e51b815260206004820152602960248201527f4552433732313a2061646472657373207a65726f206973206e6f7420612076616044820152683634b21037bbb732b960b91b606482015260840161089f565b506001600160a01b031660009081526003602052604090205490565b6000806040518061022001604052808c8c8080601f01602080910402602001604051908101604052809392919081815260200183838082843760009201829052509385525050506020820152604081018b9052606081018a90526080810189905260a0810188905260c00161145586611bfe565b815260200160008152602001600081526020016000815260200160008152602001600081526020016000815260200186815260200160008152602001600181526020018481525090506114ac600d80546001019055565b60006114b7600d5490565b90506114c33382611eb7565b6114cd8183611ed1565b6000818152600b60205260408082206001018390555133917fe6ad03ae09e6216384922d74b5734a0ebc9aa6de15bcd7d61ed9999ba2cb1df59161151c9185825260ff16602082015260400190565b60405180910390a29b9a5050505050505050505050565b60148190556040518181527f0dbed17fa1cbd28e0338d43e05619d042b9ca1ac23a9d5383ebe0ab7049ff16e90602001610976565b60008183106112e457816112e6565b600061158282611d44565b61159e5760405162461bcd60e51b815260040161089f906130a7565b6000828152600b6020526040902060060154601454600a906115df906115d8906115d3906115cc908661189d565b607d611bd4565b6121b4565b6005611607565b6112e691906131c5565b60606001805461078190613073565b611603338383612224565b5050565b600082821115611619576116196131d9565b6112e682846131ef565b600061162e82611d44565b61164a5760405162461bcd60e51b815260040161089f906130a7565b506000908152600b602052604090206006015490565b600080448343423360405160200161167c959493929190613012565b60408051601f19818403018152919052805160209091012090506112e660648261305f565b6116ab3383611fc5565b6116c75760405162461bcd60e51b815260040161089f9061314c565b6116d3848484846122f2565b50505050565b6000610747826111d6565b60006116ef82611d44565b61170b5760405162461bcd60e51b815260040161089f906130a7565b6000828152600b60205260408120600a81015460089091015490916113526117368461067688611577565b6000878152600b60205260409020600501546106af90859061189d565b606061175e82611c83565b600061177560408051602081019091526000815290565b9050600081511161179557604051806020016040528060008152506112e6565b8061179f84612325565b6040516020016117b0929190613202565b6040516020818303038152906040529392505050565b600e8190556040518181527f3dc2199ccebb6b521944bbb446fd55ec36fc6b23c37808e7304ac55d535d3ac490602001610976565b606060006118088361135b565b905060008167ffffffffffffffff81111561182557611825612dd3565b60405190808252806020026020018201604052801561184e578160200160208202803683370190505b50905060005b82811015611895576118668582610f48565b82828151811061187857611878613199565b60209081029190910101528061188d81613231565b915050611854565b509392505050565b6000806118aa838561324a565b90508315806118c15750826118bf85836131c5565b145b6112e6576112e66131d9565b336118d7866111d6565b6001600160a01b03161461191d5760405162461bcd60e51b815260206004820152600d60248201526c1058d8d95cdcc811195b9a5959609a1b604482015260640161089f565b6000858152600b602052604090206002015484101561197e5760405162461bcd60e51b815260206004820152601b60248201527f537472656e6774682063616e2774206265206465637265617365640000000000604482015260640161089f565b6000858152600b60205260409020600301548310156119df5760405162461bcd60e51b815260206004820152601a60248201527f4167696c6974792063616e277420626520646563726561736564000000000000604482015260640161089f565b6000858152600b6020526040902060040154821015611a405760405162461bcd60e51b815260206004820152601960248201527f456e657267792063616e27742062652064656372656173656400000000000000604482015260640161089f565b6000858152600b6020526040902060050154811015611aa15760405162461bcd60e51b815260206004820152601b60248201527f566974616c6974792063616e2774206265206465637265617365640000000000604482015260640161089f565b6000611aac86610ff9565b90506000611ab987611ba4565b90506000611acf876106af886106af8989611bd4565b905082811115611b215760405162461bcd60e51b815260206004820152601e60248201527f547279696e6720746f6f2061646420746f6f206d616e7920706f696e74730000604482015260640161089f565b6000888152600b6020908152604091829020600281018a9055600381018990556004810188905560050186905581518a815290810189905290810187905260608101869052608081018590527f9e28895821cef6daa08da1e82406e8be9675974fd115ccca84e332e6c15cff8f9060a00160405180910390a15050505050505050565b6000818152600b60205260408120600281015460038201546004830154600590930154610747936106af92918391905b600080611be18385613261565b90508381101580156118c15750828110156112e6576112e66131d9565b600080611c16611c0f84600a61189d565b6005611bd4565b9050611c238160026123b8565b90506014546115df82607d611607565b60006001600160e01b031982166380ac58cd60e01b1480611c6457506001600160e01b03198216635b5e139f60e01b145b8061074757506301ffc9a760e01b6001600160e01b0319831614610747565b611c8c81611d44565b611cd35760405162461bcd60e51b8152602060048201526018602482015277115490cdcc8c4e881a5b9d985b1a59081d1bdad95b88125160421b604482015260640161089f565b50565b600081815260046020526040902080546001600160a01b0319166001600160a01b0384169081179091558190611d0b826111d6565b6001600160a01b03167f8c5be1e5ebec7d5bd14f71427d1e84f3dd0314c0f7b2291e5b200ac8c7c3b92560405160405180910390a45050565b6000908152600260205260409020546001600160a01b0316151590565b600d811115611da25760405162461bcd60e51b815260206004820152600d60248201526c4e616d6520746f6f206c6f6e6760981b604482015260640161089f565b60005b81811015610940576000838383818110611dc157611dc1613199565b909101356001600160f81b031916915050600360fc1b8110801590611df45750603960f81b6001600160f81b0319821611155b80611e265750604160f81b6001600160f81b0319821610801590611e265750602d60f91b6001600160f81b0319821611155b80611e585750606160f81b6001600160f81b0319821610801590611e585750603d60f91b6001600160f81b0319821611155b611ea45760405162461bcd60e51b815260206004820181905260248201527f4e616d6520636f6e7461696e7320696e76616c69642063686172616374657273604482015260640161089f565b5080611eaf81613231565b915050611da5565b611603828260405180602001604052806000815250612403565b611eda82611d44565b611ef65760405162461bcd60e51b815260040161089f906130a7565b6000828152600b6020526040902081518291908190611f1590826132c2565b506020820151600182015560408201516002820155606082015160038201556080820151600482015560a0820151600582015560c0820151600682015560e0820151600782015561010082015160088201556101208201516009820155610140820151600a820155610160820151600b820155610180820151600c8201556101a0820151600d8201556101c0820151600e8201556101e0820151600f820155610200909101516010909101555050565b600080611fd1836111d6565b9050806001600160a01b0316846001600160a01b0316148061201857506001600160a01b0380821660009081526005602090815260408083209388168352929052205460ff165b806107435750836001600160a01b031661203184610804565b6001600160a01b031614949350505050565b826001600160a01b0316612056826111d6565b6001600160a01b03161461207c5760405162461bcd60e51b815260040161089f90613382565b6001600160a01b0382166120de5760405162461bcd60e51b8152602060048201526024808201527f4552433732313a207472616e7366657220746f20746865207a65726f206164646044820152637265737360e01b606482015260840161089f565b6120eb8383836001612436565b826001600160a01b03166120fe826111d6565b6001600160a01b0316146121245760405162461bcd60e51b815260040161089f90613382565b600081815260046020908152604080832080546001600160a01b03199081169091556001600160a01b0387811680865260038552838620805460001901905590871680865283862080546001019055868652600290945282852080549092168417909155905184937fddf252ad1be2c89b69c2b068fc378daa952ba7f163c4a11628f55a4df523b3ef91a4505050565b6000600382111561221557508060006121ce6002836131c5565b6121d9906001613261565b90505b8181101561220f579050806002816121f481866131c5565b6121fe9190613261565b61220891906131c5565b90506121dc565b50919050565b811561221f575060015b919050565b816001600160a01b0316836001600160a01b0316036122855760405162461bcd60e51b815260206004820152601960248201527f4552433732313a20617070726f766520746f2063616c6c657200000000000000604482015260640161089f565b6001600160a01b03838116600081815260056020908152604080832094871680845294825291829020805460ff191686151590811790915591519182527f17307eab39ab6107e8899845ad3d59bd9653f200f220920489ca2b5937696c31910160405180910390a3505050565b6122fd848484612043565b6123098484848461256a565b6116d35760405162461bcd60e51b815260040161089f906133c7565b6060600061233283612668565b600101905060008167ffffffffffffffff81111561235257612352612dd3565b6040519080825280601f01601f19166020018201604052801561237c576020820181803683370190505b5090508181016020015b600019016f181899199a1a9b1b9c1cb0b131b232b360811b600a86061a8153600a850494508461238657509392505050565b6000816000036123ca57506001610747565b816001036123d9575081610747565b8260015b83811015611895576123ef828661189d565b9150806123fb81613231565b9150506123dd565b61240d8383612740565b61241a600084848461256a565b6109405760405162461bcd60e51b815260040161089f906133c7565b60018111156124a55760405162461bcd60e51b815260206004820152603560248201527f455243373231456e756d657261626c653a20636f6e7365637574697665207472604482015274185b9cd9995c9cc81b9bdd081cdd5c1c1bdc9d1959605a1b606482015260840161089f565b816001600160a01b038516612501576124fc81600880546000838152600960205260408120829055600182018355919091527ff3f7a9fe364faab93b216da50a3214154f22a0a2b415b23a84c8169e8b636ee30155565b612524565b836001600160a01b0316856001600160a01b0316146125245761252485826128bb565b6001600160a01b0384166125405761253b81612958565b612563565b846001600160a01b0316846001600160a01b031614612563576125638482612a07565b5050505050565b60006001600160a01b0384163b1561266057604051630a85bd0160e11b81526001600160a01b0385169063150b7a02906125ae903390899088908890600401613419565b6020604051808303816000875af19250505080156125e9575060408051601f3d908101601f191682019092526125e691810190613456565b60015b612646573d808015612617576040519150601f19603f3d011682016040523d82523d6000602084013e61261c565b606091505b50805160000361263e5760405162461bcd60e51b815260040161089f906133c7565b805181602001fd5b6001600160e01b031916630a85bd0160e11b149050610ead565b506001610ead565b60008072184f03e93ff9f4daa797ed6e38ed64bf6a1f0160401b83106126a75772184f03e93ff9f4daa797ed6e38ed64bf6a1f0160401b830492506040015b6d04ee2d6d415b85acef810000000083106126d3576d04ee2d6d415b85acef8100000000830492506020015b662386f26fc1000083106126f157662386f26fc10000830492506010015b6305f5e1008310612709576305f5e100830492506008015b612710831061271d57612710830492506004015b6064831061272f576064830492506002015b600a83106107475760010192915050565b6001600160a01b0382166127965760405162461bcd60e51b815260206004820181905260248201527f4552433732313a206d696e7420746f20746865207a65726f2061646472657373604482015260640161089f565b61279f81611d44565b156127ec5760405162461bcd60e51b815260206004820152601c60248201527f4552433732313a20746f6b656e20616c7265616479206d696e74656400000000604482015260640161089f565b6127fa600083836001612436565b61280381611d44565b156128505760405162461bcd60e51b815260206004820152601c60248201527f4552433732313a20746f6b656e20616c7265616479206d696e74656400000000604482015260640161089f565b6001600160a01b038216600081815260036020908152604080832080546001019055848352600290915280822080546001600160a01b0319168417905551839291907fddf252ad1be2c89b69c2b068fc378daa952ba7f163c4a11628f55a4df523b3ef908290a45050565b600060016128c88461135b565b6128d291906131ef565b600083815260076020526040902054909150808214612925576001600160a01b03841660009081526006602090815260408083208584528252808320548484528184208190558352600790915290208190555b5060009182526007602090815260408084208490556001600160a01b039094168352600681528383209183525290812055565b60085460009061296a906001906131ef565b6000838152600960205260408120546008805493945090928490811061299257612992613199565b9060005260206000200154905080600883815481106129b3576129b3613199565b60009182526020808320909101929092558281526009909152604080822084905585825281205560088054806129eb576129eb613473565b6001900381819060005260206000200160009055905550505050565b6000612a128361135b565b6001600160a01b039093166000908152600660209081526040808320868452825280832085905593825260079052919091209190915550565b60008060408385031215612a5e57600080fd5b50508035926020909101359150565b6001600160e01b031981168114611cd357600080fd5b600060208284031215612a9557600080fd5b81356112e681612a6d565b60005b83811015612abb578181015183820152602001612aa3565b50506000910152565b60008151808452612adc816020860160208601612aa0565b601f01601f19169290920160200192915050565b6020815260006112e66020830184612ac4565b600060208284031215612b1557600080fd5b5035919050565b80356001600160a01b038116811461221f57600080fd5b60008060408385031215612b4657600080fd5b612b4f83612b1c565b946020939093013593505050565b6020815260008251610220806020850152612b7c610240850183612ac4565b602086015160408681019190915286015160608087019190915286015160808087019190915286015160a08087019190915286015160c08087019190915286015160e08087019190915286015161010080870191909152860151610120808701919091528601516101408087019190915286015161016080870191909152860151610180808701919091528601516101a0808701919091528601516101c0808701919091528601516101e08087019190915286015161020080870191909152909501519301929092525090919050565b60008083601f840112612c5e57600080fd5b50813567ffffffffffffffff811115612c7657600080fd5b602083019150836020828501011115612c8e57600080fd5b9250929050565b60008060008060608587031215612cab57600080fd5b612cb485612b1c565b9350602085013567ffffffffffffffff811115612cd057600080fd5b612cdc87828801612c4c565b909450925050604085013560058110612cf457600080fd5b939692955090935050565b600080600060608486031215612d1457600080fd5b612d1d84612b1c565b9250612d2b60208501612b1c565b9150604084013590509250925092565b600060208284031215612d4d57600080fd5b6112e682612b1c565b60008060008060008060008060006101008a8c031215612d7557600080fd5b893567ffffffffffffffff811115612d8c57600080fd5b612d988c828d01612c4c565b909d909c5060208c01359b60408101359b5060608101359a506080810135995060a0810135985060c0810135975060e0013595509350505050565b634e487b7160e01b600052604160045260246000fd5b600067ffffffffffffffff80841115612e0457612e04612dd3565b604051601f8501601f19908116603f01168101908282118183101715612e2c57612e2c612dd3565b81604052809350858152868686011115612e4557600080fd5b858560208301376000602087830101525050509392505050565b600060208284031215612e7157600080fd5b813567ffffffffffffffff811115612e8857600080fd5b8201601f81018413612e9957600080fd5b61074384823560208401612de9565b60008060408385031215612ebb57600080fd5b612ec483612b1c565b915060208301358015158114612ed957600080fd5b809150509250929050565b60008060008060808587031215612efa57600080fd5b612f0385612b1c565b9350612f1160208601612b1c565b925060408501359150606085013567ffffffffffffffff811115612f3457600080fd5b8501601f81018713612f4557600080fd5b612f5487823560208401612de9565b91505092959194509250565b6020808252825182820181905260009190848201906040850190845b81811015612f9857835183529284019291840191600101612f7c565b50909695505050505050565b600080600080600060a08688031215612fbc57600080fd5b505083359560208501359550604085013594606081013594506080013592509050565b60008060408385031215612ff257600080fd5b612ffb83612b1c565b915061300960208401612b1c565b90509250929050565b948552602085019390935260408401919091526060808401919091521b6bffffffffffffffffffffffff1916608082015260940190565b634e487b7160e01b600052601260045260246000fd5b60008261306e5761306e613049565b500690565b600181811c9082168061308757607f821691505b60208210810361220f57634e487b7160e01b600052602260045260246000fd5b602080825260149082015273151bdad95b88191bd95cc81b9bdd08195e1a5cdd60621b604082015260600190565b634e487b7160e01b600052602160045260246000fd5b8183823760009101908152919050565b8581526001600160a01b038516602082015260ff841660408201526080606082018190528101829052818360a0830137600081830160a090810191909152601f909201601f19160101949350505050565b6020808252602d908201527f4552433732313a2063616c6c6572206973206e6f7420746f6b656e206f776e6560408201526c1c881bdc88185c1c1c9bdd9959609a1b606082015260800190565b634e487b7160e01b600052603260045260246000fd5b634e487b7160e01b600052601160045260246000fd5b6000826131d4576131d4613049565b500490565b634e487b7160e01b600052600160045260246000fd5b81810381811115610747576107476131af565b60008351613214818460208801612aa0565b835190830190613228818360208801612aa0565b01949350505050565b600060018201613243576132436131af565b5060010190565b8082028115828204841417610747576107476131af565b80820180821115610747576107476131af565b601f82111561094057600081815260208120601f850160051c8101602086101561329b5750805b601f850160051c820191505b818110156132ba578281556001016132a7565b505050505050565b815167ffffffffffffffff8111156132dc576132dc612dd3565b6132f0816132ea8454613073565b84613274565b602080601f831160018114613325576000841561330d5750858301515b600019600386901b1c1916600185901b1785556132ba565b600085815260208120601f198616915b8281101561335457888601518255948401946001909101908401613335565b50858210156133725787850151600019600388901b60f8161c191681555b5050505050600190811b01905550565b60208082526025908201527f4552433732313a207472616e736665722066726f6d20696e636f72726563742060408201526437bbb732b960d91b606082015260800190565b60208082526032908201527f4552433732313a207472616e7366657220746f206e6f6e20455243373231526560408201527131b2b4bb32b91034b6b83632b6b2b73a32b960711b606082015260800190565b6001600160a01b038581168252841660208201526040810183905260806060820181905260009061344c90830184612ac4565b9695505050505050565b60006020828403121561346857600080fd5b81516112e681612a6d565b634e487b7160e01b600052603160045260246000fdfea2646970667358221220f0348a5fc594f64911a17b6c63ad88afba9b2f432335bd087d927f9d7cc074ff64736f6c63430008130033",
  "immutableReferences": {},
  "source": "// SPDX-License-Identifier: MIT\npragma solidity ^0.8.18;\n\nimport \"@openzeppelin/contracts/token/ERC721/ERC721.sol\";\nimport \"@openzeppelin/contracts/utils/Counters.sol\";\nimport \"@openzeppelin/contracts/token/ERC721/extensions/ERC721Enumerable.sol\";\n\n\nimport \"./SafeMath.sol\";\nimport \"./FightersAtts.sol\";\n\ncontract Fighters is ERC721Enumerable, FightersAtts, SafeMath {\n    using Counters for Counters.Counter;\n\n    // Initial attributes by class\n    mapping (uint256 => Attributes) private _initialAttributes;\n    mapping (uint256 => Attributes) private _tokenAttributes;\n    mapping (string => bool) public names;\n\n    // Events\n    event FighterCreated(uint256 tokenId, address owner, uint8 fighterClass, string name);\n    event NPCCreated(address indexed creator, uint256 tokenId, uint8 class);\n    event StatsUpdated(uint256 tokenId, uint256 strength, uint256 agility, uint256 energy, uint256 vitality);\n    event ItemEquiped(uint256 tokenId, uint256 itemId, uint256 slot);\n\n    // Counter for token IDs\n    Counters.Counter private _tokenIdCounter;\n\n    constructor() ERC721(\"MRIUS\", \"Fighter\") {\n        // Set initial attributes for each class\n        _initialAttributes[uint256(FighterClass.DarkKnight)]        = Attributes(\"\", 0, 42, 21,  5, 20, 0, 1,     5,  5, 5, 1, 5, 27, 7, 0, 0);\n        _initialAttributes[uint256(FighterClass.DarkWizard)]        = Attributes(\"\", 0, 15, 20, 50, 20, 0, 2,     3, 10, 3, 5, 5, 16, 5, 0, 0);\n        _initialAttributes[uint256(FighterClass.FairyElf)]          = Attributes(\"\", 0, 20, 25, 15, 20, 0, 3,     3,  5, 3, 4, 5, 12, 5, 0, 0);\n        _initialAttributes[uint256(FighterClass.MagicGladiator)]    = Attributes(\"\", 0, 28, 14, 20, 20, 0, 4,     4,  7, 6, 2, 7, 23, 7, 0, 0);\n    }\n\n    function updateFighterStats(uint256 tokenId, uint256 strength, uint256 agility, uint256 energy, uint256 vitality)  external  {\n        // Check msg.sender is the NFT owner\n        require(ownerOf(tokenId) == msg.sender, \"Access Denied\");\n        \n        require(strength >= _tokenAttributes[tokenId].strength, \"Strength can't be decreased\");\n        require(agility >= _tokenAttributes[tokenId].agility, \"Agility can't be decreased\");\n        require(energy >= _tokenAttributes[tokenId].energy, \"Energy can't be decreased\");\n        require(vitality >= _tokenAttributes[tokenId].vitality, \"Vitality can't be decreased\");\n\n\n        uint256 maxPoints = getMaxStatPoints(tokenId);\n        uint256 usedStatPoints = getTotalUsedStatPoints(tokenId);\n\n        uint256 newTotalStats = safeAdd(strength, safeAdd(agility, safeAdd(energy, vitality)));\n\n        require(newTotalStats <= maxPoints, \"Trying too add too many points\");\n\n        _tokenAttributes[tokenId].strength = strength;\n        _tokenAttributes[tokenId].agility = agility;\n        _tokenAttributes[tokenId].energy = energy;\n        _tokenAttributes[tokenId].vitality = vitality;\n\n        emit StatsUpdated(tokenId, strength, agility, energy, vitality);\n    }\n\n    function getMaxStatPoints(uint256 tokenId) public view returns (uint256) {\n        uint256 initialPoints = safeAdd(_initialAttributes[_tokenAttributes[tokenId].class].strength,\n                safeAdd(_initialAttributes[_tokenAttributes[tokenId].class].agility, \n                safeAdd(_initialAttributes[_tokenAttributes[tokenId].class].energy,\n                _initialAttributes[_tokenAttributes[tokenId].class].vitality)));\n\n        uint256 levelPoints = safeMul(getLevel(tokenId), _tokenAttributes[tokenId].statPointsPerLevel);\n\n        return safeAdd(initialPoints, levelPoints);\n    }\n\n    function getTotalUsedStatPoints(uint256 tokenId) public view returns (uint256) {\n        return safeAdd(_tokenAttributes[tokenId].strength,\n                safeAdd(_tokenAttributes[tokenId].agility, \n                safeAdd(_tokenAttributes[tokenId].energy,\n                _tokenAttributes[tokenId].vitality)));\n    }\n\n    function getUserFighters(address userAddress) external view returns (uint256[] memory) {        \n        uint256 numTokens = balanceOf(userAddress);\n        uint256[] memory tokenIds = new uint256[](numTokens);\n\n        for (uint256 i = 0; i < numTokens; i++) {\n            tokenIds[i] = tokenOfOwnerByIndex(userAddress, i);\n        }\n\n        return tokenIds;\n    }\n\n    // Create a new fighter NFT with initial attributes\n    function createFighter(address owner, string calldata name, FighterClass fighterClass) external returns (uint256) {\n        // Make sure the class is valid\n        require(fighterClass != FighterClass.None, \"Invalid fighter class\");\n\n        validateFighterName(name);\n        require(!names[name], \"Name taken\");\n\n        // Get the initial attributes for the class\n        Attributes memory initialAttrs = _initialAttributes[uint256(fighterClass)];\n        initialAttrs.name = name;\n       \n\n        // Mint the NFT with the initial attributes\n        _tokenIdCounter.increment();\n        uint256 tokenId = _tokenIdCounter.current();       \n\n        emit FighterCreated(tokenId, owner, uint8(fighterClass), name);\n\n        _safeMint(owner, tokenId);\n        _setTokenAttributes(tokenId, initialAttrs);\n\n        _tokenAttributes[tokenId].tokenId = tokenId;\n\n        return tokenId;\n    }\n\n    function validateFighterName(string calldata name) private pure {\n        require(bytes(name).length <= 13, \"Name too long\");\n\n        // Check if name contains only A-Z, a-z, 0-9\n        for (uint i = 0; i < bytes(name).length; i++) {\n            bytes1 char = bytes(name)[i];\n            require((char >= '0' && char <= '9') || \n                    (char >= 'A' && char <= 'Z') || \n                    (char >= 'a' && char <= 'z'), \"Name contains invalid characters\");\n        }\n    }\n\n    function createNPC(string calldata name, uint256 strength, uint256 agility, uint256 energy, uint256 vitality, uint256 attackSpeed, uint256 level, uint256 dropRarityLevel) external returns (uint256) {\n        Attributes memory atts = Attributes(name, 0, strength, agility, energy,vitality, getExpFromLevel(level), 0,        0, 0, 0, 0, 0, attackSpeed,      0, 1, dropRarityLevel);\n        _tokenIdCounter.increment();\n        uint256 tokenId = _tokenIdCounter.current();\n        _safeMint(msg.sender, tokenId);\n        _setTokenAttributes(tokenId, atts);\n        _tokenAttributes[tokenId].tokenId = tokenId;\n\n        emit NPCCreated(msg.sender, tokenId, 0);\n\n        return tokenId;\n    }\n\n    // Get the attributes for a fighter NFT\n    function getTokenAttributes(uint256 tokenId) public view returns (Attributes memory) {\n        require(_exists(tokenId), \"Token does not exist\");\n\n        return _tokenAttributes[tokenId];\n    }\n\n    function getOwner(uint256 tokenId) public view returns (address) {\n        return ownerOf(tokenId);\n    }\n\n    function getDropRarityLevel(uint256 tokenId) public view returns (uint256) {\n        return _tokenAttributes[tokenId].dropRarityLevel;\n    }\n\n    // Set the attributes for a fighter NFT\n    function _setTokenAttributes(uint256 tokenId, Attributes memory attrs) internal {\n        require(_exists(tokenId), \"Token does not exist\");\n\n        _tokenAttributes[tokenId] = attrs;\n    }\n\n    // Increase fighter experience\n    function increaseExperience(uint256 tokenId, uint256 addExp) external  {\n        require(_exists(tokenId), \"Token does not exist\");\n\n        _tokenAttributes[tokenId].experience = min(maxExperience, safeAdd(_tokenAttributes[tokenId].experience, addExp));\n    }\n\n\n    function getMaxHealth(uint256 tokenId) public view returns (uint256) \n    {\n        require(_exists(tokenId), \"Token does not exist\");\n        uint256 increasePerLevel = 0;\n        uint256 hpPerVitalityPoint = 0;\n        uint256 vitalityPoints;\n\n        increasePerLevel = _tokenAttributes[tokenId].hpIncreasePerLevel;\n        hpPerVitalityPoint = _tokenAttributes[tokenId].hpPerVitalityPoint;\n        \n\n        return safeAdd(safeMul(increasePerLevel, getLevel(tokenId)), safeMul(hpPerVitalityPoint, _tokenAttributes[tokenId].vitality));\n    }\n\n\n    function getMaxMana(uint256 tokenId) public view returns (uint256) \n    {\n        require(_exists(tokenId), \"Token does not exist\");\n        uint256 increasePerLevel = 0;\n        uint256 mpPerEnergyPoint = 0;\n        uint256 energyPoints;\n\n        \n        increasePerLevel = _tokenAttributes[tokenId].manaIncreasePerLevel;\n        mpPerEnergyPoint = _tokenAttributes[tokenId].manaPerEnergyPoint;\n        \n\n        return safeAdd(safeMul(mpPerEnergyPoint, _tokenAttributes[tokenId].energy), safeMul(increasePerLevel, getLevel(tokenId)));\n    }\n\n    \n\n    function getFighterStats(uint256 tokenId) public view returns (FighterStats memory)\n    {\n        require(_exists(tokenId), \"Token does not exist\");\n        FighterStats memory stats = FighterStats({\n            tokenId: tokenId,\n            maxHealth: getMaxHealth(tokenId),\n            maxMana: getMaxMana(tokenId),\n            level: getLevel(tokenId),\n            exp: getExperience(tokenId),\n            totalStatPoints: getTotalUsedStatPoints(tokenId),\n            maxStatPoints: getMaxStatPoints(tokenId)\n        });\n\n        return stats;\n    }\n\n    function getExperience(uint256 tokenId) public view returns (uint256)\n    {\n        require(_exists(tokenId), \"Token does not exist\");\n\n        // Health = Health_After_Last_Damage + (Current Block Number - Last Damage Block Number) * Health Regeneration Rate\n        return _tokenAttributes[tokenId].experience;\n    }\n\n    // Get player level\n    function getLevel(uint256 tokenId) public view returns (uint256) \n    {\n        require(_exists(tokenId), \"Token does not exist\");\n\n        uint256 exp = _tokenAttributes[tokenId].experience;\n\n        return safeSub(sqrt(safeAdd(safeMul(experienceDivider, exp), 125)), 5) / 10;\n    }\n\n    // Reverse function for getLevel\n    function getExpFromLevel(uint256 level) public view returns (uint256) {\n        uint256 exp = safeAdd(safeMul(level, 10), 5); // level.mul(10).add(5) \n        exp = safePow(exp, 2);\n        exp = safeSub(exp, 125)/experienceDivider; // exp.sub(125).div(experienceDivider);\n        return exp;\n    }\n\n    uint256 healthRegenerationDivider = 8;\n    uint256 manaRegenerationDivider = 8;\n    uint256 agilityPerDefence = 4;\n    uint256 strengthPerDamage = 8;\n    uint256 energyPerDamage = 8;\n    uint256 maxExperience = 291342500;\n    uint256 experienceDivider = 5;\n\n\n    event updateHealthRegenerationDivider(uint256);\n    event updateManaRegenerationDivider(uint256);\n    event updateAgilityPerDefence(uint256);\n    event updateStrengthPerDamage(uint256);\n    event updateEnergyPerDamage(uint256);\n    event updateMaxExperience(uint256);\n    event updateExperienceDivider(uint256);\n    \n\n    function setHealthRegenerationDivider(uint256 val) external {\n        healthRegenerationDivider = val;\n\n        emit updateHealthRegenerationDivider(val);\n    }\n\n   function setManaRegenerationDivider(uint256 val) external {\n        manaRegenerationDivider = val;\n\n        emit updateManaRegenerationDivider(val);\n    }\n\n   function setAgilityPerDefence(uint256 val) external {\n        agilityPerDefence = val;\n\n        emit updateAgilityPerDefence(val);\n    }\n\n   function setStrengthPerDamage(uint256 val) external {\n        strengthPerDamage = val;\n\n        emit updateStrengthPerDamage(val);\n    }\n\n   function setEnergyPerDamage(uint256 val) external  {\n        energyPerDamage = val;\n\n        emit updateEnergyPerDamage(val);\n    }\n\n    function setMaxExperience(uint256 val) external  {\n        maxExperience = val;\n\n        emit updateMaxExperience(val);\n    }\n\n    function setExperienceDivider(uint256 val) external  {\n        experienceDivider = val;\n\n        emit updateExperienceDivider(val);\n    }\n}\n",
  "sourcePath": "/Users/max/Documents/prog/game-contracts/contracts/Fighters.sol",
  "compiler": {
    "name": "solc",
    "version": "0.8.19+commit.7dd6d404.Emscripten.clang"
  },
  "schemaVersion": "3.4.13",
  "updatedAt": "2023-08-04T05:17:18.132Z",
  "networkType": "ethereum",
  "devdoc": {
    "events": {
      "Approval(address,address,uint256)": {
        "details": "Emitted when `owner` enables `approved` to manage the `tokenId` token."
      },
      "ApprovalForAll(address,address,bool)": {
        "details": "Emitted when `owner` enables or disables (`approved`) `operator` to manage all of its assets."
      },
      "Transfer(address,address,uint256)": {
        "details": "Emitted when `tokenId` token is transferred from `from` to `to`."
      }
    },
    "kind": "dev",
    "methods": {
      "approve(address,uint256)": {
        "details": "See {IERC721-approve}."
      },
      "balanceOf(address)": {
        "details": "See {IERC721-balanceOf}."
      },
      "getApproved(uint256)": {
        "details": "See {IERC721-getApproved}."
      },
      "isApprovedForAll(address,address)": {
        "details": "See {IERC721-isApprovedForAll}."
      },
      "name()": {
        "details": "See {IERC721Metadata-name}."
      },
      "ownerOf(uint256)": {
        "details": "See {IERC721-ownerOf}."
      },
      "safeTransferFrom(address,address,uint256)": {
        "details": "See {IERC721-safeTransferFrom}."
      },
      "safeTransferFrom(address,address,uint256,bytes)": {
        "details": "See {IERC721-safeTransferFrom}."
      },
      "setApprovalForAll(address,bool)": {
        "details": "See {IERC721-setApprovalForAll}."
      },
      "supportsInterface(bytes4)": {
        "details": "See {IERC165-supportsInterface}."
      },
      "symbol()": {
        "details": "See {IERC721Metadata-symbol}."
      },
      "tokenByIndex(uint256)": {
        "details": "See {IERC721Enumerable-tokenByIndex}."
      },
      "tokenOfOwnerByIndex(address,uint256)": {
        "details": "See {IERC721Enumerable-tokenOfOwnerByIndex}."
      },
      "tokenURI(uint256)": {
        "details": "See {IERC721Metadata-tokenURI}."
      },
      "totalSupply()": {
        "details": "See {IERC721Enumerable-totalSupply}."
      },
      "transferFrom(address,address,uint256)": {
        "details": "See {IERC721-transferFrom}."
      }
    },
    "version": 1
  },
  "userdoc": {
    "kind": "user",
    "methods": {},
    "version": 1
  }
}