{
  "contractName": "FightersHelper",
  "abi": [
    {
      "inputs": [
        {
          "internalType": "address",
          "name": "fightersContract",
          "type": "address"
        }
      ],
      "stateMutability": "nonpayable",
      "type": "constructor"
    },
    {
      "inputs": [
        {
          "internalType": "string",
          "name": "className",
          "type": "string"
        },
        {
          "components": [
            {
              "internalType": "uint256",
              "name": "baseStrength",
              "type": "uint256"
            },
            {
              "internalType": "uint256",
              "name": "baseAgility",
              "type": "uint256"
            },
            {
              "internalType": "uint256",
              "name": "baseEnergy",
              "type": "uint256"
            },
            {
              "internalType": "uint256",
              "name": "baseVitality",
              "type": "uint256"
            },
            {
              "internalType": "uint256",
              "name": "hpPerVitalityPoint",
              "type": "uint256"
            },
            {
              "internalType": "uint256",
              "name": "manaPerEnergyPoint",
              "type": "uint256"
            },
            {
              "internalType": "uint256",
              "name": "hpIncreasePerLevel",
              "type": "uint256"
            },
            {
              "internalType": "uint256",
              "name": "manaIncreasePerLevel",
              "type": "uint256"
            },
            {
              "internalType": "uint256",
              "name": "statPointsPerLevel",
              "type": "uint256"
            },
            {
              "internalType": "uint256",
              "name": "attackSpeed",
              "type": "uint256"
            },
            {
              "internalType": "uint256",
              "name": "agilityPointsPerSpeed",
              "type": "uint256"
            },
            {
              "internalType": "uint256",
              "name": "isNpc",
              "type": "uint256"
            },
            {
              "internalType": "uint256",
              "name": "dropRarityLevel",
              "type": "uint256"
            }
          ],
          "internalType": "struct FightersClasses.FightersClassAttributes",
          "name": "atts",
          "type": "tuple"
        }
      ],
      "name": "updateFighterClass",
      "outputs": [],
      "stateMutability": "nonpayable",
      "type": "function"
    },
    {
      "inputs": [
        {
          "internalType": "string",
          "name": "npcName",
          "type": "string"
        },
        {
          "internalType": "string",
          "name": "className",
          "type": "string"
        },
        {
          "internalType": "address",
          "name": "ownerAddress",
          "type": "address"
        }
      ],
      "name": "createNPC",
      "outputs": [
        {
          "internalType": "uint256",
          "name": "",
          "type": "uint256"
        }
      ],
      "stateMutability": "nonpayable",
      "type": "function"
    },
    {
      "inputs": [
        {
          "internalType": "address",
          "name": "owner",
          "type": "address"
        },
        {
          "internalType": "string",
          "name": "name",
          "type": "string"
        },
        {
          "internalType": "string",
          "name": "fighterClass",
          "type": "string"
        }
      ],
      "name": "createFighter",
      "outputs": [
        {
          "internalType": "uint256",
          "name": "",
          "type": "uint256"
        }
      ],
      "stateMutability": "nonpayable",
      "type": "function"
    },
    {
      "inputs": [
        {
          "internalType": "uint256",
          "name": "tokenId",
          "type": "uint256"
        }
      ],
      "name": "getTokenAttributes",
      "outputs": [
        {
          "components": [
            {
              "internalType": "string",
              "name": "name",
              "type": "string"
            },
            {
              "internalType": "string",
              "name": "class",
              "type": "string"
            },
            {
              "internalType": "uint256",
              "name": "tokenId",
              "type": "uint256"
            },
            {
              "internalType": "uint256",
              "name": "birthBlock",
              "type": "uint256"
            },
            {
              "internalType": "uint256",
              "name": "strength",
              "type": "uint256"
            },
            {
              "internalType": "uint256",
              "name": "agility",
              "type": "uint256"
            },
            {
              "internalType": "uint256",
              "name": "energy",
              "type": "uint256"
            },
            {
              "internalType": "uint256",
              "name": "vitality",
              "type": "uint256"
            },
            {
              "internalType": "uint256",
              "name": "experience",
              "type": "uint256"
            },
            {
              "internalType": "uint256",
              "name": "hpPerVitalityPoint",
              "type": "uint256"
            },
            {
              "internalType": "uint256",
              "name": "manaPerEnergyPoint",
              "type": "uint256"
            },
            {
              "internalType": "uint256",
              "name": "hpIncreasePerLevel",
              "type": "uint256"
            },
            {
              "internalType": "uint256",
              "name": "manaIncreasePerLevel",
              "type": "uint256"
            },
            {
              "internalType": "uint256",
              "name": "statPointsPerLevel",
              "type": "uint256"
            },
            {
              "internalType": "uint256",
              "name": "attackSpeed",
              "type": "uint256"
            },
            {
              "internalType": "uint256",
              "name": "agilityPointsPerSpeed",
              "type": "uint256"
            },
            {
              "internalType": "uint256",
              "name": "isNpc",
              "type": "uint256"
            },
            {
              "internalType": "uint256",
              "name": "dropRarityLevel",
              "type": "uint256"
            }
          ],
          "internalType": "struct FightersAtts.Attributes",
          "name": "",
          "type": "tuple"
        }
      ],
      "stateMutability": "view",
      "type": "function",
      "constant": true
    },
    {
      "inputs": [
        {
          "internalType": "uint256",
          "name": "tokenId",
          "type": "uint256"
        }
      ],
      "name": "getLevel",
      "outputs": [
        {
          "internalType": "uint256",
          "name": "",
          "type": "uint256"
        }
      ],
      "stateMutability": "view",
      "type": "function",
      "constant": true
    },
    {
      "inputs": [
        {
          "internalType": "uint256",
          "name": "tokenId",
          "type": "uint256"
        },
        {
          "internalType": "uint256",
          "name": "addExp",
          "type": "uint256"
        }
      ],
      "name": "increaseExperience",
      "outputs": [],
      "stateMutability": "nonpayable",
      "type": "function"
    },
    {
      "inputs": [
        {
          "internalType": "uint256",
          "name": "tokenId",
          "type": "uint256"
        }
      ],
      "name": "getOwner",
      "outputs": [
        {
          "internalType": "address",
          "name": "",
          "type": "address"
        }
      ],
      "stateMutability": "view",
      "type": "function",
      "constant": true
    },
    {
      "inputs": [
        {
          "internalType": "uint256",
          "name": "tokenId",
          "type": "uint256"
        }
      ],
      "name": "getDropRarityLevel",
      "outputs": [
        {
          "internalType": "uint256",
          "name": "",
          "type": "uint256"
        }
      ],
      "stateMutability": "view",
      "type": "function",
      "constant": true
    },
    {
      "inputs": [
        {
          "internalType": "uint256",
          "name": "tokenId",
          "type": "uint256"
        }
      ],
      "name": "getFighterStats",
      "outputs": [
        {
          "components": [
            {
              "internalType": "uint256",
              "name": "tokenId",
              "type": "uint256"
            },
            {
              "internalType": "uint256",
              "name": "maxHealth",
              "type": "uint256"
            },
            {
              "internalType": "uint256",
              "name": "maxMana",
              "type": "uint256"
            },
            {
              "internalType": "uint256",
              "name": "level",
              "type": "uint256"
            },
            {
              "internalType": "uint256",
              "name": "exp",
              "type": "uint256"
            },
            {
              "internalType": "uint256",
              "name": "totalStatPoints",
              "type": "uint256"
            },
            {
              "internalType": "uint256",
              "name": "maxStatPoints",
              "type": "uint256"
            }
          ],
          "internalType": "struct FightersAtts.FighterStats",
          "name": "",
          "type": "tuple"
        }
      ],
      "stateMutability": "view",
      "type": "function",
      "constant": true
    },
    {
      "inputs": [
        {
          "internalType": "address",
          "name": "userAddress",
          "type": "address"
        }
      ],
      "name": "getUserFighters",
      "outputs": [
        {
          "internalType": "uint256[]",
          "name": "",
          "type": "uint256[]"
        }
      ],
      "stateMutability": "view",
      "type": "function",
      "constant": true
    }
  ],
  "bytecode": "0x60803461007457601f610e7838819003918201601f19168301916001600160401b038311848410176100795780849260209460405283398101031261007457516001600160a01b0381169081900361007457600080546001600160a01b031916919091179055604051610de890816100908239f35b600080fd5b634e487b7160e01b600052604160045260246000fdfe608080604052600436101561001357600080fd5b600090813560e01c9081631f4f5a231461092c575080631fa783cd1461082f578063243a7c7b146107c557806339f4fa5f146107705780634eecf3421461066e57806355af86c41461052c57806386481d4014610498578063c41a360a146103fd578063cd00ff62146102ab5763e9366bb01461008f57600080fd5b3461027a576101c036600319011261027a576001600160401b036004358181116102a757366023820112156102a757828160040135916100ce83610d31565b926100dc6040519485610d10565b80845236602482840101116102a7578060246020930183860137830101526101a090816023193601126102a3576040519182019283118284101761028d578392604052602435825260443560208301526064356040830152608435606083015260a435608083015260c43560a083015260e43560c08301526101043560e0830152610124356101008301526101443561012083015261016435610140830152610184356101608301526101a43561018083015260018060a01b0383541690813b156102885783916101d2836101809360405196879586948593630e9366bb60e41b85526101c060048601526101c4850190610c5e565b9180516024850152602081015160448501526040810151606485015260608101516084850152608081015160a485015260a081015160c485015260c081015160e485015260e081015161010485015261010081015161012485015261012081015161014485015261014081015161016485015261016081015161018485015201516101a483015203925af1801561027d5761026a5750f35b61027390610ce2565b61027a5780f35b80fd5b6040513d84823e3d90fd5b505050fd5b634e487b7160e01b600052604160045260246000fd5b8380fd5b8280fd5b503461027a576020908160031936011261027a576102c7610c83565b81546040516366807fb160e11b81526001600160a01b0392831660048201529291829184916024918391165afa9182156103f0578192610346575b50919060405192828493840190808552835180925280604086019401925b82811061032f57505050500390f35b835185528695509381019392810192600101610320565b9091503d8083833e6103588183610d10565b810183828203126102a75781516001600160401b03928382116103d8570181601f820112156102a35780519283116103dc578260051b906040519361039f87840186610d10565b845285808501928201019283116103d8579085809201905b8382106103c957505050509038610302565b815181529082019082016103b7565b8480fd5b634e487b7160e01b84526041600452602484fd5b50604051903d90823e3d90fd5b503461027a576020908160031936011261027a57805460405163620d1b0560e11b81526004803590820152916001600160a01b039184908490602490829086165afa9283156103f0578193610458575b505060405191168152f35b909192508381813d8311610491575b6104718183610d10565b8101031261048d575190828216820361027a575090388061044d565b5080fd5b503d610467565b503461027a576020908160031936011261027a578054604051630219207560e61b81526004803590820152908390829060249082906001600160a01b03165afa91821561052057916104ee575b50604051908152f35b90508181813d8311610519575b6105058183610d10565b810103126105145751386104e5565b600080fd5b503d6104fb565b604051903d90823e3d90fd5b503461027a5760208060031936011261048d578160c060405161054e81610cf5565b82815282848201528260408201528260608201528260808201528260a08201520152602460e060018060a01b038454166040519283809263156be1b160e21b825260043560048301525afa9283156105205780936105ee575b60e08360c0866040519281518452808201519084015260408101516040840152606081015160608401526080810151608084015260a081015160a0840152015160c0820152f35b90925060e0833d60e011610666575b8161060a60e09383610d10565b8101031261027a575060c060e092816040519161062683610cf5565b80518352848101518584015260408101516040840152606081015160608401526080810151608084015260a081015160a0840152015182820152926105a7565b3d91506105fd565b503461027a576003199060603683011261027a576001600160401b03916004358381116102a7576106a3903690600401610c99565b90936024359081116102a3576106bd903690600401610c99565b90946001600160a01b03604435818116959194908690036105145760209561071c889361070d97855416966040519b8c998a98899763277679a160e11b8952606060048a01526064890191610d4c565b92868403016024870152610d4c565b90604483015203925af1908115610520579061073e575b602090604051908152f35b506020813d8211610768575b8161075760209383610d10565b810103126105145760209051610733565b3d915061074a565b503461027a576020908160031936011261027a5780546040516339f4fa5f60e01b81526004803590820152908390829060249082906001600160a01b03165afa91821561052057916104ee5750604051908152f35b503461027a57604036600319011261027a57805481906001600160a01b0316803b1561082c57819060446040518094819363243a7c7b60e01b8352600435600484015260243560248401525af1801561027d57610820575080f35b61082990610ce2565b80f35b50fd5b503461027a5760031960603682011261048d5761084a610c83565b6001600160401b03916024358381116103d85761086b903690600401610c99565b9190938560443591821161027a5760209461088d6108da933690600401610c99565b93909460018060a01b039485855416966108cb6040519b8c9a8b998a98631fa783cd60e01b8a52166004890152606060248901526064880191610d4c565b92858403016044860152610d4c565b03925af190811561027d5782916108f7575b602082604051908152f35b90506020813d8211610924575b8161091160209383610d10565b8101031261048d576020915051386108ec565b3d9150610904565b90503461048d57602036600319011261048d57908061022083610950602495610cc6565b60608152606060208201528260408201528260608201528260808201528260a08201528260c08201528260e08201528261010082015282610120820152826101408201528261016082015282610180820152826101a0820152826101c0820152826101e08201528261020082015201528060018060a01b0381541660405193848092631f4f5a2360e01b825260043560048301525afa9182156103f0578192610ae6575b82604051809160208252610220610a32610a1c83516102406020870152610260860190610c5e565b6020840151858203601f19016040870152610c5e565b916040810151606085015260608101516080850152608081015160a085015260a081015160c085015260c081015160e085015260e08101516101008501526101008101516101208501526101208101516101408501526101408101516101608501526101608101516101808501526101808101516101a08501526101a08101516101c08501526101c08101516101e08501526101e08101516102008501526102008101518285015201516102408301520390f35b9091503d908183823e610af98282610d10565b60208183810103126102a7578051906001600160401b0382116102a35761024082820184830103126102a35760405192610b3284610cc6565b828201516001600160401b038111610c3757610b55908284019085850101610d6d565b845260208383010151946001600160401b03861161027a57506102209394610b839183019084840101610d6d565b60208501520160408181015190840152606080820151908401526080808201519084015260a0808201519084015260c0808201519084015260e08082015190840152610100808201519084015261012080820151908401526101408082015190840152610160808201519084015261018080820151908401526101a080820151908401526101c080820151908401526101e080820151908401526102008082015190840152015161022082015238806109f4565b8580fd5b60005b838110610c4e5750506000910152565b8181015183820152602001610c3e565b90602091610c7781518092818552858086019101610c3b565b601f01601f1916010190565b600435906001600160a01b038216820361051457565b9181601f84011215610514578235916001600160401b038311610514576020838186019501011161051457565b61024081019081106001600160401b0382111761028d57604052565b6001600160401b03811161028d57604052565b60e081019081106001600160401b0382111761028d57604052565b90601f801991011681019081106001600160401b0382111761028d57604052565b6001600160401b03811161028d57601f01601f191660200190565b908060209392818452848401376000828201840152601f01601f1916010190565b81601f82011215610514578051610d8381610d31565b92610d916040519485610d10565b8184526020828401011161051457610daf9160208085019101610c3b565b9056fea264697066735822122073268624c0cfaa16315d517b4d41c087a24c7e27c59aba9afc9e9fc8db34722f64736f6c63430008130033",
  "immutableReferences": {},
  "source": "// SPDX-License-Identifier: MIT\npragma solidity ^0.8.18;\nimport \"./Fighters.sol\";\nimport \"./FightersAtts.sol\";\nimport \"./FightersClasses.sol\";\n\ncontract FightersHelper is FightersAtts {\n    Fighters private _fighters;\n\n    constructor(address fightersContract) {\n        _fighters = Fighters(fightersContract);\n    }\n\n    function updateFighterClass(string memory className, FightersClasses.FightersClassAttributes memory atts) public {\n        _fighters.updateFighterClass(className, atts);\n    }\n\n    function createNPC(string calldata npcName, string calldata className, address ownerAddress) external returns (uint256) {\n        return _fighters.createNPC(npcName, className, ownerAddress);\n    }\n\n    function createFighter(address owner, string calldata name, string calldata fighterClass) external returns (uint256) {\n        return _fighters.createFighter(owner, name, fighterClass);\n    }\n\n    function getTokenAttributes(uint256 tokenId) public view returns (Attributes memory) {\n        return _fighters.getTokenAttributes(tokenId);\n    }\n\n    function getLevel(uint256 tokenId) public view returns (uint256) {\n        return _fighters.getLevel(tokenId);\n    }\n\n    function increaseExperience(uint256 tokenId, uint256 addExp) external {\n        _fighters.increaseExperience(tokenId, addExp);\n    }\n\n    function getOwner(uint256 tokenId) public view returns (address) {\n        return _fighters.getOwner(tokenId);\n    }\n\n    function getDropRarityLevel(uint256 tokenId) public view returns (uint256) {\n        return _fighters.getDropRarityLevel(tokenId);\n    }\n\n    function getFighterStats(uint256 tokenId) public view returns (FighterStats memory) {\n        return _fighters.getFighterStats(tokenId);\n    }\n\n    function getUserFighters(address userAddress) external view returns (uint256[] memory) {\n        return _fighters.getUserFighters(userAddress);\n    }\n}",
  "sourcePath": "/Users/max/Documents/prog/game-contracts/contracts/FightersHelper.sol",
  "compiler": {
    "name": "solc",
    "version": "0.8.19+commit.7dd6d404.Emscripten.clang"
  },
  "schemaVersion": "3.4.13",
  "updatedAt": "2023-09-03T04:36:07.066Z",
  "networkType": "ethereum",
  "devdoc": {
    "kind": "dev",
    "methods": {},
    "version": 1
  },
  "userdoc": {
    "kind": "user",
    "methods": {},
    "version": 1
  }
}