{
  "contractName": "FighterAttributes",
  "abi": [
    {
      "inputs": [],
      "stateMutability": "nonpayable",
      "type": "constructor"
    },
    {
      "anonymous": false,
      "inputs": [
        {
          "indexed": true,
          "internalType": "address",
          "name": "owner",
          "type": "address"
        },
        {
          "indexed": true,
          "internalType": "address",
          "name": "approved",
          "type": "address"
        },
        {
          "indexed": true,
          "internalType": "uint256",
          "name": "tokenId",
          "type": "uint256"
        }
      ],
      "name": "Approval",
      "type": "event"
    },
    {
      "anonymous": false,
      "inputs": [
        {
          "indexed": true,
          "internalType": "address",
          "name": "owner",
          "type": "address"
        },
        {
          "indexed": true,
          "internalType": "address",
          "name": "operator",
          "type": "address"
        },
        {
          "indexed": false,
          "internalType": "bool",
          "name": "approved",
          "type": "bool"
        }
      ],
      "name": "ApprovalForAll",
      "type": "event"
    },
    {
      "anonymous": false,
      "inputs": [
        {
          "indexed": true,
          "internalType": "address",
          "name": "owner",
          "type": "address"
        },
        {
          "indexed": false,
          "internalType": "uint256",
          "name": "tokenId",
          "type": "uint256"
        },
        {
          "indexed": false,
          "internalType": "uint8",
          "name": "class",
          "type": "uint8"
        }
      ],
      "name": "FighterCreated",
      "type": "event"
    },
    {
      "anonymous": false,
      "inputs": [
        {
          "indexed": false,
          "internalType": "uint256",
          "name": "tokenId",
          "type": "uint256"
        },
        {
          "indexed": false,
          "internalType": "uint256",
          "name": "itemId",
          "type": "uint256"
        },
        {
          "indexed": false,
          "internalType": "uint256",
          "name": "slot",
          "type": "uint256"
        }
      ],
      "name": "ItemEquiped",
      "type": "event"
    },
    {
      "anonymous": false,
      "inputs": [
        {
          "indexed": true,
          "internalType": "address",
          "name": "creator",
          "type": "address"
        },
        {
          "indexed": false,
          "internalType": "uint256",
          "name": "tokenId",
          "type": "uint256"
        },
        {
          "indexed": false,
          "internalType": "uint8",
          "name": "class",
          "type": "uint8"
        }
      ],
      "name": "NPCCreated",
      "type": "event"
    },
    {
      "anonymous": false,
      "inputs": [
        {
          "indexed": false,
          "internalType": "address",
          "name": "battleContract",
          "type": "address"
        },
        {
          "indexed": false,
          "internalType": "bool",
          "name": "isActive",
          "type": "bool"
        }
      ],
      "name": "SetBattleContract",
      "type": "event"
    },
    {
      "anonymous": false,
      "inputs": [
        {
          "indexed": false,
          "internalType": "address",
          "name": "",
          "type": "address"
        },
        {
          "indexed": false,
          "internalType": "bool",
          "name": "",
          "type": "bool"
        }
      ],
      "name": "SetGM",
      "type": "event"
    },
    {
      "anonymous": false,
      "inputs": [
        {
          "indexed": true,
          "internalType": "address",
          "name": "previousOwner",
          "type": "address"
        },
        {
          "indexed": true,
          "internalType": "address",
          "name": "newOwner",
          "type": "address"
        }
      ],
      "name": "SetOwner",
      "type": "event"
    },
    {
      "anonymous": false,
      "inputs": [
        {
          "indexed": false,
          "internalType": "uint256",
          "name": "tokenId",
          "type": "uint256"
        },
        {
          "indexed": false,
          "internalType": "uint256",
          "name": "strength",
          "type": "uint256"
        },
        {
          "indexed": false,
          "internalType": "uint256",
          "name": "agility",
          "type": "uint256"
        },
        {
          "indexed": false,
          "internalType": "uint256",
          "name": "energy",
          "type": "uint256"
        },
        {
          "indexed": false,
          "internalType": "uint256",
          "name": "vitality",
          "type": "uint256"
        }
      ],
      "name": "StatsUpdated",
      "type": "event"
    },
    {
      "anonymous": false,
      "inputs": [
        {
          "indexed": true,
          "internalType": "address",
          "name": "from",
          "type": "address"
        },
        {
          "indexed": true,
          "internalType": "address",
          "name": "to",
          "type": "address"
        },
        {
          "indexed": true,
          "internalType": "uint256",
          "name": "tokenId",
          "type": "uint256"
        }
      ],
      "name": "Transfer",
      "type": "event"
    },
    {
      "anonymous": false,
      "inputs": [
        {
          "indexed": false,
          "internalType": "uint256",
          "name": "",
          "type": "uint256"
        }
      ],
      "name": "updateAgilityPerDefence",
      "type": "event"
    },
    {
      "anonymous": false,
      "inputs": [
        {
          "indexed": false,
          "internalType": "uint256",
          "name": "",
          "type": "uint256"
        }
      ],
      "name": "updateEnergyPerDamage",
      "type": "event"
    },
    {
      "anonymous": false,
      "inputs": [
        {
          "indexed": false,
          "internalType": "uint256",
          "name": "",
          "type": "uint256"
        }
      ],
      "name": "updateExperienceDivider",
      "type": "event"
    },
    {
      "anonymous": false,
      "inputs": [
        {
          "indexed": false,
          "internalType": "uint256",
          "name": "",
          "type": "uint256"
        }
      ],
      "name": "updateHealthRegenerationDivider",
      "type": "event"
    },
    {
      "anonymous": false,
      "inputs": [
        {
          "indexed": false,
          "internalType": "uint256",
          "name": "",
          "type": "uint256"
        }
      ],
      "name": "updateManaRegenerationDivider",
      "type": "event"
    },
    {
      "anonymous": false,
      "inputs": [
        {
          "indexed": false,
          "internalType": "uint256",
          "name": "",
          "type": "uint256"
        }
      ],
      "name": "updateMaxExperience",
      "type": "event"
    },
    {
      "anonymous": false,
      "inputs": [
        {
          "indexed": false,
          "internalType": "uint256",
          "name": "",
          "type": "uint256"
        }
      ],
      "name": "updateStrengthPerDamage",
      "type": "event"
    },
    {
      "inputs": [
        {
          "internalType": "address",
          "name": "to",
          "type": "address"
        },
        {
          "internalType": "uint256",
          "name": "tokenId",
          "type": "uint256"
        }
      ],
      "name": "approve",
      "outputs": [],
      "stateMutability": "nonpayable",
      "type": "function"
    },
    {
      "inputs": [
        {
          "internalType": "address",
          "name": "owner",
          "type": "address"
        }
      ],
      "name": "balanceOf",
      "outputs": [
        {
          "internalType": "uint256",
          "name": "",
          "type": "uint256"
        }
      ],
      "stateMutability": "view",
      "type": "function"
    },
    {
      "inputs": [
        {
          "internalType": "uint256",
          "name": "tokenId",
          "type": "uint256"
        }
      ],
      "name": "getApproved",
      "outputs": [
        {
          "internalType": "address",
          "name": "",
          "type": "address"
        }
      ],
      "stateMutability": "view",
      "type": "function"
    },
    {
      "inputs": [
        {
          "internalType": "address",
          "name": "owner",
          "type": "address"
        },
        {
          "internalType": "address",
          "name": "operator",
          "type": "address"
        }
      ],
      "name": "isApprovedForAll",
      "outputs": [
        {
          "internalType": "bool",
          "name": "",
          "type": "bool"
        }
      ],
      "stateMutability": "view",
      "type": "function"
    },
    {
      "inputs": [
        {
          "internalType": "address",
          "name": "",
          "type": "address"
        }
      ],
      "name": "isGM",
      "outputs": [
        {
          "internalType": "bool",
          "name": "",
          "type": "bool"
        }
      ],
      "stateMutability": "view",
      "type": "function"
    },
    {
      "inputs": [],
      "name": "name",
      "outputs": [
        {
          "internalType": "string",
          "name": "",
          "type": "string"
        }
      ],
      "stateMutability": "view",
      "type": "function"
    },
    {
      "inputs": [],
      "name": "owner",
      "outputs": [
        {
          "internalType": "address",
          "name": "",
          "type": "address"
        }
      ],
      "stateMutability": "view",
      "type": "function"
    },
    {
      "inputs": [
        {
          "internalType": "uint256",
          "name": "tokenId",
          "type": "uint256"
        }
      ],
      "name": "ownerOf",
      "outputs": [
        {
          "internalType": "address",
          "name": "",
          "type": "address"
        }
      ],
      "stateMutability": "view",
      "type": "function"
    },
    {
      "inputs": [
        {
          "internalType": "address",
          "name": "from",
          "type": "address"
        },
        {
          "internalType": "address",
          "name": "to",
          "type": "address"
        },
        {
          "internalType": "uint256",
          "name": "tokenId",
          "type": "uint256"
        }
      ],
      "name": "safeTransferFrom",
      "outputs": [],
      "stateMutability": "nonpayable",
      "type": "function"
    },
    {
      "inputs": [
        {
          "internalType": "address",
          "name": "from",
          "type": "address"
        },
        {
          "internalType": "address",
          "name": "to",
          "type": "address"
        },
        {
          "internalType": "uint256",
          "name": "tokenId",
          "type": "uint256"
        },
        {
          "internalType": "bytes",
          "name": "data",
          "type": "bytes"
        }
      ],
      "name": "safeTransferFrom",
      "outputs": [],
      "stateMutability": "nonpayable",
      "type": "function"
    },
    {
      "inputs": [
        {
          "internalType": "address",
          "name": "operator",
          "type": "address"
        },
        {
          "internalType": "bool",
          "name": "approved",
          "type": "bool"
        }
      ],
      "name": "setApprovalForAll",
      "outputs": [],
      "stateMutability": "nonpayable",
      "type": "function"
    },
    {
      "inputs": [
        {
          "internalType": "bytes4",
          "name": "interfaceId",
          "type": "bytes4"
        }
      ],
      "name": "supportsInterface",
      "outputs": [
        {
          "internalType": "bool",
          "name": "",
          "type": "bool"
        }
      ],
      "stateMutability": "view",
      "type": "function"
    },
    {
      "inputs": [],
      "name": "symbol",
      "outputs": [
        {
          "internalType": "string",
          "name": "",
          "type": "string"
        }
      ],
      "stateMutability": "view",
      "type": "function"
    },
    {
      "inputs": [
        {
          "internalType": "uint256",
          "name": "tokenId",
          "type": "uint256"
        }
      ],
      "name": "tokenURI",
      "outputs": [
        {
          "internalType": "string",
          "name": "",
          "type": "string"
        }
      ],
      "stateMutability": "view",
      "type": "function"
    },
    {
      "inputs": [
        {
          "internalType": "address",
          "name": "from",
          "type": "address"
        },
        {
          "internalType": "address",
          "name": "to",
          "type": "address"
        },
        {
          "internalType": "uint256",
          "name": "tokenId",
          "type": "uint256"
        }
      ],
      "name": "transferFrom",
      "outputs": [],
      "stateMutability": "nonpayable",
      "type": "function"
    },
    {
      "inputs": [
        {
          "internalType": "uint256",
          "name": "tokenId",
          "type": "uint256"
        },
        {
          "internalType": "uint256",
          "name": "itemId",
          "type": "uint256"
        },
        {
          "internalType": "uint256",
          "name": "slot",
          "type": "uint256"
        }
      ],
      "name": "equipItem",
      "outputs": [],
      "stateMutability": "nonpayable",
      "type": "function"
    },
    {
      "inputs": [
        {
          "internalType": "uint256",
          "name": "tokenId",
          "type": "uint256"
        },
        {
          "internalType": "uint256",
          "name": "strength",
          "type": "uint256"
        },
        {
          "internalType": "uint256",
          "name": "agility",
          "type": "uint256"
        },
        {
          "internalType": "uint256",
          "name": "energy",
          "type": "uint256"
        },
        {
          "internalType": "uint256",
          "name": "vitality",
          "type": "uint256"
        }
      ],
      "name": "updateFighterStats",
      "outputs": [],
      "stateMutability": "nonpayable",
      "type": "function"
    },
    {
      "inputs": [
        {
          "internalType": "uint256",
          "name": "tokenId",
          "type": "uint256"
        }
      ],
      "name": "getMaxStatPoints",
      "outputs": [
        {
          "internalType": "uint256",
          "name": "",
          "type": "uint256"
        }
      ],
      "stateMutability": "view",
      "type": "function"
    },
    {
      "inputs": [
        {
          "internalType": "uint256",
          "name": "tokenId",
          "type": "uint256"
        }
      ],
      "name": "getTotalUsedStatPoints",
      "outputs": [
        {
          "internalType": "uint256",
          "name": "",
          "type": "uint256"
        }
      ],
      "stateMutability": "view",
      "type": "function"
    },
    {
      "inputs": [
        {
          "internalType": "enum FighterAttributes.FighterClass",
          "name": "fighterClass",
          "type": "uint8"
        }
      ],
      "name": "createFighter",
      "outputs": [
        {
          "internalType": "uint256",
          "name": "",
          "type": "uint256"
        }
      ],
      "stateMutability": "nonpayable",
      "type": "function"
    },
    {
      "inputs": [
        {
          "internalType": "uint256",
          "name": "strength",
          "type": "uint256"
        },
        {
          "internalType": "uint256",
          "name": "agility",
          "type": "uint256"
        },
        {
          "internalType": "uint256",
          "name": "energy",
          "type": "uint256"
        },
        {
          "internalType": "uint256",
          "name": "vitality",
          "type": "uint256"
        },
        {
          "internalType": "uint256",
          "name": "attackSpeed",
          "type": "uint256"
        },
        {
          "internalType": "uint256",
          "name": "level",
          "type": "uint256"
        }
      ],
      "name": "createNPC",
      "outputs": [
        {
          "internalType": "uint256",
          "name": "",
          "type": "uint256"
        }
      ],
      "stateMutability": "nonpayable",
      "type": "function"
    },
    {
      "inputs": [
        {
          "internalType": "uint256",
          "name": "tokenId",
          "type": "uint256"
        }
      ],
      "name": "getTokenAttributes",
      "outputs": [
        {
          "components": [
            {
              "internalType": "uint256",
              "name": "tokenId",
              "type": "uint256"
            },
            {
              "internalType": "uint256",
              "name": "strength",
              "type": "uint256"
            },
            {
              "internalType": "uint256",
              "name": "agility",
              "type": "uint256"
            },
            {
              "internalType": "uint256",
              "name": "energy",
              "type": "uint256"
            },
            {
              "internalType": "uint256",
              "name": "vitality",
              "type": "uint256"
            },
            {
              "internalType": "uint256",
              "name": "experience",
              "type": "uint256"
            },
            {
              "internalType": "uint256",
              "name": "healthAfterLastDmg",
              "type": "uint256"
            },
            {
              "internalType": "uint256",
              "name": "lastDmgBlockNumber",
              "type": "uint256"
            },
            {
              "internalType": "uint256",
              "name": "class",
              "type": "uint256"
            },
            {
              "internalType": "uint256",
              "name": "healthRegenerationBonus",
              "type": "uint256"
            },
            {
              "internalType": "uint256",
              "name": "manaAfterLastUse",
              "type": "uint256"
            },
            {
              "internalType": "uint256",
              "name": "lastManaUseBlock",
              "type": "uint256"
            },
            {
              "internalType": "uint256",
              "name": "manaRegenerationBonus",
              "type": "uint256"
            },
            {
              "internalType": "uint256",
              "name": "hpPerVitalityPoint",
              "type": "uint256"
            },
            {
              "internalType": "uint256",
              "name": "manaPerEnergyPoint",
              "type": "uint256"
            },
            {
              "internalType": "uint256",
              "name": "hpIncreasePerLevel",
              "type": "uint256"
            },
            {
              "internalType": "uint256",
              "name": "manaIncreasePerLevel",
              "type": "uint256"
            },
            {
              "internalType": "uint256",
              "name": "statPointsPerLevel",
              "type": "uint256"
            },
            {
              "internalType": "uint256",
              "name": "attackSpeed",
              "type": "uint256"
            },
            {
              "internalType": "uint256",
              "name": "agilityPointsPerSpeed",
              "type": "uint256"
            },
            {
              "internalType": "uint256",
              "name": "isNpc",
              "type": "uint256"
            },
            {
              "internalType": "uint256",
              "name": "helmSlot",
              "type": "uint256"
            },
            {
              "internalType": "uint256",
              "name": "armourSlot",
              "type": "uint256"
            },
            {
              "internalType": "uint256",
              "name": "pantsSlot",
              "type": "uint256"
            },
            {
              "internalType": "uint256",
              "name": "glovesSlot",
              "type": "uint256"
            },
            {
              "internalType": "uint256",
              "name": "bootsSlot",
              "type": "uint256"
            },
            {
              "internalType": "uint256",
              "name": "leftHandSlot",
              "type": "uint256"
            },
            {
              "internalType": "uint256",
              "name": "rightHandSlot",
              "type": "uint256"
            },
            {
              "internalType": "uint256",
              "name": "leftRingSlot",
              "type": "uint256"
            },
            {
              "internalType": "uint256",
              "name": "rightRingSlot",
              "type": "uint256"
            },
            {
              "internalType": "uint256",
              "name": "pendSlot",
              "type": "uint256"
            },
            {
              "internalType": "uint256",
              "name": "wingsSlot",
              "type": "uint256"
            }
          ],
          "internalType": "struct FighterAttributes.Attributes",
          "name": "",
          "type": "tuple"
        }
      ],
      "stateMutability": "view",
      "type": "function"
    },
    {
      "inputs": [
        {
          "internalType": "uint256",
          "name": "tokenId",
          "type": "uint256"
        },
        {
          "internalType": "uint256",
          "name": "addExp",
          "type": "uint256"
        }
      ],
      "name": "increaseExperience",
      "outputs": [],
      "stateMutability": "nonpayable",
      "type": "function"
    },
    {
      "inputs": [
        {
          "internalType": "uint256",
          "name": "tokenId",
          "type": "uint256"
        },
        {
          "internalType": "uint256",
          "name": "damage",
          "type": "uint256"
        }
      ],
      "name": "decreaseHealth",
      "outputs": [],
      "stateMutability": "nonpayable",
      "type": "function"
    },
    {
      "inputs": [
        {
          "internalType": "uint256",
          "name": "tokenId",
          "type": "uint256"
        },
        {
          "internalType": "uint256",
          "name": "manaUsed",
          "type": "uint256"
        }
      ],
      "name": "decreaseMana",
      "outputs": [],
      "stateMutability": "nonpayable",
      "type": "function"
    },
    {
      "inputs": [
        {
          "internalType": "uint256",
          "name": "tokenId",
          "type": "uint256"
        }
      ],
      "name": "getHealth",
      "outputs": [
        {
          "internalType": "uint256",
          "name": "",
          "type": "uint256"
        }
      ],
      "stateMutability": "view",
      "type": "function"
    },
    {
      "inputs": [
        {
          "internalType": "uint256",
          "name": "tokenId",
          "type": "uint256"
        }
      ],
      "name": "getHealthRegenerationRate",
      "outputs": [
        {
          "internalType": "uint256",
          "name": "",
          "type": "uint256"
        }
      ],
      "stateMutability": "view",
      "type": "function"
    },
    {
      "inputs": [
        {
          "internalType": "uint256",
          "name": "tokenId",
          "type": "uint256"
        }
      ],
      "name": "getMaxHealth",
      "outputs": [
        {
          "internalType": "uint256",
          "name": "",
          "type": "uint256"
        }
      ],
      "stateMutability": "view",
      "type": "function"
    },
    {
      "inputs": [
        {
          "internalType": "uint256",
          "name": "tokenId",
          "type": "uint256"
        }
      ],
      "name": "getMaxMana",
      "outputs": [
        {
          "internalType": "uint256",
          "name": "",
          "type": "uint256"
        }
      ],
      "stateMutability": "view",
      "type": "function"
    },
    {
      "inputs": [
        {
          "internalType": "uint256",
          "name": "tokenId",
          "type": "uint256"
        }
      ],
      "name": "getFighterStats",
      "outputs": [
        {
          "components": [
            {
              "internalType": "uint256",
              "name": "tokenId",
              "type": "uint256"
            },
            {
              "internalType": "uint256",
              "name": "currentHealth",
              "type": "uint256"
            },
            {
              "internalType": "uint256",
              "name": "maxHealth",
              "type": "uint256"
            },
            {
              "internalType": "uint256",
              "name": "currentMana",
              "type": "uint256"
            },
            {
              "internalType": "uint256",
              "name": "maxMana",
              "type": "uint256"
            },
            {
              "internalType": "uint256",
              "name": "level",
              "type": "uint256"
            },
            {
              "internalType": "uint256",
              "name": "exp",
              "type": "uint256"
            },
            {
              "internalType": "uint256",
              "name": "damage",
              "type": "uint256"
            },
            {
              "internalType": "uint256",
              "name": "defence",
              "type": "uint256"
            },
            {
              "internalType": "uint256",
              "name": "totalStatPoints",
              "type": "uint256"
            },
            {
              "internalType": "uint256",
              "name": "maxStatPoints",
              "type": "uint256"
            }
          ],
          "internalType": "struct FighterAttributes.FighterStats",
          "name": "",
          "type": "tuple"
        }
      ],
      "stateMutability": "view",
      "type": "function"
    },
    {
      "inputs": [
        {
          "internalType": "uint256",
          "name": "tokenId",
          "type": "uint256"
        }
      ],
      "name": "getMana",
      "outputs": [
        {
          "internalType": "uint256",
          "name": "",
          "type": "uint256"
        }
      ],
      "stateMutability": "view",
      "type": "function"
    },
    {
      "inputs": [
        {
          "internalType": "uint256",
          "name": "tokenId",
          "type": "uint256"
        }
      ],
      "name": "getExperience",
      "outputs": [
        {
          "internalType": "uint256",
          "name": "",
          "type": "uint256"
        }
      ],
      "stateMutability": "view",
      "type": "function"
    },
    {
      "inputs": [
        {
          "internalType": "uint256",
          "name": "tokenId",
          "type": "uint256"
        }
      ],
      "name": "getManaRegenerationRate",
      "outputs": [
        {
          "internalType": "uint256",
          "name": "",
          "type": "uint256"
        }
      ],
      "stateMutability": "view",
      "type": "function"
    },
    {
      "inputs": [
        {
          "internalType": "uint256",
          "name": "tokenId",
          "type": "uint256"
        }
      ],
      "name": "getLevel",
      "outputs": [
        {
          "internalType": "uint256",
          "name": "",
          "type": "uint256"
        }
      ],
      "stateMutability": "view",
      "type": "function"
    },
    {
      "inputs": [
        {
          "internalType": "uint256",
          "name": "level",
          "type": "uint256"
        }
      ],
      "name": "getExpFromLevel",
      "outputs": [
        {
          "internalType": "uint256",
          "name": "",
          "type": "uint256"
        }
      ],
      "stateMutability": "view",
      "type": "function"
    },
    {
      "inputs": [
        {
          "internalType": "uint256",
          "name": "tokenId",
          "type": "uint256"
        }
      ],
      "name": "getDefence",
      "outputs": [
        {
          "internalType": "uint256",
          "name": "",
          "type": "uint256"
        }
      ],
      "stateMutability": "view",
      "type": "function"
    },
    {
      "inputs": [
        {
          "internalType": "uint256",
          "name": "tokenId",
          "type": "uint256"
        }
      ],
      "name": "getDamage",
      "outputs": [
        {
          "internalType": "uint256",
          "name": "",
          "type": "uint256"
        }
      ],
      "stateMutability": "view",
      "type": "function"
    },
    {
      "inputs": [
        {
          "internalType": "address",
          "name": "newOwner",
          "type": "address"
        }
      ],
      "name": "setOwner",
      "outputs": [],
      "stateMutability": "nonpayable",
      "type": "function"
    },
    {
      "inputs": [
        {
          "internalType": "address",
          "name": "gmAddress",
          "type": "address"
        },
        {
          "internalType": "bool",
          "name": "val",
          "type": "bool"
        }
      ],
      "name": "setGM",
      "outputs": [],
      "stateMutability": "nonpayable",
      "type": "function"
    },
    {
      "inputs": [
        {
          "internalType": "address",
          "name": "contr",
          "type": "address"
        },
        {
          "internalType": "bool",
          "name": "isActive",
          "type": "bool"
        }
      ],
      "name": "setBattleContract",
      "outputs": [],
      "stateMutability": "nonpayable",
      "type": "function"
    },
    {
      "inputs": [
        {
          "internalType": "uint256",
          "name": "val",
          "type": "uint256"
        }
      ],
      "name": "setHealthRegenerationDivider",
      "outputs": [],
      "stateMutability": "nonpayable",
      "type": "function"
    },
    {
      "inputs": [
        {
          "internalType": "uint256",
          "name": "val",
          "type": "uint256"
        }
      ],
      "name": "setManaRegenerationDivider",
      "outputs": [],
      "stateMutability": "nonpayable",
      "type": "function"
    },
    {
      "inputs": [
        {
          "internalType": "uint256",
          "name": "val",
          "type": "uint256"
        }
      ],
      "name": "setAgilityPerDefence",
      "outputs": [],
      "stateMutability": "nonpayable",
      "type": "function"
    },
    {
      "inputs": [
        {
          "internalType": "uint256",
          "name": "val",
          "type": "uint256"
        }
      ],
      "name": "setStrengthPerDamage",
      "outputs": [],
      "stateMutability": "nonpayable",
      "type": "function"
    },
    {
      "inputs": [
        {
          "internalType": "uint256",
          "name": "val",
          "type": "uint256"
        }
      ],
      "name": "setEnergyPerDamage",
      "outputs": [],
      "stateMutability": "nonpayable",
      "type": "function"
    },
    {
      "inputs": [
        {
          "internalType": "uint256",
          "name": "val",
          "type": "uint256"
        }
      ],
      "name": "setMaxExperience",
      "outputs": [],
      "stateMutability": "nonpayable",
      "type": "function"
    },
    {
      "inputs": [
        {
          "internalType": "uint256",
          "name": "val",
          "type": "uint256"
        }
      ],
      "name": "setExperienceDivider",
      "outputs": [],
      "stateMutability": "nonpayable",
      "type": "function"
    },
    {
      "inputs": [
        {
          "internalType": "uint256",
          "name": "a",
          "type": "uint256"
        },
        {
          "internalType": "uint256",
          "name": "b",
          "type": "uint256"
        }
      ],
      "name": "safeMul",
      "outputs": [
        {
          "internalType": "uint256",
          "name": "",
          "type": "uint256"
        }
      ],
      "stateMutability": "view",
      "type": "function"
    },
    {
      "inputs": [
        {
          "internalType": "uint256",
          "name": "a",
          "type": "uint256"
        },
        {
          "internalType": "uint256",
          "name": "b",
          "type": "uint256"
        }
      ],
      "name": "safeSub",
      "outputs": [
        {
          "internalType": "uint256",
          "name": "",
          "type": "uint256"
        }
      ],
      "stateMutability": "view",
      "type": "function"
    },
    {
      "inputs": [
        {
          "internalType": "uint256",
          "name": "a",
          "type": "uint256"
        },
        {
          "internalType": "uint256",
          "name": "b",
          "type": "uint256"
        }
      ],
      "name": "safeAdd",
      "outputs": [
        {
          "internalType": "uint256",
          "name": "",
          "type": "uint256"
        }
      ],
      "stateMutability": "view",
      "type": "function"
    }
  ],
  "bytecode": "0x60806040526008600c556008600d556004600e556008600f55600860105563115d88a460115560056012553480156200003757600080fd5b5060405180604001604052806007815260200166436f6d6261747360c81b815250604051806040016040528060078152602001662334b3b43a32b960c91b815250816000908162000089919062000b08565b50600162000098828262000b08565b50505060405180610400016040528060008152602001602a815260200160158152602001600581526020016014815260200160008152602001600081526020016000815260200160018152602001600081526020016000815260200160008152602001600081526020016005815260200160058152602001600581526020016001815260200160058152602001601b8152602001600781526020016000815260200160008152602001600081526020016000815260200160008152602001600081526020016000815260200160008152602001600081526020016000815260200160008152602001600081525060066000600160048111156200019f576200019f62000bd4565b8152602001908152602001600020600082015181600001556020820151816001015560408201518160020155606082015181600301556080820151816004015560a0820151816005015560c0820151816006015560e082015181600701556101008201518160080155610120820151816009015561014082015181600a015561016082015181600b015561018082015181600c01556101a082015181600d01556101c082015181600e01556101e082015181600f0155610200820151816010015561022082015181601101556102408201518160120155610260820151816013015561028082015181601401556102a082015181601501556102c082015181601601556102e082015181601701556103008201518160180155610320820151816019015561034082015181601a015561036082015181601b015561038082015181601c01556103a082015181601d01556103c082015181601e01556103e082015181601f015590505060405180610400016040528060008152602001600f8152602001601481526020016032815260200160148152602001600081526020016000815260200160008152602001600281526020016000815260200160008152602001600081526020016000815260200160038152602001600a815260200160038152602001600581526020016005815260200160108152602001600581526020016000815260200160008152602001600081526020016000815260200160008152602001600081526020016000815260200160008152602001600081526020016000815260200160008152602001600081525060066000600260048111156200040c576200040c62000bd4565b8152602001908152602001600020600082015181600001556020820151816001015560408201518160020155606082015181600301556080820151816004015560a0820151816005015560c0820151816006015560e082015181600701556101008201518160080155610120820151816009015561014082015181600a015561016082015181600b015561018082015181600c01556101a082015181600d01556101c082015181600e01556101e082015181600f0155610200820151816010015561022082015181601101556102408201518160120155610260820151816013015561028082015181601401556102a082015181601501556102c082015181601601556102e082015181601701556103008201518160180155610320820151816019015561034082015181601a015561036082015181601b015561038082015181601c01556103a082015181601d01556103c082015181601e01556103e082015181601f0155905050604051806104000160405280600081526020016014815260200160198152602001600f81526020016014815260200160008152602001600081526020016000815260200160038152602001600081526020016000815260200160008152602001600081526020016003815260200160058152602001600381526020016004815260200160058152602001600c81526020016005815260200160008152602001600081526020016000815260200160008152602001600081526020016000815260200160008152602001600081526020016000815260200160008152602001600081526020016000815250600660006003600481111562000679576200067962000bd4565b8152602001908152602001600020600082015181600001556020820151816001015560408201518160020155606082015181600301556080820151816004015560a0820151816005015560c0820151816006015560e082015181600701556101008201518160080155610120820151816009015561014082015181600a015561016082015181600b015561018082015181600c01556101a082015181600d01556101c082015181600e01556101e082015181600f0155610200820151816010015561022082015181601101556102408201518160120155610260820151816013015561028082015181601401556102a082015181601501556102c082015181601601556102e082015181601701556103008201518160180155610320820151816019015561034082015181601a015561036082015181601b015561038082015181601c01556103a082015181601d01556103c082015181601e01556103e082015181601f015590505060405180610400016040528060008152602001601c8152602001600e815260200160148152602001601481526020016000815260200160008152602001600081526020016004815260200160008152602001600081526020016000815260200160008152602001600481526020016007815260200160068152602001600281526020016007815260200160178152602001600781526020016000815260200160008152602001600081526020016000815260200160008152602001600081526020016000815260200160008152602001600081526020016000815260200160008152602001600081525060066000600480811115620008e557620008e562000bd4565b81526020808201929092526040908101600020835181559183015160018301558201516002820155606082015160038201556080820151600482015560a0820151600582015560c0820151600682015560e082015160078201556101008201516008820155610120820151600980830191909155610140830151600a830155610160830151600b830155610180830151600c8301556101a0830151600d8301556101c0830151600e8301556101e0830151600f830155610200830151601083015561022083015160118301556102408301516012830155610260830151601383015561028083015160148301556102a083015160158301556102c083015160168301556102e0830151601783015561030083015160188301556103208301516019830155610340830151601a830155610360830151601b830155610380830151601c8301556103a0830151601d8301556103c0830151601e8301556103e090920151601f9091015580546001600160a01b0319163317905562000bea565b634e487b7160e01b600052604160045260246000fd5b600181811c9082168062000a8e57607f821691505b60208210810362000aaf57634e487b7160e01b600052602260045260246000fd5b50919050565b601f82111562000b0357600081815260208120601f850160051c8101602086101562000ade5750805b601f850160051c820191505b8181101562000aff5782815560010162000aea565b5050505b505050565b81516001600160401b0381111562000b245762000b2462000a63565b62000b3c8162000b35845462000a79565b8462000ab5565b602080601f83116001811462000b74576000841562000b5b5750858301515b600019600386901b1c1916600185901b17855562000aff565b600085815260208120601f198616915b8281101562000ba55788860151825594840194600190910190840162000b84565b508582101562000bc45787850151600019600388901b60f8161c191681555b5050505050600190811b01905550565b634e487b7160e01b600052602160045260246000fd5b6136f38062000bfa6000396000f3fe608060405234801561001057600080fd5b50600436106102d65760003560e01c8063745bd45311610182578063b88d4fde116100e9578063d20a53c8116100a2578063e6cb90131161007c578063e6cb901314610872578063e985e9c514610885578063f04968be146108c1578063fd9513bd146108d457600080fd5b8063d20a53c814610839578063d5a93d681461084c578063d87e90201461085f57600080fd5b8063b88d4fde146107c7578063c77daef6146107da578063c87b56dd146107ed578063cb08304114610800578063d05c78da14610813578063d1e5ef571461082657600080fd5b8063a22cb4651161013b578063a22cb46514610755578063a293d1e814610768578063a6438db21461077b578063a7518eb11461078e578063b1ca2106146107a1578063b7379531146107b457600080fd5b8063745bd453146106ee5780637cd7f3bb1461070157806386481d40146107145780638da5cb5b146107275780638dc142471461073a57806395d89b411461074d57600080fd5b80633a0995e9116102415780636352211e116101fa5780636ae15f76116101d45780636ae15f76146106a25780636d9cbb4e146106b557806370a08231146106c8578063744e94aa146106db57600080fd5b80636352211e146106695780636599273f1461067c578063688f30ac1461068f57600080fd5b80633a0995e9146105625780633fc70f2c1461058557806342842e0e1461059857806343c6916b146105ab57806351585b49146105be57806355af86c4146105d157600080fd5b806317a405761161029357806317a405761461037e5780631f4f5a231461039157806320b430d51461050857806323b872dd14610529578063243a7c7b1461053c578063360deb761461054f57600080fd5b806301ffc9a7146102db57806306fdde0314610303578063081812fc14610318578063095ea7b3146103435780630b1f15cd1461035857806313af40351461036b575b600080fd5b6102ee6102e93660046130a4565b6108e7565b60405190151581526020015b60405180910390f35b61030b610939565b6040516102fa9190613111565b61032b610326366004613124565b6109cb565b6040516001600160a01b0390911681526020016102fa565b610356610351366004613154565b6109f2565b005b610356610366366004613124565b610b0c565b61035661037936600461317e565b610b72565b61035661038c366004613124565b610bf8565b6103a461039f366004613124565b610c57565b6040516102fa9190815181526020808301519082015260408083015190820152606080830151908201526080808301519082015260a0808301519082015260c0808301519082015260e08083015190820152610100808301519082015261012080830151908201526101408083015190820152610160808301519082015261018080830151908201526101a080830151908201526101c080830151908201526101e08083015190820152610200808301519082015261022080830151908201526102408083015190820152610260808301519082015261028080830151908201526102a080830151908201526102c080830151908201526102e08083015190820152610300808301519082015261032080830151908201526103408083015190820152610360808301519082015261038080830151908201526103a080830151908201526103c080830151908201526103e091820151918101919091526104000190565b61051b610516366004613199565b610ee1565b6040519081526020016102fa565b6103566105373660046131dc565b6110a4565b61035661054a366004613218565b6110d5565b61035661055d36600461323a565b61116b565b6102ee61057036600461317e565b600a6020526000908152604090205460ff1681565b61051b610593366004613124565b6111f9565b6103566105a63660046131dc565b611262565b61051b6105b9366004613124565b61127d565b61051b6105cc366004613124565b6112ff565b6105e46105df366004613124565b611345565b6040516102fa9190600061016082019050825182526020830151602083015260408301516040830152606083015160608301526080830151608083015260a083015160a083015260c083015160c083015260e083015160e083015261010080840151818401525061012080840151818401525061014080840151818401525092915050565b61032b610677366004613124565b61146b565b61035661068a366004613124565b6114cb565b61035661069d366004613124565b61152a565b6103566106b0366004613124565b611589565b61051b6106c3366004613124565b6115e8565b61051b6106d636600461317e565b611655565b61051b6106e9366004613124565b6116db565b6103566106fc366004613124565b611744565b61051b61070f366004613124565b6117a3565b61051b610722366004613124565b611812565b60095461032b906001600160a01b031681565b610356610748366004613218565b61188b565b61030b61195c565b61035661076336600461323a565b61196b565b61051b610776366004613218565b611976565b61051b610789366004613276565b6119c3565b61035661079c366004613218565b611c27565b61051b6107af366004613124565b611cf6565b6103566107c2366004613297565b611d33565b6103566107d53660046132d9565b611f72565b61051b6107e8366004613124565b611faa565b61030b6107fb366004613124565b612019565b61035661080e366004613124565b61208c565b61051b610821366004613218565b6120eb565b6103566108343660046133b5565b61214c565b61051b610847366004613124565b612403565b61035661085a36600461323a565b612437565b61051b61086d366004613124565b6124bd565b61051b610880366004613218565b612519565b6102ee6108933660046133f0565b6001600160a01b03918216600090815260056020908152604080832093909416825291909152205460ff1690565b61051b6108cf366004613124565b612575565b61051b6108e2366004613124565b6125b6565b60006001600160e01b031982166380ac58cd60e01b148061091857506001600160e01b03198216635b5e139f60e01b145b8061093357506301ffc9a760e01b6001600160e01b03198316145b92915050565b60606000805461094890613423565b80601f016020809104026020016040519081016040528092919081815260200182805461097490613423565b80156109c15780601f10610996576101008083540402835291602001916109c1565b820191906000526020600020905b8154815290600101906020018083116109a457829003601f168201915b5050505050905090565b60006109d682612616565b506000908152600460205260409020546001600160a01b031690565b60006109fd8261146b565b9050806001600160a01b0316836001600160a01b031603610a6f5760405162461bcd60e51b815260206004820152602160248201527f4552433732313a20617070726f76616c20746f2063757272656e74206f776e656044820152603960f91b60648201526084015b60405180910390fd5b336001600160a01b0382161480610a8b5750610a8b8133610893565b610afd5760405162461bcd60e51b815260206004820152603d60248201527f4552433732313a20617070726f76652063616c6c6572206973206e6f7420746f60448201527f6b656e206f776e6572206f7220617070726f76656420666f7220616c6c0000006064820152608401610a66565b610b078383612669565b505050565b6009546001600160a01b03163314610b365760405162461bcd60e51b8152600401610a6690613457565b600f8190556040518181527f2709c3545e934f71bad88a10628cfcb26544abef6d319e025dafcfaa8ecd371b906020015b60405180910390a150565b6009546001600160a01b03163314610b9c5760405162461bcd60e51b8152600401610a6690613457565b6009546040516001600160a01b038084169216907fcbf985117192c8f614a58aaf97226bb80a754772f5f6edf06f87c675f2e6c66390600090a3600980546001600160a01b0319166001600160a01b0392909216919091179055565b6009546001600160a01b03163314610c225760405162461bcd60e51b8152600401610a6690613457565b60108190556040518181527f8bc6f507740334e03eb54c47352da054221b790b05465e2e8abf2c6e2bd9fd1090602001610b67565b610d4760405180610400016040528060008152602001600081526020016000815260200160008152602001600081526020016000815260200160008152602001600081526020016000815260200160008152602001600081526020016000815260200160008152602001600081526020016000815260200160008152602001600081526020016000815260200160008152602001600081526020016000815260200160008152602001600081526020016000815260200160008152602001600081526020016000815260200160008152602001600081526020016000815260200160008152602001600081525090565b610d50826126d7565b610d6c5760405162461bcd60e51b8152600401610a669061347e565b50600090815260076020818152604092839020835161040081018552815481526001820154928101929092526002810154938201939093526003830154606082015260048301546080820152600583015460a0820152600683015460c08201529082015460e082015260088201546101008201526009820154610120820152600a820154610140820152600b820154610160820152600c820154610180820152600d8201546101a0820152600e8201546101c0820152600f8201546101e08201526010820154610200820152601182015461022082015260128201546102408201526013820154610260820152601482015461028082015260158201546102a082015260168201546102c082015260178201546102e082015260188201546103008201526019820154610320820152601a820154610340820152601b820154610360820152601c820154610380820152601d8201546103a0820152601e8201546103c0820152601f909101546103e082015290565b336000908152600a602052604081205460ff1680610f0957506009546001600160a01b031633145b610f255760405162461bcd60e51b8152600401610a6690613457565b600060405180610400016040528060008152602001898152602001888152602001878152602001868152602001610f5b85612575565b815260200160008152602001600081526020016000815260200160008152602001600081526020016000815260200160008152602001600181526020016001815260200160008152602001600081526020016000815260200185815260200160008152602001600181526020016000815260200160008152602001600081526020016000815260200160008152602001600081526020016000815260200160008152602001600081526020016000815260200160008152509050611023600880546001019055565b600061102e60085490565b905061103a33826126f4565b611044818361270e565b6000818152600760205260408082208390555133917fe6ad03ae09e6216384922d74b5734a0ebc9aa6de15bcd7d61ed9999ba2cb1df5916110909185825260ff16602082015260400190565b60405180910390a298975050505050505050565b6110ae3382612896565b6110ca5760405162461bcd60e51b8152600401610a66906134ac565b610b07838383612914565b336000908152600b602052604090205460ff166111045760405162461bcd60e51b8152600401610a6690613457565b61110d826126d7565b6111295760405162461bcd60e51b8152600401610a669061347e565b601154600083815260076020526040902060050154611152919061114d9084612519565b612a78565b6000928352600760205260409092206005019190915550565b6009546001600160a01b031633146111955760405162461bcd60e51b8152600401610a6690613457565b6001600160a01b0382166000818152600a6020908152604091829020805460ff19168515159081179091558251938452908301527f29ff5e8999b00a7437c384659fb2312b275b85c589f4d149f8b460ea477dcb7e91015b60405180910390a15050565b6000611204826126d7565b6112205760405162461bcd60e51b8152600401610a669061347e565b61093361122c83611faa565b6000848152600760208190526040909120600681015491015461114d919061088090611259904390611976565b610821886125b6565b610b0783838360405180602001604052806000815250611f72565b60008181526007602090815260408083206008015483526006909152812060018101546002820154600383015460049093015484936112c493926108809290918391612519565b905060006112eb6112d485611812565b6000868152600760205260409020601101546120eb565b90506112f78282612519565b949350505050565b600061130a826126d7565b6113265760405162461bcd60e51b8152600401610a669061347e565b600e54600083815260076020526040902060020154610933919061350f565b6113a260405180610160016040528060008152602001600081526020016000815260200160008152602001600081526020016000815260200160008152602001600081526020016000815260200160008152602001600081525090565b6113ab826126d7565b6113c75760405162461bcd60e51b8152600401610a669061347e565b60006040518061016001604052808481526020016113e4856111f9565b81526020016113f285611faa565b8152602001611400856116db565b815260200161140e856115e8565b815260200161141c85611812565b815260200161142a85611cf6565b8152602001611438856117a3565b8152602001611446856112ff565b815260200161145485612403565b81526020016114628561127d565b90529392505050565b6000818152600260205260408120546001600160a01b0316806109335760405162461bcd60e51b8152602060048201526018602482015277115490cdcc8c4e881a5b9d985b1a59081d1bdad95b88125160421b6044820152606401610a66565b6009546001600160a01b031633146114f55760405162461bcd60e51b8152600401610a6690613457565b600e8190556040518181527f8e5252d2d2f885f4bae3553bbe34c3630f9274028f3c343ce0eac0dd710c6a0390602001610b67565b6009546001600160a01b031633146115545760405162461bcd60e51b8152600401610a6690613457565b60118190556040518181527f8b92a2a371ec2af95aa1740562d5031b28f403d2780beaecdce6befd43667fb890602001610b67565b6009546001600160a01b031633146115b35760405162461bcd60e51b8152600401610a6690613457565b600d8190556040518181527f0665124c1d0c6d84ba8a4d99cb0c2a03455171ce7503623c6cceb9da5bbd7a9190602001610b67565b60006115f3826126d7565b61160f5760405162461bcd60e51b8152600401610a669061347e565b60008281526007602052604081206010810154600e82015460039092015490929061164c9061163f9084906120eb565b6108808561082189611812565b95945050505050565b60006001600160a01b0382166116bf5760405162461bcd60e51b815260206004820152602960248201527f4552433732313a2061646472657373207a65726f206973206e6f7420612076616044820152683634b21037bbb732b960b91b6064820152608401610a66565b506001600160a01b031660009081526003602052604090205490565b60006116e6826126d7565b6117025760405162461bcd60e51b8152600401610a669061347e565b61093361170e836115e8565b6000848152600760205260409020600a810154600b9091015461114d91906108809061173b904390611976565b610821886124bd565b6009546001600160a01b0316331461176e5760405162461bcd60e51b8152600401610a6690613457565b60128190556040518181527f0dbed17fa1cbd28e0338d43e05619d042b9ca1ac23a9d5383ebe0ab7049ff16e90602001610b67565b60006117ae826126d7565b6117ca5760405162461bcd60e51b8152600401610a669061347e565b6010546000838152600760205260409020600301546117e9919061350f565b600f54600084815260076020526040902060010154611808919061350f565b6109339190613531565b600061181d826126d7565b6118395760405162461bcd60e51b8152600401610a669061347e565b600082815260076020526040902060050154601254600a9061187a906118739061186e9061186790866120eb565b607d612519565b612a8e565b6005611976565b611884919061350f565b9392505050565b336000908152600b602052604090205460ff166118ba5760405162461bcd60e51b8152600401610a6690613457565b6118c3826126d7565b6118df5760405162461bcd60e51b8152600401610a669061347e565b600082815260076020526040902060140154600114611958576000611903836116db565b905081811015611924576000838152600760205260408120600a0155611941565b61192e8183611976565b6000848152600760205260409020600a01555b50600082815260076020526040902043600b909101555b5050565b60606001805461094890613423565b611958338383612afe565b6000828211156119b95760405162461bcd60e51b815260206004820152600e60248201526d1cd8599954dd588811985a5b195960921b6044820152606401610a66565b6118848284613544565b6000808260048111156119d8576119d8613557565b03611a1d5760405162461bcd60e51b8152602060048201526015602482015274496e76616c6964206669676874657220636c61737360581b6044820152606401610a66565b600060066000846004811115611a3557611a35613557565b81526020019081526020016000206040518061040001604052908160008201548152602001600182015481526020016002820154815260200160038201548152602001600482015481526020016005820154815260200160068201548152602001600782015481526020016008820154815260200160098201548152602001600a8201548152602001600b8201548152602001600c8201548152602001600d8201548152602001600e8201548152602001600f820154815260200160108201548152602001601182015481526020016012820154815260200160138201548152602001601482015481526020016015820154815260200160168201548152602001601782015481526020016018820154815260200160198201548152602001601a8201548152602001601b8201548152602001601c8201548152602001601d8201548152602001601e8201548152602001601f820154815250509050611b9f600880546001019055565b6000611baa60085490565b9050611bb633826126f4565b611bc0818361270e565b6000818152600760205260409020819055337ffa7343ad709ac91d3c10902ecf30b0048166ea21049de84c532bc3dfdf8c6f0e82866004811115611c0657611c06613557565b6040805192835260ff90911660208301520160405180910390a29392505050565b336000908152600b602052604090205460ff16611c565760405162461bcd60e51b8152600401610a6690613457565b611c5f826126d7565b611c7b5760405162461bcd60e51b8152600401610a669061347e565b600082815260076020526040902060140154600114611958576000611c9f836111f9565b905081811015611cc057600083815260076020526040812060060155611cdd565b611cca8183611976565b6000848152600760205260409020600601555b5050600090815260076020819052604090912043910155565b6000611d01826126d7565b611d1d5760405162461bcd60e51b8152600401610a669061347e565b5060009081526007602052604090206005015490565b611d3c836126d7565b611d7e5760405162461bcd60e51b815260206004820152601360248201527210da185c88191bd95cc81b9bdd08195e1a5cdd606a1b6044820152606401610a66565b33611d888461146b565b6001600160a01b031614611dae5760405162461bcd60e51b8152600401610a6690613457565b60008111611ded5760405162461bcd60e51b815260206004820152600c60248201526b125b9d985b1a59081cdb1bdd60a21b6044820152606401610a66565b80600103611e0a5760008381526007602052604090206015018290555b80600203611e275760008381526007602052604090206016018290555b80600303611e445760008381526007602052604090206017018290555b80600403611e615760008381526007602052604090206018018290555b80600503611e7e5760008381526007602052604090206019018290555b80600603611e9b576000838152600760205260409020601a018290555b80600703611eb8576000838152600760205260409020601b018290555b80600803611ed5576000838152600760205260409020601c018290555b80600903611ef2576000838152600760205260409020601d018290555b80600a03611f0f576000838152600760205260409020601e018290555b80600b03611f2c576000838152600760205260409020601f018290555b60408051848152602081018490529081018290527f4d71ce238d1218a1f21de645b44d8d791c8c42f634ae4b7a576c6c548ddb639d9060600160405180910390a1505050565b611f7c3383612896565b611f985760405162461bcd60e51b8152600401610a66906134ac565b611fa484848484612bcc565b50505050565b6000611fb5826126d7565b611fd15760405162461bcd60e51b8152600401610a669061347e565b6000828152600760205260408120600f810154600d90910154909161164c611ffc8461082188611812565b6000878152600760205260409020600401546108809085906120eb565b606061202482612616565b600061203b60408051602081019091526000815290565b9050600081511161205b5760405180602001604052806000815250611884565b8061206584612bff565b60405160200161207692919061356d565b6040516020818303038152906040529392505050565b6009546001600160a01b031633146120b65760405162461bcd60e51b8152600401610a6690613457565b600c8190556040518181527f3dc2199ccebb6b521944bbb446fd55ec36fc6b23c37808e7304ac55d535d3ac490602001610b67565b6000806120f8838561359c565b905083158061210f57508261210d858361350f565b145b6118845760405162461bcd60e51b815260206004820152600e60248201526d1cd85999535d5b0811985a5b195960921b6044820152606401610a66565b336121568661146b565b6001600160a01b03161461217c5760405162461bcd60e51b8152600401610a6690613457565b6000858152600760205260409020600101548410156121dd5760405162461bcd60e51b815260206004820152601b60248201527f537472656e6774682063616e27742062652064656372656173656400000000006044820152606401610a66565b60008581526007602052604090206002015483101561223e5760405162461bcd60e51b815260206004820152601a60248201527f4167696c6974792063616e2774206265206465637265617365640000000000006044820152606401610a66565b60008581526007602052604090206003015482101561229f5760405162461bcd60e51b815260206004820152601960248201527f456e657267792063616e277420626520646563726561736564000000000000006044820152606401610a66565b6000858152600760205260409020600401548110156123005760405162461bcd60e51b815260206004820152601b60248201527f566974616c6974792063616e27742062652064656372656173656400000000006044820152606401610a66565b600061230b8661127d565b9050600061231887612403565b9050600061232e87610880886108808989612519565b9050828111156123805760405162461bcd60e51b815260206004820152601e60248201527f547279696e6720746f6f2061646420746f6f206d616e7920706f696e747300006044820152606401610a66565b600088815260076020908152604091829020600181018a9055600281018990556003810188905560040186905581518a815290810189905290810187905260608101869052608081018590527f9e28895821cef6daa08da1e82406e8be9675974fd115ccca84e332e6c15cff8f9060a00160405180910390a15050505050505050565b6000818152600760205260408120600181015460028201546003830154600490930154610933936108809291839190612519565b6009546001600160a01b031633146124615760405162461bcd60e51b8152600401610a6690613457565b6001600160a01b0382166000818152600b6020908152604091829020805460ff19168515159081179091558251938452908301527f01c144ac08fce1689d8f39e7c6b611ff5de0a11668f47d49788f2d8add83669a91016111ed565b60006124c8826126d7565b6124e45760405162461bcd60e51b8152600401610a669061347e565b600d54600083815260076020526040902060040154610933916125069161350f565b6000848152600760205260409020600c01545b6000806125268385613531565b90508381101580156125385750828110155b6118845760405162461bcd60e51b815260206004820152600e60248201526d1cd859995059190811985a5b195960921b6044820152606401610a66565b60008061258e600561258885600a612c92565b90612c9e565b905061259b816002612caa565b601254909150611884906125b083607d612cfd565b90612d09565b60006125c1826126d7565b6125dd5760405162461bcd60e51b8152600401610a669061347e565b600c54600083815260076020526040902060040154610933916125ff9161350f565b600084815260076020526040902060090154612519565b61261f816126d7565b6126665760405162461bcd60e51b8152602060048201526018602482015277115490cdcc8c4e881a5b9d985b1a59081d1bdad95b88125160421b6044820152606401610a66565b50565b600081815260046020526040902080546001600160a01b0319166001600160a01b038416908117909155819061269e8261146b565b6001600160a01b03167f8c5be1e5ebec7d5bd14f71427d1e84f3dd0314c0f7b2291e5b200ac8c7c3b92560405160405180910390a45050565b6000908152600260205260409020546001600160a01b0316151590565b611958828260405180602001604052806000815250612d15565b612717826126d7565b6127335760405162461bcd60e51b8152600401610a669061347e565b60009182526007602081815260409384902083518155908301516001820155928201516002840155606082015160038401556080820151600484015560a0820151600584015560c0820151600684015560e08201519083015561010081015160088301556101208101516009830155610140810151600a830155610160810151600b830155610180810151600c8301556101a0810151600d8301556101c0810151600e8301556101e0810151600f830155610200810151601083015561022081015160118301556102408101516012830155610260810151601383015561028081015160148301556102a081015160158301556102c081015160168301556102e0810151601783015561030081015160188301556103208101516019830155610340810151601a830155610360810151601b830155610380810151601c8301556103a0810151601d8301556103c0810151601e8301556103e00151601f90910155565b6000806128a28361146b565b9050806001600160a01b0316846001600160a01b031614806128e957506001600160a01b0380821660009081526005602090815260408083209388168352929052205460ff165b806112f75750836001600160a01b0316612902846109cb565b6001600160a01b031614949350505050565b826001600160a01b03166129278261146b565b6001600160a01b03161461294d5760405162461bcd60e51b8152600401610a66906135b3565b6001600160a01b0382166129af5760405162461bcd60e51b8152602060048201526024808201527f4552433732313a207472616e7366657220746f20746865207a65726f206164646044820152637265737360e01b6064820152608401610a66565b826001600160a01b03166129c28261146b565b6001600160a01b0316146129e85760405162461bcd60e51b8152600401610a66906135b3565b600081815260046020908152604080832080546001600160a01b03199081169091556001600160a01b0387811680865260038552838620805460001901905590871680865283862080546001019055868652600290945282852080549092168417909155905184937fddf252ad1be2c89b69c2b068fc378daa952ba7f163c4a11628f55a4df523b3ef91a4505050565b6000818310612a875781611884565b5090919050565b60006003821115612aef5750806000612aa860028361350f565b612ab3906001613531565b90505b81811015612ae957905080600281612ace818661350f565b612ad89190613531565b612ae2919061350f565b9050612ab6565b50919050565b8115612af9575060015b919050565b816001600160a01b0316836001600160a01b031603612b5f5760405162461bcd60e51b815260206004820152601960248201527f4552433732313a20617070726f766520746f2063616c6c6572000000000000006044820152606401610a66565b6001600160a01b03838116600081815260056020908152604080832094871680845294825291829020805460ff191686151590811790915591519182527f17307eab39ab6107e8899845ad3d59bd9653f200f220920489ca2b5937696c31910160405180910390a3505050565b612bd7848484612914565b612be384848484612d48565b611fa45760405162461bcd60e51b8152600401610a66906135f8565b60606000612c0c83612e49565b600101905060008167ffffffffffffffff811115612c2c57612c2c6132c3565b6040519080825280601f01601f191660200182016040528015612c56576020820181803683370190505b5090508181016020015b600019016f181899199a1a9b1b9c1cb0b131b232b360811b600a86061a8153600a8504945084612c6057509392505050565b6000611884828461359c565b60006118848284613531565b600081600003612cbc57506001610933565b81600103612ccb575081610933565b8260015b83811015612cf557612ce18286612c92565b915080612ced8161364a565b915050612ccf565b509392505050565b60006118848284613544565b6000611884828461350f565b612d1f8383612f21565b612d2c6000848484612d48565b610b075760405162461bcd60e51b8152600401610a66906135f8565b60006001600160a01b0384163b15612e3e57604051630a85bd0160e11b81526001600160a01b0385169063150b7a0290612d8c903390899088908890600401613663565b6020604051808303816000875af1925050508015612dc7575060408051601f3d908101601f19168201909252612dc4918101906136a0565b60015b612e24573d808015612df5576040519150601f19603f3d011682016040523d82523d6000602084013e612dfa565b606091505b508051600003612e1c5760405162461bcd60e51b8152600401610a66906135f8565b805181602001fd5b6001600160e01b031916630a85bd0160e11b1490506112f7565b506001949350505050565b60008072184f03e93ff9f4daa797ed6e38ed64bf6a1f0160401b8310612e885772184f03e93ff9f4daa797ed6e38ed64bf6a1f0160401b830492506040015b6d04ee2d6d415b85acef81000000008310612eb4576d04ee2d6d415b85acef8100000000830492506020015b662386f26fc100008310612ed257662386f26fc10000830492506010015b6305f5e1008310612eea576305f5e100830492506008015b6127108310612efe57612710830492506004015b60648310612f10576064830492506002015b600a83106109335760010192915050565b6001600160a01b038216612f775760405162461bcd60e51b815260206004820181905260248201527f4552433732313a206d696e7420746f20746865207a65726f20616464726573736044820152606401610a66565b612f80816126d7565b15612fcd5760405162461bcd60e51b815260206004820152601c60248201527f4552433732313a20746f6b656e20616c7265616479206d696e746564000000006044820152606401610a66565b612fd6816126d7565b156130235760405162461bcd60e51b815260206004820152601c60248201527f4552433732313a20746f6b656e20616c7265616479206d696e746564000000006044820152606401610a66565b6001600160a01b038216600081815260036020908152604080832080546001019055848352600290915280822080546001600160a01b0319168417905551839291907fddf252ad1be2c89b69c2b068fc378daa952ba7f163c4a11628f55a4df523b3ef908290a45050565b6001600160e01b03198116811461266657600080fd5b6000602082840312156130b657600080fd5b81356118848161308e565b60005b838110156130dc5781810151838201526020016130c4565b50506000910152565b600081518084526130fd8160208601602086016130c1565b601f01601f19169290920160200192915050565b60208152600061188460208301846130e5565b60006020828403121561313657600080fd5b5035919050565b80356001600160a01b0381168114612af957600080fd5b6000806040838503121561316757600080fd5b6131708361313d565b946020939093013593505050565b60006020828403121561319057600080fd5b6118848261313d565b60008060008060008060c087890312156131b257600080fd5b505084359660208601359650604086013595606081013595506080810135945060a0013592509050565b6000806000606084860312156131f157600080fd5b6131fa8461313d565b92506132086020850161313d565b9150604084013590509250925092565b6000806040838503121561322b57600080fd5b50508035926020909101359150565b6000806040838503121561324d57600080fd5b6132568361313d565b91506020830135801515811461326b57600080fd5b809150509250929050565b60006020828403121561328857600080fd5b81356005811061188457600080fd5b6000806000606084860312156132ac57600080fd5b505081359360208301359350604090920135919050565b634e487b7160e01b600052604160045260246000fd5b600080600080608085870312156132ef57600080fd5b6132f88561313d565b93506133066020860161313d565b925060408501359150606085013567ffffffffffffffff8082111561332a57600080fd5b818701915087601f83011261333e57600080fd5b813581811115613350576133506132c3565b604051601f8201601f19908116603f01168101908382118183101715613378576133786132c3565b816040528281528a602084870101111561339157600080fd5b82602086016020830137600060208483010152809550505050505092959194509250565b600080600080600060a086880312156133cd57600080fd5b505083359560208501359550604085013594606081013594506080013592509050565b6000806040838503121561340357600080fd5b61340c8361313d565b915061341a6020840161313d565b90509250929050565b600181811c9082168061343757607f821691505b602082108103612ae957634e487b7160e01b600052602260045260246000fd5b6020808252600d908201526c1058d8d95cdcc811195b9a5959609a1b604082015260600190565b602080825260149082015273151bdad95b88191bd95cc81b9bdd08195e1a5cdd60621b604082015260600190565b6020808252602d908201527f4552433732313a2063616c6c6572206973206e6f7420746f6b656e206f776e6560408201526c1c881bdc88185c1c1c9bdd9959609a1b606082015260800190565b634e487b7160e01b600052601160045260246000fd5b60008261352c57634e487b7160e01b600052601260045260246000fd5b500490565b80820180821115610933576109336134f9565b81810381811115610933576109336134f9565b634e487b7160e01b600052602160045260246000fd5b6000835161357f8184602088016130c1565b8351908301906135938183602088016130c1565b01949350505050565b8082028115828204841417610933576109336134f9565b60208082526025908201527f4552433732313a207472616e736665722066726f6d20696e636f72726563742060408201526437bbb732b960d91b606082015260800190565b60208082526032908201527f4552433732313a207472616e7366657220746f206e6f6e20455243373231526560408201527131b2b4bb32b91034b6b83632b6b2b73a32b960711b606082015260800190565b60006001820161365c5761365c6134f9565b5060010190565b6001600160a01b0385811682528416602082015260408101839052608060608201819052600090613696908301846130e5565b9695505050505050565b6000602082840312156136b257600080fd5b81516118848161308e56fea26469706673582212200d4c173d3e77428ae315fbeacfb9545fcb5e2eeb0f645501b43b24c15cf5ac0764736f6c63430008130033",
  "immutableReferences": {},
  "source": "// SPDX-License-Identifier: MIT\npragma solidity ^0.8.0;\n\nimport \"@openzeppelin/contracts/token/ERC721/ERC721.sol\";\nimport \"@openzeppelin/contracts/utils/Counters.sol\";\nimport \"@openzeppelin/contracts/utils/math/SafeMath.sol\";\n\ncontract FighterAttributes is ERC721 {\n    using Counters for Counters.Counter;\n    using SafeMath for uint256;\n\n    // Class enumeration\n    enum FighterClass {\n        None,\n        DarkKnight,\n        DarkWizard,\n        FairyElf,\n        MagicGladiator\n    }\n\n    // Struct for fighter attributes\n    struct Attributes {\n        uint256 tokenId;\n        uint256 strength;\n        uint256 agility;\n        uint256 energy;\n        uint256 vitality;\n        uint256 experience;\n        uint256 healthAfterLastDmg;\n        uint256 lastDmgBlockNumber;\n        uint256 class;\n        uint256 healthRegenerationBonus; // Given by wearing Items\n        uint256 manaAfterLastUse;\n        uint256 lastManaUseBlock;\n        uint256 manaRegenerationBonus; // Given by items\n        uint256 hpPerVitalityPoint;\n        uint256 manaPerEnergyPoint;\n        uint256 hpIncreasePerLevel;\n        uint256 manaIncreasePerLevel;\n        uint256 statPointsPerLevel;\n        uint256 attackSpeed;\n        uint256 agilityPointsPerSpeed;\n        uint256 isNpc;\n        \n\n        // item slots\n\n\n        /*\n            1. helmet\n            2. armour\n            3. pants\n            4. gloves\n            5. boots\n            6. left hand\n            7. right hand\n            8. left ring\n            9, right ring\n            10, pendant\n            11. wings\n\n        */\n        uint256 helmSlot;\n        uint256 armourSlot;\n        uint256 pantsSlot;\n        uint256 glovesSlot;\n        uint256 bootsSlot;\n        uint256 leftHandSlot;\n        uint256 rightHandSlot;\n        uint256 leftRingSlot;\n        uint256 rightRingSlot;\n        uint256 pendSlot;\n        uint256 wingsSlot;\n        \n        \n    }\n\n    // Initial attributes by class\n    mapping (uint256 => Attributes) private _initialAttributes;\n    mapping (uint256 => Attributes) private _tokenAttributes;\n\n    // Events\n    event FighterCreated(address indexed owner, uint256 tokenId, uint8 class);\n    event NPCCreated(address indexed creator, uint256 tokenId, uint8 class);\n    event StatsUpdated(uint256 tokenId, uint256 strength, uint256 agility, uint256 energy, uint256 vitality);\n    event ItemEquiped(uint256 tokenId, uint256 itemId, uint256 slot);\n\n    // Counter for token IDs\n    Counters.Counter private _tokenIdCounter;\n\n    constructor() ERC721(\"Combats\", \"Fighter\") {\n        // Set initial attributes for each class\n        _initialAttributes[uint256(FighterClass.DarkKnight)] = Attributes(0, 42,21,5,20, 0, 0, 0, 1, 0, 0, 0, 0, 5, 5, 5, 1, 5, 27, 7, 0,    0, 0, 0, 0, 0, 0, 0, 0, 0, 0, 0);\n        _initialAttributes[uint256(FighterClass.DarkWizard)] = Attributes(0, 15, 20, 50, 20, 0, 0, 0, 2, 0, 0, 0, 0, 3, 10, 3, 5, 5, 16, 5, 0,    0, 0, 0, 0, 0, 0, 0, 0, 0, 0, 0);\n        _initialAttributes[uint256(FighterClass.FairyElf)] = Attributes(0, 20, 25, 15, 20, 0, 0, 0, 3, 0, 0, 0, 0, 3, 5, 3, 4, 5, 12, 5, 0, 0, 0,   0, 0, 0, 0, 0, 0, 0, 0, 0);\n        _initialAttributes[uint256(FighterClass.MagicGladiator)] = Attributes(0, 28, 14, 20, 20, 0, 0, 0, 4, 0, 0, 0, 0, 4, 7, 6, 2, 7, 23, 7, 0,    0, 0, 0, 0, 0, 0, 0, 0, 0, 0, 0);\n\n        owner = msg.sender;\n    }\n\n    function equipItem(uint256 tokenId, uint256 itemId, uint256 slot) external {\n        require(_exists(tokenId), \"Char does not exist\");\n        require(ownerOf(tokenId) == msg.sender, \"Access Denied\");\n        require(slot > 0, \"Invalid slot\");\n\n        if (slot == 1) _tokenAttributes[tokenId].helmSlot = itemId;\n        if (slot == 2) _tokenAttributes[tokenId].armourSlot = itemId;\n        if (slot == 3) _tokenAttributes[tokenId].pantsSlot = itemId;\n        if (slot == 4) _tokenAttributes[tokenId].glovesSlot = itemId;\n        if (slot == 5) _tokenAttributes[tokenId].bootsSlot = itemId;\n        if (slot == 6) _tokenAttributes[tokenId].leftHandSlot = itemId;\n        if (slot == 7) _tokenAttributes[tokenId].rightHandSlot = itemId;\n        if (slot == 8) _tokenAttributes[tokenId].leftRingSlot = itemId;\n        if (slot == 9) _tokenAttributes[tokenId].rightRingSlot = itemId;\n        if (slot == 10) _tokenAttributes[tokenId].pendSlot = itemId;\n        if (slot == 11) _tokenAttributes[tokenId].wingsSlot = itemId;\n\n        emit ItemEquiped(tokenId, itemId, slot);\n    }\n    \n    function updateFighterStats(uint256 tokenId, uint256 strength, uint256 agility, uint256 energy, uint256 vitality)  external  {\n        // Check msg.sender is the NFT owner\n        require(ownerOf(tokenId) == msg.sender, \"Access Denied\");\n        \n        require(strength >= _tokenAttributes[tokenId].strength, \"Strength can't be decreased\");\n        require(agility >= _tokenAttributes[tokenId].agility, \"Agility can't be decreased\");\n        require(energy >= _tokenAttributes[tokenId].energy, \"Energy can't be decreased\");\n        require(vitality >= _tokenAttributes[tokenId].vitality, \"Vitality can't be decreased\");\n\n\n        uint256 maxPoints = getMaxStatPoints(tokenId);\n        uint256 usedStatPoints = getTotalUsedStatPoints(tokenId);\n\n        uint256 newTotalStats = safeAdd(strength, safeAdd(agility, safeAdd(energy, vitality)));\n\n        require(newTotalStats <= maxPoints, \"Trying too add too many points\");\n\n        _tokenAttributes[tokenId].strength = strength;\n        _tokenAttributes[tokenId].agility = agility;\n        _tokenAttributes[tokenId].energy = energy;\n        _tokenAttributes[tokenId].vitality = vitality;\n\n        emit StatsUpdated(tokenId, strength, agility, energy, vitality);\n    }\n\n    function getMaxStatPoints(uint256 tokenId) public view returns (uint256) {\n        uint256 initialPoints = safeAdd(_initialAttributes[_tokenAttributes[tokenId].class].strength,\n                safeAdd(_initialAttributes[_tokenAttributes[tokenId].class].agility, \n                safeAdd(_initialAttributes[_tokenAttributes[tokenId].class].energy,\n                _initialAttributes[_tokenAttributes[tokenId].class].vitality)));\n\n        uint256 levelPoints = safeMul(getLevel(tokenId), _tokenAttributes[tokenId].statPointsPerLevel);\n\n        return safeAdd(initialPoints, levelPoints);\n    }\n\n    function getTotalUsedStatPoints(uint256 tokenId) public view returns (uint256) {\n        return safeAdd(_tokenAttributes[tokenId].strength,\n                safeAdd(_tokenAttributes[tokenId].agility, \n                safeAdd(_tokenAttributes[tokenId].energy,\n                _tokenAttributes[tokenId].vitality)));\n    }\n\n    // Create a new fighter NFT with initial attributes\n    function createFighter(FighterClass fighterClass) external returns (uint256) {\n        // Make sure the class is valid\n        require(fighterClass != FighterClass.None, \"Invalid fighter class\");\n\n        // Get the initial attributes for the class\n        Attributes memory initialAttrs = _initialAttributes[uint256(fighterClass)];\n       \n\n        // Mint the NFT with the initial attributes\n        _tokenIdCounter.increment();\n        uint256 tokenId = _tokenIdCounter.current();\n        _safeMint(msg.sender, tokenId);\n        _setTokenAttributes(tokenId, initialAttrs);\n\n        _tokenAttributes[tokenId].tokenId = tokenId;\n        \n\n        emit FighterCreated(msg.sender, tokenId, uint8(fighterClass));\n\n        return tokenId;\n    }\n\n    function createNPC(uint256 strength, uint256 agility, uint256 energy, uint256 vitality, uint256 attackSpeed, uint256 level) external onlyGM  returns (uint256) {\n        Attributes memory atts = Attributes(0, strength,agility,energy,vitality, getExpFromLevel(level), 0, 0, 0, 0, 0, 0, 0, 1, 1, 0, 0, 0, attackSpeed, 0, 1,  0, 0, 0, 0, 0, 0, 0, 0, 0, 0, 0);\n        _tokenIdCounter.increment();\n         uint256 tokenId = _tokenIdCounter.current();\n         _safeMint(msg.sender, tokenId);\n         _setTokenAttributes(tokenId, atts);\n         _tokenAttributes[tokenId].tokenId = tokenId;\n\n         emit NPCCreated(msg.sender, tokenId, 0);\n\n        return tokenId;\n    }\n\n    // Get the attributes for a fighter NFT\n    function getTokenAttributes(uint256 tokenId) public view returns (Attributes memory) {\n        require(_exists(tokenId), \"Token does not exist\");\n\n        return _tokenAttributes[tokenId];\n    }\n\n    // Set the attributes for a fighter NFT\n    function _setTokenAttributes(uint256 tokenId, Attributes memory attrs) internal {\n        require(_exists(tokenId), \"Token does not exist\");\n\n        _tokenAttributes[tokenId] = attrs;\n    }\n\n    // Increase fighter experience\n    function increaseExperience(uint256 tokenId, uint256 addExp) external onlyBattleContract {\n        require(_exists(tokenId), \"Token does not exist\");\n\n        _tokenAttributes[tokenId].experience = min(maxExperience, safeAdd(_tokenAttributes[tokenId].experience, addExp));\n    }\n\n    // Decrease health due to damage\n    function decreaseHealth(uint256 tokenId, uint256 damage) external onlyBattleContract {\n        require(_exists(tokenId), \"Token does not exist\");\n         if (_tokenAttributes[tokenId].isNpc == 1) return;\n\n        uint256 currentHealth = getHealth(tokenId);\n\n        if (currentHealth < damage) \n        {\n            _tokenAttributes[tokenId].healthAfterLastDmg = 0;\n        } \n        else\n        {\n            _tokenAttributes[tokenId].healthAfterLastDmg = safeSub(currentHealth, damage);\n        }\n\n        _tokenAttributes[tokenId].lastDmgBlockNumber = block.number;\n    }\n\n    // Decrease mana \n    function decreaseMana(uint256 tokenId, uint256 manaUsed) external onlyBattleContract {\n        require(_exists(tokenId), \"Token does not exist\");\n        if (_tokenAttributes[tokenId].isNpc == 1) return;\n\n        uint256 currentMana = getMana(tokenId);\n\n        if (currentMana < manaUsed) \n        {\n            _tokenAttributes[tokenId].manaAfterLastUse = 0;\n        } \n        else\n        {\n            _tokenAttributes[tokenId].manaAfterLastUse = safeSub(currentMana, manaUsed);\n        }\n\n        _tokenAttributes[tokenId].lastManaUseBlock = block.number;\n    }\n\n\n    // Get Player health\n    function getHealth(uint256 tokenId) public view returns (uint256)\n    {\n        require(_exists(tokenId), \"Token does not exist\");\n\n        // Health = Health_After_Last_Damage + (Current Block Number - Last Damage Block Number) * Health Regeneration Rate\n        return min(getMaxHealth(tokenId), safeAdd(_tokenAttributes[tokenId].healthAfterLastDmg, safeMul(safeSub(block.number, _tokenAttributes[tokenId].lastDmgBlockNumber), getHealthRegenerationRate(tokenId))));\n    }\n\n    function getHealthRegenerationRate(uint256 tokenId) public view returns (uint256)\n    {\n        require(_exists(tokenId), \"Token does not exist\");\n\n        return safeAdd((_tokenAttributes[tokenId].vitality / healthRegenerationDivider) , _tokenAttributes[tokenId].healthRegenerationBonus);\n    }\n\n    function getMaxHealth(uint256 tokenId) public view returns (uint256) \n    {\n        require(_exists(tokenId), \"Token does not exist\");\n        uint256 increasePerLevel = 0;\n        uint256 hpPerVitalityPoint = 0;\n        uint256 vitalityPoints;\n\n        increasePerLevel = _tokenAttributes[tokenId].hpIncreasePerLevel;\n        hpPerVitalityPoint = _tokenAttributes[tokenId].hpPerVitalityPoint;\n        \n\n        return safeAdd(safeMul(increasePerLevel, getLevel(tokenId)), safeMul(hpPerVitalityPoint, _tokenAttributes[tokenId].vitality));\n    }\n\n\n    function getMaxMana(uint256 tokenId) public view returns (uint256) \n    {\n        require(_exists(tokenId), \"Token does not exist\");\n        uint256 increasePerLevel = 0;\n        uint256 mpPerEnergyPoint = 0;\n        uint256 energyPoints;\n\n        \n        increasePerLevel = _tokenAttributes[tokenId].manaIncreasePerLevel;\n        mpPerEnergyPoint = _tokenAttributes[tokenId].manaPerEnergyPoint;\n        \n\n        return safeAdd(safeMul(mpPerEnergyPoint, _tokenAttributes[tokenId].energy), safeMul(increasePerLevel, getLevel(tokenId)));\n    }\n\n    struct FighterStats {\n        uint256 tokenId;\n        uint256 currentHealth;\n        uint256 maxHealth;\n        uint256 currentMana;\n        uint256 maxMana;\n        uint256 level;\n        uint256 exp;\n        uint256 damage;\n        uint256 defence;\n        uint256 totalStatPoints;\n        uint256 maxStatPoints;\n\n    }\n\n    function getFighterStats(uint256 tokenId) public view returns (FighterStats memory)\n    {\n        require(_exists(tokenId), \"Token does not exist\");\n        FighterStats memory stats = FighterStats({\n            tokenId: tokenId,\n            currentHealth: getHealth(tokenId),\n            maxHealth: getMaxHealth(tokenId),\n            currentMana: getMana(tokenId),\n            maxMana: getMaxMana(tokenId),\n            level: getLevel(tokenId),\n            exp: getExperience(tokenId),\n            damage: getDamage(tokenId),\n            defence: getDefence(tokenId),\n            totalStatPoints: getTotalUsedStatPoints(tokenId),\n            maxStatPoints: getMaxStatPoints(tokenId)\n        });\n\n        return stats;\n    }\n\n    // Get Player Mana\n    function getMana(uint256 tokenId) public view returns (uint256)\n    {\n        require(_exists(tokenId), \"Token does not exist\");\n\n        // Health = Health_After_Last_Damage + (Current Block Number - Last Damage Block Number) * Health Regeneration Rate\n        return min(getMaxMana(tokenId), safeAdd(_tokenAttributes[tokenId].manaAfterLastUse, safeMul(safeSub(block.number, _tokenAttributes[tokenId].lastManaUseBlock), getManaRegenerationRate(tokenId))));\n    }\n\n    function getExperience(uint256 tokenId) public view returns (uint256)\n    {\n        require(_exists(tokenId), \"Token does not exist\");\n\n        // Health = Health_After_Last_Damage + (Current Block Number - Last Damage Block Number) * Health Regeneration Rate\n        return _tokenAttributes[tokenId].experience;\n    }\n\n    function getManaRegenerationRate(uint256 tokenId) public view returns (uint256)\n    {\n        require(_exists(tokenId), \"Token does not exist\");\n\n        return safeAdd((_tokenAttributes[tokenId].vitality / manaRegenerationDivider) , _tokenAttributes[tokenId].manaRegenerationBonus);\n    }\n\n\n    // Get player level\n    function getLevel(uint256 tokenId) public view returns (uint256) \n    {\n        require(_exists(tokenId), \"Token does not exist\");\n\n        uint256 exp = _tokenAttributes[tokenId].experience;\n\n        return safeSub(sqrt(safeAdd(safeMul(experienceDivider, exp), 125)), 5) / 10;\n    }\n\n    // Reverse function for getLevel\n    function getExpFromLevel(uint256 level) public view returns (uint256) {\n        uint256 exp = level.mul(10).add(5);\n        exp = safePow(exp, 2);\n        exp = exp.sub(125).div(experienceDivider);\n        return exp;\n    }\n\n\n    // Get Defence\n    function getDefence (uint256 tokenId) public view returns (uint256)\n    {\n        require(_exists(tokenId), \"Token does not exist\");\n\n        return _tokenAttributes[tokenId].agility / agilityPerDefence;\n    }\n\n    // Get Damage\n    function getDamage (uint256 tokenId) public view returns (uint256)\n    {\n        require(_exists(tokenId), \"Token does not exist\");\n\n        return _tokenAttributes[tokenId].strength / strengthPerDamage + _tokenAttributes[tokenId].energy / energyPerDamage;\n    }\n    \n    \n    address public owner; // holds the address of the contract owner\n\n    // Event fired when the owner of the contract is changed\n    event SetOwner(address indexed previousOwner, address indexed newOwner);\n    event SetBattleContract(address battleContract, bool isActive);\n\n    // Allows only the owner of the contract to execute the function\n    modifier onlyOwner {\n        require(msg.sender == owner, \"Access Denied\");\n        _;\n    }\n\n    // Allows only the owner of the contract to execute the function\n    modifier onlyGM {\n        require(isGM[msg.sender] || msg.sender == owner, \"Access Denied\");\n        _;\n    }\n\n     // Allows only the owner of the contract to execute the function\n    modifier onlyBattleContract {\n        require(isBattleContract[msg.sender], \"Access Denied\");\n        _;\n    }\n\n \n\n    // Changes the owner of the contract\n    function setOwner(address newOwner) public onlyOwner {\n        emit SetOwner(owner, newOwner);\n        owner = newOwner;\n    }\n\n    mapping (address => bool) public isGM;\n    event SetGM(address, bool);\n    // Changes the owner of the contract\n    function setGM(address gmAddress, bool val) public onlyOwner {\n        isGM[gmAddress] = val;\n        emit SetGM(gmAddress, val);\n    }\n\n    mapping (address => bool) private isBattleContract;\n\n    // Set battle contract\n    function setBattleContract(address contr, bool isActive) external onlyOwner\n    {\n        isBattleContract[contr] = isActive;\n        emit SetBattleContract(contr, isActive);\n    }\n\n    uint256 healthRegenerationDivider = 8;\n    uint256 manaRegenerationDivider = 8;\n    uint256 agilityPerDefence = 4;\n    uint256 strengthPerDamage = 8;\n    uint256 energyPerDamage = 8;\n    uint256 maxExperience = 291342500;\n    uint256 experienceDivider = 5;\n\n\n    event updateHealthRegenerationDivider(uint256);\n    event updateManaRegenerationDivider(uint256);\n    event updateAgilityPerDefence(uint256);\n    event updateStrengthPerDamage(uint256);\n    event updateEnergyPerDamage(uint256);\n    event updateMaxExperience(uint256);\n    event updateExperienceDivider(uint256);\n    \n\n    function setHealthRegenerationDivider(uint256 val) external onlyOwner {\n        healthRegenerationDivider = val;\n\n        emit updateHealthRegenerationDivider(val);\n    }\n\n   function setManaRegenerationDivider(uint256 val) external onlyOwner {\n        manaRegenerationDivider = val;\n\n        emit updateManaRegenerationDivider(val);\n    }\n\n   function setAgilityPerDefence(uint256 val) external onlyOwner {\n        agilityPerDefence = val;\n\n        emit updateAgilityPerDefence(val);\n    }\n\n   function setStrengthPerDamage(uint256 val) external onlyOwner {\n        strengthPerDamage = val;\n\n        emit updateStrengthPerDamage(val);\n    }\n\n   function setEnergyPerDamage(uint256 val) external onlyOwner {\n        energyPerDamage = val;\n\n        emit updateEnergyPerDamage(val);\n    }\n\n    function setMaxExperience(uint256 val) external onlyOwner {\n        maxExperience = val;\n\n        emit updateMaxExperience(val);\n    }\n\n    function setExperienceDivider(uint256 val) external onlyOwner {\n        experienceDivider = val;\n\n        emit updateExperienceDivider(val);\n    }\n\n\n\n    // Cube Root function\n    function sqrt(uint y) internal pure returns (uint z) {\n        if (y > 3) {\n            z = y;\n            uint x = y / 2 + 1;\n            while (x < z) {\n                z = x;\n                x = (y / x + x) / 2;\n            }\n        } else if (y != 0) {\n            z = 1;\n        }\n\n        return z;\n    }\n\n    // Returns the smaller of two values\n    function min(uint a, uint b) private pure returns (uint) {\n        return a < b ? a : b;\n    }\n\n    // Returns the largest of the two values\n    function max(uint a, uint b) private pure returns (uint) {\n        return a > b ? a : b;\n    }\n\n    // Safe Multiply Function - prevents integer overflow \n    function safeMul(uint a, uint b) public view returns (uint) {\n        uint c = a * b;\n        require(a == 0 || c / a == b, \"safeMul Failed\");\n        return c;\n    }\n\n    // Safe Subtraction Function - prevents integer overflow \n    function safeSub(uint a, uint b) public view returns (uint) {\n        require(b <= a, \"safeSub Failed\");\n        return a - b;\n    }\n\n    // Safe Addition Function - prevents integer overflow \n    function safeAdd(uint a, uint b) public view returns (uint) {\n        uint c = a + b;\n        require(c>=a && c>=b, \"safeAdd Failed\");\n        return c;\n    }\n\n    function safePow(uint256 base, uint256 exponent) internal pure returns (uint256) {\n        if (exponent == 0) {\n            return 1;\n        } else if (exponent == 1) {\n            return base;\n        }\n\n        uint256 result = base;\n        for (uint256 i = 1; i < exponent; i++) {\n            result = result.mul(base);\n        }\n        return result;\n    }\n}\n",
  "sourcePath": "/Users/max/Documents/prog/game-contracts/contracts/fighter.sol",
  "compiler": {
    "name": "solc",
    "version": "0.8.19+commit.7dd6d404.Emscripten.clang"
  },
  "schemaVersion": "3.4.13",
  "updatedAt": "2023-04-16T04:48:42.375Z",
  "devdoc": {
    "events": {
      "Approval(address,address,uint256)": {
        "details": "Emitted when `owner` enables `approved` to manage the `tokenId` token."
      },
      "ApprovalForAll(address,address,bool)": {
        "details": "Emitted when `owner` enables or disables (`approved`) `operator` to manage all of its assets."
      },
      "Transfer(address,address,uint256)": {
        "details": "Emitted when `tokenId` token is transferred from `from` to `to`."
      }
    },
    "kind": "dev",
    "methods": {
      "approve(address,uint256)": {
        "details": "See {IERC721-approve}."
      },
      "balanceOf(address)": {
        "details": "See {IERC721-balanceOf}."
      },
      "getApproved(uint256)": {
        "details": "See {IERC721-getApproved}."
      },
      "isApprovedForAll(address,address)": {
        "details": "See {IERC721-isApprovedForAll}."
      },
      "name()": {
        "details": "See {IERC721Metadata-name}."
      },
      "ownerOf(uint256)": {
        "details": "See {IERC721-ownerOf}."
      },
      "safeTransferFrom(address,address,uint256)": {
        "details": "See {IERC721-safeTransferFrom}."
      },
      "safeTransferFrom(address,address,uint256,bytes)": {
        "details": "See {IERC721-safeTransferFrom}."
      },
      "setApprovalForAll(address,bool)": {
        "details": "See {IERC721-setApprovalForAll}."
      },
      "supportsInterface(bytes4)": {
        "details": "See {IERC165-supportsInterface}."
      },
      "symbol()": {
        "details": "See {IERC721Metadata-symbol}."
      },
      "tokenURI(uint256)": {
        "details": "See {IERC721Metadata-tokenURI}."
      },
      "transferFrom(address,address,uint256)": {
        "details": "See {IERC721-transferFrom}."
      }
    },
    "version": 1
  },
  "userdoc": {
    "kind": "user",
    "methods": {},
    "version": 1
  }
}