{
  "contractName": "FighterAttributes",
  "abi": [
    {
      "inputs": [],
      "stateMutability": "nonpayable",
      "type": "constructor"
    },
    {
      "anonymous": false,
      "inputs": [
        {
          "indexed": true,
          "internalType": "address",
          "name": "owner",
          "type": "address"
        },
        {
          "indexed": true,
          "internalType": "address",
          "name": "approved",
          "type": "address"
        },
        {
          "indexed": true,
          "internalType": "uint256",
          "name": "tokenId",
          "type": "uint256"
        }
      ],
      "name": "Approval",
      "type": "event"
    },
    {
      "anonymous": false,
      "inputs": [
        {
          "indexed": true,
          "internalType": "address",
          "name": "owner",
          "type": "address"
        },
        {
          "indexed": true,
          "internalType": "address",
          "name": "operator",
          "type": "address"
        },
        {
          "indexed": false,
          "internalType": "bool",
          "name": "approved",
          "type": "bool"
        }
      ],
      "name": "ApprovalForAll",
      "type": "event"
    },
    {
      "anonymous": false,
      "inputs": [
        {
          "indexed": true,
          "internalType": "address",
          "name": "owner",
          "type": "address"
        },
        {
          "indexed": false,
          "internalType": "uint256",
          "name": "tokenId",
          "type": "uint256"
        },
        {
          "indexed": false,
          "internalType": "uint8",
          "name": "class",
          "type": "uint8"
        }
      ],
      "name": "FighterCreated",
      "type": "event"
    },
    {
      "anonymous": false,
      "inputs": [
        {
          "indexed": false,
          "internalType": "uint256",
          "name": "tokenId",
          "type": "uint256"
        },
        {
          "indexed": false,
          "internalType": "uint256",
          "name": "itemId",
          "type": "uint256"
        },
        {
          "indexed": false,
          "internalType": "uint256",
          "name": "slot",
          "type": "uint256"
        }
      ],
      "name": "ItemEquiped",
      "type": "event"
    },
    {
      "anonymous": false,
      "inputs": [
        {
          "indexed": true,
          "internalType": "address",
          "name": "creator",
          "type": "address"
        },
        {
          "indexed": false,
          "internalType": "uint256",
          "name": "tokenId",
          "type": "uint256"
        },
        {
          "indexed": false,
          "internalType": "uint8",
          "name": "class",
          "type": "uint8"
        }
      ],
      "name": "NPCCreated",
      "type": "event"
    },
    {
      "anonymous": false,
      "inputs": [
        {
          "indexed": false,
          "internalType": "uint256",
          "name": "tokenId",
          "type": "uint256"
        },
        {
          "indexed": false,
          "internalType": "uint256",
          "name": "strength",
          "type": "uint256"
        },
        {
          "indexed": false,
          "internalType": "uint256",
          "name": "agility",
          "type": "uint256"
        },
        {
          "indexed": false,
          "internalType": "uint256",
          "name": "energy",
          "type": "uint256"
        },
        {
          "indexed": false,
          "internalType": "uint256",
          "name": "vitality",
          "type": "uint256"
        }
      ],
      "name": "StatsUpdated",
      "type": "event"
    },
    {
      "anonymous": false,
      "inputs": [
        {
          "indexed": true,
          "internalType": "address",
          "name": "from",
          "type": "address"
        },
        {
          "indexed": true,
          "internalType": "address",
          "name": "to",
          "type": "address"
        },
        {
          "indexed": true,
          "internalType": "uint256",
          "name": "tokenId",
          "type": "uint256"
        }
      ],
      "name": "Transfer",
      "type": "event"
    },
    {
      "anonymous": false,
      "inputs": [
        {
          "indexed": false,
          "internalType": "uint256",
          "name": "",
          "type": "uint256"
        }
      ],
      "name": "updateAgilityPerDefence",
      "type": "event"
    },
    {
      "anonymous": false,
      "inputs": [
        {
          "indexed": false,
          "internalType": "uint256",
          "name": "",
          "type": "uint256"
        }
      ],
      "name": "updateEnergyPerDamage",
      "type": "event"
    },
    {
      "anonymous": false,
      "inputs": [
        {
          "indexed": false,
          "internalType": "uint256",
          "name": "",
          "type": "uint256"
        }
      ],
      "name": "updateExperienceDivider",
      "type": "event"
    },
    {
      "anonymous": false,
      "inputs": [
        {
          "indexed": false,
          "internalType": "uint256",
          "name": "",
          "type": "uint256"
        }
      ],
      "name": "updateHealthRegenerationDivider",
      "type": "event"
    },
    {
      "anonymous": false,
      "inputs": [
        {
          "indexed": false,
          "internalType": "uint256",
          "name": "",
          "type": "uint256"
        }
      ],
      "name": "updateManaRegenerationDivider",
      "type": "event"
    },
    {
      "anonymous": false,
      "inputs": [
        {
          "indexed": false,
          "internalType": "uint256",
          "name": "",
          "type": "uint256"
        }
      ],
      "name": "updateMaxExperience",
      "type": "event"
    },
    {
      "anonymous": false,
      "inputs": [
        {
          "indexed": false,
          "internalType": "uint256",
          "name": "",
          "type": "uint256"
        }
      ],
      "name": "updateStrengthPerDamage",
      "type": "event"
    },
    {
      "inputs": [
        {
          "internalType": "address",
          "name": "to",
          "type": "address"
        },
        {
          "internalType": "uint256",
          "name": "tokenId",
          "type": "uint256"
        }
      ],
      "name": "approve",
      "outputs": [],
      "stateMutability": "nonpayable",
      "type": "function"
    },
    {
      "inputs": [
        {
          "internalType": "address",
          "name": "owner",
          "type": "address"
        }
      ],
      "name": "balanceOf",
      "outputs": [
        {
          "internalType": "uint256",
          "name": "",
          "type": "uint256"
        }
      ],
      "stateMutability": "view",
      "type": "function",
      "constant": true
    },
    {
      "inputs": [
        {
          "internalType": "uint256",
          "name": "tokenId",
          "type": "uint256"
        }
      ],
      "name": "getApproved",
      "outputs": [
        {
          "internalType": "address",
          "name": "",
          "type": "address"
        }
      ],
      "stateMutability": "view",
      "type": "function",
      "constant": true
    },
    {
      "inputs": [
        {
          "internalType": "address",
          "name": "owner",
          "type": "address"
        },
        {
          "internalType": "address",
          "name": "operator",
          "type": "address"
        }
      ],
      "name": "isApprovedForAll",
      "outputs": [
        {
          "internalType": "bool",
          "name": "",
          "type": "bool"
        }
      ],
      "stateMutability": "view",
      "type": "function",
      "constant": true
    },
    {
      "inputs": [],
      "name": "name",
      "outputs": [
        {
          "internalType": "string",
          "name": "",
          "type": "string"
        }
      ],
      "stateMutability": "view",
      "type": "function",
      "constant": true
    },
    {
      "inputs": [
        {
          "internalType": "string",
          "name": "",
          "type": "string"
        }
      ],
      "name": "names",
      "outputs": [
        {
          "internalType": "bool",
          "name": "",
          "type": "bool"
        }
      ],
      "stateMutability": "view",
      "type": "function",
      "constant": true
    },
    {
      "inputs": [
        {
          "internalType": "uint256",
          "name": "tokenId",
          "type": "uint256"
        }
      ],
      "name": "ownerOf",
      "outputs": [
        {
          "internalType": "address",
          "name": "",
          "type": "address"
        }
      ],
      "stateMutability": "view",
      "type": "function",
      "constant": true
    },
    {
      "inputs": [
        {
          "internalType": "address",
          "name": "from",
          "type": "address"
        },
        {
          "internalType": "address",
          "name": "to",
          "type": "address"
        },
        {
          "internalType": "uint256",
          "name": "tokenId",
          "type": "uint256"
        }
      ],
      "name": "safeTransferFrom",
      "outputs": [],
      "stateMutability": "nonpayable",
      "type": "function"
    },
    {
      "inputs": [
        {
          "internalType": "address",
          "name": "from",
          "type": "address"
        },
        {
          "internalType": "address",
          "name": "to",
          "type": "address"
        },
        {
          "internalType": "uint256",
          "name": "tokenId",
          "type": "uint256"
        },
        {
          "internalType": "bytes",
          "name": "data",
          "type": "bytes"
        }
      ],
      "name": "safeTransferFrom",
      "outputs": [],
      "stateMutability": "nonpayable",
      "type": "function"
    },
    {
      "inputs": [
        {
          "internalType": "address",
          "name": "operator",
          "type": "address"
        },
        {
          "internalType": "bool",
          "name": "approved",
          "type": "bool"
        }
      ],
      "name": "setApprovalForAll",
      "outputs": [],
      "stateMutability": "nonpayable",
      "type": "function"
    },
    {
      "inputs": [
        {
          "internalType": "bytes4",
          "name": "interfaceId",
          "type": "bytes4"
        }
      ],
      "name": "supportsInterface",
      "outputs": [
        {
          "internalType": "bool",
          "name": "",
          "type": "bool"
        }
      ],
      "stateMutability": "view",
      "type": "function",
      "constant": true
    },
    {
      "inputs": [],
      "name": "symbol",
      "outputs": [
        {
          "internalType": "string",
          "name": "",
          "type": "string"
        }
      ],
      "stateMutability": "view",
      "type": "function",
      "constant": true
    },
    {
      "inputs": [
        {
          "internalType": "uint256",
          "name": "tokenId",
          "type": "uint256"
        }
      ],
      "name": "tokenURI",
      "outputs": [
        {
          "internalType": "string",
          "name": "",
          "type": "string"
        }
      ],
      "stateMutability": "view",
      "type": "function",
      "constant": true
    },
    {
      "inputs": [
        {
          "internalType": "address",
          "name": "from",
          "type": "address"
        },
        {
          "internalType": "address",
          "name": "to",
          "type": "address"
        },
        {
          "internalType": "uint256",
          "name": "tokenId",
          "type": "uint256"
        }
      ],
      "name": "transferFrom",
      "outputs": [],
      "stateMutability": "nonpayable",
      "type": "function"
    },
    {
      "inputs": [
        {
          "internalType": "uint256",
          "name": "tokenId",
          "type": "uint256"
        },
        {
          "internalType": "uint256",
          "name": "itemId",
          "type": "uint256"
        },
        {
          "internalType": "uint256",
          "name": "slot",
          "type": "uint256"
        }
      ],
      "name": "equipItem",
      "outputs": [],
      "stateMutability": "nonpayable",
      "type": "function"
    },
    {
      "inputs": [
        {
          "internalType": "uint256",
          "name": "tokenId",
          "type": "uint256"
        },
        {
          "internalType": "uint256",
          "name": "strength",
          "type": "uint256"
        },
        {
          "internalType": "uint256",
          "name": "agility",
          "type": "uint256"
        },
        {
          "internalType": "uint256",
          "name": "energy",
          "type": "uint256"
        },
        {
          "internalType": "uint256",
          "name": "vitality",
          "type": "uint256"
        }
      ],
      "name": "updateFighterStats",
      "outputs": [],
      "stateMutability": "nonpayable",
      "type": "function"
    },
    {
      "inputs": [
        {
          "internalType": "uint256",
          "name": "tokenId",
          "type": "uint256"
        }
      ],
      "name": "getMaxStatPoints",
      "outputs": [
        {
          "internalType": "uint256",
          "name": "",
          "type": "uint256"
        }
      ],
      "stateMutability": "view",
      "type": "function",
      "constant": true
    },
    {
      "inputs": [
        {
          "internalType": "uint256",
          "name": "tokenId",
          "type": "uint256"
        }
      ],
      "name": "getTotalUsedStatPoints",
      "outputs": [
        {
          "internalType": "uint256",
          "name": "",
          "type": "uint256"
        }
      ],
      "stateMutability": "view",
      "type": "function",
      "constant": true
    },
    {
      "inputs": [
        {
          "internalType": "string",
          "name": "name",
          "type": "string"
        },
        {
          "internalType": "enum FighterAttributes.FighterClass",
          "name": "fighterClass",
          "type": "uint8"
        }
      ],
      "name": "createFighter",
      "outputs": [
        {
          "internalType": "uint256",
          "name": "",
          "type": "uint256"
        }
      ],
      "stateMutability": "nonpayable",
      "type": "function"
    },
    {
      "inputs": [
        {
          "internalType": "string",
          "name": "name",
          "type": "string"
        },
        {
          "internalType": "uint256",
          "name": "strength",
          "type": "uint256"
        },
        {
          "internalType": "uint256",
          "name": "agility",
          "type": "uint256"
        },
        {
          "internalType": "uint256",
          "name": "energy",
          "type": "uint256"
        },
        {
          "internalType": "uint256",
          "name": "vitality",
          "type": "uint256"
        },
        {
          "internalType": "uint256",
          "name": "attackSpeed",
          "type": "uint256"
        },
        {
          "internalType": "uint256",
          "name": "level",
          "type": "uint256"
        },
        {
          "internalType": "uint256",
          "name": "dropRarityLevel",
          "type": "uint256"
        }
      ],
      "name": "createNPC",
      "outputs": [
        {
          "internalType": "uint256",
          "name": "",
          "type": "uint256"
        }
      ],
      "stateMutability": "nonpayable",
      "type": "function"
    },
    {
      "inputs": [
        {
          "internalType": "uint256",
          "name": "tokenId",
          "type": "uint256"
        }
      ],
      "name": "getTokenAttributes",
      "outputs": [
        {
          "components": [
            {
              "internalType": "string",
              "name": "name",
              "type": "string"
            },
            {
              "internalType": "uint256",
              "name": "tokenId",
              "type": "uint256"
            },
            {
              "internalType": "uint256",
              "name": "strength",
              "type": "uint256"
            },
            {
              "internalType": "uint256",
              "name": "agility",
              "type": "uint256"
            },
            {
              "internalType": "uint256",
              "name": "energy",
              "type": "uint256"
            },
            {
              "internalType": "uint256",
              "name": "vitality",
              "type": "uint256"
            },
            {
              "internalType": "uint256",
              "name": "experience",
              "type": "uint256"
            },
            {
              "internalType": "uint256",
              "name": "class",
              "type": "uint256"
            },
            {
              "internalType": "uint256",
              "name": "hpPerVitalityPoint",
              "type": "uint256"
            },
            {
              "internalType": "uint256",
              "name": "manaPerEnergyPoint",
              "type": "uint256"
            },
            {
              "internalType": "uint256",
              "name": "hpIncreasePerLevel",
              "type": "uint256"
            },
            {
              "internalType": "uint256",
              "name": "manaIncreasePerLevel",
              "type": "uint256"
            },
            {
              "internalType": "uint256",
              "name": "statPointsPerLevel",
              "type": "uint256"
            },
            {
              "internalType": "uint256",
              "name": "attackSpeed",
              "type": "uint256"
            },
            {
              "internalType": "uint256",
              "name": "agilityPointsPerSpeed",
              "type": "uint256"
            },
            {
              "internalType": "uint256",
              "name": "isNpc",
              "type": "uint256"
            },
            {
              "internalType": "uint256",
              "name": "dropRarityLevel",
              "type": "uint256"
            },
            {
              "internalType": "uint256",
              "name": "helmSlot",
              "type": "uint256"
            },
            {
              "internalType": "uint256",
              "name": "armourSlot",
              "type": "uint256"
            },
            {
              "internalType": "uint256",
              "name": "pantsSlot",
              "type": "uint256"
            },
            {
              "internalType": "uint256",
              "name": "glovesSlot",
              "type": "uint256"
            },
            {
              "internalType": "uint256",
              "name": "bootsSlot",
              "type": "uint256"
            },
            {
              "internalType": "uint256",
              "name": "leftHandSlot",
              "type": "uint256"
            },
            {
              "internalType": "uint256",
              "name": "rightHandSlot",
              "type": "uint256"
            },
            {
              "internalType": "uint256",
              "name": "leftRingSlot",
              "type": "uint256"
            },
            {
              "internalType": "uint256",
              "name": "rightRingSlot",
              "type": "uint256"
            },
            {
              "internalType": "uint256",
              "name": "pendSlot",
              "type": "uint256"
            },
            {
              "internalType": "uint256",
              "name": "wingsSlot",
              "type": "uint256"
            }
          ],
          "internalType": "struct FighterAttributes.Attributes",
          "name": "",
          "type": "tuple"
        }
      ],
      "stateMutability": "view",
      "type": "function",
      "constant": true
    },
    {
      "inputs": [
        {
          "internalType": "uint256",
          "name": "tokenId",
          "type": "uint256"
        }
      ],
      "name": "getOwner",
      "outputs": [
        {
          "internalType": "address",
          "name": "",
          "type": "address"
        }
      ],
      "stateMutability": "view",
      "type": "function",
      "constant": true
    },
    {
      "inputs": [
        {
          "internalType": "uint256",
          "name": "tokenId",
          "type": "uint256"
        }
      ],
      "name": "getDropRarityLevel",
      "outputs": [
        {
          "internalType": "uint256",
          "name": "",
          "type": "uint256"
        }
      ],
      "stateMutability": "view",
      "type": "function",
      "constant": true
    },
    {
      "inputs": [
        {
          "internalType": "uint256",
          "name": "tokenId",
          "type": "uint256"
        },
        {
          "internalType": "uint256",
          "name": "addExp",
          "type": "uint256"
        }
      ],
      "name": "increaseExperience",
      "outputs": [],
      "stateMutability": "nonpayable",
      "type": "function"
    },
    {
      "inputs": [
        {
          "internalType": "uint256",
          "name": "tokenId",
          "type": "uint256"
        }
      ],
      "name": "getMaxHealth",
      "outputs": [
        {
          "internalType": "uint256",
          "name": "",
          "type": "uint256"
        }
      ],
      "stateMutability": "view",
      "type": "function",
      "constant": true
    },
    {
      "inputs": [
        {
          "internalType": "uint256",
          "name": "tokenId",
          "type": "uint256"
        }
      ],
      "name": "getMaxMana",
      "outputs": [
        {
          "internalType": "uint256",
          "name": "",
          "type": "uint256"
        }
      ],
      "stateMutability": "view",
      "type": "function",
      "constant": true
    },
    {
      "inputs": [
        {
          "internalType": "uint256",
          "name": "tokenId",
          "type": "uint256"
        }
      ],
      "name": "getFighterStats",
      "outputs": [
        {
          "components": [
            {
              "internalType": "uint256",
              "name": "tokenId",
              "type": "uint256"
            },
            {
              "internalType": "uint256",
              "name": "maxHealth",
              "type": "uint256"
            },
            {
              "internalType": "uint256",
              "name": "maxMana",
              "type": "uint256"
            },
            {
              "internalType": "uint256",
              "name": "level",
              "type": "uint256"
            },
            {
              "internalType": "uint256",
              "name": "exp",
              "type": "uint256"
            },
            {
              "internalType": "uint256",
              "name": "totalStatPoints",
              "type": "uint256"
            },
            {
              "internalType": "uint256",
              "name": "maxStatPoints",
              "type": "uint256"
            }
          ],
          "internalType": "struct FighterAttributes.FighterStats",
          "name": "",
          "type": "tuple"
        }
      ],
      "stateMutability": "view",
      "type": "function",
      "constant": true
    },
    {
      "inputs": [
        {
          "internalType": "uint256",
          "name": "tokenId",
          "type": "uint256"
        }
      ],
      "name": "getExperience",
      "outputs": [
        {
          "internalType": "uint256",
          "name": "",
          "type": "uint256"
        }
      ],
      "stateMutability": "view",
      "type": "function",
      "constant": true
    },
    {
      "inputs": [
        {
          "internalType": "uint256",
          "name": "tokenId",
          "type": "uint256"
        }
      ],
      "name": "getLevel",
      "outputs": [
        {
          "internalType": "uint256",
          "name": "",
          "type": "uint256"
        }
      ],
      "stateMutability": "view",
      "type": "function",
      "constant": true
    },
    {
      "inputs": [
        {
          "internalType": "uint256",
          "name": "level",
          "type": "uint256"
        }
      ],
      "name": "getExpFromLevel",
      "outputs": [
        {
          "internalType": "uint256",
          "name": "",
          "type": "uint256"
        }
      ],
      "stateMutability": "view",
      "type": "function",
      "constant": true
    },
    {
      "inputs": [
        {
          "internalType": "uint256",
          "name": "val",
          "type": "uint256"
        }
      ],
      "name": "setHealthRegenerationDivider",
      "outputs": [],
      "stateMutability": "nonpayable",
      "type": "function"
    },
    {
      "inputs": [
        {
          "internalType": "uint256",
          "name": "val",
          "type": "uint256"
        }
      ],
      "name": "setManaRegenerationDivider",
      "outputs": [],
      "stateMutability": "nonpayable",
      "type": "function"
    },
    {
      "inputs": [
        {
          "internalType": "uint256",
          "name": "val",
          "type": "uint256"
        }
      ],
      "name": "setAgilityPerDefence",
      "outputs": [],
      "stateMutability": "nonpayable",
      "type": "function"
    },
    {
      "inputs": [
        {
          "internalType": "uint256",
          "name": "val",
          "type": "uint256"
        }
      ],
      "name": "setStrengthPerDamage",
      "outputs": [],
      "stateMutability": "nonpayable",
      "type": "function"
    },
    {
      "inputs": [
        {
          "internalType": "uint256",
          "name": "val",
          "type": "uint256"
        }
      ],
      "name": "setEnergyPerDamage",
      "outputs": [],
      "stateMutability": "nonpayable",
      "type": "function"
    },
    {
      "inputs": [
        {
          "internalType": "uint256",
          "name": "val",
          "type": "uint256"
        }
      ],
      "name": "setMaxExperience",
      "outputs": [],
      "stateMutability": "nonpayable",
      "type": "function"
    },
    {
      "inputs": [
        {
          "internalType": "uint256",
          "name": "val",
          "type": "uint256"
        }
      ],
      "name": "setExperienceDivider",
      "outputs": [],
      "stateMutability": "nonpayable",
      "type": "function"
    },
    {
      "inputs": [
        {
          "internalType": "uint256",
          "name": "a",
          "type": "uint256"
        },
        {
          "internalType": "uint256",
          "name": "b",
          "type": "uint256"
        }
      ],
      "name": "safeMul",
      "outputs": [
        {
          "internalType": "uint256",
          "name": "",
          "type": "uint256"
        }
      ],
      "stateMutability": "view",
      "type": "function",
      "constant": true
    },
    {
      "inputs": [
        {
          "internalType": "uint256",
          "name": "a",
          "type": "uint256"
        },
        {
          "internalType": "uint256",
          "name": "b",
          "type": "uint256"
        }
      ],
      "name": "safeSub",
      "outputs": [
        {
          "internalType": "uint256",
          "name": "",
          "type": "uint256"
        }
      ],
      "stateMutability": "view",
      "type": "function",
      "constant": true
    },
    {
      "inputs": [
        {
          "internalType": "uint256",
          "name": "a",
          "type": "uint256"
        },
        {
          "internalType": "uint256",
          "name": "b",
          "type": "uint256"
        }
      ],
      "name": "safeAdd",
      "outputs": [
        {
          "internalType": "uint256",
          "name": "",
          "type": "uint256"
        }
      ],
      "stateMutability": "view",
      "type": "function",
      "constant": true
    }
  ],
  "bytecode": "0x60806040526008600a556008600b556004600c556008600d556008600e5563115d88a4600f5560056010553480156200003757600080fd5b5060405180604001604052806007815260200166436f6d6261747360c81b815250604051806040016040528060078152602001662334b3b43a32b960c91b815250816000908162000089919062000a34565b50600162000098828262000a34565b50505060405180610380016040528060405180602001604052806000815250815260200160008152602001602a815260200160158152602001600581526020016014815260200160008152602001600181526020016005815260200160058152602001600581526020016001815260200160058152602001601b8152602001600781526020016000815260200160008152602001600081526020016000815260200160008152602001600081526020016000815260200160008152602001600081526020016000815260200160008152602001600081526020016000815250600660006001600481111562000191576200019162000b00565b8152602081019190915260400160002081518190620001b1908262000a34565b506020820151816001015560408201518160020155606082015181600301556080820151816004015560a0820151816005015560c0820151816006015560e082015181600701556101008201518160080155610120820151816009015561014082015181600a015561016082015181600b015561018082015181600c01556101a082015181600d01556101c082015181600e01556101e082015181600f0155610200820151816010015561022082015181601101556102408201518160120155610260820151816013015561028082015181601401556102a082015181601501556102c082015181601601556102e082015181601701556103008201518160180155610320820151816019015561034082015181601a015561036082015181601b015590505060405180610380016040528060405180602001604052806000815250815260200160008152602001600f8152602001601481526020016032815260200160148152602001600081526020016002815260200160038152602001600a8152602001600381526020016005815260200160058152602001601081526020016005815260200160008152602001600081526020016000815260200160008152602001600081526020016000815260200160008152602001600081526020016000815260200160008152602001600081526020016000815260200160008152506006600060026004811115620003cd57620003cd62000b00565b8152602081019190915260400160002081518190620003ed908262000a34565b506020820151816001015560408201518160020155606082015181600301556080820151816004015560a0820151816005015560c0820151816006015560e082015181600701556101008201518160080155610120820151816009015561014082015181600a015561016082015181600b015561018082015181600c01556101a082015181600d01556101c082015181600e01556101e082015181600f0155610200820151816010015561022082015181601101556102408201518160120155610260820151816013015561028082015181601401556102a082015181601501556102c082015181601601556102e082015181601701556103008201518160180155610320820151816019015561034082015181601a015561036082015181601b0155905050604051806103800160405280604051806020016040528060008152508152602001600081526020016014815260200160198152602001600f81526020016014815260200160008152602001600381526020016003815260200160058152602001600381526020016004815260200160058152602001600c8152602001600581526020016000815260200160008152602001600081526020016000815260200160008152602001600081526020016000815260200160008152602001600081526020016000815260200160008152602001600081526020016000815250600660006003600481111562000609576200060962000b00565b815260208101919091526040016000208151819062000629908262000a34565b506020820151816001015560408201518160020155606082015181600301556080820151816004015560a0820151816005015560c0820151816006015560e082015181600701556101008201518160080155610120820151816009015561014082015181600a015561016082015181600b015561018082015181600c01556101a082015181600d01556101c082015181600e01556101e082015181600f0155610200820151816010015561022082015181601101556102408201518160120155610260820151816013015561028082015181601401556102a082015181601501556102c082015181601601556102e082015181601701556103008201518160180155610320820151816019015561034082015181601a015561036082015181601b015590505060405180610380016040528060405180602001604052806000815250815260200160008152602001601c8152602001600e8152602001601481526020016014815260200160008152602001600481526020016004815260200160078152602001600681526020016002815260200160078152602001601781526020016007815260200160008152602001600081526020016000815260200160008152602001600081526020016000815260200160008152602001600081526020016000815260200160008152602001600081526020016000815260200160008152506006600060048081111562000844576200084462000b00565b815260208101919091526040016000208151819062000864908262000a34565b506020820151600182015560408201516002820155606082015160038201556080820151600482015560a0820151600582015560c0820151600682015560e0820151600782015561010082015160088201556101208201516009820155610140820151600a820155610160820151600b820155610180820151600c8201556101a0820151600d8201556101c0820151600e8201556101e0820151600f820155610200820151601082015561022082015160118201556102408201516012820155610260820151601382015561028082015160148201556102a082015160158201556102c082015160168201556102e0820151601782015561030082015160188201556103208201516019820155610340820151601a82015561036090910151601b9091015562000b16565b634e487b7160e01b600052604160045260246000fd5b600181811c90821680620009ba57607f821691505b602082108103620009db57634e487b7160e01b600052602260045260246000fd5b50919050565b601f82111562000a2f57600081815260208120601f850160051c8101602086101562000a0a5750805b601f850160051c820191505b8181101562000a2b5782815560010162000a16565b5050505b505050565b81516001600160401b0381111562000a505762000a506200098f565b62000a688162000a618454620009a5565b84620009e1565b602080601f83116001811462000aa0576000841562000a875750858301515b600019600386901b1c1916600185901b17855562000a2b565b600085815260208120601f198616915b8281101562000ad15788860151825594840194600190910190840162000ab0565b508582101562000af05787850151600019600388901b60f8161c191681555b5050505050600190811b01905550565b634e487b7160e01b600052602160045260246000fd5b6131e08062000b266000396000f3fe608060405234801561001057600080fd5b50600436106102485760003560e01c8063745bd4531161013b578063c77daef6116100b8578063d20a53c81161007c578063d20a53c8146105a8578063e5cbb693146105bb578063e6cb9013146105ce578063e985e9c5146105e1578063f04968be1461061d57600080fd5b8063c77daef614610549578063c87b56dd1461055c578063cb0830411461056f578063d05c78da14610582578063d1e5ef571461059557600080fd5b8063a293d1e8116100ff578063a293d1e8146104ea578063b1ca2106146104fd578063b737953114610510578063b88d4fde14610523578063c41a360a1461053657600080fd5b8063745bd4531461047b578063822fbf581461048e57806386481d40146104bc57806395d89b41146104cf578063a22cb465146104d757600080fd5b806342842e0e116101c9578063688f30ac1161018d578063688f30ac1461041c5780636ae15f761461042f5780636d9cbb4e1461044257806370a0823114610455578063744c1d691461046857600080fd5b806342842e0e1461036757806343c6916b1461037a57806355af86c41461038d5780636352211e146103f65780636599273f1461040957600080fd5b806317a405761161021057806317a40576146102dd5780631f4f5a23146102f057806323b872dd14610310578063243a7c7b1461032357806339f4fa5f1461033657600080fd5b806301ffc9a71461024d57806306fdde0314610275578063081812fc1461028a578063095ea7b3146102b55780630b1f15cd146102ca575b600080fd5b61026061025b366004612800565b610630565b60405190151581526020015b60405180910390f35b61027d610682565b60405161026c919061286d565b61029d610298366004612880565b610714565b6040516001600160a01b03909116815260200161026c565b6102c86102c33660046128b0565b61073b565b005b6102c86102d8366004612880565b610855565b6102c86102eb366004612880565b610891565b6103036102fe366004612880565b6108c6565b60405161026c91906128da565b6102c861031e366004612a58565b610b7f565b6102c8610331366004612a94565b610bb0565b610359610344366004612880565b60009081526007602052604090206010015490565b60405190815260200161026c565b6102c8610375366004612a58565b610c17565b610359610388366004612880565b610c32565b6103a061039b366004612880565b610cb3565b60405161026c9190600060e082019050825182526020830151602083015260408301516040830152606083015160608301526080830151608083015260a083015160a083015260c083015160c083015292915050565b61029d610404366004612880565b610d83565b6102c8610417366004612880565b610de3565b6102c861042a366004612880565b610e18565b6102c861043d366004612880565b610e4d565b610359610450366004612880565b610e82565b610359610463366004612ab6565b610eef565b610359610476366004612b1a565b610f75565b6102c8610489366004612880565b611114565b61026061049c366004612c23565b805160208183018101805160088252928201919093012091525460ff1681565b6103596104ca366004612880565b611149565b61027d6111c2565b6102c86104e5366004612c6c565b6111d1565b6103596104f8366004612a94565b6111e0565b61035961050b366004612880565b61122d565b6102c861051e366004612ca8565b61126a565b6102c8610531366004612cd4565b6114c9565b61029d610544366004612880565b611501565b610359610557366004612880565b61150c565b61027d61056a366004612880565b61157b565b6102c861057d366004612880565b6115ee565b610359610590366004612a94565b611623565b6102c86105a3366004612d50565b611684565b6103596105b6366004612880565b61195b565b6103596105c9366004612d8b565b61198f565b6103596105dc366004612a94565b611cf0565b6102606105ef366004612de6565b6001600160a01b03918216600090815260056020908152604080832093909416825291909152205460ff1690565b61035961062b366004612880565b611d4c565b60006001600160e01b031982166380ac58cd60e01b148061066157506001600160e01b03198216635b5e139f60e01b145b8061067c57506301ffc9a760e01b6001600160e01b03198316145b92915050565b60606000805461069190612e19565b80601f01602080910402602001604051908101604052809291908181526020018280546106bd90612e19565b801561070a5780601f106106df5761010080835404028352916020019161070a565b820191906000526020600020905b8154815290600101906020018083116106ed57829003601f168201915b5050505050905090565b600061071f82611d8d565b506000908152600460205260409020546001600160a01b031690565b600061074682610d83565b9050806001600160a01b0316836001600160a01b0316036107b85760405162461bcd60e51b815260206004820152602160248201527f4552433732313a20617070726f76616c20746f2063757272656e74206f776e656044820152603960f91b60648201526084015b60405180910390fd5b336001600160a01b03821614806107d457506107d481336105ef565b6108465760405162461bcd60e51b815260206004820152603d60248201527f4552433732313a20617070726f76652063616c6c6572206973206e6f7420746f60448201527f6b656e206f776e6572206f7220617070726f76656420666f7220616c6c00000060648201526084016107af565b6108508383611de0565b505050565b600d8190556040518181527f2709c3545e934f71bad88a10628cfcb26544abef6d319e025dafcfaa8ecd371b906020015b60405180910390a150565b600e8190556040518181527f8bc6f507740334e03eb54c47352da054221b790b05465e2e8abf2c6e2bd9fd1090602001610886565b61099a604051806103800160405280606081526020016000815260200160008152602001600081526020016000815260200160008152602001600081526020016000815260200160008152602001600081526020016000815260200160008152602001600081526020016000815260200160008152602001600081526020016000815260200160008152602001600081526020016000815260200160008152602001600081526020016000815260200160008152602001600081526020016000815260200160008152602001600081525090565b6109a382611e4e565b6109bf5760405162461bcd60e51b81526004016107af90612e4d565b60008281526007602052604090819020815161038081019092528054829082906109e890612e19565b80601f0160208091040260200160405190810160405280929190818152602001828054610a1490612e19565b8015610a615780601f10610a3657610100808354040283529160200191610a61565b820191906000526020600020905b815481529060010190602001808311610a4457829003601f168201915b50505050508152602001600182015481526020016002820154815260200160038201548152602001600482015481526020016005820154815260200160068201548152602001600782015481526020016008820154815260200160098201548152602001600a8201548152602001600b8201548152602001600c8201548152602001600d8201548152602001600e8201548152602001600f820154815260200160108201548152602001601182015481526020016012820154815260200160138201548152602001601482015481526020016015820154815260200160168201548152602001601782015481526020016018820154815260200160198201548152602001601a8201548152602001601b820154815250509050919050565b610b893382611e6b565b610ba55760405162461bcd60e51b81526004016107af90612e7b565b610850838383611ee9565b610bb982611e4e565b610bd55760405162461bcd60e51b81526004016107af90612e4d565b600f54600083815260076020526040902060060154610bfe9190610bf99084611cf0565b61204d565b6000928352600760205260409092206006019190915550565b610850838383604051806020016040528060008152506114c9565b60008181526007602081815260408084209092015483526006905281206002810154600382015460048301546005909301548493610c7893926105dc9290918391611cf0565b90506000610c9f610c8885611149565b6000868152600760205260409020600c0154611623565b9050610cab8282611cf0565b949350505050565b610cf36040518060e00160405280600081526020016000815260200160008152602001600081526020016000815260200160008152602001600081525090565b610cfc82611e4e565b610d185760405162461bcd60e51b81526004016107af90612e4d565b60006040518060e00160405280848152602001610d348561150c565b8152602001610d4285610e82565b8152602001610d5085611149565b8152602001610d5e8561122d565b8152602001610d6c8561195b565b8152602001610d7a85610c32565b90529392505050565b6000818152600260205260408120546001600160a01b03168061067c5760405162461bcd60e51b8152602060048201526018602482015277115490cdcc8c4e881a5b9d985b1a59081d1bdad95b88125160421b60448201526064016107af565b600c8190556040518181527f8e5252d2d2f885f4bae3553bbe34c3630f9274028f3c343ce0eac0dd710c6a0390602001610886565b600f8190556040518181527f8b92a2a371ec2af95aa1740562d5031b28f403d2780beaecdce6befd43667fb890602001610886565b600b8190556040518181527f0665124c1d0c6d84ba8a4d99cb0c2a03455171ce7503623c6cceb9da5bbd7a9190602001610886565b6000610e8d82611e4e565b610ea95760405162461bcd60e51b81526004016107af90612e4d565b6000828152600760205260408120600b8101546009820154600490920154909290610ee690610ed9908490611623565b6105dc8561059089611149565b95945050505050565b60006001600160a01b038216610f595760405162461bcd60e51b815260206004820152602960248201527f4552433732313a2061646472657373207a65726f206973206e6f7420612076616044820152683634b21037bbb732b960b91b60648201526084016107af565b506001600160a01b031660009081526003602052604090205490565b6000806040518061038001604052808c8c8080601f01602080910402602001604051908101604052809392919081815260200183838082843760009201829052509385525050506020820152604081018b9052606081018a90526080810189905260a0810188905260c001610fe986611d4c565b81526020016000815260200160008152602001600081526020016000815260200160008152602001600081526020018681526020016000815260200160018152602001848152602001600081526020016000815260200160008152602001600081526020016000815260200160008152602001600081526020016000815260200160008152602001600081526020016000815250905061108d600980546001019055565b600061109860095490565b90506110a43382612063565b6110ae818361207d565b6000818152600760205260408082206001018390555133917fe6ad03ae09e6216384922d74b5734a0ebc9aa6de15bcd7d61ed9999ba2cb1df5916110fd9185825260ff16602082015260400190565b60405180910390a29b9a5050505050505050505050565b60108190556040518181527f0dbed17fa1cbd28e0338d43e05619d042b9ca1ac23a9d5383ebe0ab7049ff16e90602001610886565b600061115482611e4e565b6111705760405162461bcd60e51b81526004016107af90612e4d565b600082815260076020526040902060060154601054600a906111b1906111aa906111a59061119e9086611623565b607d611cf0565b6121ea565b60056111e0565b6111bb9190612ede565b9392505050565b60606001805461069190612e19565b6111dc33838361225a565b5050565b6000828211156112235760405162461bcd60e51b815260206004820152600e60248201526d1cd8599954dd588811985a5b195960921b60448201526064016107af565b6111bb8284612f00565b600061123882611e4e565b6112545760405162461bcd60e51b81526004016107af90612e4d565b5060009081526007602052604090206006015490565b61127383611e4e565b6112b55760405162461bcd60e51b815260206004820152601360248201527210da185c88191bd95cc81b9bdd08195e1a5cdd606a1b60448201526064016107af565b336112bf84610d83565b6001600160a01b0316146113055760405162461bcd60e51b815260206004820152600d60248201526c1058d8d95cdcc811195b9a5959609a1b60448201526064016107af565b600081116113445760405162461bcd60e51b815260206004820152600c60248201526b125b9d985b1a59081cdb1bdd60a21b60448201526064016107af565b806001036113615760008381526007602052604090206011018290555b8060020361137e5760008381526007602052604090206012018290555b8060030361139b5760008381526007602052604090206013018290555b806004036113b85760008381526007602052604090206014018290555b806005036113d55760008381526007602052604090206015018290555b806006036113f25760008381526007602052604090206016018290555b8060070361140f5760008381526007602052604090206017018290555b8060080361142c5760008381526007602052604090206018018290555b806009036114495760008381526007602052604090206019018290555b80600a03611466576000838152600760205260409020601a018290555b80600b03611483576000838152600760205260409020601b018290555b60408051848152602081018490529081018290527f4d71ce238d1218a1f21de645b44d8d791c8c42f634ae4b7a576c6c548ddb639d9060600160405180910390a1505050565b6114d33383611e6b565b6114ef5760405162461bcd60e51b81526004016107af90612e7b565b6114fb84848484612328565b50505050565b600061067c82610d83565b600061151782611e4e565b6115335760405162461bcd60e51b81526004016107af90612e4d565b6000828152600760205260408120600a8101546008909101549091610ee661155e8461059088611149565b6000878152600760205260409020600501546105dc908590611623565b606061158682611d8d565b600061159d60408051602081019091526000815290565b905060008151116115bd57604051806020016040528060008152506111bb565b806115c78461235b565b6040516020016115d8929190612f13565b6040516020818303038152906040529392505050565b600a8190556040518181527f3dc2199ccebb6b521944bbb446fd55ec36fc6b23c37808e7304ac55d535d3ac490602001610886565b6000806116308385612f42565b90508315806116475750826116458583612ede565b145b6111bb5760405162461bcd60e51b815260206004820152600e60248201526d1cd85999535d5b0811985a5b195960921b60448201526064016107af565b3361168e86610d83565b6001600160a01b0316146116d45760405162461bcd60e51b815260206004820152600d60248201526c1058d8d95cdcc811195b9a5959609a1b60448201526064016107af565b6000858152600760205260409020600201548410156117355760405162461bcd60e51b815260206004820152601b60248201527f537472656e6774682063616e277420626520646563726561736564000000000060448201526064016107af565b6000858152600760205260409020600301548310156117965760405162461bcd60e51b815260206004820152601a60248201527f4167696c6974792063616e27742062652064656372656173656400000000000060448201526064016107af565b6000858152600760205260409020600401548210156117f75760405162461bcd60e51b815260206004820152601960248201527f456e657267792063616e2774206265206465637265617365640000000000000060448201526064016107af565b6000858152600760205260409020600501548110156118585760405162461bcd60e51b815260206004820152601b60248201527f566974616c6974792063616e277420626520646563726561736564000000000060448201526064016107af565b600061186386610c32565b905060006118708761195b565b90506000611886876105dc886105dc8989611cf0565b9050828111156118d85760405162461bcd60e51b815260206004820152601e60248201527f547279696e6720746f6f2061646420746f6f206d616e7920706f696e7473000060448201526064016107af565b600088815260076020908152604091829020600281018a9055600381018990556004810188905560050186905581518a815290810189905290810187905260608101869052608081018590527f9e28895821cef6daa08da1e82406e8be9675974fd115ccca84e332e6c15cff8f9060a00160405180910390a15050505050505050565b600081815260076020526040812060028101546003820154600483015460059093015461067c936105dc9291839190611cf0565b6000808260048111156119a4576119a4612f59565b036119e95760405162461bcd60e51b8152602060048201526015602482015274496e76616c6964206669676874657220636c61737360581b60448201526064016107af565b600884846040516119fb929190612f6f565b9081526040519081900360200190205460ff1615611a485760405162461bcd60e51b815260206004820152600a6024820152692730b6b2903a30b5b2b760b11b60448201526064016107af565b600060066000846004811115611a6057611a60612f59565b815260200190815260200160002060405180610380016040529081600082018054611a8a90612e19565b80601f0160208091040260200160405190810160405280929190818152602001828054611ab690612e19565b8015611b035780601f10611ad857610100808354040283529160200191611b03565b820191906000526020600020905b815481529060010190602001808311611ae657829003601f168201915b50505050508152602001600182015481526020016002820154815260200160038201548152602001600482015481526020016005820154815260200160068201548152602001600782015481526020016008820154815260200160098201548152602001600a8201548152602001600b8201548152602001600c8201548152602001600d8201548152602001600e8201548152602001600f820154815260200160108201548152602001601182015481526020016012820154815260200160138201548152602001601482015481526020016015820154815260200160168201548152602001601782015481526020016018820154815260200160198201548152602001601a8201548152602001601b82015481525050905084848080601f016020809104026020016040519081016040528093929190818152602001838380828437600092019190915250505090825250611c63600980546001019055565b6000611c6e60095490565b9050611c7a3382612063565b611c84818361207d565b6000818152600760205260409020600101819055337ffa7343ad709ac91d3c10902ecf30b0048166ea21049de84c532bc3dfdf8c6f0e82866004811115611ccd57611ccd612f59565b6040805192835260ff90911660208301520160405180910390a295945050505050565b600080611cfd8385612f7f565b9050838110158015611d0f5750828110155b6111bb5760405162461bcd60e51b815260206004820152600e60248201526d1cd859995059190811985a5b195960921b60448201526064016107af565b600080611d656005611d5f85600a6123ee565b906123fa565b9050611d72816002612406565b6010549091506111bb90611d8783607d612459565b90612465565b611d9681611e4e565b611ddd5760405162461bcd60e51b8152602060048201526018602482015277115490cdcc8c4e881a5b9d985b1a59081d1bdad95b88125160421b60448201526064016107af565b50565b600081815260046020526040902080546001600160a01b0319166001600160a01b0384169081179091558190611e1582610d83565b6001600160a01b03167f8c5be1e5ebec7d5bd14f71427d1e84f3dd0314c0f7b2291e5b200ac8c7c3b92560405160405180910390a45050565b6000908152600260205260409020546001600160a01b0316151590565b600080611e7783610d83565b9050806001600160a01b0316846001600160a01b03161480611ebe57506001600160a01b0380821660009081526005602090815260408083209388168352929052205460ff165b80610cab5750836001600160a01b0316611ed784610714565b6001600160a01b031614949350505050565b826001600160a01b0316611efc82610d83565b6001600160a01b031614611f225760405162461bcd60e51b81526004016107af90612f92565b6001600160a01b038216611f845760405162461bcd60e51b8152602060048201526024808201527f4552433732313a207472616e7366657220746f20746865207a65726f206164646044820152637265737360e01b60648201526084016107af565b826001600160a01b0316611f9782610d83565b6001600160a01b031614611fbd5760405162461bcd60e51b81526004016107af90612f92565b600081815260046020908152604080832080546001600160a01b03199081169091556001600160a01b0387811680865260038552838620805460001901905590871680865283862080546001019055868652600290945282852080549092168417909155905184937fddf252ad1be2c89b69c2b068fc378daa952ba7f163c4a11628f55a4df523b3ef91a4505050565b600081831061205c57816111bb565b5090919050565b6111dc828260405180602001604052806000815250612471565b61208682611e4e565b6120a25760405162461bcd60e51b81526004016107af90612e4d565b6000828152600760205260409020815182919081906120c19082613025565b506020820151600182015560408201516002820155606082015160038201556080820151600482015560a0820151600582015560c0820151600682015560e0820151600782015561010082015160088201556101208201516009820155610140820151600a820155610160820151600b820155610180820151600c8201556101a0820151600d8201556101c0820151600e8201556101e0820151600f820155610200820151601082015561022082015160118201556102408201516012820155610260820151601382015561028082015160148201556102a082015160158201556102c082015160168201556102e0820151601782015561030082015160188201556103208201516019820155610340820151601a82015561036090910151601b909101555050565b6000600382111561224b5750806000612204600283612ede565b61220f906001612f7f565b90505b818110156122455790508060028161222a8186612ede565b6122349190612f7f565b61223e9190612ede565b9050612212565b50919050565b8115612255575060015b919050565b816001600160a01b0316836001600160a01b0316036122bb5760405162461bcd60e51b815260206004820152601960248201527f4552433732313a20617070726f766520746f2063616c6c65720000000000000060448201526064016107af565b6001600160a01b03838116600081815260056020908152604080832094871680845294825291829020805460ff191686151590811790915591519182527f17307eab39ab6107e8899845ad3d59bd9653f200f220920489ca2b5937696c31910160405180910390a3505050565b612333848484611ee9565b61233f848484846124a4565b6114fb5760405162461bcd60e51b81526004016107af906130e5565b60606000612368836125a5565b600101905060008167ffffffffffffffff81111561238857612388612b97565b6040519080825280601f01601f1916602001820160405280156123b2576020820181803683370190505b5090508181016020015b600019016f181899199a1a9b1b9c1cb0b131b232b360811b600a86061a8153600a85049450846123bc57509392505050565b60006111bb8284612f42565b60006111bb8284612f7f565b6000816000036124185750600161067c565b8160010361242757508161067c565b8260015b838110156124515761243d82866123ee565b91508061244981613137565b91505061242b565b509392505050565b60006111bb8284612f00565b60006111bb8284612ede565b61247b838361267d565b61248860008484846124a4565b6108505760405162461bcd60e51b81526004016107af906130e5565b60006001600160a01b0384163b1561259a57604051630a85bd0160e11b81526001600160a01b0385169063150b7a02906124e8903390899088908890600401613150565b6020604051808303816000875af1925050508015612523575060408051601f3d908101601f191682019092526125209181019061318d565b60015b612580573d808015612551576040519150601f19603f3d011682016040523d82523d6000602084013e612556565b606091505b5080516000036125785760405162461bcd60e51b81526004016107af906130e5565b805181602001fd5b6001600160e01b031916630a85bd0160e11b149050610cab565b506001949350505050565b60008072184f03e93ff9f4daa797ed6e38ed64bf6a1f0160401b83106125e45772184f03e93ff9f4daa797ed6e38ed64bf6a1f0160401b830492506040015b6d04ee2d6d415b85acef81000000008310612610576d04ee2d6d415b85acef8100000000830492506020015b662386f26fc10000831061262e57662386f26fc10000830492506010015b6305f5e1008310612646576305f5e100830492506008015b612710831061265a57612710830492506004015b6064831061266c576064830492506002015b600a831061067c5760010192915050565b6001600160a01b0382166126d35760405162461bcd60e51b815260206004820181905260248201527f4552433732313a206d696e7420746f20746865207a65726f206164647265737360448201526064016107af565b6126dc81611e4e565b156127295760405162461bcd60e51b815260206004820152601c60248201527f4552433732313a20746f6b656e20616c7265616479206d696e7465640000000060448201526064016107af565b61273281611e4e565b1561277f5760405162461bcd60e51b815260206004820152601c60248201527f4552433732313a20746f6b656e20616c7265616479206d696e7465640000000060448201526064016107af565b6001600160a01b038216600081815260036020908152604080832080546001019055848352600290915280822080546001600160a01b0319168417905551839291907fddf252ad1be2c89b69c2b068fc378daa952ba7f163c4a11628f55a4df523b3ef908290a45050565b6001600160e01b031981168114611ddd57600080fd5b60006020828403121561281257600080fd5b81356111bb816127ea565b60005b83811015612838578181015183820152602001612820565b50506000910152565b6000815180845261285981602086016020860161281d565b601f01601f19169290920160200192915050565b6020815260006111bb6020830184612841565b60006020828403121561289257600080fd5b5035919050565b80356001600160a01b038116811461225557600080fd5b600080604083850312156128c357600080fd5b6128cc83612899565b946020939093013593505050565b60208152600082516103808060208501526128f96103a0850183612841565b602086015160408681019190915286015160608087019190915286015160808087019190915286015160a08087019190915286015160c08087019190915286015160e08087019190915286015161010080870191909152860151610120808701919091528601516101408087019190915286015161016080870191909152860151610180808701919091528601516101a0808701919091528601516101c0808701919091528601516101e08087019190915286015161020080870191909152860151610220808701919091528601516102408087019190915286015161026080870191909152860151610280808701919091528601516102a0808701919091528601516102c0808701919091528601516102e08087019190915286015161030080870191909152860151610320808701919091528601516103408087019190915286015161036080870191909152909501519301929092525090919050565b600080600060608486031215612a6d57600080fd5b612a7684612899565b9250612a8460208501612899565b9150604084013590509250925092565b60008060408385031215612aa757600080fd5b50508035926020909101359150565b600060208284031215612ac857600080fd5b6111bb82612899565b60008083601f840112612ae357600080fd5b50813567ffffffffffffffff811115612afb57600080fd5b602083019150836020828501011115612b1357600080fd5b9250929050565b60008060008060008060008060006101008a8c031215612b3957600080fd5b893567ffffffffffffffff811115612b5057600080fd5b612b5c8c828d01612ad1565b909d909c5060208c01359b60408101359b5060608101359a506080810135995060a0810135985060c0810135975060e0013595509350505050565b634e487b7160e01b600052604160045260246000fd5b600067ffffffffffffffff80841115612bc857612bc8612b97565b604051601f8501601f19908116603f01168101908282118183101715612bf057612bf0612b97565b81604052809350858152868686011115612c0957600080fd5b858560208301376000602087830101525050509392505050565b600060208284031215612c3557600080fd5b813567ffffffffffffffff811115612c4c57600080fd5b8201601f81018413612c5d57600080fd5b610cab84823560208401612bad565b60008060408385031215612c7f57600080fd5b612c8883612899565b915060208301358015158114612c9d57600080fd5b809150509250929050565b600080600060608486031215612cbd57600080fd5b505081359360208301359350604090920135919050565b60008060008060808587031215612cea57600080fd5b612cf385612899565b9350612d0160208601612899565b925060408501359150606085013567ffffffffffffffff811115612d2457600080fd5b8501601f81018713612d3557600080fd5b612d4487823560208401612bad565b91505092959194509250565b600080600080600060a08688031215612d6857600080fd5b505083359560208501359550604085013594606081013594506080013592509050565b600080600060408486031215612da057600080fd5b833567ffffffffffffffff811115612db757600080fd5b612dc386828701612ad1565b909450925050602084013560058110612ddb57600080fd5b809150509250925092565b60008060408385031215612df957600080fd5b612e0283612899565b9150612e1060208401612899565b90509250929050565b600181811c90821680612e2d57607f821691505b60208210810361224557634e487b7160e01b600052602260045260246000fd5b602080825260149082015273151bdad95b88191bd95cc81b9bdd08195e1a5cdd60621b604082015260600190565b6020808252602d908201527f4552433732313a2063616c6c6572206973206e6f7420746f6b656e206f776e6560408201526c1c881bdc88185c1c1c9bdd9959609a1b606082015260800190565b634e487b7160e01b600052601160045260246000fd5b600082612efb57634e487b7160e01b600052601260045260246000fd5b500490565b8181038181111561067c5761067c612ec8565b60008351612f2581846020880161281d565b835190830190612f3981836020880161281d565b01949350505050565b808202811582820484141761067c5761067c612ec8565b634e487b7160e01b600052602160045260246000fd5b8183823760009101908152919050565b8082018082111561067c5761067c612ec8565b60208082526025908201527f4552433732313a207472616e736665722066726f6d20696e636f72726563742060408201526437bbb732b960d91b606082015260800190565b601f82111561085057600081815260208120601f850160051c81016020861015612ffe5750805b601f850160051c820191505b8181101561301d5782815560010161300a565b505050505050565b815167ffffffffffffffff81111561303f5761303f612b97565b6130538161304d8454612e19565b84612fd7565b602080601f83116001811461308857600084156130705750858301515b600019600386901b1c1916600185901b17855561301d565b600085815260208120601f198616915b828110156130b757888601518255948401946001909101908401613098565b50858210156130d55787850151600019600388901b60f8161c191681555b5050505050600190811b01905550565b60208082526032908201527f4552433732313a207472616e7366657220746f206e6f6e20455243373231526560408201527131b2b4bb32b91034b6b83632b6b2b73a32b960711b606082015260800190565b60006001820161314957613149612ec8565b5060010190565b6001600160a01b038581168252841660208201526040810183905260806060820181905260009061318390830184612841565b9695505050505050565b60006020828403121561319f57600080fd5b81516111bb816127ea56fea2646970667358221220accde9d6addc9b32539f9456d9d77ae7e7cbdcc74810de7e0c58220688b255d564736f6c63430008130033",
  "immutableReferences": {},
  "source": "// SPDX-License-Identifier: MIT\npragma solidity ^0.8.18;\n\nimport \"@openzeppelin/contracts/token/ERC721/ERC721.sol\";\nimport \"@openzeppelin/contracts/utils/Counters.sol\";\nimport \"@openzeppelin/contracts/utils/math/SafeMath.sol\";\n\ncontract FighterAttributes is ERC721 {\n    using Counters for Counters.Counter;\n    using SafeMath for uint256;\n\n    // Class enumeration\n    enum FighterClass {\n        None,\n        DarkKnight,\n        DarkWizard,\n        FairyElf,\n        MagicGladiator\n    }\n\n    // Struct for fighter attributes\n    struct Attributes {\n        string name;\n        uint256 tokenId;\n        uint256 strength;\n        uint256 agility;\n        uint256 energy;\n        uint256 vitality;\n        uint256 experience;\n        uint256 class;\n\n\n        uint256 hpPerVitalityPoint;\n        uint256 manaPerEnergyPoint;\n        uint256 hpIncreasePerLevel;\n        uint256 manaIncreasePerLevel;\n        uint256 statPointsPerLevel;\n        uint256 attackSpeed;\n        uint256 agilityPointsPerSpeed;\n        uint256 isNpc;\n        uint256 dropRarityLevel;\n        \n\n        // item slots\n        /*\n            1. helmet\n            2. armour\n            3. pants\n            4. gloves\n            5. boots\n            6. left hand\n            7. right hand\n            8. left ring\n            9, right ring\n            10, pendant\n            11. wings\n\n        */\n        uint256 helmSlot;\n        uint256 armourSlot;\n        uint256 pantsSlot;\n        uint256 glovesSlot;\n        uint256 bootsSlot;\n        uint256 leftHandSlot;\n        uint256 rightHandSlot;\n        uint256 leftRingSlot;\n        uint256 rightRingSlot;\n        uint256 pendSlot;\n        uint256 wingsSlot;\n        \n        \n    }\n\n    // Initial attributes by class\n    mapping (uint256 => Attributes) private _initialAttributes;\n    mapping (uint256 => Attributes) private _tokenAttributes;\n    mapping (string => bool) public names;\n\n    // Events\n    event FighterCreated(address indexed owner, uint256 tokenId, uint8 class);\n    event NPCCreated(address indexed creator, uint256 tokenId, uint8 class);\n    event StatsUpdated(uint256 tokenId, uint256 strength, uint256 agility, uint256 energy, uint256 vitality);\n    event ItemEquiped(uint256 tokenId, uint256 itemId, uint256 slot);\n\n    // Counter for token IDs\n    Counters.Counter private _tokenIdCounter;\n\n    constructor() ERC721(\"Combats\", \"Fighter\") {\n        // Set initial attributes for each class\n        _initialAttributes[uint256(FighterClass.DarkKnight)]        = Attributes(\"\", 0, 42, 21,  5, 20, 0, 1,     5,  5, 5, 1, 5, 27, 7, 0, 0,    0, 0, 0, 0, 0, 0, 0, 0, 0, 0, 0);\n        _initialAttributes[uint256(FighterClass.DarkWizard)]        = Attributes(\"\", 0, 15, 20, 50, 20, 0, 2,     3, 10, 3, 5, 5, 16, 5, 0, 0,    0, 0, 0, 0, 0, 0, 0, 0, 0, 0, 0);\n        _initialAttributes[uint256(FighterClass.FairyElf)]          = Attributes(\"\", 0, 20, 25, 15, 20, 0, 3,     3,  5, 3, 4, 5, 12, 5, 0, 0,    0, 0, 0, 0, 0, 0, 0, 0, 0, 0, 0);\n        _initialAttributes[uint256(FighterClass.MagicGladiator)]    = Attributes(\"\", 0, 28, 14, 20, 20, 0, 4,     4,  7, 6, 2, 7, 23, 7, 0, 0,    0, 0, 0, 0, 0, 0, 0, 0, 0, 0, 0);\n    }\n\n    function equipItem(uint256 tokenId, uint256 itemId, uint256 slot) external {\n        require(_exists(tokenId), \"Char does not exist\");\n        require(ownerOf(tokenId) == msg.sender, \"Access Denied\");\n        require(slot > 0, \"Invalid slot\");\n\n        if (slot == 1) _tokenAttributes[tokenId].helmSlot = itemId;\n        if (slot == 2) _tokenAttributes[tokenId].armourSlot = itemId;\n        if (slot == 3) _tokenAttributes[tokenId].pantsSlot = itemId;\n        if (slot == 4) _tokenAttributes[tokenId].glovesSlot = itemId;\n        if (slot == 5) _tokenAttributes[tokenId].bootsSlot = itemId;\n        if (slot == 6) _tokenAttributes[tokenId].leftHandSlot = itemId;\n        if (slot == 7) _tokenAttributes[tokenId].rightHandSlot = itemId;\n        if (slot == 8) _tokenAttributes[tokenId].leftRingSlot = itemId;\n        if (slot == 9) _tokenAttributes[tokenId].rightRingSlot = itemId;\n        if (slot == 10) _tokenAttributes[tokenId].pendSlot = itemId;\n        if (slot == 11) _tokenAttributes[tokenId].wingsSlot = itemId;\n\n        emit ItemEquiped(tokenId, itemId, slot);\n    }\n    \n    function updateFighterStats(uint256 tokenId, uint256 strength, uint256 agility, uint256 energy, uint256 vitality)  external  {\n        // Check msg.sender is the NFT owner\n        require(ownerOf(tokenId) == msg.sender, \"Access Denied\");\n        \n        require(strength >= _tokenAttributes[tokenId].strength, \"Strength can't be decreased\");\n        require(agility >= _tokenAttributes[tokenId].agility, \"Agility can't be decreased\");\n        require(energy >= _tokenAttributes[tokenId].energy, \"Energy can't be decreased\");\n        require(vitality >= _tokenAttributes[tokenId].vitality, \"Vitality can't be decreased\");\n\n\n        uint256 maxPoints = getMaxStatPoints(tokenId);\n        uint256 usedStatPoints = getTotalUsedStatPoints(tokenId);\n\n        uint256 newTotalStats = safeAdd(strength, safeAdd(agility, safeAdd(energy, vitality)));\n\n        require(newTotalStats <= maxPoints, \"Trying too add too many points\");\n\n        _tokenAttributes[tokenId].strength = strength;\n        _tokenAttributes[tokenId].agility = agility;\n        _tokenAttributes[tokenId].energy = energy;\n        _tokenAttributes[tokenId].vitality = vitality;\n\n        emit StatsUpdated(tokenId, strength, agility, energy, vitality);\n    }\n\n    function getMaxStatPoints(uint256 tokenId) public view returns (uint256) {\n        uint256 initialPoints = safeAdd(_initialAttributes[_tokenAttributes[tokenId].class].strength,\n                safeAdd(_initialAttributes[_tokenAttributes[tokenId].class].agility, \n                safeAdd(_initialAttributes[_tokenAttributes[tokenId].class].energy,\n                _initialAttributes[_tokenAttributes[tokenId].class].vitality)));\n\n        uint256 levelPoints = safeMul(getLevel(tokenId), _tokenAttributes[tokenId].statPointsPerLevel);\n\n        return safeAdd(initialPoints, levelPoints);\n    }\n\n    function getTotalUsedStatPoints(uint256 tokenId) public view returns (uint256) {\n        return safeAdd(_tokenAttributes[tokenId].strength,\n                safeAdd(_tokenAttributes[tokenId].agility, \n                safeAdd(_tokenAttributes[tokenId].energy,\n                _tokenAttributes[tokenId].vitality)));\n    }\n\n    // Create a new fighter NFT with initial attributes\n    function createFighter(string calldata name, FighterClass fighterClass) external returns (uint256) {\n        // Make sure the class is valid\n        require(fighterClass != FighterClass.None, \"Invalid fighter class\");\n        require(!names[name], \"Name taken\");\n\n        // Get the initial attributes for the class\n        Attributes memory initialAttrs = _initialAttributes[uint256(fighterClass)];\n        initialAttrs.name = name;\n       \n\n        // Mint the NFT with the initial attributes\n        _tokenIdCounter.increment();\n        uint256 tokenId = _tokenIdCounter.current();\n        _safeMint(msg.sender, tokenId);\n        _setTokenAttributes(tokenId, initialAttrs);\n\n        _tokenAttributes[tokenId].tokenId = tokenId;\n        \n\n        emit FighterCreated(msg.sender, tokenId, uint8(fighterClass));\n\n        return tokenId;\n    }\n\n    function createNPC(string calldata name, uint256 strength, uint256 agility, uint256 energy, uint256 vitality, uint256 attackSpeed, uint256 level, uint256 dropRarityLevel) external returns (uint256) {\n        Attributes memory atts = Attributes(name, 0, strength, agility, energy,vitality, getExpFromLevel(level), 0,        0, 0, 0, 0, 0, attackSpeed,      0, 1, dropRarityLevel,     0, 0, 0, 0, 0, 0, 0, 0, 0, 0, 0);\n        _tokenIdCounter.increment();\n        uint256 tokenId = _tokenIdCounter.current();\n        _safeMint(msg.sender, tokenId);\n        _setTokenAttributes(tokenId, atts);\n        _tokenAttributes[tokenId].tokenId = tokenId;\n\n        emit NPCCreated(msg.sender, tokenId, 0);\n\n        return tokenId;\n    }\n\n    // Get the attributes for a fighter NFT\n    function getTokenAttributes(uint256 tokenId) public view returns (Attributes memory) {\n        require(_exists(tokenId), \"Token does not exist\");\n\n        return _tokenAttributes[tokenId];\n    }\n\n    function getOwner(uint256 tokenId) public view returns (address) {\n        return ownerOf(tokenId);\n    }\n\n    function getDropRarityLevel(uint256 tokenId) public view returns (uint256) {\n        return _tokenAttributes[tokenId].dropRarityLevel;\n    }\n\n    // Set the attributes for a fighter NFT\n    function _setTokenAttributes(uint256 tokenId, Attributes memory attrs) internal {\n        require(_exists(tokenId), \"Token does not exist\");\n\n        _tokenAttributes[tokenId] = attrs;\n    }\n\n    // Increase fighter experience\n    function increaseExperience(uint256 tokenId, uint256 addExp) external  {\n        require(_exists(tokenId), \"Token does not exist\");\n\n        _tokenAttributes[tokenId].experience = min(maxExperience, safeAdd(_tokenAttributes[tokenId].experience, addExp));\n    }\n\n\n    function getMaxHealth(uint256 tokenId) public view returns (uint256) \n    {\n        require(_exists(tokenId), \"Token does not exist\");\n        uint256 increasePerLevel = 0;\n        uint256 hpPerVitalityPoint = 0;\n        uint256 vitalityPoints;\n\n        increasePerLevel = _tokenAttributes[tokenId].hpIncreasePerLevel;\n        hpPerVitalityPoint = _tokenAttributes[tokenId].hpPerVitalityPoint;\n        \n\n        return safeAdd(safeMul(increasePerLevel, getLevel(tokenId)), safeMul(hpPerVitalityPoint, _tokenAttributes[tokenId].vitality));\n    }\n\n\n    function getMaxMana(uint256 tokenId) public view returns (uint256) \n    {\n        require(_exists(tokenId), \"Token does not exist\");\n        uint256 increasePerLevel = 0;\n        uint256 mpPerEnergyPoint = 0;\n        uint256 energyPoints;\n\n        \n        increasePerLevel = _tokenAttributes[tokenId].manaIncreasePerLevel;\n        mpPerEnergyPoint = _tokenAttributes[tokenId].manaPerEnergyPoint;\n        \n\n        return safeAdd(safeMul(mpPerEnergyPoint, _tokenAttributes[tokenId].energy), safeMul(increasePerLevel, getLevel(tokenId)));\n    }\n\n    struct FighterStats {\n        uint256 tokenId;\n        uint256 maxHealth;\n        uint256 maxMana;\n        uint256 level;\n        uint256 exp;\n        uint256 totalStatPoints;\n        uint256 maxStatPoints;\n    }\n\n    function getFighterStats(uint256 tokenId) public view returns (FighterStats memory)\n    {\n        require(_exists(tokenId), \"Token does not exist\");\n        FighterStats memory stats = FighterStats({\n            tokenId: tokenId,\n            maxHealth: getMaxHealth(tokenId),\n            maxMana: getMaxMana(tokenId),\n            level: getLevel(tokenId),\n            exp: getExperience(tokenId),\n            totalStatPoints: getTotalUsedStatPoints(tokenId),\n            maxStatPoints: getMaxStatPoints(tokenId)\n        });\n\n        return stats;\n    }\n\n    function getExperience(uint256 tokenId) public view returns (uint256)\n    {\n        require(_exists(tokenId), \"Token does not exist\");\n\n        // Health = Health_After_Last_Damage + (Current Block Number - Last Damage Block Number) * Health Regeneration Rate\n        return _tokenAttributes[tokenId].experience;\n    }\n\n    // Get player level\n    function getLevel(uint256 tokenId) public view returns (uint256) \n    {\n        require(_exists(tokenId), \"Token does not exist\");\n\n        uint256 exp = _tokenAttributes[tokenId].experience;\n\n        return safeSub(sqrt(safeAdd(safeMul(experienceDivider, exp), 125)), 5) / 10;\n    }\n\n    // Reverse function for getLevel\n    function getExpFromLevel(uint256 level) public view returns (uint256) {\n        uint256 exp = level.mul(10).add(5);\n        exp = safePow(exp, 2);\n        exp = exp.sub(125).div(experienceDivider);\n        return exp;\n    }\n\n    uint256 healthRegenerationDivider = 8;\n    uint256 manaRegenerationDivider = 8;\n    uint256 agilityPerDefence = 4;\n    uint256 strengthPerDamage = 8;\n    uint256 energyPerDamage = 8;\n    uint256 maxExperience = 291342500;\n    uint256 experienceDivider = 5;\n\n\n    event updateHealthRegenerationDivider(uint256);\n    event updateManaRegenerationDivider(uint256);\n    event updateAgilityPerDefence(uint256);\n    event updateStrengthPerDamage(uint256);\n    event updateEnergyPerDamage(uint256);\n    event updateMaxExperience(uint256);\n    event updateExperienceDivider(uint256);\n    \n\n    function setHealthRegenerationDivider(uint256 val) external {\n        healthRegenerationDivider = val;\n\n        emit updateHealthRegenerationDivider(val);\n    }\n\n   function setManaRegenerationDivider(uint256 val) external {\n        manaRegenerationDivider = val;\n\n        emit updateManaRegenerationDivider(val);\n    }\n\n   function setAgilityPerDefence(uint256 val) external {\n        agilityPerDefence = val;\n\n        emit updateAgilityPerDefence(val);\n    }\n\n   function setStrengthPerDamage(uint256 val) external {\n        strengthPerDamage = val;\n\n        emit updateStrengthPerDamage(val);\n    }\n\n   function setEnergyPerDamage(uint256 val) external  {\n        energyPerDamage = val;\n\n        emit updateEnergyPerDamage(val);\n    }\n\n    function setMaxExperience(uint256 val) external  {\n        maxExperience = val;\n\n        emit updateMaxExperience(val);\n    }\n\n    function setExperienceDivider(uint256 val) external  {\n        experienceDivider = val;\n\n        emit updateExperienceDivider(val);\n    }\n\n\n\n    // Cube Root function\n    function sqrt(uint y) internal pure returns (uint z) {\n        if (y > 3) {\n            z = y;\n            uint x = y / 2 + 1;\n            while (x < z) {\n                z = x;\n                x = (y / x + x) / 2;\n            }\n        } else if (y != 0) {\n            z = 1;\n        }\n\n        return z;\n    }\n\n    // Returns the smaller of two values\n    function min(uint a, uint b) private pure returns (uint) {\n        return a < b ? a : b;\n    }\n\n    // Returns the largest of the two values\n    function max(uint a, uint b) private pure returns (uint) {\n        return a > b ? a : b;\n    }\n\n    // Safe Multiply Function - prevents integer overflow \n    function safeMul(uint a, uint b) public view returns (uint) {\n        uint c = a * b;\n        require(a == 0 || c / a == b, \"safeMul Failed\");\n        return c;\n    }\n\n    // Safe Subtraction Function - prevents integer overflow \n    function safeSub(uint a, uint b) public view returns (uint) {\n        require(b <= a, \"safeSub Failed\");\n        return a - b;\n    }\n\n    // Safe Addition Function - prevents integer overflow \n    function safeAdd(uint a, uint b) public view returns (uint) {\n        uint c = a + b;\n        require(c>=a && c>=b, \"safeAdd Failed\");\n        return c;\n    }\n\n    function safePow(uint256 base, uint256 exponent) internal pure returns (uint256) {\n        if (exponent == 0) {\n            return 1;\n        } else if (exponent == 1) {\n            return base;\n        }\n\n        uint256 result = base;\n        for (uint256 i = 1; i < exponent; i++) {\n            result = result.mul(base);\n        }\n        return result;\n    }\n}\n",
  "sourcePath": "/Users/max/Documents/prog/game-contracts/contracts/FighterAttributes.sol",
  "compiler": {
    "name": "solc",
    "version": "0.8.19+commit.7dd6d404.Emscripten.clang"
  },
  "schemaVersion": "3.4.13",
  "updatedAt": "2023-04-24T15:17:06.928Z",
  "networkType": "ethereum",
  "devdoc": {
    "events": {
      "Approval(address,address,uint256)": {
        "details": "Emitted when `owner` enables `approved` to manage the `tokenId` token."
      },
      "ApprovalForAll(address,address,bool)": {
        "details": "Emitted when `owner` enables or disables (`approved`) `operator` to manage all of its assets."
      },
      "Transfer(address,address,uint256)": {
        "details": "Emitted when `tokenId` token is transferred from `from` to `to`."
      }
    },
    "kind": "dev",
    "methods": {
      "approve(address,uint256)": {
        "details": "See {IERC721-approve}."
      },
      "balanceOf(address)": {
        "details": "See {IERC721-balanceOf}."
      },
      "getApproved(uint256)": {
        "details": "See {IERC721-getApproved}."
      },
      "isApprovedForAll(address,address)": {
        "details": "See {IERC721-isApprovedForAll}."
      },
      "name()": {
        "details": "See {IERC721Metadata-name}."
      },
      "ownerOf(uint256)": {
        "details": "See {IERC721-ownerOf}."
      },
      "safeTransferFrom(address,address,uint256)": {
        "details": "See {IERC721-safeTransferFrom}."
      },
      "safeTransferFrom(address,address,uint256,bytes)": {
        "details": "See {IERC721-safeTransferFrom}."
      },
      "setApprovalForAll(address,bool)": {
        "details": "See {IERC721-setApprovalForAll}."
      },
      "supportsInterface(bytes4)": {
        "details": "See {IERC165-supportsInterface}."
      },
      "symbol()": {
        "details": "See {IERC721Metadata-symbol}."
      },
      "tokenURI(uint256)": {
        "details": "See {IERC721Metadata-tokenURI}."
      },
      "transferFrom(address,address,uint256)": {
        "details": "See {IERC721-transferFrom}."
      }
    },
    "version": 1
  },
  "userdoc": {
    "kind": "user",
    "methods": {},
    "version": 1
  }
}