{
  "contractName": "FightersClasses",
  "abi": [
    {
      "inputs": [
        {
          "internalType": "string",
          "name": "",
          "type": "string"
        }
      ],
      "name": "FighterClasses",
      "outputs": [
        {
          "internalType": "uint256",
          "name": "baseStrength",
          "type": "uint256"
        },
        {
          "internalType": "uint256",
          "name": "baseAgility",
          "type": "uint256"
        },
        {
          "internalType": "uint256",
          "name": "baseEnergy",
          "type": "uint256"
        },
        {
          "internalType": "uint256",
          "name": "baseVitality",
          "type": "uint256"
        },
        {
          "internalType": "uint256",
          "name": "hpPerVitalityPoint",
          "type": "uint256"
        },
        {
          "internalType": "uint256",
          "name": "manaPerEnergyPoint",
          "type": "uint256"
        },
        {
          "internalType": "uint256",
          "name": "hpIncreasePerLevel",
          "type": "uint256"
        },
        {
          "internalType": "uint256",
          "name": "manaIncreasePerLevel",
          "type": "uint256"
        },
        {
          "internalType": "uint256",
          "name": "statPointsPerLevel",
          "type": "uint256"
        },
        {
          "internalType": "uint256",
          "name": "attackSpeed",
          "type": "uint256"
        },
        {
          "internalType": "uint256",
          "name": "agilityPointsPerSpeed",
          "type": "uint256"
        },
        {
          "internalType": "uint256",
          "name": "isNpc",
          "type": "uint256"
        },
        {
          "internalType": "uint256",
          "name": "dropRarityLevel",
          "type": "uint256"
        }
      ],
      "stateMutability": "view",
      "type": "function"
    },
    {
      "inputs": [
        {
          "internalType": "string",
          "name": "className",
          "type": "string"
        },
        {
          "components": [
            {
              "internalType": "uint256",
              "name": "baseStrength",
              "type": "uint256"
            },
            {
              "internalType": "uint256",
              "name": "baseAgility",
              "type": "uint256"
            },
            {
              "internalType": "uint256",
              "name": "baseEnergy",
              "type": "uint256"
            },
            {
              "internalType": "uint256",
              "name": "baseVitality",
              "type": "uint256"
            },
            {
              "internalType": "uint256",
              "name": "hpPerVitalityPoint",
              "type": "uint256"
            },
            {
              "internalType": "uint256",
              "name": "manaPerEnergyPoint",
              "type": "uint256"
            },
            {
              "internalType": "uint256",
              "name": "hpIncreasePerLevel",
              "type": "uint256"
            },
            {
              "internalType": "uint256",
              "name": "manaIncreasePerLevel",
              "type": "uint256"
            },
            {
              "internalType": "uint256",
              "name": "statPointsPerLevel",
              "type": "uint256"
            },
            {
              "internalType": "uint256",
              "name": "attackSpeed",
              "type": "uint256"
            },
            {
              "internalType": "uint256",
              "name": "agilityPointsPerSpeed",
              "type": "uint256"
            },
            {
              "internalType": "uint256",
              "name": "isNpc",
              "type": "uint256"
            },
            {
              "internalType": "uint256",
              "name": "dropRarityLevel",
              "type": "uint256"
            }
          ],
          "internalType": "struct FightersClasses.FightersClassAttributes",
          "name": "atts",
          "type": "tuple"
        }
      ],
      "name": "updateFighterClass",
      "outputs": [],
      "stateMutability": "nonpayable",
      "type": "function"
    },
    {
      "inputs": [
        {
          "internalType": "string",
          "name": "className",
          "type": "string"
        }
      ],
      "name": "fighterClassExists",
      "outputs": [
        {
          "internalType": "bool",
          "name": "",
          "type": "bool"
        }
      ],
      "stateMutability": "view",
      "type": "function"
    }
  ],
  "bytecode": "0x608060405234801561001057600080fd5b506104a1806100206000396000f3fe608060405234801561001057600080fd5b50600436106100415760003560e01c8063377c5eee14610046578063c320864f1461006e578063e9366bb014610150575b600080fd5b610059610054366004610310565b610165565b60405190151581526020015b60405180910390f35b6100ee61007c366004610310565b8051602081830181018051600082529282019190930120915280546001820154600283015460038401546004850154600586015460068701546007880154600889015460098a0154600a8b0154600b8c0154600c909c01549a9b999a989997989697959694959394929391929091908d565b604080519d8e5260208e019c909c529a8c019990995260608b019790975260808a019590955260a089019390935260c088019190915260e08701526101008601526101208501526101408401526101608301526101808201526101a001610065565b61016361015e36600461034d565b61019d565b005b60008082604051610176919061043c565b9081526040519081900360200190205460000361019557506000919050565b506001919050565b806000836040516101ae919061043c565b9081526040805160209281900383019020835181559183015160018301558201516002820155606082015160038201556080820151600482015560a0820151600582015560c0820151600682015560e0820151600782015561010082015160088201556101208201516009820155610140820151600a820155610160820151600b82015561018090910151600c909101555050565b634e487b7160e01b600052604160045260246000fd5b6040516101a0810167ffffffffffffffff8111828210171561027d5761027d610243565b60405290565b600082601f83011261029457600080fd5b813567ffffffffffffffff808211156102af576102af610243565b604051601f8301601f19908116603f011681019082821181831017156102d7576102d7610243565b816040528381528660208588010111156102f057600080fd5b836020870160208301376000602085830101528094505050505092915050565b60006020828403121561032257600080fd5b813567ffffffffffffffff81111561033957600080fd5b61034584828501610283565b949350505050565b6000808284036101c081121561036257600080fd5b833567ffffffffffffffff81111561037957600080fd5b61038586828701610283565b9350506101a080601f198301121561039c57600080fd5b6103a4610259565b91506020850135825260408501356020830152606085013560408301526080850135606083015260a0850135608083015260c085013560a083015260e085013560c08301526101008086013560e0840152610120808701358285015261014091508187013581850152506101608087013582850152610180915081870135818501525081860135818401525050809150509250929050565b6000825160005b8181101561045d5760208186018101518583015201610443565b50600092019182525091905056fea2646970667358221220a1be70049fd6e9f935143342090b5071c4c843b6236b944ccddd7b174c51865864736f6c63430008130033",
  "immutableReferences": {},
  "source": "// SPDX-License-Identifier: MIT\npragma solidity ^0.8.18;\n\n\ncontract FightersClasses {\n\n    // Struct for fighter class attributes\n    struct FightersClassAttributes {\n        uint256 baseStrength;\n        uint256 baseAgility;\n        uint256 baseEnergy;\n        uint256 baseVitality;\n\n        uint256 hpPerVitalityPoint;\n        uint256 manaPerEnergyPoint;\n        uint256 hpIncreasePerLevel;\n        uint256 manaIncreasePerLevel;\n        uint256 statPointsPerLevel;\n        uint256 attackSpeed;\n        uint256 agilityPointsPerSpeed;\n\n        uint256 isNpc;\n        uint256 dropRarityLevel; // for npcs        \n    }\n\n    mapping (string => FightersClassAttributes) public FighterClasses;\n\n    function updateFighterClass(string memory className, FightersClassAttributes memory atts) public {\n        FighterClasses[className] = atts;\n    }\n\n    function fighterClassExists(string memory className) public view returns (bool) {\n        if (FighterClasses[className].baseStrength == 0) {\n            return false;\n        }\n\n        return true;\n    }\n}",
  "sourcePath": "/Users/max/Documents/prog/game-contracts/contracts/FightersClasses.sol",
  "compiler": {
    "name": "solc",
    "version": "0.8.19+commit.7dd6d404.Emscripten.clang"
  },
  "schemaVersion": "3.4.13",
  "updatedAt": "2023-08-06T05:25:34.388Z",
  "devdoc": {
    "kind": "dev",
    "methods": {},
    "version": 1
  },
  "userdoc": {
    "kind": "user",
    "methods": {},
    "version": 1
  }
}