{
  "contractName": "FighterAttributes",
  "abi": [
    {
      "inputs": [],
      "stateMutability": "nonpayable",
      "type": "constructor"
    },
    {
      "anonymous": false,
      "inputs": [
        {
          "indexed": true,
          "internalType": "address",
          "name": "owner",
          "type": "address"
        },
        {
          "indexed": true,
          "internalType": "address",
          "name": "approved",
          "type": "address"
        },
        {
          "indexed": true,
          "internalType": "uint256",
          "name": "tokenId",
          "type": "uint256"
        }
      ],
      "name": "Approval",
      "type": "event"
    },
    {
      "anonymous": false,
      "inputs": [
        {
          "indexed": true,
          "internalType": "address",
          "name": "owner",
          "type": "address"
        },
        {
          "indexed": true,
          "internalType": "address",
          "name": "operator",
          "type": "address"
        },
        {
          "indexed": false,
          "internalType": "bool",
          "name": "approved",
          "type": "bool"
        }
      ],
      "name": "ApprovalForAll",
      "type": "event"
    },
    {
      "anonymous": false,
      "inputs": [
        {
          "indexed": true,
          "internalType": "address",
          "name": "owner",
          "type": "address"
        },
        {
          "indexed": false,
          "internalType": "uint256",
          "name": "tokenId",
          "type": "uint256"
        },
        {
          "indexed": false,
          "internalType": "uint8",
          "name": "class",
          "type": "uint8"
        }
      ],
      "name": "FighterCreated",
      "type": "event"
    },
    {
      "anonymous": false,
      "inputs": [
        {
          "indexed": false,
          "internalType": "uint256",
          "name": "tokenId",
          "type": "uint256"
        },
        {
          "indexed": false,
          "internalType": "uint256",
          "name": "itemId",
          "type": "uint256"
        },
        {
          "indexed": false,
          "internalType": "uint256",
          "name": "slot",
          "type": "uint256"
        }
      ],
      "name": "ItemEquiped",
      "type": "event"
    },
    {
      "anonymous": false,
      "inputs": [
        {
          "indexed": true,
          "internalType": "address",
          "name": "creator",
          "type": "address"
        },
        {
          "indexed": false,
          "internalType": "uint256",
          "name": "tokenId",
          "type": "uint256"
        },
        {
          "indexed": false,
          "internalType": "uint8",
          "name": "class",
          "type": "uint8"
        }
      ],
      "name": "NPCCreated",
      "type": "event"
    },
    {
      "anonymous": false,
      "inputs": [
        {
          "indexed": false,
          "internalType": "address",
          "name": "battleContract",
          "type": "address"
        },
        {
          "indexed": false,
          "internalType": "bool",
          "name": "isActive",
          "type": "bool"
        }
      ],
      "name": "SetBattleContract",
      "type": "event"
    },
    {
      "anonymous": false,
      "inputs": [
        {
          "indexed": false,
          "internalType": "address",
          "name": "",
          "type": "address"
        },
        {
          "indexed": false,
          "internalType": "bool",
          "name": "",
          "type": "bool"
        }
      ],
      "name": "SetGM",
      "type": "event"
    },
    {
      "anonymous": false,
      "inputs": [
        {
          "indexed": true,
          "internalType": "address",
          "name": "previousOwner",
          "type": "address"
        },
        {
          "indexed": true,
          "internalType": "address",
          "name": "newOwner",
          "type": "address"
        }
      ],
      "name": "SetOwner",
      "type": "event"
    },
    {
      "anonymous": false,
      "inputs": [
        {
          "indexed": false,
          "internalType": "uint256",
          "name": "tokenId",
          "type": "uint256"
        },
        {
          "indexed": false,
          "internalType": "uint256",
          "name": "strength",
          "type": "uint256"
        },
        {
          "indexed": false,
          "internalType": "uint256",
          "name": "agility",
          "type": "uint256"
        },
        {
          "indexed": false,
          "internalType": "uint256",
          "name": "energy",
          "type": "uint256"
        },
        {
          "indexed": false,
          "internalType": "uint256",
          "name": "vitality",
          "type": "uint256"
        }
      ],
      "name": "StatsUpdated",
      "type": "event"
    },
    {
      "anonymous": false,
      "inputs": [
        {
          "indexed": true,
          "internalType": "address",
          "name": "from",
          "type": "address"
        },
        {
          "indexed": true,
          "internalType": "address",
          "name": "to",
          "type": "address"
        },
        {
          "indexed": true,
          "internalType": "uint256",
          "name": "tokenId",
          "type": "uint256"
        }
      ],
      "name": "Transfer",
      "type": "event"
    },
    {
      "anonymous": false,
      "inputs": [
        {
          "indexed": false,
          "internalType": "uint256",
          "name": "",
          "type": "uint256"
        }
      ],
      "name": "updateAgilityPerDefence",
      "type": "event"
    },
    {
      "anonymous": false,
      "inputs": [
        {
          "indexed": false,
          "internalType": "uint256",
          "name": "",
          "type": "uint256"
        }
      ],
      "name": "updateEnergyPerDamage",
      "type": "event"
    },
    {
      "anonymous": false,
      "inputs": [
        {
          "indexed": false,
          "internalType": "uint256",
          "name": "",
          "type": "uint256"
        }
      ],
      "name": "updateExperienceDivider",
      "type": "event"
    },
    {
      "anonymous": false,
      "inputs": [
        {
          "indexed": false,
          "internalType": "uint256",
          "name": "",
          "type": "uint256"
        }
      ],
      "name": "updateHealthRegenerationDivider",
      "type": "event"
    },
    {
      "anonymous": false,
      "inputs": [
        {
          "indexed": false,
          "internalType": "uint256",
          "name": "",
          "type": "uint256"
        }
      ],
      "name": "updateManaRegenerationDivider",
      "type": "event"
    },
    {
      "anonymous": false,
      "inputs": [
        {
          "indexed": false,
          "internalType": "uint256",
          "name": "",
          "type": "uint256"
        }
      ],
      "name": "updateMaxExperience",
      "type": "event"
    },
    {
      "anonymous": false,
      "inputs": [
        {
          "indexed": false,
          "internalType": "uint256",
          "name": "",
          "type": "uint256"
        }
      ],
      "name": "updateStrengthPerDamage",
      "type": "event"
    },
    {
      "inputs": [
        {
          "internalType": "address",
          "name": "to",
          "type": "address"
        },
        {
          "internalType": "uint256",
          "name": "tokenId",
          "type": "uint256"
        }
      ],
      "name": "approve",
      "outputs": [],
      "stateMutability": "nonpayable",
      "type": "function"
    },
    {
      "inputs": [
        {
          "internalType": "address",
          "name": "owner",
          "type": "address"
        }
      ],
      "name": "balanceOf",
      "outputs": [
        {
          "internalType": "uint256",
          "name": "",
          "type": "uint256"
        }
      ],
      "stateMutability": "view",
      "type": "function",
      "constant": true
    },
    {
      "inputs": [
        {
          "internalType": "uint256",
          "name": "tokenId",
          "type": "uint256"
        }
      ],
      "name": "getApproved",
      "outputs": [
        {
          "internalType": "address",
          "name": "",
          "type": "address"
        }
      ],
      "stateMutability": "view",
      "type": "function",
      "constant": true
    },
    {
      "inputs": [
        {
          "internalType": "address",
          "name": "owner",
          "type": "address"
        },
        {
          "internalType": "address",
          "name": "operator",
          "type": "address"
        }
      ],
      "name": "isApprovedForAll",
      "outputs": [
        {
          "internalType": "bool",
          "name": "",
          "type": "bool"
        }
      ],
      "stateMutability": "view",
      "type": "function",
      "constant": true
    },
    {
      "inputs": [
        {
          "internalType": "address",
          "name": "",
          "type": "address"
        }
      ],
      "name": "isGM",
      "outputs": [
        {
          "internalType": "bool",
          "name": "",
          "type": "bool"
        }
      ],
      "stateMutability": "view",
      "type": "function",
      "constant": true
    },
    {
      "inputs": [],
      "name": "name",
      "outputs": [
        {
          "internalType": "string",
          "name": "",
          "type": "string"
        }
      ],
      "stateMutability": "view",
      "type": "function",
      "constant": true
    },
    {
      "inputs": [
        {
          "internalType": "string",
          "name": "",
          "type": "string"
        }
      ],
      "name": "names",
      "outputs": [
        {
          "internalType": "bool",
          "name": "",
          "type": "bool"
        }
      ],
      "stateMutability": "view",
      "type": "function",
      "constant": true
    },
    {
      "inputs": [],
      "name": "owner",
      "outputs": [
        {
          "internalType": "address",
          "name": "",
          "type": "address"
        }
      ],
      "stateMutability": "view",
      "type": "function",
      "constant": true
    },
    {
      "inputs": [
        {
          "internalType": "uint256",
          "name": "tokenId",
          "type": "uint256"
        }
      ],
      "name": "ownerOf",
      "outputs": [
        {
          "internalType": "address",
          "name": "",
          "type": "address"
        }
      ],
      "stateMutability": "view",
      "type": "function",
      "constant": true
    },
    {
      "inputs": [
        {
          "internalType": "address",
          "name": "from",
          "type": "address"
        },
        {
          "internalType": "address",
          "name": "to",
          "type": "address"
        },
        {
          "internalType": "uint256",
          "name": "tokenId",
          "type": "uint256"
        }
      ],
      "name": "safeTransferFrom",
      "outputs": [],
      "stateMutability": "nonpayable",
      "type": "function"
    },
    {
      "inputs": [
        {
          "internalType": "address",
          "name": "from",
          "type": "address"
        },
        {
          "internalType": "address",
          "name": "to",
          "type": "address"
        },
        {
          "internalType": "uint256",
          "name": "tokenId",
          "type": "uint256"
        },
        {
          "internalType": "bytes",
          "name": "data",
          "type": "bytes"
        }
      ],
      "name": "safeTransferFrom",
      "outputs": [],
      "stateMutability": "nonpayable",
      "type": "function"
    },
    {
      "inputs": [
        {
          "internalType": "address",
          "name": "operator",
          "type": "address"
        },
        {
          "internalType": "bool",
          "name": "approved",
          "type": "bool"
        }
      ],
      "name": "setApprovalForAll",
      "outputs": [],
      "stateMutability": "nonpayable",
      "type": "function"
    },
    {
      "inputs": [
        {
          "internalType": "bytes4",
          "name": "interfaceId",
          "type": "bytes4"
        }
      ],
      "name": "supportsInterface",
      "outputs": [
        {
          "internalType": "bool",
          "name": "",
          "type": "bool"
        }
      ],
      "stateMutability": "view",
      "type": "function",
      "constant": true
    },
    {
      "inputs": [],
      "name": "symbol",
      "outputs": [
        {
          "internalType": "string",
          "name": "",
          "type": "string"
        }
      ],
      "stateMutability": "view",
      "type": "function",
      "constant": true
    },
    {
      "inputs": [
        {
          "internalType": "uint256",
          "name": "tokenId",
          "type": "uint256"
        }
      ],
      "name": "tokenURI",
      "outputs": [
        {
          "internalType": "string",
          "name": "",
          "type": "string"
        }
      ],
      "stateMutability": "view",
      "type": "function",
      "constant": true
    },
    {
      "inputs": [
        {
          "internalType": "address",
          "name": "from",
          "type": "address"
        },
        {
          "internalType": "address",
          "name": "to",
          "type": "address"
        },
        {
          "internalType": "uint256",
          "name": "tokenId",
          "type": "uint256"
        }
      ],
      "name": "transferFrom",
      "outputs": [],
      "stateMutability": "nonpayable",
      "type": "function"
    },
    {
      "inputs": [
        {
          "internalType": "uint256",
          "name": "tokenId",
          "type": "uint256"
        },
        {
          "internalType": "uint256",
          "name": "itemId",
          "type": "uint256"
        },
        {
          "internalType": "uint256",
          "name": "slot",
          "type": "uint256"
        }
      ],
      "name": "equipItem",
      "outputs": [],
      "stateMutability": "nonpayable",
      "type": "function"
    },
    {
      "inputs": [
        {
          "internalType": "uint256",
          "name": "tokenId",
          "type": "uint256"
        },
        {
          "internalType": "uint256",
          "name": "strength",
          "type": "uint256"
        },
        {
          "internalType": "uint256",
          "name": "agility",
          "type": "uint256"
        },
        {
          "internalType": "uint256",
          "name": "energy",
          "type": "uint256"
        },
        {
          "internalType": "uint256",
          "name": "vitality",
          "type": "uint256"
        }
      ],
      "name": "updateFighterStats",
      "outputs": [],
      "stateMutability": "nonpayable",
      "type": "function"
    },
    {
      "inputs": [
        {
          "internalType": "uint256",
          "name": "tokenId",
          "type": "uint256"
        }
      ],
      "name": "getMaxStatPoints",
      "outputs": [
        {
          "internalType": "uint256",
          "name": "",
          "type": "uint256"
        }
      ],
      "stateMutability": "view",
      "type": "function",
      "constant": true
    },
    {
      "inputs": [
        {
          "internalType": "uint256",
          "name": "tokenId",
          "type": "uint256"
        }
      ],
      "name": "getTotalUsedStatPoints",
      "outputs": [
        {
          "internalType": "uint256",
          "name": "",
          "type": "uint256"
        }
      ],
      "stateMutability": "view",
      "type": "function",
      "constant": true
    },
    {
      "inputs": [
        {
          "internalType": "string",
          "name": "name",
          "type": "string"
        },
        {
          "internalType": "enum FighterAttributes.FighterClass",
          "name": "fighterClass",
          "type": "uint8"
        }
      ],
      "name": "createFighter",
      "outputs": [
        {
          "internalType": "uint256",
          "name": "",
          "type": "uint256"
        }
      ],
      "stateMutability": "nonpayable",
      "type": "function"
    },
    {
      "inputs": [
        {
          "internalType": "string",
          "name": "name",
          "type": "string"
        },
        {
          "internalType": "uint256",
          "name": "strength",
          "type": "uint256"
        },
        {
          "internalType": "uint256",
          "name": "agility",
          "type": "uint256"
        },
        {
          "internalType": "uint256",
          "name": "energy",
          "type": "uint256"
        },
        {
          "internalType": "uint256",
          "name": "vitality",
          "type": "uint256"
        },
        {
          "internalType": "uint256",
          "name": "attackSpeed",
          "type": "uint256"
        },
        {
          "internalType": "uint256",
          "name": "level",
          "type": "uint256"
        },
        {
          "internalType": "uint256",
          "name": "dropRarityLevel",
          "type": "uint256"
        }
      ],
      "name": "createNPC",
      "outputs": [
        {
          "internalType": "uint256",
          "name": "",
          "type": "uint256"
        }
      ],
      "stateMutability": "nonpayable",
      "type": "function"
    },
    {
      "inputs": [
        {
          "internalType": "uint256",
          "name": "tokenId",
          "type": "uint256"
        }
      ],
      "name": "getTokenAttributes",
      "outputs": [
        {
          "components": [
            {
              "internalType": "string",
              "name": "name",
              "type": "string"
            },
            {
              "internalType": "uint256",
              "name": "tokenId",
              "type": "uint256"
            },
            {
              "internalType": "uint256",
              "name": "strength",
              "type": "uint256"
            },
            {
              "internalType": "uint256",
              "name": "agility",
              "type": "uint256"
            },
            {
              "internalType": "uint256",
              "name": "energy",
              "type": "uint256"
            },
            {
              "internalType": "uint256",
              "name": "vitality",
              "type": "uint256"
            },
            {
              "internalType": "uint256",
              "name": "experience",
              "type": "uint256"
            },
            {
              "internalType": "uint256",
              "name": "class",
              "type": "uint256"
            },
            {
              "internalType": "uint256",
              "name": "hpPerVitalityPoint",
              "type": "uint256"
            },
            {
              "internalType": "uint256",
              "name": "manaPerEnergyPoint",
              "type": "uint256"
            },
            {
              "internalType": "uint256",
              "name": "hpIncreasePerLevel",
              "type": "uint256"
            },
            {
              "internalType": "uint256",
              "name": "manaIncreasePerLevel",
              "type": "uint256"
            },
            {
              "internalType": "uint256",
              "name": "statPointsPerLevel",
              "type": "uint256"
            },
            {
              "internalType": "uint256",
              "name": "attackSpeed",
              "type": "uint256"
            },
            {
              "internalType": "uint256",
              "name": "agilityPointsPerSpeed",
              "type": "uint256"
            },
            {
              "internalType": "uint256",
              "name": "isNpc",
              "type": "uint256"
            },
            {
              "internalType": "uint256",
              "name": "dropRarityLevel",
              "type": "uint256"
            },
            {
              "internalType": "uint256",
              "name": "helmSlot",
              "type": "uint256"
            },
            {
              "internalType": "uint256",
              "name": "armourSlot",
              "type": "uint256"
            },
            {
              "internalType": "uint256",
              "name": "pantsSlot",
              "type": "uint256"
            },
            {
              "internalType": "uint256",
              "name": "glovesSlot",
              "type": "uint256"
            },
            {
              "internalType": "uint256",
              "name": "bootsSlot",
              "type": "uint256"
            },
            {
              "internalType": "uint256",
              "name": "leftHandSlot",
              "type": "uint256"
            },
            {
              "internalType": "uint256",
              "name": "rightHandSlot",
              "type": "uint256"
            },
            {
              "internalType": "uint256",
              "name": "leftRingSlot",
              "type": "uint256"
            },
            {
              "internalType": "uint256",
              "name": "rightRingSlot",
              "type": "uint256"
            },
            {
              "internalType": "uint256",
              "name": "pendSlot",
              "type": "uint256"
            },
            {
              "internalType": "uint256",
              "name": "wingsSlot",
              "type": "uint256"
            }
          ],
          "internalType": "struct FighterAttributes.Attributes",
          "name": "",
          "type": "tuple"
        }
      ],
      "stateMutability": "view",
      "type": "function",
      "constant": true
    },
    {
      "inputs": [
        {
          "internalType": "uint256",
          "name": "tokenId",
          "type": "uint256"
        },
        {
          "internalType": "uint256",
          "name": "addExp",
          "type": "uint256"
        }
      ],
      "name": "increaseExperience",
      "outputs": [],
      "stateMutability": "nonpayable",
      "type": "function"
    },
    {
      "inputs": [
        {
          "internalType": "uint256",
          "name": "tokenId",
          "type": "uint256"
        }
      ],
      "name": "getMaxHealth",
      "outputs": [
        {
          "internalType": "uint256",
          "name": "",
          "type": "uint256"
        }
      ],
      "stateMutability": "view",
      "type": "function",
      "constant": true
    },
    {
      "inputs": [
        {
          "internalType": "uint256",
          "name": "tokenId",
          "type": "uint256"
        }
      ],
      "name": "getMaxMana",
      "outputs": [
        {
          "internalType": "uint256",
          "name": "",
          "type": "uint256"
        }
      ],
      "stateMutability": "view",
      "type": "function",
      "constant": true
    },
    {
      "inputs": [
        {
          "internalType": "uint256",
          "name": "tokenId",
          "type": "uint256"
        }
      ],
      "name": "getFighterStats",
      "outputs": [
        {
          "components": [
            {
              "internalType": "uint256",
              "name": "tokenId",
              "type": "uint256"
            },
            {
              "internalType": "uint256",
              "name": "maxHealth",
              "type": "uint256"
            },
            {
              "internalType": "uint256",
              "name": "maxMana",
              "type": "uint256"
            },
            {
              "internalType": "uint256",
              "name": "level",
              "type": "uint256"
            },
            {
              "internalType": "uint256",
              "name": "exp",
              "type": "uint256"
            },
            {
              "internalType": "uint256",
              "name": "totalStatPoints",
              "type": "uint256"
            },
            {
              "internalType": "uint256",
              "name": "maxStatPoints",
              "type": "uint256"
            }
          ],
          "internalType": "struct FighterAttributes.FighterStats",
          "name": "",
          "type": "tuple"
        }
      ],
      "stateMutability": "view",
      "type": "function",
      "constant": true
    },
    {
      "inputs": [
        {
          "internalType": "uint256",
          "name": "tokenId",
          "type": "uint256"
        }
      ],
      "name": "getExperience",
      "outputs": [
        {
          "internalType": "uint256",
          "name": "",
          "type": "uint256"
        }
      ],
      "stateMutability": "view",
      "type": "function",
      "constant": true
    },
    {
      "inputs": [
        {
          "internalType": "uint256",
          "name": "tokenId",
          "type": "uint256"
        }
      ],
      "name": "getLevel",
      "outputs": [
        {
          "internalType": "uint256",
          "name": "",
          "type": "uint256"
        }
      ],
      "stateMutability": "view",
      "type": "function",
      "constant": true
    },
    {
      "inputs": [
        {
          "internalType": "uint256",
          "name": "level",
          "type": "uint256"
        }
      ],
      "name": "getExpFromLevel",
      "outputs": [
        {
          "internalType": "uint256",
          "name": "",
          "type": "uint256"
        }
      ],
      "stateMutability": "view",
      "type": "function",
      "constant": true
    },
    {
      "inputs": [
        {
          "internalType": "address",
          "name": "newOwner",
          "type": "address"
        }
      ],
      "name": "setOwner",
      "outputs": [],
      "stateMutability": "nonpayable",
      "type": "function"
    },
    {
      "inputs": [
        {
          "internalType": "address",
          "name": "gmAddress",
          "type": "address"
        },
        {
          "internalType": "bool",
          "name": "val",
          "type": "bool"
        }
      ],
      "name": "setGM",
      "outputs": [],
      "stateMutability": "nonpayable",
      "type": "function"
    },
    {
      "inputs": [
        {
          "internalType": "address",
          "name": "contr",
          "type": "address"
        },
        {
          "internalType": "bool",
          "name": "isActive",
          "type": "bool"
        }
      ],
      "name": "setBattleContract",
      "outputs": [],
      "stateMutability": "nonpayable",
      "type": "function"
    },
    {
      "inputs": [
        {
          "internalType": "uint256",
          "name": "val",
          "type": "uint256"
        }
      ],
      "name": "setHealthRegenerationDivider",
      "outputs": [],
      "stateMutability": "nonpayable",
      "type": "function"
    },
    {
      "inputs": [
        {
          "internalType": "uint256",
          "name": "val",
          "type": "uint256"
        }
      ],
      "name": "setManaRegenerationDivider",
      "outputs": [],
      "stateMutability": "nonpayable",
      "type": "function"
    },
    {
      "inputs": [
        {
          "internalType": "uint256",
          "name": "val",
          "type": "uint256"
        }
      ],
      "name": "setAgilityPerDefence",
      "outputs": [],
      "stateMutability": "nonpayable",
      "type": "function"
    },
    {
      "inputs": [
        {
          "internalType": "uint256",
          "name": "val",
          "type": "uint256"
        }
      ],
      "name": "setStrengthPerDamage",
      "outputs": [],
      "stateMutability": "nonpayable",
      "type": "function"
    },
    {
      "inputs": [
        {
          "internalType": "uint256",
          "name": "val",
          "type": "uint256"
        }
      ],
      "name": "setEnergyPerDamage",
      "outputs": [],
      "stateMutability": "nonpayable",
      "type": "function"
    },
    {
      "inputs": [
        {
          "internalType": "uint256",
          "name": "val",
          "type": "uint256"
        }
      ],
      "name": "setMaxExperience",
      "outputs": [],
      "stateMutability": "nonpayable",
      "type": "function"
    },
    {
      "inputs": [
        {
          "internalType": "uint256",
          "name": "val",
          "type": "uint256"
        }
      ],
      "name": "setExperienceDivider",
      "outputs": [],
      "stateMutability": "nonpayable",
      "type": "function"
    },
    {
      "inputs": [
        {
          "internalType": "uint256",
          "name": "a",
          "type": "uint256"
        },
        {
          "internalType": "uint256",
          "name": "b",
          "type": "uint256"
        }
      ],
      "name": "safeMul",
      "outputs": [
        {
          "internalType": "uint256",
          "name": "",
          "type": "uint256"
        }
      ],
      "stateMutability": "view",
      "type": "function",
      "constant": true
    },
    {
      "inputs": [
        {
          "internalType": "uint256",
          "name": "a",
          "type": "uint256"
        },
        {
          "internalType": "uint256",
          "name": "b",
          "type": "uint256"
        }
      ],
      "name": "safeSub",
      "outputs": [
        {
          "internalType": "uint256",
          "name": "",
          "type": "uint256"
        }
      ],
      "stateMutability": "view",
      "type": "function",
      "constant": true
    },
    {
      "inputs": [
        {
          "internalType": "uint256",
          "name": "a",
          "type": "uint256"
        },
        {
          "internalType": "uint256",
          "name": "b",
          "type": "uint256"
        }
      ],
      "name": "safeAdd",
      "outputs": [
        {
          "internalType": "uint256",
          "name": "",
          "type": "uint256"
        }
      ],
      "stateMutability": "view",
      "type": "function",
      "constant": true
    }
  ],
  "bytecode": "0x60806040526008600d556008600e556004600f556008601055600860115563115d88a460125560056013553480156200003757600080fd5b5060405180604001604052806007815260200166436f6d6261747360c81b815250604051806040016040528060078152602001662334b3b43a32b960c91b815250816000908162000089919062000a48565b50600162000098828262000a48565b50505060405180610380016040528060405180602001604052806000815250815260200160008152602001602a815260200160158152602001600581526020016014815260200160008152602001600181526020016005815260200160058152602001600581526020016001815260200160058152602001601b8152602001600781526020016000815260200160008152602001600081526020016000815260200160008152602001600081526020016000815260200160008152602001600081526020016000815260200160008152602001600081526020016000815250600660006001600481111562000191576200019162000b14565b8152602081019190915260400160002081518190620001b1908262000a48565b506020820151816001015560408201518160020155606082015181600301556080820151816004015560a0820151816005015560c0820151816006015560e082015181600701556101008201518160080155610120820151816009015561014082015181600a015561016082015181600b015561018082015181600c01556101a082015181600d01556101c082015181600e01556101e082015181600f0155610200820151816010015561022082015181601101556102408201518160120155610260820151816013015561028082015181601401556102a082015181601501556102c082015181601601556102e082015181601701556103008201518160180155610320820151816019015561034082015181601a015561036082015181601b015590505060405180610380016040528060405180602001604052806000815250815260200160008152602001600f8152602001601481526020016032815260200160148152602001600081526020016002815260200160038152602001600a8152602001600381526020016005815260200160058152602001601081526020016005815260200160008152602001600081526020016000815260200160008152602001600081526020016000815260200160008152602001600081526020016000815260200160008152602001600081526020016000815260200160008152506006600060026004811115620003cd57620003cd62000b14565b8152602081019190915260400160002081518190620003ed908262000a48565b506020820151816001015560408201518160020155606082015181600301556080820151816004015560a0820151816005015560c0820151816006015560e082015181600701556101008201518160080155610120820151816009015561014082015181600a015561016082015181600b015561018082015181600c01556101a082015181600d01556101c082015181600e01556101e082015181600f0155610200820151816010015561022082015181601101556102408201518160120155610260820151816013015561028082015181601401556102a082015181601501556102c082015181601601556102e082015181601701556103008201518160180155610320820151816019015561034082015181601a015561036082015181601b0155905050604051806103800160405280604051806020016040528060008152508152602001600081526020016014815260200160198152602001600f81526020016014815260200160008152602001600381526020016003815260200160058152602001600381526020016004815260200160058152602001600c8152602001600581526020016000815260200160008152602001600081526020016000815260200160008152602001600081526020016000815260200160008152602001600081526020016000815260200160008152602001600081526020016000815250600660006003600481111562000609576200060962000b14565b815260208101919091526040016000208151819062000629908262000a48565b506020820151816001015560408201518160020155606082015181600301556080820151816004015560a0820151816005015560c0820151816006015560e082015181600701556101008201518160080155610120820151816009015561014082015181600a015561016082015181600b015561018082015181600c01556101a082015181600d01556101c082015181600e01556101e082015181600f0155610200820151816010015561022082015181601101556102408201518160120155610260820151816013015561028082015181601401556102a082015181601501556102c082015181601601556102e082015181601701556103008201518160180155610320820151816019015561034082015181601a015561036082015181601b015590505060405180610380016040528060405180602001604052806000815250815260200160008152602001601c8152602001600e8152602001601481526020016014815260200160008152602001600481526020016004815260200160078152602001600681526020016002815260200160078152602001601781526020016007815260200160008152602001600081526020016000815260200160008152602001600081526020016000815260200160008152602001600081526020016000815260200160008152602001600081526020016000815260200160008152506006600060048081111562000844576200084462000b14565b815260208101919091526040016000208151819062000864908262000a48565b506020820151600182015560408201516002820155606082015160038201556080820151600482015560a0820151600582015560c0820151600682015560e0820151600782015561010082015160088201556101208201516009820155610140820151600a80830191909155610160830151600b830155610180830151600c8301556101a0830151600d8301556101c0830151600e8301556101e0830151600f830155610200830151601083015561022083015160118301556102408301516012830155610260830151601383015561028083015160148301556102a083015160158301556102c083015160168301556102e0830151601783015561030083015160188301556103208301516019830155610340830151601a83015561036090920151601b9091015580546001600160a01b0319163317905562000b2a565b634e487b7160e01b600052604160045260246000fd5b600181811c90821680620009ce57607f821691505b602082108103620009ef57634e487b7160e01b600052602260045260246000fd5b50919050565b601f82111562000a4357600081815260208120601f850160051c8101602086101562000a1e5750805b601f850160051c820191505b8181101562000a3f5782815560010162000a2a565b5050505b505050565b81516001600160401b0381111562000a645762000a64620009a3565b62000a7c8162000a758454620009b9565b84620009f5565b602080601f83116001811462000ab4576000841562000a9b5750858301515b600019600386901b1c1916600185901b17855562000a3f565b600085815260208120601f198616915b8281101562000ae55788860151825594840194600190910190840162000ac4565b508582101562000b045787850151600019600388901b60f8161c191681555b5050505050600190811b01905550565b634e487b7160e01b600052602160045260246000fd5b6134d68062000b3a6000396000f3fe608060405234801561001057600080fd5b50600436106102695760003560e01c8063744c1d6911610151578063c77daef6116100c3578063d20a53c811610087578063d20a53c8146105ef578063d5a93d6814610602578063e5cbb69314610615578063e6cb901314610628578063e985e9c51461063b578063f04968be1461067757600080fd5b8063c77daef614610590578063c87b56dd146105a3578063cb083041146105b6578063d05c78da146105c9578063d1e5ef57146105dc57600080fd5b806395d89b411161011557806395d89b4114610529578063a22cb46514610531578063a293d1e814610544578063b1ca210614610557578063b73795311461056a578063b88d4fde1461057d57600080fd5b8063744c1d69146104af578063745bd453146104c2578063822fbf58146104d557806386481d40146105035780638da5cb5b1461051657600080fd5b8063360deb76116101ea5780636352211e116101ae5780636352211e1461043d5780636599273f14610450578063688f30ac146104635780636ae15f76146104765780636d9cbb4e1461048957806370a082311461049c57600080fd5b8063360deb761461036a5780633a0995e91461037d57806342842e0e146103a057806343c6916b146103b357806355af86c4146103d457600080fd5b806313af40351161023157806313af4035146102fe57806317a40576146103115780631f4f5a231461032457806323b872dd14610344578063243a7c7b1461035757600080fd5b806301ffc9a71461026e57806306fdde0314610296578063081812fc146102ab578063095ea7b3146102d65780630b1f15cd146102eb575b600080fd5b61028161027c366004612acf565b61068a565b60405190151581526020015b60405180910390f35b61029e6106dc565b60405161028d9190612b3c565b6102be6102b9366004612b4f565b61076e565b6040516001600160a01b03909116815260200161028d565b6102e96102e4366004612b7f565b610795565b005b6102e96102f9366004612b4f565b6108af565b6102e961030c366004612ba9565b610915565b6102e961031f366004612b4f565b61099b565b610337610332366004612b4f565b6109fa565b60405161028d9190612bc4565b6102e9610352366004612d42565b610cb3565b6102e9610365366004612d7e565b610ce4565b6102e9610378366004612da0565b610d4b565b61028161038b366004612ba9565b600b6020526000908152604090205460ff1681565b6102e96103ae366004612d42565b610dd9565b6103c66103c1366004612b4f565b610df4565b60405190815260200161028d565b6103e76103e2366004612b4f565b610e75565b60405161028d9190600060e082019050825182526020830151602083015260408301516040830152606083015160608301526080830151608083015260a083015160a083015260c083015160c083015292915050565b6102be61044b366004612b4f565b610f45565b6102e961045e366004612b4f565b610fa5565b6102e9610471366004612b4f565b611004565b6102e9610484366004612b4f565b611063565b6103c6610497366004612b4f565b6110c2565b6103c66104aa366004612ba9565b61112f565b6103c66104bd366004612e25565b6111b5565b6102e96104d0366004612b4f565b611354565b6102816104e3366004612f2e565b805160208183018101805160088252928201919093012091525460ff1681565b6103c6610511366004612b4f565b6113b3565b600a546102be906001600160a01b031681565b61029e61142c565b6102e961053f366004612da0565b61143b565b6103c6610552366004612d7e565b61144a565b6103c6610565366004612b4f565b611497565b6102e9610578366004612f77565b6114d4565b6102e961058b366004612fa3565b611713565b6103c661059e366004612b4f565b61174b565b61029e6105b1366004612b4f565b6117ba565b6102e96105c4366004612b4f565b61182d565b6103c66105d7366004612d7e565b61188c565b6102e96105ea36600461301f565b6118ed565b6103c66105fd366004612b4f565b611ba4565b6102e9610610366004612da0565b611bd8565b6103c661062336600461305a565b611c5e565b6103c6610636366004612d7e565b611fbf565b6102816106493660046130b5565b6001600160a01b03918216600090815260056020908152604080832093909416825291909152205460ff1690565b6103c6610685366004612b4f565b61201b565b60006001600160e01b031982166380ac58cd60e01b14806106bb57506001600160e01b03198216635b5e139f60e01b145b806106d657506301ffc9a760e01b6001600160e01b03198316145b92915050565b6060600080546106eb906130e8565b80601f0160208091040260200160405190810160405280929190818152602001828054610717906130e8565b80156107645780601f1061073957610100808354040283529160200191610764565b820191906000526020600020905b81548152906001019060200180831161074757829003601f168201915b5050505050905090565b60006107798261205c565b506000908152600460205260409020546001600160a01b031690565b60006107a082610f45565b9050806001600160a01b0316836001600160a01b0316036108125760405162461bcd60e51b815260206004820152602160248201527f4552433732313a20617070726f76616c20746f2063757272656e74206f776e656044820152603960f91b60648201526084015b60405180910390fd5b336001600160a01b038216148061082e575061082e8133610649565b6108a05760405162461bcd60e51b815260206004820152603d60248201527f4552433732313a20617070726f76652063616c6c6572206973206e6f7420746f60448201527f6b656e206f776e6572206f7220617070726f76656420666f7220616c6c0000006064820152608401610809565b6108aa83836120af565b505050565b600a546001600160a01b031633146108d95760405162461bcd60e51b81526004016108099061311c565b60108190556040518181527f2709c3545e934f71bad88a10628cfcb26544abef6d319e025dafcfaa8ecd371b906020015b60405180910390a150565b600a546001600160a01b0316331461093f5760405162461bcd60e51b81526004016108099061311c565b600a546040516001600160a01b038084169216907fcbf985117192c8f614a58aaf97226bb80a754772f5f6edf06f87c675f2e6c66390600090a3600a80546001600160a01b0319166001600160a01b0392909216919091179055565b600a546001600160a01b031633146109c55760405162461bcd60e51b81526004016108099061311c565b60118190556040518181527f8bc6f507740334e03eb54c47352da054221b790b05465e2e8abf2c6e2bd9fd109060200161090a565b610ace604051806103800160405280606081526020016000815260200160008152602001600081526020016000815260200160008152602001600081526020016000815260200160008152602001600081526020016000815260200160008152602001600081526020016000815260200160008152602001600081526020016000815260200160008152602001600081526020016000815260200160008152602001600081526020016000815260200160008152602001600081526020016000815260200160008152602001600081525090565b610ad78261211d565b610af35760405162461bcd60e51b815260040161080990613143565b6000828152600760205260409081902081516103808101909252805482908290610b1c906130e8565b80601f0160208091040260200160405190810160405280929190818152602001828054610b48906130e8565b8015610b955780601f10610b6a57610100808354040283529160200191610b95565b820191906000526020600020905b815481529060010190602001808311610b7857829003601f168201915b50505050508152602001600182015481526020016002820154815260200160038201548152602001600482015481526020016005820154815260200160068201548152602001600782015481526020016008820154815260200160098201548152602001600a8201548152602001600b8201548152602001600c8201548152602001600d8201548152602001600e8201548152602001600f820154815260200160108201548152602001601182015481526020016012820154815260200160138201548152602001601482015481526020016015820154815260200160168201548152602001601782015481526020016018820154815260200160198201548152602001601a8201548152602001601b820154815250509050919050565b610cbd338261213a565b610cd95760405162461bcd60e51b815260040161080990613171565b6108aa8383836121b8565b610ced8261211d565b610d095760405162461bcd60e51b815260040161080990613143565b601254600083815260076020526040902060060154610d329190610d2d9084611fbf565b61231c565b6000928352600760205260409092206006019190915550565b600a546001600160a01b03163314610d755760405162461bcd60e51b81526004016108099061311c565b6001600160a01b0382166000818152600b6020908152604091829020805460ff19168515159081179091558251938452908301527f29ff5e8999b00a7437c384659fb2312b275b85c589f4d149f8b460ea477dcb7e91015b60405180910390a15050565b6108aa83838360405180602001604052806000815250611713565b60008181526007602081815260408084209092015483526006905281206002810154600382015460048301546005909301548493610e3a93926106369290918391611fbf565b90506000610e61610e4a856113b3565b6000868152600760205260409020600c015461188c565b9050610e6d8282611fbf565b949350505050565b610eb56040518060e00160405280600081526020016000815260200160008152602001600081526020016000815260200160008152602001600081525090565b610ebe8261211d565b610eda5760405162461bcd60e51b815260040161080990613143565b60006040518060e00160405280848152602001610ef68561174b565b8152602001610f04856110c2565b8152602001610f12856113b3565b8152602001610f2085611497565b8152602001610f2e85611ba4565b8152602001610f3c85610df4565b90529392505050565b6000818152600260205260408120546001600160a01b0316806106d65760405162461bcd60e51b8152602060048201526018602482015277115490cdcc8c4e881a5b9d985b1a59081d1bdad95b88125160421b6044820152606401610809565b600a546001600160a01b03163314610fcf5760405162461bcd60e51b81526004016108099061311c565b600f8190556040518181527f8e5252d2d2f885f4bae3553bbe34c3630f9274028f3c343ce0eac0dd710c6a039060200161090a565b600a546001600160a01b0316331461102e5760405162461bcd60e51b81526004016108099061311c565b60128190556040518181527f8b92a2a371ec2af95aa1740562d5031b28f403d2780beaecdce6befd43667fb89060200161090a565b600a546001600160a01b0316331461108d5760405162461bcd60e51b81526004016108099061311c565b600e8190556040518181527f0665124c1d0c6d84ba8a4d99cb0c2a03455171ce7503623c6cceb9da5bbd7a919060200161090a565b60006110cd8261211d565b6110e95760405162461bcd60e51b815260040161080990613143565b6000828152600760205260408120600b81015460098201546004909201549092906111269061111990849061188c565b610636856105d7896113b3565b95945050505050565b60006001600160a01b0382166111995760405162461bcd60e51b815260206004820152602960248201527f4552433732313a2061646472657373207a65726f206973206e6f7420612076616044820152683634b21037bbb732b960b91b6064820152608401610809565b506001600160a01b031660009081526003602052604090205490565b6000806040518061038001604052808c8c8080601f01602080910402602001604051908101604052809392919081815260200183838082843760009201829052509385525050506020820152604081018b9052606081018a90526080810189905260a0810188905260c0016112298661201b565b8152602001600081526020016000815260200160008152602001600081526020016000815260200160008152602001868152602001600081526020016001815260200184815260200160008152602001600081526020016000815260200160008152602001600081526020016000815260200160008152602001600081526020016000815260200160008152602001600081525090506112cd600980546001019055565b60006112d860095490565b90506112e43382612332565b6112ee818361234c565b6000818152600760205260408082206001018390555133917fe6ad03ae09e6216384922d74b5734a0ebc9aa6de15bcd7d61ed9999ba2cb1df59161133d9185825260ff16602082015260400190565b60405180910390a29b9a5050505050505050505050565b600a546001600160a01b0316331461137e5760405162461bcd60e51b81526004016108099061311c565b60138190556040518181527f0dbed17fa1cbd28e0338d43e05619d042b9ca1ac23a9d5383ebe0ab7049ff16e9060200161090a565b60006113be8261211d565b6113da5760405162461bcd60e51b815260040161080990613143565b600082815260076020526040902060060154601354600a9061141b906114149061140f90611408908661188c565b607d611fbf565b6124b9565b600561144a565b61142591906131d4565b9392505050565b6060600180546106eb906130e8565b611446338383612529565b5050565b60008282111561148d5760405162461bcd60e51b815260206004820152600e60248201526d1cd8599954dd588811985a5b195960921b6044820152606401610809565b61142582846131f6565b60006114a28261211d565b6114be5760405162461bcd60e51b815260040161080990613143565b5060009081526007602052604090206006015490565b6114dd8361211d565b61151f5760405162461bcd60e51b815260206004820152601360248201527210da185c88191bd95cc81b9bdd08195e1a5cdd606a1b6044820152606401610809565b3361152984610f45565b6001600160a01b03161461154f5760405162461bcd60e51b81526004016108099061311c565b6000811161158e5760405162461bcd60e51b815260206004820152600c60248201526b125b9d985b1a59081cdb1bdd60a21b6044820152606401610809565b806001036115ab5760008381526007602052604090206011018290555b806002036115c85760008381526007602052604090206012018290555b806003036115e55760008381526007602052604090206013018290555b806004036116025760008381526007602052604090206014018290555b8060050361161f5760008381526007602052604090206015018290555b8060060361163c5760008381526007602052604090206016018290555b806007036116595760008381526007602052604090206017018290555b806008036116765760008381526007602052604090206018018290555b806009036116935760008381526007602052604090206019018290555b80600a036116b0576000838152600760205260409020601a018290555b80600b036116cd576000838152600760205260409020601b018290555b60408051848152602081018490529081018290527f4d71ce238d1218a1f21de645b44d8d791c8c42f634ae4b7a576c6c548ddb639d9060600160405180910390a1505050565b61171d338361213a565b6117395760405162461bcd60e51b815260040161080990613171565b611745848484846125f7565b50505050565b60006117568261211d565b6117725760405162461bcd60e51b815260040161080990613143565b6000828152600760205260408120600a810154600890910154909161112661179d846105d7886113b3565b60008781526007602052604090206005015461063690859061188c565b60606117c58261205c565b60006117dc60408051602081019091526000815290565b905060008151116117fc5760405180602001604052806000815250611425565b806118068461262a565b604051602001611817929190613209565b6040516020818303038152906040529392505050565b600a546001600160a01b031633146118575760405162461bcd60e51b81526004016108099061311c565b600d8190556040518181527f3dc2199ccebb6b521944bbb446fd55ec36fc6b23c37808e7304ac55d535d3ac49060200161090a565b6000806118998385613238565b90508315806118b05750826118ae85836131d4565b145b6114255760405162461bcd60e51b815260206004820152600e60248201526d1cd85999535d5b0811985a5b195960921b6044820152606401610809565b336118f786610f45565b6001600160a01b03161461191d5760405162461bcd60e51b81526004016108099061311c565b60008581526007602052604090206002015484101561197e5760405162461bcd60e51b815260206004820152601b60248201527f537472656e6774682063616e27742062652064656372656173656400000000006044820152606401610809565b6000858152600760205260409020600301548310156119df5760405162461bcd60e51b815260206004820152601a60248201527f4167696c6974792063616e2774206265206465637265617365640000000000006044820152606401610809565b600085815260076020526040902060040154821015611a405760405162461bcd60e51b815260206004820152601960248201527f456e657267792063616e277420626520646563726561736564000000000000006044820152606401610809565b600085815260076020526040902060050154811015611aa15760405162461bcd60e51b815260206004820152601b60248201527f566974616c6974792063616e27742062652064656372656173656400000000006044820152606401610809565b6000611aac86610df4565b90506000611ab987611ba4565b90506000611acf87610636886106368989611fbf565b905082811115611b215760405162461bcd60e51b815260206004820152601e60248201527f547279696e6720746f6f2061646420746f6f206d616e7920706f696e747300006044820152606401610809565b600088815260076020908152604091829020600281018a9055600381018990556004810188905560050186905581518a815290810189905290810187905260608101869052608081018590527f9e28895821cef6daa08da1e82406e8be9675974fd115ccca84e332e6c15cff8f9060a00160405180910390a15050505050505050565b60008181526007602052604081206002810154600382015460048301546005909301546106d6936106369291839190611fbf565b600a546001600160a01b03163314611c025760405162461bcd60e51b81526004016108099061311c565b6001600160a01b0382166000818152600c6020908152604091829020805460ff19168515159081179091558251938452908301527f01c144ac08fce1689d8f39e7c6b611ff5de0a11668f47d49788f2d8add83669a9101610dcd565b600080826004811115611c7357611c7361324f565b03611cb85760405162461bcd60e51b8152602060048201526015602482015274496e76616c6964206669676874657220636c61737360581b6044820152606401610809565b60088484604051611cca929190613265565b9081526040519081900360200190205460ff1615611d175760405162461bcd60e51b815260206004820152600a6024820152692730b6b2903a30b5b2b760b11b6044820152606401610809565b600060066000846004811115611d2f57611d2f61324f565b815260200190815260200160002060405180610380016040529081600082018054611d59906130e8565b80601f0160208091040260200160405190810160405280929190818152602001828054611d85906130e8565b8015611dd25780601f10611da757610100808354040283529160200191611dd2565b820191906000526020600020905b815481529060010190602001808311611db557829003601f168201915b50505050508152602001600182015481526020016002820154815260200160038201548152602001600482015481526020016005820154815260200160068201548152602001600782015481526020016008820154815260200160098201548152602001600a8201548152602001600b8201548152602001600c8201548152602001600d8201548152602001600e8201548152602001600f820154815260200160108201548152602001601182015481526020016012820154815260200160138201548152602001601482015481526020016015820154815260200160168201548152602001601782015481526020016018820154815260200160198201548152602001601a8201548152602001601b82015481525050905084848080601f016020809104026020016040519081016040528093929190818152602001838380828437600092019190915250505090825250611f32600980546001019055565b6000611f3d60095490565b9050611f493382612332565b611f53818361234c565b6000818152600760205260409020600101819055337ffa7343ad709ac91d3c10902ecf30b0048166ea21049de84c532bc3dfdf8c6f0e82866004811115611f9c57611f9c61324f565b6040805192835260ff90911660208301520160405180910390a295945050505050565b600080611fcc8385613275565b9050838110158015611fde5750828110155b6114255760405162461bcd60e51b815260206004820152600e60248201526d1cd859995059190811985a5b195960921b6044820152606401610809565b600080612034600561202e85600a6126bd565b906126c9565b90506120418160026126d5565b6013549091506114259061205683607d612728565b90612734565b6120658161211d565b6120ac5760405162461bcd60e51b8152602060048201526018602482015277115490cdcc8c4e881a5b9d985b1a59081d1bdad95b88125160421b6044820152606401610809565b50565b600081815260046020526040902080546001600160a01b0319166001600160a01b03841690811790915581906120e482610f45565b6001600160a01b03167f8c5be1e5ebec7d5bd14f71427d1e84f3dd0314c0f7b2291e5b200ac8c7c3b92560405160405180910390a45050565b6000908152600260205260409020546001600160a01b0316151590565b60008061214683610f45565b9050806001600160a01b0316846001600160a01b0316148061218d57506001600160a01b0380821660009081526005602090815260408083209388168352929052205460ff165b80610e6d5750836001600160a01b03166121a68461076e565b6001600160a01b031614949350505050565b826001600160a01b03166121cb82610f45565b6001600160a01b0316146121f15760405162461bcd60e51b815260040161080990613288565b6001600160a01b0382166122535760405162461bcd60e51b8152602060048201526024808201527f4552433732313a207472616e7366657220746f20746865207a65726f206164646044820152637265737360e01b6064820152608401610809565b826001600160a01b031661226682610f45565b6001600160a01b03161461228c5760405162461bcd60e51b815260040161080990613288565b600081815260046020908152604080832080546001600160a01b03199081169091556001600160a01b0387811680865260038552838620805460001901905590871680865283862080546001019055868652600290945282852080549092168417909155905184937fddf252ad1be2c89b69c2b068fc378daa952ba7f163c4a11628f55a4df523b3ef91a4505050565b600081831061232b5781611425565b5090919050565b611446828260405180602001604052806000815250612740565b6123558261211d565b6123715760405162461bcd60e51b815260040161080990613143565b600082815260076020526040902081518291908190612390908261331b565b506020820151600182015560408201516002820155606082015160038201556080820151600482015560a0820151600582015560c0820151600682015560e0820151600782015561010082015160088201556101208201516009820155610140820151600a820155610160820151600b820155610180820151600c8201556101a0820151600d8201556101c0820151600e8201556101e0820151600f820155610200820151601082015561022082015160118201556102408201516012820155610260820151601382015561028082015160148201556102a082015160158201556102c082015160168201556102e0820151601782015561030082015160188201556103208201516019820155610340820151601a82015561036090910151601b909101555050565b6000600382111561251a57508060006124d36002836131d4565b6124de906001613275565b90505b81811015612514579050806002816124f981866131d4565b6125039190613275565b61250d91906131d4565b90506124e1565b50919050565b8115612524575060015b919050565b816001600160a01b0316836001600160a01b03160361258a5760405162461bcd60e51b815260206004820152601960248201527f4552433732313a20617070726f766520746f2063616c6c6572000000000000006044820152606401610809565b6001600160a01b03838116600081815260056020908152604080832094871680845294825291829020805460ff191686151590811790915591519182527f17307eab39ab6107e8899845ad3d59bd9653f200f220920489ca2b5937696c31910160405180910390a3505050565b6126028484846121b8565b61260e84848484612773565b6117455760405162461bcd60e51b8152600401610809906133db565b6060600061263783612874565b600101905060008167ffffffffffffffff81111561265757612657612ea2565b6040519080825280601f01601f191660200182016040528015612681576020820181803683370190505b5090508181016020015b600019016f181899199a1a9b1b9c1cb0b131b232b360811b600a86061a8153600a850494508461268b57509392505050565b60006114258284613238565b60006114258284613275565b6000816000036126e7575060016106d6565b816001036126f65750816106d6565b8260015b838110156127205761270c82866126bd565b9150806127188161342d565b9150506126fa565b509392505050565b600061142582846131f6565b600061142582846131d4565b61274a838361294c565b6127576000848484612773565b6108aa5760405162461bcd60e51b8152600401610809906133db565b60006001600160a01b0384163b1561286957604051630a85bd0160e11b81526001600160a01b0385169063150b7a02906127b7903390899088908890600401613446565b6020604051808303816000875af19250505080156127f2575060408051601f3d908101601f191682019092526127ef91810190613483565b60015b61284f573d808015612820576040519150601f19603f3d011682016040523d82523d6000602084013e612825565b606091505b5080516000036128475760405162461bcd60e51b8152600401610809906133db565b805181602001fd5b6001600160e01b031916630a85bd0160e11b149050610e6d565b506001949350505050565b60008072184f03e93ff9f4daa797ed6e38ed64bf6a1f0160401b83106128b35772184f03e93ff9f4daa797ed6e38ed64bf6a1f0160401b830492506040015b6d04ee2d6d415b85acef810000000083106128df576d04ee2d6d415b85acef8100000000830492506020015b662386f26fc1000083106128fd57662386f26fc10000830492506010015b6305f5e1008310612915576305f5e100830492506008015b612710831061292957612710830492506004015b6064831061293b576064830492506002015b600a83106106d65760010192915050565b6001600160a01b0382166129a25760405162461bcd60e51b815260206004820181905260248201527f4552433732313a206d696e7420746f20746865207a65726f20616464726573736044820152606401610809565b6129ab8161211d565b156129f85760405162461bcd60e51b815260206004820152601c60248201527f4552433732313a20746f6b656e20616c7265616479206d696e746564000000006044820152606401610809565b612a018161211d565b15612a4e5760405162461bcd60e51b815260206004820152601c60248201527f4552433732313a20746f6b656e20616c7265616479206d696e746564000000006044820152606401610809565b6001600160a01b038216600081815260036020908152604080832080546001019055848352600290915280822080546001600160a01b0319168417905551839291907fddf252ad1be2c89b69c2b068fc378daa952ba7f163c4a11628f55a4df523b3ef908290a45050565b6001600160e01b0319811681146120ac57600080fd5b600060208284031215612ae157600080fd5b813561142581612ab9565b60005b83811015612b07578181015183820152602001612aef565b50506000910152565b60008151808452612b28816020860160208601612aec565b601f01601f19169290920160200192915050565b6020815260006114256020830184612b10565b600060208284031215612b6157600080fd5b5035919050565b80356001600160a01b038116811461252457600080fd5b60008060408385031215612b9257600080fd5b612b9b83612b68565b946020939093013593505050565b600060208284031215612bbb57600080fd5b61142582612b68565b6020815260008251610380806020850152612be36103a0850183612b10565b602086015160408681019190915286015160608087019190915286015160808087019190915286015160a08087019190915286015160c08087019190915286015160e08087019190915286015161010080870191909152860151610120808701919091528601516101408087019190915286015161016080870191909152860151610180808701919091528601516101a0808701919091528601516101c0808701919091528601516101e08087019190915286015161020080870191909152860151610220808701919091528601516102408087019190915286015161026080870191909152860151610280808701919091528601516102a0808701919091528601516102c0808701919091528601516102e08087019190915286015161030080870191909152860151610320808701919091528601516103408087019190915286015161036080870191909152909501519301929092525090919050565b600080600060608486031215612d5757600080fd5b612d6084612b68565b9250612d6e60208501612b68565b9150604084013590509250925092565b60008060408385031215612d9157600080fd5b50508035926020909101359150565b60008060408385031215612db357600080fd5b612dbc83612b68565b915060208301358015158114612dd157600080fd5b809150509250929050565b60008083601f840112612dee57600080fd5b50813567ffffffffffffffff811115612e0657600080fd5b602083019150836020828501011115612e1e57600080fd5b9250929050565b60008060008060008060008060006101008a8c031215612e4457600080fd5b893567ffffffffffffffff811115612e5b57600080fd5b612e678c828d01612ddc565b909d909c5060208c01359b60408101359b5060608101359a506080810135995060a0810135985060c0810135975060e0013595509350505050565b634e487b7160e01b600052604160045260246000fd5b600067ffffffffffffffff80841115612ed357612ed3612ea2565b604051601f8501601f19908116603f01168101908282118183101715612efb57612efb612ea2565b81604052809350858152868686011115612f1457600080fd5b858560208301376000602087830101525050509392505050565b600060208284031215612f4057600080fd5b813567ffffffffffffffff811115612f5757600080fd5b8201601f81018413612f6857600080fd5b610e6d84823560208401612eb8565b600080600060608486031215612f8c57600080fd5b505081359360208301359350604090920135919050565b60008060008060808587031215612fb957600080fd5b612fc285612b68565b9350612fd060208601612b68565b925060408501359150606085013567ffffffffffffffff811115612ff357600080fd5b8501601f8101871361300457600080fd5b61301387823560208401612eb8565b91505092959194509250565b600080600080600060a0868803121561303757600080fd5b505083359560208501359550604085013594606081013594506080013592509050565b60008060006040848603121561306f57600080fd5b833567ffffffffffffffff81111561308657600080fd5b61309286828701612ddc565b9094509250506020840135600581106130aa57600080fd5b809150509250925092565b600080604083850312156130c857600080fd5b6130d183612b68565b91506130df60208401612b68565b90509250929050565b600181811c908216806130fc57607f821691505b60208210810361251457634e487b7160e01b600052602260045260246000fd5b6020808252600d908201526c1058d8d95cdcc811195b9a5959609a1b604082015260600190565b602080825260149082015273151bdad95b88191bd95cc81b9bdd08195e1a5cdd60621b604082015260600190565b6020808252602d908201527f4552433732313a2063616c6c6572206973206e6f7420746f6b656e206f776e6560408201526c1c881bdc88185c1c1c9bdd9959609a1b606082015260800190565b634e487b7160e01b600052601160045260246000fd5b6000826131f157634e487b7160e01b600052601260045260246000fd5b500490565b818103818111156106d6576106d66131be565b6000835161321b818460208801612aec565b83519083019061322f818360208801612aec565b01949350505050565b80820281158282048414176106d6576106d66131be565b634e487b7160e01b600052602160045260246000fd5b8183823760009101908152919050565b808201808211156106d6576106d66131be565b60208082526025908201527f4552433732313a207472616e736665722066726f6d20696e636f72726563742060408201526437bbb732b960d91b606082015260800190565b601f8211156108aa57600081815260208120601f850160051c810160208610156132f45750805b601f850160051c820191505b8181101561331357828155600101613300565b505050505050565b815167ffffffffffffffff81111561333557613335612ea2565b6133498161334384546130e8565b846132cd565b602080601f83116001811461337e57600084156133665750858301515b600019600386901b1c1916600185901b178555613313565b600085815260208120601f198616915b828110156133ad5788860151825594840194600190910190840161338e565b50858210156133cb5787850151600019600388901b60f8161c191681555b5050505050600190811b01905550565b60208082526032908201527f4552433732313a207472616e7366657220746f206e6f6e20455243373231526560408201527131b2b4bb32b91034b6b83632b6b2b73a32b960711b606082015260800190565b60006001820161343f5761343f6131be565b5060010190565b6001600160a01b038581168252841660208201526040810183905260806060820181905260009061347990830184612b10565b9695505050505050565b60006020828403121561349557600080fd5b815161142581612ab956fea2646970667358221220b09c326c1cbc2f8afae87cd8b2fb73c5c9dc98fe9875fcb202e11c3b477f77be64736f6c63430008130033",
  "immutableReferences": {},
  "source": "// SPDX-License-Identifier: MIT\npragma solidity ^0.8.18;\n\nimport \"@openzeppelin/contracts/token/ERC721/ERC721.sol\";\nimport \"@openzeppelin/contracts/utils/Counters.sol\";\nimport \"@openzeppelin/contracts/utils/math/SafeMath.sol\";\n\ncontract FighterAttributes is ERC721 {\n    using Counters for Counters.Counter;\n    using SafeMath for uint256;\n\n    // Class enumeration\n    enum FighterClass {\n        None,\n        DarkKnight,\n        DarkWizard,\n        FairyElf,\n        MagicGladiator\n    }\n\n    // Struct for fighter attributes\n    struct Attributes {\n        string name;\n        uint256 tokenId;\n        uint256 strength;\n        uint256 agility;\n        uint256 energy;\n        uint256 vitality;\n        uint256 experience;\n        uint256 class;\n\n\n        uint256 hpPerVitalityPoint;\n        uint256 manaPerEnergyPoint;\n        uint256 hpIncreasePerLevel;\n        uint256 manaIncreasePerLevel;\n        uint256 statPointsPerLevel;\n        uint256 attackSpeed;\n        uint256 agilityPointsPerSpeed;\n        uint256 isNpc;\n        uint256 dropRarityLevel;\n        \n\n        // item slots\n        /*\n            1. helmet\n            2. armour\n            3. pants\n            4. gloves\n            5. boots\n            6. left hand\n            7. right hand\n            8. left ring\n            9, right ring\n            10, pendant\n            11. wings\n\n        */\n        uint256 helmSlot;\n        uint256 armourSlot;\n        uint256 pantsSlot;\n        uint256 glovesSlot;\n        uint256 bootsSlot;\n        uint256 leftHandSlot;\n        uint256 rightHandSlot;\n        uint256 leftRingSlot;\n        uint256 rightRingSlot;\n        uint256 pendSlot;\n        uint256 wingsSlot;\n        \n        \n    }\n\n    // Initial attributes by class\n    mapping (uint256 => Attributes) private _initialAttributes;\n    mapping (uint256 => Attributes) private _tokenAttributes;\n    mapping (string => bool) public names;\n\n    // Events\n    event FighterCreated(address indexed owner, uint256 tokenId, uint8 class);\n    event NPCCreated(address indexed creator, uint256 tokenId, uint8 class);\n    event StatsUpdated(uint256 tokenId, uint256 strength, uint256 agility, uint256 energy, uint256 vitality);\n    event ItemEquiped(uint256 tokenId, uint256 itemId, uint256 slot);\n\n    // Counter for token IDs\n    Counters.Counter private _tokenIdCounter;\n\n    constructor() ERC721(\"Combats\", \"Fighter\") {\n        // Set initial attributes for each class\n        _initialAttributes[uint256(FighterClass.DarkKnight)]        = Attributes(\"\", 0, 42, 21,  5, 20, 0, 1,     5,  5, 5, 1, 5, 27, 7, 0, 0,    0, 0, 0, 0, 0, 0, 0, 0, 0, 0, 0);\n        _initialAttributes[uint256(FighterClass.DarkWizard)]        = Attributes(\"\", 0, 15, 20, 50, 20, 0, 2,     3, 10, 3, 5, 5, 16, 5, 0, 0,    0, 0, 0, 0, 0, 0, 0, 0, 0, 0, 0);\n        _initialAttributes[uint256(FighterClass.FairyElf)]          = Attributes(\"\", 0, 20, 25, 15, 20, 0, 3,     3,  5, 3, 4, 5, 12, 5, 0, 0,    0, 0, 0, 0, 0, 0, 0, 0, 0, 0, 0);\n        _initialAttributes[uint256(FighterClass.MagicGladiator)]    = Attributes(\"\", 0, 28, 14, 20, 20, 0, 4,     4,  7, 6, 2, 7, 23, 7, 0, 0,    0, 0, 0, 0, 0, 0, 0, 0, 0, 0, 0);\n\n        owner = msg.sender;\n    }\n\n    function equipItem(uint256 tokenId, uint256 itemId, uint256 slot) external {\n        require(_exists(tokenId), \"Char does not exist\");\n        require(ownerOf(tokenId) == msg.sender, \"Access Denied\");\n        require(slot > 0, \"Invalid slot\");\n\n        if (slot == 1) _tokenAttributes[tokenId].helmSlot = itemId;\n        if (slot == 2) _tokenAttributes[tokenId].armourSlot = itemId;\n        if (slot == 3) _tokenAttributes[tokenId].pantsSlot = itemId;\n        if (slot == 4) _tokenAttributes[tokenId].glovesSlot = itemId;\n        if (slot == 5) _tokenAttributes[tokenId].bootsSlot = itemId;\n        if (slot == 6) _tokenAttributes[tokenId].leftHandSlot = itemId;\n        if (slot == 7) _tokenAttributes[tokenId].rightHandSlot = itemId;\n        if (slot == 8) _tokenAttributes[tokenId].leftRingSlot = itemId;\n        if (slot == 9) _tokenAttributes[tokenId].rightRingSlot = itemId;\n        if (slot == 10) _tokenAttributes[tokenId].pendSlot = itemId;\n        if (slot == 11) _tokenAttributes[tokenId].wingsSlot = itemId;\n\n        emit ItemEquiped(tokenId, itemId, slot);\n    }\n    \n    function updateFighterStats(uint256 tokenId, uint256 strength, uint256 agility, uint256 energy, uint256 vitality)  external  {\n        // Check msg.sender is the NFT owner\n        require(ownerOf(tokenId) == msg.sender, \"Access Denied\");\n        \n        require(strength >= _tokenAttributes[tokenId].strength, \"Strength can't be decreased\");\n        require(agility >= _tokenAttributes[tokenId].agility, \"Agility can't be decreased\");\n        require(energy >= _tokenAttributes[tokenId].energy, \"Energy can't be decreased\");\n        require(vitality >= _tokenAttributes[tokenId].vitality, \"Vitality can't be decreased\");\n\n\n        uint256 maxPoints = getMaxStatPoints(tokenId);\n        uint256 usedStatPoints = getTotalUsedStatPoints(tokenId);\n\n        uint256 newTotalStats = safeAdd(strength, safeAdd(agility, safeAdd(energy, vitality)));\n\n        require(newTotalStats <= maxPoints, \"Trying too add too many points\");\n\n        _tokenAttributes[tokenId].strength = strength;\n        _tokenAttributes[tokenId].agility = agility;\n        _tokenAttributes[tokenId].energy = energy;\n        _tokenAttributes[tokenId].vitality = vitality;\n\n        emit StatsUpdated(tokenId, strength, agility, energy, vitality);\n    }\n\n    function getMaxStatPoints(uint256 tokenId) public view returns (uint256) {\n        uint256 initialPoints = safeAdd(_initialAttributes[_tokenAttributes[tokenId].class].strength,\n                safeAdd(_initialAttributes[_tokenAttributes[tokenId].class].agility, \n                safeAdd(_initialAttributes[_tokenAttributes[tokenId].class].energy,\n                _initialAttributes[_tokenAttributes[tokenId].class].vitality)));\n\n        uint256 levelPoints = safeMul(getLevel(tokenId), _tokenAttributes[tokenId].statPointsPerLevel);\n\n        return safeAdd(initialPoints, levelPoints);\n    }\n\n    function getTotalUsedStatPoints(uint256 tokenId) public view returns (uint256) {\n        return safeAdd(_tokenAttributes[tokenId].strength,\n                safeAdd(_tokenAttributes[tokenId].agility, \n                safeAdd(_tokenAttributes[tokenId].energy,\n                _tokenAttributes[tokenId].vitality)));\n    }\n\n    // Create a new fighter NFT with initial attributes\n    function createFighter(string calldata name, FighterClass fighterClass) external returns (uint256) {\n        // Make sure the class is valid\n        require(fighterClass != FighterClass.None, \"Invalid fighter class\");\n        require(!names[name], \"Name taken\");\n\n        // Get the initial attributes for the class\n        Attributes memory initialAttrs = _initialAttributes[uint256(fighterClass)];\n        initialAttrs.name = name;\n       \n\n        // Mint the NFT with the initial attributes\n        _tokenIdCounter.increment();\n        uint256 tokenId = _tokenIdCounter.current();\n        _safeMint(msg.sender, tokenId);\n        _setTokenAttributes(tokenId, initialAttrs);\n\n        _tokenAttributes[tokenId].tokenId = tokenId;\n        \n\n        emit FighterCreated(msg.sender, tokenId, uint8(fighterClass));\n\n        return tokenId;\n    }\n\n    function createNPC(string calldata name, uint256 strength, uint256 agility, uint256 energy, uint256 vitality, uint256 attackSpeed, uint256 level, uint256 dropRarityLevel) external returns (uint256) {\n        Attributes memory atts = Attributes(name, 0, strength, agility, energy,vitality, getExpFromLevel(level), 0,        0, 0, 0, 0, 0, attackSpeed,      0, 1, dropRarityLevel,     0, 0, 0, 0, 0, 0, 0, 0, 0, 0, 0);\n        _tokenIdCounter.increment();\n        uint256 tokenId = _tokenIdCounter.current();\n        _safeMint(msg.sender, tokenId);\n        _setTokenAttributes(tokenId, atts);\n        _tokenAttributes[tokenId].tokenId = tokenId;\n\n        emit NPCCreated(msg.sender, tokenId, 0);\n\n        return tokenId;\n    }\n\n    // Get the attributes for a fighter NFT\n    function getTokenAttributes(uint256 tokenId) public view returns (Attributes memory) {\n        require(_exists(tokenId), \"Token does not exist\");\n\n        return _tokenAttributes[tokenId];\n    }\n\n    // Set the attributes for a fighter NFT\n    function _setTokenAttributes(uint256 tokenId, Attributes memory attrs) internal {\n        require(_exists(tokenId), \"Token does not exist\");\n\n        _tokenAttributes[tokenId] = attrs;\n    }\n\n    // Increase fighter experience\n    function increaseExperience(uint256 tokenId, uint256 addExp) external  {\n        require(_exists(tokenId), \"Token does not exist\");\n\n        _tokenAttributes[tokenId].experience = min(maxExperience, safeAdd(_tokenAttributes[tokenId].experience, addExp));\n    }\n\n\n    function getMaxHealth(uint256 tokenId) public view returns (uint256) \n    {\n        require(_exists(tokenId), \"Token does not exist\");\n        uint256 increasePerLevel = 0;\n        uint256 hpPerVitalityPoint = 0;\n        uint256 vitalityPoints;\n\n        increasePerLevel = _tokenAttributes[tokenId].hpIncreasePerLevel;\n        hpPerVitalityPoint = _tokenAttributes[tokenId].hpPerVitalityPoint;\n        \n\n        return safeAdd(safeMul(increasePerLevel, getLevel(tokenId)), safeMul(hpPerVitalityPoint, _tokenAttributes[tokenId].vitality));\n    }\n\n\n    function getMaxMana(uint256 tokenId) public view returns (uint256) \n    {\n        require(_exists(tokenId), \"Token does not exist\");\n        uint256 increasePerLevel = 0;\n        uint256 mpPerEnergyPoint = 0;\n        uint256 energyPoints;\n\n        \n        increasePerLevel = _tokenAttributes[tokenId].manaIncreasePerLevel;\n        mpPerEnergyPoint = _tokenAttributes[tokenId].manaPerEnergyPoint;\n        \n\n        return safeAdd(safeMul(mpPerEnergyPoint, _tokenAttributes[tokenId].energy), safeMul(increasePerLevel, getLevel(tokenId)));\n    }\n\n    struct FighterStats {\n        uint256 tokenId;\n        uint256 maxHealth;\n        uint256 maxMana;\n        uint256 level;\n        uint256 exp;\n        uint256 totalStatPoints;\n        uint256 maxStatPoints;\n    }\n\n    function getFighterStats(uint256 tokenId) public view returns (FighterStats memory)\n    {\n        require(_exists(tokenId), \"Token does not exist\");\n        FighterStats memory stats = FighterStats({\n            tokenId: tokenId,\n            maxHealth: getMaxHealth(tokenId),\n            maxMana: getMaxMana(tokenId),\n            level: getLevel(tokenId),\n            exp: getExperience(tokenId),\n            totalStatPoints: getTotalUsedStatPoints(tokenId),\n            maxStatPoints: getMaxStatPoints(tokenId)\n        });\n\n        return stats;\n    }\n\n    function getExperience(uint256 tokenId) public view returns (uint256)\n    {\n        require(_exists(tokenId), \"Token does not exist\");\n\n        // Health = Health_After_Last_Damage + (Current Block Number - Last Damage Block Number) * Health Regeneration Rate\n        return _tokenAttributes[tokenId].experience;\n    }\n\n    // Get player level\n    function getLevel(uint256 tokenId) public view returns (uint256) \n    {\n        require(_exists(tokenId), \"Token does not exist\");\n\n        uint256 exp = _tokenAttributes[tokenId].experience;\n\n        return safeSub(sqrt(safeAdd(safeMul(experienceDivider, exp), 125)), 5) / 10;\n    }\n\n    // Reverse function for getLevel\n    function getExpFromLevel(uint256 level) public view returns (uint256) {\n        uint256 exp = level.mul(10).add(5);\n        exp = safePow(exp, 2);\n        exp = exp.sub(125).div(experienceDivider);\n        return exp;\n    }\n\n    address public owner; // holds the address of the contract owner\n\n    // Event fired when the owner of the contract is changed\n    event SetOwner(address indexed previousOwner, address indexed newOwner);\n    event SetBattleContract(address battleContract, bool isActive);\n\n    // Allows only the owner of the contract to execute the function\n    modifier onlyOwner {\n        require(msg.sender == owner, \"Access Denied\");\n        _;\n    }\n\n    // Allows only the owner of the contract to execute the function\n    modifier onlyGM {\n        require(isGM[msg.sender] || msg.sender == owner, \"Access Denied\");\n        _;\n    }\n\n     // Allows only the owner of the contract to execute the function\n    modifier onlyBattleContract {\n        require(isBattleContract[msg.sender], \"Access Denied\");\n        _;\n    }\n\n \n\n    // Changes the owner of the contract\n    function setOwner(address newOwner) public onlyOwner {\n        emit SetOwner(owner, newOwner);\n        owner = newOwner;\n    }\n\n    mapping (address => bool) public isGM;\n    event SetGM(address, bool);\n    // Changes the owner of the contract\n    function setGM(address gmAddress, bool val) public onlyOwner {\n        isGM[gmAddress] = val;\n        emit SetGM(gmAddress, val);\n    }\n\n    mapping (address => bool) private isBattleContract;\n\n    // Set battle contract\n    function setBattleContract(address contr, bool isActive) external onlyOwner\n    {\n        isBattleContract[contr] = isActive;\n        emit SetBattleContract(contr, isActive);\n    }\n\n    uint256 healthRegenerationDivider = 8;\n    uint256 manaRegenerationDivider = 8;\n    uint256 agilityPerDefence = 4;\n    uint256 strengthPerDamage = 8;\n    uint256 energyPerDamage = 8;\n    uint256 maxExperience = 291342500;\n    uint256 experienceDivider = 5;\n\n\n    event updateHealthRegenerationDivider(uint256);\n    event updateManaRegenerationDivider(uint256);\n    event updateAgilityPerDefence(uint256);\n    event updateStrengthPerDamage(uint256);\n    event updateEnergyPerDamage(uint256);\n    event updateMaxExperience(uint256);\n    event updateExperienceDivider(uint256);\n    \n\n    function setHealthRegenerationDivider(uint256 val) external onlyOwner {\n        healthRegenerationDivider = val;\n\n        emit updateHealthRegenerationDivider(val);\n    }\n\n   function setManaRegenerationDivider(uint256 val) external onlyOwner {\n        manaRegenerationDivider = val;\n\n        emit updateManaRegenerationDivider(val);\n    }\n\n   function setAgilityPerDefence(uint256 val) external onlyOwner {\n        agilityPerDefence = val;\n\n        emit updateAgilityPerDefence(val);\n    }\n\n   function setStrengthPerDamage(uint256 val) external onlyOwner {\n        strengthPerDamage = val;\n\n        emit updateStrengthPerDamage(val);\n    }\n\n   function setEnergyPerDamage(uint256 val) external onlyOwner {\n        energyPerDamage = val;\n\n        emit updateEnergyPerDamage(val);\n    }\n\n    function setMaxExperience(uint256 val) external onlyOwner {\n        maxExperience = val;\n\n        emit updateMaxExperience(val);\n    }\n\n    function setExperienceDivider(uint256 val) external onlyOwner {\n        experienceDivider = val;\n\n        emit updateExperienceDivider(val);\n    }\n\n\n\n    // Cube Root function\n    function sqrt(uint y) internal pure returns (uint z) {\n        if (y > 3) {\n            z = y;\n            uint x = y / 2 + 1;\n            while (x < z) {\n                z = x;\n                x = (y / x + x) / 2;\n            }\n        } else if (y != 0) {\n            z = 1;\n        }\n\n        return z;\n    }\n\n    // Returns the smaller of two values\n    function min(uint a, uint b) private pure returns (uint) {\n        return a < b ? a : b;\n    }\n\n    // Returns the largest of the two values\n    function max(uint a, uint b) private pure returns (uint) {\n        return a > b ? a : b;\n    }\n\n    // Safe Multiply Function - prevents integer overflow \n    function safeMul(uint a, uint b) public view returns (uint) {\n        uint c = a * b;\n        require(a == 0 || c / a == b, \"safeMul Failed\");\n        return c;\n    }\n\n    // Safe Subtraction Function - prevents integer overflow \n    function safeSub(uint a, uint b) public view returns (uint) {\n        require(b <= a, \"safeSub Failed\");\n        return a - b;\n    }\n\n    // Safe Addition Function - prevents integer overflow \n    function safeAdd(uint a, uint b) public view returns (uint) {\n        uint c = a + b;\n        require(c>=a && c>=b, \"safeAdd Failed\");\n        return c;\n    }\n\n    function safePow(uint256 base, uint256 exponent) internal pure returns (uint256) {\n        if (exponent == 0) {\n            return 1;\n        } else if (exponent == 1) {\n            return base;\n        }\n\n        uint256 result = base;\n        for (uint256 i = 1; i < exponent; i++) {\n            result = result.mul(base);\n        }\n        return result;\n    }\n}\n",
  "sourcePath": "/Users/max/Documents/prog/game-contracts/contracts/FighterAttributes.sol",
  "compiler": {
    "name": "solc",
    "version": "0.8.19+commit.7dd6d404.Emscripten.clang"
  },
  "schemaVersion": "3.4.13",
  "updatedAt": "2023-04-20T09:33:16.332Z",
  "networkType": "ethereum",
  "devdoc": {
    "events": {
      "Approval(address,address,uint256)": {
        "details": "Emitted when `owner` enables `approved` to manage the `tokenId` token."
      },
      "ApprovalForAll(address,address,bool)": {
        "details": "Emitted when `owner` enables or disables (`approved`) `operator` to manage all of its assets."
      },
      "Transfer(address,address,uint256)": {
        "details": "Emitted when `tokenId` token is transferred from `from` to `to`."
      }
    },
    "kind": "dev",
    "methods": {
      "approve(address,uint256)": {
        "details": "See {IERC721-approve}."
      },
      "balanceOf(address)": {
        "details": "See {IERC721-balanceOf}."
      },
      "getApproved(uint256)": {
        "details": "See {IERC721-getApproved}."
      },
      "isApprovedForAll(address,address)": {
        "details": "See {IERC721-isApprovedForAll}."
      },
      "name()": {
        "details": "See {IERC721Metadata-name}."
      },
      "ownerOf(uint256)": {
        "details": "See {IERC721-ownerOf}."
      },
      "safeTransferFrom(address,address,uint256)": {
        "details": "See {IERC721-safeTransferFrom}."
      },
      "safeTransferFrom(address,address,uint256,bytes)": {
        "details": "See {IERC721-safeTransferFrom}."
      },
      "setApprovalForAll(address,bool)": {
        "details": "See {IERC721-setApprovalForAll}."
      },
      "supportsInterface(bytes4)": {
        "details": "See {IERC165-supportsInterface}."
      },
      "symbol()": {
        "details": "See {IERC721Metadata-symbol}."
      },
      "tokenURI(uint256)": {
        "details": "See {IERC721Metadata-tokenURI}."
      },
      "transferFrom(address,address,uint256)": {
        "details": "See {IERC721-transferFrom}."
      }
    },
    "version": 1
  },
  "userdoc": {
    "kind": "user",
    "methods": {},
    "version": 1
  }
}