{
  "contractName": "ItemsHelper",
  "abi": [
    {
      "inputs": [
        {
          "internalType": "address",
          "name": "itemsAddress",
          "type": "address"
        }
      ],
      "stateMutability": "nonpayable",
      "type": "constructor"
    },
    {
      "inputs": [
        {
          "internalType": "uint256",
          "name": "tokenId",
          "type": "uint256"
        }
      ],
      "name": "getTokenAttributes",
      "outputs": [
        {
          "components": [
            {
              "internalType": "string",
              "name": "name",
              "type": "string"
            },
            {
              "internalType": "uint256",
              "name": "tokenId",
              "type": "uint256"
            },
            {
              "internalType": "uint256",
              "name": "itemLevel",
              "type": "uint256"
            },
            {
              "internalType": "uint256",
              "name": "maxLevel",
              "type": "uint256"
            },
            {
              "internalType": "uint256",
              "name": "durability",
              "type": "uint256"
            },
            {
              "internalType": "uint256",
              "name": "classRequired",
              "type": "uint256"
            },
            {
              "internalType": "uint256",
              "name": "strengthRequired",
              "type": "uint256"
            },
            {
              "internalType": "uint256",
              "name": "agilityRequired",
              "type": "uint256"
            },
            {
              "internalType": "uint256",
              "name": "energyRequired",
              "type": "uint256"
            },
            {
              "internalType": "uint256",
              "name": "vitalityRequired",
              "type": "uint256"
            },
            {
              "internalType": "uint256",
              "name": "itemWidth",
              "type": "uint256"
            },
            {
              "internalType": "uint256",
              "name": "itemHeight",
              "type": "uint256"
            },
            {
              "internalType": "uint256",
              "name": "acceptableSlot1",
              "type": "uint256"
            },
            {
              "internalType": "uint256",
              "name": "acceptableSlot2",
              "type": "uint256"
            },
            {
              "internalType": "uint256",
              "name": "physicalDamage",
              "type": "uint256"
            },
            {
              "internalType": "uint256",
              "name": "magicDamage",
              "type": "uint256"
            },
            {
              "internalType": "uint256",
              "name": "defense",
              "type": "uint256"
            },
            {
              "internalType": "uint256",
              "name": "attackSpeed",
              "type": "uint256"
            },
            {
              "internalType": "uint256",
              "name": "defenseSuccessRate",
              "type": "uint256"
            },
            {
              "internalType": "uint256",
              "name": "additionalDamage",
              "type": "uint256"
            },
            {
              "internalType": "uint256",
              "name": "additionalDefense",
              "type": "uint256"
            },
            {
              "internalType": "uint256",
              "name": "increasedExperienceGain",
              "type": "uint256"
            },
            {
              "internalType": "uint256",
              "name": "damageIncrease",
              "type": "uint256"
            },
            {
              "internalType": "uint256",
              "name": "defenseSuccessRateIncrease",
              "type": "uint256"
            },
            {
              "internalType": "uint256",
              "name": "lifeAfterMonsterIncrease",
              "type": "uint256"
            },
            {
              "internalType": "uint256",
              "name": "manaAfterMonsterIncrease",
              "type": "uint256"
            },
            {
              "internalType": "uint256",
              "name": "goldAfterMonsterIncrease",
              "type": "uint256"
            },
            {
              "internalType": "uint256",
              "name": "doubleDamageProbabilityIncrease",
              "type": "uint256"
            },
            {
              "internalType": "uint256",
              "name": "excellentDamageProbabilityIncrease",
              "type": "uint256"
            },
            {
              "internalType": "uint256",
              "name": "ignoreOpponentsDefenseRateIncrease",
              "type": "uint256"
            },
            {
              "internalType": "uint256",
              "name": "reflectDamage",
              "type": "uint256"
            },
            {
              "internalType": "uint256",
              "name": "maxLifeIncrease",
              "type": "uint256"
            },
            {
              "internalType": "uint256",
              "name": "maxManaIncrease",
              "type": "uint256"
            },
            {
              "internalType": "uint256",
              "name": "excellentDamageRateIncrease",
              "type": "uint256"
            },
            {
              "internalType": "uint256",
              "name": "doubleDamageRateIncrease",
              "type": "uint256"
            },
            {
              "internalType": "uint256",
              "name": "ignoreOpponentsDefenseSuccessRateIncrease",
              "type": "uint256"
            },
            {
              "internalType": "uint256",
              "name": "attackDamageIncrease",
              "type": "uint256"
            },
            {
              "internalType": "uint256",
              "name": "isAncient",
              "type": "uint256"
            },
            {
              "internalType": "uint256",
              "name": "reflectDamageRateIncrease",
              "type": "uint256"
            },
            {
              "internalType": "uint256",
              "name": "decreaseDamageRateIncrease",
              "type": "uint256"
            },
            {
              "internalType": "uint256",
              "name": "hpRecoveryRateIncrease",
              "type": "uint256"
            },
            {
              "internalType": "uint256",
              "name": "mpRecoveryRateIncrease",
              "type": "uint256"
            },
            {
              "internalType": "uint256",
              "name": "defenceIncreasePerLevel",
              "type": "uint256"
            },
            {
              "internalType": "uint256",
              "name": "damageIncreasePerLevel",
              "type": "uint256"
            },
            {
              "internalType": "uint256",
              "name": "increaseDefenseRate",
              "type": "uint256"
            },
            {
              "internalType": "uint256",
              "name": "strengthReqIncreasePerLevel",
              "type": "uint256"
            },
            {
              "internalType": "uint256",
              "name": "agilityReqIncreasePerLevel",
              "type": "uint256"
            },
            {
              "internalType": "uint256",
              "name": "energyReqIncreasePerLevel",
              "type": "uint256"
            },
            {
              "internalType": "uint256",
              "name": "vitalityReqIncreasePerLevel",
              "type": "uint256"
            },
            {
              "internalType": "uint256",
              "name": "attackSpeedIncrease",
              "type": "uint256"
            },
            {
              "internalType": "uint256",
              "name": "fighterId",
              "type": "uint256"
            },
            {
              "internalType": "uint256",
              "name": "lastUpdBlock",
              "type": "uint256"
            },
            {
              "internalType": "uint256",
              "name": "itemRarityLevel",
              "type": "uint256"
            },
            {
              "internalType": "uint256",
              "name": "itemAttributesId",
              "type": "uint256"
            },
            {
              "internalType": "bool",
              "name": "luck",
              "type": "bool"
            },
            {
              "internalType": "bool",
              "name": "skill",
              "type": "bool"
            },
            {
              "internalType": "bool",
              "name": "isBox",
              "type": "bool"
            },
            {
              "internalType": "bool",
              "name": "isWeapon",
              "type": "bool"
            },
            {
              "internalType": "bool",
              "name": "isArmour",
              "type": "bool"
            },
            {
              "internalType": "bool",
              "name": "isJewel",
              "type": "bool"
            },
            {
              "internalType": "bool",
              "name": "isMisc",
              "type": "bool"
            },
            {
              "internalType": "bool",
              "name": "isConsumable",
              "type": "bool"
            },
            {
              "internalType": "bool",
              "name": "inShop",
              "type": "bool"
            }
          ],
          "internalType": "struct ItemAtts.ItemAttributes",
          "name": "",
          "type": "tuple"
        }
      ],
      "stateMutability": "nonpayable",
      "type": "function"
    },
    {
      "inputs": [
        {
          "internalType": "uint256",
          "name": "tokenId",
          "type": "uint256"
        }
      ],
      "name": "burnItem",
      "outputs": [],
      "stateMutability": "nonpayable",
      "type": "function"
    },
    {
      "inputs": [
        {
          "internalType": "uint256",
          "name": "tokenId",
          "type": "uint256"
        },
        {
          "internalType": "uint256",
          "name": "level",
          "type": "uint256"
        }
      ],
      "name": "setItemLevel",
      "outputs": [],
      "stateMutability": "nonpayable",
      "type": "function"
    },
    {
      "inputs": [
        {
          "internalType": "uint256",
          "name": "tokenId",
          "type": "uint256"
        },
        {
          "internalType": "uint256",
          "name": "points",
          "type": "uint256"
        }
      ],
      "name": "setAdditionalPoints",
      "outputs": [],
      "stateMutability": "nonpayable",
      "type": "function"
    },
    {
      "inputs": [
        {
          "internalType": "uint256",
          "name": "rarityLevel",
          "type": "uint256"
        },
        {
          "internalType": "uint256",
          "name": "fighterId",
          "type": "uint256"
        },
        {
          "internalType": "uint256",
          "name": "experience",
          "type": "uint256"
        }
      ],
      "name": "dropItem",
      "outputs": [
        {
          "internalType": "bytes32",
          "name": "",
          "type": "bytes32"
        }
      ],
      "stateMutability": "nonpayable",
      "type": "function"
    },
    {
      "inputs": [
        {
          "internalType": "address",
          "name": "owner",
          "type": "address"
        }
      ],
      "name": "safeMint",
      "outputs": [
        {
          "internalType": "uint256",
          "name": "",
          "type": "uint256"
        }
      ],
      "stateMutability": "nonpayable",
      "type": "function"
    },
    {
      "inputs": [
        {
          "internalType": "uint256",
          "name": "tokenId",
          "type": "uint256"
        },
        {
          "components": [
            {
              "internalType": "string",
              "name": "name",
              "type": "string"
            },
            {
              "internalType": "uint256",
              "name": "tokenId",
              "type": "uint256"
            },
            {
              "internalType": "uint256",
              "name": "itemLevel",
              "type": "uint256"
            },
            {
              "internalType": "uint256",
              "name": "maxLevel",
              "type": "uint256"
            },
            {
              "internalType": "uint256",
              "name": "durability",
              "type": "uint256"
            },
            {
              "internalType": "uint256",
              "name": "classRequired",
              "type": "uint256"
            },
            {
              "internalType": "uint256",
              "name": "strengthRequired",
              "type": "uint256"
            },
            {
              "internalType": "uint256",
              "name": "agilityRequired",
              "type": "uint256"
            },
            {
              "internalType": "uint256",
              "name": "energyRequired",
              "type": "uint256"
            },
            {
              "internalType": "uint256",
              "name": "vitalityRequired",
              "type": "uint256"
            },
            {
              "internalType": "uint256",
              "name": "itemWidth",
              "type": "uint256"
            },
            {
              "internalType": "uint256",
              "name": "itemHeight",
              "type": "uint256"
            },
            {
              "internalType": "uint256",
              "name": "acceptableSlot1",
              "type": "uint256"
            },
            {
              "internalType": "uint256",
              "name": "acceptableSlot2",
              "type": "uint256"
            },
            {
              "internalType": "uint256",
              "name": "physicalDamage",
              "type": "uint256"
            },
            {
              "internalType": "uint256",
              "name": "magicDamage",
              "type": "uint256"
            },
            {
              "internalType": "uint256",
              "name": "defense",
              "type": "uint256"
            },
            {
              "internalType": "uint256",
              "name": "attackSpeed",
              "type": "uint256"
            },
            {
              "internalType": "uint256",
              "name": "defenseSuccessRate",
              "type": "uint256"
            },
            {
              "internalType": "uint256",
              "name": "additionalDamage",
              "type": "uint256"
            },
            {
              "internalType": "uint256",
              "name": "additionalDefense",
              "type": "uint256"
            },
            {
              "internalType": "uint256",
              "name": "increasedExperienceGain",
              "type": "uint256"
            },
            {
              "internalType": "uint256",
              "name": "damageIncrease",
              "type": "uint256"
            },
            {
              "internalType": "uint256",
              "name": "defenseSuccessRateIncrease",
              "type": "uint256"
            },
            {
              "internalType": "uint256",
              "name": "lifeAfterMonsterIncrease",
              "type": "uint256"
            },
            {
              "internalType": "uint256",
              "name": "manaAfterMonsterIncrease",
              "type": "uint256"
            },
            {
              "internalType": "uint256",
              "name": "goldAfterMonsterIncrease",
              "type": "uint256"
            },
            {
              "internalType": "uint256",
              "name": "doubleDamageProbabilityIncrease",
              "type": "uint256"
            },
            {
              "internalType": "uint256",
              "name": "excellentDamageProbabilityIncrease",
              "type": "uint256"
            },
            {
              "internalType": "uint256",
              "name": "ignoreOpponentsDefenseRateIncrease",
              "type": "uint256"
            },
            {
              "internalType": "uint256",
              "name": "reflectDamage",
              "type": "uint256"
            },
            {
              "internalType": "uint256",
              "name": "maxLifeIncrease",
              "type": "uint256"
            },
            {
              "internalType": "uint256",
              "name": "maxManaIncrease",
              "type": "uint256"
            },
            {
              "internalType": "uint256",
              "name": "excellentDamageRateIncrease",
              "type": "uint256"
            },
            {
              "internalType": "uint256",
              "name": "doubleDamageRateIncrease",
              "type": "uint256"
            },
            {
              "internalType": "uint256",
              "name": "ignoreOpponentsDefenseSuccessRateIncrease",
              "type": "uint256"
            },
            {
              "internalType": "uint256",
              "name": "attackDamageIncrease",
              "type": "uint256"
            },
            {
              "internalType": "uint256",
              "name": "isAncient",
              "type": "uint256"
            },
            {
              "internalType": "uint256",
              "name": "reflectDamageRateIncrease",
              "type": "uint256"
            },
            {
              "internalType": "uint256",
              "name": "decreaseDamageRateIncrease",
              "type": "uint256"
            },
            {
              "internalType": "uint256",
              "name": "hpRecoveryRateIncrease",
              "type": "uint256"
            },
            {
              "internalType": "uint256",
              "name": "mpRecoveryRateIncrease",
              "type": "uint256"
            },
            {
              "internalType": "uint256",
              "name": "defenceIncreasePerLevel",
              "type": "uint256"
            },
            {
              "internalType": "uint256",
              "name": "damageIncreasePerLevel",
              "type": "uint256"
            },
            {
              "internalType": "uint256",
              "name": "increaseDefenseRate",
              "type": "uint256"
            },
            {
              "internalType": "uint256",
              "name": "strengthReqIncreasePerLevel",
              "type": "uint256"
            },
            {
              "internalType": "uint256",
              "name": "agilityReqIncreasePerLevel",
              "type": "uint256"
            },
            {
              "internalType": "uint256",
              "name": "energyReqIncreasePerLevel",
              "type": "uint256"
            },
            {
              "internalType": "uint256",
              "name": "vitalityReqIncreasePerLevel",
              "type": "uint256"
            },
            {
              "internalType": "uint256",
              "name": "attackSpeedIncrease",
              "type": "uint256"
            },
            {
              "internalType": "uint256",
              "name": "fighterId",
              "type": "uint256"
            },
            {
              "internalType": "uint256",
              "name": "lastUpdBlock",
              "type": "uint256"
            },
            {
              "internalType": "uint256",
              "name": "itemRarityLevel",
              "type": "uint256"
            },
            {
              "internalType": "uint256",
              "name": "itemAttributesId",
              "type": "uint256"
            },
            {
              "internalType": "bool",
              "name": "luck",
              "type": "bool"
            },
            {
              "internalType": "bool",
              "name": "skill",
              "type": "bool"
            },
            {
              "internalType": "bool",
              "name": "isBox",
              "type": "bool"
            },
            {
              "internalType": "bool",
              "name": "isWeapon",
              "type": "bool"
            },
            {
              "internalType": "bool",
              "name": "isArmour",
              "type": "bool"
            },
            {
              "internalType": "bool",
              "name": "isJewel",
              "type": "bool"
            },
            {
              "internalType": "bool",
              "name": "isMisc",
              "type": "bool"
            },
            {
              "internalType": "bool",
              "name": "isConsumable",
              "type": "bool"
            },
            {
              "internalType": "bool",
              "name": "inShop",
              "type": "bool"
            }
          ],
          "internalType": "struct ItemAtts.ItemAttributes",
          "name": "atts",
          "type": "tuple"
        }
      ],
      "name": "setTokenAttributes",
      "outputs": [],
      "stateMutability": "nonpayable",
      "type": "function"
    },
    {
      "inputs": [
        {
          "internalType": "bytes32",
          "name": "itemHash",
          "type": "bytes32"
        }
      ],
      "name": "getDropQty",
      "outputs": [
        {
          "internalType": "uint256",
          "name": "",
          "type": "uint256"
        }
      ],
      "stateMutability": "nonpayable",
      "type": "function"
    },
    {
      "inputs": [
        {
          "internalType": "bytes32",
          "name": "itemHash",
          "type": "bytes32"
        },
        {
          "internalType": "uint256",
          "name": "qty",
          "type": "uint256"
        }
      ],
      "name": "createDropHash",
      "outputs": [],
      "stateMutability": "nonpayable",
      "type": "function"
    },
    {
      "inputs": [
        {
          "internalType": "uint256",
          "name": "tokenId",
          "type": "uint256"
        }
      ],
      "name": "itemExists",
      "outputs": [
        {
          "internalType": "bool",
          "name": "",
          "type": "bool"
        }
      ],
      "stateMutability": "nonpayable",
      "type": "function"
    }
  ],
  "bytecode": "0x60806040526064600055601c60015560326002556032600355601e600455601e60055560026006556001600755600060085534801561003d57600080fd5b5060405161143638038061143683398101604081905261005c91610081565b600980546001600160a01b0319166001600160a01b03929092169190911790556100b1565b60006020828403121561009357600080fd5b81516001600160a01b03811681146100aa57600080fd5b9392505050565b611376806100c06000396000f3fe608060405234801561001057600080fd5b506004361061009e5760003560e01c8063843bd64111610066578063843bd64114610128578063caf7c4451461014b578063eb36bf9c1461015e578063eceb690214610171578063f108ff2b1461018457600080fd5b80631f4f5a23146100a357806324b9c595146100cc57806332fac8f8146100e157806340d097c3146100f4578063576cc0f714610115575b600080fd5b6100b66100b13660046106ee565b610197565b6040516100c39190610a2e565b60405180910390f35b6100df6100da366004610a48565b6103e9565b005b6100df6100ef366004610a48565b610453565b610107610102366004610a6a565b61048b565b6040519081526020016100c3565b6100df6101233660046106ee565b6104fd565b61013b6101363660046106ee565b61055e565b60405190151581526020016100c3565b6100df610159366004610a48565b6105cc565b6100df61016c366004610ba3565b610604565b61010761017f366004610f11565b610636565b6101076101923660046106ee565b6106bc565b610372604051806107e001604052806060815260200160008152602001600081526020016000815260200160008152602001600081526020016000815260200160008152602001600081526020016000815260200160008152602001600081526020016000815260200160008152602001600081526020016000815260200160008152602001600081526020016000815260200160008152602001600081526020016000815260200160008152602001600081526020016000815260200160008152602001600081526020016000815260200160008152602001600081526020016000815260200160008152602001600081526020016000815260200160008152602001600081526020016000815260200160008152602001600081526020016000815260200160008152602001600081526020016000815260200160008152602001600081526020016000815260200160008152602001600081526020016000815260200160008152602001600081526020016000815260200160008152602001600081526020016000151581526020016000151581526020016000151581526020016000151581526020016000151581526020016000151581526020016000151581526020016000151581526020016000151581525090565b600954604051631f4f5a2360e01b8152600481018490526001600160a01b0390911690631f4f5a2390602401600060405180830381865afa1580156103bb573d6000803e3d6000fd5b505050506040513d6000823e601f3d908101601f191682016040526103e39190810190610f8d565b92915050565b6009546040516324b9c59560e01b815260048101849052602481018390526001600160a01b03909116906324b9c595906044015b600060405180830381600087803b15801561043757600080fd5b505af115801561044b573d6000803e3d6000fd5b505050505050565b60095460405163065f591f60e31b815260048101849052602481018390526001600160a01b03909116906332fac8f89060440161041d565b6009546040516340d097c360e01b81526001600160a01b03838116600483015260009216906340d097c3906024015b6020604051808303816000875af11580156104d9573d6000803e3d6000fd5b505050506040513d601f19601f820116820180604052508101906103e391906112f1565b60095460405163576cc0f760e01b8152600481018390526001600160a01b039091169063576cc0f790602401600060405180830381600087803b15801561054357600080fd5b505af1158015610557573d6000803e3d6000fd5b5050505050565b60095460405163843bd64160e01b8152600481018390526000916001600160a01b03169063843bd64190602401602060405180830381865afa1580156105a8573d6000803e3d6000fd5b505050506040513d601f19601f820116820180604052508101906103e3919061130a565b60095460405163caf7c44560e01b815260048101849052602481018390526001600160a01b039091169063caf7c4459060440161041d565b600954604051633acdafe760e21b81526001600160a01b039091169063eb36bf9c9061041d9085908590600401611327565b600954604051637675b48160e11b81526004810185905260248101849052604481018390526000916001600160a01b03169063eceb6902906064016020604051808303816000875af1158015610690573d6000803e3d6000fd5b505050506040513d601f19601f820116820180604052508101906106b491906112f1565b949350505050565b60095460405163f108ff2b60e01b8152600481018390526000916001600160a01b03169063f108ff2b906024016104ba565b60006020828403121561070057600080fd5b5035919050565b60005b8381101561072257818101518382015260200161070a565b50506000910152565b60008151808452610743816020860160208601610707565b601f01601f19169290920160200192915050565b60006107e0825181855261076d8286018261072b565b6020858101519087015260408086015190870152606080860151908701526080808601519087015260a0808601519087015260c0808601519087015260e08086015190870152610100808601519087015261012080860151908701526101408086015190870152610160808601519087015261018080860151908701526101a080860151908701526101c080860151908701526101e08086015190870152610200808601519087015261022080860151908701526102408086015190870152610260808601519087015261028080860151908701526102a080860151908701526102c080860151908701526102e08086015190870152610300808601519087015261032080860151908701526103408086015190870152610360808601519087015261038080860151908701526103a080860151908701526103c080860151908701526103e08086015190870152610400808601519087015261042080860151908701526104408086015190870152610460808601519087015261048080860151908701526104a080860151908701526104c080860151908701526104e08086015190870152610500808601519087015261052080860151908701526105408086015190870152610560808601519087015261058080860151908701526105a080860151908701526105c080860151908701526105e08086015190870152610600808601519087015261062080860151908701526106408086015190870152610660808601519087015261068080860151908701526106a080860151908701526106c0808601511515908701526106e08086015115159087015261070080860151151590870152610720808601511515908701526107408086015115159087015261076080860151151590870152610780808601511515908701526107a0808601511515908701526107c09485015115159490950193909352509192915050565b602081526000610a416020830184610757565b9392505050565b60008060408385031215610a5b57600080fd5b50508035926020909101359150565b600060208284031215610a7c57600080fd5b81356001600160a01b0381168114610a4157600080fd5b634e487b7160e01b600052604160045260246000fd5b6040516107e0810167ffffffffffffffff81118282101715610acd57610acd610a93565b60405290565b604051601f8201601f1916810167ffffffffffffffff81118282101715610afc57610afc610a93565b604052919050565b600067ffffffffffffffff821115610b1e57610b1e610a93565b50601f01601f191660200190565b600082601f830112610b3d57600080fd5b8135610b50610b4b82610b04565b610ad3565b818152846020838601011115610b6557600080fd5b816020850160208301376000918101602001919091529392505050565b8015158114610b9057600080fd5b50565b8035610b9e81610b82565b919050565b60008060408385031215610bb657600080fd5b82359150602083013567ffffffffffffffff80821115610bd557600080fd5b908401906107e08287031215610bea57600080fd5b610bf2610aa9565b823582811115610c0157600080fd5b610c0d88828601610b2c565b8252506020838101359082015260408084013590820152606080840135908201526080808401359082015260a0808401359082015260c0808401359082015260e08084013590820152610100808401359082015261012080840135908201526101408084013590820152610160808401359082015261018080840135908201526101a080840135908201526101c080840135908201526101e08084013590820152610200808401359082015261022080840135908201526102408084013590820152610260808401359082015261028080840135908201526102a080840135908201526102c080840135908201526102e08084013590820152610300808401359082015261032080840135908201526103408084013590820152610360808401359082015261038080840135908201526103a080840135908201526103c080840135908201526103e08084013590820152610400808401359082015261042080840135908201526104408084013590820152610460808401359082015261048080840135908201526104a080840135908201526104c080840135908201526104e08084013590820152610500808401359082015261052080840135908201526105408084013590820152610560808401359082015261058080840135908201526105a080840135908201526105c080840135908201526105e08084013590820152610600808401359082015261062080840135908201526106408084013590820152610660808401359082015261068080840135908201526106a080840135908201526106c09150610e60828401610b93565b828201526106e09150610e74828401610b93565b828201526107009150610e88828401610b93565b828201526107209150610e9c828401610b93565b828201526107409150610eb0828401610b93565b828201526107609150610ec4828401610b93565b828201526107809150610ed8828401610b93565b828201526107a09150610eec828401610b93565b828201526107c09150610f00828401610b93565b828201528093505050509250929050565b600080600060608486031215610f2657600080fd5b505081359360208301359350604090920135919050565b600082601f830112610f4e57600080fd5b8151610f5c610b4b82610b04565b818152846020838601011115610f7157600080fd5b6106b4826020830160208701610707565b8051610b9e81610b82565b600060208284031215610f9f57600080fd5b815167ffffffffffffffff80821115610fb757600080fd5b908301906107e08286031215610fcc57600080fd5b610fd4610aa9565b825182811115610fe357600080fd5b610fef87828601610f3d565b8252506020838101519082015260408084015190820152606080840151908201526080808401519082015260a0808401519082015260c0808401519082015260e08084015190820152610100808401519082015261012080840151908201526101408084015190820152610160808401519082015261018080840151908201526101a080840151908201526101c080840151908201526101e08084015190820152610200808401519082015261022080840151908201526102408084015190820152610260808401519082015261028080840151908201526102a080840151908201526102c080840151908201526102e08084015190820152610300808401519082015261032080840151908201526103408084015190820152610360808401519082015261038080840151908201526103a080840151908201526103c080840151908201526103e08084015190820152610400808401519082015261042080840151908201526104408084015190820152610460808401519082015261048080840151908201526104a080840151908201526104c080840151908201526104e08084015190820152610500808401519082015261052080840151908201526105408084015190820152610560808401519082015261058080840151908201526105a080840151908201526105c080840151908201526105e08084015190820152610600808401519082015261062080840151908201526106408084015190820152610660808401519082015261068080840151908201526106a080840151908201526106c09150611242828401610f82565b828201526106e09150611256828401610f82565b82820152610700915061126a828401610f82565b82820152610720915061127e828401610f82565b828201526107409150611292828401610f82565b8282015261076091506112a6828401610f82565b8282015261078091506112ba828401610f82565b828201526107a091506112ce828401610f82565b828201526107c091506112e2828401610f82565b91810191909152949350505050565b60006020828403121561130357600080fd5b5051919050565b60006020828403121561131c57600080fd5b8151610a4181610b82565b8281526040602082015260006106b4604083018461075756fea2646970667358221220fd57a0f6239328e86d2d66c3e811f8c795c20a89b6937187a321f06f523dfd2b64736f6c63430008130033",
  "immutableReferences": {},
  "source": "// SPDX-License-Identifier: MIT\npragma solidity ^0.8.18;\nimport \"./ItemAtts.sol\";\nimport \"./Items.sol\";\n\ncontract ItemsHelper is ItemAtts {\n    Items private _items;\n\n    constructor(address itemsAddress) {\n        _items = Items(itemsAddress);\n    }\n\n    // function craftItem(uint256 itemId, address itemOwner, uint256 maxLevel, uint256 maxAddPoints) external returns (uint256) {\n    //     return _items.craftItem(itemId, itemOwner, maxLevel, maxAddPoints);\n    // }\n\n    function getTokenAttributes(uint256 tokenId) external returns (ItemAttributes memory) {\n        return _items.getTokenAttributes(tokenId);\n    }\n\n    function burnItem(uint256 tokenId) external {\n        return _items.burnItem(tokenId);\n    }\n\n    function setItemLevel(uint256 tokenId, uint256 level)  external {\n        return _items.setItemLevel(tokenId, level);\n    }   \n\n    function setAdditionalPoints(uint256 tokenId, uint256 points) external {\n        return _items.setAdditionalPoints(tokenId, points);\n    }\n\n    function dropItem(uint256 rarityLevel, uint256 fighterId, uint256 experience) external returns (bytes32) {\n        return _items.dropItem(rarityLevel, fighterId, experience);\n    }\n\n    function safeMint(address owner) external returns (uint256) {\n        return _items.safeMint(owner);\n    }\n\n    function setTokenAttributes(uint256 tokenId, ItemAttributes memory atts) external {\n        return _items.setTokenAttributes(tokenId, atts);\n    }\n\n    function getDropQty(bytes32 itemHash) external returns (uint256)  {\n        return _items.getDropQty(itemHash);\n    }\n\n    function createDropHash(bytes32 itemHash, uint256 qty) external {\n        _items.createDropHash(itemHash, qty);\n    }\n\n    function itemExists(uint256 tokenId) external returns (bool) {\n        return _items.itemExists(tokenId);\n    }\n}",
  "sourcePath": "/Users/max/Documents/prog/game-contracts/contracts/ItemsHelper.sol",
  "compiler": {
    "name": "solc",
    "version": "0.8.19+commit.7dd6d404.Emscripten.clang"
  },
  "schemaVersion": "3.4.13",
  "updatedAt": "2023-07-25T05:51:08.430Z",
  "networkType": "ethereum",
  "devdoc": {
    "kind": "dev",
    "methods": {},
    "version": 1
  },
  "userdoc": {
    "kind": "user",
    "methods": {},
    "version": 1
  }
}