{
  "contractName": "Items",
  "abi": [
    {
      "inputs": [],
      "stateMutability": "nonpayable",
      "type": "constructor"
    },
    {
      "anonymous": false,
      "inputs": [
        {
          "indexed": true,
          "internalType": "address",
          "name": "owner",
          "type": "address"
        },
        {
          "indexed": true,
          "internalType": "address",
          "name": "approved",
          "type": "address"
        },
        {
          "indexed": true,
          "internalType": "uint256",
          "name": "tokenId",
          "type": "uint256"
        }
      ],
      "name": "Approval",
      "type": "event"
    },
    {
      "anonymous": false,
      "inputs": [
        {
          "indexed": true,
          "internalType": "address",
          "name": "owner",
          "type": "address"
        },
        {
          "indexed": true,
          "internalType": "address",
          "name": "operator",
          "type": "address"
        },
        {
          "indexed": false,
          "internalType": "bool",
          "name": "approved",
          "type": "bool"
        }
      ],
      "name": "ApprovalForAll",
      "type": "event"
    },
    {
      "anonymous": false,
      "inputs": [
        {
          "indexed": false,
          "internalType": "uint256",
          "name": "level",
          "type": "uint256"
        },
        {
          "indexed": false,
          "internalType": "uint256",
          "name": "weaponsDropRate",
          "type": "uint256"
        },
        {
          "indexed": false,
          "internalType": "uint256",
          "name": "armourDropRate",
          "type": "uint256"
        },
        {
          "indexed": false,
          "internalType": "uint256",
          "name": "jewelsDropRate",
          "type": "uint256"
        },
        {
          "indexed": false,
          "internalType": "uint256",
          "name": "miscDropRate",
          "type": "uint256"
        }
      ],
      "name": "BoxDropUpdated",
      "type": "event"
    },
    {
      "anonymous": false,
      "inputs": [
        {
          "indexed": false,
          "internalType": "address",
          "name": "owner",
          "type": "address"
        },
        {
          "indexed": false,
          "internalType": "uint256",
          "name": "tokenId",
          "type": "uint256"
        }
      ],
      "name": "BoxDropped",
      "type": "event"
    },
    {
      "anonymous": false,
      "inputs": [
        {
          "indexed": false,
          "internalType": "uint256",
          "name": "tokenId",
          "type": "uint256"
        },
        {
          "indexed": false,
          "internalType": "uint256",
          "name": "itemId",
          "type": "uint256"
        },
        {
          "indexed": false,
          "internalType": "address",
          "name": "owner",
          "type": "address"
        },
        {
          "indexed": false,
          "internalType": "string",
          "name": "itemName",
          "type": "string"
        }
      ],
      "name": "ItemBoughtFromShop",
      "type": "event"
    },
    {
      "anonymous": false,
      "inputs": [
        {
          "indexed": false,
          "internalType": "uint256",
          "name": "itemId",
          "type": "uint256"
        },
        {
          "indexed": false,
          "internalType": "string",
          "name": "name",
          "type": "string"
        }
      ],
      "name": "ItemGenerated",
      "type": "event"
    },
    {
      "anonymous": false,
      "inputs": [
        {
          "indexed": false,
          "internalType": "uint8",
          "name": "",
          "type": "uint8"
        },
        {
          "indexed": false,
          "internalType": "uint256",
          "name": "",
          "type": "uint256"
        }
      ],
      "name": "LogError",
      "type": "event"
    },
    {
      "anonymous": false,
      "inputs": [
        {
          "indexed": true,
          "internalType": "address",
          "name": "from",
          "type": "address"
        },
        {
          "indexed": true,
          "internalType": "address",
          "name": "to",
          "type": "address"
        },
        {
          "indexed": true,
          "internalType": "uint256",
          "name": "tokenId",
          "type": "uint256"
        }
      ],
      "name": "Transfer",
      "type": "event"
    },
    {
      "inputs": [
        {
          "internalType": "uint256",
          "name": "",
          "type": "uint256"
        },
        {
          "internalType": "uint256",
          "name": "",
          "type": "uint256"
        }
      ],
      "name": "Armours",
      "outputs": [
        {
          "internalType": "uint256",
          "name": "",
          "type": "uint256"
        }
      ],
      "stateMutability": "view",
      "type": "function",
      "constant": true
    },
    {
      "inputs": [
        {
          "internalType": "uint256",
          "name": "",
          "type": "uint256"
        },
        {
          "internalType": "uint256",
          "name": "",
          "type": "uint256"
        }
      ],
      "name": "Jewels",
      "outputs": [
        {
          "internalType": "uint256",
          "name": "",
          "type": "uint256"
        }
      ],
      "stateMutability": "view",
      "type": "function",
      "constant": true
    },
    {
      "inputs": [
        {
          "internalType": "uint256",
          "name": "",
          "type": "uint256"
        },
        {
          "internalType": "uint256",
          "name": "",
          "type": "uint256"
        }
      ],
      "name": "Misc",
      "outputs": [
        {
          "internalType": "uint256",
          "name": "",
          "type": "uint256"
        }
      ],
      "stateMutability": "view",
      "type": "function",
      "constant": true
    },
    {
      "inputs": [
        {
          "internalType": "uint256",
          "name": "",
          "type": "uint256"
        },
        {
          "internalType": "uint256",
          "name": "",
          "type": "uint256"
        }
      ],
      "name": "Weapons",
      "outputs": [
        {
          "internalType": "uint256",
          "name": "",
          "type": "uint256"
        }
      ],
      "stateMutability": "view",
      "type": "function",
      "constant": true
    },
    {
      "inputs": [
        {
          "internalType": "address",
          "name": "to",
          "type": "address"
        },
        {
          "internalType": "uint256",
          "name": "tokenId",
          "type": "uint256"
        }
      ],
      "name": "approve",
      "outputs": [],
      "stateMutability": "nonpayable",
      "type": "function"
    },
    {
      "inputs": [
        {
          "internalType": "address",
          "name": "owner",
          "type": "address"
        }
      ],
      "name": "balanceOf",
      "outputs": [
        {
          "internalType": "uint256",
          "name": "",
          "type": "uint256"
        }
      ],
      "stateMutability": "view",
      "type": "function",
      "constant": true
    },
    {
      "inputs": [
        {
          "internalType": "uint256",
          "name": "",
          "type": "uint256"
        }
      ],
      "name": "boxDropList",
      "outputs": [
        {
          "internalType": "uint256",
          "name": "level",
          "type": "uint256"
        },
        {
          "internalType": "uint256",
          "name": "weaponsDropRate",
          "type": "uint256"
        },
        {
          "internalType": "uint256",
          "name": "armourDropRate",
          "type": "uint256"
        },
        {
          "internalType": "uint256",
          "name": "jewelsDropRate",
          "type": "uint256"
        },
        {
          "internalType": "uint256",
          "name": "miscDropRate",
          "type": "uint256"
        }
      ],
      "stateMutability": "view",
      "type": "function",
      "constant": true
    },
    {
      "inputs": [
        {
          "internalType": "uint256",
          "name": "tokenId",
          "type": "uint256"
        }
      ],
      "name": "getApproved",
      "outputs": [
        {
          "internalType": "address",
          "name": "",
          "type": "address"
        }
      ],
      "stateMutability": "view",
      "type": "function",
      "constant": true
    },
    {
      "inputs": [
        {
          "internalType": "address",
          "name": "owner",
          "type": "address"
        },
        {
          "internalType": "address",
          "name": "operator",
          "type": "address"
        }
      ],
      "name": "isApprovedForAll",
      "outputs": [
        {
          "internalType": "bool",
          "name": "",
          "type": "bool"
        }
      ],
      "stateMutability": "view",
      "type": "function",
      "constant": true
    },
    {
      "inputs": [
        {
          "internalType": "uint256",
          "name": "",
          "type": "uint256"
        }
      ],
      "name": "itemName",
      "outputs": [
        {
          "internalType": "string",
          "name": "",
          "type": "string"
        }
      ],
      "stateMutability": "view",
      "type": "function",
      "constant": true
    },
    {
      "inputs": [],
      "name": "name",
      "outputs": [
        {
          "internalType": "string",
          "name": "",
          "type": "string"
        }
      ],
      "stateMutability": "view",
      "type": "function",
      "constant": true
    },
    {
      "inputs": [],
      "name": "owner",
      "outputs": [
        {
          "internalType": "address",
          "name": "",
          "type": "address"
        }
      ],
      "stateMutability": "view",
      "type": "function",
      "constant": true
    },
    {
      "inputs": [
        {
          "internalType": "uint256",
          "name": "tokenId",
          "type": "uint256"
        }
      ],
      "name": "ownerOf",
      "outputs": [
        {
          "internalType": "address",
          "name": "",
          "type": "address"
        }
      ],
      "stateMutability": "view",
      "type": "function",
      "constant": true
    },
    {
      "inputs": [
        {
          "internalType": "address",
          "name": "from",
          "type": "address"
        },
        {
          "internalType": "address",
          "name": "to",
          "type": "address"
        },
        {
          "internalType": "uint256",
          "name": "tokenId",
          "type": "uint256"
        }
      ],
      "name": "safeTransferFrom",
      "outputs": [],
      "stateMutability": "nonpayable",
      "type": "function"
    },
    {
      "inputs": [
        {
          "internalType": "address",
          "name": "from",
          "type": "address"
        },
        {
          "internalType": "address",
          "name": "to",
          "type": "address"
        },
        {
          "internalType": "uint256",
          "name": "tokenId",
          "type": "uint256"
        },
        {
          "internalType": "bytes",
          "name": "data",
          "type": "bytes"
        }
      ],
      "name": "safeTransferFrom",
      "outputs": [],
      "stateMutability": "nonpayable",
      "type": "function"
    },
    {
      "inputs": [
        {
          "internalType": "address",
          "name": "operator",
          "type": "address"
        },
        {
          "internalType": "bool",
          "name": "approved",
          "type": "bool"
        }
      ],
      "name": "setApprovalForAll",
      "outputs": [],
      "stateMutability": "nonpayable",
      "type": "function"
    },
    {
      "inputs": [
        {
          "internalType": "bytes4",
          "name": "interfaceId",
          "type": "bytes4"
        }
      ],
      "name": "supportsInterface",
      "outputs": [
        {
          "internalType": "bool",
          "name": "",
          "type": "bool"
        }
      ],
      "stateMutability": "view",
      "type": "function",
      "constant": true
    },
    {
      "inputs": [],
      "name": "symbol",
      "outputs": [
        {
          "internalType": "string",
          "name": "",
          "type": "string"
        }
      ],
      "stateMutability": "view",
      "type": "function",
      "constant": true
    },
    {
      "inputs": [
        {
          "internalType": "uint256",
          "name": "index",
          "type": "uint256"
        }
      ],
      "name": "tokenByIndex",
      "outputs": [
        {
          "internalType": "uint256",
          "name": "",
          "type": "uint256"
        }
      ],
      "stateMutability": "view",
      "type": "function",
      "constant": true
    },
    {
      "inputs": [
        {
          "internalType": "address",
          "name": "owner",
          "type": "address"
        },
        {
          "internalType": "uint256",
          "name": "index",
          "type": "uint256"
        }
      ],
      "name": "tokenOfOwnerByIndex",
      "outputs": [
        {
          "internalType": "uint256",
          "name": "",
          "type": "uint256"
        }
      ],
      "stateMutability": "view",
      "type": "function",
      "constant": true
    },
    {
      "inputs": [
        {
          "internalType": "uint256",
          "name": "tokenId",
          "type": "uint256"
        }
      ],
      "name": "tokenURI",
      "outputs": [
        {
          "internalType": "string",
          "name": "",
          "type": "string"
        }
      ],
      "stateMutability": "view",
      "type": "function",
      "constant": true
    },
    {
      "inputs": [],
      "name": "totalSupply",
      "outputs": [
        {
          "internalType": "uint256",
          "name": "",
          "type": "uint256"
        }
      ],
      "stateMutability": "view",
      "type": "function",
      "constant": true
    },
    {
      "inputs": [
        {
          "internalType": "address",
          "name": "from",
          "type": "address"
        },
        {
          "internalType": "address",
          "name": "to",
          "type": "address"
        },
        {
          "internalType": "uint256",
          "name": "tokenId",
          "type": "uint256"
        }
      ],
      "name": "transferFrom",
      "outputs": [],
      "stateMutability": "nonpayable",
      "type": "function"
    },
    {
      "inputs": [
        {
          "internalType": "string",
          "name": "name",
          "type": "string"
        },
        {
          "internalType": "uint256[52]",
          "name": "uintValues",
          "type": "uint256[52]"
        },
        {
          "internalType": "bool[9]",
          "name": "boolValues",
          "type": "bool[9]"
        }
      ],
      "name": "createItem",
      "outputs": [
        {
          "internalType": "uint256",
          "name": "tokenId",
          "type": "uint256"
        }
      ],
      "stateMutability": "nonpayable",
      "type": "function"
    },
    {
      "inputs": [
        {
          "internalType": "uint256",
          "name": "tokenId",
          "type": "uint256"
        }
      ],
      "name": "consume",
      "outputs": [],
      "stateMutability": "nonpayable",
      "type": "function"
    },
    {
      "inputs": [
        {
          "internalType": "uint256",
          "name": "itemId",
          "type": "uint256"
        },
        {
          "internalType": "uint256",
          "name": "fighterId",
          "type": "uint256"
        }
      ],
      "name": "buyItemFromShop",
      "outputs": [],
      "stateMutability": "nonpayable",
      "type": "function"
    },
    {
      "inputs": [
        {
          "internalType": "uint256",
          "name": "tokenId",
          "type": "uint256"
        }
      ],
      "name": "getTokenAttributes",
      "outputs": [
        {
          "components": [
            {
              "internalType": "string",
              "name": "name",
              "type": "string"
            },
            {
              "internalType": "uint256",
              "name": "tokenId",
              "type": "uint256"
            },
            {
              "internalType": "uint256",
              "name": "itemLevel",
              "type": "uint256"
            },
            {
              "internalType": "uint256",
              "name": "maxLevel",
              "type": "uint256"
            },
            {
              "internalType": "uint256",
              "name": "durability",
              "type": "uint256"
            },
            {
              "internalType": "uint256",
              "name": "classRequired",
              "type": "uint256"
            },
            {
              "internalType": "uint256",
              "name": "strengthRequired",
              "type": "uint256"
            },
            {
              "internalType": "uint256",
              "name": "agilityRequired",
              "type": "uint256"
            },
            {
              "internalType": "uint256",
              "name": "energyRequired",
              "type": "uint256"
            },
            {
              "internalType": "uint256",
              "name": "vitalityRequired",
              "type": "uint256"
            },
            {
              "internalType": "uint256",
              "name": "itemWidth",
              "type": "uint256"
            },
            {
              "internalType": "uint256",
              "name": "itemHeight",
              "type": "uint256"
            },
            {
              "internalType": "uint256",
              "name": "acceptableSlot1",
              "type": "uint256"
            },
            {
              "internalType": "uint256",
              "name": "acceptableSlot2",
              "type": "uint256"
            },
            {
              "internalType": "uint256",
              "name": "physicalDamage",
              "type": "uint256"
            },
            {
              "internalType": "uint256",
              "name": "magicDamage",
              "type": "uint256"
            },
            {
              "internalType": "uint256",
              "name": "defense",
              "type": "uint256"
            },
            {
              "internalType": "uint256",
              "name": "attackSpeed",
              "type": "uint256"
            },
            {
              "internalType": "uint256",
              "name": "defenseSuccessRate",
              "type": "uint256"
            },
            {
              "internalType": "uint256",
              "name": "additionalDamage",
              "type": "uint256"
            },
            {
              "internalType": "uint256",
              "name": "additionalDefense",
              "type": "uint256"
            },
            {
              "internalType": "uint256",
              "name": "increasedExperienceGain",
              "type": "uint256"
            },
            {
              "internalType": "uint256",
              "name": "damageIncrease",
              "type": "uint256"
            },
            {
              "internalType": "uint256",
              "name": "defenseSuccessRateIncrease",
              "type": "uint256"
            },
            {
              "internalType": "uint256",
              "name": "lifeAfterMonsterIncrease",
              "type": "uint256"
            },
            {
              "internalType": "uint256",
              "name": "manaAfterMonsterIncrease",
              "type": "uint256"
            },
            {
              "internalType": "uint256",
              "name": "zenAfterMonsterIncrease",
              "type": "uint256"
            },
            {
              "internalType": "uint256",
              "name": "doubleDamageProbabilityIncrease",
              "type": "uint256"
            },
            {
              "internalType": "uint256",
              "name": "excellentDamageProbabilityIncrease",
              "type": "uint256"
            },
            {
              "internalType": "uint256",
              "name": "ignoreOpponentsDefenseRateIncrease",
              "type": "uint256"
            },
            {
              "internalType": "uint256",
              "name": "reflectDamage",
              "type": "uint256"
            },
            {
              "internalType": "uint256",
              "name": "maxLifeIncrease",
              "type": "uint256"
            },
            {
              "internalType": "uint256",
              "name": "maxManaIncrease",
              "type": "uint256"
            },
            {
              "internalType": "uint256",
              "name": "excellentDamageRateIncrease",
              "type": "uint256"
            },
            {
              "internalType": "uint256",
              "name": "doubleDamageRateIncrease",
              "type": "uint256"
            },
            {
              "internalType": "uint256",
              "name": "ignoreOpponentsDefenseSuccessRateIncrease",
              "type": "uint256"
            },
            {
              "internalType": "uint256",
              "name": "attackDamageIncrease",
              "type": "uint256"
            },
            {
              "internalType": "uint256",
              "name": "defenseSuccessRateIncreaseAncient",
              "type": "uint256"
            },
            {
              "internalType": "uint256",
              "name": "reflectDamageRateIncrease",
              "type": "uint256"
            },
            {
              "internalType": "uint256",
              "name": "decreaseDamageRateIncrease",
              "type": "uint256"
            },
            {
              "internalType": "uint256",
              "name": "hpRecoveryRateIncrease",
              "type": "uint256"
            },
            {
              "internalType": "uint256",
              "name": "mpRecoveryRateIncrease",
              "type": "uint256"
            },
            {
              "internalType": "uint256",
              "name": "hpIncrease",
              "type": "uint256"
            },
            {
              "internalType": "uint256",
              "name": "mpIncrease",
              "type": "uint256"
            },
            {
              "internalType": "uint256",
              "name": "increaseDefenseRate",
              "type": "uint256"
            },
            {
              "internalType": "uint256",
              "name": "increaseStrength",
              "type": "uint256"
            },
            {
              "internalType": "uint256",
              "name": "increaseAgility",
              "type": "uint256"
            },
            {
              "internalType": "uint256",
              "name": "increaseEnergy",
              "type": "uint256"
            },
            {
              "internalType": "uint256",
              "name": "increaseVitality",
              "type": "uint256"
            },
            {
              "internalType": "uint256",
              "name": "attackSpeedIncrease",
              "type": "uint256"
            },
            {
              "internalType": "uint256",
              "name": "fighterId",
              "type": "uint256"
            },
            {
              "internalType": "uint256",
              "name": "lastUpdBlock",
              "type": "uint256"
            },
            {
              "internalType": "uint256",
              "name": "itemRarityLevel",
              "type": "uint256"
            },
            {
              "internalType": "bool",
              "name": "luck",
              "type": "bool"
            },
            {
              "internalType": "bool",
              "name": "skill",
              "type": "bool"
            },
            {
              "internalType": "bool",
              "name": "isBox",
              "type": "bool"
            },
            {
              "internalType": "bool",
              "name": "isWeapon",
              "type": "bool"
            },
            {
              "internalType": "bool",
              "name": "isArmour",
              "type": "bool"
            },
            {
              "internalType": "bool",
              "name": "isJewel",
              "type": "bool"
            },
            {
              "internalType": "bool",
              "name": "isMisc",
              "type": "bool"
            },
            {
              "internalType": "bool",
              "name": "isConsumable",
              "type": "bool"
            },
            {
              "internalType": "bool",
              "name": "inShop",
              "type": "bool"
            }
          ],
          "internalType": "struct Items.ItemAttributes",
          "name": "",
          "type": "tuple"
        }
      ],
      "stateMutability": "view",
      "type": "function",
      "constant": true
    },
    {
      "inputs": [
        {
          "internalType": "uint256",
          "name": "itemId",
          "type": "uint256"
        }
      ],
      "name": "getItemAttributes",
      "outputs": [
        {
          "components": [
            {
              "internalType": "string",
              "name": "name",
              "type": "string"
            },
            {
              "internalType": "uint256",
              "name": "tokenId",
              "type": "uint256"
            },
            {
              "internalType": "uint256",
              "name": "itemLevel",
              "type": "uint256"
            },
            {
              "internalType": "uint256",
              "name": "maxLevel",
              "type": "uint256"
            },
            {
              "internalType": "uint256",
              "name": "durability",
              "type": "uint256"
            },
            {
              "internalType": "uint256",
              "name": "classRequired",
              "type": "uint256"
            },
            {
              "internalType": "uint256",
              "name": "strengthRequired",
              "type": "uint256"
            },
            {
              "internalType": "uint256",
              "name": "agilityRequired",
              "type": "uint256"
            },
            {
              "internalType": "uint256",
              "name": "energyRequired",
              "type": "uint256"
            },
            {
              "internalType": "uint256",
              "name": "vitalityRequired",
              "type": "uint256"
            },
            {
              "internalType": "uint256",
              "name": "itemWidth",
              "type": "uint256"
            },
            {
              "internalType": "uint256",
              "name": "itemHeight",
              "type": "uint256"
            },
            {
              "internalType": "uint256",
              "name": "acceptableSlot1",
              "type": "uint256"
            },
            {
              "internalType": "uint256",
              "name": "acceptableSlot2",
              "type": "uint256"
            },
            {
              "internalType": "uint256",
              "name": "physicalDamage",
              "type": "uint256"
            },
            {
              "internalType": "uint256",
              "name": "magicDamage",
              "type": "uint256"
            },
            {
              "internalType": "uint256",
              "name": "defense",
              "type": "uint256"
            },
            {
              "internalType": "uint256",
              "name": "attackSpeed",
              "type": "uint256"
            },
            {
              "internalType": "uint256",
              "name": "defenseSuccessRate",
              "type": "uint256"
            },
            {
              "internalType": "uint256",
              "name": "additionalDamage",
              "type": "uint256"
            },
            {
              "internalType": "uint256",
              "name": "additionalDefense",
              "type": "uint256"
            },
            {
              "internalType": "uint256",
              "name": "increasedExperienceGain",
              "type": "uint256"
            },
            {
              "internalType": "uint256",
              "name": "damageIncrease",
              "type": "uint256"
            },
            {
              "internalType": "uint256",
              "name": "defenseSuccessRateIncrease",
              "type": "uint256"
            },
            {
              "internalType": "uint256",
              "name": "lifeAfterMonsterIncrease",
              "type": "uint256"
            },
            {
              "internalType": "uint256",
              "name": "manaAfterMonsterIncrease",
              "type": "uint256"
            },
            {
              "internalType": "uint256",
              "name": "zenAfterMonsterIncrease",
              "type": "uint256"
            },
            {
              "internalType": "uint256",
              "name": "doubleDamageProbabilityIncrease",
              "type": "uint256"
            },
            {
              "internalType": "uint256",
              "name": "excellentDamageProbabilityIncrease",
              "type": "uint256"
            },
            {
              "internalType": "uint256",
              "name": "ignoreOpponentsDefenseRateIncrease",
              "type": "uint256"
            },
            {
              "internalType": "uint256",
              "name": "reflectDamage",
              "type": "uint256"
            },
            {
              "internalType": "uint256",
              "name": "maxLifeIncrease",
              "type": "uint256"
            },
            {
              "internalType": "uint256",
              "name": "maxManaIncrease",
              "type": "uint256"
            },
            {
              "internalType": "uint256",
              "name": "excellentDamageRateIncrease",
              "type": "uint256"
            },
            {
              "internalType": "uint256",
              "name": "doubleDamageRateIncrease",
              "type": "uint256"
            },
            {
              "internalType": "uint256",
              "name": "ignoreOpponentsDefenseSuccessRateIncrease",
              "type": "uint256"
            },
            {
              "internalType": "uint256",
              "name": "attackDamageIncrease",
              "type": "uint256"
            },
            {
              "internalType": "uint256",
              "name": "defenseSuccessRateIncreaseAncient",
              "type": "uint256"
            },
            {
              "internalType": "uint256",
              "name": "reflectDamageRateIncrease",
              "type": "uint256"
            },
            {
              "internalType": "uint256",
              "name": "decreaseDamageRateIncrease",
              "type": "uint256"
            },
            {
              "internalType": "uint256",
              "name": "hpRecoveryRateIncrease",
              "type": "uint256"
            },
            {
              "internalType": "uint256",
              "name": "mpRecoveryRateIncrease",
              "type": "uint256"
            },
            {
              "internalType": "uint256",
              "name": "hpIncrease",
              "type": "uint256"
            },
            {
              "internalType": "uint256",
              "name": "mpIncrease",
              "type": "uint256"
            },
            {
              "internalType": "uint256",
              "name": "increaseDefenseRate",
              "type": "uint256"
            },
            {
              "internalType": "uint256",
              "name": "increaseStrength",
              "type": "uint256"
            },
            {
              "internalType": "uint256",
              "name": "increaseAgility",
              "type": "uint256"
            },
            {
              "internalType": "uint256",
              "name": "increaseEnergy",
              "type": "uint256"
            },
            {
              "internalType": "uint256",
              "name": "increaseVitality",
              "type": "uint256"
            },
            {
              "internalType": "uint256",
              "name": "attackSpeedIncrease",
              "type": "uint256"
            },
            {
              "internalType": "uint256",
              "name": "fighterId",
              "type": "uint256"
            },
            {
              "internalType": "uint256",
              "name": "lastUpdBlock",
              "type": "uint256"
            },
            {
              "internalType": "uint256",
              "name": "itemRarityLevel",
              "type": "uint256"
            },
            {
              "internalType": "bool",
              "name": "luck",
              "type": "bool"
            },
            {
              "internalType": "bool",
              "name": "skill",
              "type": "bool"
            },
            {
              "internalType": "bool",
              "name": "isBox",
              "type": "bool"
            },
            {
              "internalType": "bool",
              "name": "isWeapon",
              "type": "bool"
            },
            {
              "internalType": "bool",
              "name": "isArmour",
              "type": "bool"
            },
            {
              "internalType": "bool",
              "name": "isJewel",
              "type": "bool"
            },
            {
              "internalType": "bool",
              "name": "isMisc",
              "type": "bool"
            },
            {
              "internalType": "bool",
              "name": "isConsumable",
              "type": "bool"
            },
            {
              "internalType": "bool",
              "name": "inShop",
              "type": "bool"
            }
          ],
          "internalType": "struct Items.ItemAttributes",
          "name": "",
          "type": "tuple"
        }
      ],
      "stateMutability": "view",
      "type": "function",
      "constant": true
    },
    {
      "inputs": [
        {
          "internalType": "address",
          "name": "userAddress",
          "type": "address"
        }
      ],
      "name": "getUserItems",
      "outputs": [
        {
          "internalType": "uint256[]",
          "name": "",
          "type": "uint256[]"
        }
      ],
      "stateMutability": "view",
      "type": "function",
      "constant": true
    },
    {
      "inputs": [
        {
          "internalType": "address",
          "name": "userAddress",
          "type": "address"
        },
        {
          "internalType": "uint256",
          "name": "fighterId",
          "type": "uint256"
        }
      ],
      "name": "getFighterItems",
      "outputs": [
        {
          "internalType": "uint256[2][]",
          "name": "",
          "type": "uint256[2][]"
        }
      ],
      "stateMutability": "view",
      "type": "function",
      "constant": true
    },
    {
      "inputs": [
        {
          "internalType": "uint256",
          "name": "level",
          "type": "uint256"
        },
        {
          "internalType": "uint256[4]",
          "name": "dropRates",
          "type": "uint256[4]"
        },
        {
          "internalType": "uint256[]",
          "name": "weaponsList",
          "type": "uint256[]"
        },
        {
          "internalType": "uint256[]",
          "name": "armourList",
          "type": "uint256[]"
        },
        {
          "internalType": "uint256[]",
          "name": "jewelsList",
          "type": "uint256[]"
        },
        {
          "internalType": "uint256[]",
          "name": "miscList",
          "type": "uint256[]"
        }
      ],
      "name": "setBoxDrop",
      "outputs": [],
      "stateMutability": "nonpayable",
      "type": "function"
    },
    {
      "inputs": [
        {
          "internalType": "uint256",
          "name": "tokenId",
          "type": "uint256"
        }
      ],
      "name": "dropBox",
      "outputs": [
        {
          "internalType": "uint256",
          "name": "",
          "type": "uint256"
        }
      ],
      "stateMutability": "nonpayable",
      "type": "function"
    },
    {
      "inputs": [
        {
          "internalType": "address",
          "name": "winner",
          "type": "address"
        },
        {
          "internalType": "uint256",
          "name": "opponentLevel",
          "type": "uint256"
        }
      ],
      "name": "mintBox",
      "outputs": [],
      "stateMutability": "nonpayable",
      "type": "function"
    },
    {
      "inputs": [
        {
          "internalType": "uint256",
          "name": "a",
          "type": "uint256"
        },
        {
          "internalType": "uint256",
          "name": "b",
          "type": "uint256"
        }
      ],
      "name": "safeMul",
      "outputs": [
        {
          "internalType": "uint256",
          "name": "",
          "type": "uint256"
        }
      ],
      "stateMutability": "nonpayable",
      "type": "function"
    },
    {
      "inputs": [
        {
          "internalType": "uint256",
          "name": "a",
          "type": "uint256"
        },
        {
          "internalType": "uint256",
          "name": "b",
          "type": "uint256"
        }
      ],
      "name": "safeSub",
      "outputs": [
        {
          "internalType": "uint256",
          "name": "",
          "type": "uint256"
        }
      ],
      "stateMutability": "nonpayable",
      "type": "function"
    },
    {
      "inputs": [
        {
          "internalType": "uint256",
          "name": "a",
          "type": "uint256"
        },
        {
          "internalType": "uint256",
          "name": "b",
          "type": "uint256"
        }
      ],
      "name": "safeAdd",
      "outputs": [
        {
          "internalType": "uint256",
          "name": "",
          "type": "uint256"
        }
      ],
      "stateMutability": "nonpayable",
      "type": "function"
    }
  ],
  "bytecode": "0x60806040523480156200001157600080fd5b5060405180604001604052806007815260200166436f6d6261747360c81b815250604051806040016040528060048152602001634974656d60e01b81525081600090816200006091906200014a565b5060016200006f82826200014a565b5050600a80546001600160a01b03191633179055506048805462ff00001916620100001790556001601d819055601e5562000216565b634e487b7160e01b600052604160045260246000fd5b600181811c90821680620000d057607f821691505b602082108103620000f157634e487b7160e01b600052602260045260246000fd5b50919050565b601f8211156200014557600081815260208120601f850160051c81016020861015620001205750805b601f850160051c820191505b8181101562000141578281556001016200012c565b5050505b505050565b81516001600160401b03811115620001665762000166620000a5565b6200017e81620001778454620000bb565b84620000f7565b602080601f831160018114620001b657600084156200019d5750858301515b600019600386901b1c1916600185901b17855562000141565b600085815260208120601f198616915b82811015620001e757888601518255948401946001909101908401620001c6565b5085821015620002065787850151600019600388901b60f8161c191681555b5050505050600190811b01905550565b614a0480620002266000396000f3fe608060405234801561001057600080fd5b506004361061021c5760003560e01c80637310dc8a11610125578063c29a3c93116100ad578063e6cb90131161007c578063e6cb9013146104be578063e985e9c5146104d1578063f10bbe181461050d578063f4d1065414610572578063fb5d7f101461058557600080fd5b8063c29a3c9314610465578063c87b56dd14610478578063ce6019b41461048b578063d05c78da146104ab57600080fd5b806395d89b41116100f457806395d89b4114610411578063a22cb46514610419578063a293d1e81461042c578063b41480541461043f578063b88d4fde1461045257600080fd5b80637310dc8a146103c55780637f46914f146103d857806388feaacc146103eb5780638da5cb5b146103fe57600080fd5b80632f745c59116101a8578063513c145211610177578063513c14521461035957806363503447146103795780636352211e1461038c5780636995795b1461039f57806370a08231146103b257600080fd5b80632f745c591461030d57806342842e0e14610320578063483f31ab146103335780634f6ccce71461034657600080fd5b8063081812fc116101ef578063081812fc14610292578063095ea7b3146102bd57806318160ddd146102d25780631f4f5a23146102da57806323b872dd146102fa57600080fd5b8063016ae8ac1461022157806301ffc9a71461024757806303d2e4a11461026a57806306fdde031461027d575b600080fd5b61023461022f366004613c2c565b610598565b6040519081526020015b60405180910390f35b61025a610255366004613ce6565b610e51565b604051901515815260200161023e565b610234610278366004613d03565b610e7c565b610285610ead565b60405161023e9190613d75565b6102a56102a0366004613d88565b610f3f565b6040516001600160a01b03909116815260200161023e565b6102d06102cb366004613dbd565b610f66565b005b600854610234565b6102ed6102e8366004613d88565b611080565b60405161023e9190613de7565b6102d0610308366004614161565b611432565b61023461031b366004613dbd565b611463565b6102d061032e366004614161565b6114f9565b6102d0610341366004613d88565b611514565b610234610354366004613d88565b6115eb565b61036c610367366004613dbd565b61167e565b60405161023e919061419d565b610234610387366004613d03565b61178c565b6102a561039a366004613d88565b6117a8565b6102ed6103ad366004613d88565b611808565b6102346103c0366004614206565b611894565b6102856103d3366004613d88565b61191a565b6102d06103e6366004613d03565b6119b4565b6102346103f9366004613d88565b611e62565b600a546102a5906001600160a01b031681565b61028561220b565b6102d0610427366004614231565b61221a565b61023461043a366004613d03565b612225565b6102d061044d3660046142c1565b612248565b6102d06104603660046143bb565b61249c565b610234610473366004613d03565b6124d4565b610285610486366004613d88565b6124f0565b61049e610499366004614206565b612563565b60405161023e9190614497565b6102346104b9366004613d03565b612605565b6102346104cc366004613d03565b612635565b61025a6104df3660046144db565b6001600160a01b03918216600090815260056020908152604080832093909416825291909152205460ff1690565b61054a61051b366004613d88565b604960205260009081526040902080546001820154600383015460058401546007909401549293919290919085565b604080519586526020860194909452928401919091526060830152608082015260a00161023e565b610234610580366004613d03565b61265f565b6102d0610593366004613dbd565b61267b565b60006105a26139dd565b85858080601f016020809104026020016040519081016040528093929190818152602001838380828437600092018290525093855250869291506105e39050565b6020908102919091013590820152836001602002013560408201528360026020020135606082015283600360200201356080820152836004602002013560a0820152836005602002013560c0820152836006602002013560e082015283600760200201356101008201528360086020020135610120820152836009602002013561014082015283600a602002013561016082015283600b602002013561018082015283600c60200201356101a082015283600d60200201356101c082015283600e60200201356101e082015283600f6020020135610200820152836010602002013561022082015283601160200201356102408201528360126020020135610260820152836013602002013561028082015283601460200201356102a082015283601560200201356102c082015283601660200201356102e082015283601760200201356103008201528360186020020135610320820152836019602002013561034082015283601a602002013561036082015283601b602002013561038082015283601c60200201356103a082015283601d60200201356103c082015283601e60200201356103e082015283601f602090810291909101356104008301528490602002013561042082015283602160200201356104408201528360226020020135610460820152836023602002013561048082015283602460200201356104a082015283602560200201356104c082015283602660200201356104e082015283602760200201356105008201528360286020020135610520820152836029602002013561054082015283602a602002013561056082015283602b602002013561058082015283602c60200201356105a082015283602d60200201356105c082015283602e60200201356105e082015283602f602002013561060082015283603060200201356106208201528360316020020135610640820152836032602002013561066082015283603360200201356106808201528260006020020160208101906108cf919061451b565b15156106a08201526108e7604084016020850161451b565b15156106c08201526108ff606084016040850161451b565b15156106e0820152610917608084016060850161451b565b151561070082015261092f60a084016080850161451b565b151561072082015261094760c0840160a0850161451b565b151561074082015261095f60e0840160c0850161451b565b1515610760820152610978610100840160e0850161451b565b15156107808201526109926101208401610100850161451b565b15156107a082015260118054600181018255600091909152815182916036027f31ecc21a745e3968a04e9570e4425bc18fa8019c68028196b546d1669c200c68019081906109e090826145be565b5060208281015160018381019190915560408401516002840155606084015160038401556080840151600484015560a0840151600584015560c0840151600684015560e084015160078401556101008085015160088501556101208501516009850155610140850151600a850155610160850151600b850155610180850151600c8501556101a0850151600d8501556101c0850151600e8501556101e0850151600f85015561020085015160108501556102208501516011808601919091556102408601516012860155610260860151601386015561028086015160148601556102a086015160158601556102c086015160168601556102e0860151601786015561030086015160188601556103208601516019860155610340860151601a860155610360860151601b860155610380860151601c8601556103a0860151601d8601556103c0860151601e8601556103e0860151601f8601556104008601519385019390935561042085015160218501556104408501516022850155610460850151602385015561048085015160248501556104a085015160258501556104c085015160268501556104e0850151602785015561050085015160288501556105208501516029850155610540850151602a850155610560850151602b850155610580850151602c8501556105a0850151602d8501556105c0850151602e8501556105e0850151602f850155610600850151603085015561062085015160318501556106408501516032850155610660850151603385015561068085015160348501556106a0850151603590940180546106c08701516106e08801516107008901516107208a01516107408b01516107608c01516107808d01516107a0909d015161ffff199097169b151561ff0019169b909b179415159097029390931763ffff00001916620100009215159290920263ff0000001916919091176301000000911515919091021765ffff0000000019166401000000009115159190910265ff0000000000191617600160281b931515939093029290921767ffff0000000000001916600160301b9515159590950260ff60381b191694909417600160381b951515959095029490941760ff60401b1916600160401b941515949094029390931790915554600091610d3091614694565b905081610700015115610d69576106808201516000908152600c6020908152604082208054600181018255908352912001819055610e0a565b81610720015115610da0576106808201516000908152600d6020908152604082208054600181018255908352912001819055610e0a565b81610740015115610dd7576106808201516000908152600e6020908152604082208054600181018255908352912001819055610e0a565b81610760015115610e0a576106808201516000908152600f60209081526040822080546001810182559083529120018190555b7f0538ce8dba67be446d1a480a6e48683b27c6efb61d7c01d60767e15705e5d00f818888604051610e3d939291906146a7565b60405180910390a19150505b949350505050565b60006001600160e01b0319821663780e9d6360e01b1480610e765750610e7682612a59565b92915050565b600e6020528160005260406000208181548110610e9857600080fd5b90600052602060002001600091509150505481565b606060008054610ebc90614536565b80601f0160208091040260200160405190810160405280929190818152602001828054610ee890614536565b8015610f355780601f10610f0a57610100808354040283529160200191610f35565b820191906000526020600020905b815481529060010190602001808311610f1857829003601f168201915b5050505050905090565b6000610f4a82612aa9565b506000908152600460205260409020546001600160a01b031690565b6000610f71826117a8565b9050806001600160a01b0316836001600160a01b031603610fe35760405162461bcd60e51b815260206004820152602160248201527f4552433732313a20617070726f76616c20746f2063757272656e74206f776e656044820152603960f91b60648201526084015b60405180910390fd5b336001600160a01b0382161480610fff5750610fff81336104df565b6110715760405162461bcd60e51b815260206004820152603d60248201527f4552433732313a20617070726f76652063616c6c6572206973206e6f7420746f60448201527f6b656e206f776e6572206f7220617070726f76656420666f7220616c6c0000006064820152608401610fda565b61107b8383612afc565b505050565b6110886139dd565b61109182612b6a565b6110ad5760405162461bcd60e51b8152600401610fda906146dd565b6000828152601060205260409081902081516107c081019092528054829082906110d690614536565b80601f016020809104026020016040519081016040528092919081815260200182805461110290614536565b801561114f5780601f106111245761010080835404028352916020019161114f565b820191906000526020600020905b81548152906001019060200180831161113257829003601f168201915b50505091835250506001820154602080830191909152600283015460408301526003830154606083015260048301546080830152600583015460a0830152600683015460c0830152600783015460e08301526008830154610100808401919091526009840154610120840152600a840154610140840152600b840154610160840152600c840154610180840152600d8401546101a0840152600e8401546101c0840152600f8401546101e08401526010840154610200840152601184015461022084015260128401546102408401526013840154610260840152601484015461028084015260158401546102a084015260168401546102c084015260178401546102e084015260188401546103008401526019840154610320840152601a840154610340840152601b840154610360840152601c840154610380840152601d8401546103a0840152601e8401546103c0840152601f8401546103e084015290830154610400830152602183015461042083015260228301546104408301526023830154610460830152602483015461048083015260258301546104a083015260268301546104c083015260278301546104e083015260288301546105008301526029830154610520830152602a830154610540830152602b830154610560830152602c830154610580830152602d8301546105a0830152602e8301546105c0830152602f8301546105e08301526030830154610600830152603183015461062083015260328301546106408301526033830154610660830152603483015461068083015260359092015460ff80821615156106a0840152928104831615156106c0830152620100008104831615156106e08301526301000000810483161515610700830152640100000000810483161515610720830152600160281b810483161515610740830152600160301b810483161515610760830152600160381b810483161515610780830152600160401b900490911615156107a09091015292915050565b61143c3382612b87565b6114585760405162461bcd60e51b8152600401610fda9061470b565b61107b838383612c05565b600061146e83611894565b82106114d05760405162461bcd60e51b815260206004820152602b60248201527f455243373231456e756d657261626c653a206f776e657220696e646578206f7560448201526a74206f6620626f756e647360a81b6064820152608401610fda565b506001600160a01b03919091166000908152600660209081526040808320938352929052205490565b61107b8383836040518060200160405280600081525061249c565b61151d81612b6a565b6115395760405162461bcd60e51b8152600401610fda906146dd565b33611543826117a8565b6001600160a01b0316146115895760405162461bcd60e51b815260206004820152600d60248201526c4e6f7420796f7572206974656d60981b6044820152606401610fda565b600061159482611080565b90508061078001516115de5760405162461bcd60e51b81526020600482015260136024820152724974656d206e6f7420636f6e73756d61626c6560681b6044820152606401610fda565b6115e782612d76565b5050565b60006115f660085490565b82106116595760405162461bcd60e51b815260206004820152602c60248201527f455243373231456e756d657261626c653a20676c6f62616c20696e646578206f60448201526b7574206f6620626f756e647360a01b6064820152608401610fda565b6008828154811061166c5761166c614505565b90600052602060002001549050919050565b6060600061168b84611894565b905060008167ffffffffffffffff8111156116a8576116a86143a5565b6040519080825280602002602001820160405280156116e157816020015b6116ce613bae565b8152602001906001900390816116c65790505b509050600080805b84811015611780576116fb8882611463565b600081815260106020526040902060320154909350879003611760576040518060400160405280848152602001601060008681526020019081526020016000206033015481525084838151811061175457611754614505565b60200260200101819052505b8161176a81614758565b925050808061177890614758565b9150506116e9565b50919695505050505050565b600d6020528160005260406000208181548110610e9857600080fd5b6000818152600260205260408120546001600160a01b031680610e765760405162461bcd60e51b8152602060048201526018602482015277115490cdcc8c4e881a5b9d985b1a59081d1bdad95b88125160421b6044820152606401610fda565b6118106139dd565b60115482106118575760405162461bcd60e51b8152602060048201526013602482015272125d195b48191bd95cc81b9bdd08195e1a5cdd606a1b6044820152606401610fda565b6011828154811061186a5761186a614505565b9060005260206000209060360201604051806107c00160405290816000820180546110d690614536565b60006001600160a01b0382166118fe5760405162461bcd60e51b815260206004820152602960248201527f4552433732313a2061646472657373207a65726f206973206e6f7420612076616044820152683634b21037bbb732b960b91b6064820152608401610fda565b506001600160a01b031660009081526003602052604090205490565b600b602052600090815260409020805461193390614536565b80601f016020809104026020016040519081016040528092919081815260200182805461195f90614536565b80156119ac5780601f10611981576101008083540402835291602001916119ac565b820191906000526020600020905b81548152906001019060200180831161198f57829003601f168201915b505050505081565b601182815481106119c7576119c7614505565b906000526020600020906036020160350160089054906101000a900460ff16611a3c5760405162461bcd60e51b815260206004820152602160248201527f4974656d206e6f7420696e2073686f70206f7220646f65736e277420657869736044820152601d60fa1b6064820152608401610fda565b611a4a601280546001019055565b6000611a5560125490565b9050611a613382612e19565b611dfd8160118581548110611a7857611a78614505565b9060005260206000209060360201604051806107c0016040529081600082018054611aa290614536565b80601f0160208091040260200160405190810160405280929190818152602001828054611ace90614536565b8015611b1b5780601f10611af057610100808354040283529160200191611b1b565b820191906000526020600020905b815481529060010190602001808311611afe57829003601f168201915b50505091835250506001820154602080830191909152600283015460408301526003830154606083015260048301546080830152600583015460a0830152600683015460c0830152600783015460e08301526008830154610100808401919091526009840154610120840152600a840154610140840152600b840154610160840152600c840154610180840152600d8401546101a0840152600e8401546101c0840152600f8401546101e08401526010840154610200840152601184015461022084015260128401546102408401526013840154610260840152601484015461028084015260158401546102a084015260168401546102c084015260178401546102e084015260188401546103008401526019840154610320840152601a840154610340840152601b840154610360840152601c840154610380840152601d8401546103a0840152601e8401546103c0840152601f8401546103e084015290830154610400830152602183015461042083015260228301546104408301526023830154610460830152602483015461048083015260258301546104a083015260268301546104c083015260278301546104e083015260288301546105008301526029830154610520830152602a830154610540830152602b830154610560830152602c830154610580830152602d8301546105a0830152602e8301546105c0830152602f8301546105e08301526030830154610600830152603183015461062083015260328301546106408301526033830154610660830152603483015461068083015260359092015460ff80821615156106a0840152928104831615156106c0830152620100008104831615156106e08301526301000000810483161515610700830152640100000000810483161515610720830152600160281b810483161515610740830152600160301b810483161515610760830152600160381b810483161515610780830152600160401b900490911615156107a090910152612e33565b60008181526010602052604090819020600181018390556032810184905543603382015590517f78cb587a56a0dc7913ec51993eb7f7bf182fca207bd1460930bc912747387edd91611e559184918791339190614771565b60405180910390a1505050565b6000611e6d82612b6a565b611e895760405162461bcd60e51b8152600401610fda906146dd565b60008281526010602052604090206035015462010000900460ff16611edc5760405162461bcd60e51b815260206004820152600960248201526809cdee840c240c4def60bb1b6044820152606401610fda565b6000828152601060209081526040808320600290810154808552604984528285208351610120810185528154815260018201548187015292810180548551818802810188018752818152939796949592949286019392830182828015611f6157602002820191906000526020600020905b815481526020019060010190808311611f4d575b505050505081526020016003820154815260200160048201805480602002602001604051908101604052809291908181526020018280548015611fc357602002820191906000526020600020905b815481526020019060010190808311611faf575b50505050508152602001600582015481526020016006820180548060200260200160405190810160405280929190818152602001828054801561202557602002820191906000526020600020905b815481526020019060010190808311612011575b50505050508152602001600782015481526020016008820180548060200260200160405190810160405280929190818152602001828054801561208757602002820191906000526020600020905b815481526020019060010190808311612073575b505050505081525050905060006120b682602001516104cc84606001516104cc8660a001518760e00151612635565b905060006120c26131b5565b90506000808060008086861161216157876020015186116120f557600193506120ee88604001516131cc565b9450612172565b61210788602001518960600151612635565b861161211e57600192506120ee88608001516131cc565b6121388860a001516104cc8a602001518b60600151612635565b861161214f57600191506120ee8860c001516131cc565b600190506120ee8861010001516131cc565b5060009a9950505050505050505050565b612180601280546001019055565b600061218b60125490565b90506121973382612e19565b6121ae8160118881548110611a7857611a78614505565b60008181526010602090815260409182902060010183905581513381529081018390527fca303f21e08537b41000f97158de2ebca16244cb81143c3d691b410b0a2b8a4c910160405180910390a19b9a5050505050505050505050565b606060018054610ebc90614536565b6115e7338383613208565b6000828211156122375761223761481a565b6122418284614694565b9392505050565b60006040518061012001604052808c81526020018b60006004811061226f5761226f614505565b602002013581526020018a8a808060200260200160405190810160405280939291908181526020018383602002808284376000920191909152505050908252506020018b6001602002013581526020018888808060200260200160405190810160405280939291908181526020018383602002808284376000920191909152505050908252506020018b6002602002013581526020018686808060200260200160405190810160405280939291908181526020018383602002808284376000920191909152505050908252506020018b60036020020135815260200184848080602002602001604051908101604052809392919081815260200183836020028082843760009201829052509390945250508d8152604960209081526040918290208451815581850151600182015591840151805194955085949293506123be9260028501929190910190613bcc565b5060608201516003820155608082015180516123e4916004840191602090910190613bcc565b5060a0820151600582015560c0820151805161240a916006840191602090910190613bcc565b5060e082015160078201556101008201518051612431916008840191602090910190613bcc565b5050604080518d81528c356020828101919091528d013581830152908c01356060808301919091528c013560808201527f86f382a6bc7e045486af422eb9e8f96528c8a6c437f0088461c6879f4c80fed9915060a00160405180910390a15050505050505050505050565b6124a63383612b87565b6124c25760405162461bcd60e51b8152600401610fda9061470b565b6124ce848484846132d6565b50505050565b600f6020528160005260406000208181548110610e9857600080fd5b60606124fb82612aa9565b600061251260408051602081019091526000815290565b905060008151116125325760405180602001604052806000815250612241565b8061253c84613309565b60405160200161254d929190614830565b6040516020818303038152906040529392505050565b6060600061257083611894565b905060008167ffffffffffffffff81111561258d5761258d6143a5565b6040519080825280602002602001820160405280156125b6578160200160208202803683370190505b50905060005b828110156125fd576125ce8582611463565b8282815181106125e0576125e0614505565b6020908102919091010152806125f581614758565b9150506125bc565b509392505050565b600080612612838561485f565b9050831580612629575082612627858361488c565b145b6122415761224161481a565b60008061264283856148a0565b90508381101580156126295750828110156122415761224161481a565b600c6020528160005260406000208181548110610e9857600080fd5b600061268860328361488c565b9050612698601280546001019055565b60006126a360125490565b90506126af8482612e19565b60006013604051806107c00160405290816000820180546126cf90614536565b80601f01602080910402602001604051908101604052809291908181526020018280546126fb90614536565b80156127485780601f1061271d57610100808354040283529160200191612748565b820191906000526020600020905b81548152906001019060200180831161272b57829003601f168201915b5050509183525050600182015460208083019190915260028301546040808401919091526003840154606084015260048401546080840152600584015460a0840152600684015460c0840152600784015460e08401526008840154610100808501919091526009850154610120850152600a850154610140850152600b850154610160850152600c850154610180850152600d8501546101a0850152600e8501546101c0850152600f8501546101e085015260108501546102008501526011850154610220850152601285015461024085015260138086015461026086015260148601546102808601526015808701546102a087015260168701546102c087015260178701546102e087015260188701546103008701526019870154610320870152601a870154610340870152601b870154610360870152601c870154610380870152601d8701546103a0870152601e8701546103c0870152601f8701546103e087015293860154610400860152602186015461042086015260228601546104408601526023860154610460860152602486015461048086015260258601546104a086015260268601546104c086015260278601546104e086015260288601546105008601526029860154610520860152602a860154610540860152602b860154610560860152602c860154610580860152602d8601546105a0860152602e8601546105c0860152602f8601546105e08601526030860154610600860152603186015461062086015260328601546106408601526033860154610660860152603486015461068086015260359095015460ff80821615156106a0870152918104821615156106c0860152620100008104821615156106e08601526301000000810482161515610700860152640100000000810482161515610720860152600160281b810482161515610740860152600160301b810482161515610760860152600160381b810482161515610780860152600160401b90041615156107a09093019290925286905580516107c081019091528154929350612a529285929082908290611aa290614536565b5050505050565b60006001600160e01b031982166380ac58cd60e01b1480612a8a57506001600160e01b03198216635b5e139f60e01b145b80610e7657506301ffc9a760e01b6001600160e01b0319831614610e76565b612ab281612b6a565b612af95760405162461bcd60e51b8152602060048201526018602482015277115490cdcc8c4e881a5b9d985b1a59081d1bdad95b88125160421b6044820152606401610fda565b50565b600081815260046020526040902080546001600160a01b0319166001600160a01b0384169081179091558190612b31826117a8565b6001600160a01b03167f8c5be1e5ebec7d5bd14f71427d1e84f3dd0314c0f7b2291e5b200ac8c7c3b92560405160405180910390a45050565b6000908152600260205260409020546001600160a01b0316151590565b600080612b93836117a8565b9050806001600160a01b0316846001600160a01b03161480612bda57506001600160a01b0380821660009081526005602090815260408083209388168352929052205460ff165b80610e495750836001600160a01b0316612bf384610f3f565b6001600160a01b031614949350505050565b826001600160a01b0316612c18826117a8565b6001600160a01b031614612c3e5760405162461bcd60e51b8152600401610fda906148b3565b6001600160a01b038216612ca05760405162461bcd60e51b8152602060048201526024808201527f4552433732313a207472616e7366657220746f20746865207a65726f206164646044820152637265737360e01b6064820152608401610fda565b612cad838383600161339c565b826001600160a01b0316612cc0826117a8565b6001600160a01b031614612ce65760405162461bcd60e51b8152600401610fda906148b3565b600081815260046020908152604080832080546001600160a01b03199081169091556001600160a01b0387811680865260038552838620805460001901905590871680865283862080546001019055868652600290945282852080549092168417909155905184937fddf252ad1be2c89b69c2b068fc378daa952ba7f163c4a11628f55a4df523b3ef91a4505050565b6000612d81826117a8565b9050612d9181600084600161339c565b612d9a826117a8565b600083815260046020908152604080832080546001600160a01b03199081169091556001600160a01b0385168085526003845282852080546000190190558785526002909352818420805490911690555192935084927fddf252ad1be2c89b69c2b068fc378daa952ba7f163c4a11628f55a4df523b3ef908390a45050565b6115e78282604051806020016040528060008152506134c9565b612e3c82612b6a565b612e585760405162461bcd60e51b8152600401610fda906146dd565b600082815260106020526040902081518291908190612e7790826145be565b50602082810151600183015560408301516002830155606083015160038301556080830151600483015560a0830151600583015560c0830151600683015560e083015160078301556101008084015160088401556101208401516009840155610140840151600a840155610160840151600b840155610180840151600c8401556101a0840151600d8401556101c0840151600e8401556101e0840151600f840155610200840151601084015561022084015160118401556102408401516012840155610260840151601384015561028084015160148401556102a084015160158401556102c084015160168401556102e0840151601784015561030084015160188401556103208401516019840155610340840151601a840155610360840151601b840155610380840151601c8401556103a0840151601d8401556103c0840151601e8401556103e0840151601f8401556104008401519183019190915561042083015160218301556104408301516022830155610460830151602383015561048083015160248301556104a083015160258301556104c083015160268301556104e0830151602783015561050083015160288301556105208301516029830155610540830151602a830155610560830151602b830155610580830151602c8301556105a0830151602d8301556105c0830151602e8301556105e0830151602f830155610600830151603083015561062083015160318301556106408301516032830155610660830151603383015561068083015160348301556106a0830151603590920180546106c08501516106e08601516107008701516107208801516107408901516107608a01516107808b01516107a0909b015161ffff1990971699151561ff001916999099179415159097029390931763ffff00001916620100009215159290920263ff0000001916919091176301000000911515919091021765ffff0000000019166401000000009115159190910265ff0000000000191617600160281b931515939093029290921767ffff0000000000001916600160301b9315159390930260ff60381b191692909217600160381b931515939093029290921760ff60401b1916600160401b921515929092029190911790555050565b600044816131c46064836148f8565b509092915050565b6000806131d76131b5565b8351909150836131e782846148f8565b815181106131f7576131f7614505565b602002602001015192505050919050565b816001600160a01b0316836001600160a01b0316036132695760405162461bcd60e51b815260206004820152601960248201527f4552433732313a20617070726f766520746f2063616c6c6572000000000000006044820152606401610fda565b6001600160a01b03838116600081815260056020908152604080832094871680845294825291829020805460ff191686151590811790915591519182527f17307eab39ab6107e8899845ad3d59bd9653f200f220920489ca2b5937696c31910160405180910390a3505050565b6132e1848484612c05565b6132ed848484846134fc565b6124ce5760405162461bcd60e51b8152600401610fda9061490c565b60606000613316836135fa565b600101905060008167ffffffffffffffff811115613336576133366143a5565b6040519080825280601f01601f191660200182016040528015613360576020820181803683370190505b5090508181016020015b600019016f181899199a1a9b1b9c1cb0b131b232b360811b600a86061a8153600a850494508461336a57509392505050565b600181111561340b5760405162461bcd60e51b815260206004820152603560248201527f455243373231456e756d657261626c653a20636f6e7365637574697665207472604482015274185b9cd9995c9cc81b9bdd081cdd5c1c1bdc9d1959605a1b6064820152608401610fda565b816001600160a01b0385166134675761346281600880546000838152600960205260408120829055600182018355919091527ff3f7a9fe364faab93b216da50a3214154f22a0a2b415b23a84c8169e8b636ee30155565b61348a565b836001600160a01b0316856001600160a01b03161461348a5761348a85826136d2565b6001600160a01b0384166134a6576134a18161376f565b612a52565b846001600160a01b0316846001600160a01b031614612a5257612a52848261381e565b6134d38383613862565b6134e060008484846134fc565b61107b5760405162461bcd60e51b8152600401610fda9061490c565b60006001600160a01b0384163b156135f257604051630a85bd0160e11b81526001600160a01b0385169063150b7a029061354090339089908890889060040161495e565b6020604051808303816000875af192505050801561357b575060408051601f3d908101601f191682019092526135789181019061499b565b60015b6135d8573d8080156135a9576040519150601f19603f3d011682016040523d82523d6000602084013e6135ae565b606091505b5080516000036135d05760405162461bcd60e51b8152600401610fda9061490c565b805181602001fd5b6001600160e01b031916630a85bd0160e11b149050610e49565b506001610e49565b60008072184f03e93ff9f4daa797ed6e38ed64bf6a1f0160401b83106136395772184f03e93ff9f4daa797ed6e38ed64bf6a1f0160401b830492506040015b6d04ee2d6d415b85acef81000000008310613665576d04ee2d6d415b85acef8100000000830492506020015b662386f26fc10000831061368357662386f26fc10000830492506010015b6305f5e100831061369b576305f5e100830492506008015b61271083106136af57612710830492506004015b606483106136c1576064830492506002015b600a8310610e765760010192915050565b600060016136df84611894565b6136e99190614694565b60008381526007602052604090205490915080821461373c576001600160a01b03841660009081526006602090815260408083208584528252808320548484528184208190558352600790915290208190555b5060009182526007602090815260408084208490556001600160a01b039094168352600681528383209183525290812055565b60085460009061378190600190614694565b600083815260096020526040812054600880549394509092849081106137a9576137a9614505565b9060005260206000200154905080600883815481106137ca576137ca614505565b6000918252602080832090910192909255828152600990915260408082208490558582528120556008805480613802576138026149b8565b6001900381819060005260206000200160009055905550505050565b600061382983611894565b6001600160a01b039093166000908152600660209081526040808320868452825280832085905593825260079052919091209190915550565b6001600160a01b0382166138b85760405162461bcd60e51b815260206004820181905260248201527f4552433732313a206d696e7420746f20746865207a65726f20616464726573736044820152606401610fda565b6138c181612b6a565b1561390e5760405162461bcd60e51b815260206004820152601c60248201527f4552433732313a20746f6b656e20616c7265616479206d696e746564000000006044820152606401610fda565b61391c60008383600161339c565b61392581612b6a565b156139725760405162461bcd60e51b815260206004820152601c60248201527f4552433732313a20746f6b656e20616c7265616479206d696e746564000000006044820152606401610fda565b6001600160a01b038216600081815260036020908152604080832080546001019055848352600290915280822080546001600160a01b0319168417905551839291907fddf252ad1be2c89b69c2b068fc378daa952ba7f163c4a11628f55a4df523b3ef908290a45050565b604051806107c0016040528060608152602001600081526020016000815260200160008152602001600081526020016000815260200160008152602001600081526020016000815260200160008152602001600081526020016000815260200160008152602001600081526020016000815260200160008152602001600081526020016000815260200160008152602001600081526020016000815260200160008152602001600081526020016000815260200160008152602001600081526020016000815260200160008152602001600081526020016000815260200160008152602001600081526020016000815260200160008152602001600081526020016000815260200160008152602001600081526020016000815260200160008152602001600081526020016000815260200160008152602001600081526020016000815260200160008152602001600081526020016000815260200160008152602001600081526020016000815260200160008152602001600081526020016000151581526020016000151581526020016000151581526020016000151581526020016000151581526020016000151581526020016000151581526020016000151581526020016000151581525090565b60405180604001604052806002906020820280368337509192915050565b828054828255906000526020600020908101928215613c07579160200282015b82811115613c07578251825591602001919060010190613bec565b50613c13929150613c17565b5090565b5b80821115613c135760008155600101613c18565b6000806000806107c0808688031215613c4457600080fd5b853567ffffffffffffffff80821115613c5c57600080fd5b818801915088601f830112613c7057600080fd5b813581811115613c7f57600080fd5b896020828501011115613c9157600080fd5b6020830197508096505050506106a0860187811115613caf57600080fd5b602087019350878288011115613cc457600080fd5b94979396509194505050565b6001600160e01b031981168114612af957600080fd5b600060208284031215613cf857600080fd5b813561224181613cd0565b60008060408385031215613d1657600080fd5b50508035926020909101359150565b60005b83811015613d40578181015183820152602001613d28565b50506000910152565b60008151808452613d61816020860160208601613d25565b601f01601f19169290920160200192915050565b6020815260006122416020830184613d49565b600060208284031215613d9a57600080fd5b5035919050565b80356001600160a01b0381168114613db857600080fd5b919050565b60008060408385031215613dd057600080fd5b613dd983613da1565b946020939093013593505050565b60208152600082516107c0806020850152613e066107e0850183613d49565b602086015160408681019190915286015160608087019190915286015160808087019190915286015160a08087019190915286015160c08087019190915286015160e08087019190915286015161010080870191909152860151610120808701919091528601516101408087019190915286015161016080870191909152860151610180808701919091528601516101a0808701919091528601516101c0808701919091528601516101e08087019190915286015161020080870191909152860151610220808701919091528601516102408087019190915286015161026080870191909152860151610280808701919091528601516102a0808701919091528601516102c0808701919091528601516102e08087019190915286015161030080870191909152860151610320808701919091528601516103408087019190915286015161036080870191909152860151610380808701919091528601516103a0808701919091528601516103c0808701919091528601516103e08087019190915286015161040080870191909152860151610420808701919091528601516104408087019190915286015161046080870191909152860151610480808701919091528601516104a0808701919091528601516104c0808701919091528601516104e08087019190915286015161050080870191909152860151610520808701919091528601516105408087019190915286015161056080870191909152860151610580808701919091528601516105a0808701919091528601516105c0808701919091528601516105e08087019190915286015161060080870191909152860151610620808701919091528601516106408087019190915286015161066080870191909152860151610680808701919091528601516106a0808701919091528601519092506106c06140bc8187018315159052565b86015190506106e06140d18682018315159052565b86015190506107006140e68682018315159052565b86015190506107206140fb8682018315159052565b86015190506107406141108682018315159052565b86015190506107606141258682018315159052565b860151905061078061413a8682018315159052565b86015190506107a061414f8682018315159052565b90950151151593019290925250919050565b60008060006060848603121561417657600080fd5b61417f84613da1565b925061418d60208501613da1565b9150604084013590509250925092565b60208082528251828201819052600091906040908185019086840185805b838110156141f857825185835b60028110156141e5578251825291890191908901906001016141c8565b50505093850193918601916001016141bb565b509298975050505050505050565b60006020828403121561421857600080fd5b61224182613da1565b80358015158114613db857600080fd5b6000806040838503121561424457600080fd5b61424d83613da1565b915061425b60208401614221565b90509250929050565b8060808101831015610e7657600080fd5b60008083601f84011261428757600080fd5b50813567ffffffffffffffff81111561429f57600080fd5b6020830191508360208260051b85010111156142ba57600080fd5b9250929050565b6000806000806000806000806000806101208b8d0312156142e157600080fd5b8a3599506142f28c60208d01614264565b985060a08b013567ffffffffffffffff8082111561430f57600080fd5b61431b8e838f01614275565b909a50985060c08d013591508082111561433457600080fd5b6143408e838f01614275565b909850965060e08d013591508082111561435957600080fd5b6143658e838f01614275565b90965094506101008d013591508082111561437f57600080fd5b5061438c8d828e01614275565b915080935050809150509295989b9194979a5092959850565b634e487b7160e01b600052604160045260246000fd5b600080600080608085870312156143d157600080fd5b6143da85613da1565b93506143e860208601613da1565b925060408501359150606085013567ffffffffffffffff8082111561440c57600080fd5b818701915087601f83011261442057600080fd5b813581811115614432576144326143a5565b604051601f8201601f19908116603f0116810190838211818310171561445a5761445a6143a5565b816040528281528a602084870101111561447357600080fd5b82602086016020830137600060208483010152809550505050505092959194509250565b6020808252825182820181905260009190848201906040850190845b818110156144cf578351835292840192918401916001016144b3565b50909695505050505050565b600080604083850312156144ee57600080fd5b6144f783613da1565b915061425b60208401613da1565b634e487b7160e01b600052603260045260246000fd5b60006020828403121561452d57600080fd5b61224182614221565b600181811c9082168061454a57607f821691505b60208210810361456a57634e487b7160e01b600052602260045260246000fd5b50919050565b601f82111561107b57600081815260208120601f850160051c810160208610156145975750805b601f850160051c820191505b818110156145b6578281556001016145a3565b505050505050565b815167ffffffffffffffff8111156145d8576145d86143a5565b6145ec816145e68454614536565b84614570565b602080601f83116001811461462157600084156146095750858301515b600019600386901b1c1916600185901b1785556145b6565b600085815260208120601f198616915b8281101561465057888601518255948401946001909101908401614631565b508582101561466e5787850151600019600388901b60f8161c191681555b5050505050600190811b01905550565b634e487b7160e01b600052601160045260246000fd5b81810381811115610e7657610e7661467e565b83815260406020820152816040820152818360608301376000818301606090810191909152601f909201601f1916010192915050565b602080825260149082015273151bdad95b88191bd95cc81b9bdd08195e1a5cdd60621b604082015260600190565b6020808252602d908201527f4552433732313a2063616c6c6572206973206e6f7420746f6b656e206f776e6560408201526c1c881bdc88185c1c1c9bdd9959609a1b606082015260800190565b60006001820161476a5761476a61467e565b5060010190565b84815260006020858184015260018060a01b0385166040840152608060608401526000845461479f81614536565b80608087015260a06001808416600081146147c157600181146147db57614809565b60ff1985168984015283151560051b890183019550614809565b896000528660002060005b858110156148015781548b82018601529083019088016147e6565b8a0184019650505b50939b9a5050505050505050505050565b634e487b7160e01b600052600160045260246000fd5b60008351614842818460208801613d25565b835190830190614856818360208801613d25565b01949350505050565b8082028115828204841417610e7657610e7661467e565b634e487b7160e01b600052601260045260246000fd5b60008261489b5761489b614876565b500490565b80820180821115610e7657610e7661467e565b60208082526025908201527f4552433732313a207472616e736665722066726f6d20696e636f72726563742060408201526437bbb732b960d91b606082015260800190565b60008261490757614907614876565b500690565b60208082526032908201527f4552433732313a207472616e7366657220746f206e6f6e20455243373231526560408201527131b2b4bb32b91034b6b83632b6b2b73a32b960711b606082015260800190565b6001600160a01b038581168252841660208201526040810183905260806060820181905260009061499190830184613d49565b9695505050505050565b6000602082840312156149ad57600080fd5b815161224181613cd0565b634e487b7160e01b600052603160045260246000fdfea2646970667358221220cb1b937a567b38c8e0cc0a7c260b78592b509b24b6fb05ef80976f4870d713d464736f6c63430008130033",
  "immutableReferences": {},
  "source": "// SPDX-License-Identifier: MIT\npragma solidity ^0.8.18;\n\nimport \"@openzeppelin/contracts/token/ERC721/ERC721.sol\";\nimport \"@openzeppelin/contracts/token/ERC721/extensions/ERC721Enumerable.sol\";\nimport \"@openzeppelin/contracts/utils/Counters.sol\";\n  /**\n   * @title Items\n   * @dev ContractDescription\n   * @custom:dev-run-script ./genItems.js\n   */\ncontract Items is ERC721Enumerable {\n    using Counters for Counters.Counter;\n\n    address public owner;\n\n    mapping (uint256 => string) public itemName;\n\n    mapping (uint256 => uint256[]) public Weapons; // mapping of rarityLevel => tokenId[]\n    mapping (uint256 => uint256[]) public Armours; // mapping of rarityLevel => tokenId[]\n    mapping (uint256 => uint256[]) public Jewels; // mapping of rarityLevel => tokenId[]\n    mapping (uint256 => uint256[]) public Misc; // mapping of rarityLevel => tokenId[]\n\n    struct BoxDropRates {\n        uint weaponDropRate;\n        uint armourDropRate;\n        uint jewelDropRate;\n        uint miscDropRate;\n\n        uint luckDropRate;\n        uint skillDropRate;\n        uint excellentItemDropRate;\n        uint ancientItemDropRate;\n        uint socketItemDropRate;        \n    }\n\n    struct ItemAttributes {\n        string name;\n\n        uint tokenId;        \n        uint itemLevel;\n        uint maxLevel;\n        uint durability;\n        uint classRequired; // Dark Knight - 1, Dark Wizard - 2, Fairy Elf - 3, Magic Gladiator - 4\n        uint strengthRequired;\n        uint agilityRequired;\n        uint energyRequired;\n        uint vitalityRequired;\n        uint itemWidth;\n        uint itemHeight;\n        uint acceptableSlot1;\n        uint acceptableSlot2;\n\n        /*\n            1. helmet\n            2. armour\n            3. pants\n            4. gloves\n            5. boots\n            6. left hand\n            7. right hand\n            8. left ring\n            9, right ring\n            10, pendant\n            11. wings\n\n        */\n        uint physicalDamage;\n        uint magicDamage;\n        uint defense;\n        uint attackSpeed;\n        uint defenseSuccessRate;\n        uint additionalDamage;\n        uint additionalDefense;\n        uint increasedExperienceGain;\n        \n        uint damageIncrease;\n        uint defenseSuccessRateIncrease;\n        uint lifeAfterMonsterIncrease;\n        uint manaAfterMonsterIncrease;\n        uint zenAfterMonsterIncrease;\n        uint doubleDamageProbabilityIncrease;\n        uint excellentDamageProbabilityIncrease;\n        uint ignoreOpponentsDefenseRateIncrease;\n        uint reflectDamage;\n        uint maxLifeIncrease;\n        uint maxManaIncrease;\n        uint excellentDamageRateIncrease;\n        uint doubleDamageRateIncrease;\n        uint ignoreOpponentsDefenseSuccessRateIncrease;\n        uint attackDamageIncrease;\n        uint defenseSuccessRateIncreaseAncient;\n        uint reflectDamageRateIncrease;\n        uint decreaseDamageRateIncrease;\n        uint hpRecoveryRateIncrease;\n        uint mpRecoveryRateIncrease;\n        uint hpIncrease;\n        uint mpIncrease;\n        uint increaseDefenseRate;\n        uint increaseStrength;\n        uint increaseAgility;\n        uint increaseEnergy;\n        uint increaseVitality;\n        uint attackSpeedIncrease; \n        uint fighterId;\n        uint lastUpdBlock;\n\n        uint itemRarityLevel;\n\n        bool luck;\n        bool skill;\n        bool isBox;\n        bool isWeapon;\n        bool isArmour;\n        bool isJewel;\n        bool isMisc;\n        bool isConsumable;\n        bool inShop;\n        \n\n    }\n\n    event ItemGenerated(uint256 itemId, string name);\n    event LogError(uint8, uint256);\n\n    function createItem(\n        string calldata name,\n        uint256[52] calldata uintValues,\n        bool[9] calldata boolValues\n        \n    ) external returns (uint256 tokenId)\n    {\n        if (uintValues[0] > 0) uintValues[0] == 0;\n        ItemAttributes memory atts;\n        \n        atts.name = name;\n\n        atts.tokenId = uintValues[0];\n        atts.itemLevel = uintValues[1];\n        atts.maxLevel = uintValues[2];\n        atts.durability = uintValues[3];\n        atts.classRequired = uintValues[4];\n        atts.strengthRequired = uintValues[5];\n        atts.agilityRequired = uintValues[6];\n        atts.energyRequired = uintValues[7];\n        atts.vitalityRequired = uintValues[8];\n        atts.itemWidth = uintValues[9];\n        atts.itemHeight = uintValues[10];\n        atts.acceptableSlot1 = uintValues[11];\n        atts.acceptableSlot2 = uintValues[12];\n\n        atts.physicalDamage = uintValues[13];\n        atts.magicDamage = uintValues[14];\n        atts.defense = uintValues[15];\n        atts.attackSpeed = uintValues[16];\n        atts.defenseSuccessRate = uintValues[17];\n        atts.additionalDamage = uintValues[18];\n        atts.additionalDefense = uintValues[19];\n        atts.increasedExperienceGain = uintValues[20];\n\n        \n\n        atts.damageIncrease = uintValues[21];\n        atts.defenseSuccessRateIncrease = uintValues[22];\n        atts.lifeAfterMonsterIncrease = uintValues[23];\n        atts.manaAfterMonsterIncrease = uintValues[24];\n        atts.zenAfterMonsterIncrease = uintValues[25];\n        atts.doubleDamageProbabilityIncrease = uintValues[26];\n        atts.excellentDamageProbabilityIncrease = uintValues[27];\n        atts.ignoreOpponentsDefenseRateIncrease = uintValues[28];\n        atts.reflectDamage = uintValues[29];\n        atts.maxLifeIncrease = uintValues[30];\n        atts.maxManaIncrease = uintValues[31];\n        atts.excellentDamageRateIncrease = uintValues[32];\n        atts.doubleDamageRateIncrease = uintValues[33];\n        atts.ignoreOpponentsDefenseSuccessRateIncrease = uintValues[34];\n        atts.attackDamageIncrease = uintValues[35];\n        atts.defenseSuccessRateIncreaseAncient = uintValues[36];\n        atts.reflectDamageRateIncrease = uintValues[37];\n        atts.decreaseDamageRateIncrease = uintValues[38];\n        atts.hpRecoveryRateIncrease = uintValues[39];\n        atts.mpRecoveryRateIncrease = uintValues[40];\n        atts.hpIncrease = uintValues[41];\n        atts.mpIncrease = uintValues[42];\n        atts.increaseDefenseRate = uintValues[43];\n        atts.increaseStrength = uintValues[44];\n        atts.increaseAgility = uintValues[45];\n        atts.increaseEnergy = uintValues[46];\n        atts.increaseVitality = uintValues[47];\n        atts.attackSpeedIncrease = uintValues[48];\n\n        atts.fighterId = uintValues[49];\n        atts.lastUpdBlock = uintValues[50];\n        atts.itemRarityLevel = uintValues[51];\n        \n\n        atts.luck = boolValues[0];\n        atts.skill = boolValues[1];\n        atts.isBox = boolValues[2];                \n        atts.isWeapon = boolValues[3];\n        atts.isArmour = boolValues[4];\n        atts.isJewel = boolValues[5];\n        atts.isMisc = boolValues[6];\n        atts.isConsumable = boolValues[7];\n        atts.inShop = boolValues[8];\n\n\n                \n        _itemAttributes.push(atts);   \n         uint256 itemId = _itemAttributes.length - 1;   \n\n         if (atts.isWeapon) {\n             Weapons[atts.itemRarityLevel].push(itemId);\n         } else if (atts.isArmour) {\n             Armours[atts.itemRarityLevel].push(itemId);\n         } else if (atts.isJewel) {\n             Jewels[atts.itemRarityLevel].push(itemId);\n         } else if (atts.isMisc) {\n             Misc[atts.itemRarityLevel].push(itemId);\n         } \n\n        emit ItemGenerated(itemId, name);\n        return itemId;\n    }\n\n    event ItemBoughtFromShop(uint256 tokenId, uint256 itemId, address owner, string itemName);\n\n    function consume(uint256 tokenId) external {\n        require(_exists(tokenId), \"Token does not exist\");\n        require(ownerOf(tokenId) == msg.sender, \"Not your item\");\n\n        ItemAttributes memory item = getTokenAttributes(tokenId);\n\n        require(item.isConsumable, \"Item not consumable\");\n        _burn(tokenId);        \n    }\n\n    function buyItemFromShop(uint256 itemId, uint256 fighterId) external \n    {\n        require(_itemAttributes[itemId].inShop, \"Item not in shop or doesn't exist\");\n\n        // money logic\n\n        _tokenIdCounter.increment();\n        uint256 tokenId = _tokenIdCounter.current();\n        _safeMint(msg.sender, tokenId);\n        _setTokenAttributes(tokenId, _itemAttributes[itemId]);\n\n        _tokenAttributes[tokenId].tokenId = tokenId;      \n        _tokenAttributes[tokenId].fighterId = fighterId;      \n        _tokenAttributes[tokenId].lastUpdBlock = block.number;      \n\n        emit ItemBoughtFromShop(tokenId, itemId, msg.sender, _tokenAttributes[tokenId].name);\n    }\n\n    // Get the attributes for a fighter NFT\n    function getTokenAttributes(uint256 tokenId) public view returns (ItemAttributes memory) {\n        require(_exists(tokenId), \"Token does not exist\");\n\n        return _tokenAttributes[tokenId];\n    }\n\n    // Get the attributes for a fighter NFT\n    function getItemAttributes(uint256 itemId) public view returns (ItemAttributes memory) {\n        require(_itemAttributes.length > itemId, \"Item does not exist\");\n\n        return _itemAttributes[itemId];\n    }\n\n    mapping (uint256 => ItemAttributes) private _tokenAttributes;\n    ItemAttributes[] private _itemAttributes;\n    Counters.Counter private _tokenIdCounter;\n\n    ItemAttributes boxAttributes;\n\n    constructor() ERC721(\"Combats\", \"Item\") {\n        owner = msg.sender;\n        boxAttributes.isBox = true;\n        boxAttributes.itemWidth = 1;\n        boxAttributes.itemHeight = 1;\n    }\n\n    function getUserItems(address userAddress) external view returns (uint256[] memory) {\n        \n        uint256 numTokens = balanceOf(userAddress);\n        uint256[] memory tokenIds = new uint256[](numTokens);\n\n        for (uint256 i = 0; i < numTokens; i++) {\n            tokenIds[i] = tokenOfOwnerByIndex(userAddress, i);\n        }\n\n        return tokenIds;\n    }\n\n\n    function getFighterItems(address userAddress, uint256 fighterId) external view returns (uint256[2][] memory) {\n        \n        uint256 numTokens = balanceOf(userAddress);\n        uint256[2][] memory tokenIds = new uint256[2][](numTokens);\n\n        uint256 id;\n        uint counter = 0;\n\n        for (uint256 i = 0; i < numTokens; i++) {\n            id = tokenOfOwnerByIndex(userAddress, i);\n            if (_tokenAttributes[id].fighterId == fighterId)\n            {\n                tokenIds[counter] = [id, _tokenAttributes[id].lastUpdBlock];\n            }\n            \n            counter++;\n        }\n\n        return tokenIds;\n    }\n\n    struct DropList {\n        uint256 level;\n        uint256 weaponsDropRate;\n        uint256[] weaponsList;\n        uint256 armourDropRate;\n        uint256[] armourList;\n        uint256 jewelsDropRate;\n        uint256[] jewelsList;\n        uint256 miscDropRate;\n        uint256[] miscList;\n    }\n\n    mapping (uint => DropList) public boxDropList;\n\n    event BoxDropUpdated(uint level, uint256 weaponsDropRate, uint256 armourDropRate, uint256 jewelsDropRate, uint256 miscDropRate);\n\n    function setBoxDrop (\n        uint256 level, \n        uint256[4] calldata dropRates,\n        uint256[] calldata weaponsList,        \n        uint256[] calldata armourList, \n        uint256[] calldata jewelsList, \n        uint256[] calldata miscList\n    ) external {\n        DropList memory newList = DropList({\n            level: level,\n            weaponsDropRate: dropRates[0],\n            armourDropRate: dropRates[1],\n            jewelsDropRate: dropRates[2],\n            miscDropRate: dropRates[3],\n            weaponsList: weaponsList,\n            armourList: armourList,\n            jewelsList: jewelsList,\n            miscList: miscList\n        });\n        boxDropList[level] = newList;\n        emit BoxDropUpdated(level, dropRates[0], dropRates[1], dropRates[2], dropRates[3]);\n    }\n\n    event BoxDropped(address owner, uint256 tokenId);\n    function dropBox (uint256 tokenId) external returns (uint256) {\n\n        require(_exists(tokenId), \"Token does not exist\");\n        require(_tokenAttributes[tokenId].isBox, \"Not a box\");\n        uint256 boxLevel = _tokenAttributes[tokenId].itemLevel;\n        \n        DropList memory dropList = boxDropList[boxLevel];\n\n        uint256 totalProbability = safeAdd(dropList.weaponsDropRate, safeAdd(dropList.armourDropRate, safeAdd(dropList.jewelsDropRate, dropList.miscDropRate)));\n\n        uint256 randomNum = getRandomNumber();\n\n        uint256 droppedItemId = 0;\n\n        bool isWeapon;\n        bool isArmour; \n        bool isJewel; \n        bool isMisc;\n\n        if (randomNum <= totalProbability) {\n            if (randomNum <= dropList.weaponsDropRate)    {\n                isWeapon = true;\n                droppedItemId = returnRandomItemFromDropList(dropList.weaponsList);\n            } else if (randomNum <= safeAdd(dropList.weaponsDropRate, dropList.armourDropRate)) {\n                isArmour = true;\n                droppedItemId = returnRandomItemFromDropList(dropList.armourList);\n            } else if (randomNum <= safeAdd(dropList.jewelsDropRate, safeAdd(dropList.weaponsDropRate, dropList.armourDropRate))) {\n                isJewel = true;\n                droppedItemId = returnRandomItemFromDropList(dropList.jewelsList);\n            } else {\n                isMisc = true;\n                droppedItemId = returnRandomItemFromDropList(dropList.miscList);\n            }\n        } else {\n            return 0;\n        }\n\n        _tokenIdCounter.increment();\n        uint256 tokenId = _tokenIdCounter.current();\n        _safeMint(msg.sender, tokenId);\n        _setTokenAttributes(tokenId, _itemAttributes[droppedItemId]);\n\n        // Determine Excelent option\n        //uint excelentProbability = boxDropList[_tokenAttributes[tokenId].itemLevel];\n\n        _tokenAttributes[tokenId].tokenId = tokenId;       \n\n        emit BoxDropped(msg.sender, tokenId);\n\n        return tokenId;\n    }\n\n    function mintBox(address winner, uint256 opponentLevel) external {\n        uint256 boxLevel = opponentLevel/50;\n\n        _tokenIdCounter.increment();\n        uint256 tokenId = _tokenIdCounter.current();\n        _safeMint(winner, tokenId);\n\n        ItemAttributes memory newBoxAttributes = boxAttributes;\n\n        boxAttributes.itemLevel = boxLevel; \n\n        _setTokenAttributes(tokenId, boxAttributes);\n    }\n\n    function _setTokenAttributes(uint256 tokenId, ItemAttributes memory attrs) internal {\n        require(_exists(tokenId), \"Token does not exist\");\n\n        _tokenAttributes[tokenId] = attrs;\n    }\n\n    function returnRandomItemFromDropList(uint256[] memory items) internal returns (uint256) {\n        uint256 randomNumber = getRandomNumber();\n        uint256 len = items.length;\n\n        return items[randomNumber % len];\n\n    }\n\n    function getRandomNumber () internal returns (uint256) {\n        uint256 randomNumber = block.prevrandao;\n\n        uint256 modulus = randomNumber % 100;\n\n        return randomNumber;\n    }\n\n\n    // Returns the smaller of two values\n    function min(uint a, uint b) private pure returns (uint) {\n        return a < b ? a : b;\n    }\n\n    // Returns the largest of the two values\n    function max(uint a, uint b) private pure returns (uint) {\n        return a > b ? a : b;\n    }\n\n    // Safe Multiply Function - prevents integer overflow \n    function safeMul(uint a, uint b) public returns (uint) {\n        uint c = a * b;\n        assert(a == 0 || c / a == b);\n        return c;\n    }\n\n    // Safe Subtraction Function - prevents integer overflow \n    function safeSub(uint a, uint b) public returns (uint) {\n        assert(b <= a);\n        return a - b;\n    }\n\n    // Safe Addition Function - prevents integer overflow \n    function safeAdd(uint a, uint b) public returns (uint) {\n        uint c = a + b;\n        assert(c>=a && c>=b);\n        return c;\n    }\n\n}",
  "sourcePath": "/Users/max/Documents/prog/mriusd/contracts/Items.sol",
  "compiler": {
    "name": "solc",
    "version": "0.8.19+commit.7dd6d404.Emscripten.clang"
  },
  "schemaVersion": "3.4.13",
  "updatedAt": "2023-04-14T08:49:07.451Z",
  "networkType": "ethereum",
  "devdoc": {
    "custom:dev-run-script": "./genItems.js",
    "details": "ContractDescription",
    "events": {
      "Approval(address,address,uint256)": {
        "details": "Emitted when `owner` enables `approved` to manage the `tokenId` token."
      },
      "ApprovalForAll(address,address,bool)": {
        "details": "Emitted when `owner` enables or disables (`approved`) `operator` to manage all of its assets."
      },
      "Transfer(address,address,uint256)": {
        "details": "Emitted when `tokenId` token is transferred from `from` to `to`."
      }
    },
    "kind": "dev",
    "methods": {
      "approve(address,uint256)": {
        "details": "See {IERC721-approve}."
      },
      "balanceOf(address)": {
        "details": "See {IERC721-balanceOf}."
      },
      "getApproved(uint256)": {
        "details": "See {IERC721-getApproved}."
      },
      "isApprovedForAll(address,address)": {
        "details": "See {IERC721-isApprovedForAll}."
      },
      "name()": {
        "details": "See {IERC721Metadata-name}."
      },
      "ownerOf(uint256)": {
        "details": "See {IERC721-ownerOf}."
      },
      "safeTransferFrom(address,address,uint256)": {
        "details": "See {IERC721-safeTransferFrom}."
      },
      "safeTransferFrom(address,address,uint256,bytes)": {
        "details": "See {IERC721-safeTransferFrom}."
      },
      "setApprovalForAll(address,bool)": {
        "details": "See {IERC721-setApprovalForAll}."
      },
      "supportsInterface(bytes4)": {
        "details": "See {IERC165-supportsInterface}."
      },
      "symbol()": {
        "details": "See {IERC721Metadata-symbol}."
      },
      "tokenByIndex(uint256)": {
        "details": "See {IERC721Enumerable-tokenByIndex}."
      },
      "tokenOfOwnerByIndex(address,uint256)": {
        "details": "See {IERC721Enumerable-tokenOfOwnerByIndex}."
      },
      "tokenURI(uint256)": {
        "details": "See {IERC721Metadata-tokenURI}."
      },
      "totalSupply()": {
        "details": "See {IERC721Enumerable-totalSupply}."
      },
      "transferFrom(address,address,uint256)": {
        "details": "See {IERC721-transferFrom}."
      }
    },
    "title": "Items",
    "version": 1
  },
  "userdoc": {
    "kind": "user",
    "methods": {},
    "version": 1
  }
}