{
  "contractName": "Items",
  "abi": [
    {
      "inputs": [],
      "stateMutability": "nonpayable",
      "type": "constructor"
    },
    {
      "anonymous": false,
      "inputs": [
        {
          "indexed": true,
          "internalType": "address",
          "name": "owner",
          "type": "address"
        },
        {
          "indexed": true,
          "internalType": "address",
          "name": "approved",
          "type": "address"
        },
        {
          "indexed": true,
          "internalType": "uint256",
          "name": "tokenId",
          "type": "uint256"
        }
      ],
      "name": "Approval",
      "type": "event"
    },
    {
      "anonymous": false,
      "inputs": [
        {
          "indexed": true,
          "internalType": "address",
          "name": "owner",
          "type": "address"
        },
        {
          "indexed": true,
          "internalType": "address",
          "name": "operator",
          "type": "address"
        },
        {
          "indexed": false,
          "internalType": "bool",
          "name": "approved",
          "type": "bool"
        }
      ],
      "name": "ApprovalForAll",
      "type": "event"
    },
    {
      "anonymous": false,
      "inputs": [
        {
          "indexed": false,
          "internalType": "uint256",
          "name": "rarityLevel",
          "type": "uint256"
        },
        {
          "components": [
            {
              "internalType": "uint256",
              "name": "weaponsDropRate",
              "type": "uint256"
            },
            {
              "internalType": "uint256",
              "name": "armoursDropRate",
              "type": "uint256"
            },
            {
              "internalType": "uint256",
              "name": "jewelsDropRate",
              "type": "uint256"
            },
            {
              "internalType": "uint256",
              "name": "miscDropRate",
              "type": "uint256"
            },
            {
              "internalType": "uint256",
              "name": "boxDropRate",
              "type": "uint256"
            },
            {
              "internalType": "uint256",
              "name": "luckDropRate",
              "type": "uint256"
            },
            {
              "internalType": "uint256",
              "name": "skillDropRate",
              "type": "uint256"
            },
            {
              "internalType": "uint256",
              "name": "excDropRate",
              "type": "uint256"
            },
            {
              "internalType": "uint256",
              "name": "boxId",
              "type": "uint256"
            },
            {
              "internalType": "uint256",
              "name": "minItemLevel",
              "type": "uint256"
            },
            {
              "internalType": "uint256",
              "name": "maxItemLevel",
              "type": "uint256"
            },
            {
              "internalType": "uint256",
              "name": "maxAddPoints",
              "type": "uint256"
            }
          ],
          "indexed": false,
          "internalType": "struct Items.DropParams",
          "name": "params",
          "type": "tuple"
        }
      ],
      "name": "BoxDropParametersChange",
      "type": "event"
    },
    {
      "anonymous": false,
      "inputs": [
        {
          "indexed": false,
          "internalType": "uint256",
          "name": "tokenId",
          "type": "uint256"
        },
        {
          "indexed": false,
          "internalType": "uint256",
          "name": "rarityLevel",
          "type": "uint256"
        },
        {
          "indexed": false,
          "internalType": "address",
          "name": "owner",
          "type": "address"
        }
      ],
      "name": "BoxOppened",
      "type": "event"
    },
    {
      "anonymous": false,
      "inputs": [
        {
          "indexed": false,
          "internalType": "uint256",
          "name": "rarityLevel",
          "type": "uint256"
        },
        {
          "components": [
            {
              "internalType": "uint256",
              "name": "weaponsDropRate",
              "type": "uint256"
            },
            {
              "internalType": "uint256",
              "name": "armoursDropRate",
              "type": "uint256"
            },
            {
              "internalType": "uint256",
              "name": "jewelsDropRate",
              "type": "uint256"
            },
            {
              "internalType": "uint256",
              "name": "miscDropRate",
              "type": "uint256"
            },
            {
              "internalType": "uint256",
              "name": "boxDropRate",
              "type": "uint256"
            },
            {
              "internalType": "uint256",
              "name": "luckDropRate",
              "type": "uint256"
            },
            {
              "internalType": "uint256",
              "name": "skillDropRate",
              "type": "uint256"
            },
            {
              "internalType": "uint256",
              "name": "excDropRate",
              "type": "uint256"
            },
            {
              "internalType": "uint256",
              "name": "boxId",
              "type": "uint256"
            },
            {
              "internalType": "uint256",
              "name": "minItemLevel",
              "type": "uint256"
            },
            {
              "internalType": "uint256",
              "name": "maxItemLevel",
              "type": "uint256"
            },
            {
              "internalType": "uint256",
              "name": "maxAddPoints",
              "type": "uint256"
            }
          ],
          "indexed": false,
          "internalType": "struct Items.DropParams",
          "name": "params",
          "type": "tuple"
        }
      ],
      "name": "DropParametersChange",
      "type": "event"
    },
    {
      "anonymous": false,
      "inputs": [
        {
          "indexed": false,
          "internalType": "uint256",
          "name": "tokenId",
          "type": "uint256"
        },
        {
          "indexed": false,
          "internalType": "uint256",
          "name": "itemId",
          "type": "uint256"
        },
        {
          "indexed": false,
          "internalType": "address",
          "name": "owner",
          "type": "address"
        },
        {
          "indexed": false,
          "internalType": "string",
          "name": "itemName",
          "type": "string"
        }
      ],
      "name": "ItemBoughtFromShop",
      "type": "event"
    },
    {
      "anonymous": false,
      "inputs": [
        {
          "indexed": false,
          "internalType": "uint256",
          "name": "tokenId",
          "type": "uint256"
        },
        {
          "indexed": false,
          "internalType": "uint256",
          "name": "rarityLevel",
          "type": "uint256"
        },
        {
          "indexed": false,
          "internalType": "address",
          "name": "owner",
          "type": "address"
        }
      ],
      "name": "ItemDropped",
      "type": "event"
    },
    {
      "anonymous": false,
      "inputs": [
        {
          "indexed": false,
          "internalType": "uint256",
          "name": "itemId",
          "type": "uint256"
        },
        {
          "indexed": false,
          "internalType": "string",
          "name": "name",
          "type": "string"
        }
      ],
      "name": "ItemGenerated",
      "type": "event"
    },
    {
      "anonymous": false,
      "inputs": [
        {
          "indexed": false,
          "internalType": "uint256",
          "name": "tokenId",
          "type": "uint256"
        },
        {
          "indexed": false,
          "internalType": "uint256",
          "name": "newLevel",
          "type": "uint256"
        },
        {
          "indexed": false,
          "internalType": "uint256",
          "name": "newAddOption",
          "type": "uint256"
        }
      ],
      "name": "ItemUpgrade",
      "type": "event"
    },
    {
      "anonymous": false,
      "inputs": [
        {
          "indexed": false,
          "internalType": "uint8",
          "name": "",
          "type": "uint8"
        },
        {
          "indexed": false,
          "internalType": "uint256",
          "name": "",
          "type": "uint256"
        }
      ],
      "name": "LogError",
      "type": "event"
    },
    {
      "anonymous": false,
      "inputs": [
        {
          "indexed": true,
          "internalType": "address",
          "name": "from",
          "type": "address"
        },
        {
          "indexed": true,
          "internalType": "address",
          "name": "to",
          "type": "address"
        },
        {
          "indexed": true,
          "internalType": "uint256",
          "name": "tokenId",
          "type": "uint256"
        }
      ],
      "name": "Transfer",
      "type": "event"
    },
    {
      "inputs": [
        {
          "internalType": "uint256",
          "name": "",
          "type": "uint256"
        },
        {
          "internalType": "uint256",
          "name": "",
          "type": "uint256"
        }
      ],
      "name": "Armours",
      "outputs": [
        {
          "internalType": "uint256",
          "name": "",
          "type": "uint256"
        }
      ],
      "stateMutability": "view",
      "type": "function"
    },
    {
      "inputs": [
        {
          "internalType": "uint256",
          "name": "",
          "type": "uint256"
        }
      ],
      "name": "BoxDropPramsList",
      "outputs": [
        {
          "internalType": "uint256",
          "name": "weaponsDropRate",
          "type": "uint256"
        },
        {
          "internalType": "uint256",
          "name": "armoursDropRate",
          "type": "uint256"
        },
        {
          "internalType": "uint256",
          "name": "jewelsDropRate",
          "type": "uint256"
        },
        {
          "internalType": "uint256",
          "name": "miscDropRate",
          "type": "uint256"
        },
        {
          "internalType": "uint256",
          "name": "boxDropRate",
          "type": "uint256"
        },
        {
          "internalType": "uint256",
          "name": "luckDropRate",
          "type": "uint256"
        },
        {
          "internalType": "uint256",
          "name": "skillDropRate",
          "type": "uint256"
        },
        {
          "internalType": "uint256",
          "name": "excDropRate",
          "type": "uint256"
        },
        {
          "internalType": "uint256",
          "name": "boxId",
          "type": "uint256"
        },
        {
          "internalType": "uint256",
          "name": "minItemLevel",
          "type": "uint256"
        },
        {
          "internalType": "uint256",
          "name": "maxItemLevel",
          "type": "uint256"
        },
        {
          "internalType": "uint256",
          "name": "maxAddPoints",
          "type": "uint256"
        }
      ],
      "stateMutability": "view",
      "type": "function"
    },
    {
      "inputs": [
        {
          "internalType": "uint256",
          "name": "",
          "type": "uint256"
        }
      ],
      "name": "DropParamsList",
      "outputs": [
        {
          "internalType": "uint256",
          "name": "weaponsDropRate",
          "type": "uint256"
        },
        {
          "internalType": "uint256",
          "name": "armoursDropRate",
          "type": "uint256"
        },
        {
          "internalType": "uint256",
          "name": "jewelsDropRate",
          "type": "uint256"
        },
        {
          "internalType": "uint256",
          "name": "miscDropRate",
          "type": "uint256"
        },
        {
          "internalType": "uint256",
          "name": "boxDropRate",
          "type": "uint256"
        },
        {
          "internalType": "uint256",
          "name": "luckDropRate",
          "type": "uint256"
        },
        {
          "internalType": "uint256",
          "name": "skillDropRate",
          "type": "uint256"
        },
        {
          "internalType": "uint256",
          "name": "excDropRate",
          "type": "uint256"
        },
        {
          "internalType": "uint256",
          "name": "boxId",
          "type": "uint256"
        },
        {
          "internalType": "uint256",
          "name": "minItemLevel",
          "type": "uint256"
        },
        {
          "internalType": "uint256",
          "name": "maxItemLevel",
          "type": "uint256"
        },
        {
          "internalType": "uint256",
          "name": "maxAddPoints",
          "type": "uint256"
        }
      ],
      "stateMutability": "view",
      "type": "function"
    },
    {
      "inputs": [
        {
          "internalType": "uint256",
          "name": "",
          "type": "uint256"
        },
        {
          "internalType": "uint256",
          "name": "",
          "type": "uint256"
        }
      ],
      "name": "Jewels",
      "outputs": [
        {
          "internalType": "uint256",
          "name": "",
          "type": "uint256"
        }
      ],
      "stateMutability": "view",
      "type": "function"
    },
    {
      "inputs": [
        {
          "internalType": "uint256",
          "name": "",
          "type": "uint256"
        },
        {
          "internalType": "uint256",
          "name": "",
          "type": "uint256"
        }
      ],
      "name": "Misc",
      "outputs": [
        {
          "internalType": "uint256",
          "name": "",
          "type": "uint256"
        }
      ],
      "stateMutability": "view",
      "type": "function"
    },
    {
      "inputs": [
        {
          "internalType": "uint256",
          "name": "",
          "type": "uint256"
        },
        {
          "internalType": "uint256",
          "name": "",
          "type": "uint256"
        }
      ],
      "name": "Weapons",
      "outputs": [
        {
          "internalType": "uint256",
          "name": "",
          "type": "uint256"
        }
      ],
      "stateMutability": "view",
      "type": "function"
    },
    {
      "inputs": [
        {
          "internalType": "address",
          "name": "to",
          "type": "address"
        },
        {
          "internalType": "uint256",
          "name": "tokenId",
          "type": "uint256"
        }
      ],
      "name": "approve",
      "outputs": [],
      "stateMutability": "nonpayable",
      "type": "function"
    },
    {
      "inputs": [
        {
          "internalType": "address",
          "name": "owner",
          "type": "address"
        }
      ],
      "name": "balanceOf",
      "outputs": [
        {
          "internalType": "uint256",
          "name": "",
          "type": "uint256"
        }
      ],
      "stateMutability": "view",
      "type": "function"
    },
    {
      "inputs": [
        {
          "internalType": "uint256",
          "name": "tokenId",
          "type": "uint256"
        }
      ],
      "name": "getApproved",
      "outputs": [
        {
          "internalType": "address",
          "name": "",
          "type": "address"
        }
      ],
      "stateMutability": "view",
      "type": "function"
    },
    {
      "inputs": [
        {
          "internalType": "address",
          "name": "owner",
          "type": "address"
        },
        {
          "internalType": "address",
          "name": "operator",
          "type": "address"
        }
      ],
      "name": "isApprovedForAll",
      "outputs": [
        {
          "internalType": "bool",
          "name": "",
          "type": "bool"
        }
      ],
      "stateMutability": "view",
      "type": "function"
    },
    {
      "inputs": [
        {
          "internalType": "uint256",
          "name": "",
          "type": "uint256"
        }
      ],
      "name": "itemName",
      "outputs": [
        {
          "internalType": "string",
          "name": "",
          "type": "string"
        }
      ],
      "stateMutability": "view",
      "type": "function"
    },
    {
      "inputs": [],
      "name": "name",
      "outputs": [
        {
          "internalType": "string",
          "name": "",
          "type": "string"
        }
      ],
      "stateMutability": "view",
      "type": "function"
    },
    {
      "inputs": [],
      "name": "owner",
      "outputs": [
        {
          "internalType": "address",
          "name": "",
          "type": "address"
        }
      ],
      "stateMutability": "view",
      "type": "function"
    },
    {
      "inputs": [
        {
          "internalType": "uint256",
          "name": "tokenId",
          "type": "uint256"
        }
      ],
      "name": "ownerOf",
      "outputs": [
        {
          "internalType": "address",
          "name": "",
          "type": "address"
        }
      ],
      "stateMutability": "view",
      "type": "function"
    },
    {
      "inputs": [
        {
          "internalType": "address",
          "name": "from",
          "type": "address"
        },
        {
          "internalType": "address",
          "name": "to",
          "type": "address"
        },
        {
          "internalType": "uint256",
          "name": "tokenId",
          "type": "uint256"
        }
      ],
      "name": "safeTransferFrom",
      "outputs": [],
      "stateMutability": "nonpayable",
      "type": "function"
    },
    {
      "inputs": [
        {
          "internalType": "address",
          "name": "from",
          "type": "address"
        },
        {
          "internalType": "address",
          "name": "to",
          "type": "address"
        },
        {
          "internalType": "uint256",
          "name": "tokenId",
          "type": "uint256"
        },
        {
          "internalType": "bytes",
          "name": "data",
          "type": "bytes"
        }
      ],
      "name": "safeTransferFrom",
      "outputs": [],
      "stateMutability": "nonpayable",
      "type": "function"
    },
    {
      "inputs": [
        {
          "internalType": "address",
          "name": "operator",
          "type": "address"
        },
        {
          "internalType": "bool",
          "name": "approved",
          "type": "bool"
        }
      ],
      "name": "setApprovalForAll",
      "outputs": [],
      "stateMutability": "nonpayable",
      "type": "function"
    },
    {
      "inputs": [
        {
          "internalType": "bytes4",
          "name": "interfaceId",
          "type": "bytes4"
        }
      ],
      "name": "supportsInterface",
      "outputs": [
        {
          "internalType": "bool",
          "name": "",
          "type": "bool"
        }
      ],
      "stateMutability": "view",
      "type": "function"
    },
    {
      "inputs": [],
      "name": "symbol",
      "outputs": [
        {
          "internalType": "string",
          "name": "",
          "type": "string"
        }
      ],
      "stateMutability": "view",
      "type": "function"
    },
    {
      "inputs": [
        {
          "internalType": "uint256",
          "name": "index",
          "type": "uint256"
        }
      ],
      "name": "tokenByIndex",
      "outputs": [
        {
          "internalType": "uint256",
          "name": "",
          "type": "uint256"
        }
      ],
      "stateMutability": "view",
      "type": "function"
    },
    {
      "inputs": [
        {
          "internalType": "address",
          "name": "owner",
          "type": "address"
        },
        {
          "internalType": "uint256",
          "name": "index",
          "type": "uint256"
        }
      ],
      "name": "tokenOfOwnerByIndex",
      "outputs": [
        {
          "internalType": "uint256",
          "name": "",
          "type": "uint256"
        }
      ],
      "stateMutability": "view",
      "type": "function"
    },
    {
      "inputs": [
        {
          "internalType": "uint256",
          "name": "tokenId",
          "type": "uint256"
        }
      ],
      "name": "tokenURI",
      "outputs": [
        {
          "internalType": "string",
          "name": "",
          "type": "string"
        }
      ],
      "stateMutability": "view",
      "type": "function"
    },
    {
      "inputs": [],
      "name": "totalSupply",
      "outputs": [
        {
          "internalType": "uint256",
          "name": "",
          "type": "uint256"
        }
      ],
      "stateMutability": "view",
      "type": "function"
    },
    {
      "inputs": [
        {
          "internalType": "address",
          "name": "from",
          "type": "address"
        },
        {
          "internalType": "address",
          "name": "to",
          "type": "address"
        },
        {
          "internalType": "uint256",
          "name": "tokenId",
          "type": "uint256"
        }
      ],
      "name": "transferFrom",
      "outputs": [],
      "stateMutability": "nonpayable",
      "type": "function"
    },
    {
      "inputs": [
        {
          "internalType": "uint256",
          "name": "itemTokenId",
          "type": "uint256"
        },
        {
          "internalType": "uint256",
          "name": "jewelTokenId",
          "type": "uint256"
        }
      ],
      "name": "upgradeItemLevel",
      "outputs": [
        {
          "internalType": "bool",
          "name": "",
          "type": "bool"
        }
      ],
      "stateMutability": "nonpayable",
      "type": "function"
    },
    {
      "inputs": [
        {
          "internalType": "uint256",
          "name": "itemTokenId",
          "type": "uint256"
        },
        {
          "internalType": "uint256",
          "name": "jolTokenId",
          "type": "uint256"
        }
      ],
      "name": "updateItemAdditionalPoints",
      "outputs": [
        {
          "internalType": "bool",
          "name": "",
          "type": "bool"
        }
      ],
      "stateMutability": "nonpayable",
      "type": "function"
    },
    {
      "inputs": [
        {
          "internalType": "uint256",
          "name": "tokenId",
          "type": "uint256"
        }
      ],
      "name": "openBox",
      "outputs": [
        {
          "internalType": "uint256",
          "name": "",
          "type": "uint256"
        }
      ],
      "stateMutability": "nonpayable",
      "type": "function"
    },
    {
      "inputs": [
        {
          "internalType": "uint256",
          "name": "rarityLevel",
          "type": "uint256"
        },
        {
          "components": [
            {
              "internalType": "uint256",
              "name": "weaponsDropRate",
              "type": "uint256"
            },
            {
              "internalType": "uint256",
              "name": "armoursDropRate",
              "type": "uint256"
            },
            {
              "internalType": "uint256",
              "name": "jewelsDropRate",
              "type": "uint256"
            },
            {
              "internalType": "uint256",
              "name": "miscDropRate",
              "type": "uint256"
            },
            {
              "internalType": "uint256",
              "name": "boxDropRate",
              "type": "uint256"
            },
            {
              "internalType": "uint256",
              "name": "luckDropRate",
              "type": "uint256"
            },
            {
              "internalType": "uint256",
              "name": "skillDropRate",
              "type": "uint256"
            },
            {
              "internalType": "uint256",
              "name": "excDropRate",
              "type": "uint256"
            },
            {
              "internalType": "uint256",
              "name": "boxId",
              "type": "uint256"
            },
            {
              "internalType": "uint256",
              "name": "minItemLevel",
              "type": "uint256"
            },
            {
              "internalType": "uint256",
              "name": "maxItemLevel",
              "type": "uint256"
            },
            {
              "internalType": "uint256",
              "name": "maxAddPoints",
              "type": "uint256"
            }
          ],
          "internalType": "struct Items.DropParams",
          "name": "params",
          "type": "tuple"
        }
      ],
      "name": "setDropParams",
      "outputs": [],
      "stateMutability": "nonpayable",
      "type": "function"
    },
    {
      "inputs": [
        {
          "internalType": "uint256",
          "name": "rarityLevel",
          "type": "uint256"
        },
        {
          "components": [
            {
              "internalType": "uint256",
              "name": "weaponsDropRate",
              "type": "uint256"
            },
            {
              "internalType": "uint256",
              "name": "armoursDropRate",
              "type": "uint256"
            },
            {
              "internalType": "uint256",
              "name": "jewelsDropRate",
              "type": "uint256"
            },
            {
              "internalType": "uint256",
              "name": "miscDropRate",
              "type": "uint256"
            },
            {
              "internalType": "uint256",
              "name": "boxDropRate",
              "type": "uint256"
            },
            {
              "internalType": "uint256",
              "name": "luckDropRate",
              "type": "uint256"
            },
            {
              "internalType": "uint256",
              "name": "skillDropRate",
              "type": "uint256"
            },
            {
              "internalType": "uint256",
              "name": "excDropRate",
              "type": "uint256"
            },
            {
              "internalType": "uint256",
              "name": "boxId",
              "type": "uint256"
            },
            {
              "internalType": "uint256",
              "name": "minItemLevel",
              "type": "uint256"
            },
            {
              "internalType": "uint256",
              "name": "maxItemLevel",
              "type": "uint256"
            },
            {
              "internalType": "uint256",
              "name": "maxAddPoints",
              "type": "uint256"
            }
          ],
          "internalType": "struct Items.DropParams",
          "name": "params",
          "type": "tuple"
        }
      ],
      "name": "setBoxDropParams",
      "outputs": [],
      "stateMutability": "nonpayable",
      "type": "function"
    },
    {
      "inputs": [
        {
          "components": [
            {
              "internalType": "string",
              "name": "name",
              "type": "string"
            },
            {
              "internalType": "uint256",
              "name": "tokenId",
              "type": "uint256"
            },
            {
              "internalType": "uint256",
              "name": "itemLevel",
              "type": "uint256"
            },
            {
              "internalType": "uint256",
              "name": "maxLevel",
              "type": "uint256"
            },
            {
              "internalType": "uint256",
              "name": "durability",
              "type": "uint256"
            },
            {
              "internalType": "uint256",
              "name": "classRequired",
              "type": "uint256"
            },
            {
              "internalType": "uint256",
              "name": "strengthRequired",
              "type": "uint256"
            },
            {
              "internalType": "uint256",
              "name": "agilityRequired",
              "type": "uint256"
            },
            {
              "internalType": "uint256",
              "name": "energyRequired",
              "type": "uint256"
            },
            {
              "internalType": "uint256",
              "name": "vitalityRequired",
              "type": "uint256"
            },
            {
              "internalType": "uint256",
              "name": "itemWidth",
              "type": "uint256"
            },
            {
              "internalType": "uint256",
              "name": "itemHeight",
              "type": "uint256"
            },
            {
              "internalType": "uint256",
              "name": "acceptableSlot1",
              "type": "uint256"
            },
            {
              "internalType": "uint256",
              "name": "acceptableSlot2",
              "type": "uint256"
            },
            {
              "internalType": "uint256",
              "name": "physicalDamage",
              "type": "uint256"
            },
            {
              "internalType": "uint256",
              "name": "magicDamage",
              "type": "uint256"
            },
            {
              "internalType": "uint256",
              "name": "defense",
              "type": "uint256"
            },
            {
              "internalType": "uint256",
              "name": "attackSpeed",
              "type": "uint256"
            },
            {
              "internalType": "uint256",
              "name": "defenseSuccessRate",
              "type": "uint256"
            },
            {
              "internalType": "uint256",
              "name": "additionalDamage",
              "type": "uint256"
            },
            {
              "internalType": "uint256",
              "name": "additionalDefense",
              "type": "uint256"
            },
            {
              "internalType": "uint256",
              "name": "increasedExperienceGain",
              "type": "uint256"
            },
            {
              "internalType": "uint256",
              "name": "damageIncrease",
              "type": "uint256"
            },
            {
              "internalType": "uint256",
              "name": "defenseSuccessRateIncrease",
              "type": "uint256"
            },
            {
              "internalType": "uint256",
              "name": "lifeAfterMonsterIncrease",
              "type": "uint256"
            },
            {
              "internalType": "uint256",
              "name": "manaAfterMonsterIncrease",
              "type": "uint256"
            },
            {
              "internalType": "uint256",
              "name": "goldAfterMonsterIncrease",
              "type": "uint256"
            },
            {
              "internalType": "uint256",
              "name": "doubleDamageProbabilityIncrease",
              "type": "uint256"
            },
            {
              "internalType": "uint256",
              "name": "excellentDamageProbabilityIncrease",
              "type": "uint256"
            },
            {
              "internalType": "uint256",
              "name": "ignoreOpponentsDefenseRateIncrease",
              "type": "uint256"
            },
            {
              "internalType": "uint256",
              "name": "reflectDamage",
              "type": "uint256"
            },
            {
              "internalType": "uint256",
              "name": "maxLifeIncrease",
              "type": "uint256"
            },
            {
              "internalType": "uint256",
              "name": "maxManaIncrease",
              "type": "uint256"
            },
            {
              "internalType": "uint256",
              "name": "excellentDamageRateIncrease",
              "type": "uint256"
            },
            {
              "internalType": "uint256",
              "name": "doubleDamageRateIncrease",
              "type": "uint256"
            },
            {
              "internalType": "uint256",
              "name": "ignoreOpponentsDefenseSuccessRateIncrease",
              "type": "uint256"
            },
            {
              "internalType": "uint256",
              "name": "attackDamageIncrease",
              "type": "uint256"
            },
            {
              "internalType": "uint256",
              "name": "isAncient",
              "type": "uint256"
            },
            {
              "internalType": "uint256",
              "name": "reflectDamageRateIncrease",
              "type": "uint256"
            },
            {
              "internalType": "uint256",
              "name": "decreaseDamageRateIncrease",
              "type": "uint256"
            },
            {
              "internalType": "uint256",
              "name": "hpRecoveryRateIncrease",
              "type": "uint256"
            },
            {
              "internalType": "uint256",
              "name": "mpRecoveryRateIncrease",
              "type": "uint256"
            },
            {
              "internalType": "uint256",
              "name": "hpIncrease",
              "type": "uint256"
            },
            {
              "internalType": "uint256",
              "name": "mpIncrease",
              "type": "uint256"
            },
            {
              "internalType": "uint256",
              "name": "increaseDefenseRate",
              "type": "uint256"
            },
            {
              "internalType": "uint256",
              "name": "increaseStrength",
              "type": "uint256"
            },
            {
              "internalType": "uint256",
              "name": "increaseAgility",
              "type": "uint256"
            },
            {
              "internalType": "uint256",
              "name": "increaseEnergy",
              "type": "uint256"
            },
            {
              "internalType": "uint256",
              "name": "increaseVitality",
              "type": "uint256"
            },
            {
              "internalType": "uint256",
              "name": "attackSpeedIncrease",
              "type": "uint256"
            },
            {
              "internalType": "uint256",
              "name": "fighterId",
              "type": "uint256"
            },
            {
              "internalType": "uint256",
              "name": "lastUpdBlock",
              "type": "uint256"
            },
            {
              "internalType": "uint256",
              "name": "itemRarityLevel",
              "type": "uint256"
            },
            {
              "internalType": "uint256",
              "name": "itemAttributesId",
              "type": "uint256"
            },
            {
              "internalType": "bool",
              "name": "luck",
              "type": "bool"
            },
            {
              "internalType": "bool",
              "name": "skill",
              "type": "bool"
            },
            {
              "internalType": "bool",
              "name": "isBox",
              "type": "bool"
            },
            {
              "internalType": "bool",
              "name": "isWeapon",
              "type": "bool"
            },
            {
              "internalType": "bool",
              "name": "isArmour",
              "type": "bool"
            },
            {
              "internalType": "bool",
              "name": "isJewel",
              "type": "bool"
            },
            {
              "internalType": "bool",
              "name": "isMisc",
              "type": "bool"
            },
            {
              "internalType": "bool",
              "name": "isConsumable",
              "type": "bool"
            },
            {
              "internalType": "bool",
              "name": "inShop",
              "type": "bool"
            }
          ],
          "internalType": "struct Items.ItemAttributes",
          "name": "atts",
          "type": "tuple"
        }
      ],
      "name": "createItem",
      "outputs": [
        {
          "internalType": "uint256",
          "name": "tokenId",
          "type": "uint256"
        }
      ],
      "stateMutability": "nonpayable",
      "type": "function"
    },
    {
      "inputs": [
        {
          "internalType": "uint256",
          "name": "rarityLevel",
          "type": "uint256"
        }
      ],
      "name": "dropItem",
      "outputs": [
        {
          "internalType": "uint256",
          "name": "",
          "type": "uint256"
        }
      ],
      "stateMutability": "nonpayable",
      "type": "function"
    },
    {
      "inputs": [
        {
          "internalType": "uint256",
          "name": "rarityLevel",
          "type": "uint256"
        }
      ],
      "name": "getWeaponsLength",
      "outputs": [
        {
          "internalType": "uint256",
          "name": "",
          "type": "uint256"
        }
      ],
      "stateMutability": "view",
      "type": "function"
    },
    {
      "inputs": [
        {
          "internalType": "uint256",
          "name": "rarityLevel",
          "type": "uint256"
        }
      ],
      "name": "getArmoursLength",
      "outputs": [
        {
          "internalType": "uint256",
          "name": "",
          "type": "uint256"
        }
      ],
      "stateMutability": "view",
      "type": "function"
    },
    {
      "inputs": [
        {
          "internalType": "uint256",
          "name": "rarityLevel",
          "type": "uint256"
        }
      ],
      "name": "getJewelsLength",
      "outputs": [
        {
          "internalType": "uint256",
          "name": "",
          "type": "uint256"
        }
      ],
      "stateMutability": "view",
      "type": "function"
    },
    {
      "inputs": [
        {
          "internalType": "uint256",
          "name": "rarityLevel",
          "type": "uint256"
        }
      ],
      "name": "getMiscsLength",
      "outputs": [
        {
          "internalType": "uint256",
          "name": "",
          "type": "uint256"
        }
      ],
      "stateMutability": "view",
      "type": "function"
    },
    {
      "inputs": [
        {
          "internalType": "uint256",
          "name": "itemId",
          "type": "uint256"
        },
        {
          "internalType": "uint256",
          "name": "fighterId",
          "type": "uint256"
        }
      ],
      "name": "buyItemFromShop",
      "outputs": [],
      "stateMutability": "nonpayable",
      "type": "function"
    },
    {
      "inputs": [
        {
          "internalType": "uint256",
          "name": "tokenId",
          "type": "uint256"
        }
      ],
      "name": "getTokenAttributes",
      "outputs": [
        {
          "components": [
            {
              "internalType": "string",
              "name": "name",
              "type": "string"
            },
            {
              "internalType": "uint256",
              "name": "tokenId",
              "type": "uint256"
            },
            {
              "internalType": "uint256",
              "name": "itemLevel",
              "type": "uint256"
            },
            {
              "internalType": "uint256",
              "name": "maxLevel",
              "type": "uint256"
            },
            {
              "internalType": "uint256",
              "name": "durability",
              "type": "uint256"
            },
            {
              "internalType": "uint256",
              "name": "classRequired",
              "type": "uint256"
            },
            {
              "internalType": "uint256",
              "name": "strengthRequired",
              "type": "uint256"
            },
            {
              "internalType": "uint256",
              "name": "agilityRequired",
              "type": "uint256"
            },
            {
              "internalType": "uint256",
              "name": "energyRequired",
              "type": "uint256"
            },
            {
              "internalType": "uint256",
              "name": "vitalityRequired",
              "type": "uint256"
            },
            {
              "internalType": "uint256",
              "name": "itemWidth",
              "type": "uint256"
            },
            {
              "internalType": "uint256",
              "name": "itemHeight",
              "type": "uint256"
            },
            {
              "internalType": "uint256",
              "name": "acceptableSlot1",
              "type": "uint256"
            },
            {
              "internalType": "uint256",
              "name": "acceptableSlot2",
              "type": "uint256"
            },
            {
              "internalType": "uint256",
              "name": "physicalDamage",
              "type": "uint256"
            },
            {
              "internalType": "uint256",
              "name": "magicDamage",
              "type": "uint256"
            },
            {
              "internalType": "uint256",
              "name": "defense",
              "type": "uint256"
            },
            {
              "internalType": "uint256",
              "name": "attackSpeed",
              "type": "uint256"
            },
            {
              "internalType": "uint256",
              "name": "defenseSuccessRate",
              "type": "uint256"
            },
            {
              "internalType": "uint256",
              "name": "additionalDamage",
              "type": "uint256"
            },
            {
              "internalType": "uint256",
              "name": "additionalDefense",
              "type": "uint256"
            },
            {
              "internalType": "uint256",
              "name": "increasedExperienceGain",
              "type": "uint256"
            },
            {
              "internalType": "uint256",
              "name": "damageIncrease",
              "type": "uint256"
            },
            {
              "internalType": "uint256",
              "name": "defenseSuccessRateIncrease",
              "type": "uint256"
            },
            {
              "internalType": "uint256",
              "name": "lifeAfterMonsterIncrease",
              "type": "uint256"
            },
            {
              "internalType": "uint256",
              "name": "manaAfterMonsterIncrease",
              "type": "uint256"
            },
            {
              "internalType": "uint256",
              "name": "goldAfterMonsterIncrease",
              "type": "uint256"
            },
            {
              "internalType": "uint256",
              "name": "doubleDamageProbabilityIncrease",
              "type": "uint256"
            },
            {
              "internalType": "uint256",
              "name": "excellentDamageProbabilityIncrease",
              "type": "uint256"
            },
            {
              "internalType": "uint256",
              "name": "ignoreOpponentsDefenseRateIncrease",
              "type": "uint256"
            },
            {
              "internalType": "uint256",
              "name": "reflectDamage",
              "type": "uint256"
            },
            {
              "internalType": "uint256",
              "name": "maxLifeIncrease",
              "type": "uint256"
            },
            {
              "internalType": "uint256",
              "name": "maxManaIncrease",
              "type": "uint256"
            },
            {
              "internalType": "uint256",
              "name": "excellentDamageRateIncrease",
              "type": "uint256"
            },
            {
              "internalType": "uint256",
              "name": "doubleDamageRateIncrease",
              "type": "uint256"
            },
            {
              "internalType": "uint256",
              "name": "ignoreOpponentsDefenseSuccessRateIncrease",
              "type": "uint256"
            },
            {
              "internalType": "uint256",
              "name": "attackDamageIncrease",
              "type": "uint256"
            },
            {
              "internalType": "uint256",
              "name": "isAncient",
              "type": "uint256"
            },
            {
              "internalType": "uint256",
              "name": "reflectDamageRateIncrease",
              "type": "uint256"
            },
            {
              "internalType": "uint256",
              "name": "decreaseDamageRateIncrease",
              "type": "uint256"
            },
            {
              "internalType": "uint256",
              "name": "hpRecoveryRateIncrease",
              "type": "uint256"
            },
            {
              "internalType": "uint256",
              "name": "mpRecoveryRateIncrease",
              "type": "uint256"
            },
            {
              "internalType": "uint256",
              "name": "hpIncrease",
              "type": "uint256"
            },
            {
              "internalType": "uint256",
              "name": "mpIncrease",
              "type": "uint256"
            },
            {
              "internalType": "uint256",
              "name": "increaseDefenseRate",
              "type": "uint256"
            },
            {
              "internalType": "uint256",
              "name": "increaseStrength",
              "type": "uint256"
            },
            {
              "internalType": "uint256",
              "name": "increaseAgility",
              "type": "uint256"
            },
            {
              "internalType": "uint256",
              "name": "increaseEnergy",
              "type": "uint256"
            },
            {
              "internalType": "uint256",
              "name": "increaseVitality",
              "type": "uint256"
            },
            {
              "internalType": "uint256",
              "name": "attackSpeedIncrease",
              "type": "uint256"
            },
            {
              "internalType": "uint256",
              "name": "fighterId",
              "type": "uint256"
            },
            {
              "internalType": "uint256",
              "name": "lastUpdBlock",
              "type": "uint256"
            },
            {
              "internalType": "uint256",
              "name": "itemRarityLevel",
              "type": "uint256"
            },
            {
              "internalType": "uint256",
              "name": "itemAttributesId",
              "type": "uint256"
            },
            {
              "internalType": "bool",
              "name": "luck",
              "type": "bool"
            },
            {
              "internalType": "bool",
              "name": "skill",
              "type": "bool"
            },
            {
              "internalType": "bool",
              "name": "isBox",
              "type": "bool"
            },
            {
              "internalType": "bool",
              "name": "isWeapon",
              "type": "bool"
            },
            {
              "internalType": "bool",
              "name": "isArmour",
              "type": "bool"
            },
            {
              "internalType": "bool",
              "name": "isJewel",
              "type": "bool"
            },
            {
              "internalType": "bool",
              "name": "isMisc",
              "type": "bool"
            },
            {
              "internalType": "bool",
              "name": "isConsumable",
              "type": "bool"
            },
            {
              "internalType": "bool",
              "name": "inShop",
              "type": "bool"
            }
          ],
          "internalType": "struct Items.ItemAttributes",
          "name": "",
          "type": "tuple"
        }
      ],
      "stateMutability": "view",
      "type": "function"
    },
    {
      "inputs": [
        {
          "internalType": "uint256",
          "name": "itemId",
          "type": "uint256"
        }
      ],
      "name": "getItemAttributes",
      "outputs": [
        {
          "components": [
            {
              "internalType": "string",
              "name": "name",
              "type": "string"
            },
            {
              "internalType": "uint256",
              "name": "tokenId",
              "type": "uint256"
            },
            {
              "internalType": "uint256",
              "name": "itemLevel",
              "type": "uint256"
            },
            {
              "internalType": "uint256",
              "name": "maxLevel",
              "type": "uint256"
            },
            {
              "internalType": "uint256",
              "name": "durability",
              "type": "uint256"
            },
            {
              "internalType": "uint256",
              "name": "classRequired",
              "type": "uint256"
            },
            {
              "internalType": "uint256",
              "name": "strengthRequired",
              "type": "uint256"
            },
            {
              "internalType": "uint256",
              "name": "agilityRequired",
              "type": "uint256"
            },
            {
              "internalType": "uint256",
              "name": "energyRequired",
              "type": "uint256"
            },
            {
              "internalType": "uint256",
              "name": "vitalityRequired",
              "type": "uint256"
            },
            {
              "internalType": "uint256",
              "name": "itemWidth",
              "type": "uint256"
            },
            {
              "internalType": "uint256",
              "name": "itemHeight",
              "type": "uint256"
            },
            {
              "internalType": "uint256",
              "name": "acceptableSlot1",
              "type": "uint256"
            },
            {
              "internalType": "uint256",
              "name": "acceptableSlot2",
              "type": "uint256"
            },
            {
              "internalType": "uint256",
              "name": "physicalDamage",
              "type": "uint256"
            },
            {
              "internalType": "uint256",
              "name": "magicDamage",
              "type": "uint256"
            },
            {
              "internalType": "uint256",
              "name": "defense",
              "type": "uint256"
            },
            {
              "internalType": "uint256",
              "name": "attackSpeed",
              "type": "uint256"
            },
            {
              "internalType": "uint256",
              "name": "defenseSuccessRate",
              "type": "uint256"
            },
            {
              "internalType": "uint256",
              "name": "additionalDamage",
              "type": "uint256"
            },
            {
              "internalType": "uint256",
              "name": "additionalDefense",
              "type": "uint256"
            },
            {
              "internalType": "uint256",
              "name": "increasedExperienceGain",
              "type": "uint256"
            },
            {
              "internalType": "uint256",
              "name": "damageIncrease",
              "type": "uint256"
            },
            {
              "internalType": "uint256",
              "name": "defenseSuccessRateIncrease",
              "type": "uint256"
            },
            {
              "internalType": "uint256",
              "name": "lifeAfterMonsterIncrease",
              "type": "uint256"
            },
            {
              "internalType": "uint256",
              "name": "manaAfterMonsterIncrease",
              "type": "uint256"
            },
            {
              "internalType": "uint256",
              "name": "goldAfterMonsterIncrease",
              "type": "uint256"
            },
            {
              "internalType": "uint256",
              "name": "doubleDamageProbabilityIncrease",
              "type": "uint256"
            },
            {
              "internalType": "uint256",
              "name": "excellentDamageProbabilityIncrease",
              "type": "uint256"
            },
            {
              "internalType": "uint256",
              "name": "ignoreOpponentsDefenseRateIncrease",
              "type": "uint256"
            },
            {
              "internalType": "uint256",
              "name": "reflectDamage",
              "type": "uint256"
            },
            {
              "internalType": "uint256",
              "name": "maxLifeIncrease",
              "type": "uint256"
            },
            {
              "internalType": "uint256",
              "name": "maxManaIncrease",
              "type": "uint256"
            },
            {
              "internalType": "uint256",
              "name": "excellentDamageRateIncrease",
              "type": "uint256"
            },
            {
              "internalType": "uint256",
              "name": "doubleDamageRateIncrease",
              "type": "uint256"
            },
            {
              "internalType": "uint256",
              "name": "ignoreOpponentsDefenseSuccessRateIncrease",
              "type": "uint256"
            },
            {
              "internalType": "uint256",
              "name": "attackDamageIncrease",
              "type": "uint256"
            },
            {
              "internalType": "uint256",
              "name": "isAncient",
              "type": "uint256"
            },
            {
              "internalType": "uint256",
              "name": "reflectDamageRateIncrease",
              "type": "uint256"
            },
            {
              "internalType": "uint256",
              "name": "decreaseDamageRateIncrease",
              "type": "uint256"
            },
            {
              "internalType": "uint256",
              "name": "hpRecoveryRateIncrease",
              "type": "uint256"
            },
            {
              "internalType": "uint256",
              "name": "mpRecoveryRateIncrease",
              "type": "uint256"
            },
            {
              "internalType": "uint256",
              "name": "hpIncrease",
              "type": "uint256"
            },
            {
              "internalType": "uint256",
              "name": "mpIncrease",
              "type": "uint256"
            },
            {
              "internalType": "uint256",
              "name": "increaseDefenseRate",
              "type": "uint256"
            },
            {
              "internalType": "uint256",
              "name": "increaseStrength",
              "type": "uint256"
            },
            {
              "internalType": "uint256",
              "name": "increaseAgility",
              "type": "uint256"
            },
            {
              "internalType": "uint256",
              "name": "increaseEnergy",
              "type": "uint256"
            },
            {
              "internalType": "uint256",
              "name": "increaseVitality",
              "type": "uint256"
            },
            {
              "internalType": "uint256",
              "name": "attackSpeedIncrease",
              "type": "uint256"
            },
            {
              "internalType": "uint256",
              "name": "fighterId",
              "type": "uint256"
            },
            {
              "internalType": "uint256",
              "name": "lastUpdBlock",
              "type": "uint256"
            },
            {
              "internalType": "uint256",
              "name": "itemRarityLevel",
              "type": "uint256"
            },
            {
              "internalType": "uint256",
              "name": "itemAttributesId",
              "type": "uint256"
            },
            {
              "internalType": "bool",
              "name": "luck",
              "type": "bool"
            },
            {
              "internalType": "bool",
              "name": "skill",
              "type": "bool"
            },
            {
              "internalType": "bool",
              "name": "isBox",
              "type": "bool"
            },
            {
              "internalType": "bool",
              "name": "isWeapon",
              "type": "bool"
            },
            {
              "internalType": "bool",
              "name": "isArmour",
              "type": "bool"
            },
            {
              "internalType": "bool",
              "name": "isJewel",
              "type": "bool"
            },
            {
              "internalType": "bool",
              "name": "isMisc",
              "type": "bool"
            },
            {
              "internalType": "bool",
              "name": "isConsumable",
              "type": "bool"
            },
            {
              "internalType": "bool",
              "name": "inShop",
              "type": "bool"
            }
          ],
          "internalType": "struct Items.ItemAttributes",
          "name": "",
          "type": "tuple"
        }
      ],
      "stateMutability": "view",
      "type": "function"
    },
    {
      "inputs": [
        {
          "internalType": "address",
          "name": "userAddress",
          "type": "address"
        }
      ],
      "name": "getUserItems",
      "outputs": [
        {
          "internalType": "uint256[]",
          "name": "",
          "type": "uint256[]"
        }
      ],
      "stateMutability": "view",
      "type": "function"
    },
    {
      "inputs": [
        {
          "internalType": "address",
          "name": "userAddress",
          "type": "address"
        },
        {
          "internalType": "uint256",
          "name": "fighterId",
          "type": "uint256"
        }
      ],
      "name": "getFighterItems",
      "outputs": [
        {
          "internalType": "uint256[2][]",
          "name": "",
          "type": "uint256[2][]"
        }
      ],
      "stateMutability": "view",
      "type": "function"
    },
    {
      "inputs": [
        {
          "internalType": "uint256",
          "name": "a",
          "type": "uint256"
        },
        {
          "internalType": "uint256",
          "name": "b",
          "type": "uint256"
        }
      ],
      "name": "safeMul",
      "outputs": [
        {
          "internalType": "uint256",
          "name": "",
          "type": "uint256"
        }
      ],
      "stateMutability": "nonpayable",
      "type": "function"
    },
    {
      "inputs": [
        {
          "internalType": "uint256",
          "name": "a",
          "type": "uint256"
        },
        {
          "internalType": "uint256",
          "name": "b",
          "type": "uint256"
        }
      ],
      "name": "safeSub",
      "outputs": [
        {
          "internalType": "uint256",
          "name": "",
          "type": "uint256"
        }
      ],
      "stateMutability": "nonpayable",
      "type": "function"
    },
    {
      "inputs": [
        {
          "internalType": "uint256",
          "name": "a",
          "type": "uint256"
        },
        {
          "internalType": "uint256",
          "name": "b",
          "type": "uint256"
        }
      ],
      "name": "safeAdd",
      "outputs": [
        {
          "internalType": "uint256",
          "name": "",
          "type": "uint256"
        }
      ],
      "stateMutability": "nonpayable",
      "type": "function"
    }
  ],
  "bytecode": "0x601c600b8190556019600c8190556032600d556023608081905260a0819052600a60c081905260e0819052610100819052600f610120819052601583905560168390556017829055601882905592819055601a9290925561026060405261014082905260146101608190526101808390526101a08390526101c08390526101e0839052610200839052610220839052601e610240819052601b8490559355601d829055818355601f8290556020829055602182905560229190915555348015620000c857600080fd5b5060405180604001604052806007815260200166436f6d6261747360c81b815250604051806040016040528060048152602001634974656d60e01b8152508160009081620001179190620001e6565b506001620001268282620001e6565b5050600a80546001600160a01b0319163317905550620002b2565b634e487b7160e01b600052604160045260246000fd5b600181811c908216806200016c57607f821691505b6020821081036200018d57634e487b7160e01b600052602260045260246000fd5b50919050565b601f821115620001e157600081815260208120601f850160051c81016020861015620001bc5750805b601f850160051c820191505b81811015620001dd57828155600101620001c8565b5050505b505050565b81516001600160401b0381111562000202576200020262000141565b6200021a8162000213845462000157565b8462000193565b602080601f831160018114620002525760008415620002395750858301515b600019600386901b1c1916600185901b178555620001dd565b600085815260208120601f198616915b82811015620002835788860151825594840194600190910190840162000262565b5085821015620002a25787850151600019600388901b60f8161c191681555b5050505050600190811b01905550565b61679e80620002c26000396000f3fe608060405234801561001057600080fd5b50600436106102695760003560e01c80636352211e11610151578063b1e5e2b7116100c3578063ce6019b411610087578063ce6019b414610658578063d05c78da14610678578063d0660b371461068b578063e6cb9013146106f9578063e985e9c51461070c578063f4d106541461074857600080fd5b8063b1e5e2b714610545578063b88d4fde14610558578063c29a3c931461056b578063c6d6f6b11461057e578063c87b56dd1461064557600080fd5b80637f46914f116101155780637f46914f146104de5780638da5cb5b146104f157806395d89b41146105045780639e62b16a1461050c578063a22cb4651461051f578063a293d1e81461053257600080fd5b80636352211e1461047f5780636995795b1461049257806370a08231146104a55780637310dc8a146104b857806373f8f121146104cb57600080fd5b80632f745c59116101ea5780634f6ccce7116101ae5780634f6ccce7146103f3578063513c14521461040657806356f3d52f146104265780635fb83cfa1461044657806361e342f914610459578063635034471461046c57600080fd5b80632f745c591461037a5780633996b7761461038d5780633daf81e0146103ad57806342842e0e146103cd5780634d772a38146103e057600080fd5b8063095ea7b311610231578063095ea7b3146103175780631244c8321461032c57806318160ddd1461033f5780631f4f5a231461034757806323b872dd1461036757600080fd5b806301ffc9a71461026e5780630278ee4f1461029657806303d2e4a1146102c457806306fdde03146102d7578063081812fc146102ec575b600080fd5b61028161027c3660046156e0565b61075b565b60405190151581526020015b60405180910390f35b6102b66102a43660046156fd565b60009081526011602052604090205490565b60405190815260200161028d565b6102b66102d2366004615716565b610786565b6102df6107b7565b60405161028d9190615788565b6102ff6102fa3660046156fd565b610849565b6040516001600160a01b03909116815260200161028d565b61032a6103253660046157b7565b610870565b005b61032a61033a366004615845565b61098a565b6008546102b6565b61035a6103553660046156fd565b610a4d565b60405161028d9190615905565b61032a610375366004615c8c565b610e3f565b6102b66103883660046157b7565b610e70565b6102b661039b3660046156fd565b6000908152600f602052604090205490565b6102b66103bb3660046156fd565b60009081526012602052604090205490565b61032a6103db366004615c8c565b610f06565b6102b66103ee366004615d6e565b610f21565b6102b66104013660046156fd565b611405565b6104196104143660046157b7565b611498565b60405161028d91906160d2565b6102b66104343660046156fd565b60009081526010602052604090205490565b610281610454366004615716565b6115a6565b61032a610467366004615845565b611ed0565b6102b661047a366004615716565b611f87565b6102ff61048d3660046156fd565b611fa3565b61035a6104a03660046156fd565b612003565b6102b66104b336600461613b565b61208f565b6102df6104c63660046156fd565b612115565b6102b66104d93660046156fd565b6121af565b61032a6104ec366004615716565b612342565b600a546102ff906001600160a01b031681565b6102df6127fa565b61028161051a366004615716565b612809565b61032a61052d366004616156565b6131fd565b6102b6610540366004615716565b61320c565b6102b66105533660046156fd565b61322f565b61032a610566366004616189565b613739565b6102b6610579366004615716565b613771565b6105ec61058c3660046156fd565b601360205280600052604060002060009150905080600001549080600101549080600201549080600301549080600401549080600501549080600601549080600701549080600801549080600901549080600a01549080600b015490508c565b604080519c8d5260208d019b909b52998b019890985260608a0196909652608089019490945260a088019290925260c087015260e08601526101008501526101208401526101408301526101608201526101800161028d565b6102df6106533660046156fd565b61378d565b61066b61066636600461613b565b613800565b60405161028d9190616205565b6102b6610686366004615716565b6138a2565b6105ec6106993660046156fd565b601460205280600052604060002060009150905080600001549080600101549080600201549080600301549080600401549080600501549080600601549080600701549080600801549080600901549080600a01549080600b015490508c565b6102b6610707366004615716565b6138d2565b61028161071a366004616249565b6001600160a01b03918216600090815260056020908152604080832093909416825291909152205460ff1690565b6102b6610756366004615716565b6138fc565b60006001600160e01b0319821663780e9d6360e01b1480610780575061078082613918565b92915050565b601160205281600052604060002081815481106107a257600080fd5b90600052602060002001600091509150505481565b6060600080546107c690616273565b80601f01602080910402602001604051908101604052809291908181526020018280546107f290616273565b801561083f5780601f106108145761010080835404028352916020019161083f565b820191906000526020600020905b81548152906001019060200180831161082257829003601f168201915b5050505050905090565b600061085482613968565b506000908152600460205260409020546001600160a01b031690565b600061087b82611fa3565b9050806001600160a01b0316836001600160a01b0316036108ed5760405162461bcd60e51b815260206004820152602160248201527f4552433732313a20617070726f76616c20746f2063757272656e74206f776e656044820152603960f91b60648201526084015b60405180910390fd5b336001600160a01b03821614806109095750610909813361071a565b61097b5760405162461bcd60e51b815260206004820152603d60248201527f4552433732313a20617070726f76652063616c6c6572206973206e6f7420746f60448201527f6b656e206f776e6572206f7220617070726f76656420666f7220616c6c00000060648201526084016108e4565b61098583836139ca565b505050565b60008281526013602090815260409182902083518155908301516001820155818301516002820155606083015160038201556080830151600482015560a0830151600582015560c0830151600682015560e0830151600782015561010083015160088201556101208301516009820155610140830151600a820155610160830151600b90910155517fd05cb0b1ee013b57e2a20442939e099ab9c998031b440bb6a75a42c4d9540f4490610a4190849084906162ad565b60405180910390a15050565b610a556154d4565b6000828152600260205260409020546001600160a01b0316610ab05760405162461bcd60e51b8152602060048201526014602482015273151bdad95b88191bd95cc81b9bdd08195e1a5cdd60621b60448201526064016108e4565b6000828152602460205260409081902081516107e08101909252805482908290610ad990616273565b80601f0160208091040260200160405190810160405280929190818152602001828054610b0590616273565b8015610b525780601f10610b2757610100808354040283529160200191610b52565b820191906000526020600020905b815481529060010190602001808311610b3557829003601f168201915b50505091835250506001820154602080830191909152600283015460408301526003830154606083015260048301546080830152600583015460a0830152600683015460c0830152600783015460e08301526008830154610100808401919091526009840154610120840152600a840154610140840152600b840154610160840152600c840154610180840152600d8401546101a0840152600e8401546101c0840152600f8401546101e08401526010840154610200840152601184015461022084015260128401546102408401526013840154610260840152601484015461028084015260158401546102a084015260168401546102c084015260178401546102e084015260188401546103008401526019840154610320840152601a840154610340840152601b840154610360840152601c840154610380840152601d8401546103a0840152601e8401546103c0840152601f8401546103e084015290830154610400830152602183015461042083015260228301546104408301526023830154610460830152602483015461048083015260258301546104a083015260268301546104c083015260278301546104e083015260288301546105008301526029830154610520830152602a830154610540830152602b830154610560830152602c830154610580830152602d8301546105a0830152602e8301546105c0830152602f8301546105e08301526030830154610600830152603183015461062083015260328301546106408301526033830154610660830152603483015461068083015260358301546106a083015260369092015460ff80821615156106c0840152928104831615156106e0830152620100008104831615156107008301526301000000810483161515610720830152600160201b810483161515610740830152600160281b810483161515610760830152600160301b810483161515610780830152600160381b8104831615156107a0830152600160401b900490911615156107c09091015292915050565b610e493382613a38565b610e655760405162461bcd60e51b81526004016108e490616349565b610985838383613ab7565b6000610e7b8361208f565b8210610edd5760405162461bcd60e51b815260206004820152602b60248201527f455243373231456e756d657261626c653a206f776e657220696e646578206f7560448201526a74206f6620626f756e647360a81b60648201526084016108e4565b506001600160a01b03919091166000908152600660209081526040808320938352929052205490565b61098583838360405180602001604052806000815250613739565b602580546001810182556000918252825183916037027f401968ff42a154441da5f6c4c935ac46b8671f0e062baaa62a7545ba53bb6e4c01908190610f6690826163e4565b5060208281015160018381019190915560408401516002840155606084015160038401556080840151600484015560a0840151600584015560c0840151600684015560e084015160078401556101008085015160088501556101208501516009850155610140850151600a850155610160850151600b850155610180850151600c8501556101a0850151600d8501556101c0850151600e8501556101e0850151600f850155610200850151601085015561022085015160118501556102408501516012850155610260850151601385015561028085015160148501556102a085015160158501556102c085015160168501556102e0850151601785015561030085015160188501556103208501516019850155610340850151601a850155610360850151601b850155610380850151601c8501556103a0850151601d8501556103c0850151601e8501556103e0850151601f8501556104008501519284019290925561042084015160218401556104408401516022840155610460840151602384015561048084015160248401556104a08401516025808501919091556104c085015160268501556104e0850151602785015561050085015160288501556105208501516029850155610540850151602a850155610560850151602b850155610580850151602c8501556105a0850151602d8501556105c0850151602e8501556105e0850151602f850155610600850151603085015561062085015160318501556106408501516032850155610660850151603385015561068085015160348501556106a085015160358501556106c0850151603690940180546106e08701516107008801516107208901516107408a01516107608b01516107808c01516107a08d01516107c0909d015161ffff199097169b151561ff0019169b909b179415159099029390931763ffff00001916620100009215159290920263ff0000001916919091176301000000911515919091021765ffff000000001916600160201b9115159190910265ff0000000000191617600160281b951515959095029490941767ffff0000000000001916600160301b9515159590950260ff60381b191694909417600160381b951515959095029490941760ff60401b1916600160401b921515929092029190911790915590546000916112c1916164ba565b905080602582815481106112d7576112d76164cd565b90600052602060002090603702016035018190555082610720015115611323576106808301516000908152600f60209081526040822080546001810182559083529120018190556113c4565b8261074001511561135a576106808301516000908152601060209081526040822080546001810182559083529120018190556113c4565b82610760015115611391576106808301516000908152601160209081526040822080546001810182559083529120018190556113c4565b826107800151156113c4576106808301516000908152601260209081526040822080546001810182559083529120018190555b82516040517f0538ce8dba67be446d1a480a6e48683b27c6efb61d7c01d60767e15705e5d00f916113f7918491906164e3565b60405180910390a192915050565b600061141060085490565b82106114735760405162461bcd60e51b815260206004820152602c60248201527f455243373231456e756d657261626c653a20676c6f62616c20696e646578206f60448201526b7574206f6620626f756e647360a01b60648201526084016108e4565b60088281548110611486576114866164cd565b90600052602060002001549050919050565b606060006114a58461208f565b905060008167ffffffffffffffff8111156114c2576114c26157e1565b6040519080825280602002602001820160405280156114fb57816020015b6114e86156ac565b8152602001906001900390816114e05790505b509050600080805b8481101561159a576115158882610e70565b60008181526024602052604090206032015490935087900361157a576040518060400160405280848152602001602460008681526020019081526020016000206033015481525084838151811061156e5761156e6164cd565b60200260200101819052505b81611584816164fc565b9250508080611592906164fc565b915050611503565b50919695505050505050565b60008281526024602052604080822081516107e08101909252805483929190829082906115d290616273565b80601f01602080910402602001604051908101604052809291908181526020018280546115fe90616273565b801561164b5780601f106116205761010080835404028352916020019161164b565b820191906000526020600020905b81548152906001019060200180831161162e57829003601f168201915b5050509183525050600182015460208083019190915260028301546040808401919091526003840154606084015260048401546080840152600584015460a0840152600684015460c0840152600784015460e08401526008840154610100808501919091526009850154610120850152600a850154610140850152600b850154610160850152600c850154610180850152600d8501546101a0850152600e8501546101c0850152600f8501546101e08501526010850154610200850152601185015461022085015260128501546102408501526013850154610260850152601485015461028085015260158501546102a085015260168501546102c085015260178501546102e085015260188501546103008501526019850154610320850152601a850154610340850152601b850154610360850152601c850154610380850152601d8501546103a0850152601e8501546103c0850152601f8501546103e08501528483015461040085015260218501546104208501526022850154610440850152602385015461046085015260248086015461048086015260258601546104a086015260268601546104c086015260278601546104e086015260288601546105008601526029860154610520860152602a860154610540860152602b860154610560860152602c860154610580860152602d8601546105a0860152602e8601546105c0860152602f8601546105e08601526030860154610600860152603186015461062086015260328601546106408601526033860154610660860152603486015461068086015260358601546106a086015260369095015460ff80821615156106c0870152918104821615156106e0860152620100008104821615156107008601526301000000810482161515610720860152600160201b810482161515610740860152600160281b810482161515610760860152600160301b810482161515610780860152600160381b8104821615156107a0860152600160401b90041615156107c090930192909252600087815292905280822081516107e08101909252805493945091929091908290829061196490616273565b80601f016020809104026020016040519081016040528092919081815260200182805461199090616273565b80156119dd5780601f106119b2576101008083540402835291602001916119dd565b820191906000526020600020905b8154815290600101906020018083116119c057829003601f168201915b50505091835250506001820154602080830191909152600283015460408301526003830154606083015260048301546080830152600583015460a0830152600683015460c0830152600783015460e08301526008830154610100808401919091526009840154610120840152600a840154610140840152600b840154610160840152600c840154610180840152600d8401546101a0840152600e8401546101c0840152600f8401546101e08401526010840154610200840152601184015461022084015260128401546102408401526013840154610260840152601484015461028084015260158401546102a084015260168401546102c084015260178401546102e084015260188401546103008401526019840154610320840152601a840154610340840152601b840154610360840152601c840154610380840152601d8401546103a0840152601e8401546103c0840152601f8401546103e084015290830154610400830152602183015461042083015260228301546104408301526023830154610460830152602483015461048083015260258301546104a083015260268301546104c083015260278301546104e083015260288301546105008301526029830154610520830152602a830154610540830152602b830154610560830152602c830154610580830152602d8301546105a0830152602e8301546105c0830152602f8301546105e08301526030830154610600830152603183015461062083015260328301546106408301526033830154610660830152603483015461068083015260358301546106a083015260369092015460ff80821615156106c080850191909152938204811615156106e0840152620100008204811615156107008401526301000000820481161515610720840152600160201b820481161515610740840152600160281b820481161515610760840152600160301b820481161515610780840152600160381b8204811615156107a0840152600160401b9091041615156107c090910152830151909150600090819015611cdc57601991505b83610720015180611cef57508361074001515b611d2a5760405162461bcd60e51b815260206004820152600c60248201526b496e76616c6964206974656d60a01b60448201526064016108e4565b600b54846102600151108015611d465750600b54846102800151105b611d925760405162461bcd60e51b815260206004820152601d60248201527f4d6178206164646974696f6e616c20706f696e7473207265616368656400000060448201526064016108e4565b826106a00151600414611dd75760405162461bcd60e51b815260206004820152600d60248201526c125b9d985b1a59081a995dd95b609a1b60448201526064016108e4565b83610720015115611e4a5781600c54611df09190616515565b611dfa601e613c28565b1015611e3757600087815260246020526040902060130154611e1d906004616515565b600088815260246020526040902060130155506001611e4a565b6000878152602460205260408120601301555b83610740015115611ebd5781600c54611e639190616515565b611e6d601e613c28565b1015611eaa57600087815260246020526040902060140154611e90906004616515565b600088815260246020526040902060140155506001611ebd565b6000878152602460205260408120601401555b611ec686613c6b565b9695505050505050565b60008281526014602090815260409182902083518155908301516001820155818301516002820155606083015160038201556080830151600482015560a0830151600582015560c0830151600682015560e0830151600782015561010083015160088201556101208301516009820155610140830151600a820155610160830151600b90910155517f94628567c808ee3f5daf24304db21a1cf2ba4e9a904ec7223e786dc27a31969490610a4190849084906162ad565b601060205281600052604060002081815481106107a257600080fd5b6000818152600260205260408120546001600160a01b0316806107805760405162461bcd60e51b8152602060048201526018602482015277115490cdcc8c4e881a5b9d985b1a59081d1bdad95b88125160421b60448201526064016108e4565b61200b6154d4565b60255482106120525760405162461bcd60e51b8152602060048201526013602482015272125d195b48191bd95cc81b9bdd08195e1a5cdd606a1b60448201526064016108e4565b60258281548110612065576120656164cd565b9060005260206000209060370201604051806107e0016040529081600082018054610ad990616273565b60006001600160a01b0382166120f95760405162461bcd60e51b815260206004820152602960248201527f4552433732313a2061646472657373207a65726f206973206e6f7420612076616044820152683634b21037bbb732b960b91b60648201526084016108e4565b506001600160a01b031660009081526003602052604090205490565b600e602052600090815260409020805461212e90616273565b80601f016020809104026020016040519081016040528092919081815260200182805461215a90616273565b80156121a75780601f1061217c576101008083540402835291602001916121a7565b820191906000526020600020905b81548152906001019060200180831161218a57829003601f168201915b505050505081565b6000818152601360209081526040808320815161018081018352815481526001820154938101939093526002810154918301919091526003810154606083015260048101546080830152600581015460a0830152600681015460c0830152600781015460e083015260088101546101008301526009810154610120830152600a810154610140830152600b01546101608201528161224d8483613d0e565b905080602001516001036122a557604080516000815260208101869052338183015290517f6c19ce272da370ef1b24da0ae99f009ddadfb2b0dcc05c604dab3b23aecae90f9181900360600190a15060009392505050565b6122b3602680546001019055565b60006122be60265490565b90506122ca33826144d5565b6122d481836144ef565b6000818152602460209081526040808320600181018590556032810193909355436033909301929092558151838152908101879052338183015290517f6c19ce272da370ef1b24da0ae99f009ddadfb2b0dcc05c604dab3b23aecae90f9181900360600190a1949350505050565b60258281548110612355576123556164cd565b906000526020600020906037020160360160089054906101000a900460ff166123ca5760405162461bcd60e51b815260206004820152602160248201527f4974656d206e6f7420696e2073686f70206f7220646f65736e277420657869736044820152601d60fa1b60648201526084016108e4565b6123d8602680546001019055565b60006123e360265490565b90506123ef33826144d5565b6127958160258581548110612406576124066164cd565b9060005260206000209060370201604051806107e001604052908160008201805461243090616273565b80601f016020809104026020016040519081016040528092919081815260200182805461245c90616273565b80156124a95780601f1061247e576101008083540402835291602001916124a9565b820191906000526020600020905b81548152906001019060200180831161248c57829003601f168201915b50505091835250506001820154602080830191909152600283015460408301526003830154606083015260048301546080830152600583015460a0830152600683015460c0830152600783015460e08301526008830154610100808401919091526009840154610120840152600a840154610140840152600b840154610160840152600c840154610180840152600d8401546101a0840152600e8401546101c0840152600f8401546101e08401526010840154610200840152601184015461022084015260128401546102408401526013840154610260840152601484015461028084015260158401546102a084015260168401546102c084015260178401546102e084015260188401546103008401526019840154610320840152601a840154610340840152601b840154610360840152601c840154610380840152601d8401546103a0840152601e8401546103c0840152601f8401546103e084015290830154610400830152602183015461042083015260228301546104408301526023830154610460830152602483015461048083015260258301546104a083015260268301546104c083015260278301546104e083015260288301546105008301526029830154610520830152602a830154610540830152602b830154610560830152602c830154610580830152602d8301546105a0830152602e8301546105c0830152602f8301546105e08301526030830154610600830152603183015461062083015260328301546106408301526033830154610660830152603483015461068083015260358301546106a083015260369092015460ff80821615156106c0840152928104831615156106e0830152620100008104831615156107008301526301000000810483161515610720830152600160201b810483161515610740830152600160281b810483161515610760830152600160301b810483161515610780830152600160381b8104831615156107a0830152600160401b900490911615156107c0909101526144ef565b60008181526024602052604090819020600181018390556032810184905543603382015590517f78cb587a56a0dc7913ec51993eb7f7bf182fca207bd1460930bc912747387edd916127ed9184918791339190616528565b60405180910390a1505050565b6060600180546107c690616273565b60008281526024602052604080822081516107e081019092528054839291908290829061283590616273565b80601f016020809104026020016040519081016040528092919081815260200182805461286190616273565b80156128ae5780601f10612883576101008083540402835291602001916128ae565b820191906000526020600020905b81548152906001019060200180831161289157829003601f168201915b5050509183525050600182015460208083019190915260028301546040808401919091526003840154606084015260048401546080840152600584015460a0840152600684015460c0840152600784015460e08401526008840154610100808501919091526009850154610120850152600a850154610140850152600b850154610160850152600c850154610180850152600d8501546101a0850152600e8501546101c0850152600f8501546101e08501526010850154610200850152601185015461022085015260128501546102408501526013850154610260850152601485015461028085015260158501546102a085015260168501546102c085015260178501546102e085015260188501546103008501526019850154610320850152601a850154610340850152601b850154610360850152601c850154610380850152601d8501546103a0850152601e8501546103c0850152601f8501546103e08501528483015461040085015260218501546104208501526022850154610440850152602385015461046085015260248086015461048086015260258601546104a086015260268601546104c086015260278601546104e086015260288601546105008601526029860154610520860152602a860154610540860152602b860154610560860152602c860154610580860152602d8601546105a0860152602e8601546105c0860152602f8601546105e08601526030860154610600860152603186015461062086015260328601546106408601526033860154610660860152603486015461068086015260358601546106a086015260369095015460ff80821615156106c0870152918104821615156106e0860152620100008104821615156107008601526301000000810482161515610720860152600160201b810482161515610740860152600160281b810482161515610760860152600160301b810482161515610780860152600160381b8104821615156107a0860152600160401b90041615156107c090930192909252600087815292905280822081516107e081019092528054939450919290919082908290612bc790616273565b80601f0160208091040260200160405190810160405280929190818152602001828054612bf390616273565b8015612c405780601f10612c1557610100808354040283529160200191612c40565b820191906000526020600020905b815481529060010190602001808311612c2357829003601f168201915b50505091835250506001820154602080830191909152600283015460408301526003830154606083015260048301546080830152600583015460a0830152600683015460c0830152600783015460e08301526008830154610100808401919091526009840154610120840152600a840154610140840152600b840154610160840152600c840154610180840152600d8401546101a0840152600e8401546101c0840152600f8401546101e08401526010840154610200840152601184015461022084015260128401546102408401526013840154610260840152601484015461028084015260158401546102a084015260168401546102c084015260178401546102e084015260188401546103008401526019840154610320840152601a840154610340840152601b840154610360840152601c840154610380840152601d8401546103a0840152601e8401546103c0840152601f8401546103e084015290830154610400830152602183015461042083015260228301546104408301526023830154610460830152602483015461048083015260258301546104a083015260268301546104c083015260278301546104e083015260288301546105008301526029830154610520830152602a830154610540830152602b830154610560830152602c830154610580830152602d8301546105a0830152602e8301546105c0830152602f8301546105e08301526030830154610600830152603183015461062083015260328301546106408301526033830154610660830152603483015461068083015260358301546106a083015260369092015460ff80821615156106c0840152928104831615156106e083015262010000810483161515610700830152630100000081048316151561072080840191909152600160201b820484161515610740840152600160281b820484161515610760840152600160301b820484161515610780840152600160381b8204841615156107a0840152600160401b90910490921615156107c090910152830151909150600090819080612f4457508361074001515b612f7f5760405162461bcd60e51b815260206004820152600c60248201526b496e76616c6964206974656d60a01b60448201526064016108e4565b60098460400151106130045760405162461bcd60e51b815260206004820152604260248201527f4974656d2063616e206265207570677261646564206f6e6c7920757020746f2060448201527f6c6576656c20392c20757365204368616f73204d616368696e6520667572746860648201526132b960f11b608482015260a4016108e4565b826106a001516002148061301d5750826106a001516003145b6130595760405162461bcd60e51b815260206004820152600d60248201526c125b9d985b1a59081a995dd95b609a1b60448201526064016108e4565b836106c001511561306957601991505b6006846040015110156130fe57826106a001516002036130c0576000878152602460205260409020600201546130a0906001616515565b600088815260246020526040902060020155506001935061078092505050565b60405162461bcd60e51b815260206004820152601360248201527224b73b30b634b21031b7b6b134b730ba34b7b760691b60448201526064016108e4565b60068460400151106131f357826106a001516003146131575760405162461bcd60e51b815260206004820152601560248201527414995c5d5a5c99481a995dd95b081bd9881cdbdd5b605a1b60448201526064016108e4565b81600d546131659190616515565b61316f6014613c28565b1015613192576000878152602460205260409020600201546130a0906001616515565b83604001516006036131d3576000878152602460205260409020600201546131bc906001906164ba565b6000888152602460205260409020600201556131e6565b6000878152602460205260408120600201555b6000945050505050610780565b5050505092915050565b6132083383836148b1565b5050565b60008282111561321e5761321e6165d1565b61322882846164ba565b9392505050565b60008181526024602052604080822081516107e081019092528054839291908290829061325b90616273565b80601f016020809104026020016040519081016040528092919081815260200182805461328790616273565b80156132d45780601f106132a9576101008083540402835291602001916132d4565b820191906000526020600020905b8154815290600101906020018083116132b757829003601f168201915b50505050508152602001600182015481526020016002820154815260200160038201548152602001600482015481526020016005820154815260200160068201548152602001600782015481526020016008820154815260200160098201548152602001600a8201548152602001600b8201548152602001600c8201548152602001600d8201548152602001600e8201548152602001600f820154815260200160108201548152602001601182015481526020016012820154815260200160138201548152602001601482015481526020016015820154815260200160168201548152602001601782015481526020016018820154815260200160198201548152602001601a8201548152602001601b8201548152602001601c8201548152602001601d8201548152602001601e8201548152602001601f820154815260200160208201548152602001602182015481526020016022820154815260200160238201548152602001602482015481526020016025820154815260200160268201548152602001602782015481526020016028820154815260200160298201548152602001602a8201548152602001602b8201548152602001602c8201548152602001602d8201548152602001602e8201548152602001602f82015481526020016030820154815260200160318201548152602001603282015481526020016033820154815260200160348201548152602001603582015481526020016036820160009054906101000a900460ff161515151581526020016036820160019054906101000a900460ff161515151581526020016036820160029054906101000a900460ff161515151581526020016036820160039054906101000a900460ff161515151581526020016036820160049054906101000a900460ff161515151581526020016036820160059054906101000a900460ff161515151581526020016036820160069054906101000a900460ff161515151581526020016036820160079054906101000a900460ff161515151581526020016036820160089054906101000a900460ff161515151581525050905060006014600083610680015181526020019081526020016000206040518061018001604052908160008201548152602001600182015481526020016002820154815260200160038201548152602001600482015481526020016005820154815260200160068201548152602001600782015481526020016008820154815260200160098201548152602001600a8201548152602001600b820154815250509050600061369583610680015183613d0e565b90506136a5602680546001019055565b60006136b060265490565b90506136bc33826144d5565b6136c681836144ef565b600081815260246020908152604080832060018101859055603281019390935543603390930192909255610680840151825184815291820152338183015290517fb2b43c3f90db38d60a8e06e9eaddfec66cf6d9fab4b3019b75d16e2ce34a5e489181900360600190a195945050505050565b6137433383613a38565b61375f5760405162461bcd60e51b81526004016108e490616349565b61376b8484848461497f565b50505050565b601260205281600052604060002081815481106107a257600080fd5b606061379882613968565b60006137af60408051602081019091526000815290565b905060008151116137cf5760405180602001604052806000815250613228565b806137d9846149b2565b6040516020016137ea9291906165e7565b6040516020818303038152906040529392505050565b6060600061380d8361208f565b905060008167ffffffffffffffff81111561382a5761382a6157e1565b604051908082528060200260200182016040528015613853578160200160208202803683370190505b50905060005b8281101561389a5761386b8582610e70565b82828151811061387d5761387d6164cd565b602090810291909101015280613892816164fc565b915050613859565b509392505050565b6000806138af8385616616565b90508315806138c65750826138c48583616643565b145b613228576132286165d1565b6000806138df8385616515565b90508381101580156138c6575082811015613228576132286165d1565b600f60205281600052604060002081815481106107a257600080fd5b60006001600160e01b031982166380ac58cd60e01b148061394957506001600160e01b03198216635b5e139f60e01b145b8061078057506301ffc9a760e01b6001600160e01b0319831614610780565b6000818152600260205260409020546001600160a01b03166139c75760405162461bcd60e51b8152602060048201526018602482015277115490cdcc8c4e881a5b9d985b1a59081d1bdad95b88125160421b60448201526064016108e4565b50565b600081815260046020526040902080546001600160a01b0319166001600160a01b03841690811790915581906139ff82611fa3565b6001600160a01b03167f8c5be1e5ebec7d5bd14f71427d1e84f3dd0314c0f7b2291e5b200ac8c7c3b92560405160405180910390a45050565b600080613a4483611fa3565b9050806001600160a01b0316846001600160a01b03161480613a8b57506001600160a01b0380821660009081526005602090815260408083209388168352929052205460ff165b80613aaf5750836001600160a01b0316613aa484610849565b6001600160a01b0316145b949350505050565b826001600160a01b0316613aca82611fa3565b6001600160a01b031614613af05760405162461bcd60e51b81526004016108e490616657565b6001600160a01b038216613b525760405162461bcd60e51b8152602060048201526024808201527f4552433732313a207472616e7366657220746f20746865207a65726f206164646044820152637265737360e01b60648201526084016108e4565b613b5f8383836001614a45565b826001600160a01b0316613b7282611fa3565b6001600160a01b031614613b985760405162461bcd60e51b81526004016108e490616657565b600081815260046020908152604080832080546001600160a01b03199081169091556001600160a01b0387811680865260038552838620805460001901905590871680865283862080546001019055868652600290945282852080549092168417909155905184937fddf252ad1be2c89b69c2b068fc378daa952ba7f163c4a11628f55a4df523b3ef91a4505050565b60408051446020820152908101829052436060820152600090819060800160408051601f198184030181529190528051602090910120905061322860658261669c565b6000613c7682611fa3565b9050613c86816000846001614a45565b613c8f82611fa3565b600083815260046020908152604080832080546001600160a01b03199081169091556001600160a01b0385168085526003845282852080546000190190558785526002909352818420805490911690555192935084927fddf252ad1be2c89b69c2b068fc378daa952ba7f163c4a11628f55a4df523b3ef908390a45050565b613d166154d4565b6000613d226000613c28565b9050600083600001518211613d99576000858152600f60209081526040918290208054835181840281018401909452808452613d929392830182828015613d8857602002820191906000526020600020905b815481526020019060010190808311613d74575b5050505050614b79565b9050613f56565b613dab846000015185602001516138d2565b8211613e10576000858152601060209081526040918290208054835181840281018401909452808452613d929392830182828015613d885760200282019190600052602060002090815481526020019060010190808311613d74575050505050614b79565b613e2a8460000151610707866020015187604001516138d2565b8211613e8f576000858152601160209081526040918290208054835181840281018401909452808452613d929392830182828015613d885760200282019190600052602060002090815481526020019060010190808311613d74575050505050614b79565b613eb184600001516107078660200151610707886040015189606001516138d2565b8211613f16576000858152601260209081526040918290208054835181840281018401909452808452613d929392830182828015613d885760200282019190600052602060002090815481526020019060010190808311613d74575050505050614b79565b613f408460000151610707866020015161070788604001516107078a606001518b608001516138d2565b8211613f525750610100830151613f56565b5060005b600060258281548110613f6b57613f6b6164cd565b9060005260206000209060370201604051806107e0016040529081600082018054613f9590616273565b80601f0160208091040260200160405190810160405280929190818152602001828054613fc190616273565b801561400e5780601f10613fe35761010080835404028352916020019161400e565b820191906000526020600020905b815481529060010190602001808311613ff157829003601f168201915b50505091835250506001820154602080830191909152600283015460408301526003830154606083015260048301546080830152600583015460a0830152600683015460c0830152600783015460e08301526008830154610100808401919091526009840154610120840152600a840154610140840152600b840154610160840152600c840154610180840152600d8401546101a0840152600e8401546101c0840152600f8401546101e08401526010840154610200840152601184015461022084015260128401546102408401526013840154610260840152601484015461028084015260158401546102a084015260168401546102c084015260178401546102e084015260188401546103008401526019840154610320840152601a840154610340840152601b840154610360840152601c840154610380840152601d8401546103a0840152601e8401546103c0840152601f8401546103e084015290830154610400830152602183015461042083015260228301546104408301526023830154610460830152602483015461048083015260258301546104a083015260268301546104c083015260278301546104e083015260288301546105008301526029830154610520830152602a830154610540830152602b830154610560830152602c830154610580830152602d8301546105a0830152602e8301546105c0830152602f8301546105e08301526030830154610600830152603183015461062083015260328301546106408301526033830154610660830152603483015461068083015260358301546106a083015260369092015460ff80821615156106c0840152928104831615156106e0830152620100008104831615156107008301526301000000810483161515610720830152600160201b810483161515610740830152600160281b81048316151561076080840191909152600160301b820484161515610780840152600160381b8204841615156107a0840152600160401b90910490921615156107c0909101528101519091501580156143105750806107800151155b801561431f5750806107000151155b801561433857508460a001516143356001613c28565b11155b156143465760016106c08201525b806107200151801561436557508460c001516143626002613c28565b11155b156143735760016106e08201525b8061070001511561438a576040810186905261448f565b8061078001511580156143a05750806107600151155b1561448f578461012001518561014001516143bb91906164ba565b6143c6906001616515565b6143d06004613c28565b6143da919061669c565b8561012001516143ea9190616515565b60408201526107208101511561444157600485610160015161440c9190616643565b614417906001616515565b6144216005613c28565b61442b919061669c565b614436906004616616565b61026082015261448f565b8061074001511561448f57600485610160015161445e9190616643565b614469906001616515565b6144736005613c28565b61447d919061669c565b614488906004616616565b6102808201525b806107200151806144a257508061074001515b80156144bb57508460e001516144b86003613c28565b11155b156144cc576144c981614bb6565b90505b95945050505050565b613208828260405180602001604052806000815250614c40565b6000828152600260205260409020546001600160a01b031661454a5760405162461bcd60e51b8152602060048201526014602482015273151bdad95b88191bd95cc81b9bdd08195e1a5cdd60621b60448201526064016108e4565b60008281526024602052604090208151829190819061456990826163e4565b50602082810151600183015560408301516002830155606083015160038301556080830151600483015560a0830151600583015560c0830151600683015560e083015160078301556101008084015160088401556101208401516009840155610140840151600a840155610160840151600b840155610180840151600c8401556101a0840151600d8401556101c0840151600e8401556101e0840151600f840155610200840151601084015561022084015160118401556102408401516012840155610260840151601384015561028084015160148401556102a084015160158401556102c084015160168401556102e0840151601784015561030084015160188401556103208401516019840155610340840151601a840155610360840151601b840155610380840151601c8401556103a0840151601d8401556103c0840151601e8401556103e0840151601f8401556104008401519183019190915561042083015160218301556104408301516022830155610460830151602383015561048083015160248301556104a083015160258301556104c083015160268301556104e0830151602783015561050083015160288301556105208301516029830155610540830151602a830155610560830151602b830155610580830151602c8301556105a0830151602d8301556105c0830151602e8301556105e0830151602f830155610600830151603083015561062083015160318301556106408301516032830155610660830151603383015561068083015160348301556106a083015160358301556106c0830151603690920180546106e08501516107008601516107208701516107408801516107608901516107808a01516107a08b01516107c0909b015161ffff1990971699151561ff001916999099179415159097029390931763ffff00001916620100009215159290920263ff0000001916919091176301000000911515919091021765ffff000000001916600160201b9115159190910265ff0000000000191617600160281b931515939093029290921767ffff0000000000001916600160301b9315159390930260ff60381b191692909217600160381b931515939093029290921760ff60401b1916600160401b921515929092029190911790555050565b816001600160a01b0316836001600160a01b0316036149125760405162461bcd60e51b815260206004820152601960248201527f4552433732313a20617070726f766520746f2063616c6c65720000000000000060448201526064016108e4565b6001600160a01b03838116600081815260056020908152604080832094871680845294825291829020805460ff191686151590811790915591519182527f17307eab39ab6107e8899845ad3d59bd9653f200f220920489ca2b5937696c31910160405180910390a3505050565b61498a848484613ab7565b61499684848484614c73565b61376b5760405162461bcd60e51b81526004016108e4906166b0565b606060006149bf83614d74565b600101905060008167ffffffffffffffff8111156149df576149df6157e1565b6040519080825280601f01601f191660200182016040528015614a09576020820181803683370190505b5090508181016020015b600019016f181899199a1a9b1b9c1cb0b131b232b360811b600a86061a8153600a8504945084614a1357509392505050565b6001811115614ab45760405162461bcd60e51b815260206004820152603560248201527f455243373231456e756d657261626c653a20636f6e7365637574697665207472604482015274185b9cd9995c9cc81b9bdd081cdd5c1c1bdc9d1959605a1b60648201526084016108e4565b816001600160a01b038516614b1057614b0b81600880546000838152600960205260408120829055600182018355919091527ff3f7a9fe364faab93b216da50a3214154f22a0a2b415b23a84c8169e8b636ee30155565b614b33565b836001600160a01b0316856001600160a01b031614614b3357614b338582614e4c565b6001600160a01b038416614b4f57614b4a81614ee9565b614b72565b846001600160a01b0316846001600160a01b031614614b7257614b728482614f98565b5050505050565b600080614b8543613c28565b835190915083614b95828461669c565b81518110614ba557614ba56164cd565b602002602001015192505050919050565b614bbe6154d4565b6000604083015261072082015115614c0a5760016106e0830152614be382600b614fdc565b601a54909250614bf3600c613c28565b11614c0657614c0382600d614fdc565b91505b5090565b81610740015115614c0657614c2082600e6150f6565b602354909250614c30600f613c28565b11614c0657614c038260106150f6565b614c4a838361533b565b614c576000848484614c73565b6109855760405162461bcd60e51b81526004016108e4906166b0565b60006001600160a01b0384163b15614d6957604051630a85bd0160e11b81526001600160a01b0385169063150b7a0290614cb7903390899088908890600401616702565b6020604051808303816000875af1925050508015614cf2575060408051601f3d908101601f19168201909252614cef91810190616735565b60015b614d4f573d808015614d20576040519150601f19603f3d011682016040523d82523d6000602084013e614d25565b606091505b508051600003614d475760405162461bcd60e51b81526004016108e4906166b0565b805181602001fd5b6001600160e01b031916630a85bd0160e11b149050613aaf565b506001949350505050565b60008072184f03e93ff9f4daa797ed6e38ed64bf6a1f0160401b8310614db35772184f03e93ff9f4daa797ed6e38ed64bf6a1f0160401b830492506040015b6d04ee2d6d415b85acef81000000008310614ddf576d04ee2d6d415b85acef8100000000830492506020015b662386f26fc100008310614dfd57662386f26fc10000830492506010015b6305f5e1008310614e15576305f5e100830492506008015b6127108310614e2957612710830492506004015b60648310614e3b576064830492506002015b600a83106107805760010192915050565b60006001614e598461208f565b614e6391906164ba565b600083815260076020526040902054909150808214614eb6576001600160a01b03841660009081526006602090815260408083208584528252808320548484528184208190558352600790915290208190555b5060009182526007602090815260408084208490556001600160a01b039094168352600681528383209183525290812055565b600854600090614efb906001906164ba565b60008381526009602052604081205460088054939450909284908110614f2357614f236164cd565b906000526020600020015490508060088381548110614f4457614f446164cd565b6000918252602080832090910192909255828152600990915260408082208490558582528120556008805480614f7c57614f7c616752565b6001900381819060005260206000200160009055905550505050565b6000614fa38361208f565b6001600160a01b039093166000908152600660209081526040808320868452825280832085905593825260079052919091209190915550565b614fe46154d4565b6000614fef83613c28565b60195460185460175460165460155494955060009461500e9190616515565b6150189190616515565b6150229190616515565b61502c9190616515565b9050600061503a828461669c565b60155490915081116150535760016103008701526150ec565b6016546015546150639190616515565b81116150765760016103208701526150ec565b6017546016546015546150899190616515565b6150939190616515565b81116150a65760016103808701526150ec565b6018546017546016546015546150bc9190616515565b6150c69190616515565b6150d09190616515565b81116150e35760016106208701526150ec565b60016102c08701525b5093949350505050565b6150fe6154d4565b600061510983613c28565b602254602154602054601f54601e54601d54601c54601b549798506000976151319190616515565b61513b9190616515565b6151459190616515565b61514f9190616515565b6151599190616515565b6151639190616515565b61516d9190616515565b9050600061517b828461669c565b601b5490915081116151945760016102e08701526150ec565b601c54601b546151a49190616515565b81116151b75760016103408701526150ec565b601d54601c54601b546151ca9190616515565b6151d49190616515565b81116151e75760016103c08701526150ec565b601e54601d54601c54601b546151fd9190616515565b6152079190616515565b6152119190616515565b81116152245760016103e08701526150ec565b601f54601e54601d54601c54601b5461523d9190616515565b6152479190616515565b6152519190616515565b61525b9190616515565b811161526e5760016104008701526150ec565b602054601f54601e54601d54601c54601b5461528a9190616515565b6152949190616515565b61529e9190616515565b6152a89190616515565b6152b29190616515565b81116152c55760016105008701526150ec565b602154602054601f54601e54601d54601c54601b546152e49190616515565b6152ee9190616515565b6152f89190616515565b6153029190616515565b61530c9190616515565b6153169190616515565b81116153295760016105208701526150ec565b505060016104e0850152509192915050565b6001600160a01b0382166153915760405162461bcd60e51b815260206004820181905260248201527f4552433732313a206d696e7420746f20746865207a65726f206164647265737360448201526064016108e4565b6000818152600260205260409020546001600160a01b0316156153f65760405162461bcd60e51b815260206004820152601c60248201527f4552433732313a20746f6b656e20616c7265616479206d696e7465640000000060448201526064016108e4565b615404600083836001614a45565b6000818152600260205260409020546001600160a01b0316156154695760405162461bcd60e51b815260206004820152601c60248201527f4552433732313a20746f6b656e20616c7265616479206d696e7465640000000060448201526064016108e4565b6001600160a01b038216600081815260036020908152604080832080546001019055848352600290915280822080546001600160a01b0319168417905551839291907fddf252ad1be2c89b69c2b068fc378daa952ba7f163c4a11628f55a4df523b3ef908290a45050565b604051806107e001604052806060815260200160008152602001600081526020016000815260200160008152602001600081526020016000815260200160008152602001600081526020016000815260200160008152602001600081526020016000815260200160008152602001600081526020016000815260200160008152602001600081526020016000815260200160008152602001600081526020016000815260200160008152602001600081526020016000815260200160008152602001600081526020016000815260200160008152602001600081526020016000815260200160008152602001600081526020016000815260200160008152602001600081526020016000815260200160008152602001600081526020016000815260200160008152602001600081526020016000815260200160008152602001600081526020016000815260200160008152602001600081526020016000815260200160008152602001600081526020016000815260200160008152602001600081526020016000151581526020016000151581526020016000151581526020016000151581526020016000151581526020016000151581526020016000151581526020016000151581526020016000151581525090565b60405180604001604052806002906020820280368337509192915050565b6001600160e01b0319811681146139c757600080fd5b6000602082840312156156f257600080fd5b8135613228816156ca565b60006020828403121561570f57600080fd5b5035919050565b6000806040838503121561572957600080fd5b50508035926020909101359150565b60005b8381101561575357818101518382015260200161573b565b50506000910152565b60008151808452615774816020860160208601615738565b601f01601f19169290920160200192915050565b602081526000613228602083018461575c565b80356001600160a01b03811681146157b257600080fd5b919050565b600080604083850312156157ca57600080fd5b6157d38361579b565b946020939093013593505050565b634e487b7160e01b600052604160045260246000fd5b604051610180810167ffffffffffffffff8111828210171561581b5761581b6157e1565b60405290565b6040516107e0810167ffffffffffffffff8111828210171561581b5761581b6157e1565b6000808284036101a081121561585a57600080fd5b8335925061018080601f198301121561587257600080fd5b61587a6157f7565b91506020850135825260408501356020830152606085013560408301526080850135606083015260a0850135608083015260c085013560a083015260e085013560c08301526101008086013560e08401526101208087013582850152610140915081870135818501525061016080870135828501528287013581850152505050809150509250929050565b60208152600082516107e080602085015261592461080085018361575c565b602086015160408681019190915286015160608087019190915286015160808087019190915286015160a08087019190915286015160c08087019190915286015160e08087019190915286015161010080870191909152860151610120808701919091528601516101408087019190915286015161016080870191909152860151610180808701919091528601516101a0808701919091528601516101c0808701919091528601516101e08087019190915286015161020080870191909152860151610220808701919091528601516102408087019190915286015161026080870191909152860151610280808701919091528601516102a0808701919091528601516102c0808701919091528601516102e08087019190915286015161030080870191909152860151610320808701919091528601516103408087019190915286015161036080870191909152860151610380808701919091528601516103a0808701919091528601516103c0808701919091528601516103e08087019190915286015161040080870191909152860151610420808701919091528601516104408087019190915286015161046080870191909152860151610480808701919091528601516104a0808701919091528601516104c0808701919091528601516104e08087019190915286015161050080870191909152860151610520808701919091528601516105408087019190915286015161056080870191909152860151610580808701919091528601516105a0808701919091528601516105c0808701919091528601516105e08087019190915286015161060080870191909152860151610620808701919091528601516106408087019190915286015161066080870191909152860151610680808701919091528601516106a0808701919091528601516106c0808701919091528601519092506106e0615be78187018315159052565b8601519050610700615bfc8682018315159052565b8601519050610720615c118682018315159052565b8601519050610740615c268682018315159052565b8601519050610760615c3b8682018315159052565b8601519050610780615c508682018315159052565b86015190506107a0615c658682018315159052565b86015190506107c0615c7a8682018315159052565b90950151151593019290925250919050565b600080600060608486031215615ca157600080fd5b615caa8461579b565b9250615cb86020850161579b565b9150604084013590509250925092565b600067ffffffffffffffff80841115615ce357615ce36157e1565b604051601f8501601f19908116603f01168101908282118183101715615d0b57615d0b6157e1565b81604052809350858152868686011115615d2457600080fd5b858560208301376000602087830101525050509392505050565b600082601f830112615d4f57600080fd5b61322883833560208501615cc8565b803580151581146157b257600080fd5b600060208284031215615d8057600080fd5b813567ffffffffffffffff80821115615d9857600080fd5b908301906107e08286031215615dad57600080fd5b615db5615821565b823582811115615dc457600080fd5b615dd087828601615d3e565b8252506020838101359082015260408084013590820152606080840135908201526080808401359082015260a0808401359082015260c0808401359082015260e08084013590820152610100808401359082015261012080840135908201526101408084013590820152610160808401359082015261018080840135908201526101a080840135908201526101c080840135908201526101e08084013590820152610200808401359082015261022080840135908201526102408084013590820152610260808401359082015261028080840135908201526102a080840135908201526102c080840135908201526102e08084013590820152610300808401359082015261032080840135908201526103408084013590820152610360808401359082015261038080840135908201526103a080840135908201526103c080840135908201526103e08084013590820152610400808401359082015261042080840135908201526104408084013590820152610460808401359082015261048080840135908201526104a080840135908201526104c080840135908201526104e08084013590820152610500808401359082015261052080840135908201526105408084013590820152610560808401359082015261058080840135908201526105a080840135908201526105c080840135908201526105e08084013590820152610600808401359082015261062080840135908201526106408084013590820152610660808401359082015261068080840135908201526106a080840135908201526106c09150616023828401615d5e565b828201526106e09150616037828401615d5e565b82820152610700915061604b828401615d5e565b82820152610720915061605f828401615d5e565b828201526107409150616073828401615d5e565b828201526107609150616087828401615d5e565b82820152610780915061609b828401615d5e565b828201526107a091506160af828401615d5e565b828201526107c091506160c3828401615d5e565b91810191909152949350505050565b60208082528251828201819052600091906040908185019086840185805b8381101561612d57825185835b600281101561611a578251825291890191908901906001016160fd565b50505093850193918601916001016160f0565b509298975050505050505050565b60006020828403121561614d57600080fd5b6132288261579b565b6000806040838503121561616957600080fd5b6161728361579b565b915061618060208401615d5e565b90509250929050565b6000806000806080858703121561619f57600080fd5b6161a88561579b565b93506161b66020860161579b565b925060408501359150606085013567ffffffffffffffff8111156161d957600080fd5b8501601f810187136161ea57600080fd5b6161f987823560208401615cc8565b91505092959194509250565b6020808252825182820181905260009190848201906040850190845b8181101561623d57835183529284019291840191600101616221565b50909695505050505050565b6000806040838503121561625c57600080fd5b6162658361579b565b91506161806020840161579b565b600181811c9082168061628757607f821691505b6020821081036162a757634e487b7160e01b600052602260045260246000fd5b50919050565b60006101a08201905083825282516020830152602083015160408301526040830151606083015260608301516080830152608083015160a083015260a083015160c083015260c083015160e083015260e083015161010081818501528085015191505061012081818501528085015191505061014081818501528085015191505061016081818501528085015161018085015250509392505050565b6020808252602d908201527f4552433732313a2063616c6c6572206973206e6f7420746f6b656e206f776e6560408201526c1c881bdc88185c1c1c9bdd9959609a1b606082015260800190565b601f82111561098557600081815260208120601f850160051c810160208610156163bd5750805b601f850160051c820191505b818110156163dc578281556001016163c9565b505050505050565b815167ffffffffffffffff8111156163fe576163fe6157e1565b6164128161640c8454616273565b84616396565b602080601f831160018114616447576000841561642f5750858301515b600019600386901b1c1916600185901b1785556163dc565b600085815260208120601f198616915b8281101561647657888601518255948401946001909101908401616457565b50858210156164945787850151600019600388901b60f8161c191681555b5050505050600190811b01905550565b634e487b7160e01b600052601160045260246000fd5b81810381811115610780576107806164a4565b634e487b7160e01b600052603260045260246000fd5b828152604060208201526000613aaf604083018461575c565b60006001820161650e5761650e6164a4565b5060010190565b80820180821115610780576107806164a4565b84815260006020858184015260018060a01b0385166040840152608060608401526000845461655681616273565b80608087015260a06001808416600081146165785760018114616592576165c0565b60ff1985168984015283151560051b8901830195506165c0565b896000528660002060005b858110156165b85781548b820186015290830190880161659d565b8a0184019650505b50939b9a5050505050505050505050565b634e487b7160e01b600052600160045260246000fd5b600083516165f9818460208801615738565b83519083019061660d818360208801615738565b01949350505050565b8082028115828204841417610780576107806164a4565b634e487b7160e01b600052601260045260246000fd5b6000826166525761665261662d565b500490565b60208082526025908201527f4552433732313a207472616e736665722066726f6d20696e636f72726563742060408201526437bbb732b960d91b606082015260800190565b6000826166ab576166ab61662d565b500690565b60208082526032908201527f4552433732313a207472616e7366657220746f206e6f6e20455243373231526560408201527131b2b4bb32b91034b6b83632b6b2b73a32b960711b606082015260800190565b6001600160a01b0385811682528416602082015260408101839052608060608201819052600090611ec69083018461575c565b60006020828403121561674757600080fd5b8151613228816156ca565b634e487b7160e01b600052603160045260246000fdfea2646970667358221220cce28e4d5d8b72c8e927c92c1c9b8f872542ced4fde24b410bdc605b8786c5b064736f6c63430008130033",
  "immutableReferences": {},
  "source": "// SPDX-License-Identifier: MIT\npragma solidity ^0.8.18;\n\nimport \"@openzeppelin/contracts/token/ERC721/ERC721.sol\";\nimport \"@openzeppelin/contracts/token/ERC721/extensions/ERC721Enumerable.sol\";\nimport \"@openzeppelin/contracts/utils/Counters.sol\";\n\nimport \"truffle/Console.sol\";\nimport \"./ItemAttributes.sol\";\ncontract Items is ERC721Enumerable {\n    using Counters for Counters.Counter;\n\n    address public owner;\n\n    struct ItemAttributes {\n        string name;\n\n        uint tokenId;        \n        uint itemLevel;\n        uint maxLevel;\n        uint durability;\n        uint classRequired; // Dark Knight - 1, Dark Wizard - 2, Fairy Elf - 3, Magic Gladiator - 4\n        uint strengthRequired;\n        uint agilityRequired;\n        uint energyRequired;\n        uint vitalityRequired;\n        uint itemWidth;\n        uint itemHeight;\n        uint acceptableSlot1;\n        uint acceptableSlot2;\n\n        /*\n            1. helmet\n            2. armour\n            3. pants\n            4. gloves\n            5. boots\n            6. left hand\n            7. right hand\n            8. left ring\n            9, right ring\n            10, pendant\n            11. wings\n\n        */\n        uint physicalDamage;\n        uint magicDamage;\n        uint defense;\n        uint attackSpeed;\n        uint defenseSuccessRate;\n        uint additionalDamage;\n        uint additionalDefense;\n        uint increasedExperienceGain;\n        \n        uint damageIncrease;\n        uint defenseSuccessRateIncrease;\n        uint lifeAfterMonsterIncrease;\n        uint manaAfterMonsterIncrease;\n        uint goldAfterMonsterIncrease;\n        uint doubleDamageProbabilityIncrease;\n        uint excellentDamageProbabilityIncrease;\n        uint ignoreOpponentsDefenseRateIncrease;\n        uint reflectDamage;\n        uint maxLifeIncrease;\n        uint maxManaIncrease;\n        uint excellentDamageRateIncrease;\n        uint doubleDamageRateIncrease;\n        uint ignoreOpponentsDefenseSuccessRateIncrease;\n        uint attackDamageIncrease;\n        uint isAncient;\n        uint reflectDamageRateIncrease;\n        uint decreaseDamageRateIncrease;\n        uint hpRecoveryRateIncrease;\n        uint mpRecoveryRateIncrease;\n        uint hpIncrease;\n        uint mpIncrease;\n        uint increaseDefenseRate;\n        uint increaseStrength;\n        uint increaseAgility;\n        uint increaseEnergy;\n        uint increaseVitality;\n        uint attackSpeedIncrease; \n        uint fighterId;\n        uint lastUpdBlock;\n        uint itemRarityLevel;\n\n        uint itemAttributesId;\n\n        bool luck;\n        bool skill;\n        bool isBox;\n        bool isWeapon;\n        bool isArmour;\n        bool isJewel;\n        bool isMisc;\n        bool isConsumable;\n        bool inShop;\n    }\n\n    uint maxAdditionalPoints = 28;\n    uint jolSuccessRate = 25;\n    uint josSuccessRate = 50;\n\n    mapping (uint256 => string) public itemName;\n\n    mapping (uint256 => uint256[]) public Weapons; // mapping of rarityLevel => tokenId[]\n    mapping (uint256 => uint256[]) public Armours; // mapping of rarityLevel => tokenId[]\n    mapping (uint256 => uint256[]) public Jewels; // mapping of rarityLevel => tokenId[]\n    mapping (uint256 => uint256[]) public Misc; // mapping of rarityLevel => tokenId[]\n\n    struct DropParams {\n        uint weaponsDropRate;\n        uint armoursDropRate;\n        uint jewelsDropRate;\n        uint miscDropRate;\n        uint boxDropRate;\n\n        uint luckDropRate;\n        uint skillDropRate;\n        uint excDropRate;\n        uint boxId;\n\n        uint minItemLevel;\n        uint maxItemLevel;\n        uint maxAddPoints;\n    }\n\n    mapping (uint256 => DropParams) public DropParamsList; // mapping of rarityLevels to drop parameters\n    mapping (uint256 => DropParams) public BoxDropPramsList; // mapping of rarityLevels to drop parameters\n\n    struct WeaponsExcOptions {\n        uint lifeAfterMonsterIncrease;\n        uint manaAfterMonsterIncrease;\n        uint excellentDamageProbabilityIncrease;\n        uint attackSpeedIncrease;\n        uint damageIncrease; // 2%\n\n        uint doubleOptionChance;\n    }\n\n    WeaponsExcOptions WeaponsExcOptionsDropRates = WeaponsExcOptions({\n        lifeAfterMonsterIncrease: 35,\n        manaAfterMonsterIncrease: 35,\n        excellentDamageProbabilityIncrease: 10,\n        attackSpeedIncrease: 10,\n        damageIncrease: 10,\n\n        doubleOptionChance: 15\n    });\n\n    struct ArmoursExcOptions {\n        uint defenseSuccessRateIncrease;\n        uint goldAfterMonsterIncrease;\n        uint reflectDamage;\n        uint maxLifeIncrease;\n        uint maxManaIncrease;\n        uint hpRecoveryRateIncrease;\n        uint mpRecoveryRateIncrease;\n        uint decreaseDamageRateIncrease;\n\n        uint doubleOptionChance;\n    }\n\n    ArmoursExcOptions ArmourExcOptionsDropRates = ArmoursExcOptions({\n        defenseSuccessRateIncrease: 10,\n        goldAfterMonsterIncrease: 20,\n        reflectDamage: 10,\n        maxLifeIncrease: 10,\n        maxManaIncrease: 10,\n        hpRecoveryRateIncrease: 10,\n        mpRecoveryRateIncrease: 10,\n        decreaseDamageRateIncrease: 10,\n\n        doubleOptionChance: 30\n    });\n\n    event ItemGenerated(uint256 itemId, string name);\n    event LogError(uint8, uint256);\n    event DropParametersChange(uint256 rarityLevel, DropParams params);\n    event BoxDropParametersChange(uint256 rarityLevel, DropParams params);\n    event ItemDropped(uint256 tokenId, uint256 rarityLevel, address owner);\n    event BoxOppened(uint256 tokenId, uint256 rarityLevel, address owner);\n    event ItemBoughtFromShop(uint256 tokenId, uint256 itemId, address owner, string itemName);\n\n    event ItemUpgrade(uint256 tokenId, uint256 newLevel, uint256 newAddOption);\n\n    function upgradeItemLevel(uint256 itemTokenId, uint256 jewelTokenId) external returns (bool) {\n        ItemAttributes memory item = _tokenAttributes[itemTokenId];\n        ItemAttributes memory jewel = _tokenAttributes[jewelTokenId];\n        uint256 luckPoints = 0;\n        bool success = false;\n\n        require(item.isWeapon || item.isArmour, \"Invalid item\");\n        require(item.itemLevel < 9, \"Item can be upgraded only up to level 9, use Chaos Machine further\");\n        require(jewel.itemAttributesId == 2 ||  jewel.itemAttributesId == 3, \"Invalid jewel\");\n\n        if (item.luck) {\n            luckPoints = 25;\n        }\n\n        if (item.itemLevel < 6) { // bless\n            if (jewel.itemAttributesId == 2) { \n                _tokenAttributes[itemTokenId].itemLevel = _tokenAttributes[itemTokenId].itemLevel + 1;\n                return true;\n            }\n\n            revert(\"Invalid combination\");\n            return false;\n        }\n\n        if (item.itemLevel >= 6) { // soul\n            require(jewel.itemAttributesId == 3, \"Require jewel of soul\");\n\n\n            if (getRandomNumber(20) < josSuccessRate+luckPoints) {\n                _tokenAttributes[itemTokenId].itemLevel = _tokenAttributes[itemTokenId].itemLevel + 1;\n                return true;\n            } else {\n                if (item.itemLevel == 6) {\n                    _tokenAttributes[itemTokenId].itemLevel = _tokenAttributes[itemTokenId].itemLevel - 1;\n                } else {\n                    _tokenAttributes[itemTokenId].itemLevel = 0;\n                }\n                \n                return false;\n            }\n        }\n    }\n\n    function updateItemAdditionalPoints(uint256 itemTokenId, uint256 jolTokenId) external returns (bool) {\n        ItemAttributes memory item = _tokenAttributes[itemTokenId];\n        ItemAttributes memory jewel = _tokenAttributes[jolTokenId];\n        uint256 luckPoints = 0;\n        bool success = false;\n\n        if (item.luck) {\n            luckPoints = 25;\n        }\n\n        require(item.isWeapon || item.isArmour, \"Invalid item\");\n        require(item.additionalDamage < maxAdditionalPoints && item.additionalDefense < maxAdditionalPoints, \"Max additional points reached\");\n        require(jewel.itemAttributesId == 4, \"Invalid jewel\");\n\n        \n        if (item.isWeapon) {\n            if (getRandomNumber(30) < jolSuccessRate+luckPoints) {\n                _tokenAttributes[itemTokenId].additionalDamage = _tokenAttributes[itemTokenId].additionalDamage+4;\n                success = true;\n            } else {\n                _tokenAttributes[itemTokenId].additionalDamage = 0;\n            }\n            \n        }\n\n        if (item.isArmour) {\n            if (getRandomNumber(30) < jolSuccessRate+luckPoints) {\n                _tokenAttributes[itemTokenId].additionalDefense = _tokenAttributes[itemTokenId].additionalDefense+4;\n                success = true;\n            } else {\n                _tokenAttributes[itemTokenId].additionalDefense = 0;\n            }\n        }\n\n        _burn(jolTokenId);\n        return success;\n    }\n\n\n    function openBox(uint256 tokenId) external returns (uint256) {\n        ItemAttributes memory box = _tokenAttributes[tokenId];\n        DropParams memory params = BoxDropPramsList[box.itemRarityLevel];\n\n        ItemAttributes memory dropItem = getDropItem(box.itemRarityLevel, params);\n\n        _tokenIdCounter.increment();\n        uint256 newTokenId = _tokenIdCounter.current();\n        _safeMint(msg.sender, newTokenId);\n        _setTokenAttributes(newTokenId, dropItem);\n\n        _tokenAttributes[newTokenId].tokenId = newTokenId;      \n        _tokenAttributes[newTokenId].fighterId = 0;      \n        _tokenAttributes[newTokenId].lastUpdBlock = block.number; \n\n        emit BoxOppened(newTokenId, dropItem.itemRarityLevel, msg.sender);\n\n        return newTokenId;\n    }\n\n    function getRandomArmourExcOption(ItemAttributes memory item,  uint256 seed) internal returns (ItemAttributes memory) {\n        uint256 randomNumber = getRandomNumber(seed);\n        uint256 totalProbability = ArmourExcOptionsDropRates.defenseSuccessRateIncrease +\n            ArmourExcOptionsDropRates.goldAfterMonsterIncrease +\n            ArmourExcOptionsDropRates.reflectDamage +\n            ArmourExcOptionsDropRates.maxLifeIncrease +\n            ArmourExcOptionsDropRates.maxManaIncrease +\n            ArmourExcOptionsDropRates.hpRecoveryRateIncrease +\n            ArmourExcOptionsDropRates.mpRecoveryRateIncrease +\n            ArmourExcOptionsDropRates.decreaseDamageRateIncrease;\n        \n\n        uint256 randomIndex = randomNumber % totalProbability;\n\n        if (randomIndex <= ArmourExcOptionsDropRates.defenseSuccessRateIncrease) {\n            item.defenseSuccessRateIncrease = 1;\n        } else if (randomIndex <= ArmourExcOptionsDropRates.defenseSuccessRateIncrease \n            + ArmourExcOptionsDropRates.goldAfterMonsterIncrease) {\n            item.goldAfterMonsterIncrease = 1;\n        } else if (randomIndex <= ArmourExcOptionsDropRates.defenseSuccessRateIncrease \n            + ArmourExcOptionsDropRates.goldAfterMonsterIncrease\n            + ArmourExcOptionsDropRates.reflectDamage) {\n            item.reflectDamage = 1;\n        } else if (randomIndex <= ArmourExcOptionsDropRates.defenseSuccessRateIncrease \n            + ArmourExcOptionsDropRates.goldAfterMonsterIncrease\n            + ArmourExcOptionsDropRates.reflectDamage\n            + ArmourExcOptionsDropRates.maxLifeIncrease) {\n            item.maxLifeIncrease = 1;\n        } else if (randomIndex <= ArmourExcOptionsDropRates.defenseSuccessRateIncrease \n            + ArmourExcOptionsDropRates.goldAfterMonsterIncrease\n            + ArmourExcOptionsDropRates.reflectDamage\n            + ArmourExcOptionsDropRates.maxLifeIncrease\n            + ArmourExcOptionsDropRates.maxManaIncrease) {\n            item.maxManaIncrease = 1;\n        } else if (randomIndex <= ArmourExcOptionsDropRates.defenseSuccessRateIncrease \n            + ArmourExcOptionsDropRates.goldAfterMonsterIncrease\n            + ArmourExcOptionsDropRates.reflectDamage\n            + ArmourExcOptionsDropRates.maxLifeIncrease\n            + ArmourExcOptionsDropRates.maxManaIncrease\n            + ArmourExcOptionsDropRates.hpRecoveryRateIncrease) {\n            item.hpRecoveryRateIncrease = 1;\n        } else if (randomIndex <= ArmourExcOptionsDropRates.defenseSuccessRateIncrease \n            + ArmourExcOptionsDropRates.goldAfterMonsterIncrease\n            + ArmourExcOptionsDropRates.reflectDamage\n            + ArmourExcOptionsDropRates.maxLifeIncrease\n            + ArmourExcOptionsDropRates.maxManaIncrease\n            + ArmourExcOptionsDropRates.hpRecoveryRateIncrease\n            + ArmourExcOptionsDropRates.mpRecoveryRateIncrease) {\n            item.mpRecoveryRateIncrease = 1;\n        } else {\n            item.decreaseDamageRateIncrease = 1;\n        }\n\n        return item;\n    }\n\n    function getRandomWeaponExcOption(ItemAttributes memory item,  uint256 seed) internal returns (ItemAttributes memory) {\n        uint256 randomNumber = getRandomNumber(seed);\n        uint256 totalProbability = WeaponsExcOptionsDropRates.lifeAfterMonsterIncrease +\n            WeaponsExcOptionsDropRates.manaAfterMonsterIncrease +\n            WeaponsExcOptionsDropRates.excellentDamageProbabilityIncrease +\n            WeaponsExcOptionsDropRates.attackSpeedIncrease +\n            WeaponsExcOptionsDropRates.damageIncrease;\n        \n\n        uint256 randomIndex = randomNumber % totalProbability;\n\n        if (randomIndex <= WeaponsExcOptionsDropRates.lifeAfterMonsterIncrease) {\n            item.lifeAfterMonsterIncrease = 1;\n        } else if (randomIndex <= WeaponsExcOptionsDropRates.lifeAfterMonsterIncrease \n            + WeaponsExcOptionsDropRates.manaAfterMonsterIncrease) {\n            item.manaAfterMonsterIncrease = 1;\n        } else if (randomIndex <= WeaponsExcOptionsDropRates.lifeAfterMonsterIncrease \n            + WeaponsExcOptionsDropRates.manaAfterMonsterIncrease\n            + WeaponsExcOptionsDropRates.excellentDamageProbabilityIncrease) {\n            item.excellentDamageProbabilityIncrease = 1;\n        } else if (randomIndex <= WeaponsExcOptionsDropRates.lifeAfterMonsterIncrease \n            + WeaponsExcOptionsDropRates.manaAfterMonsterIncrease\n            + WeaponsExcOptionsDropRates.excellentDamageProbabilityIncrease\n            + WeaponsExcOptionsDropRates.attackSpeedIncrease) {\n            item.attackSpeedIncrease = 1;\n        } else {\n            item.damageIncrease = 1;\n        }\n\n        return item;\n    }\n\n    function addExcelentOption(ItemAttributes memory item) internal returns (ItemAttributes memory) {\n        item.itemLevel = 0;\n        if (item.isWeapon) {\n            item.skill = true;\n            // choose from weapon exc options            \n            item = getRandomWeaponExcOption(item, 11);\n            if (getRandomNumber(12) <= WeaponsExcOptionsDropRates.doubleOptionChance) {\n                item = getRandomWeaponExcOption(item, 13);\n            }\n        } else if (item.isArmour) {\n            // choose from armout exc options\n            item = getRandomArmourExcOption(item, 14);\n            if (getRandomNumber(15) <= ArmourExcOptionsDropRates.doubleOptionChance) {\n                item = getRandomArmourExcOption(item, 16);\n            }\n        }\n\n        return item;\n    }\n\n    function setDropParams(uint256 rarityLevel, DropParams memory params) external {\n        DropParamsList[rarityLevel] = params;\n        emit DropParametersChange(rarityLevel, params);\n    }\n\n    function setBoxDropParams(uint256 rarityLevel, DropParams memory params) external {\n        BoxDropPramsList[rarityLevel] = params;\n        emit BoxDropParametersChange(rarityLevel, params);\n    }\n\n    function createItem(ItemAttributes memory atts) external returns (uint256 tokenId)\n    {\n        // if (uintValues[0] > 0) uintValues[0] == 0;\n        // ItemAttributes memory atts;\n        \n        // atts.name = name;\n\n        // atts.tokenId = uintValues[0];\n        // atts.itemLevel = uintValues[1];\n        // atts.maxLevel = uintValues[2];\n        // atts.durability = uintValues[3];\n        // atts.classRequired = uintValues[4];\n        // atts.strengthRequired = uintValues[5];\n        // atts.agilityRequired = uintValues[6];\n        // atts.energyRequired = uintValues[7];\n        // atts.vitalityRequired = uintValues[8];\n        // atts.itemWidth = uintValues[9];\n        // atts.itemHeight = uintValues[10];\n        // atts.acceptableSlot1 = uintValues[11];\n        // atts.acceptableSlot2 = uintValues[12];\n\n        // atts.physicalDamage = uintValues[13];\n        // atts.magicDamage = uintValues[14];\n        // atts.defense = uintValues[15];\n        // atts.attackSpeed = uintValues[16];\n        // atts.defenseSuccessRate = uintValues[17];\n        // atts.additionalDamage = uintValues[18];\n        // atts.additionalDefense = uintValues[19];\n        // atts.increasedExperienceGain = uintValues[20];\n\n        \n\n        // atts.damageIncrease = uintValues[21];\n        // atts.defenseSuccessRateIncrease = uintValues[22];\n        // atts.lifeAfterMonsterIncrease = uintValues[23];\n        // atts.manaAfterMonsterIncrease = uintValues[24];\n        // atts.goldAfterMonsterIncrease = uintValues[25];\n        // atts.doubleDamageProbabilityIncrease = uintValues[26];\n        // atts.excellentDamageProbabilityIncrease = uintValues[27];\n        // atts.ignoreOpponentsDefenseRateIncrease = uintValues[28];\n        // atts.reflectDamage = uintValues[29];\n        // atts.maxLifeIncrease = uintValues[30];\n        // atts.maxManaIncrease = uintValues[31];\n        // atts.excellentDamageRateIncrease = uintValues[32];\n        // atts.doubleDamageRateIncrease = uintValues[33];\n        // atts.ignoreOpponentsDefenseSuccessRateIncrease = uintValues[34];\n        // atts.attackDamageIncrease = uintValues[35];\n        // atts.isAncient = uintValues[36];\n        // atts.reflectDamageRateIncrease = uintValues[37];\n        // atts.decreaseDamageRateIncrease = uintValues[38];\n        // atts.hpRecoveryRateIncrease = uintValues[39];\n        // atts.mpRecoveryRateIncrease = uintValues[40];\n        // atts.hpIncrease = uintValues[41];\n        // atts.mpIncrease = uintValues[42];\n        // atts.increaseDefenseRate = uintValues[43];\n        // atts.increaseStrength = uintValues[44];\n        // atts.increaseAgility = uintValues[45];\n        // atts.increaseEnergy = uintValues[46];\n        // atts.increaseVitality = uintValues[47];\n        // atts.attackSpeedIncrease = uintValues[48];\n\n        // atts.fighterId = uintValues[49];\n        // atts.lastUpdBlock = uintValues[50];\n        // atts.itemRarityLevel = uintValues[51];\n        \n\n        // atts.luck = boolValues[0];\n        // atts.skill = boolValues[1];\n        // atts.isBox = boolValues[2];                \n        // atts.isWeapon = boolValues[3];\n        // atts.isArmour = boolValues[4];\n        // atts.isJewel = boolValues[5];\n        // atts.isMisc = boolValues[6];\n        // atts.isConsumable = boolValues[7];\n        // atts.inShop = boolValues[8];\n\n\n                \n        _itemAttributes.push(atts);   \n         uint256 itemId = _itemAttributes.length - 1;   \n         _itemAttributes[itemId].itemAttributesId = itemId;\n\n         if (atts.isWeapon) {\n             Weapons[atts.itemRarityLevel].push(itemId);\n         } else if (atts.isArmour) {\n             Armours[atts.itemRarityLevel].push(itemId);\n         } else if (atts.isJewel) {\n             Jewels[atts.itemRarityLevel].push(itemId);\n         } else if (atts.isMisc) {\n             Misc[atts.itemRarityLevel].push(itemId);\n         } \n\n        emit ItemGenerated(itemId, atts.name);\n        return itemId;\n    }\n\n    function getDropItem(uint256 rarityLevel, DropParams memory params) internal returns (ItemAttributes memory) {\n\n        uint256 randomNumber = getRandomNumber(0);\n        uint256 randomItem;\n        \n\n        if (randomNumber <= params.weaponsDropRate) {\n            randomItem =  returnRandomItemFromDropList(Weapons[rarityLevel]);\n        } else if (randomNumber <= safeAdd(params.weaponsDropRate, params.armoursDropRate)) {\n            randomItem =  returnRandomItemFromDropList(Armours[rarityLevel]);\n        } else if (randomNumber <= safeAdd(params.weaponsDropRate, safeAdd(params.armoursDropRate, params.jewelsDropRate))) {\n            randomItem =  returnRandomItemFromDropList(Jewels[rarityLevel]);\n        } else if (randomNumber <= safeAdd(params.weaponsDropRate, safeAdd(params.armoursDropRate, safeAdd(params.jewelsDropRate, params.miscDropRate)))) {\n            randomItem =  returnRandomItemFromDropList(Misc[rarityLevel]);\n        } else if (randomNumber <= safeAdd(params.weaponsDropRate, safeAdd(params.armoursDropRate, safeAdd(params.jewelsDropRate, safeAdd(params.miscDropRate, params.boxDropRate))))) {\n            randomItem =  params.boxId;\n        } else {\n            randomItem = 0;\n        }\n\n\n        ItemAttributes memory itemAtts = _itemAttributes[randomItem];\n\n\n        if (!itemAtts.isJewel && !itemAtts.isMisc && !itemAtts.isBox && getRandomNumber(1) <= params.luckDropRate) {\n            itemAtts.luck  = true;\n        }\n\n        if (itemAtts.isWeapon && getRandomNumber(2) <= params.skillDropRate) {\n            itemAtts.skill  = true;\n        }\n\n        if (itemAtts.isBox) {\n            itemAtts.itemLevel = rarityLevel;\n        } else if (!itemAtts.isMisc && !itemAtts.isJewel) {\n            itemAtts.itemLevel = params.minItemLevel + getRandomNumber(4) % (params.maxItemLevel-params.minItemLevel+1);\n\n            if (itemAtts.isWeapon) {\n                itemAtts.additionalDamage = 4 * (getRandomNumber(5) % (params.maxAddPoints/4+1));\n            } else if (itemAtts.isArmour) {\n                itemAtts.additionalDefense = 4 * (getRandomNumber(5) % (params.maxAddPoints/4+1));\n            }\n        }\n\n        if ((itemAtts.isWeapon || itemAtts.isArmour) && getRandomNumber(3) <= params.excDropRate) {\n            itemAtts = addExcelentOption(itemAtts);\n        }\n\n        return itemAtts;  \n    }\n\n    function dropItem(uint256 rarityLevel) external returns (uint256) {\n        DropParams memory params = DropParamsList[rarityLevel];\n\n        ItemAttributes memory itemAtts = getDropItem(rarityLevel, params);\n\n        if (itemAtts.tokenId == 1) {\n            emit ItemDropped(0, rarityLevel, msg.sender);\n            return 0;\n        }\n\n        _tokenIdCounter.increment();\n        uint256 newTokenId = _tokenIdCounter.current();\n        _safeMint(msg.sender, newTokenId);\n        _setTokenAttributes(newTokenId, itemAtts);\n\n        _tokenAttributes[newTokenId].tokenId = newTokenId;      \n        _tokenAttributes[newTokenId].fighterId = 0;      \n        _tokenAttributes[newTokenId].lastUpdBlock = block.number; \n\n        emit ItemDropped(newTokenId, rarityLevel, msg.sender);\n\n        return newTokenId;\n    }    \n\n    function getWeaponsLength(uint256 rarityLevel) public view returns (uint256) {\n        return Weapons[rarityLevel].length;\n    }\n\n    function getArmoursLength(uint256 rarityLevel) public view returns (uint256) {\n        return Armours[rarityLevel].length;\n    }\n\n    function getJewelsLength(uint256 rarityLevel) public view returns (uint256) {\n        return Jewels[rarityLevel].length;\n    }\n\n    function getMiscsLength(uint256 rarityLevel) public view returns (uint256) {\n        return Misc[rarityLevel].length;\n    }    \n\n    function buyItemFromShop(uint256 itemId, uint256 fighterId) external \n    {\n        require(_itemAttributes[itemId].inShop, \"Item not in shop or doesn't exist\");\n\n        // money logic\n\n        _tokenIdCounter.increment();\n        uint256 tokenId = _tokenIdCounter.current();\n        _safeMint(msg.sender, tokenId);\n        _setTokenAttributes(tokenId, _itemAttributes[itemId]);\n\n        _tokenAttributes[tokenId].tokenId = tokenId;      \n        _tokenAttributes[tokenId].fighterId = fighterId;      \n        _tokenAttributes[tokenId].lastUpdBlock = block.number;      \n\n        emit ItemBoughtFromShop(tokenId, itemId, msg.sender, _tokenAttributes[tokenId].name);\n    }\n\n    // Get the attributes for a fighter NFT\n    function getTokenAttributes(uint256 tokenId) public view returns (ItemAttributes memory) {\n        require(_exists(tokenId), \"Token does not exist\");\n\n        return _tokenAttributes[tokenId];\n    }\n\n    // Get the attributes for a fighter NFT\n    function getItemAttributes(uint256 itemId) public view returns (ItemAttributes memory) {\n        require(_itemAttributes.length > itemId, \"Item does not exist\");\n\n        return _itemAttributes[itemId];\n    }\n\n    mapping (uint256 => ItemAttributes) private _tokenAttributes;\n    ItemAttributes[] private _itemAttributes;\n    Counters.Counter private _tokenIdCounter;\n\n    ItemAttributes boxAttributes;\n\n    constructor() ERC721(\"Combats\", \"Item\") {\n        owner = msg.sender;\n    }\n\n    function getUserItems(address userAddress) external view returns (uint256[] memory) {\n        \n        uint256 numTokens = balanceOf(userAddress);\n        uint256[] memory tokenIds = new uint256[](numTokens);\n\n        for (uint256 i = 0; i < numTokens; i++) {\n            tokenIds[i] = tokenOfOwnerByIndex(userAddress, i);\n        }\n\n        return tokenIds;\n    }\n\n\n    function getFighterItems(address userAddress, uint256 fighterId) external view returns (uint256[2][] memory) {\n        \n        uint256 numTokens = balanceOf(userAddress);\n        uint256[2][] memory tokenIds = new uint256[2][](numTokens);\n\n        uint256 id;\n        uint counter = 0;\n\n        for (uint256 i = 0; i < numTokens; i++) {\n            id = tokenOfOwnerByIndex(userAddress, i);\n            if (_tokenAttributes[id].fighterId == fighterId)\n            {\n                tokenIds[counter] = [id, _tokenAttributes[id].lastUpdBlock];\n            }\n            \n            counter++;\n        }\n\n        return tokenIds;\n    }\n\n\n    function _setTokenAttributes(uint256 tokenId, ItemAttributes memory attrs) internal {\n        require(_exists(tokenId), \"Token does not exist\");\n\n        _tokenAttributes[tokenId] = attrs;\n    }\n\n    function returnRandomItemFromDropList(uint256[] memory items) internal returns (uint256) {\n        uint256 randomNumber = getRandomNumber(block.number);\n        uint256 len = items.length;\n\n        return items[randomNumber % len];\n\n    }\n\n    function getRandomNumber (uint256 seed) internal returns (uint256) {\n        uint256 randomNumber = uint256(keccak256(abi.encodePacked(block.prevrandao, seed, block.number)));\n\n        return randomNumber % 101;\n    }\n\n\n    // Returns the smaller of two values\n    function min(uint a, uint b) private pure returns (uint) {\n        return a < b ? a : b;\n    }\n\n    // Returns the largest of the two values\n    function max(uint a, uint b) private pure returns (uint) {\n        return a > b ? a : b;\n    }\n\n    // Safe Multiply Function - prevents integer overflow \n    function safeMul(uint a, uint b) public returns (uint) {\n        uint c = a * b;\n        assert(a == 0 || c / a == b);\n        return c;\n    }\n\n    // Safe Subtraction Function - prevents integer overflow \n    function safeSub(uint a, uint b) public returns (uint) {\n        assert(b <= a);\n        return a - b;\n    }\n\n    // Safe Addition Function - prevents integer overflow \n    function safeAdd(uint a, uint b) public returns (uint) {\n        uint c = a + b;\n        assert(c>=a && c>=b);\n        return c;\n    }\n\n}",
  "sourcePath": "/Users/max/Documents/prog/game-contracts/contracts/Items.sol",
  "compiler": {
    "name": "solc",
    "version": "0.8.19+commit.7dd6d404.Emscripten.clang"
  },
  "schemaVersion": "3.4.13",
  "updatedAt": "2023-04-17T12:21:08.631Z",
  "devdoc": {
    "events": {
      "Approval(address,address,uint256)": {
        "details": "Emitted when `owner` enables `approved` to manage the `tokenId` token."
      },
      "ApprovalForAll(address,address,bool)": {
        "details": "Emitted when `owner` enables or disables (`approved`) `operator` to manage all of its assets."
      },
      "Transfer(address,address,uint256)": {
        "details": "Emitted when `tokenId` token is transferred from `from` to `to`."
      }
    },
    "kind": "dev",
    "methods": {
      "approve(address,uint256)": {
        "details": "See {IERC721-approve}."
      },
      "balanceOf(address)": {
        "details": "See {IERC721-balanceOf}."
      },
      "getApproved(uint256)": {
        "details": "See {IERC721-getApproved}."
      },
      "isApprovedForAll(address,address)": {
        "details": "See {IERC721-isApprovedForAll}."
      },
      "name()": {
        "details": "See {IERC721Metadata-name}."
      },
      "ownerOf(uint256)": {
        "details": "See {IERC721-ownerOf}."
      },
      "safeTransferFrom(address,address,uint256)": {
        "details": "See {IERC721-safeTransferFrom}."
      },
      "safeTransferFrom(address,address,uint256,bytes)": {
        "details": "See {IERC721-safeTransferFrom}."
      },
      "setApprovalForAll(address,bool)": {
        "details": "See {IERC721-setApprovalForAll}."
      },
      "supportsInterface(bytes4)": {
        "details": "See {IERC165-supportsInterface}."
      },
      "symbol()": {
        "details": "See {IERC721Metadata-symbol}."
      },
      "tokenByIndex(uint256)": {
        "details": "See {IERC721Enumerable-tokenByIndex}."
      },
      "tokenOfOwnerByIndex(address,uint256)": {
        "details": "See {IERC721Enumerable-tokenOfOwnerByIndex}."
      },
      "tokenURI(uint256)": {
        "details": "See {IERC721Metadata-tokenURI}."
      },
      "totalSupply()": {
        "details": "See {IERC721Enumerable-totalSupply}."
      },
      "transferFrom(address,address,uint256)": {
        "details": "See {IERC721-transferFrom}."
      }
    },
    "version": 1
  },
  "userdoc": {
    "kind": "user",
    "methods": {},
    "version": 1
  }
}