{
  "contractName": "ItemsExcellent",
  "abi": [
    {
      "inputs": [
        {
          "internalType": "address",
          "name": "itemsAddress",
          "type": "address"
        }
      ],
      "stateMutability": "nonpayable",
      "type": "constructor"
    },
    {
      "inputs": [
        {
          "internalType": "uint256",
          "name": "",
          "type": "uint256"
        }
      ],
      "name": "ArmoursExcOpts",
      "outputs": [
        {
          "internalType": "uint256",
          "name": "defenseSuccessRateIncrease",
          "type": "uint256"
        },
        {
          "internalType": "uint256",
          "name": "goldAfterMonsterIncrease",
          "type": "uint256"
        },
        {
          "internalType": "uint256",
          "name": "reflectDamage",
          "type": "uint256"
        },
        {
          "internalType": "uint256",
          "name": "maxLifeIncrease",
          "type": "uint256"
        },
        {
          "internalType": "uint256",
          "name": "maxManaIncrease",
          "type": "uint256"
        },
        {
          "internalType": "uint256",
          "name": "hpRecoveryRateIncrease",
          "type": "uint256"
        },
        {
          "internalType": "uint256",
          "name": "mpRecoveryRateIncrease",
          "type": "uint256"
        },
        {
          "internalType": "uint256",
          "name": "decreaseDamageRateIncrease",
          "type": "uint256"
        },
        {
          "internalType": "uint256",
          "name": "doubleOptionChance",
          "type": "uint256"
        }
      ],
      "stateMutability": "view",
      "type": "function",
      "constant": true
    },
    {
      "inputs": [
        {
          "internalType": "uint256",
          "name": "",
          "type": "uint256"
        }
      ],
      "name": "WeaponsExcOpts",
      "outputs": [
        {
          "internalType": "uint256",
          "name": "lifeAfterMonsterIncrease",
          "type": "uint256"
        },
        {
          "internalType": "uint256",
          "name": "manaAfterMonsterIncrease",
          "type": "uint256"
        },
        {
          "internalType": "uint256",
          "name": "excellentDamageProbabilityIncrease",
          "type": "uint256"
        },
        {
          "internalType": "uint256",
          "name": "attackSpeedIncrease",
          "type": "uint256"
        },
        {
          "internalType": "uint256",
          "name": "attackLvl20",
          "type": "uint256"
        },
        {
          "internalType": "uint256",
          "name": "attackIncreasePercent",
          "type": "uint256"
        },
        {
          "internalType": "uint256",
          "name": "doubleOptionChance",
          "type": "uint256"
        }
      ],
      "stateMutability": "view",
      "type": "function",
      "constant": true
    },
    {
      "inputs": [
        {
          "internalType": "uint256",
          "name": "",
          "type": "uint256"
        }
      ],
      "name": "WingsExcOpts",
      "outputs": [
        {
          "internalType": "uint256",
          "name": "increaseAttackSpeedPoints",
          "type": "uint256"
        },
        {
          "internalType": "uint256",
          "name": "reflectDamagePercent",
          "type": "uint256"
        },
        {
          "internalType": "uint256",
          "name": "restoreHPChance",
          "type": "uint256"
        },
        {
          "internalType": "uint256",
          "name": "restoreMPChance",
          "type": "uint256"
        },
        {
          "internalType": "uint256",
          "name": "doubleDamageChance",
          "type": "uint256"
        },
        {
          "internalType": "uint256",
          "name": "ignoreOpponentDefenseChance",
          "type": "uint256"
        },
        {
          "internalType": "uint256",
          "name": "doubleOptionChance",
          "type": "uint256"
        }
      ],
      "stateMutability": "view",
      "type": "function",
      "constant": true
    },
    {
      "inputs": [
        {
          "internalType": "uint256",
          "name": "seed",
          "type": "uint256"
        }
      ],
      "name": "getRandomNumber",
      "outputs": [
        {
          "internalType": "uint256",
          "name": "",
          "type": "uint256"
        }
      ],
      "stateMutability": "view",
      "type": "function",
      "constant": true
    },
    {
      "inputs": [
        {
          "internalType": "uint256",
          "name": "seed",
          "type": "uint256"
        },
        {
          "internalType": "uint256",
          "name": "maxNum",
          "type": "uint256"
        }
      ],
      "name": "getRandomNumberMax",
      "outputs": [
        {
          "internalType": "uint256",
          "name": "",
          "type": "uint256"
        }
      ],
      "stateMutability": "view",
      "type": "function",
      "constant": true
    },
    {
      "inputs": [
        {
          "internalType": "uint256",
          "name": "a",
          "type": "uint256"
        },
        {
          "internalType": "uint256",
          "name": "b",
          "type": "uint256"
        }
      ],
      "name": "max",
      "outputs": [
        {
          "internalType": "uint256",
          "name": "",
          "type": "uint256"
        }
      ],
      "stateMutability": "view",
      "type": "function",
      "constant": true
    },
    {
      "inputs": [
        {
          "internalType": "uint256",
          "name": "a",
          "type": "uint256"
        },
        {
          "internalType": "uint256",
          "name": "b",
          "type": "uint256"
        }
      ],
      "name": "min",
      "outputs": [
        {
          "internalType": "uint256",
          "name": "",
          "type": "uint256"
        }
      ],
      "stateMutability": "view",
      "type": "function",
      "constant": true
    },
    {
      "inputs": [
        {
          "internalType": "uint256",
          "name": "a",
          "type": "uint256"
        },
        {
          "internalType": "uint256",
          "name": "b",
          "type": "uint256"
        }
      ],
      "name": "safeAdd",
      "outputs": [
        {
          "internalType": "uint256",
          "name": "",
          "type": "uint256"
        }
      ],
      "stateMutability": "view",
      "type": "function",
      "constant": true
    },
    {
      "inputs": [
        {
          "internalType": "uint256",
          "name": "a",
          "type": "uint256"
        },
        {
          "internalType": "uint256",
          "name": "b",
          "type": "uint256"
        }
      ],
      "name": "safeMul",
      "outputs": [
        {
          "internalType": "uint256",
          "name": "",
          "type": "uint256"
        }
      ],
      "stateMutability": "view",
      "type": "function",
      "constant": true
    },
    {
      "inputs": [
        {
          "internalType": "uint256",
          "name": "a",
          "type": "uint256"
        },
        {
          "internalType": "uint256",
          "name": "b",
          "type": "uint256"
        }
      ],
      "name": "safeSub",
      "outputs": [
        {
          "internalType": "uint256",
          "name": "",
          "type": "uint256"
        }
      ],
      "stateMutability": "view",
      "type": "function",
      "constant": true
    },
    {
      "inputs": [
        {
          "internalType": "string",
          "name": "a",
          "type": "string"
        },
        {
          "internalType": "string",
          "name": "b",
          "type": "string"
        }
      ],
      "name": "stringsEqual",
      "outputs": [
        {
          "internalType": "bool",
          "name": "",
          "type": "bool"
        }
      ],
      "stateMutability": "view",
      "type": "function",
      "constant": true
    },
    {
      "inputs": [
        {
          "components": [
            {
              "internalType": "string",
              "name": "name",
              "type": "string"
            },
            {
              "internalType": "uint256",
              "name": "tokenId",
              "type": "uint256"
            },
            {
              "internalType": "uint256",
              "name": "itemLevel",
              "type": "uint256"
            },
            {
              "internalType": "uint256",
              "name": "maxLevel",
              "type": "uint256"
            },
            {
              "internalType": "uint256",
              "name": "additionalDamage",
              "type": "uint256"
            },
            {
              "internalType": "uint256",
              "name": "additionalDefense",
              "type": "uint256"
            },
            {
              "internalType": "uint256",
              "name": "fighterId",
              "type": "uint256"
            },
            {
              "internalType": "uint256",
              "name": "lastUpdBlock",
              "type": "uint256"
            },
            {
              "internalType": "uint256",
              "name": "itemRarityLevel",
              "type": "uint256"
            },
            {
              "internalType": "uint256",
              "name": "packSize",
              "type": "uint256"
            },
            {
              "internalType": "bool",
              "name": "luck",
              "type": "bool"
            },
            {
              "internalType": "bool",
              "name": "skill",
              "type": "bool"
            },
            {
              "internalType": "bool",
              "name": "isPackable",
              "type": "bool"
            },
            {
              "internalType": "bool",
              "name": "isBox",
              "type": "bool"
            },
            {
              "internalType": "bool",
              "name": "isWeapon",
              "type": "bool"
            },
            {
              "internalType": "bool",
              "name": "isArmour",
              "type": "bool"
            },
            {
              "internalType": "bool",
              "name": "isJewel",
              "type": "bool"
            },
            {
              "internalType": "bool",
              "name": "isWings",
              "type": "bool"
            },
            {
              "internalType": "bool",
              "name": "isMisc",
              "type": "bool"
            },
            {
              "internalType": "bool",
              "name": "isConsumable",
              "type": "bool"
            },
            {
              "internalType": "bool",
              "name": "inShop",
              "type": "bool"
            }
          ],
          "internalType": "struct ItemsAtts.ItemAttributes",
          "name": "item",
          "type": "tuple"
        }
      ],
      "name": "convertToExcellent",
      "outputs": [
        {
          "components": [
            {
              "internalType": "string",
              "name": "name",
              "type": "string"
            },
            {
              "internalType": "uint256",
              "name": "tokenId",
              "type": "uint256"
            },
            {
              "internalType": "uint256",
              "name": "itemLevel",
              "type": "uint256"
            },
            {
              "internalType": "uint256",
              "name": "maxLevel",
              "type": "uint256"
            },
            {
              "internalType": "uint256",
              "name": "additionalDamage",
              "type": "uint256"
            },
            {
              "internalType": "uint256",
              "name": "additionalDefense",
              "type": "uint256"
            },
            {
              "internalType": "uint256",
              "name": "fighterId",
              "type": "uint256"
            },
            {
              "internalType": "uint256",
              "name": "lastUpdBlock",
              "type": "uint256"
            },
            {
              "internalType": "uint256",
              "name": "itemRarityLevel",
              "type": "uint256"
            },
            {
              "internalType": "uint256",
              "name": "packSize",
              "type": "uint256"
            },
            {
              "internalType": "bool",
              "name": "luck",
              "type": "bool"
            },
            {
              "internalType": "bool",
              "name": "skill",
              "type": "bool"
            },
            {
              "internalType": "bool",
              "name": "isPackable",
              "type": "bool"
            },
            {
              "internalType": "bool",
              "name": "isBox",
              "type": "bool"
            },
            {
              "internalType": "bool",
              "name": "isWeapon",
              "type": "bool"
            },
            {
              "internalType": "bool",
              "name": "isArmour",
              "type": "bool"
            },
            {
              "internalType": "bool",
              "name": "isJewel",
              "type": "bool"
            },
            {
              "internalType": "bool",
              "name": "isWings",
              "type": "bool"
            },
            {
              "internalType": "bool",
              "name": "isMisc",
              "type": "bool"
            },
            {
              "internalType": "bool",
              "name": "isConsumable",
              "type": "bool"
            },
            {
              "internalType": "bool",
              "name": "inShop",
              "type": "bool"
            },
            {
              "internalType": "uint256",
              "name": "increaseAttackSpeedPoints",
              "type": "uint256"
            },
            {
              "internalType": "uint256",
              "name": "reflectDamagePercent",
              "type": "uint256"
            },
            {
              "internalType": "uint256",
              "name": "restoreHPChance",
              "type": "uint256"
            },
            {
              "internalType": "uint256",
              "name": "restoreMPChance",
              "type": "uint256"
            },
            {
              "internalType": "uint256",
              "name": "doubleDamageChance",
              "type": "uint256"
            },
            {
              "internalType": "uint256",
              "name": "ignoreOpponentDefenseChance",
              "type": "uint256"
            },
            {
              "internalType": "uint256",
              "name": "lifeAfterMonsterIncrease",
              "type": "uint256"
            },
            {
              "internalType": "uint256",
              "name": "manaAfterMonsterIncrease",
              "type": "uint256"
            },
            {
              "internalType": "uint256",
              "name": "excellentDamageProbabilityIncrease",
              "type": "uint256"
            },
            {
              "internalType": "uint256",
              "name": "attackSpeedIncrease",
              "type": "uint256"
            },
            {
              "internalType": "uint256",
              "name": "attackLvl20",
              "type": "uint256"
            },
            {
              "internalType": "uint256",
              "name": "attackIncreasePercent",
              "type": "uint256"
            },
            {
              "internalType": "uint256",
              "name": "defenseSuccessRateIncrease",
              "type": "uint256"
            },
            {
              "internalType": "uint256",
              "name": "goldAfterMonsterIncrease",
              "type": "uint256"
            },
            {
              "internalType": "uint256",
              "name": "reflectDamage",
              "type": "uint256"
            },
            {
              "internalType": "uint256",
              "name": "maxLifeIncrease",
              "type": "uint256"
            },
            {
              "internalType": "uint256",
              "name": "maxManaIncrease",
              "type": "uint256"
            },
            {
              "internalType": "uint256",
              "name": "hpRecoveryRateIncrease",
              "type": "uint256"
            },
            {
              "internalType": "uint256",
              "name": "mpRecoveryRateIncrease",
              "type": "uint256"
            },
            {
              "internalType": "uint256",
              "name": "decreaseDamageRateIncrease",
              "type": "uint256"
            }
          ],
          "internalType": "struct ItemsExcellentAtts.ExcellentItemAtts",
          "name": "",
          "type": "tuple"
        }
      ],
      "stateMutability": "view",
      "type": "function",
      "constant": true
    },
    {
      "inputs": [
        {
          "internalType": "string",
          "name": "itemName",
          "type": "string"
        }
      ],
      "name": "getItemAttributes",
      "outputs": [
        {
          "components": [
            {
              "internalType": "string",
              "name": "name",
              "type": "string"
            },
            {
              "internalType": "uint256",
              "name": "tokenId",
              "type": "uint256"
            },
            {
              "internalType": "uint256",
              "name": "itemLevel",
              "type": "uint256"
            },
            {
              "internalType": "uint256",
              "name": "maxLevel",
              "type": "uint256"
            },
            {
              "internalType": "uint256",
              "name": "additionalDamage",
              "type": "uint256"
            },
            {
              "internalType": "uint256",
              "name": "additionalDefense",
              "type": "uint256"
            },
            {
              "internalType": "uint256",
              "name": "fighterId",
              "type": "uint256"
            },
            {
              "internalType": "uint256",
              "name": "lastUpdBlock",
              "type": "uint256"
            },
            {
              "internalType": "uint256",
              "name": "itemRarityLevel",
              "type": "uint256"
            },
            {
              "internalType": "uint256",
              "name": "packSize",
              "type": "uint256"
            },
            {
              "internalType": "bool",
              "name": "luck",
              "type": "bool"
            },
            {
              "internalType": "bool",
              "name": "skill",
              "type": "bool"
            },
            {
              "internalType": "bool",
              "name": "isPackable",
              "type": "bool"
            },
            {
              "internalType": "bool",
              "name": "isBox",
              "type": "bool"
            },
            {
              "internalType": "bool",
              "name": "isWeapon",
              "type": "bool"
            },
            {
              "internalType": "bool",
              "name": "isArmour",
              "type": "bool"
            },
            {
              "internalType": "bool",
              "name": "isJewel",
              "type": "bool"
            },
            {
              "internalType": "bool",
              "name": "isWings",
              "type": "bool"
            },
            {
              "internalType": "bool",
              "name": "isMisc",
              "type": "bool"
            },
            {
              "internalType": "bool",
              "name": "isConsumable",
              "type": "bool"
            },
            {
              "internalType": "bool",
              "name": "inShop",
              "type": "bool"
            },
            {
              "internalType": "uint256",
              "name": "increaseAttackSpeedPoints",
              "type": "uint256"
            },
            {
              "internalType": "uint256",
              "name": "reflectDamagePercent",
              "type": "uint256"
            },
            {
              "internalType": "uint256",
              "name": "restoreHPChance",
              "type": "uint256"
            },
            {
              "internalType": "uint256",
              "name": "restoreMPChance",
              "type": "uint256"
            },
            {
              "internalType": "uint256",
              "name": "doubleDamageChance",
              "type": "uint256"
            },
            {
              "internalType": "uint256",
              "name": "ignoreOpponentDefenseChance",
              "type": "uint256"
            },
            {
              "internalType": "uint256",
              "name": "lifeAfterMonsterIncrease",
              "type": "uint256"
            },
            {
              "internalType": "uint256",
              "name": "manaAfterMonsterIncrease",
              "type": "uint256"
            },
            {
              "internalType": "uint256",
              "name": "excellentDamageProbabilityIncrease",
              "type": "uint256"
            },
            {
              "internalType": "uint256",
              "name": "attackSpeedIncrease",
              "type": "uint256"
            },
            {
              "internalType": "uint256",
              "name": "attackLvl20",
              "type": "uint256"
            },
            {
              "internalType": "uint256",
              "name": "attackIncreasePercent",
              "type": "uint256"
            },
            {
              "internalType": "uint256",
              "name": "defenseSuccessRateIncrease",
              "type": "uint256"
            },
            {
              "internalType": "uint256",
              "name": "goldAfterMonsterIncrease",
              "type": "uint256"
            },
            {
              "internalType": "uint256",
              "name": "reflectDamage",
              "type": "uint256"
            },
            {
              "internalType": "uint256",
              "name": "maxLifeIncrease",
              "type": "uint256"
            },
            {
              "internalType": "uint256",
              "name": "maxManaIncrease",
              "type": "uint256"
            },
            {
              "internalType": "uint256",
              "name": "hpRecoveryRateIncrease",
              "type": "uint256"
            },
            {
              "internalType": "uint256",
              "name": "mpRecoveryRateIncrease",
              "type": "uint256"
            },
            {
              "internalType": "uint256",
              "name": "decreaseDamageRateIncrease",
              "type": "uint256"
            }
          ],
          "internalType": "struct ItemsExcellentAtts.ExcellentItemAtts",
          "name": "",
          "type": "tuple"
        }
      ],
      "stateMutability": "nonpayable",
      "type": "function"
    },
    {
      "inputs": [
        {
          "internalType": "uint256",
          "name": "tokenId",
          "type": "uint256"
        }
      ],
      "name": "getTokenAttributes",
      "outputs": [
        {
          "components": [
            {
              "internalType": "string",
              "name": "name",
              "type": "string"
            },
            {
              "internalType": "uint256",
              "name": "tokenId",
              "type": "uint256"
            },
            {
              "internalType": "uint256",
              "name": "itemLevel",
              "type": "uint256"
            },
            {
              "internalType": "uint256",
              "name": "maxLevel",
              "type": "uint256"
            },
            {
              "internalType": "uint256",
              "name": "additionalDamage",
              "type": "uint256"
            },
            {
              "internalType": "uint256",
              "name": "additionalDefense",
              "type": "uint256"
            },
            {
              "internalType": "uint256",
              "name": "fighterId",
              "type": "uint256"
            },
            {
              "internalType": "uint256",
              "name": "lastUpdBlock",
              "type": "uint256"
            },
            {
              "internalType": "uint256",
              "name": "itemRarityLevel",
              "type": "uint256"
            },
            {
              "internalType": "uint256",
              "name": "packSize",
              "type": "uint256"
            },
            {
              "internalType": "bool",
              "name": "luck",
              "type": "bool"
            },
            {
              "internalType": "bool",
              "name": "skill",
              "type": "bool"
            },
            {
              "internalType": "bool",
              "name": "isPackable",
              "type": "bool"
            },
            {
              "internalType": "bool",
              "name": "isBox",
              "type": "bool"
            },
            {
              "internalType": "bool",
              "name": "isWeapon",
              "type": "bool"
            },
            {
              "internalType": "bool",
              "name": "isArmour",
              "type": "bool"
            },
            {
              "internalType": "bool",
              "name": "isJewel",
              "type": "bool"
            },
            {
              "internalType": "bool",
              "name": "isWings",
              "type": "bool"
            },
            {
              "internalType": "bool",
              "name": "isMisc",
              "type": "bool"
            },
            {
              "internalType": "bool",
              "name": "isConsumable",
              "type": "bool"
            },
            {
              "internalType": "bool",
              "name": "inShop",
              "type": "bool"
            },
            {
              "internalType": "uint256",
              "name": "increaseAttackSpeedPoints",
              "type": "uint256"
            },
            {
              "internalType": "uint256",
              "name": "reflectDamagePercent",
              "type": "uint256"
            },
            {
              "internalType": "uint256",
              "name": "restoreHPChance",
              "type": "uint256"
            },
            {
              "internalType": "uint256",
              "name": "restoreMPChance",
              "type": "uint256"
            },
            {
              "internalType": "uint256",
              "name": "doubleDamageChance",
              "type": "uint256"
            },
            {
              "internalType": "uint256",
              "name": "ignoreOpponentDefenseChance",
              "type": "uint256"
            },
            {
              "internalType": "uint256",
              "name": "lifeAfterMonsterIncrease",
              "type": "uint256"
            },
            {
              "internalType": "uint256",
              "name": "manaAfterMonsterIncrease",
              "type": "uint256"
            },
            {
              "internalType": "uint256",
              "name": "excellentDamageProbabilityIncrease",
              "type": "uint256"
            },
            {
              "internalType": "uint256",
              "name": "attackSpeedIncrease",
              "type": "uint256"
            },
            {
              "internalType": "uint256",
              "name": "attackLvl20",
              "type": "uint256"
            },
            {
              "internalType": "uint256",
              "name": "attackIncreasePercent",
              "type": "uint256"
            },
            {
              "internalType": "uint256",
              "name": "defenseSuccessRateIncrease",
              "type": "uint256"
            },
            {
              "internalType": "uint256",
              "name": "goldAfterMonsterIncrease",
              "type": "uint256"
            },
            {
              "internalType": "uint256",
              "name": "reflectDamage",
              "type": "uint256"
            },
            {
              "internalType": "uint256",
              "name": "maxLifeIncrease",
              "type": "uint256"
            },
            {
              "internalType": "uint256",
              "name": "maxManaIncrease",
              "type": "uint256"
            },
            {
              "internalType": "uint256",
              "name": "hpRecoveryRateIncrease",
              "type": "uint256"
            },
            {
              "internalType": "uint256",
              "name": "mpRecoveryRateIncrease",
              "type": "uint256"
            },
            {
              "internalType": "uint256",
              "name": "decreaseDamageRateIncrease",
              "type": "uint256"
            }
          ],
          "internalType": "struct ItemsExcellentAtts.ExcellentItemAtts",
          "name": "",
          "type": "tuple"
        }
      ],
      "stateMutability": "nonpayable",
      "type": "function"
    },
    {
      "inputs": [
        {
          "internalType": "uint256",
          "name": "tokenId",
          "type": "uint256"
        },
        {
          "components": [
            {
              "internalType": "string",
              "name": "name",
              "type": "string"
            },
            {
              "internalType": "uint256",
              "name": "tokenId",
              "type": "uint256"
            },
            {
              "internalType": "uint256",
              "name": "itemLevel",
              "type": "uint256"
            },
            {
              "internalType": "uint256",
              "name": "maxLevel",
              "type": "uint256"
            },
            {
              "internalType": "uint256",
              "name": "additionalDamage",
              "type": "uint256"
            },
            {
              "internalType": "uint256",
              "name": "additionalDefense",
              "type": "uint256"
            },
            {
              "internalType": "uint256",
              "name": "fighterId",
              "type": "uint256"
            },
            {
              "internalType": "uint256",
              "name": "lastUpdBlock",
              "type": "uint256"
            },
            {
              "internalType": "uint256",
              "name": "itemRarityLevel",
              "type": "uint256"
            },
            {
              "internalType": "uint256",
              "name": "packSize",
              "type": "uint256"
            },
            {
              "internalType": "bool",
              "name": "luck",
              "type": "bool"
            },
            {
              "internalType": "bool",
              "name": "skill",
              "type": "bool"
            },
            {
              "internalType": "bool",
              "name": "isPackable",
              "type": "bool"
            },
            {
              "internalType": "bool",
              "name": "isBox",
              "type": "bool"
            },
            {
              "internalType": "bool",
              "name": "isWeapon",
              "type": "bool"
            },
            {
              "internalType": "bool",
              "name": "isArmour",
              "type": "bool"
            },
            {
              "internalType": "bool",
              "name": "isJewel",
              "type": "bool"
            },
            {
              "internalType": "bool",
              "name": "isWings",
              "type": "bool"
            },
            {
              "internalType": "bool",
              "name": "isMisc",
              "type": "bool"
            },
            {
              "internalType": "bool",
              "name": "isConsumable",
              "type": "bool"
            },
            {
              "internalType": "bool",
              "name": "inShop",
              "type": "bool"
            },
            {
              "internalType": "uint256",
              "name": "increaseAttackSpeedPoints",
              "type": "uint256"
            },
            {
              "internalType": "uint256",
              "name": "reflectDamagePercent",
              "type": "uint256"
            },
            {
              "internalType": "uint256",
              "name": "restoreHPChance",
              "type": "uint256"
            },
            {
              "internalType": "uint256",
              "name": "restoreMPChance",
              "type": "uint256"
            },
            {
              "internalType": "uint256",
              "name": "doubleDamageChance",
              "type": "uint256"
            },
            {
              "internalType": "uint256",
              "name": "ignoreOpponentDefenseChance",
              "type": "uint256"
            },
            {
              "internalType": "uint256",
              "name": "lifeAfterMonsterIncrease",
              "type": "uint256"
            },
            {
              "internalType": "uint256",
              "name": "manaAfterMonsterIncrease",
              "type": "uint256"
            },
            {
              "internalType": "uint256",
              "name": "excellentDamageProbabilityIncrease",
              "type": "uint256"
            },
            {
              "internalType": "uint256",
              "name": "attackSpeedIncrease",
              "type": "uint256"
            },
            {
              "internalType": "uint256",
              "name": "attackLvl20",
              "type": "uint256"
            },
            {
              "internalType": "uint256",
              "name": "attackIncreasePercent",
              "type": "uint256"
            },
            {
              "internalType": "uint256",
              "name": "defenseSuccessRateIncrease",
              "type": "uint256"
            },
            {
              "internalType": "uint256",
              "name": "goldAfterMonsterIncrease",
              "type": "uint256"
            },
            {
              "internalType": "uint256",
              "name": "reflectDamage",
              "type": "uint256"
            },
            {
              "internalType": "uint256",
              "name": "maxLifeIncrease",
              "type": "uint256"
            },
            {
              "internalType": "uint256",
              "name": "maxManaIncrease",
              "type": "uint256"
            },
            {
              "internalType": "uint256",
              "name": "hpRecoveryRateIncrease",
              "type": "uint256"
            },
            {
              "internalType": "uint256",
              "name": "mpRecoveryRateIncrease",
              "type": "uint256"
            },
            {
              "internalType": "uint256",
              "name": "decreaseDamageRateIncrease",
              "type": "uint256"
            }
          ],
          "internalType": "struct ItemsExcellentAtts.ExcellentItemAtts",
          "name": "atts",
          "type": "tuple"
        }
      ],
      "name": "setTokenAttributes",
      "outputs": [],
      "stateMutability": "nonpayable",
      "type": "function"
    },
    {
      "inputs": [
        {
          "components": [
            {
              "internalType": "string",
              "name": "name",
              "type": "string"
            },
            {
              "internalType": "uint256",
              "name": "tokenId",
              "type": "uint256"
            },
            {
              "internalType": "uint256",
              "name": "itemLevel",
              "type": "uint256"
            },
            {
              "internalType": "uint256",
              "name": "maxLevel",
              "type": "uint256"
            },
            {
              "internalType": "uint256",
              "name": "additionalDamage",
              "type": "uint256"
            },
            {
              "internalType": "uint256",
              "name": "additionalDefense",
              "type": "uint256"
            },
            {
              "internalType": "uint256",
              "name": "fighterId",
              "type": "uint256"
            },
            {
              "internalType": "uint256",
              "name": "lastUpdBlock",
              "type": "uint256"
            },
            {
              "internalType": "uint256",
              "name": "itemRarityLevel",
              "type": "uint256"
            },
            {
              "internalType": "uint256",
              "name": "packSize",
              "type": "uint256"
            },
            {
              "internalType": "bool",
              "name": "luck",
              "type": "bool"
            },
            {
              "internalType": "bool",
              "name": "skill",
              "type": "bool"
            },
            {
              "internalType": "bool",
              "name": "isPackable",
              "type": "bool"
            },
            {
              "internalType": "bool",
              "name": "isBox",
              "type": "bool"
            },
            {
              "internalType": "bool",
              "name": "isWeapon",
              "type": "bool"
            },
            {
              "internalType": "bool",
              "name": "isArmour",
              "type": "bool"
            },
            {
              "internalType": "bool",
              "name": "isJewel",
              "type": "bool"
            },
            {
              "internalType": "bool",
              "name": "isWings",
              "type": "bool"
            },
            {
              "internalType": "bool",
              "name": "isMisc",
              "type": "bool"
            },
            {
              "internalType": "bool",
              "name": "isConsumable",
              "type": "bool"
            },
            {
              "internalType": "bool",
              "name": "inShop",
              "type": "bool"
            },
            {
              "internalType": "uint256",
              "name": "increaseAttackSpeedPoints",
              "type": "uint256"
            },
            {
              "internalType": "uint256",
              "name": "reflectDamagePercent",
              "type": "uint256"
            },
            {
              "internalType": "uint256",
              "name": "restoreHPChance",
              "type": "uint256"
            },
            {
              "internalType": "uint256",
              "name": "restoreMPChance",
              "type": "uint256"
            },
            {
              "internalType": "uint256",
              "name": "doubleDamageChance",
              "type": "uint256"
            },
            {
              "internalType": "uint256",
              "name": "ignoreOpponentDefenseChance",
              "type": "uint256"
            },
            {
              "internalType": "uint256",
              "name": "lifeAfterMonsterIncrease",
              "type": "uint256"
            },
            {
              "internalType": "uint256",
              "name": "manaAfterMonsterIncrease",
              "type": "uint256"
            },
            {
              "internalType": "uint256",
              "name": "excellentDamageProbabilityIncrease",
              "type": "uint256"
            },
            {
              "internalType": "uint256",
              "name": "attackSpeedIncrease",
              "type": "uint256"
            },
            {
              "internalType": "uint256",
              "name": "attackLvl20",
              "type": "uint256"
            },
            {
              "internalType": "uint256",
              "name": "attackIncreasePercent",
              "type": "uint256"
            },
            {
              "internalType": "uint256",
              "name": "defenseSuccessRateIncrease",
              "type": "uint256"
            },
            {
              "internalType": "uint256",
              "name": "goldAfterMonsterIncrease",
              "type": "uint256"
            },
            {
              "internalType": "uint256",
              "name": "reflectDamage",
              "type": "uint256"
            },
            {
              "internalType": "uint256",
              "name": "maxLifeIncrease",
              "type": "uint256"
            },
            {
              "internalType": "uint256",
              "name": "maxManaIncrease",
              "type": "uint256"
            },
            {
              "internalType": "uint256",
              "name": "hpRecoveryRateIncrease",
              "type": "uint256"
            },
            {
              "internalType": "uint256",
              "name": "mpRecoveryRateIncrease",
              "type": "uint256"
            },
            {
              "internalType": "uint256",
              "name": "decreaseDamageRateIncrease",
              "type": "uint256"
            }
          ],
          "internalType": "struct ItemsExcellentAtts.ExcellentItemAtts",
          "name": "excItem",
          "type": "tuple"
        }
      ],
      "name": "addExcellentOption",
      "outputs": [
        {
          "components": [
            {
              "internalType": "string",
              "name": "name",
              "type": "string"
            },
            {
              "internalType": "uint256",
              "name": "tokenId",
              "type": "uint256"
            },
            {
              "internalType": "uint256",
              "name": "itemLevel",
              "type": "uint256"
            },
            {
              "internalType": "uint256",
              "name": "maxLevel",
              "type": "uint256"
            },
            {
              "internalType": "uint256",
              "name": "additionalDamage",
              "type": "uint256"
            },
            {
              "internalType": "uint256",
              "name": "additionalDefense",
              "type": "uint256"
            },
            {
              "internalType": "uint256",
              "name": "fighterId",
              "type": "uint256"
            },
            {
              "internalType": "uint256",
              "name": "lastUpdBlock",
              "type": "uint256"
            },
            {
              "internalType": "uint256",
              "name": "itemRarityLevel",
              "type": "uint256"
            },
            {
              "internalType": "uint256",
              "name": "packSize",
              "type": "uint256"
            },
            {
              "internalType": "bool",
              "name": "luck",
              "type": "bool"
            },
            {
              "internalType": "bool",
              "name": "skill",
              "type": "bool"
            },
            {
              "internalType": "bool",
              "name": "isPackable",
              "type": "bool"
            },
            {
              "internalType": "bool",
              "name": "isBox",
              "type": "bool"
            },
            {
              "internalType": "bool",
              "name": "isWeapon",
              "type": "bool"
            },
            {
              "internalType": "bool",
              "name": "isArmour",
              "type": "bool"
            },
            {
              "internalType": "bool",
              "name": "isJewel",
              "type": "bool"
            },
            {
              "internalType": "bool",
              "name": "isWings",
              "type": "bool"
            },
            {
              "internalType": "bool",
              "name": "isMisc",
              "type": "bool"
            },
            {
              "internalType": "bool",
              "name": "isConsumable",
              "type": "bool"
            },
            {
              "internalType": "bool",
              "name": "inShop",
              "type": "bool"
            },
            {
              "internalType": "uint256",
              "name": "increaseAttackSpeedPoints",
              "type": "uint256"
            },
            {
              "internalType": "uint256",
              "name": "reflectDamagePercent",
              "type": "uint256"
            },
            {
              "internalType": "uint256",
              "name": "restoreHPChance",
              "type": "uint256"
            },
            {
              "internalType": "uint256",
              "name": "restoreMPChance",
              "type": "uint256"
            },
            {
              "internalType": "uint256",
              "name": "doubleDamageChance",
              "type": "uint256"
            },
            {
              "internalType": "uint256",
              "name": "ignoreOpponentDefenseChance",
              "type": "uint256"
            },
            {
              "internalType": "uint256",
              "name": "lifeAfterMonsterIncrease",
              "type": "uint256"
            },
            {
              "internalType": "uint256",
              "name": "manaAfterMonsterIncrease",
              "type": "uint256"
            },
            {
              "internalType": "uint256",
              "name": "excellentDamageProbabilityIncrease",
              "type": "uint256"
            },
            {
              "internalType": "uint256",
              "name": "attackSpeedIncrease",
              "type": "uint256"
            },
            {
              "internalType": "uint256",
              "name": "attackLvl20",
              "type": "uint256"
            },
            {
              "internalType": "uint256",
              "name": "attackIncreasePercent",
              "type": "uint256"
            },
            {
              "internalType": "uint256",
              "name": "defenseSuccessRateIncrease",
              "type": "uint256"
            },
            {
              "internalType": "uint256",
              "name": "goldAfterMonsterIncrease",
              "type": "uint256"
            },
            {
              "internalType": "uint256",
              "name": "reflectDamage",
              "type": "uint256"
            },
            {
              "internalType": "uint256",
              "name": "maxLifeIncrease",
              "type": "uint256"
            },
            {
              "internalType": "uint256",
              "name": "maxManaIncrease",
              "type": "uint256"
            },
            {
              "internalType": "uint256",
              "name": "hpRecoveryRateIncrease",
              "type": "uint256"
            },
            {
              "internalType": "uint256",
              "name": "mpRecoveryRateIncrease",
              "type": "uint256"
            },
            {
              "internalType": "uint256",
              "name": "decreaseDamageRateIncrease",
              "type": "uint256"
            }
          ],
          "internalType": "struct ItemsExcellentAtts.ExcellentItemAtts",
          "name": "newItem",
          "type": "tuple"
        }
      ],
      "stateMutability": "nonpayable",
      "type": "function"
    }
  ],
  "bytecode": "0x608034620001cf57601f6200234d38819003918201601f19168301926001600160401b0392909183851183861017620001b9578160209284926040978852833981010312620001cf57516001600160a01b0381169190829003620001cf576064600055601c6001556032600255603260035560c0601e91826004558260055560026006556001600755600060085562000097620001d4565b600f928184809352826020820152858882015285606082015260056080820152600360a08201520152600a9180835580600b5583600c5583600d556005600e5560038155806010558060c0620000ec620001d4565b602381526023602082015285898201528560608201528560808201528560a08201520152602360115560236012558260135582601455826015558260165560175584519061012082019082821090821117620001b95783916101009187528381526014602082015283878201528360608201528360808201528360a08201528360c08201528360e0820152015280601855601460195580601a5580601b5580601c5580601d55808255601f5560205560018060a01b03196009541617600955516121589081620001f58239f35b634e487b7160e01b600052604160045260246000fd5b600080fd5b6040519060e082016001600160401b03811183821017620001b95760405256fe6104a080604052600436101561001457600080fd5b600090813560e01c9081629df65b146112c95750806313d19950146112695780631f4f5a231461120457806331d5d1d7146110635780635c3c271d146109355780636d5433e61461090f578063740cf1dc1461088c5780637ae2b5c71461085f57806387c7ab5c146107975780639088d1401461071b578063a293d1e8146106e9578063a9ed8e2114610285578063b37217a414610210578063b416dad614610190578063d05c78da146101175763e6cb9013146100d157600080fd5b346101145760206101016100e43661132a565b6100f081839493612062565b928310159081610109575b506120a5565b604051908152f35b9050821015846100fb565b80fd5b5034610114576101263661132a565b8082029180830490159381831485171561017c5784801561014e575b602085610101886120a5565b909192945061016857506020926101019114923880610142565b634e487b7160e01b81526012600452602490fd5b634e487b7160e01b81526011600452602490fd5b5034610114576020366003190112610114576040906004358152602260205220805461020c600183015492600281015490600381015460048201549060066005840154930154936040519788978893909796959260c0959260e08601998652602086015260408501526060840152608083015260a08201520152565b0390f35b50346101145760203660031901126101145760206064604051828101906102798161026b33424360043544899391609495939185526020850152604084015260608301526001600160601b03199060601b1660808201520190565b03601f1981018352826113ae565b51902006604051908152f35b5034610114576040366003190112610114576024356001600160401b0381116106e5576102b690369060040161166d565b60095460405163843bd64160e01b81526004803590820152602092916001600160a01b0316908381602481855afa9081156106da5785916106a1575b501561066557610300611fc8565b508361030a611fc8565b83518152848401518582015260408401516040820152606084015160608201526080840151608082015260a084015160a082015260c084015160c082015260e084015160e0820152610100928385015184830152610120808601518184015261014092838701511515848201526101609586880151151587830152610180808901511515818401526101a090818a01511515828501526101c093848b01511515858201526101e08b015115156101e08201526102008b015115156102008201526102208b015115156102208201526102408b015115156102408201526102808b01511515610280820152863b156106615788948c93610280936040519c8d9b8c9a8b9963bef9eed960e01b8b5260043560048c0152604060248c015261043f8b6102a060448b519201526102e48d0190611454565b9988015160648c0152604088015160848c0152606088015160a48c0152608088015160c48c015260a088015160e48c015260c08801516101048c015260e08801516101248c01528701516101448b01528601516101648a0152850151151561018489015284015115156101a488015283015115156101c487015282015115156101e486015281015115156102048501526101e0810151151561022485015261020081015115156102448501526102208101511515610264850152610240810151151561028485015261026081015115156102a4850152015115156102c483015203925af1801561065657610625575b50610500816102a06007930151600435865260218552604086209081556102c082015160018201556102e08201516002820155610300820151600382015561032082015160048201556005610340830151910155610360810151602285526040862090815561038082015160018201556103a082015160028201556103c082015160038201556103e08201516004820155600561040083015191015560236104208201519452604085209384556104408101516001850155610460810151600285015561048081015160038501556104a081015160048501556104c081015160058501556104e08101516006850155015191015580f35b6001600160401b038194929411610642576040529161050061052e565b634e487b7160e01b82526041600452602482fd5b6040513d86823e3d90fd5b8880fd5b60405162461bcd60e51b8152600481018490526014602482015273151bdad95b88191bd95cc81b9bdd08195e1a5cdd60621b6044820152606490fd5b90508381813d83116106d3575b6106b881836113ae565b810103126106cf576106c990611e13565b386102f2565b8480fd5b503d6106ae565b6040513d87823e3d90fd5b5080fd5b5034610114576106f83661132a565b610707828294939411156120a5565b820391821161017c57602082604051908152f35b5034610114576020366003190112610114576040906004358152602160205220805461020c600183015492600281015490600381015460048201549060066005840154930154936040519788978893909796959260c0959260e08601998652602086015260408501526060840152608083015260a08201520152565b503461011457602036600319011261011457600435816001600160401b038211610114576107cc6108039236906004016113ea565b6107d46118a7565b5060018060a01b036009541660405180809581946321f1ead760e21b8352602060048401526024830190611454565b03915afa9081156108545790610825918361020c9492610831575b50506119cd565b60405191829182611479565b61084d92503d8091833e61084581836113ae565b810190611e20565b388061081e565b6040513d84823e3d90fd5b5034610114576020906108713661132a565b909150808210156108855750604051908152f35b9050610101565b50346101145760203660031901126101145760406101209160043581526023602052208054906001810154906002810154600382015460048301546005840154916006850154936008600787015496015496604051988952602089015260408801526060870152608086015260a085015260c084015260e0830152610100820152f35b5034610114576020906109213661132a565b909150808211156108855750604051908152f35b5034610114576020366003190112610114576004356001600160401b0381116106e5579061096a61020c92369060040161166d565b9081906109756118a7565b5060408301526101c082015115610c5c5750600190816101608201526109996118a7565b5060405191606460208401448152600b60408601524360608601524260808601526001600160601b03193360601b16948560a0820152609481526109dc81611393565b51902006601154601254916109f18383612062565b916109ff6013548094612062565b610a0c6014548092612062565b92610a31610a1d6015548096612062565b91610a2b6016548094612062565b90612085565b838111610bc65750866103608901525b879860646040516020810190448252600c60408201524360608201524260808201528360a082015260948152610a7681611393565b519020066017541015610a99575b50505050505050505060405191829182611479565b8697989950859691610b0086610b0086610b00610b0598999a9b610b006064610a2b99610ac46118a7565b506040516020810191448352600d604083015243606083015242608083015260a082015260948152610af581611393565b51902006998d612062565b612062565b94828611610b28575050505050506103608201525b388080808080808080610a84565b610b328184612062565b8611610b4957505050505050610380820152610b1a565b610b5785610b008386612062565b8611610b6e575050505050506103a0820152610b1a565b610b8082610b0087610b008588612062565b8611610b97575050505050506103c0820152610b1a565b610bab94610b00610b0092610b0095612062565b10610bbb576103e0820152610b1a565b610400820152610b1a565b610bd08785612062565b8111610be3575086610380890152610a41565b610bf186610b008987612062565b8111610c045750866103a0890152610a41565b610c1683610b0088610b008b89612062565b8111610c295750866103c0890152610a41565b610c3f85610b0085610b008a610b008d8b612062565b10610c5057866103e0890152610a41565b86610400890152610a41565b6101e0820151610c6d575b50610825565b90610c766118a7565b5060646040516020810190448252600e60408201524360608201524260808201526001600160601b03193360601b1660a082015260948152610cb781611393565b519020069160185460195492610ccd8483612062565b90610cdb601a548093612062565b610cf8610ceb601b548093612062565b601c549081608052612062565b610d05601d548092612062565b92610d24610d16601e548096612062565b99610a2b601f54809c612062565b868111610f51575060016104208201525b9660646040516020810190448252600f60408201524360608201524260808201526001600160601b03193360601b1660a082015260948152610d7681611393565b519020066020541015610d91575b5050505050505090610c67565b859750610a2b859799610b0086610b0086610b00610e0f989a9c610b008b610b008b9d9f610dbd6118a7565b50610b0060646040516020810190448252601060408201524360608201524260808201526001600160601b03193360601b1660a082015260948152610e0181611393565b519020069d60805196612062565b95808711610e34575050505050505060016104208201525b8038808080808080610d84565b610e3e8282612062565b8711610e5857505050505050506001610440820152610e27565b610e6686610b008484612062565b8711610e8057505050505050506001610460820152610e27565b610e9284610b0088610b008686612062565b8711610eac57505050505050506001610480820152610e27565b610ec4608051610b0086610b008a610b008888612062565b8711610ede575050505050505060016104a0820152610e27565b610efa83610b00608051610b0088610b008c610b008a8a612062565b8711610f14575050505050505060016104c0820152610e27565b610b00610b0094610b00610f3298610b00610b009660805196612062565b10610f445760016104e0820152610e27565b6001610500820152610e27565b610f5b8988612062565b8111610f6f57506001610440820152610d35565b610f7d86610b008b8a612062565b8111610f9157506001610460820152610d35565b88878786610fa781610b0084610b008888612062565b8511610fbf5750505050506001610480820152610d35565b610b00610b0092610b00610fd69660805196612062565b8111610fea575060016104a0820152610d35565b858585858c8b61100c83610b00608051610b0088610b008c610b008a8a612062565b8711611026575050505050505060016104c0820152610d35565b610b00610b0094610b0061104498610b00610b009660805196612062565b106110565760016104e0820152610d35565b6001610500820152610d35565b5034610114576003196020368201126106e557600435906001600160401b0390818311611200576102a09083360301126111fc57604051926110a484611345565b82600401359182116101145761020c610825856111f1610284876110cd368983016004016113ea565b84526024810135602085015260448101356040850152606481013560608501526084810135608085015260a481013560a085015260c481013560c085015260e481013560e085015261010481013561010085015261012481013561012085015261113a6101448201611660565b61014085015261114d6101648201611660565b6101608501526111606101848201611660565b6101808501526111736101a48201611660565b6101a08501526111866101c48201611660565b6101c08501526111996101e48201611660565b6101e08501526111ac6102048201611660565b6102008501526111bf6102248201611660565b6102208501526111d26102448201611660565b6102408501526111e56102648201611660565b61026085015201611660565b6102808201526119cd565b8280fd5b8380fd5b50346101145760203660031901126101145761121e6118a7565b50600954604051631f4f5a2360e01b81526004803590820152908290829060249082906001600160a01b03165afa9081156108545790610825918361020c94926108315750506119cd565b5034610114576040366003190112610114576001600160401b036004358181116111fc5761129b9036906004016113ea565b916024359182116101145760206112bf846112b936600487016113ea565b906120c2565b6040519015158152f35b8234610114576020610101836112de3661132a565b4485840190815260208101929092524360408301524260608084019190915233901b6bffffffffffffffffffffffff1916608083015291611322816094840161026b565b519020612085565b6040906003190112611340576004359060243590565b600080fd5b6102a081019081106001600160401b0382111761136157604052565b634e487b7160e01b600052604160045260246000fd5b61052081019081106001600160401b0382111761136157604052565b60c081019081106001600160401b0382111761136157604052565b90601f801991011681019081106001600160401b0382111761136157604052565b6001600160401b03811161136157601f01601f191660200190565b81601f8201121561134057803590611401826113cf565b9261140f60405194856113ae565b8284526020838301011161134057816000926020809301838601378301015290565b60005b8381106114445750506000910152565b8181015183820152602001611434565b9060209161146d81518092818552858086019101611431565b601f01601f1916010190565b60208152815161149761052091826020850152610540840190611454565b92602081015160408401526040810151606084015260608101516080840152608081015160a084015260a081015160c084015260c081015160e084015260e0810151610100908185015281015161012090818501528101516101409081850152810151151561016090818501528101511515610180908185015281015115156101a0908185015281015115156101c0908185015281015115156101e09081850152810151151561020090818501528101511515610220908185015281015115156102409081850152810151151561026090818501528101511515610280908185015281015115156102a090818501528101516102c090818501528101516102e09081850152810151610300908185015281015161032090818501528101516103409081850152810151610360908185015281015161038090818501528101516103a090818501528101516103c090818501528101516103e09081850152810151610400908185015281015161042090818501528101516104409081850152810151610460908185015281015161048090818501528101516104a090818501528101516104c090818501528101516104e09081850152810151906105009182850152015191015290565b3590811515820361134057565b91909161052081840312611340576040519061168882611377565b81938135906001600160401b038211611340576116a69183016113ea565b82526020810135602083015260408101356040830152606081013560608301526080810135608083015260a081013560a083015260c081013560c083015260e081013560e083015261010080820135908301526101208082013590830152610140611712818301611660565b90830152610160611724818301611660565b90830152610180611736818301611660565b908301526101a0611748818301611660565b908301526101c061175a818301611660565b908301526101e061176c818301611660565b9083015261020061177e818301611660565b90830152610220611790818301611660565b908301526102406117a2818301611660565b908301526102606117b4818301611660565b908301526102806117c6818301611660565b908301526102a080820135908301526102c080820135908301526102e08082013590830152610300808201359083015261032080820135908301526103408082013590830152610360808201359083015261038080820135908301526103a080820135908301526103c080820135908301526103e08082013590830152610400808201359083015261042080820135908301526104408082013590830152610460808201359083015261048080820135908301526104a080820135908301526104c080820135908301526104e0808201359083015261050080910135910152565b604051906118b482611377565b81606081526105006000918260208201528260408201528260608201528260808201528260a08201528260c08201528260e08201528261010082015282610120820152826101408201528261016082015282610180820152826101a0820152826101c0820152826101e08201528261020082015282610220820152826102408201528261026082015282610280820152826102a0820152826102c0820152826102e08201528261030082015282610320820152826103408201528261036082015282610380820152826103a0820152826103c0820152826103e08201528261040082015282610420820152826104408201528261046082015282610480820152826104a0820152826104c0820152826104e08201520152565b60a0526119d86118a7565b5060a051805161034052602081015190816103805260408101516103605260608101516103a05260808101516103c05260a081015160c082015160e08301516101008401516101208501516101408601511515916101608701511515936101808801511515956101a089015115159760206101c08b015115159a6101e081015115159c610200820151151561048052610220820151151561044052610240820151151561046052610260820151151561040052610280820151151561042052600052602182526040600020546102a052818101516000526001604060002001546102c052818101516000526002604060002001546102e0528181015160005260036040600020015461030052818101516000526004604060002001546103205281810151600052600560406000200154610240528181015160005260228252604060002054610280528181015160005260016040600020015461026052818101516000526002604060002001546101e05281810151600052600360406000200154610220528181015160005260046040600020015461020052818101516000526005604060002001546101c052818101516000526023825260406000205461012052818101516000526001604060002001546101405281810151600052600260406000200154610100528181015160005260036040600020015461018052818101516000526004604060002001546101a05281810151600052600560406000200154610160528181015160005260066040600020015460c052015160005260076040600020015460e052611c32604051806103e052611377565b610340516103e051526103805160206103e05101526103605160406103e05101526103a05160606103e05101526103c05160806103e051015260a06103e051015260c06103e051015260e06103e05101526101006103e05101526101206103e05101526101406103e05101526101606103e05101526101806103e05101526101a06103e05101526101c06103e05101526101e06103e0510152610480516102006103e0510152610440516102206103e0510152610460516102406103e0510152610400516102606103e0510152610420516102806103e05101526102a0516102a06103e05101526102c0516102c06103e05101526102e0516102e06103e0510152610300516103006103e0510152610320516103206103e0510152610240516103406103e0510152610280516103606103e0510152610260516103806103e05101526101e0516103a06103e0510152610220516103c06103e0510152610200516103e0805101526101c0516104006103e0510152610120516104206103e0510152610140516104406103e0510152610100516104606103e0510152610180516104806103e05101526101a0516104a06103e0510152610160516104c06103e051015260c0516104e06103e051015260e0516105006103e05101526103e05190565b5190811515820361134057565b90602080838303126113405782516001600160401b03938482116113405701916102a0838203126113405760405193611e5885611345565b835190811161134057830181601f82011215611340578051611e79816113cf565b92611e8760405194856113ae565b81845284828401011161134057611ea391848085019101611431565b8352808201519083015260408101516040830152606081015160608301526080810151608083015260a081015160a083015260c081015160c083015260e081015160e083015261010080820151908301526101208082015190830152610140611f0d818301611e13565b90830152610160611f1f818301611e13565b90830152610180611f31818301611e13565b908301526101a0611f43818301611e13565b908301526101c0611f55818301611e13565b908301526101e0611f67818301611e13565b90830152610200611f79818301611e13565b90830152610220611f8b818301611e13565b90830152610240611f9d818301611e13565b90830152610260611faf818301611e13565b90830152611fc1610280809201611e13565b9082015290565b60405190611fd582611345565b81606081526102806000918260208201528260408201528260608201528260808201528260a08201528260c08201528260e08201528261010082015282610120820152826101408201528261016082015282610180820152826101a0820152826101c0820152826101e0820152826102008201528261022082015282610240820152826102608201520152565b9190820180921161206f57565b634e487b7160e01b600052601160045260246000fd5b811561208f570690565b634e487b7160e01b600052601260045260246000fd5b156120ac57565b634e487b7160e01b600052600160045260246000fd5b90604051916020926120f08482816120e38183019687815193849201611431565b81010380845201826113ae565b519020916121106040519182816120e38183019687815193849201611431565b5190200361211d57600190565b60009056fea2646970667358221220c1bb7b7bc0340fb3b9ccb8f5ce9ba9874d372fb70241dd83f4bbd31d010d40da64736f6c63430008130033",
  "immutableReferences": {},
  "source": "// SPDX-License-Identifier: MIT\npragma solidity ^0.8.18;\n\nimport \"./SafeMath.sol\";\nimport \"./ItemsExcellentAtts.sol\";\nimport \"./Items.sol\";\n\ncontract ItemsExcellent is ItemsExcellentAtts, SafeMath {  \n    Items private _items;\n\n    constructor(address itemsAddress) {\n        _items = Items(itemsAddress);\n    }\n\n    struct WingsExcOptions {\n        uint256 increaseAttackSpeedPoints;\n        uint256 reflectDamagePercent;\n        uint256 restoreHPChance;\n        uint256 restoreMPChance;\n        uint256 doubleDamageChance;\n        uint256 ignoreOpponentDefenseChance;\n\n        uint256 doubleOptionChance;\n    }\n\n    WingsExcOptions WingsExcOptionsDropRates = WingsExcOptions({\n        increaseAttackSpeedPoints: 15,\n        reflectDamagePercent: 15,\n        restoreHPChance: 30,\n        restoreMPChance: 30,\n        doubleDamageChance: 5,\n        ignoreOpponentDefenseChance: 3,\n\n        doubleOptionChance: 15\n    });\n\n\n    struct WeaponsExcOptions {\n        uint256 lifeAfterMonsterIncrease;\n        uint256 manaAfterMonsterIncrease;\n        uint256 excellentDamageProbabilityIncrease;\n        uint256 attackSpeedIncrease;\n        uint256 attackLvl20; \n        uint256 attackIncreasePercent; \n\n        uint256 doubleOptionChance;\n    }\n\n    WeaponsExcOptions WeaponsExcOptionsDropRates = WeaponsExcOptions({\n        lifeAfterMonsterIncrease: 35,\n        manaAfterMonsterIncrease: 35,\n        excellentDamageProbabilityIncrease: 10,\n        attackSpeedIncrease: 10,\n        attackLvl20: 10,\n        attackIncreasePercent: 10,\n\n        doubleOptionChance: 15\n    });\n\n    struct ArmoursExcOptions {\n        uint256 defenseSuccessRateIncrease;\n        uint256 goldAfterMonsterIncrease;\n        uint256 reflectDamage;\n        uint256 maxLifeIncrease;\n        uint256 maxManaIncrease;\n        uint256 hpRecoveryRateIncrease;\n        uint256 mpRecoveryRateIncrease;\n        uint256 decreaseDamageRateIncrease;\n\n        uint256 doubleOptionChance;\n    }\n\n    ArmoursExcOptions ArmourExcOptionsDropRates = ArmoursExcOptions({\n        defenseSuccessRateIncrease: 10,\n        goldAfterMonsterIncrease: 20,\n        reflectDamage: 10,\n        maxLifeIncrease: 10,\n        maxManaIncrease: 10,\n        hpRecoveryRateIncrease: 10,\n        mpRecoveryRateIncrease: 10,\n        decreaseDamageRateIncrease: 10,\n\n        doubleOptionChance: 30\n    });\n\n\n    mapping (uint256 => WingsExcOptions) public WingsExcOpts;\n    mapping (uint256 => WeaponsExcOptions) public WeaponsExcOpts;\n    mapping (uint256 => ArmoursExcOptions) public ArmoursExcOpts;\n\n    function convertToExcellent(ItemAttributes memory item) public view returns (ExcellentItemAtts memory) {\n\n        // Initialize the ExcellentItemAtts struct\n        ExcellentItemAtts memory excellentItem = ExcellentItemAtts({\n            name: item.name,\n            tokenId: item.tokenId,\n            itemLevel: item.itemLevel,\n            maxLevel: item.maxLevel,\n            additionalDamage: item.additionalDamage,\n            additionalDefense: item.additionalDefense,\n            fighterId: item.fighterId,\n            lastUpdBlock: item.lastUpdBlock,\n            itemRarityLevel: item.itemRarityLevel,\n            packSize: item.packSize,\n            luck: item.luck,\n            skill: item.skill,\n            isPackable: item.isPackable,\n            isBox: item.isBox,\n            isWeapon: item.isWeapon,\n            isArmour: item.isArmour,\n            isJewel: item.isJewel,\n            isWings: item.isWings,\n            isMisc: item.isMisc,\n            isConsumable: item.isConsumable,\n            inShop: item.inShop,\n\n            // Excellent attributes\n            increaseAttackSpeedPoints: WingsExcOpts[item.tokenId].increaseAttackSpeedPoints,\n            reflectDamagePercent: WingsExcOpts[item.tokenId].reflectDamagePercent,\n            restoreHPChance: WingsExcOpts[item.tokenId].restoreHPChance,\n            restoreMPChance: WingsExcOpts[item.tokenId].restoreMPChance,\n            doubleDamageChance: WingsExcOpts[item.tokenId].doubleDamageChance,\n            ignoreOpponentDefenseChance: WingsExcOpts[item.tokenId].ignoreOpponentDefenseChance,\n\n            lifeAfterMonsterIncrease: WeaponsExcOpts[item.tokenId].lifeAfterMonsterIncrease,\n            manaAfterMonsterIncrease: WeaponsExcOpts[item.tokenId].manaAfterMonsterIncrease,\n            excellentDamageProbabilityIncrease: WeaponsExcOpts[item.tokenId].excellentDamageProbabilityIncrease,\n            attackSpeedIncrease: WeaponsExcOpts[item.tokenId].attackSpeedIncrease,\n            attackLvl20: WeaponsExcOpts[item.tokenId].attackLvl20,\n            attackIncreasePercent: WeaponsExcOpts[item.tokenId].attackIncreasePercent,\n\n            defenseSuccessRateIncrease: ArmoursExcOpts[item.tokenId].defenseSuccessRateIncrease,\n            goldAfterMonsterIncrease: ArmoursExcOpts[item.tokenId].goldAfterMonsterIncrease,\n            reflectDamage: ArmoursExcOpts[item.tokenId].reflectDamage,\n            maxLifeIncrease: ArmoursExcOpts[item.tokenId].maxLifeIncrease,\n            maxManaIncrease: ArmoursExcOpts[item.tokenId].maxManaIncrease,\n            hpRecoveryRateIncrease: ArmoursExcOpts[item.tokenId].hpRecoveryRateIncrease,\n            mpRecoveryRateIncrease: ArmoursExcOpts[item.tokenId].mpRecoveryRateIncrease,\n            decreaseDamageRateIncrease: ArmoursExcOpts[item.tokenId].decreaseDamageRateIncrease\n        });\n\n        return excellentItem;\n    }\n\n\n    function assignExcellentAtts(ExcellentItemAtts memory a, uint256 tokenId) internal returns (ExcellentItemAtts memory) {\n        a.increaseAttackSpeedPoints = WingsExcOpts[tokenId].increaseAttackSpeedPoints;\n        a.reflectDamagePercent = WingsExcOpts[tokenId].reflectDamagePercent;\n        a.restoreHPChance = WingsExcOpts[tokenId].restoreHPChance;\n        a.restoreMPChance = WingsExcOpts[tokenId].restoreMPChance;\n        a.doubleDamageChance = WingsExcOpts[tokenId].doubleDamageChance;\n        a.ignoreOpponentDefenseChance = WingsExcOpts[tokenId].ignoreOpponentDefenseChance;\n\n\n        a.lifeAfterMonsterIncrease = WeaponsExcOpts[tokenId].lifeAfterMonsterIncrease;\n        a.manaAfterMonsterIncrease = WeaponsExcOpts[tokenId].manaAfterMonsterIncrease;\n        a.excellentDamageProbabilityIncrease = WeaponsExcOpts[tokenId].excellentDamageProbabilityIncrease;\n        a.attackSpeedIncrease = WeaponsExcOpts[tokenId].attackSpeedIncrease;\n        a.attackLvl20 = WeaponsExcOpts[tokenId].attackLvl20;\n        a.attackIncreasePercent = WeaponsExcOpts[tokenId].attackIncreasePercent;\n\n\n        a.defenseSuccessRateIncrease = ArmoursExcOpts[tokenId].defenseSuccessRateIncrease;\n        a.goldAfterMonsterIncrease = ArmoursExcOpts[tokenId].goldAfterMonsterIncrease;\n        a.reflectDamage = ArmoursExcOpts[tokenId].reflectDamage;\n        a.maxLifeIncrease = ArmoursExcOpts[tokenId].maxLifeIncrease;\n        a.maxManaIncrease = ArmoursExcOpts[tokenId].maxManaIncrease;\n        a.hpRecoveryRateIncrease = ArmoursExcOpts[tokenId].hpRecoveryRateIncrease;\n        a.mpRecoveryRateIncrease = ArmoursExcOpts[tokenId].mpRecoveryRateIncrease;\n        a.decreaseDamageRateIncrease = ArmoursExcOpts[tokenId].decreaseDamageRateIncrease;\n\n        return a;\n    }\n\n    function convertToItemAttributes(ExcellentItemAtts memory eia) internal pure returns (ItemAttributes memory) {\n        ItemAttributes memory ia;\n\n        ia.name = eia.name;\n        ia.tokenId = eia.tokenId;\n        ia.itemLevel = eia.itemLevel;\n        ia.maxLevel = eia.maxLevel;\n\n        ia.additionalDamage = eia.additionalDamage;\n        ia.additionalDefense = eia.additionalDefense;\n\n        ia.fighterId = eia.fighterId;\n        ia.lastUpdBlock = eia.lastUpdBlock;\n        ia.itemRarityLevel = eia.itemRarityLevel;\n\n        ia.packSize = eia.packSize;\n\n        ia.luck = eia.luck;\n        ia.skill = eia.skill;\n        ia.isPackable = eia.isPackable;\n\n        ia.isBox = eia.isBox;\n        ia.isWeapon = eia.isWeapon;\n        ia.isArmour = eia.isArmour;\n        ia.isJewel = eia.isJewel;\n        ia.isWings = eia.isWings;\n        ia.isMisc = eia.isMisc;\n        ia.inShop = eia.inShop;\n\n        return ia;\n    }\n\n\n    function reverseAssignExcellentAtts(uint256 tokenId, ExcellentItemAtts memory a) internal {\n        WingsExcOpts[tokenId].increaseAttackSpeedPoints = a.increaseAttackSpeedPoints;\n        WingsExcOpts[tokenId].reflectDamagePercent = a.reflectDamagePercent;\n        WingsExcOpts[tokenId].restoreHPChance = a.restoreHPChance;\n        WingsExcOpts[tokenId].restoreMPChance = a.restoreMPChance;\n        WingsExcOpts[tokenId].doubleDamageChance = a.doubleDamageChance;\n        WingsExcOpts[tokenId].ignoreOpponentDefenseChance = a.ignoreOpponentDefenseChance;\n\n        WeaponsExcOpts[tokenId].lifeAfterMonsterIncrease = a.lifeAfterMonsterIncrease;\n        WeaponsExcOpts[tokenId].manaAfterMonsterIncrease = a.manaAfterMonsterIncrease;\n        WeaponsExcOpts[tokenId].excellentDamageProbabilityIncrease = a.excellentDamageProbabilityIncrease;\n        WeaponsExcOpts[tokenId].attackSpeedIncrease = a.attackSpeedIncrease;\n        WeaponsExcOpts[tokenId].attackLvl20 = a.attackLvl20;\n        WeaponsExcOpts[tokenId].attackIncreasePercent = a.attackIncreasePercent;\n\n        ArmoursExcOpts[tokenId].defenseSuccessRateIncrease = a.defenseSuccessRateIncrease;\n        ArmoursExcOpts[tokenId].goldAfterMonsterIncrease = a.goldAfterMonsterIncrease;\n        ArmoursExcOpts[tokenId].reflectDamage = a.reflectDamage;\n        ArmoursExcOpts[tokenId].maxLifeIncrease = a.maxLifeIncrease;\n        ArmoursExcOpts[tokenId].maxManaIncrease = a.maxManaIncrease;\n        ArmoursExcOpts[tokenId].hpRecoveryRateIncrease = a.hpRecoveryRateIncrease;\n        ArmoursExcOpts[tokenId].mpRecoveryRateIncrease = a.mpRecoveryRateIncrease;\n        ArmoursExcOpts[tokenId].decreaseDamageRateIncrease = a.decreaseDamageRateIncrease;\n    }\n\n\n\n\n    function getItemAttributes(string memory itemName) external returns (ExcellentItemAtts memory) {\n        ItemAttributes memory itemAtts = _items.getItemAttributes(itemName);\n        return convertToExcellent(itemAtts);\n    }\n\n    function getTokenAttributes(uint256 tokenId) external returns (ExcellentItemAtts memory) {\n        ItemAttributes memory tokenAtts = _items.getTokenAttributes(tokenId);\n\n        return convertToExcellent(tokenAtts);\n    }\n\n    function setTokenAttributes(uint256 tokenId, ExcellentItemAtts memory atts) external {\n        require(_items.itemExists(tokenId), \"Token does not exist\");\n\n        ItemAttributes memory baseAtts = convertToItemAttributes(atts);\n        _items.setTokenAttributes(tokenId, baseAtts);\n        reverseAssignExcellentAtts(tokenId, atts);\n    }\n\n\n    function getRandomArmourExcOption(ExcellentItemAtts memory item,  uint256 seed) internal returns (ExcellentItemAtts memory) {\n        uint256 randomNumber = getRandomNumber(seed);\n        uint256 totalProbability = ArmourExcOptionsDropRates.defenseSuccessRateIncrease +\n            ArmourExcOptionsDropRates.goldAfterMonsterIncrease +\n            ArmourExcOptionsDropRates.reflectDamage +\n            ArmourExcOptionsDropRates.maxLifeIncrease +\n            ArmourExcOptionsDropRates.maxManaIncrease +\n            ArmourExcOptionsDropRates.hpRecoveryRateIncrease +\n            ArmourExcOptionsDropRates.mpRecoveryRateIncrease +\n            ArmourExcOptionsDropRates.decreaseDamageRateIncrease;\n        \n\n        uint256 randomIndex = randomNumber % totalProbability;\n\n        if (randomIndex <= ArmourExcOptionsDropRates.defenseSuccessRateIncrease) {\n            item.defenseSuccessRateIncrease = 1;\n        } else if (randomIndex <= ArmourExcOptionsDropRates.defenseSuccessRateIncrease \n            + ArmourExcOptionsDropRates.goldAfterMonsterIncrease) {\n            item.goldAfterMonsterIncrease = 1;\n        } else if (randomIndex <= ArmourExcOptionsDropRates.defenseSuccessRateIncrease \n            + ArmourExcOptionsDropRates.goldAfterMonsterIncrease\n            + ArmourExcOptionsDropRates.reflectDamage) {\n            item.reflectDamage = 1;\n        } else if (randomIndex <= ArmourExcOptionsDropRates.defenseSuccessRateIncrease \n            + ArmourExcOptionsDropRates.goldAfterMonsterIncrease\n            + ArmourExcOptionsDropRates.reflectDamage\n            + ArmourExcOptionsDropRates.maxLifeIncrease) {\n            item.maxLifeIncrease = 1;\n        } else if (randomIndex <= ArmourExcOptionsDropRates.defenseSuccessRateIncrease \n            + ArmourExcOptionsDropRates.goldAfterMonsterIncrease\n            + ArmourExcOptionsDropRates.reflectDamage\n            + ArmourExcOptionsDropRates.maxLifeIncrease\n            + ArmourExcOptionsDropRates.maxManaIncrease) {\n            item.maxManaIncrease = 1;\n        } else if (randomIndex <= ArmourExcOptionsDropRates.defenseSuccessRateIncrease \n            + ArmourExcOptionsDropRates.goldAfterMonsterIncrease\n            + ArmourExcOptionsDropRates.reflectDamage\n            + ArmourExcOptionsDropRates.maxLifeIncrease\n            + ArmourExcOptionsDropRates.maxManaIncrease\n            + ArmourExcOptionsDropRates.hpRecoveryRateIncrease) {\n            item.hpRecoveryRateIncrease = 1;\n        } else if (randomIndex <= ArmourExcOptionsDropRates.defenseSuccessRateIncrease \n            + ArmourExcOptionsDropRates.goldAfterMonsterIncrease\n            + ArmourExcOptionsDropRates.reflectDamage\n            + ArmourExcOptionsDropRates.maxLifeIncrease\n            + ArmourExcOptionsDropRates.maxManaIncrease\n            + ArmourExcOptionsDropRates.hpRecoveryRateIncrease\n            + ArmourExcOptionsDropRates.mpRecoveryRateIncrease) {\n            item.mpRecoveryRateIncrease = 1;\n        } else {\n            item.decreaseDamageRateIncrease = 1;\n        }\n\n        return item;\n    }\n\n\n\n    function addExcellentOption(ExcellentItemAtts memory excItem) external returns (ExcellentItemAtts memory newItem) {\n\n\n        excItem.itemLevel = 0;\n        if (excItem.isWeapon) {\n            excItem.skill = true;\n            // choose from weapon exc options            \n            excItem = getRandomWeaponExcOption(excItem, 11);\n            if (getRandomNumber(12) <= WeaponsExcOptionsDropRates.doubleOptionChance) {\n                excItem = getRandomWeaponExcOption(excItem, 13);\n            }\n        } else if (excItem.isArmour) {\n            // choose from armout exc options\n            excItem = getRandomArmourExcOption(excItem, 14);\n            if (getRandomNumber(15) <= ArmourExcOptionsDropRates.doubleOptionChance) {\n                excItem = getRandomArmourExcOption(excItem, 16);\n            }\n        }\n\n        return excItem;\n    }\n\n    function getRandomWeaponExcOption(ExcellentItemAtts memory item,  uint256 seed) internal returns (ExcellentItemAtts memory) {\n        uint256 randomNumber = getRandomNumber(seed);\n        uint256 totalProbability = WeaponsExcOptionsDropRates.lifeAfterMonsterIncrease +\n            WeaponsExcOptionsDropRates.manaAfterMonsterIncrease +\n            WeaponsExcOptionsDropRates.excellentDamageProbabilityIncrease +\n            WeaponsExcOptionsDropRates.attackSpeedIncrease +\n            WeaponsExcOptionsDropRates.attackLvl20 +\n            WeaponsExcOptionsDropRates.attackIncreasePercent;\n        \n\n        uint256 randomIndex = randomNumber % totalProbability;\n\n        if (randomIndex <= WeaponsExcOptionsDropRates.lifeAfterMonsterIncrease) {\n            item.lifeAfterMonsterIncrease = 1;\n        } else if (randomIndex <= WeaponsExcOptionsDropRates.lifeAfterMonsterIncrease \n            + WeaponsExcOptionsDropRates.manaAfterMonsterIncrease) {\n            item.manaAfterMonsterIncrease = 1;\n        } else if (randomIndex <= WeaponsExcOptionsDropRates.lifeAfterMonsterIncrease \n            + WeaponsExcOptionsDropRates.manaAfterMonsterIncrease\n            + WeaponsExcOptionsDropRates.excellentDamageProbabilityIncrease) {\n            item.excellentDamageProbabilityIncrease = 1;\n        } else if (randomIndex <= WeaponsExcOptionsDropRates.lifeAfterMonsterIncrease \n            + WeaponsExcOptionsDropRates.manaAfterMonsterIncrease\n            + WeaponsExcOptionsDropRates.excellentDamageProbabilityIncrease\n            + WeaponsExcOptionsDropRates.attackSpeedIncrease) {\n            item.attackSpeedIncrease = 1;\n        } else if (randomIndex <= WeaponsExcOptionsDropRates.lifeAfterMonsterIncrease \n            + WeaponsExcOptionsDropRates.manaAfterMonsterIncrease\n            + WeaponsExcOptionsDropRates.excellentDamageProbabilityIncrease\n            + WeaponsExcOptionsDropRates.attackSpeedIncrease\n            + WeaponsExcOptionsDropRates.attackLvl20 ) {\n            item.attackLvl20 = 1;\n        } else {\n            item.attackIncreasePercent = 1;\n        }\n\n        return item;\n    }\n\n}",
  "sourcePath": "/Users/max/Documents/prog/game-contracts/contracts/ItemsExcellent.sol",
  "compiler": {
    "name": "solc",
    "version": "0.8.19+commit.7dd6d404.Emscripten.clang"
  },
  "schemaVersion": "3.4.13",
  "updatedAt": "2023-08-09T04:15:28.900Z",
  "networkType": "ethereum",
  "devdoc": {
    "kind": "dev",
    "methods": {},
    "version": 1
  },
  "userdoc": {
    "kind": "user",
    "methods": {},
    "version": 1
  }
}