{
  "contractName": "Items",
  "abi": [
    {
      "inputs": [
        {
          "internalType": "address",
          "name": "fighterHelperContract",
          "type": "address"
        },
        {
          "internalType": "address",
          "name": "moneyHelperContract",
          "type": "address"
        }
      ],
      "stateMutability": "nonpayable",
      "type": "constructor"
    },
    {
      "anonymous": false,
      "inputs": [
        {
          "indexed": true,
          "internalType": "address",
          "name": "owner",
          "type": "address"
        },
        {
          "indexed": true,
          "internalType": "address",
          "name": "approved",
          "type": "address"
        },
        {
          "indexed": true,
          "internalType": "uint256",
          "name": "tokenId",
          "type": "uint256"
        }
      ],
      "name": "Approval",
      "type": "event"
    },
    {
      "anonymous": false,
      "inputs": [
        {
          "indexed": true,
          "internalType": "address",
          "name": "owner",
          "type": "address"
        },
        {
          "indexed": true,
          "internalType": "address",
          "name": "operator",
          "type": "address"
        },
        {
          "indexed": false,
          "internalType": "bool",
          "name": "approved",
          "type": "bool"
        }
      ],
      "name": "ApprovalForAll",
      "type": "event"
    },
    {
      "anonymous": false,
      "inputs": [
        {
          "indexed": false,
          "internalType": "uint256",
          "name": "rarityLevel",
          "type": "uint256"
        },
        {
          "components": [
            {
              "internalType": "uint256",
              "name": "weaponsDropRate",
              "type": "uint256"
            },
            {
              "internalType": "uint256",
              "name": "armoursDropRate",
              "type": "uint256"
            },
            {
              "internalType": "uint256",
              "name": "jewelsDropRate",
              "type": "uint256"
            },
            {
              "internalType": "uint256",
              "name": "miscDropRate",
              "type": "uint256"
            },
            {
              "internalType": "uint256",
              "name": "boxDropRate",
              "type": "uint256"
            },
            {
              "internalType": "uint256",
              "name": "excDropRate",
              "type": "uint256"
            },
            {
              "internalType": "uint256",
              "name": "boxId",
              "type": "uint256"
            },
            {
              "internalType": "uint256",
              "name": "minItemLevel",
              "type": "uint256"
            },
            {
              "internalType": "uint256",
              "name": "maxItemLevel",
              "type": "uint256"
            },
            {
              "internalType": "uint256",
              "name": "maxAddPoints",
              "type": "uint256"
            },
            {
              "internalType": "uint256",
              "name": "blockCrated",
              "type": "uint256"
            }
          ],
          "indexed": false,
          "internalType": "struct Items.DropParams",
          "name": "params",
          "type": "tuple"
        }
      ],
      "name": "BoxDropParametersChange",
      "type": "event"
    },
    {
      "anonymous": false,
      "inputs": [
        {
          "indexed": false,
          "internalType": "uint256",
          "name": "tokenId",
          "type": "uint256"
        },
        {
          "indexed": false,
          "internalType": "uint256",
          "name": "rarityLevel",
          "type": "uint256"
        },
        {
          "indexed": false,
          "internalType": "address",
          "name": "owner",
          "type": "address"
        }
      ],
      "name": "BoxOppened",
      "type": "event"
    },
    {
      "anonymous": false,
      "inputs": [
        {
          "indexed": false,
          "internalType": "uint256",
          "name": "rarityLevel",
          "type": "uint256"
        },
        {
          "components": [
            {
              "internalType": "uint256",
              "name": "weaponsDropRate",
              "type": "uint256"
            },
            {
              "internalType": "uint256",
              "name": "armoursDropRate",
              "type": "uint256"
            },
            {
              "internalType": "uint256",
              "name": "jewelsDropRate",
              "type": "uint256"
            },
            {
              "internalType": "uint256",
              "name": "miscDropRate",
              "type": "uint256"
            },
            {
              "internalType": "uint256",
              "name": "boxDropRate",
              "type": "uint256"
            },
            {
              "internalType": "uint256",
              "name": "excDropRate",
              "type": "uint256"
            },
            {
              "internalType": "uint256",
              "name": "boxId",
              "type": "uint256"
            },
            {
              "internalType": "uint256",
              "name": "minItemLevel",
              "type": "uint256"
            },
            {
              "internalType": "uint256",
              "name": "maxItemLevel",
              "type": "uint256"
            },
            {
              "internalType": "uint256",
              "name": "maxAddPoints",
              "type": "uint256"
            },
            {
              "internalType": "uint256",
              "name": "blockCrated",
              "type": "uint256"
            }
          ],
          "indexed": false,
          "internalType": "struct Items.DropParams",
          "name": "params",
          "type": "tuple"
        }
      ],
      "name": "DropParametersChange",
      "type": "event"
    },
    {
      "anonymous": false,
      "inputs": [
        {
          "indexed": false,
          "internalType": "uint256",
          "name": "tokenId",
          "type": "uint256"
        },
        {
          "indexed": false,
          "internalType": "uint256",
          "name": "newAddPoints",
          "type": "uint256"
        }
      ],
      "name": "ItemAddPointsUpdate",
      "type": "event"
    },
    {
      "anonymous": false,
      "inputs": [
        {
          "indexed": false,
          "internalType": "uint256",
          "name": "tokenId",
          "type": "uint256"
        },
        {
          "indexed": false,
          "internalType": "uint256",
          "name": "itemId",
          "type": "uint256"
        },
        {
          "indexed": false,
          "internalType": "address",
          "name": "owner",
          "type": "address"
        },
        {
          "indexed": false,
          "internalType": "string",
          "name": "itemName",
          "type": "string"
        }
      ],
      "name": "ItemBoughtFromShop",
      "type": "event"
    },
    {
      "anonymous": false,
      "inputs": [
        {
          "indexed": false,
          "internalType": "uint256",
          "name": "tokenId",
          "type": "uint256"
        },
        {
          "indexed": false,
          "internalType": "address",
          "name": "owner",
          "type": "address"
        }
      ],
      "name": "ItemCrafted",
      "type": "event"
    },
    {
      "anonymous": false,
      "inputs": [
        {
          "indexed": false,
          "internalType": "bytes32",
          "name": "itemHash",
          "type": "bytes32"
        },
        {
          "components": [
            {
              "internalType": "string",
              "name": "name",
              "type": "string"
            },
            {
              "internalType": "uint256",
              "name": "tokenId",
              "type": "uint256"
            },
            {
              "internalType": "uint256",
              "name": "itemLevel",
              "type": "uint256"
            },
            {
              "internalType": "uint256",
              "name": "maxLevel",
              "type": "uint256"
            },
            {
              "internalType": "uint256",
              "name": "durability",
              "type": "uint256"
            },
            {
              "internalType": "uint256",
              "name": "classRequired",
              "type": "uint256"
            },
            {
              "internalType": "uint256",
              "name": "strengthRequired",
              "type": "uint256"
            },
            {
              "internalType": "uint256",
              "name": "agilityRequired",
              "type": "uint256"
            },
            {
              "internalType": "uint256",
              "name": "energyRequired",
              "type": "uint256"
            },
            {
              "internalType": "uint256",
              "name": "vitalityRequired",
              "type": "uint256"
            },
            {
              "internalType": "uint256",
              "name": "itemWidth",
              "type": "uint256"
            },
            {
              "internalType": "uint256",
              "name": "itemHeight",
              "type": "uint256"
            },
            {
              "internalType": "uint256",
              "name": "acceptableSlot1",
              "type": "uint256"
            },
            {
              "internalType": "uint256",
              "name": "acceptableSlot2",
              "type": "uint256"
            },
            {
              "internalType": "uint256",
              "name": "physicalDamage",
              "type": "uint256"
            },
            {
              "internalType": "uint256",
              "name": "magicDamage",
              "type": "uint256"
            },
            {
              "internalType": "uint256",
              "name": "defense",
              "type": "uint256"
            },
            {
              "internalType": "uint256",
              "name": "attackSpeed",
              "type": "uint256"
            },
            {
              "internalType": "uint256",
              "name": "defenseSuccessRate",
              "type": "uint256"
            },
            {
              "internalType": "uint256",
              "name": "additionalDamage",
              "type": "uint256"
            },
            {
              "internalType": "uint256",
              "name": "additionalDefense",
              "type": "uint256"
            },
            {
              "internalType": "uint256",
              "name": "increasedExperienceGain",
              "type": "uint256"
            },
            {
              "internalType": "uint256",
              "name": "damageIncrease",
              "type": "uint256"
            },
            {
              "internalType": "uint256",
              "name": "defenseSuccessRateIncrease",
              "type": "uint256"
            },
            {
              "internalType": "uint256",
              "name": "lifeAfterMonsterIncrease",
              "type": "uint256"
            },
            {
              "internalType": "uint256",
              "name": "manaAfterMonsterIncrease",
              "type": "uint256"
            },
            {
              "internalType": "uint256",
              "name": "goldAfterMonsterIncrease",
              "type": "uint256"
            },
            {
              "internalType": "uint256",
              "name": "doubleDamageProbabilityIncrease",
              "type": "uint256"
            },
            {
              "internalType": "uint256",
              "name": "excellentDamageProbabilityIncrease",
              "type": "uint256"
            },
            {
              "internalType": "uint256",
              "name": "ignoreOpponentsDefenseRateIncrease",
              "type": "uint256"
            },
            {
              "internalType": "uint256",
              "name": "reflectDamage",
              "type": "uint256"
            },
            {
              "internalType": "uint256",
              "name": "maxLifeIncrease",
              "type": "uint256"
            },
            {
              "internalType": "uint256",
              "name": "maxManaIncrease",
              "type": "uint256"
            },
            {
              "internalType": "uint256",
              "name": "excellentDamageRateIncrease",
              "type": "uint256"
            },
            {
              "internalType": "uint256",
              "name": "doubleDamageRateIncrease",
              "type": "uint256"
            },
            {
              "internalType": "uint256",
              "name": "ignoreOpponentsDefenseSuccessRateIncrease",
              "type": "uint256"
            },
            {
              "internalType": "uint256",
              "name": "attackDamageIncrease",
              "type": "uint256"
            },
            {
              "internalType": "uint256",
              "name": "isAncient",
              "type": "uint256"
            },
            {
              "internalType": "uint256",
              "name": "reflectDamageRateIncrease",
              "type": "uint256"
            },
            {
              "internalType": "uint256",
              "name": "decreaseDamageRateIncrease",
              "type": "uint256"
            },
            {
              "internalType": "uint256",
              "name": "hpRecoveryRateIncrease",
              "type": "uint256"
            },
            {
              "internalType": "uint256",
              "name": "mpRecoveryRateIncrease",
              "type": "uint256"
            },
            {
              "internalType": "uint256",
              "name": "defenceIncreasePerLevel",
              "type": "uint256"
            },
            {
              "internalType": "uint256",
              "name": "damageIncreasePerLevel",
              "type": "uint256"
            },
            {
              "internalType": "uint256",
              "name": "increaseDefenseRate",
              "type": "uint256"
            },
            {
              "internalType": "uint256",
              "name": "strengthReqIncreasePerLevel",
              "type": "uint256"
            },
            {
              "internalType": "uint256",
              "name": "agilityReqIncreasePerLevel",
              "type": "uint256"
            },
            {
              "internalType": "uint256",
              "name": "energyReqIncreasePerLevel",
              "type": "uint256"
            },
            {
              "internalType": "uint256",
              "name": "vitalityReqIncreasePerLevel",
              "type": "uint256"
            },
            {
              "internalType": "uint256",
              "name": "attackSpeedIncrease",
              "type": "uint256"
            },
            {
              "internalType": "uint256",
              "name": "fighterId",
              "type": "uint256"
            },
            {
              "internalType": "uint256",
              "name": "lastUpdBlock",
              "type": "uint256"
            },
            {
              "internalType": "uint256",
              "name": "itemRarityLevel",
              "type": "uint256"
            },
            {
              "internalType": "uint256",
              "name": "itemAttributesId",
              "type": "uint256"
            },
            {
              "internalType": "bool",
              "name": "luck",
              "type": "bool"
            },
            {
              "internalType": "bool",
              "name": "skill",
              "type": "bool"
            },
            {
              "internalType": "bool",
              "name": "isBox",
              "type": "bool"
            },
            {
              "internalType": "bool",
              "name": "isWeapon",
              "type": "bool"
            },
            {
              "internalType": "bool",
              "name": "isArmour",
              "type": "bool"
            },
            {
              "internalType": "bool",
              "name": "isJewel",
              "type": "bool"
            },
            {
              "internalType": "bool",
              "name": "isMisc",
              "type": "bool"
            },
            {
              "internalType": "bool",
              "name": "isConsumable",
              "type": "bool"
            },
            {
              "internalType": "bool",
              "name": "inShop",
              "type": "bool"
            }
          ],
          "indexed": false,
          "internalType": "struct ItemAtts.ItemAttributes",
          "name": "item",
          "type": "tuple"
        },
        {
          "indexed": false,
          "internalType": "uint256",
          "name": "qty",
          "type": "uint256"
        },
        {
          "indexed": false,
          "internalType": "uint256",
          "name": "tokenId",
          "type": "uint256"
        }
      ],
      "name": "ItemDropped",
      "type": "event"
    },
    {
      "anonymous": false,
      "inputs": [
        {
          "indexed": false,
          "internalType": "uint256",
          "name": "itemId",
          "type": "uint256"
        },
        {
          "indexed": false,
          "internalType": "string",
          "name": "name",
          "type": "string"
        }
      ],
      "name": "ItemGenerated",
      "type": "event"
    },
    {
      "anonymous": false,
      "inputs": [
        {
          "indexed": false,
          "internalType": "uint256",
          "name": "tokenId",
          "type": "uint256"
        },
        {
          "indexed": false,
          "internalType": "uint256",
          "name": "newLevel",
          "type": "uint256"
        }
      ],
      "name": "ItemLevelUpgrade",
      "type": "event"
    },
    {
      "anonymous": false,
      "inputs": [
        {
          "indexed": false,
          "internalType": "uint256",
          "name": "tokenId",
          "type": "uint256"
        },
        {
          "indexed": false,
          "internalType": "uint256",
          "name": "fighterId",
          "type": "uint256"
        },
        {
          "indexed": false,
          "internalType": "uint256",
          "name": "qty",
          "type": "uint256"
        }
      ],
      "name": "ItemPicked",
      "type": "event"
    },
    {
      "anonymous": false,
      "inputs": [
        {
          "indexed": false,
          "internalType": "uint8",
          "name": "",
          "type": "uint8"
        },
        {
          "indexed": false,
          "internalType": "uint256",
          "name": "",
          "type": "uint256"
        }
      ],
      "name": "LogError",
      "type": "event"
    },
    {
      "anonymous": false,
      "inputs": [
        {
          "indexed": true,
          "internalType": "address",
          "name": "from",
          "type": "address"
        },
        {
          "indexed": true,
          "internalType": "address",
          "name": "to",
          "type": "address"
        },
        {
          "indexed": true,
          "internalType": "uint256",
          "name": "tokenId",
          "type": "uint256"
        }
      ],
      "name": "Transfer",
      "type": "event"
    },
    {
      "inputs": [
        {
          "internalType": "uint256",
          "name": "",
          "type": "uint256"
        },
        {
          "internalType": "uint256",
          "name": "",
          "type": "uint256"
        }
      ],
      "name": "Armours",
      "outputs": [
        {
          "internalType": "uint256",
          "name": "",
          "type": "uint256"
        }
      ],
      "stateMutability": "view",
      "type": "function",
      "constant": true
    },
    {
      "inputs": [
        {
          "internalType": "uint256",
          "name": "",
          "type": "uint256"
        }
      ],
      "name": "BoxDropPramsList",
      "outputs": [
        {
          "internalType": "uint256",
          "name": "weaponsDropRate",
          "type": "uint256"
        },
        {
          "internalType": "uint256",
          "name": "armoursDropRate",
          "type": "uint256"
        },
        {
          "internalType": "uint256",
          "name": "jewelsDropRate",
          "type": "uint256"
        },
        {
          "internalType": "uint256",
          "name": "miscDropRate",
          "type": "uint256"
        },
        {
          "internalType": "uint256",
          "name": "boxDropRate",
          "type": "uint256"
        },
        {
          "internalType": "uint256",
          "name": "excDropRate",
          "type": "uint256"
        },
        {
          "internalType": "uint256",
          "name": "boxId",
          "type": "uint256"
        },
        {
          "internalType": "uint256",
          "name": "minItemLevel",
          "type": "uint256"
        },
        {
          "internalType": "uint256",
          "name": "maxItemLevel",
          "type": "uint256"
        },
        {
          "internalType": "uint256",
          "name": "maxAddPoints",
          "type": "uint256"
        },
        {
          "internalType": "uint256",
          "name": "blockCrated",
          "type": "uint256"
        }
      ],
      "stateMutability": "view",
      "type": "function",
      "constant": true
    },
    {
      "inputs": [
        {
          "internalType": "uint256",
          "name": "",
          "type": "uint256"
        }
      ],
      "name": "DropParamsList",
      "outputs": [
        {
          "internalType": "uint256",
          "name": "weaponsDropRate",
          "type": "uint256"
        },
        {
          "internalType": "uint256",
          "name": "armoursDropRate",
          "type": "uint256"
        },
        {
          "internalType": "uint256",
          "name": "jewelsDropRate",
          "type": "uint256"
        },
        {
          "internalType": "uint256",
          "name": "miscDropRate",
          "type": "uint256"
        },
        {
          "internalType": "uint256",
          "name": "boxDropRate",
          "type": "uint256"
        },
        {
          "internalType": "uint256",
          "name": "excDropRate",
          "type": "uint256"
        },
        {
          "internalType": "uint256",
          "name": "boxId",
          "type": "uint256"
        },
        {
          "internalType": "uint256",
          "name": "minItemLevel",
          "type": "uint256"
        },
        {
          "internalType": "uint256",
          "name": "maxItemLevel",
          "type": "uint256"
        },
        {
          "internalType": "uint256",
          "name": "maxAddPoints",
          "type": "uint256"
        },
        {
          "internalType": "uint256",
          "name": "blockCrated",
          "type": "uint256"
        }
      ],
      "stateMutability": "view",
      "type": "function",
      "constant": true
    },
    {
      "inputs": [
        {
          "internalType": "uint256",
          "name": "",
          "type": "uint256"
        },
        {
          "internalType": "uint256",
          "name": "",
          "type": "uint256"
        }
      ],
      "name": "Jewels",
      "outputs": [
        {
          "internalType": "uint256",
          "name": "",
          "type": "uint256"
        }
      ],
      "stateMutability": "view",
      "type": "function",
      "constant": true
    },
    {
      "inputs": [
        {
          "internalType": "uint256",
          "name": "",
          "type": "uint256"
        },
        {
          "internalType": "uint256",
          "name": "",
          "type": "uint256"
        }
      ],
      "name": "Misc",
      "outputs": [
        {
          "internalType": "uint256",
          "name": "",
          "type": "uint256"
        }
      ],
      "stateMutability": "view",
      "type": "function",
      "constant": true
    },
    {
      "inputs": [
        {
          "internalType": "uint256",
          "name": "",
          "type": "uint256"
        },
        {
          "internalType": "uint256",
          "name": "",
          "type": "uint256"
        }
      ],
      "name": "Weapons",
      "outputs": [
        {
          "internalType": "uint256",
          "name": "",
          "type": "uint256"
        }
      ],
      "stateMutability": "view",
      "type": "function",
      "constant": true
    },
    {
      "inputs": [
        {
          "internalType": "address",
          "name": "to",
          "type": "address"
        },
        {
          "internalType": "uint256",
          "name": "tokenId",
          "type": "uint256"
        }
      ],
      "name": "approve",
      "outputs": [],
      "stateMutability": "nonpayable",
      "type": "function"
    },
    {
      "inputs": [
        {
          "internalType": "address",
          "name": "owner",
          "type": "address"
        }
      ],
      "name": "balanceOf",
      "outputs": [
        {
          "internalType": "uint256",
          "name": "",
          "type": "uint256"
        }
      ],
      "stateMutability": "view",
      "type": "function",
      "constant": true
    },
    {
      "inputs": [
        {
          "internalType": "bytes32",
          "name": "",
          "type": "bytes32"
        }
      ],
      "name": "dropHashes",
      "outputs": [
        {
          "internalType": "uint256",
          "name": "",
          "type": "uint256"
        }
      ],
      "stateMutability": "view",
      "type": "function",
      "constant": true
    },
    {
      "inputs": [
        {
          "internalType": "uint256",
          "name": "tokenId",
          "type": "uint256"
        }
      ],
      "name": "getApproved",
      "outputs": [
        {
          "internalType": "address",
          "name": "",
          "type": "address"
        }
      ],
      "stateMutability": "view",
      "type": "function",
      "constant": true
    },
    {
      "inputs": [
        {
          "internalType": "address",
          "name": "owner",
          "type": "address"
        },
        {
          "internalType": "address",
          "name": "operator",
          "type": "address"
        }
      ],
      "name": "isApprovedForAll",
      "outputs": [
        {
          "internalType": "bool",
          "name": "",
          "type": "bool"
        }
      ],
      "stateMutability": "view",
      "type": "function",
      "constant": true
    },
    {
      "inputs": [],
      "name": "name",
      "outputs": [
        {
          "internalType": "string",
          "name": "",
          "type": "string"
        }
      ],
      "stateMutability": "view",
      "type": "function",
      "constant": true
    },
    {
      "inputs": [],
      "name": "owner",
      "outputs": [
        {
          "internalType": "address",
          "name": "",
          "type": "address"
        }
      ],
      "stateMutability": "view",
      "type": "function",
      "constant": true
    },
    {
      "inputs": [
        {
          "internalType": "uint256",
          "name": "tokenId",
          "type": "uint256"
        }
      ],
      "name": "ownerOf",
      "outputs": [
        {
          "internalType": "address",
          "name": "",
          "type": "address"
        }
      ],
      "stateMutability": "view",
      "type": "function",
      "constant": true
    },
    {
      "inputs": [
        {
          "internalType": "address",
          "name": "from",
          "type": "address"
        },
        {
          "internalType": "address",
          "name": "to",
          "type": "address"
        },
        {
          "internalType": "uint256",
          "name": "tokenId",
          "type": "uint256"
        }
      ],
      "name": "safeTransferFrom",
      "outputs": [],
      "stateMutability": "nonpayable",
      "type": "function"
    },
    {
      "inputs": [
        {
          "internalType": "address",
          "name": "from",
          "type": "address"
        },
        {
          "internalType": "address",
          "name": "to",
          "type": "address"
        },
        {
          "internalType": "uint256",
          "name": "tokenId",
          "type": "uint256"
        },
        {
          "internalType": "bytes",
          "name": "data",
          "type": "bytes"
        }
      ],
      "name": "safeTransferFrom",
      "outputs": [],
      "stateMutability": "nonpayable",
      "type": "function"
    },
    {
      "inputs": [
        {
          "internalType": "address",
          "name": "operator",
          "type": "address"
        },
        {
          "internalType": "bool",
          "name": "approved",
          "type": "bool"
        }
      ],
      "name": "setApprovalForAll",
      "outputs": [],
      "stateMutability": "nonpayable",
      "type": "function"
    },
    {
      "inputs": [
        {
          "internalType": "bytes4",
          "name": "interfaceId",
          "type": "bytes4"
        }
      ],
      "name": "supportsInterface",
      "outputs": [
        {
          "internalType": "bool",
          "name": "",
          "type": "bool"
        }
      ],
      "stateMutability": "view",
      "type": "function",
      "constant": true
    },
    {
      "inputs": [],
      "name": "symbol",
      "outputs": [
        {
          "internalType": "string",
          "name": "",
          "type": "string"
        }
      ],
      "stateMutability": "view",
      "type": "function",
      "constant": true
    },
    {
      "inputs": [
        {
          "internalType": "uint256",
          "name": "index",
          "type": "uint256"
        }
      ],
      "name": "tokenByIndex",
      "outputs": [
        {
          "internalType": "uint256",
          "name": "",
          "type": "uint256"
        }
      ],
      "stateMutability": "view",
      "type": "function",
      "constant": true
    },
    {
      "inputs": [
        {
          "internalType": "address",
          "name": "owner",
          "type": "address"
        },
        {
          "internalType": "uint256",
          "name": "index",
          "type": "uint256"
        }
      ],
      "name": "tokenOfOwnerByIndex",
      "outputs": [
        {
          "internalType": "uint256",
          "name": "",
          "type": "uint256"
        }
      ],
      "stateMutability": "view",
      "type": "function",
      "constant": true
    },
    {
      "inputs": [
        {
          "internalType": "uint256",
          "name": "tokenId",
          "type": "uint256"
        }
      ],
      "name": "tokenURI",
      "outputs": [
        {
          "internalType": "string",
          "name": "",
          "type": "string"
        }
      ],
      "stateMutability": "view",
      "type": "function",
      "constant": true
    },
    {
      "inputs": [],
      "name": "totalSupply",
      "outputs": [
        {
          "internalType": "uint256",
          "name": "",
          "type": "uint256"
        }
      ],
      "stateMutability": "view",
      "type": "function",
      "constant": true
    },
    {
      "inputs": [
        {
          "internalType": "address",
          "name": "from",
          "type": "address"
        },
        {
          "internalType": "address",
          "name": "to",
          "type": "address"
        },
        {
          "internalType": "uint256",
          "name": "tokenId",
          "type": "uint256"
        }
      ],
      "name": "transferFrom",
      "outputs": [],
      "stateMutability": "nonpayable",
      "type": "function"
    },
    {
      "inputs": [
        {
          "internalType": "uint256",
          "name": "tokenId",
          "type": "uint256"
        },
        {
          "internalType": "uint256",
          "name": "points",
          "type": "uint256"
        }
      ],
      "name": "setAdditionalPoints",
      "outputs": [],
      "stateMutability": "nonpayable",
      "type": "function"
    },
    {
      "inputs": [
        {
          "internalType": "uint256",
          "name": "tokenId",
          "type": "uint256"
        },
        {
          "internalType": "uint256",
          "name": "level",
          "type": "uint256"
        }
      ],
      "name": "setItemLevel",
      "outputs": [],
      "stateMutability": "nonpayable",
      "type": "function"
    },
    {
      "inputs": [
        {
          "internalType": "uint256",
          "name": "tokenId",
          "type": "uint256"
        }
      ],
      "name": "burnItem",
      "outputs": [],
      "stateMutability": "nonpayable",
      "type": "function"
    },
    {
      "inputs": [
        {
          "internalType": "uint256",
          "name": "tokenId",
          "type": "uint256"
        }
      ],
      "name": "openBox",
      "outputs": [
        {
          "internalType": "uint256",
          "name": "",
          "type": "uint256"
        }
      ],
      "stateMutability": "nonpayable",
      "type": "function"
    },
    {
      "inputs": [
        {
          "internalType": "address",
          "name": "ownerAddres",
          "type": "address"
        }
      ],
      "name": "safeMint",
      "outputs": [
        {
          "internalType": "uint256",
          "name": "",
          "type": "uint256"
        }
      ],
      "stateMutability": "nonpayable",
      "type": "function"
    },
    {
      "inputs": [
        {
          "internalType": "uint256",
          "name": "tokenId",
          "type": "uint256"
        },
        {
          "components": [
            {
              "internalType": "string",
              "name": "name",
              "type": "string"
            },
            {
              "internalType": "uint256",
              "name": "tokenId",
              "type": "uint256"
            },
            {
              "internalType": "uint256",
              "name": "itemLevel",
              "type": "uint256"
            },
            {
              "internalType": "uint256",
              "name": "maxLevel",
              "type": "uint256"
            },
            {
              "internalType": "uint256",
              "name": "durability",
              "type": "uint256"
            },
            {
              "internalType": "uint256",
              "name": "classRequired",
              "type": "uint256"
            },
            {
              "internalType": "uint256",
              "name": "strengthRequired",
              "type": "uint256"
            },
            {
              "internalType": "uint256",
              "name": "agilityRequired",
              "type": "uint256"
            },
            {
              "internalType": "uint256",
              "name": "energyRequired",
              "type": "uint256"
            },
            {
              "internalType": "uint256",
              "name": "vitalityRequired",
              "type": "uint256"
            },
            {
              "internalType": "uint256",
              "name": "itemWidth",
              "type": "uint256"
            },
            {
              "internalType": "uint256",
              "name": "itemHeight",
              "type": "uint256"
            },
            {
              "internalType": "uint256",
              "name": "acceptableSlot1",
              "type": "uint256"
            },
            {
              "internalType": "uint256",
              "name": "acceptableSlot2",
              "type": "uint256"
            },
            {
              "internalType": "uint256",
              "name": "physicalDamage",
              "type": "uint256"
            },
            {
              "internalType": "uint256",
              "name": "magicDamage",
              "type": "uint256"
            },
            {
              "internalType": "uint256",
              "name": "defense",
              "type": "uint256"
            },
            {
              "internalType": "uint256",
              "name": "attackSpeed",
              "type": "uint256"
            },
            {
              "internalType": "uint256",
              "name": "defenseSuccessRate",
              "type": "uint256"
            },
            {
              "internalType": "uint256",
              "name": "additionalDamage",
              "type": "uint256"
            },
            {
              "internalType": "uint256",
              "name": "additionalDefense",
              "type": "uint256"
            },
            {
              "internalType": "uint256",
              "name": "increasedExperienceGain",
              "type": "uint256"
            },
            {
              "internalType": "uint256",
              "name": "damageIncrease",
              "type": "uint256"
            },
            {
              "internalType": "uint256",
              "name": "defenseSuccessRateIncrease",
              "type": "uint256"
            },
            {
              "internalType": "uint256",
              "name": "lifeAfterMonsterIncrease",
              "type": "uint256"
            },
            {
              "internalType": "uint256",
              "name": "manaAfterMonsterIncrease",
              "type": "uint256"
            },
            {
              "internalType": "uint256",
              "name": "goldAfterMonsterIncrease",
              "type": "uint256"
            },
            {
              "internalType": "uint256",
              "name": "doubleDamageProbabilityIncrease",
              "type": "uint256"
            },
            {
              "internalType": "uint256",
              "name": "excellentDamageProbabilityIncrease",
              "type": "uint256"
            },
            {
              "internalType": "uint256",
              "name": "ignoreOpponentsDefenseRateIncrease",
              "type": "uint256"
            },
            {
              "internalType": "uint256",
              "name": "reflectDamage",
              "type": "uint256"
            },
            {
              "internalType": "uint256",
              "name": "maxLifeIncrease",
              "type": "uint256"
            },
            {
              "internalType": "uint256",
              "name": "maxManaIncrease",
              "type": "uint256"
            },
            {
              "internalType": "uint256",
              "name": "excellentDamageRateIncrease",
              "type": "uint256"
            },
            {
              "internalType": "uint256",
              "name": "doubleDamageRateIncrease",
              "type": "uint256"
            },
            {
              "internalType": "uint256",
              "name": "ignoreOpponentsDefenseSuccessRateIncrease",
              "type": "uint256"
            },
            {
              "internalType": "uint256",
              "name": "attackDamageIncrease",
              "type": "uint256"
            },
            {
              "internalType": "uint256",
              "name": "isAncient",
              "type": "uint256"
            },
            {
              "internalType": "uint256",
              "name": "reflectDamageRateIncrease",
              "type": "uint256"
            },
            {
              "internalType": "uint256",
              "name": "decreaseDamageRateIncrease",
              "type": "uint256"
            },
            {
              "internalType": "uint256",
              "name": "hpRecoveryRateIncrease",
              "type": "uint256"
            },
            {
              "internalType": "uint256",
              "name": "mpRecoveryRateIncrease",
              "type": "uint256"
            },
            {
              "internalType": "uint256",
              "name": "defenceIncreasePerLevel",
              "type": "uint256"
            },
            {
              "internalType": "uint256",
              "name": "damageIncreasePerLevel",
              "type": "uint256"
            },
            {
              "internalType": "uint256",
              "name": "increaseDefenseRate",
              "type": "uint256"
            },
            {
              "internalType": "uint256",
              "name": "strengthReqIncreasePerLevel",
              "type": "uint256"
            },
            {
              "internalType": "uint256",
              "name": "agilityReqIncreasePerLevel",
              "type": "uint256"
            },
            {
              "internalType": "uint256",
              "name": "energyReqIncreasePerLevel",
              "type": "uint256"
            },
            {
              "internalType": "uint256",
              "name": "vitalityReqIncreasePerLevel",
              "type": "uint256"
            },
            {
              "internalType": "uint256",
              "name": "attackSpeedIncrease",
              "type": "uint256"
            },
            {
              "internalType": "uint256",
              "name": "fighterId",
              "type": "uint256"
            },
            {
              "internalType": "uint256",
              "name": "lastUpdBlock",
              "type": "uint256"
            },
            {
              "internalType": "uint256",
              "name": "itemRarityLevel",
              "type": "uint256"
            },
            {
              "internalType": "uint256",
              "name": "itemAttributesId",
              "type": "uint256"
            },
            {
              "internalType": "bool",
              "name": "luck",
              "type": "bool"
            },
            {
              "internalType": "bool",
              "name": "skill",
              "type": "bool"
            },
            {
              "internalType": "bool",
              "name": "isBox",
              "type": "bool"
            },
            {
              "internalType": "bool",
              "name": "isWeapon",
              "type": "bool"
            },
            {
              "internalType": "bool",
              "name": "isArmour",
              "type": "bool"
            },
            {
              "internalType": "bool",
              "name": "isJewel",
              "type": "bool"
            },
            {
              "internalType": "bool",
              "name": "isMisc",
              "type": "bool"
            },
            {
              "internalType": "bool",
              "name": "isConsumable",
              "type": "bool"
            },
            {
              "internalType": "bool",
              "name": "inShop",
              "type": "bool"
            }
          ],
          "internalType": "struct ItemAtts.ItemAttributes",
          "name": "atts",
          "type": "tuple"
        }
      ],
      "name": "setTokenAttributes",
      "outputs": [],
      "stateMutability": "nonpayable",
      "type": "function"
    },
    {
      "inputs": [
        {
          "internalType": "bytes32",
          "name": "dropHash",
          "type": "bytes32"
        }
      ],
      "name": "getDropQty",
      "outputs": [
        {
          "internalType": "uint256",
          "name": "",
          "type": "uint256"
        }
      ],
      "stateMutability": "nonpayable",
      "type": "function"
    },
    {
      "inputs": [
        {
          "internalType": "bytes32",
          "name": "itemHash",
          "type": "bytes32"
        },
        {
          "internalType": "uint256",
          "name": "qty",
          "type": "uint256"
        }
      ],
      "name": "createDropHash",
      "outputs": [],
      "stateMutability": "nonpayable",
      "type": "function"
    },
    {
      "inputs": [
        {
          "internalType": "uint256",
          "name": "tokenId",
          "type": "uint256"
        }
      ],
      "name": "itemExists",
      "outputs": [
        {
          "internalType": "bool",
          "name": "",
          "type": "bool"
        }
      ],
      "stateMutability": "view",
      "type": "function",
      "constant": true
    },
    {
      "inputs": [
        {
          "internalType": "uint256",
          "name": "rarityLevel",
          "type": "uint256"
        },
        {
          "components": [
            {
              "internalType": "uint256",
              "name": "weaponsDropRate",
              "type": "uint256"
            },
            {
              "internalType": "uint256",
              "name": "armoursDropRate",
              "type": "uint256"
            },
            {
              "internalType": "uint256",
              "name": "jewelsDropRate",
              "type": "uint256"
            },
            {
              "internalType": "uint256",
              "name": "miscDropRate",
              "type": "uint256"
            },
            {
              "internalType": "uint256",
              "name": "boxDropRate",
              "type": "uint256"
            },
            {
              "internalType": "uint256",
              "name": "excDropRate",
              "type": "uint256"
            },
            {
              "internalType": "uint256",
              "name": "boxId",
              "type": "uint256"
            },
            {
              "internalType": "uint256",
              "name": "minItemLevel",
              "type": "uint256"
            },
            {
              "internalType": "uint256",
              "name": "maxItemLevel",
              "type": "uint256"
            },
            {
              "internalType": "uint256",
              "name": "maxAddPoints",
              "type": "uint256"
            },
            {
              "internalType": "uint256",
              "name": "blockCrated",
              "type": "uint256"
            }
          ],
          "internalType": "struct Items.DropParams",
          "name": "params",
          "type": "tuple"
        }
      ],
      "name": "setDropParams",
      "outputs": [],
      "stateMutability": "nonpayable",
      "type": "function"
    },
    {
      "inputs": [
        {
          "internalType": "uint256",
          "name": "rarityLevel",
          "type": "uint256"
        },
        {
          "components": [
            {
              "internalType": "uint256",
              "name": "weaponsDropRate",
              "type": "uint256"
            },
            {
              "internalType": "uint256",
              "name": "armoursDropRate",
              "type": "uint256"
            },
            {
              "internalType": "uint256",
              "name": "jewelsDropRate",
              "type": "uint256"
            },
            {
              "internalType": "uint256",
              "name": "miscDropRate",
              "type": "uint256"
            },
            {
              "internalType": "uint256",
              "name": "boxDropRate",
              "type": "uint256"
            },
            {
              "internalType": "uint256",
              "name": "excDropRate",
              "type": "uint256"
            },
            {
              "internalType": "uint256",
              "name": "boxId",
              "type": "uint256"
            },
            {
              "internalType": "uint256",
              "name": "minItemLevel",
              "type": "uint256"
            },
            {
              "internalType": "uint256",
              "name": "maxItemLevel",
              "type": "uint256"
            },
            {
              "internalType": "uint256",
              "name": "maxAddPoints",
              "type": "uint256"
            },
            {
              "internalType": "uint256",
              "name": "blockCrated",
              "type": "uint256"
            }
          ],
          "internalType": "struct Items.DropParams",
          "name": "params",
          "type": "tuple"
        }
      ],
      "name": "setBoxDropParams",
      "outputs": [],
      "stateMutability": "nonpayable",
      "type": "function"
    },
    {
      "inputs": [
        {
          "components": [
            {
              "internalType": "string",
              "name": "name",
              "type": "string"
            },
            {
              "internalType": "uint256",
              "name": "tokenId",
              "type": "uint256"
            },
            {
              "internalType": "uint256",
              "name": "itemLevel",
              "type": "uint256"
            },
            {
              "internalType": "uint256",
              "name": "maxLevel",
              "type": "uint256"
            },
            {
              "internalType": "uint256",
              "name": "durability",
              "type": "uint256"
            },
            {
              "internalType": "uint256",
              "name": "classRequired",
              "type": "uint256"
            },
            {
              "internalType": "uint256",
              "name": "strengthRequired",
              "type": "uint256"
            },
            {
              "internalType": "uint256",
              "name": "agilityRequired",
              "type": "uint256"
            },
            {
              "internalType": "uint256",
              "name": "energyRequired",
              "type": "uint256"
            },
            {
              "internalType": "uint256",
              "name": "vitalityRequired",
              "type": "uint256"
            },
            {
              "internalType": "uint256",
              "name": "itemWidth",
              "type": "uint256"
            },
            {
              "internalType": "uint256",
              "name": "itemHeight",
              "type": "uint256"
            },
            {
              "internalType": "uint256",
              "name": "acceptableSlot1",
              "type": "uint256"
            },
            {
              "internalType": "uint256",
              "name": "acceptableSlot2",
              "type": "uint256"
            },
            {
              "internalType": "uint256",
              "name": "physicalDamage",
              "type": "uint256"
            },
            {
              "internalType": "uint256",
              "name": "magicDamage",
              "type": "uint256"
            },
            {
              "internalType": "uint256",
              "name": "defense",
              "type": "uint256"
            },
            {
              "internalType": "uint256",
              "name": "attackSpeed",
              "type": "uint256"
            },
            {
              "internalType": "uint256",
              "name": "defenseSuccessRate",
              "type": "uint256"
            },
            {
              "internalType": "uint256",
              "name": "additionalDamage",
              "type": "uint256"
            },
            {
              "internalType": "uint256",
              "name": "additionalDefense",
              "type": "uint256"
            },
            {
              "internalType": "uint256",
              "name": "increasedExperienceGain",
              "type": "uint256"
            },
            {
              "internalType": "uint256",
              "name": "damageIncrease",
              "type": "uint256"
            },
            {
              "internalType": "uint256",
              "name": "defenseSuccessRateIncrease",
              "type": "uint256"
            },
            {
              "internalType": "uint256",
              "name": "lifeAfterMonsterIncrease",
              "type": "uint256"
            },
            {
              "internalType": "uint256",
              "name": "manaAfterMonsterIncrease",
              "type": "uint256"
            },
            {
              "internalType": "uint256",
              "name": "goldAfterMonsterIncrease",
              "type": "uint256"
            },
            {
              "internalType": "uint256",
              "name": "doubleDamageProbabilityIncrease",
              "type": "uint256"
            },
            {
              "internalType": "uint256",
              "name": "excellentDamageProbabilityIncrease",
              "type": "uint256"
            },
            {
              "internalType": "uint256",
              "name": "ignoreOpponentsDefenseRateIncrease",
              "type": "uint256"
            },
            {
              "internalType": "uint256",
              "name": "reflectDamage",
              "type": "uint256"
            },
            {
              "internalType": "uint256",
              "name": "maxLifeIncrease",
              "type": "uint256"
            },
            {
              "internalType": "uint256",
              "name": "maxManaIncrease",
              "type": "uint256"
            },
            {
              "internalType": "uint256",
              "name": "excellentDamageRateIncrease",
              "type": "uint256"
            },
            {
              "internalType": "uint256",
              "name": "doubleDamageRateIncrease",
              "type": "uint256"
            },
            {
              "internalType": "uint256",
              "name": "ignoreOpponentsDefenseSuccessRateIncrease",
              "type": "uint256"
            },
            {
              "internalType": "uint256",
              "name": "attackDamageIncrease",
              "type": "uint256"
            },
            {
              "internalType": "uint256",
              "name": "isAncient",
              "type": "uint256"
            },
            {
              "internalType": "uint256",
              "name": "reflectDamageRateIncrease",
              "type": "uint256"
            },
            {
              "internalType": "uint256",
              "name": "decreaseDamageRateIncrease",
              "type": "uint256"
            },
            {
              "internalType": "uint256",
              "name": "hpRecoveryRateIncrease",
              "type": "uint256"
            },
            {
              "internalType": "uint256",
              "name": "mpRecoveryRateIncrease",
              "type": "uint256"
            },
            {
              "internalType": "uint256",
              "name": "defenceIncreasePerLevel",
              "type": "uint256"
            },
            {
              "internalType": "uint256",
              "name": "damageIncreasePerLevel",
              "type": "uint256"
            },
            {
              "internalType": "uint256",
              "name": "increaseDefenseRate",
              "type": "uint256"
            },
            {
              "internalType": "uint256",
              "name": "strengthReqIncreasePerLevel",
              "type": "uint256"
            },
            {
              "internalType": "uint256",
              "name": "agilityReqIncreasePerLevel",
              "type": "uint256"
            },
            {
              "internalType": "uint256",
              "name": "energyReqIncreasePerLevel",
              "type": "uint256"
            },
            {
              "internalType": "uint256",
              "name": "vitalityReqIncreasePerLevel",
              "type": "uint256"
            },
            {
              "internalType": "uint256",
              "name": "attackSpeedIncrease",
              "type": "uint256"
            },
            {
              "internalType": "uint256",
              "name": "fighterId",
              "type": "uint256"
            },
            {
              "internalType": "uint256",
              "name": "lastUpdBlock",
              "type": "uint256"
            },
            {
              "internalType": "uint256",
              "name": "itemRarityLevel",
              "type": "uint256"
            },
            {
              "internalType": "uint256",
              "name": "itemAttributesId",
              "type": "uint256"
            },
            {
              "internalType": "bool",
              "name": "luck",
              "type": "bool"
            },
            {
              "internalType": "bool",
              "name": "skill",
              "type": "bool"
            },
            {
              "internalType": "bool",
              "name": "isBox",
              "type": "bool"
            },
            {
              "internalType": "bool",
              "name": "isWeapon",
              "type": "bool"
            },
            {
              "internalType": "bool",
              "name": "isArmour",
              "type": "bool"
            },
            {
              "internalType": "bool",
              "name": "isJewel",
              "type": "bool"
            },
            {
              "internalType": "bool",
              "name": "isMisc",
              "type": "bool"
            },
            {
              "internalType": "bool",
              "name": "isConsumable",
              "type": "bool"
            },
            {
              "internalType": "bool",
              "name": "inShop",
              "type": "bool"
            }
          ],
          "internalType": "struct ItemAtts.ItemAttributes",
          "name": "atts",
          "type": "tuple"
        }
      ],
      "name": "createItem",
      "outputs": [
        {
          "internalType": "uint256",
          "name": "tokenId",
          "type": "uint256"
        }
      ],
      "stateMutability": "nonpayable",
      "type": "function"
    },
    {
      "inputs": [
        {
          "internalType": "uint256",
          "name": "rarityLevel",
          "type": "uint256"
        },
        {
          "internalType": "uint256",
          "name": "fighterId",
          "type": "uint256"
        },
        {
          "internalType": "uint256",
          "name": "experience",
          "type": "uint256"
        }
      ],
      "name": "dropItem",
      "outputs": [
        {
          "internalType": "bytes32",
          "name": "",
          "type": "bytes32"
        }
      ],
      "stateMutability": "nonpayable",
      "type": "function"
    },
    {
      "inputs": [
        {
          "internalType": "uint256",
          "name": "tokenId",
          "type": "uint256"
        }
      ],
      "name": "getTokenAttributes",
      "outputs": [
        {
          "components": [
            {
              "internalType": "string",
              "name": "name",
              "type": "string"
            },
            {
              "internalType": "uint256",
              "name": "tokenId",
              "type": "uint256"
            },
            {
              "internalType": "uint256",
              "name": "itemLevel",
              "type": "uint256"
            },
            {
              "internalType": "uint256",
              "name": "maxLevel",
              "type": "uint256"
            },
            {
              "internalType": "uint256",
              "name": "durability",
              "type": "uint256"
            },
            {
              "internalType": "uint256",
              "name": "classRequired",
              "type": "uint256"
            },
            {
              "internalType": "uint256",
              "name": "strengthRequired",
              "type": "uint256"
            },
            {
              "internalType": "uint256",
              "name": "agilityRequired",
              "type": "uint256"
            },
            {
              "internalType": "uint256",
              "name": "energyRequired",
              "type": "uint256"
            },
            {
              "internalType": "uint256",
              "name": "vitalityRequired",
              "type": "uint256"
            },
            {
              "internalType": "uint256",
              "name": "itemWidth",
              "type": "uint256"
            },
            {
              "internalType": "uint256",
              "name": "itemHeight",
              "type": "uint256"
            },
            {
              "internalType": "uint256",
              "name": "acceptableSlot1",
              "type": "uint256"
            },
            {
              "internalType": "uint256",
              "name": "acceptableSlot2",
              "type": "uint256"
            },
            {
              "internalType": "uint256",
              "name": "physicalDamage",
              "type": "uint256"
            },
            {
              "internalType": "uint256",
              "name": "magicDamage",
              "type": "uint256"
            },
            {
              "internalType": "uint256",
              "name": "defense",
              "type": "uint256"
            },
            {
              "internalType": "uint256",
              "name": "attackSpeed",
              "type": "uint256"
            },
            {
              "internalType": "uint256",
              "name": "defenseSuccessRate",
              "type": "uint256"
            },
            {
              "internalType": "uint256",
              "name": "additionalDamage",
              "type": "uint256"
            },
            {
              "internalType": "uint256",
              "name": "additionalDefense",
              "type": "uint256"
            },
            {
              "internalType": "uint256",
              "name": "increasedExperienceGain",
              "type": "uint256"
            },
            {
              "internalType": "uint256",
              "name": "damageIncrease",
              "type": "uint256"
            },
            {
              "internalType": "uint256",
              "name": "defenseSuccessRateIncrease",
              "type": "uint256"
            },
            {
              "internalType": "uint256",
              "name": "lifeAfterMonsterIncrease",
              "type": "uint256"
            },
            {
              "internalType": "uint256",
              "name": "manaAfterMonsterIncrease",
              "type": "uint256"
            },
            {
              "internalType": "uint256",
              "name": "goldAfterMonsterIncrease",
              "type": "uint256"
            },
            {
              "internalType": "uint256",
              "name": "doubleDamageProbabilityIncrease",
              "type": "uint256"
            },
            {
              "internalType": "uint256",
              "name": "excellentDamageProbabilityIncrease",
              "type": "uint256"
            },
            {
              "internalType": "uint256",
              "name": "ignoreOpponentsDefenseRateIncrease",
              "type": "uint256"
            },
            {
              "internalType": "uint256",
              "name": "reflectDamage",
              "type": "uint256"
            },
            {
              "internalType": "uint256",
              "name": "maxLifeIncrease",
              "type": "uint256"
            },
            {
              "internalType": "uint256",
              "name": "maxManaIncrease",
              "type": "uint256"
            },
            {
              "internalType": "uint256",
              "name": "excellentDamageRateIncrease",
              "type": "uint256"
            },
            {
              "internalType": "uint256",
              "name": "doubleDamageRateIncrease",
              "type": "uint256"
            },
            {
              "internalType": "uint256",
              "name": "ignoreOpponentsDefenseSuccessRateIncrease",
              "type": "uint256"
            },
            {
              "internalType": "uint256",
              "name": "attackDamageIncrease",
              "type": "uint256"
            },
            {
              "internalType": "uint256",
              "name": "isAncient",
              "type": "uint256"
            },
            {
              "internalType": "uint256",
              "name": "reflectDamageRateIncrease",
              "type": "uint256"
            },
            {
              "internalType": "uint256",
              "name": "decreaseDamageRateIncrease",
              "type": "uint256"
            },
            {
              "internalType": "uint256",
              "name": "hpRecoveryRateIncrease",
              "type": "uint256"
            },
            {
              "internalType": "uint256",
              "name": "mpRecoveryRateIncrease",
              "type": "uint256"
            },
            {
              "internalType": "uint256",
              "name": "defenceIncreasePerLevel",
              "type": "uint256"
            },
            {
              "internalType": "uint256",
              "name": "damageIncreasePerLevel",
              "type": "uint256"
            },
            {
              "internalType": "uint256",
              "name": "increaseDefenseRate",
              "type": "uint256"
            },
            {
              "internalType": "uint256",
              "name": "strengthReqIncreasePerLevel",
              "type": "uint256"
            },
            {
              "internalType": "uint256",
              "name": "agilityReqIncreasePerLevel",
              "type": "uint256"
            },
            {
              "internalType": "uint256",
              "name": "energyReqIncreasePerLevel",
              "type": "uint256"
            },
            {
              "internalType": "uint256",
              "name": "vitalityReqIncreasePerLevel",
              "type": "uint256"
            },
            {
              "internalType": "uint256",
              "name": "attackSpeedIncrease",
              "type": "uint256"
            },
            {
              "internalType": "uint256",
              "name": "fighterId",
              "type": "uint256"
            },
            {
              "internalType": "uint256",
              "name": "lastUpdBlock",
              "type": "uint256"
            },
            {
              "internalType": "uint256",
              "name": "itemRarityLevel",
              "type": "uint256"
            },
            {
              "internalType": "uint256",
              "name": "itemAttributesId",
              "type": "uint256"
            },
            {
              "internalType": "bool",
              "name": "luck",
              "type": "bool"
            },
            {
              "internalType": "bool",
              "name": "skill",
              "type": "bool"
            },
            {
              "internalType": "bool",
              "name": "isBox",
              "type": "bool"
            },
            {
              "internalType": "bool",
              "name": "isWeapon",
              "type": "bool"
            },
            {
              "internalType": "bool",
              "name": "isArmour",
              "type": "bool"
            },
            {
              "internalType": "bool",
              "name": "isJewel",
              "type": "bool"
            },
            {
              "internalType": "bool",
              "name": "isMisc",
              "type": "bool"
            },
            {
              "internalType": "bool",
              "name": "isConsumable",
              "type": "bool"
            },
            {
              "internalType": "bool",
              "name": "inShop",
              "type": "bool"
            }
          ],
          "internalType": "struct ItemAtts.ItemAttributes",
          "name": "",
          "type": "tuple"
        }
      ],
      "stateMutability": "view",
      "type": "function",
      "constant": true
    },
    {
      "inputs": [
        {
          "internalType": "uint256",
          "name": "itemId",
          "type": "uint256"
        }
      ],
      "name": "getItemAttributes",
      "outputs": [
        {
          "components": [
            {
              "internalType": "string",
              "name": "name",
              "type": "string"
            },
            {
              "internalType": "uint256",
              "name": "tokenId",
              "type": "uint256"
            },
            {
              "internalType": "uint256",
              "name": "itemLevel",
              "type": "uint256"
            },
            {
              "internalType": "uint256",
              "name": "maxLevel",
              "type": "uint256"
            },
            {
              "internalType": "uint256",
              "name": "durability",
              "type": "uint256"
            },
            {
              "internalType": "uint256",
              "name": "classRequired",
              "type": "uint256"
            },
            {
              "internalType": "uint256",
              "name": "strengthRequired",
              "type": "uint256"
            },
            {
              "internalType": "uint256",
              "name": "agilityRequired",
              "type": "uint256"
            },
            {
              "internalType": "uint256",
              "name": "energyRequired",
              "type": "uint256"
            },
            {
              "internalType": "uint256",
              "name": "vitalityRequired",
              "type": "uint256"
            },
            {
              "internalType": "uint256",
              "name": "itemWidth",
              "type": "uint256"
            },
            {
              "internalType": "uint256",
              "name": "itemHeight",
              "type": "uint256"
            },
            {
              "internalType": "uint256",
              "name": "acceptableSlot1",
              "type": "uint256"
            },
            {
              "internalType": "uint256",
              "name": "acceptableSlot2",
              "type": "uint256"
            },
            {
              "internalType": "uint256",
              "name": "physicalDamage",
              "type": "uint256"
            },
            {
              "internalType": "uint256",
              "name": "magicDamage",
              "type": "uint256"
            },
            {
              "internalType": "uint256",
              "name": "defense",
              "type": "uint256"
            },
            {
              "internalType": "uint256",
              "name": "attackSpeed",
              "type": "uint256"
            },
            {
              "internalType": "uint256",
              "name": "defenseSuccessRate",
              "type": "uint256"
            },
            {
              "internalType": "uint256",
              "name": "additionalDamage",
              "type": "uint256"
            },
            {
              "internalType": "uint256",
              "name": "additionalDefense",
              "type": "uint256"
            },
            {
              "internalType": "uint256",
              "name": "increasedExperienceGain",
              "type": "uint256"
            },
            {
              "internalType": "uint256",
              "name": "damageIncrease",
              "type": "uint256"
            },
            {
              "internalType": "uint256",
              "name": "defenseSuccessRateIncrease",
              "type": "uint256"
            },
            {
              "internalType": "uint256",
              "name": "lifeAfterMonsterIncrease",
              "type": "uint256"
            },
            {
              "internalType": "uint256",
              "name": "manaAfterMonsterIncrease",
              "type": "uint256"
            },
            {
              "internalType": "uint256",
              "name": "goldAfterMonsterIncrease",
              "type": "uint256"
            },
            {
              "internalType": "uint256",
              "name": "doubleDamageProbabilityIncrease",
              "type": "uint256"
            },
            {
              "internalType": "uint256",
              "name": "excellentDamageProbabilityIncrease",
              "type": "uint256"
            },
            {
              "internalType": "uint256",
              "name": "ignoreOpponentsDefenseRateIncrease",
              "type": "uint256"
            },
            {
              "internalType": "uint256",
              "name": "reflectDamage",
              "type": "uint256"
            },
            {
              "internalType": "uint256",
              "name": "maxLifeIncrease",
              "type": "uint256"
            },
            {
              "internalType": "uint256",
              "name": "maxManaIncrease",
              "type": "uint256"
            },
            {
              "internalType": "uint256",
              "name": "excellentDamageRateIncrease",
              "type": "uint256"
            },
            {
              "internalType": "uint256",
              "name": "doubleDamageRateIncrease",
              "type": "uint256"
            },
            {
              "internalType": "uint256",
              "name": "ignoreOpponentsDefenseSuccessRateIncrease",
              "type": "uint256"
            },
            {
              "internalType": "uint256",
              "name": "attackDamageIncrease",
              "type": "uint256"
            },
            {
              "internalType": "uint256",
              "name": "isAncient",
              "type": "uint256"
            },
            {
              "internalType": "uint256",
              "name": "reflectDamageRateIncrease",
              "type": "uint256"
            },
            {
              "internalType": "uint256",
              "name": "decreaseDamageRateIncrease",
              "type": "uint256"
            },
            {
              "internalType": "uint256",
              "name": "hpRecoveryRateIncrease",
              "type": "uint256"
            },
            {
              "internalType": "uint256",
              "name": "mpRecoveryRateIncrease",
              "type": "uint256"
            },
            {
              "internalType": "uint256",
              "name": "defenceIncreasePerLevel",
              "type": "uint256"
            },
            {
              "internalType": "uint256",
              "name": "damageIncreasePerLevel",
              "type": "uint256"
            },
            {
              "internalType": "uint256",
              "name": "increaseDefenseRate",
              "type": "uint256"
            },
            {
              "internalType": "uint256",
              "name": "strengthReqIncreasePerLevel",
              "type": "uint256"
            },
            {
              "internalType": "uint256",
              "name": "agilityReqIncreasePerLevel",
              "type": "uint256"
            },
            {
              "internalType": "uint256",
              "name": "energyReqIncreasePerLevel",
              "type": "uint256"
            },
            {
              "internalType": "uint256",
              "name": "vitalityReqIncreasePerLevel",
              "type": "uint256"
            },
            {
              "internalType": "uint256",
              "name": "attackSpeedIncrease",
              "type": "uint256"
            },
            {
              "internalType": "uint256",
              "name": "fighterId",
              "type": "uint256"
            },
            {
              "internalType": "uint256",
              "name": "lastUpdBlock",
              "type": "uint256"
            },
            {
              "internalType": "uint256",
              "name": "itemRarityLevel",
              "type": "uint256"
            },
            {
              "internalType": "uint256",
              "name": "itemAttributesId",
              "type": "uint256"
            },
            {
              "internalType": "bool",
              "name": "luck",
              "type": "bool"
            },
            {
              "internalType": "bool",
              "name": "skill",
              "type": "bool"
            },
            {
              "internalType": "bool",
              "name": "isBox",
              "type": "bool"
            },
            {
              "internalType": "bool",
              "name": "isWeapon",
              "type": "bool"
            },
            {
              "internalType": "bool",
              "name": "isArmour",
              "type": "bool"
            },
            {
              "internalType": "bool",
              "name": "isJewel",
              "type": "bool"
            },
            {
              "internalType": "bool",
              "name": "isMisc",
              "type": "bool"
            },
            {
              "internalType": "bool",
              "name": "isConsumable",
              "type": "bool"
            },
            {
              "internalType": "bool",
              "name": "inShop",
              "type": "bool"
            }
          ],
          "internalType": "struct ItemAtts.ItemAttributes",
          "name": "",
          "type": "tuple"
        }
      ],
      "stateMutability": "view",
      "type": "function",
      "constant": true
    },
    {
      "inputs": [
        {
          "internalType": "address",
          "name": "userAddress",
          "type": "address"
        }
      ],
      "name": "getUserItems",
      "outputs": [
        {
          "internalType": "uint256[]",
          "name": "",
          "type": "uint256[]"
        }
      ],
      "stateMutability": "view",
      "type": "function",
      "constant": true
    },
    {
      "inputs": [
        {
          "internalType": "address",
          "name": "userAddress",
          "type": "address"
        },
        {
          "internalType": "uint256",
          "name": "fighterId",
          "type": "uint256"
        }
      ],
      "name": "getFighterItems",
      "outputs": [
        {
          "internalType": "uint256[2][]",
          "name": "",
          "type": "uint256[2][]"
        }
      ],
      "stateMutability": "view",
      "type": "function",
      "constant": true
    },
    {
      "inputs": [
        {
          "internalType": "uint256",
          "name": "a",
          "type": "uint256"
        },
        {
          "internalType": "uint256",
          "name": "b",
          "type": "uint256"
        }
      ],
      "name": "safeMul",
      "outputs": [
        {
          "internalType": "uint256",
          "name": "",
          "type": "uint256"
        }
      ],
      "stateMutability": "nonpayable",
      "type": "function"
    },
    {
      "inputs": [
        {
          "internalType": "uint256",
          "name": "a",
          "type": "uint256"
        },
        {
          "internalType": "uint256",
          "name": "b",
          "type": "uint256"
        }
      ],
      "name": "safeSub",
      "outputs": [
        {
          "internalType": "uint256",
          "name": "",
          "type": "uint256"
        }
      ],
      "stateMutability": "nonpayable",
      "type": "function"
    },
    {
      "inputs": [
        {
          "internalType": "uint256",
          "name": "a",
          "type": "uint256"
        },
        {
          "internalType": "uint256",
          "name": "b",
          "type": "uint256"
        }
      ],
      "name": "safeAdd",
      "outputs": [
        {
          "internalType": "uint256",
          "name": "",
          "type": "uint256"
        }
      ],
      "stateMutability": "nonpayable",
      "type": "function"
    }
  ],
  "bytecode": "0x6064600a908155601c600b8190556032600c819055600d55601e600e819055600f8181556002601055600160115560006012556023608081905260a081905260c085905260e0859052610100859052610120829052601381905560149081556015859055601685905560178590556018919091556102606040526101408490526101608190526101808490526101a08490526101c08490526101e08490526102008490526102208490526102408290526019849055601a55601b83905590829055601d829055818155601f829055602091909155602155348015620000e357600080fd5b5060405162006f5238038062006f52833981016040819052620001069162001479565b604051806040016040528060068152602001651354925554d160d21b815250604051806040016040528060048152602001634974656d60e01b815250816000908162000153919062001555565b50600162000162828262001555565b50505033602460006101000a8154816001600160a01b0302191690836001600160a01b0316021790555081602260006101000a8154816001600160a01b0302191690836001600160a01b0316021790555080602360006101000a8154816001600160a01b0302191690836001600160a01b03160217905550620003b6604051806107e001604052806060815260200160008152602001600081526020016000815260200160008152602001600081526020016000815260200160008152602001600081526020016000815260200160008152602001600081526020016000815260200160008152602001600081526020016000815260200160008152602001600081526020016000815260200160008152602001600081526020016000815260200160008152602001600081526020016000815260200160008152602001600081526020016000815260200160008152602001600081526020016000815260200160008152602001600081526020016000815260200160008152602001600081526020016000815260200160008152602001600081526020016000815260200160008152602001600081526020016000815260200160008152602001600081526020016000815260200160008152602001600081526020016000815260200160008152602001600081526020016000815260200160008152602001600081526020016000151581526020016000151581526020016000151581526020016000151581526020016000151581526020016000151581526020016000151581526020016000151581526020016000151581525090565b60408051808201909152600a815269456d707479206974656d60b01b60208201528152620003e4816200042d565b50620003f0816200092a565b60408051808201909152600481526311dbdb1960e21b6020820152815262000418816200042d565b5062000424816200092a565b5050506200174a565b602d80546001810182556000918252825183916037027f4a2cc91ee622da3bc833a54c37ffcb6f3ec23b7793efc5eaf5e71b7b406c5c060190819062000474908262001555565b5060208281015160018381019190915560408401516002840155606084015160038401556080840151600484015560a0840151600584015560c0840151600684015560e084015160078401556101008085015160088501556101208501516009850155610140850151600a850155610160850151600b850155610180850151600c8501556101a0850151600d8501556101c0850151600e8501556101e0850151600f850155610200850151601085015561022085015160118501556102408501516012850155610260850151601385015561028085015160148501556102a085015160158501556102c085015160168501556102e0850151601785015561030085015160188501556103208501516019850155610340850151601a850155610360850151601b850155610380850151601c8501556103a0850151601d8501556103c0850151601e8501556103e0850151601f8501556104008501519284019290925561042084015160218401556104408401516022840155610460840151602384015561048084015160248401556104a084015160258401556104c084015160268401556104e0840151602784015561050084015160288401556105208401516029840155610540840151602a840155610560840151602b840155610580840151602c8401556105a0840151602d808501919091556105c0850151602e8501556105e0850151602f850155610600850151603085015561062085015160318501556106408501516032850155610660850151603385015561068085015160348501556106a085015160358501556106c0850151603690940180546106e08701516107008801516107208901516107408a01516107608b01516107808c01516107a08d01516107c0909d015161ffff199097169b151561ff0019169b909b179415159099029390931763ffff00001916620100009215159290920263ff0000001916919091176301000000911515919091021761ffff60201b19166401000000009115159190910260ff60281b19161765010000000000951515959095029490941761ffff60301b191666010000000000009515159590950260ff60381b191694909417670100000000000000951515959095029490941760ff60401b19166801000000000000000092151592909202919091179091559054600091620007da9162001621565b905080602d8281548110620007f357620007f362001649565b906000526020600020906037020160350181905550826107200151156200084157610680830151600090815260256020908152604082208054600181018255908352912001819055620008e7565b826107400151156200087a57610680830151600090815260266020908152604082208054600181018255908352912001819055620008e7565b82610760015115620008b357610680830151600090815260276020908152604082208054600181018255908352912001819055620008e7565b82610780015115620008e7576106808301516000908152602860209081526040822080546001810182559083529120018190555b82516040517f0538ce8dba67be446d1a480a6e48683b27c6efb61d7c01d60767e15705e5d00f916200091c91849190620016a7565b60405180910390a192915050565b62000939602e80546001019055565b600062000945602e5490565b905062000953338262000984565b6200095f8183620009aa565b6000818152602c60205260408120600181019290925560328201554360339091015550565b620009a682826040518060200160405280600081525062000d8660201b60201c565b5050565b6000828152600260205260409020546001600160a01b031662000a145760405162461bcd60e51b815260206004820152601460248201527f546f6b656e20646f6573206e6f7420657869737400000000000000000000000060448201526064015b60405180910390fd5b6000828152602c602052604090208151829190819062000a35908262001555565b50602082810151600183015560408301516002830155606083015160038301556080830151600483015560a0830151600583015560c0830151600683015560e083015160078301556101008084015160088401556101208401516009840155610140840151600a840155610160840151600b840155610180840151600c8401556101a0840151600d8401556101c0840151600e8401556101e0840151600f840155610200840151601084015561022084015160118401556102408401516012840155610260840151601384015561028084015160148401556102a084015160158401556102c084015160168401556102e0840151601784015561030084015160188401556103208401516019840155610340840151601a840155610360840151601b840155610380840151601c8401556103a0840151601d8401556103c0840151601e8401556103e0840151601f8401556104008401519183019190915561042083015160218301556104408301516022830155610460830151602383015561048083015160248301556104a083015160258301556104c083015160268301556104e0830151602783015561050083015160288301556105208301516029830155610540830151602a830155610560830151602b830155610580830151602c8301556105a0830151602d8301556105c0830151602e8301556105e0830151602f830155610600830151603083015561062083015160318301556106408301516032830155610660830151603383015561068083015160348301556106a083015160358301556106c0830151603690920180546106e08501516107008601516107208701516107408801516107608901516107808a01516107a08b01516107c0909b015161ffff1990971699151561ff001916999099179415159097029390931763ffff00001916620100009215159290920263ff0000001916919091176301000000911515919091021761ffff60201b19166401000000009115159190910260ff60281b19161765010000000000931515939093029290921761ffff60301b191666010000000000009315159390930260ff60381b191692909217670100000000000000931515939093029290921760ff60401b191668010000000000000000921515929092029190911790555050565b62000d92838362000dfe565b62000da1600084848462000f9f565b62000df95760405162461bcd60e51b8152602060048201526032602482015260008051602062006f3283398151915260448201527131b2b4bb32b91034b6b83632b6b2b73a32b960711b606482015260840162000a0b565b505050565b6001600160a01b03821662000e565760405162461bcd60e51b815260206004820181905260248201527f4552433732313a206d696e7420746f20746865207a65726f2061646472657373604482015260640162000a0b565b6000818152600260205260409020546001600160a01b03161562000ebd5760405162461bcd60e51b815260206004820152601c60248201527f4552433732313a20746f6b656e20616c7265616479206d696e74656400000000604482015260640162000a0b565b62000ecd600083836001620010e7565b6000818152600260205260409020546001600160a01b03161562000f345760405162461bcd60e51b815260206004820152601c60248201527f4552433732313a20746f6b656e20616c7265616479206d696e74656400000000604482015260640162000a0b565b6001600160a01b038216600081815260036020908152604080832080546001019055848352600290915280822080546001600160a01b0319168417905551839291907fddf252ad1be2c89b69c2b068fc378daa952ba7f163c4a11628f55a4df523b3ef908290a45050565b60006001600160a01b0384163b15620010db57604051630a85bd0160e11b81526001600160a01b0385169063150b7a029062000fe6903390899088908890600401620016c2565b6020604051808303816000875af192505050801562001024575060408051601f3d908101601f19168201909252620010219181019062001701565b60015b620010c0573d80801562001055576040519150601f19603f3d011682016040523d82523d6000602084013e6200105a565b606091505b508051600003620010b85760405162461bcd60e51b8152602060048201526032602482015260008051602062006f3283398151915260448201527131b2b4bb32b91034b6b83632b6b2b73a32b960711b606482015260840162000a0b565b805181602001fd5b6001600160e01b031916630a85bd0160e11b149050620010df565b5060015b949350505050565b6001811115620011605760405162461bcd60e51b815260206004820152603560248201527f455243373231456e756d657261626c653a20636f6e736563757469766520747260448201527f616e7366657273206e6f7420737570706f727465640000000000000000000000606482015260840162000a0b565b816001600160a01b038516620011bf57620011b981600880546000838152600960205260408120829055600182018355919091527ff3f7a9fe364faab93b216da50a3214154f22a0a2b415b23a84c8169e8b636ee30155565b620011e5565b836001600160a01b0316856001600160a01b031614620011e557620011e5858262001232565b6001600160a01b0384166200120557620011ff81620012d4565b6200122b565b846001600160a01b0316846001600160a01b0316146200122b576200122b84826200138e565b5050505050565b600060016200124184620013d4565b6200124d919062001621565b600083815260076020526040902054909150808214620012a1576001600160a01b03841660009081526006602090815260408083208584528252808320548484528184208190558352600790915290208190555b5060009182526007602090815260408084208490556001600160a01b039094168352600681528383209183525290812055565b600854600090620012e89060019062001621565b6000838152600960205260408120546008805493945090928490811062001313576200131362001649565b90600052602060002001549050806008838154811062001337576200133762001649565b600091825260208083209091019290925582815260099091526040808220849055858252812055600880548062001372576200137262001734565b6001900381819060005260206000200160009055905550505050565b60006200139b83620013d4565b6001600160a01b039093166000908152600660209081526040808320868452825280832085905593825260079052919091209190915550565b60006001600160a01b038216620014405760405162461bcd60e51b815260206004820152602960248201527f4552433732313a2061646472657373207a65726f206973206e6f7420612076616044820152683634b21037bbb732b960b91b606482015260840162000a0b565b506001600160a01b031660009081526003602052604090205490565b80516001600160a01b03811681146200147457600080fd5b919050565b600080604083850312156200148d57600080fd5b62001498836200145c565b9150620014a8602084016200145c565b90509250929050565b634e487b7160e01b600052604160045260246000fd5b600181811c90821680620014dc57607f821691505b602082108103620014fd57634e487b7160e01b600052602260045260246000fd5b50919050565b601f82111562000df957600081815260208120601f850160051c810160208610156200152c5750805b601f850160051c820191505b818110156200154d5782815560010162001538565b505050505050565b81516001600160401b03811115620015715762001571620014b1565b6200158981620015828454620014c7565b8462001503565b602080601f831160018114620015c15760008415620015a85750858301515b600019600386901b1c1916600185901b1785556200154d565b600085815260208120601f198616915b82811015620015f257888601518255948401946001909101908401620015d1565b5085821015620016115787850151600019600388901b60f8161c191681555b5050505050600190811b01905550565b818103818111156200164357634e487b7160e01b600052601160045260246000fd5b92915050565b634e487b7160e01b600052603260045260246000fd5b6000815180845260005b81811015620016875760208185018101518683018201520162001669565b506000602082860101526020601f19601f83011685010191505092915050565b828152604060208201526000620010df60408301846200165f565b6001600160a01b0385811682528416602082015260408101839052608060608201819052600090620016f7908301846200165f565b9695505050505050565b6000602082840312156200171457600080fd5b81516001600160e01b0319811681146200172d57600080fd5b9392505050565b634e487b7160e01b600052603160045260246000fd5b6157d8806200175a6000396000f3fe608060405234801561001057600080fd5b50600436106102745760003560e01c806370a0823111610151578063c87b56dd116100c3578063e6cb901311610087578063e6cb9013146106b2578063e985e9c5146106c5578063eb36bf9c14610701578063eceb690214610714578063f108ff2b14610727578063f4d106541461074757600080fd5b8063c87b56dd146105f1578063caf7c44514610604578063ce6019b414610617578063d05c78da14610637578063d0660b371461064a57600080fd5b8063a293d1e811610115578063a293d1e8146104ca578063b1e5e2b7146104dd578063b88d4fde146104f0578063c29a3c9314610503578063c6d6f6b114610516578063c864b1eb146105d157600080fd5b806370a0823114610476578063843bd641146104895780638da5cb5b1461049c57806395d89b41146104af578063a22cb465146104b757600080fd5b806340d097c3116101ea578063576cc0f7116101ae578063576cc0f714610404578063590956cd14610417578063635034471461042a5780636352211e1461043d578063683c277d146104505780636995795b1461046357600080fd5b806340d097c31461039857806342842e0e146103ab5780634d772a38146103be5780634f6ccce7146103d1578063513c1452146103e457600080fd5b806318160ddd1161023c57806318160ddd146103175780631f4f5a231461031f57806323b872dd1461033f57806324b9c595146103525780632f745c591461037257806332fac8f81461038557600080fd5b806301ffc9a71461027957806303d2e4a1146102a157806306fdde03146102c2578063081812fc146102d7578063095ea7b314610302575b600080fd5b61028c61028736600461476b565b61075a565b60405190151581526020015b60405180910390f35b6102b46102af366004614788565b610785565b604051908152602001610298565b6102ca6107b6565b60405161029891906147fa565b6102ea6102e536600461480d565b610848565b6040516001600160a01b039091168152602001610298565b610315610310366004614842565b61086f565b005b6008546102b4565b61033261032d36600461480d565b610989565b6040516102989190614b43565b61031561034d366004614b56565b610d6c565b610315610360366004614788565b60009182526029602052604090912055565b6102b4610380366004614842565b610d9d565b610315610393366004614788565b610e33565b6102b46103a6366004614b92565b610fce565b6103156103b9366004614b56565b610ff5565b6102b46103cc366004614fe2565b611010565b6102b46103df36600461480d565b6114f4565b6103f76103f2366004614842565b611587565b6040516102989190615017565b61031561041236600461480d565b611695565b610315610425366004615080565b611734565b6102b4610438366004614788565b6117e0565b6102ea61044b36600461480d565b6117fc565b61031561045e366004615080565b61185c565b61033261047136600461480d565b611908565b6102b4610484366004614b92565b611994565b61028c61049736600461480d565b611a1a565b6024546102ea906001600160a01b031681565b6102ca611a25565b6103156104c5366004615134565b611a34565b6102b46104d8366004614788565b611a43565b6102b46104eb36600461480d565b611a66565b6103156104fe366004615167565b611fa1565b6102b4610511366004614788565b611fd9565b61057e61052436600461480d565b602a60205280600052604060002060009150905080600001549080600101549080600201549080600301549080600401549080600501549080600601549080600701549080600801549080600901549080600a015490508b565b604080519b8c5260208c019a909a52988a01979097526060890195909552608088019390935260a087019190915260c086015260e085015261010084015261012083015261014082015261016001610298565b6102b46105df36600461480d565b60296020526000908152604090205481565b6102ca6105ff36600461480d565b611ff5565b610315610612366004614788565b612068565b61062a610625366004614b92565b61218e565b60405161029891906151e3565b6102b4610645366004614788565b612230565b61057e61065836600461480d565b602b60205280600052604060002060009150905080600001549080600101549080600201549080600301549080600401549080600501549080600601549080600701549080600801549080600901549080600a015490508b565b6102b46106c0366004614788565b612260565b61028c6106d3366004615227565b6001600160a01b03918216600090815260056020908152604080832093909416825291909152205460ff1690565b61031561070f366004615251565b61228a565b6102b4610722366004615298565b61263d565b6102b461073536600461480d565b60009081526029602052604090205490565b6102b4610755366004614788565b612cb0565b60006001600160e01b0319821663780e9d6360e01b148061077f575061077f82612ccc565b92915050565b602760205281600052604060002081815481106107a157600080fd5b90600052602060002001600091509150505481565b6060600080546107c5906152c4565b80601f01602080910402602001604051908101604052809291908181526020018280546107f1906152c4565b801561083e5780601f106108135761010080835404028352916020019161083e565b820191906000526020600020905b81548152906001019060200180831161082157829003601f168201915b5050505050905090565b600061085382612d1c565b506000908152600460205260409020546001600160a01b031690565b600061087a826117fc565b9050806001600160a01b0316836001600160a01b0316036108ec5760405162461bcd60e51b815260206004820152602160248201527f4552433732313a20617070726f76616c20746f2063757272656e74206f776e656044820152603960f91b60648201526084015b60405180910390fd5b336001600160a01b0382161480610908575061090881336106d3565b61097a5760405162461bcd60e51b815260206004820152603d60248201527f4552433732313a20617070726f76652063616c6c6572206973206e6f7420746f60448201527f6b656e206f776e6572206f7220617070726f76656420666f7220616c6c00000060648201526084016108e3565b6109848383612d6c565b505050565b61099161455f565b61099a82612dda565b6109dd5760405162461bcd60e51b8152602060048201526014602482015273151bdad95b88191bd95cc81b9bdd08195e1a5cdd60621b60448201526064016108e3565b6000828152602c60205260409081902081516107e08101909252805482908290610a06906152c4565b80601f0160208091040260200160405190810160405280929190818152602001828054610a32906152c4565b8015610a7f5780601f10610a5457610100808354040283529160200191610a7f565b820191906000526020600020905b815481529060010190602001808311610a6257829003601f168201915b50505091835250506001820154602080830191909152600283015460408301526003830154606083015260048301546080830152600583015460a0830152600683015460c0830152600783015460e08301526008830154610100808401919091526009840154610120840152600a840154610140840152600b840154610160840152600c840154610180840152600d8401546101a0840152600e8401546101c0840152600f8401546101e08401526010840154610200840152601184015461022084015260128401546102408401526013840154610260840152601484015461028084015260158401546102a084015260168401546102c084015260178401546102e084015260188401546103008401526019840154610320840152601a840154610340840152601b840154610360840152601c840154610380840152601d8401546103a0840152601e8401546103c0840152601f8401546103e084015290830154610400830152602183015461042083015260228301546104408301526023830154610460830152602483015461048083015260258301546104a083015260268301546104c083015260278301546104e083015260288301546105008301526029830154610520830152602a830154610540830152602b830154610560830152602c830154610580830152602d8301546105a0830152602e8301546105c0830152602f8301546105e08301526030830154610600830152603183015461062083015260328301546106408301526033830154610660830152603483015461068083015260358301546106a083015260369092015460ff80821615156106c0840152928104831615156106e0830152620100008104831615156107008301526301000000810483161515610720830152600160201b810483161515610740830152600160281b810483161515610760830152600160301b810483161515610780830152600160381b8104831615156107a0830152600160401b900490911615156107c09091015292915050565b610d763382612df7565b610d925760405162461bcd60e51b81526004016108e3906152fe565b610984838383612e76565b6000610da883611994565b8210610e0a5760405162461bcd60e51b815260206004820152602b60248201527f455243373231456e756d657261626c653a206f776e657220696e646578206f7560448201526a74206f6620626f756e647360a81b60648201526084016108e3565b506001600160a01b03919091166000908152600660209081526040808320938352929052205490565b600b54811115610e7a5760405162461bcd60e51b815260206004820152601260248201527113585e081c1bda5b9d1cc81c995858da195960721b60448201526064016108e3565b6000828152602c60205260409020603601546301000000900460ff1680610eb957506000828152602c6020526040902060360154600160201b900460ff165b610efa5760405162461bcd60e51b815260206004820152601260248201527113585e081c1bda5b9d1cc81c995858da195960721b60448201526064016108e3565b6000828152602c60205260409020603601546301000000900460ff1615610f34576000828152602c60205260409020601301819055610f6a565b6000828152602c6020526040902060360154600160201b900460ff1615610f6a576000828152602c602052604090206014018190555b6000828152602c6020526040902060138101546014909101547feb0459535a230602900381169fbc16d356c03aaccc2d5579b42d132d65ffa82a918491610fb19190615361565b604080519283526020830191909152015b60405180910390a15050565b6000610fde602e80546001019055565b6000610fe9602e5490565b905061077f8382612fe7565b61098483838360405180602001604052806000815250611fa1565b602d80546001810182556000918252825183916037027f4a2cc91ee622da3bc833a54c37ffcb6f3ec23b7793efc5eaf5e71b7b406c5c060190819061105590826153c2565b5060208281015160018381019190915560408401516002840155606084015160038401556080840151600484015560a0840151600584015560c0840151600684015560e084015160078401556101008085015160088501556101208501516009850155610140850151600a850155610160850151600b850155610180850151600c8501556101a0850151600d8501556101c0850151600e8501556101e0850151600f850155610200850151601085015561022085015160118501556102408501516012850155610260850151601385015561028085015160148501556102a085015160158501556102c085015160168501556102e0850151601785015561030085015160188501556103208501516019850155610340850151601a850155610360850151601b850155610380850151601c8501556103a0850151601d8501556103c0850151601e8501556103e0850151601f8501556104008501519284019290925561042084015160218401556104408401516022840155610460840151602384015561048084015160248401556104a084015160258401556104c084015160268401556104e0840151602784015561050084015160288401556105208401516029840155610540840151602a840155610560840151602b840155610580840151602c8401556105a0840151602d808501919091556105c0850151602e8501556105e0850151602f850155610600850151603085015561062085015160318501556106408501516032850155610660850151603385015561068085015160348501556106a085015160358501556106c0850151603690940180546106e08701516107008801516107208901516107408a01516107608b01516107808c01516107a08d01516107c0909d015161ffff199097169b151561ff0019169b909b179415159099029390931763ffff00001916620100009215159290920263ff0000001916919091176301000000911515919091021765ffff000000001916600160201b9115159190910265ff0000000000191617600160281b951515959095029490941767ffff0000000000001916600160301b9515159590950260ff60381b191694909417600160381b951515959095029490941760ff60401b1916600160401b921515929092029190911790915590546000916113b091615482565b905080602d82815481106113c6576113c6615495565b90600052602060002090603702016035018190555082610720015115611412576106808301516000908152602560209081526040822080546001810182559083529120018190556114b3565b82610740015115611449576106808301516000908152602660209081526040822080546001810182559083529120018190556114b3565b82610760015115611480576106808301516000908152602760209081526040822080546001810182559083529120018190556114b3565b826107800151156114b3576106808301516000908152602860209081526040822080546001810182559083529120018190555b82516040517f0538ce8dba67be446d1a480a6e48683b27c6efb61d7c01d60767e15705e5d00f916114e6918491906154ab565b60405180910390a192915050565b60006114ff60085490565b82106115625760405162461bcd60e51b815260206004820152602c60248201527f455243373231456e756d657261626c653a20676c6f62616c20696e646578206f60448201526b7574206f6620626f756e647360a01b60648201526084016108e3565b6008828154811061157557611575615495565b90600052602060002001549050919050565b6060600061159484611994565b905060008167ffffffffffffffff8111156115b1576115b1614bad565b6040519080825280602002602001820160405280156115ea57816020015b6115d7614737565b8152602001906001900390816115cf5790505b509050600080805b84811015611689576116048882610d9d565b6000818152602c6020526040902060320154909350879003611669576040518060400160405280848152602001602c60008681526020019081526020016000206033015481525084838151811061165d5761165d615495565b60200260200101819052505b81611673816154c4565b9250508080611681906154c4565b9150506115f2565b50919695505050505050565b600181116116dd5760405162461bcd60e51b8152602060048201526015602482015274151bdad95b8818d85b9b9bdd08189948189d5c9b9d605a1b60448201526064016108e3565b6116e681612dda565b6117285760405162461bcd60e51b8152602060048201526013602482015272151bdad95b88191bd95cdb89dd08195e1a5cdd606a1b60448201526064016108e3565b61173181613001565b50565b6000828152602b602090815260409182902083518155908301516001820155818301516002820155606083015160038201556080830151600482015560a0830151600582015560c0830151600682015560e0830151600782015561010083015160088201556101208301516009820155610140830151600a90910155517f38ba25a70ea7fc2424eb4bb439184f5c089930d5f9e2b0fb1da7bc6302717a3f90610fc290849084906154dd565b602660205281600052604060002081815481106107a157600080fd5b6000818152600260205260408120546001600160a01b03168061077f5760405162461bcd60e51b8152602060048201526018602482015277115490cdcc8c4e881a5b9d985b1a59081d1bdad95b88125160421b60448201526064016108e3565b6000828152602a602090815260409182902083518155908301516001820155818301516002820155606083015160038201556080830151600482015560a0830151600582015560c0830151600682015560e0830151600782015561010083015160088201556101208301516009820155610140830151600a90910155517f888ff831b3adb1b32886789f0933b0a05ec1c94ee21c8989f11f236ab465e86e90610fc290849084906154dd565b61191061455f565b602d5482106119575760405162461bcd60e51b8152602060048201526013602482015272125d195b48191bd95cc81b9bdd08195e1a5cdd606a1b60448201526064016108e3565b602d828154811061196a5761196a615495565b9060005260206000209060370201604051806107e0016040529081600082018054610a06906152c4565b60006001600160a01b0382166119fe5760405162461bcd60e51b815260206004820152602960248201527f4552433732313a2061646472657373207a65726f206973206e6f7420612076616044820152683634b21037bbb732b960b91b60648201526084016108e3565b506001600160a01b031660009081526003602052604090205490565b600061077f82612dda565b6060600180546107c5906152c4565b611a3f3383836130a4565b5050565b600082821115611a5557611a5561556a565b611a5f8284615482565b9392505050565b6000611a7182612dda565b611ab35760405162461bcd60e51b8152602060048201526013602482015272151bdad95b88191bd95cdb89dd08195e1a5cdd606a1b60448201526064016108e3565b6000828152602c602052604080822081516107e08101909252805482908290611adb906152c4565b80601f0160208091040260200160405190810160405280929190818152602001828054611b07906152c4565b8015611b545780601f10611b2957610100808354040283529160200191611b54565b820191906000526020600020905b815481529060010190602001808311611b3757829003601f168201915b50505050508152602001600182015481526020016002820154815260200160038201548152602001600482015481526020016005820154815260200160068201548152602001600782015481526020016008820154815260200160098201548152602001600a8201548152602001600b8201548152602001600c8201548152602001600d8201548152602001600e8201548152602001600f820154815260200160108201548152602001601182015481526020016012820154815260200160138201548152602001601482015481526020016015820154815260200160168201548152602001601782015481526020016018820154815260200160198201548152602001601a8201548152602001601b8201548152602001601c8201548152602001601d8201548152602001601e8201548152602001601f820154815260200160208201548152602001602182015481526020016022820154815260200160238201548152602001602482015481526020016025820154815260200160268201548152602001602782015481526020016028820154815260200160298201548152602001602a8201548152602001602b8201548152602001602c8201548152602001602d8201548152602001602e8201548152602001602f82015481526020016030820154815260200160318201548152602001603282015481526020016033820154815260200160348201548152602001603582015481526020016036820160009054906101000a900460ff161515151581526020016036820160019054906101000a900460ff161515151581526020016036820160029054906101000a900460ff161515151581526020016036820160039054906101000a900460ff161515151581526020016036820160049054906101000a900460ff161515151581526020016036820160059054906101000a900460ff161515151581526020016036820160069054906101000a900460ff161515151581526020016036820160079054906101000a900460ff161515151581526020016036820160089054906101000a900460ff16151515158152505090506000602b600083610680015181526020019081526020016000206040518061016001604052908160008201548152602001600182015481526020016002820154815260200160038201548152602001600482015481526020016005820154815260200160068201548152602001600782015481526020016008820154815260200160098201548152602001600a8201548152505090506000611f0b83610680015183613172565b90506000600190506000828243604051602001611f2a93929190615580565b60408051601f198184030181528282528051602091820120600081815260299092529181208590559092507f3841c361cdf7d0e32f11fba3546430edc33df0af2ee8a7eaa09af95428fe784b91611f86918491879187916155a5565b60405180910390a1611f9787613001565b5050505050919050565b611fab3383612df7565b611fc75760405162461bcd60e51b81526004016108e3906152fe565b611fd384848484613990565b50505050565b602860205281600052604060002081815481106107a157600080fd5b606061200082612d1c565b600061201760408051602081019091526000815290565b905060008151116120375760405180602001604052806000815250611a5f565b80612041846139c3565b6040516020016120529291906155d1565b6040516020818303038152906040529392505050565b6000828152602c60205260409020600301548111156120c25760405162461bcd60e51b815260206004820152601660248201527513585e081a5d195b481b195d995b081c995858da195960521b60448201526064016108e3565b6000828152602c60205260409020600201546120df906001615361565b8111156121435760405162461bcd60e51b815260206004820152602c60248201527f4974656d2063616e2062652075706772616465206f6e65206c6576656c20617460448201526b20612074696d65206f6e6c7960a01b60648201526084016108e3565b6000828152602c602090815260409182902060020183905581518481529081018390527f535fb4315d70f1b2d62609c85f8b9cd714e3687d6cee1a46ff7947f852bf71649101610fc2565b6060600061219b83611994565b905060008167ffffffffffffffff8111156121b8576121b8614bad565b6040519080825280602002602001820160405280156121e1578160200160208202803683370190505b50905060005b82811015612228576121f98582610d9d565b82828151811061220b5761220b615495565b602090810291909101015280612220816154c4565b9150506121e7565b509392505050565b60008061223d8385615600565b9050831580612254575082612252858361562d565b145b611a5f57611a5f61556a565b60008061226d8385615361565b9050838110158015612254575082811015611a5f57611a5f61556a565b61229382612dda565b6122d65760405162461bcd60e51b8152602060048201526014602482015273151bdad95b88191bd95cc81b9bdd08195e1a5cdd60621b60448201526064016108e3565b6000828152602c60205260409020815182919081906122f590826153c2565b50602082810151600183015560408301516002830155606083015160038301556080830151600483015560a0830151600583015560c0830151600683015560e083015160078301556101008084015160088401556101208401516009840155610140840151600a840155610160840151600b840155610180840151600c8401556101a0840151600d8401556101c0840151600e8401556101e0840151600f840155610200840151601084015561022084015160118401556102408401516012840155610260840151601384015561028084015160148401556102a084015160158401556102c084015160168401556102e0840151601784015561030084015160188401556103208401516019840155610340840151601a840155610360840151601b840155610380840151601c8401556103a0840151601d8401556103c0840151601e8401556103e0840151601f8401556104008401519183019190915561042083015160218301556104408301516022830155610460830151602383015561048083015160248301556104a083015160258301556104c083015160268301556104e0830151602783015561050083015160288301556105208301516029830155610540830151602a830155610560830151602b830155610580830151602c8301556105a0830151602d8301556105c0830151602e8301556105e0830151602f830155610600830151603083015561062083015160318301556106408301516032830155610660830151603383015561068083015160348301556106a083015160358301556106c0830151603690920180546106e08501516107008601516107208701516107408801516107608901516107808a01516107a08b01516107c0909b015161ffff1990971699151561ff001916999099179415159097029390931763ffff00001916620100009215159290920263ff0000001916919091176301000000911515919091021765ffff000000001916600160201b9115159190910265ff0000000000191617600160281b931515939093029290921767ffff0000000000001916600160301b9315159390930260ff60381b191692909217600160381b931515939093029290921760ff60401b1916600160401b921515929092029190911790555050565b6000838152602a60209081526040808320815161016081018352815481526001820154938101939093526002810154918301919091526003810154606083015260048101546080830152600581015460a0830152600681015460c0830152600781015460e083015260088101546101008301526009810154610120830152600a0154610140820181905261271e5760405162461bcd60e51b815260206004820152602260248201527f4e6f2064726f7020706172616d657465727320666f72207261726974794c6576604482015261195b60f21b60648201526084016108e3565b6000831161276e5760405162461bcd60e51b815260206004820152601b60248201527f457870657269656e6365206d757374206265206e6f6e207a65726f000000000060448201526064016108e3565b600061277a8683613172565b9050600061278860c8613a56565b600a54909150600190821115612b8d57602d6001815481106127ac576127ac615495565b9060005260206000209060370201604051806107e00160405290816000820180546127d6906152c4565b80601f0160208091040260200160405190810160405280929190818152602001828054612802906152c4565b801561284f5780601f106128245761010080835404028352916020019161284f565b820191906000526020600020905b81548152906001019060200180831161283257829003601f168201915b5050509183525050600182015460208083019190915260028301546040808401919091526003840154606084015260048401546080840152600584015460a0840152600684015460c0840152600784015460e08401526008840154610100808501919091526009850154610120850152600a850154610140850152600b850154610160850152600c850154610180850152600d8501546101a0850152600e8501546101c0850152600f8501546101e0850152601085015461020085015260118501546102208501526012808601546102408601526013860154610260860152601486015461028086015260158601546102a086015260168601546102c086015260178601546102e086015260188601546103008601526019860154610320860152601a860154610340860152601b860154610360860152601c860154610380860152601d8601546103a0860152601e8601546103c0860152601f8601546103e086015292850154610400850152602185015461042085015260228501546104408501526023850154610460850152602485015461048085015260258501546104a085015260268501546104c085015260278501546104e085015260288501546105008501526029850154610520850152602a850154610540850152602b850154610560850152602c850154610580850152602d8501546105a0850152602e8501546105c0850152602f8501546105e08501526030850154610600850152603185015461062085015260328501546106408501526033850154610660850152603485015461068085015260358501546106a085015260369094015460ff80821615156106c0860152948104851615156106e0850152620100008104851615156107008501526301000000810485161515610720850152600160201b810485161515610740850152600160281b810485161515610760850152600160301b810485161515610780850152600160381b8104851615156107a0850152600160401b900490931615156107c0909201919091525490519194507f3841c361cdf7d0e32f11fba3546430edc33df0af2ee8a7eaa09af95428fe784b91612b779190869060009081906155a5565b60405180910390a15060009350611a5f92505050565b601154836106a0015103612c2957612c266001602360009054906101000a90046001600160a01b03166001600160a01b0316631e56dc2c6040518163ffffffff1660e01b8152600401602060405180830381865afa158015612bf3573d6000803e3d6000fd5b505050506040513d601f19601f82011682018060405250810190612c179190615641565b612c21908961562d565b613a97565b90505b6000838243604051602001612c4093929190615580565b60408051601f198184030181528282528051602091820120600081815260299092529181208590559092507f3841c361cdf7d0e32f11fba3546430edc33df0af2ee8a7eaa09af95428fe784b91612c9c918491889187916155a5565b60405180910390a198975050505050505050565b602560205281600052604060002081815481106107a157600080fd5b60006001600160e01b031982166380ac58cd60e01b1480612cfd57506001600160e01b03198216635b5e139f60e01b145b8061077f57506301ffc9a760e01b6001600160e01b031983161461077f565b612d2581612dda565b6117315760405162461bcd60e51b8152602060048201526018602482015277115490cdcc8c4e881a5b9d985b1a59081d1bdad95b88125160421b60448201526064016108e3565b600081815260046020526040902080546001600160a01b0319166001600160a01b0384169081179091558190612da1826117fc565b6001600160a01b03167f8c5be1e5ebec7d5bd14f71427d1e84f3dd0314c0f7b2291e5b200ac8c7c3b92560405160405180910390a45050565b6000908152600260205260409020546001600160a01b0316151590565b600080612e03836117fc565b9050806001600160a01b0316846001600160a01b03161480612e4a57506001600160a01b0380821660009081526005602090815260408083209388168352929052205460ff165b80612e6e5750836001600160a01b0316612e6384610848565b6001600160a01b0316145b949350505050565b826001600160a01b0316612e89826117fc565b6001600160a01b031614612eaf5760405162461bcd60e51b81526004016108e39061565a565b6001600160a01b038216612f115760405162461bcd60e51b8152602060048201526024808201527f4552433732313a207472616e7366657220746f20746865207a65726f206164646044820152637265737360e01b60648201526084016108e3565b612f1e8383836001613aad565b826001600160a01b0316612f31826117fc565b6001600160a01b031614612f575760405162461bcd60e51b81526004016108e39061565a565b600081815260046020908152604080832080546001600160a01b03199081169091556001600160a01b0387811680865260038552838620805460001901905590871680865283862080546001019055868652600290945282852080549092168417909155905184937fddf252ad1be2c89b69c2b068fc378daa952ba7f163c4a11628f55a4df523b3ef91a4505050565b611a3f828260405180602001604052806000815250613be1565b600061300c826117fc565b905061301c816000846001613aad565b613025826117fc565b600083815260046020908152604080832080546001600160a01b03199081169091556001600160a01b0385168085526003845282852080546000190190558785526002909352818420805490911690555192935084927fddf252ad1be2c89b69c2b068fc378daa952ba7f163c4a11628f55a4df523b3ef908390a45050565b816001600160a01b0316836001600160a01b0316036131055760405162461bcd60e51b815260206004820152601960248201527f4552433732313a20617070726f766520746f2063616c6c65720000000000000060448201526064016108e3565b6001600160a01b03838116600081815260056020908152604080832094871680845294825291829020805460ff191686151590811790915591519182527f17307eab39ab6107e8899845ad3d59bd9653f200f220920489ca2b5937696c31910160405180910390a3505050565b61317a61455f565b600061318860006064613c14565b60408401519091506000908083101561320e576132076064602760008981526020019081526020016000208054806020026020016040519081016040528092919081815260200182805480156131fd57602002820191906000526020600020905b8154815260200190600101908083116131e9575b5050505050613c54565b91506133be565b602085015161321d9082615361565b905080831015613291576132076065602660008981526020019081526020016000208054806020026020016040519081016040528092919081815260200182805480156131fd57602002820191906000526020600020908154815260200190600101908083116131e9575050505050613c54565b845161329d9082615361565b905080831015613311576132076066602560008981526020019081526020016000208054806020026020016040519081016040528092919081815260200182805480156131fd57602002820191906000526020600020908154815260200190600101908083116131e9575050505050613c54565b60608501516133209082615361565b905080831015613394576132076067602860008981526020019081526020016000208054806020026020016040519081016040528092919081815260200182805480156131fd57602002820191906000526020600020908154815260200190600101908083116131e9575050505050613c54565b60808501516133a39082615361565b9050808310156133b9578460c0015191506133be565b600191505b6000602d83815481106133d3576133d3615495565b9060005260206000209060370201604051806107e00160405290816000820180546133fd906152c4565b80601f0160208091040260200160405190810160405280929190818152602001828054613429906152c4565b80156134765780601f1061344b57610100808354040283529160200191613476565b820191906000526020600020905b81548152906001019060200180831161345957829003601f168201915b50505091835250506001820154602080830191909152600283015460408301526003830154606083015260048301546080830152600583015460a0830152600683015460c0830152600783015460e08301526008830154610100808401919091526009840154610120840152600a840154610140840152600b840154610160840152600c840154610180840152600d8401546101a0840152600e8401546101c0840152600f8401546101e08401526010840154610200840152601184015461022084015260128401546102408401526013840154610260840152601484015461028084015260158401546102a084015260168401546102c084015260178401546102e084015260188401546103008401526019840154610320840152601a840154610340840152601b840154610360840152601c840154610380840152601d8401546103a0840152601e8401546103c0840152601f8401546103e084015290830154610400830152602183015461042083015260228301546104408301526023830154610460830152602483015461048083015260258301546104a083015260268301546104c083015260278301546104e083015260288301546105008301526029830154610520830152602a830154610540830152602b830154610560830152602c830154610580830152602d8301546105a0830152602e8301546105c0830152602f8301546105e08301526030830154610600830152603183015461062083015260328301546106408301526033830154610660830152603483015461068083015260358301546106a08084019190915260369093015460ff80821615156106c0850152918104821615156106e0840152620100008104821615156107008401526301000000810482161515610720840152600160201b810482161515610740840152600160281b81048216151561076080850191909152600160301b820483161515610780850152600160381b8204831615156107a0850152600160401b90910490911615156107c0909201919091529082018590528101519091501580156137855750806107800151155b80156137945750806107000151155b80156137ab5750600e546137a86001613a56565b11155b80156137bd5750806106a00151600114155b80156137cf5750806106a00151600214155b156137dd5760016106c08201525b80610720015180156137fa5750600f546137f76002613a56565b11155b156138085760016106e08201525b8061070001511561381f5760408101879052613946565b8061078001511580156138355750806107600151155b80156138475750806106a00151600114155b80156138595750806106a00151600214155b15613946578560e001518661010001516138739190615482565b61387e906001615361565b6138886004613a56565b613892919061569f565b8660e001516138a19190615361565b6040820152610720810151156138f85760048661012001516138c3919061562d565b6138ce906001615361565b6138d86005613a56565b6138e2919061569f565b6138ed906004615600565b610260820152613946565b80610740015115613946576004866101200151613915919061562d565b613920906001615361565b61392a6005613a56565b613934919061569f565b61393f906004615600565b6102808201525b8061072001518061395957508061074001515b801561397557508560a0015161397260036103e8613c14565b11155b156139865761398381613c92565b90505b9695505050505050565b61399b848484612e76565b6139a784848484613d1c565b611fd35760405162461bcd60e51b81526004016108e3906156b3565b606060006139d083613e1d565b600101905060008167ffffffffffffffff8111156139f0576139f0614bad565b6040519080825280601f01601f191660200182016040528015613a1a576020820181803683370190505b5090508181016020015b600019016f181899199a1a9b1b9c1cb0b131b232b360811b600a86061a8153600a8504945084613a2457509392505050565b6000804483434233604051602001613a72959493929190615705565b60408051601f1981840301815291905280516020909101209050611a5f60648261569f565b6000818311613aa65781611a5f565b5090919050565b6001811115613b1c5760405162461bcd60e51b815260206004820152603560248201527f455243373231456e756d657261626c653a20636f6e7365637574697665207472604482015274185b9cd9995c9cc81b9bdd081cdd5c1c1bdc9d1959605a1b60648201526084016108e3565b816001600160a01b038516613b7857613b7381600880546000838152600960205260408120829055600182018355919091527ff3f7a9fe364faab93b216da50a3214154f22a0a2b415b23a84c8169e8b636ee30155565b613b9b565b836001600160a01b0316856001600160a01b031614613b9b57613b9b8582613ef5565b6001600160a01b038416613bb757613bb281613f92565b613bda565b846001600160a01b0316846001600160a01b031614613bda57613bda8482614041565b5050505050565b613beb8383614085565b613bf86000848484613d1c565b6109845760405162461bcd60e51b81526004016108e3906156b3565b6000804484434233604051602001613c30959493929190615705565b60408051601f1981840301815291905280516020909101209050612e6e838261569f565b600080613c6084613a56565b835190915083613c70828461569f565b81518110613c8057613c80615495565b60200260200101519250505092915050565b613c9a61455f565b6000604083015261072082015115613ce65760016106e0830152613cbf82600b614200565b601854909250613ccf600c613a56565b11613ce257613cdf82600d614200565b91505b5090565b81610740015115613ce257613cfc82600e61431a565b602154909250613d0c600f613a56565b11613ce257613cdf82601061431a565b60006001600160a01b0384163b15613e1257604051630a85bd0160e11b81526001600160a01b0385169063150b7a0290613d6090339089908890889060040161573c565b6020604051808303816000875af1925050508015613d9b575060408051601f3d908101601f19168201909252613d989181019061576f565b60015b613df8573d808015613dc9576040519150601f19603f3d011682016040523d82523d6000602084013e613dce565b606091505b508051600003613df05760405162461bcd60e51b81526004016108e3906156b3565b805181602001fd5b6001600160e01b031916630a85bd0160e11b149050612e6e565b506001949350505050565b60008072184f03e93ff9f4daa797ed6e38ed64bf6a1f0160401b8310613e5c5772184f03e93ff9f4daa797ed6e38ed64bf6a1f0160401b830492506040015b6d04ee2d6d415b85acef81000000008310613e88576d04ee2d6d415b85acef8100000000830492506020015b662386f26fc100008310613ea657662386f26fc10000830492506010015b6305f5e1008310613ebe576305f5e100830492506008015b6127108310613ed257612710830492506004015b60648310613ee4576064830492506002015b600a831061077f5760010192915050565b60006001613f0284611994565b613f0c9190615482565b600083815260076020526040902054909150808214613f5f576001600160a01b03841660009081526006602090815260408083208584528252808320548484528184208190558352600790915290208190555b5060009182526007602090815260408084208490556001600160a01b039094168352600681528383209183525290812055565b600854600090613fa490600190615482565b60008381526009602052604081205460088054939450909284908110613fcc57613fcc615495565b906000526020600020015490508060088381548110613fed57613fed615495565b60009182526020808320909101929092558281526009909152604080822084905585825281205560088054806140255761402561578c565b6001900381819060005260206000200160009055905550505050565b600061404c83611994565b6001600160a01b039093166000908152600660209081526040808320868452825280832085905593825260079052919091209190915550565b6001600160a01b0382166140db5760405162461bcd60e51b815260206004820181905260248201527f4552433732313a206d696e7420746f20746865207a65726f206164647265737360448201526064016108e3565b6140e481612dda565b156141315760405162461bcd60e51b815260206004820152601c60248201527f4552433732313a20746f6b656e20616c7265616479206d696e7465640000000060448201526064016108e3565b61413f600083836001613aad565b61414881612dda565b156141955760405162461bcd60e51b815260206004820152601c60248201527f4552433732313a20746f6b656e20616c7265616479206d696e7465640000000060448201526064016108e3565b6001600160a01b038216600081815260036020908152604080832080546001019055848352600290915280822080546001600160a01b0319168417905551839291907fddf252ad1be2c89b69c2b068fc378daa952ba7f163c4a11628f55a4df523b3ef908290a45050565b61420861455f565b600061421383613a56565b6017546016546015546014546013549495506000946142329190615361565b61423c9190615361565b6142469190615361565b6142509190615361565b9050600061425e828461569f565b6013549091508111614277576001610300870152614310565b6014546013546142879190615361565b811161429a576001610320870152614310565b6015546014546013546142ad9190615361565b6142b79190615361565b81116142ca576001610380870152614310565b6016546015546014546013546142e09190615361565b6142ea9190615361565b6142f49190615361565b8111614307576001610620870152614310565b60016102c08701525b5093949350505050565b61432261455f565b600061432d83613a56565b602054601f54601e54601d54601c54601b54601a546019549798506000976143559190615361565b61435f9190615361565b6143699190615361565b6143739190615361565b61437d9190615361565b6143879190615361565b6143919190615361565b9050600061439f828461569f565b60195490915081116143b85760016102e0870152614310565b601a546019546143c89190615361565b81116143db576001610340870152614310565b601b54601a546019546143ee9190615361565b6143f89190615361565b811161440b5760016103c0870152614310565b601c54601b54601a546019546144219190615361565b61442b9190615361565b6144359190615361565b81116144485760016103e0870152614310565b601d54601c54601b54601a546019546144619190615361565b61446b9190615361565b6144759190615361565b61447f9190615361565b8111614492576001610400870152614310565b601e54601d54601c54601b54601a546019546144ae9190615361565b6144b89190615361565b6144c29190615361565b6144cc9190615361565b6144d69190615361565b81116144e9576001610500870152614310565b601f54601e54601d54601c54601b54601a546019546145089190615361565b6145129190615361565b61451c9190615361565b6145269190615361565b6145309190615361565b61453a9190615361565b811161454d576001610520870152614310565b505060016104e0850152509192915050565b604051806107e001604052806060815260200160008152602001600081526020016000815260200160008152602001600081526020016000815260200160008152602001600081526020016000815260200160008152602001600081526020016000815260200160008152602001600081526020016000815260200160008152602001600081526020016000815260200160008152602001600081526020016000815260200160008152602001600081526020016000815260200160008152602001600081526020016000815260200160008152602001600081526020016000815260200160008152602001600081526020016000815260200160008152602001600081526020016000815260200160008152602001600081526020016000815260200160008152602001600081526020016000815260200160008152602001600081526020016000815260200160008152602001600081526020016000815260200160008152602001600081526020016000815260200160008152602001600081526020016000151581526020016000151581526020016000151581526020016000151581526020016000151581526020016000151581526020016000151581526020016000151581526020016000151581525090565b60405180604001604052806002906020820280368337509192915050565b6001600160e01b03198116811461173157600080fd5b60006020828403121561477d57600080fd5b8135611a5f81614755565b6000806040838503121561479b57600080fd5b50508035926020909101359150565b60005b838110156147c55781810151838201526020016147ad565b50506000910152565b600081518084526147e68160208601602086016147aa565b601f01601f19169290920160200192915050565b602081526000611a5f60208301846147ce565b60006020828403121561481f57600080fd5b5035919050565b80356001600160a01b038116811461483d57600080fd5b919050565b6000806040838503121561485557600080fd5b61485e83614826565b946020939093013593505050565b60006107e08251818552614882828601826147ce565b6020858101519087015260408086015190870152606080860151908701526080808601519087015260a0808601519087015260c0808601519087015260e08086015190870152610100808601519087015261012080860151908701526101408086015190870152610160808601519087015261018080860151908701526101a080860151908701526101c080860151908701526101e08086015190870152610200808601519087015261022080860151908701526102408086015190870152610260808601519087015261028080860151908701526102a080860151908701526102c080860151908701526102e08086015190870152610300808601519087015261032080860151908701526103408086015190870152610360808601519087015261038080860151908701526103a080860151908701526103c080860151908701526103e08086015190870152610400808601519087015261042080860151908701526104408086015190870152610460808601519087015261048080860151908701526104a080860151908701526104c080860151908701526104e08086015190870152610500808601519087015261052080860151908701526105408086015190870152610560808601519087015261058080860151908701526105a080860151908701526105c080860151908701526105e08086015190870152610600808601519087015261062080860151908701526106408086015190870152610660808601519087015261068080860151908701526106a080860151908701526106c0808601511515908701526106e08086015115159087015261070080860151151590870152610720808601511515908701526107408086015115159087015261076080860151151590870152610780808601511515908701526107a0808601511515908701526107c09485015115159490950193909352509192915050565b602081526000611a5f602083018461486c565b600080600060608486031215614b6b57600080fd5b614b7484614826565b9250614b8260208501614826565b9150604084013590509250925092565b600060208284031215614ba457600080fd5b611a5f82614826565b634e487b7160e01b600052604160045260246000fd5b6040516107e0810167ffffffffffffffff81118282101715614be757614be7614bad565b60405290565b604051610160810167ffffffffffffffff81118282101715614be757614be7614bad565b600067ffffffffffffffff80841115614c2c57614c2c614bad565b604051601f8501601f19908116603f01168101908282118183101715614c5457614c54614bad565b81604052809350858152868686011115614c6d57600080fd5b858560208301376000602087830101525050509392505050565b600082601f830112614c9857600080fd5b611a5f83833560208501614c11565b8035801515811461483d57600080fd5b60006107e08284031215614cca57600080fd5b614cd2614bc3565b9050813567ffffffffffffffff811115614ceb57600080fd5b614cf784828501614c87565b8252506020828101359082015260408083013590820152606080830135908201526080808301359082015260a0808301359082015260c0808301359082015260e08083013590820152610100808301359082015261012080830135908201526101408083013590820152610160808301359082015261018080830135908201526101a080830135908201526101c080830135908201526101e08083013590820152610200808301359082015261022080830135908201526102408083013590820152610260808301359082015261028080830135908201526102a080830135908201526102c080830135908201526102e08083013590820152610300808301359082015261032080830135908201526103408083013590820152610360808301359082015261038080830135908201526103a080830135908201526103c080830135908201526103e08083013590820152610400808301359082015261042080830135908201526104408083013590820152610460808301359082015261048080830135908201526104a080830135908201526104c080830135908201526104e08083013590820152610500808301359082015261052080830135908201526105408083013590820152610560808301359082015261058080830135908201526105a080830135908201526105c080830135908201526105e08083013590820152610600808301359082015261062080830135908201526106408083013590820152610660808301359082015261068080830135908201526106a080830135908201526106c0614f48818401614ca7565b908201526106e0614f5a838201614ca7565b90820152610700614f6c838201614ca7565b90820152610720614f7e838201614ca7565b90820152610740614f90838201614ca7565b90820152610760614fa2838201614ca7565b90820152610780614fb4838201614ca7565b908201526107a0614fc6838201614ca7565b908201526107c0614fd8838201614ca7565b9082015292915050565b600060208284031215614ff457600080fd5b813567ffffffffffffffff81111561500b57600080fd5b612e6e84828501614cb7565b60208082528251828201819052600091906040908185019086840185805b8381101561507257825185835b600281101561505f57825182529189019190890190600101615042565b5050509385019391860191600101615035565b509298975050505050505050565b60008082840361018081121561509557600080fd5b8335925061016080601f19830112156150ad57600080fd5b6150b5614bed565b91506020850135825260408501356020830152606085013560408301526080850135606083015260a0850135608083015260c085013560a083015260e085013560c08301526101008086013560e08401526101208087013582850152610140915081870135818501525081860135818401525050809150509250929050565b6000806040838503121561514757600080fd5b61515083614826565b915061515e60208401614ca7565b90509250929050565b6000806000806080858703121561517d57600080fd5b61518685614826565b935061519460208601614826565b925060408501359150606085013567ffffffffffffffff8111156151b757600080fd5b8501601f810187136151c857600080fd5b6151d787823560208401614c11565b91505092959194509250565b6020808252825182820181905260009190848201906040850190845b8181101561521b578351835292840192918401916001016151ff565b50909695505050505050565b6000806040838503121561523a57600080fd5b61524383614826565b915061515e60208401614826565b6000806040838503121561526457600080fd5b82359150602083013567ffffffffffffffff81111561528257600080fd5b61528e85828601614cb7565b9150509250929050565b6000806000606084860312156152ad57600080fd5b505081359360208301359350604090920135919050565b600181811c908216806152d857607f821691505b6020821081036152f857634e487b7160e01b600052602260045260246000fd5b50919050565b6020808252602d908201527f4552433732313a2063616c6c6572206973206e6f7420746f6b656e206f776e6560408201526c1c881bdc88185c1c1c9bdd9959609a1b606082015260800190565b634e487b7160e01b600052601160045260246000fd5b8082018082111561077f5761077f61534b565b601f82111561098457600081815260208120601f850160051c8101602086101561539b5750805b601f850160051c820191505b818110156153ba578281556001016153a7565b505050505050565b815167ffffffffffffffff8111156153dc576153dc614bad565b6153f0816153ea84546152c4565b84615374565b602080601f831160018114615425576000841561540d5750858301515b600019600386901b1c1916600185901b1785556153ba565b600085815260208120601f198616915b8281101561545457888601518255948401946001909101908401615435565b50858210156154725787850151600019600388901b60f8161c191681555b5050505050600190811b01905550565b8181038181111561077f5761077f61534b565b634e487b7160e01b600052603260045260246000fd5b828152604060208201526000612e6e60408301846147ce565b6000600182016154d6576154d661534b565b5060010190565b60006101808201905083825282516020830152602083015160408301526040830151606083015260608301516080830152608083015160a083015260a083015160c083015260c083015160e083015260e083015161010081818501528085015191505061012081818501528085015191505061014081818501528085015161016085015250509392505050565b634e487b7160e01b600052600160045260246000fd5b606081526000615593606083018661486c565b60208301949094525060400152919050565b8481526080602082015260006155be608083018661486c565b6040830194909452506060015292915050565b600083516155e38184602088016147aa565b8351908301906155f78183602088016147aa565b01949350505050565b808202811582820484141761077f5761077f61534b565b634e487b7160e01b600052601260045260246000fd5b60008261563c5761563c615617565b500490565b60006020828403121561565357600080fd5b5051919050565b60208082526025908201527f4552433732313a207472616e736665722066726f6d20696e636f72726563742060408201526437bbb732b960d91b606082015260800190565b6000826156ae576156ae615617565b500690565b60208082526032908201527f4552433732313a207472616e7366657220746f206e6f6e20455243373231526560408201527131b2b4bb32b91034b6b83632b6b2b73a32b960711b606082015260800190565b948552602085019390935260408401919091526060808401919091521b6bffffffffffffffffffffffff1916608082015260940190565b6001600160a01b0385811682528416602082015260408101839052608060608201819052600090613986908301846147ce565b60006020828403121561578157600080fd5b8151611a5f81614755565b634e487b7160e01b600052603160045260246000fdfea2646970667358221220e420644220ef5f60cfe1f46671893d15b889aa1544f16910d13494d27068d12264736f6c634300081300334552433732313a207472616e7366657220746f206e6f6e204552433732315265",
  "immutableReferences": {},
  "source": "// SPDX-License-Identifier: MIT\npragma solidity ^0.8.18;\n\nimport \"@openzeppelin/contracts/token/ERC721/ERC721.sol\";\nimport \"@openzeppelin/contracts/token/ERC721/extensions/ERC721Enumerable.sol\";\nimport \"@openzeppelin/contracts/utils/Counters.sol\";\n\nimport \"truffle/Console.sol\";\nimport \"./ExcellentItems.sol\";\nimport \"./FighterHelper.sol\";\nimport \"./MoneyHelper.sol\";\n\ncontract Items is ERC721Enumerable, ExcellentItems {\n    using Counters for Counters.Counter;\n    FighterHelper private _fighterHelper;\n    MoneyHelper private _moneyHelper;\n\n    address public owner;\n\n    constructor(address fighterHelperContract, address moneyHelperContract) ERC721(\"MRIUSD\", \"Item\") {\n        owner = msg.sender;\n        _fighterHelper = FighterHelper(fighterHelperContract);  \n        _moneyHelper = MoneyHelper(moneyHelperContract);\n\n        // create empty item\n        ItemAttributes memory emptyAtts;\n        emptyAtts.name = \"Empty item\";\n        createItem(emptyAtts);\n        generateInitialTokens(emptyAtts);\n\n        // create item for gold\n        emptyAtts.name = \"Gold\";\n        createItem(emptyAtts);\n        generateInitialTokens(emptyAtts);\n    }\n\n\n    mapping (uint256 => uint256[]) public Weapons; // mapping of rarityLevel => tokenId[]\n    mapping (uint256 => uint256[]) public Armours; // mapping of rarityLevel => tokenId[]\n    mapping (uint256 => uint256[]) public Jewels; // mapping of rarityLevel => tokenId[]\n    mapping (uint256 => uint256[]) public Misc; // mapping of rarityLevel => tokenId[]\n\n    mapping (bytes32 => uint256) public dropHashes;\n\n\n\n    struct DropParams {\n        uint256 weaponsDropRate;\n        uint256 armoursDropRate;\n        uint256 jewelsDropRate;\n        uint256 miscDropRate;\n        uint256 boxDropRate;\n\n        uint256 excDropRate;\n        uint256 boxId;\n\n        uint256 minItemLevel;\n        uint256 maxItemLevel;\n        uint256 maxAddPoints;\n\n        uint256 blockCrated;\n    }\n\n    mapping (uint256 => DropParams) public DropParamsList; // mapping of rarityLevels to drop parameters\n    mapping (uint256 => DropParams) public BoxDropPramsList; // mapping of rarityLevels to drop parameters\n\n    event ItemGenerated(uint256 itemId, string name);\n    event LogError(uint8, uint256);\n    event DropParametersChange(uint256 rarityLevel, DropParams params);\n    event BoxDropParametersChange(uint256 rarityLevel, DropParams params);\n    \n    event ItemCrafted(uint256 tokenId, address owner);\n    event BoxOppened(uint256 tokenId, uint256 rarityLevel, address owner);\n    event ItemBoughtFromShop(uint256 tokenId, uint256 itemId, address owner, string itemName);\n\n    event ItemLevelUpgrade(uint256 tokenId, uint256 newLevel);\n    event ItemAddPointsUpdate(uint256 tokenId, uint256 newAddPoints);\n\n    event ItemDropped(bytes32 itemHash, ItemAttributes item, uint256 qty, uint256 tokenId);\n    event ItemPicked(uint256 tokenId, uint256 fighterId, uint256 qty);\n\n    function setAdditionalPoints(uint256 tokenId, uint256 points) external {\n        require(points <= maxAdditionalPoints, \"Max points reached\");\n        require(_tokenAttributes[tokenId].isWeapon || _tokenAttributes[tokenId].isArmour, \"Max points reached\");\n        if (_tokenAttributes[tokenId].isWeapon) {\n            _tokenAttributes[tokenId].additionalDamage = points;\n        } else if (_tokenAttributes[tokenId].isArmour) { \n            _tokenAttributes[tokenId].additionalDefense = points;\n        } \n\n        emit ItemAddPointsUpdate(tokenId, _tokenAttributes[tokenId].additionalDefense + _tokenAttributes[tokenId].additionalDamage);\n    }\n\n    function generateInitialTokens(ItemAttributes memory itemAtts) internal {\n        _tokenIdCounter.increment();\n        uint256 newTokenId = _tokenIdCounter.current();\n\n        _safeMint(msg.sender, newTokenId);\n        _setTokenAttributes(newTokenId, itemAtts);\n\n        _tokenAttributes[newTokenId].tokenId = newTokenId;      \n        _tokenAttributes[newTokenId].fighterId = 0;      \n        _tokenAttributes[newTokenId].lastUpdBlock = block.number; \n    }\n\n    function setItemLevel(uint256 tokenId, uint256 level)  external {\n        require(level <= _tokenAttributes[tokenId].maxLevel, \"Max item level reached\");\n        require(level <= _tokenAttributes[tokenId].itemLevel+1, \"Item can be upgrade one level at a time only\");\n\n        _tokenAttributes[tokenId].itemLevel = level;\n        emit ItemLevelUpgrade(tokenId, _tokenAttributes[tokenId].itemLevel);  \n    }\n\n    function burnItem(uint256 tokenId) external {\n        require(tokenId > 1, \"Token cannot be burnt\");\n        require(_exists(tokenId), \"Token doesn't exist\");\n        _burn(tokenId);\n    }\n\n    function openBox(uint256 tokenId) external returns (uint256) {\n        require(_exists(tokenId), \"Token doesn't exist\");\n        ItemAttributes memory box = _tokenAttributes[tokenId];\n        DropParams memory params = BoxDropPramsList[box.itemRarityLevel];\n\n        ItemAttributes memory itemAtts = getDropItem(box.itemRarityLevel, params);\n\n        uint256 qty = 1;\n\n        bytes32 itemHash = keccak256(abi.encode(itemAtts, qty, block.number));\n        dropHashes[itemHash] = qty;\n         emit ItemDropped(itemHash, itemAtts, qty, 0);\n        _burn(tokenId);\n       \n    }    \n\n    function safeMint(address ownerAddres) external returns (uint256) {\n        _tokenIdCounter.increment();\n        uint256 newTokenId = _tokenIdCounter.current();\n        _safeMint(ownerAddres, newTokenId);\n\n        return newTokenId;\n    }\n\n    function setTokenAttributes(uint256 tokenId, ItemAttributes memory atts) external {\n        require(_exists(tokenId), \"Token does not exist\");\n        _tokenAttributes[tokenId] = atts;\n    }\n\n    function getDropQty(bytes32 dropHash) external returns(uint256) {\n        return dropHashes[dropHash];\n    }\n\n    function createDropHash(bytes32 itemHash, uint256 qty) external {\n        dropHashes[itemHash] = qty;\n    }\n\n    function itemExists(uint256 tokenId) public view returns(bool) {\n        return _exists(tokenId);\n    }\n\n    function setDropParams(uint256 rarityLevel, DropParams memory params) external {\n        DropParamsList[rarityLevel] = params;\n        emit DropParametersChange(rarityLevel, params);\n    }\n\n    function setBoxDropParams(uint256 rarityLevel, DropParams memory params) external {\n        BoxDropPramsList[rarityLevel] = params;\n        emit BoxDropParametersChange(rarityLevel, params);\n    }\n\n    function createItem(ItemAttributes memory atts) public returns (uint256 tokenId) {                \n        _itemAttributes.push(atts);   \n         uint256 itemId = _itemAttributes.length - 1;   \n         _itemAttributes[itemId].itemAttributesId = itemId;\n\n         if (atts.isWeapon) {\n             Weapons[atts.itemRarityLevel].push(itemId);\n         } else if (atts.isArmour) {\n             Armours[atts.itemRarityLevel].push(itemId);\n         } else if (atts.isJewel) {\n             Jewels[atts.itemRarityLevel].push(itemId);\n         } else if (atts.isMisc) {\n             Misc[atts.itemRarityLevel].push(itemId);\n         } \n\n        emit ItemGenerated(itemId, atts.name);\n        return itemId;\n    }\n\n    function getDropItem(uint256 rarityLevel, DropParams memory params) internal returns (ItemAttributes memory) {\n\n        uint256 randomNumber = getRandomNumberMax(0, 100);\n        uint256 randomItem;\n        \n        //emit LogDropValues(randomNumber, params.jewelsDropRate, params.weaponsDropRate, params.armoursDropRate, params.miscDropRate, params.boxDropRate);\n        \n        uint256 cumulativeRate = params.jewelsDropRate;\n        if (randomNumber < cumulativeRate) {\n            randomItem = returnRandomItemFromDropList(100, Jewels[rarityLevel]);\n        } else {\n            cumulativeRate += params.armoursDropRate;\n            if (randomNumber < cumulativeRate) {\n                randomItem = returnRandomItemFromDropList(101, Armours[rarityLevel]);\n            } else {\n                cumulativeRate += params.weaponsDropRate;\n                if (randomNumber < cumulativeRate) {\n                    randomItem = returnRandomItemFromDropList(102, Weapons[rarityLevel]);\n                } else {\n                    cumulativeRate += params.miscDropRate;\n                    if (randomNumber < cumulativeRate) {\n                        randomItem = returnRandomItemFromDropList(103, Misc[rarityLevel]);\n                    } else {\n                        cumulativeRate += params.boxDropRate;\n                        if (randomNumber < cumulativeRate) {\n                            randomItem = params.boxId;\n                        } else {\n                            randomItem = 1;\n                        }\n                    }\n                }\n            }\n        }\n\n\n        ItemAttributes memory itemAtts = _itemAttributes[randomItem];\n        itemAtts.itemAttributesId = randomItem;\n\n\n        if (!itemAtts.isJewel && !itemAtts.isMisc && !itemAtts.isBox && getRandomNumber(1) <= luckDropRate && itemAtts.itemAttributesId != 1 && itemAtts.itemAttributesId != 2) {\n            itemAtts.luck  = true;\n        }\n\n        if (itemAtts.isWeapon && getRandomNumber(2) <= skillDropRate) {\n            itemAtts.skill  = true;\n        }\n\n        if (itemAtts.isBox) {\n            itemAtts.itemLevel = rarityLevel;\n        } else if (!itemAtts.isMisc && !itemAtts.isJewel && itemAtts.itemAttributesId != 1 && itemAtts.itemAttributesId != 2) {\n            itemAtts.itemLevel = params.minItemLevel + getRandomNumber(4) % (params.maxItemLevel-params.minItemLevel+1);\n\n            if (itemAtts.isWeapon) {\n                itemAtts.additionalDamage = 4 * (getRandomNumber(5) % (params.maxAddPoints/4+1));\n            } else if (itemAtts.isArmour) {\n                itemAtts.additionalDefense = 4 * (getRandomNumber(5) % (params.maxAddPoints/4+1));\n            }\n        }\n\n        if ((itemAtts.isWeapon || itemAtts.isArmour) && getRandomNumberMax(3, 1000) <= params.excDropRate) {\n            itemAtts = addExcelentOption(itemAtts);\n        }\n\n        return itemAtts;  \n    }\n\n    function dropItem(uint256 rarityLevel, uint256 fighterId, uint256 experience) external returns (bytes32) {\n        DropParams memory params = DropParamsList[rarityLevel];\n        require(params.blockCrated > 0, \"No drop parameters for rarityLevel\");\n        require(experience > 0, \"Experience must be non zero\");\n\n        ItemAttributes memory itemAtts = getDropItem(rarityLevel, params);        \n\n        uint256 randomNumber = getRandomNumber(200);\n\n        uint256 qty = 1;\n\n        if (randomNumber > generalDropRate) {\n            itemAtts = _itemAttributes[1];\n            emit ItemDropped(dummyHash, itemAtts, 0, 0);\n            return 0;\n        }\n\n        if (itemAtts.itemAttributesId == goldItemId) {\n            qty = max(1, experience/_moneyHelper.getExperienceDivider());\n        }\n\n        bytes32 itemHash = keccak256(abi.encode(itemAtts, qty, block.number));\n        dropHashes[itemHash] = qty;\n        emit ItemDropped(itemHash, itemAtts, qty, 0);\n        return itemHash;\n    }\n\n    \n\n    // function craftItem(uint256 itemId, address itemOwner, uint256 maxLevel, uint256 maxAddPoints) public returns (uint256) {\n    //     require(_itemAttributes.length > itemId, \"Item attributes not found\");\n    //     ItemAttributes memory itemAtts = _itemAttributes[itemId];\n\n    //     if ((itemAtts.isWeapon || itemAtts.isArmour) && getRandomNumber(50) < luckDropRate)\n    //     {\n    //         itemAtts.luck = true;\n\n    //     }\n\n    //     if (itemAtts.isWeapon && getRandomNumber(51) < skillDropRate)\n    //     {\n    //         itemAtts.skill = true;\n    //     }\n\n    //     if (itemAtts.isWeapon || itemAtts.isArmour)\n    //     {\n    //         if (maxLevel > 0)\n    //         {\n    //             itemAtts.itemLevel = getRandomNumber(53) % (maxLevel + 1);\n    //         }\n\n    //         if (maxAddPoints > 0)\n    //         {\n    //             if (itemAtts.isWeapon) {\n    //                 itemAtts.additionalDamage = (getRandomNumber(54) % (maxAddPoints/4 + 1)) * 4;\n    //             } else if (itemAtts.isArmour) {\n    //                 itemAtts.additionalDefense = (getRandomNumber(54) % (maxAddPoints/4 + 1)) * 4;\n    //             }\n    //         }                \n    //     }        \n\n    //     _tokenIdCounter.increment();\n    //     uint256 newTokenId = _tokenIdCounter.current();\n        \n    //     _safeMint(itemOwner, newTokenId);\n \n    //     _setTokenAttributes(newTokenId, itemAtts);\n\n    //     _tokenAttributes[newTokenId].tokenId = newTokenId;      \n    //     _tokenAttributes[newTokenId].itemAttributesId = itemId;      \n    //     _tokenAttributes[newTokenId].fighterId = 0;      \n    //     _tokenAttributes[newTokenId].lastUpdBlock = block.number; \n\n    //     emit ItemCrafted(newTokenId, itemOwner);\n\n    //     return newTokenId;\n    // }     \n\n    // function getWeaponsLength(uint256 rarityLevel) public view returns (uint256) {\n    //     return Weapons[rarityLevel].length;\n    // }\n\n    // function getArmoursLength(uint256 rarityLevel) public view returns (uint256) {\n    //     return Armours[rarityLevel].length;\n    // }\n\n    // function getJewelsLength(uint256 rarityLevel) public view returns (uint256) {\n    //     return Jewels[rarityLevel].length;\n    // }\n\n    // function getMiscsLength(uint256 rarityLevel) public view returns (uint256) {\n    //     return Misc[rarityLevel].length;\n    // }    \n\n    // function buyItemFromShop(uint256 itemId, uint256 fighterId) external {\n    //     require(_itemAttributes[itemId].inShop, \"Item not in shop or doesn't exist\");\n\n    //     // money logic\n\n    //     _tokenIdCounter.increment();\n    //     uint256 tokenId = _tokenIdCounter.current();\n    //     _safeMint(msg.sender, tokenId);\n    //     _setTokenAttributes(tokenId, _itemAttributes[itemId]);\n\n    //     _tokenAttributes[tokenId].tokenId = tokenId;      \n    //     _tokenAttributes[tokenId].itemAttributesId = itemId;      \n    //     _tokenAttributes[tokenId].fighterId = fighterId;      \n    //     _tokenAttributes[tokenId].lastUpdBlock = block.number;      \n\n    //     emit ItemBoughtFromShop(tokenId, itemId, msg.sender, _tokenAttributes[tokenId].name);\n    // }\n\n    // Get the attributes for a fighter NFT\n    function getTokenAttributes(uint256 tokenId) public view returns (ItemAttributes memory) {\n        require(_exists(tokenId), \"Token does not exist\");\n\n        return _tokenAttributes[tokenId];\n    }\n\n    // Get the attributes for a fighter NFT\n    function getItemAttributes(uint256 itemId) public view returns (ItemAttributes memory) {\n        require(_itemAttributes.length > itemId, \"Item does not exist\");\n\n        return _itemAttributes[itemId];\n    }\n\n    mapping (uint256 => ItemAttributes) private _tokenAttributes;\n    ItemAttributes[] private _itemAttributes;\n    Counters.Counter private _tokenIdCounter;\n\n    ItemAttributes boxAttributes;\n\n\n\n    function getUserItems(address userAddress) external view returns (uint256[] memory) {\n        \n        uint256 numTokens = balanceOf(userAddress);\n        uint256[] memory tokenIds = new uint256[](numTokens);\n\n        for (uint256 i = 0; i < numTokens; i++) {\n            tokenIds[i] = tokenOfOwnerByIndex(userAddress, i);\n        }\n\n        return tokenIds;\n    }\n\n\n    function getFighterItems(address userAddress, uint256 fighterId) external view returns (uint256[2][] memory) {\n        \n        uint256 numTokens = balanceOf(userAddress);\n        uint256[2][] memory tokenIds = new uint256[2][](numTokens);\n\n        uint256 id;\n        uint counter = 0;\n\n        for (uint256 i = 0; i < numTokens; i++) {\n            id = tokenOfOwnerByIndex(userAddress, i);\n            if (_tokenAttributes[id].fighterId == fighterId)\n            {\n                tokenIds[counter] = [id, _tokenAttributes[id].lastUpdBlock];\n            }\n            \n            counter++;\n        }\n\n        return tokenIds;\n    }\n\n\n    function _setTokenAttributes(uint256 tokenId, ItemAttributes memory attrs) internal {\n        require(_exists(tokenId), \"Token does not exist\");\n\n        _tokenAttributes[tokenId] = attrs;\n    }\n\n    function returnRandomItemFromDropList(uint256 seed, uint256[] memory items) internal returns (uint256) {\n        uint256 randomNumber = getRandomNumber(seed);\n        uint256 len = items.length;\n\n        return items[randomNumber % len];\n\n    }\n\n    // Returns the smaller of two values\n    function min(uint a, uint b) private pure returns (uint) {\n        return a < b ? a : b;\n    }\n\n    // Returns the largest of the two values\n    function max(uint a, uint b) private pure returns (uint) {\n        return a > b ? a : b;\n    }\n\n    // Safe Multiply Function - prevents integer overflow \n    function safeMul(uint a, uint b) public returns (uint) {\n        uint c = a * b;\n        assert(a == 0 || c / a == b);\n        return c;\n    }\n\n    // Safe Subtraction Function - prevents integer overflow \n    function safeSub(uint a, uint b) public returns (uint) {\n        assert(b <= a);\n        return a - b;\n    }\n\n    // Safe Addition Function - prevents integer overflow \n    function safeAdd(uint a, uint b) public returns (uint) {\n        uint c = a + b;\n        assert(c>=a && c>=b);\n        return c;\n    }\n\n}",
  "sourcePath": "/Users/max/Documents/prog/game-contracts/contracts/Items.sol",
  "compiler": {
    "name": "solc",
    "version": "0.8.19+commit.7dd6d404.Emscripten.clang"
  },
  "schemaVersion": "3.4.13",
  "updatedAt": "2023-05-08T08:18:34.986Z",
  "networkType": "ethereum",
  "devdoc": {
    "events": {
      "Approval(address,address,uint256)": {
        "details": "Emitted when `owner` enables `approved` to manage the `tokenId` token."
      },
      "ApprovalForAll(address,address,bool)": {
        "details": "Emitted when `owner` enables or disables (`approved`) `operator` to manage all of its assets."
      },
      "Transfer(address,address,uint256)": {
        "details": "Emitted when `tokenId` token is transferred from `from` to `to`."
      }
    },
    "kind": "dev",
    "methods": {
      "approve(address,uint256)": {
        "details": "See {IERC721-approve}."
      },
      "balanceOf(address)": {
        "details": "See {IERC721-balanceOf}."
      },
      "getApproved(uint256)": {
        "details": "See {IERC721-getApproved}."
      },
      "isApprovedForAll(address,address)": {
        "details": "See {IERC721-isApprovedForAll}."
      },
      "name()": {
        "details": "See {IERC721Metadata-name}."
      },
      "ownerOf(uint256)": {
        "details": "See {IERC721-ownerOf}."
      },
      "safeTransferFrom(address,address,uint256)": {
        "details": "See {IERC721-safeTransferFrom}."
      },
      "safeTransferFrom(address,address,uint256,bytes)": {
        "details": "See {IERC721-safeTransferFrom}."
      },
      "setApprovalForAll(address,bool)": {
        "details": "See {IERC721-setApprovalForAll}."
      },
      "supportsInterface(bytes4)": {
        "details": "See {IERC165-supportsInterface}."
      },
      "symbol()": {
        "details": "See {IERC721Metadata-symbol}."
      },
      "tokenByIndex(uint256)": {
        "details": "See {IERC721Enumerable-tokenByIndex}."
      },
      "tokenOfOwnerByIndex(address,uint256)": {
        "details": "See {IERC721Enumerable-tokenOfOwnerByIndex}."
      },
      "tokenURI(uint256)": {
        "details": "See {IERC721Metadata-tokenURI}."
      },
      "totalSupply()": {
        "details": "See {IERC721Enumerable-totalSupply}."
      },
      "transferFrom(address,address,uint256)": {
        "details": "See {IERC721-transferFrom}."
      }
    },
    "version": 1
  },
  "userdoc": {
    "kind": "user",
    "methods": {},
    "version": 1
  }
}