{
  "contractName": "ItemsHelper",
  "abi": [
    {
      "inputs": [
        {
          "internalType": "address",
          "name": "itemsAddress",
          "type": "address"
        },
        {
          "internalType": "address",
          "name": "itemsExcellentAddress",
          "type": "address"
        }
      ],
      "stateMutability": "nonpayable",
      "type": "constructor"
    },
    {
      "inputs": [
        {
          "internalType": "uint256",
          "name": "itemId",
          "type": "uint256"
        }
      ],
      "name": "getItemAttributes",
      "outputs": [
        {
          "components": [
            {
              "internalType": "string",
              "name": "name",
              "type": "string"
            },
            {
              "internalType": "uint256",
              "name": "tokenId",
              "type": "uint256"
            },
            {
              "internalType": "uint256",
              "name": "itemLevel",
              "type": "uint256"
            },
            {
              "internalType": "uint256",
              "name": "maxLevel",
              "type": "uint256"
            },
            {
              "internalType": "uint256",
              "name": "durability",
              "type": "uint256"
            },
            {
              "internalType": "uint256",
              "name": "classRequired",
              "type": "uint256"
            },
            {
              "internalType": "uint256",
              "name": "strengthRequired",
              "type": "uint256"
            },
            {
              "internalType": "uint256",
              "name": "agilityRequired",
              "type": "uint256"
            },
            {
              "internalType": "uint256",
              "name": "energyRequired",
              "type": "uint256"
            },
            {
              "internalType": "uint256",
              "name": "vitalityRequired",
              "type": "uint256"
            },
            {
              "internalType": "uint256",
              "name": "itemWidth",
              "type": "uint256"
            },
            {
              "internalType": "uint256",
              "name": "itemHeight",
              "type": "uint256"
            },
            {
              "internalType": "uint256",
              "name": "acceptableSlot1",
              "type": "uint256"
            },
            {
              "internalType": "uint256",
              "name": "acceptableSlot2",
              "type": "uint256"
            },
            {
              "internalType": "uint256",
              "name": "baseMinPhysicalDamage",
              "type": "uint256"
            },
            {
              "internalType": "uint256",
              "name": "baseMaxPhysicalDamage",
              "type": "uint256"
            },
            {
              "internalType": "uint256",
              "name": "baseMinMagicDamage",
              "type": "uint256"
            },
            {
              "internalType": "uint256",
              "name": "baseMaxMagicDamage",
              "type": "uint256"
            },
            {
              "internalType": "uint256",
              "name": "baseDefense",
              "type": "uint256"
            },
            {
              "internalType": "uint256",
              "name": "attackSpeed",
              "type": "uint256"
            },
            {
              "internalType": "uint256",
              "name": "additionalDamage",
              "type": "uint256"
            },
            {
              "internalType": "uint256",
              "name": "additionalDefense",
              "type": "uint256"
            },
            {
              "internalType": "uint256",
              "name": "fighterId",
              "type": "uint256"
            },
            {
              "internalType": "uint256",
              "name": "lastUpdBlock",
              "type": "uint256"
            },
            {
              "internalType": "uint256",
              "name": "itemRarityLevel",
              "type": "uint256"
            },
            {
              "internalType": "uint256",
              "name": "itemAttributesId",
              "type": "uint256"
            },
            {
              "internalType": "uint256",
              "name": "packSize",
              "type": "uint256"
            },
            {
              "internalType": "bool",
              "name": "luck",
              "type": "bool"
            },
            {
              "internalType": "bool",
              "name": "skill",
              "type": "bool"
            },
            {
              "internalType": "bool",
              "name": "isPackable",
              "type": "bool"
            },
            {
              "internalType": "bool",
              "name": "isBox",
              "type": "bool"
            },
            {
              "internalType": "bool",
              "name": "isWeapon",
              "type": "bool"
            },
            {
              "internalType": "bool",
              "name": "isArmour",
              "type": "bool"
            },
            {
              "internalType": "bool",
              "name": "isJewel",
              "type": "bool"
            },
            {
              "internalType": "bool",
              "name": "isWings",
              "type": "bool"
            },
            {
              "internalType": "bool",
              "name": "isMisc",
              "type": "bool"
            },
            {
              "internalType": "bool",
              "name": "inShop",
              "type": "bool"
            },
            {
              "internalType": "uint256",
              "name": "increaseAttackSpeedPoints",
              "type": "uint256"
            },
            {
              "internalType": "uint256",
              "name": "reflectDamagePercent",
              "type": "uint256"
            },
            {
              "internalType": "uint256",
              "name": "restoreHPChance",
              "type": "uint256"
            },
            {
              "internalType": "uint256",
              "name": "restoreMPChance",
              "type": "uint256"
            },
            {
              "internalType": "uint256",
              "name": "doubleDamageChance",
              "type": "uint256"
            },
            {
              "internalType": "uint256",
              "name": "ignoreOpponentDefenseChance",
              "type": "uint256"
            },
            {
              "internalType": "uint256",
              "name": "lifeAfterMonsterIncrease",
              "type": "uint256"
            },
            {
              "internalType": "uint256",
              "name": "manaAfterMonsterIncrease",
              "type": "uint256"
            },
            {
              "internalType": "uint256",
              "name": "excellentDamageProbabilityIncrease",
              "type": "uint256"
            },
            {
              "internalType": "uint256",
              "name": "attackSpeedIncrease",
              "type": "uint256"
            },
            {
              "internalType": "uint256",
              "name": "attackLvl20",
              "type": "uint256"
            },
            {
              "internalType": "uint256",
              "name": "attackIncreasePercent",
              "type": "uint256"
            },
            {
              "internalType": "uint256",
              "name": "defenseSuccessRateIncrease",
              "type": "uint256"
            },
            {
              "internalType": "uint256",
              "name": "goldAfterMonsterIncrease",
              "type": "uint256"
            },
            {
              "internalType": "uint256",
              "name": "reflectDamage",
              "type": "uint256"
            },
            {
              "internalType": "uint256",
              "name": "maxLifeIncrease",
              "type": "uint256"
            },
            {
              "internalType": "uint256",
              "name": "maxManaIncrease",
              "type": "uint256"
            },
            {
              "internalType": "uint256",
              "name": "hpRecoveryRateIncrease",
              "type": "uint256"
            },
            {
              "internalType": "uint256",
              "name": "mpRecoveryRateIncrease",
              "type": "uint256"
            },
            {
              "internalType": "uint256",
              "name": "decreaseDamageRateIncrease",
              "type": "uint256"
            }
          ],
          "internalType": "struct ItemsExcellentAtts.ExcellentItemAtts",
          "name": "",
          "type": "tuple"
        }
      ],
      "stateMutability": "nonpayable",
      "type": "function"
    },
    {
      "inputs": [
        {
          "internalType": "uint256",
          "name": "tokenId",
          "type": "uint256"
        }
      ],
      "name": "getTokenAttributes",
      "outputs": [
        {
          "components": [
            {
              "internalType": "string",
              "name": "name",
              "type": "string"
            },
            {
              "internalType": "uint256",
              "name": "tokenId",
              "type": "uint256"
            },
            {
              "internalType": "uint256",
              "name": "itemLevel",
              "type": "uint256"
            },
            {
              "internalType": "uint256",
              "name": "maxLevel",
              "type": "uint256"
            },
            {
              "internalType": "uint256",
              "name": "durability",
              "type": "uint256"
            },
            {
              "internalType": "uint256",
              "name": "classRequired",
              "type": "uint256"
            },
            {
              "internalType": "uint256",
              "name": "strengthRequired",
              "type": "uint256"
            },
            {
              "internalType": "uint256",
              "name": "agilityRequired",
              "type": "uint256"
            },
            {
              "internalType": "uint256",
              "name": "energyRequired",
              "type": "uint256"
            },
            {
              "internalType": "uint256",
              "name": "vitalityRequired",
              "type": "uint256"
            },
            {
              "internalType": "uint256",
              "name": "itemWidth",
              "type": "uint256"
            },
            {
              "internalType": "uint256",
              "name": "itemHeight",
              "type": "uint256"
            },
            {
              "internalType": "uint256",
              "name": "acceptableSlot1",
              "type": "uint256"
            },
            {
              "internalType": "uint256",
              "name": "acceptableSlot2",
              "type": "uint256"
            },
            {
              "internalType": "uint256",
              "name": "baseMinPhysicalDamage",
              "type": "uint256"
            },
            {
              "internalType": "uint256",
              "name": "baseMaxPhysicalDamage",
              "type": "uint256"
            },
            {
              "internalType": "uint256",
              "name": "baseMinMagicDamage",
              "type": "uint256"
            },
            {
              "internalType": "uint256",
              "name": "baseMaxMagicDamage",
              "type": "uint256"
            },
            {
              "internalType": "uint256",
              "name": "baseDefense",
              "type": "uint256"
            },
            {
              "internalType": "uint256",
              "name": "attackSpeed",
              "type": "uint256"
            },
            {
              "internalType": "uint256",
              "name": "additionalDamage",
              "type": "uint256"
            },
            {
              "internalType": "uint256",
              "name": "additionalDefense",
              "type": "uint256"
            },
            {
              "internalType": "uint256",
              "name": "fighterId",
              "type": "uint256"
            },
            {
              "internalType": "uint256",
              "name": "lastUpdBlock",
              "type": "uint256"
            },
            {
              "internalType": "uint256",
              "name": "itemRarityLevel",
              "type": "uint256"
            },
            {
              "internalType": "uint256",
              "name": "itemAttributesId",
              "type": "uint256"
            },
            {
              "internalType": "uint256",
              "name": "packSize",
              "type": "uint256"
            },
            {
              "internalType": "bool",
              "name": "luck",
              "type": "bool"
            },
            {
              "internalType": "bool",
              "name": "skill",
              "type": "bool"
            },
            {
              "internalType": "bool",
              "name": "isPackable",
              "type": "bool"
            },
            {
              "internalType": "bool",
              "name": "isBox",
              "type": "bool"
            },
            {
              "internalType": "bool",
              "name": "isWeapon",
              "type": "bool"
            },
            {
              "internalType": "bool",
              "name": "isArmour",
              "type": "bool"
            },
            {
              "internalType": "bool",
              "name": "isJewel",
              "type": "bool"
            },
            {
              "internalType": "bool",
              "name": "isWings",
              "type": "bool"
            },
            {
              "internalType": "bool",
              "name": "isMisc",
              "type": "bool"
            },
            {
              "internalType": "bool",
              "name": "inShop",
              "type": "bool"
            },
            {
              "internalType": "uint256",
              "name": "increaseAttackSpeedPoints",
              "type": "uint256"
            },
            {
              "internalType": "uint256",
              "name": "reflectDamagePercent",
              "type": "uint256"
            },
            {
              "internalType": "uint256",
              "name": "restoreHPChance",
              "type": "uint256"
            },
            {
              "internalType": "uint256",
              "name": "restoreMPChance",
              "type": "uint256"
            },
            {
              "internalType": "uint256",
              "name": "doubleDamageChance",
              "type": "uint256"
            },
            {
              "internalType": "uint256",
              "name": "ignoreOpponentDefenseChance",
              "type": "uint256"
            },
            {
              "internalType": "uint256",
              "name": "lifeAfterMonsterIncrease",
              "type": "uint256"
            },
            {
              "internalType": "uint256",
              "name": "manaAfterMonsterIncrease",
              "type": "uint256"
            },
            {
              "internalType": "uint256",
              "name": "excellentDamageProbabilityIncrease",
              "type": "uint256"
            },
            {
              "internalType": "uint256",
              "name": "attackSpeedIncrease",
              "type": "uint256"
            },
            {
              "internalType": "uint256",
              "name": "attackLvl20",
              "type": "uint256"
            },
            {
              "internalType": "uint256",
              "name": "attackIncreasePercent",
              "type": "uint256"
            },
            {
              "internalType": "uint256",
              "name": "defenseSuccessRateIncrease",
              "type": "uint256"
            },
            {
              "internalType": "uint256",
              "name": "goldAfterMonsterIncrease",
              "type": "uint256"
            },
            {
              "internalType": "uint256",
              "name": "reflectDamage",
              "type": "uint256"
            },
            {
              "internalType": "uint256",
              "name": "maxLifeIncrease",
              "type": "uint256"
            },
            {
              "internalType": "uint256",
              "name": "maxManaIncrease",
              "type": "uint256"
            },
            {
              "internalType": "uint256",
              "name": "hpRecoveryRateIncrease",
              "type": "uint256"
            },
            {
              "internalType": "uint256",
              "name": "mpRecoveryRateIncrease",
              "type": "uint256"
            },
            {
              "internalType": "uint256",
              "name": "decreaseDamageRateIncrease",
              "type": "uint256"
            }
          ],
          "internalType": "struct ItemsExcellentAtts.ExcellentItemAtts",
          "name": "",
          "type": "tuple"
        }
      ],
      "stateMutability": "nonpayable",
      "type": "function"
    },
    {
      "inputs": [
        {
          "internalType": "address",
          "name": "userAddress",
          "type": "address"
        },
        {
          "internalType": "uint256",
          "name": "fighterId",
          "type": "uint256"
        }
      ],
      "name": "getFighterItems",
      "outputs": [
        {
          "internalType": "uint256[2][]",
          "name": "",
          "type": "uint256[2][]"
        }
      ],
      "stateMutability": "view",
      "type": "function",
      "constant": true
    },
    {
      "inputs": [
        {
          "internalType": "uint256",
          "name": "tokenId",
          "type": "uint256"
        }
      ],
      "name": "burnItem",
      "outputs": [],
      "stateMutability": "nonpayable",
      "type": "function"
    },
    {
      "inputs": [
        {
          "internalType": "uint256",
          "name": "tokenId",
          "type": "uint256"
        },
        {
          "internalType": "uint256",
          "name": "level",
          "type": "uint256"
        }
      ],
      "name": "setItemLevel",
      "outputs": [],
      "stateMutability": "nonpayable",
      "type": "function"
    },
    {
      "inputs": [
        {
          "internalType": "uint256",
          "name": "tokenId",
          "type": "uint256"
        },
        {
          "internalType": "uint256",
          "name": "points",
          "type": "uint256"
        }
      ],
      "name": "setAdditionalPoints",
      "outputs": [],
      "stateMutability": "nonpayable",
      "type": "function"
    },
    {
      "inputs": [
        {
          "internalType": "address",
          "name": "owner",
          "type": "address"
        }
      ],
      "name": "safeMint",
      "outputs": [
        {
          "internalType": "uint256",
          "name": "",
          "type": "uint256"
        }
      ],
      "stateMutability": "nonpayable",
      "type": "function"
    },
    {
      "inputs": [
        {
          "internalType": "uint256",
          "name": "tokenId",
          "type": "uint256"
        },
        {
          "components": [
            {
              "internalType": "string",
              "name": "name",
              "type": "string"
            },
            {
              "internalType": "uint256",
              "name": "tokenId",
              "type": "uint256"
            },
            {
              "internalType": "uint256",
              "name": "itemLevel",
              "type": "uint256"
            },
            {
              "internalType": "uint256",
              "name": "maxLevel",
              "type": "uint256"
            },
            {
              "internalType": "uint256",
              "name": "durability",
              "type": "uint256"
            },
            {
              "internalType": "uint256",
              "name": "classRequired",
              "type": "uint256"
            },
            {
              "internalType": "uint256",
              "name": "strengthRequired",
              "type": "uint256"
            },
            {
              "internalType": "uint256",
              "name": "agilityRequired",
              "type": "uint256"
            },
            {
              "internalType": "uint256",
              "name": "energyRequired",
              "type": "uint256"
            },
            {
              "internalType": "uint256",
              "name": "vitalityRequired",
              "type": "uint256"
            },
            {
              "internalType": "uint256",
              "name": "itemWidth",
              "type": "uint256"
            },
            {
              "internalType": "uint256",
              "name": "itemHeight",
              "type": "uint256"
            },
            {
              "internalType": "uint256",
              "name": "acceptableSlot1",
              "type": "uint256"
            },
            {
              "internalType": "uint256",
              "name": "acceptableSlot2",
              "type": "uint256"
            },
            {
              "internalType": "uint256",
              "name": "baseMinPhysicalDamage",
              "type": "uint256"
            },
            {
              "internalType": "uint256",
              "name": "baseMaxPhysicalDamage",
              "type": "uint256"
            },
            {
              "internalType": "uint256",
              "name": "baseMinMagicDamage",
              "type": "uint256"
            },
            {
              "internalType": "uint256",
              "name": "baseMaxMagicDamage",
              "type": "uint256"
            },
            {
              "internalType": "uint256",
              "name": "baseDefense",
              "type": "uint256"
            },
            {
              "internalType": "uint256",
              "name": "attackSpeed",
              "type": "uint256"
            },
            {
              "internalType": "uint256",
              "name": "additionalDamage",
              "type": "uint256"
            },
            {
              "internalType": "uint256",
              "name": "additionalDefense",
              "type": "uint256"
            },
            {
              "internalType": "uint256",
              "name": "fighterId",
              "type": "uint256"
            },
            {
              "internalType": "uint256",
              "name": "lastUpdBlock",
              "type": "uint256"
            },
            {
              "internalType": "uint256",
              "name": "itemRarityLevel",
              "type": "uint256"
            },
            {
              "internalType": "uint256",
              "name": "itemAttributesId",
              "type": "uint256"
            },
            {
              "internalType": "uint256",
              "name": "packSize",
              "type": "uint256"
            },
            {
              "internalType": "bool",
              "name": "luck",
              "type": "bool"
            },
            {
              "internalType": "bool",
              "name": "skill",
              "type": "bool"
            },
            {
              "internalType": "bool",
              "name": "isPackable",
              "type": "bool"
            },
            {
              "internalType": "bool",
              "name": "isBox",
              "type": "bool"
            },
            {
              "internalType": "bool",
              "name": "isWeapon",
              "type": "bool"
            },
            {
              "internalType": "bool",
              "name": "isArmour",
              "type": "bool"
            },
            {
              "internalType": "bool",
              "name": "isJewel",
              "type": "bool"
            },
            {
              "internalType": "bool",
              "name": "isWings",
              "type": "bool"
            },
            {
              "internalType": "bool",
              "name": "isMisc",
              "type": "bool"
            },
            {
              "internalType": "bool",
              "name": "inShop",
              "type": "bool"
            },
            {
              "internalType": "uint256",
              "name": "increaseAttackSpeedPoints",
              "type": "uint256"
            },
            {
              "internalType": "uint256",
              "name": "reflectDamagePercent",
              "type": "uint256"
            },
            {
              "internalType": "uint256",
              "name": "restoreHPChance",
              "type": "uint256"
            },
            {
              "internalType": "uint256",
              "name": "restoreMPChance",
              "type": "uint256"
            },
            {
              "internalType": "uint256",
              "name": "doubleDamageChance",
              "type": "uint256"
            },
            {
              "internalType": "uint256",
              "name": "ignoreOpponentDefenseChance",
              "type": "uint256"
            },
            {
              "internalType": "uint256",
              "name": "lifeAfterMonsterIncrease",
              "type": "uint256"
            },
            {
              "internalType": "uint256",
              "name": "manaAfterMonsterIncrease",
              "type": "uint256"
            },
            {
              "internalType": "uint256",
              "name": "excellentDamageProbabilityIncrease",
              "type": "uint256"
            },
            {
              "internalType": "uint256",
              "name": "attackSpeedIncrease",
              "type": "uint256"
            },
            {
              "internalType": "uint256",
              "name": "attackLvl20",
              "type": "uint256"
            },
            {
              "internalType": "uint256",
              "name": "attackIncreasePercent",
              "type": "uint256"
            },
            {
              "internalType": "uint256",
              "name": "defenseSuccessRateIncrease",
              "type": "uint256"
            },
            {
              "internalType": "uint256",
              "name": "goldAfterMonsterIncrease",
              "type": "uint256"
            },
            {
              "internalType": "uint256",
              "name": "reflectDamage",
              "type": "uint256"
            },
            {
              "internalType": "uint256",
              "name": "maxLifeIncrease",
              "type": "uint256"
            },
            {
              "internalType": "uint256",
              "name": "maxManaIncrease",
              "type": "uint256"
            },
            {
              "internalType": "uint256",
              "name": "hpRecoveryRateIncrease",
              "type": "uint256"
            },
            {
              "internalType": "uint256",
              "name": "mpRecoveryRateIncrease",
              "type": "uint256"
            },
            {
              "internalType": "uint256",
              "name": "decreaseDamageRateIncrease",
              "type": "uint256"
            }
          ],
          "internalType": "struct ItemsExcellentAtts.ExcellentItemAtts",
          "name": "atts",
          "type": "tuple"
        }
      ],
      "name": "setTokenAttributes",
      "outputs": [],
      "stateMutability": "nonpayable",
      "type": "function"
    },
    {
      "inputs": [
        {
          "internalType": "uint256",
          "name": "tokenId",
          "type": "uint256"
        }
      ],
      "name": "itemExists",
      "outputs": [
        {
          "internalType": "bool",
          "name": "",
          "type": "bool"
        }
      ],
      "stateMutability": "nonpayable",
      "type": "function"
    },
    {
      "inputs": [
        {
          "internalType": "uint256",
          "name": "tokenId",
          "type": "uint256"
        },
        {
          "internalType": "address",
          "name": "to",
          "type": "address"
        }
      ],
      "name": "transferItem",
      "outputs": [],
      "stateMutability": "nonpayable",
      "type": "function"
    },
    {
      "inputs": [
        {
          "components": [
            {
              "internalType": "string",
              "name": "name",
              "type": "string"
            },
            {
              "internalType": "uint256",
              "name": "tokenId",
              "type": "uint256"
            },
            {
              "internalType": "uint256",
              "name": "itemLevel",
              "type": "uint256"
            },
            {
              "internalType": "uint256",
              "name": "maxLevel",
              "type": "uint256"
            },
            {
              "internalType": "uint256",
              "name": "durability",
              "type": "uint256"
            },
            {
              "internalType": "uint256",
              "name": "classRequired",
              "type": "uint256"
            },
            {
              "internalType": "uint256",
              "name": "strengthRequired",
              "type": "uint256"
            },
            {
              "internalType": "uint256",
              "name": "agilityRequired",
              "type": "uint256"
            },
            {
              "internalType": "uint256",
              "name": "energyRequired",
              "type": "uint256"
            },
            {
              "internalType": "uint256",
              "name": "vitalityRequired",
              "type": "uint256"
            },
            {
              "internalType": "uint256",
              "name": "itemWidth",
              "type": "uint256"
            },
            {
              "internalType": "uint256",
              "name": "itemHeight",
              "type": "uint256"
            },
            {
              "internalType": "uint256",
              "name": "acceptableSlot1",
              "type": "uint256"
            },
            {
              "internalType": "uint256",
              "name": "acceptableSlot2",
              "type": "uint256"
            },
            {
              "internalType": "uint256",
              "name": "baseMinPhysicalDamage",
              "type": "uint256"
            },
            {
              "internalType": "uint256",
              "name": "baseMaxPhysicalDamage",
              "type": "uint256"
            },
            {
              "internalType": "uint256",
              "name": "baseMinMagicDamage",
              "type": "uint256"
            },
            {
              "internalType": "uint256",
              "name": "baseMaxMagicDamage",
              "type": "uint256"
            },
            {
              "internalType": "uint256",
              "name": "baseDefense",
              "type": "uint256"
            },
            {
              "internalType": "uint256",
              "name": "attackSpeed",
              "type": "uint256"
            },
            {
              "internalType": "uint256",
              "name": "additionalDamage",
              "type": "uint256"
            },
            {
              "internalType": "uint256",
              "name": "additionalDefense",
              "type": "uint256"
            },
            {
              "internalType": "uint256",
              "name": "fighterId",
              "type": "uint256"
            },
            {
              "internalType": "uint256",
              "name": "lastUpdBlock",
              "type": "uint256"
            },
            {
              "internalType": "uint256",
              "name": "itemRarityLevel",
              "type": "uint256"
            },
            {
              "internalType": "uint256",
              "name": "itemAttributesId",
              "type": "uint256"
            },
            {
              "internalType": "uint256",
              "name": "packSize",
              "type": "uint256"
            },
            {
              "internalType": "bool",
              "name": "luck",
              "type": "bool"
            },
            {
              "internalType": "bool",
              "name": "skill",
              "type": "bool"
            },
            {
              "internalType": "bool",
              "name": "isPackable",
              "type": "bool"
            },
            {
              "internalType": "bool",
              "name": "isBox",
              "type": "bool"
            },
            {
              "internalType": "bool",
              "name": "isWeapon",
              "type": "bool"
            },
            {
              "internalType": "bool",
              "name": "isArmour",
              "type": "bool"
            },
            {
              "internalType": "bool",
              "name": "isJewel",
              "type": "bool"
            },
            {
              "internalType": "bool",
              "name": "isWings",
              "type": "bool"
            },
            {
              "internalType": "bool",
              "name": "isMisc",
              "type": "bool"
            },
            {
              "internalType": "bool",
              "name": "inShop",
              "type": "bool"
            },
            {
              "internalType": "uint256",
              "name": "increaseAttackSpeedPoints",
              "type": "uint256"
            },
            {
              "internalType": "uint256",
              "name": "reflectDamagePercent",
              "type": "uint256"
            },
            {
              "internalType": "uint256",
              "name": "restoreHPChance",
              "type": "uint256"
            },
            {
              "internalType": "uint256",
              "name": "restoreMPChance",
              "type": "uint256"
            },
            {
              "internalType": "uint256",
              "name": "doubleDamageChance",
              "type": "uint256"
            },
            {
              "internalType": "uint256",
              "name": "ignoreOpponentDefenseChance",
              "type": "uint256"
            },
            {
              "internalType": "uint256",
              "name": "lifeAfterMonsterIncrease",
              "type": "uint256"
            },
            {
              "internalType": "uint256",
              "name": "manaAfterMonsterIncrease",
              "type": "uint256"
            },
            {
              "internalType": "uint256",
              "name": "excellentDamageProbabilityIncrease",
              "type": "uint256"
            },
            {
              "internalType": "uint256",
              "name": "attackSpeedIncrease",
              "type": "uint256"
            },
            {
              "internalType": "uint256",
              "name": "attackLvl20",
              "type": "uint256"
            },
            {
              "internalType": "uint256",
              "name": "attackIncreasePercent",
              "type": "uint256"
            },
            {
              "internalType": "uint256",
              "name": "defenseSuccessRateIncrease",
              "type": "uint256"
            },
            {
              "internalType": "uint256",
              "name": "goldAfterMonsterIncrease",
              "type": "uint256"
            },
            {
              "internalType": "uint256",
              "name": "reflectDamage",
              "type": "uint256"
            },
            {
              "internalType": "uint256",
              "name": "maxLifeIncrease",
              "type": "uint256"
            },
            {
              "internalType": "uint256",
              "name": "maxManaIncrease",
              "type": "uint256"
            },
            {
              "internalType": "uint256",
              "name": "hpRecoveryRateIncrease",
              "type": "uint256"
            },
            {
              "internalType": "uint256",
              "name": "mpRecoveryRateIncrease",
              "type": "uint256"
            },
            {
              "internalType": "uint256",
              "name": "decreaseDamageRateIncrease",
              "type": "uint256"
            }
          ],
          "internalType": "struct ItemsExcellentAtts.ExcellentItemAtts",
          "name": "item",
          "type": "tuple"
        }
      ],
      "name": "addExcellentOption",
      "outputs": [
        {
          "components": [
            {
              "internalType": "string",
              "name": "name",
              "type": "string"
            },
            {
              "internalType": "uint256",
              "name": "tokenId",
              "type": "uint256"
            },
            {
              "internalType": "uint256",
              "name": "itemLevel",
              "type": "uint256"
            },
            {
              "internalType": "uint256",
              "name": "maxLevel",
              "type": "uint256"
            },
            {
              "internalType": "uint256",
              "name": "durability",
              "type": "uint256"
            },
            {
              "internalType": "uint256",
              "name": "classRequired",
              "type": "uint256"
            },
            {
              "internalType": "uint256",
              "name": "strengthRequired",
              "type": "uint256"
            },
            {
              "internalType": "uint256",
              "name": "agilityRequired",
              "type": "uint256"
            },
            {
              "internalType": "uint256",
              "name": "energyRequired",
              "type": "uint256"
            },
            {
              "internalType": "uint256",
              "name": "vitalityRequired",
              "type": "uint256"
            },
            {
              "internalType": "uint256",
              "name": "itemWidth",
              "type": "uint256"
            },
            {
              "internalType": "uint256",
              "name": "itemHeight",
              "type": "uint256"
            },
            {
              "internalType": "uint256",
              "name": "acceptableSlot1",
              "type": "uint256"
            },
            {
              "internalType": "uint256",
              "name": "acceptableSlot2",
              "type": "uint256"
            },
            {
              "internalType": "uint256",
              "name": "baseMinPhysicalDamage",
              "type": "uint256"
            },
            {
              "internalType": "uint256",
              "name": "baseMaxPhysicalDamage",
              "type": "uint256"
            },
            {
              "internalType": "uint256",
              "name": "baseMinMagicDamage",
              "type": "uint256"
            },
            {
              "internalType": "uint256",
              "name": "baseMaxMagicDamage",
              "type": "uint256"
            },
            {
              "internalType": "uint256",
              "name": "baseDefense",
              "type": "uint256"
            },
            {
              "internalType": "uint256",
              "name": "attackSpeed",
              "type": "uint256"
            },
            {
              "internalType": "uint256",
              "name": "additionalDamage",
              "type": "uint256"
            },
            {
              "internalType": "uint256",
              "name": "additionalDefense",
              "type": "uint256"
            },
            {
              "internalType": "uint256",
              "name": "fighterId",
              "type": "uint256"
            },
            {
              "internalType": "uint256",
              "name": "lastUpdBlock",
              "type": "uint256"
            },
            {
              "internalType": "uint256",
              "name": "itemRarityLevel",
              "type": "uint256"
            },
            {
              "internalType": "uint256",
              "name": "itemAttributesId",
              "type": "uint256"
            },
            {
              "internalType": "uint256",
              "name": "packSize",
              "type": "uint256"
            },
            {
              "internalType": "bool",
              "name": "luck",
              "type": "bool"
            },
            {
              "internalType": "bool",
              "name": "skill",
              "type": "bool"
            },
            {
              "internalType": "bool",
              "name": "isPackable",
              "type": "bool"
            },
            {
              "internalType": "bool",
              "name": "isBox",
              "type": "bool"
            },
            {
              "internalType": "bool",
              "name": "isWeapon",
              "type": "bool"
            },
            {
              "internalType": "bool",
              "name": "isArmour",
              "type": "bool"
            },
            {
              "internalType": "bool",
              "name": "isJewel",
              "type": "bool"
            },
            {
              "internalType": "bool",
              "name": "isWings",
              "type": "bool"
            },
            {
              "internalType": "bool",
              "name": "isMisc",
              "type": "bool"
            },
            {
              "internalType": "bool",
              "name": "inShop",
              "type": "bool"
            },
            {
              "internalType": "uint256",
              "name": "increaseAttackSpeedPoints",
              "type": "uint256"
            },
            {
              "internalType": "uint256",
              "name": "reflectDamagePercent",
              "type": "uint256"
            },
            {
              "internalType": "uint256",
              "name": "restoreHPChance",
              "type": "uint256"
            },
            {
              "internalType": "uint256",
              "name": "restoreMPChance",
              "type": "uint256"
            },
            {
              "internalType": "uint256",
              "name": "doubleDamageChance",
              "type": "uint256"
            },
            {
              "internalType": "uint256",
              "name": "ignoreOpponentDefenseChance",
              "type": "uint256"
            },
            {
              "internalType": "uint256",
              "name": "lifeAfterMonsterIncrease",
              "type": "uint256"
            },
            {
              "internalType": "uint256",
              "name": "manaAfterMonsterIncrease",
              "type": "uint256"
            },
            {
              "internalType": "uint256",
              "name": "excellentDamageProbabilityIncrease",
              "type": "uint256"
            },
            {
              "internalType": "uint256",
              "name": "attackSpeedIncrease",
              "type": "uint256"
            },
            {
              "internalType": "uint256",
              "name": "attackLvl20",
              "type": "uint256"
            },
            {
              "internalType": "uint256",
              "name": "attackIncreasePercent",
              "type": "uint256"
            },
            {
              "internalType": "uint256",
              "name": "defenseSuccessRateIncrease",
              "type": "uint256"
            },
            {
              "internalType": "uint256",
              "name": "goldAfterMonsterIncrease",
              "type": "uint256"
            },
            {
              "internalType": "uint256",
              "name": "reflectDamage",
              "type": "uint256"
            },
            {
              "internalType": "uint256",
              "name": "maxLifeIncrease",
              "type": "uint256"
            },
            {
              "internalType": "uint256",
              "name": "maxManaIncrease",
              "type": "uint256"
            },
            {
              "internalType": "uint256",
              "name": "hpRecoveryRateIncrease",
              "type": "uint256"
            },
            {
              "internalType": "uint256",
              "name": "mpRecoveryRateIncrease",
              "type": "uint256"
            },
            {
              "internalType": "uint256",
              "name": "decreaseDamageRateIncrease",
              "type": "uint256"
            }
          ],
          "internalType": "struct ItemsExcellentAtts.ExcellentItemAtts",
          "name": "",
          "type": "tuple"
        }
      ],
      "stateMutability": "nonpayable",
      "type": "function"
    },
    {
      "inputs": [
        {
          "components": [
            {
              "internalType": "string",
              "name": "name",
              "type": "string"
            },
            {
              "internalType": "uint256",
              "name": "tokenId",
              "type": "uint256"
            },
            {
              "internalType": "uint256",
              "name": "itemLevel",
              "type": "uint256"
            },
            {
              "internalType": "uint256",
              "name": "maxLevel",
              "type": "uint256"
            },
            {
              "internalType": "uint256",
              "name": "durability",
              "type": "uint256"
            },
            {
              "internalType": "uint256",
              "name": "classRequired",
              "type": "uint256"
            },
            {
              "internalType": "uint256",
              "name": "strengthRequired",
              "type": "uint256"
            },
            {
              "internalType": "uint256",
              "name": "agilityRequired",
              "type": "uint256"
            },
            {
              "internalType": "uint256",
              "name": "energyRequired",
              "type": "uint256"
            },
            {
              "internalType": "uint256",
              "name": "vitalityRequired",
              "type": "uint256"
            },
            {
              "internalType": "uint256",
              "name": "itemWidth",
              "type": "uint256"
            },
            {
              "internalType": "uint256",
              "name": "itemHeight",
              "type": "uint256"
            },
            {
              "internalType": "uint256",
              "name": "acceptableSlot1",
              "type": "uint256"
            },
            {
              "internalType": "uint256",
              "name": "acceptableSlot2",
              "type": "uint256"
            },
            {
              "internalType": "uint256",
              "name": "baseMinPhysicalDamage",
              "type": "uint256"
            },
            {
              "internalType": "uint256",
              "name": "baseMaxPhysicalDamage",
              "type": "uint256"
            },
            {
              "internalType": "uint256",
              "name": "baseMinMagicDamage",
              "type": "uint256"
            },
            {
              "internalType": "uint256",
              "name": "baseMaxMagicDamage",
              "type": "uint256"
            },
            {
              "internalType": "uint256",
              "name": "baseDefense",
              "type": "uint256"
            },
            {
              "internalType": "uint256",
              "name": "attackSpeed",
              "type": "uint256"
            },
            {
              "internalType": "uint256",
              "name": "additionalDamage",
              "type": "uint256"
            },
            {
              "internalType": "uint256",
              "name": "additionalDefense",
              "type": "uint256"
            },
            {
              "internalType": "uint256",
              "name": "fighterId",
              "type": "uint256"
            },
            {
              "internalType": "uint256",
              "name": "lastUpdBlock",
              "type": "uint256"
            },
            {
              "internalType": "uint256",
              "name": "itemRarityLevel",
              "type": "uint256"
            },
            {
              "internalType": "uint256",
              "name": "itemAttributesId",
              "type": "uint256"
            },
            {
              "internalType": "uint256",
              "name": "packSize",
              "type": "uint256"
            },
            {
              "internalType": "bool",
              "name": "luck",
              "type": "bool"
            },
            {
              "internalType": "bool",
              "name": "skill",
              "type": "bool"
            },
            {
              "internalType": "bool",
              "name": "isPackable",
              "type": "bool"
            },
            {
              "internalType": "bool",
              "name": "isBox",
              "type": "bool"
            },
            {
              "internalType": "bool",
              "name": "isWeapon",
              "type": "bool"
            },
            {
              "internalType": "bool",
              "name": "isArmour",
              "type": "bool"
            },
            {
              "internalType": "bool",
              "name": "isJewel",
              "type": "bool"
            },
            {
              "internalType": "bool",
              "name": "isWings",
              "type": "bool"
            },
            {
              "internalType": "bool",
              "name": "isMisc",
              "type": "bool"
            },
            {
              "internalType": "bool",
              "name": "inShop",
              "type": "bool"
            }
          ],
          "internalType": "struct ItemsAtts.ItemAttributes",
          "name": "item",
          "type": "tuple"
        }
      ],
      "name": "convertToExcellent",
      "outputs": [
        {
          "components": [
            {
              "internalType": "string",
              "name": "name",
              "type": "string"
            },
            {
              "internalType": "uint256",
              "name": "tokenId",
              "type": "uint256"
            },
            {
              "internalType": "uint256",
              "name": "itemLevel",
              "type": "uint256"
            },
            {
              "internalType": "uint256",
              "name": "maxLevel",
              "type": "uint256"
            },
            {
              "internalType": "uint256",
              "name": "durability",
              "type": "uint256"
            },
            {
              "internalType": "uint256",
              "name": "classRequired",
              "type": "uint256"
            },
            {
              "internalType": "uint256",
              "name": "strengthRequired",
              "type": "uint256"
            },
            {
              "internalType": "uint256",
              "name": "agilityRequired",
              "type": "uint256"
            },
            {
              "internalType": "uint256",
              "name": "energyRequired",
              "type": "uint256"
            },
            {
              "internalType": "uint256",
              "name": "vitalityRequired",
              "type": "uint256"
            },
            {
              "internalType": "uint256",
              "name": "itemWidth",
              "type": "uint256"
            },
            {
              "internalType": "uint256",
              "name": "itemHeight",
              "type": "uint256"
            },
            {
              "internalType": "uint256",
              "name": "acceptableSlot1",
              "type": "uint256"
            },
            {
              "internalType": "uint256",
              "name": "acceptableSlot2",
              "type": "uint256"
            },
            {
              "internalType": "uint256",
              "name": "baseMinPhysicalDamage",
              "type": "uint256"
            },
            {
              "internalType": "uint256",
              "name": "baseMaxPhysicalDamage",
              "type": "uint256"
            },
            {
              "internalType": "uint256",
              "name": "baseMinMagicDamage",
              "type": "uint256"
            },
            {
              "internalType": "uint256",
              "name": "baseMaxMagicDamage",
              "type": "uint256"
            },
            {
              "internalType": "uint256",
              "name": "baseDefense",
              "type": "uint256"
            },
            {
              "internalType": "uint256",
              "name": "attackSpeed",
              "type": "uint256"
            },
            {
              "internalType": "uint256",
              "name": "additionalDamage",
              "type": "uint256"
            },
            {
              "internalType": "uint256",
              "name": "additionalDefense",
              "type": "uint256"
            },
            {
              "internalType": "uint256",
              "name": "fighterId",
              "type": "uint256"
            },
            {
              "internalType": "uint256",
              "name": "lastUpdBlock",
              "type": "uint256"
            },
            {
              "internalType": "uint256",
              "name": "itemRarityLevel",
              "type": "uint256"
            },
            {
              "internalType": "uint256",
              "name": "itemAttributesId",
              "type": "uint256"
            },
            {
              "internalType": "uint256",
              "name": "packSize",
              "type": "uint256"
            },
            {
              "internalType": "bool",
              "name": "luck",
              "type": "bool"
            },
            {
              "internalType": "bool",
              "name": "skill",
              "type": "bool"
            },
            {
              "internalType": "bool",
              "name": "isPackable",
              "type": "bool"
            },
            {
              "internalType": "bool",
              "name": "isBox",
              "type": "bool"
            },
            {
              "internalType": "bool",
              "name": "isWeapon",
              "type": "bool"
            },
            {
              "internalType": "bool",
              "name": "isArmour",
              "type": "bool"
            },
            {
              "internalType": "bool",
              "name": "isJewel",
              "type": "bool"
            },
            {
              "internalType": "bool",
              "name": "isWings",
              "type": "bool"
            },
            {
              "internalType": "bool",
              "name": "isMisc",
              "type": "bool"
            },
            {
              "internalType": "bool",
              "name": "inShop",
              "type": "bool"
            },
            {
              "internalType": "uint256",
              "name": "increaseAttackSpeedPoints",
              "type": "uint256"
            },
            {
              "internalType": "uint256",
              "name": "reflectDamagePercent",
              "type": "uint256"
            },
            {
              "internalType": "uint256",
              "name": "restoreHPChance",
              "type": "uint256"
            },
            {
              "internalType": "uint256",
              "name": "restoreMPChance",
              "type": "uint256"
            },
            {
              "internalType": "uint256",
              "name": "doubleDamageChance",
              "type": "uint256"
            },
            {
              "internalType": "uint256",
              "name": "ignoreOpponentDefenseChance",
              "type": "uint256"
            },
            {
              "internalType": "uint256",
              "name": "lifeAfterMonsterIncrease",
              "type": "uint256"
            },
            {
              "internalType": "uint256",
              "name": "manaAfterMonsterIncrease",
              "type": "uint256"
            },
            {
              "internalType": "uint256",
              "name": "excellentDamageProbabilityIncrease",
              "type": "uint256"
            },
            {
              "internalType": "uint256",
              "name": "attackSpeedIncrease",
              "type": "uint256"
            },
            {
              "internalType": "uint256",
              "name": "attackLvl20",
              "type": "uint256"
            },
            {
              "internalType": "uint256",
              "name": "attackIncreasePercent",
              "type": "uint256"
            },
            {
              "internalType": "uint256",
              "name": "defenseSuccessRateIncrease",
              "type": "uint256"
            },
            {
              "internalType": "uint256",
              "name": "goldAfterMonsterIncrease",
              "type": "uint256"
            },
            {
              "internalType": "uint256",
              "name": "reflectDamage",
              "type": "uint256"
            },
            {
              "internalType": "uint256",
              "name": "maxLifeIncrease",
              "type": "uint256"
            },
            {
              "internalType": "uint256",
              "name": "maxManaIncrease",
              "type": "uint256"
            },
            {
              "internalType": "uint256",
              "name": "hpRecoveryRateIncrease",
              "type": "uint256"
            },
            {
              "internalType": "uint256",
              "name": "mpRecoveryRateIncrease",
              "type": "uint256"
            },
            {
              "internalType": "uint256",
              "name": "decreaseDamageRateIncrease",
              "type": "uint256"
            }
          ],
          "internalType": "struct ItemsExcellentAtts.ExcellentItemAtts",
          "name": "",
          "type": "tuple"
        }
      ],
      "stateMutability": "view",
      "type": "function",
      "constant": true
    },
    {
      "inputs": [
        {
          "internalType": "uint256",
          "name": "itemId",
          "type": "uint256"
        },
        {
          "internalType": "uint256",
          "name": "fighterId",
          "type": "uint256"
        }
      ],
      "name": "buyItemFromShop",
      "outputs": [],
      "stateMutability": "nonpayable",
      "type": "function"
    },
    {
      "inputs": [
        {
          "internalType": "uint256",
          "name": "itemId",
          "type": "uint256"
        },
        {
          "internalType": "uint256[]",
          "name": "tokenIds",
          "type": "uint256[]"
        },
        {
          "internalType": "uint256",
          "name": "packSize",
          "type": "uint256"
        },
        {
          "internalType": "uint256",
          "name": "fighterId",
          "type": "uint256"
        }
      ],
      "name": "packItems",
      "outputs": [
        {
          "internalType": "uint256",
          "name": "newTokenId",
          "type": "uint256"
        }
      ],
      "stateMutability": "nonpayable",
      "type": "function"
    },
    {
      "inputs": [
        {
          "internalType": "uint256",
          "name": "tokenId",
          "type": "uint256"
        }
      ],
      "name": "unpackItems",
      "outputs": [
        {
          "internalType": "uint256[]",
          "name": "tokenIds",
          "type": "uint256[]"
        }
      ],
      "stateMutability": "nonpayable",
      "type": "function"
    },
    {
      "inputs": [
        {
          "internalType": "uint256",
          "name": "rarityLevel",
          "type": "uint256"
        }
      ],
      "name": "getWeapons",
      "outputs": [
        {
          "internalType": "uint256[]",
          "name": "",
          "type": "uint256[]"
        }
      ],
      "stateMutability": "view",
      "type": "function",
      "constant": true
    },
    {
      "inputs": [
        {
          "internalType": "uint256",
          "name": "rarityLevel",
          "type": "uint256"
        }
      ],
      "name": "getArmours",
      "outputs": [
        {
          "internalType": "uint256[]",
          "name": "",
          "type": "uint256[]"
        }
      ],
      "stateMutability": "view",
      "type": "function",
      "constant": true
    },
    {
      "inputs": [
        {
          "internalType": "uint256",
          "name": "rarityLevel",
          "type": "uint256"
        }
      ],
      "name": "getJewels",
      "outputs": [
        {
          "internalType": "uint256[]",
          "name": "",
          "type": "uint256[]"
        }
      ],
      "stateMutability": "view",
      "type": "function",
      "constant": true
    },
    {
      "inputs": [
        {
          "internalType": "uint256",
          "name": "rarityLevel",
          "type": "uint256"
        }
      ],
      "name": "getMisc",
      "outputs": [
        {
          "internalType": "uint256[]",
          "name": "",
          "type": "uint256[]"
        }
      ],
      "stateMutability": "view",
      "type": "function",
      "constant": true
    }
  ],
  "bytecode": "0x60806040526064600055601c60015560326002556032600355601e600455601e6005556002600655600160075560006008553480156200003e57600080fd5b5060405162001fd438038062001fd48339810160408190526200006191620000b0565b600980546001600160a01b039384166001600160a01b031991821617909155600a8054929093169116179055620000e8565b80516001600160a01b0381168114620000ab57600080fd5b919050565b60008060408385031215620000c457600080fd5b620000cf8362000093565b9150620000df6020840162000093565b90509250929050565b611edc80620000f86000396000f3fe608060405234801561001057600080fd5b50600436106101215760003560e01c80636995795b116100ad578063a422910111610071578063a422910114610280578063c0773f5c14610293578063caf7c445146102a6578063e8af18f3146102b9578063fd8f6170146102cc57600080fd5b80636995795b146102115780637f46914f14610224578063843bd641146102375780639b94680f1461025a578063a0b2adc01461026d57600080fd5b806332fac8f8116100f457806332fac8f81461019557806340d097c3146101aa578063513c1452146101cb578063576cc0f7146101eb5780635e8a44be146101fe57600080fd5b806303f46b8b1461012657806308199a771461014f5780631f4f5a231461016f5780632a67c52214610182575b600080fd5b610139610134366004610ab5565b6102df565b6040516101469190610b09565b60405180910390f35b61016261015d366004610c6e565b610358565b60405161014691906111a3565b61016261017d366004610ab5565b6103d5565b6101626101903660046114a7565b610429565b6101a86101a33660046114e3565b610461565b005b6101bd6101b836600461151c565b6104cb565b604051908152602001610146565b6101de6101d9366004611537565b61053c565b6040516101469190611561565b6101a86101f9366004610ab5565b6105bd565b6101bd61020c3660046115ed565b61061e565b61016261021f366004610ab5565b6106a1565b6101a86102323660046114e3565b6106da565b61024a610245366004610ab5565b610712565b6040519015158152602001610146565b610139610268366004610ab5565b610780565b61013961027b366004610ab5565b6107b2565b6101a861028e366004611697565b6107fe565b6101a86102a13660046116c3565b610837565b6101a86102b43660046114e3565b610869565b6101396102c7366004610ab5565b6108a1565b6101396102da366004610ab5565b6108d3565b6009546040516303f46b8b60e01b8152600481018390526060916001600160a01b0316906303f46b8b906024015b600060405180830381865afa15801561032a573d6000803e3d6000fd5b505050506040513d6000823e601f3d908101601f191682016040526103529190810190611709565b92915050565b610360610905565b600a546040516308199a7760e01b81526001600160a01b03909116906308199a7790610390908590600401611799565b600060405180830381865afa1580156103ad573d6000803e3d6000fd5b505050506040513d6000823e601f3d908101601f191682016040526103529190810190611a26565b6103dd610905565b600a54604051631f4f5a2360e01b8152600481018490526001600160a01b0390911690631f4f5a23906024015b6000604051808303816000875af11580156103ad573d6000803e3d6000fd5b610431610905565b600a54604051631533e29160e11b81526001600160a01b0390911690632a67c5229061040a9085906004016111a3565b60095460405163065f591f60e31b815260048101849052602481018390526001600160a01b03909116906332fac8f8906044015b600060405180830381600087803b1580156104af57600080fd5b505af11580156104c3573d6000803e3d6000fd5b505050505050565b6009546040516340d097c360e01b81526001600160a01b03838116600483015260009216906340d097c3906024016020604051808303816000875af1158015610518573d6000803e3d6000fd5b505050506040513d601f19601f820116820180604052508101906103529190611d52565b60095460405163289e0a2960e11b81526001600160a01b03848116600483015260248201849052606092169063513c145290604401600060405180830381865afa15801561058e573d6000803e3d6000fd5b505050506040513d6000823e601f3d908101601f191682016040526105b69190810190611d6b565b9392505050565b60095460405163576cc0f760e01b8152600481018390526001600160a01b039091169063576cc0f790602401600060405180830381600087803b15801561060357600080fd5b505af1158015610617573d6000803e3d6000fd5b5050505050565b600954604051632f45225f60e11b81526000916001600160a01b031690635e8a44be90610655908890889088908890600401611e44565b6020604051808303816000875af1158015610674573d6000803e3d6000fd5b505050506040513d601f19601f820116820180604052508101906106989190611d52565b95945050505050565b6106a9610905565b600a54604051636995795b60e01b8152600481018490526001600160a01b0390911690636995795b9060240161040a565b600954604051637f46914f60e01b815260048101849052602481018390526001600160a01b0390911690637f46914f90604401610495565b60095460405163843bd64160e01b8152600481018390526000916001600160a01b03169063843bd64190602401602060405180830381865afa15801561075c573d6000803e3d6000fd5b505050506040513d601f19601f820116820180604052508101906103529190611e70565b600954604051639b94680f60e01b8152600481018390526060916001600160a01b031690639b94680f9060240161030d565b600954604051630282cab760e61b8152600481018390526060916001600160a01b03169063a0b2adc0906024016000604051808303816000875af115801561032a573d6000803e3d6000fd5b60095460405163a422910160e01b8152600481018490526001600160a01b0383811660248301529091169063a422910190604401610495565b600a5460405163301dcfd760e21b81526001600160a01b039091169063c0773f5c906104959085908590600401611e8d565b60095460405163caf7c44560e01b815260048101849052602481018390526001600160a01b039091169063caf7c44590604401610495565b60095460405163e8af18f360e01b8152600481018390526060916001600160a01b03169063e8af18f39060240161030d565b600954604051630fd8f61760e41b8152600481018390526060916001600160a01b03169063fd8f61709060240161030d565b60405180610720016040528060608152602001600081526020016000815260200160008152602001600081526020016000815260200160008152602001600081526020016000815260200160008152602001600081526020016000815260200160008152602001600081526020016000815260200160008152602001600081526020016000815260200160008152602001600081526020016000815260200160008152602001600081526020016000815260200160008152602001600081526020016000815260200160001515815260200160001515815260200160001515815260200160001515815260200160001515815260200160001515815260200160001515815260200160001515815260200160001515815260200160001515815260200160008152602001600081526020016000815260200160008152602001600081526020016000815260200160008152602001600081526020016000815260200160008152602001600081526020016000815260200160008152602001600081526020016000815260200160008152602001600081526020016000815260200160008152602001600081525090565b600060208284031215610ac757600080fd5b5035919050565b600081518084526020808501945080840160005b83811015610afe57815187529582019590820190600101610ae2565b509495945050505050565b6020815260006105b66020830184610ace565b634e487b7160e01b600052604160045260246000fd5b6040516104a081016001600160401b0381118282101715610b5557610b55610b1c565b60405290565b60405161072081016001600160401b0381118282101715610b5557610b55610b1c565b604080519081016001600160401b0381118282101715610b5557610b55610b1c565b604051601f8201601f191681016001600160401b0381118282101715610bc857610bc8610b1c565b604052919050565b60006001600160401b03821115610be957610be9610b1c565b50601f01601f191660200190565b600082601f830112610c0857600080fd5b8135610c1b610c1682610bd0565b610ba0565b818152846020838601011115610c3057600080fd5b816020850160208301376000918101602001919091529392505050565b8015158114610c5b57600080fd5b50565b8035610c6981610c4d565b919050565b600060208284031215610c8057600080fd5b81356001600160401b0380821115610c9757600080fd5b908301906104a08286031215610cac57600080fd5b610cb4610b32565b823582811115610cc357600080fd5b610ccf87828601610bf7565b8252506020838101359082015260408084013590820152606080840135908201526080808401359082015260a0808401359082015260c0808401359082015260e08084013590820152610100808401359082015261012080840135908201526101408084013590820152610160808401359082015261018080840135908201526101a080840135908201526101c080840135908201526101e08084013590820152610200808401359082015261022080840135908201526102408084013590820152610260808401359082015261028080840135908201526102a080840135908201526102c080840135908201526102e080840135908201526103008084013590820152610320808401359082015261034080840135908201526103609150610df9828401610c5e565b828201526103809150610e0d828401610c5e565b828201526103a09150610e21828401610c5e565b828201526103c09150610e35828401610c5e565b828201526103e09150610e49828401610c5e565b828201526104009150610e5d828401610c5e565b828201526104209150610e71828401610c5e565b828201526104409150610e85828401610c5e565b828201526104609150610e99828401610c5e565b828201526104809150610ead828401610c5e565b91810191909152949350505050565b60005b83811015610ed7578181015183820152602001610ebf565b50506000910152565b60008151808452610ef8816020860160208601610ebc565b601f01601f19169290920160200192915050565b60006107208251818552610f2282860182610ee0565b6020858101519087015260408086015190870152606080860151908701526080808601519087015260a0808601519087015260c0808601519087015260e08086015190870152610100808601519087015261012080860151908701526101408086015190870152610160808601519087015261018080860151908701526101a080860151908701526101c080860151908701526101e08086015190870152610200808601519087015261022080860151908701526102408086015190870152610260808601519087015261028080860151908701526102a080860151908701526102c080860151908701526102e0808601519087015261030080860151908701526103208086015190870152610340808601519087015261036080860151151590870152610380808601511515908701526103a0808601511515908701526103c0808601511515908701526103e08086015115159087015261040080860151151590870152610420808601511515908701526104408086015115159087015261046080860151151590870152610480808601511515908701526104a080860151908701526104c080860151908701526104e08086015190870152610500808601519087015261052080860151908701526105408086015190870152610560808601519087015261058080860151908701526105a080860151908701526105c080860151908701526105e08086015190870152610600808601519087015261062080860151908701526106408086015190870152610660808601519087015261068080860151908701526106a080860151908701526106c080860151908701526106e08086015190870152610700948501519490950193909352509192915050565b6020815260006105b66020830184610f0c565b600061072082840312156111c957600080fd5b6111d1610b5b565b905081356001600160401b038111156111e957600080fd5b6111f584828501610bf7565b8252506020828101359082015260408083013590820152606080830135908201526080808301359082015260a0808301359082015260c0808301359082015260e08083013590820152610100808301359082015261012080830135908201526101408083013590820152610160808301359082015261018080830135908201526101a080830135908201526101c080830135908201526101e08083013590820152610200808301359082015261022080830135908201526102408083013590820152610260808301359082015261028080830135908201526102a080830135908201526102c080830135908201526102e0808301359082015261030080830135908201526103208083013590820152610340808301359082015261036061131d818401610c5e565b9082015261038061132f838201610c5e565b908201526103a0611341838201610c5e565b908201526103c0611353838201610c5e565b908201526103e0611365838201610c5e565b90820152610400611377838201610c5e565b90820152610420611389838201610c5e565b9082015261044061139b838201610c5e565b908201526104606113ad838201610c5e565b908201526104806113bf838201610c5e565b908201526104a082810135908201526104c080830135908201526104e08083013590820152610500808301359082015261052080830135908201526105408083013590820152610560808301359082015261058080830135908201526105a080830135908201526105c080830135908201526105e08083013590820152610600808301359082015261062080830135908201526106408083013590820152610660808301359082015261068080830135908201526106a080830135908201526106c080830135908201526106e080830135908201526107009182013591810191909152919050565b6000602082840312156114b957600080fd5b81356001600160401b038111156114cf57600080fd5b6114db848285016111b6565b949350505050565b600080604083850312156114f657600080fd5b50508035926020909101359150565b80356001600160a01b0381168114610c6957600080fd5b60006020828403121561152e57600080fd5b6105b682611505565b6000806040838503121561154a57600080fd5b61155383611505565b946020939093013593505050565b60208082528251828201819052600091906040908185019086840185805b838110156115bc57825185835b60028110156115a95782518252918901919089019060010161158c565b505050938501939186019160010161157f565b509298975050505050505050565b60006001600160401b038211156115e3576115e3610b1c565b5060051b60200190565b6000806000806080858703121561160357600080fd5b843593506020808601356001600160401b0381111561162157600080fd5b8601601f8101881361163257600080fd5b8035611640610c16826115ca565b81815260059190911b8201830190838101908a83111561165f57600080fd5b928401925b8284101561167d57833582529284019290840190611664565b979a97995050505060408601359560600135949350505050565b600080604083850312156116aa57600080fd5b823591506116ba60208401611505565b90509250929050565b600080604083850312156116d657600080fd5b8235915060208301356001600160401b038111156116f357600080fd5b6116ff858286016111b6565b9150509250929050565b6000602080838503121561171c57600080fd5b82516001600160401b0381111561173257600080fd5b8301601f8101851361174357600080fd5b8051611751610c16826115ca565b81815260059190911b8201830190838101908783111561177057600080fd5b928401925b8284101561178e57835182529284019290840190611775565b979650505050505050565b60208152600082516104a08060208501526117b86104c0850183610ee0565b602086015160408681019190915286015160608087019190915286015160808087019190915286015160a08087019190915286015160c08087019190915286015160e08087019190915286015161010080870191909152860151610120808701919091528601516101408087019190915286015161016080870191909152860151610180808701919091528601516101a0808701919091528601516101c0808701919091528601516101e08087019190915286015161020080870191909152860151610220808701919091528601516102408087019190915286015161026080870191909152860151610280808701919091528601516102a0808701919091528601516102c0808701919091528601516102e0808701919091528601516103008087019190915286015161032080870191909152860151610340808701919091528601516103608087019190915286015190925061038061191c8187018315159052565b86015190506103a06119318682018315159052565b86015190506103c06119468682018315159052565b86015190506103e061195b8682018315159052565b86015190506104006119708682018315159052565b86015190506104206119858682018315159052565b860151905061044061199a8682018315159052565b86015190506104606119af8682018315159052565b86015190506104806119c48682018315159052565b90950151151593019290925250919050565b600082601f8301126119e757600080fd5b81516119f5610c1682610bd0565b818152846020838601011115611a0a57600080fd5b6114db826020830160208701610ebc565b8051610c6981610c4d565b600060208284031215611a3857600080fd5b81516001600160401b0380821115611a4f57600080fd5b908301906107208286031215611a6457600080fd5b611a6c610b5b565b825182811115611a7b57600080fd5b611a87878286016119d6565b8252506020838101519082015260408084015190820152606080840151908201526080808401519082015260a0808401519082015260c0808401519082015260e08084015190820152610100808401519082015261012080840151908201526101408084015190820152610160808401519082015261018080840151908201526101a080840151908201526101c080840151908201526101e08084015190820152610200808401519082015261022080840151908201526102408084015190820152610260808401519082015261028080840151908201526102a080840151908201526102c080840151908201526102e080840151908201526103008084015190820152610320808401519082015261034080840151908201526103609150611bb1828401611a1b565b828201526103809150611bc5828401611a1b565b828201526103a09150611bd9828401611a1b565b828201526103c09150611bed828401611a1b565b828201526103e09150611c01828401611a1b565b828201526104009150611c15828401611a1b565b828201526104209150611c29828401611a1b565b828201526104409150611c3d828401611a1b565b828201526104609150611c51828401611a1b565b828201526104809150611c65828401611a1b565b918101919091526104a082810151908201526104c080830151908201526104e08083015190820152610500808301519082015261052080830151908201526105408083015190820152610560808301519082015261058080830151908201526105a080830151908201526105c080830151908201526105e08083015190820152610600808301519082015261062080830151908201526106408083015190820152610660808301519082015261068080830151908201526106a080830151908201526106c080830151908201526106e0808301519082015261070091820151918101919091529392505050565b600060208284031215611d6457600080fd5b5051919050565b60006020808385031215611d7e57600080fd5b82516001600160401b03811115611d9457600080fd5b8301601f8082018613611da657600080fd5b8151611db4610c16826115ca565b81815260069190911b83018401908481019088831115611dd357600080fd5b938501935b82851015611e38578884860112611def5760008081fd5b611df7610b7e565b80604087018b811115611e0a5760008081fd5b875b81811015611e235780518452928901928901611e0c565b50508352506040949094019390850190611dd8565b98975050505050505050565b848152608060208201526000611e5d6080830186610ace565b6040830194909452506060015292915050565b600060208284031215611e8257600080fd5b81516105b681610c4d565b8281526040602082015260006114db6040830184610f0c56fea2646970667358221220c3c1e359ce6989b90420458db8ad7024b8b1387d69f7772517212273f297059764736f6c63430008130033",
  "immutableReferences": {},
  "source": "// SPDX-License-Identifier: MIT\npragma solidity ^0.8.18;\nimport \"./ItemsExcellentAtts.sol\";\nimport \"./ItemsExcellent.sol\";\n\ncontract ItemsHelper is ItemsExcellentAtts {\n    Items private _items;\n    ItemsExcellent private _itemsExcellent;\n\n\n\n    constructor(address itemsAddress, address itemsExcellentAddress) {\n        _items = Items(itemsAddress);\n        _itemsExcellent = ItemsExcellent(itemsExcellentAddress);\n    }\n\n    // function craftItem(uint256 itemId, address itemOwner, uint256 maxLevel, uint256 maxAddPoints) external returns (uint256) {\n    //     return _items.craftItem(itemId, itemOwner, maxLevel, maxAddPoints);\n    // }\n\n    function getItemAttributes(uint256 itemId) external returns (ExcellentItemAtts memory) {\n        return _itemsExcellent.getItemAttributes(itemId);\n    }\n\n    function getTokenAttributes(uint256 tokenId) external returns (ExcellentItemAtts memory) {\n        return _itemsExcellent.getTokenAttributes(tokenId);\n    }\n\n    function getFighterItems(address userAddress, uint256 fighterId) external view returns (uint256[2][] memory) { \n        return _items.getFighterItems(userAddress, fighterId);\n    }\n\n    function burnItem(uint256 tokenId) external {\n        return _items.burnItem(tokenId);\n    }\n\n    function setItemLevel(uint256 tokenId, uint256 level)  external {\n        return _items.setItemLevel(tokenId, level);\n    }   \n\n    function setAdditionalPoints(uint256 tokenId, uint256 points) external {\n        return _items.setAdditionalPoints(tokenId, points);\n    }\n\n    function safeMint(address owner) external returns (uint256) {\n        return _items.safeMint(owner);\n    }\n\n    function setTokenAttributes(uint256 tokenId, ExcellentItemAtts memory atts) external {\n        return _itemsExcellent.setTokenAttributes(tokenId, atts);\n    }\n\n    function itemExists(uint256 tokenId) external returns (bool) {\n        return _items.itemExists(tokenId);\n    }\n\n    function transferItem(uint256 tokenId, address to) external {\n        _items.transferItem(tokenId, to);\n    }\n\n    function addExcellentOption(ExcellentItemAtts memory item) external returns (ExcellentItemAtts memory) {\n        return _itemsExcellent.addExcellentOption(item);\n    }\n\n    function convertToExcellent(ItemAttributes memory item) public view returns (ExcellentItemAtts memory) {\n        return _itemsExcellent.convertToExcellent(item);\n    }\n\n    function buyItemFromShop(uint256 itemId, uint256 fighterId) external { \n        return _items.buyItemFromShop(itemId, fighterId);\n    }\n\n\n    function packItems(uint256 itemId, uint256[] memory tokenIds, uint256 packSize, uint256 fighterId) external returns (uint256 newTokenId) {\n        return _items.packItems(itemId, tokenIds, packSize, fighterId);\n    }\n\n    function unpackItems(uint256 tokenId) external returns(uint256[] memory tokenIds) {\n        return _items.unpackItems(tokenId);\n    }\n\n\n    // getters\n    function getWeapons(uint256 rarityLevel) public view returns(uint256[] memory) {\n        return _items.getWeapons(rarityLevel);\n    }\n\n    function getArmours(uint256 rarityLevel) public view returns(uint256[] memory) {\n        return _items.getArmours(rarityLevel);\n    }\n\n    function getJewels(uint256 rarityLevel) public view returns(uint256[] memory) {\n        return _items.getJewels(rarityLevel);\n    }\n\n    function getMisc(uint256 rarityLevel) public view returns(uint256[] memory) {\n        return _items.getMisc(rarityLevel);\n    }\n}",
  "sourcePath": "/Users/max/Documents/prog/game-contracts/contracts/ItemsHelper.sol",
  "compiler": {
    "name": "solc",
    "version": "0.8.19+commit.7dd6d404.Emscripten.clang"
  },
  "schemaVersion": "3.4.13",
  "updatedAt": "2023-08-01T05:39:18.045Z",
  "networkType": "ethereum",
  "devdoc": {
    "kind": "dev",
    "methods": {},
    "version": 1
  },
  "userdoc": {
    "kind": "user",
    "methods": {},
    "version": 1
  }
}