{
  "contractName": "ItemsExcellent",
  "abi": [
    {
      "inputs": [
        {
          "internalType": "address",
          "name": "itemsAddress",
          "type": "address"
        }
      ],
      "stateMutability": "nonpayable",
      "type": "constructor"
    },
    {
      "inputs": [
        {
          "internalType": "uint256",
          "name": "",
          "type": "uint256"
        }
      ],
      "name": "ArmoursExcOpts",
      "outputs": [
        {
          "internalType": "uint256",
          "name": "defenseSuccessRateIncrease",
          "type": "uint256"
        },
        {
          "internalType": "uint256",
          "name": "goldAfterMonsterIncrease",
          "type": "uint256"
        },
        {
          "internalType": "uint256",
          "name": "reflectDamage",
          "type": "uint256"
        },
        {
          "internalType": "uint256",
          "name": "maxLifeIncrease",
          "type": "uint256"
        },
        {
          "internalType": "uint256",
          "name": "maxManaIncrease",
          "type": "uint256"
        },
        {
          "internalType": "uint256",
          "name": "hpRecoveryRateIncrease",
          "type": "uint256"
        },
        {
          "internalType": "uint256",
          "name": "mpRecoveryRateIncrease",
          "type": "uint256"
        },
        {
          "internalType": "uint256",
          "name": "decreaseDamageRateIncrease",
          "type": "uint256"
        },
        {
          "internalType": "uint256",
          "name": "doubleOptionChance",
          "type": "uint256"
        }
      ],
      "stateMutability": "view",
      "type": "function",
      "constant": true
    },
    {
      "inputs": [
        {
          "internalType": "uint256",
          "name": "",
          "type": "uint256"
        }
      ],
      "name": "WeaponsExcOpts",
      "outputs": [
        {
          "internalType": "uint256",
          "name": "lifeAfterMonsterIncrease",
          "type": "uint256"
        },
        {
          "internalType": "uint256",
          "name": "manaAfterMonsterIncrease",
          "type": "uint256"
        },
        {
          "internalType": "uint256",
          "name": "excellentDamageProbabilityIncrease",
          "type": "uint256"
        },
        {
          "internalType": "uint256",
          "name": "attackSpeedIncrease",
          "type": "uint256"
        },
        {
          "internalType": "uint256",
          "name": "attackLvl20",
          "type": "uint256"
        },
        {
          "internalType": "uint256",
          "name": "attackIncreasePercent",
          "type": "uint256"
        },
        {
          "internalType": "uint256",
          "name": "doubleOptionChance",
          "type": "uint256"
        }
      ],
      "stateMutability": "view",
      "type": "function",
      "constant": true
    },
    {
      "inputs": [
        {
          "internalType": "uint256",
          "name": "",
          "type": "uint256"
        }
      ],
      "name": "WingsExcOpts",
      "outputs": [
        {
          "internalType": "uint256",
          "name": "increaseAttackSpeedPoints",
          "type": "uint256"
        },
        {
          "internalType": "uint256",
          "name": "reflectDamagePercent",
          "type": "uint256"
        },
        {
          "internalType": "uint256",
          "name": "restoreHPChance",
          "type": "uint256"
        },
        {
          "internalType": "uint256",
          "name": "restoreMPChance",
          "type": "uint256"
        },
        {
          "internalType": "uint256",
          "name": "doubleDamageChance",
          "type": "uint256"
        },
        {
          "internalType": "uint256",
          "name": "ignoreOpponentDefenseChance",
          "type": "uint256"
        },
        {
          "internalType": "uint256",
          "name": "doubleOptionChance",
          "type": "uint256"
        }
      ],
      "stateMutability": "view",
      "type": "function",
      "constant": true
    },
    {
      "inputs": [
        {
          "components": [
            {
              "internalType": "string",
              "name": "name",
              "type": "string"
            },
            {
              "internalType": "uint256",
              "name": "tokenId",
              "type": "uint256"
            },
            {
              "internalType": "uint256",
              "name": "itemLevel",
              "type": "uint256"
            },
            {
              "internalType": "uint256",
              "name": "maxLevel",
              "type": "uint256"
            },
            {
              "internalType": "uint256",
              "name": "durability",
              "type": "uint256"
            },
            {
              "internalType": "uint256",
              "name": "classRequired",
              "type": "uint256"
            },
            {
              "internalType": "uint256",
              "name": "strengthRequired",
              "type": "uint256"
            },
            {
              "internalType": "uint256",
              "name": "agilityRequired",
              "type": "uint256"
            },
            {
              "internalType": "uint256",
              "name": "energyRequired",
              "type": "uint256"
            },
            {
              "internalType": "uint256",
              "name": "vitalityRequired",
              "type": "uint256"
            },
            {
              "internalType": "uint256",
              "name": "itemWidth",
              "type": "uint256"
            },
            {
              "internalType": "uint256",
              "name": "itemHeight",
              "type": "uint256"
            },
            {
              "internalType": "uint256",
              "name": "acceptableSlot1",
              "type": "uint256"
            },
            {
              "internalType": "uint256",
              "name": "acceptableSlot2",
              "type": "uint256"
            },
            {
              "internalType": "uint256",
              "name": "baseMinPhysicalDamage",
              "type": "uint256"
            },
            {
              "internalType": "uint256",
              "name": "baseMaxPhysicalDamage",
              "type": "uint256"
            },
            {
              "internalType": "uint256",
              "name": "baseMinMagicDamage",
              "type": "uint256"
            },
            {
              "internalType": "uint256",
              "name": "baseMaxMagicDamage",
              "type": "uint256"
            },
            {
              "internalType": "uint256",
              "name": "baseDefense",
              "type": "uint256"
            },
            {
              "internalType": "uint256",
              "name": "attackSpeed",
              "type": "uint256"
            },
            {
              "internalType": "uint256",
              "name": "additionalDamage",
              "type": "uint256"
            },
            {
              "internalType": "uint256",
              "name": "additionalDefense",
              "type": "uint256"
            },
            {
              "internalType": "uint256",
              "name": "fighterId",
              "type": "uint256"
            },
            {
              "internalType": "uint256",
              "name": "lastUpdBlock",
              "type": "uint256"
            },
            {
              "internalType": "uint256",
              "name": "itemRarityLevel",
              "type": "uint256"
            },
            {
              "internalType": "uint256",
              "name": "itemAttributesId",
              "type": "uint256"
            },
            {
              "internalType": "bool",
              "name": "luck",
              "type": "bool"
            },
            {
              "internalType": "bool",
              "name": "skill",
              "type": "bool"
            },
            {
              "internalType": "bool",
              "name": "isBox",
              "type": "bool"
            },
            {
              "internalType": "bool",
              "name": "isWeapon",
              "type": "bool"
            },
            {
              "internalType": "bool",
              "name": "isArmour",
              "type": "bool"
            },
            {
              "internalType": "bool",
              "name": "isJewel",
              "type": "bool"
            },
            {
              "internalType": "bool",
              "name": "isWings",
              "type": "bool"
            },
            {
              "internalType": "bool",
              "name": "isMisc",
              "type": "bool"
            },
            {
              "internalType": "bool",
              "name": "inShop",
              "type": "bool"
            }
          ],
          "internalType": "struct ItemsAtts.ItemAttributes",
          "name": "item",
          "type": "tuple"
        }
      ],
      "name": "convertToExcellent",
      "outputs": [
        {
          "components": [
            {
              "internalType": "string",
              "name": "name",
              "type": "string"
            },
            {
              "internalType": "uint256",
              "name": "tokenId",
              "type": "uint256"
            },
            {
              "internalType": "uint256",
              "name": "itemLevel",
              "type": "uint256"
            },
            {
              "internalType": "uint256",
              "name": "maxLevel",
              "type": "uint256"
            },
            {
              "internalType": "uint256",
              "name": "durability",
              "type": "uint256"
            },
            {
              "internalType": "uint256",
              "name": "classRequired",
              "type": "uint256"
            },
            {
              "internalType": "uint256",
              "name": "strengthRequired",
              "type": "uint256"
            },
            {
              "internalType": "uint256",
              "name": "agilityRequired",
              "type": "uint256"
            },
            {
              "internalType": "uint256",
              "name": "energyRequired",
              "type": "uint256"
            },
            {
              "internalType": "uint256",
              "name": "vitalityRequired",
              "type": "uint256"
            },
            {
              "internalType": "uint256",
              "name": "itemWidth",
              "type": "uint256"
            },
            {
              "internalType": "uint256",
              "name": "itemHeight",
              "type": "uint256"
            },
            {
              "internalType": "uint256",
              "name": "acceptableSlot1",
              "type": "uint256"
            },
            {
              "internalType": "uint256",
              "name": "acceptableSlot2",
              "type": "uint256"
            },
            {
              "internalType": "uint256",
              "name": "baseMinPhysicalDamage",
              "type": "uint256"
            },
            {
              "internalType": "uint256",
              "name": "baseMaxPhysicalDamage",
              "type": "uint256"
            },
            {
              "internalType": "uint256",
              "name": "baseMinMagicDamage",
              "type": "uint256"
            },
            {
              "internalType": "uint256",
              "name": "baseMaxMagicDamage",
              "type": "uint256"
            },
            {
              "internalType": "uint256",
              "name": "baseDefense",
              "type": "uint256"
            },
            {
              "internalType": "uint256",
              "name": "attackSpeed",
              "type": "uint256"
            },
            {
              "internalType": "uint256",
              "name": "additionalDamage",
              "type": "uint256"
            },
            {
              "internalType": "uint256",
              "name": "additionalDefense",
              "type": "uint256"
            },
            {
              "internalType": "uint256",
              "name": "fighterId",
              "type": "uint256"
            },
            {
              "internalType": "uint256",
              "name": "lastUpdBlock",
              "type": "uint256"
            },
            {
              "internalType": "uint256",
              "name": "itemRarityLevel",
              "type": "uint256"
            },
            {
              "internalType": "uint256",
              "name": "itemAttributesId",
              "type": "uint256"
            },
            {
              "internalType": "bool",
              "name": "luck",
              "type": "bool"
            },
            {
              "internalType": "bool",
              "name": "skill",
              "type": "bool"
            },
            {
              "internalType": "bool",
              "name": "isBox",
              "type": "bool"
            },
            {
              "internalType": "bool",
              "name": "isWeapon",
              "type": "bool"
            },
            {
              "internalType": "bool",
              "name": "isArmour",
              "type": "bool"
            },
            {
              "internalType": "bool",
              "name": "isJewel",
              "type": "bool"
            },
            {
              "internalType": "bool",
              "name": "isWings",
              "type": "bool"
            },
            {
              "internalType": "bool",
              "name": "isMisc",
              "type": "bool"
            },
            {
              "internalType": "bool",
              "name": "inShop",
              "type": "bool"
            },
            {
              "internalType": "uint256",
              "name": "increaseAttackSpeedPoints",
              "type": "uint256"
            },
            {
              "internalType": "uint256",
              "name": "reflectDamagePercent",
              "type": "uint256"
            },
            {
              "internalType": "uint256",
              "name": "restoreHPChance",
              "type": "uint256"
            },
            {
              "internalType": "uint256",
              "name": "restoreMPChance",
              "type": "uint256"
            },
            {
              "internalType": "uint256",
              "name": "doubleDamageChance",
              "type": "uint256"
            },
            {
              "internalType": "uint256",
              "name": "ignoreOpponentDefenseChance",
              "type": "uint256"
            },
            {
              "internalType": "uint256",
              "name": "lifeAfterMonsterIncrease",
              "type": "uint256"
            },
            {
              "internalType": "uint256",
              "name": "manaAfterMonsterIncrease",
              "type": "uint256"
            },
            {
              "internalType": "uint256",
              "name": "excellentDamageProbabilityIncrease",
              "type": "uint256"
            },
            {
              "internalType": "uint256",
              "name": "attackSpeedIncrease",
              "type": "uint256"
            },
            {
              "internalType": "uint256",
              "name": "attackLvl20",
              "type": "uint256"
            },
            {
              "internalType": "uint256",
              "name": "attackIncreasePercent",
              "type": "uint256"
            },
            {
              "internalType": "uint256",
              "name": "defenseSuccessRateIncrease",
              "type": "uint256"
            },
            {
              "internalType": "uint256",
              "name": "goldAfterMonsterIncrease",
              "type": "uint256"
            },
            {
              "internalType": "uint256",
              "name": "reflectDamage",
              "type": "uint256"
            },
            {
              "internalType": "uint256",
              "name": "maxLifeIncrease",
              "type": "uint256"
            },
            {
              "internalType": "uint256",
              "name": "maxManaIncrease",
              "type": "uint256"
            },
            {
              "internalType": "uint256",
              "name": "hpRecoveryRateIncrease",
              "type": "uint256"
            },
            {
              "internalType": "uint256",
              "name": "mpRecoveryRateIncrease",
              "type": "uint256"
            },
            {
              "internalType": "uint256",
              "name": "decreaseDamageRateIncrease",
              "type": "uint256"
            }
          ],
          "internalType": "struct ItemsExcellentAtts.ExcellentItemAtts",
          "name": "",
          "type": "tuple"
        }
      ],
      "stateMutability": "view",
      "type": "function",
      "constant": true
    },
    {
      "inputs": [
        {
          "internalType": "uint256",
          "name": "itemId",
          "type": "uint256"
        }
      ],
      "name": "getItemAttributes",
      "outputs": [
        {
          "components": [
            {
              "internalType": "string",
              "name": "name",
              "type": "string"
            },
            {
              "internalType": "uint256",
              "name": "tokenId",
              "type": "uint256"
            },
            {
              "internalType": "uint256",
              "name": "itemLevel",
              "type": "uint256"
            },
            {
              "internalType": "uint256",
              "name": "maxLevel",
              "type": "uint256"
            },
            {
              "internalType": "uint256",
              "name": "durability",
              "type": "uint256"
            },
            {
              "internalType": "uint256",
              "name": "classRequired",
              "type": "uint256"
            },
            {
              "internalType": "uint256",
              "name": "strengthRequired",
              "type": "uint256"
            },
            {
              "internalType": "uint256",
              "name": "agilityRequired",
              "type": "uint256"
            },
            {
              "internalType": "uint256",
              "name": "energyRequired",
              "type": "uint256"
            },
            {
              "internalType": "uint256",
              "name": "vitalityRequired",
              "type": "uint256"
            },
            {
              "internalType": "uint256",
              "name": "itemWidth",
              "type": "uint256"
            },
            {
              "internalType": "uint256",
              "name": "itemHeight",
              "type": "uint256"
            },
            {
              "internalType": "uint256",
              "name": "acceptableSlot1",
              "type": "uint256"
            },
            {
              "internalType": "uint256",
              "name": "acceptableSlot2",
              "type": "uint256"
            },
            {
              "internalType": "uint256",
              "name": "baseMinPhysicalDamage",
              "type": "uint256"
            },
            {
              "internalType": "uint256",
              "name": "baseMaxPhysicalDamage",
              "type": "uint256"
            },
            {
              "internalType": "uint256",
              "name": "baseMinMagicDamage",
              "type": "uint256"
            },
            {
              "internalType": "uint256",
              "name": "baseMaxMagicDamage",
              "type": "uint256"
            },
            {
              "internalType": "uint256",
              "name": "baseDefense",
              "type": "uint256"
            },
            {
              "internalType": "uint256",
              "name": "attackSpeed",
              "type": "uint256"
            },
            {
              "internalType": "uint256",
              "name": "additionalDamage",
              "type": "uint256"
            },
            {
              "internalType": "uint256",
              "name": "additionalDefense",
              "type": "uint256"
            },
            {
              "internalType": "uint256",
              "name": "fighterId",
              "type": "uint256"
            },
            {
              "internalType": "uint256",
              "name": "lastUpdBlock",
              "type": "uint256"
            },
            {
              "internalType": "uint256",
              "name": "itemRarityLevel",
              "type": "uint256"
            },
            {
              "internalType": "uint256",
              "name": "itemAttributesId",
              "type": "uint256"
            },
            {
              "internalType": "bool",
              "name": "luck",
              "type": "bool"
            },
            {
              "internalType": "bool",
              "name": "skill",
              "type": "bool"
            },
            {
              "internalType": "bool",
              "name": "isBox",
              "type": "bool"
            },
            {
              "internalType": "bool",
              "name": "isWeapon",
              "type": "bool"
            },
            {
              "internalType": "bool",
              "name": "isArmour",
              "type": "bool"
            },
            {
              "internalType": "bool",
              "name": "isJewel",
              "type": "bool"
            },
            {
              "internalType": "bool",
              "name": "isWings",
              "type": "bool"
            },
            {
              "internalType": "bool",
              "name": "isMisc",
              "type": "bool"
            },
            {
              "internalType": "bool",
              "name": "inShop",
              "type": "bool"
            },
            {
              "internalType": "uint256",
              "name": "increaseAttackSpeedPoints",
              "type": "uint256"
            },
            {
              "internalType": "uint256",
              "name": "reflectDamagePercent",
              "type": "uint256"
            },
            {
              "internalType": "uint256",
              "name": "restoreHPChance",
              "type": "uint256"
            },
            {
              "internalType": "uint256",
              "name": "restoreMPChance",
              "type": "uint256"
            },
            {
              "internalType": "uint256",
              "name": "doubleDamageChance",
              "type": "uint256"
            },
            {
              "internalType": "uint256",
              "name": "ignoreOpponentDefenseChance",
              "type": "uint256"
            },
            {
              "internalType": "uint256",
              "name": "lifeAfterMonsterIncrease",
              "type": "uint256"
            },
            {
              "internalType": "uint256",
              "name": "manaAfterMonsterIncrease",
              "type": "uint256"
            },
            {
              "internalType": "uint256",
              "name": "excellentDamageProbabilityIncrease",
              "type": "uint256"
            },
            {
              "internalType": "uint256",
              "name": "attackSpeedIncrease",
              "type": "uint256"
            },
            {
              "internalType": "uint256",
              "name": "attackLvl20",
              "type": "uint256"
            },
            {
              "internalType": "uint256",
              "name": "attackIncreasePercent",
              "type": "uint256"
            },
            {
              "internalType": "uint256",
              "name": "defenseSuccessRateIncrease",
              "type": "uint256"
            },
            {
              "internalType": "uint256",
              "name": "goldAfterMonsterIncrease",
              "type": "uint256"
            },
            {
              "internalType": "uint256",
              "name": "reflectDamage",
              "type": "uint256"
            },
            {
              "internalType": "uint256",
              "name": "maxLifeIncrease",
              "type": "uint256"
            },
            {
              "internalType": "uint256",
              "name": "maxManaIncrease",
              "type": "uint256"
            },
            {
              "internalType": "uint256",
              "name": "hpRecoveryRateIncrease",
              "type": "uint256"
            },
            {
              "internalType": "uint256",
              "name": "mpRecoveryRateIncrease",
              "type": "uint256"
            },
            {
              "internalType": "uint256",
              "name": "decreaseDamageRateIncrease",
              "type": "uint256"
            }
          ],
          "internalType": "struct ItemsExcellentAtts.ExcellentItemAtts",
          "name": "",
          "type": "tuple"
        }
      ],
      "stateMutability": "nonpayable",
      "type": "function"
    },
    {
      "inputs": [
        {
          "internalType": "uint256",
          "name": "tokenId",
          "type": "uint256"
        }
      ],
      "name": "getTokenAttributes",
      "outputs": [
        {
          "components": [
            {
              "internalType": "string",
              "name": "name",
              "type": "string"
            },
            {
              "internalType": "uint256",
              "name": "tokenId",
              "type": "uint256"
            },
            {
              "internalType": "uint256",
              "name": "itemLevel",
              "type": "uint256"
            },
            {
              "internalType": "uint256",
              "name": "maxLevel",
              "type": "uint256"
            },
            {
              "internalType": "uint256",
              "name": "durability",
              "type": "uint256"
            },
            {
              "internalType": "uint256",
              "name": "classRequired",
              "type": "uint256"
            },
            {
              "internalType": "uint256",
              "name": "strengthRequired",
              "type": "uint256"
            },
            {
              "internalType": "uint256",
              "name": "agilityRequired",
              "type": "uint256"
            },
            {
              "internalType": "uint256",
              "name": "energyRequired",
              "type": "uint256"
            },
            {
              "internalType": "uint256",
              "name": "vitalityRequired",
              "type": "uint256"
            },
            {
              "internalType": "uint256",
              "name": "itemWidth",
              "type": "uint256"
            },
            {
              "internalType": "uint256",
              "name": "itemHeight",
              "type": "uint256"
            },
            {
              "internalType": "uint256",
              "name": "acceptableSlot1",
              "type": "uint256"
            },
            {
              "internalType": "uint256",
              "name": "acceptableSlot2",
              "type": "uint256"
            },
            {
              "internalType": "uint256",
              "name": "baseMinPhysicalDamage",
              "type": "uint256"
            },
            {
              "internalType": "uint256",
              "name": "baseMaxPhysicalDamage",
              "type": "uint256"
            },
            {
              "internalType": "uint256",
              "name": "baseMinMagicDamage",
              "type": "uint256"
            },
            {
              "internalType": "uint256",
              "name": "baseMaxMagicDamage",
              "type": "uint256"
            },
            {
              "internalType": "uint256",
              "name": "baseDefense",
              "type": "uint256"
            },
            {
              "internalType": "uint256",
              "name": "attackSpeed",
              "type": "uint256"
            },
            {
              "internalType": "uint256",
              "name": "additionalDamage",
              "type": "uint256"
            },
            {
              "internalType": "uint256",
              "name": "additionalDefense",
              "type": "uint256"
            },
            {
              "internalType": "uint256",
              "name": "fighterId",
              "type": "uint256"
            },
            {
              "internalType": "uint256",
              "name": "lastUpdBlock",
              "type": "uint256"
            },
            {
              "internalType": "uint256",
              "name": "itemRarityLevel",
              "type": "uint256"
            },
            {
              "internalType": "uint256",
              "name": "itemAttributesId",
              "type": "uint256"
            },
            {
              "internalType": "bool",
              "name": "luck",
              "type": "bool"
            },
            {
              "internalType": "bool",
              "name": "skill",
              "type": "bool"
            },
            {
              "internalType": "bool",
              "name": "isBox",
              "type": "bool"
            },
            {
              "internalType": "bool",
              "name": "isWeapon",
              "type": "bool"
            },
            {
              "internalType": "bool",
              "name": "isArmour",
              "type": "bool"
            },
            {
              "internalType": "bool",
              "name": "isJewel",
              "type": "bool"
            },
            {
              "internalType": "bool",
              "name": "isWings",
              "type": "bool"
            },
            {
              "internalType": "bool",
              "name": "isMisc",
              "type": "bool"
            },
            {
              "internalType": "bool",
              "name": "inShop",
              "type": "bool"
            },
            {
              "internalType": "uint256",
              "name": "increaseAttackSpeedPoints",
              "type": "uint256"
            },
            {
              "internalType": "uint256",
              "name": "reflectDamagePercent",
              "type": "uint256"
            },
            {
              "internalType": "uint256",
              "name": "restoreHPChance",
              "type": "uint256"
            },
            {
              "internalType": "uint256",
              "name": "restoreMPChance",
              "type": "uint256"
            },
            {
              "internalType": "uint256",
              "name": "doubleDamageChance",
              "type": "uint256"
            },
            {
              "internalType": "uint256",
              "name": "ignoreOpponentDefenseChance",
              "type": "uint256"
            },
            {
              "internalType": "uint256",
              "name": "lifeAfterMonsterIncrease",
              "type": "uint256"
            },
            {
              "internalType": "uint256",
              "name": "manaAfterMonsterIncrease",
              "type": "uint256"
            },
            {
              "internalType": "uint256",
              "name": "excellentDamageProbabilityIncrease",
              "type": "uint256"
            },
            {
              "internalType": "uint256",
              "name": "attackSpeedIncrease",
              "type": "uint256"
            },
            {
              "internalType": "uint256",
              "name": "attackLvl20",
              "type": "uint256"
            },
            {
              "internalType": "uint256",
              "name": "attackIncreasePercent",
              "type": "uint256"
            },
            {
              "internalType": "uint256",
              "name": "defenseSuccessRateIncrease",
              "type": "uint256"
            },
            {
              "internalType": "uint256",
              "name": "goldAfterMonsterIncrease",
              "type": "uint256"
            },
            {
              "internalType": "uint256",
              "name": "reflectDamage",
              "type": "uint256"
            },
            {
              "internalType": "uint256",
              "name": "maxLifeIncrease",
              "type": "uint256"
            },
            {
              "internalType": "uint256",
              "name": "maxManaIncrease",
              "type": "uint256"
            },
            {
              "internalType": "uint256",
              "name": "hpRecoveryRateIncrease",
              "type": "uint256"
            },
            {
              "internalType": "uint256",
              "name": "mpRecoveryRateIncrease",
              "type": "uint256"
            },
            {
              "internalType": "uint256",
              "name": "decreaseDamageRateIncrease",
              "type": "uint256"
            }
          ],
          "internalType": "struct ItemsExcellentAtts.ExcellentItemAtts",
          "name": "",
          "type": "tuple"
        }
      ],
      "stateMutability": "nonpayable",
      "type": "function"
    },
    {
      "inputs": [
        {
          "internalType": "uint256",
          "name": "tokenId",
          "type": "uint256"
        },
        {
          "components": [
            {
              "internalType": "string",
              "name": "name",
              "type": "string"
            },
            {
              "internalType": "uint256",
              "name": "tokenId",
              "type": "uint256"
            },
            {
              "internalType": "uint256",
              "name": "itemLevel",
              "type": "uint256"
            },
            {
              "internalType": "uint256",
              "name": "maxLevel",
              "type": "uint256"
            },
            {
              "internalType": "uint256",
              "name": "durability",
              "type": "uint256"
            },
            {
              "internalType": "uint256",
              "name": "classRequired",
              "type": "uint256"
            },
            {
              "internalType": "uint256",
              "name": "strengthRequired",
              "type": "uint256"
            },
            {
              "internalType": "uint256",
              "name": "agilityRequired",
              "type": "uint256"
            },
            {
              "internalType": "uint256",
              "name": "energyRequired",
              "type": "uint256"
            },
            {
              "internalType": "uint256",
              "name": "vitalityRequired",
              "type": "uint256"
            },
            {
              "internalType": "uint256",
              "name": "itemWidth",
              "type": "uint256"
            },
            {
              "internalType": "uint256",
              "name": "itemHeight",
              "type": "uint256"
            },
            {
              "internalType": "uint256",
              "name": "acceptableSlot1",
              "type": "uint256"
            },
            {
              "internalType": "uint256",
              "name": "acceptableSlot2",
              "type": "uint256"
            },
            {
              "internalType": "uint256",
              "name": "baseMinPhysicalDamage",
              "type": "uint256"
            },
            {
              "internalType": "uint256",
              "name": "baseMaxPhysicalDamage",
              "type": "uint256"
            },
            {
              "internalType": "uint256",
              "name": "baseMinMagicDamage",
              "type": "uint256"
            },
            {
              "internalType": "uint256",
              "name": "baseMaxMagicDamage",
              "type": "uint256"
            },
            {
              "internalType": "uint256",
              "name": "baseDefense",
              "type": "uint256"
            },
            {
              "internalType": "uint256",
              "name": "attackSpeed",
              "type": "uint256"
            },
            {
              "internalType": "uint256",
              "name": "additionalDamage",
              "type": "uint256"
            },
            {
              "internalType": "uint256",
              "name": "additionalDefense",
              "type": "uint256"
            },
            {
              "internalType": "uint256",
              "name": "fighterId",
              "type": "uint256"
            },
            {
              "internalType": "uint256",
              "name": "lastUpdBlock",
              "type": "uint256"
            },
            {
              "internalType": "uint256",
              "name": "itemRarityLevel",
              "type": "uint256"
            },
            {
              "internalType": "uint256",
              "name": "itemAttributesId",
              "type": "uint256"
            },
            {
              "internalType": "bool",
              "name": "luck",
              "type": "bool"
            },
            {
              "internalType": "bool",
              "name": "skill",
              "type": "bool"
            },
            {
              "internalType": "bool",
              "name": "isBox",
              "type": "bool"
            },
            {
              "internalType": "bool",
              "name": "isWeapon",
              "type": "bool"
            },
            {
              "internalType": "bool",
              "name": "isArmour",
              "type": "bool"
            },
            {
              "internalType": "bool",
              "name": "isJewel",
              "type": "bool"
            },
            {
              "internalType": "bool",
              "name": "isWings",
              "type": "bool"
            },
            {
              "internalType": "bool",
              "name": "isMisc",
              "type": "bool"
            },
            {
              "internalType": "bool",
              "name": "inShop",
              "type": "bool"
            },
            {
              "internalType": "uint256",
              "name": "increaseAttackSpeedPoints",
              "type": "uint256"
            },
            {
              "internalType": "uint256",
              "name": "reflectDamagePercent",
              "type": "uint256"
            },
            {
              "internalType": "uint256",
              "name": "restoreHPChance",
              "type": "uint256"
            },
            {
              "internalType": "uint256",
              "name": "restoreMPChance",
              "type": "uint256"
            },
            {
              "internalType": "uint256",
              "name": "doubleDamageChance",
              "type": "uint256"
            },
            {
              "internalType": "uint256",
              "name": "ignoreOpponentDefenseChance",
              "type": "uint256"
            },
            {
              "internalType": "uint256",
              "name": "lifeAfterMonsterIncrease",
              "type": "uint256"
            },
            {
              "internalType": "uint256",
              "name": "manaAfterMonsterIncrease",
              "type": "uint256"
            },
            {
              "internalType": "uint256",
              "name": "excellentDamageProbabilityIncrease",
              "type": "uint256"
            },
            {
              "internalType": "uint256",
              "name": "attackSpeedIncrease",
              "type": "uint256"
            },
            {
              "internalType": "uint256",
              "name": "attackLvl20",
              "type": "uint256"
            },
            {
              "internalType": "uint256",
              "name": "attackIncreasePercent",
              "type": "uint256"
            },
            {
              "internalType": "uint256",
              "name": "defenseSuccessRateIncrease",
              "type": "uint256"
            },
            {
              "internalType": "uint256",
              "name": "goldAfterMonsterIncrease",
              "type": "uint256"
            },
            {
              "internalType": "uint256",
              "name": "reflectDamage",
              "type": "uint256"
            },
            {
              "internalType": "uint256",
              "name": "maxLifeIncrease",
              "type": "uint256"
            },
            {
              "internalType": "uint256",
              "name": "maxManaIncrease",
              "type": "uint256"
            },
            {
              "internalType": "uint256",
              "name": "hpRecoveryRateIncrease",
              "type": "uint256"
            },
            {
              "internalType": "uint256",
              "name": "mpRecoveryRateIncrease",
              "type": "uint256"
            },
            {
              "internalType": "uint256",
              "name": "decreaseDamageRateIncrease",
              "type": "uint256"
            }
          ],
          "internalType": "struct ItemsExcellentAtts.ExcellentItemAtts",
          "name": "atts",
          "type": "tuple"
        }
      ],
      "name": "setTokenAttributes",
      "outputs": [],
      "stateMutability": "nonpayable",
      "type": "function"
    },
    {
      "inputs": [
        {
          "components": [
            {
              "internalType": "string",
              "name": "name",
              "type": "string"
            },
            {
              "internalType": "uint256",
              "name": "tokenId",
              "type": "uint256"
            },
            {
              "internalType": "uint256",
              "name": "itemLevel",
              "type": "uint256"
            },
            {
              "internalType": "uint256",
              "name": "maxLevel",
              "type": "uint256"
            },
            {
              "internalType": "uint256",
              "name": "durability",
              "type": "uint256"
            },
            {
              "internalType": "uint256",
              "name": "classRequired",
              "type": "uint256"
            },
            {
              "internalType": "uint256",
              "name": "strengthRequired",
              "type": "uint256"
            },
            {
              "internalType": "uint256",
              "name": "agilityRequired",
              "type": "uint256"
            },
            {
              "internalType": "uint256",
              "name": "energyRequired",
              "type": "uint256"
            },
            {
              "internalType": "uint256",
              "name": "vitalityRequired",
              "type": "uint256"
            },
            {
              "internalType": "uint256",
              "name": "itemWidth",
              "type": "uint256"
            },
            {
              "internalType": "uint256",
              "name": "itemHeight",
              "type": "uint256"
            },
            {
              "internalType": "uint256",
              "name": "acceptableSlot1",
              "type": "uint256"
            },
            {
              "internalType": "uint256",
              "name": "acceptableSlot2",
              "type": "uint256"
            },
            {
              "internalType": "uint256",
              "name": "baseMinPhysicalDamage",
              "type": "uint256"
            },
            {
              "internalType": "uint256",
              "name": "baseMaxPhysicalDamage",
              "type": "uint256"
            },
            {
              "internalType": "uint256",
              "name": "baseMinMagicDamage",
              "type": "uint256"
            },
            {
              "internalType": "uint256",
              "name": "baseMaxMagicDamage",
              "type": "uint256"
            },
            {
              "internalType": "uint256",
              "name": "baseDefense",
              "type": "uint256"
            },
            {
              "internalType": "uint256",
              "name": "attackSpeed",
              "type": "uint256"
            },
            {
              "internalType": "uint256",
              "name": "additionalDamage",
              "type": "uint256"
            },
            {
              "internalType": "uint256",
              "name": "additionalDefense",
              "type": "uint256"
            },
            {
              "internalType": "uint256",
              "name": "fighterId",
              "type": "uint256"
            },
            {
              "internalType": "uint256",
              "name": "lastUpdBlock",
              "type": "uint256"
            },
            {
              "internalType": "uint256",
              "name": "itemRarityLevel",
              "type": "uint256"
            },
            {
              "internalType": "uint256",
              "name": "itemAttributesId",
              "type": "uint256"
            },
            {
              "internalType": "bool",
              "name": "luck",
              "type": "bool"
            },
            {
              "internalType": "bool",
              "name": "skill",
              "type": "bool"
            },
            {
              "internalType": "bool",
              "name": "isBox",
              "type": "bool"
            },
            {
              "internalType": "bool",
              "name": "isWeapon",
              "type": "bool"
            },
            {
              "internalType": "bool",
              "name": "isArmour",
              "type": "bool"
            },
            {
              "internalType": "bool",
              "name": "isJewel",
              "type": "bool"
            },
            {
              "internalType": "bool",
              "name": "isWings",
              "type": "bool"
            },
            {
              "internalType": "bool",
              "name": "isMisc",
              "type": "bool"
            },
            {
              "internalType": "bool",
              "name": "inShop",
              "type": "bool"
            },
            {
              "internalType": "uint256",
              "name": "increaseAttackSpeedPoints",
              "type": "uint256"
            },
            {
              "internalType": "uint256",
              "name": "reflectDamagePercent",
              "type": "uint256"
            },
            {
              "internalType": "uint256",
              "name": "restoreHPChance",
              "type": "uint256"
            },
            {
              "internalType": "uint256",
              "name": "restoreMPChance",
              "type": "uint256"
            },
            {
              "internalType": "uint256",
              "name": "doubleDamageChance",
              "type": "uint256"
            },
            {
              "internalType": "uint256",
              "name": "ignoreOpponentDefenseChance",
              "type": "uint256"
            },
            {
              "internalType": "uint256",
              "name": "lifeAfterMonsterIncrease",
              "type": "uint256"
            },
            {
              "internalType": "uint256",
              "name": "manaAfterMonsterIncrease",
              "type": "uint256"
            },
            {
              "internalType": "uint256",
              "name": "excellentDamageProbabilityIncrease",
              "type": "uint256"
            },
            {
              "internalType": "uint256",
              "name": "attackSpeedIncrease",
              "type": "uint256"
            },
            {
              "internalType": "uint256",
              "name": "attackLvl20",
              "type": "uint256"
            },
            {
              "internalType": "uint256",
              "name": "attackIncreasePercent",
              "type": "uint256"
            },
            {
              "internalType": "uint256",
              "name": "defenseSuccessRateIncrease",
              "type": "uint256"
            },
            {
              "internalType": "uint256",
              "name": "goldAfterMonsterIncrease",
              "type": "uint256"
            },
            {
              "internalType": "uint256",
              "name": "reflectDamage",
              "type": "uint256"
            },
            {
              "internalType": "uint256",
              "name": "maxLifeIncrease",
              "type": "uint256"
            },
            {
              "internalType": "uint256",
              "name": "maxManaIncrease",
              "type": "uint256"
            },
            {
              "internalType": "uint256",
              "name": "hpRecoveryRateIncrease",
              "type": "uint256"
            },
            {
              "internalType": "uint256",
              "name": "mpRecoveryRateIncrease",
              "type": "uint256"
            },
            {
              "internalType": "uint256",
              "name": "decreaseDamageRateIncrease",
              "type": "uint256"
            }
          ],
          "internalType": "struct ItemsExcellentAtts.ExcellentItemAtts",
          "name": "excItem",
          "type": "tuple"
        }
      ],
      "name": "addExcellentOption",
      "outputs": [
        {
          "components": [
            {
              "internalType": "string",
              "name": "name",
              "type": "string"
            },
            {
              "internalType": "uint256",
              "name": "tokenId",
              "type": "uint256"
            },
            {
              "internalType": "uint256",
              "name": "itemLevel",
              "type": "uint256"
            },
            {
              "internalType": "uint256",
              "name": "maxLevel",
              "type": "uint256"
            },
            {
              "internalType": "uint256",
              "name": "durability",
              "type": "uint256"
            },
            {
              "internalType": "uint256",
              "name": "classRequired",
              "type": "uint256"
            },
            {
              "internalType": "uint256",
              "name": "strengthRequired",
              "type": "uint256"
            },
            {
              "internalType": "uint256",
              "name": "agilityRequired",
              "type": "uint256"
            },
            {
              "internalType": "uint256",
              "name": "energyRequired",
              "type": "uint256"
            },
            {
              "internalType": "uint256",
              "name": "vitalityRequired",
              "type": "uint256"
            },
            {
              "internalType": "uint256",
              "name": "itemWidth",
              "type": "uint256"
            },
            {
              "internalType": "uint256",
              "name": "itemHeight",
              "type": "uint256"
            },
            {
              "internalType": "uint256",
              "name": "acceptableSlot1",
              "type": "uint256"
            },
            {
              "internalType": "uint256",
              "name": "acceptableSlot2",
              "type": "uint256"
            },
            {
              "internalType": "uint256",
              "name": "baseMinPhysicalDamage",
              "type": "uint256"
            },
            {
              "internalType": "uint256",
              "name": "baseMaxPhysicalDamage",
              "type": "uint256"
            },
            {
              "internalType": "uint256",
              "name": "baseMinMagicDamage",
              "type": "uint256"
            },
            {
              "internalType": "uint256",
              "name": "baseMaxMagicDamage",
              "type": "uint256"
            },
            {
              "internalType": "uint256",
              "name": "baseDefense",
              "type": "uint256"
            },
            {
              "internalType": "uint256",
              "name": "attackSpeed",
              "type": "uint256"
            },
            {
              "internalType": "uint256",
              "name": "additionalDamage",
              "type": "uint256"
            },
            {
              "internalType": "uint256",
              "name": "additionalDefense",
              "type": "uint256"
            },
            {
              "internalType": "uint256",
              "name": "fighterId",
              "type": "uint256"
            },
            {
              "internalType": "uint256",
              "name": "lastUpdBlock",
              "type": "uint256"
            },
            {
              "internalType": "uint256",
              "name": "itemRarityLevel",
              "type": "uint256"
            },
            {
              "internalType": "uint256",
              "name": "itemAttributesId",
              "type": "uint256"
            },
            {
              "internalType": "bool",
              "name": "luck",
              "type": "bool"
            },
            {
              "internalType": "bool",
              "name": "skill",
              "type": "bool"
            },
            {
              "internalType": "bool",
              "name": "isBox",
              "type": "bool"
            },
            {
              "internalType": "bool",
              "name": "isWeapon",
              "type": "bool"
            },
            {
              "internalType": "bool",
              "name": "isArmour",
              "type": "bool"
            },
            {
              "internalType": "bool",
              "name": "isJewel",
              "type": "bool"
            },
            {
              "internalType": "bool",
              "name": "isWings",
              "type": "bool"
            },
            {
              "internalType": "bool",
              "name": "isMisc",
              "type": "bool"
            },
            {
              "internalType": "bool",
              "name": "inShop",
              "type": "bool"
            },
            {
              "internalType": "uint256",
              "name": "increaseAttackSpeedPoints",
              "type": "uint256"
            },
            {
              "internalType": "uint256",
              "name": "reflectDamagePercent",
              "type": "uint256"
            },
            {
              "internalType": "uint256",
              "name": "restoreHPChance",
              "type": "uint256"
            },
            {
              "internalType": "uint256",
              "name": "restoreMPChance",
              "type": "uint256"
            },
            {
              "internalType": "uint256",
              "name": "doubleDamageChance",
              "type": "uint256"
            },
            {
              "internalType": "uint256",
              "name": "ignoreOpponentDefenseChance",
              "type": "uint256"
            },
            {
              "internalType": "uint256",
              "name": "lifeAfterMonsterIncrease",
              "type": "uint256"
            },
            {
              "internalType": "uint256",
              "name": "manaAfterMonsterIncrease",
              "type": "uint256"
            },
            {
              "internalType": "uint256",
              "name": "excellentDamageProbabilityIncrease",
              "type": "uint256"
            },
            {
              "internalType": "uint256",
              "name": "attackSpeedIncrease",
              "type": "uint256"
            },
            {
              "internalType": "uint256",
              "name": "attackLvl20",
              "type": "uint256"
            },
            {
              "internalType": "uint256",
              "name": "attackIncreasePercent",
              "type": "uint256"
            },
            {
              "internalType": "uint256",
              "name": "defenseSuccessRateIncrease",
              "type": "uint256"
            },
            {
              "internalType": "uint256",
              "name": "goldAfterMonsterIncrease",
              "type": "uint256"
            },
            {
              "internalType": "uint256",
              "name": "reflectDamage",
              "type": "uint256"
            },
            {
              "internalType": "uint256",
              "name": "maxLifeIncrease",
              "type": "uint256"
            },
            {
              "internalType": "uint256",
              "name": "maxManaIncrease",
              "type": "uint256"
            },
            {
              "internalType": "uint256",
              "name": "hpRecoveryRateIncrease",
              "type": "uint256"
            },
            {
              "internalType": "uint256",
              "name": "mpRecoveryRateIncrease",
              "type": "uint256"
            },
            {
              "internalType": "uint256",
              "name": "decreaseDamageRateIncrease",
              "type": "uint256"
            }
          ],
          "internalType": "struct ItemsExcellentAtts.ExcellentItemAtts",
          "name": "newItem",
          "type": "tuple"
        }
      ],
      "stateMutability": "nonpayable",
      "type": "function"
    }
  ],
  "bytecode": "0x60646000908155601c6001818155603260028181556003918255601e60048190556005818155600692909255600793909355600894909455600f608081905260a081905260c083905260e0839052610100859052610120829052610140819052600a818155600b829055600c849055600d849055600e95909555908155601081905560236101608190526101808190526101a08590526101c08590526101e0859052610200859052610220829052601181905560125560138490556014848155601585905560168590556017919091556103606040526102408490526102608190526102808490526102a08490526102c08490526102e08490526103008490526103208490526103408290526018849055601955601a839055601b83905590829055601d829055818155601f9190915560205534801561013e57600080fd5b50604051620024433803806200244383398101604081905261015f91610184565b600980546001600160a01b0319166001600160a01b03929092169190911790556101b4565b60006020828403121561019657600080fd5b81516001600160a01b03811681146101ad57600080fd5b9392505050565b61227f80620001c46000396000f3fe608060405234801561001057600080fd5b50600436106100885760003560e01c80639088d1401161005b5780639088d1401461017c5780639b1c2e24146101fc578063a12672421461020f578063b416dad61461022457600080fd5b80631f4f5a231461008d5780636995795b146100b6578063740cf1dc146100c9578063741fe74614610169575b600080fd5b6100a061009b3660046112f7565b61026f565b6040516100ad9190611360565b60405180910390f35b6100a06100c43660046112f7565b61030a565b6101256100d73660046112f7565b60236020528060005260406000206000915090508060000154908060010154908060020154908060030154908060040154908060050154908060060154908060070154908060080154905089565b60408051998a5260208a0198909852968801959095526060870193909352608086019190915260a085015260c084015260e0830152610100820152610120016100ad565b6100a06101773660046117b9565b610396565b6101c761018a3660046112f7565b6021602052600090815260409020805460018201546002830154600384015460048501546005860154600690960154949593949293919290919087565b604080519788526020880196909652948601939093526060850191909152608084015260a083015260c082015260e0016100ad565b6100a061020a366004611cbe565b6106c5565b61022261021d366004611cf3565b61074f565b005b6101c76102323660046112f7565b6022602052600090815260409020805460018201546002830154600384015460048501546005860154600690960154949593949293919290919087565b610277611043565b600954604051631f4f5a2360e01b8152600481018490526000916001600160a01b031690631f4f5a2390602401600060405180830381865afa1580156102c1573d6000803e3d6000fd5b505050506040513d6000823e601f3d908101601f191682016040526102e99190810190611d8a565b905060006102f682610396565b90506103028185610986565b949350505050565b610312611043565b600954604051636995795b60e01b8152600481018490526000916001600160a01b031690636995795b90602401600060405180830381865afa15801561035c573d6000803e3d6000fd5b505050506040513d6000823e601f3d908101601f191682016040526103849190810190611d8a565b905061038f81610396565b9392505050565b61039e611043565b6103a6611043565b82518152602080840180518284015260408086015181850152606080870151908501526080808701519085015260a0808701519085015260c0808701519085015260e08087015190850152610100808701519085015261012080870151908501526101408087015190850152610160808701519085015261018080870151908501526101a080870151908501526101c080870151908501526101e08087015190850152610200808701519085015261022080870151908501526102408087015190850152610260808701519085015261028080870151908501526102a080870151908501526102c080870151908501526102e08087015190850152610300808701519085015261032080870151908501526103408087015115159085015261036080870151151590850152610380808701511515908501526103a0808701511515908501526103c0808701511515908501526103e0808701511515908501526104008087015115159085015261042080870151151590850152610440958601511515958401959095528051600090815260218084528682205461046086015282518252808452868220600190810154610480870152835183528185528783206002908101546104a0880152845184528286528884206003908101546104c0890152855185528387528985206004908101546104e08a0152865186529387528985206005908101546105008a01528651865260228089528b8720546105208b0152875187528089528b87208501546105408b0152875187528089528b87208401546105608b0152875187528089528b87208301546105808b0152875187528089528b87208601546105a08b01528751875288528a86208101546105c08a01528651865260238089528b8720546105e08b0152875187528089528b8720909401546106008a0152865186528388528a8620909201546106208901528551855282875289852001546106408801528451845281865288842090920154610660870152835183528085528783209091015461068086015282518252808452868220600601546106a086015291518152915292909220600701546106c08301525090565b6106cd611043565b600060408301526103a0820151156107195760016103608301526106f282600b610a8d565b601754909250610702600c610bfe565b116107155761071282600d610a8d565b91505b5090565b816103c00151156107155761072f82600e610c62565b60205490925061073f600f610bfe565b1161071557610712826010610c62565b60095460405163843bd64160e01b8152600481018490526001600160a01b039091169063843bd64190602401602060405180830381865afa158015610798573d6000803e3d6000fd5b505050506040513d601f19601f820116820180604052508101906107bc9190611fab565b6108035760405162461bcd60e51b8152602060048201526014602482015273151bdad95b88191bd95cc81b9bdd08195e1a5cdd60621b604482015260640160405180910390fd5b600061080e82610ea7565b600954604051637f773c1f60e11b81529192506001600160a01b03169063feee783e906108419086908590600401611fc8565b600060405180830381600087803b15801561085b57600080fd5b505af115801561086f573d6000803e3d6000fd5b50505050610981838361046081015160009283526021602090815260408085209283556104808401516001808501919091556104a08501516002808601919091556104c08601516003808701919091556104e087015160048088019190915561050088015160059788015561052088015160228752858a209081556105408901518186015561056089015181850155610580890151818401556105a0890151818301556105c0890151908801556105e088015160239096529390972093845561060086015191840191909155610620850151908301556106408401519482019490945561066083015193810193909355610680820151908301556106a081015160068301556106c00151600790910155565b505050565b61098e611043565b50600081815260216020908152604080832080546104608701526001808201546104808801526002808301546104a08901526003808401546104c08a01526004808501546104e08b01526005948501546105008b01528888526022875285882080546105208c0152808501546105408c0152808401546105608c0152808301546105808c0152808201546105a08c01528501546105c08b0152888852602380885295882080546105e08c0152938401546106008b0152918301546106208a01528201546106408901528101546106608801529081015461068087015260068101546106a0870152928490529052600701546106c0830152815b92915050565b610a95611043565b6000610aa083610bfe565b601654601554601454601354601254601154959650600095610ac29190612206565b610acc9190612206565b610ad69190612206565b610ae09190612206565b610aea9190612206565b90506000610af88284612227565b6011549091508111610b11576001610520870152610bf4565b601254601154610b219190612206565b8111610b34576001610540870152610bf4565b601354601254601154610b479190612206565b610b519190612206565b8111610b64576001610560870152610bf4565b601454601354601254601154610b7a9190612206565b610b849190612206565b610b8e9190612206565b8111610ba1576001610580870152610bf4565b601554601454601354601254601154610bba9190612206565b610bc49190612206565b610bce9190612206565b610bd89190612206565b8111610beb5760016105a0870152610bf4565b60016105c08701525b5093949350505050565b604080514460208201529081018290524360608083019190915242608083015233901b6bffffffffffffffffffffffff191660a0820152600090819060b40160408051601f198184030181529190528051602090910120905061038f606482612227565b610c6a611043565b6000610c7583610bfe565b601f54601e54601d54601c54601b54601a54601954601854979850600097610c9d9190612206565b610ca79190612206565b610cb19190612206565b610cbb9190612206565b610cc59190612206565b610ccf9190612206565b610cd99190612206565b90506000610ce78284612227565b6018549091508111610d005760016105e0870152610bf4565b601954601854610d109190612206565b8111610d23576001610600870152610bf4565b601a54601954601854610d369190612206565b610d409190612206565b8111610d53576001610620870152610bf4565b601b54601a54601954601854610d699190612206565b610d739190612206565b610d7d9190612206565b8111610d90576001610640870152610bf4565b601c54601b54601a54601954601854610da99190612206565b610db39190612206565b610dbd9190612206565b610dc79190612206565b8111610dda576001610660870152610bf4565b601d54601c54601b54601a54601954601854610df69190612206565b610e009190612206565b610e0a9190612206565b610e149190612206565b610e1e9190612206565b8111610e31576001610680870152610bf4565b601e54601d54601c54601b54601a54601954601854610e509190612206565b610e5a9190612206565b610e649190612206565b610e6e9190612206565b610e789190612206565b610e829190612206565b8111610e955760016106a0870152610bf4565b505060016106c0850152509192915050565b610eaf6111e3565b610eb76111e3565b825181526020808401519082015260408084015190820152606080840151908201526080808401519082015260a0808401519082015260c0808401519082015260e08084015190820152610100808401519082015261012080840151908201526101408084015190820152610160808401519082015261018080840151908201526101a080840151908201526101c080840151908201526101e08084015190820152610200808401519082015261022080840151908201526102408084015190820152610260808401519082015261028080840151908201526102a080840151908201526102c080840151908201526102e08084015190820152610300808401519082015261032080840151908201526103408084015115159082015261036080840151151590820152610380808401511515908201526103a0808401511515908201526103c0808401511515908201526103e0808401511515908201526104008084015115159082015261042080840151151590820152610440928301511515928101929092525090565b604051806106e00160405280606081526020016000815260200160008152602001600081526020016000815260200160008152602001600081526020016000815260200160008152602001600081526020016000815260200160008152602001600081526020016000815260200160008152602001600081526020016000815260200160008152602001600081526020016000815260200160008152602001600081526020016000815260200160008152602001600081526020016000815260200160001515815260200160001515815260200160001515815260200160001515815260200160001515815260200160001515815260200160001515815260200160001515815260200160001515815260200160008152602001600081526020016000815260200160008152602001600081526020016000815260200160008152602001600081526020016000815260200160008152602001600081526020016000815260200160008152602001600081526020016000815260200160008152602001600081526020016000815260200160008152602001600081525090565b60405180610460016040528060608152602001600081526020016000815260200160008152602001600081526020016000815260200160008152602001600081526020016000815260200160008152602001600081526020016000815260200160008152602001600081526020016000815260200160008152602001600081526020016000815260200160008152602001600081526020016000815260200160008152602001600081526020016000815260200160008152602001600081526020016000151581526020016000151581526020016000151581526020016000151581526020016000151581526020016000151581526020016000151581526020016000151581526020016000151581525090565b60006020828403121561130957600080fd5b5035919050565b60005b8381101561132b578181015183820152602001611313565b50506000910152565b6000815180845261134c816020860160208601611310565b601f01601f19169290920160200192915050565b60208152600082516106e080602085015261137f610700850183611334565b602086015160408681019190915286015160608087019190915286015160808087019190915286015160a08087019190915286015160c08087019190915286015160e08087019190915286015161010080870191909152860151610120808701919091528601516101408087019190915286015161016080870191909152860151610180808701919091528601516101a0808701919091528601516101c0808701919091528601516101e08087019190915286015161020080870191909152860151610220808701919091528601516102408087019190915286015161026080870191909152860151610280808701919091528601516102a0808701919091528601516102c0808701919091528601516102e0808701919091528601516103008087019190915286015161032080870191909152860151610340808701919091528601519092506103606114d68187018315159052565b86015190506103806114eb8682018315159052565b86015190506103a06115008682018315159052565b86015190506103c06115158682018315159052565b86015190506103e061152a8682018315159052565b860151905061040061153f8682018315159052565b86015190506104206115548682018315159052565b86015190506104406115698682018315159052565b860151905061046061157e8682018315159052565b860151610480868101919091528601516104a0808701919091528601516104c0808701919091528601516104e08087019190915286015161050080870191909152860151610520808701919091528601516105408087019190915286015161056080870191909152860151610580808701919091528601516105a0808701919091528601516105c0808701919091528601516105e08087019190915286015161060080870191909152860151610620808701919091528601516106408087019190915286015161066080870191909152860151610680808701919091528601516106a0808701919091528601516106c0808701919091529095015193019290925250919050565b634e487b7160e01b600052604160045260246000fd5b604051610460810167ffffffffffffffff811182821017156116bf576116bf611685565b60405290565b6040516106e0810167ffffffffffffffff811182821017156116bf576116bf611685565b604051601f8201601f1916810167ffffffffffffffff8111828210171561171257611712611685565b604052919050565b600067ffffffffffffffff82111561173457611734611685565b50601f01601f191660200190565b600082601f83011261175357600080fd5b81356117666117618261171a565b6116e9565b81815284602083860101111561177b57600080fd5b816020850160208301376000918101602001919091529392505050565b80151581146117a657600080fd5b50565b80356117b481611798565b919050565b6000602082840312156117cb57600080fd5b813567ffffffffffffffff808211156117e357600080fd5b9083019061046082860312156117f857600080fd5b61180061169b565b82358281111561180f57600080fd5b61181b87828601611742565b8252506020838101359082015260408084013590820152606080840135908201526080808401359082015260a0808401359082015260c0808401359082015260e08084013590820152610100808401359082015261012080840135908201526101408084013590820152610160808401359082015261018080840135908201526101a080840135908201526101c080840135908201526101e08084013590820152610200808401359082015261022080840135908201526102408084013590820152610260808401359082015261028080840135908201526102a080840135908201526102c080840135908201526102e0808401359082015261030080840135908201526103208084013590820152610340915061193a8284016117a9565b82820152610360915061194e8284016117a9565b8282015261038091506119628284016117a9565b828201526103a091506119768284016117a9565b828201526103c0915061198a8284016117a9565b828201526103e0915061199e8284016117a9565b8282015261040091506119b28284016117a9565b8282015261042091506119c68284016117a9565b8282015261044091506119da8284016117a9565b91810191909152949350505050565b60006106e082840312156119fc57600080fd5b611a046116c5565b9050813567ffffffffffffffff811115611a1d57600080fd5b611a2984828501611742565b8252506020828101359082015260408083013590820152606080830135908201526080808301359082015260a0808301359082015260c0808301359082015260e08083013590820152610100808301359082015261012080830135908201526101408083013590820152610160808301359082015261018080830135908201526101a080830135908201526101c080830135908201526101e08083013590820152610200808301359082015261022080830135908201526102408083013590820152610260808301359082015261028080830135908201526102a080830135908201526102c080830135908201526102e0808301359082015261030080830135908201526103208083013590820152610340611b468184016117a9565b90820152610360611b588382016117a9565b90820152610380611b6a8382016117a9565b908201526103a0611b7c8382016117a9565b908201526103c0611b8e8382016117a9565b908201526103e0611ba08382016117a9565b90820152610400611bb28382016117a9565b90820152610420611bc48382016117a9565b90820152610440611bd68382016117a9565b90820152610460828101359082015261048080830135908201526104a080830135908201526104c080830135908201526104e08083013590820152610500808301359082015261052080830135908201526105408083013590820152610560808301359082015261058080830135908201526105a080830135908201526105c080830135908201526105e08083013590820152610600808301359082015261062080830135908201526106408083013590820152610660808301359082015261068080830135908201526106a080830135908201526106c09182013591810191909152919050565b600060208284031215611cd057600080fd5b813567ffffffffffffffff811115611ce757600080fd5b610302848285016119e9565b60008060408385031215611d0657600080fd5b82359150602083013567ffffffffffffffff811115611d2457600080fd5b611d30858286016119e9565b9150509250929050565b600082601f830112611d4b57600080fd5b8151611d596117618261171a565b818152846020838601011115611d6e57600080fd5b610302826020830160208701611310565b80516117b481611798565b600060208284031215611d9c57600080fd5b815167ffffffffffffffff80821115611db457600080fd5b908301906104608286031215611dc957600080fd5b611dd161169b565b825182811115611de057600080fd5b611dec87828601611d3a565b8252506020838101519082015260408084015190820152606080840151908201526080808401519082015260a0808401519082015260c0808401519082015260e08084015190820152610100808401519082015261012080840151908201526101408084015190820152610160808401519082015261018080840151908201526101a080840151908201526101c080840151908201526101e08084015190820152610200808401519082015261022080840151908201526102408084015190820152610260808401519082015261028080840151908201526102a080840151908201526102c080840151908201526102e08084015190820152610300808401519082015261032080840151908201526103409150611f0b828401611d7f565b828201526103609150611f1f828401611d7f565b828201526103809150611f33828401611d7f565b828201526103a09150611f47828401611d7f565b828201526103c09150611f5b828401611d7f565b828201526103e09150611f6f828401611d7f565b828201526104009150611f83828401611d7f565b828201526104209150611f97828401611d7f565b8282015261044091506119da828401611d7f565b600060208284031215611fbd57600080fd5b815161038f81611798565b8281526040602082015260008251610460806040850152611fed6104a0850183611334565b602086015160608681019190915260408701516080808801919091529087015160a0808801919091529087015160c0808801919091529087015160e08088019190915290870151610100808801919091529087015161012080880191909152908701516101408088019190915290870151610160808801919091529087015161018080880191909152908701516101a080880191909152908701516101c080880191909152908701516101e08088019190915290870151610200808801919091529087015161022080880191909152908701516102408088019190915290870151610260808801919091529087015161028080880191909152908701516102a080880191909152908701516102c080880191909152908701516102e080880191909152908701516103008088019190915290870151610320808801919091529087015161034080880191909152908701516103608088019190915290870151919350610380906121608288018415159052565b87015191506103a06121758782018415159052565b9087015191506103c09061218c8783018415159052565b87015191506103e06121a18782018415159052565b908701519150610400906121b88783018415159052565b87015191506104206121cd8782018415159052565b908701519150610440906121e48783018415159052565b8701511515928601929092525084015180151561048085015250949350505050565b80820180821115610a8757634e487b7160e01b600052601160045260246000fd5b60008261224457634e487b7160e01b600052601260045260246000fd5b50069056fea264697066735822122027bf7fc365ae065d63eac4bbae980ad7493cfa68d61641fcf4cc5a422b1d6ff264736f6c63430008130033",
  "immutableReferences": {},
  "source": "// SPDX-License-Identifier: MIT\npragma solidity ^0.8.18;\n\nimport \"./ItemsExcellentAtts.sol\";\nimport \"./Items.sol\";\ncontract ItemsExcellent is ItemsExcellentAtts {  \n    Items private _items;\n\n    constructor(address itemsAddress) {\n        _items = Items(itemsAddress);\n    }\n\n    struct WingsExcOptions {\n        uint256 increaseAttackSpeedPoints;\n        uint256 reflectDamagePercent;\n        uint256 restoreHPChance;\n        uint256 restoreMPChance;\n        uint256 doubleDamageChance;\n        uint256 ignoreOpponentDefenseChance;\n\n        uint256 doubleOptionChance;\n    }\n\n    WingsExcOptions WingsExcOptionsDropRates = WingsExcOptions({\n        increaseAttackSpeedPoints: 15,\n        reflectDamagePercent: 15,\n        restoreHPChance: 30,\n        restoreMPChance: 30,\n        doubleDamageChance: 5,\n        ignoreOpponentDefenseChance: 3,\n\n        doubleOptionChance: 15\n    });\n\n\n    struct WeaponsExcOptions {\n        uint256 lifeAfterMonsterIncrease;\n        uint256 manaAfterMonsterIncrease;\n        uint256 excellentDamageProbabilityIncrease;\n        uint256 attackSpeedIncrease;\n        uint256 attackLvl20; \n        uint256 attackIncreasePercent; \n\n        uint256 doubleOptionChance;\n    }\n\n    WeaponsExcOptions WeaponsExcOptionsDropRates = WeaponsExcOptions({\n        lifeAfterMonsterIncrease: 35,\n        manaAfterMonsterIncrease: 35,\n        excellentDamageProbabilityIncrease: 10,\n        attackSpeedIncrease: 10,\n        attackLvl20: 10,\n        attackIncreasePercent: 10,\n\n        doubleOptionChance: 15\n    });\n\n    struct ArmoursExcOptions {\n        uint256 defenseSuccessRateIncrease;\n        uint256 goldAfterMonsterIncrease;\n        uint256 reflectDamage;\n        uint256 maxLifeIncrease;\n        uint256 maxManaIncrease;\n        uint256 hpRecoveryRateIncrease;\n        uint256 mpRecoveryRateIncrease;\n        uint256 decreaseDamageRateIncrease;\n\n        uint256 doubleOptionChance;\n    }\n\n    ArmoursExcOptions ArmourExcOptionsDropRates = ArmoursExcOptions({\n        defenseSuccessRateIncrease: 10,\n        goldAfterMonsterIncrease: 20,\n        reflectDamage: 10,\n        maxLifeIncrease: 10,\n        maxManaIncrease: 10,\n        hpRecoveryRateIncrease: 10,\n        mpRecoveryRateIncrease: 10,\n        decreaseDamageRateIncrease: 10,\n\n        doubleOptionChance: 30\n    });\n\n\n    mapping (uint256 => WingsExcOptions) public WingsExcOpts;\n    mapping (uint256 => WeaponsExcOptions) public WeaponsExcOpts;\n    mapping (uint256 => ArmoursExcOptions) public ArmoursExcOpts;\n\n    function convertToExcellent(ItemAttributes memory item) public view returns (ExcellentItemAtts memory) {\n        ExcellentItemAtts memory excellentItem;\n\n        // Copy original properties\n        excellentItem.name = item.name;\n        excellentItem.tokenId = item.tokenId;        \n        excellentItem.itemLevel = item.itemLevel;\n        excellentItem.maxLevel = item.maxLevel;\n        excellentItem.durability = item.durability;\n        excellentItem.classRequired = item.classRequired;\n        excellentItem.strengthRequired = item.strengthRequired;\n        excellentItem.agilityRequired = item.agilityRequired;\n        excellentItem.energyRequired = item.energyRequired;\n        excellentItem.vitalityRequired = item.vitalityRequired;\n        excellentItem.itemWidth = item.itemWidth;\n        excellentItem.itemHeight = item.itemHeight;\n        excellentItem.acceptableSlot1 = item.acceptableSlot1;\n        excellentItem.acceptableSlot2 = item.acceptableSlot2;\n        excellentItem.baseMinPhysicalDamage = item.baseMinPhysicalDamage;\n        excellentItem.baseMaxPhysicalDamage = item.baseMaxPhysicalDamage;\n        excellentItem.baseMinMagicDamage = item.baseMinMagicDamage;\n        excellentItem.baseMaxMagicDamage = item.baseMaxMagicDamage;\n        excellentItem.baseDefense = item.baseDefense;\n        excellentItem.attackSpeed = item.attackSpeed;\n        excellentItem.additionalDamage = item.additionalDamage;\n        excellentItem.additionalDefense = item.additionalDefense;\n        excellentItem.fighterId = item.fighterId;\n        excellentItem.lastUpdBlock = item.lastUpdBlock;\n        excellentItem.itemRarityLevel = item.itemRarityLevel;\n        excellentItem.itemAttributesId = item.itemAttributesId;\n        excellentItem.luck = item.luck;\n        excellentItem.skill = item.skill;\n        excellentItem.isBox = item.isBox;\n        excellentItem.isWeapon = item.isWeapon;\n        excellentItem.isArmour = item.isArmour;\n        excellentItem.isJewel = item.isJewel;\n        excellentItem.isWings = item.isWings;\n        excellentItem.isMisc = item.isMisc;\n        excellentItem.inShop = item.inShop;\n\n        // Wings\n        excellentItem.increaseAttackSpeedPoints = WingsExcOpts[item.tokenId].increaseAttackSpeedPoints;\n        excellentItem.reflectDamagePercent = WingsExcOpts[item.tokenId].reflectDamagePercent;\n        excellentItem.restoreHPChance = WingsExcOpts[item.tokenId].restoreHPChance;\n        excellentItem.restoreMPChance = WingsExcOpts[item.tokenId].restoreMPChance;\n        excellentItem.doubleDamageChance = WingsExcOpts[item.tokenId].doubleDamageChance;\n        excellentItem.ignoreOpponentDefenseChance = WingsExcOpts[item.tokenId].ignoreOpponentDefenseChance;\n\n        // Weapons\n        excellentItem.lifeAfterMonsterIncrease = WeaponsExcOpts[item.tokenId].lifeAfterMonsterIncrease;\n        excellentItem.manaAfterMonsterIncrease = WeaponsExcOpts[item.tokenId].manaAfterMonsterIncrease;\n        excellentItem.excellentDamageProbabilityIncrease = WeaponsExcOpts[item.tokenId].excellentDamageProbabilityIncrease;\n        excellentItem.attackSpeedIncrease = WeaponsExcOpts[item.tokenId].attackSpeedIncrease;\n        excellentItem.attackLvl20 = WeaponsExcOpts[item.tokenId].attackLvl20;\n        excellentItem.attackIncreasePercent = WeaponsExcOpts[item.tokenId].attackIncreasePercent;\n\n        // Armour\n        excellentItem.defenseSuccessRateIncrease = ArmoursExcOpts[item.tokenId].defenseSuccessRateIncrease;\n        excellentItem.goldAfterMonsterIncrease = ArmoursExcOpts[item.tokenId].goldAfterMonsterIncrease;\n        excellentItem.reflectDamage = ArmoursExcOpts[item.tokenId].reflectDamage;\n        excellentItem.maxLifeIncrease = ArmoursExcOpts[item.tokenId].maxLifeIncrease;\n        excellentItem.maxManaIncrease = ArmoursExcOpts[item.tokenId].maxManaIncrease;\n        excellentItem.hpRecoveryRateIncrease = ArmoursExcOpts[item.tokenId].hpRecoveryRateIncrease;\n        excellentItem.mpRecoveryRateIncrease = ArmoursExcOpts[item.tokenId].mpRecoveryRateIncrease;\n        excellentItem.decreaseDamageRateIncrease = ArmoursExcOpts[item.tokenId].decreaseDamageRateIncrease;\n\n        return excellentItem;\n    }\n\n    function assignExcellentAtts(ExcellentItemAtts memory a, uint256 tokenId) internal returns (ExcellentItemAtts memory) {\n        a.increaseAttackSpeedPoints = WingsExcOpts[tokenId].increaseAttackSpeedPoints;\n        a.reflectDamagePercent = WingsExcOpts[tokenId].reflectDamagePercent;\n        a.restoreHPChance = WingsExcOpts[tokenId].restoreHPChance;\n        a.restoreMPChance = WingsExcOpts[tokenId].restoreMPChance;\n        a.doubleDamageChance = WingsExcOpts[tokenId].doubleDamageChance;\n        a.ignoreOpponentDefenseChance = WingsExcOpts[tokenId].ignoreOpponentDefenseChance;\n\n\n        a.lifeAfterMonsterIncrease = WeaponsExcOpts[tokenId].lifeAfterMonsterIncrease;\n        a.manaAfterMonsterIncrease = WeaponsExcOpts[tokenId].manaAfterMonsterIncrease;\n        a.excellentDamageProbabilityIncrease = WeaponsExcOpts[tokenId].excellentDamageProbabilityIncrease;\n        a.attackSpeedIncrease = WeaponsExcOpts[tokenId].attackSpeedIncrease;\n        a.attackLvl20 = WeaponsExcOpts[tokenId].attackLvl20;\n        a.attackIncreasePercent = WeaponsExcOpts[tokenId].attackIncreasePercent;\n\n\n        a.defenseSuccessRateIncrease = ArmoursExcOpts[tokenId].defenseSuccessRateIncrease;\n        a.goldAfterMonsterIncrease = ArmoursExcOpts[tokenId].goldAfterMonsterIncrease;\n        a.reflectDamage = ArmoursExcOpts[tokenId].reflectDamage;\n        a.maxLifeIncrease = ArmoursExcOpts[tokenId].maxLifeIncrease;\n        a.maxManaIncrease = ArmoursExcOpts[tokenId].maxManaIncrease;\n        a.hpRecoveryRateIncrease = ArmoursExcOpts[tokenId].hpRecoveryRateIncrease;\n        a.mpRecoveryRateIncrease = ArmoursExcOpts[tokenId].mpRecoveryRateIncrease;\n        a.decreaseDamageRateIncrease = ArmoursExcOpts[tokenId].decreaseDamageRateIncrease;\n\n        return a;\n    }\n\n    function convertToItemAttributes(ExcellentItemAtts memory eia) internal pure returns (ItemAttributes memory) {\n        ItemAttributes memory ia;\n\n        ia.name = eia.name;\n        ia.tokenId = eia.tokenId;\n        ia.itemLevel = eia.itemLevel;\n        ia.maxLevel = eia.maxLevel;\n        ia.durability = eia.durability;\n        ia.classRequired = eia.classRequired;\n        ia.strengthRequired = eia.strengthRequired;\n        ia.agilityRequired = eia.agilityRequired;\n        ia.energyRequired = eia.energyRequired;\n        ia.vitalityRequired = eia.vitalityRequired;\n        ia.itemWidth = eia.itemWidth;\n        ia.itemHeight = eia.itemHeight;\n        ia.acceptableSlot1 = eia.acceptableSlot1;\n        ia.acceptableSlot2 = eia.acceptableSlot2;\n\n        ia.baseMinPhysicalDamage = eia.baseMinPhysicalDamage;\n        ia.baseMaxPhysicalDamage = eia.baseMaxPhysicalDamage;\n        ia.baseMinMagicDamage = eia.baseMinMagicDamage;\n        ia.baseMaxMagicDamage = eia.baseMaxMagicDamage;\n        ia.baseDefense = eia.baseDefense;\n        ia.attackSpeed = eia.attackSpeed;\n\n        ia.additionalDamage = eia.additionalDamage;\n        ia.additionalDefense = eia.additionalDefense;\n\n        ia.fighterId = eia.fighterId;\n        ia.lastUpdBlock = eia.lastUpdBlock;\n        ia.itemRarityLevel = eia.itemRarityLevel;\n\n        ia.itemAttributesId = eia.itemAttributesId;\n\n        ia.luck = eia.luck;\n        ia.skill = eia.skill;\n        ia.isBox = eia.isBox;\n        ia.isWeapon = eia.isWeapon;\n        ia.isArmour = eia.isArmour;\n        ia.isJewel = eia.isJewel;\n        ia.isWings = eia.isWings;\n        ia.isMisc = eia.isMisc;\n        ia.inShop = eia.inShop;\n\n        return ia;\n    }\n\n\n    function reverseAssignExcellentAtts(uint256 tokenId, ExcellentItemAtts memory a) internal {\n        WingsExcOpts[tokenId].increaseAttackSpeedPoints = a.increaseAttackSpeedPoints;\n        WingsExcOpts[tokenId].reflectDamagePercent = a.reflectDamagePercent;\n        WingsExcOpts[tokenId].restoreHPChance = a.restoreHPChance;\n        WingsExcOpts[tokenId].restoreMPChance = a.restoreMPChance;\n        WingsExcOpts[tokenId].doubleDamageChance = a.doubleDamageChance;\n        WingsExcOpts[tokenId].ignoreOpponentDefenseChance = a.ignoreOpponentDefenseChance;\n\n        WeaponsExcOpts[tokenId].lifeAfterMonsterIncrease = a.lifeAfterMonsterIncrease;\n        WeaponsExcOpts[tokenId].manaAfterMonsterIncrease = a.manaAfterMonsterIncrease;\n        WeaponsExcOpts[tokenId].excellentDamageProbabilityIncrease = a.excellentDamageProbabilityIncrease;\n        WeaponsExcOpts[tokenId].attackSpeedIncrease = a.attackSpeedIncrease;\n        WeaponsExcOpts[tokenId].attackLvl20 = a.attackLvl20;\n        WeaponsExcOpts[tokenId].attackIncreasePercent = a.attackIncreasePercent;\n\n        ArmoursExcOpts[tokenId].defenseSuccessRateIncrease = a.defenseSuccessRateIncrease;\n        ArmoursExcOpts[tokenId].goldAfterMonsterIncrease = a.goldAfterMonsterIncrease;\n        ArmoursExcOpts[tokenId].reflectDamage = a.reflectDamage;\n        ArmoursExcOpts[tokenId].maxLifeIncrease = a.maxLifeIncrease;\n        ArmoursExcOpts[tokenId].maxManaIncrease = a.maxManaIncrease;\n        ArmoursExcOpts[tokenId].hpRecoveryRateIncrease = a.hpRecoveryRateIncrease;\n        ArmoursExcOpts[tokenId].mpRecoveryRateIncrease = a.mpRecoveryRateIncrease;\n        ArmoursExcOpts[tokenId].decreaseDamageRateIncrease = a.decreaseDamageRateIncrease;\n    }\n\n\n\n\n    function getItemAttributes(uint256 itemId) external returns (ExcellentItemAtts memory) {\n        ItemAttributes memory itemAtts = _items.getItemAttributes(itemId);\n        return convertToExcellent(itemAtts);\n    }\n\n    function getTokenAttributes(uint256 tokenId) external returns (ExcellentItemAtts memory) {\n        ItemAttributes memory tokenAtts = _items.getTokenAttributes(tokenId);\n        ExcellentItemAtts memory excAtts = convertToExcellent(tokenAtts);\n\n        return assignExcellentAtts(excAtts, tokenId);\n    }\n\n    function setTokenAttributes(uint256 tokenId, ExcellentItemAtts memory atts) external {\n        require(_items.itemExists(tokenId), \"Token does not exist\");\n\n        ItemAttributes memory baseAtts = convertToItemAttributes(atts);\n        _items.setTokenAttributes(tokenId, baseAtts);\n        reverseAssignExcellentAtts(tokenId, atts);\n    }\n\n\n    function getRandomArmourExcOption(ExcellentItemAtts memory item,  uint256 seed) internal returns (ExcellentItemAtts memory) {\n        uint256 randomNumber = getRandomNumber(seed);\n        uint256 totalProbability = ArmourExcOptionsDropRates.defenseSuccessRateIncrease +\n            ArmourExcOptionsDropRates.goldAfterMonsterIncrease +\n            ArmourExcOptionsDropRates.reflectDamage +\n            ArmourExcOptionsDropRates.maxLifeIncrease +\n            ArmourExcOptionsDropRates.maxManaIncrease +\n            ArmourExcOptionsDropRates.hpRecoveryRateIncrease +\n            ArmourExcOptionsDropRates.mpRecoveryRateIncrease +\n            ArmourExcOptionsDropRates.decreaseDamageRateIncrease;\n        \n\n        uint256 randomIndex = randomNumber % totalProbability;\n\n        if (randomIndex <= ArmourExcOptionsDropRates.defenseSuccessRateIncrease) {\n            item.defenseSuccessRateIncrease = 1;\n        } else if (randomIndex <= ArmourExcOptionsDropRates.defenseSuccessRateIncrease \n            + ArmourExcOptionsDropRates.goldAfterMonsterIncrease) {\n            item.goldAfterMonsterIncrease = 1;\n        } else if (randomIndex <= ArmourExcOptionsDropRates.defenseSuccessRateIncrease \n            + ArmourExcOptionsDropRates.goldAfterMonsterIncrease\n            + ArmourExcOptionsDropRates.reflectDamage) {\n            item.reflectDamage = 1;\n        } else if (randomIndex <= ArmourExcOptionsDropRates.defenseSuccessRateIncrease \n            + ArmourExcOptionsDropRates.goldAfterMonsterIncrease\n            + ArmourExcOptionsDropRates.reflectDamage\n            + ArmourExcOptionsDropRates.maxLifeIncrease) {\n            item.maxLifeIncrease = 1;\n        } else if (randomIndex <= ArmourExcOptionsDropRates.defenseSuccessRateIncrease \n            + ArmourExcOptionsDropRates.goldAfterMonsterIncrease\n            + ArmourExcOptionsDropRates.reflectDamage\n            + ArmourExcOptionsDropRates.maxLifeIncrease\n            + ArmourExcOptionsDropRates.maxManaIncrease) {\n            item.maxManaIncrease = 1;\n        } else if (randomIndex <= ArmourExcOptionsDropRates.defenseSuccessRateIncrease \n            + ArmourExcOptionsDropRates.goldAfterMonsterIncrease\n            + ArmourExcOptionsDropRates.reflectDamage\n            + ArmourExcOptionsDropRates.maxLifeIncrease\n            + ArmourExcOptionsDropRates.maxManaIncrease\n            + ArmourExcOptionsDropRates.hpRecoveryRateIncrease) {\n            item.hpRecoveryRateIncrease = 1;\n        } else if (randomIndex <= ArmourExcOptionsDropRates.defenseSuccessRateIncrease \n            + ArmourExcOptionsDropRates.goldAfterMonsterIncrease\n            + ArmourExcOptionsDropRates.reflectDamage\n            + ArmourExcOptionsDropRates.maxLifeIncrease\n            + ArmourExcOptionsDropRates.maxManaIncrease\n            + ArmourExcOptionsDropRates.hpRecoveryRateIncrease\n            + ArmourExcOptionsDropRates.mpRecoveryRateIncrease) {\n            item.mpRecoveryRateIncrease = 1;\n        } else {\n            item.decreaseDamageRateIncrease = 1;\n        }\n\n        return item;\n    }\n\n\n\n    function addExcellentOption(ExcellentItemAtts memory excItem) external returns (ExcellentItemAtts memory newItem) {\n\n\n        excItem.itemLevel = 0;\n        if (excItem.isWeapon) {\n            excItem.skill = true;\n            // choose from weapon exc options            \n            excItem = getRandomWeaponExcOption(excItem, 11);\n            if (getRandomNumber(12) <= WeaponsExcOptionsDropRates.doubleOptionChance) {\n                excItem = getRandomWeaponExcOption(excItem, 13);\n            }\n        } else if (excItem.isArmour) {\n            // choose from armout exc options\n            excItem = getRandomArmourExcOption(excItem, 14);\n            if (getRandomNumber(15) <= ArmourExcOptionsDropRates.doubleOptionChance) {\n                excItem = getRandomArmourExcOption(excItem, 16);\n            }\n        }\n\n        return excItem;\n    }\n\n    function getRandomWeaponExcOption(ExcellentItemAtts memory item,  uint256 seed) internal returns (ExcellentItemAtts memory) {\n        uint256 randomNumber = getRandomNumber(seed);\n        uint256 totalProbability = WeaponsExcOptionsDropRates.lifeAfterMonsterIncrease +\n            WeaponsExcOptionsDropRates.manaAfterMonsterIncrease +\n            WeaponsExcOptionsDropRates.excellentDamageProbabilityIncrease +\n            WeaponsExcOptionsDropRates.attackSpeedIncrease +\n            WeaponsExcOptionsDropRates.attackLvl20 +\n            WeaponsExcOptionsDropRates.attackIncreasePercent;\n        \n\n        uint256 randomIndex = randomNumber % totalProbability;\n\n        if (randomIndex <= WeaponsExcOptionsDropRates.lifeAfterMonsterIncrease) {\n            item.lifeAfterMonsterIncrease = 1;\n        } else if (randomIndex <= WeaponsExcOptionsDropRates.lifeAfterMonsterIncrease \n            + WeaponsExcOptionsDropRates.manaAfterMonsterIncrease) {\n            item.manaAfterMonsterIncrease = 1;\n        } else if (randomIndex <= WeaponsExcOptionsDropRates.lifeAfterMonsterIncrease \n            + WeaponsExcOptionsDropRates.manaAfterMonsterIncrease\n            + WeaponsExcOptionsDropRates.excellentDamageProbabilityIncrease) {\n            item.excellentDamageProbabilityIncrease = 1;\n        } else if (randomIndex <= WeaponsExcOptionsDropRates.lifeAfterMonsterIncrease \n            + WeaponsExcOptionsDropRates.manaAfterMonsterIncrease\n            + WeaponsExcOptionsDropRates.excellentDamageProbabilityIncrease\n            + WeaponsExcOptionsDropRates.attackSpeedIncrease) {\n            item.attackSpeedIncrease = 1;\n        } else if (randomIndex <= WeaponsExcOptionsDropRates.lifeAfterMonsterIncrease \n            + WeaponsExcOptionsDropRates.manaAfterMonsterIncrease\n            + WeaponsExcOptionsDropRates.excellentDamageProbabilityIncrease\n            + WeaponsExcOptionsDropRates.attackSpeedIncrease\n            + WeaponsExcOptionsDropRates.attackLvl20 ) {\n            item.attackLvl20 = 1;\n        } else {\n            item.attackIncreasePercent = 1;\n        }\n\n        return item;\n    }\n\n}",
  "sourcePath": "/Users/max/Documents/prog/game-contracts/contracts/ItemsExcellent.sol",
  "compiler": {
    "name": "solc",
    "version": "0.8.19+commit.7dd6d404.Emscripten.clang"
  },
  "schemaVersion": "3.4.13",
  "updatedAt": "2023-07-30T05:09:50.537Z",
  "networkType": "ethereum",
  "devdoc": {
    "kind": "dev",
    "methods": {},
    "version": 1
  },
  "userdoc": {
    "kind": "user",
    "methods": {},
    "version": 1
  }
}