{
  "contractName": "ItemsExcellent",
  "abi": [
    {
      "inputs": [
        {
          "internalType": "address",
          "name": "itemsAddress",
          "type": "address"
        }
      ],
      "stateMutability": "nonpayable",
      "type": "constructor"
    },
    {
      "inputs": [
        {
          "internalType": "uint256",
          "name": "",
          "type": "uint256"
        }
      ],
      "name": "ArmoursExcOpts",
      "outputs": [
        {
          "internalType": "uint256",
          "name": "defenseSuccessRateIncrease",
          "type": "uint256"
        },
        {
          "internalType": "uint256",
          "name": "goldAfterMonsterIncrease",
          "type": "uint256"
        },
        {
          "internalType": "uint256",
          "name": "reflectDamage",
          "type": "uint256"
        },
        {
          "internalType": "uint256",
          "name": "maxLifeIncrease",
          "type": "uint256"
        },
        {
          "internalType": "uint256",
          "name": "maxManaIncrease",
          "type": "uint256"
        },
        {
          "internalType": "uint256",
          "name": "hpRecoveryRateIncrease",
          "type": "uint256"
        },
        {
          "internalType": "uint256",
          "name": "mpRecoveryRateIncrease",
          "type": "uint256"
        },
        {
          "internalType": "uint256",
          "name": "decreaseDamageRateIncrease",
          "type": "uint256"
        },
        {
          "internalType": "uint256",
          "name": "doubleOptionChance",
          "type": "uint256"
        }
      ],
      "stateMutability": "view",
      "type": "function",
      "constant": true
    },
    {
      "inputs": [
        {
          "internalType": "uint256",
          "name": "",
          "type": "uint256"
        }
      ],
      "name": "WeaponsExcOpts",
      "outputs": [
        {
          "internalType": "uint256",
          "name": "lifeAfterMonsterIncrease",
          "type": "uint256"
        },
        {
          "internalType": "uint256",
          "name": "manaAfterMonsterIncrease",
          "type": "uint256"
        },
        {
          "internalType": "uint256",
          "name": "excellentDamageProbabilityIncrease",
          "type": "uint256"
        },
        {
          "internalType": "uint256",
          "name": "attackSpeedIncrease",
          "type": "uint256"
        },
        {
          "internalType": "uint256",
          "name": "attackLvl20",
          "type": "uint256"
        },
        {
          "internalType": "uint256",
          "name": "attackIncreasePercent",
          "type": "uint256"
        },
        {
          "internalType": "uint256",
          "name": "doubleOptionChance",
          "type": "uint256"
        }
      ],
      "stateMutability": "view",
      "type": "function",
      "constant": true
    },
    {
      "inputs": [
        {
          "internalType": "uint256",
          "name": "",
          "type": "uint256"
        }
      ],
      "name": "WingsExcOpts",
      "outputs": [
        {
          "internalType": "uint256",
          "name": "increaseAttackSpeedPoints",
          "type": "uint256"
        },
        {
          "internalType": "uint256",
          "name": "reflectDamagePercent",
          "type": "uint256"
        },
        {
          "internalType": "uint256",
          "name": "restoreHPChance",
          "type": "uint256"
        },
        {
          "internalType": "uint256",
          "name": "restoreMPChance",
          "type": "uint256"
        },
        {
          "internalType": "uint256",
          "name": "doubleDamageChance",
          "type": "uint256"
        },
        {
          "internalType": "uint256",
          "name": "ignoreOpponentDefenseChance",
          "type": "uint256"
        },
        {
          "internalType": "uint256",
          "name": "doubleOptionChance",
          "type": "uint256"
        }
      ],
      "stateMutability": "view",
      "type": "function",
      "constant": true
    },
    {
      "inputs": [
        {
          "internalType": "uint256",
          "name": "seed",
          "type": "uint256"
        }
      ],
      "name": "getRandomNumber",
      "outputs": [
        {
          "internalType": "uint256",
          "name": "",
          "type": "uint256"
        }
      ],
      "stateMutability": "view",
      "type": "function",
      "constant": true
    },
    {
      "inputs": [
        {
          "internalType": "uint256",
          "name": "seed",
          "type": "uint256"
        },
        {
          "internalType": "uint256",
          "name": "maxNum",
          "type": "uint256"
        }
      ],
      "name": "getRandomNumberMax",
      "outputs": [
        {
          "internalType": "uint256",
          "name": "",
          "type": "uint256"
        }
      ],
      "stateMutability": "view",
      "type": "function",
      "constant": true
    },
    {
      "inputs": [
        {
          "internalType": "uint256",
          "name": "a",
          "type": "uint256"
        },
        {
          "internalType": "uint256",
          "name": "b",
          "type": "uint256"
        }
      ],
      "name": "max",
      "outputs": [
        {
          "internalType": "uint256",
          "name": "",
          "type": "uint256"
        }
      ],
      "stateMutability": "view",
      "type": "function",
      "constant": true
    },
    {
      "inputs": [
        {
          "internalType": "uint256",
          "name": "a",
          "type": "uint256"
        },
        {
          "internalType": "uint256",
          "name": "b",
          "type": "uint256"
        }
      ],
      "name": "min",
      "outputs": [
        {
          "internalType": "uint256",
          "name": "",
          "type": "uint256"
        }
      ],
      "stateMutability": "view",
      "type": "function",
      "constant": true
    },
    {
      "inputs": [
        {
          "internalType": "uint256",
          "name": "a",
          "type": "uint256"
        },
        {
          "internalType": "uint256",
          "name": "b",
          "type": "uint256"
        }
      ],
      "name": "safeAdd",
      "outputs": [
        {
          "internalType": "uint256",
          "name": "",
          "type": "uint256"
        }
      ],
      "stateMutability": "view",
      "type": "function",
      "constant": true
    },
    {
      "inputs": [
        {
          "internalType": "uint256",
          "name": "a",
          "type": "uint256"
        },
        {
          "internalType": "uint256",
          "name": "b",
          "type": "uint256"
        }
      ],
      "name": "safeMul",
      "outputs": [
        {
          "internalType": "uint256",
          "name": "",
          "type": "uint256"
        }
      ],
      "stateMutability": "view",
      "type": "function",
      "constant": true
    },
    {
      "inputs": [
        {
          "internalType": "uint256",
          "name": "a",
          "type": "uint256"
        },
        {
          "internalType": "uint256",
          "name": "b",
          "type": "uint256"
        }
      ],
      "name": "safeSub",
      "outputs": [
        {
          "internalType": "uint256",
          "name": "",
          "type": "uint256"
        }
      ],
      "stateMutability": "view",
      "type": "function",
      "constant": true
    },
    {
      "inputs": [
        {
          "components": [
            {
              "internalType": "string",
              "name": "name",
              "type": "string"
            },
            {
              "internalType": "uint256",
              "name": "tokenId",
              "type": "uint256"
            },
            {
              "internalType": "uint256",
              "name": "itemLevel",
              "type": "uint256"
            },
            {
              "internalType": "uint256",
              "name": "maxLevel",
              "type": "uint256"
            },
            {
              "internalType": "uint256",
              "name": "durability",
              "type": "uint256"
            },
            {
              "internalType": "uint256",
              "name": "classRequired",
              "type": "uint256"
            },
            {
              "internalType": "uint256",
              "name": "strengthRequired",
              "type": "uint256"
            },
            {
              "internalType": "uint256",
              "name": "agilityRequired",
              "type": "uint256"
            },
            {
              "internalType": "uint256",
              "name": "energyRequired",
              "type": "uint256"
            },
            {
              "internalType": "uint256",
              "name": "vitalityRequired",
              "type": "uint256"
            },
            {
              "internalType": "uint256",
              "name": "itemWidth",
              "type": "uint256"
            },
            {
              "internalType": "uint256",
              "name": "itemHeight",
              "type": "uint256"
            },
            {
              "internalType": "uint256",
              "name": "acceptableSlot1",
              "type": "uint256"
            },
            {
              "internalType": "uint256",
              "name": "acceptableSlot2",
              "type": "uint256"
            },
            {
              "internalType": "uint256",
              "name": "baseMinPhysicalDamage",
              "type": "uint256"
            },
            {
              "internalType": "uint256",
              "name": "baseMaxPhysicalDamage",
              "type": "uint256"
            },
            {
              "internalType": "uint256",
              "name": "baseMinMagicDamage",
              "type": "uint256"
            },
            {
              "internalType": "uint256",
              "name": "baseMaxMagicDamage",
              "type": "uint256"
            },
            {
              "internalType": "uint256",
              "name": "baseDefense",
              "type": "uint256"
            },
            {
              "internalType": "uint256",
              "name": "attackSpeed",
              "type": "uint256"
            },
            {
              "internalType": "uint256",
              "name": "additionalDamage",
              "type": "uint256"
            },
            {
              "internalType": "uint256",
              "name": "additionalDefense",
              "type": "uint256"
            },
            {
              "internalType": "uint256",
              "name": "fighterId",
              "type": "uint256"
            },
            {
              "internalType": "uint256",
              "name": "lastUpdBlock",
              "type": "uint256"
            },
            {
              "internalType": "uint256",
              "name": "itemRarityLevel",
              "type": "uint256"
            },
            {
              "internalType": "uint256",
              "name": "itemAttributesId",
              "type": "uint256"
            },
            {
              "internalType": "uint256",
              "name": "packSize",
              "type": "uint256"
            },
            {
              "internalType": "bool",
              "name": "luck",
              "type": "bool"
            },
            {
              "internalType": "bool",
              "name": "skill",
              "type": "bool"
            },
            {
              "internalType": "bool",
              "name": "isPackable",
              "type": "bool"
            },
            {
              "internalType": "bool",
              "name": "isBox",
              "type": "bool"
            },
            {
              "internalType": "bool",
              "name": "isWeapon",
              "type": "bool"
            },
            {
              "internalType": "bool",
              "name": "isArmour",
              "type": "bool"
            },
            {
              "internalType": "bool",
              "name": "isJewel",
              "type": "bool"
            },
            {
              "internalType": "bool",
              "name": "isWings",
              "type": "bool"
            },
            {
              "internalType": "bool",
              "name": "isMisc",
              "type": "bool"
            },
            {
              "internalType": "bool",
              "name": "isConsumable",
              "type": "bool"
            },
            {
              "internalType": "bool",
              "name": "inShop",
              "type": "bool"
            }
          ],
          "internalType": "struct ItemsAtts.ItemAttributes",
          "name": "item",
          "type": "tuple"
        }
      ],
      "name": "convertToExcellent",
      "outputs": [
        {
          "components": [
            {
              "internalType": "string",
              "name": "name",
              "type": "string"
            },
            {
              "internalType": "uint256",
              "name": "tokenId",
              "type": "uint256"
            },
            {
              "internalType": "uint256",
              "name": "itemLevel",
              "type": "uint256"
            },
            {
              "internalType": "uint256",
              "name": "maxLevel",
              "type": "uint256"
            },
            {
              "internalType": "uint256",
              "name": "durability",
              "type": "uint256"
            },
            {
              "internalType": "uint256",
              "name": "classRequired",
              "type": "uint256"
            },
            {
              "internalType": "uint256",
              "name": "strengthRequired",
              "type": "uint256"
            },
            {
              "internalType": "uint256",
              "name": "agilityRequired",
              "type": "uint256"
            },
            {
              "internalType": "uint256",
              "name": "energyRequired",
              "type": "uint256"
            },
            {
              "internalType": "uint256",
              "name": "vitalityRequired",
              "type": "uint256"
            },
            {
              "internalType": "uint256",
              "name": "itemWidth",
              "type": "uint256"
            },
            {
              "internalType": "uint256",
              "name": "itemHeight",
              "type": "uint256"
            },
            {
              "internalType": "uint256",
              "name": "acceptableSlot1",
              "type": "uint256"
            },
            {
              "internalType": "uint256",
              "name": "acceptableSlot2",
              "type": "uint256"
            },
            {
              "internalType": "uint256",
              "name": "baseMinPhysicalDamage",
              "type": "uint256"
            },
            {
              "internalType": "uint256",
              "name": "baseMaxPhysicalDamage",
              "type": "uint256"
            },
            {
              "internalType": "uint256",
              "name": "baseMinMagicDamage",
              "type": "uint256"
            },
            {
              "internalType": "uint256",
              "name": "baseMaxMagicDamage",
              "type": "uint256"
            },
            {
              "internalType": "uint256",
              "name": "baseDefense",
              "type": "uint256"
            },
            {
              "internalType": "uint256",
              "name": "attackSpeed",
              "type": "uint256"
            },
            {
              "internalType": "uint256",
              "name": "additionalDamage",
              "type": "uint256"
            },
            {
              "internalType": "uint256",
              "name": "additionalDefense",
              "type": "uint256"
            },
            {
              "internalType": "uint256",
              "name": "fighterId",
              "type": "uint256"
            },
            {
              "internalType": "uint256",
              "name": "lastUpdBlock",
              "type": "uint256"
            },
            {
              "internalType": "uint256",
              "name": "itemRarityLevel",
              "type": "uint256"
            },
            {
              "internalType": "uint256",
              "name": "itemAttributesId",
              "type": "uint256"
            },
            {
              "internalType": "uint256",
              "name": "packSize",
              "type": "uint256"
            },
            {
              "internalType": "bool",
              "name": "luck",
              "type": "bool"
            },
            {
              "internalType": "bool",
              "name": "skill",
              "type": "bool"
            },
            {
              "internalType": "bool",
              "name": "isPackable",
              "type": "bool"
            },
            {
              "internalType": "bool",
              "name": "isBox",
              "type": "bool"
            },
            {
              "internalType": "bool",
              "name": "isWeapon",
              "type": "bool"
            },
            {
              "internalType": "bool",
              "name": "isArmour",
              "type": "bool"
            },
            {
              "internalType": "bool",
              "name": "isJewel",
              "type": "bool"
            },
            {
              "internalType": "bool",
              "name": "isWings",
              "type": "bool"
            },
            {
              "internalType": "bool",
              "name": "isMisc",
              "type": "bool"
            },
            {
              "internalType": "bool",
              "name": "isConsumable",
              "type": "bool"
            },
            {
              "internalType": "bool",
              "name": "inShop",
              "type": "bool"
            },
            {
              "internalType": "uint256",
              "name": "increaseAttackSpeedPoints",
              "type": "uint256"
            },
            {
              "internalType": "uint256",
              "name": "reflectDamagePercent",
              "type": "uint256"
            },
            {
              "internalType": "uint256",
              "name": "restoreHPChance",
              "type": "uint256"
            },
            {
              "internalType": "uint256",
              "name": "restoreMPChance",
              "type": "uint256"
            },
            {
              "internalType": "uint256",
              "name": "doubleDamageChance",
              "type": "uint256"
            },
            {
              "internalType": "uint256",
              "name": "ignoreOpponentDefenseChance",
              "type": "uint256"
            },
            {
              "internalType": "uint256",
              "name": "lifeAfterMonsterIncrease",
              "type": "uint256"
            },
            {
              "internalType": "uint256",
              "name": "manaAfterMonsterIncrease",
              "type": "uint256"
            },
            {
              "internalType": "uint256",
              "name": "excellentDamageProbabilityIncrease",
              "type": "uint256"
            },
            {
              "internalType": "uint256",
              "name": "attackSpeedIncrease",
              "type": "uint256"
            },
            {
              "internalType": "uint256",
              "name": "attackLvl20",
              "type": "uint256"
            },
            {
              "internalType": "uint256",
              "name": "attackIncreasePercent",
              "type": "uint256"
            },
            {
              "internalType": "uint256",
              "name": "defenseSuccessRateIncrease",
              "type": "uint256"
            },
            {
              "internalType": "uint256",
              "name": "goldAfterMonsterIncrease",
              "type": "uint256"
            },
            {
              "internalType": "uint256",
              "name": "reflectDamage",
              "type": "uint256"
            },
            {
              "internalType": "uint256",
              "name": "maxLifeIncrease",
              "type": "uint256"
            },
            {
              "internalType": "uint256",
              "name": "maxManaIncrease",
              "type": "uint256"
            },
            {
              "internalType": "uint256",
              "name": "hpRecoveryRateIncrease",
              "type": "uint256"
            },
            {
              "internalType": "uint256",
              "name": "mpRecoveryRateIncrease",
              "type": "uint256"
            },
            {
              "internalType": "uint256",
              "name": "decreaseDamageRateIncrease",
              "type": "uint256"
            }
          ],
          "internalType": "struct ItemsExcellentAtts.ExcellentItemAtts",
          "name": "",
          "type": "tuple"
        }
      ],
      "stateMutability": "view",
      "type": "function",
      "constant": true
    },
    {
      "inputs": [
        {
          "internalType": "uint256",
          "name": "itemId",
          "type": "uint256"
        }
      ],
      "name": "getItemAttributes",
      "outputs": [
        {
          "components": [
            {
              "internalType": "string",
              "name": "name",
              "type": "string"
            },
            {
              "internalType": "uint256",
              "name": "tokenId",
              "type": "uint256"
            },
            {
              "internalType": "uint256",
              "name": "itemLevel",
              "type": "uint256"
            },
            {
              "internalType": "uint256",
              "name": "maxLevel",
              "type": "uint256"
            },
            {
              "internalType": "uint256",
              "name": "durability",
              "type": "uint256"
            },
            {
              "internalType": "uint256",
              "name": "classRequired",
              "type": "uint256"
            },
            {
              "internalType": "uint256",
              "name": "strengthRequired",
              "type": "uint256"
            },
            {
              "internalType": "uint256",
              "name": "agilityRequired",
              "type": "uint256"
            },
            {
              "internalType": "uint256",
              "name": "energyRequired",
              "type": "uint256"
            },
            {
              "internalType": "uint256",
              "name": "vitalityRequired",
              "type": "uint256"
            },
            {
              "internalType": "uint256",
              "name": "itemWidth",
              "type": "uint256"
            },
            {
              "internalType": "uint256",
              "name": "itemHeight",
              "type": "uint256"
            },
            {
              "internalType": "uint256",
              "name": "acceptableSlot1",
              "type": "uint256"
            },
            {
              "internalType": "uint256",
              "name": "acceptableSlot2",
              "type": "uint256"
            },
            {
              "internalType": "uint256",
              "name": "baseMinPhysicalDamage",
              "type": "uint256"
            },
            {
              "internalType": "uint256",
              "name": "baseMaxPhysicalDamage",
              "type": "uint256"
            },
            {
              "internalType": "uint256",
              "name": "baseMinMagicDamage",
              "type": "uint256"
            },
            {
              "internalType": "uint256",
              "name": "baseMaxMagicDamage",
              "type": "uint256"
            },
            {
              "internalType": "uint256",
              "name": "baseDefense",
              "type": "uint256"
            },
            {
              "internalType": "uint256",
              "name": "attackSpeed",
              "type": "uint256"
            },
            {
              "internalType": "uint256",
              "name": "additionalDamage",
              "type": "uint256"
            },
            {
              "internalType": "uint256",
              "name": "additionalDefense",
              "type": "uint256"
            },
            {
              "internalType": "uint256",
              "name": "fighterId",
              "type": "uint256"
            },
            {
              "internalType": "uint256",
              "name": "lastUpdBlock",
              "type": "uint256"
            },
            {
              "internalType": "uint256",
              "name": "itemRarityLevel",
              "type": "uint256"
            },
            {
              "internalType": "uint256",
              "name": "itemAttributesId",
              "type": "uint256"
            },
            {
              "internalType": "uint256",
              "name": "packSize",
              "type": "uint256"
            },
            {
              "internalType": "bool",
              "name": "luck",
              "type": "bool"
            },
            {
              "internalType": "bool",
              "name": "skill",
              "type": "bool"
            },
            {
              "internalType": "bool",
              "name": "isPackable",
              "type": "bool"
            },
            {
              "internalType": "bool",
              "name": "isBox",
              "type": "bool"
            },
            {
              "internalType": "bool",
              "name": "isWeapon",
              "type": "bool"
            },
            {
              "internalType": "bool",
              "name": "isArmour",
              "type": "bool"
            },
            {
              "internalType": "bool",
              "name": "isJewel",
              "type": "bool"
            },
            {
              "internalType": "bool",
              "name": "isWings",
              "type": "bool"
            },
            {
              "internalType": "bool",
              "name": "isMisc",
              "type": "bool"
            },
            {
              "internalType": "bool",
              "name": "isConsumable",
              "type": "bool"
            },
            {
              "internalType": "bool",
              "name": "inShop",
              "type": "bool"
            },
            {
              "internalType": "uint256",
              "name": "increaseAttackSpeedPoints",
              "type": "uint256"
            },
            {
              "internalType": "uint256",
              "name": "reflectDamagePercent",
              "type": "uint256"
            },
            {
              "internalType": "uint256",
              "name": "restoreHPChance",
              "type": "uint256"
            },
            {
              "internalType": "uint256",
              "name": "restoreMPChance",
              "type": "uint256"
            },
            {
              "internalType": "uint256",
              "name": "doubleDamageChance",
              "type": "uint256"
            },
            {
              "internalType": "uint256",
              "name": "ignoreOpponentDefenseChance",
              "type": "uint256"
            },
            {
              "internalType": "uint256",
              "name": "lifeAfterMonsterIncrease",
              "type": "uint256"
            },
            {
              "internalType": "uint256",
              "name": "manaAfterMonsterIncrease",
              "type": "uint256"
            },
            {
              "internalType": "uint256",
              "name": "excellentDamageProbabilityIncrease",
              "type": "uint256"
            },
            {
              "internalType": "uint256",
              "name": "attackSpeedIncrease",
              "type": "uint256"
            },
            {
              "internalType": "uint256",
              "name": "attackLvl20",
              "type": "uint256"
            },
            {
              "internalType": "uint256",
              "name": "attackIncreasePercent",
              "type": "uint256"
            },
            {
              "internalType": "uint256",
              "name": "defenseSuccessRateIncrease",
              "type": "uint256"
            },
            {
              "internalType": "uint256",
              "name": "goldAfterMonsterIncrease",
              "type": "uint256"
            },
            {
              "internalType": "uint256",
              "name": "reflectDamage",
              "type": "uint256"
            },
            {
              "internalType": "uint256",
              "name": "maxLifeIncrease",
              "type": "uint256"
            },
            {
              "internalType": "uint256",
              "name": "maxManaIncrease",
              "type": "uint256"
            },
            {
              "internalType": "uint256",
              "name": "hpRecoveryRateIncrease",
              "type": "uint256"
            },
            {
              "internalType": "uint256",
              "name": "mpRecoveryRateIncrease",
              "type": "uint256"
            },
            {
              "internalType": "uint256",
              "name": "decreaseDamageRateIncrease",
              "type": "uint256"
            }
          ],
          "internalType": "struct ItemsExcellentAtts.ExcellentItemAtts",
          "name": "",
          "type": "tuple"
        }
      ],
      "stateMutability": "nonpayable",
      "type": "function"
    },
    {
      "inputs": [
        {
          "internalType": "uint256",
          "name": "tokenId",
          "type": "uint256"
        }
      ],
      "name": "getTokenAttributes",
      "outputs": [
        {
          "components": [
            {
              "internalType": "string",
              "name": "name",
              "type": "string"
            },
            {
              "internalType": "uint256",
              "name": "tokenId",
              "type": "uint256"
            },
            {
              "internalType": "uint256",
              "name": "itemLevel",
              "type": "uint256"
            },
            {
              "internalType": "uint256",
              "name": "maxLevel",
              "type": "uint256"
            },
            {
              "internalType": "uint256",
              "name": "durability",
              "type": "uint256"
            },
            {
              "internalType": "uint256",
              "name": "classRequired",
              "type": "uint256"
            },
            {
              "internalType": "uint256",
              "name": "strengthRequired",
              "type": "uint256"
            },
            {
              "internalType": "uint256",
              "name": "agilityRequired",
              "type": "uint256"
            },
            {
              "internalType": "uint256",
              "name": "energyRequired",
              "type": "uint256"
            },
            {
              "internalType": "uint256",
              "name": "vitalityRequired",
              "type": "uint256"
            },
            {
              "internalType": "uint256",
              "name": "itemWidth",
              "type": "uint256"
            },
            {
              "internalType": "uint256",
              "name": "itemHeight",
              "type": "uint256"
            },
            {
              "internalType": "uint256",
              "name": "acceptableSlot1",
              "type": "uint256"
            },
            {
              "internalType": "uint256",
              "name": "acceptableSlot2",
              "type": "uint256"
            },
            {
              "internalType": "uint256",
              "name": "baseMinPhysicalDamage",
              "type": "uint256"
            },
            {
              "internalType": "uint256",
              "name": "baseMaxPhysicalDamage",
              "type": "uint256"
            },
            {
              "internalType": "uint256",
              "name": "baseMinMagicDamage",
              "type": "uint256"
            },
            {
              "internalType": "uint256",
              "name": "baseMaxMagicDamage",
              "type": "uint256"
            },
            {
              "internalType": "uint256",
              "name": "baseDefense",
              "type": "uint256"
            },
            {
              "internalType": "uint256",
              "name": "attackSpeed",
              "type": "uint256"
            },
            {
              "internalType": "uint256",
              "name": "additionalDamage",
              "type": "uint256"
            },
            {
              "internalType": "uint256",
              "name": "additionalDefense",
              "type": "uint256"
            },
            {
              "internalType": "uint256",
              "name": "fighterId",
              "type": "uint256"
            },
            {
              "internalType": "uint256",
              "name": "lastUpdBlock",
              "type": "uint256"
            },
            {
              "internalType": "uint256",
              "name": "itemRarityLevel",
              "type": "uint256"
            },
            {
              "internalType": "uint256",
              "name": "itemAttributesId",
              "type": "uint256"
            },
            {
              "internalType": "uint256",
              "name": "packSize",
              "type": "uint256"
            },
            {
              "internalType": "bool",
              "name": "luck",
              "type": "bool"
            },
            {
              "internalType": "bool",
              "name": "skill",
              "type": "bool"
            },
            {
              "internalType": "bool",
              "name": "isPackable",
              "type": "bool"
            },
            {
              "internalType": "bool",
              "name": "isBox",
              "type": "bool"
            },
            {
              "internalType": "bool",
              "name": "isWeapon",
              "type": "bool"
            },
            {
              "internalType": "bool",
              "name": "isArmour",
              "type": "bool"
            },
            {
              "internalType": "bool",
              "name": "isJewel",
              "type": "bool"
            },
            {
              "internalType": "bool",
              "name": "isWings",
              "type": "bool"
            },
            {
              "internalType": "bool",
              "name": "isMisc",
              "type": "bool"
            },
            {
              "internalType": "bool",
              "name": "isConsumable",
              "type": "bool"
            },
            {
              "internalType": "bool",
              "name": "inShop",
              "type": "bool"
            },
            {
              "internalType": "uint256",
              "name": "increaseAttackSpeedPoints",
              "type": "uint256"
            },
            {
              "internalType": "uint256",
              "name": "reflectDamagePercent",
              "type": "uint256"
            },
            {
              "internalType": "uint256",
              "name": "restoreHPChance",
              "type": "uint256"
            },
            {
              "internalType": "uint256",
              "name": "restoreMPChance",
              "type": "uint256"
            },
            {
              "internalType": "uint256",
              "name": "doubleDamageChance",
              "type": "uint256"
            },
            {
              "internalType": "uint256",
              "name": "ignoreOpponentDefenseChance",
              "type": "uint256"
            },
            {
              "internalType": "uint256",
              "name": "lifeAfterMonsterIncrease",
              "type": "uint256"
            },
            {
              "internalType": "uint256",
              "name": "manaAfterMonsterIncrease",
              "type": "uint256"
            },
            {
              "internalType": "uint256",
              "name": "excellentDamageProbabilityIncrease",
              "type": "uint256"
            },
            {
              "internalType": "uint256",
              "name": "attackSpeedIncrease",
              "type": "uint256"
            },
            {
              "internalType": "uint256",
              "name": "attackLvl20",
              "type": "uint256"
            },
            {
              "internalType": "uint256",
              "name": "attackIncreasePercent",
              "type": "uint256"
            },
            {
              "internalType": "uint256",
              "name": "defenseSuccessRateIncrease",
              "type": "uint256"
            },
            {
              "internalType": "uint256",
              "name": "goldAfterMonsterIncrease",
              "type": "uint256"
            },
            {
              "internalType": "uint256",
              "name": "reflectDamage",
              "type": "uint256"
            },
            {
              "internalType": "uint256",
              "name": "maxLifeIncrease",
              "type": "uint256"
            },
            {
              "internalType": "uint256",
              "name": "maxManaIncrease",
              "type": "uint256"
            },
            {
              "internalType": "uint256",
              "name": "hpRecoveryRateIncrease",
              "type": "uint256"
            },
            {
              "internalType": "uint256",
              "name": "mpRecoveryRateIncrease",
              "type": "uint256"
            },
            {
              "internalType": "uint256",
              "name": "decreaseDamageRateIncrease",
              "type": "uint256"
            }
          ],
          "internalType": "struct ItemsExcellentAtts.ExcellentItemAtts",
          "name": "",
          "type": "tuple"
        }
      ],
      "stateMutability": "nonpayable",
      "type": "function"
    },
    {
      "inputs": [
        {
          "internalType": "uint256",
          "name": "tokenId",
          "type": "uint256"
        },
        {
          "components": [
            {
              "internalType": "string",
              "name": "name",
              "type": "string"
            },
            {
              "internalType": "uint256",
              "name": "tokenId",
              "type": "uint256"
            },
            {
              "internalType": "uint256",
              "name": "itemLevel",
              "type": "uint256"
            },
            {
              "internalType": "uint256",
              "name": "maxLevel",
              "type": "uint256"
            },
            {
              "internalType": "uint256",
              "name": "durability",
              "type": "uint256"
            },
            {
              "internalType": "uint256",
              "name": "classRequired",
              "type": "uint256"
            },
            {
              "internalType": "uint256",
              "name": "strengthRequired",
              "type": "uint256"
            },
            {
              "internalType": "uint256",
              "name": "agilityRequired",
              "type": "uint256"
            },
            {
              "internalType": "uint256",
              "name": "energyRequired",
              "type": "uint256"
            },
            {
              "internalType": "uint256",
              "name": "vitalityRequired",
              "type": "uint256"
            },
            {
              "internalType": "uint256",
              "name": "itemWidth",
              "type": "uint256"
            },
            {
              "internalType": "uint256",
              "name": "itemHeight",
              "type": "uint256"
            },
            {
              "internalType": "uint256",
              "name": "acceptableSlot1",
              "type": "uint256"
            },
            {
              "internalType": "uint256",
              "name": "acceptableSlot2",
              "type": "uint256"
            },
            {
              "internalType": "uint256",
              "name": "baseMinPhysicalDamage",
              "type": "uint256"
            },
            {
              "internalType": "uint256",
              "name": "baseMaxPhysicalDamage",
              "type": "uint256"
            },
            {
              "internalType": "uint256",
              "name": "baseMinMagicDamage",
              "type": "uint256"
            },
            {
              "internalType": "uint256",
              "name": "baseMaxMagicDamage",
              "type": "uint256"
            },
            {
              "internalType": "uint256",
              "name": "baseDefense",
              "type": "uint256"
            },
            {
              "internalType": "uint256",
              "name": "attackSpeed",
              "type": "uint256"
            },
            {
              "internalType": "uint256",
              "name": "additionalDamage",
              "type": "uint256"
            },
            {
              "internalType": "uint256",
              "name": "additionalDefense",
              "type": "uint256"
            },
            {
              "internalType": "uint256",
              "name": "fighterId",
              "type": "uint256"
            },
            {
              "internalType": "uint256",
              "name": "lastUpdBlock",
              "type": "uint256"
            },
            {
              "internalType": "uint256",
              "name": "itemRarityLevel",
              "type": "uint256"
            },
            {
              "internalType": "uint256",
              "name": "itemAttributesId",
              "type": "uint256"
            },
            {
              "internalType": "uint256",
              "name": "packSize",
              "type": "uint256"
            },
            {
              "internalType": "bool",
              "name": "luck",
              "type": "bool"
            },
            {
              "internalType": "bool",
              "name": "skill",
              "type": "bool"
            },
            {
              "internalType": "bool",
              "name": "isPackable",
              "type": "bool"
            },
            {
              "internalType": "bool",
              "name": "isBox",
              "type": "bool"
            },
            {
              "internalType": "bool",
              "name": "isWeapon",
              "type": "bool"
            },
            {
              "internalType": "bool",
              "name": "isArmour",
              "type": "bool"
            },
            {
              "internalType": "bool",
              "name": "isJewel",
              "type": "bool"
            },
            {
              "internalType": "bool",
              "name": "isWings",
              "type": "bool"
            },
            {
              "internalType": "bool",
              "name": "isMisc",
              "type": "bool"
            },
            {
              "internalType": "bool",
              "name": "isConsumable",
              "type": "bool"
            },
            {
              "internalType": "bool",
              "name": "inShop",
              "type": "bool"
            },
            {
              "internalType": "uint256",
              "name": "increaseAttackSpeedPoints",
              "type": "uint256"
            },
            {
              "internalType": "uint256",
              "name": "reflectDamagePercent",
              "type": "uint256"
            },
            {
              "internalType": "uint256",
              "name": "restoreHPChance",
              "type": "uint256"
            },
            {
              "internalType": "uint256",
              "name": "restoreMPChance",
              "type": "uint256"
            },
            {
              "internalType": "uint256",
              "name": "doubleDamageChance",
              "type": "uint256"
            },
            {
              "internalType": "uint256",
              "name": "ignoreOpponentDefenseChance",
              "type": "uint256"
            },
            {
              "internalType": "uint256",
              "name": "lifeAfterMonsterIncrease",
              "type": "uint256"
            },
            {
              "internalType": "uint256",
              "name": "manaAfterMonsterIncrease",
              "type": "uint256"
            },
            {
              "internalType": "uint256",
              "name": "excellentDamageProbabilityIncrease",
              "type": "uint256"
            },
            {
              "internalType": "uint256",
              "name": "attackSpeedIncrease",
              "type": "uint256"
            },
            {
              "internalType": "uint256",
              "name": "attackLvl20",
              "type": "uint256"
            },
            {
              "internalType": "uint256",
              "name": "attackIncreasePercent",
              "type": "uint256"
            },
            {
              "internalType": "uint256",
              "name": "defenseSuccessRateIncrease",
              "type": "uint256"
            },
            {
              "internalType": "uint256",
              "name": "goldAfterMonsterIncrease",
              "type": "uint256"
            },
            {
              "internalType": "uint256",
              "name": "reflectDamage",
              "type": "uint256"
            },
            {
              "internalType": "uint256",
              "name": "maxLifeIncrease",
              "type": "uint256"
            },
            {
              "internalType": "uint256",
              "name": "maxManaIncrease",
              "type": "uint256"
            },
            {
              "internalType": "uint256",
              "name": "hpRecoveryRateIncrease",
              "type": "uint256"
            },
            {
              "internalType": "uint256",
              "name": "mpRecoveryRateIncrease",
              "type": "uint256"
            },
            {
              "internalType": "uint256",
              "name": "decreaseDamageRateIncrease",
              "type": "uint256"
            }
          ],
          "internalType": "struct ItemsExcellentAtts.ExcellentItemAtts",
          "name": "atts",
          "type": "tuple"
        }
      ],
      "name": "setTokenAttributes",
      "outputs": [],
      "stateMutability": "nonpayable",
      "type": "function"
    },
    {
      "inputs": [
        {
          "components": [
            {
              "internalType": "string",
              "name": "name",
              "type": "string"
            },
            {
              "internalType": "uint256",
              "name": "tokenId",
              "type": "uint256"
            },
            {
              "internalType": "uint256",
              "name": "itemLevel",
              "type": "uint256"
            },
            {
              "internalType": "uint256",
              "name": "maxLevel",
              "type": "uint256"
            },
            {
              "internalType": "uint256",
              "name": "durability",
              "type": "uint256"
            },
            {
              "internalType": "uint256",
              "name": "classRequired",
              "type": "uint256"
            },
            {
              "internalType": "uint256",
              "name": "strengthRequired",
              "type": "uint256"
            },
            {
              "internalType": "uint256",
              "name": "agilityRequired",
              "type": "uint256"
            },
            {
              "internalType": "uint256",
              "name": "energyRequired",
              "type": "uint256"
            },
            {
              "internalType": "uint256",
              "name": "vitalityRequired",
              "type": "uint256"
            },
            {
              "internalType": "uint256",
              "name": "itemWidth",
              "type": "uint256"
            },
            {
              "internalType": "uint256",
              "name": "itemHeight",
              "type": "uint256"
            },
            {
              "internalType": "uint256",
              "name": "acceptableSlot1",
              "type": "uint256"
            },
            {
              "internalType": "uint256",
              "name": "acceptableSlot2",
              "type": "uint256"
            },
            {
              "internalType": "uint256",
              "name": "baseMinPhysicalDamage",
              "type": "uint256"
            },
            {
              "internalType": "uint256",
              "name": "baseMaxPhysicalDamage",
              "type": "uint256"
            },
            {
              "internalType": "uint256",
              "name": "baseMinMagicDamage",
              "type": "uint256"
            },
            {
              "internalType": "uint256",
              "name": "baseMaxMagicDamage",
              "type": "uint256"
            },
            {
              "internalType": "uint256",
              "name": "baseDefense",
              "type": "uint256"
            },
            {
              "internalType": "uint256",
              "name": "attackSpeed",
              "type": "uint256"
            },
            {
              "internalType": "uint256",
              "name": "additionalDamage",
              "type": "uint256"
            },
            {
              "internalType": "uint256",
              "name": "additionalDefense",
              "type": "uint256"
            },
            {
              "internalType": "uint256",
              "name": "fighterId",
              "type": "uint256"
            },
            {
              "internalType": "uint256",
              "name": "lastUpdBlock",
              "type": "uint256"
            },
            {
              "internalType": "uint256",
              "name": "itemRarityLevel",
              "type": "uint256"
            },
            {
              "internalType": "uint256",
              "name": "itemAttributesId",
              "type": "uint256"
            },
            {
              "internalType": "uint256",
              "name": "packSize",
              "type": "uint256"
            },
            {
              "internalType": "bool",
              "name": "luck",
              "type": "bool"
            },
            {
              "internalType": "bool",
              "name": "skill",
              "type": "bool"
            },
            {
              "internalType": "bool",
              "name": "isPackable",
              "type": "bool"
            },
            {
              "internalType": "bool",
              "name": "isBox",
              "type": "bool"
            },
            {
              "internalType": "bool",
              "name": "isWeapon",
              "type": "bool"
            },
            {
              "internalType": "bool",
              "name": "isArmour",
              "type": "bool"
            },
            {
              "internalType": "bool",
              "name": "isJewel",
              "type": "bool"
            },
            {
              "internalType": "bool",
              "name": "isWings",
              "type": "bool"
            },
            {
              "internalType": "bool",
              "name": "isMisc",
              "type": "bool"
            },
            {
              "internalType": "bool",
              "name": "isConsumable",
              "type": "bool"
            },
            {
              "internalType": "bool",
              "name": "inShop",
              "type": "bool"
            },
            {
              "internalType": "uint256",
              "name": "increaseAttackSpeedPoints",
              "type": "uint256"
            },
            {
              "internalType": "uint256",
              "name": "reflectDamagePercent",
              "type": "uint256"
            },
            {
              "internalType": "uint256",
              "name": "restoreHPChance",
              "type": "uint256"
            },
            {
              "internalType": "uint256",
              "name": "restoreMPChance",
              "type": "uint256"
            },
            {
              "internalType": "uint256",
              "name": "doubleDamageChance",
              "type": "uint256"
            },
            {
              "internalType": "uint256",
              "name": "ignoreOpponentDefenseChance",
              "type": "uint256"
            },
            {
              "internalType": "uint256",
              "name": "lifeAfterMonsterIncrease",
              "type": "uint256"
            },
            {
              "internalType": "uint256",
              "name": "manaAfterMonsterIncrease",
              "type": "uint256"
            },
            {
              "internalType": "uint256",
              "name": "excellentDamageProbabilityIncrease",
              "type": "uint256"
            },
            {
              "internalType": "uint256",
              "name": "attackSpeedIncrease",
              "type": "uint256"
            },
            {
              "internalType": "uint256",
              "name": "attackLvl20",
              "type": "uint256"
            },
            {
              "internalType": "uint256",
              "name": "attackIncreasePercent",
              "type": "uint256"
            },
            {
              "internalType": "uint256",
              "name": "defenseSuccessRateIncrease",
              "type": "uint256"
            },
            {
              "internalType": "uint256",
              "name": "goldAfterMonsterIncrease",
              "type": "uint256"
            },
            {
              "internalType": "uint256",
              "name": "reflectDamage",
              "type": "uint256"
            },
            {
              "internalType": "uint256",
              "name": "maxLifeIncrease",
              "type": "uint256"
            },
            {
              "internalType": "uint256",
              "name": "maxManaIncrease",
              "type": "uint256"
            },
            {
              "internalType": "uint256",
              "name": "hpRecoveryRateIncrease",
              "type": "uint256"
            },
            {
              "internalType": "uint256",
              "name": "mpRecoveryRateIncrease",
              "type": "uint256"
            },
            {
              "internalType": "uint256",
              "name": "decreaseDamageRateIncrease",
              "type": "uint256"
            }
          ],
          "internalType": "struct ItemsExcellentAtts.ExcellentItemAtts",
          "name": "excItem",
          "type": "tuple"
        }
      ],
      "name": "addExcellentOption",
      "outputs": [
        {
          "components": [
            {
              "internalType": "string",
              "name": "name",
              "type": "string"
            },
            {
              "internalType": "uint256",
              "name": "tokenId",
              "type": "uint256"
            },
            {
              "internalType": "uint256",
              "name": "itemLevel",
              "type": "uint256"
            },
            {
              "internalType": "uint256",
              "name": "maxLevel",
              "type": "uint256"
            },
            {
              "internalType": "uint256",
              "name": "durability",
              "type": "uint256"
            },
            {
              "internalType": "uint256",
              "name": "classRequired",
              "type": "uint256"
            },
            {
              "internalType": "uint256",
              "name": "strengthRequired",
              "type": "uint256"
            },
            {
              "internalType": "uint256",
              "name": "agilityRequired",
              "type": "uint256"
            },
            {
              "internalType": "uint256",
              "name": "energyRequired",
              "type": "uint256"
            },
            {
              "internalType": "uint256",
              "name": "vitalityRequired",
              "type": "uint256"
            },
            {
              "internalType": "uint256",
              "name": "itemWidth",
              "type": "uint256"
            },
            {
              "internalType": "uint256",
              "name": "itemHeight",
              "type": "uint256"
            },
            {
              "internalType": "uint256",
              "name": "acceptableSlot1",
              "type": "uint256"
            },
            {
              "internalType": "uint256",
              "name": "acceptableSlot2",
              "type": "uint256"
            },
            {
              "internalType": "uint256",
              "name": "baseMinPhysicalDamage",
              "type": "uint256"
            },
            {
              "internalType": "uint256",
              "name": "baseMaxPhysicalDamage",
              "type": "uint256"
            },
            {
              "internalType": "uint256",
              "name": "baseMinMagicDamage",
              "type": "uint256"
            },
            {
              "internalType": "uint256",
              "name": "baseMaxMagicDamage",
              "type": "uint256"
            },
            {
              "internalType": "uint256",
              "name": "baseDefense",
              "type": "uint256"
            },
            {
              "internalType": "uint256",
              "name": "attackSpeed",
              "type": "uint256"
            },
            {
              "internalType": "uint256",
              "name": "additionalDamage",
              "type": "uint256"
            },
            {
              "internalType": "uint256",
              "name": "additionalDefense",
              "type": "uint256"
            },
            {
              "internalType": "uint256",
              "name": "fighterId",
              "type": "uint256"
            },
            {
              "internalType": "uint256",
              "name": "lastUpdBlock",
              "type": "uint256"
            },
            {
              "internalType": "uint256",
              "name": "itemRarityLevel",
              "type": "uint256"
            },
            {
              "internalType": "uint256",
              "name": "itemAttributesId",
              "type": "uint256"
            },
            {
              "internalType": "uint256",
              "name": "packSize",
              "type": "uint256"
            },
            {
              "internalType": "bool",
              "name": "luck",
              "type": "bool"
            },
            {
              "internalType": "bool",
              "name": "skill",
              "type": "bool"
            },
            {
              "internalType": "bool",
              "name": "isPackable",
              "type": "bool"
            },
            {
              "internalType": "bool",
              "name": "isBox",
              "type": "bool"
            },
            {
              "internalType": "bool",
              "name": "isWeapon",
              "type": "bool"
            },
            {
              "internalType": "bool",
              "name": "isArmour",
              "type": "bool"
            },
            {
              "internalType": "bool",
              "name": "isJewel",
              "type": "bool"
            },
            {
              "internalType": "bool",
              "name": "isWings",
              "type": "bool"
            },
            {
              "internalType": "bool",
              "name": "isMisc",
              "type": "bool"
            },
            {
              "internalType": "bool",
              "name": "isConsumable",
              "type": "bool"
            },
            {
              "internalType": "bool",
              "name": "inShop",
              "type": "bool"
            },
            {
              "internalType": "uint256",
              "name": "increaseAttackSpeedPoints",
              "type": "uint256"
            },
            {
              "internalType": "uint256",
              "name": "reflectDamagePercent",
              "type": "uint256"
            },
            {
              "internalType": "uint256",
              "name": "restoreHPChance",
              "type": "uint256"
            },
            {
              "internalType": "uint256",
              "name": "restoreMPChance",
              "type": "uint256"
            },
            {
              "internalType": "uint256",
              "name": "doubleDamageChance",
              "type": "uint256"
            },
            {
              "internalType": "uint256",
              "name": "ignoreOpponentDefenseChance",
              "type": "uint256"
            },
            {
              "internalType": "uint256",
              "name": "lifeAfterMonsterIncrease",
              "type": "uint256"
            },
            {
              "internalType": "uint256",
              "name": "manaAfterMonsterIncrease",
              "type": "uint256"
            },
            {
              "internalType": "uint256",
              "name": "excellentDamageProbabilityIncrease",
              "type": "uint256"
            },
            {
              "internalType": "uint256",
              "name": "attackSpeedIncrease",
              "type": "uint256"
            },
            {
              "internalType": "uint256",
              "name": "attackLvl20",
              "type": "uint256"
            },
            {
              "internalType": "uint256",
              "name": "attackIncreasePercent",
              "type": "uint256"
            },
            {
              "internalType": "uint256",
              "name": "defenseSuccessRateIncrease",
              "type": "uint256"
            },
            {
              "internalType": "uint256",
              "name": "goldAfterMonsterIncrease",
              "type": "uint256"
            },
            {
              "internalType": "uint256",
              "name": "reflectDamage",
              "type": "uint256"
            },
            {
              "internalType": "uint256",
              "name": "maxLifeIncrease",
              "type": "uint256"
            },
            {
              "internalType": "uint256",
              "name": "maxManaIncrease",
              "type": "uint256"
            },
            {
              "internalType": "uint256",
              "name": "hpRecoveryRateIncrease",
              "type": "uint256"
            },
            {
              "internalType": "uint256",
              "name": "mpRecoveryRateIncrease",
              "type": "uint256"
            },
            {
              "internalType": "uint256",
              "name": "decreaseDamageRateIncrease",
              "type": "uint256"
            }
          ],
          "internalType": "struct ItemsExcellentAtts.ExcellentItemAtts",
          "name": "newItem",
          "type": "tuple"
        }
      ],
      "stateMutability": "nonpayable",
      "type": "function"
    }
  ],
  "bytecode": "0x60646000908155601c6001818155603260028181556003918255601e60048190556005818155600692909255600793909355600894909455600f608081905260a081905260c083905260e0839052610100859052610120829052610140819052600a818155600b829055600c849055600d849055600e95909555908155601081905560236101608190526101808190526101a08590526101c08590526101e0859052610200859052610220829052601181905560125560138490556014848155601585905560168590556017919091556103606040526102408490526102608190526102808490526102a08490526102c08490526102e08490526103008490526103208490526103408290526018849055601955601a839055601b83905590829055601d829055818155601f919091556020553480156200013f57600080fd5b506040516200282538038062002825833981016040819052620001629162000188565b600980546001600160a01b0319166001600160a01b0392909216919091179055620001ba565b6000602082840312156200019b57600080fd5b81516001600160a01b0381168114620001b357600080fd5b9392505050565b61265b80620001ca6000396000f3fe608060405234801561001057600080fd5b50600436106100f45760003560e01c80637ae2b5c711610097578063b37217a411610066578063b37217a4146102e6578063b416dad6146102f9578063d05c78da14610344578063e6cb90131461035757600080fd5b80637ae2b5c71461022d57806383302ff7146102405780639088d14014610253578063a293d1e8146102d357600080fd5b80635ff59013116100d35780635ff59013146101525780636995795b146101675780636d5433e61461017a578063740cf1dc1461018d57600080fd5b80629df65b146100f95780631f4f5a231461011f5780635a4288241461013f575b600080fd5b61010c610107366004611510565b61036a565b6040519081526020015b60405180910390f35b61013261012d366004611532565b6103b4565b604051610116919061159b565b61013261014d366004611a2b565b61044f565b610165610160366004611f92565b610796565b005b610132610175366004611532565b6109cd565b61010c610188366004611510565b610a59565b6101e961019b366004611532565b60236020528060005260406000206000915090508060000154908060010154908060020154908060030154908060040154908060050154908060060154908060070154908060080154905089565b60408051998a5260208a0198909852968801959095526060870193909352608086019190915260a085015260c084015260e083015261010082015261012001610116565b61010c61023b366004611510565b610a6f565b61013261024e366004611fd9565b610a7e565b61029e610261366004611532565b6021602052600090815260409020805460018201546002830154600384015460048501546005860154600690960154949593949293919290919087565b604080519788526020880196909652948601939093526060850191909152608084015260a083015260c082015260e001610116565b61010c6102e1366004611510565b610b08565b61010c6102f4366004611532565b610b24565b61029e610307366004611532565b6022602052600090815260409020805460018201546002830154600384015460048501546005860154600690960154949593949293919290919087565b61010c610352366004611510565b610b65565b61010c610365366004611510565b610b95565b600080448443423360405160200161038695949392919061200e565b60408051601f19818403018152919052805160209091012090506103aa838261205b565b9150505b92915050565b6103bc61122a565b600954604051631f4f5a2360e01b8152600481018490526000916001600160a01b031690631f4f5a2390602401600060405180830381865afa158015610406573d6000803e3d6000fd5b505050506040513d6000823e601f3d908101601f1916820160405261042e91908101906120bf565b9050600061043b8261044f565b90506104478185610bbf565b949350505050565b61045761122a565b61045f61122a565b82518152602080840180518284015260408086015181850152606080870151908501526080808701519085015260a0808701519085015260c0808701519085015260e08087015190850152610100808701519085015261012080870151908501526101408087015190850152610160808701519085015261018080870151908501526101a080870151908501526101c080870151908501526101e08087015190850152610200808701519085015261022080870151908501526102408087015190850152610260808701519085015261028080870151908501526102a080870151908501526102c080870151908501526102e0808701519085015261030080870151908501526103208087015190850152610340808701519085015261036080870151151590850152610380808701511515908501526103a0808701511515908501526103c0808701511515908501526103e080870151151590850152610400808701511515908501526104208087015115159085015261044080870151151590850152610460808701511515908501526104a095860151151595840195909552805160009081526021808452868220546104c0860152825182528084528682206001908101546104e08701528351835281855287832060029081015461050088015284518452828652888420600390810154610520890152855185528387528985206004908101546105408a0152865186529387528985206005908101546105608a01528651865260228089528b8720546105808b0152875187528089528b87208501546105a08b0152875187528089528b87208401546105c08b0152875187528089528b87208301546105e08b0152875187528089528b87208601546106008b01528751875288528a86208101546106208a01528651865260238089528b8720546106408b0152875187528089528b8720909401546106608a0152865186528388528a8620909201546106808901528551855282875289852001546106a088015284518452818652888420909201546106c087015283518352808552878320909101546106e0860152825182528084528682206006015461070086015291518152915292909220600701546107208301525090565b60095460405163843bd64160e01b8152600481018490526001600160a01b039091169063843bd64190602401602060405180830381865afa1580156107df573d6000803e3d6000fd5b505050506040513d601f19601f820116820180604052508101906108039190612313565b61084a5760405162461bcd60e51b8152602060048201526014602482015273151bdad95b88191bd95cc81b9bdd08195e1a5cdd60621b604482015260640160405180910390fd5b600061085582610cc0565b60095460405163e9dbd3eb60e01b81529192506001600160a01b03169063e9dbd3eb906108889086908590600401612330565b600060405180830381600087803b1580156108a257600080fd5b505af11580156108b6573d6000803e3d6000fd5b505050506109c883836104c081015160009283526021602090815260408085209283556104e084015160018085019190915561050085015160028086019190915561052086015160038087019190915561054087015160048088019190915561056088015160059788015561058088015160228752858a209081556105a0890151818601556105c0890151818501556105e089015181840155610600890151818301556106208901519088015561064088015160239096529390972093845561066086015191840191909155610680850151908301556106a0840151948201949094556106c0830151938101939093556106e08201519083015561070081015160068301556107200151600790910155565b505050565b6109d561122a565b600954604051636995795b60e01b8152600481018490526000916001600160a01b031690636995795b90602401600060405180830381865afa158015610a1f573d6000803e3d6000fd5b505050506040513d6000823e601f3d908101601f19168201604052610a4791908101906120bf565b9050610a528161044f565b9392505050565b6000818311610a685781610a52565b5090919050565b6000818310610a685781610a52565b610a8661122a565b600060408301526103e082015115610ad2576001610380830152610aab82600b610e74565b601754909250610abb600c610b24565b11610ace57610acb82600d610e74565b91505b5090565b81610400015115610ace57610ae882600e610fe5565b602054909250610af8600f610b24565b11610ace57610acb826010610fe5565b600082821115610b1a57610b1a6125a8565b610a5282846125d4565b6000804483434233604051602001610b4095949392919061200e565b60408051601f1981840301815291905280516020909101209050610a5260648261205b565b600080610b7283856125e7565b9050831580610b89575082610b8785836125fe565b145b610a5257610a526125a8565b600080610ba28385612612565b9050838110158015610b89575082811015610a5257610a526125a8565b610bc761122a565b50600081815260216020908152604080832080546104c08701526001808201546104e08801526002808301546105008901526003808401546105208a01526004808501546105408b01526005948501546105608b01528888526022875285882080546105808c0152808501546105a08c0152808401546105c08c0152808301546105e08c0152808201546106008c01528501546106208b0152888852602380885295882080546106408c0152938401546106608b0152918301546106808a01528201546106a08901528101546106c0880152908101546106e0870152600681015461070087015293909252526007015461072082015290565b610cc86113e3565b610cd06113e3565b825181526020808401519082015260408084015190820152606080840151908201526080808401519082015260a0808401519082015260c0808401519082015260e08084015190820152610100808401519082015261012080840151908201526101408084015190820152610160808401519082015261018080840151908201526101a080840151908201526101c080840151908201526101e08084015190820152610200808401519082015261022080840151908201526102408084015190820152610260808401519082015261028080840151908201526102a080840151908201526102c080840151908201526102e0808401519082015261030080840151908201526103208084015190820152610340808401519082015261036080840151151590820152610380808401511515908201526103a0808401511515908201526103c0808401511515908201526103e080840151151590820152610400808401511515908201526104208084015115159082015261044080840151151590820152610460808401511515908201526104a0928301511515928101929092525090565b610e7c61122a565b6000610e8783610b24565b601654601554601454601354601254601154959650600095610ea99190612612565b610eb39190612612565b610ebd9190612612565b610ec79190612612565b610ed19190612612565b90506000610edf828461205b565b6011549091508111610ef8576001610580870152610fdb565b601254601154610f089190612612565b8111610f1b5760016105a0870152610fdb565b601354601254601154610f2e9190612612565b610f389190612612565b8111610f4b5760016105c0870152610fdb565b601454601354601254601154610f619190612612565b610f6b9190612612565b610f759190612612565b8111610f885760016105e0870152610fdb565b601554601454601354601254601154610fa19190612612565b610fab9190612612565b610fb59190612612565b610fbf9190612612565b8111610fd2576001610600870152610fdb565b60016106208701525b5093949350505050565b610fed61122a565b6000610ff883610b24565b601f54601e54601d54601c54601b54601a546019546018549798506000976110209190612612565b61102a9190612612565b6110349190612612565b61103e9190612612565b6110489190612612565b6110529190612612565b61105c9190612612565b9050600061106a828461205b565b6018549091508111611083576001610640870152610fdb565b6019546018546110939190612612565b81116110a6576001610660870152610fdb565b601a546019546018546110b99190612612565b6110c39190612612565b81116110d6576001610680870152610fdb565b601b54601a546019546018546110ec9190612612565b6110f69190612612565b6111009190612612565b81116111135760016106a0870152610fdb565b601c54601b54601a5460195460185461112c9190612612565b6111369190612612565b6111409190612612565b61114a9190612612565b811161115d5760016106c0870152610fdb565b601d54601c54601b54601a546019546018546111799190612612565b6111839190612612565b61118d9190612612565b6111979190612612565b6111a19190612612565b81116111b45760016106e0870152610fdb565b601e54601d54601c54601b54601a546019546018546111d39190612612565b6111dd9190612612565b6111e79190612612565b6111f19190612612565b6111fb9190612612565b6112059190612612565b8111611218576001610700870152610fdb565b50506001610720850152509192915050565b60405180610740016040528060608152602001600081526020016000815260200160008152602001600081526020016000815260200160008152602001600081526020016000815260200160008152602001600081526020016000815260200160008152602001600081526020016000815260200160008152602001600081526020016000815260200160008152602001600081526020016000815260200160008152602001600081526020016000815260200160008152602001600081526020016000815260200160001515815260200160001515815260200160001515815260200160001515815260200160001515815260200160001515815260200160001515815260200160001515815260200160001515815260200160001515815260200160001515815260200160008152602001600081526020016000815260200160008152602001600081526020016000815260200160008152602001600081526020016000815260200160008152602001600081526020016000815260200160008152602001600081526020016000815260200160008152602001600081526020016000815260200160008152602001600081525090565b604051806104c001604052806060815260200160008152602001600081526020016000815260200160008152602001600081526020016000815260200160008152602001600081526020016000815260200160008152602001600081526020016000815260200160008152602001600081526020016000815260200160008152602001600081526020016000815260200160008152602001600081526020016000815260200160008152602001600081526020016000815260200160008152602001600081526020016000151581526020016000151581526020016000151581526020016000151581526020016000151581526020016000151581526020016000151581526020016000151581526020016000151581526020016000151581526020016000151581525090565b6000806040838503121561152357600080fd5b50508035926020909101359150565b60006020828403121561154457600080fd5b5035919050565b60005b8381101561156657818101518382015260200161154e565b50506000910152565b6000815180845261158781602086016020860161154b565b601f01601f19169290920160200192915050565b60208152600082516107408060208501526115ba61076085018361156f565b602086015160408681019190915286015160608087019190915286015160808087019190915286015160a08087019190915286015160c08087019190915286015160e08087019190915286015161010080870191909152860151610120808701919091528601516101408087019190915286015161016080870191909152860151610180808701919091528601516101a0808701919091528601516101c0808701919091528601516101e08087019190915286015161020080870191909152860151610220808701919091528601516102408087019190915286015161026080870191909152860151610280808701919091528601516102a0808701919091528601516102c0808701919091528601516102e0808701919091528601516103008087019190915286015161032080870191909152860151610340808701919091528601516103608087019190915286015190925061038061171e8187018315159052565b86015190506103a06117338682018315159052565b86015190506103c06117488682018315159052565b86015190506103e061175d8682018315159052565b86015190506104006117728682018315159052565b86015190506104206117878682018315159052565b860151905061044061179c8682018315159052565b86015190506104606117b18682018315159052565b86015190506104806117c68682018315159052565b86015190506104a06117db8682018315159052565b86015190506104c06117f08682018315159052565b8601516104e08681019190915286015161050080870191909152860151610520808701919091528601516105408087019190915286015161056080870191909152860151610580808701919091528601516105a0808701919091528601516105c0808701919091528601516105e08087019190915286015161060080870191909152860151610620808701919091528601516106408087019190915286015161066080870191909152860151610680808701919091528601516106a0808701919091528601516106c0808701919091528601516106e08087019190915286015161070080870191909152860151610720808701919091529095015193019290925250919050565b634e487b7160e01b600052604160045260246000fd5b6040516104c0810167ffffffffffffffff81118282101715611931576119316118f7565b60405290565b604051610740810167ffffffffffffffff81118282101715611931576119316118f7565b604051601f8201601f1916810167ffffffffffffffff81118282101715611984576119846118f7565b604052919050565b600067ffffffffffffffff8211156119a6576119a66118f7565b50601f01601f191660200190565b600082601f8301126119c557600080fd5b81356119d86119d38261198c565b61195b565b8181528460208386010111156119ed57600080fd5b816020850160208301376000918101602001919091529392505050565b8015158114611a1857600080fd5b50565b8035611a2681611a0a565b919050565b600060208284031215611a3d57600080fd5b813567ffffffffffffffff80821115611a5557600080fd5b908301906104c08286031215611a6a57600080fd5b611a7261190d565b823582811115611a8157600080fd5b611a8d878286016119b4565b8252506020838101359082015260408084013590820152606080840135908201526080808401359082015260a0808401359082015260c0808401359082015260e08084013590820152610100808401359082015261012080840135908201526101408084013590820152610160808401359082015261018080840135908201526101a080840135908201526101c080840135908201526101e08084013590820152610200808401359082015261022080840135908201526102408084013590820152610260808401359082015261028080840135908201526102a080840135908201526102c080840135908201526102e080840135908201526103008084013590820152610320808401359082015261034080840135908201526103609150611bb7828401611a1b565b828201526103809150611bcb828401611a1b565b828201526103a09150611bdf828401611a1b565b828201526103c09150611bf3828401611a1b565b828201526103e09150611c07828401611a1b565b828201526104009150611c1b828401611a1b565b828201526104209150611c2f828401611a1b565b828201526104409150611c43828401611a1b565b828201526104609150611c57828401611a1b565b828201526104809150611c6b828401611a1b565b828201526104a09150611c7f828401611a1b565b91810191909152949350505050565b60006107408284031215611ca157600080fd5b611ca9611937565b9050813567ffffffffffffffff811115611cc257600080fd5b611cce848285016119b4565b8252506020828101359082015260408083013590820152606080830135908201526080808301359082015260a0808301359082015260c0808301359082015260e08083013590820152610100808301359082015261012080830135908201526101408083013590820152610160808301359082015261018080830135908201526101a080830135908201526101c080830135908201526101e08083013590820152610200808301359082015261022080830135908201526102408083013590820152610260808301359082015261028080830135908201526102a080830135908201526102c080830135908201526102e08083013590820152610300808301359082015261032080830135908201526103408083013590820152610360611df6818401611a1b565b90820152610380611e08838201611a1b565b908201526103a0611e1a838201611a1b565b908201526103c0611e2c838201611a1b565b908201526103e0611e3e838201611a1b565b90820152610400611e50838201611a1b565b90820152610420611e62838201611a1b565b90820152610440611e74838201611a1b565b90820152610460611e86838201611a1b565b90820152610480611e98838201611a1b565b908201526104a0611eaa838201611a1b565b908201526104c082810135908201526104e08083013590820152610500808301359082015261052080830135908201526105408083013590820152610560808301359082015261058080830135908201526105a080830135908201526105c080830135908201526105e08083013590820152610600808301359082015261062080830135908201526106408083013590820152610660808301359082015261068080830135908201526106a080830135908201526106c080830135908201526106e0808301359082015261070080830135908201526107209182013591810191909152919050565b60008060408385031215611fa557600080fd5b82359150602083013567ffffffffffffffff811115611fc357600080fd5b611fcf85828601611c8e565b9150509250929050565b600060208284031215611feb57600080fd5b813567ffffffffffffffff81111561200257600080fd5b6103aa84828501611c8e565b948552602085019390935260408401919091526060808401919091521b6bffffffffffffffffffffffff1916608082015260940190565b634e487b7160e01b600052601260045260246000fd5b60008261206a5761206a612045565b500690565b600082601f83011261208057600080fd5b815161208e6119d38261198c565b8181528460208386010111156120a357600080fd5b61044782602083016020870161154b565b8051611a2681611a0a565b6000602082840312156120d157600080fd5b815167ffffffffffffffff808211156120e957600080fd5b908301906104c082860312156120fe57600080fd5b61210661190d565b82518281111561211557600080fd5b6121218782860161206f565b8252506020838101519082015260408084015190820152606080840151908201526080808401519082015260a0808401519082015260c0808401519082015260e08084015190820152610100808401519082015261012080840151908201526101408084015190820152610160808401519082015261018080840151908201526101a080840151908201526101c080840151908201526101e08084015190820152610200808401519082015261022080840151908201526102408084015190820152610260808401519082015261028080840151908201526102a080840151908201526102c080840151908201526102e08084015190820152610300808401519082015261032080840151908201526103408084015190820152610360915061224b8284016120b4565b82820152610380915061225f8284016120b4565b828201526103a091506122738284016120b4565b828201526103c091506122878284016120b4565b828201526103e0915061229b8284016120b4565b8282015261040091506122af8284016120b4565b8282015261042091506122c38284016120b4565b8282015261044091506122d78284016120b4565b8282015261046091506122eb8284016120b4565b8282015261048091506122ff8284016120b4565b828201526104a09150611c7f8284016120b4565b60006020828403121561232557600080fd5b8151610a5281611a0a565b82815260406020820152600082516104c080604085015261235561050085018361156f565b602086015160608681019190915260408701516080808801919091529087015160a0808801919091529087015160c0808801919091529087015160e08088019190915290870151610100808801919091529087015161012080880191909152908701516101408088019190915290870151610160808801919091529087015161018080880191909152908701516101a080880191909152908701516101c080880191909152908701516101e08088019190915290870151610200808801919091529087015161022080880191909152908701516102408088019190915290870151610260808801919091529087015161028080880191909152908701516102a080880191909152908701516102c080880191909152908701516102e08088019190915290870151610300808801919091529087015161032080880191909152908701516103408088019190915290870151610360808801919091529087015161038080880191909152908701519193506103a06124d58188018415159052565b9087015191506103c0906124ec8783018415159052565b87015191506103e06125018782018415159052565b908701519150610400906125188783018415159052565b870151915061042061252d8782018415159052565b908701519150610440906125448783018415159052565b87015191506104606125598782018415159052565b908701519150610480906125708783018415159052565b87015191506104a06125858782018415159052565b90870151151592860192909252508401518015156104e085015250949350505050565b634e487b7160e01b600052600160045260246000fd5b634e487b7160e01b600052601160045260246000fd5b818103818111156103ae576103ae6125be565b80820281158282048414176103ae576103ae6125be565b60008261260d5761260d612045565b500490565b808201808211156103ae576103ae6125be56fea2646970667358221220d4a9d2bb6e1bde3837a6807eafa6ed953b40913e2a154494557ed92d14f5319f64736f6c63430008130033",
  "immutableReferences": {},
  "source": "// SPDX-License-Identifier: MIT\npragma solidity ^0.8.18;\n\nimport \"./SafeMath.sol\";\nimport \"./ItemsExcellentAtts.sol\";\nimport \"./Items.sol\";\n\ncontract ItemsExcellent is ItemsExcellentAtts, SafeMath {  \n    Items private _items;\n\n    constructor(address itemsAddress) {\n        _items = Items(itemsAddress);\n    }\n\n    struct WingsExcOptions {\n        uint256 increaseAttackSpeedPoints;\n        uint256 reflectDamagePercent;\n        uint256 restoreHPChance;\n        uint256 restoreMPChance;\n        uint256 doubleDamageChance;\n        uint256 ignoreOpponentDefenseChance;\n\n        uint256 doubleOptionChance;\n    }\n\n    WingsExcOptions WingsExcOptionsDropRates = WingsExcOptions({\n        increaseAttackSpeedPoints: 15,\n        reflectDamagePercent: 15,\n        restoreHPChance: 30,\n        restoreMPChance: 30,\n        doubleDamageChance: 5,\n        ignoreOpponentDefenseChance: 3,\n\n        doubleOptionChance: 15\n    });\n\n\n    struct WeaponsExcOptions {\n        uint256 lifeAfterMonsterIncrease;\n        uint256 manaAfterMonsterIncrease;\n        uint256 excellentDamageProbabilityIncrease;\n        uint256 attackSpeedIncrease;\n        uint256 attackLvl20; \n        uint256 attackIncreasePercent; \n\n        uint256 doubleOptionChance;\n    }\n\n    WeaponsExcOptions WeaponsExcOptionsDropRates = WeaponsExcOptions({\n        lifeAfterMonsterIncrease: 35,\n        manaAfterMonsterIncrease: 35,\n        excellentDamageProbabilityIncrease: 10,\n        attackSpeedIncrease: 10,\n        attackLvl20: 10,\n        attackIncreasePercent: 10,\n\n        doubleOptionChance: 15\n    });\n\n    struct ArmoursExcOptions {\n        uint256 defenseSuccessRateIncrease;\n        uint256 goldAfterMonsterIncrease;\n        uint256 reflectDamage;\n        uint256 maxLifeIncrease;\n        uint256 maxManaIncrease;\n        uint256 hpRecoveryRateIncrease;\n        uint256 mpRecoveryRateIncrease;\n        uint256 decreaseDamageRateIncrease;\n\n        uint256 doubleOptionChance;\n    }\n\n    ArmoursExcOptions ArmourExcOptionsDropRates = ArmoursExcOptions({\n        defenseSuccessRateIncrease: 10,\n        goldAfterMonsterIncrease: 20,\n        reflectDamage: 10,\n        maxLifeIncrease: 10,\n        maxManaIncrease: 10,\n        hpRecoveryRateIncrease: 10,\n        mpRecoveryRateIncrease: 10,\n        decreaseDamageRateIncrease: 10,\n\n        doubleOptionChance: 30\n    });\n\n\n    mapping (uint256 => WingsExcOptions) public WingsExcOpts;\n    mapping (uint256 => WeaponsExcOptions) public WeaponsExcOpts;\n    mapping (uint256 => ArmoursExcOptions) public ArmoursExcOpts;\n\n    function convertToExcellent(ItemAttributes memory item) public view returns (ExcellentItemAtts memory) {\n        ExcellentItemAtts memory excellentItem;\n\n        // Copy original properties\n        excellentItem.name = item.name;\n        excellentItem.tokenId = item.tokenId;        \n        excellentItem.itemLevel = item.itemLevel;\n        excellentItem.maxLevel = item.maxLevel;\n        excellentItem.durability = item.durability;\n        excellentItem.classRequired = item.classRequired;\n        excellentItem.strengthRequired = item.strengthRequired;\n        excellentItem.agilityRequired = item.agilityRequired;\n        excellentItem.energyRequired = item.energyRequired;\n        excellentItem.vitalityRequired = item.vitalityRequired;\n        excellentItem.itemWidth = item.itemWidth;\n        excellentItem.itemHeight = item.itemHeight;\n        excellentItem.acceptableSlot1 = item.acceptableSlot1;\n        excellentItem.acceptableSlot2 = item.acceptableSlot2;\n        excellentItem.baseMinPhysicalDamage = item.baseMinPhysicalDamage;\n        excellentItem.baseMaxPhysicalDamage = item.baseMaxPhysicalDamage;\n        excellentItem.baseMinMagicDamage = item.baseMinMagicDamage;\n        excellentItem.baseMaxMagicDamage = item.baseMaxMagicDamage;\n        excellentItem.baseDefense = item.baseDefense;\n        excellentItem.attackSpeed = item.attackSpeed;\n        excellentItem.additionalDamage = item.additionalDamage;\n        excellentItem.additionalDefense = item.additionalDefense;\n        excellentItem.fighterId = item.fighterId;\n        excellentItem.lastUpdBlock = item.lastUpdBlock;\n        excellentItem.itemRarityLevel = item.itemRarityLevel;\n        excellentItem.itemAttributesId = item.itemAttributesId;\n        excellentItem.packSize = item.packSize;\n        excellentItem.luck = item.luck;\n        excellentItem.skill = item.skill;\n        excellentItem.isPackable = item.isPackable;\n        excellentItem.isBox = item.isBox;\n        excellentItem.isWeapon = item.isWeapon;\n        excellentItem.isArmour = item.isArmour;\n        excellentItem.isJewel = item.isJewel;\n        excellentItem.isWings = item.isWings;\n        excellentItem.isMisc = item.isMisc;\n        excellentItem.inShop = item.inShop;\n\n        // Wings\n        excellentItem.increaseAttackSpeedPoints = WingsExcOpts[item.tokenId].increaseAttackSpeedPoints;\n        excellentItem.reflectDamagePercent = WingsExcOpts[item.tokenId].reflectDamagePercent;\n        excellentItem.restoreHPChance = WingsExcOpts[item.tokenId].restoreHPChance;\n        excellentItem.restoreMPChance = WingsExcOpts[item.tokenId].restoreMPChance;\n        excellentItem.doubleDamageChance = WingsExcOpts[item.tokenId].doubleDamageChance;\n        excellentItem.ignoreOpponentDefenseChance = WingsExcOpts[item.tokenId].ignoreOpponentDefenseChance;\n\n        // Weapons\n        excellentItem.lifeAfterMonsterIncrease = WeaponsExcOpts[item.tokenId].lifeAfterMonsterIncrease;\n        excellentItem.manaAfterMonsterIncrease = WeaponsExcOpts[item.tokenId].manaAfterMonsterIncrease;\n        excellentItem.excellentDamageProbabilityIncrease = WeaponsExcOpts[item.tokenId].excellentDamageProbabilityIncrease;\n        excellentItem.attackSpeedIncrease = WeaponsExcOpts[item.tokenId].attackSpeedIncrease;\n        excellentItem.attackLvl20 = WeaponsExcOpts[item.tokenId].attackLvl20;\n        excellentItem.attackIncreasePercent = WeaponsExcOpts[item.tokenId].attackIncreasePercent;\n\n        // Armour\n        excellentItem.defenseSuccessRateIncrease = ArmoursExcOpts[item.tokenId].defenseSuccessRateIncrease;\n        excellentItem.goldAfterMonsterIncrease = ArmoursExcOpts[item.tokenId].goldAfterMonsterIncrease;\n        excellentItem.reflectDamage = ArmoursExcOpts[item.tokenId].reflectDamage;\n        excellentItem.maxLifeIncrease = ArmoursExcOpts[item.tokenId].maxLifeIncrease;\n        excellentItem.maxManaIncrease = ArmoursExcOpts[item.tokenId].maxManaIncrease;\n        excellentItem.hpRecoveryRateIncrease = ArmoursExcOpts[item.tokenId].hpRecoveryRateIncrease;\n        excellentItem.mpRecoveryRateIncrease = ArmoursExcOpts[item.tokenId].mpRecoveryRateIncrease;\n        excellentItem.decreaseDamageRateIncrease = ArmoursExcOpts[item.tokenId].decreaseDamageRateIncrease;\n\n        return excellentItem;\n    }\n\n    function assignExcellentAtts(ExcellentItemAtts memory a, uint256 tokenId) internal returns (ExcellentItemAtts memory) {\n        a.increaseAttackSpeedPoints = WingsExcOpts[tokenId].increaseAttackSpeedPoints;\n        a.reflectDamagePercent = WingsExcOpts[tokenId].reflectDamagePercent;\n        a.restoreHPChance = WingsExcOpts[tokenId].restoreHPChance;\n        a.restoreMPChance = WingsExcOpts[tokenId].restoreMPChance;\n        a.doubleDamageChance = WingsExcOpts[tokenId].doubleDamageChance;\n        a.ignoreOpponentDefenseChance = WingsExcOpts[tokenId].ignoreOpponentDefenseChance;\n\n\n        a.lifeAfterMonsterIncrease = WeaponsExcOpts[tokenId].lifeAfterMonsterIncrease;\n        a.manaAfterMonsterIncrease = WeaponsExcOpts[tokenId].manaAfterMonsterIncrease;\n        a.excellentDamageProbabilityIncrease = WeaponsExcOpts[tokenId].excellentDamageProbabilityIncrease;\n        a.attackSpeedIncrease = WeaponsExcOpts[tokenId].attackSpeedIncrease;\n        a.attackLvl20 = WeaponsExcOpts[tokenId].attackLvl20;\n        a.attackIncreasePercent = WeaponsExcOpts[tokenId].attackIncreasePercent;\n\n\n        a.defenseSuccessRateIncrease = ArmoursExcOpts[tokenId].defenseSuccessRateIncrease;\n        a.goldAfterMonsterIncrease = ArmoursExcOpts[tokenId].goldAfterMonsterIncrease;\n        a.reflectDamage = ArmoursExcOpts[tokenId].reflectDamage;\n        a.maxLifeIncrease = ArmoursExcOpts[tokenId].maxLifeIncrease;\n        a.maxManaIncrease = ArmoursExcOpts[tokenId].maxManaIncrease;\n        a.hpRecoveryRateIncrease = ArmoursExcOpts[tokenId].hpRecoveryRateIncrease;\n        a.mpRecoveryRateIncrease = ArmoursExcOpts[tokenId].mpRecoveryRateIncrease;\n        a.decreaseDamageRateIncrease = ArmoursExcOpts[tokenId].decreaseDamageRateIncrease;\n\n        return a;\n    }\n\n    function convertToItemAttributes(ExcellentItemAtts memory eia) internal pure returns (ItemAttributes memory) {\n        ItemAttributes memory ia;\n\n        ia.name = eia.name;\n        ia.tokenId = eia.tokenId;\n        ia.itemLevel = eia.itemLevel;\n        ia.maxLevel = eia.maxLevel;\n        ia.durability = eia.durability;\n        ia.classRequired = eia.classRequired;\n        ia.strengthRequired = eia.strengthRequired;\n        ia.agilityRequired = eia.agilityRequired;\n        ia.energyRequired = eia.energyRequired;\n        ia.vitalityRequired = eia.vitalityRequired;\n        ia.itemWidth = eia.itemWidth;\n        ia.itemHeight = eia.itemHeight;\n        ia.acceptableSlot1 = eia.acceptableSlot1;\n        ia.acceptableSlot2 = eia.acceptableSlot2;\n\n        ia.baseMinPhysicalDamage = eia.baseMinPhysicalDamage;\n        ia.baseMaxPhysicalDamage = eia.baseMaxPhysicalDamage;\n        ia.baseMinMagicDamage = eia.baseMinMagicDamage;\n        ia.baseMaxMagicDamage = eia.baseMaxMagicDamage;\n        ia.baseDefense = eia.baseDefense;\n        ia.attackSpeed = eia.attackSpeed;\n\n        ia.additionalDamage = eia.additionalDamage;\n        ia.additionalDefense = eia.additionalDefense;\n\n        ia.fighterId = eia.fighterId;\n        ia.lastUpdBlock = eia.lastUpdBlock;\n        ia.itemRarityLevel = eia.itemRarityLevel;\n\n        ia.itemAttributesId = eia.itemAttributesId;\n        ia.packSize = eia.packSize;\n\n        ia.luck = eia.luck;\n        ia.skill = eia.skill;\n        ia.isPackable = eia.isPackable;\n\n        ia.isBox = eia.isBox;\n        ia.isWeapon = eia.isWeapon;\n        ia.isArmour = eia.isArmour;\n        ia.isJewel = eia.isJewel;\n        ia.isWings = eia.isWings;\n        ia.isMisc = eia.isMisc;\n        ia.inShop = eia.inShop;\n\n        return ia;\n    }\n\n\n    function reverseAssignExcellentAtts(uint256 tokenId, ExcellentItemAtts memory a) internal {\n        WingsExcOpts[tokenId].increaseAttackSpeedPoints = a.increaseAttackSpeedPoints;\n        WingsExcOpts[tokenId].reflectDamagePercent = a.reflectDamagePercent;\n        WingsExcOpts[tokenId].restoreHPChance = a.restoreHPChance;\n        WingsExcOpts[tokenId].restoreMPChance = a.restoreMPChance;\n        WingsExcOpts[tokenId].doubleDamageChance = a.doubleDamageChance;\n        WingsExcOpts[tokenId].ignoreOpponentDefenseChance = a.ignoreOpponentDefenseChance;\n\n        WeaponsExcOpts[tokenId].lifeAfterMonsterIncrease = a.lifeAfterMonsterIncrease;\n        WeaponsExcOpts[tokenId].manaAfterMonsterIncrease = a.manaAfterMonsterIncrease;\n        WeaponsExcOpts[tokenId].excellentDamageProbabilityIncrease = a.excellentDamageProbabilityIncrease;\n        WeaponsExcOpts[tokenId].attackSpeedIncrease = a.attackSpeedIncrease;\n        WeaponsExcOpts[tokenId].attackLvl20 = a.attackLvl20;\n        WeaponsExcOpts[tokenId].attackIncreasePercent = a.attackIncreasePercent;\n\n        ArmoursExcOpts[tokenId].defenseSuccessRateIncrease = a.defenseSuccessRateIncrease;\n        ArmoursExcOpts[tokenId].goldAfterMonsterIncrease = a.goldAfterMonsterIncrease;\n        ArmoursExcOpts[tokenId].reflectDamage = a.reflectDamage;\n        ArmoursExcOpts[tokenId].maxLifeIncrease = a.maxLifeIncrease;\n        ArmoursExcOpts[tokenId].maxManaIncrease = a.maxManaIncrease;\n        ArmoursExcOpts[tokenId].hpRecoveryRateIncrease = a.hpRecoveryRateIncrease;\n        ArmoursExcOpts[tokenId].mpRecoveryRateIncrease = a.mpRecoveryRateIncrease;\n        ArmoursExcOpts[tokenId].decreaseDamageRateIncrease = a.decreaseDamageRateIncrease;\n    }\n\n\n\n\n    function getItemAttributes(uint256 itemId) external returns (ExcellentItemAtts memory) {\n        ItemAttributes memory itemAtts = _items.getItemAttributes(itemId);\n        return convertToExcellent(itemAtts);\n    }\n\n    function getTokenAttributes(uint256 tokenId) external returns (ExcellentItemAtts memory) {\n        ItemAttributes memory tokenAtts = _items.getTokenAttributes(tokenId);\n        ExcellentItemAtts memory excAtts = convertToExcellent(tokenAtts);\n\n        return assignExcellentAtts(excAtts, tokenId);\n    }\n\n    function setTokenAttributes(uint256 tokenId, ExcellentItemAtts memory atts) external {\n        require(_items.itemExists(tokenId), \"Token does not exist\");\n\n        ItemAttributes memory baseAtts = convertToItemAttributes(atts);\n        _items.setTokenAttributes(tokenId, baseAtts);\n        reverseAssignExcellentAtts(tokenId, atts);\n    }\n\n\n    function getRandomArmourExcOption(ExcellentItemAtts memory item,  uint256 seed) internal returns (ExcellentItemAtts memory) {\n        uint256 randomNumber = getRandomNumber(seed);\n        uint256 totalProbability = ArmourExcOptionsDropRates.defenseSuccessRateIncrease +\n            ArmourExcOptionsDropRates.goldAfterMonsterIncrease +\n            ArmourExcOptionsDropRates.reflectDamage +\n            ArmourExcOptionsDropRates.maxLifeIncrease +\n            ArmourExcOptionsDropRates.maxManaIncrease +\n            ArmourExcOptionsDropRates.hpRecoveryRateIncrease +\n            ArmourExcOptionsDropRates.mpRecoveryRateIncrease +\n            ArmourExcOptionsDropRates.decreaseDamageRateIncrease;\n        \n\n        uint256 randomIndex = randomNumber % totalProbability;\n\n        if (randomIndex <= ArmourExcOptionsDropRates.defenseSuccessRateIncrease) {\n            item.defenseSuccessRateIncrease = 1;\n        } else if (randomIndex <= ArmourExcOptionsDropRates.defenseSuccessRateIncrease \n            + ArmourExcOptionsDropRates.goldAfterMonsterIncrease) {\n            item.goldAfterMonsterIncrease = 1;\n        } else if (randomIndex <= ArmourExcOptionsDropRates.defenseSuccessRateIncrease \n            + ArmourExcOptionsDropRates.goldAfterMonsterIncrease\n            + ArmourExcOptionsDropRates.reflectDamage) {\n            item.reflectDamage = 1;\n        } else if (randomIndex <= ArmourExcOptionsDropRates.defenseSuccessRateIncrease \n            + ArmourExcOptionsDropRates.goldAfterMonsterIncrease\n            + ArmourExcOptionsDropRates.reflectDamage\n            + ArmourExcOptionsDropRates.maxLifeIncrease) {\n            item.maxLifeIncrease = 1;\n        } else if (randomIndex <= ArmourExcOptionsDropRates.defenseSuccessRateIncrease \n            + ArmourExcOptionsDropRates.goldAfterMonsterIncrease\n            + ArmourExcOptionsDropRates.reflectDamage\n            + ArmourExcOptionsDropRates.maxLifeIncrease\n            + ArmourExcOptionsDropRates.maxManaIncrease) {\n            item.maxManaIncrease = 1;\n        } else if (randomIndex <= ArmourExcOptionsDropRates.defenseSuccessRateIncrease \n            + ArmourExcOptionsDropRates.goldAfterMonsterIncrease\n            + ArmourExcOptionsDropRates.reflectDamage\n            + ArmourExcOptionsDropRates.maxLifeIncrease\n            + ArmourExcOptionsDropRates.maxManaIncrease\n            + ArmourExcOptionsDropRates.hpRecoveryRateIncrease) {\n            item.hpRecoveryRateIncrease = 1;\n        } else if (randomIndex <= ArmourExcOptionsDropRates.defenseSuccessRateIncrease \n            + ArmourExcOptionsDropRates.goldAfterMonsterIncrease\n            + ArmourExcOptionsDropRates.reflectDamage\n            + ArmourExcOptionsDropRates.maxLifeIncrease\n            + ArmourExcOptionsDropRates.maxManaIncrease\n            + ArmourExcOptionsDropRates.hpRecoveryRateIncrease\n            + ArmourExcOptionsDropRates.mpRecoveryRateIncrease) {\n            item.mpRecoveryRateIncrease = 1;\n        } else {\n            item.decreaseDamageRateIncrease = 1;\n        }\n\n        return item;\n    }\n\n\n\n    function addExcellentOption(ExcellentItemAtts memory excItem) external returns (ExcellentItemAtts memory newItem) {\n\n\n        excItem.itemLevel = 0;\n        if (excItem.isWeapon) {\n            excItem.skill = true;\n            // choose from weapon exc options            \n            excItem = getRandomWeaponExcOption(excItem, 11);\n            if (getRandomNumber(12) <= WeaponsExcOptionsDropRates.doubleOptionChance) {\n                excItem = getRandomWeaponExcOption(excItem, 13);\n            }\n        } else if (excItem.isArmour) {\n            // choose from armout exc options\n            excItem = getRandomArmourExcOption(excItem, 14);\n            if (getRandomNumber(15) <= ArmourExcOptionsDropRates.doubleOptionChance) {\n                excItem = getRandomArmourExcOption(excItem, 16);\n            }\n        }\n\n        return excItem;\n    }\n\n    function getRandomWeaponExcOption(ExcellentItemAtts memory item,  uint256 seed) internal returns (ExcellentItemAtts memory) {\n        uint256 randomNumber = getRandomNumber(seed);\n        uint256 totalProbability = WeaponsExcOptionsDropRates.lifeAfterMonsterIncrease +\n            WeaponsExcOptionsDropRates.manaAfterMonsterIncrease +\n            WeaponsExcOptionsDropRates.excellentDamageProbabilityIncrease +\n            WeaponsExcOptionsDropRates.attackSpeedIncrease +\n            WeaponsExcOptionsDropRates.attackLvl20 +\n            WeaponsExcOptionsDropRates.attackIncreasePercent;\n        \n\n        uint256 randomIndex = randomNumber % totalProbability;\n\n        if (randomIndex <= WeaponsExcOptionsDropRates.lifeAfterMonsterIncrease) {\n            item.lifeAfterMonsterIncrease = 1;\n        } else if (randomIndex <= WeaponsExcOptionsDropRates.lifeAfterMonsterIncrease \n            + WeaponsExcOptionsDropRates.manaAfterMonsterIncrease) {\n            item.manaAfterMonsterIncrease = 1;\n        } else if (randomIndex <= WeaponsExcOptionsDropRates.lifeAfterMonsterIncrease \n            + WeaponsExcOptionsDropRates.manaAfterMonsterIncrease\n            + WeaponsExcOptionsDropRates.excellentDamageProbabilityIncrease) {\n            item.excellentDamageProbabilityIncrease = 1;\n        } else if (randomIndex <= WeaponsExcOptionsDropRates.lifeAfterMonsterIncrease \n            + WeaponsExcOptionsDropRates.manaAfterMonsterIncrease\n            + WeaponsExcOptionsDropRates.excellentDamageProbabilityIncrease\n            + WeaponsExcOptionsDropRates.attackSpeedIncrease) {\n            item.attackSpeedIncrease = 1;\n        } else if (randomIndex <= WeaponsExcOptionsDropRates.lifeAfterMonsterIncrease \n            + WeaponsExcOptionsDropRates.manaAfterMonsterIncrease\n            + WeaponsExcOptionsDropRates.excellentDamageProbabilityIncrease\n            + WeaponsExcOptionsDropRates.attackSpeedIncrease\n            + WeaponsExcOptionsDropRates.attackLvl20 ) {\n            item.attackLvl20 = 1;\n        } else {\n            item.attackIncreasePercent = 1;\n        }\n\n        return item;\n    }\n\n}",
  "sourcePath": "/Users/max/Documents/prog/game-contracts/contracts/ItemsExcellent.sol",
  "compiler": {
    "name": "solc",
    "version": "0.8.19+commit.7dd6d404.Emscripten.clang"
  },
  "schemaVersion": "3.4.13",
  "updatedAt": "2023-08-06T07:11:13.396Z",
  "networkType": "ethereum",
  "devdoc": {
    "kind": "dev",
    "methods": {},
    "version": 1
  },
  "userdoc": {
    "kind": "user",
    "methods": {},
    "version": 1
  }
}