{
  "contractName": "Items",
  "abi": [
    {
      "inputs": [
        {
          "internalType": "address",
          "name": "fightersHelperContract",
          "type": "address"
        },
        {
          "internalType": "address",
          "name": "moneyHelperContract",
          "type": "address"
        }
      ],
      "stateMutability": "nonpayable",
      "type": "constructor"
    },
    {
      "anonymous": false,
      "inputs": [
        {
          "indexed": true,
          "internalType": "address",
          "name": "owner",
          "type": "address"
        },
        {
          "indexed": true,
          "internalType": "address",
          "name": "approved",
          "type": "address"
        },
        {
          "indexed": true,
          "internalType": "uint256",
          "name": "tokenId",
          "type": "uint256"
        }
      ],
      "name": "Approval",
      "type": "event"
    },
    {
      "anonymous": false,
      "inputs": [
        {
          "indexed": true,
          "internalType": "address",
          "name": "owner",
          "type": "address"
        },
        {
          "indexed": true,
          "internalType": "address",
          "name": "operator",
          "type": "address"
        },
        {
          "indexed": false,
          "internalType": "bool",
          "name": "approved",
          "type": "bool"
        }
      ],
      "name": "ApprovalForAll",
      "type": "event"
    },
    {
      "anonymous": false,
      "inputs": [
        {
          "indexed": false,
          "internalType": "uint256",
          "name": "tokenId",
          "type": "uint256"
        },
        {
          "indexed": false,
          "internalType": "uint256",
          "name": "newAddPoints",
          "type": "uint256"
        }
      ],
      "name": "ItemAddPointsUpdate",
      "type": "event"
    },
    {
      "anonymous": false,
      "inputs": [
        {
          "indexed": false,
          "internalType": "uint256",
          "name": "tokenId",
          "type": "uint256"
        },
        {
          "indexed": false,
          "internalType": "uint256",
          "name": "itemId",
          "type": "uint256"
        },
        {
          "indexed": false,
          "internalType": "address",
          "name": "owner",
          "type": "address"
        },
        {
          "indexed": false,
          "internalType": "string",
          "name": "itemName",
          "type": "string"
        }
      ],
      "name": "ItemBoughtFromShop",
      "type": "event"
    },
    {
      "anonymous": false,
      "inputs": [
        {
          "indexed": false,
          "internalType": "uint256",
          "name": "tokenId",
          "type": "uint256"
        },
        {
          "indexed": false,
          "internalType": "address",
          "name": "owner",
          "type": "address"
        }
      ],
      "name": "ItemCrafted",
      "type": "event"
    },
    {
      "anonymous": false,
      "inputs": [
        {
          "indexed": false,
          "internalType": "uint256",
          "name": "itemId",
          "type": "uint256"
        },
        {
          "indexed": false,
          "internalType": "string",
          "name": "name",
          "type": "string"
        }
      ],
      "name": "ItemGenerated",
      "type": "event"
    },
    {
      "anonymous": false,
      "inputs": [
        {
          "indexed": false,
          "internalType": "uint256",
          "name": "tokenId",
          "type": "uint256"
        },
        {
          "indexed": false,
          "internalType": "uint256",
          "name": "newLevel",
          "type": "uint256"
        }
      ],
      "name": "ItemLevelUpgrade",
      "type": "event"
    },
    {
      "anonymous": false,
      "inputs": [
        {
          "indexed": false,
          "internalType": "uint8",
          "name": "",
          "type": "uint8"
        },
        {
          "indexed": false,
          "internalType": "uint256",
          "name": "",
          "type": "uint256"
        }
      ],
      "name": "LogError",
      "type": "event"
    },
    {
      "anonymous": false,
      "inputs": [
        {
          "indexed": false,
          "internalType": "uint256",
          "name": "itemId",
          "type": "uint256"
        },
        {
          "indexed": false,
          "internalType": "uint256",
          "name": "packSize",
          "type": "uint256"
        },
        {
          "indexed": false,
          "internalType": "uint256",
          "name": "fighterId",
          "type": "uint256"
        },
        {
          "indexed": false,
          "internalType": "uint256",
          "name": "newTokenId",
          "type": "uint256"
        }
      ],
      "name": "PackedItems",
      "type": "event"
    },
    {
      "anonymous": false,
      "inputs": [
        {
          "indexed": true,
          "internalType": "address",
          "name": "from",
          "type": "address"
        },
        {
          "indexed": true,
          "internalType": "address",
          "name": "to",
          "type": "address"
        },
        {
          "indexed": true,
          "internalType": "uint256",
          "name": "tokenId",
          "type": "uint256"
        }
      ],
      "name": "Transfer",
      "type": "event"
    },
    {
      "anonymous": false,
      "inputs": [
        {
          "indexed": false,
          "internalType": "uint256",
          "name": "tokenId",
          "type": "uint256"
        }
      ],
      "name": "UnpackedItems",
      "type": "event"
    },
    {
      "inputs": [
        {
          "internalType": "uint256",
          "name": "",
          "type": "uint256"
        },
        {
          "internalType": "uint256",
          "name": "",
          "type": "uint256"
        }
      ],
      "name": "Armours",
      "outputs": [
        {
          "internalType": "uint256",
          "name": "",
          "type": "uint256"
        }
      ],
      "stateMutability": "view",
      "type": "function",
      "constant": true
    },
    {
      "inputs": [
        {
          "internalType": "uint256",
          "name": "",
          "type": "uint256"
        },
        {
          "internalType": "uint256",
          "name": "",
          "type": "uint256"
        }
      ],
      "name": "Jewels",
      "outputs": [
        {
          "internalType": "uint256",
          "name": "",
          "type": "uint256"
        }
      ],
      "stateMutability": "view",
      "type": "function",
      "constant": true
    },
    {
      "inputs": [
        {
          "internalType": "uint256",
          "name": "",
          "type": "uint256"
        },
        {
          "internalType": "uint256",
          "name": "",
          "type": "uint256"
        }
      ],
      "name": "Misc",
      "outputs": [
        {
          "internalType": "uint256",
          "name": "",
          "type": "uint256"
        }
      ],
      "stateMutability": "view",
      "type": "function",
      "constant": true
    },
    {
      "inputs": [
        {
          "internalType": "uint256",
          "name": "",
          "type": "uint256"
        },
        {
          "internalType": "uint256",
          "name": "",
          "type": "uint256"
        }
      ],
      "name": "Weapons",
      "outputs": [
        {
          "internalType": "uint256",
          "name": "",
          "type": "uint256"
        }
      ],
      "stateMutability": "view",
      "type": "function",
      "constant": true
    },
    {
      "inputs": [
        {
          "internalType": "uint256",
          "name": "",
          "type": "uint256"
        },
        {
          "internalType": "uint256",
          "name": "",
          "type": "uint256"
        }
      ],
      "name": "Wings",
      "outputs": [
        {
          "internalType": "uint256",
          "name": "",
          "type": "uint256"
        }
      ],
      "stateMutability": "view",
      "type": "function",
      "constant": true
    },
    {
      "inputs": [
        {
          "internalType": "address",
          "name": "to",
          "type": "address"
        },
        {
          "internalType": "uint256",
          "name": "tokenId",
          "type": "uint256"
        }
      ],
      "name": "approve",
      "outputs": [],
      "stateMutability": "nonpayable",
      "type": "function"
    },
    {
      "inputs": [
        {
          "internalType": "address",
          "name": "owner",
          "type": "address"
        }
      ],
      "name": "balanceOf",
      "outputs": [
        {
          "internalType": "uint256",
          "name": "",
          "type": "uint256"
        }
      ],
      "stateMutability": "view",
      "type": "function",
      "constant": true
    },
    {
      "inputs": [
        {
          "internalType": "uint256",
          "name": "tokenId",
          "type": "uint256"
        }
      ],
      "name": "getApproved",
      "outputs": [
        {
          "internalType": "address",
          "name": "",
          "type": "address"
        }
      ],
      "stateMutability": "view",
      "type": "function",
      "constant": true
    },
    {
      "inputs": [
        {
          "internalType": "address",
          "name": "owner",
          "type": "address"
        },
        {
          "internalType": "address",
          "name": "operator",
          "type": "address"
        }
      ],
      "name": "isApprovedForAll",
      "outputs": [
        {
          "internalType": "bool",
          "name": "",
          "type": "bool"
        }
      ],
      "stateMutability": "view",
      "type": "function",
      "constant": true
    },
    {
      "inputs": [],
      "name": "name",
      "outputs": [
        {
          "internalType": "string",
          "name": "",
          "type": "string"
        }
      ],
      "stateMutability": "view",
      "type": "function",
      "constant": true
    },
    {
      "inputs": [],
      "name": "owner",
      "outputs": [
        {
          "internalType": "address",
          "name": "",
          "type": "address"
        }
      ],
      "stateMutability": "view",
      "type": "function",
      "constant": true
    },
    {
      "inputs": [
        {
          "internalType": "uint256",
          "name": "tokenId",
          "type": "uint256"
        }
      ],
      "name": "ownerOf",
      "outputs": [
        {
          "internalType": "address",
          "name": "",
          "type": "address"
        }
      ],
      "stateMutability": "view",
      "type": "function",
      "constant": true
    },
    {
      "inputs": [
        {
          "internalType": "address",
          "name": "from",
          "type": "address"
        },
        {
          "internalType": "address",
          "name": "to",
          "type": "address"
        },
        {
          "internalType": "uint256",
          "name": "tokenId",
          "type": "uint256"
        }
      ],
      "name": "safeTransferFrom",
      "outputs": [],
      "stateMutability": "nonpayable",
      "type": "function"
    },
    {
      "inputs": [
        {
          "internalType": "address",
          "name": "from",
          "type": "address"
        },
        {
          "internalType": "address",
          "name": "to",
          "type": "address"
        },
        {
          "internalType": "uint256",
          "name": "tokenId",
          "type": "uint256"
        },
        {
          "internalType": "bytes",
          "name": "data",
          "type": "bytes"
        }
      ],
      "name": "safeTransferFrom",
      "outputs": [],
      "stateMutability": "nonpayable",
      "type": "function"
    },
    {
      "inputs": [
        {
          "internalType": "address",
          "name": "operator",
          "type": "address"
        },
        {
          "internalType": "bool",
          "name": "approved",
          "type": "bool"
        }
      ],
      "name": "setApprovalForAll",
      "outputs": [],
      "stateMutability": "nonpayable",
      "type": "function"
    },
    {
      "inputs": [
        {
          "internalType": "bytes4",
          "name": "interfaceId",
          "type": "bytes4"
        }
      ],
      "name": "supportsInterface",
      "outputs": [
        {
          "internalType": "bool",
          "name": "",
          "type": "bool"
        }
      ],
      "stateMutability": "view",
      "type": "function",
      "constant": true
    },
    {
      "inputs": [],
      "name": "symbol",
      "outputs": [
        {
          "internalType": "string",
          "name": "",
          "type": "string"
        }
      ],
      "stateMutability": "view",
      "type": "function",
      "constant": true
    },
    {
      "inputs": [
        {
          "internalType": "uint256",
          "name": "index",
          "type": "uint256"
        }
      ],
      "name": "tokenByIndex",
      "outputs": [
        {
          "internalType": "uint256",
          "name": "",
          "type": "uint256"
        }
      ],
      "stateMutability": "view",
      "type": "function",
      "constant": true
    },
    {
      "inputs": [
        {
          "internalType": "address",
          "name": "owner",
          "type": "address"
        },
        {
          "internalType": "uint256",
          "name": "index",
          "type": "uint256"
        }
      ],
      "name": "tokenOfOwnerByIndex",
      "outputs": [
        {
          "internalType": "uint256",
          "name": "",
          "type": "uint256"
        }
      ],
      "stateMutability": "view",
      "type": "function",
      "constant": true
    },
    {
      "inputs": [
        {
          "internalType": "uint256",
          "name": "tokenId",
          "type": "uint256"
        }
      ],
      "name": "tokenURI",
      "outputs": [
        {
          "internalType": "string",
          "name": "",
          "type": "string"
        }
      ],
      "stateMutability": "view",
      "type": "function",
      "constant": true
    },
    {
      "inputs": [],
      "name": "totalSupply",
      "outputs": [
        {
          "internalType": "uint256",
          "name": "",
          "type": "uint256"
        }
      ],
      "stateMutability": "view",
      "type": "function",
      "constant": true
    },
    {
      "inputs": [
        {
          "internalType": "address",
          "name": "from",
          "type": "address"
        },
        {
          "internalType": "address",
          "name": "to",
          "type": "address"
        },
        {
          "internalType": "uint256",
          "name": "tokenId",
          "type": "uint256"
        }
      ],
      "name": "transferFrom",
      "outputs": [],
      "stateMutability": "nonpayable",
      "type": "function"
    },
    {
      "inputs": [
        {
          "internalType": "uint256",
          "name": "rarityLevel",
          "type": "uint256"
        }
      ],
      "name": "getWeapons",
      "outputs": [
        {
          "internalType": "uint256[]",
          "name": "",
          "type": "uint256[]"
        }
      ],
      "stateMutability": "view",
      "type": "function",
      "constant": true
    },
    {
      "inputs": [
        {
          "internalType": "uint256",
          "name": "rarityLevel",
          "type": "uint256"
        }
      ],
      "name": "getArmours",
      "outputs": [
        {
          "internalType": "uint256[]",
          "name": "",
          "type": "uint256[]"
        }
      ],
      "stateMutability": "view",
      "type": "function",
      "constant": true
    },
    {
      "inputs": [
        {
          "internalType": "uint256",
          "name": "rarityLevel",
          "type": "uint256"
        }
      ],
      "name": "getJewels",
      "outputs": [
        {
          "internalType": "uint256[]",
          "name": "",
          "type": "uint256[]"
        }
      ],
      "stateMutability": "view",
      "type": "function",
      "constant": true
    },
    {
      "inputs": [
        {
          "internalType": "uint256",
          "name": "rarityLevel",
          "type": "uint256"
        }
      ],
      "name": "getMisc",
      "outputs": [
        {
          "internalType": "uint256[]",
          "name": "",
          "type": "uint256[]"
        }
      ],
      "stateMutability": "view",
      "type": "function",
      "constant": true
    },
    {
      "inputs": [
        {
          "internalType": "uint256",
          "name": "tokenId",
          "type": "uint256"
        },
        {
          "internalType": "uint256",
          "name": "points",
          "type": "uint256"
        }
      ],
      "name": "setAdditionalPoints",
      "outputs": [],
      "stateMutability": "nonpayable",
      "type": "function"
    },
    {
      "inputs": [
        {
          "internalType": "uint256",
          "name": "tokenId",
          "type": "uint256"
        },
        {
          "internalType": "uint256",
          "name": "level",
          "type": "uint256"
        }
      ],
      "name": "setItemLevel",
      "outputs": [],
      "stateMutability": "nonpayable",
      "type": "function"
    },
    {
      "inputs": [
        {
          "internalType": "uint256",
          "name": "tokenId",
          "type": "uint256"
        }
      ],
      "name": "burnItem",
      "outputs": [],
      "stateMutability": "nonpayable",
      "type": "function"
    },
    {
      "inputs": [
        {
          "internalType": "address",
          "name": "ownerAddres",
          "type": "address"
        }
      ],
      "name": "safeMint",
      "outputs": [
        {
          "internalType": "uint256",
          "name": "",
          "type": "uint256"
        }
      ],
      "stateMutability": "nonpayable",
      "type": "function"
    },
    {
      "inputs": [
        {
          "internalType": "uint256",
          "name": "tokenId",
          "type": "uint256"
        },
        {
          "components": [
            {
              "internalType": "string",
              "name": "name",
              "type": "string"
            },
            {
              "internalType": "uint256",
              "name": "tokenId",
              "type": "uint256"
            },
            {
              "internalType": "uint256",
              "name": "itemLevel",
              "type": "uint256"
            },
            {
              "internalType": "uint256",
              "name": "maxLevel",
              "type": "uint256"
            },
            {
              "internalType": "uint256",
              "name": "durability",
              "type": "uint256"
            },
            {
              "internalType": "uint256",
              "name": "classRequired",
              "type": "uint256"
            },
            {
              "internalType": "uint256",
              "name": "strengthRequired",
              "type": "uint256"
            },
            {
              "internalType": "uint256",
              "name": "agilityRequired",
              "type": "uint256"
            },
            {
              "internalType": "uint256",
              "name": "energyRequired",
              "type": "uint256"
            },
            {
              "internalType": "uint256",
              "name": "vitalityRequired",
              "type": "uint256"
            },
            {
              "internalType": "uint256",
              "name": "itemWidth",
              "type": "uint256"
            },
            {
              "internalType": "uint256",
              "name": "itemHeight",
              "type": "uint256"
            },
            {
              "internalType": "uint256",
              "name": "acceptableSlot1",
              "type": "uint256"
            },
            {
              "internalType": "uint256",
              "name": "acceptableSlot2",
              "type": "uint256"
            },
            {
              "internalType": "uint256",
              "name": "baseMinPhysicalDamage",
              "type": "uint256"
            },
            {
              "internalType": "uint256",
              "name": "baseMaxPhysicalDamage",
              "type": "uint256"
            },
            {
              "internalType": "uint256",
              "name": "baseMinMagicDamage",
              "type": "uint256"
            },
            {
              "internalType": "uint256",
              "name": "baseMaxMagicDamage",
              "type": "uint256"
            },
            {
              "internalType": "uint256",
              "name": "baseDefense",
              "type": "uint256"
            },
            {
              "internalType": "uint256",
              "name": "attackSpeed",
              "type": "uint256"
            },
            {
              "internalType": "uint256",
              "name": "additionalDamage",
              "type": "uint256"
            },
            {
              "internalType": "uint256",
              "name": "additionalDefense",
              "type": "uint256"
            },
            {
              "internalType": "uint256",
              "name": "fighterId",
              "type": "uint256"
            },
            {
              "internalType": "uint256",
              "name": "lastUpdBlock",
              "type": "uint256"
            },
            {
              "internalType": "uint256",
              "name": "itemRarityLevel",
              "type": "uint256"
            },
            {
              "internalType": "uint256",
              "name": "itemAttributesId",
              "type": "uint256"
            },
            {
              "internalType": "uint256",
              "name": "packSize",
              "type": "uint256"
            },
            {
              "internalType": "bool",
              "name": "luck",
              "type": "bool"
            },
            {
              "internalType": "bool",
              "name": "skill",
              "type": "bool"
            },
            {
              "internalType": "bool",
              "name": "isPackable",
              "type": "bool"
            },
            {
              "internalType": "bool",
              "name": "isBox",
              "type": "bool"
            },
            {
              "internalType": "bool",
              "name": "isWeapon",
              "type": "bool"
            },
            {
              "internalType": "bool",
              "name": "isArmour",
              "type": "bool"
            },
            {
              "internalType": "bool",
              "name": "isJewel",
              "type": "bool"
            },
            {
              "internalType": "bool",
              "name": "isWings",
              "type": "bool"
            },
            {
              "internalType": "bool",
              "name": "isMisc",
              "type": "bool"
            },
            {
              "internalType": "bool",
              "name": "isConsumable",
              "type": "bool"
            },
            {
              "internalType": "bool",
              "name": "inShop",
              "type": "bool"
            }
          ],
          "internalType": "struct ItemsAtts.ItemAttributes",
          "name": "atts",
          "type": "tuple"
        }
      ],
      "name": "setTokenAttributes",
      "outputs": [],
      "stateMutability": "nonpayable",
      "type": "function"
    },
    {
      "inputs": [
        {
          "internalType": "uint256",
          "name": "tokenId",
          "type": "uint256"
        }
      ],
      "name": "itemExists",
      "outputs": [
        {
          "internalType": "bool",
          "name": "",
          "type": "bool"
        }
      ],
      "stateMutability": "view",
      "type": "function",
      "constant": true
    },
    {
      "inputs": [
        {
          "components": [
            {
              "internalType": "string",
              "name": "name",
              "type": "string"
            },
            {
              "internalType": "uint256",
              "name": "tokenId",
              "type": "uint256"
            },
            {
              "internalType": "uint256",
              "name": "itemLevel",
              "type": "uint256"
            },
            {
              "internalType": "uint256",
              "name": "maxLevel",
              "type": "uint256"
            },
            {
              "internalType": "uint256",
              "name": "durability",
              "type": "uint256"
            },
            {
              "internalType": "uint256",
              "name": "classRequired",
              "type": "uint256"
            },
            {
              "internalType": "uint256",
              "name": "strengthRequired",
              "type": "uint256"
            },
            {
              "internalType": "uint256",
              "name": "agilityRequired",
              "type": "uint256"
            },
            {
              "internalType": "uint256",
              "name": "energyRequired",
              "type": "uint256"
            },
            {
              "internalType": "uint256",
              "name": "vitalityRequired",
              "type": "uint256"
            },
            {
              "internalType": "uint256",
              "name": "itemWidth",
              "type": "uint256"
            },
            {
              "internalType": "uint256",
              "name": "itemHeight",
              "type": "uint256"
            },
            {
              "internalType": "uint256",
              "name": "acceptableSlot1",
              "type": "uint256"
            },
            {
              "internalType": "uint256",
              "name": "acceptableSlot2",
              "type": "uint256"
            },
            {
              "internalType": "uint256",
              "name": "baseMinPhysicalDamage",
              "type": "uint256"
            },
            {
              "internalType": "uint256",
              "name": "baseMaxPhysicalDamage",
              "type": "uint256"
            },
            {
              "internalType": "uint256",
              "name": "baseMinMagicDamage",
              "type": "uint256"
            },
            {
              "internalType": "uint256",
              "name": "baseMaxMagicDamage",
              "type": "uint256"
            },
            {
              "internalType": "uint256",
              "name": "baseDefense",
              "type": "uint256"
            },
            {
              "internalType": "uint256",
              "name": "attackSpeed",
              "type": "uint256"
            },
            {
              "internalType": "uint256",
              "name": "additionalDamage",
              "type": "uint256"
            },
            {
              "internalType": "uint256",
              "name": "additionalDefense",
              "type": "uint256"
            },
            {
              "internalType": "uint256",
              "name": "fighterId",
              "type": "uint256"
            },
            {
              "internalType": "uint256",
              "name": "lastUpdBlock",
              "type": "uint256"
            },
            {
              "internalType": "uint256",
              "name": "itemRarityLevel",
              "type": "uint256"
            },
            {
              "internalType": "uint256",
              "name": "itemAttributesId",
              "type": "uint256"
            },
            {
              "internalType": "uint256",
              "name": "packSize",
              "type": "uint256"
            },
            {
              "internalType": "bool",
              "name": "luck",
              "type": "bool"
            },
            {
              "internalType": "bool",
              "name": "skill",
              "type": "bool"
            },
            {
              "internalType": "bool",
              "name": "isPackable",
              "type": "bool"
            },
            {
              "internalType": "bool",
              "name": "isBox",
              "type": "bool"
            },
            {
              "internalType": "bool",
              "name": "isWeapon",
              "type": "bool"
            },
            {
              "internalType": "bool",
              "name": "isArmour",
              "type": "bool"
            },
            {
              "internalType": "bool",
              "name": "isJewel",
              "type": "bool"
            },
            {
              "internalType": "bool",
              "name": "isWings",
              "type": "bool"
            },
            {
              "internalType": "bool",
              "name": "isMisc",
              "type": "bool"
            },
            {
              "internalType": "bool",
              "name": "isConsumable",
              "type": "bool"
            },
            {
              "internalType": "bool",
              "name": "inShop",
              "type": "bool"
            }
          ],
          "internalType": "struct ItemsAtts.ItemAttributes",
          "name": "atts",
          "type": "tuple"
        }
      ],
      "name": "createItem",
      "outputs": [
        {
          "internalType": "uint256",
          "name": "tokenId",
          "type": "uint256"
        }
      ],
      "stateMutability": "nonpayable",
      "type": "function"
    },
    {
      "inputs": [
        {
          "internalType": "uint256",
          "name": "tokenId",
          "type": "uint256"
        },
        {
          "internalType": "address",
          "name": "to",
          "type": "address"
        }
      ],
      "name": "transferItem",
      "outputs": [],
      "stateMutability": "nonpayable",
      "type": "function"
    },
    {
      "inputs": [
        {
          "internalType": "uint256",
          "name": "itemId",
          "type": "uint256"
        },
        {
          "internalType": "uint256[]",
          "name": "tokenIds",
          "type": "uint256[]"
        },
        {
          "internalType": "uint256",
          "name": "packSize",
          "type": "uint256"
        },
        {
          "internalType": "uint256",
          "name": "fighterId",
          "type": "uint256"
        }
      ],
      "name": "packItems",
      "outputs": [
        {
          "internalType": "uint256",
          "name": "newTokenId",
          "type": "uint256"
        }
      ],
      "stateMutability": "nonpayable",
      "type": "function"
    },
    {
      "inputs": [
        {
          "internalType": "uint256",
          "name": "tokenId",
          "type": "uint256"
        }
      ],
      "name": "unpackItems",
      "outputs": [
        {
          "internalType": "uint256[]",
          "name": "tokenIds",
          "type": "uint256[]"
        }
      ],
      "stateMutability": "nonpayable",
      "type": "function"
    },
    {
      "inputs": [
        {
          "internalType": "uint256",
          "name": "itemId",
          "type": "uint256"
        },
        {
          "internalType": "uint256",
          "name": "fighterId",
          "type": "uint256"
        }
      ],
      "name": "buyItemFromShop",
      "outputs": [],
      "stateMutability": "nonpayable",
      "type": "function"
    },
    {
      "inputs": [
        {
          "internalType": "uint256",
          "name": "tokenId",
          "type": "uint256"
        }
      ],
      "name": "getTokenAttributes",
      "outputs": [
        {
          "components": [
            {
              "internalType": "string",
              "name": "name",
              "type": "string"
            },
            {
              "internalType": "uint256",
              "name": "tokenId",
              "type": "uint256"
            },
            {
              "internalType": "uint256",
              "name": "itemLevel",
              "type": "uint256"
            },
            {
              "internalType": "uint256",
              "name": "maxLevel",
              "type": "uint256"
            },
            {
              "internalType": "uint256",
              "name": "durability",
              "type": "uint256"
            },
            {
              "internalType": "uint256",
              "name": "classRequired",
              "type": "uint256"
            },
            {
              "internalType": "uint256",
              "name": "strengthRequired",
              "type": "uint256"
            },
            {
              "internalType": "uint256",
              "name": "agilityRequired",
              "type": "uint256"
            },
            {
              "internalType": "uint256",
              "name": "energyRequired",
              "type": "uint256"
            },
            {
              "internalType": "uint256",
              "name": "vitalityRequired",
              "type": "uint256"
            },
            {
              "internalType": "uint256",
              "name": "itemWidth",
              "type": "uint256"
            },
            {
              "internalType": "uint256",
              "name": "itemHeight",
              "type": "uint256"
            },
            {
              "internalType": "uint256",
              "name": "acceptableSlot1",
              "type": "uint256"
            },
            {
              "internalType": "uint256",
              "name": "acceptableSlot2",
              "type": "uint256"
            },
            {
              "internalType": "uint256",
              "name": "baseMinPhysicalDamage",
              "type": "uint256"
            },
            {
              "internalType": "uint256",
              "name": "baseMaxPhysicalDamage",
              "type": "uint256"
            },
            {
              "internalType": "uint256",
              "name": "baseMinMagicDamage",
              "type": "uint256"
            },
            {
              "internalType": "uint256",
              "name": "baseMaxMagicDamage",
              "type": "uint256"
            },
            {
              "internalType": "uint256",
              "name": "baseDefense",
              "type": "uint256"
            },
            {
              "internalType": "uint256",
              "name": "attackSpeed",
              "type": "uint256"
            },
            {
              "internalType": "uint256",
              "name": "additionalDamage",
              "type": "uint256"
            },
            {
              "internalType": "uint256",
              "name": "additionalDefense",
              "type": "uint256"
            },
            {
              "internalType": "uint256",
              "name": "fighterId",
              "type": "uint256"
            },
            {
              "internalType": "uint256",
              "name": "lastUpdBlock",
              "type": "uint256"
            },
            {
              "internalType": "uint256",
              "name": "itemRarityLevel",
              "type": "uint256"
            },
            {
              "internalType": "uint256",
              "name": "itemAttributesId",
              "type": "uint256"
            },
            {
              "internalType": "uint256",
              "name": "packSize",
              "type": "uint256"
            },
            {
              "internalType": "bool",
              "name": "luck",
              "type": "bool"
            },
            {
              "internalType": "bool",
              "name": "skill",
              "type": "bool"
            },
            {
              "internalType": "bool",
              "name": "isPackable",
              "type": "bool"
            },
            {
              "internalType": "bool",
              "name": "isBox",
              "type": "bool"
            },
            {
              "internalType": "bool",
              "name": "isWeapon",
              "type": "bool"
            },
            {
              "internalType": "bool",
              "name": "isArmour",
              "type": "bool"
            },
            {
              "internalType": "bool",
              "name": "isJewel",
              "type": "bool"
            },
            {
              "internalType": "bool",
              "name": "isWings",
              "type": "bool"
            },
            {
              "internalType": "bool",
              "name": "isMisc",
              "type": "bool"
            },
            {
              "internalType": "bool",
              "name": "isConsumable",
              "type": "bool"
            },
            {
              "internalType": "bool",
              "name": "inShop",
              "type": "bool"
            }
          ],
          "internalType": "struct ItemsAtts.ItemAttributes",
          "name": "",
          "type": "tuple"
        }
      ],
      "stateMutability": "view",
      "type": "function",
      "constant": true
    },
    {
      "inputs": [
        {
          "internalType": "uint256",
          "name": "itemId",
          "type": "uint256"
        }
      ],
      "name": "getItemAttributes",
      "outputs": [
        {
          "components": [
            {
              "internalType": "string",
              "name": "name",
              "type": "string"
            },
            {
              "internalType": "uint256",
              "name": "tokenId",
              "type": "uint256"
            },
            {
              "internalType": "uint256",
              "name": "itemLevel",
              "type": "uint256"
            },
            {
              "internalType": "uint256",
              "name": "maxLevel",
              "type": "uint256"
            },
            {
              "internalType": "uint256",
              "name": "durability",
              "type": "uint256"
            },
            {
              "internalType": "uint256",
              "name": "classRequired",
              "type": "uint256"
            },
            {
              "internalType": "uint256",
              "name": "strengthRequired",
              "type": "uint256"
            },
            {
              "internalType": "uint256",
              "name": "agilityRequired",
              "type": "uint256"
            },
            {
              "internalType": "uint256",
              "name": "energyRequired",
              "type": "uint256"
            },
            {
              "internalType": "uint256",
              "name": "vitalityRequired",
              "type": "uint256"
            },
            {
              "internalType": "uint256",
              "name": "itemWidth",
              "type": "uint256"
            },
            {
              "internalType": "uint256",
              "name": "itemHeight",
              "type": "uint256"
            },
            {
              "internalType": "uint256",
              "name": "acceptableSlot1",
              "type": "uint256"
            },
            {
              "internalType": "uint256",
              "name": "acceptableSlot2",
              "type": "uint256"
            },
            {
              "internalType": "uint256",
              "name": "baseMinPhysicalDamage",
              "type": "uint256"
            },
            {
              "internalType": "uint256",
              "name": "baseMaxPhysicalDamage",
              "type": "uint256"
            },
            {
              "internalType": "uint256",
              "name": "baseMinMagicDamage",
              "type": "uint256"
            },
            {
              "internalType": "uint256",
              "name": "baseMaxMagicDamage",
              "type": "uint256"
            },
            {
              "internalType": "uint256",
              "name": "baseDefense",
              "type": "uint256"
            },
            {
              "internalType": "uint256",
              "name": "attackSpeed",
              "type": "uint256"
            },
            {
              "internalType": "uint256",
              "name": "additionalDamage",
              "type": "uint256"
            },
            {
              "internalType": "uint256",
              "name": "additionalDefense",
              "type": "uint256"
            },
            {
              "internalType": "uint256",
              "name": "fighterId",
              "type": "uint256"
            },
            {
              "internalType": "uint256",
              "name": "lastUpdBlock",
              "type": "uint256"
            },
            {
              "internalType": "uint256",
              "name": "itemRarityLevel",
              "type": "uint256"
            },
            {
              "internalType": "uint256",
              "name": "itemAttributesId",
              "type": "uint256"
            },
            {
              "internalType": "uint256",
              "name": "packSize",
              "type": "uint256"
            },
            {
              "internalType": "bool",
              "name": "luck",
              "type": "bool"
            },
            {
              "internalType": "bool",
              "name": "skill",
              "type": "bool"
            },
            {
              "internalType": "bool",
              "name": "isPackable",
              "type": "bool"
            },
            {
              "internalType": "bool",
              "name": "isBox",
              "type": "bool"
            },
            {
              "internalType": "bool",
              "name": "isWeapon",
              "type": "bool"
            },
            {
              "internalType": "bool",
              "name": "isArmour",
              "type": "bool"
            },
            {
              "internalType": "bool",
              "name": "isJewel",
              "type": "bool"
            },
            {
              "internalType": "bool",
              "name": "isWings",
              "type": "bool"
            },
            {
              "internalType": "bool",
              "name": "isMisc",
              "type": "bool"
            },
            {
              "internalType": "bool",
              "name": "isConsumable",
              "type": "bool"
            },
            {
              "internalType": "bool",
              "name": "inShop",
              "type": "bool"
            }
          ],
          "internalType": "struct ItemsAtts.ItemAttributes",
          "name": "",
          "type": "tuple"
        }
      ],
      "stateMutability": "view",
      "type": "function",
      "constant": true
    },
    {
      "inputs": [
        {
          "internalType": "uint256",
          "name": "tokenId",
          "type": "uint256"
        }
      ],
      "name": "burnConsumable",
      "outputs": [],
      "stateMutability": "nonpayable",
      "type": "function"
    },
    {
      "inputs": [
        {
          "internalType": "address",
          "name": "userAddress",
          "type": "address"
        }
      ],
      "name": "getUserItems",
      "outputs": [
        {
          "internalType": "uint256[]",
          "name": "",
          "type": "uint256[]"
        }
      ],
      "stateMutability": "view",
      "type": "function",
      "constant": true
    },
    {
      "inputs": [
        {
          "internalType": "address",
          "name": "userAddress",
          "type": "address"
        },
        {
          "internalType": "uint256",
          "name": "fighterId",
          "type": "uint256"
        }
      ],
      "name": "getFighterItems",
      "outputs": [
        {
          "internalType": "uint256[2][]",
          "name": "",
          "type": "uint256[2][]"
        }
      ],
      "stateMutability": "view",
      "type": "function",
      "constant": true
    },
    {
      "inputs": [
        {
          "internalType": "uint256",
          "name": "a",
          "type": "uint256"
        },
        {
          "internalType": "uint256",
          "name": "b",
          "type": "uint256"
        }
      ],
      "name": "safeMul",
      "outputs": [
        {
          "internalType": "uint256",
          "name": "",
          "type": "uint256"
        }
      ],
      "stateMutability": "nonpayable",
      "type": "function"
    },
    {
      "inputs": [
        {
          "internalType": "uint256",
          "name": "a",
          "type": "uint256"
        },
        {
          "internalType": "uint256",
          "name": "b",
          "type": "uint256"
        }
      ],
      "name": "safeSub",
      "outputs": [
        {
          "internalType": "uint256",
          "name": "",
          "type": "uint256"
        }
      ],
      "stateMutability": "nonpayable",
      "type": "function"
    },
    {
      "inputs": [
        {
          "internalType": "uint256",
          "name": "a",
          "type": "uint256"
        },
        {
          "internalType": "uint256",
          "name": "b",
          "type": "uint256"
        }
      ],
      "name": "safeAdd",
      "outputs": [
        {
          "internalType": "uint256",
          "name": "",
          "type": "uint256"
        }
      ],
      "stateMutability": "nonpayable",
      "type": "function"
    }
  ],
  "bytecode": "0x60806040526064600a55601c600b556032600c556032600d55601e600e55601e600f556002601055600160115560006012553480156200003e57600080fd5b5060405162005a7d38038062005a7d833981016040819052620000619162001195565b604051806040016040528060068152602001651354925554d160d21b815250604051806040016040528060048152602001634974656d60e01b8152508160009081620000ae919062001271565b506001620000bd828262001271565b505060158054336001600160a01b0319918216179091556013805482166001600160a01b03868116919091179091556014805490921690841617905550604080516104c081018252606080825260006020830181905292820183905281018290526080810182905260a0810182905260c0810182905260e08101829052610100810182905261012081018290526101408101829052610160810182905261018081018290526101a081018290526101c081018290526101e08101829052610200810182905261022081018290526102408101829052610260810182905261028081018290526102a081018290526102c081018290526102e08101829052610300810182905261032081018290526103408101829052610360810182905261038081018290526103a081018290526103c081018290526103e08101829052610400810182905261042081018290526104408101829052610460810182905261048081018290526104a081019190915260408051808201909152600a815269456d707479206974656d60b01b602082015281526200025981620002a2565b5062000265816200070d565b60408051808201909152600481526311dbdb1960e21b602082015281526200028d81620002a2565b5062000299816200070d565b50505062001466565b601c80546001810182556000828152835190928492027f0e4562a10381dec21b205ed72637e6b1b523bdd0e4d4d50af5cd23dd4500a21101908190620002e9908262001271565b506020820151816001015560408201518160020155606082015181600301556080820151816004015560a0820151816005015560c0820151816006015560e082015181600701556101008201518160080155610120820151816009015561014082015181600a015561016082015181600b015561018082015181600c01556101a082015181600d01556101c082015181600e01556101e082015181600f0155610200820151816010015561022082015181601101556102408201518160120155610260820151816013015561028082015181601401556102a082015181601501556102c082015181601601556102e082015181601701556103008201518160180155610320820151816019015561034082015181601a015561036082015181601b0160006101000a81548160ff02191690831515021790555061038082015181601b0160016101000a81548160ff0219169083151502179055506103a082015181601b0160026101000a81548160ff0219169083151502179055506103c082015181601b0160036101000a81548160ff0219169083151502179055506103e082015181601b0160046101000a81548160ff02191690831515021790555061040082015181601b0160056101000a81548160ff02191690831515021790555061042082015181601b0160066101000a81548160ff02191690831515021790555061044082015181601b0160076101000a81548160ff02191690831515021790555061046082015181601b0160086101000a81548160ff02191690831515021790555061048082015181601b0160096101000a81548160ff0219169083151502179055506104a082015181601b01600a6101000a81548160ff021916908315150217905550505060006001601c805490506200058491906200133d565b905080601c82815481106200059d576200059d62001365565b90600052602060002090601c020160190181905550826103e0015115620005eb57610300830151600090815260166020908152604082208054600181018255908352912001819055620006ca565b826104000151156200062457610300830151600090815260176020908152604082208054600181018255908352912001819055620006ca565b826104200151156200065d57610300830151600090815260186020908152604082208054600181018255908352912001819055620006ca565b8261046001511562000696576103008301516000908152601a6020908152604082208054600181018255908352912001819055620006ca565b82610440015115620006ca576103008301516000908152601960209081526040822080546001810182559083529120018190555b82516040517f0538ce8dba67be446d1a480a6e48683b27c6efb61d7c01d60767e15705e5d00f91620006ff91849190620013c3565b60405180910390a192915050565b6200071c601d80546001019055565b600062000728601d5490565b905062000736338262000767565b6200074281836200078d565b6000818152601b60205260408120600181019290925560168201554360179091015550565b6200078982826040518060200160405280600081525062000aa260201b60201c565b5050565b6000828152600260205260409020546001600160a01b0316620007f75760405162461bcd60e51b815260206004820152601460248201527f546f6b656e20646f6573206e6f7420657869737400000000000000000000000060448201526064015b60405180910390fd5b6000828152601b602052604090208151829190819062000818908262001271565b506020820151816001015560408201518160020155606082015181600301556080820151816004015560a0820151816005015560c0820151816006015560e082015181600701556101008201518160080155610120820151816009015561014082015181600a015561016082015181600b015561018082015181600c01556101a082015181600d01556101c082015181600e01556101e082015181600f0155610200820151816010015561022082015181601101556102408201518160120155610260820151816013015561028082015181601401556102a082015181601501556102c082015181601601556102e082015181601701556103008201518160180155610320820151816019015561034082015181601a015561036082015181601b0160006101000a81548160ff02191690831515021790555061038082015181601b0160016101000a81548160ff0219169083151502179055506103a082015181601b0160026101000a81548160ff0219169083151502179055506103c082015181601b0160036101000a81548160ff0219169083151502179055506103e082015181601b0160046101000a81548160ff02191690831515021790555061040082015181601b0160056101000a81548160ff02191690831515021790555061042082015181601b0160066101000a81548160ff02191690831515021790555061044082015181601b0160076101000a81548160ff02191690831515021790555061046082015181601b0160086101000a81548160ff02191690831515021790555061048082015181601b0160096101000a81548160ff0219169083151502179055506104a082015181601b01600a6101000a81548160ff0219169083151502179055509050505050565b62000aae838362000b1a565b62000abd600084848462000cbb565b62000b155760405162461bcd60e51b8152602060048201526032602482015260008051602062005a5d83398151915260448201527131b2b4bb32b91034b6b83632b6b2b73a32b960711b6064820152608401620007ee565b505050565b6001600160a01b03821662000b725760405162461bcd60e51b815260206004820181905260248201527f4552433732313a206d696e7420746f20746865207a65726f20616464726573736044820152606401620007ee565b6000818152600260205260409020546001600160a01b03161562000bd95760405162461bcd60e51b815260206004820152601c60248201527f4552433732313a20746f6b656e20616c7265616479206d696e746564000000006044820152606401620007ee565b62000be960008383600162000e03565b6000818152600260205260409020546001600160a01b03161562000c505760405162461bcd60e51b815260206004820152601c60248201527f4552433732313a20746f6b656e20616c7265616479206d696e746564000000006044820152606401620007ee565b6001600160a01b038216600081815260036020908152604080832080546001019055848352600290915280822080546001600160a01b0319168417905551839291907fddf252ad1be2c89b69c2b068fc378daa952ba7f163c4a11628f55a4df523b3ef908290a45050565b60006001600160a01b0384163b1562000df757604051630a85bd0160e11b81526001600160a01b0385169063150b7a029062000d02903390899088908890600401620013de565b6020604051808303816000875af192505050801562000d40575060408051601f3d908101601f1916820190925262000d3d918101906200141d565b60015b62000ddc573d80801562000d71576040519150601f19603f3d011682016040523d82523d6000602084013e62000d76565b606091505b50805160000362000dd45760405162461bcd60e51b8152602060048201526032602482015260008051602062005a5d83398151915260448201527131b2b4bb32b91034b6b83632b6b2b73a32b960711b6064820152608401620007ee565b805181602001fd5b6001600160e01b031916630a85bd0160e11b14905062000dfb565b5060015b949350505050565b600181111562000e7c5760405162461bcd60e51b815260206004820152603560248201527f455243373231456e756d657261626c653a20636f6e736563757469766520747260448201527f616e7366657273206e6f7420737570706f7274656400000000000000000000006064820152608401620007ee565b816001600160a01b03851662000edb5762000ed581600880546000838152600960205260408120829055600182018355919091527ff3f7a9fe364faab93b216da50a3214154f22a0a2b415b23a84c8169e8b636ee30155565b62000f01565b836001600160a01b0316856001600160a01b03161462000f015762000f01858262000f4e565b6001600160a01b03841662000f215762000f1b8162000ff0565b62000f47565b846001600160a01b0316846001600160a01b03161462000f475762000f478482620010aa565b5050505050565b6000600162000f5d84620010f0565b62000f6991906200133d565b60008381526007602052604090205490915080821462000fbd576001600160a01b03841660009081526006602090815260408083208584528252808320548484528184208190558352600790915290208190555b5060009182526007602090815260408084208490556001600160a01b039094168352600681528383209183525290812055565b60085460009062001004906001906200133d565b600083815260096020526040812054600880549394509092849081106200102f576200102f62001365565b90600052602060002001549050806008838154811062001053576200105362001365565b60009182526020808320909101929092558281526009909152604080822084905585825281205560088054806200108e576200108e62001450565b6001900381819060005260206000200160009055905550505050565b6000620010b783620010f0565b6001600160a01b039093166000908152600660209081526040808320868452825280832085905593825260079052919091209190915550565b60006001600160a01b0382166200115c5760405162461bcd60e51b815260206004820152602960248201527f4552433732313a2061646472657373207a65726f206973206e6f7420612076616044820152683634b21037bbb732b960b91b6064820152608401620007ee565b506001600160a01b031660009081526003602052604090205490565b80516001600160a01b03811681146200119057600080fd5b919050565b60008060408385031215620011a957600080fd5b620011b48362001178565b9150620011c46020840162001178565b90509250929050565b634e487b7160e01b600052604160045260246000fd5b600181811c90821680620011f857607f821691505b6020821081036200121957634e487b7160e01b600052602260045260246000fd5b50919050565b601f82111562000b1557600081815260208120601f850160051c81016020861015620012485750805b601f850160051c820191505b81811015620012695782815560010162001254565b505050505050565b81516001600160401b038111156200128d576200128d620011cd565b620012a5816200129e8454620011e3565b846200121f565b602080601f831160018114620012dd5760008415620012c45750858301515b600019600386901b1c1916600185901b17855562001269565b600085815260208120601f198616915b828110156200130e57888601518255948401946001909101908401620012ed565b50858210156200132d5787850151600019600388901b60f8161c191681555b5050505050600190811b01905550565b818103818111156200135f57634e487b7160e01b600052601160045260246000fd5b92915050565b634e487b7160e01b600052603260045260246000fd5b6000815180845260005b81811015620013a35760208185018101518683018201520162001385565b506000602082860101526020601f19601f83011685010191505092915050565b82815260406020820152600062000dfb60408301846200137b565b6001600160a01b038581168252841660208201526040810183905260806060820181905260009062001413908301846200137b565b9695505050505050565b6000602082840312156200143057600080fd5b81516001600160e01b0319811681146200144957600080fd5b9392505050565b634e487b7160e01b600052603160045260246000fd5b6145e780620014766000396000f3fe608060405234801561001057600080fd5b506004361061027e5760003560e01c80637f46914f1161015c578063c29a3c93116100ce578063e6cb901311610087578063e6cb9013146105b8578063e8af18f3146105cb578063e985e9c5146105de578063e9dbd3eb1461061a578063f4d106541461062d578063fd8f61701461064057600080fd5b8063c29a3c9314610546578063c715089b14610559578063c87b56dd1461056c578063caf7c4451461057f578063ce6019b414610592578063d05c78da146105a557600080fd5b80639b94680f116101205780639b94680f146104d4578063a0b2adc0146104e7578063a22cb465146104fa578063a293d1e81461050d578063a422910114610520578063b88d4fde1461053357600080fd5b80637f46914f1461048057806380971e2c14610493578063843bd641146104a65780638da5cb5b146104b957806395d89b41146104cc57600080fd5b806332fac8f8116101f5578063576cc0f7116101b9578063576cc0f71461040e5780635e8a44be1461042157806363503447146104345780636352211e146104475780636995795b1461045a57806370a082311461046d57600080fd5b806332fac8f8146103a257806340d097c3146103b557806342842e0e146103c85780634f6ccce7146103db578063513c1452146103ee57600080fd5b8063081812fc11610247578063081812fc14610314578063095ea7b31461033f57806318160ddd146103545780631f4f5a231461035c57806323b872dd1461037c5780632f745c591461038f57600080fd5b8062695f4b1461028357806301ffc9a7146102a957806303d2e4a1146102cc57806303f46b8b146102df57806306fdde03146102ff575b600080fd5b610296610291366004613746565b610653565b6040519081526020015b60405180910390f35b6102bc6102b736600461377e565b610684565b60405190151581526020016102a0565b6102966102da366004613746565b6106af565b6102f26102ed36600461379b565b6106cb565b6040516102a091906137b4565b61030761072d565b6040516102a09190613848565b61032761032236600461379b565b6107bf565b6040516001600160a01b0390911681526020016102a0565b61035261034d366004613870565b6107e6565b005b600854610296565b61036f61036a36600461379b565b610900565b6040516102a0919061389c565b61035261038a366004613aee565b610bb3565b61029661039d366004613870565b610be4565b6103526103b0366004613746565b610c7a565b6102966103c3366004613b2f565b610e63565b6103526103d6366004613aee565b610e8a565b6102966103e936600461379b565b610ea5565b6104016103fc366004613870565b610f38565b6040516102a09190613b4c565b61035261041c36600461379b565b611045565b61029661042f366004613c24565b6110e4565b610296610442366004613746565b6113b8565b61032761045536600461379b565b6113d4565b61036f61046836600461379b565b611434565b61029661047b366004613b2f565b6114c0565b61035261048e366004613746565b611546565b6103526104a136600461379b565b6119e7565b6102bc6104b436600461379b565b611cc2565b601554610327906001600160a01b031681565b610307611ccd565b6102f26104e236600461379b565b611cdc565b6102f26104f536600461379b565b611d3c565b610352610508366004613cf8565b611ee8565b61029661051b366004613746565b611ef3565b61035261052e366004613d2d565b611f16565b610352610541366004613db4565b611f5e565b610296610554366004613746565b611f96565b610296610567366004614078565b611fb2565b61030761057a36600461379b565b61240b565b61035261058d366004613746565b61247e565b6102f26105a0366004613b2f565b6125a4565b6102966105b3366004613746565b612645565b6102966105c6366004613746565b612675565b6102f26105d936600461379b565b61269f565b6102bc6105ec3660046140ac565b6001600160a01b03918216600090815260056020908152604080832093909416825291909152205460ff1690565b6103526106283660046140da565b6126ff565b61029661063b366004613746565b6129cd565b6102f261064e36600461379b565b6129e9565b6019602052816000526040600020818154811061066f57600080fd5b90600052602060002001600091509150505481565b60006001600160e01b0319821663780e9d6360e01b14806106a957506106a982612a49565b92915050565b6018602052816000526040600020818154811061066f57600080fd5b60008181526018602090815260409182902080548351818402810184019094528084526060939283018282801561072157602002820191906000526020600020905b81548152602001906001019080831161070d575b50505050509050919050565b60606000805461073c90614120565b80601f016020809104026020016040519081016040528092919081815260200182805461076890614120565b80156107b55780601f1061078a576101008083540402835291602001916107b5565b820191906000526020600020905b81548152906001019060200180831161079857829003601f168201915b5050505050905090565b60006107ca82612a99565b506000908152600460205260409020546001600160a01b031690565b60006107f1826113d4565b9050806001600160a01b0316836001600160a01b0316036108635760405162461bcd60e51b815260206004820152602160248201527f4552433732313a20617070726f76616c20746f2063757272656e74206f776e656044820152603960f91b60648201526084015b60405180910390fd5b336001600160a01b038216148061087f575061087f81336105ec565b6108f15760405162461bcd60e51b815260206004820152603d60248201527f4552433732313a20617070726f76652063616c6c6572206973206e6f7420746f60448201527f6b656e206f776e6572206f7220617070726f76656420666f7220616c6c000000606482015260840161085a565b6108fb8383612ae9565b505050565b6109086135fb565b61091182612b57565b61092d5760405162461bcd60e51b815260040161085a9061415a565b6000828152601b60205260409081902081516104c0810190925280548290829061095690614120565b80601f016020809104026020016040519081016040528092919081815260200182805461098290614120565b80156109cf5780601f106109a4576101008083540402835291602001916109cf565b820191906000526020600020905b8154815290600101906020018083116109b257829003601f168201915b505050918352505060018201546020820152600282015460408201526003820154606082015260048201546080820152600582015460a0820152600682015460c0820152600782015460e08201526008820154610100808301919091526009830154610120830152600a830154610140830152600b830154610160830152600c830154610180830152600d8301546101a0830152600e8301546101c0830152600f8301546101e08301526010830154610200830152601183015461022083015260128301546102408301526013830154610260830152601483015461028083015260158301546102a083015260168301546102c083015260178301546102e083015260188301546103008301526019830154610320830152601a830154610340830152601b9092015460ff808216151561036084015292810483161515610380830152620100008104831615156103a083015263010000008104831615156103c08301526401000000008104831615156103e0830152600160281b810483161515610400830152600160301b810483161515610420830152600160381b810483161515610440830152600160401b810483161515610460830152600160481b810483161515610480830152600160501b900490911615156104a09091015292915050565b610bbd3382612b74565b610bd95760405162461bcd60e51b815260040161085a90614188565b6108fb838383612bf2565b6000610bef836114c0565b8210610c515760405162461bcd60e51b815260206004820152602b60248201527f455243373231456e756d657261626c653a206f776e657220696e646578206f7560448201526a74206f6620626f756e647360a81b606482015260840161085a565b506001600160a01b03919091166000908152600660209081526040808320938352929052205490565b600b54811115610cc15760405162461bcd60e51b815260206004820152601260248201527113585e081c1bda5b9d1cc81c995858da195960721b604482015260640161085a565b6000828152601b602081905260409091200154640100000000900460ff1680610d0357506000828152601b602081905260409091200154600160281b900460ff165b80610d2757506000828152601b602081905260409091200154600160381b900460ff165b610d685760405162461bcd60e51b815260206004820152601260248201527113585e081c1bda5b9d1cc81c995858da195960721b604482015260640161085a565b6000828152601b602081905260409091200154640100000000900460ff1680610daa57506000828152601b602081905260409091200154600160381b900460ff165b15610dc8576000828152601b60205260409020601401819055610dff565b6000828152601b602081905260409091200154600160281b900460ff1615610dff576000828152601b602052604090206015018190555b6000828152601b6020526040902060148101546015909101547feb0459535a230602900381169fbc16d356c03aaccc2d5579b42d132d65ffa82a918491610e4691906141eb565b604080519283526020830191909152015b60405180910390a15050565b6000610e73601d80546001019055565b6000610e7e601d5490565b90506106a98382612d63565b6108fb83838360405180602001604052806000815250611f5e565b6000610eb060085490565b8210610f135760405162461bcd60e51b815260206004820152602c60248201527f455243373231456e756d657261626c653a20676c6f62616c20696e646578206f60448201526b7574206f6620626f756e647360a01b606482015260840161085a565b60088281548110610f2657610f266141fe565b90600052602060002001549050919050565b60606000610f45846114c0565b90506000816001600160401b03811115610f6157610f61613bb5565b604051908082528060200260200182016040528015610f9a57816020015b610f87613728565b815260200190600190039081610f7f5790505b509050600080805b8481101561103957610fb48882610be4565b6000818152601b6020526040902060160154909350879003611019576040518060400160405280848152602001601b60008681526020019081526020016000206017015481525084838151811061100d5761100d6141fe565b60200260200101819052505b8161102381614214565b925050808061103190614214565b915050610fa2565b50919695505050505050565b6001811161108d5760405162461bcd60e51b8152602060048201526015602482015274151bdad95b8818d85b9b9bdd08189948189d5c9b9d605a1b604482015260640161085a565b61109681612b57565b6110d85760405162461bcd60e51b8152602060048201526013602482015272151bdad95b88191bd95cdb89dd08195e1a5cdd606a1b604482015260640161085a565b6110e181612d7d565b50565b6000806110f086611434565b9050806103a001516111385760405162461bcd60e51b81526020600482015260116024820152704974656d206e6f74207061636b61626c6560781b604482015260640161085a565b8385511461117c5760405162461bcd60e51b8152602060048201526011602482015270496e76616c6964207061636b2073697a6560781b604482015260640161085a565b60005b85518110156112a75786601b600088848151811061119f5761119f6141fe565b6020026020010151815260200190815260200160002060190154146111f55760405162461bcd60e51b815260206004820152600c60248201526b496e76616c6964206974656d60a01b604482015260640161085a565b83601b600088848151811061120c5761120c6141fe565b6020026020010151815260200190815260200160002060160154146112735760405162461bcd60e51b815260206004820152601f60248201527f4974656d20646f6573206e6f742062656c6f6e6720746f206669676874657200604482015260640161085a565b611295868281518110611288576112886141fe565b6020026020010151612d7d565b8061129f81614214565b91505061117f565b506112b6601d80546001019055565b601d5460135460405163620d1b0560e11b815260048101869052919350611333916001600160a01b039091169063c41a360a90602401602060405180830381865afa158015611309573d6000803e3d6000fd5b505050506040513d601f19601f8201168201806040525081019061132d919061422d565b83612d63565b61133d82826126ff565b6000828152601b60209081526040918290206001810185905560168101869055436017820155601a018690558151888152908101869052908101849052606081018390527ff23cada75feb5ca7eb08dc7495e2346ab23f1113a675f4d0a3bb2bcb3219cab09060800160405180910390a1505b949350505050565b6017602052816000526040600020818154811061066f57600080fd5b6000818152600260205260408120546001600160a01b0316806106a95760405162461bcd60e51b8152602060048201526018602482015277115490cdcc8c4e881a5b9d985b1a59081d1bdad95b88125160421b604482015260640161085a565b61143c6135fb565b601c5482106114835760405162461bcd60e51b8152602060048201526013602482015272125d195b48191bd95cc81b9bdd08195e1a5cdd606a1b604482015260640161085a565b601c8281548110611496576114966141fe565b90600052602060002090601c0201604051806104c001604052908160008201805461095690614120565b60006001600160a01b03821661152a5760405162461bcd60e51b815260206004820152602960248201527f4552433732313a2061646472657373207a65726f206973206e6f7420612076616044820152683634b21037bbb732b960b91b606482015260840161085a565b506001600160a01b031660009081526003602052604090205490565b601c8281548110611559576115596141fe565b90600052602060002090601c0201601b01600a9054906101000a900460ff166115ce5760405162461bcd60e51b815260206004820152602160248201527f4974656d206e6f7420696e2073686f70206f7220646f65736e277420657869736044820152601d60fa1b606482015260840161085a565b6115dc601d80546001019055565b60006115e7601d5490565b60135460405163620d1b0560e11b815260048101859052919250611662916001600160a01b039091169063c41a360a906024015b602060405180830381865afa158015611638573d6000803e3d6000fd5b505050506040513d601f19601f8201168201806040525081019061165c919061422d565b82612d63565b6118ff81601c8581548110611679576116796141fe565b90600052602060002090601c0201604051806104c00160405290816000820180546116a390614120565b80601f01602080910402602001604051908101604052809291908181526020018280546116cf90614120565b801561171c5780601f106116f15761010080835404028352916020019161171c565b820191906000526020600020905b8154815290600101906020018083116116ff57829003601f168201915b505050918352505060018201546020820152600282015460408201526003820154606082015260048201546080820152600582015460a0820152600682015460c0820152600782015460e08201526008820154610100808301919091526009830154610120830152600a830154610140830152600b830154610160830152600c830154610180830152600d8301546101a0830152600e8301546101c0830152600f8301546101e08301526010830154610200830152601183015461022083015260128301546102408301526013830154610260830152601483015461028083015260158301546102a083015260168301546102c083015260178301546102e083015260188301546103008301526019830154610320830152601a830154610340830152601b9092015460ff808216151561036084015292810483161515610380830152620100008104831615156103a083015263010000008104831615156103c08301526401000000008104831615156103e0830152600160281b810483161515610400830152600160301b810483161515610420830152600160381b810483161515610440830152600160401b810483161515610460830152600160481b810483161515610480830152600160501b900490911615156104a0909101526126ff565b6000818152601b60205260409081902060018101839055601981018590556016810184905543601790910155601354905163620d1b0560e11b8152600481018490527f78cb587a56a0dc7913ec51993eb7f7bf182fca207bd1460930bc912747387edd91839186916001600160a01b03169063c41a360a90602401602060405180830381865afa158015611997573d6000803e3d6000fd5b505050506040513d601f19601f820116820180604052508101906119bb919061422d565b6000858152601b60205260409081902090516119da949392919061424a565b60405180910390a1505050565b6000818152601b602052604080822081516104c08101909252805482908290611a0f90614120565b80601f0160208091040260200160405190810160405280929190818152602001828054611a3b90614120565b8015611a885780601f10611a5d57610100808354040283529160200191611a88565b820191906000526020600020905b815481529060010190602001808311611a6b57829003601f168201915b505050918352505060018201546020820152600282015460408201526003820154606082015260048201546080820152600582015460a0820152600682015460c0820152600782015460e08201526008820154610100808301919091526009830154610120830152600a830154610140830152600b830154610160830152600c830154610180830152600d8301546101a0830152600e8301546101c0830152600f8301546101e08301526010830154610200830152601183015461022083015260128301546102408301526013830154610260830152601483015461028083015260158301546102a083015260168301546102c083015260178301546102e083015260188301546103008301526019830154610320830152601a830154610340830152601b9092015460ff808216151561036084015292810483161515610380830152620100008104831615156103a083015263010000008104831615156103c08301526401000000008104831615156103e0830152600160281b810483161515610400830152600160301b810483161515610420830152600160381b810483161515610440830152600160401b810483161515610460830152600160481b81048316151561048080840191909152600160501b90910490921615156104a090910152810151909150611cb55760405162461bcd60e51b81526020600482015260156024820152744974656d206e6f74206120636f6e73756d61626c6560581b604482015260640161085a565b611cbe82612d7d565b5050565b60006106a982612b57565b60606001805461073c90614120565b600081815260176020908152604091829020805483518184028101840190945280845260609392830182828015610721576020028201919060005260206000209081548152602001906001019080831161070d5750505050509050919050565b60606000611d4983610900565b9050600181610340015111611d925760405162461bcd60e51b815260206004820152600f60248201526e125d195b481b9bdd081c1858dad959608a1b604482015260640161085a565b8061034001516001600160401b03811115611daf57611daf613bb5565b604051908082528060200260200182016040528015611dd8578160200160208202803683370190505b50915060005b816103400151811015611eae57611df9601d80546001019055565b6000611e04601d5490565b6013546102c085015160405163620d1b0560e11b8152929350611e43926001600160a01b039092169163c41a360a9161161b9160040190815260200190565b611e4d81846126ff565b6000818152601b6020526040902060018082018390556102c08501516016830155436017830155601a9091015583518190859084908110611e9057611e906141fe565b60209081029190910101525080611ea681614214565b915050611dde565b506040518381527f0fad508c2e2420df470e18850d9a875076a51dc53e9b794e327a05f31340d78f9060200160405180910390a150919050565b611cbe338383612e20565b600082821115611f0557611f056142f3565b611f0f8284614309565b9392505050565b611f1f82612b57565b611f3b5760405162461bcd60e51b815260040161085a9061415a565b6000828152600260205260409020546001600160a01b03166108fb818385612bf2565b611f683383612b74565b611f845760405162461bcd60e51b815260040161085a90614188565b611f9084848484612eee565b50505050565b601a602052816000526040600020818154811061066f57600080fd5b601c80546001810182556000828152835190928492027f0e4562a10381dec21b205ed72637e6b1b523bdd0e4d4d50af5cd23dd4500a21101908190611ff7908261436a565b506020820151816001015560408201518160020155606082015181600301556080820151816004015560a0820151816005015560c0820151816006015560e082015181600701556101008201518160080155610120820151816009015561014082015181600a015561016082015181600b015561018082015181600c01556101a082015181600d01556101c082015181600e01556101e082015181600f0155610200820151816010015561022082015181601101556102408201518160120155610260820151816013015561028082015181601401556102a082015181601501556102c082015181601601556102e082015181601701556103008201518160180155610320820151816019015561034082015181601a015561036082015181601b0160006101000a81548160ff02191690831515021790555061038082015181601b0160016101000a81548160ff0219169083151502179055506103a082015181601b0160026101000a81548160ff0219169083151502179055506103c082015181601b0160036101000a81548160ff0219169083151502179055506103e082015181601b0160046101000a81548160ff02191690831515021790555061040082015181601b0160056101000a81548160ff02191690831515021790555061042082015181601b0160066101000a81548160ff02191690831515021790555061044082015181601b0160076101000a81548160ff02191690831515021790555061046082015181601b0160086101000a81548160ff02191690831515021790555061048082015181601b0160096101000a81548160ff0219169083151502179055506104a082015181601b01600a6101000a81548160ff021916908315150217905550505060006001601c805490506122909190614309565b905080601c82815481106122a6576122a66141fe565b90600052602060002090601c020160190181905550826103e00151156122f2576103008301516000908152601660209081526040822080546001810182559083529120018190556123ca565b82610400015115612329576103008301516000908152601760209081526040822080546001810182559083529120018190556123ca565b82610420015115612360576103008301516000908152601860209081526040822080546001810182559083529120018190556123ca565b82610460015115612397576103008301516000908152601a60209081526040822080546001810182559083529120018190556123ca565b826104400151156123ca576103008301516000908152601960209081526040822080546001810182559083529120018190555b82516040517f0538ce8dba67be446d1a480a6e48683b27c6efb61d7c01d60767e15705e5d00f916123fd91849190614429565b60405180910390a192915050565b606061241682612a99565b600061242d60408051602081019091526000815290565b9050600081511161244d5760405180602001604052806000815250611f0f565b8061245784612f21565b604051602001612468929190614442565b6040516020818303038152906040529392505050565b6000828152601b60205260409020600301548111156124d85760405162461bcd60e51b815260206004820152601660248201527513585e081a5d195b481b195d995b081c995858da195960521b604482015260640161085a565b6000828152601b60205260409020600201546124f59060016141eb565b8111156125595760405162461bcd60e51b815260206004820152602c60248201527f4974656d2063616e2062652075706772616465206f6e65206c6576656c20617460448201526b20612074696d65206f6e6c7960a01b606482015260840161085a565b6000828152601b602090815260409182902060020183905581518481529081018390527f535fb4315d70f1b2d62609c85f8b9cd714e3687d6cee1a46ff7947f852bf71649101610e57565b606060006125b1836114c0565b90506000816001600160401b038111156125cd576125cd613bb5565b6040519080825280602002602001820160405280156125f6578160200160208202803683370190505b50905060005b8281101561263d5761260e8582610be4565b828281518110612620576126206141fe565b60209081029190910101528061263581614214565b9150506125fc565b509392505050565b6000806126528385614471565b90508315806126695750826126678583614488565b145b611f0f57611f0f6142f3565b60008061268283856141eb565b9050838110158015612669575082811015611f0f57611f0f6142f3565b600081815260166020908152604091829020805483518184028101840190945280845260609392830182828015610721576020028201919060005260206000209081548152602001906001019080831161070d5750505050509050919050565b61270882612b57565b6127245760405162461bcd60e51b815260040161085a9061415a565b6000828152601b6020526040902081518291908190612743908261436a565b506020820151816001015560408201518160020155606082015181600301556080820151816004015560a0820151816005015560c0820151816006015560e082015181600701556101008201518160080155610120820151816009015561014082015181600a015561016082015181600b015561018082015181600c01556101a082015181600d01556101c082015181600e01556101e082015181600f0155610200820151816010015561022082015181601101556102408201518160120155610260820151816013015561028082015181601401556102a082015181601501556102c082015181601601556102e082015181601701556103008201518160180155610320820151816019015561034082015181601a015561036082015181601b0160006101000a81548160ff02191690831515021790555061038082015181601b0160016101000a81548160ff0219169083151502179055506103a082015181601b0160026101000a81548160ff0219169083151502179055506103c082015181601b0160036101000a81548160ff0219169083151502179055506103e082015181601b0160046101000a81548160ff02191690831515021790555061040082015181601b0160056101000a81548160ff02191690831515021790555061042082015181601b0160066101000a81548160ff02191690831515021790555061044082015181601b0160076101000a81548160ff02191690831515021790555061046082015181601b0160086101000a81548160ff02191690831515021790555061048082015181601b0160096101000a81548160ff0219169083151502179055506104a082015181601b01600a6101000a81548160ff0219169083151502179055509050505050565b6016602052816000526040600020818154811061066f57600080fd5b6000818152601a6020908152604091829020805483518184028101840190945280845260609392830182828015610721576020028201919060005260206000209081548152602001906001019080831161070d5750505050509050919050565b60006001600160e01b031982166380ac58cd60e01b1480612a7a57506001600160e01b03198216635b5e139f60e01b145b806106a957506301ffc9a760e01b6001600160e01b03198316146106a9565b612aa281612b57565b6110e15760405162461bcd60e51b8152602060048201526018602482015277115490cdcc8c4e881a5b9d985b1a59081d1bdad95b88125160421b604482015260640161085a565b600081815260046020526040902080546001600160a01b0319166001600160a01b0384169081179091558190612b1e826113d4565b6001600160a01b03167f8c5be1e5ebec7d5bd14f71427d1e84f3dd0314c0f7b2291e5b200ac8c7c3b92560405160405180910390a45050565b6000908152600260205260409020546001600160a01b0316151590565b600080612b80836113d4565b9050806001600160a01b0316846001600160a01b03161480612bc757506001600160a01b0380821660009081526005602090815260408083209388168352929052205460ff165b806113b05750836001600160a01b0316612be0846107bf565b6001600160a01b031614949350505050565b826001600160a01b0316612c05826113d4565b6001600160a01b031614612c2b5760405162461bcd60e51b815260040161085a906144aa565b6001600160a01b038216612c8d5760405162461bcd60e51b8152602060048201526024808201527f4552433732313a207472616e7366657220746f20746865207a65726f206164646044820152637265737360e01b606482015260840161085a565b612c9a8383836001612fb3565b826001600160a01b0316612cad826113d4565b6001600160a01b031614612cd35760405162461bcd60e51b815260040161085a906144aa565b600081815260046020908152604080832080546001600160a01b03199081169091556001600160a01b0387811680865260038552838620805460001901905590871680865283862080546001019055868652600290945282852080549092168417909155905184937fddf252ad1be2c89b69c2b068fc378daa952ba7f163c4a11628f55a4df523b3ef91a4505050565b611cbe8282604051806020016040528060008152506130e7565b6000612d88826113d4565b9050612d98816000846001612fb3565b612da1826113d4565b600083815260046020908152604080832080546001600160a01b03199081169091556001600160a01b0385168085526003845282852080546000190190558785526002909352818420805490911690555192935084927fddf252ad1be2c89b69c2b068fc378daa952ba7f163c4a11628f55a4df523b3ef908390a45050565b816001600160a01b0316836001600160a01b031603612e815760405162461bcd60e51b815260206004820152601960248201527f4552433732313a20617070726f766520746f2063616c6c657200000000000000604482015260640161085a565b6001600160a01b03838116600081815260056020908152604080832094871680845294825291829020805460ff191686151590811790915591519182527f17307eab39ab6107e8899845ad3d59bd9653f200f220920489ca2b5937696c31910160405180910390a3505050565b612ef9848484612bf2565b612f058484848461311a565b611f905760405162461bcd60e51b815260040161085a906144ef565b60606000612f2e83613218565b60010190506000816001600160401b03811115612f4d57612f4d613bb5565b6040519080825280601f01601f191660200182016040528015612f77576020820181803683370190505b5090508181016020015b600019016f181899199a1a9b1b9c1cb0b131b232b360811b600a86061a8153600a8504945084612f8157509392505050565b60018111156130225760405162461bcd60e51b815260206004820152603560248201527f455243373231456e756d657261626c653a20636f6e7365637574697665207472604482015274185b9cd9995c9cc81b9bdd081cdd5c1c1bdc9d1959605a1b606482015260840161085a565b816001600160a01b03851661307e5761307981600880546000838152600960205260408120829055600182018355919091527ff3f7a9fe364faab93b216da50a3214154f22a0a2b415b23a84c8169e8b636ee30155565b6130a1565b836001600160a01b0316856001600160a01b0316146130a1576130a185826132f0565b6001600160a01b0384166130bd576130b88161338d565b6130e0565b846001600160a01b0316846001600160a01b0316146130e0576130e0848261343c565b5050505050565b6130f18383613480565b6130fe600084848461311a565b6108fb5760405162461bcd60e51b815260040161085a906144ef565b60006001600160a01b0384163b1561321057604051630a85bd0160e11b81526001600160a01b0385169063150b7a029061315e903390899088908890600401614541565b6020604051808303816000875af1925050508015613199575060408051601f3d908101601f191682019092526131969181019061457e565b60015b6131f6573d8080156131c7576040519150601f19603f3d011682016040523d82523d6000602084013e6131cc565b606091505b5080516000036131ee5760405162461bcd60e51b815260040161085a906144ef565b805181602001fd5b6001600160e01b031916630a85bd0160e11b1490506113b0565b5060016113b0565b60008072184f03e93ff9f4daa797ed6e38ed64bf6a1f0160401b83106132575772184f03e93ff9f4daa797ed6e38ed64bf6a1f0160401b830492506040015b6d04ee2d6d415b85acef81000000008310613283576d04ee2d6d415b85acef8100000000830492506020015b662386f26fc1000083106132a157662386f26fc10000830492506010015b6305f5e10083106132b9576305f5e100830492506008015b61271083106132cd57612710830492506004015b606483106132df576064830492506002015b600a83106106a95760010192915050565b600060016132fd846114c0565b6133079190614309565b60008381526007602052604090205490915080821461335a576001600160a01b03841660009081526006602090815260408083208584528252808320548484528184208190558352600790915290208190555b5060009182526007602090815260408084208490556001600160a01b039094168352600681528383209183525290812055565b60085460009061339f90600190614309565b600083815260096020526040812054600880549394509092849081106133c7576133c76141fe565b9060005260206000200154905080600883815481106133e8576133e86141fe565b60009182526020808320909101929092558281526009909152604080822084905585825281205560088054806134205761342061459b565b6001900381819060005260206000200160009055905550505050565b6000613447836114c0565b6001600160a01b039093166000908152600660209081526040808320868452825280832085905593825260079052919091209190915550565b6001600160a01b0382166134d65760405162461bcd60e51b815260206004820181905260248201527f4552433732313a206d696e7420746f20746865207a65726f2061646472657373604482015260640161085a565b6134df81612b57565b1561352c5760405162461bcd60e51b815260206004820152601c60248201527f4552433732313a20746f6b656e20616c7265616479206d696e74656400000000604482015260640161085a565b61353a600083836001612fb3565b61354381612b57565b156135905760405162461bcd60e51b815260206004820152601c60248201527f4552433732313a20746f6b656e20616c7265616479206d696e74656400000000604482015260640161085a565b6001600160a01b038216600081815260036020908152604080832080546001019055848352600290915280822080546001600160a01b0319168417905551839291907fddf252ad1be2c89b69c2b068fc378daa952ba7f163c4a11628f55a4df523b3ef908290a45050565b604051806104c001604052806060815260200160008152602001600081526020016000815260200160008152602001600081526020016000815260200160008152602001600081526020016000815260200160008152602001600081526020016000815260200160008152602001600081526020016000815260200160008152602001600081526020016000815260200160008152602001600081526020016000815260200160008152602001600081526020016000815260200160008152602001600081526020016000151581526020016000151581526020016000151581526020016000151581526020016000151581526020016000151581526020016000151581526020016000151581526020016000151581526020016000151581526020016000151581525090565b60405180604001604052806002906020820280368337509192915050565b6000806040838503121561375957600080fd5b50508035926020909101359150565b6001600160e01b0319811681146110e157600080fd5b60006020828403121561379057600080fd5b8135611f0f81613768565b6000602082840312156137ad57600080fd5b5035919050565b6020808252825182820181905260009190848201906040850190845b818110156137ec578351835292840192918401916001016137d0565b50909695505050505050565b60005b838110156138135781810151838201526020016137fb565b50506000910152565b600081518084526138348160208601602086016137f8565b601f01601f19169290920160200192915050565b602081526000611f0f602083018461381c565b6001600160a01b03811681146110e157600080fd5b6000806040838503121561388357600080fd5b823561388e8161385b565b946020939093013593505050565b60208152600082516104c08060208501526138bb6104e085018361381c565b602086015160408681019190915286015160608087019190915286015160808087019190915286015160a08087019190915286015160c08087019190915286015160e08087019190915286015161010080870191909152860151610120808701919091528601516101408087019190915286015161016080870191909152860151610180808701919091528601516101a0808701919091528601516101c0808701919091528601516101e08087019190915286015161020080870191909152860151610220808701919091528601516102408087019190915286015161026080870191909152860151610280808701919091528601516102a0808701919091528601516102c0808701919091528601516102e08087019190915286015161030080870191909152860151610320808701919091528601516103408087019190915286015161036080870191909152860151909250610380613a1f8187018315159052565b86015190506103a0613a348682018315159052565b86015190506103c0613a498682018315159052565b86015190506103e0613a5e8682018315159052565b8601519050610400613a738682018315159052565b8601519050610420613a888682018315159052565b8601519050610440613a9d8682018315159052565b8601519050610460613ab28682018315159052565b8601519050610480613ac78682018315159052565b86015190506104a0613adc8682018315159052565b90950151151593019290925250919050565b600080600060608486031215613b0357600080fd5b8335613b0e8161385b565b92506020840135613b1e8161385b565b929592945050506040919091013590565b600060208284031215613b4157600080fd5b8135611f0f8161385b565b60208082528251828201819052600091906040908185019086840185805b83811015613ba757825185835b6002811015613b9457825182529189019190890190600101613b77565b5050509385019391860191600101613b6a565b509298975050505050505050565b634e487b7160e01b600052604160045260246000fd5b6040516104c081016001600160401b0381118282101715613bee57613bee613bb5565b60405290565b604051601f8201601f191681016001600160401b0381118282101715613c1c57613c1c613bb5565b604052919050565b60008060008060808587031215613c3a57600080fd5b843593506020808601356001600160401b0380821115613c5957600080fd5b818801915088601f830112613c6d57600080fd5b813581811115613c7f57613c7f613bb5565b8060051b9150613c90848301613bf4565b818152918301840191848101908b841115613caa57600080fd5b938501935b83851015613cc857843582529385019390850190613caf565b989b989a505050506040870135966060013595945050505050565b80358015158114613cf357600080fd5b919050565b60008060408385031215613d0b57600080fd5b8235613d168161385b565b9150613d2460208401613ce3565b90509250929050565b60008060408385031215613d4057600080fd5b823591506020830135613d528161385b565b809150509250929050565b60006001600160401b03831115613d7657613d76613bb5565b613d89601f8401601f1916602001613bf4565b9050828152838383011115613d9d57600080fd5b828260208301376000602084830101529392505050565b60008060008060808587031215613dca57600080fd5b8435613dd58161385b565b93506020850135613de58161385b565b92506040850135915060608501356001600160401b03811115613e0757600080fd5b8501601f81018713613e1857600080fd5b613e2787823560208401613d5d565b91505092959194509250565b600082601f830112613e4457600080fd5b611f0f83833560208501613d5d565b60006104c08284031215613e6657600080fd5b613e6e613bcb565b905081356001600160401b03811115613e8657600080fd5b613e9284828501613e33565b8252506020828101359082015260408083013590820152606080830135908201526080808301359082015260a0808301359082015260c0808301359082015260e08083013590820152610100808301359082015261012080830135908201526101408083013590820152610160808301359082015261018080830135908201526101a080830135908201526101c080830135908201526101e08083013590820152610200808301359082015261022080830135908201526102408083013590820152610260808301359082015261028080830135908201526102a080830135908201526102c080830135908201526102e08083013590820152610300808301359082015261032080830135908201526103408083013590820152610360613fba818401613ce3565b90820152610380613fcc838201613ce3565b908201526103a0613fde838201613ce3565b908201526103c0613ff0838201613ce3565b908201526103e0614002838201613ce3565b90820152610400614014838201613ce3565b90820152610420614026838201613ce3565b90820152610440614038838201613ce3565b9082015261046061404a838201613ce3565b9082015261048061405c838201613ce3565b908201526104a061406e838201613ce3565b9082015292915050565b60006020828403121561408a57600080fd5b81356001600160401b038111156140a057600080fd5b6113b084828501613e53565b600080604083850312156140bf57600080fd5b82356140ca8161385b565b91506020830135613d528161385b565b600080604083850312156140ed57600080fd5b8235915060208301356001600160401b0381111561410a57600080fd5b61411685828601613e53565b9150509250929050565b600181811c9082168061413457607f821691505b60208210810361415457634e487b7160e01b600052602260045260246000fd5b50919050565b602080825260149082015273151bdad95b88191bd95cc81b9bdd08195e1a5cdd60621b604082015260600190565b6020808252602d908201527f4552433732313a2063616c6c6572206973206e6f7420746f6b656e206f776e6560408201526c1c881bdc88185c1c1c9bdd9959609a1b606082015260800190565b634e487b7160e01b600052601160045260246000fd5b808201808211156106a9576106a96141d5565b634e487b7160e01b600052603260045260246000fd5b600060018201614226576142266141d5565b5060010190565b60006020828403121561423f57600080fd5b8151611f0f8161385b565b84815260006020858184015260018060a01b0385166040840152608060608401526000845461427881614120565b80608087015260a060018084166000811461429a57600181146142b4576142e2565b60ff1985168984015283151560051b8901830195506142e2565b896000528660002060005b858110156142da5781548b82018601529083019088016142bf565b8a0184019650505b50939b9a5050505050505050505050565b634e487b7160e01b600052600160045260246000fd5b818103818111156106a9576106a96141d5565b601f8211156108fb57600081815260208120601f850160051c810160208610156143435750805b601f850160051c820191505b818110156143625782815560010161434f565b505050505050565b81516001600160401b0381111561438357614383613bb5565b614397816143918454614120565b8461431c565b602080601f8311600181146143cc57600084156143b45750858301515b600019600386901b1c1916600185901b178555614362565b600085815260208120601f198616915b828110156143fb578886015182559484019460019091019084016143dc565b50858210156144195787850151600019600388901b60f8161c191681555b5050505050600190811b01905550565b8281526040602082015260006113b0604083018461381c565b600083516144548184602088016137f8565b8351908301906144688183602088016137f8565b01949350505050565b80820281158282048414176106a9576106a96141d5565b6000826144a557634e487b7160e01b600052601260045260246000fd5b500490565b60208082526025908201527f4552433732313a207472616e736665722066726f6d20696e636f72726563742060408201526437bbb732b960d91b606082015260800190565b60208082526032908201527f4552433732313a207472616e7366657220746f206e6f6e20455243373231526560408201527131b2b4bb32b91034b6b83632b6b2b73a32b960711b606082015260800190565b6001600160a01b03858116825284166020820152604081018390526080606082018190526000906145749083018461381c565b9695505050505050565b60006020828403121561459057600080fd5b8151611f0f81613768565b634e487b7160e01b600052603160045260246000fdfea26469706673582212209b5d96882021d17559eae683a4be449eccbb61a3362e844d9cd475316b34bcb364736f6c634300081300334552433732313a207472616e7366657220746f206e6f6e204552433732315265",
  "immutableReferences": {},
  "source": "// SPDX-License-Identifier: MIT\npragma solidity ^0.8.18;\n\nimport \"@openzeppelin/contracts/token/ERC721/ERC721.sol\";\nimport \"@openzeppelin/contracts/token/ERC721/extensions/ERC721Enumerable.sol\";\nimport \"@openzeppelin/contracts/utils/Counters.sol\";\n\nimport \"truffle/Console.sol\";\nimport \"./ItemsAtts.sol\";\nimport \"./FightersHelper.sol\";\nimport \"./MoneyHelper.sol\";\n\ncontract Items is ERC721Enumerable, ItemsAtts {\n    using Counters for Counters.Counter;\n    FightersHelper private _fightersHelper;\n    MoneyHelper private _moneyHelper;\n\n    address public owner;\n\n    constructor(address fightersHelperContract, address moneyHelperContract) ERC721(\"MRIUSD\", \"Item\") {\n        owner = msg.sender;\n        _fightersHelper = FightersHelper(fightersHelperContract);  \n        _moneyHelper = MoneyHelper(moneyHelperContract);\n\n        // create empty item\n        ItemAttributes memory emptyAtts;\n        emptyAtts.name = \"Empty item\";\n        createItem(emptyAtts);\n        generateInitialTokens(emptyAtts);\n\n        // create item for gold\n        emptyAtts.name = \"Gold\";\n        createItem(emptyAtts);\n        generateInitialTokens(emptyAtts);\n    }\n\n\n    mapping (uint256 => uint256[]) public Weapons; // mapping of rarityLevel => tokenId[]\n    mapping (uint256 => uint256[]) public Armours; // mapping of rarityLevel => tokenId[]\n    mapping (uint256 => uint256[]) public Jewels; // mapping of rarityLevel => tokenId[]\n    mapping (uint256 => uint256[]) public Wings; // mapping of rarityLevel => tokenId[]\n    mapping (uint256 => uint256[]) public Misc; // mapping of rarityLevel => tokenId[]\n\n    // mapping (bytes32 => uint256) public dropHashes;\n\n    function getWeapons(uint256 rarityLevel) public view returns(uint256[] memory) {\n        return Weapons[rarityLevel];\n    }\n    function getArmours(uint256 rarityLevel) public view returns(uint256[] memory) {\n        return Armours[rarityLevel];\n    }\n    function getJewels(uint256 rarityLevel) public view returns(uint256[] memory) {\n        return Jewels[rarityLevel];\n    }\n    function getMisc(uint256 rarityLevel) public view returns(uint256[] memory) {\n        return Misc[rarityLevel];\n    }\n\n\n    event ItemGenerated(uint256 itemId, string name);\n    event LogError(uint8, uint256);\n    \n    event ItemCrafted(uint256 tokenId, address owner);\n    event ItemBoughtFromShop(uint256 tokenId, uint256 itemId, address owner, string itemName);\n\n    event ItemLevelUpgrade(uint256 tokenId, uint256 newLevel);\n    event ItemAddPointsUpdate(uint256 tokenId, uint256 newAddPoints);\n\n    function setAdditionalPoints(uint256 tokenId, uint256 points) external {\n        require(points <= maxAdditionalPoints, \"Max points reached\");\n        require(_tokenAttributes[tokenId].isWeapon || _tokenAttributes[tokenId].isArmour || _tokenAttributes[tokenId].isWings , \"Max points reached\");\n        if (_tokenAttributes[tokenId].isWeapon || _tokenAttributes[tokenId].isWings) {\n            _tokenAttributes[tokenId].additionalDamage = points;\n        } else if (_tokenAttributes[tokenId].isArmour) { \n            _tokenAttributes[tokenId].additionalDefense = points;\n        } \n\n        emit ItemAddPointsUpdate(tokenId, _tokenAttributes[tokenId].additionalDefense + _tokenAttributes[tokenId].additionalDamage);\n    }\n\n    function generateInitialTokens(ItemAttributes memory itemAtts) internal {\n        _tokenIdCounter.increment();\n        uint256 newTokenId = _tokenIdCounter.current();\n\n        _safeMint(msg.sender, newTokenId);\n        _setTokenAttributes(newTokenId, itemAtts);\n\n        _tokenAttributes[newTokenId].tokenId = newTokenId;      \n        _tokenAttributes[newTokenId].fighterId = 0;      \n        _tokenAttributes[newTokenId].lastUpdBlock = block.number; \n    }\n\n    function setItemLevel(uint256 tokenId, uint256 level)  external {\n        require(level <= _tokenAttributes[tokenId].maxLevel, \"Max item level reached\");\n        require(level <= _tokenAttributes[tokenId].itemLevel+1, \"Item can be upgrade one level at a time only\");\n\n        _tokenAttributes[tokenId].itemLevel = level;\n        emit ItemLevelUpgrade(tokenId, _tokenAttributes[tokenId].itemLevel);  \n    }\n\n    function burnItem(uint256 tokenId) external {\n        require(tokenId > 1, \"Token cannot be burnt\");\n        require(_exists(tokenId), \"Token doesn't exist\");\n        _burn(tokenId);\n    }  \n\n    function safeMint(address ownerAddres) external returns (uint256) {\n        _tokenIdCounter.increment();\n        uint256 newTokenId = _tokenIdCounter.current();\n        _safeMint(ownerAddres, newTokenId);\n\n        return newTokenId;\n    }\n\n    function setTokenAttributes(uint256 tokenId, ItemAttributes memory atts) external {\n        require(_exists(tokenId), \"Token does not exist\");\n        _tokenAttributes[tokenId] = atts;\n    }\n\n    function itemExists(uint256 tokenId) public view returns(bool) {\n        return _exists(tokenId);\n    }\n\n    function createItem(ItemAttributes memory atts) public returns (uint256 tokenId) {                \n        _itemAttributes.push(atts);   \n         uint256 itemId = _itemAttributes.length - 1;   \n         _itemAttributes[itemId].itemAttributesId = itemId;\n\n         if (atts.isWeapon) {\n            Weapons[atts.itemRarityLevel].push(itemId);\n         } else if (atts.isArmour) {\n            Armours[atts.itemRarityLevel].push(itemId);\n         } else if (atts.isJewel) {\n            Jewels[atts.itemRarityLevel].push(itemId);\n         } else if (atts.isMisc) {\n            Misc[atts.itemRarityLevel].push(itemId);\n         } else if (atts.isWings) {\n            Wings[atts.itemRarityLevel].push(itemId);\n         }\n\n        emit ItemGenerated(itemId, atts.name);\n        return itemId;\n    }\n\n    function transferItem(uint256 tokenId, address to) external {\n        require(_exists(tokenId), \"Token does not exist\");\n        address from = _ownerOf(tokenId);\n        _transfer(from, to, tokenId);\n    }   \n\n    event PackedItems(uint256 itemId, uint256 packSize, uint256 fighterId, uint256 newTokenId);\n    event UnpackedItems(uint256 tokenId);\n\n    function packItems(uint256 itemId, uint256[] memory tokenIds, uint256 packSize, uint256 fighterId) external returns (uint256 newTokenId) {\n        ItemAttributes memory atts = getItemAttributes(itemId);\n        require(atts.isPackable, \"Item not packable\");\n\n        // Ensure that the number of tokens is equal to the packSize\n        require(tokenIds.length == packSize, \"Invalid pack size\");\n        \n        for (uint i = 0; i < tokenIds.length; i++) {\n            // Check that each tokenId has an associated itemAttributeId equal to itemId\n            require(_tokenAttributes[tokenIds[i]].itemAttributesId == itemId, \"Invalid item\");\n            require(_tokenAttributes[tokenIds[i]].fighterId == fighterId, \"Item does not belong to fighter\");\n\n            _burn(tokenIds[i]);\n        }\n\n        _tokenIdCounter.increment();\n        newTokenId = _tokenIdCounter.current();\n        _safeMint(_fightersHelper.getOwner(fighterId), newTokenId);\n\n        _setTokenAttributes(newTokenId, atts);\n\n        _tokenAttributes[newTokenId].tokenId = newTokenId;      \n        _tokenAttributes[newTokenId].fighterId = fighterId;      \n        _tokenAttributes[newTokenId].lastUpdBlock = block.number; \n        _tokenAttributes[newTokenId].packSize = packSize; \n\n        emit PackedItems(itemId, packSize, fighterId, newTokenId);\n\n        // Return the ItemAttributes object\n        return newTokenId;\n    }\n\n    function unpackItems(uint256 tokenId) external returns(uint256[] memory tokenIds) {\n        ItemAttributes memory atts = getTokenAttributes(tokenId);\n        require(atts.packSize > 1, \"Item not packed\");\n\n        // Initialize tokenIds with size atts.packSize\n        tokenIds = new uint256[](atts.packSize);\n\n        for (uint i = 0; i < atts.packSize; i++) {\n            _tokenIdCounter.increment();\n            uint256 newTokenId = _tokenIdCounter.current();\n            _safeMint(_fightersHelper.getOwner(atts.fighterId), newTokenId);\n\n            _setTokenAttributes(newTokenId, atts);\n\n            _tokenAttributes[newTokenId].tokenId = newTokenId;      \n            _tokenAttributes[newTokenId].fighterId = atts.fighterId;      \n            _tokenAttributes[newTokenId].lastUpdBlock = block.number; \n            _tokenAttributes[newTokenId].packSize = 1; \n\n            tokenIds[i] = newTokenId;\n        }\n\n        emit UnpackedItems(tokenId);\n\n        return tokenIds;\n\n    }\n\n    // function craftItem(uint256 itemId, address itemOwner, uint256 maxLevel, uint256 maxAddPoints) public returns (uint256) {\n    //     require(_itemAttributes.length > itemId, \"Item attributes not found\");\n    //     ItemAttributes memory itemAtts = _itemAttributes[itemId];\n\n    //     if ((itemAtts.isWeapon || itemAtts.isArmour) && getRandomNumber(50) < luckDropRate)\n    //     {\n    //         itemAtts.luck = true;\n\n    //     }\n\n    //     if (itemAtts.isWeapon && getRandomNumber(51) < skillDropRate)\n    //     {\n    //         itemAtts.skill = true;\n    //     }\n\n    //     if (itemAtts.isWeapon || itemAtts.isArmour)\n    //     {\n    //         if (maxLevel > 0)\n    //         {\n    //             itemAtts.itemLevel = getRandomNumber(53) % (maxLevel + 1);\n    //         }\n\n    //         if (maxAddPoints > 0)\n    //         {\n    //             if (itemAtts.isWeapon) {\n    //                 itemAtts.additionalDamage = (getRandomNumber(54) % (maxAddPoints/4 + 1)) * 4;\n    //             } else if (itemAtts.isArmour) {\n    //                 itemAtts.additionalDefense = (getRandomNumber(54) % (maxAddPoints/4 + 1)) * 4;\n    //             }\n    //         }                \n    //     }        \n\n    //     _tokenIdCounter.increment();\n    //     uint256 newTokenId = _tokenIdCounter.current();\n        \n    //     _safeMint(itemOwner, newTokenId);\n \n    //     _setTokenAttributes(newTokenId, itemAtts);\n\n    //     _tokenAttributes[newTokenId].tokenId = newTokenId;      \n    //     _tokenAttributes[newTokenId].itemAttributesId = itemId;      \n    //     _tokenAttributes[newTokenId].fighterId = 0;      \n    //     _tokenAttributes[newTokenId].lastUpdBlock = block.number; \n\n    //     emit ItemCrafted(newTokenId, itemOwner);\n\n    //     return newTokenId;\n    // }     \n\n    // function getWeaponsLength(uint256 rarityLevel) public view returns (uint256) {\n    //     return Weapons[rarityLevel].length;\n    // }\n\n    // function getArmoursLength(uint256 rarityLevel) public view returns (uint256) {\n    //     return Armours[rarityLevel].length;\n    // }\n\n    // function getJewelsLength(uint256 rarityLevel) public view returns (uint256) {\n    //     return Jewels[rarityLevel].length;\n    // }\n\n    // function getMiscsLength(uint256 rarityLevel) public view returns (uint256) {\n    //     return Misc[rarityLevel].length;\n    // }    \n\n    function buyItemFromShop(uint256 itemId, uint256 fighterId) external {\n        require(_itemAttributes[itemId].inShop, \"Item not in shop or doesn't exist\");\n\n        // money logic\n\n        _tokenIdCounter.increment();\n        uint256 tokenId = _tokenIdCounter.current();\n        _safeMint(_fightersHelper.getOwner(fighterId), tokenId);\n        _setTokenAttributes(tokenId, _itemAttributes[itemId]);\n\n        _tokenAttributes[tokenId].tokenId = tokenId;      \n        _tokenAttributes[tokenId].itemAttributesId = itemId;      \n        _tokenAttributes[tokenId].fighterId = fighterId;      \n        _tokenAttributes[tokenId].lastUpdBlock = block.number;      \n\n        emit ItemBoughtFromShop(tokenId, itemId, _fightersHelper.getOwner(fighterId), _tokenAttributes[tokenId].name);\n    }\n\n    // Get the attributes for a fighter NFT\n    function getTokenAttributes(uint256 tokenId) public view returns (ItemAttributes memory) {\n        require(_exists(tokenId), \"Token does not exist\");\n\n        return _tokenAttributes[tokenId];\n    }\n\n    // Get the attributes for a fighter NFT\n    function getItemAttributes(uint256 itemId) public view returns (ItemAttributes memory) {\n        require(_itemAttributes.length > itemId, \"Item does not exist\");\n\n        return _itemAttributes[itemId];\n    }\n\n    function burnConsumable(uint256 tokenId) external {\n        ItemAttributes memory atts = _tokenAttributes[tokenId];\n\n        require(atts.isConsumable, \"Item not a consumable\");\n        _burn(tokenId);\n    }\n\n    mapping (uint256 => ItemAttributes) private _tokenAttributes;\n    ItemAttributes[] private _itemAttributes;\n    Counters.Counter private _tokenIdCounter;\n\n    ItemAttributes boxAttributes;\n\n\n\n    function getUserItems(address userAddress) external view returns (uint256[] memory) {\n        \n        uint256 numTokens = balanceOf(userAddress);\n        uint256[] memory tokenIds = new uint256[](numTokens);\n\n        for (uint256 i = 0; i < numTokens; i++) {\n            tokenIds[i] = tokenOfOwnerByIndex(userAddress, i);\n        }\n\n        return tokenIds;\n    }\n\n\n    function getFighterItems(address userAddress, uint256 fighterId) external view returns (uint256[2][] memory) {\n        \n        uint256 numTokens = balanceOf(userAddress);\n        uint256[2][] memory tokenIds = new uint256[2][](numTokens);\n\n        uint256 id;\n        uint counter = 0;\n\n        for (uint256 i = 0; i < numTokens; i++) {\n            id = tokenOfOwnerByIndex(userAddress, i);\n            if (_tokenAttributes[id].fighterId == fighterId)\n            {\n                tokenIds[counter] = [id, _tokenAttributes[id].lastUpdBlock];\n            }\n            \n            counter++;\n        }\n\n        return tokenIds;\n    }\n\n\n    function _setTokenAttributes(uint256 tokenId, ItemAttributes memory attrs) internal {\n        require(_exists(tokenId), \"Token does not exist\");\n\n        _tokenAttributes[tokenId] = attrs;\n    }\n\n\n    // Returns the smaller of two values\n    function min(uint a, uint b) private pure returns (uint) {\n        return a < b ? a : b;\n    }\n\n    // Returns the largest of the two values\n    function max(uint a, uint b) private pure returns (uint) {\n        return a > b ? a : b;\n    }\n\n    // Safe Multiply Function - prevents integer overflow \n    function safeMul(uint a, uint b) public returns (uint) {\n        uint c = a * b;\n        assert(a == 0 || c / a == b);\n        return c;\n    }\n\n    // Safe Subtraction Function - prevents integer overflow \n    function safeSub(uint a, uint b) public returns (uint) {\n        assert(b <= a);\n        return a - b;\n    }\n\n    // Safe Addition Function - prevents integer overflow \n    function safeAdd(uint a, uint b) public returns (uint) {\n        uint c = a + b;\n        assert(c>=a && c>=b);\n        return c;\n    }\n\n}",
  "sourcePath": "/Users/max/Documents/prog/game-contracts/contracts/Items.sol",
  "compiler": {
    "name": "solc",
    "version": "0.8.19+commit.7dd6d404.Emscripten.clang"
  },
  "schemaVersion": "3.4.13",
  "updatedAt": "2023-08-02T05:50:26.064Z",
  "networkType": "ethereum",
  "devdoc": {
    "events": {
      "Approval(address,address,uint256)": {
        "details": "Emitted when `owner` enables `approved` to manage the `tokenId` token."
      },
      "ApprovalForAll(address,address,bool)": {
        "details": "Emitted when `owner` enables or disables (`approved`) `operator` to manage all of its assets."
      },
      "Transfer(address,address,uint256)": {
        "details": "Emitted when `tokenId` token is transferred from `from` to `to`."
      }
    },
    "kind": "dev",
    "methods": {
      "approve(address,uint256)": {
        "details": "See {IERC721-approve}."
      },
      "balanceOf(address)": {
        "details": "See {IERC721-balanceOf}."
      },
      "getApproved(uint256)": {
        "details": "See {IERC721-getApproved}."
      },
      "isApprovedForAll(address,address)": {
        "details": "See {IERC721-isApprovedForAll}."
      },
      "name()": {
        "details": "See {IERC721Metadata-name}."
      },
      "ownerOf(uint256)": {
        "details": "See {IERC721-ownerOf}."
      },
      "safeTransferFrom(address,address,uint256)": {
        "details": "See {IERC721-safeTransferFrom}."
      },
      "safeTransferFrom(address,address,uint256,bytes)": {
        "details": "See {IERC721-safeTransferFrom}."
      },
      "setApprovalForAll(address,bool)": {
        "details": "See {IERC721-setApprovalForAll}."
      },
      "supportsInterface(bytes4)": {
        "details": "See {IERC165-supportsInterface}."
      },
      "symbol()": {
        "details": "See {IERC721Metadata-symbol}."
      },
      "tokenByIndex(uint256)": {
        "details": "See {IERC721Enumerable-tokenByIndex}."
      },
      "tokenOfOwnerByIndex(address,uint256)": {
        "details": "See {IERC721Enumerable-tokenOfOwnerByIndex}."
      },
      "tokenURI(uint256)": {
        "details": "See {IERC721Metadata-tokenURI}."
      },
      "totalSupply()": {
        "details": "See {IERC721Enumerable-totalSupply}."
      },
      "transferFrom(address,address,uint256)": {
        "details": "See {IERC721-transferFrom}."
      }
    },
    "version": 1
  },
  "userdoc": {
    "kind": "user",
    "methods": {},
    "version": 1
  }
}