{
  "contractName": "Items",
  "abi": [
    {
      "inputs": [
        {
          "internalType": "address",
          "name": "fightersHelperContract",
          "type": "address"
        },
        {
          "internalType": "address",
          "name": "moneyHelperContract",
          "type": "address"
        }
      ],
      "stateMutability": "nonpayable",
      "type": "constructor"
    },
    {
      "anonymous": false,
      "inputs": [
        {
          "indexed": true,
          "internalType": "address",
          "name": "owner",
          "type": "address"
        },
        {
          "indexed": true,
          "internalType": "address",
          "name": "approved",
          "type": "address"
        },
        {
          "indexed": true,
          "internalType": "uint256",
          "name": "tokenId",
          "type": "uint256"
        }
      ],
      "name": "Approval",
      "type": "event"
    },
    {
      "anonymous": false,
      "inputs": [
        {
          "indexed": true,
          "internalType": "address",
          "name": "owner",
          "type": "address"
        },
        {
          "indexed": true,
          "internalType": "address",
          "name": "operator",
          "type": "address"
        },
        {
          "indexed": false,
          "internalType": "bool",
          "name": "approved",
          "type": "bool"
        }
      ],
      "name": "ApprovalForAll",
      "type": "event"
    },
    {
      "anonymous": false,
      "inputs": [
        {
          "indexed": false,
          "internalType": "uint256",
          "name": "tokenId",
          "type": "uint256"
        },
        {
          "indexed": false,
          "internalType": "uint256",
          "name": "newAddPoints",
          "type": "uint256"
        }
      ],
      "name": "ItemAddPointsUpdate",
      "type": "event"
    },
    {
      "anonymous": false,
      "inputs": [
        {
          "indexed": false,
          "internalType": "uint256",
          "name": "tokenId",
          "type": "uint256"
        },
        {
          "indexed": false,
          "internalType": "uint256",
          "name": "itemId",
          "type": "uint256"
        },
        {
          "indexed": false,
          "internalType": "address",
          "name": "owner",
          "type": "address"
        },
        {
          "indexed": false,
          "internalType": "string",
          "name": "itemName",
          "type": "string"
        }
      ],
      "name": "ItemBoughtFromShop",
      "type": "event"
    },
    {
      "anonymous": false,
      "inputs": [
        {
          "indexed": false,
          "internalType": "uint256",
          "name": "tokenId",
          "type": "uint256"
        },
        {
          "indexed": false,
          "internalType": "address",
          "name": "owner",
          "type": "address"
        }
      ],
      "name": "ItemCrafted",
      "type": "event"
    },
    {
      "anonymous": false,
      "inputs": [
        {
          "indexed": false,
          "internalType": "uint256",
          "name": "itemId",
          "type": "uint256"
        },
        {
          "indexed": false,
          "internalType": "string",
          "name": "name",
          "type": "string"
        }
      ],
      "name": "ItemGenerated",
      "type": "event"
    },
    {
      "anonymous": false,
      "inputs": [
        {
          "indexed": false,
          "internalType": "uint256",
          "name": "tokenId",
          "type": "uint256"
        },
        {
          "indexed": false,
          "internalType": "uint256",
          "name": "newLevel",
          "type": "uint256"
        }
      ],
      "name": "ItemLevelUpgrade",
      "type": "event"
    },
    {
      "anonymous": false,
      "inputs": [
        {
          "indexed": false,
          "internalType": "uint8",
          "name": "",
          "type": "uint8"
        },
        {
          "indexed": false,
          "internalType": "uint256",
          "name": "",
          "type": "uint256"
        }
      ],
      "name": "LogError",
      "type": "event"
    },
    {
      "anonymous": false,
      "inputs": [
        {
          "indexed": false,
          "internalType": "uint256",
          "name": "itemId",
          "type": "uint256"
        },
        {
          "indexed": false,
          "internalType": "uint256",
          "name": "packSize",
          "type": "uint256"
        },
        {
          "indexed": false,
          "internalType": "uint256",
          "name": "fighterId",
          "type": "uint256"
        },
        {
          "indexed": false,
          "internalType": "uint256",
          "name": "newTokenId",
          "type": "uint256"
        }
      ],
      "name": "PackedItems",
      "type": "event"
    },
    {
      "anonymous": false,
      "inputs": [
        {
          "indexed": true,
          "internalType": "address",
          "name": "from",
          "type": "address"
        },
        {
          "indexed": true,
          "internalType": "address",
          "name": "to",
          "type": "address"
        },
        {
          "indexed": true,
          "internalType": "uint256",
          "name": "tokenId",
          "type": "uint256"
        }
      ],
      "name": "Transfer",
      "type": "event"
    },
    {
      "anonymous": false,
      "inputs": [
        {
          "indexed": false,
          "internalType": "uint256",
          "name": "tokenId",
          "type": "uint256"
        }
      ],
      "name": "UnpackedItems",
      "type": "event"
    },
    {
      "inputs": [
        {
          "internalType": "uint256",
          "name": "",
          "type": "uint256"
        },
        {
          "internalType": "uint256",
          "name": "",
          "type": "uint256"
        }
      ],
      "name": "Armours",
      "outputs": [
        {
          "internalType": "uint256",
          "name": "",
          "type": "uint256"
        }
      ],
      "stateMutability": "view",
      "type": "function",
      "constant": true
    },
    {
      "inputs": [
        {
          "internalType": "uint256",
          "name": "",
          "type": "uint256"
        },
        {
          "internalType": "uint256",
          "name": "",
          "type": "uint256"
        }
      ],
      "name": "Jewels",
      "outputs": [
        {
          "internalType": "uint256",
          "name": "",
          "type": "uint256"
        }
      ],
      "stateMutability": "view",
      "type": "function",
      "constant": true
    },
    {
      "inputs": [
        {
          "internalType": "uint256",
          "name": "",
          "type": "uint256"
        },
        {
          "internalType": "uint256",
          "name": "",
          "type": "uint256"
        }
      ],
      "name": "Misc",
      "outputs": [
        {
          "internalType": "uint256",
          "name": "",
          "type": "uint256"
        }
      ],
      "stateMutability": "view",
      "type": "function",
      "constant": true
    },
    {
      "inputs": [
        {
          "internalType": "uint256",
          "name": "",
          "type": "uint256"
        },
        {
          "internalType": "uint256",
          "name": "",
          "type": "uint256"
        }
      ],
      "name": "Weapons",
      "outputs": [
        {
          "internalType": "uint256",
          "name": "",
          "type": "uint256"
        }
      ],
      "stateMutability": "view",
      "type": "function",
      "constant": true
    },
    {
      "inputs": [
        {
          "internalType": "uint256",
          "name": "",
          "type": "uint256"
        },
        {
          "internalType": "uint256",
          "name": "",
          "type": "uint256"
        }
      ],
      "name": "Wings",
      "outputs": [
        {
          "internalType": "uint256",
          "name": "",
          "type": "uint256"
        }
      ],
      "stateMutability": "view",
      "type": "function",
      "constant": true
    },
    {
      "inputs": [
        {
          "internalType": "address",
          "name": "to",
          "type": "address"
        },
        {
          "internalType": "uint256",
          "name": "tokenId",
          "type": "uint256"
        }
      ],
      "name": "approve",
      "outputs": [],
      "stateMutability": "nonpayable",
      "type": "function"
    },
    {
      "inputs": [
        {
          "internalType": "address",
          "name": "owner",
          "type": "address"
        }
      ],
      "name": "balanceOf",
      "outputs": [
        {
          "internalType": "uint256",
          "name": "",
          "type": "uint256"
        }
      ],
      "stateMutability": "view",
      "type": "function",
      "constant": true
    },
    {
      "inputs": [
        {
          "internalType": "uint256",
          "name": "tokenId",
          "type": "uint256"
        }
      ],
      "name": "getApproved",
      "outputs": [
        {
          "internalType": "address",
          "name": "",
          "type": "address"
        }
      ],
      "stateMutability": "view",
      "type": "function",
      "constant": true
    },
    {
      "inputs": [
        {
          "internalType": "address",
          "name": "owner",
          "type": "address"
        },
        {
          "internalType": "address",
          "name": "operator",
          "type": "address"
        }
      ],
      "name": "isApprovedForAll",
      "outputs": [
        {
          "internalType": "bool",
          "name": "",
          "type": "bool"
        }
      ],
      "stateMutability": "view",
      "type": "function",
      "constant": true
    },
    {
      "inputs": [],
      "name": "name",
      "outputs": [
        {
          "internalType": "string",
          "name": "",
          "type": "string"
        }
      ],
      "stateMutability": "view",
      "type": "function",
      "constant": true
    },
    {
      "inputs": [],
      "name": "owner",
      "outputs": [
        {
          "internalType": "address",
          "name": "",
          "type": "address"
        }
      ],
      "stateMutability": "view",
      "type": "function",
      "constant": true
    },
    {
      "inputs": [
        {
          "internalType": "uint256",
          "name": "tokenId",
          "type": "uint256"
        }
      ],
      "name": "ownerOf",
      "outputs": [
        {
          "internalType": "address",
          "name": "",
          "type": "address"
        }
      ],
      "stateMutability": "view",
      "type": "function",
      "constant": true
    },
    {
      "inputs": [
        {
          "internalType": "address",
          "name": "from",
          "type": "address"
        },
        {
          "internalType": "address",
          "name": "to",
          "type": "address"
        },
        {
          "internalType": "uint256",
          "name": "tokenId",
          "type": "uint256"
        }
      ],
      "name": "safeTransferFrom",
      "outputs": [],
      "stateMutability": "nonpayable",
      "type": "function"
    },
    {
      "inputs": [
        {
          "internalType": "address",
          "name": "from",
          "type": "address"
        },
        {
          "internalType": "address",
          "name": "to",
          "type": "address"
        },
        {
          "internalType": "uint256",
          "name": "tokenId",
          "type": "uint256"
        },
        {
          "internalType": "bytes",
          "name": "data",
          "type": "bytes"
        }
      ],
      "name": "safeTransferFrom",
      "outputs": [],
      "stateMutability": "nonpayable",
      "type": "function"
    },
    {
      "inputs": [
        {
          "internalType": "address",
          "name": "operator",
          "type": "address"
        },
        {
          "internalType": "bool",
          "name": "approved",
          "type": "bool"
        }
      ],
      "name": "setApprovalForAll",
      "outputs": [],
      "stateMutability": "nonpayable",
      "type": "function"
    },
    {
      "inputs": [
        {
          "internalType": "bytes4",
          "name": "interfaceId",
          "type": "bytes4"
        }
      ],
      "name": "supportsInterface",
      "outputs": [
        {
          "internalType": "bool",
          "name": "",
          "type": "bool"
        }
      ],
      "stateMutability": "view",
      "type": "function",
      "constant": true
    },
    {
      "inputs": [],
      "name": "symbol",
      "outputs": [
        {
          "internalType": "string",
          "name": "",
          "type": "string"
        }
      ],
      "stateMutability": "view",
      "type": "function",
      "constant": true
    },
    {
      "inputs": [
        {
          "internalType": "uint256",
          "name": "index",
          "type": "uint256"
        }
      ],
      "name": "tokenByIndex",
      "outputs": [
        {
          "internalType": "uint256",
          "name": "",
          "type": "uint256"
        }
      ],
      "stateMutability": "view",
      "type": "function",
      "constant": true
    },
    {
      "inputs": [
        {
          "internalType": "address",
          "name": "owner",
          "type": "address"
        },
        {
          "internalType": "uint256",
          "name": "index",
          "type": "uint256"
        }
      ],
      "name": "tokenOfOwnerByIndex",
      "outputs": [
        {
          "internalType": "uint256",
          "name": "",
          "type": "uint256"
        }
      ],
      "stateMutability": "view",
      "type": "function",
      "constant": true
    },
    {
      "inputs": [
        {
          "internalType": "uint256",
          "name": "tokenId",
          "type": "uint256"
        }
      ],
      "name": "tokenURI",
      "outputs": [
        {
          "internalType": "string",
          "name": "",
          "type": "string"
        }
      ],
      "stateMutability": "view",
      "type": "function",
      "constant": true
    },
    {
      "inputs": [],
      "name": "totalSupply",
      "outputs": [
        {
          "internalType": "uint256",
          "name": "",
          "type": "uint256"
        }
      ],
      "stateMutability": "view",
      "type": "function",
      "constant": true
    },
    {
      "inputs": [
        {
          "internalType": "address",
          "name": "from",
          "type": "address"
        },
        {
          "internalType": "address",
          "name": "to",
          "type": "address"
        },
        {
          "internalType": "uint256",
          "name": "tokenId",
          "type": "uint256"
        }
      ],
      "name": "transferFrom",
      "outputs": [],
      "stateMutability": "nonpayable",
      "type": "function"
    },
    {
      "inputs": [
        {
          "internalType": "uint256",
          "name": "rarityLevel",
          "type": "uint256"
        }
      ],
      "name": "getWeapons",
      "outputs": [
        {
          "internalType": "uint256[]",
          "name": "",
          "type": "uint256[]"
        }
      ],
      "stateMutability": "view",
      "type": "function",
      "constant": true
    },
    {
      "inputs": [
        {
          "internalType": "uint256",
          "name": "rarityLevel",
          "type": "uint256"
        }
      ],
      "name": "getArmours",
      "outputs": [
        {
          "internalType": "uint256[]",
          "name": "",
          "type": "uint256[]"
        }
      ],
      "stateMutability": "view",
      "type": "function",
      "constant": true
    },
    {
      "inputs": [
        {
          "internalType": "uint256",
          "name": "rarityLevel",
          "type": "uint256"
        }
      ],
      "name": "getJewels",
      "outputs": [
        {
          "internalType": "uint256[]",
          "name": "",
          "type": "uint256[]"
        }
      ],
      "stateMutability": "view",
      "type": "function",
      "constant": true
    },
    {
      "inputs": [
        {
          "internalType": "uint256",
          "name": "rarityLevel",
          "type": "uint256"
        }
      ],
      "name": "getMisc",
      "outputs": [
        {
          "internalType": "uint256[]",
          "name": "",
          "type": "uint256[]"
        }
      ],
      "stateMutability": "view",
      "type": "function",
      "constant": true
    },
    {
      "inputs": [
        {
          "internalType": "uint256",
          "name": "tokenId",
          "type": "uint256"
        },
        {
          "internalType": "uint256",
          "name": "points",
          "type": "uint256"
        }
      ],
      "name": "setAdditionalPoints",
      "outputs": [],
      "stateMutability": "nonpayable",
      "type": "function"
    },
    {
      "inputs": [
        {
          "internalType": "uint256",
          "name": "tokenId",
          "type": "uint256"
        },
        {
          "internalType": "uint256",
          "name": "level",
          "type": "uint256"
        }
      ],
      "name": "setItemLevel",
      "outputs": [],
      "stateMutability": "nonpayable",
      "type": "function"
    },
    {
      "inputs": [
        {
          "internalType": "uint256",
          "name": "tokenId",
          "type": "uint256"
        }
      ],
      "name": "burnItem",
      "outputs": [],
      "stateMutability": "nonpayable",
      "type": "function"
    },
    {
      "inputs": [
        {
          "internalType": "address",
          "name": "ownerAddres",
          "type": "address"
        }
      ],
      "name": "safeMint",
      "outputs": [
        {
          "internalType": "uint256",
          "name": "",
          "type": "uint256"
        }
      ],
      "stateMutability": "nonpayable",
      "type": "function"
    },
    {
      "inputs": [
        {
          "internalType": "uint256",
          "name": "tokenId",
          "type": "uint256"
        },
        {
          "components": [
            {
              "internalType": "string",
              "name": "name",
              "type": "string"
            },
            {
              "internalType": "uint256",
              "name": "tokenId",
              "type": "uint256"
            },
            {
              "internalType": "uint256",
              "name": "itemLevel",
              "type": "uint256"
            },
            {
              "internalType": "uint256",
              "name": "maxLevel",
              "type": "uint256"
            },
            {
              "internalType": "uint256",
              "name": "durability",
              "type": "uint256"
            },
            {
              "internalType": "uint256",
              "name": "classRequired",
              "type": "uint256"
            },
            {
              "internalType": "uint256",
              "name": "strengthRequired",
              "type": "uint256"
            },
            {
              "internalType": "uint256",
              "name": "agilityRequired",
              "type": "uint256"
            },
            {
              "internalType": "uint256",
              "name": "energyRequired",
              "type": "uint256"
            },
            {
              "internalType": "uint256",
              "name": "vitalityRequired",
              "type": "uint256"
            },
            {
              "internalType": "uint256",
              "name": "itemWidth",
              "type": "uint256"
            },
            {
              "internalType": "uint256",
              "name": "itemHeight",
              "type": "uint256"
            },
            {
              "internalType": "uint256",
              "name": "acceptableSlot1",
              "type": "uint256"
            },
            {
              "internalType": "uint256",
              "name": "acceptableSlot2",
              "type": "uint256"
            },
            {
              "internalType": "uint256",
              "name": "baseMinPhysicalDamage",
              "type": "uint256"
            },
            {
              "internalType": "uint256",
              "name": "baseMaxPhysicalDamage",
              "type": "uint256"
            },
            {
              "internalType": "uint256",
              "name": "baseMinMagicDamage",
              "type": "uint256"
            },
            {
              "internalType": "uint256",
              "name": "baseMaxMagicDamage",
              "type": "uint256"
            },
            {
              "internalType": "uint256",
              "name": "baseDefense",
              "type": "uint256"
            },
            {
              "internalType": "uint256",
              "name": "attackSpeed",
              "type": "uint256"
            },
            {
              "internalType": "uint256",
              "name": "additionalDamage",
              "type": "uint256"
            },
            {
              "internalType": "uint256",
              "name": "additionalDefense",
              "type": "uint256"
            },
            {
              "internalType": "uint256",
              "name": "fighterId",
              "type": "uint256"
            },
            {
              "internalType": "uint256",
              "name": "lastUpdBlock",
              "type": "uint256"
            },
            {
              "internalType": "uint256",
              "name": "itemRarityLevel",
              "type": "uint256"
            },
            {
              "internalType": "uint256",
              "name": "itemAttributesId",
              "type": "uint256"
            },
            {
              "internalType": "uint256",
              "name": "packSize",
              "type": "uint256"
            },
            {
              "internalType": "bool",
              "name": "luck",
              "type": "bool"
            },
            {
              "internalType": "bool",
              "name": "skill",
              "type": "bool"
            },
            {
              "internalType": "bool",
              "name": "isPackable",
              "type": "bool"
            },
            {
              "internalType": "bool",
              "name": "isBox",
              "type": "bool"
            },
            {
              "internalType": "bool",
              "name": "isWeapon",
              "type": "bool"
            },
            {
              "internalType": "bool",
              "name": "isArmour",
              "type": "bool"
            },
            {
              "internalType": "bool",
              "name": "isJewel",
              "type": "bool"
            },
            {
              "internalType": "bool",
              "name": "isWings",
              "type": "bool"
            },
            {
              "internalType": "bool",
              "name": "isMisc",
              "type": "bool"
            },
            {
              "internalType": "bool",
              "name": "inShop",
              "type": "bool"
            }
          ],
          "internalType": "struct ItemsAtts.ItemAttributes",
          "name": "atts",
          "type": "tuple"
        }
      ],
      "name": "setTokenAttributes",
      "outputs": [],
      "stateMutability": "nonpayable",
      "type": "function"
    },
    {
      "inputs": [
        {
          "internalType": "uint256",
          "name": "tokenId",
          "type": "uint256"
        }
      ],
      "name": "itemExists",
      "outputs": [
        {
          "internalType": "bool",
          "name": "",
          "type": "bool"
        }
      ],
      "stateMutability": "view",
      "type": "function",
      "constant": true
    },
    {
      "inputs": [
        {
          "components": [
            {
              "internalType": "string",
              "name": "name",
              "type": "string"
            },
            {
              "internalType": "uint256",
              "name": "tokenId",
              "type": "uint256"
            },
            {
              "internalType": "uint256",
              "name": "itemLevel",
              "type": "uint256"
            },
            {
              "internalType": "uint256",
              "name": "maxLevel",
              "type": "uint256"
            },
            {
              "internalType": "uint256",
              "name": "durability",
              "type": "uint256"
            },
            {
              "internalType": "uint256",
              "name": "classRequired",
              "type": "uint256"
            },
            {
              "internalType": "uint256",
              "name": "strengthRequired",
              "type": "uint256"
            },
            {
              "internalType": "uint256",
              "name": "agilityRequired",
              "type": "uint256"
            },
            {
              "internalType": "uint256",
              "name": "energyRequired",
              "type": "uint256"
            },
            {
              "internalType": "uint256",
              "name": "vitalityRequired",
              "type": "uint256"
            },
            {
              "internalType": "uint256",
              "name": "itemWidth",
              "type": "uint256"
            },
            {
              "internalType": "uint256",
              "name": "itemHeight",
              "type": "uint256"
            },
            {
              "internalType": "uint256",
              "name": "acceptableSlot1",
              "type": "uint256"
            },
            {
              "internalType": "uint256",
              "name": "acceptableSlot2",
              "type": "uint256"
            },
            {
              "internalType": "uint256",
              "name": "baseMinPhysicalDamage",
              "type": "uint256"
            },
            {
              "internalType": "uint256",
              "name": "baseMaxPhysicalDamage",
              "type": "uint256"
            },
            {
              "internalType": "uint256",
              "name": "baseMinMagicDamage",
              "type": "uint256"
            },
            {
              "internalType": "uint256",
              "name": "baseMaxMagicDamage",
              "type": "uint256"
            },
            {
              "internalType": "uint256",
              "name": "baseDefense",
              "type": "uint256"
            },
            {
              "internalType": "uint256",
              "name": "attackSpeed",
              "type": "uint256"
            },
            {
              "internalType": "uint256",
              "name": "additionalDamage",
              "type": "uint256"
            },
            {
              "internalType": "uint256",
              "name": "additionalDefense",
              "type": "uint256"
            },
            {
              "internalType": "uint256",
              "name": "fighterId",
              "type": "uint256"
            },
            {
              "internalType": "uint256",
              "name": "lastUpdBlock",
              "type": "uint256"
            },
            {
              "internalType": "uint256",
              "name": "itemRarityLevel",
              "type": "uint256"
            },
            {
              "internalType": "uint256",
              "name": "itemAttributesId",
              "type": "uint256"
            },
            {
              "internalType": "uint256",
              "name": "packSize",
              "type": "uint256"
            },
            {
              "internalType": "bool",
              "name": "luck",
              "type": "bool"
            },
            {
              "internalType": "bool",
              "name": "skill",
              "type": "bool"
            },
            {
              "internalType": "bool",
              "name": "isPackable",
              "type": "bool"
            },
            {
              "internalType": "bool",
              "name": "isBox",
              "type": "bool"
            },
            {
              "internalType": "bool",
              "name": "isWeapon",
              "type": "bool"
            },
            {
              "internalType": "bool",
              "name": "isArmour",
              "type": "bool"
            },
            {
              "internalType": "bool",
              "name": "isJewel",
              "type": "bool"
            },
            {
              "internalType": "bool",
              "name": "isWings",
              "type": "bool"
            },
            {
              "internalType": "bool",
              "name": "isMisc",
              "type": "bool"
            },
            {
              "internalType": "bool",
              "name": "inShop",
              "type": "bool"
            }
          ],
          "internalType": "struct ItemsAtts.ItemAttributes",
          "name": "atts",
          "type": "tuple"
        }
      ],
      "name": "createItem",
      "outputs": [
        {
          "internalType": "uint256",
          "name": "tokenId",
          "type": "uint256"
        }
      ],
      "stateMutability": "nonpayable",
      "type": "function"
    },
    {
      "inputs": [
        {
          "internalType": "uint256",
          "name": "tokenId",
          "type": "uint256"
        },
        {
          "internalType": "address",
          "name": "to",
          "type": "address"
        }
      ],
      "name": "transferItem",
      "outputs": [],
      "stateMutability": "nonpayable",
      "type": "function"
    },
    {
      "inputs": [
        {
          "internalType": "uint256",
          "name": "itemId",
          "type": "uint256"
        },
        {
          "internalType": "uint256[]",
          "name": "tokenIds",
          "type": "uint256[]"
        },
        {
          "internalType": "uint256",
          "name": "packSize",
          "type": "uint256"
        },
        {
          "internalType": "uint256",
          "name": "fighterId",
          "type": "uint256"
        }
      ],
      "name": "packItems",
      "outputs": [
        {
          "internalType": "uint256",
          "name": "newTokenId",
          "type": "uint256"
        }
      ],
      "stateMutability": "nonpayable",
      "type": "function"
    },
    {
      "inputs": [
        {
          "internalType": "uint256",
          "name": "tokenId",
          "type": "uint256"
        }
      ],
      "name": "unpackItems",
      "outputs": [
        {
          "internalType": "uint256[]",
          "name": "tokenIds",
          "type": "uint256[]"
        }
      ],
      "stateMutability": "nonpayable",
      "type": "function"
    },
    {
      "inputs": [
        {
          "internalType": "uint256",
          "name": "itemId",
          "type": "uint256"
        },
        {
          "internalType": "uint256",
          "name": "fighterId",
          "type": "uint256"
        }
      ],
      "name": "buyItemFromShop",
      "outputs": [],
      "stateMutability": "nonpayable",
      "type": "function"
    },
    {
      "inputs": [
        {
          "internalType": "uint256",
          "name": "tokenId",
          "type": "uint256"
        }
      ],
      "name": "getTokenAttributes",
      "outputs": [
        {
          "components": [
            {
              "internalType": "string",
              "name": "name",
              "type": "string"
            },
            {
              "internalType": "uint256",
              "name": "tokenId",
              "type": "uint256"
            },
            {
              "internalType": "uint256",
              "name": "itemLevel",
              "type": "uint256"
            },
            {
              "internalType": "uint256",
              "name": "maxLevel",
              "type": "uint256"
            },
            {
              "internalType": "uint256",
              "name": "durability",
              "type": "uint256"
            },
            {
              "internalType": "uint256",
              "name": "classRequired",
              "type": "uint256"
            },
            {
              "internalType": "uint256",
              "name": "strengthRequired",
              "type": "uint256"
            },
            {
              "internalType": "uint256",
              "name": "agilityRequired",
              "type": "uint256"
            },
            {
              "internalType": "uint256",
              "name": "energyRequired",
              "type": "uint256"
            },
            {
              "internalType": "uint256",
              "name": "vitalityRequired",
              "type": "uint256"
            },
            {
              "internalType": "uint256",
              "name": "itemWidth",
              "type": "uint256"
            },
            {
              "internalType": "uint256",
              "name": "itemHeight",
              "type": "uint256"
            },
            {
              "internalType": "uint256",
              "name": "acceptableSlot1",
              "type": "uint256"
            },
            {
              "internalType": "uint256",
              "name": "acceptableSlot2",
              "type": "uint256"
            },
            {
              "internalType": "uint256",
              "name": "baseMinPhysicalDamage",
              "type": "uint256"
            },
            {
              "internalType": "uint256",
              "name": "baseMaxPhysicalDamage",
              "type": "uint256"
            },
            {
              "internalType": "uint256",
              "name": "baseMinMagicDamage",
              "type": "uint256"
            },
            {
              "internalType": "uint256",
              "name": "baseMaxMagicDamage",
              "type": "uint256"
            },
            {
              "internalType": "uint256",
              "name": "baseDefense",
              "type": "uint256"
            },
            {
              "internalType": "uint256",
              "name": "attackSpeed",
              "type": "uint256"
            },
            {
              "internalType": "uint256",
              "name": "additionalDamage",
              "type": "uint256"
            },
            {
              "internalType": "uint256",
              "name": "additionalDefense",
              "type": "uint256"
            },
            {
              "internalType": "uint256",
              "name": "fighterId",
              "type": "uint256"
            },
            {
              "internalType": "uint256",
              "name": "lastUpdBlock",
              "type": "uint256"
            },
            {
              "internalType": "uint256",
              "name": "itemRarityLevel",
              "type": "uint256"
            },
            {
              "internalType": "uint256",
              "name": "itemAttributesId",
              "type": "uint256"
            },
            {
              "internalType": "uint256",
              "name": "packSize",
              "type": "uint256"
            },
            {
              "internalType": "bool",
              "name": "luck",
              "type": "bool"
            },
            {
              "internalType": "bool",
              "name": "skill",
              "type": "bool"
            },
            {
              "internalType": "bool",
              "name": "isPackable",
              "type": "bool"
            },
            {
              "internalType": "bool",
              "name": "isBox",
              "type": "bool"
            },
            {
              "internalType": "bool",
              "name": "isWeapon",
              "type": "bool"
            },
            {
              "internalType": "bool",
              "name": "isArmour",
              "type": "bool"
            },
            {
              "internalType": "bool",
              "name": "isJewel",
              "type": "bool"
            },
            {
              "internalType": "bool",
              "name": "isWings",
              "type": "bool"
            },
            {
              "internalType": "bool",
              "name": "isMisc",
              "type": "bool"
            },
            {
              "internalType": "bool",
              "name": "inShop",
              "type": "bool"
            }
          ],
          "internalType": "struct ItemsAtts.ItemAttributes",
          "name": "",
          "type": "tuple"
        }
      ],
      "stateMutability": "view",
      "type": "function",
      "constant": true
    },
    {
      "inputs": [
        {
          "internalType": "uint256",
          "name": "itemId",
          "type": "uint256"
        }
      ],
      "name": "getItemAttributes",
      "outputs": [
        {
          "components": [
            {
              "internalType": "string",
              "name": "name",
              "type": "string"
            },
            {
              "internalType": "uint256",
              "name": "tokenId",
              "type": "uint256"
            },
            {
              "internalType": "uint256",
              "name": "itemLevel",
              "type": "uint256"
            },
            {
              "internalType": "uint256",
              "name": "maxLevel",
              "type": "uint256"
            },
            {
              "internalType": "uint256",
              "name": "durability",
              "type": "uint256"
            },
            {
              "internalType": "uint256",
              "name": "classRequired",
              "type": "uint256"
            },
            {
              "internalType": "uint256",
              "name": "strengthRequired",
              "type": "uint256"
            },
            {
              "internalType": "uint256",
              "name": "agilityRequired",
              "type": "uint256"
            },
            {
              "internalType": "uint256",
              "name": "energyRequired",
              "type": "uint256"
            },
            {
              "internalType": "uint256",
              "name": "vitalityRequired",
              "type": "uint256"
            },
            {
              "internalType": "uint256",
              "name": "itemWidth",
              "type": "uint256"
            },
            {
              "internalType": "uint256",
              "name": "itemHeight",
              "type": "uint256"
            },
            {
              "internalType": "uint256",
              "name": "acceptableSlot1",
              "type": "uint256"
            },
            {
              "internalType": "uint256",
              "name": "acceptableSlot2",
              "type": "uint256"
            },
            {
              "internalType": "uint256",
              "name": "baseMinPhysicalDamage",
              "type": "uint256"
            },
            {
              "internalType": "uint256",
              "name": "baseMaxPhysicalDamage",
              "type": "uint256"
            },
            {
              "internalType": "uint256",
              "name": "baseMinMagicDamage",
              "type": "uint256"
            },
            {
              "internalType": "uint256",
              "name": "baseMaxMagicDamage",
              "type": "uint256"
            },
            {
              "internalType": "uint256",
              "name": "baseDefense",
              "type": "uint256"
            },
            {
              "internalType": "uint256",
              "name": "attackSpeed",
              "type": "uint256"
            },
            {
              "internalType": "uint256",
              "name": "additionalDamage",
              "type": "uint256"
            },
            {
              "internalType": "uint256",
              "name": "additionalDefense",
              "type": "uint256"
            },
            {
              "internalType": "uint256",
              "name": "fighterId",
              "type": "uint256"
            },
            {
              "internalType": "uint256",
              "name": "lastUpdBlock",
              "type": "uint256"
            },
            {
              "internalType": "uint256",
              "name": "itemRarityLevel",
              "type": "uint256"
            },
            {
              "internalType": "uint256",
              "name": "itemAttributesId",
              "type": "uint256"
            },
            {
              "internalType": "uint256",
              "name": "packSize",
              "type": "uint256"
            },
            {
              "internalType": "bool",
              "name": "luck",
              "type": "bool"
            },
            {
              "internalType": "bool",
              "name": "skill",
              "type": "bool"
            },
            {
              "internalType": "bool",
              "name": "isPackable",
              "type": "bool"
            },
            {
              "internalType": "bool",
              "name": "isBox",
              "type": "bool"
            },
            {
              "internalType": "bool",
              "name": "isWeapon",
              "type": "bool"
            },
            {
              "internalType": "bool",
              "name": "isArmour",
              "type": "bool"
            },
            {
              "internalType": "bool",
              "name": "isJewel",
              "type": "bool"
            },
            {
              "internalType": "bool",
              "name": "isWings",
              "type": "bool"
            },
            {
              "internalType": "bool",
              "name": "isMisc",
              "type": "bool"
            },
            {
              "internalType": "bool",
              "name": "inShop",
              "type": "bool"
            }
          ],
          "internalType": "struct ItemsAtts.ItemAttributes",
          "name": "",
          "type": "tuple"
        }
      ],
      "stateMutability": "view",
      "type": "function",
      "constant": true
    },
    {
      "inputs": [
        {
          "internalType": "address",
          "name": "userAddress",
          "type": "address"
        }
      ],
      "name": "getUserItems",
      "outputs": [
        {
          "internalType": "uint256[]",
          "name": "",
          "type": "uint256[]"
        }
      ],
      "stateMutability": "view",
      "type": "function",
      "constant": true
    },
    {
      "inputs": [
        {
          "internalType": "address",
          "name": "userAddress",
          "type": "address"
        },
        {
          "internalType": "uint256",
          "name": "fighterId",
          "type": "uint256"
        }
      ],
      "name": "getFighterItems",
      "outputs": [
        {
          "internalType": "uint256[2][]",
          "name": "",
          "type": "uint256[2][]"
        }
      ],
      "stateMutability": "view",
      "type": "function",
      "constant": true
    },
    {
      "inputs": [
        {
          "internalType": "uint256",
          "name": "a",
          "type": "uint256"
        },
        {
          "internalType": "uint256",
          "name": "b",
          "type": "uint256"
        }
      ],
      "name": "safeMul",
      "outputs": [
        {
          "internalType": "uint256",
          "name": "",
          "type": "uint256"
        }
      ],
      "stateMutability": "nonpayable",
      "type": "function"
    },
    {
      "inputs": [
        {
          "internalType": "uint256",
          "name": "a",
          "type": "uint256"
        },
        {
          "internalType": "uint256",
          "name": "b",
          "type": "uint256"
        }
      ],
      "name": "safeSub",
      "outputs": [
        {
          "internalType": "uint256",
          "name": "",
          "type": "uint256"
        }
      ],
      "stateMutability": "nonpayable",
      "type": "function"
    },
    {
      "inputs": [
        {
          "internalType": "uint256",
          "name": "a",
          "type": "uint256"
        },
        {
          "internalType": "uint256",
          "name": "b",
          "type": "uint256"
        }
      ],
      "name": "safeAdd",
      "outputs": [
        {
          "internalType": "uint256",
          "name": "",
          "type": "uint256"
        }
      ],
      "stateMutability": "nonpayable",
      "type": "function"
    }
  ],
  "bytecode": "0x60806040526064600a55601c600b556032600c556032600d55601e600e55601e600f556002601055600160115560006012553480156200003e57600080fd5b506040516200555e3803806200555e833981016040819052620000619162001105565b604051806040016040528060068152602001651354925554d160d21b815250604051806040016040528060048152602001634974656d60e01b8152508160009081620000ae9190620011e1565b506001620000bd8282620011e1565b505060158054336001600160a01b0319918216179091556013805482166001600160a01b03868116919091179091556014805490921690841617905550604080516104a081018252606080825260006020830181905292820183905281018290526080810182905260a0810182905260c0810182905260e08101829052610100810182905261012081018290526101408101829052610160810182905261018081018290526101a081018290526101c081018290526101e08101829052610200810182905261022081018290526102408101829052610260810182905261028081018290526102a081018290526102c081018290526102e08101829052610300810182905261032081018290526103408101829052610360810182905261038081018290526103a081018290526103c081018290526103e08101829052610400810182905261042081018290526104408101829052610460810182905261048081019190915260408051808201909152600a815269456d707479206974656d60b01b6020820152815262000251816200029a565b506200025d81620006c1565b60408051808201909152600481526311dbdb1960e21b6020820152815262000285816200029a565b506200029181620006c1565b505050620013d6565b601c80546001810182556000828152835190928492027f0e4562a10381dec21b205ed72637e6b1b523bdd0e4d4d50af5cd23dd4500a21101908190620002e19082620011e1565b50602082015160018281019190915560408301516002830155606083015160038301556080830151600483015560a0830151600583015560c0830151600683015560e083015160078301556101008084015160088401556101208401516009840155610140840151600a840155610160840151600b840155610180840151600c8401556101a0840151600d8401556101c0840151600e8401556101e0840151600f840155610200840151601084015561022084015160118401556102408401516012840155610260840151601384015561028084015160148401556102a084015160158401556102c084015160168401556102e0840151601784015561030084015160188401556103208401516019840155610340840151601a840155610360840151601b90930180546103808601516103a08701516103c08801516103e08901516104008a01516104208b01516104408c01516104608d0151610480909d015161ffff199098169b151561ff0019169b909b179515159098029490941763ffff00001916620100009315159390930263ff0000001916929092176301000000911515919091021761ffff60201b19166401000000009115159190910260ff60281b19161765010000000000911515919091021761ffff60301b191666010000000000009315159390930260ff60381b191692909217670100000000000000941515949094029390931761ffff60401b1916680100000000000000009415159490940260ff60481b191693909317690100000000000000000093151593909302929092179055601c546000916200053891620012ad565b905080601c8281548110620005515762000551620012d5565b90600052602060002090601c020160190181905550826103e00151156200059f576103008301516000908152601660209081526040822080546001810182559083529120018190556200067e565b82610400015115620005d8576103008301516000908152601760209081526040822080546001810182559083529120018190556200067e565b8261042001511562000611576103008301516000908152601860209081526040822080546001810182559083529120018190556200067e565b826104600151156200064a576103008301516000908152601a60209081526040822080546001810182559083529120018190556200067e565b826104400151156200067e576103008301516000908152601960209081526040822080546001810182559083529120018190555b82516040517f0538ce8dba67be446d1a480a6e48683b27c6efb61d7c01d60767e15705e5d00f91620006b39184919062001333565b60405180910390a192915050565b620006d0601d80546001019055565b6000620006dc601d5490565b9050620006ea33826200071b565b620006f6818362000741565b6000818152601b60205260408120600181019290925560168201554360179091015550565b6200073d82826040518060200160405280600081525062000a1260201b60201c565b5050565b6000828152600260205260409020546001600160a01b0316620007ab5760405162461bcd60e51b815260206004820152601460248201527f546f6b656e20646f6573206e6f7420657869737400000000000000000000000060448201526064015b60405180910390fd5b6000828152601b6020526040902081518291908190620007cc9082620011e1565b506020820151600182015560408201516002820155606082015160038201556080820151600482015560a0820151600582015560c0820151600682015560e082015160078201556101008083015160088301556101208301516009830155610140830151600a830155610160830151600b830155610180830151600c8301556101a0830151600d8301556101c0830151600e8301556101e0830151600f830155610200830151601083015561022083015160118301556102408301516012830155610260830151601383015561028083015160148301556102a083015160158301556102c083015160168301556102e0830151601783015561030083015160188301556103208301516019830155610340830151601a830155610360830151601b90920180546103808501516103a08601516103c08701516103e08801516104008901516104208a01516104408b01516104608c0151610480909c015161ffff199098169a151561ff0019169a909a179515159098029490941763ffff00001916620100009315159390930263ff0000001916929092176301000000911515919091021761ffff60201b19166401000000009115159190910260ff60281b19161765010000000000911515919091021761ffff60301b191666010000000000009315159390930260ff60381b191692909217670100000000000000931515939093029290921761ffff60401b1916680100000000000000009315159390930260ff60481b1916929092176901000000000000000000921515929092029190911790555050565b62000a1e838362000a8a565b62000a2d600084848462000c2b565b62000a855760405162461bcd60e51b815260206004820152603260248201526000805160206200553e83398151915260448201527131b2b4bb32b91034b6b83632b6b2b73a32b960711b6064820152608401620007a2565b505050565b6001600160a01b03821662000ae25760405162461bcd60e51b815260206004820181905260248201527f4552433732313a206d696e7420746f20746865207a65726f20616464726573736044820152606401620007a2565b6000818152600260205260409020546001600160a01b03161562000b495760405162461bcd60e51b815260206004820152601c60248201527f4552433732313a20746f6b656e20616c7265616479206d696e746564000000006044820152606401620007a2565b62000b5960008383600162000d73565b6000818152600260205260409020546001600160a01b03161562000bc05760405162461bcd60e51b815260206004820152601c60248201527f4552433732313a20746f6b656e20616c7265616479206d696e746564000000006044820152606401620007a2565b6001600160a01b038216600081815260036020908152604080832080546001019055848352600290915280822080546001600160a01b0319168417905551839291907fddf252ad1be2c89b69c2b068fc378daa952ba7f163c4a11628f55a4df523b3ef908290a45050565b60006001600160a01b0384163b1562000d6757604051630a85bd0160e11b81526001600160a01b0385169063150b7a029062000c729033908990889088906004016200134e565b6020604051808303816000875af192505050801562000cb0575060408051601f3d908101601f1916820190925262000cad918101906200138d565b60015b62000d4c573d80801562000ce1576040519150601f19603f3d011682016040523d82523d6000602084013e62000ce6565b606091505b50805160000362000d445760405162461bcd60e51b815260206004820152603260248201526000805160206200553e83398151915260448201527131b2b4bb32b91034b6b83632b6b2b73a32b960711b6064820152608401620007a2565b805181602001fd5b6001600160e01b031916630a85bd0160e11b14905062000d6b565b5060015b949350505050565b600181111562000dec5760405162461bcd60e51b815260206004820152603560248201527f455243373231456e756d657261626c653a20636f6e736563757469766520747260448201527f616e7366657273206e6f7420737570706f7274656400000000000000000000006064820152608401620007a2565b816001600160a01b03851662000e4b5762000e4581600880546000838152600960205260408120829055600182018355919091527ff3f7a9fe364faab93b216da50a3214154f22a0a2b415b23a84c8169e8b636ee30155565b62000e71565b836001600160a01b0316856001600160a01b03161462000e715762000e71858262000ebe565b6001600160a01b03841662000e915762000e8b8162000f60565b62000eb7565b846001600160a01b0316846001600160a01b03161462000eb75762000eb784826200101a565b5050505050565b6000600162000ecd8462001060565b62000ed99190620012ad565b60008381526007602052604090205490915080821462000f2d576001600160a01b03841660009081526006602090815260408083208584528252808320548484528184208190558352600790915290208190555b5060009182526007602090815260408084208490556001600160a01b039094168352600681528383209183525290812055565b60085460009062000f7490600190620012ad565b6000838152600960205260408120546008805493945090928490811062000f9f5762000f9f620012d5565b90600052602060002001549050806008838154811062000fc35762000fc3620012d5565b600091825260208083209091019290925582815260099091526040808220849055858252812055600880548062000ffe5762000ffe620013c0565b6001900381819060005260206000200160009055905550505050565b6000620010278362001060565b6001600160a01b039093166000908152600660209081526040808320868452825280832085905593825260079052919091209190915550565b60006001600160a01b038216620010cc5760405162461bcd60e51b815260206004820152602960248201527f4552433732313a2061646472657373207a65726f206973206e6f7420612076616044820152683634b21037bbb732b960b91b6064820152608401620007a2565b506001600160a01b031660009081526003602052604090205490565b80516001600160a01b03811681146200110057600080fd5b919050565b600080604083850312156200111957600080fd5b6200112483620010e8565b91506200113460208401620010e8565b90509250929050565b634e487b7160e01b600052604160045260246000fd5b600181811c908216806200116857607f821691505b6020821081036200118957634e487b7160e01b600052602260045260246000fd5b50919050565b601f82111562000a8557600081815260208120601f850160051c81016020861015620011b85750805b601f850160051c820191505b81811015620011d957828155600101620011c4565b505050505050565b81516001600160401b03811115620011fd57620011fd6200113d565b62001215816200120e845462001153565b846200118f565b602080601f8311600181146200124d5760008415620012345750858301515b600019600386901b1c1916600185901b178555620011d9565b600085815260208120601f198616915b828110156200127e578886015182559484019460019091019084016200125d565b50858210156200129d5787850151600019600388901b60f8161c191681555b5050505050600190811b01905550565b81810381811115620012cf57634e487b7160e01b600052601160045260246000fd5b92915050565b634e487b7160e01b600052603260045260246000fd5b6000815180845260005b818110156200131357602081850181015186830182015201620012f5565b506000602082860101526020601f19601f83011685010191505092915050565b82815260406020820152600062000d6b6040830184620012eb565b6001600160a01b03858116825284166020820152604081018390526080606082018190526000906200138390830184620012eb565b9695505050505050565b600060208284031215620013a057600080fd5b81516001600160e01b031981168114620013b957600080fd5b9392505050565b634e487b7160e01b600052603160045260246000fd5b61415880620013e66000396000f3fe608060405234801561001057600080fd5b50600436106102735760003560e01c806370a0823111610151578063c29a3c93116100c3578063e6cb901311610087578063e6cb90131461059a578063e8af18f3146105ad578063e985e9c5146105c0578063f35c2218146105fc578063f4d106541461060f578063fd8f61701461062257600080fd5b8063c29a3c931461053b578063c87b56dd1461054e578063caf7c44514610561578063ce6019b414610574578063d05c78da1461058757600080fd5b80639b94680f116101155780639b94680f146104c9578063a0b2adc0146104dc578063a22cb465146104ef578063a293d1e814610502578063a422910114610515578063b88d4fde1461052857600080fd5b806370a08231146104755780637f46914f14610488578063843bd6411461049b5780638da5cb5b146104ae57806395d89b41146104c157600080fd5b80632f745c59116101ea578063513c1452116101ae578063513c1452146103f6578063576cc0f7146104165780635e8a44be14610429578063635034471461043c5780636352211e1461044f5780636995795b1461046257600080fd5b80632f745c591461039757806332fac8f8146103aa57806340d097c3146103bd57806342842e0e146103d05780634f6ccce7146103e357600080fd5b8063081812fc1161023c578063081812fc146103095780630895190314610334578063095ea7b31461034757806318160ddd1461035c5780631f4f5a231461036457806323b872dd1461038457600080fd5b8062695f4b1461027857806301ffc9a71461029e57806303d2e4a1146102c157806303f46b8b146102d457806306fdde03146102f4575b600080fd5b61028b6102863660046132de565b610635565b6040519081526020015b60405180910390f35b6102b16102ac366004613316565b610666565b6040519015158152602001610295565b61028b6102cf3660046132de565b610691565b6102e76102e2366004613333565b6106ad565b604051610295919061334c565b6102fc61070f565b60405161029591906133e0565b61031c610317366004613333565b6107a1565b6040516001600160a01b039091168152602001610295565b61028b610342366004613701565b6107c8565b61035a61035536600461374a565b610bcf565b005b60085461028b565b610377610372366004613333565b610ce9565b6040516102959190613776565b61035a6103923660046139b3565b610f8b565b61028b6103a536600461374a565b610fbc565b61035a6103b83660046132de565b611052565b61028b6103cb3660046139f4565b61123b565b61035a6103de3660046139b3565b611262565b61028b6103f1366004613333565b61127d565b61040961040436600461374a565b611310565b6040516102959190613a11565b61035a610424366004613333565b61141d565b61028b610437366004613a7a565b6114bc565b61028b61044a3660046132de565b611790565b61031c61045d366004613333565b6117ac565b610377610470366004613333565b61180c565b61028b6104833660046139f4565b611898565b61035a6104963660046132de565b61191e565b6102b16104a9366004613333565b611cc3565b60155461031c906001600160a01b031681565b6102fc611cce565b6102e76104d7366004613333565b611cdd565b6102e76104ea366004613333565b611d3d565b61035a6104fd366004613b39565b611f30565b61028b6105103660046132de565b611f3f565b61035a610523366004613b6e565b611f62565b61035a610536366004613b9e565b611faa565b61028b6105493660046132de565b611fe2565b6102fc61055c366004613333565b611ffe565b61035a61056f3660046132de565b612071565b6102e76105823660046139f4565b612197565b61028b6105953660046132de565b612238565b61028b6105a83660046132de565b612268565b6102e76105bb366004613333565b612292565b6102b16105ce366004613c1d565b6001600160a01b03918216600090815260056020908152604080832093909416825291909152205460ff1690565b61035a61060a366004613c4b565b6122f2565b61028b61061d3660046132de565b61256e565b6102e7610630366004613333565b61258a565b6019602052816000526040600020818154811061065157600080fd5b90600052602060002001600091509150505481565b60006001600160e01b0319821663780e9d6360e01b148061068b575061068b826125ea565b92915050565b6018602052816000526040600020818154811061065157600080fd5b60008181526018602090815260409182902080548351818402810184019094528084526060939283018282801561070357602002820191906000526020600020905b8154815260200190600101908083116106ef575b50505050509050919050565b60606000805461071e90613c91565b80601f016020809104026020016040519081016040528092919081815260200182805461074a90613c91565b80156107975780601f1061076c57610100808354040283529160200191610797565b820191906000526020600020905b81548152906001019060200180831161077a57829003601f168201915b5050505050905090565b60006107ac8261263a565b506000908152600460205260409020546001600160a01b031690565b601c80546001810182556000828152835190928492027f0e4562a10381dec21b205ed72637e6b1b523bdd0e4d4d50af5cd23dd4500a2110190819061080d9082613d19565b50602082015160018281019190915560408301516002830155606083015160038301556080830151600483015560a0830151600583015560c0830151600683015560e083015160078301556101008084015160088401556101208401516009840155610140840151600a840155610160840151600b840155610180840151600c8401556101a0840151600d8401556101c0840151600e8401556101e0840151600f840155610200840151601084015561022084015160118401556102408401516012840155610260840151601384015561028084015160148401556102a084015160158401556102c084015160168401556102e0840151601784015561030084015160188401556103208401516019840155610340840151601a840155610360840151601b90930180546103808601516103a08701516103c08801516103e08901516104008a01516104208b01516104408c01516104608d0151610480909d015161ffff199098169b151561ff0019169b909b179515159098029490941763ffff00001916620100009315159390930263ff0000001916929092176301000000911515919091021765ffff0000000019166401000000009115159190910265ff0000000000191617600160281b911515919091021767ffff0000000000001916600160301b9315159390930260ff60381b191692909217600160381b941515949094029390931761ffff60401b1916600160401b9415159490940260ff60481b191693909317600160481b93151593909302929092179055601c54600091610a5491613dee565b905080601c8281548110610a6a57610a6a613e01565b90600052602060002090601c020160190181905550826103e0015115610ab657610300830151600090815260166020908152604082208054600181018255908352912001819055610b8e565b82610400015115610aed57610300830151600090815260176020908152604082208054600181018255908352912001819055610b8e565b82610420015115610b2457610300830151600090815260186020908152604082208054600181018255908352912001819055610b8e565b82610460015115610b5b576103008301516000908152601a6020908152604082208054600181018255908352912001819055610b8e565b82610440015115610b8e576103008301516000908152601960209081526040822080546001810182559083529120018190555b82516040517f0538ce8dba67be446d1a480a6e48683b27c6efb61d7c01d60767e15705e5d00f91610bc191849190613e17565b60405180910390a192915050565b6000610bda826117ac565b9050806001600160a01b0316836001600160a01b031603610c4c5760405162461bcd60e51b815260206004820152602160248201527f4552433732313a20617070726f76616c20746f2063757272656e74206f776e656044820152603960f91b60648201526084015b60405180910390fd5b336001600160a01b0382161480610c685750610c6881336105ce565b610cda5760405162461bcd60e51b815260206004820152603d60248201527f4552433732313a20617070726f76652063616c6c6572206973206e6f7420746f60448201527f6b656e206f776e6572206f7220617070726f76656420666f7220616c6c0000006064820152608401610c43565b610ce4838361268a565b505050565b610cf161319c565b610cfa826126f8565b610d165760405162461bcd60e51b8152600401610c4390613e30565b6000828152601b60205260409081902081516104a08101909252805482908290610d3f90613c91565b80601f0160208091040260200160405190810160405280929190818152602001828054610d6b90613c91565b8015610db85780601f10610d8d57610100808354040283529160200191610db8565b820191906000526020600020905b815481529060010190602001808311610d9b57829003601f168201915b505050918352505060018201546020820152600282015460408201526003820154606082015260048201546080820152600582015460a0820152600682015460c0820152600782015460e08201526008820154610100808301919091526009830154610120830152600a830154610140830152600b830154610160830152600c830154610180830152600d8301546101a0830152600e8301546101c0830152600f8301546101e08301526010830154610200830152601183015461022083015260128301546102408301526013830154610260830152601483015461028083015260158301546102a083015260168301546102c083015260178301546102e083015260188301546103008301526019830154610320830152601a830154610340830152601b9092015460ff808216151561036084015292810483161515610380830152620100008104831615156103a083015263010000008104831615156103c08301526401000000008104831615156103e0830152600160281b810483161515610400830152600160301b810483161515610420830152600160381b810483161515610440830152600160401b810483161515610460830152600160481b900490911615156104809091015292915050565b610f953382612715565b610fb15760405162461bcd60e51b8152600401610c4390613e5e565b610ce4838383612793565b6000610fc783611898565b82106110295760405162461bcd60e51b815260206004820152602b60248201527f455243373231456e756d657261626c653a206f776e657220696e646578206f7560448201526a74206f6620626f756e647360a81b6064820152608401610c43565b506001600160a01b03919091166000908152600660209081526040808320938352929052205490565b600b548111156110995760405162461bcd60e51b815260206004820152601260248201527113585e081c1bda5b9d1cc81c995858da195960721b6044820152606401610c43565b6000828152601b602081905260409091200154640100000000900460ff16806110db57506000828152601b602081905260409091200154600160281b900460ff165b806110ff57506000828152601b602081905260409091200154600160381b900460ff165b6111405760405162461bcd60e51b815260206004820152601260248201527113585e081c1bda5b9d1cc81c995858da195960721b6044820152606401610c43565b6000828152601b602081905260409091200154640100000000900460ff168061118257506000828152601b602081905260409091200154600160381b900460ff165b156111a0576000828152601b602052604090206014018190556111d7565b6000828152601b602081905260409091200154600160281b900460ff16156111d7576000828152601b602052604090206015018190555b6000828152601b6020526040902060148101546015909101547feb0459535a230602900381169fbc16d356c03aaccc2d5579b42d132d65ffa82a91849161121e9190613eab565b604080519283526020830191909152015b60405180910390a15050565b600061124b601d80546001019055565b6000611256601d5490565b905061068b8382612904565b610ce483838360405180602001604052806000815250611faa565b600061128860085490565b82106112eb5760405162461bcd60e51b815260206004820152602c60248201527f455243373231456e756d657261626c653a20676c6f62616c20696e646578206f60448201526b7574206f6620626f756e647360a01b6064820152608401610c43565b600882815481106112fe576112fe613e01565b90600052602060002001549050919050565b6060600061131d84611898565b90506000816001600160401b03811115611339576113396133f3565b60405190808252806020026020018201604052801561137257816020015b61135f6132c0565b8152602001906001900390816113575790505b509050600080805b848110156114115761138c8882610fbc565b6000818152601b60205260409020601601549093508790036113f1576040518060400160405280848152602001601b6000868152602001908152602001600020601701548152508483815181106113e5576113e5613e01565b60200260200101819052505b816113fb81613ebe565b925050808061140990613ebe565b91505061137a565b50919695505050505050565b600181116114655760405162461bcd60e51b8152602060048201526015602482015274151bdad95b8818d85b9b9bdd08189948189d5c9b9d605a1b6044820152606401610c43565b61146e816126f8565b6114b05760405162461bcd60e51b8152602060048201526013602482015272151bdad95b88191bd95cdb89dd08195e1a5cdd606a1b6044820152606401610c43565b6114b98161291e565b50565b6000806114c88661180c565b9050806103a001516115105760405162461bcd60e51b81526020600482015260116024820152704974656d206e6f74207061636b61626c6560781b6044820152606401610c43565b838551146115545760405162461bcd60e51b8152602060048201526011602482015270496e76616c6964207061636b2073697a6560781b6044820152606401610c43565b60005b855181101561167f5786601b600088848151811061157757611577613e01565b6020026020010151815260200190815260200160002060190154146115cd5760405162461bcd60e51b815260206004820152600c60248201526b496e76616c6964206974656d60a01b6044820152606401610c43565b83601b60008884815181106115e4576115e4613e01565b60200260200101518152602001908152602001600020601601541461164b5760405162461bcd60e51b815260206004820152601f60248201527f4974656d20646f6573206e6f742062656c6f6e6720746f2066696768746572006044820152606401610c43565b61166d86828151811061166057611660613e01565b602002602001015161291e565b8061167781613ebe565b915050611557565b5061168e601d80546001019055565b601d5460135460405163620d1b0560e11b81526004810186905291935061170b916001600160a01b039091169063c41a360a90602401602060405180830381865afa1580156116e1573d6000803e3d6000fd5b505050506040513d601f19601f820116820180604052508101906117059190613ed7565b83612904565b61171582826122f2565b6000828152601b60209081526040918290206001810185905560168101869055436017820155601a018690558151888152908101869052908101849052606081018390527ff23cada75feb5ca7eb08dc7495e2346ab23f1113a675f4d0a3bb2bcb3219cab09060800160405180910390a1505b949350505050565b6017602052816000526040600020818154811061065157600080fd5b6000818152600260205260408120546001600160a01b03168061068b5760405162461bcd60e51b8152602060048201526018602482015277115490cdcc8c4e881a5b9d985b1a59081d1bdad95b88125160421b6044820152606401610c43565b61181461319c565b601c54821061185b5760405162461bcd60e51b8152602060048201526013602482015272125d195b48191bd95cc81b9bdd08195e1a5cdd606a1b6044820152606401610c43565b601c828154811061186e5761186e613e01565b90600052602060002090601c0201604051806104a0016040529081600082018054610d3f90613c91565b60006001600160a01b0382166119025760405162461bcd60e51b815260206004820152602960248201527f4552433732313a2061646472657373207a65726f206973206e6f7420612076616044820152683634b21037bbb732b960b91b6064820152608401610c43565b506001600160a01b031660009081526003602052604090205490565b601c828154811061193157611931613e01565b90600052602060002090601c0201601b0160099054906101000a900460ff166119a65760405162461bcd60e51b815260206004820152602160248201527f4974656d206e6f7420696e2073686f70206f7220646f65736e277420657869736044820152601d60fa1b6064820152608401610c43565b6119b4601d80546001019055565b60006119bf601d5490565b90506119cb3382612904565b611c5781601c85815481106119e2576119e2613e01565b90600052602060002090601c0201604051806104a0016040529081600082018054611a0c90613c91565b80601f0160208091040260200160405190810160405280929190818152602001828054611a3890613c91565b8015611a855780601f10611a5a57610100808354040283529160200191611a85565b820191906000526020600020905b815481529060010190602001808311611a6857829003601f168201915b505050918352505060018201546020820152600282015460408201526003820154606082015260048201546080820152600582015460a0820152600682015460c0820152600782015460e08201526008820154610100808301919091526009830154610120830152600a830154610140830152600b830154610160830152600c830154610180830152600d8301546101a0830152600e8301546101c0830152600f8301546101e08301526010830154610200830152601183015461022083015260128301546102408301526013830154610260830152601483015461028083015260158301546102a083015260168301546102c083015260178301546102e083015260188301546103008301526019830154610320830152601a830154610340830152601b9092015460ff808216151561036084015292810483161515610380830152620100008104831615156103a083015263010000008104831615156103c08301526401000000008104831615156103e0830152600160281b810483161515610400830152600160301b810483161515610420830152600160381b810483161515610440830152600160401b810483161515610460830152600160481b90049091161515610480909101526122f2565b6000818152601b60205260409081902060018101839055601981018590556016810184905543601782015590517f78cb587a56a0dc7913ec51993eb7f7bf182fca207bd1460930bc912747387edd91611cb69184918791339190613ef4565b60405180910390a1505050565b600061068b826126f8565b60606001805461071e90613c91565b60008181526017602090815260409182902080548351818402810184019094528084526060939283018282801561070357602002820191906000526020600020908154815260200190600101908083116106ef5750505050509050919050565b60606000611d4a83610ce9565b9050600181610340015111611d935760405162461bcd60e51b815260206004820152600f60248201526e125d195b481b9bdd081c1858dad959608a1b6044820152606401610c43565b8061034001516001600160401b03811115611db057611db06133f3565b604051908082528060200260200182016040528015611dd9578160200160208202803683370190505b50915060005b816103400151811015611ef657611dfa601d80546001019055565b6000611e05601d5490565b6013546102c085015160405163620d1b0560e11b8152929350611e8b926001600160a01b039092169163c41a360a91611e449160040190815260200190565b602060405180830381865afa158015611e61573d6000803e3d6000fd5b505050506040513d601f19601f82011682018060405250810190611e859190613ed7565b82612904565b611e9581846122f2565b6000818152601b6020526040902060018082018390556102c08501516016830155436017830155601a9091015583518190859084908110611ed857611ed8613e01565b60209081029190910101525080611eee81613ebe565b915050611ddf565b506040518381527f0fad508c2e2420df470e18850d9a875076a51dc53e9b794e327a05f31340d78f9060200160405180910390a150919050565b611f3b3383836129c1565b5050565b600082821115611f5157611f51613f9d565b611f5b8284613dee565b9392505050565b611f6b826126f8565b611f875760405162461bcd60e51b8152600401610c4390613e30565b6000828152600260205260409020546001600160a01b0316610ce4818385612793565b611fb43383612715565b611fd05760405162461bcd60e51b8152600401610c4390613e5e565b611fdc84848484612a8f565b50505050565b601a602052816000526040600020818154811061065157600080fd5b60606120098261263a565b600061202060408051602081019091526000815290565b905060008151116120405760405180602001604052806000815250611f5b565b8061204a84612ac2565b60405160200161205b929190613fb3565b6040516020818303038152906040529392505050565b6000828152601b60205260409020600301548111156120cb5760405162461bcd60e51b815260206004820152601660248201527513585e081a5d195b481b195d995b081c995858da195960521b6044820152606401610c43565b6000828152601b60205260409020600201546120e8906001613eab565b81111561214c5760405162461bcd60e51b815260206004820152602c60248201527f4974656d2063616e2062652075706772616465206f6e65206c6576656c20617460448201526b20612074696d65206f6e6c7960a01b6064820152608401610c43565b6000828152601b602090815260409182902060020183905581518481529081018390527f535fb4315d70f1b2d62609c85f8b9cd714e3687d6cee1a46ff7947f852bf7164910161122f565b606060006121a483611898565b90506000816001600160401b038111156121c0576121c06133f3565b6040519080825280602002602001820160405280156121e9578160200160208202803683370190505b50905060005b82811015612230576122018582610fbc565b82828151811061221357612213613e01565b60209081029190910101528061222881613ebe565b9150506121ef565b509392505050565b6000806122458385613fe2565b905083158061225c57508261225a8583613ff9565b145b611f5b57611f5b613f9d565b6000806122758385613eab565b905083811015801561225c575082811015611f5b57611f5b613f9d565b60008181526016602090815260409182902080548351818402810184019094528084526060939283018282801561070357602002820191906000526020600020908154815260200190600101908083116106ef5750505050509050919050565b6122fb826126f8565b6123175760405162461bcd60e51b8152600401610c4390613e30565b6000828152601b60205260409020815182919081906123369082613d19565b506020820151600182015560408201516002820155606082015160038201556080820151600482015560a0820151600582015560c0820151600682015560e082015160078201556101008083015160088301556101208301516009830155610140830151600a830155610160830151600b830155610180830151600c8301556101a0830151600d8301556101c0830151600e8301556101e0830151600f830155610200830151601083015561022083015160118301556102408301516012830155610260830151601383015561028083015160148301556102a083015160158301556102c083015160168301556102e0830151601783015561030083015160188301556103208301516019830155610340830151601a830155610360830151601b90920180546103808501516103a08601516103c08701516103e08801516104008901516104208a01516104408b01516104608c0151610480909c015161ffff199098169a151561ff0019169a909a179515159098029490941763ffff00001916620100009315159390930263ff0000001916929092176301000000911515919091021765ffff0000000019166401000000009115159190910265ff0000000000191617600160281b911515919091021767ffff0000000000001916600160301b9315159390930260ff60381b191692909217600160381b931515939093029290921761ffff60401b1916600160401b9315159390930260ff60481b191692909217600160481b921515929092029190911790555050565b6016602052816000526040600020818154811061065157600080fd5b6000818152601a602090815260409182902080548351818402810184019094528084526060939283018282801561070357602002820191906000526020600020908154815260200190600101908083116106ef5750505050509050919050565b60006001600160e01b031982166380ac58cd60e01b148061261b57506001600160e01b03198216635b5e139f60e01b145b8061068b57506301ffc9a760e01b6001600160e01b031983161461068b565b612643816126f8565b6114b95760405162461bcd60e51b8152602060048201526018602482015277115490cdcc8c4e881a5b9d985b1a59081d1bdad95b88125160421b6044820152606401610c43565b600081815260046020526040902080546001600160a01b0319166001600160a01b03841690811790915581906126bf826117ac565b6001600160a01b03167f8c5be1e5ebec7d5bd14f71427d1e84f3dd0314c0f7b2291e5b200ac8c7c3b92560405160405180910390a45050565b6000908152600260205260409020546001600160a01b0316151590565b600080612721836117ac565b9050806001600160a01b0316846001600160a01b0316148061276857506001600160a01b0380821660009081526005602090815260408083209388168352929052205460ff165b806117885750836001600160a01b0316612781846107a1565b6001600160a01b031614949350505050565b826001600160a01b03166127a6826117ac565b6001600160a01b0316146127cc5760405162461bcd60e51b8152600401610c439061401b565b6001600160a01b03821661282e5760405162461bcd60e51b8152602060048201526024808201527f4552433732313a207472616e7366657220746f20746865207a65726f206164646044820152637265737360e01b6064820152608401610c43565b61283b8383836001612b54565b826001600160a01b031661284e826117ac565b6001600160a01b0316146128745760405162461bcd60e51b8152600401610c439061401b565b600081815260046020908152604080832080546001600160a01b03199081169091556001600160a01b0387811680865260038552838620805460001901905590871680865283862080546001019055868652600290945282852080549092168417909155905184937fddf252ad1be2c89b69c2b068fc378daa952ba7f163c4a11628f55a4df523b3ef91a4505050565b611f3b828260405180602001604052806000815250612c88565b6000612929826117ac565b9050612939816000846001612b54565b612942826117ac565b600083815260046020908152604080832080546001600160a01b03199081169091556001600160a01b0385168085526003845282852080546000190190558785526002909352818420805490911690555192935084927fddf252ad1be2c89b69c2b068fc378daa952ba7f163c4a11628f55a4df523b3ef908390a45050565b816001600160a01b0316836001600160a01b031603612a225760405162461bcd60e51b815260206004820152601960248201527f4552433732313a20617070726f766520746f2063616c6c6572000000000000006044820152606401610c43565b6001600160a01b03838116600081815260056020908152604080832094871680845294825291829020805460ff191686151590811790915591519182527f17307eab39ab6107e8899845ad3d59bd9653f200f220920489ca2b5937696c31910160405180910390a3505050565b612a9a848484612793565b612aa684848484612cbb565b611fdc5760405162461bcd60e51b8152600401610c4390614060565b60606000612acf83612db9565b60010190506000816001600160401b03811115612aee57612aee6133f3565b6040519080825280601f01601f191660200182016040528015612b18576020820181803683370190505b5090508181016020015b600019016f181899199a1a9b1b9c1cb0b131b232b360811b600a86061a8153600a8504945084612b2257509392505050565b6001811115612bc35760405162461bcd60e51b815260206004820152603560248201527f455243373231456e756d657261626c653a20636f6e7365637574697665207472604482015274185b9cd9995c9cc81b9bdd081cdd5c1c1bdc9d1959605a1b6064820152608401610c43565b816001600160a01b038516612c1f57612c1a81600880546000838152600960205260408120829055600182018355919091527ff3f7a9fe364faab93b216da50a3214154f22a0a2b415b23a84c8169e8b636ee30155565b612c42565b836001600160a01b0316856001600160a01b031614612c4257612c428582612e91565b6001600160a01b038416612c5e57612c5981612f2e565b612c81565b846001600160a01b0316846001600160a01b031614612c8157612c818482612fdd565b5050505050565b612c928383613021565b612c9f6000848484612cbb565b610ce45760405162461bcd60e51b8152600401610c4390614060565b60006001600160a01b0384163b15612db157604051630a85bd0160e11b81526001600160a01b0385169063150b7a0290612cff9033908990889088906004016140b2565b6020604051808303816000875af1925050508015612d3a575060408051601f3d908101601f19168201909252612d37918101906140ef565b60015b612d97573d808015612d68576040519150601f19603f3d011682016040523d82523d6000602084013e612d6d565b606091505b508051600003612d8f5760405162461bcd60e51b8152600401610c4390614060565b805181602001fd5b6001600160e01b031916630a85bd0160e11b149050611788565b506001611788565b60008072184f03e93ff9f4daa797ed6e38ed64bf6a1f0160401b8310612df85772184f03e93ff9f4daa797ed6e38ed64bf6a1f0160401b830492506040015b6d04ee2d6d415b85acef81000000008310612e24576d04ee2d6d415b85acef8100000000830492506020015b662386f26fc100008310612e4257662386f26fc10000830492506010015b6305f5e1008310612e5a576305f5e100830492506008015b6127108310612e6e57612710830492506004015b60648310612e80576064830492506002015b600a831061068b5760010192915050565b60006001612e9e84611898565b612ea89190613dee565b600083815260076020526040902054909150808214612efb576001600160a01b03841660009081526006602090815260408083208584528252808320548484528184208190558352600790915290208190555b5060009182526007602090815260408084208490556001600160a01b039094168352600681528383209183525290812055565b600854600090612f4090600190613dee565b60008381526009602052604081205460088054939450909284908110612f6857612f68613e01565b906000526020600020015490508060088381548110612f8957612f89613e01565b6000918252602080832090910192909255828152600990915260408082208490558582528120556008805480612fc157612fc161410c565b6001900381819060005260206000200160009055905550505050565b6000612fe883611898565b6001600160a01b039093166000908152600660209081526040808320868452825280832085905593825260079052919091209190915550565b6001600160a01b0382166130775760405162461bcd60e51b815260206004820181905260248201527f4552433732313a206d696e7420746f20746865207a65726f20616464726573736044820152606401610c43565b613080816126f8565b156130cd5760405162461bcd60e51b815260206004820152601c60248201527f4552433732313a20746f6b656e20616c7265616479206d696e746564000000006044820152606401610c43565b6130db600083836001612b54565b6130e4816126f8565b156131315760405162461bcd60e51b815260206004820152601c60248201527f4552433732313a20746f6b656e20616c7265616479206d696e746564000000006044820152606401610c43565b6001600160a01b038216600081815260036020908152604080832080546001019055848352600290915280822080546001600160a01b0319168417905551839291907fddf252ad1be2c89b69c2b068fc378daa952ba7f163c4a11628f55a4df523b3ef908290a45050565b604051806104a001604052806060815260200160008152602001600081526020016000815260200160008152602001600081526020016000815260200160008152602001600081526020016000815260200160008152602001600081526020016000815260200160008152602001600081526020016000815260200160008152602001600081526020016000815260200160008152602001600081526020016000815260200160008152602001600081526020016000815260200160008152602001600081526020016000151581526020016000151581526020016000151581526020016000151581526020016000151581526020016000151581526020016000151581526020016000151581526020016000151581526020016000151581525090565b60405180604001604052806002906020820280368337509192915050565b600080604083850312156132f157600080fd5b50508035926020909101359150565b6001600160e01b0319811681146114b957600080fd5b60006020828403121561332857600080fd5b8135611f5b81613300565b60006020828403121561334557600080fd5b5035919050565b6020808252825182820181905260009190848201906040850190845b8181101561338457835183529284019291840191600101613368565b50909695505050505050565b60005b838110156133ab578181015183820152602001613393565b50506000910152565b600081518084526133cc816020860160208601613390565b601f01601f19169290920160200192915050565b602081526000611f5b60208301846133b4565b634e487b7160e01b600052604160045260246000fd5b6040516104a081016001600160401b038111828210171561342c5761342c6133f3565b60405290565b604051601f8201601f191681016001600160401b038111828210171561345a5761345a6133f3565b604052919050565b60006001600160401b0383111561347b5761347b6133f3565b61348e601f8401601f1916602001613432565b90508281528383830111156134a257600080fd5b828260208301376000602084830101529392505050565b600082601f8301126134ca57600080fd5b611f5b83833560208501613462565b803580151581146134e957600080fd5b919050565b60006104a0828403121561350157600080fd5b613509613409565b905081356001600160401b0381111561352157600080fd5b61352d848285016134b9565b8252506020828101359082015260408083013590820152606080830135908201526080808301359082015260a0808301359082015260c0808301359082015260e08083013590820152610100808301359082015261012080830135908201526101408083013590820152610160808301359082015261018080830135908201526101a080830135908201526101c080830135908201526101e08083013590820152610200808301359082015261022080830135908201526102408083013590820152610260808301359082015261028080830135908201526102a080830135908201526102c080830135908201526102e080830135908201526103008083013590820152610320808301359082015261034080830135908201526103606136558184016134d9565b908201526103806136678382016134d9565b908201526103a06136798382016134d9565b908201526103c061368b8382016134d9565b908201526103e061369d8382016134d9565b908201526104006136af8382016134d9565b908201526104206136c18382016134d9565b908201526104406136d38382016134d9565b908201526104606136e58382016134d9565b908201526104806136f78382016134d9565b9082015292915050565b60006020828403121561371357600080fd5b81356001600160401b0381111561372957600080fd5b611788848285016134ee565b6001600160a01b03811681146114b957600080fd5b6000806040838503121561375d57600080fd5b823561376881613735565b946020939093013593505050565b60208152600082516104a08060208501526137956104c08501836133b4565b602086015160408681019190915286015160608087019190915286015160808087019190915286015160a08087019190915286015160c08087019190915286015160e08087019190915286015161010080870191909152860151610120808701919091528601516101408087019190915286015161016080870191909152860151610180808701919091528601516101a0808701919091528601516101c0808701919091528601516101e08087019190915286015161020080870191909152860151610220808701919091528601516102408087019190915286015161026080870191909152860151610280808701919091528601516102a0808701919091528601516102c0808701919091528601516102e080870191909152860151610300808701919091528601516103208087019190915286015161034080870191909152860151610360808701919091528601519092506103806138f98187018315159052565b86015190506103a061390e8682018315159052565b86015190506103c06139238682018315159052565b86015190506103e06139388682018315159052565b860151905061040061394d8682018315159052565b86015190506104206139628682018315159052565b86015190506104406139778682018315159052565b860151905061046061398c8682018315159052565b86015190506104806139a18682018315159052565b90950151151593019290925250919050565b6000806000606084860312156139c857600080fd5b83356139d381613735565b925060208401356139e381613735565b929592945050506040919091013590565b600060208284031215613a0657600080fd5b8135611f5b81613735565b60208082528251828201819052600091906040908185019086840185805b83811015613a6c57825185835b6002811015613a5957825182529189019190890190600101613a3c565b5050509385019391860191600101613a2f565b509298975050505050505050565b60008060008060808587031215613a9057600080fd5b843593506020808601356001600160401b0380821115613aaf57600080fd5b818801915088601f830112613ac357600080fd5b813581811115613ad557613ad56133f3565b8060051b9150613ae6848301613432565b818152918301840191848101908b841115613b0057600080fd5b938501935b83851015613b1e57843582529385019390850190613b05565b989b989a505050506040870135966060013595945050505050565b60008060408385031215613b4c57600080fd5b8235613b5781613735565b9150613b65602084016134d9565b90509250929050565b60008060408385031215613b8157600080fd5b823591506020830135613b9381613735565b809150509250929050565b60008060008060808587031215613bb457600080fd5b8435613bbf81613735565b93506020850135613bcf81613735565b92506040850135915060608501356001600160401b03811115613bf157600080fd5b8501601f81018713613c0257600080fd5b613c1187823560208401613462565b91505092959194509250565b60008060408385031215613c3057600080fd5b8235613c3b81613735565b91506020830135613b9381613735565b60008060408385031215613c5e57600080fd5b8235915060208301356001600160401b03811115613c7b57600080fd5b613c87858286016134ee565b9150509250929050565b600181811c90821680613ca557607f821691505b602082108103613cc557634e487b7160e01b600052602260045260246000fd5b50919050565b601f821115610ce457600081815260208120601f850160051c81016020861015613cf25750805b601f850160051c820191505b81811015613d1157828155600101613cfe565b505050505050565b81516001600160401b03811115613d3257613d326133f3565b613d4681613d408454613c91565b84613ccb565b602080601f831160018114613d7b5760008415613d635750858301515b600019600386901b1c1916600185901b178555613d11565b600085815260208120601f198616915b82811015613daa57888601518255948401946001909101908401613d8b565b5085821015613dc85787850151600019600388901b60f8161c191681555b5050505050600190811b01905550565b634e487b7160e01b600052601160045260246000fd5b8181038181111561068b5761068b613dd8565b634e487b7160e01b600052603260045260246000fd5b82815260406020820152600061178860408301846133b4565b602080825260149082015273151bdad95b88191bd95cc81b9bdd08195e1a5cdd60621b604082015260600190565b6020808252602d908201527f4552433732313a2063616c6c6572206973206e6f7420746f6b656e206f776e6560408201526c1c881bdc88185c1c1c9bdd9959609a1b606082015260800190565b8082018082111561068b5761068b613dd8565b600060018201613ed057613ed0613dd8565b5060010190565b600060208284031215613ee957600080fd5b8151611f5b81613735565b84815260006020858184015260018060a01b03851660408401526080606084015260008454613f2281613c91565b80608087015260a0600180841660008114613f445760018114613f5e57613f8c565b60ff1985168984015283151560051b890183019550613f8c565b896000528660002060005b85811015613f845781548b8201860152908301908801613f69565b8a0184019650505b50939b9a5050505050505050505050565b634e487b7160e01b600052600160045260246000fd5b60008351613fc5818460208801613390565b835190830190613fd9818360208801613390565b01949350505050565b808202811582820484141761068b5761068b613dd8565b60008261401657634e487b7160e01b600052601260045260246000fd5b500490565b60208082526025908201527f4552433732313a207472616e736665722066726f6d20696e636f72726563742060408201526437bbb732b960d91b606082015260800190565b60208082526032908201527f4552433732313a207472616e7366657220746f206e6f6e20455243373231526560408201527131b2b4bb32b91034b6b83632b6b2b73a32b960711b606082015260800190565b6001600160a01b03858116825284166020820152604081018390526080606082018190526000906140e5908301846133b4565b9695505050505050565b60006020828403121561410157600080fd5b8151611f5b81613300565b634e487b7160e01b600052603160045260246000fdfea2646970667358221220246de279a7ec349b318f788b084b3af5517c472ab2e77702c6e0f36c96df379e64736f6c634300081300334552433732313a207472616e7366657220746f206e6f6e204552433732315265",
  "immutableReferences": {},
  "source": "// SPDX-License-Identifier: MIT\npragma solidity ^0.8.18;\n\nimport \"@openzeppelin/contracts/token/ERC721/ERC721.sol\";\nimport \"@openzeppelin/contracts/token/ERC721/extensions/ERC721Enumerable.sol\";\nimport \"@openzeppelin/contracts/utils/Counters.sol\";\n\nimport \"truffle/Console.sol\";\nimport \"./ItemsAtts.sol\";\nimport \"./FightersHelper.sol\";\nimport \"./MoneyHelper.sol\";\n\ncontract Items is ERC721Enumerable, ItemsAtts {\n    using Counters for Counters.Counter;\n    FightersHelper private _fightersHelper;\n    MoneyHelper private _moneyHelper;\n\n    address public owner;\n\n    constructor(address fightersHelperContract, address moneyHelperContract) ERC721(\"MRIUSD\", \"Item\") {\n        owner = msg.sender;\n        _fightersHelper = FightersHelper(fightersHelperContract);  \n        _moneyHelper = MoneyHelper(moneyHelperContract);\n\n        // create empty item\n        ItemAttributes memory emptyAtts;\n        emptyAtts.name = \"Empty item\";\n        createItem(emptyAtts);\n        generateInitialTokens(emptyAtts);\n\n        // create item for gold\n        emptyAtts.name = \"Gold\";\n        createItem(emptyAtts);\n        generateInitialTokens(emptyAtts);\n    }\n\n\n    mapping (uint256 => uint256[]) public Weapons; // mapping of rarityLevel => tokenId[]\n    mapping (uint256 => uint256[]) public Armours; // mapping of rarityLevel => tokenId[]\n    mapping (uint256 => uint256[]) public Jewels; // mapping of rarityLevel => tokenId[]\n    mapping (uint256 => uint256[]) public Wings; // mapping of rarityLevel => tokenId[]\n    mapping (uint256 => uint256[]) public Misc; // mapping of rarityLevel => tokenId[]\n\n    // mapping (bytes32 => uint256) public dropHashes;\n\n    function getWeapons(uint256 rarityLevel) public view returns(uint256[] memory) {\n        return Weapons[rarityLevel];\n    }\n    function getArmours(uint256 rarityLevel) public view returns(uint256[] memory) {\n        return Armours[rarityLevel];\n    }\n    function getJewels(uint256 rarityLevel) public view returns(uint256[] memory) {\n        return Jewels[rarityLevel];\n    }\n    function getMisc(uint256 rarityLevel) public view returns(uint256[] memory) {\n        return Misc[rarityLevel];\n    }\n\n\n    event ItemGenerated(uint256 itemId, string name);\n    event LogError(uint8, uint256);\n    \n    event ItemCrafted(uint256 tokenId, address owner);\n    event ItemBoughtFromShop(uint256 tokenId, uint256 itemId, address owner, string itemName);\n\n    event ItemLevelUpgrade(uint256 tokenId, uint256 newLevel);\n    event ItemAddPointsUpdate(uint256 tokenId, uint256 newAddPoints);\n\n    function setAdditionalPoints(uint256 tokenId, uint256 points) external {\n        require(points <= maxAdditionalPoints, \"Max points reached\");\n        require(_tokenAttributes[tokenId].isWeapon || _tokenAttributes[tokenId].isArmour || _tokenAttributes[tokenId].isWings , \"Max points reached\");\n        if (_tokenAttributes[tokenId].isWeapon || _tokenAttributes[tokenId].isWings) {\n            _tokenAttributes[tokenId].additionalDamage = points;\n        } else if (_tokenAttributes[tokenId].isArmour) { \n            _tokenAttributes[tokenId].additionalDefense = points;\n        } \n\n        emit ItemAddPointsUpdate(tokenId, _tokenAttributes[tokenId].additionalDefense + _tokenAttributes[tokenId].additionalDamage);\n    }\n\n    function generateInitialTokens(ItemAttributes memory itemAtts) internal {\n        _tokenIdCounter.increment();\n        uint256 newTokenId = _tokenIdCounter.current();\n\n        _safeMint(msg.sender, newTokenId);\n        _setTokenAttributes(newTokenId, itemAtts);\n\n        _tokenAttributes[newTokenId].tokenId = newTokenId;      \n        _tokenAttributes[newTokenId].fighterId = 0;      \n        _tokenAttributes[newTokenId].lastUpdBlock = block.number; \n    }\n\n    function setItemLevel(uint256 tokenId, uint256 level)  external {\n        require(level <= _tokenAttributes[tokenId].maxLevel, \"Max item level reached\");\n        require(level <= _tokenAttributes[tokenId].itemLevel+1, \"Item can be upgrade one level at a time only\");\n\n        _tokenAttributes[tokenId].itemLevel = level;\n        emit ItemLevelUpgrade(tokenId, _tokenAttributes[tokenId].itemLevel);  \n    }\n\n    function burnItem(uint256 tokenId) external {\n        require(tokenId > 1, \"Token cannot be burnt\");\n        require(_exists(tokenId), \"Token doesn't exist\");\n        _burn(tokenId);\n    }  \n\n    function safeMint(address ownerAddres) external returns (uint256) {\n        _tokenIdCounter.increment();\n        uint256 newTokenId = _tokenIdCounter.current();\n        _safeMint(ownerAddres, newTokenId);\n\n        return newTokenId;\n    }\n\n    function setTokenAttributes(uint256 tokenId, ItemAttributes memory atts) external {\n        require(_exists(tokenId), \"Token does not exist\");\n        _tokenAttributes[tokenId] = atts;\n    }\n\n    function itemExists(uint256 tokenId) public view returns(bool) {\n        return _exists(tokenId);\n    }\n\n    function createItem(ItemAttributes memory atts) public returns (uint256 tokenId) {                \n        _itemAttributes.push(atts);   \n         uint256 itemId = _itemAttributes.length - 1;   \n         _itemAttributes[itemId].itemAttributesId = itemId;\n\n         if (atts.isWeapon) {\n            Weapons[atts.itemRarityLevel].push(itemId);\n         } else if (atts.isArmour) {\n            Armours[atts.itemRarityLevel].push(itemId);\n         } else if (atts.isJewel) {\n            Jewels[atts.itemRarityLevel].push(itemId);\n         } else if (atts.isMisc) {\n            Misc[atts.itemRarityLevel].push(itemId);\n         } else if (atts.isWings) {\n            Wings[atts.itemRarityLevel].push(itemId);\n         }\n\n        emit ItemGenerated(itemId, atts.name);\n        return itemId;\n    }\n\n    function transferItem(uint256 tokenId, address to) external {\n        require(_exists(tokenId), \"Token does not exist\");\n        address from = _ownerOf(tokenId);\n        _transfer(from, to, tokenId);\n    }   \n\n    event PackedItems(uint256 itemId, uint256 packSize, uint256 fighterId, uint256 newTokenId);\n    event UnpackedItems(uint256 tokenId);\n\n    function packItems(uint256 itemId, uint256[] memory tokenIds, uint256 packSize, uint256 fighterId) external returns (uint256 newTokenId) {\n        ItemAttributes memory atts = getItemAttributes(itemId);\n        require(atts.isPackable, \"Item not packable\");\n\n        // Ensure that the number of tokens is equal to the packSize\n        require(tokenIds.length == packSize, \"Invalid pack size\");\n        \n        for (uint i = 0; i < tokenIds.length; i++) {\n            // Check that each tokenId has an associated itemAttributeId equal to itemId\n            require(_tokenAttributes[tokenIds[i]].itemAttributesId == itemId, \"Invalid item\");\n            require(_tokenAttributes[tokenIds[i]].fighterId == fighterId, \"Item does not belong to fighter\");\n\n            _burn(tokenIds[i]);\n        }\n\n        _tokenIdCounter.increment();\n        newTokenId = _tokenIdCounter.current();\n        _safeMint(_fightersHelper.getOwner(fighterId), newTokenId);\n\n        _setTokenAttributes(newTokenId, atts);\n\n        _tokenAttributes[newTokenId].tokenId = newTokenId;      \n        _tokenAttributes[newTokenId].fighterId = fighterId;      \n        _tokenAttributes[newTokenId].lastUpdBlock = block.number; \n        _tokenAttributes[newTokenId].packSize = packSize; \n\n        emit PackedItems(itemId, packSize, fighterId, newTokenId);\n\n        // Return the ItemAttributes object\n        return newTokenId;\n    }\n\n    function unpackItems(uint256 tokenId) external returns(uint256[] memory tokenIds) {\n        ItemAttributes memory atts = getTokenAttributes(tokenId);\n        require(atts.packSize > 1, \"Item not packed\");\n\n        // Initialize tokenIds with size atts.packSize\n        tokenIds = new uint256[](atts.packSize);\n\n        for (uint i = 0; i < atts.packSize; i++) {\n            _tokenIdCounter.increment();\n            uint256 newTokenId = _tokenIdCounter.current();\n            _safeMint(_fightersHelper.getOwner(atts.fighterId), newTokenId);\n\n            _setTokenAttributes(newTokenId, atts);\n\n            _tokenAttributes[newTokenId].tokenId = newTokenId;      \n            _tokenAttributes[newTokenId].fighterId = atts.fighterId;      \n            _tokenAttributes[newTokenId].lastUpdBlock = block.number; \n            _tokenAttributes[newTokenId].packSize = 1; \n\n            tokenIds[i] = newTokenId;\n        }\n\n        emit UnpackedItems(tokenId);\n\n        return tokenIds;\n\n    }\n\n    // function craftItem(uint256 itemId, address itemOwner, uint256 maxLevel, uint256 maxAddPoints) public returns (uint256) {\n    //     require(_itemAttributes.length > itemId, \"Item attributes not found\");\n    //     ItemAttributes memory itemAtts = _itemAttributes[itemId];\n\n    //     if ((itemAtts.isWeapon || itemAtts.isArmour) && getRandomNumber(50) < luckDropRate)\n    //     {\n    //         itemAtts.luck = true;\n\n    //     }\n\n    //     if (itemAtts.isWeapon && getRandomNumber(51) < skillDropRate)\n    //     {\n    //         itemAtts.skill = true;\n    //     }\n\n    //     if (itemAtts.isWeapon || itemAtts.isArmour)\n    //     {\n    //         if (maxLevel > 0)\n    //         {\n    //             itemAtts.itemLevel = getRandomNumber(53) % (maxLevel + 1);\n    //         }\n\n    //         if (maxAddPoints > 0)\n    //         {\n    //             if (itemAtts.isWeapon) {\n    //                 itemAtts.additionalDamage = (getRandomNumber(54) % (maxAddPoints/4 + 1)) * 4;\n    //             } else if (itemAtts.isArmour) {\n    //                 itemAtts.additionalDefense = (getRandomNumber(54) % (maxAddPoints/4 + 1)) * 4;\n    //             }\n    //         }                \n    //     }        \n\n    //     _tokenIdCounter.increment();\n    //     uint256 newTokenId = _tokenIdCounter.current();\n        \n    //     _safeMint(itemOwner, newTokenId);\n \n    //     _setTokenAttributes(newTokenId, itemAtts);\n\n    //     _tokenAttributes[newTokenId].tokenId = newTokenId;      \n    //     _tokenAttributes[newTokenId].itemAttributesId = itemId;      \n    //     _tokenAttributes[newTokenId].fighterId = 0;      \n    //     _tokenAttributes[newTokenId].lastUpdBlock = block.number; \n\n    //     emit ItemCrafted(newTokenId, itemOwner);\n\n    //     return newTokenId;\n    // }     \n\n    // function getWeaponsLength(uint256 rarityLevel) public view returns (uint256) {\n    //     return Weapons[rarityLevel].length;\n    // }\n\n    // function getArmoursLength(uint256 rarityLevel) public view returns (uint256) {\n    //     return Armours[rarityLevel].length;\n    // }\n\n    // function getJewelsLength(uint256 rarityLevel) public view returns (uint256) {\n    //     return Jewels[rarityLevel].length;\n    // }\n\n    // function getMiscsLength(uint256 rarityLevel) public view returns (uint256) {\n    //     return Misc[rarityLevel].length;\n    // }    \n\n    function buyItemFromShop(uint256 itemId, uint256 fighterId) external {\n        require(_itemAttributes[itemId].inShop, \"Item not in shop or doesn't exist\");\n\n        // money logic\n\n        _tokenIdCounter.increment();\n        uint256 tokenId = _tokenIdCounter.current();\n        _safeMint(msg.sender, tokenId);\n        _setTokenAttributes(tokenId, _itemAttributes[itemId]);\n\n        _tokenAttributes[tokenId].tokenId = tokenId;      \n        _tokenAttributes[tokenId].itemAttributesId = itemId;      \n        _tokenAttributes[tokenId].fighterId = fighterId;      \n        _tokenAttributes[tokenId].lastUpdBlock = block.number;      \n\n        emit ItemBoughtFromShop(tokenId, itemId, msg.sender, _tokenAttributes[tokenId].name);\n    }\n\n    // Get the attributes for a fighter NFT\n    function getTokenAttributes(uint256 tokenId) public view returns (ItemAttributes memory) {\n        require(_exists(tokenId), \"Token does not exist\");\n\n        return _tokenAttributes[tokenId];\n    }\n\n    // Get the attributes for a fighter NFT\n    function getItemAttributes(uint256 itemId) public view returns (ItemAttributes memory) {\n        require(_itemAttributes.length > itemId, \"Item does not exist\");\n\n        return _itemAttributes[itemId];\n    }\n\n    mapping (uint256 => ItemAttributes) private _tokenAttributes;\n    ItemAttributes[] private _itemAttributes;\n    Counters.Counter private _tokenIdCounter;\n\n    ItemAttributes boxAttributes;\n\n\n\n    function getUserItems(address userAddress) external view returns (uint256[] memory) {\n        \n        uint256 numTokens = balanceOf(userAddress);\n        uint256[] memory tokenIds = new uint256[](numTokens);\n\n        for (uint256 i = 0; i < numTokens; i++) {\n            tokenIds[i] = tokenOfOwnerByIndex(userAddress, i);\n        }\n\n        return tokenIds;\n    }\n\n\n    function getFighterItems(address userAddress, uint256 fighterId) external view returns (uint256[2][] memory) {\n        \n        uint256 numTokens = balanceOf(userAddress);\n        uint256[2][] memory tokenIds = new uint256[2][](numTokens);\n\n        uint256 id;\n        uint counter = 0;\n\n        for (uint256 i = 0; i < numTokens; i++) {\n            id = tokenOfOwnerByIndex(userAddress, i);\n            if (_tokenAttributes[id].fighterId == fighterId)\n            {\n                tokenIds[counter] = [id, _tokenAttributes[id].lastUpdBlock];\n            }\n            \n            counter++;\n        }\n\n        return tokenIds;\n    }\n\n\n    function _setTokenAttributes(uint256 tokenId, ItemAttributes memory attrs) internal {\n        require(_exists(tokenId), \"Token does not exist\");\n\n        _tokenAttributes[tokenId] = attrs;\n    }\n\n\n    // Returns the smaller of two values\n    function min(uint a, uint b) private pure returns (uint) {\n        return a < b ? a : b;\n    }\n\n    // Returns the largest of the two values\n    function max(uint a, uint b) private pure returns (uint) {\n        return a > b ? a : b;\n    }\n\n    // Safe Multiply Function - prevents integer overflow \n    function safeMul(uint a, uint b) public returns (uint) {\n        uint c = a * b;\n        assert(a == 0 || c / a == b);\n        return c;\n    }\n\n    // Safe Subtraction Function - prevents integer overflow \n    function safeSub(uint a, uint b) public returns (uint) {\n        assert(b <= a);\n        return a - b;\n    }\n\n    // Safe Addition Function - prevents integer overflow \n    function safeAdd(uint a, uint b) public returns (uint) {\n        uint c = a + b;\n        assert(c>=a && c>=b);\n        return c;\n    }\n\n}",
  "sourcePath": "/Users/max/Documents/prog/game-contracts/contracts/Items.sol",
  "compiler": {
    "name": "solc",
    "version": "0.8.19+commit.7dd6d404.Emscripten.clang"
  },
  "schemaVersion": "3.4.13",
  "updatedAt": "2023-08-01T05:39:18.009Z",
  "networkType": "ethereum",
  "devdoc": {
    "events": {
      "Approval(address,address,uint256)": {
        "details": "Emitted when `owner` enables `approved` to manage the `tokenId` token."
      },
      "ApprovalForAll(address,address,bool)": {
        "details": "Emitted when `owner` enables or disables (`approved`) `operator` to manage all of its assets."
      },
      "Transfer(address,address,uint256)": {
        "details": "Emitted when `tokenId` token is transferred from `from` to `to`."
      }
    },
    "kind": "dev",
    "methods": {
      "approve(address,uint256)": {
        "details": "See {IERC721-approve}."
      },
      "balanceOf(address)": {
        "details": "See {IERC721-balanceOf}."
      },
      "getApproved(uint256)": {
        "details": "See {IERC721-getApproved}."
      },
      "isApprovedForAll(address,address)": {
        "details": "See {IERC721-isApprovedForAll}."
      },
      "name()": {
        "details": "See {IERC721Metadata-name}."
      },
      "ownerOf(uint256)": {
        "details": "See {IERC721-ownerOf}."
      },
      "safeTransferFrom(address,address,uint256)": {
        "details": "See {IERC721-safeTransferFrom}."
      },
      "safeTransferFrom(address,address,uint256,bytes)": {
        "details": "See {IERC721-safeTransferFrom}."
      },
      "setApprovalForAll(address,bool)": {
        "details": "See {IERC721-setApprovalForAll}."
      },
      "supportsInterface(bytes4)": {
        "details": "See {IERC165-supportsInterface}."
      },
      "symbol()": {
        "details": "See {IERC721Metadata-symbol}."
      },
      "tokenByIndex(uint256)": {
        "details": "See {IERC721Enumerable-tokenByIndex}."
      },
      "tokenOfOwnerByIndex(address,uint256)": {
        "details": "See {IERC721Enumerable-tokenOfOwnerByIndex}."
      },
      "tokenURI(uint256)": {
        "details": "See {IERC721Metadata-tokenURI}."
      },
      "totalSupply()": {
        "details": "See {IERC721Enumerable-totalSupply}."
      },
      "transferFrom(address,address,uint256)": {
        "details": "See {IERC721-transferFrom}."
      }
    },
    "version": 1
  },
  "userdoc": {
    "kind": "user",
    "methods": {},
    "version": 1
  }
}