{
  "contractName": "ItemsHelper",
  "abi": [
    {
      "inputs": [
        {
          "internalType": "address",
          "name": "itemsAddress",
          "type": "address"
        }
      ],
      "stateMutability": "nonpayable",
      "type": "constructor"
    },
    {
      "inputs": [
        {
          "internalType": "uint256",
          "name": "itemId",
          "type": "uint256"
        },
        {
          "internalType": "address",
          "name": "itemOwner",
          "type": "address"
        },
        {
          "internalType": "uint256",
          "name": "maxLevel",
          "type": "uint256"
        },
        {
          "internalType": "uint256",
          "name": "maxAddPoints",
          "type": "uint256"
        }
      ],
      "name": "craftItem",
      "outputs": [
        {
          "internalType": "uint256",
          "name": "",
          "type": "uint256"
        }
      ],
      "stateMutability": "nonpayable",
      "type": "function"
    },
    {
      "inputs": [
        {
          "internalType": "uint256",
          "name": "tokenId",
          "type": "uint256"
        }
      ],
      "name": "getTokenAttributes",
      "outputs": [
        {
          "components": [
            {
              "internalType": "string",
              "name": "name",
              "type": "string"
            },
            {
              "internalType": "uint256",
              "name": "tokenId",
              "type": "uint256"
            },
            {
              "internalType": "uint256",
              "name": "itemLevel",
              "type": "uint256"
            },
            {
              "internalType": "uint256",
              "name": "maxLevel",
              "type": "uint256"
            },
            {
              "internalType": "uint256",
              "name": "durability",
              "type": "uint256"
            },
            {
              "internalType": "uint256",
              "name": "classRequired",
              "type": "uint256"
            },
            {
              "internalType": "uint256",
              "name": "strengthRequired",
              "type": "uint256"
            },
            {
              "internalType": "uint256",
              "name": "agilityRequired",
              "type": "uint256"
            },
            {
              "internalType": "uint256",
              "name": "energyRequired",
              "type": "uint256"
            },
            {
              "internalType": "uint256",
              "name": "vitalityRequired",
              "type": "uint256"
            },
            {
              "internalType": "uint256",
              "name": "itemWidth",
              "type": "uint256"
            },
            {
              "internalType": "uint256",
              "name": "itemHeight",
              "type": "uint256"
            },
            {
              "internalType": "uint256",
              "name": "acceptableSlot1",
              "type": "uint256"
            },
            {
              "internalType": "uint256",
              "name": "acceptableSlot2",
              "type": "uint256"
            },
            {
              "internalType": "uint256",
              "name": "physicalDamage",
              "type": "uint256"
            },
            {
              "internalType": "uint256",
              "name": "magicDamage",
              "type": "uint256"
            },
            {
              "internalType": "uint256",
              "name": "defense",
              "type": "uint256"
            },
            {
              "internalType": "uint256",
              "name": "attackSpeed",
              "type": "uint256"
            },
            {
              "internalType": "uint256",
              "name": "defenseSuccessRate",
              "type": "uint256"
            },
            {
              "internalType": "uint256",
              "name": "additionalDamage",
              "type": "uint256"
            },
            {
              "internalType": "uint256",
              "name": "additionalDefense",
              "type": "uint256"
            },
            {
              "internalType": "uint256",
              "name": "increasedExperienceGain",
              "type": "uint256"
            },
            {
              "internalType": "uint256",
              "name": "damageIncrease",
              "type": "uint256"
            },
            {
              "internalType": "uint256",
              "name": "defenseSuccessRateIncrease",
              "type": "uint256"
            },
            {
              "internalType": "uint256",
              "name": "lifeAfterMonsterIncrease",
              "type": "uint256"
            },
            {
              "internalType": "uint256",
              "name": "manaAfterMonsterIncrease",
              "type": "uint256"
            },
            {
              "internalType": "uint256",
              "name": "goldAfterMonsterIncrease",
              "type": "uint256"
            },
            {
              "internalType": "uint256",
              "name": "doubleDamageProbabilityIncrease",
              "type": "uint256"
            },
            {
              "internalType": "uint256",
              "name": "excellentDamageProbabilityIncrease",
              "type": "uint256"
            },
            {
              "internalType": "uint256",
              "name": "ignoreOpponentsDefenseRateIncrease",
              "type": "uint256"
            },
            {
              "internalType": "uint256",
              "name": "reflectDamage",
              "type": "uint256"
            },
            {
              "internalType": "uint256",
              "name": "maxLifeIncrease",
              "type": "uint256"
            },
            {
              "internalType": "uint256",
              "name": "maxManaIncrease",
              "type": "uint256"
            },
            {
              "internalType": "uint256",
              "name": "excellentDamageRateIncrease",
              "type": "uint256"
            },
            {
              "internalType": "uint256",
              "name": "doubleDamageRateIncrease",
              "type": "uint256"
            },
            {
              "internalType": "uint256",
              "name": "ignoreOpponentsDefenseSuccessRateIncrease",
              "type": "uint256"
            },
            {
              "internalType": "uint256",
              "name": "attackDamageIncrease",
              "type": "uint256"
            },
            {
              "internalType": "uint256",
              "name": "isAncient",
              "type": "uint256"
            },
            {
              "internalType": "uint256",
              "name": "reflectDamageRateIncrease",
              "type": "uint256"
            },
            {
              "internalType": "uint256",
              "name": "decreaseDamageRateIncrease",
              "type": "uint256"
            },
            {
              "internalType": "uint256",
              "name": "hpRecoveryRateIncrease",
              "type": "uint256"
            },
            {
              "internalType": "uint256",
              "name": "mpRecoveryRateIncrease",
              "type": "uint256"
            },
            {
              "internalType": "uint256",
              "name": "hpIncrease",
              "type": "uint256"
            },
            {
              "internalType": "uint256",
              "name": "mpIncrease",
              "type": "uint256"
            },
            {
              "internalType": "uint256",
              "name": "increaseDefenseRate",
              "type": "uint256"
            },
            {
              "internalType": "uint256",
              "name": "increaseStrength",
              "type": "uint256"
            },
            {
              "internalType": "uint256",
              "name": "increaseAgility",
              "type": "uint256"
            },
            {
              "internalType": "uint256",
              "name": "increaseEnergy",
              "type": "uint256"
            },
            {
              "internalType": "uint256",
              "name": "increaseVitality",
              "type": "uint256"
            },
            {
              "internalType": "uint256",
              "name": "attackSpeedIncrease",
              "type": "uint256"
            },
            {
              "internalType": "uint256",
              "name": "fighterId",
              "type": "uint256"
            },
            {
              "internalType": "uint256",
              "name": "lastUpdBlock",
              "type": "uint256"
            },
            {
              "internalType": "uint256",
              "name": "itemRarityLevel",
              "type": "uint256"
            },
            {
              "internalType": "uint256",
              "name": "itemAttributesId",
              "type": "uint256"
            },
            {
              "internalType": "bool",
              "name": "luck",
              "type": "bool"
            },
            {
              "internalType": "bool",
              "name": "skill",
              "type": "bool"
            },
            {
              "internalType": "bool",
              "name": "isBox",
              "type": "bool"
            },
            {
              "internalType": "bool",
              "name": "isWeapon",
              "type": "bool"
            },
            {
              "internalType": "bool",
              "name": "isArmour",
              "type": "bool"
            },
            {
              "internalType": "bool",
              "name": "isJewel",
              "type": "bool"
            },
            {
              "internalType": "bool",
              "name": "isMisc",
              "type": "bool"
            },
            {
              "internalType": "bool",
              "name": "isConsumable",
              "type": "bool"
            },
            {
              "internalType": "bool",
              "name": "inShop",
              "type": "bool"
            }
          ],
          "internalType": "struct ItemAtts.ItemAttributes",
          "name": "",
          "type": "tuple"
        }
      ],
      "stateMutability": "nonpayable",
      "type": "function"
    },
    {
      "inputs": [
        {
          "internalType": "uint256",
          "name": "tokenId",
          "type": "uint256"
        }
      ],
      "name": "burnItem",
      "outputs": [],
      "stateMutability": "nonpayable",
      "type": "function"
    },
    {
      "inputs": [
        {
          "internalType": "uint256",
          "name": "tokenId",
          "type": "uint256"
        },
        {
          "internalType": "uint256",
          "name": "level",
          "type": "uint256"
        }
      ],
      "name": "setItemLevel",
      "outputs": [],
      "stateMutability": "nonpayable",
      "type": "function"
    },
    {
      "inputs": [
        {
          "internalType": "uint256",
          "name": "tokenId",
          "type": "uint256"
        },
        {
          "internalType": "uint256",
          "name": "points",
          "type": "uint256"
        }
      ],
      "name": "setAdditionalPoints",
      "outputs": [],
      "stateMutability": "nonpayable",
      "type": "function"
    },
    {
      "inputs": [
        {
          "internalType": "uint256",
          "name": "rarityLevel",
          "type": "uint256"
        },
        {
          "internalType": "uint256",
          "name": "fighterId",
          "type": "uint256"
        },
        {
          "internalType": "uint256",
          "name": "experience",
          "type": "uint256"
        }
      ],
      "name": "dropItem",
      "outputs": [
        {
          "internalType": "uint256",
          "name": "",
          "type": "uint256"
        }
      ],
      "stateMutability": "nonpayable",
      "type": "function"
    }
  ],
  "bytecode": "0x6080604052601c60005560326001556032600255601e600355601e60045534801561002957600080fd5b50604051610f2c380380610f2c8339810160408190526100489161006d565b600580546001600160a01b0319166001600160a01b039290921691909117905561009d565b60006020828403121561007f57600080fd5b81516001600160a01b038116811461009657600080fd5b9392505050565b610e80806100ac6000396000f3fe608060405234801561001057600080fd5b50600436106100625760003560e01c80631f4f5a23146100675780632048530c1461009057806332fac8f8146100b1578063576cc0f7146100c6578063caf7c445146100d9578063eceb6902146100ec575b600080fd5b61007a610075366004610569565b6100ff565b60405161008791906105d2565b60405180910390f35b6100a361009e366004610959565b610351565b604051908152602001610087565b6100c46100bf3660046109a2565b6103e0565b005b6100c46100d4366004610569565b61044a565b6100c46100e73660046109a2565b6104ab565b6100a36100fa3660046109c4565b6104e3565b6102da604051806107e001604052806060815260200160008152602001600081526020016000815260200160008152602001600081526020016000815260200160008152602001600081526020016000815260200160008152602001600081526020016000815260200160008152602001600081526020016000815260200160008152602001600081526020016000815260200160008152602001600081526020016000815260200160008152602001600081526020016000815260200160008152602001600081526020016000815260200160008152602001600081526020016000815260200160008152602001600081526020016000815260200160008152602001600081526020016000815260200160008152602001600081526020016000815260200160008152602001600081526020016000815260200160008152602001600081526020016000815260200160008152602001600081526020016000815260200160008152602001600081526020016000815260200160008152602001600081526020016000151581526020016000151581526020016000151581526020016000151581526020016000151581526020016000151581526020016000151581526020016000151581526020016000151581525090565b600554604051631f4f5a2360e01b8152600481018490526001600160a01b0390911690631f4f5a2390602401600060405180830381865afa158015610323573d6000803e3d6000fd5b505050506040513d6000823e601f3d908101601f1916820160405261034b9190810190610acd565b92915050565b60055460405163081214c360e21b8152600481018690526001600160a01b03858116602483015260448201859052606482018490526000921690632048530c906084016020604051808303816000875af11580156103b3573d6000803e3d6000fd5b505050506040513d601f19601f820116820180604052508101906103d79190610e31565b95945050505050565b60055460405163065f591f60e31b815260048101849052602481018390526001600160a01b03909116906332fac8f8906044015b600060405180830381600087803b15801561042e57600080fd5b505af1158015610442573d6000803e3d6000fd5b505050505050565b60055460405163576cc0f760e01b8152600481018390526001600160a01b039091169063576cc0f790602401600060405180830381600087803b15801561049057600080fd5b505af11580156104a4573d6000803e3d6000fd5b5050505050565b60055460405163caf7c44560e01b815260048101849052602481018390526001600160a01b039091169063caf7c44590604401610414565b600554604051637675b48160e11b81526004810185905260248101849052604481018390526000916001600160a01b03169063eceb6902906064016020604051808303816000875af115801561053d573d6000803e3d6000fd5b505050506040513d601f19601f820116820180604052508101906105619190610e31565b949350505050565b60006020828403121561057b57600080fd5b5035919050565b60005b8381101561059d578181015183820152602001610585565b50506000910152565b600081518084526105be816020860160208601610582565b601f01601f19169290920160200192915050565b60208152600082516107e08060208501526105f16108008501836105a6565b602086015160408681019190915286015160608087019190915286015160808087019190915286015160a08087019190915286015160c08087019190915286015160e08087019190915286015161010080870191909152860151610120808701919091528601516101408087019190915286015161016080870191909152860151610180808701919091528601516101a0808701919091528601516101c0808701919091528601516101e08087019190915286015161020080870191909152860151610220808701919091528601516102408087019190915286015161026080870191909152860151610280808701919091528601516102a0808701919091528601516102c0808701919091528601516102e08087019190915286015161030080870191909152860151610320808701919091528601516103408087019190915286015161036080870191909152860151610380808701919091528601516103a0808701919091528601516103c0808701919091528601516103e08087019190915286015161040080870191909152860151610420808701919091528601516104408087019190915286015161046080870191909152860151610480808701919091528601516104a0808701919091528601516104c0808701919091528601516104e08087019190915286015161050080870191909152860151610520808701919091528601516105408087019190915286015161056080870191909152860151610580808701919091528601516105a0808701919091528601516105c0808701919091528601516105e08087019190915286015161060080870191909152860151610620808701919091528601516106408087019190915286015161066080870191909152860151610680808701919091528601516106a0808701919091528601516106c0808701919091528601519092506106e06108b48187018315159052565b86015190506107006108c98682018315159052565b86015190506107206108de8682018315159052565b86015190506107406108f38682018315159052565b86015190506107606109088682018315159052565b860151905061078061091d8682018315159052565b86015190506107a06109328682018315159052565b86015190506107c06109478682018315159052565b90950151151593019290925250919050565b6000806000806080858703121561096f57600080fd5b8435935060208501356001600160a01b038116811461098d57600080fd5b93969395505050506040820135916060013590565b600080604083850312156109b557600080fd5b50508035926020909101359150565b6000806000606084860312156109d957600080fd5b505081359360208301359350604090920135919050565b634e487b7160e01b600052604160045260246000fd5b6040516107e0810167ffffffffffffffff81118282101715610a2a57610a2a6109f0565b60405290565b600082601f830112610a4157600080fd5b815167ffffffffffffffff80821115610a5c57610a5c6109f0565b604051601f8301601f19908116603f01168101908282118183101715610a8457610a846109f0565b81604052838152866020858801011115610a9d57600080fd5b610aae846020830160208901610582565b9695505050505050565b80518015158114610ac857600080fd5b919050565b600060208284031215610adf57600080fd5b815167ffffffffffffffff80821115610af757600080fd5b908301906107e08286031215610b0c57600080fd5b610b14610a06565b825182811115610b2357600080fd5b610b2f87828601610a30565b8252506020838101519082015260408084015190820152606080840151908201526080808401519082015260a0808401519082015260c0808401519082015260e08084015190820152610100808401519082015261012080840151908201526101408084015190820152610160808401519082015261018080840151908201526101a080840151908201526101c080840151908201526101e08084015190820152610200808401519082015261022080840151908201526102408084015190820152610260808401519082015261028080840151908201526102a080840151908201526102c080840151908201526102e08084015190820152610300808401519082015261032080840151908201526103408084015190820152610360808401519082015261038080840151908201526103a080840151908201526103c080840151908201526103e08084015190820152610400808401519082015261042080840151908201526104408084015190820152610460808401519082015261048080840151908201526104a080840151908201526104c080840151908201526104e08084015190820152610500808401519082015261052080840151908201526105408084015190820152610560808401519082015261058080840151908201526105a080840151908201526105c080840151908201526105e08084015190820152610600808401519082015261062080840151908201526106408084015190820152610660808401519082015261068080840151908201526106a080840151908201526106c09150610d82828401610ab8565b828201526106e09150610d96828401610ab8565b828201526107009150610daa828401610ab8565b828201526107209150610dbe828401610ab8565b828201526107409150610dd2828401610ab8565b828201526107609150610de6828401610ab8565b828201526107809150610dfa828401610ab8565b828201526107a09150610e0e828401610ab8565b828201526107c09150610e22828401610ab8565b91810191909152949350505050565b600060208284031215610e4357600080fd5b505191905056fea264697066735822122016b7ee8c5b3134584865a8aee0b628d913df65fba8ffce73cf37245d1427470e64736f6c63430008130033",
  "immutableReferences": {},
  "source": "// SPDX-License-Identifier: MIT\npragma solidity ^0.8.18;\nimport \"./ItemAtts.sol\";\nimport \"./Items.sol\";\n\ncontract ItemsHelper is ItemAtts {\n    Items private _items;\n\n    constructor(address itemsAddress) {\n        _items = Items(itemsAddress);\n    }\n\n    function craftItem(uint256 itemId, address itemOwner, uint256 maxLevel, uint256 maxAddPoints) external returns (uint256) {\n        return _items.craftItem(itemId, itemOwner, maxLevel, maxAddPoints);\n    }\n\n    function getTokenAttributes(uint256 tokenId) external returns (ItemAttributes memory) {\n        return _items.getTokenAttributes(tokenId);\n    }\n\n    function burnItem(uint256 tokenId) external {\n        return _items.burnItem(tokenId);\n    }\n\n    function setItemLevel(uint256 tokenId, uint256 level)  external {\n        return _items.setItemLevel(tokenId, level);\n    }   \n\n    function setAdditionalPoints(uint256 tokenId, uint256 points) external {\n        return _items.setAdditionalPoints(tokenId, points);\n    }\n\n    function dropItem(uint256 rarityLevel, uint256 fighterId, uint256 experience) external returns (uint256) {\n        return _items.dropItem(rarityLevel, fighterId, experience);\n    }\n}",
  "sourcePath": "/Users/max/Documents/prog/game-contracts/contracts/ItemsHelper.sol",
  "compiler": {
    "name": "solc",
    "version": "0.8.19+commit.7dd6d404.Emscripten.clang"
  },
  "schemaVersion": "3.4.13",
  "updatedAt": "2023-04-23T09:38:20.425Z",
  "networkType": "ethereum",
  "devdoc": {
    "kind": "dev",
    "methods": {},
    "version": 1
  },
  "userdoc": {
    "kind": "user",
    "methods": {},
    "version": 1
  }
}