{
  "contractName": "Items",
  "abi": [
    {
      "inputs": [],
      "stateMutability": "nonpayable",
      "type": "constructor"
    },
    {
      "anonymous": false,
      "inputs": [
        {
          "indexed": true,
          "internalType": "address",
          "name": "owner",
          "type": "address"
        },
        {
          "indexed": true,
          "internalType": "address",
          "name": "approved",
          "type": "address"
        },
        {
          "indexed": true,
          "internalType": "uint256",
          "name": "tokenId",
          "type": "uint256"
        }
      ],
      "name": "Approval",
      "type": "event"
    },
    {
      "anonymous": false,
      "inputs": [
        {
          "indexed": true,
          "internalType": "address",
          "name": "owner",
          "type": "address"
        },
        {
          "indexed": true,
          "internalType": "address",
          "name": "operator",
          "type": "address"
        },
        {
          "indexed": false,
          "internalType": "bool",
          "name": "approved",
          "type": "bool"
        }
      ],
      "name": "ApprovalForAll",
      "type": "event"
    },
    {
      "anonymous": false,
      "inputs": [
        {
          "indexed": false,
          "internalType": "uint256",
          "name": "rarityLevel",
          "type": "uint256"
        },
        {
          "components": [
            {
              "internalType": "uint256",
              "name": "weaponsDropRate",
              "type": "uint256"
            },
            {
              "internalType": "uint256",
              "name": "armoursDropRate",
              "type": "uint256"
            },
            {
              "internalType": "uint256",
              "name": "jewelsDropRate",
              "type": "uint256"
            },
            {
              "internalType": "uint256",
              "name": "miscDropRate",
              "type": "uint256"
            },
            {
              "internalType": "uint256",
              "name": "boxDropRate",
              "type": "uint256"
            },
            {
              "internalType": "uint256",
              "name": "excDropRate",
              "type": "uint256"
            },
            {
              "internalType": "uint256",
              "name": "boxId",
              "type": "uint256"
            },
            {
              "internalType": "uint256",
              "name": "minItemLevel",
              "type": "uint256"
            },
            {
              "internalType": "uint256",
              "name": "maxItemLevel",
              "type": "uint256"
            },
            {
              "internalType": "uint256",
              "name": "maxAddPoints",
              "type": "uint256"
            }
          ],
          "indexed": false,
          "internalType": "struct Items.DropParams",
          "name": "params",
          "type": "tuple"
        }
      ],
      "name": "BoxDropParametersChange",
      "type": "event"
    },
    {
      "anonymous": false,
      "inputs": [
        {
          "indexed": false,
          "internalType": "uint256",
          "name": "tokenId",
          "type": "uint256"
        },
        {
          "indexed": false,
          "internalType": "uint256",
          "name": "rarityLevel",
          "type": "uint256"
        },
        {
          "indexed": false,
          "internalType": "address",
          "name": "owner",
          "type": "address"
        }
      ],
      "name": "BoxOppened",
      "type": "event"
    },
    {
      "anonymous": false,
      "inputs": [
        {
          "indexed": false,
          "internalType": "uint256",
          "name": "rarityLevel",
          "type": "uint256"
        },
        {
          "components": [
            {
              "internalType": "uint256",
              "name": "weaponsDropRate",
              "type": "uint256"
            },
            {
              "internalType": "uint256",
              "name": "armoursDropRate",
              "type": "uint256"
            },
            {
              "internalType": "uint256",
              "name": "jewelsDropRate",
              "type": "uint256"
            },
            {
              "internalType": "uint256",
              "name": "miscDropRate",
              "type": "uint256"
            },
            {
              "internalType": "uint256",
              "name": "boxDropRate",
              "type": "uint256"
            },
            {
              "internalType": "uint256",
              "name": "excDropRate",
              "type": "uint256"
            },
            {
              "internalType": "uint256",
              "name": "boxId",
              "type": "uint256"
            },
            {
              "internalType": "uint256",
              "name": "minItemLevel",
              "type": "uint256"
            },
            {
              "internalType": "uint256",
              "name": "maxItemLevel",
              "type": "uint256"
            },
            {
              "internalType": "uint256",
              "name": "maxAddPoints",
              "type": "uint256"
            }
          ],
          "indexed": false,
          "internalType": "struct Items.DropParams",
          "name": "params",
          "type": "tuple"
        }
      ],
      "name": "DropParametersChange",
      "type": "event"
    },
    {
      "anonymous": false,
      "inputs": [
        {
          "indexed": false,
          "internalType": "uint256",
          "name": "tokenId",
          "type": "uint256"
        },
        {
          "indexed": false,
          "internalType": "uint256",
          "name": "newAddPoints",
          "type": "uint256"
        }
      ],
      "name": "ItemAddPointsUpdate",
      "type": "event"
    },
    {
      "anonymous": false,
      "inputs": [
        {
          "indexed": false,
          "internalType": "uint256",
          "name": "tokenId",
          "type": "uint256"
        },
        {
          "indexed": false,
          "internalType": "uint256",
          "name": "itemId",
          "type": "uint256"
        },
        {
          "indexed": false,
          "internalType": "address",
          "name": "owner",
          "type": "address"
        },
        {
          "indexed": false,
          "internalType": "string",
          "name": "itemName",
          "type": "string"
        }
      ],
      "name": "ItemBoughtFromShop",
      "type": "event"
    },
    {
      "anonymous": false,
      "inputs": [
        {
          "indexed": false,
          "internalType": "uint256",
          "name": "tokenId",
          "type": "uint256"
        },
        {
          "indexed": false,
          "internalType": "address",
          "name": "owner",
          "type": "address"
        }
      ],
      "name": "ItemCrafted",
      "type": "event"
    },
    {
      "anonymous": false,
      "inputs": [
        {
          "indexed": false,
          "internalType": "uint256",
          "name": "tokenId",
          "type": "uint256"
        },
        {
          "indexed": false,
          "internalType": "uint256",
          "name": "rarityLevel",
          "type": "uint256"
        },
        {
          "indexed": false,
          "internalType": "address",
          "name": "owner",
          "type": "address"
        }
      ],
      "name": "ItemDropped",
      "type": "event"
    },
    {
      "anonymous": false,
      "inputs": [
        {
          "indexed": false,
          "internalType": "uint256",
          "name": "itemId",
          "type": "uint256"
        },
        {
          "indexed": false,
          "internalType": "string",
          "name": "name",
          "type": "string"
        }
      ],
      "name": "ItemGenerated",
      "type": "event"
    },
    {
      "anonymous": false,
      "inputs": [
        {
          "indexed": false,
          "internalType": "uint256",
          "name": "tokenId",
          "type": "uint256"
        },
        {
          "indexed": false,
          "internalType": "uint256",
          "name": "newLevel",
          "type": "uint256"
        }
      ],
      "name": "ItemLevelUpgrade",
      "type": "event"
    },
    {
      "anonymous": false,
      "inputs": [
        {
          "indexed": false,
          "internalType": "uint8",
          "name": "",
          "type": "uint8"
        },
        {
          "indexed": false,
          "internalType": "uint256",
          "name": "",
          "type": "uint256"
        }
      ],
      "name": "LogError",
      "type": "event"
    },
    {
      "anonymous": false,
      "inputs": [
        {
          "indexed": true,
          "internalType": "address",
          "name": "from",
          "type": "address"
        },
        {
          "indexed": true,
          "internalType": "address",
          "name": "to",
          "type": "address"
        },
        {
          "indexed": true,
          "internalType": "uint256",
          "name": "tokenId",
          "type": "uint256"
        }
      ],
      "name": "Transfer",
      "type": "event"
    },
    {
      "inputs": [
        {
          "internalType": "uint256",
          "name": "",
          "type": "uint256"
        },
        {
          "internalType": "uint256",
          "name": "",
          "type": "uint256"
        }
      ],
      "name": "Armours",
      "outputs": [
        {
          "internalType": "uint256",
          "name": "",
          "type": "uint256"
        }
      ],
      "stateMutability": "view",
      "type": "function",
      "constant": true
    },
    {
      "inputs": [
        {
          "internalType": "uint256",
          "name": "",
          "type": "uint256"
        }
      ],
      "name": "BoxDropPramsList",
      "outputs": [
        {
          "internalType": "uint256",
          "name": "weaponsDropRate",
          "type": "uint256"
        },
        {
          "internalType": "uint256",
          "name": "armoursDropRate",
          "type": "uint256"
        },
        {
          "internalType": "uint256",
          "name": "jewelsDropRate",
          "type": "uint256"
        },
        {
          "internalType": "uint256",
          "name": "miscDropRate",
          "type": "uint256"
        },
        {
          "internalType": "uint256",
          "name": "boxDropRate",
          "type": "uint256"
        },
        {
          "internalType": "uint256",
          "name": "excDropRate",
          "type": "uint256"
        },
        {
          "internalType": "uint256",
          "name": "boxId",
          "type": "uint256"
        },
        {
          "internalType": "uint256",
          "name": "minItemLevel",
          "type": "uint256"
        },
        {
          "internalType": "uint256",
          "name": "maxItemLevel",
          "type": "uint256"
        },
        {
          "internalType": "uint256",
          "name": "maxAddPoints",
          "type": "uint256"
        }
      ],
      "stateMutability": "view",
      "type": "function",
      "constant": true
    },
    {
      "inputs": [
        {
          "internalType": "uint256",
          "name": "",
          "type": "uint256"
        }
      ],
      "name": "DropParamsList",
      "outputs": [
        {
          "internalType": "uint256",
          "name": "weaponsDropRate",
          "type": "uint256"
        },
        {
          "internalType": "uint256",
          "name": "armoursDropRate",
          "type": "uint256"
        },
        {
          "internalType": "uint256",
          "name": "jewelsDropRate",
          "type": "uint256"
        },
        {
          "internalType": "uint256",
          "name": "miscDropRate",
          "type": "uint256"
        },
        {
          "internalType": "uint256",
          "name": "boxDropRate",
          "type": "uint256"
        },
        {
          "internalType": "uint256",
          "name": "excDropRate",
          "type": "uint256"
        },
        {
          "internalType": "uint256",
          "name": "boxId",
          "type": "uint256"
        },
        {
          "internalType": "uint256",
          "name": "minItemLevel",
          "type": "uint256"
        },
        {
          "internalType": "uint256",
          "name": "maxItemLevel",
          "type": "uint256"
        },
        {
          "internalType": "uint256",
          "name": "maxAddPoints",
          "type": "uint256"
        }
      ],
      "stateMutability": "view",
      "type": "function",
      "constant": true
    },
    {
      "inputs": [
        {
          "internalType": "uint256",
          "name": "",
          "type": "uint256"
        },
        {
          "internalType": "uint256",
          "name": "",
          "type": "uint256"
        }
      ],
      "name": "Jewels",
      "outputs": [
        {
          "internalType": "uint256",
          "name": "",
          "type": "uint256"
        }
      ],
      "stateMutability": "view",
      "type": "function",
      "constant": true
    },
    {
      "inputs": [
        {
          "internalType": "uint256",
          "name": "",
          "type": "uint256"
        },
        {
          "internalType": "uint256",
          "name": "",
          "type": "uint256"
        }
      ],
      "name": "Misc",
      "outputs": [
        {
          "internalType": "uint256",
          "name": "",
          "type": "uint256"
        }
      ],
      "stateMutability": "view",
      "type": "function",
      "constant": true
    },
    {
      "inputs": [
        {
          "internalType": "uint256",
          "name": "",
          "type": "uint256"
        },
        {
          "internalType": "uint256",
          "name": "",
          "type": "uint256"
        }
      ],
      "name": "Weapons",
      "outputs": [
        {
          "internalType": "uint256",
          "name": "",
          "type": "uint256"
        }
      ],
      "stateMutability": "view",
      "type": "function",
      "constant": true
    },
    {
      "inputs": [
        {
          "internalType": "address",
          "name": "to",
          "type": "address"
        },
        {
          "internalType": "uint256",
          "name": "tokenId",
          "type": "uint256"
        }
      ],
      "name": "approve",
      "outputs": [],
      "stateMutability": "nonpayable",
      "type": "function"
    },
    {
      "inputs": [
        {
          "internalType": "address",
          "name": "owner",
          "type": "address"
        }
      ],
      "name": "balanceOf",
      "outputs": [
        {
          "internalType": "uint256",
          "name": "",
          "type": "uint256"
        }
      ],
      "stateMutability": "view",
      "type": "function",
      "constant": true
    },
    {
      "inputs": [
        {
          "internalType": "uint256",
          "name": "tokenId",
          "type": "uint256"
        }
      ],
      "name": "getApproved",
      "outputs": [
        {
          "internalType": "address",
          "name": "",
          "type": "address"
        }
      ],
      "stateMutability": "view",
      "type": "function",
      "constant": true
    },
    {
      "inputs": [
        {
          "internalType": "address",
          "name": "owner",
          "type": "address"
        },
        {
          "internalType": "address",
          "name": "operator",
          "type": "address"
        }
      ],
      "name": "isApprovedForAll",
      "outputs": [
        {
          "internalType": "bool",
          "name": "",
          "type": "bool"
        }
      ],
      "stateMutability": "view",
      "type": "function",
      "constant": true
    },
    {
      "inputs": [
        {
          "internalType": "uint256",
          "name": "",
          "type": "uint256"
        }
      ],
      "name": "itemName",
      "outputs": [
        {
          "internalType": "string",
          "name": "",
          "type": "string"
        }
      ],
      "stateMutability": "view",
      "type": "function",
      "constant": true
    },
    {
      "inputs": [],
      "name": "name",
      "outputs": [
        {
          "internalType": "string",
          "name": "",
          "type": "string"
        }
      ],
      "stateMutability": "view",
      "type": "function",
      "constant": true
    },
    {
      "inputs": [],
      "name": "owner",
      "outputs": [
        {
          "internalType": "address",
          "name": "",
          "type": "address"
        }
      ],
      "stateMutability": "view",
      "type": "function",
      "constant": true
    },
    {
      "inputs": [
        {
          "internalType": "uint256",
          "name": "tokenId",
          "type": "uint256"
        }
      ],
      "name": "ownerOf",
      "outputs": [
        {
          "internalType": "address",
          "name": "",
          "type": "address"
        }
      ],
      "stateMutability": "view",
      "type": "function",
      "constant": true
    },
    {
      "inputs": [
        {
          "internalType": "address",
          "name": "from",
          "type": "address"
        },
        {
          "internalType": "address",
          "name": "to",
          "type": "address"
        },
        {
          "internalType": "uint256",
          "name": "tokenId",
          "type": "uint256"
        }
      ],
      "name": "safeTransferFrom",
      "outputs": [],
      "stateMutability": "nonpayable",
      "type": "function"
    },
    {
      "inputs": [
        {
          "internalType": "address",
          "name": "from",
          "type": "address"
        },
        {
          "internalType": "address",
          "name": "to",
          "type": "address"
        },
        {
          "internalType": "uint256",
          "name": "tokenId",
          "type": "uint256"
        },
        {
          "internalType": "bytes",
          "name": "data",
          "type": "bytes"
        }
      ],
      "name": "safeTransferFrom",
      "outputs": [],
      "stateMutability": "nonpayable",
      "type": "function"
    },
    {
      "inputs": [
        {
          "internalType": "address",
          "name": "operator",
          "type": "address"
        },
        {
          "internalType": "bool",
          "name": "approved",
          "type": "bool"
        }
      ],
      "name": "setApprovalForAll",
      "outputs": [],
      "stateMutability": "nonpayable",
      "type": "function"
    },
    {
      "inputs": [
        {
          "internalType": "bytes4",
          "name": "interfaceId",
          "type": "bytes4"
        }
      ],
      "name": "supportsInterface",
      "outputs": [
        {
          "internalType": "bool",
          "name": "",
          "type": "bool"
        }
      ],
      "stateMutability": "view",
      "type": "function",
      "constant": true
    },
    {
      "inputs": [],
      "name": "symbol",
      "outputs": [
        {
          "internalType": "string",
          "name": "",
          "type": "string"
        }
      ],
      "stateMutability": "view",
      "type": "function",
      "constant": true
    },
    {
      "inputs": [
        {
          "internalType": "uint256",
          "name": "index",
          "type": "uint256"
        }
      ],
      "name": "tokenByIndex",
      "outputs": [
        {
          "internalType": "uint256",
          "name": "",
          "type": "uint256"
        }
      ],
      "stateMutability": "view",
      "type": "function",
      "constant": true
    },
    {
      "inputs": [
        {
          "internalType": "address",
          "name": "owner",
          "type": "address"
        },
        {
          "internalType": "uint256",
          "name": "index",
          "type": "uint256"
        }
      ],
      "name": "tokenOfOwnerByIndex",
      "outputs": [
        {
          "internalType": "uint256",
          "name": "",
          "type": "uint256"
        }
      ],
      "stateMutability": "view",
      "type": "function",
      "constant": true
    },
    {
      "inputs": [
        {
          "internalType": "uint256",
          "name": "tokenId",
          "type": "uint256"
        }
      ],
      "name": "tokenURI",
      "outputs": [
        {
          "internalType": "string",
          "name": "",
          "type": "string"
        }
      ],
      "stateMutability": "view",
      "type": "function",
      "constant": true
    },
    {
      "inputs": [],
      "name": "totalSupply",
      "outputs": [
        {
          "internalType": "uint256",
          "name": "",
          "type": "uint256"
        }
      ],
      "stateMutability": "view",
      "type": "function",
      "constant": true
    },
    {
      "inputs": [
        {
          "internalType": "address",
          "name": "from",
          "type": "address"
        },
        {
          "internalType": "address",
          "name": "to",
          "type": "address"
        },
        {
          "internalType": "uint256",
          "name": "tokenId",
          "type": "uint256"
        }
      ],
      "name": "transferFrom",
      "outputs": [],
      "stateMutability": "nonpayable",
      "type": "function"
    },
    {
      "inputs": [
        {
          "internalType": "uint256",
          "name": "tokenId",
          "type": "uint256"
        },
        {
          "internalType": "uint256",
          "name": "points",
          "type": "uint256"
        }
      ],
      "name": "setAdditionalPoints",
      "outputs": [],
      "stateMutability": "nonpayable",
      "type": "function"
    },
    {
      "inputs": [
        {
          "internalType": "uint256",
          "name": "tokenId",
          "type": "uint256"
        },
        {
          "internalType": "uint256",
          "name": "level",
          "type": "uint256"
        }
      ],
      "name": "setItemLevel",
      "outputs": [],
      "stateMutability": "nonpayable",
      "type": "function"
    },
    {
      "inputs": [
        {
          "internalType": "uint256",
          "name": "itemId",
          "type": "uint256"
        }
      ],
      "name": "burnItem",
      "outputs": [],
      "stateMutability": "nonpayable",
      "type": "function"
    },
    {
      "inputs": [
        {
          "internalType": "uint256",
          "name": "tokenId",
          "type": "uint256"
        }
      ],
      "name": "openBox",
      "outputs": [
        {
          "internalType": "uint256",
          "name": "",
          "type": "uint256"
        }
      ],
      "stateMutability": "nonpayable",
      "type": "function"
    },
    {
      "inputs": [
        {
          "internalType": "uint256",
          "name": "rarityLevel",
          "type": "uint256"
        },
        {
          "components": [
            {
              "internalType": "uint256",
              "name": "weaponsDropRate",
              "type": "uint256"
            },
            {
              "internalType": "uint256",
              "name": "armoursDropRate",
              "type": "uint256"
            },
            {
              "internalType": "uint256",
              "name": "jewelsDropRate",
              "type": "uint256"
            },
            {
              "internalType": "uint256",
              "name": "miscDropRate",
              "type": "uint256"
            },
            {
              "internalType": "uint256",
              "name": "boxDropRate",
              "type": "uint256"
            },
            {
              "internalType": "uint256",
              "name": "excDropRate",
              "type": "uint256"
            },
            {
              "internalType": "uint256",
              "name": "boxId",
              "type": "uint256"
            },
            {
              "internalType": "uint256",
              "name": "minItemLevel",
              "type": "uint256"
            },
            {
              "internalType": "uint256",
              "name": "maxItemLevel",
              "type": "uint256"
            },
            {
              "internalType": "uint256",
              "name": "maxAddPoints",
              "type": "uint256"
            }
          ],
          "internalType": "struct Items.DropParams",
          "name": "params",
          "type": "tuple"
        }
      ],
      "name": "setDropParams",
      "outputs": [],
      "stateMutability": "nonpayable",
      "type": "function"
    },
    {
      "inputs": [
        {
          "internalType": "uint256",
          "name": "rarityLevel",
          "type": "uint256"
        },
        {
          "components": [
            {
              "internalType": "uint256",
              "name": "weaponsDropRate",
              "type": "uint256"
            },
            {
              "internalType": "uint256",
              "name": "armoursDropRate",
              "type": "uint256"
            },
            {
              "internalType": "uint256",
              "name": "jewelsDropRate",
              "type": "uint256"
            },
            {
              "internalType": "uint256",
              "name": "miscDropRate",
              "type": "uint256"
            },
            {
              "internalType": "uint256",
              "name": "boxDropRate",
              "type": "uint256"
            },
            {
              "internalType": "uint256",
              "name": "excDropRate",
              "type": "uint256"
            },
            {
              "internalType": "uint256",
              "name": "boxId",
              "type": "uint256"
            },
            {
              "internalType": "uint256",
              "name": "minItemLevel",
              "type": "uint256"
            },
            {
              "internalType": "uint256",
              "name": "maxItemLevel",
              "type": "uint256"
            },
            {
              "internalType": "uint256",
              "name": "maxAddPoints",
              "type": "uint256"
            }
          ],
          "internalType": "struct Items.DropParams",
          "name": "params",
          "type": "tuple"
        }
      ],
      "name": "setBoxDropParams",
      "outputs": [],
      "stateMutability": "nonpayable",
      "type": "function"
    },
    {
      "inputs": [
        {
          "components": [
            {
              "internalType": "string",
              "name": "name",
              "type": "string"
            },
            {
              "internalType": "uint256",
              "name": "tokenId",
              "type": "uint256"
            },
            {
              "internalType": "uint256",
              "name": "itemLevel",
              "type": "uint256"
            },
            {
              "internalType": "uint256",
              "name": "maxLevel",
              "type": "uint256"
            },
            {
              "internalType": "uint256",
              "name": "durability",
              "type": "uint256"
            },
            {
              "internalType": "uint256",
              "name": "classRequired",
              "type": "uint256"
            },
            {
              "internalType": "uint256",
              "name": "strengthRequired",
              "type": "uint256"
            },
            {
              "internalType": "uint256",
              "name": "agilityRequired",
              "type": "uint256"
            },
            {
              "internalType": "uint256",
              "name": "energyRequired",
              "type": "uint256"
            },
            {
              "internalType": "uint256",
              "name": "vitalityRequired",
              "type": "uint256"
            },
            {
              "internalType": "uint256",
              "name": "itemWidth",
              "type": "uint256"
            },
            {
              "internalType": "uint256",
              "name": "itemHeight",
              "type": "uint256"
            },
            {
              "internalType": "uint256",
              "name": "acceptableSlot1",
              "type": "uint256"
            },
            {
              "internalType": "uint256",
              "name": "acceptableSlot2",
              "type": "uint256"
            },
            {
              "internalType": "uint256",
              "name": "physicalDamage",
              "type": "uint256"
            },
            {
              "internalType": "uint256",
              "name": "magicDamage",
              "type": "uint256"
            },
            {
              "internalType": "uint256",
              "name": "defense",
              "type": "uint256"
            },
            {
              "internalType": "uint256",
              "name": "attackSpeed",
              "type": "uint256"
            },
            {
              "internalType": "uint256",
              "name": "defenseSuccessRate",
              "type": "uint256"
            },
            {
              "internalType": "uint256",
              "name": "additionalDamage",
              "type": "uint256"
            },
            {
              "internalType": "uint256",
              "name": "additionalDefense",
              "type": "uint256"
            },
            {
              "internalType": "uint256",
              "name": "increasedExperienceGain",
              "type": "uint256"
            },
            {
              "internalType": "uint256",
              "name": "damageIncrease",
              "type": "uint256"
            },
            {
              "internalType": "uint256",
              "name": "defenseSuccessRateIncrease",
              "type": "uint256"
            },
            {
              "internalType": "uint256",
              "name": "lifeAfterMonsterIncrease",
              "type": "uint256"
            },
            {
              "internalType": "uint256",
              "name": "manaAfterMonsterIncrease",
              "type": "uint256"
            },
            {
              "internalType": "uint256",
              "name": "goldAfterMonsterIncrease",
              "type": "uint256"
            },
            {
              "internalType": "uint256",
              "name": "doubleDamageProbabilityIncrease",
              "type": "uint256"
            },
            {
              "internalType": "uint256",
              "name": "excellentDamageProbabilityIncrease",
              "type": "uint256"
            },
            {
              "internalType": "uint256",
              "name": "ignoreOpponentsDefenseRateIncrease",
              "type": "uint256"
            },
            {
              "internalType": "uint256",
              "name": "reflectDamage",
              "type": "uint256"
            },
            {
              "internalType": "uint256",
              "name": "maxLifeIncrease",
              "type": "uint256"
            },
            {
              "internalType": "uint256",
              "name": "maxManaIncrease",
              "type": "uint256"
            },
            {
              "internalType": "uint256",
              "name": "excellentDamageRateIncrease",
              "type": "uint256"
            },
            {
              "internalType": "uint256",
              "name": "doubleDamageRateIncrease",
              "type": "uint256"
            },
            {
              "internalType": "uint256",
              "name": "ignoreOpponentsDefenseSuccessRateIncrease",
              "type": "uint256"
            },
            {
              "internalType": "uint256",
              "name": "attackDamageIncrease",
              "type": "uint256"
            },
            {
              "internalType": "uint256",
              "name": "isAncient",
              "type": "uint256"
            },
            {
              "internalType": "uint256",
              "name": "reflectDamageRateIncrease",
              "type": "uint256"
            },
            {
              "internalType": "uint256",
              "name": "decreaseDamageRateIncrease",
              "type": "uint256"
            },
            {
              "internalType": "uint256",
              "name": "hpRecoveryRateIncrease",
              "type": "uint256"
            },
            {
              "internalType": "uint256",
              "name": "mpRecoveryRateIncrease",
              "type": "uint256"
            },
            {
              "internalType": "uint256",
              "name": "hpIncrease",
              "type": "uint256"
            },
            {
              "internalType": "uint256",
              "name": "mpIncrease",
              "type": "uint256"
            },
            {
              "internalType": "uint256",
              "name": "increaseDefenseRate",
              "type": "uint256"
            },
            {
              "internalType": "uint256",
              "name": "increaseStrength",
              "type": "uint256"
            },
            {
              "internalType": "uint256",
              "name": "increaseAgility",
              "type": "uint256"
            },
            {
              "internalType": "uint256",
              "name": "increaseEnergy",
              "type": "uint256"
            },
            {
              "internalType": "uint256",
              "name": "increaseVitality",
              "type": "uint256"
            },
            {
              "internalType": "uint256",
              "name": "attackSpeedIncrease",
              "type": "uint256"
            },
            {
              "internalType": "uint256",
              "name": "fighterId",
              "type": "uint256"
            },
            {
              "internalType": "uint256",
              "name": "lastUpdBlock",
              "type": "uint256"
            },
            {
              "internalType": "uint256",
              "name": "itemRarityLevel",
              "type": "uint256"
            },
            {
              "internalType": "uint256",
              "name": "itemAttributesId",
              "type": "uint256"
            },
            {
              "internalType": "bool",
              "name": "luck",
              "type": "bool"
            },
            {
              "internalType": "bool",
              "name": "skill",
              "type": "bool"
            },
            {
              "internalType": "bool",
              "name": "isBox",
              "type": "bool"
            },
            {
              "internalType": "bool",
              "name": "isWeapon",
              "type": "bool"
            },
            {
              "internalType": "bool",
              "name": "isArmour",
              "type": "bool"
            },
            {
              "internalType": "bool",
              "name": "isJewel",
              "type": "bool"
            },
            {
              "internalType": "bool",
              "name": "isMisc",
              "type": "bool"
            },
            {
              "internalType": "bool",
              "name": "isConsumable",
              "type": "bool"
            },
            {
              "internalType": "bool",
              "name": "inShop",
              "type": "bool"
            }
          ],
          "internalType": "struct ItemAtts.ItemAttributes",
          "name": "atts",
          "type": "tuple"
        }
      ],
      "name": "createItem",
      "outputs": [
        {
          "internalType": "uint256",
          "name": "tokenId",
          "type": "uint256"
        }
      ],
      "stateMutability": "nonpayable",
      "type": "function"
    },
    {
      "inputs": [
        {
          "internalType": "uint256",
          "name": "rarityLevel",
          "type": "uint256"
        }
      ],
      "name": "dropItem",
      "outputs": [
        {
          "internalType": "uint256",
          "name": "",
          "type": "uint256"
        }
      ],
      "stateMutability": "nonpayable",
      "type": "function"
    },
    {
      "inputs": [
        {
          "internalType": "uint256",
          "name": "itemId",
          "type": "uint256"
        },
        {
          "internalType": "address",
          "name": "itemOwner",
          "type": "address"
        },
        {
          "internalType": "uint256",
          "name": "maxLevel",
          "type": "uint256"
        },
        {
          "internalType": "uint256",
          "name": "maxAddPoints",
          "type": "uint256"
        }
      ],
      "name": "craftItem",
      "outputs": [
        {
          "internalType": "uint256",
          "name": "",
          "type": "uint256"
        }
      ],
      "stateMutability": "nonpayable",
      "type": "function"
    },
    {
      "inputs": [
        {
          "internalType": "uint256",
          "name": "rarityLevel",
          "type": "uint256"
        }
      ],
      "name": "getWeaponsLength",
      "outputs": [
        {
          "internalType": "uint256",
          "name": "",
          "type": "uint256"
        }
      ],
      "stateMutability": "view",
      "type": "function",
      "constant": true
    },
    {
      "inputs": [
        {
          "internalType": "uint256",
          "name": "rarityLevel",
          "type": "uint256"
        }
      ],
      "name": "getArmoursLength",
      "outputs": [
        {
          "internalType": "uint256",
          "name": "",
          "type": "uint256"
        }
      ],
      "stateMutability": "view",
      "type": "function",
      "constant": true
    },
    {
      "inputs": [
        {
          "internalType": "uint256",
          "name": "rarityLevel",
          "type": "uint256"
        }
      ],
      "name": "getJewelsLength",
      "outputs": [
        {
          "internalType": "uint256",
          "name": "",
          "type": "uint256"
        }
      ],
      "stateMutability": "view",
      "type": "function",
      "constant": true
    },
    {
      "inputs": [
        {
          "internalType": "uint256",
          "name": "rarityLevel",
          "type": "uint256"
        }
      ],
      "name": "getMiscsLength",
      "outputs": [
        {
          "internalType": "uint256",
          "name": "",
          "type": "uint256"
        }
      ],
      "stateMutability": "view",
      "type": "function",
      "constant": true
    },
    {
      "inputs": [
        {
          "internalType": "uint256",
          "name": "itemId",
          "type": "uint256"
        },
        {
          "internalType": "uint256",
          "name": "fighterId",
          "type": "uint256"
        }
      ],
      "name": "buyItemFromShop",
      "outputs": [],
      "stateMutability": "nonpayable",
      "type": "function"
    },
    {
      "inputs": [
        {
          "internalType": "uint256",
          "name": "tokenId",
          "type": "uint256"
        }
      ],
      "name": "getTokenAttributes",
      "outputs": [
        {
          "components": [
            {
              "internalType": "string",
              "name": "name",
              "type": "string"
            },
            {
              "internalType": "uint256",
              "name": "tokenId",
              "type": "uint256"
            },
            {
              "internalType": "uint256",
              "name": "itemLevel",
              "type": "uint256"
            },
            {
              "internalType": "uint256",
              "name": "maxLevel",
              "type": "uint256"
            },
            {
              "internalType": "uint256",
              "name": "durability",
              "type": "uint256"
            },
            {
              "internalType": "uint256",
              "name": "classRequired",
              "type": "uint256"
            },
            {
              "internalType": "uint256",
              "name": "strengthRequired",
              "type": "uint256"
            },
            {
              "internalType": "uint256",
              "name": "agilityRequired",
              "type": "uint256"
            },
            {
              "internalType": "uint256",
              "name": "energyRequired",
              "type": "uint256"
            },
            {
              "internalType": "uint256",
              "name": "vitalityRequired",
              "type": "uint256"
            },
            {
              "internalType": "uint256",
              "name": "itemWidth",
              "type": "uint256"
            },
            {
              "internalType": "uint256",
              "name": "itemHeight",
              "type": "uint256"
            },
            {
              "internalType": "uint256",
              "name": "acceptableSlot1",
              "type": "uint256"
            },
            {
              "internalType": "uint256",
              "name": "acceptableSlot2",
              "type": "uint256"
            },
            {
              "internalType": "uint256",
              "name": "physicalDamage",
              "type": "uint256"
            },
            {
              "internalType": "uint256",
              "name": "magicDamage",
              "type": "uint256"
            },
            {
              "internalType": "uint256",
              "name": "defense",
              "type": "uint256"
            },
            {
              "internalType": "uint256",
              "name": "attackSpeed",
              "type": "uint256"
            },
            {
              "internalType": "uint256",
              "name": "defenseSuccessRate",
              "type": "uint256"
            },
            {
              "internalType": "uint256",
              "name": "additionalDamage",
              "type": "uint256"
            },
            {
              "internalType": "uint256",
              "name": "additionalDefense",
              "type": "uint256"
            },
            {
              "internalType": "uint256",
              "name": "increasedExperienceGain",
              "type": "uint256"
            },
            {
              "internalType": "uint256",
              "name": "damageIncrease",
              "type": "uint256"
            },
            {
              "internalType": "uint256",
              "name": "defenseSuccessRateIncrease",
              "type": "uint256"
            },
            {
              "internalType": "uint256",
              "name": "lifeAfterMonsterIncrease",
              "type": "uint256"
            },
            {
              "internalType": "uint256",
              "name": "manaAfterMonsterIncrease",
              "type": "uint256"
            },
            {
              "internalType": "uint256",
              "name": "goldAfterMonsterIncrease",
              "type": "uint256"
            },
            {
              "internalType": "uint256",
              "name": "doubleDamageProbabilityIncrease",
              "type": "uint256"
            },
            {
              "internalType": "uint256",
              "name": "excellentDamageProbabilityIncrease",
              "type": "uint256"
            },
            {
              "internalType": "uint256",
              "name": "ignoreOpponentsDefenseRateIncrease",
              "type": "uint256"
            },
            {
              "internalType": "uint256",
              "name": "reflectDamage",
              "type": "uint256"
            },
            {
              "internalType": "uint256",
              "name": "maxLifeIncrease",
              "type": "uint256"
            },
            {
              "internalType": "uint256",
              "name": "maxManaIncrease",
              "type": "uint256"
            },
            {
              "internalType": "uint256",
              "name": "excellentDamageRateIncrease",
              "type": "uint256"
            },
            {
              "internalType": "uint256",
              "name": "doubleDamageRateIncrease",
              "type": "uint256"
            },
            {
              "internalType": "uint256",
              "name": "ignoreOpponentsDefenseSuccessRateIncrease",
              "type": "uint256"
            },
            {
              "internalType": "uint256",
              "name": "attackDamageIncrease",
              "type": "uint256"
            },
            {
              "internalType": "uint256",
              "name": "isAncient",
              "type": "uint256"
            },
            {
              "internalType": "uint256",
              "name": "reflectDamageRateIncrease",
              "type": "uint256"
            },
            {
              "internalType": "uint256",
              "name": "decreaseDamageRateIncrease",
              "type": "uint256"
            },
            {
              "internalType": "uint256",
              "name": "hpRecoveryRateIncrease",
              "type": "uint256"
            },
            {
              "internalType": "uint256",
              "name": "mpRecoveryRateIncrease",
              "type": "uint256"
            },
            {
              "internalType": "uint256",
              "name": "hpIncrease",
              "type": "uint256"
            },
            {
              "internalType": "uint256",
              "name": "mpIncrease",
              "type": "uint256"
            },
            {
              "internalType": "uint256",
              "name": "increaseDefenseRate",
              "type": "uint256"
            },
            {
              "internalType": "uint256",
              "name": "increaseStrength",
              "type": "uint256"
            },
            {
              "internalType": "uint256",
              "name": "increaseAgility",
              "type": "uint256"
            },
            {
              "internalType": "uint256",
              "name": "increaseEnergy",
              "type": "uint256"
            },
            {
              "internalType": "uint256",
              "name": "increaseVitality",
              "type": "uint256"
            },
            {
              "internalType": "uint256",
              "name": "attackSpeedIncrease",
              "type": "uint256"
            },
            {
              "internalType": "uint256",
              "name": "fighterId",
              "type": "uint256"
            },
            {
              "internalType": "uint256",
              "name": "lastUpdBlock",
              "type": "uint256"
            },
            {
              "internalType": "uint256",
              "name": "itemRarityLevel",
              "type": "uint256"
            },
            {
              "internalType": "uint256",
              "name": "itemAttributesId",
              "type": "uint256"
            },
            {
              "internalType": "bool",
              "name": "luck",
              "type": "bool"
            },
            {
              "internalType": "bool",
              "name": "skill",
              "type": "bool"
            },
            {
              "internalType": "bool",
              "name": "isBox",
              "type": "bool"
            },
            {
              "internalType": "bool",
              "name": "isWeapon",
              "type": "bool"
            },
            {
              "internalType": "bool",
              "name": "isArmour",
              "type": "bool"
            },
            {
              "internalType": "bool",
              "name": "isJewel",
              "type": "bool"
            },
            {
              "internalType": "bool",
              "name": "isMisc",
              "type": "bool"
            },
            {
              "internalType": "bool",
              "name": "isConsumable",
              "type": "bool"
            },
            {
              "internalType": "bool",
              "name": "inShop",
              "type": "bool"
            }
          ],
          "internalType": "struct ItemAtts.ItemAttributes",
          "name": "",
          "type": "tuple"
        }
      ],
      "stateMutability": "view",
      "type": "function",
      "constant": true
    },
    {
      "inputs": [
        {
          "internalType": "uint256",
          "name": "itemId",
          "type": "uint256"
        }
      ],
      "name": "getItemAttributes",
      "outputs": [
        {
          "components": [
            {
              "internalType": "string",
              "name": "name",
              "type": "string"
            },
            {
              "internalType": "uint256",
              "name": "tokenId",
              "type": "uint256"
            },
            {
              "internalType": "uint256",
              "name": "itemLevel",
              "type": "uint256"
            },
            {
              "internalType": "uint256",
              "name": "maxLevel",
              "type": "uint256"
            },
            {
              "internalType": "uint256",
              "name": "durability",
              "type": "uint256"
            },
            {
              "internalType": "uint256",
              "name": "classRequired",
              "type": "uint256"
            },
            {
              "internalType": "uint256",
              "name": "strengthRequired",
              "type": "uint256"
            },
            {
              "internalType": "uint256",
              "name": "agilityRequired",
              "type": "uint256"
            },
            {
              "internalType": "uint256",
              "name": "energyRequired",
              "type": "uint256"
            },
            {
              "internalType": "uint256",
              "name": "vitalityRequired",
              "type": "uint256"
            },
            {
              "internalType": "uint256",
              "name": "itemWidth",
              "type": "uint256"
            },
            {
              "internalType": "uint256",
              "name": "itemHeight",
              "type": "uint256"
            },
            {
              "internalType": "uint256",
              "name": "acceptableSlot1",
              "type": "uint256"
            },
            {
              "internalType": "uint256",
              "name": "acceptableSlot2",
              "type": "uint256"
            },
            {
              "internalType": "uint256",
              "name": "physicalDamage",
              "type": "uint256"
            },
            {
              "internalType": "uint256",
              "name": "magicDamage",
              "type": "uint256"
            },
            {
              "internalType": "uint256",
              "name": "defense",
              "type": "uint256"
            },
            {
              "internalType": "uint256",
              "name": "attackSpeed",
              "type": "uint256"
            },
            {
              "internalType": "uint256",
              "name": "defenseSuccessRate",
              "type": "uint256"
            },
            {
              "internalType": "uint256",
              "name": "additionalDamage",
              "type": "uint256"
            },
            {
              "internalType": "uint256",
              "name": "additionalDefense",
              "type": "uint256"
            },
            {
              "internalType": "uint256",
              "name": "increasedExperienceGain",
              "type": "uint256"
            },
            {
              "internalType": "uint256",
              "name": "damageIncrease",
              "type": "uint256"
            },
            {
              "internalType": "uint256",
              "name": "defenseSuccessRateIncrease",
              "type": "uint256"
            },
            {
              "internalType": "uint256",
              "name": "lifeAfterMonsterIncrease",
              "type": "uint256"
            },
            {
              "internalType": "uint256",
              "name": "manaAfterMonsterIncrease",
              "type": "uint256"
            },
            {
              "internalType": "uint256",
              "name": "goldAfterMonsterIncrease",
              "type": "uint256"
            },
            {
              "internalType": "uint256",
              "name": "doubleDamageProbabilityIncrease",
              "type": "uint256"
            },
            {
              "internalType": "uint256",
              "name": "excellentDamageProbabilityIncrease",
              "type": "uint256"
            },
            {
              "internalType": "uint256",
              "name": "ignoreOpponentsDefenseRateIncrease",
              "type": "uint256"
            },
            {
              "internalType": "uint256",
              "name": "reflectDamage",
              "type": "uint256"
            },
            {
              "internalType": "uint256",
              "name": "maxLifeIncrease",
              "type": "uint256"
            },
            {
              "internalType": "uint256",
              "name": "maxManaIncrease",
              "type": "uint256"
            },
            {
              "internalType": "uint256",
              "name": "excellentDamageRateIncrease",
              "type": "uint256"
            },
            {
              "internalType": "uint256",
              "name": "doubleDamageRateIncrease",
              "type": "uint256"
            },
            {
              "internalType": "uint256",
              "name": "ignoreOpponentsDefenseSuccessRateIncrease",
              "type": "uint256"
            },
            {
              "internalType": "uint256",
              "name": "attackDamageIncrease",
              "type": "uint256"
            },
            {
              "internalType": "uint256",
              "name": "isAncient",
              "type": "uint256"
            },
            {
              "internalType": "uint256",
              "name": "reflectDamageRateIncrease",
              "type": "uint256"
            },
            {
              "internalType": "uint256",
              "name": "decreaseDamageRateIncrease",
              "type": "uint256"
            },
            {
              "internalType": "uint256",
              "name": "hpRecoveryRateIncrease",
              "type": "uint256"
            },
            {
              "internalType": "uint256",
              "name": "mpRecoveryRateIncrease",
              "type": "uint256"
            },
            {
              "internalType": "uint256",
              "name": "hpIncrease",
              "type": "uint256"
            },
            {
              "internalType": "uint256",
              "name": "mpIncrease",
              "type": "uint256"
            },
            {
              "internalType": "uint256",
              "name": "increaseDefenseRate",
              "type": "uint256"
            },
            {
              "internalType": "uint256",
              "name": "increaseStrength",
              "type": "uint256"
            },
            {
              "internalType": "uint256",
              "name": "increaseAgility",
              "type": "uint256"
            },
            {
              "internalType": "uint256",
              "name": "increaseEnergy",
              "type": "uint256"
            },
            {
              "internalType": "uint256",
              "name": "increaseVitality",
              "type": "uint256"
            },
            {
              "internalType": "uint256",
              "name": "attackSpeedIncrease",
              "type": "uint256"
            },
            {
              "internalType": "uint256",
              "name": "fighterId",
              "type": "uint256"
            },
            {
              "internalType": "uint256",
              "name": "lastUpdBlock",
              "type": "uint256"
            },
            {
              "internalType": "uint256",
              "name": "itemRarityLevel",
              "type": "uint256"
            },
            {
              "internalType": "uint256",
              "name": "itemAttributesId",
              "type": "uint256"
            },
            {
              "internalType": "bool",
              "name": "luck",
              "type": "bool"
            },
            {
              "internalType": "bool",
              "name": "skill",
              "type": "bool"
            },
            {
              "internalType": "bool",
              "name": "isBox",
              "type": "bool"
            },
            {
              "internalType": "bool",
              "name": "isWeapon",
              "type": "bool"
            },
            {
              "internalType": "bool",
              "name": "isArmour",
              "type": "bool"
            },
            {
              "internalType": "bool",
              "name": "isJewel",
              "type": "bool"
            },
            {
              "internalType": "bool",
              "name": "isMisc",
              "type": "bool"
            },
            {
              "internalType": "bool",
              "name": "isConsumable",
              "type": "bool"
            },
            {
              "internalType": "bool",
              "name": "inShop",
              "type": "bool"
            }
          ],
          "internalType": "struct ItemAtts.ItemAttributes",
          "name": "",
          "type": "tuple"
        }
      ],
      "stateMutability": "view",
      "type": "function",
      "constant": true
    },
    {
      "inputs": [
        {
          "internalType": "address",
          "name": "userAddress",
          "type": "address"
        }
      ],
      "name": "getUserItems",
      "outputs": [
        {
          "internalType": "uint256[]",
          "name": "",
          "type": "uint256[]"
        }
      ],
      "stateMutability": "view",
      "type": "function",
      "constant": true
    },
    {
      "inputs": [
        {
          "internalType": "address",
          "name": "userAddress",
          "type": "address"
        },
        {
          "internalType": "uint256",
          "name": "fighterId",
          "type": "uint256"
        }
      ],
      "name": "getFighterItems",
      "outputs": [
        {
          "internalType": "uint256[2][]",
          "name": "",
          "type": "uint256[2][]"
        }
      ],
      "stateMutability": "view",
      "type": "function",
      "constant": true
    },
    {
      "inputs": [
        {
          "internalType": "uint256",
          "name": "a",
          "type": "uint256"
        },
        {
          "internalType": "uint256",
          "name": "b",
          "type": "uint256"
        }
      ],
      "name": "safeMul",
      "outputs": [
        {
          "internalType": "uint256",
          "name": "",
          "type": "uint256"
        }
      ],
      "stateMutability": "nonpayable",
      "type": "function"
    },
    {
      "inputs": [
        {
          "internalType": "uint256",
          "name": "a",
          "type": "uint256"
        },
        {
          "internalType": "uint256",
          "name": "b",
          "type": "uint256"
        }
      ],
      "name": "safeSub",
      "outputs": [
        {
          "internalType": "uint256",
          "name": "",
          "type": "uint256"
        }
      ],
      "stateMutability": "nonpayable",
      "type": "function"
    },
    {
      "inputs": [
        {
          "internalType": "uint256",
          "name": "a",
          "type": "uint256"
        },
        {
          "internalType": "uint256",
          "name": "b",
          "type": "uint256"
        }
      ],
      "name": "safeAdd",
      "outputs": [
        {
          "internalType": "uint256",
          "name": "",
          "type": "uint256"
        }
      ],
      "stateMutability": "nonpayable",
      "type": "function"
    }
  ],
  "bytecode": "0x601c600a8181556032600b819055600c55601e600d819055600e8190556023608081905260a081905260c083905260e0839052610100839052600f61012081905281815560109190915560118390556012839055601383905560149081556102606040526101408390526101608190526101808390526101a08390526101c08390526101e08390526102008390526102208390526102408290526015839055601655601782905560188290556019829055601a829055601b8290559155601d55348015620000cc57600080fd5b5060405180604001604052806007815260200166436f6d6261747360c81b815250604051806040016040528060048152602001634974656d60e01b81525081600090816200011b9190620001ea565b5060016200012a8282620001ea565b5050601e80546001600160a01b0319163317905550620002b6565b634e487b7160e01b600052604160045260246000fd5b600181811c908216806200017057607f821691505b6020821081036200019157634e487b7160e01b600052602260045260246000fd5b50919050565b601f821115620001e557600081815260208120601f850160051c81016020861015620001c05750805b601f850160051c820191505b81811015620001e157828155600101620001cc565b5050505b505050565b81516001600160401b0381111562000206576200020662000145565b6200021e816200021784546200015b565b8462000197565b602080601f8311600181146200025657600084156200023d5750858301515b600019600386901b1c1916600185901b178555620001e1565b600085815260208120601f198616915b82811015620002875788860151825594840194600190910190840162000266565b5085821015620002a65787850151600019600388901b60f8161c191681555b5050505050600190811b01905550565b615d1780620002c66000396000f3fe608060405234801561001057600080fd5b506004361061027f5760003560e01c80636352211e1161015c578063b88d4fde116100ce578063d05c78da11610087578063d05c78da14610685578063d0660b3714610698578063e6cb9013146106fa578063e985e9c51461070d578063f364750e14610749578063f4d106541461075c57600080fd5b8063b88d4fde1461056d578063c29a3c9314610580578063c6d6f6b114610593578063c87b56dd1461063f578063caf7c44514610652578063ce6019b41461066557600080fd5b80637f46914f116101205780637f46914f146105065780638da5cb5b1461051957806395d89b411461052c578063a22cb46514610534578063a293d1e814610547578063b1e5e2b71461055a57600080fd5b80636352211e146104a75780636995795b146104ba57806370a08231146104cd5780637310dc8a146104e057806373f8f121146104f357600080fd5b806332fac8f8116101f55780634d772a38116101b95780634d772a381461041b5780634f6ccce71461042e578063513c14521461044157806356f3d52f14610461578063576cc0f714610481578063635034471461049457600080fd5b806332fac8f8146103a357806338d7b37b146103b65780633996b776146103c95780633daf81e0146103e857806342842e0e1461040857600080fd5b8063095ea7b311610247578063095ea7b31461032d57806318160ddd146103425780631f4f5a231461034a5780632048530c1461036a57806323b872dd1461037d5780632f745c591461039057600080fd5b806301ffc9a7146102845780630278ee4f146102ac57806303d2e4a1146102da57806306fdde03146102ed578063081812fc14610302575b600080fd5b610297610292366004614c4b565b61076f565b60405190151581526020015b60405180910390f35b6102cc6102ba366004614c68565b60009081526022602052604090205490565b6040519081526020016102a3565b6102cc6102e8366004614c81565b61079a565b6102f56107cb565b6040516102a39190614cf3565b610315610310366004614c68565b61085d565b6040516001600160a01b0390911681526020016102a3565b61034061033b366004614d22565b610884565b005b6008546102cc565b61035d610358366004614c68565b61099e565b6040516102a39190614d4c565b6102cc6103783660046150d3565b610d81565b61034061038b36600461510e565b611369565b6102cc61039e366004614d22565b61139a565b6103406103b1366004614c81565b611430565b6103406103c43660046151ae565b6115cb565b6102cc6103d7366004614c68565b600090815260208052604090205490565b6102cc6103f6366004614c68565b60009081526023602052604090205490565b61034061041636600461510e565b61166c565b6102cc6104293660046152fb565b611687565b6102cc61043c366004614c68565b611b69565b61045461044f366004614d22565b611bfc565b6040516102a3919061565f565b6102cc61046f366004614c68565b60009081526021602052604090205490565b61034061048f366004614c68565b611d0a565b6102cc6104a2366004614c81565b611d61565b6103156104b5366004614c68565b611d7d565b61035d6104c8366004614c68565b611ddd565b6102cc6104db3660046156c8565b611e69565b6102f56104ee366004614c68565b611eef565b6102cc610501366004614c68565b611f89565b610340610514366004614c81565b612106565b601e54610315906001600160a01b031681565b6102f56125c5565b6103406105423660046156e3565b6125d4565b6102cc610555366004614c81565b6125e3565b6102cc610568366004614c68565b612606565b61034061057b366004615716565b612afc565b6102cc61058e366004614c81565b612b34565b6105f56105a1366004614c68565b6024602052806000526040600020600091509050806000015490806001015490806002015490806003015490806004015490806005015490806006015490806007015490806008015490806009015490508a565b604080519a8b5260208b0199909952978901969096526060880194909452608087019290925260a086015260c085015260e0840152610100830152610120820152610140016102a3565b6102f561064d366004614c68565b612b50565b610340610660366004614c81565b612bc3565b6106786106733660046156c8565b612ce9565b6040516102a39190615792565b6102cc610693366004614c81565b612d8b565b6105f56106a6366004614c68565b6025602052806000526040600020600091509050806000015490806001015490806002015490806003015490806004015490806005015490806006015490806007015490806008015490806009015490508a565b6102cc610708366004614c81565b612dbb565b61029761071b3660046157d6565b6001600160a01b03918216600090815260056020908152604080832093909416825291909152205460ff1690565b6103406107573660046151ae565b612de5565b6102cc61076a366004614c81565b612e86565b60006001600160e01b0319821663780e9d6360e01b1480610794575061079482612ea1565b92915050565b602260205281600052604060002081815481106107b657600080fd5b90600052602060002001600091509150505481565b6060600080546107da90615800565b80601f016020809104026020016040519081016040528092919081815260200182805461080690615800565b80156108535780601f1061082857610100808354040283529160200191610853565b820191906000526020600020905b81548152906001019060200180831161083657829003601f168201915b5050505050905090565b600061086882612ef1565b506000908152600460205260409020546001600160a01b031690565b600061088f82611d7d565b9050806001600160a01b0316836001600160a01b0316036109015760405162461bcd60e51b815260206004820152602160248201527f4552433732313a20617070726f76616c20746f2063757272656e74206f776e656044820152603960f91b60648201526084015b60405180910390fd5b336001600160a01b038216148061091d575061091d813361071b565b61098f5760405162461bcd60e51b815260206004820152603d60248201527f4552433732313a20617070726f76652063616c6c6572206973206e6f7420746f60448201527f6b656e206f776e6572206f7220617070726f76656420666f7220616c6c00000060648201526084016108f8565b6109998383612f41565b505050565b6109a6614a3f565b6109af82612faf565b6109f25760405162461bcd60e51b8152602060048201526014602482015273151bdad95b88191bd95cc81b9bdd08195e1a5cdd60621b60448201526064016108f8565b6000828152602660205260409081902081516107e08101909252805482908290610a1b90615800565b80601f0160208091040260200160405190810160405280929190818152602001828054610a4790615800565b8015610a945780601f10610a6957610100808354040283529160200191610a94565b820191906000526020600020905b815481529060010190602001808311610a7757829003601f168201915b50505091835250506001820154602080830191909152600283015460408301526003830154606083015260048301546080830152600583015460a0830152600683015460c0830152600783015460e08301526008830154610100808401919091526009840154610120840152600a840154610140840152600b840154610160840152600c840154610180840152600d8401546101a0840152600e8401546101c0840152600f8401546101e08401526010840154610200840152601184015461022084015260128401546102408401526013840154610260840152601484015461028084015260158401546102a084015260168401546102c084015260178401546102e084015260188401546103008401526019840154610320840152601a840154610340840152601b840154610360840152601c840154610380840152601d8401546103a0840152601e8401546103c0840152601f8401546103e084015290830154610400830152602183015461042083015260228301546104408301526023830154610460830152602483015461048083015260258301546104a083015260268301546104c083015260278301546104e083015260288301546105008301526029830154610520830152602a830154610540830152602b830154610560830152602c830154610580830152602d8301546105a0830152602e8301546105c0830152602f8301546105e08301526030830154610600830152603183015461062083015260328301546106408301526033830154610660830152603483015461068083015260358301546106a083015260369092015460ff80821615156106c0840152928104831615156106e0830152620100008104831615156107008301526301000000810483161515610720830152600160201b810483161515610740830152600160281b810483161515610760830152600160301b810483161515610780830152600160381b8104831615156107a0830152600160401b900490911615156107c09091015292915050565b6027546000908510610dd55760405162461bcd60e51b815260206004820152601960248201527f4974656d2061747472696275746573206e6f7420666f756e640000000000000060448201526064016108f8565b600060278681548110610dea57610dea61583a565b9060005260206000209060370201604051806107e0016040529081600082018054610e1490615800565b80601f0160208091040260200160405190810160405280929190818152602001828054610e4090615800565b8015610e8d5780601f10610e6257610100808354040283529160200191610e8d565b820191906000526020600020905b815481529060010190602001808311610e7057829003601f168201915b50505091835250506001820154602080830191909152600283015460408301526003830154606083015260048301546080830152600583015460a0830152600683015460c0830152600783015460e08301526008830154610100808401919091526009840154610120840152600a840154610140840152600b840154610160840152600c840154610180840152600d8401546101a0840152600e8401546101c0840152600f8401546101e08401526010840154610200840152601184015461022084015260128401546102408401526013840154610260840152601484015461028084015260158401546102a084015260168401546102c084015260178401546102e084015260188401546103008401526019840154610320840152601a840154610340840152601b840154610360840152601c840154610380840152601d8401546103a0840152601e8401546103c0840152601f8401546103e084015290830154610400830152602183015461042083015260228301546104408301526023830154610460830152602483015461048083015260258301546104a083015260268301546104c083015260278301546104e083015260288301546105008301526029830154610520830152602a830154610540830152602b830154610560830152602c830154610580830152602d8301546105a0830152602e8301546105c0830152602f8301546105e08301526030830154610600830152603183015461062083015260328301546106408301526033830154610660830152603483015461068083015260358301546106a083015260369092015460ff80821615156106c0840152928104831615156106e083015262010000810483161515610700830152630100000081048316151561072080840191909152600160201b820484161515610740840152600160281b820484161515610760840152600160301b820484161515610780840152600160381b8204841615156107a0840152600160401b90910490921615156107c0909101528101519091508061118c57508061074001515b80156111a25750600d546111a06032612fcc565b105b156111b05760016106c08201525b80610720015180156111cc5750600e546111ca6033612fcc565b105b156111da5760016106e08201525b806107200151806111ed57508061074001515b156112b557831561121d57611203846001615866565b61120d6035612fcc565b611217919061588f565b60408201525b82156112b5578061072001511561126e576112396004846158a3565b611244906001615866565b61124e6036612fcc565b611258919061588f565b6112639060046158b7565b6102608201526112b5565b806107400151156112b5576112846004846158a3565b61128f906001615866565b6112996036612fcc565b6112a3919061588f565b6112ae9060046158b7565b6102808201525b6112c3602880546001019055565b60006112ce60285490565b90506112da868261300f565b6112e48183613029565b60008181526026602052604080822060018101849055603581018a9055603281019290925543603390920191909155517ff4473e01e7e33eba564ae7f36b473379296cca33e825b2b99b10adfbf13d38969061135590839089909182526001600160a01b0316602082015260400190565b60405180910390a19150505b949350505050565b61137333826133dc565b61138f5760405162461bcd60e51b81526004016108f8906158ce565b61099983838361345a565b60006113a583611e69565b82106114075760405162461bcd60e51b815260206004820152602b60248201527f455243373231456e756d657261626c653a206f776e657220696e646578206f7560448201526a74206f6620626f756e647360a81b60648201526084016108f8565b506001600160a01b03919091166000908152600660209081526040808320938352929052205490565b600a548111156114775760405162461bcd60e51b815260206004820152601260248201527113585e081c1bda5b9d1cc81c995858da195960721b60448201526064016108f8565b6000828152602660205260409020603601546301000000900460ff16806114b65750600082815260266020526040902060360154600160201b900460ff165b6114f75760405162461bcd60e51b815260206004820152601260248201527113585e081c1bda5b9d1cc81c995858da195960721b60448201526064016108f8565b6000828152602660205260409020603601546301000000900460ff1615611531576000828152602660205260409020601301819055611567565b600082815260266020526040902060360154600160201b900460ff16156115675760008281526026602052604090206014018190555b600082815260266020526040902060138101546014909101547feb0459535a230602900381169fbc16d356c03aaccc2d5579b42d132d65ffa82a9184916115ae9190615866565b604080519283526020830191909152015b60405180910390a15050565b60008281526025602090815260409182902083518155908301516001820155818301516002820155606083015160038201556080830151600482015560a0830151600582015560c0830151600682015560e083015160078201556101008301516008820155610120830151600990910155517f6d62c88c377226267464112cb40b7f6f40d02a22f520078b3513085e828439f9906115bf908490849061591b565b61099983838360405180602001604052806000815250612afc565b602780546001810182556000918252825183916037027f98a476f1687bc3d60a2da2adbcba2c46958e61fa2fb4042cd7bc5816a710195b019081906116cc90826159e7565b5060208281015160018381019190915560408401516002840155606084015160038401556080840151600484015560a0840151600584015560c0840151600684015560e084015160078401556101008085015160088501556101208501516009850155610140850151600a850155610160850151600b850155610180850151600c8501556101a0850151600d8501556101c0850151600e8501556101e0850151600f850155610200850151601085015561022085015160118501556102408501516012850155610260850151601385015561028085015160148501556102a085015160158501556102c085015160168501556102e0850151601785015561030085015160188501556103208501516019850155610340850151601a850155610360850151601b850155610380850151601c8501556103a0850151601d8501556103c0850151601e8501556103e0850151601f8501556104008501519284019290925561042084015160218401556104408401516022840155610460840151602384015561048084015160248401556104a084015160258401556104c084015160268401556104e084015160278085019190915561050085015160288501556105208501516029850155610540850151602a850155610560850151602b850155610580850151602c8501556105a0850151602d8501556105c0850151602e8501556105e0850151602f850155610600850151603085015561062085015160318501556106408501516032850155610660850151603385015561068085015160348501556106a085015160358501556106c0850151603690940180546106e08701516107008801516107208901516107408a01516107608b01516107808c01516107a08d01516107c0909d015161ffff199097169b151561ff0019169b909b179415159099029390931763ffff00001916620100009215159290920263ff0000001916919091176301000000911515919091021765ffff000000001916600160201b9115159190910265ff0000000000191617600160281b951515959095029490941767ffff0000000000001916600160301b9515159590950260ff60381b191694909417600160381b951515959095029490941760ff60401b1916600160401b92151592909202919091179091559054600091611a2791615aa7565b90508060278281548110611a3d57611a3d61583a565b90600052602060002090603702016035018190555082610720015115611a875761068083015160009081526020808052604082208054600181018255908352912001819055611b28565b82610740015115611abe57610680830151600090815260216020908152604082208054600181018255908352912001819055611b28565b82610760015115611af557610680830151600090815260226020908152604082208054600181018255908352912001819055611b28565b82610780015115611b28576106808301516000908152602360209081526040822080546001810182559083529120018190555b82516040517f0538ce8dba67be446d1a480a6e48683b27c6efb61d7c01d60767e15705e5d00f91611b5b91849190615aba565b60405180910390a192915050565b6000611b7460085490565b8210611bd75760405162461bcd60e51b815260206004820152602c60248201527f455243373231456e756d657261626c653a20676c6f62616c20696e646578206f60448201526b7574206f6620626f756e647360a01b60648201526084016108f8565b60088281548110611bea57611bea61583a565b90600052602060002001549050919050565b60606000611c0984611e69565b905060008167ffffffffffffffff811115611c2657611c2661514a565b604051908082528060200260200182016040528015611c5f57816020015b611c4c614c17565b815260200190600190039081611c445790505b509050600080805b84811015611cfe57611c79888261139a565b600081815260266020526040902060320154909350879003611cde5760405180604001604052808481526020016026600086815260200190815260200160002060330154815250848381518110611cd257611cd261583a565b60200260200101819052505b81611ce881615ad3565b9250508080611cf690615ad3565b915050611c67565b50919695505050505050565b611d1381612faf565b611d555760405162461bcd60e51b8152602060048201526013602482015272151bdad95b88191bd95cdb89dd08195e1a5cdd606a1b60448201526064016108f8565b611d5e816135cb565b50565b602160205281600052604060002081815481106107b657600080fd5b6000818152600260205260408120546001600160a01b0316806107945760405162461bcd60e51b8152602060048201526018602482015277115490cdcc8c4e881a5b9d985b1a59081d1bdad95b88125160421b60448201526064016108f8565b611de5614a3f565b6027548210611e2c5760405162461bcd60e51b8152602060048201526013602482015272125d195b48191bd95cc81b9bdd08195e1a5cdd606a1b60448201526064016108f8565b60278281548110611e3f57611e3f61583a565b9060005260206000209060370201604051806107e0016040529081600082018054610a1b90615800565b60006001600160a01b038216611ed35760405162461bcd60e51b815260206004820152602960248201527f4552433732313a2061646472657373207a65726f206973206e6f7420612076616044820152683634b21037bbb732b960b91b60648201526084016108f8565b506001600160a01b031660009081526003602052604090205490565b601f6020526000908152604090208054611f0890615800565b80601f0160208091040260200160405190810160405280929190818152602001828054611f3490615800565b8015611f815780601f10611f5657610100808354040283529160200191611f81565b820191906000526020600020905b815481529060010190602001808311611f6457829003601f168201915b505050505081565b6000818152602460209081526040808320815161014081018352815481526001820154938101939093526002810154918301919091526003810154606083015260048101546080830152600581015460a0830152600681015460c0830152600781015460e083015260088101546101008301526009015461012082015281612011848361366e565b9050806020015160010361206957604080516000815260208101869052338183015290517f6c19ce272da370ef1b24da0ae99f009ddadfb2b0dcc05c604dab3b23aecae90f9181900360600190a15060009392505050565b612077602880546001019055565b600061208260285490565b905061208e338261300f565b6120988183613029565b6000818152602660209081526040808320600181018590556032810193909355436033909301929092558151838152908101879052338183015290517f6c19ce272da370ef1b24da0ae99f009ddadfb2b0dcc05c604dab3b23aecae90f9181900360600190a1949350505050565b602782815481106121195761211961583a565b906000526020600020906037020160360160089054906101000a900460ff1661218e5760405162461bcd60e51b815260206004820152602160248201527f4974656d206e6f7420696e2073686f70206f7220646f65736e277420657869736044820152601d60fa1b60648201526084016108f8565b61219c602880546001019055565b60006121a760285490565b90506121b3338261300f565b61255981602785815481106121ca576121ca61583a565b9060005260206000209060370201604051806107e00160405290816000820180546121f490615800565b80601f016020809104026020016040519081016040528092919081815260200182805461222090615800565b801561226d5780601f106122425761010080835404028352916020019161226d565b820191906000526020600020905b81548152906001019060200180831161225057829003601f168201915b50505091835250506001820154602080830191909152600283015460408301526003830154606083015260048301546080830152600583015460a0830152600683015460c0830152600783015460e08301526008830154610100808401919091526009840154610120840152600a840154610140840152600b840154610160840152600c840154610180840152600d8401546101a0840152600e8401546101c0840152600f8401546101e08401526010840154610200840152601184015461022084015260128401546102408401526013840154610260840152601484015461028084015260158401546102a084015260168401546102c084015260178401546102e084015260188401546103008401526019840154610320840152601a840154610340840152601b840154610360840152601c840154610380840152601d8401546103a0840152601e8401546103c0840152601f8401546103e084015290830154610400830152602183015461042083015260228301546104408301526023830154610460830152602483015461048083015260258301546104a083015260268301546104c083015260278301546104e083015260288301546105008301526029830154610520830152602a830154610540830152602b830154610560830152602c830154610580830152602d8301546105a0830152602e8301546105c0830152602f8301546105e08301526030830154610600830152603183015461062083015260328301546106408301526033830154610660830152603483015461068083015260358301546106a083015260369092015460ff80821615156106c0840152928104831615156106e0830152620100008104831615156107008301526301000000810483161515610720830152600160201b810483161515610740830152600160281b810483161515610760830152600160301b810483161515610780830152600160381b8104831615156107a0830152600160401b900490911615156107c090910152613029565b6000818152602660205260409081902060018101839055603581018590556032810184905543603382015590517f78cb587a56a0dc7913ec51993eb7f7bf182fca207bd1460930bc912747387edd916125b89184918791339190615aec565b60405180910390a1505050565b6060600180546107da90615800565b6125df338383613e3d565b5050565b6000828211156125f5576125f5615b95565b6125ff8284615aa7565b9392505050565b60008181526026602052604080822081516107e081019092528054839291908290829061263290615800565b80601f016020809104026020016040519081016040528092919081815260200182805461265e90615800565b80156126ab5780601f10612680576101008083540402835291602001916126ab565b820191906000526020600020905b81548152906001019060200180831161268e57829003601f168201915b50505050508152602001600182015481526020016002820154815260200160038201548152602001600482015481526020016005820154815260200160068201548152602001600782015481526020016008820154815260200160098201548152602001600a8201548152602001600b8201548152602001600c8201548152602001600d8201548152602001600e8201548152602001600f820154815260200160108201548152602001601182015481526020016012820154815260200160138201548152602001601482015481526020016015820154815260200160168201548152602001601782015481526020016018820154815260200160198201548152602001601a8201548152602001601b8201548152602001601c8201548152602001601d8201548152602001601e8201548152602001601f820154815260200160208201548152602001602182015481526020016022820154815260200160238201548152602001602482015481526020016025820154815260200160268201548152602001602782015481526020016028820154815260200160298201548152602001602a8201548152602001602b8201548152602001602c8201548152602001602d8201548152602001602e8201548152602001602f82015481526020016030820154815260200160318201548152602001603282015481526020016033820154815260200160348201548152602001603582015481526020016036820160009054906101000a900460ff161515151581526020016036820160019054906101000a900460ff161515151581526020016036820160029054906101000a900460ff161515151581526020016036820160039054906101000a900460ff161515151581526020016036820160049054906101000a900460ff161515151581526020016036820160059054906101000a900460ff161515151581526020016036820160069054906101000a900460ff161515151581526020016036820160079054906101000a900460ff161515151581526020016036820160089054906101000a900460ff161515151581525050905060006025600083610680015181526020019081526020016000206040518061014001604052908160008201548152602001600182015481526020016002820154815260200160038201548152602001600482015481526020016005820154815260200160068201548152602001600782015481526020016008820154815260200160098201548152505090506000612a588361068001518361366e565b9050612a68602880546001019055565b6000612a7360285490565b9050612a7f338261300f565b612a898183613029565b600081815260266020908152604080832060018101859055603281019390935543603390930192909255610680840151825184815291820152338183015290517fb2b43c3f90db38d60a8e06e9eaddfec66cf6d9fab4b3019b75d16e2ce34a5e489181900360600190a195945050505050565b612b0633836133dc565b612b225760405162461bcd60e51b81526004016108f8906158ce565b612b2e84848484613f0b565b50505050565b602360205281600052604060002081815481106107b657600080fd5b6060612b5b82612ef1565b6000612b7260408051602081019091526000815290565b90506000815111612b9257604051806020016040528060008152506125ff565b80612b9c84613f3e565b604051602001612bad929190615bab565b6040516020818303038152906040529392505050565b600082815260266020526040902060030154811115612c1d5760405162461bcd60e51b815260206004820152601660248201527513585e081a5d195b481b195d995b081c995858da195960521b60448201526064016108f8565b600082815260266020526040902060020154612c3a906001615866565b811115612c9e5760405162461bcd60e51b815260206004820152602c60248201527f4974656d2063616e2062652075706772616465206f6e65206c6576656c20617460448201526b20612074696d65206f6e6c7960a01b60648201526084016108f8565b60008281526026602090815260409182902060020183905581518481529081018390527f535fb4315d70f1b2d62609c85f8b9cd714e3687d6cee1a46ff7947f852bf716491016115bf565b60606000612cf683611e69565b905060008167ffffffffffffffff811115612d1357612d1361514a565b604051908082528060200260200182016040528015612d3c578160200160208202803683370190505b50905060005b82811015612d8357612d54858261139a565b828281518110612d6657612d6661583a565b602090810291909101015280612d7b81615ad3565b915050612d42565b509392505050565b600080612d9883856158b7565b9050831580612daf575082612dad85836158a3565b145b6125ff576125ff615b95565b600080612dc88385615866565b9050838110158015612daf5750828110156125ff576125ff615b95565b60008281526024602090815260409182902083518155908301516001820155818301516002820155606083015160038201556080830151600482015560a0830151600582015560c0830151600682015560e083015160078201556101008301516008820155610120830151600990910155517f77f2c225a36d18b8e29b84835b3b183235b39e29b7525283d2b2f064df242d5a906115bf908490849061591b565b6020805281600052604060002081815481106107b657600080fd5b60006001600160e01b031982166380ac58cd60e01b1480612ed257506001600160e01b03198216635b5e139f60e01b145b8061079457506301ffc9a760e01b6001600160e01b0319831614610794565b612efa81612faf565b611d5e5760405162461bcd60e51b8152602060048201526018602482015277115490cdcc8c4e881a5b9d985b1a59081d1bdad95b88125160421b60448201526064016108f8565b600081815260046020526040902080546001600160a01b0319166001600160a01b0384169081179091558190612f7682611d7d565b6001600160a01b03167f8c5be1e5ebec7d5bd14f71427d1e84f3dd0314c0f7b2291e5b200ac8c7c3b92560405160405180910390a45050565b6000908152600260205260409020546001600160a01b0316151590565b60408051446020820152908101829052436060820152600090819060800160408051601f19818403018152919052805160209091012090506125ff60648261588f565b6125df828260405180602001604052806000815250613fd1565b61303282612faf565b6130755760405162461bcd60e51b8152602060048201526014602482015273151bdad95b88191bd95cc81b9bdd08195e1a5cdd60621b60448201526064016108f8565b60008281526026602052604090208151829190819061309490826159e7565b50602082810151600183015560408301516002830155606083015160038301556080830151600483015560a0830151600583015560c0830151600683015560e083015160078301556101008084015160088401556101208401516009840155610140840151600a840155610160840151600b840155610180840151600c8401556101a0840151600d8401556101c0840151600e8401556101e0840151600f840155610200840151601084015561022084015160118401556102408401516012840155610260840151601384015561028084015160148401556102a084015160158401556102c084015160168401556102e0840151601784015561030084015160188401556103208401516019840155610340840151601a840155610360840151601b840155610380840151601c8401556103a0840151601d8401556103c0840151601e8401556103e0840151601f8401556104008401519183019190915561042083015160218301556104408301516022830155610460830151602383015561048083015160248301556104a083015160258301556104c083015160268301556104e0830151602783015561050083015160288301556105208301516029830155610540830151602a830155610560830151602b830155610580830151602c8301556105a0830151602d8301556105c0830151602e8301556105e0830151602f830155610600830151603083015561062083015160318301556106408301516032830155610660830151603383015561068083015160348301556106a083015160358301556106c0830151603690920180546106e08501516107008601516107208701516107408801516107608901516107808a01516107a08b01516107c0909b015161ffff1990971699151561ff001916999099179415159097029390931763ffff00001916620100009215159290920263ff0000001916919091176301000000911515919091021765ffff000000001916600160201b9115159190910265ff0000000000191617600160281b931515939093029290921767ffff0000000000001916600160301b9315159390930260ff60381b191692909217600160381b931515939093029290921760ff60401b1916600160401b921515929092029190911790555050565b6000806133e883611d7d565b9050806001600160a01b0316846001600160a01b0316148061342f57506001600160a01b0380821660009081526005602090815260408083209388168352929052205460ff165b806113615750836001600160a01b03166134488461085d565b6001600160a01b031614949350505050565b826001600160a01b031661346d82611d7d565b6001600160a01b0316146134935760405162461bcd60e51b81526004016108f890615bda565b6001600160a01b0382166134f55760405162461bcd60e51b8152602060048201526024808201527f4552433732313a207472616e7366657220746f20746865207a65726f206164646044820152637265737360e01b60648201526084016108f8565b6135028383836001614004565b826001600160a01b031661351582611d7d565b6001600160a01b03161461353b5760405162461bcd60e51b81526004016108f890615bda565b600081815260046020908152604080832080546001600160a01b03199081169091556001600160a01b0387811680865260038552838620805460001901905590871680865283862080546001019055868652600290945282852080549092168417909155905184937fddf252ad1be2c89b69c2b068fc378daa952ba7f163c4a11628f55a4df523b3ef91a4505050565b60006135d682611d7d565b90506135e6816000846001614004565b6135ef82611d7d565b600083815260046020908152604080832080546001600160a01b03199081169091556001600160a01b0385168085526003845282852080546000190190558785526002909352818420805490911690555192935084927fddf252ad1be2c89b69c2b068fc378daa952ba7f163c4a11628f55a4df523b3ef908390a45050565b613676614a3f565b60006136826000612fcc565b90506000836000015182116136f7576000858152602080805260409182902080548351818402810184019094528084526136f093928301828280156136e657602002820191906000526020600020905b8154815260200190600101908083116136d2575b5050505050614138565b90506138b7565b61370984600001518560200151612dbb565b82101561376f5760008581526021602090815260409182902080548351818402810184019094528084526136f093928301828280156136e657602002820191906000526020600020908154815260200190600101908083116136d2575050505050614138565b613789846000015161070886602001518760400151612dbb565b8210156137ef5760008581526022602090815260409182902080548351818402810184019094528084526136f093928301828280156136e657602002820191906000526020600020908154815260200190600101908083116136d2575050505050614138565b6138118460000151610708866020015161070888604001518960600151612dbb565b8210156138775760008581526023602090815260409182902080548351818402810184019094528084526136f093928301828280156136e657602002820191906000526020600020908154815260200190600101908083116136d2575050505050614138565b6138a18460000151610708866020015161070888604001516107088a606001518b60800151612dbb565b8210156138b3575060c08301516138b7565b5060005b6000602782815481106138cc576138cc61583a565b9060005260206000209060370201604051806107e00160405290816000820180546138f690615800565b80601f016020809104026020016040519081016040528092919081815260200182805461392290615800565b801561396f5780601f106139445761010080835404028352916020019161396f565b820191906000526020600020905b81548152906001019060200180831161395257829003601f168201915b50505091835250506001820154602080830191909152600283015460408301526003830154606083015260048301546080830152600583015460a0830152600683015460c0830152600783015460e08301526008830154610100808401919091526009840154610120840152600a840154610140840152600b840154610160840152600c840154610180840152600d8401546101a0840152600e8401546101c0840152600f8401546101e08401526010840154610200840152601184015461022084015260128401546102408401526013840154610260840152601484015461028084015260158401546102a084015260168401546102c084015260178401546102e084015260188401546103008401526019840154610320840152601a840154610340840152601b840154610360840152601c840154610380840152601d8401546103a0840152601e8401546103c0840152601f8401546103e084015290830154610400830152602183015461042083015260228301546104408301526023830154610460830152602483015461048083015260258301546104a083015260268301546104c083015260278301546104e083015260288301546105008301526029830154610520830152602a830154610540830152602b830154610560830152602c830154610580830152602d8301546105a0830152602e8301546105c0830152602f8301546105e08301526030830154610600830152603183015461062083015260328301546106408301526033830154610660830152603483015461068083015260358301546106a08084019190915260369093015460ff80821615156106c0850152918104821615156106e0840152620100008104821615156107008401526301000000810482161515610720840152600160201b810482161515610740840152600160281b81048216151561076080850191909152600160301b820483161515610780850152600160381b8204831615156107a0850152600160401b90910490911615156107c090920191909152908201849052810151909150158015613c7e5750806107800151155b8015613c8d5750806107000151155b8015613ca45750600d54613ca16001612fcc565b11155b15613cb25760016106c08201525b8061072001518015613ccf5750600e54613ccc6002612fcc565b11155b15613cdd5760016106e08201525b80610700015115613cf45760408101869052613df7565b806107800151158015613d0a5750806107600151155b15613df7578460e00151856101000151613d249190615aa7565b613d2f906001615866565b613d396004612fcc565b613d43919061588f565b8560e00151613d529190615866565b604082015261072081015115613da9576004856101200151613d7491906158a3565b613d7f906001615866565b613d896005612fcc565b613d93919061588f565b613d9e9060046158b7565b610260820152613df7565b80610740015115613df7576004856101200151613dc691906158a3565b613dd1906001615866565b613ddb6005612fcc565b613de5919061588f565b613df09060046158b7565b6102808201525b80610720015180613e0a57508061074001515b8015613e2357508460a00151613e206003612fcc565b11155b15613e3457613e3181614175565b90505b95945050505050565b816001600160a01b0316836001600160a01b031603613e9e5760405162461bcd60e51b815260206004820152601960248201527f4552433732313a20617070726f766520746f2063616c6c65720000000000000060448201526064016108f8565b6001600160a01b03838116600081815260056020908152604080832094871680845294825291829020805460ff191686151590811790915591519182527f17307eab39ab6107e8899845ad3d59bd9653f200f220920489ca2b5937696c31910160405180910390a3505050565b613f1684848461345a565b613f22848484846141ff565b612b2e5760405162461bcd60e51b81526004016108f890615c1f565b60606000613f4b836142fd565b600101905060008167ffffffffffffffff811115613f6b57613f6b61514a565b6040519080825280601f01601f191660200182016040528015613f95576020820181803683370190505b5090508181016020015b600019016f181899199a1a9b1b9c1cb0b131b232b360811b600a86061a8153600a8504945084613f9f57509392505050565b613fdb83836143d5565b613fe860008484846141ff565b6109995760405162461bcd60e51b81526004016108f890615c1f565b60018111156140735760405162461bcd60e51b815260206004820152603560248201527f455243373231456e756d657261626c653a20636f6e7365637574697665207472604482015274185b9cd9995c9cc81b9bdd081cdd5c1c1bdc9d1959605a1b60648201526084016108f8565b816001600160a01b0385166140cf576140ca81600880546000838152600960205260408120829055600182018355919091527ff3f7a9fe364faab93b216da50a3214154f22a0a2b415b23a84c8169e8b636ee30155565b6140f2565b836001600160a01b0316856001600160a01b0316146140f2576140f28582614550565b6001600160a01b03841661410e57614109816145ed565b614131565b846001600160a01b0316846001600160a01b03161461413157614131848261469c565b5050505050565b60008061414443612fcc565b835190915083614154828461588f565b815181106141645761416461583a565b602002602001015192505050919050565b61417d614a3f565b60006040830152610720820151156141c95760016106e08301526141a282600b6146e0565b6014549092506141b2600c612fcc565b116141c5576141c282600d6146e0565b91505b5090565b816107400151156141c5576141df82600e6147fa565b601d549092506141ef600f612fcc565b116141c5576141c28260106147fa565b60006001600160a01b0384163b156142f557604051630a85bd0160e11b81526001600160a01b0385169063150b7a0290614243903390899088908890600401615c71565b6020604051808303816000875af192505050801561427e575060408051601f3d908101601f1916820190925261427b91810190615cae565b60015b6142db573d8080156142ac576040519150601f19603f3d011682016040523d82523d6000602084013e6142b1565b606091505b5080516000036142d35760405162461bcd60e51b81526004016108f890615c1f565b805181602001fd5b6001600160e01b031916630a85bd0160e11b149050611361565b506001611361565b60008072184f03e93ff9f4daa797ed6e38ed64bf6a1f0160401b831061433c5772184f03e93ff9f4daa797ed6e38ed64bf6a1f0160401b830492506040015b6d04ee2d6d415b85acef81000000008310614368576d04ee2d6d415b85acef8100000000830492506020015b662386f26fc10000831061438657662386f26fc10000830492506010015b6305f5e100831061439e576305f5e100830492506008015b61271083106143b257612710830492506004015b606483106143c4576064830492506002015b600a83106107945760010192915050565b6001600160a01b03821661442b5760405162461bcd60e51b815260206004820181905260248201527f4552433732313a206d696e7420746f20746865207a65726f206164647265737360448201526064016108f8565b61443481612faf565b156144815760405162461bcd60e51b815260206004820152601c60248201527f4552433732313a20746f6b656e20616c7265616479206d696e7465640000000060448201526064016108f8565b61448f600083836001614004565b61449881612faf565b156144e55760405162461bcd60e51b815260206004820152601c60248201527f4552433732313a20746f6b656e20616c7265616479206d696e7465640000000060448201526064016108f8565b6001600160a01b038216600081815260036020908152604080832080546001019055848352600290915280822080546001600160a01b0319168417905551839291907fddf252ad1be2c89b69c2b068fc378daa952ba7f163c4a11628f55a4df523b3ef908290a45050565b6000600161455d84611e69565b6145679190615aa7565b6000838152600760205260409020549091508082146145ba576001600160a01b03841660009081526006602090815260408083208584528252808320548484528184208190558352600790915290208190555b5060009182526007602090815260408084208490556001600160a01b039094168352600681528383209183525290812055565b6008546000906145ff90600190615aa7565b600083815260096020526040812054600880549394509092849081106146275761462761583a565b9060005260206000200154905080600883815481106146485761464861583a565b600091825260208083209091019290925582815260099091526040808220849055858252812055600880548061468057614680615ccb565b6001900381819060005260206000200160009055905550505050565b60006146a783611e69565b6001600160a01b039093166000908152600660209081526040808320868452825280832085905593825260079052919091209190915550565b6146e8614a3f565b60006146f383612fcc565b601354601254601154601054600f549495506000946147129190615866565b61471c9190615866565b6147269190615866565b6147309190615866565b9050600061473e828461588f565b600f5490915081116147575760016103008701526147f0565b601054600f546147679190615866565b811161477a5760016103208701526147f0565b601154601054600f5461478d9190615866565b6147979190615866565b81116147aa5760016103808701526147f0565b601254601154601054600f546147c09190615866565b6147ca9190615866565b6147d49190615866565b81116147e75760016106208701526147f0565b60016102c08701525b5093949350505050565b614802614a3f565b600061480d83612fcc565b601c54601b54601a546019546018546017546016546015549798506000976148359190615866565b61483f9190615866565b6148499190615866565b6148539190615866565b61485d9190615866565b6148679190615866565b6148719190615866565b9050600061487f828461588f565b60155490915081116148985760016102e08701526147f0565b6016546015546148a89190615866565b81116148bb5760016103408701526147f0565b6017546016546015546148ce9190615866565b6148d89190615866565b81116148eb5760016103c08701526147f0565b6018546017546016546015546149019190615866565b61490b9190615866565b6149159190615866565b81116149285760016103e08701526147f0565b6019546018546017546016546015546149419190615866565b61494b9190615866565b6149559190615866565b61495f9190615866565b81116149725760016104008701526147f0565b601a5460195460185460175460165460155461498e9190615866565b6149989190615866565b6149a29190615866565b6149ac9190615866565b6149b69190615866565b81116149c95760016105008701526147f0565b601b54601a546019546018546017546016546015546149e89190615866565b6149f29190615866565b6149fc9190615866565b614a069190615866565b614a109190615866565b614a1a9190615866565b8111614a2d5760016105208701526147f0565b505060016104e0850152509192915050565b604051806107e001604052806060815260200160008152602001600081526020016000815260200160008152602001600081526020016000815260200160008152602001600081526020016000815260200160008152602001600081526020016000815260200160008152602001600081526020016000815260200160008152602001600081526020016000815260200160008152602001600081526020016000815260200160008152602001600081526020016000815260200160008152602001600081526020016000815260200160008152602001600081526020016000815260200160008152602001600081526020016000815260200160008152602001600081526020016000815260200160008152602001600081526020016000815260200160008152602001600081526020016000815260200160008152602001600081526020016000815260200160008152602001600081526020016000815260200160008152602001600081526020016000815260200160008152602001600081526020016000151581526020016000151581526020016000151581526020016000151581526020016000151581526020016000151581526020016000151581526020016000151581526020016000151581525090565b60405180604001604052806002906020820280368337509192915050565b6001600160e01b031981168114611d5e57600080fd5b600060208284031215614c5d57600080fd5b81356125ff81614c35565b600060208284031215614c7a57600080fd5b5035919050565b60008060408385031215614c9457600080fd5b50508035926020909101359150565b60005b83811015614cbe578181015183820152602001614ca6565b50506000910152565b60008151808452614cdf816020860160208601614ca3565b601f01601f19169290920160200192915050565b6020815260006125ff6020830184614cc7565b80356001600160a01b0381168114614d1d57600080fd5b919050565b60008060408385031215614d3557600080fd5b614d3e83614d06565b946020939093013593505050565b60208152600082516107e0806020850152614d6b610800850183614cc7565b602086015160408681019190915286015160608087019190915286015160808087019190915286015160a08087019190915286015160c08087019190915286015160e08087019190915286015161010080870191909152860151610120808701919091528601516101408087019190915286015161016080870191909152860151610180808701919091528601516101a0808701919091528601516101c0808701919091528601516101e08087019190915286015161020080870191909152860151610220808701919091528601516102408087019190915286015161026080870191909152860151610280808701919091528601516102a0808701919091528601516102c0808701919091528601516102e08087019190915286015161030080870191909152860151610320808701919091528601516103408087019190915286015161036080870191909152860151610380808701919091528601516103a0808701919091528601516103c0808701919091528601516103e08087019190915286015161040080870191909152860151610420808701919091528601516104408087019190915286015161046080870191909152860151610480808701919091528601516104a0808701919091528601516104c0808701919091528601516104e08087019190915286015161050080870191909152860151610520808701919091528601516105408087019190915286015161056080870191909152860151610580808701919091528601516105a0808701919091528601516105c0808701919091528601516105e08087019190915286015161060080870191909152860151610620808701919091528601516106408087019190915286015161066080870191909152860151610680808701919091528601516106a0808701919091528601516106c0808701919091528601519092506106e061502e8187018315159052565b86015190506107006150438682018315159052565b86015190506107206150588682018315159052565b860151905061074061506d8682018315159052565b86015190506107606150828682018315159052565b86015190506107806150978682018315159052565b86015190506107a06150ac8682018315159052565b86015190506107c06150c18682018315159052565b90950151151593019290925250919050565b600080600080608085870312156150e957600080fd5b843593506150f960208601614d06565b93969395505050506040820135916060013590565b60008060006060848603121561512357600080fd5b61512c84614d06565b925061513a60208501614d06565b9150604084013590509250925092565b634e487b7160e01b600052604160045260246000fd5b604051610140810167ffffffffffffffff811182821017156151845761518461514a565b60405290565b6040516107e0810167ffffffffffffffff811182821017156151845761518461514a565b6000808284036101608112156151c357600080fd5b8335925061014080601f19830112156151db57600080fd5b6151e3615160565b91506020850135825260408501356020830152606085013560408301526080850135606083015260a0850135608083015260c085013560a083015260e085013560c08301526101008086013560e084015261012080870135828501528287013581850152505050809150509250929050565b600067ffffffffffffffff808411156152705761527061514a565b604051601f8501601f19908116603f011681019082821181831017156152985761529861514a565b816040528093508581528686860111156152b157600080fd5b858560208301376000602087830101525050509392505050565b600082601f8301126152dc57600080fd5b6125ff83833560208501615255565b80358015158114614d1d57600080fd5b60006020828403121561530d57600080fd5b813567ffffffffffffffff8082111561532557600080fd5b908301906107e0828603121561533a57600080fd5b61534261518a565b82358281111561535157600080fd5b61535d878286016152cb565b8252506020838101359082015260408084013590820152606080840135908201526080808401359082015260a0808401359082015260c0808401359082015260e08084013590820152610100808401359082015261012080840135908201526101408084013590820152610160808401359082015261018080840135908201526101a080840135908201526101c080840135908201526101e08084013590820152610200808401359082015261022080840135908201526102408084013590820152610260808401359082015261028080840135908201526102a080840135908201526102c080840135908201526102e08084013590820152610300808401359082015261032080840135908201526103408084013590820152610360808401359082015261038080840135908201526103a080840135908201526103c080840135908201526103e08084013590820152610400808401359082015261042080840135908201526104408084013590820152610460808401359082015261048080840135908201526104a080840135908201526104c080840135908201526104e08084013590820152610500808401359082015261052080840135908201526105408084013590820152610560808401359082015261058080840135908201526105a080840135908201526105c080840135908201526105e08084013590820152610600808401359082015261062080840135908201526106408084013590820152610660808401359082015261068080840135908201526106a080840135908201526106c091506155b08284016152eb565b828201526106e091506155c48284016152eb565b8282015261070091506155d88284016152eb565b8282015261072091506155ec8284016152eb565b8282015261074091506156008284016152eb565b8282015261076091506156148284016152eb565b8282015261078091506156288284016152eb565b828201526107a0915061563c8284016152eb565b828201526107c091506156508284016152eb565b91810191909152949350505050565b60208082528251828201819052600091906040908185019086840185805b838110156156ba57825185835b60028110156156a75782518252918901919089019060010161568a565b505050938501939186019160010161567d565b509298975050505050505050565b6000602082840312156156da57600080fd5b6125ff82614d06565b600080604083850312156156f657600080fd5b6156ff83614d06565b915061570d602084016152eb565b90509250929050565b6000806000806080858703121561572c57600080fd5b61573585614d06565b935061574360208601614d06565b925060408501359150606085013567ffffffffffffffff81111561576657600080fd5b8501601f8101871361577757600080fd5b61578687823560208401615255565b91505092959194509250565b6020808252825182820181905260009190848201906040850190845b818110156157ca578351835292840192918401916001016157ae565b50909695505050505050565b600080604083850312156157e957600080fd5b6157f283614d06565b915061570d60208401614d06565b600181811c9082168061581457607f821691505b60208210810361583457634e487b7160e01b600052602260045260246000fd5b50919050565b634e487b7160e01b600052603260045260246000fd5b634e487b7160e01b600052601160045260246000fd5b8082018082111561079457610794615850565b634e487b7160e01b600052601260045260246000fd5b60008261589e5761589e615879565b500690565b6000826158b2576158b2615879565b500490565b808202811582820484141761079457610794615850565b6020808252602d908201527f4552433732313a2063616c6c6572206973206e6f7420746f6b656e206f776e6560408201526c1c881bdc88185c1c1c9bdd9959609a1b606082015260800190565b60006101608201905083825282516020830152602083015160408301526040830151606083015260608301516080830152608083015160a083015260a083015160c083015260c083015160e083015260e083015161010081818501528085015191505061012081818501528085015161014085015250509392505050565b601f82111561099957600081815260208120601f850160051c810160208610156159c05750805b601f850160051c820191505b818110156159df578281556001016159cc565b505050505050565b815167ffffffffffffffff811115615a0157615a0161514a565b615a1581615a0f8454615800565b84615999565b602080601f831160018114615a4a5760008415615a325750858301515b600019600386901b1c1916600185901b1785556159df565b600085815260208120601f198616915b82811015615a7957888601518255948401946001909101908401615a5a565b5085821015615a975787850151600019600388901b60f8161c191681555b5050505050600190811b01905550565b8181038181111561079457610794615850565b8281526040602082015260006113616040830184614cc7565b600060018201615ae557615ae5615850565b5060010190565b84815260006020858184015260018060a01b03851660408401526080606084015260008454615b1a81615800565b80608087015260a0600180841660008114615b3c5760018114615b5657615b84565b60ff1985168984015283151560051b890183019550615b84565b896000528660002060005b85811015615b7c5781548b8201860152908301908801615b61565b8a0184019650505b50939b9a5050505050505050505050565b634e487b7160e01b600052600160045260246000fd5b60008351615bbd818460208801614ca3565b835190830190615bd1818360208801614ca3565b01949350505050565b60208082526025908201527f4552433732313a207472616e736665722066726f6d20696e636f72726563742060408201526437bbb732b960d91b606082015260800190565b60208082526032908201527f4552433732313a207472616e7366657220746f206e6f6e20455243373231526560408201527131b2b4bb32b91034b6b83632b6b2b73a32b960711b606082015260800190565b6001600160a01b0385811682528416602082015260408101839052608060608201819052600090615ca490830184614cc7565b9695505050505050565b600060208284031215615cc057600080fd5b81516125ff81614c35565b634e487b7160e01b600052603160045260246000fdfea2646970667358221220d06f335123d2e8f43c61bc9daae8ae83ff2469f1b76dd12e1080e4f095fef1f564736f6c63430008130033",
  "immutableReferences": {},
  "source": "// SPDX-License-Identifier: MIT\npragma solidity ^0.8.0;\n\nimport \"@openzeppelin/contracts/token/ERC721/ERC721.sol\";\nimport \"@openzeppelin/contracts/token/ERC721/extensions/ERC721Enumerable.sol\";\nimport \"@openzeppelin/contracts/utils/Counters.sol\";\n\nimport \"truffle/Console.sol\";\nimport \"./ExcellentItems.sol\";\nimport \"./ItemsHelper.sol\";\n\ncontract Items is ERC721Enumerable, ExcellentItems {\n    using Counters for Counters.Counter;\n\n    address public owner;\n\n    mapping (uint256 => string) public itemName;\n\n    mapping (uint256 => uint256[]) public Weapons; // mapping of rarityLevel => tokenId[]\n    mapping (uint256 => uint256[]) public Armours; // mapping of rarityLevel => tokenId[]\n    mapping (uint256 => uint256[]) public Jewels; // mapping of rarityLevel => tokenId[]\n    mapping (uint256 => uint256[]) public Misc; // mapping of rarityLevel => tokenId[]\n\n    struct DropParams {\n        uint weaponsDropRate;\n        uint armoursDropRate;\n        uint jewelsDropRate;\n        uint miscDropRate;\n        uint boxDropRate;\n\n        uint excDropRate;\n        uint boxId;\n\n        uint minItemLevel;\n        uint maxItemLevel;\n        uint maxAddPoints;\n    }\n\n    mapping (uint256 => DropParams) public DropParamsList; // mapping of rarityLevels to drop parameters\n    mapping (uint256 => DropParams) public BoxDropPramsList; // mapping of rarityLevels to drop parameters\n\n    event ItemGenerated(uint256 itemId, string name);\n    event LogError(uint8, uint256);\n    event DropParametersChange(uint256 rarityLevel, DropParams params);\n    event BoxDropParametersChange(uint256 rarityLevel, DropParams params);\n    event ItemDropped(uint256 tokenId, uint256 rarityLevel, address owner);\n    event ItemCrafted(uint256 tokenId, address owner);\n    event BoxOppened(uint256 tokenId, uint256 rarityLevel, address owner);\n    event ItemBoughtFromShop(uint256 tokenId, uint256 itemId, address owner, string itemName);\n\n    event ItemLevelUpgrade(uint256 tokenId, uint256 newLevel);\n    event ItemAddPointsUpdate(uint256 tokenId, uint256 newAddPoints);\n\n    function setAdditionalPoints(uint256 tokenId, uint256 points) external {\n        require(points <= maxAdditionalPoints, \"Max points reached\");\n        require(_tokenAttributes[tokenId].isWeapon || _tokenAttributes[tokenId].isArmour, \"Max points reached\");\n        if (_tokenAttributes[tokenId].isWeapon) {\n            _tokenAttributes[tokenId].additionalDamage = points;\n        } else if (_tokenAttributes[tokenId].isArmour) { \n            _tokenAttributes[tokenId].additionalDefense = points;\n        } \n\n        emit ItemAddPointsUpdate(tokenId, _tokenAttributes[tokenId].additionalDefense + _tokenAttributes[tokenId].additionalDamage);\n    }\n\n    function setItemLevel(uint256 tokenId, uint256 level)  external {\n        require(level <= _tokenAttributes[tokenId].maxLevel, \"Max item level reached\");\n        require(level <= _tokenAttributes[tokenId].itemLevel+1, \"Item can be upgrade one level at a time only\");\n\n        _tokenAttributes[tokenId].itemLevel = level;\n        emit ItemLevelUpgrade(tokenId, _tokenAttributes[tokenId].itemLevel);  \n    }\n\n    function burnItem(uint256 itemId) external {\n        require(_exists(itemId), \"Token doesn't exist\");\n        _burn(itemId);\n    }\n\n    function openBox(uint256 tokenId) external returns (uint256) {\n        ItemAttributes memory box = _tokenAttributes[tokenId];\n        DropParams memory params = BoxDropPramsList[box.itemRarityLevel];\n\n        ItemAttributes memory droppedItem = getDropItem(box.itemRarityLevel, params);\n\n        _tokenIdCounter.increment();\n        uint256 newTokenId = _tokenIdCounter.current();\n        _safeMint(msg.sender, newTokenId);\n        _setTokenAttributes(newTokenId, droppedItem);\n\n        _tokenAttributes[newTokenId].tokenId = newTokenId;      \n        _tokenAttributes[newTokenId].fighterId = 0;      \n        _tokenAttributes[newTokenId].lastUpdBlock = block.number; \n\n        emit BoxOppened(newTokenId, droppedItem.itemRarityLevel, msg.sender);\n\n        return newTokenId;\n    }\n\n    \n\n    function setDropParams(uint256 rarityLevel, DropParams memory params) external {\n        DropParamsList[rarityLevel] = params;\n        emit DropParametersChange(rarityLevel, params);\n    }\n\n    function setBoxDropParams(uint256 rarityLevel, DropParams memory params) external {\n        BoxDropPramsList[rarityLevel] = params;\n        emit BoxDropParametersChange(rarityLevel, params);\n    }\n\n    function createItem(ItemAttributes memory atts) external returns (uint256 tokenId) {                \n        _itemAttributes.push(atts);   \n         uint256 itemId = _itemAttributes.length - 1;   \n         _itemAttributes[itemId].itemAttributesId = itemId;\n\n         if (atts.isWeapon) {\n             Weapons[atts.itemRarityLevel].push(itemId);\n         } else if (atts.isArmour) {\n             Armours[atts.itemRarityLevel].push(itemId);\n         } else if (atts.isJewel) {\n             Jewels[atts.itemRarityLevel].push(itemId);\n         } else if (atts.isMisc) {\n             Misc[atts.itemRarityLevel].push(itemId);\n         } \n\n        emit ItemGenerated(itemId, atts.name);\n        return itemId;\n    }\n\n    function getDropItem(uint256 rarityLevel, DropParams memory params) internal returns (ItemAttributes memory) {\n\n        uint256 randomNumber = getRandomNumber(0);\n        uint256 randomItem;\n        \n\n        if (randomNumber <= params.weaponsDropRate) {\n            randomItem =  returnRandomItemFromDropList(Weapons[rarityLevel]);\n        } else if (randomNumber < safeAdd(params.weaponsDropRate, params.armoursDropRate)) {\n            randomItem =  returnRandomItemFromDropList(Armours[rarityLevel]);\n        } else if (randomNumber < safeAdd(params.weaponsDropRate, safeAdd(params.armoursDropRate, params.jewelsDropRate))) {\n            randomItem =  returnRandomItemFromDropList(Jewels[rarityLevel]);\n        } else if (randomNumber < safeAdd(params.weaponsDropRate, safeAdd(params.armoursDropRate, safeAdd(params.jewelsDropRate, params.miscDropRate)))) {\n            randomItem =  returnRandomItemFromDropList(Misc[rarityLevel]);\n        } else if (randomNumber < safeAdd(params.weaponsDropRate, safeAdd(params.armoursDropRate, safeAdd(params.jewelsDropRate, safeAdd(params.miscDropRate, params.boxDropRate))))) {\n            randomItem =  params.boxId;\n        } else {\n            randomItem = 0;\n        }\n\n\n        ItemAttributes memory itemAtts = _itemAttributes[randomItem];\n        itemAtts.itemAttributesId = randomItem;\n\n\n        if (!itemAtts.isJewel && !itemAtts.isMisc && !itemAtts.isBox && getRandomNumber(1) <= luckDropRate) {\n            itemAtts.luck  = true;\n        }\n\n        if (itemAtts.isWeapon && getRandomNumber(2) <= skillDropRate) {\n            itemAtts.skill  = true;\n        }\n\n        if (itemAtts.isBox) {\n            itemAtts.itemLevel = rarityLevel;\n        } else if (!itemAtts.isMisc && !itemAtts.isJewel) {\n            itemAtts.itemLevel = params.minItemLevel + getRandomNumber(4) % (params.maxItemLevel-params.minItemLevel+1);\n\n            if (itemAtts.isWeapon) {\n                itemAtts.additionalDamage = 4 * (getRandomNumber(5) % (params.maxAddPoints/4+1));\n            } else if (itemAtts.isArmour) {\n                itemAtts.additionalDefense = 4 * (getRandomNumber(5) % (params.maxAddPoints/4+1));\n            }\n        }\n\n        if ((itemAtts.isWeapon || itemAtts.isArmour) && getRandomNumber(3) <= params.excDropRate) {\n            itemAtts = addExcelentOption(itemAtts);\n        }\n\n        return itemAtts;  \n    }\n\n    function dropItem(uint256 rarityLevel) external returns (uint256) {\n        DropParams memory params = DropParamsList[rarityLevel];\n\n        ItemAttributes memory itemAtts = getDropItem(rarityLevel, params);\n\n        if (itemAtts.tokenId == 1) {\n            emit ItemDropped(0, rarityLevel, msg.sender);\n            return 0;\n        }\n\n        _tokenIdCounter.increment();\n        uint256 newTokenId = _tokenIdCounter.current();\n        _safeMint(msg.sender, newTokenId);\n        _setTokenAttributes(newTokenId, itemAtts);\n\n        _tokenAttributes[newTokenId].tokenId = newTokenId;      \n        _tokenAttributes[newTokenId].fighterId = 0;      \n        _tokenAttributes[newTokenId].lastUpdBlock = block.number; \n\n        emit ItemDropped(newTokenId, rarityLevel, msg.sender);\n\n        return newTokenId;\n    }\n\n    function craftItem(uint256 itemId, address itemOwner, uint256 maxLevel, uint256 maxAddPoints) public returns (uint256) {\n        require(_itemAttributes.length > itemId, \"Item attributes not found\");\n        ItemAttributes memory itemAtts = _itemAttributes[itemId];\n\n        if ((itemAtts.isWeapon || itemAtts.isArmour) && getRandomNumber(50) < luckDropRate)\n        {\n            itemAtts.luck = true;\n\n        }\n\n        if (itemAtts.isWeapon && getRandomNumber(51) < skillDropRate)\n        {\n            itemAtts.skill = true;\n        }\n\n        if (itemAtts.isWeapon || itemAtts.isArmour)\n        {\n            if (maxLevel > 0)\n            {\n                itemAtts.itemLevel = getRandomNumber(53) % (maxLevel + 1);\n            }\n\n            if (maxAddPoints > 0)\n            {\n                if (itemAtts.isWeapon) {\n                    itemAtts.additionalDamage = (getRandomNumber(54) % (maxAddPoints/4 + 1)) * 4;\n                } else if (itemAtts.isArmour) {\n                    itemAtts.additionalDefense = (getRandomNumber(54) % (maxAddPoints/4 + 1)) * 4;\n                }\n            }                \n        }        \n\n        _tokenIdCounter.increment();\n        uint256 newTokenId = _tokenIdCounter.current();\n        \n        _safeMint(itemOwner, newTokenId);\n \n        _setTokenAttributes(newTokenId, itemAtts);\n\n        _tokenAttributes[newTokenId].tokenId = newTokenId;      \n        _tokenAttributes[newTokenId].itemAttributesId = itemId;      \n        _tokenAttributes[newTokenId].fighterId = 0;      \n        _tokenAttributes[newTokenId].lastUpdBlock = block.number; \n\n        emit ItemCrafted(newTokenId, itemOwner);\n\n        return newTokenId;\n    }     \n\n    function getWeaponsLength(uint256 rarityLevel) public view returns (uint256) {\n        return Weapons[rarityLevel].length;\n    }\n\n    function getArmoursLength(uint256 rarityLevel) public view returns (uint256) {\n        return Armours[rarityLevel].length;\n    }\n\n    function getJewelsLength(uint256 rarityLevel) public view returns (uint256) {\n        return Jewels[rarityLevel].length;\n    }\n\n    function getMiscsLength(uint256 rarityLevel) public view returns (uint256) {\n        return Misc[rarityLevel].length;\n    }    \n\n    function buyItemFromShop(uint256 itemId, uint256 fighterId) external {\n        require(_itemAttributes[itemId].inShop, \"Item not in shop or doesn't exist\");\n\n        // money logic\n\n        _tokenIdCounter.increment();\n        uint256 tokenId = _tokenIdCounter.current();\n        _safeMint(msg.sender, tokenId);\n        _setTokenAttributes(tokenId, _itemAttributes[itemId]);\n\n        _tokenAttributes[tokenId].tokenId = tokenId;      \n        _tokenAttributes[tokenId].itemAttributesId = itemId;      \n        _tokenAttributes[tokenId].fighterId = fighterId;      \n        _tokenAttributes[tokenId].lastUpdBlock = block.number;      \n\n        emit ItemBoughtFromShop(tokenId, itemId, msg.sender, _tokenAttributes[tokenId].name);\n    }\n\n    // Get the attributes for a fighter NFT\n    function getTokenAttributes(uint256 tokenId) public view returns (ItemAttributes memory) {\n        require(_exists(tokenId), \"Token does not exist\");\n\n        return _tokenAttributes[tokenId];\n    }\n\n    // Get the attributes for a fighter NFT\n    function getItemAttributes(uint256 itemId) public view returns (ItemAttributes memory) {\n        require(_itemAttributes.length > itemId, \"Item does not exist\");\n\n        return _itemAttributes[itemId];\n    }\n\n    mapping (uint256 => ItemAttributes) private _tokenAttributes;\n    ItemAttributes[] private _itemAttributes;\n    Counters.Counter private _tokenIdCounter;\n\n    ItemAttributes boxAttributes;\n\n    constructor() ERC721(\"Combats\", \"Item\") {\n        owner = msg.sender;\n    }\n\n    function getUserItems(address userAddress) external view returns (uint256[] memory) {\n        \n        uint256 numTokens = balanceOf(userAddress);\n        uint256[] memory tokenIds = new uint256[](numTokens);\n\n        for (uint256 i = 0; i < numTokens; i++) {\n            tokenIds[i] = tokenOfOwnerByIndex(userAddress, i);\n        }\n\n        return tokenIds;\n    }\n\n\n    function getFighterItems(address userAddress, uint256 fighterId) external view returns (uint256[2][] memory) {\n        \n        uint256 numTokens = balanceOf(userAddress);\n        uint256[2][] memory tokenIds = new uint256[2][](numTokens);\n\n        uint256 id;\n        uint counter = 0;\n\n        for (uint256 i = 0; i < numTokens; i++) {\n            id = tokenOfOwnerByIndex(userAddress, i);\n            if (_tokenAttributes[id].fighterId == fighterId)\n            {\n                tokenIds[counter] = [id, _tokenAttributes[id].lastUpdBlock];\n            }\n            \n            counter++;\n        }\n\n        return tokenIds;\n    }\n\n\n    function _setTokenAttributes(uint256 tokenId, ItemAttributes memory attrs) internal {\n        require(_exists(tokenId), \"Token does not exist\");\n\n        _tokenAttributes[tokenId] = attrs;\n    }\n\n    function returnRandomItemFromDropList(uint256[] memory items) internal returns (uint256) {\n        uint256 randomNumber = getRandomNumber(block.number);\n        uint256 len = items.length;\n\n        return items[randomNumber % len];\n\n    }\n\n    // Returns the smaller of two values\n    function min(uint a, uint b) private pure returns (uint) {\n        return a < b ? a : b;\n    }\n\n    // Returns the largest of the two values\n    function max(uint a, uint b) private pure returns (uint) {\n        return a > b ? a : b;\n    }\n\n    // Safe Multiply Function - prevents integer overflow \n    function safeMul(uint a, uint b) public returns (uint) {\n        uint c = a * b;\n        assert(a == 0 || c / a == b);\n        return c;\n    }\n\n    // Safe Subtraction Function - prevents integer overflow \n    function safeSub(uint a, uint b) public returns (uint) {\n        assert(b <= a);\n        return a - b;\n    }\n\n    // Safe Addition Function - prevents integer overflow \n    function safeAdd(uint a, uint b) public returns (uint) {\n        uint c = a + b;\n        assert(c>=a && c>=b);\n        return c;\n    }\n\n}",
  "sourcePath": "/Users/max/Documents/prog/game-contracts/contracts/Items.sol",
  "compiler": {
    "name": "solc",
    "version": "0.8.19+commit.7dd6d404.Emscripten.clang"
  },
  "schemaVersion": "3.4.13",
  "updatedAt": "2023-04-20T09:33:16.361Z",
  "networkType": "ethereum",
  "devdoc": {
    "events": {
      "Approval(address,address,uint256)": {
        "details": "Emitted when `owner` enables `approved` to manage the `tokenId` token."
      },
      "ApprovalForAll(address,address,bool)": {
        "details": "Emitted when `owner` enables or disables (`approved`) `operator` to manage all of its assets."
      },
      "Transfer(address,address,uint256)": {
        "details": "Emitted when `tokenId` token is transferred from `from` to `to`."
      }
    },
    "kind": "dev",
    "methods": {
      "approve(address,uint256)": {
        "details": "See {IERC721-approve}."
      },
      "balanceOf(address)": {
        "details": "See {IERC721-balanceOf}."
      },
      "getApproved(uint256)": {
        "details": "See {IERC721-getApproved}."
      },
      "isApprovedForAll(address,address)": {
        "details": "See {IERC721-isApprovedForAll}."
      },
      "name()": {
        "details": "See {IERC721Metadata-name}."
      },
      "ownerOf(uint256)": {
        "details": "See {IERC721-ownerOf}."
      },
      "safeTransferFrom(address,address,uint256)": {
        "details": "See {IERC721-safeTransferFrom}."
      },
      "safeTransferFrom(address,address,uint256,bytes)": {
        "details": "See {IERC721-safeTransferFrom}."
      },
      "setApprovalForAll(address,bool)": {
        "details": "See {IERC721-setApprovalForAll}."
      },
      "supportsInterface(bytes4)": {
        "details": "See {IERC165-supportsInterface}."
      },
      "symbol()": {
        "details": "See {IERC721Metadata-symbol}."
      },
      "tokenByIndex(uint256)": {
        "details": "See {IERC721Enumerable-tokenByIndex}."
      },
      "tokenOfOwnerByIndex(address,uint256)": {
        "details": "See {IERC721Enumerable-tokenOfOwnerByIndex}."
      },
      "tokenURI(uint256)": {
        "details": "See {IERC721Metadata-tokenURI}."
      },
      "totalSupply()": {
        "details": "See {IERC721Enumerable-totalSupply}."
      },
      "transferFrom(address,address,uint256)": {
        "details": "See {IERC721-transferFrom}."
      }
    },
    "version": 1
  },
  "userdoc": {
    "kind": "user",
    "methods": {},
    "version": 1
  }
}