{
  "contractName": "ItemsHelper",
  "abi": [
    {
      "inputs": [
        {
          "internalType": "address",
          "name": "itemsBaseAddress",
          "type": "address"
        },
        {
          "internalType": "address",
          "name": "itemsAddress",
          "type": "address"
        },
        {
          "internalType": "address",
          "name": "itemsExcellentAddress",
          "type": "address"
        }
      ],
      "stateMutability": "nonpayable",
      "type": "constructor"
    },
    {
      "inputs": [
        {
          "internalType": "uint256",
          "name": "tokenId",
          "type": "uint256"
        }
      ],
      "name": "burnItem",
      "outputs": [],
      "stateMutability": "nonpayable",
      "type": "function"
    },
    {
      "inputs": [
        {
          "internalType": "uint256",
          "name": "tokenId",
          "type": "uint256"
        },
        {
          "internalType": "uint256",
          "name": "level",
          "type": "uint256"
        }
      ],
      "name": "setItemLevel",
      "outputs": [],
      "stateMutability": "nonpayable",
      "type": "function"
    },
    {
      "inputs": [
        {
          "internalType": "uint256",
          "name": "tokenId",
          "type": "uint256"
        },
        {
          "internalType": "uint256",
          "name": "points",
          "type": "uint256"
        }
      ],
      "name": "setAdditionalPoints",
      "outputs": [],
      "stateMutability": "nonpayable",
      "type": "function"
    },
    {
      "inputs": [
        {
          "internalType": "address",
          "name": "owner",
          "type": "address"
        }
      ],
      "name": "safeMint",
      "outputs": [
        {
          "internalType": "uint256",
          "name": "",
          "type": "uint256"
        }
      ],
      "stateMutability": "nonpayable",
      "type": "function"
    },
    {
      "inputs": [
        {
          "internalType": "uint256",
          "name": "tokenId",
          "type": "uint256"
        },
        {
          "components": [
            {
              "internalType": "string",
              "name": "name",
              "type": "string"
            },
            {
              "internalType": "uint256",
              "name": "tokenId",
              "type": "uint256"
            },
            {
              "internalType": "uint256",
              "name": "itemLevel",
              "type": "uint256"
            },
            {
              "internalType": "uint256",
              "name": "maxLevel",
              "type": "uint256"
            },
            {
              "internalType": "uint256",
              "name": "additionalDamage",
              "type": "uint256"
            },
            {
              "internalType": "uint256",
              "name": "additionalDefense",
              "type": "uint256"
            },
            {
              "internalType": "uint256",
              "name": "fighterId",
              "type": "uint256"
            },
            {
              "internalType": "uint256",
              "name": "lastUpdBlock",
              "type": "uint256"
            },
            {
              "internalType": "uint256",
              "name": "itemRarityLevel",
              "type": "uint256"
            },
            {
              "internalType": "uint256",
              "name": "packSize",
              "type": "uint256"
            },
            {
              "internalType": "bool",
              "name": "luck",
              "type": "bool"
            },
            {
              "internalType": "bool",
              "name": "skill",
              "type": "bool"
            },
            {
              "internalType": "bool",
              "name": "isPackable",
              "type": "bool"
            },
            {
              "internalType": "bool",
              "name": "isBox",
              "type": "bool"
            },
            {
              "internalType": "bool",
              "name": "isWeapon",
              "type": "bool"
            },
            {
              "internalType": "bool",
              "name": "isArmour",
              "type": "bool"
            },
            {
              "internalType": "bool",
              "name": "isJewel",
              "type": "bool"
            },
            {
              "internalType": "bool",
              "name": "isWings",
              "type": "bool"
            },
            {
              "internalType": "bool",
              "name": "isMisc",
              "type": "bool"
            },
            {
              "internalType": "bool",
              "name": "isConsumable",
              "type": "bool"
            },
            {
              "internalType": "bool",
              "name": "inShop",
              "type": "bool"
            },
            {
              "internalType": "bool",
              "name": "isExcellent",
              "type": "bool"
            },
            {
              "internalType": "uint256",
              "name": "increaseAttackSpeedPoints",
              "type": "uint256"
            },
            {
              "internalType": "uint256",
              "name": "reflectDamagePercent",
              "type": "uint256"
            },
            {
              "internalType": "uint256",
              "name": "restoreHPChance",
              "type": "uint256"
            },
            {
              "internalType": "uint256",
              "name": "restoreMPChance",
              "type": "uint256"
            },
            {
              "internalType": "uint256",
              "name": "doubleDamageChance",
              "type": "uint256"
            },
            {
              "internalType": "uint256",
              "name": "ignoreOpponentDefenseChance",
              "type": "uint256"
            },
            {
              "internalType": "uint256",
              "name": "lifeAfterMonsterIncrease",
              "type": "uint256"
            },
            {
              "internalType": "uint256",
              "name": "manaAfterMonsterIncrease",
              "type": "uint256"
            },
            {
              "internalType": "uint256",
              "name": "excellentDamageProbabilityIncrease",
              "type": "uint256"
            },
            {
              "internalType": "uint256",
              "name": "attackSpeedIncrease",
              "type": "uint256"
            },
            {
              "internalType": "uint256",
              "name": "attackLvl20",
              "type": "uint256"
            },
            {
              "internalType": "uint256",
              "name": "attackIncreasePercent",
              "type": "uint256"
            },
            {
              "internalType": "uint256",
              "name": "defenseSuccessRateIncrease",
              "type": "uint256"
            },
            {
              "internalType": "uint256",
              "name": "goldAfterMonsterIncrease",
              "type": "uint256"
            },
            {
              "internalType": "uint256",
              "name": "reflectDamage",
              "type": "uint256"
            },
            {
              "internalType": "uint256",
              "name": "maxLifeIncrease",
              "type": "uint256"
            },
            {
              "internalType": "uint256",
              "name": "maxManaIncrease",
              "type": "uint256"
            },
            {
              "internalType": "uint256",
              "name": "hpRecoveryRateIncrease",
              "type": "uint256"
            },
            {
              "internalType": "uint256",
              "name": "mpRecoveryRateIncrease",
              "type": "uint256"
            },
            {
              "internalType": "uint256",
              "name": "decreaseDamageRateIncrease",
              "type": "uint256"
            }
          ],
          "internalType": "struct ItemsExcellentAtts.ExcellentItemAtts",
          "name": "atts",
          "type": "tuple"
        }
      ],
      "name": "setTokenAttributes",
      "outputs": [],
      "stateMutability": "nonpayable",
      "type": "function"
    },
    {
      "inputs": [
        {
          "internalType": "uint256",
          "name": "tokenId",
          "type": "uint256"
        },
        {
          "internalType": "address",
          "name": "to",
          "type": "address"
        }
      ],
      "name": "transferItem",
      "outputs": [],
      "stateMutability": "nonpayable",
      "type": "function"
    },
    {
      "inputs": [
        {
          "components": [
            {
              "internalType": "string",
              "name": "name",
              "type": "string"
            },
            {
              "internalType": "uint256",
              "name": "tokenId",
              "type": "uint256"
            },
            {
              "internalType": "uint256",
              "name": "itemLevel",
              "type": "uint256"
            },
            {
              "internalType": "uint256",
              "name": "maxLevel",
              "type": "uint256"
            },
            {
              "internalType": "uint256",
              "name": "additionalDamage",
              "type": "uint256"
            },
            {
              "internalType": "uint256",
              "name": "additionalDefense",
              "type": "uint256"
            },
            {
              "internalType": "uint256",
              "name": "fighterId",
              "type": "uint256"
            },
            {
              "internalType": "uint256",
              "name": "lastUpdBlock",
              "type": "uint256"
            },
            {
              "internalType": "uint256",
              "name": "itemRarityLevel",
              "type": "uint256"
            },
            {
              "internalType": "uint256",
              "name": "packSize",
              "type": "uint256"
            },
            {
              "internalType": "bool",
              "name": "luck",
              "type": "bool"
            },
            {
              "internalType": "bool",
              "name": "skill",
              "type": "bool"
            },
            {
              "internalType": "bool",
              "name": "isPackable",
              "type": "bool"
            },
            {
              "internalType": "bool",
              "name": "isBox",
              "type": "bool"
            },
            {
              "internalType": "bool",
              "name": "isWeapon",
              "type": "bool"
            },
            {
              "internalType": "bool",
              "name": "isArmour",
              "type": "bool"
            },
            {
              "internalType": "bool",
              "name": "isJewel",
              "type": "bool"
            },
            {
              "internalType": "bool",
              "name": "isWings",
              "type": "bool"
            },
            {
              "internalType": "bool",
              "name": "isMisc",
              "type": "bool"
            },
            {
              "internalType": "bool",
              "name": "isConsumable",
              "type": "bool"
            },
            {
              "internalType": "bool",
              "name": "inShop",
              "type": "bool"
            },
            {
              "internalType": "bool",
              "name": "isExcellent",
              "type": "bool"
            },
            {
              "internalType": "uint256",
              "name": "increaseAttackSpeedPoints",
              "type": "uint256"
            },
            {
              "internalType": "uint256",
              "name": "reflectDamagePercent",
              "type": "uint256"
            },
            {
              "internalType": "uint256",
              "name": "restoreHPChance",
              "type": "uint256"
            },
            {
              "internalType": "uint256",
              "name": "restoreMPChance",
              "type": "uint256"
            },
            {
              "internalType": "uint256",
              "name": "doubleDamageChance",
              "type": "uint256"
            },
            {
              "internalType": "uint256",
              "name": "ignoreOpponentDefenseChance",
              "type": "uint256"
            },
            {
              "internalType": "uint256",
              "name": "lifeAfterMonsterIncrease",
              "type": "uint256"
            },
            {
              "internalType": "uint256",
              "name": "manaAfterMonsterIncrease",
              "type": "uint256"
            },
            {
              "internalType": "uint256",
              "name": "excellentDamageProbabilityIncrease",
              "type": "uint256"
            },
            {
              "internalType": "uint256",
              "name": "attackSpeedIncrease",
              "type": "uint256"
            },
            {
              "internalType": "uint256",
              "name": "attackLvl20",
              "type": "uint256"
            },
            {
              "internalType": "uint256",
              "name": "attackIncreasePercent",
              "type": "uint256"
            },
            {
              "internalType": "uint256",
              "name": "defenseSuccessRateIncrease",
              "type": "uint256"
            },
            {
              "internalType": "uint256",
              "name": "goldAfterMonsterIncrease",
              "type": "uint256"
            },
            {
              "internalType": "uint256",
              "name": "reflectDamage",
              "type": "uint256"
            },
            {
              "internalType": "uint256",
              "name": "maxLifeIncrease",
              "type": "uint256"
            },
            {
              "internalType": "uint256",
              "name": "maxManaIncrease",
              "type": "uint256"
            },
            {
              "internalType": "uint256",
              "name": "hpRecoveryRateIncrease",
              "type": "uint256"
            },
            {
              "internalType": "uint256",
              "name": "mpRecoveryRateIncrease",
              "type": "uint256"
            },
            {
              "internalType": "uint256",
              "name": "decreaseDamageRateIncrease",
              "type": "uint256"
            }
          ],
          "internalType": "struct ItemsExcellentAtts.ExcellentItemAtts",
          "name": "item",
          "type": "tuple"
        }
      ],
      "name": "addExcellentOption",
      "outputs": [
        {
          "components": [
            {
              "internalType": "string",
              "name": "name",
              "type": "string"
            },
            {
              "internalType": "uint256",
              "name": "tokenId",
              "type": "uint256"
            },
            {
              "internalType": "uint256",
              "name": "itemLevel",
              "type": "uint256"
            },
            {
              "internalType": "uint256",
              "name": "maxLevel",
              "type": "uint256"
            },
            {
              "internalType": "uint256",
              "name": "additionalDamage",
              "type": "uint256"
            },
            {
              "internalType": "uint256",
              "name": "additionalDefense",
              "type": "uint256"
            },
            {
              "internalType": "uint256",
              "name": "fighterId",
              "type": "uint256"
            },
            {
              "internalType": "uint256",
              "name": "lastUpdBlock",
              "type": "uint256"
            },
            {
              "internalType": "uint256",
              "name": "itemRarityLevel",
              "type": "uint256"
            },
            {
              "internalType": "uint256",
              "name": "packSize",
              "type": "uint256"
            },
            {
              "internalType": "bool",
              "name": "luck",
              "type": "bool"
            },
            {
              "internalType": "bool",
              "name": "skill",
              "type": "bool"
            },
            {
              "internalType": "bool",
              "name": "isPackable",
              "type": "bool"
            },
            {
              "internalType": "bool",
              "name": "isBox",
              "type": "bool"
            },
            {
              "internalType": "bool",
              "name": "isWeapon",
              "type": "bool"
            },
            {
              "internalType": "bool",
              "name": "isArmour",
              "type": "bool"
            },
            {
              "internalType": "bool",
              "name": "isJewel",
              "type": "bool"
            },
            {
              "internalType": "bool",
              "name": "isWings",
              "type": "bool"
            },
            {
              "internalType": "bool",
              "name": "isMisc",
              "type": "bool"
            },
            {
              "internalType": "bool",
              "name": "isConsumable",
              "type": "bool"
            },
            {
              "internalType": "bool",
              "name": "inShop",
              "type": "bool"
            },
            {
              "internalType": "bool",
              "name": "isExcellent",
              "type": "bool"
            },
            {
              "internalType": "uint256",
              "name": "increaseAttackSpeedPoints",
              "type": "uint256"
            },
            {
              "internalType": "uint256",
              "name": "reflectDamagePercent",
              "type": "uint256"
            },
            {
              "internalType": "uint256",
              "name": "restoreHPChance",
              "type": "uint256"
            },
            {
              "internalType": "uint256",
              "name": "restoreMPChance",
              "type": "uint256"
            },
            {
              "internalType": "uint256",
              "name": "doubleDamageChance",
              "type": "uint256"
            },
            {
              "internalType": "uint256",
              "name": "ignoreOpponentDefenseChance",
              "type": "uint256"
            },
            {
              "internalType": "uint256",
              "name": "lifeAfterMonsterIncrease",
              "type": "uint256"
            },
            {
              "internalType": "uint256",
              "name": "manaAfterMonsterIncrease",
              "type": "uint256"
            },
            {
              "internalType": "uint256",
              "name": "excellentDamageProbabilityIncrease",
              "type": "uint256"
            },
            {
              "internalType": "uint256",
              "name": "attackSpeedIncrease",
              "type": "uint256"
            },
            {
              "internalType": "uint256",
              "name": "attackLvl20",
              "type": "uint256"
            },
            {
              "internalType": "uint256",
              "name": "attackIncreasePercent",
              "type": "uint256"
            },
            {
              "internalType": "uint256",
              "name": "defenseSuccessRateIncrease",
              "type": "uint256"
            },
            {
              "internalType": "uint256",
              "name": "goldAfterMonsterIncrease",
              "type": "uint256"
            },
            {
              "internalType": "uint256",
              "name": "reflectDamage",
              "type": "uint256"
            },
            {
              "internalType": "uint256",
              "name": "maxLifeIncrease",
              "type": "uint256"
            },
            {
              "internalType": "uint256",
              "name": "maxManaIncrease",
              "type": "uint256"
            },
            {
              "internalType": "uint256",
              "name": "hpRecoveryRateIncrease",
              "type": "uint256"
            },
            {
              "internalType": "uint256",
              "name": "mpRecoveryRateIncrease",
              "type": "uint256"
            },
            {
              "internalType": "uint256",
              "name": "decreaseDamageRateIncrease",
              "type": "uint256"
            }
          ],
          "internalType": "struct ItemsExcellentAtts.ExcellentItemAtts",
          "name": "",
          "type": "tuple"
        }
      ],
      "stateMutability": "nonpayable",
      "type": "function"
    },
    {
      "inputs": [
        {
          "components": [
            {
              "internalType": "string",
              "name": "name",
              "type": "string"
            },
            {
              "internalType": "uint256",
              "name": "tokenId",
              "type": "uint256"
            },
            {
              "internalType": "uint256",
              "name": "itemLevel",
              "type": "uint256"
            },
            {
              "internalType": "uint256",
              "name": "maxLevel",
              "type": "uint256"
            },
            {
              "internalType": "uint256",
              "name": "additionalDamage",
              "type": "uint256"
            },
            {
              "internalType": "uint256",
              "name": "additionalDefense",
              "type": "uint256"
            },
            {
              "internalType": "uint256",
              "name": "fighterId",
              "type": "uint256"
            },
            {
              "internalType": "uint256",
              "name": "lastUpdBlock",
              "type": "uint256"
            },
            {
              "internalType": "uint256",
              "name": "itemRarityLevel",
              "type": "uint256"
            },
            {
              "internalType": "uint256",
              "name": "packSize",
              "type": "uint256"
            },
            {
              "internalType": "bool",
              "name": "luck",
              "type": "bool"
            },
            {
              "internalType": "bool",
              "name": "skill",
              "type": "bool"
            },
            {
              "internalType": "bool",
              "name": "isPackable",
              "type": "bool"
            },
            {
              "internalType": "bool",
              "name": "isBox",
              "type": "bool"
            },
            {
              "internalType": "bool",
              "name": "isWeapon",
              "type": "bool"
            },
            {
              "internalType": "bool",
              "name": "isArmour",
              "type": "bool"
            },
            {
              "internalType": "bool",
              "name": "isJewel",
              "type": "bool"
            },
            {
              "internalType": "bool",
              "name": "isWings",
              "type": "bool"
            },
            {
              "internalType": "bool",
              "name": "isMisc",
              "type": "bool"
            },
            {
              "internalType": "bool",
              "name": "isConsumable",
              "type": "bool"
            },
            {
              "internalType": "bool",
              "name": "inShop",
              "type": "bool"
            }
          ],
          "internalType": "struct ItemsAtts.ItemAttributes",
          "name": "item",
          "type": "tuple"
        }
      ],
      "name": "convertToExcellent",
      "outputs": [
        {
          "components": [
            {
              "internalType": "string",
              "name": "name",
              "type": "string"
            },
            {
              "internalType": "uint256",
              "name": "tokenId",
              "type": "uint256"
            },
            {
              "internalType": "uint256",
              "name": "itemLevel",
              "type": "uint256"
            },
            {
              "internalType": "uint256",
              "name": "maxLevel",
              "type": "uint256"
            },
            {
              "internalType": "uint256",
              "name": "additionalDamage",
              "type": "uint256"
            },
            {
              "internalType": "uint256",
              "name": "additionalDefense",
              "type": "uint256"
            },
            {
              "internalType": "uint256",
              "name": "fighterId",
              "type": "uint256"
            },
            {
              "internalType": "uint256",
              "name": "lastUpdBlock",
              "type": "uint256"
            },
            {
              "internalType": "uint256",
              "name": "itemRarityLevel",
              "type": "uint256"
            },
            {
              "internalType": "uint256",
              "name": "packSize",
              "type": "uint256"
            },
            {
              "internalType": "bool",
              "name": "luck",
              "type": "bool"
            },
            {
              "internalType": "bool",
              "name": "skill",
              "type": "bool"
            },
            {
              "internalType": "bool",
              "name": "isPackable",
              "type": "bool"
            },
            {
              "internalType": "bool",
              "name": "isBox",
              "type": "bool"
            },
            {
              "internalType": "bool",
              "name": "isWeapon",
              "type": "bool"
            },
            {
              "internalType": "bool",
              "name": "isArmour",
              "type": "bool"
            },
            {
              "internalType": "bool",
              "name": "isJewel",
              "type": "bool"
            },
            {
              "internalType": "bool",
              "name": "isWings",
              "type": "bool"
            },
            {
              "internalType": "bool",
              "name": "isMisc",
              "type": "bool"
            },
            {
              "internalType": "bool",
              "name": "isConsumable",
              "type": "bool"
            },
            {
              "internalType": "bool",
              "name": "inShop",
              "type": "bool"
            },
            {
              "internalType": "bool",
              "name": "isExcellent",
              "type": "bool"
            },
            {
              "internalType": "uint256",
              "name": "increaseAttackSpeedPoints",
              "type": "uint256"
            },
            {
              "internalType": "uint256",
              "name": "reflectDamagePercent",
              "type": "uint256"
            },
            {
              "internalType": "uint256",
              "name": "restoreHPChance",
              "type": "uint256"
            },
            {
              "internalType": "uint256",
              "name": "restoreMPChance",
              "type": "uint256"
            },
            {
              "internalType": "uint256",
              "name": "doubleDamageChance",
              "type": "uint256"
            },
            {
              "internalType": "uint256",
              "name": "ignoreOpponentDefenseChance",
              "type": "uint256"
            },
            {
              "internalType": "uint256",
              "name": "lifeAfterMonsterIncrease",
              "type": "uint256"
            },
            {
              "internalType": "uint256",
              "name": "manaAfterMonsterIncrease",
              "type": "uint256"
            },
            {
              "internalType": "uint256",
              "name": "excellentDamageProbabilityIncrease",
              "type": "uint256"
            },
            {
              "internalType": "uint256",
              "name": "attackSpeedIncrease",
              "type": "uint256"
            },
            {
              "internalType": "uint256",
              "name": "attackLvl20",
              "type": "uint256"
            },
            {
              "internalType": "uint256",
              "name": "attackIncreasePercent",
              "type": "uint256"
            },
            {
              "internalType": "uint256",
              "name": "defenseSuccessRateIncrease",
              "type": "uint256"
            },
            {
              "internalType": "uint256",
              "name": "goldAfterMonsterIncrease",
              "type": "uint256"
            },
            {
              "internalType": "uint256",
              "name": "reflectDamage",
              "type": "uint256"
            },
            {
              "internalType": "uint256",
              "name": "maxLifeIncrease",
              "type": "uint256"
            },
            {
              "internalType": "uint256",
              "name": "maxManaIncrease",
              "type": "uint256"
            },
            {
              "internalType": "uint256",
              "name": "hpRecoveryRateIncrease",
              "type": "uint256"
            },
            {
              "internalType": "uint256",
              "name": "mpRecoveryRateIncrease",
              "type": "uint256"
            },
            {
              "internalType": "uint256",
              "name": "decreaseDamageRateIncrease",
              "type": "uint256"
            }
          ],
          "internalType": "struct ItemsExcellentAtts.ExcellentItemAtts",
          "name": "",
          "type": "tuple"
        }
      ],
      "stateMutability": "view",
      "type": "function",
      "constant": true
    },
    {
      "inputs": [
        {
          "internalType": "string",
          "name": "itemName",
          "type": "string"
        },
        {
          "internalType": "uint256",
          "name": "fighterId",
          "type": "uint256"
        }
      ],
      "name": "craftItemForShop",
      "outputs": [
        {
          "internalType": "uint256",
          "name": "",
          "type": "uint256"
        }
      ],
      "stateMutability": "nonpayable",
      "type": "function"
    },
    {
      "inputs": [
        {
          "internalType": "uint256",
          "name": "tokenId",
          "type": "uint256"
        }
      ],
      "name": "burnConsumable",
      "outputs": [],
      "stateMutability": "nonpayable",
      "type": "function"
    },
    {
      "inputs": [
        {
          "internalType": "string",
          "name": "itemName",
          "type": "string"
        },
        {
          "internalType": "uint256[]",
          "name": "tokenIds",
          "type": "uint256[]"
        },
        {
          "internalType": "uint256",
          "name": "packSize",
          "type": "uint256"
        },
        {
          "internalType": "uint256",
          "name": "fighterId",
          "type": "uint256"
        }
      ],
      "name": "packItems",
      "outputs": [
        {
          "internalType": "uint256",
          "name": "newTokenId",
          "type": "uint256"
        }
      ],
      "stateMutability": "nonpayable",
      "type": "function"
    },
    {
      "inputs": [
        {
          "internalType": "uint256",
          "name": "tokenId",
          "type": "uint256"
        }
      ],
      "name": "unpackItems",
      "outputs": [
        {
          "internalType": "uint256[]",
          "name": "tokenIds",
          "type": "uint256[]"
        }
      ],
      "stateMutability": "nonpayable",
      "type": "function"
    },
    {
      "inputs": [
        {
          "internalType": "uint256",
          "name": "tokenId",
          "type": "uint256"
        }
      ],
      "name": "itemExists",
      "outputs": [
        {
          "internalType": "bool",
          "name": "",
          "type": "bool"
        }
      ],
      "stateMutability": "view",
      "type": "function",
      "constant": true
    },
    {
      "inputs": [
        {
          "internalType": "string",
          "name": "name",
          "type": "string"
        }
      ],
      "name": "isItemInShop",
      "outputs": [
        {
          "internalType": "bool",
          "name": "",
          "type": "bool"
        }
      ],
      "stateMutability": "view",
      "type": "function",
      "constant": true
    },
    {
      "inputs": [
        {
          "internalType": "uint256",
          "name": "tokenId",
          "type": "uint256"
        }
      ],
      "name": "isItemExcellent",
      "outputs": [
        {
          "internalType": "bool",
          "name": "",
          "type": "bool"
        }
      ],
      "stateMutability": "view",
      "type": "function",
      "constant": true
    },
    {
      "inputs": [
        {
          "internalType": "uint256",
          "name": "rarityLevel",
          "type": "uint256"
        }
      ],
      "name": "getWeapons",
      "outputs": [
        {
          "internalType": "string[]",
          "name": "",
          "type": "string[]"
        }
      ],
      "stateMutability": "view",
      "type": "function",
      "constant": true
    },
    {
      "inputs": [
        {
          "internalType": "uint256",
          "name": "rarityLevel",
          "type": "uint256"
        }
      ],
      "name": "getArmours",
      "outputs": [
        {
          "internalType": "string[]",
          "name": "",
          "type": "string[]"
        }
      ],
      "stateMutability": "view",
      "type": "function",
      "constant": true
    },
    {
      "inputs": [
        {
          "internalType": "uint256",
          "name": "rarityLevel",
          "type": "uint256"
        }
      ],
      "name": "getJewels",
      "outputs": [
        {
          "internalType": "string[]",
          "name": "",
          "type": "string[]"
        }
      ],
      "stateMutability": "view",
      "type": "function",
      "constant": true
    },
    {
      "inputs": [
        {
          "internalType": "uint256",
          "name": "rarityLevel",
          "type": "uint256"
        }
      ],
      "name": "getWings",
      "outputs": [
        {
          "internalType": "string[]",
          "name": "",
          "type": "string[]"
        }
      ],
      "stateMutability": "view",
      "type": "function",
      "constant": true
    },
    {
      "inputs": [
        {
          "internalType": "uint256",
          "name": "rarityLevel",
          "type": "uint256"
        }
      ],
      "name": "getBoxes",
      "outputs": [
        {
          "internalType": "string[]",
          "name": "",
          "type": "string[]"
        }
      ],
      "stateMutability": "view",
      "type": "function",
      "constant": true
    },
    {
      "inputs": [
        {
          "internalType": "uint256",
          "name": "rarityLevel",
          "type": "uint256"
        }
      ],
      "name": "getConsumables",
      "outputs": [
        {
          "internalType": "string[]",
          "name": "",
          "type": "string[]"
        }
      ],
      "stateMutability": "view",
      "type": "function",
      "constant": true
    },
    {
      "inputs": [
        {
          "internalType": "uint256",
          "name": "rarityLevel",
          "type": "uint256"
        }
      ],
      "name": "getMisc",
      "outputs": [
        {
          "internalType": "string[]",
          "name": "",
          "type": "string[]"
        }
      ],
      "stateMutability": "view",
      "type": "function",
      "constant": true
    },
    {
      "inputs": [
        {
          "internalType": "string",
          "name": "itemName",
          "type": "string"
        }
      ],
      "name": "getItemAttributes",
      "outputs": [
        {
          "components": [
            {
              "internalType": "string",
              "name": "name",
              "type": "string"
            },
            {
              "internalType": "uint256",
              "name": "tokenId",
              "type": "uint256"
            },
            {
              "internalType": "uint256",
              "name": "itemLevel",
              "type": "uint256"
            },
            {
              "internalType": "uint256",
              "name": "maxLevel",
              "type": "uint256"
            },
            {
              "internalType": "uint256",
              "name": "additionalDamage",
              "type": "uint256"
            },
            {
              "internalType": "uint256",
              "name": "additionalDefense",
              "type": "uint256"
            },
            {
              "internalType": "uint256",
              "name": "fighterId",
              "type": "uint256"
            },
            {
              "internalType": "uint256",
              "name": "lastUpdBlock",
              "type": "uint256"
            },
            {
              "internalType": "uint256",
              "name": "itemRarityLevel",
              "type": "uint256"
            },
            {
              "internalType": "uint256",
              "name": "packSize",
              "type": "uint256"
            },
            {
              "internalType": "bool",
              "name": "luck",
              "type": "bool"
            },
            {
              "internalType": "bool",
              "name": "skill",
              "type": "bool"
            },
            {
              "internalType": "bool",
              "name": "isPackable",
              "type": "bool"
            },
            {
              "internalType": "bool",
              "name": "isBox",
              "type": "bool"
            },
            {
              "internalType": "bool",
              "name": "isWeapon",
              "type": "bool"
            },
            {
              "internalType": "bool",
              "name": "isArmour",
              "type": "bool"
            },
            {
              "internalType": "bool",
              "name": "isJewel",
              "type": "bool"
            },
            {
              "internalType": "bool",
              "name": "isWings",
              "type": "bool"
            },
            {
              "internalType": "bool",
              "name": "isMisc",
              "type": "bool"
            },
            {
              "internalType": "bool",
              "name": "isConsumable",
              "type": "bool"
            },
            {
              "internalType": "bool",
              "name": "inShop",
              "type": "bool"
            },
            {
              "internalType": "bool",
              "name": "isExcellent",
              "type": "bool"
            },
            {
              "internalType": "uint256",
              "name": "increaseAttackSpeedPoints",
              "type": "uint256"
            },
            {
              "internalType": "uint256",
              "name": "reflectDamagePercent",
              "type": "uint256"
            },
            {
              "internalType": "uint256",
              "name": "restoreHPChance",
              "type": "uint256"
            },
            {
              "internalType": "uint256",
              "name": "restoreMPChance",
              "type": "uint256"
            },
            {
              "internalType": "uint256",
              "name": "doubleDamageChance",
              "type": "uint256"
            },
            {
              "internalType": "uint256",
              "name": "ignoreOpponentDefenseChance",
              "type": "uint256"
            },
            {
              "internalType": "uint256",
              "name": "lifeAfterMonsterIncrease",
              "type": "uint256"
            },
            {
              "internalType": "uint256",
              "name": "manaAfterMonsterIncrease",
              "type": "uint256"
            },
            {
              "internalType": "uint256",
              "name": "excellentDamageProbabilityIncrease",
              "type": "uint256"
            },
            {
              "internalType": "uint256",
              "name": "attackSpeedIncrease",
              "type": "uint256"
            },
            {
              "internalType": "uint256",
              "name": "attackLvl20",
              "type": "uint256"
            },
            {
              "internalType": "uint256",
              "name": "attackIncreasePercent",
              "type": "uint256"
            },
            {
              "internalType": "uint256",
              "name": "defenseSuccessRateIncrease",
              "type": "uint256"
            },
            {
              "internalType": "uint256",
              "name": "goldAfterMonsterIncrease",
              "type": "uint256"
            },
            {
              "internalType": "uint256",
              "name": "reflectDamage",
              "type": "uint256"
            },
            {
              "internalType": "uint256",
              "name": "maxLifeIncrease",
              "type": "uint256"
            },
            {
              "internalType": "uint256",
              "name": "maxManaIncrease",
              "type": "uint256"
            },
            {
              "internalType": "uint256",
              "name": "hpRecoveryRateIncrease",
              "type": "uint256"
            },
            {
              "internalType": "uint256",
              "name": "mpRecoveryRateIncrease",
              "type": "uint256"
            },
            {
              "internalType": "uint256",
              "name": "decreaseDamageRateIncrease",
              "type": "uint256"
            }
          ],
          "internalType": "struct ItemsExcellentAtts.ExcellentItemAtts",
          "name": "",
          "type": "tuple"
        }
      ],
      "stateMutability": "nonpayable",
      "type": "function"
    },
    {
      "inputs": [
        {
          "internalType": "uint256",
          "name": "tokenId",
          "type": "uint256"
        }
      ],
      "name": "getTokenAttributes",
      "outputs": [
        {
          "components": [
            {
              "internalType": "string",
              "name": "name",
              "type": "string"
            },
            {
              "internalType": "uint256",
              "name": "tokenId",
              "type": "uint256"
            },
            {
              "internalType": "uint256",
              "name": "itemLevel",
              "type": "uint256"
            },
            {
              "internalType": "uint256",
              "name": "maxLevel",
              "type": "uint256"
            },
            {
              "internalType": "uint256",
              "name": "additionalDamage",
              "type": "uint256"
            },
            {
              "internalType": "uint256",
              "name": "additionalDefense",
              "type": "uint256"
            },
            {
              "internalType": "uint256",
              "name": "fighterId",
              "type": "uint256"
            },
            {
              "internalType": "uint256",
              "name": "lastUpdBlock",
              "type": "uint256"
            },
            {
              "internalType": "uint256",
              "name": "itemRarityLevel",
              "type": "uint256"
            },
            {
              "internalType": "uint256",
              "name": "packSize",
              "type": "uint256"
            },
            {
              "internalType": "bool",
              "name": "luck",
              "type": "bool"
            },
            {
              "internalType": "bool",
              "name": "skill",
              "type": "bool"
            },
            {
              "internalType": "bool",
              "name": "isPackable",
              "type": "bool"
            },
            {
              "internalType": "bool",
              "name": "isBox",
              "type": "bool"
            },
            {
              "internalType": "bool",
              "name": "isWeapon",
              "type": "bool"
            },
            {
              "internalType": "bool",
              "name": "isArmour",
              "type": "bool"
            },
            {
              "internalType": "bool",
              "name": "isJewel",
              "type": "bool"
            },
            {
              "internalType": "bool",
              "name": "isWings",
              "type": "bool"
            },
            {
              "internalType": "bool",
              "name": "isMisc",
              "type": "bool"
            },
            {
              "internalType": "bool",
              "name": "isConsumable",
              "type": "bool"
            },
            {
              "internalType": "bool",
              "name": "inShop",
              "type": "bool"
            },
            {
              "internalType": "bool",
              "name": "isExcellent",
              "type": "bool"
            },
            {
              "internalType": "uint256",
              "name": "increaseAttackSpeedPoints",
              "type": "uint256"
            },
            {
              "internalType": "uint256",
              "name": "reflectDamagePercent",
              "type": "uint256"
            },
            {
              "internalType": "uint256",
              "name": "restoreHPChance",
              "type": "uint256"
            },
            {
              "internalType": "uint256",
              "name": "restoreMPChance",
              "type": "uint256"
            },
            {
              "internalType": "uint256",
              "name": "doubleDamageChance",
              "type": "uint256"
            },
            {
              "internalType": "uint256",
              "name": "ignoreOpponentDefenseChance",
              "type": "uint256"
            },
            {
              "internalType": "uint256",
              "name": "lifeAfterMonsterIncrease",
              "type": "uint256"
            },
            {
              "internalType": "uint256",
              "name": "manaAfterMonsterIncrease",
              "type": "uint256"
            },
            {
              "internalType": "uint256",
              "name": "excellentDamageProbabilityIncrease",
              "type": "uint256"
            },
            {
              "internalType": "uint256",
              "name": "attackSpeedIncrease",
              "type": "uint256"
            },
            {
              "internalType": "uint256",
              "name": "attackLvl20",
              "type": "uint256"
            },
            {
              "internalType": "uint256",
              "name": "attackIncreasePercent",
              "type": "uint256"
            },
            {
              "internalType": "uint256",
              "name": "defenseSuccessRateIncrease",
              "type": "uint256"
            },
            {
              "internalType": "uint256",
              "name": "goldAfterMonsterIncrease",
              "type": "uint256"
            },
            {
              "internalType": "uint256",
              "name": "reflectDamage",
              "type": "uint256"
            },
            {
              "internalType": "uint256",
              "name": "maxLifeIncrease",
              "type": "uint256"
            },
            {
              "internalType": "uint256",
              "name": "maxManaIncrease",
              "type": "uint256"
            },
            {
              "internalType": "uint256",
              "name": "hpRecoveryRateIncrease",
              "type": "uint256"
            },
            {
              "internalType": "uint256",
              "name": "mpRecoveryRateIncrease",
              "type": "uint256"
            },
            {
              "internalType": "uint256",
              "name": "decreaseDamageRateIncrease",
              "type": "uint256"
            }
          ],
          "internalType": "struct ItemsExcellentAtts.ExcellentItemAtts",
          "name": "",
          "type": "tuple"
        }
      ],
      "stateMutability": "nonpayable",
      "type": "function"
    },
    {
      "inputs": [
        {
          "internalType": "address",
          "name": "userAddress",
          "type": "address"
        },
        {
          "internalType": "uint256",
          "name": "fighterId",
          "type": "uint256"
        }
      ],
      "name": "getFighterItems",
      "outputs": [
        {
          "internalType": "uint256[2][]",
          "name": "",
          "type": "uint256[2][]"
        }
      ],
      "stateMutability": "view",
      "type": "function",
      "constant": true
    }
  ],
  "bytecode": "0x608034620000d857601f62001c8f38819003918201601f19168301916001600160401b03831184841017620000dd57808492606094604052833981010312620000d8576200004d81620000f3565b906200006a60406200006260208401620000f3565b9201620000f3565b6064600055601c60015560326002556032600355601e600455601e60055560026006556001600755600060085560018060a01b0380928160018060a01b031995168560095416176009551683600a541617600a551690600b541617600b55604051611b869081620001098239f35b600080fd5b634e487b7160e01b600052604160045260246000fd5b51906001600160a01b0382168203620000d85756fe608080604052600436101561001357600080fd5b600090813560e01c90816303f46b8b14611089575080631f4f5a231461101857806331d5d1d714610ce75780633267f8ab14610c8957806332fac8f814610c755780633a6713ec14610c1757806340d097c314610b845780634e10d30d14610a93578063513c1452146108b2578063576cc0f714610852578063684063d7146107c85780637eb3abaf146107475780637f59c177146106ed57806380971e2c14610699578063811aee2f146105ea578063843bd6411461054b57806387c7ab5c146104d85780639b94680f1461047a578063a0b2adc014610425578063a4229101146103b2578063aa87adfc14610354578063caf7c445146102ea578063e8af18f31461028c578063ef5b94d3146101c75763fd8f61701461013457600080fd5b346101c45760203660031901126101c457600954604051630fd8f61760e41b81526004803590820152908290829060249082906001600160a01b03165afa9081156101b957826101929392610196575b50506040519182918261112c565b0390f35b6101b292503d8091833e6101aa81836113be565b810190611abb565b3880610184565b6040513d84823e3d90fd5b80fd5b50346101c45760203660031901126101c457806004356001600160401b0381116102895761023a6101fd8392369060040161147a565b6102056116dd565b50600b5460405163ef5b94d360e01b8152602060048201529485936001600160a01b039092169284928391602483019061118e565b03925af19081156101b957826101929392610266575b505060405191829160208352602083019061118e565b61028292503d8091833e61027a81836113be565b81019061185c565b3880610250565b50fd5b50346101c45760203660031901126101c45760095460405163e8af18f360e01b81526004803590820152908290829060249082906001600160a01b03165afa9081156101b9578261019293926101965750506040519182918261112c565b50346101c457806102fa3661144e565b600a546001600160a01b03169190823b1561034f576044849283604051958694859363caf7c44560e01b8552600485015260248401525af180156101b95761033f5750f35b61034890611379565b6101c45780f35b505050fd5b50346101c45760203660031901126101c457600954604051632aa1eb7f60e21b81526004803590820152908290829060249082906001600160a01b03165afa9081156101b9578261019293926101965750506040519182918261112c565b50346101c45760403660031901126101c4576001600160a01b0360243581811690819003610420578291600a541690813b1561041c57829160448392604051948593849263a422910160e01b8452600435600485015260248401525af180156101b95761033f5750f35b5050fd5b600080fd5b50346101c457602090816003193601126101c45760405191829181830182845260605180915260408401926080925b82811061046357505050500390f35b835185528695509381019392810192600101610454565b50346101c45760203660031901126101c457600954604051639b94680f60e01b81526004803590820152908290829060249082906001600160a01b03165afa9081156101b9578261019293926101965750506040519182918261112c565b50346101c45760203660031901126101c457806004356001600160401b0381116102895761023a61050e839236906004016113fa565b6105166116dd565b50600b546040516321f1ead760e21b8152602060048201529485936001600160a01b0390921692849283916024830190611107565b50346101c457602090816003193601126101c457600a5460405163843bd64160e01b81526004803590820152908390829060249082906001600160a01b03165afa9182156105de5780926105a6575b50506040519015158152f35b9091508282813d83116105d7575b6105be81836113be565b810103126101c457506105d09061184f565b388061059a565b503d6105b4565b604051903d90823e3d90fd5b50346101c45760803660031901126101c4576001600160401b03906004358281116106955761061d9036906004016113fa565b506024359182116101c457366023830112156101c457816004013591610642836116c6565b9261065060405194856113be565b808452602460208095019160051b8301019136831161069157906024859201905b838210610682578285604051908152f35b81358152908201908201610671565b8380fd5b5080fd5b50346101c45760203660031901126101c457600a5481906001600160a01b0316803b1561028957818091602460405180948193632025c78b60e21b835260043560048401525af180156101b95761033f5750f35b50346101c457602090816003193601126101c457600b54604051637f59c17760e01b81526004803590820152908390829060249082906001600160a01b03165afa9182156105de5780926105a65750506040519015158152f35b50346101c457602090816003193601126101c4576004356001600160401b038111610695578261077e6107ab9236906004016113fa565b60018060a01b03600a54166040518080958194637eb3abaf60e01b83528660048401526024830190611107565b03915afa9182156105de5780926105a65750506040519015158152f35b50346101c45760403660031901126101c457806024356001600160401b038111610289576107fa90369060040161147a565b600b546001600160a01b0316803b1561041c57610841839291839260405194858094819363684063d760e01b8352600435600484015260406024840152604483019061118e565b03925af180156101b95761033f5750f35b50346101c45760203660031901126101c457600a5481906001600160a01b0316803b1561028957819060246040518094819363576cc0f760e01b835260043560048401525af180156101b9576108a6575080f35b6108af90611379565b80f35b50346101c45760403660031901126101c4576108cc611464565b600a5460405163289e0a2960e11b81526001600160a01b0392831660048201526024803581830152929091849183916044918391165afa918215610a8857839261097b575b505060405190602080830181845282518091528160408501930191855b82811061093b5785850386f35b90919293828551829089915b6002831061096557505050604060019201950191019291909261092e565b8151815286936001909301929182019101610947565b9091503d8084843e61098d81846113be565b820160208084830312610a845783516001600160401b0394858211610a80570191601f93818585011215610a80578351916109c7836116c6565b956109d560405197886113be565b838752848088019460061b87010195828711610a7c578501935b868510610a06575050505050505090503880610911565b828286011215610a7c57604051604081018181108b821117610a69576040528060408701858111610a655791889288949294905b808210610a52575050604093508152019401936109ef565b81518652948401948a9490910190610a3a565b8c80fd5b634e487b7160e01b8c526041600452858cfd5b8980fd5b8680fd5b8480fd5b6040513d85823e3d90fd5b50346101c45760403660031901126101c4576001600160401b03600435818111610b805736602382011215610b80578060040135918211610b80573660248383010111610b805781602091602485606460018060a01b03600a54169360405197889687958693634e10d30d60e01b8552604060048601528260448601520184840137838382840101526024356024830152601f801991011681010301925af19081156101b9578291610b4b575b602082604051908152f35b90506020813d8211610b78575b81610b65602093836113be565b8101031261069557602091505138610b40565b3d9150610b58565b8280fd5b50346101c457602090816003193601126101c457610ba0611464565b600a546040516340d097c360e01b81526001600160a01b039283166004820152918491839160249183918791165af19182156105de578092610be7575b5050604051908152f35b9091508282813d8311610c10575b610bff81836113be565b810103126101c45750513880610bdd565b503d610bf5565b50346101c45760203660031901126101c457600954604051630e99c4fb60e21b81526004803590820152908290829060249082906001600160a01b03165afa9081156101b9578261019293926101965750506040519182918261112c565b50346101c457610c843661144e565b505080f35b50346101c45760203660031901126101c457600954604051633267f8ab60e01b81526004803590820152908290829060249082906001600160a01b03165afa9081156101b9578261019293926101965750506040519182918261112c565b50346101c457600319602036820112610695576001600160401b03908160043511610b80576102a0906004353603011261069557604051906102a08201828110828211176110045760405260043560040135908111610b8057610d519060043691813501016113fa565b81526004356024810135602083015260448101356040830152606481013560608301526084810135608083015260a481013560a083015260c481013560c083015260e481013560e0830152610104810135610100830152610124810135610120830152610dc19061014401611441565b610140820152610dd661016460043501611441565b610160820152610deb61018460043501611441565b610180820152610e006101a460043501611441565b6101a0820152610e156101c460043501611441565b6101c0820152610e2a6101e460043501611441565b6101e0820152610e3f61020460043501611441565b610200820152610e5461022460043501611441565b610220820152610e6961024460043501611441565b610240820152610e7e61026460043501611441565b610260820152610e9361028460043501611441565b610280820152610ea16116dd565b508160018060a01b03600b54169160405192838080936331d5d1d760e01b825260206004830152610280610ee382516102a060248601526102c4850190611107565b91602081015160448501526040810151606485015260608101516084850152608081015160a485015260a081015160c485015260c081015160e485015260e08101516101048501526101008101516101248501526101208101516101448501526101408101511515610164850152610160810151151561018485015261018081015115156101a48501526101a081015115156101c48501526101c081015115156101e48501526101e081015115156102048501526102008101511515610224850152610220810151151561024485015261024081015115156102648501526102608101511515610284850152015115156102a483015203915afa9081156101b95782610192939261026657505060405191829160208352602083019061118e565b634e487b7160e01b84526041600452602484fd5b50346101c45760203660031901126101c4576110326116dd565b50600b54604051631f4f5a2360e01b815260048035908201529082908290602490829084906001600160a01b03165af19081156101b95782610192939261026657505060405191829160208352602083019061118e565b905034610695576020366003190112610695576009546303f46b8b60e01b825260048035908301528290829060249082906001600160a01b03165afa9081156101b9578261019293926101965750506040519182918261112c565b60005b8381106110f75750506000910152565b81810151838201526020016110e7565b90602091611120815180928185528580860191016110e4565b601f01601f1916010190565b602080820190808352835180925260408301928160408460051b8301019501936000915b8483106111605750505050505090565b909192939495848061117e600193603f198682030187528a51611107565b9801930193019194939290611150565b906111a28251610540808452830190611107565b916020810151602083015260408101516040830152606081015160608301526080810151608083015260a081015160a083015260c081015160c083015260e081015160e0830152610100808201519083015261012080820151908301526101408082015115159083015261016080820151151590830152610180808201511515908301526101a0808201511515908301526101c0808201511515908301526101e08082015115159083015261020080820151151590830152610220808201511515908301526102408082015115159083015261026080820151151590830152610280808201511515908301526102a0808201511515908301526102c080820151908301526102e08082015190830152610300808201519083015261032080820151908301526103408082015190830152610360808201519083015261038080820151908301526103a080820151908301526103c080820151908301526103e08082015190830152610400808201519083015261042080820151908301526104408082015190830152610460808201519083015261048080820151908301526104a080820151908301526104c080820151908301526104e0808201519083015261050080820151908301526105208091015191015290565b6001600160401b03811161138c57604052565b634e487b7160e01b600052604160045260246000fd5b61054081019081106001600160401b0382111761138c57604052565b90601f801991011681019081106001600160401b0382111761138c57604052565b6001600160401b03811161138c57601f01601f191660200190565b81601f8201121561042057803590611411826113df565b9261141f60405194856113be565b8284526020838301011161042057816000926020809301838601378301015290565b3590811515820361042057565b6040906003190112610420576004359060243590565b600435906001600160a01b038216820361042057565b919091610540818403126104205760405190611495826113a2565b81938135906001600160401b038211610420576114b39183016113fa565b82526020810135602083015260408101356040830152606081013560608301526080810135608083015260a081013560a083015260c081013560c083015260e081013560e08301526101008082013590830152610120808201359083015261014061151f818301611441565b90830152610160611531818301611441565b90830152610180611543818301611441565b908301526101a0611555818301611441565b908301526101c0611567818301611441565b908301526101e0611579818301611441565b9083015261020061158b818301611441565b9083015261022061159d818301611441565b908301526102406115af818301611441565b908301526102606115c1818301611441565b908301526102806115d3818301611441565b908301526102a06115e5818301611441565b908301526102c080820135908301526102e08082013590830152610300808201359083015261032080820135908301526103408082013590830152610360808201359083015261038080820135908301526103a080820135908301526103c080820135908301526103e08082013590830152610400808201359083015261042080820135908301526104408082013590830152610460808201359083015261048080820135908301526104a080820135908301526104c080820135908301526104e08082013590830152610500808201359083015261052080910135910152565b6001600160401b03811161138c5760051b60200190565b604051906116ea826113a2565b81606081526105206000918260208201528260408201528260608201528260808201528260a08201528260c08201528260e08201528261010082015282610120820152826101408201528261016082015282610180820152826101a0820152826101c0820152826101e08201528261020082015282610220820152826102408201528261026082015282610280820152826102a0820152826102c0820152826102e08201528261030082015282610320820152826103408201528261036082015282610380820152826103a0820152826103c0820152826103e08201528261040082015282610420820152826104408201528261046082015282610480820152826104a0820152826104c0820152826104e0820152826105008201520152565b81601f82011215610420578051611820816113df565b9261182e60405194856113be565b818452602082840101116104205761184c91602080850191016110e4565b90565b5190811515820361042057565b6020818303126104205780516001600160401b0391828211610420570190610540828403126104205760405192611892846113a2565b8251918211610420576118a691830161180a565b82526020810151602083015260408101516040830152606081015160608301526080810151608083015260a081015160a083015260c081015160c083015260e081015160e08301526101008082015190830152610120808201519083015261014061191281830161184f565b9083015261016061192481830161184f565b9083015261018061193681830161184f565b908301526101a061194881830161184f565b908301526101c061195a81830161184f565b908301526101e061196c81830161184f565b9083015261020061197e81830161184f565b9083015261022061199081830161184f565b908301526102406119a281830161184f565b908301526102606119b481830161184f565b908301526102806119c681830161184f565b908301526102a06119d881830161184f565b908301526102c080820151908301526102e08082015190830152610300808201519083015261032080820151908301526103408082015190830152610360808201519083015261038080820151908301526103a080820151908301526103c080820151908301526103e08082015190830152610400808201519083015261042080820151908301526104408082015190830152610460808201519083015261048080820151908301526104a080820151908301526104c080820151908301526104e080820151908301526105008082015190830152610520809101519082015290565b9060209081838203126104205782516001600160401b0393848211610420570181601f82011215610420578051611af1816116c6565b94611aff60405196876113be565b818652848087019260051b8401019380851161042057858401925b858410611b2b575050505050505090565b8351838111610420578791611b45848480948a010161180a565b815201930192611b1a56fea26469706673582212200276ef0169a04aa891bc9d4d91c6d00df265202f1a084e0a83c3b367a428fc5164736f6c63430008130033",
  "immutableReferences": {},
  "source": "// SPDX-License-Identifier: MIT\npragma solidity ^0.8.18;\nimport \"./ItemsExcellentAtts.sol\";\nimport \"./ItemsBase.sol\";\nimport \"./ItemsExcellent.sol\";\n\ncontract ItemsHelper is ItemsExcellentAtts {\n    ItemsBase private _base;\n    Items private _items;\n    ItemsExcellent private _itemsExcellent;\n\n\n\n    constructor(address itemsBaseAddress, address itemsAddress, address itemsExcellentAddress) {\n        _base = ItemsBase(itemsBaseAddress);\n        _items = Items(itemsAddress);\n        _itemsExcellent = ItemsExcellent(itemsExcellentAddress);\n    }\n\n\n    // Contract Calls (These are called only from allowed contracts)\n    function burnItem(uint256 tokenId) external {\n        return _items.burnItem(tokenId);\n    }\n\n    function setItemLevel(uint256 tokenId, uint256 level)  external {\n        return _items.setItemLevel(tokenId, level);\n    }   \n\n    function setAdditionalPoints(uint256 tokenId, uint256 points) external {\n        //return _items.setAdditionalPoints(tokenId, points);\n    }\n\n    function safeMint(address owner) external returns (uint256) {\n        return _items.safeMint(owner);\n    }\n\n    function setTokenAttributes(uint256 tokenId, ExcellentItemAtts memory atts) external {\n        return _itemsExcellent.setTokenAttributes(tokenId, atts);\n    }\n\n    function transferItem(uint256 tokenId, address to) external {\n        _items.transferItem(tokenId, to);\n    }\n\n    function addExcellentOption(ExcellentItemAtts memory item) external returns (ExcellentItemAtts memory) {\n        return _itemsExcellent.addExcellentOption(item);\n    }\n\n    function convertToExcellent(ItemAttributes memory item) public view returns (ExcellentItemAtts memory) {\n        return _itemsExcellent.convertToExcellent(item);\n    }\n\n    function craftItemForShop(string calldata itemName, uint256 fighterId) external returns (uint256) {\n        return _items.craftItemForShop(itemName, fighterId);\n    }\n\n    // function craftItem(uint256 itemId, address itemOwner, uint256 maxLevel, uint256 maxAddPoints) external returns (uint256) {\n    //     return _items.craftItem(itemId, itemOwner, maxLevel, maxAddPoints);\n    // }\n\n\n\n\n\n    // RPC Calls (These cane be called by the backend)\n    function burnConsumable(uint256 tokenId) external {\n        return _items.burnConsumable(tokenId);\n    }\n\n    function packItems(string memory itemName, uint256[] memory tokenIds, uint256 packSize, uint256 fighterId) external returns (uint256 newTokenId) {\n        //return _items.packItems(itemName, tokenIds, packSize, fighterId);\n    }\n\n    function unpackItems(uint256 tokenId) external returns(uint256[] memory tokenIds) {\n        //return _items.unpackItems(tokenId);\n    }\n\n\n\n\n\n\n\n    // Getters (These can be called by anyone)\n    function itemExists(uint256 tokenId) public view returns (bool) {\n        return _items.itemExists(tokenId);\n    }\n\n    function isItemInShop(string memory name) public view returns (bool) {\n        return _items.isItemInShop(name);\n    }\n\n    function isItemExcellent(uint256 tokenId) public view returns (bool) {\n        return _itemsExcellent.isItemExcellent(tokenId);\n    }\n\n\n\n\n    function getWeapons(uint256 rarityLevel) public view returns(string[] memory) {\n        return _base.getWeapons(rarityLevel);\n    }\n\n    function getArmours(uint256 rarityLevel) public view returns(string[] memory) {\n        return _base.getArmours(rarityLevel);\n    }\n\n    function getJewels(uint256 rarityLevel) public view returns(string[] memory) {\n        return _base.getJewels(rarityLevel);\n    }\n\n    function getWings(uint256 rarityLevel) public view returns(string[] memory) {\n        return _base.getWings(rarityLevel);\n    }\n    function getBoxes(uint256 rarityLevel) public view returns(string[] memory) {\n        return _base.getBoxes(rarityLevel);\n    }\n    function getConsumables(uint256 rarityLevel) public view returns(string[] memory) {\n        return _base.getConsumables(rarityLevel);\n    }\n\n    function getMisc(uint256 rarityLevel) public view returns(string[] memory) {\n        return _base.getMisc(rarityLevel);\n    }\n\n    function getItemAttributes(string memory itemName) external returns (ExcellentItemAtts memory) {\n        return _itemsExcellent.getItemAttributes(itemName);\n    }\n\n    function getTokenAttributes(uint256 tokenId) external returns (ExcellentItemAtts memory) {\n        return _itemsExcellent.getTokenAttributes(tokenId);\n    }\n\n    function getFighterItems(address userAddress, uint256 fighterId) external view returns (uint256[2][] memory) { \n        return _items.getFighterItems(userAddress, fighterId);\n    }\n}",
  "sourcePath": "/Users/max/Documents/prog/game-contracts/contracts/ItemsHelper.sol",
  "compiler": {
    "name": "solc",
    "version": "0.8.19+commit.7dd6d404.Emscripten.clang"
  },
  "schemaVersion": "3.4.13",
  "updatedAt": "2023-09-03T04:36:07.087Z",
  "networkType": "ethereum",
  "devdoc": {
    "kind": "dev",
    "methods": {},
    "version": 1
  },
  "userdoc": {
    "kind": "user",
    "methods": {},
    "version": 1
  }
}