{
  "contractName": "Items",
  "abi": [
    {
      "inputs": [
        {
          "internalType": "address",
          "name": "fightersHelperContract",
          "type": "address"
        },
        {
          "internalType": "address",
          "name": "moneyHelperContract",
          "type": "address"
        }
      ],
      "stateMutability": "nonpayable",
      "type": "constructor"
    },
    {
      "anonymous": false,
      "inputs": [
        {
          "indexed": true,
          "internalType": "address",
          "name": "owner",
          "type": "address"
        },
        {
          "indexed": true,
          "internalType": "address",
          "name": "approved",
          "type": "address"
        },
        {
          "indexed": true,
          "internalType": "uint256",
          "name": "tokenId",
          "type": "uint256"
        }
      ],
      "name": "Approval",
      "type": "event"
    },
    {
      "anonymous": false,
      "inputs": [
        {
          "indexed": true,
          "internalType": "address",
          "name": "owner",
          "type": "address"
        },
        {
          "indexed": true,
          "internalType": "address",
          "name": "operator",
          "type": "address"
        },
        {
          "indexed": false,
          "internalType": "bool",
          "name": "approved",
          "type": "bool"
        }
      ],
      "name": "ApprovalForAll",
      "type": "event"
    },
    {
      "anonymous": false,
      "inputs": [
        {
          "indexed": false,
          "internalType": "uint256",
          "name": "tokenId",
          "type": "uint256"
        },
        {
          "indexed": false,
          "internalType": "uint256",
          "name": "newAddPoints",
          "type": "uint256"
        }
      ],
      "name": "ItemAddPointsUpdate",
      "type": "event"
    },
    {
      "anonymous": false,
      "inputs": [
        {
          "indexed": false,
          "internalType": "uint256",
          "name": "tokenId",
          "type": "uint256"
        },
        {
          "indexed": false,
          "internalType": "uint256",
          "name": "itemId",
          "type": "uint256"
        },
        {
          "indexed": false,
          "internalType": "address",
          "name": "owner",
          "type": "address"
        },
        {
          "indexed": false,
          "internalType": "string",
          "name": "itemName",
          "type": "string"
        }
      ],
      "name": "ItemBoughtFromShop",
      "type": "event"
    },
    {
      "anonymous": false,
      "inputs": [
        {
          "indexed": false,
          "internalType": "uint256",
          "name": "tokenId",
          "type": "uint256"
        },
        {
          "indexed": false,
          "internalType": "address",
          "name": "owner",
          "type": "address"
        }
      ],
      "name": "ItemCrafted",
      "type": "event"
    },
    {
      "anonymous": false,
      "inputs": [
        {
          "indexed": false,
          "internalType": "uint256",
          "name": "itemId",
          "type": "uint256"
        },
        {
          "indexed": false,
          "internalType": "string",
          "name": "name",
          "type": "string"
        }
      ],
      "name": "ItemGenerated",
      "type": "event"
    },
    {
      "anonymous": false,
      "inputs": [
        {
          "indexed": false,
          "internalType": "uint256",
          "name": "tokenId",
          "type": "uint256"
        },
        {
          "indexed": false,
          "internalType": "uint256",
          "name": "newLevel",
          "type": "uint256"
        }
      ],
      "name": "ItemLevelUpgrade",
      "type": "event"
    },
    {
      "anonymous": false,
      "inputs": [
        {
          "indexed": false,
          "internalType": "uint8",
          "name": "",
          "type": "uint8"
        },
        {
          "indexed": false,
          "internalType": "uint256",
          "name": "",
          "type": "uint256"
        }
      ],
      "name": "LogError",
      "type": "event"
    },
    {
      "anonymous": false,
      "inputs": [
        {
          "indexed": true,
          "internalType": "address",
          "name": "from",
          "type": "address"
        },
        {
          "indexed": true,
          "internalType": "address",
          "name": "to",
          "type": "address"
        },
        {
          "indexed": true,
          "internalType": "uint256",
          "name": "tokenId",
          "type": "uint256"
        }
      ],
      "name": "Transfer",
      "type": "event"
    },
    {
      "inputs": [
        {
          "internalType": "uint256",
          "name": "",
          "type": "uint256"
        },
        {
          "internalType": "uint256",
          "name": "",
          "type": "uint256"
        }
      ],
      "name": "Armours",
      "outputs": [
        {
          "internalType": "uint256",
          "name": "",
          "type": "uint256"
        }
      ],
      "stateMutability": "view",
      "type": "function",
      "constant": true
    },
    {
      "inputs": [
        {
          "internalType": "uint256",
          "name": "",
          "type": "uint256"
        },
        {
          "internalType": "uint256",
          "name": "",
          "type": "uint256"
        }
      ],
      "name": "Jewels",
      "outputs": [
        {
          "internalType": "uint256",
          "name": "",
          "type": "uint256"
        }
      ],
      "stateMutability": "view",
      "type": "function",
      "constant": true
    },
    {
      "inputs": [
        {
          "internalType": "uint256",
          "name": "",
          "type": "uint256"
        },
        {
          "internalType": "uint256",
          "name": "",
          "type": "uint256"
        }
      ],
      "name": "Misc",
      "outputs": [
        {
          "internalType": "uint256",
          "name": "",
          "type": "uint256"
        }
      ],
      "stateMutability": "view",
      "type": "function",
      "constant": true
    },
    {
      "inputs": [
        {
          "internalType": "uint256",
          "name": "",
          "type": "uint256"
        },
        {
          "internalType": "uint256",
          "name": "",
          "type": "uint256"
        }
      ],
      "name": "Weapons",
      "outputs": [
        {
          "internalType": "uint256",
          "name": "",
          "type": "uint256"
        }
      ],
      "stateMutability": "view",
      "type": "function",
      "constant": true
    },
    {
      "inputs": [
        {
          "internalType": "uint256",
          "name": "",
          "type": "uint256"
        },
        {
          "internalType": "uint256",
          "name": "",
          "type": "uint256"
        }
      ],
      "name": "Wings",
      "outputs": [
        {
          "internalType": "uint256",
          "name": "",
          "type": "uint256"
        }
      ],
      "stateMutability": "view",
      "type": "function",
      "constant": true
    },
    {
      "inputs": [
        {
          "internalType": "address",
          "name": "to",
          "type": "address"
        },
        {
          "internalType": "uint256",
          "name": "tokenId",
          "type": "uint256"
        }
      ],
      "name": "approve",
      "outputs": [],
      "stateMutability": "nonpayable",
      "type": "function"
    },
    {
      "inputs": [
        {
          "internalType": "address",
          "name": "owner",
          "type": "address"
        }
      ],
      "name": "balanceOf",
      "outputs": [
        {
          "internalType": "uint256",
          "name": "",
          "type": "uint256"
        }
      ],
      "stateMutability": "view",
      "type": "function",
      "constant": true
    },
    {
      "inputs": [
        {
          "internalType": "uint256",
          "name": "tokenId",
          "type": "uint256"
        }
      ],
      "name": "getApproved",
      "outputs": [
        {
          "internalType": "address",
          "name": "",
          "type": "address"
        }
      ],
      "stateMutability": "view",
      "type": "function",
      "constant": true
    },
    {
      "inputs": [
        {
          "internalType": "address",
          "name": "owner",
          "type": "address"
        },
        {
          "internalType": "address",
          "name": "operator",
          "type": "address"
        }
      ],
      "name": "isApprovedForAll",
      "outputs": [
        {
          "internalType": "bool",
          "name": "",
          "type": "bool"
        }
      ],
      "stateMutability": "view",
      "type": "function",
      "constant": true
    },
    {
      "inputs": [],
      "name": "name",
      "outputs": [
        {
          "internalType": "string",
          "name": "",
          "type": "string"
        }
      ],
      "stateMutability": "view",
      "type": "function",
      "constant": true
    },
    {
      "inputs": [],
      "name": "owner",
      "outputs": [
        {
          "internalType": "address",
          "name": "",
          "type": "address"
        }
      ],
      "stateMutability": "view",
      "type": "function",
      "constant": true
    },
    {
      "inputs": [
        {
          "internalType": "uint256",
          "name": "tokenId",
          "type": "uint256"
        }
      ],
      "name": "ownerOf",
      "outputs": [
        {
          "internalType": "address",
          "name": "",
          "type": "address"
        }
      ],
      "stateMutability": "view",
      "type": "function",
      "constant": true
    },
    {
      "inputs": [
        {
          "internalType": "address",
          "name": "from",
          "type": "address"
        },
        {
          "internalType": "address",
          "name": "to",
          "type": "address"
        },
        {
          "internalType": "uint256",
          "name": "tokenId",
          "type": "uint256"
        }
      ],
      "name": "safeTransferFrom",
      "outputs": [],
      "stateMutability": "nonpayable",
      "type": "function"
    },
    {
      "inputs": [
        {
          "internalType": "address",
          "name": "from",
          "type": "address"
        },
        {
          "internalType": "address",
          "name": "to",
          "type": "address"
        },
        {
          "internalType": "uint256",
          "name": "tokenId",
          "type": "uint256"
        },
        {
          "internalType": "bytes",
          "name": "data",
          "type": "bytes"
        }
      ],
      "name": "safeTransferFrom",
      "outputs": [],
      "stateMutability": "nonpayable",
      "type": "function"
    },
    {
      "inputs": [
        {
          "internalType": "address",
          "name": "operator",
          "type": "address"
        },
        {
          "internalType": "bool",
          "name": "approved",
          "type": "bool"
        }
      ],
      "name": "setApprovalForAll",
      "outputs": [],
      "stateMutability": "nonpayable",
      "type": "function"
    },
    {
      "inputs": [
        {
          "internalType": "bytes4",
          "name": "interfaceId",
          "type": "bytes4"
        }
      ],
      "name": "supportsInterface",
      "outputs": [
        {
          "internalType": "bool",
          "name": "",
          "type": "bool"
        }
      ],
      "stateMutability": "view",
      "type": "function",
      "constant": true
    },
    {
      "inputs": [],
      "name": "symbol",
      "outputs": [
        {
          "internalType": "string",
          "name": "",
          "type": "string"
        }
      ],
      "stateMutability": "view",
      "type": "function",
      "constant": true
    },
    {
      "inputs": [
        {
          "internalType": "uint256",
          "name": "index",
          "type": "uint256"
        }
      ],
      "name": "tokenByIndex",
      "outputs": [
        {
          "internalType": "uint256",
          "name": "",
          "type": "uint256"
        }
      ],
      "stateMutability": "view",
      "type": "function",
      "constant": true
    },
    {
      "inputs": [
        {
          "internalType": "address",
          "name": "owner",
          "type": "address"
        },
        {
          "internalType": "uint256",
          "name": "index",
          "type": "uint256"
        }
      ],
      "name": "tokenOfOwnerByIndex",
      "outputs": [
        {
          "internalType": "uint256",
          "name": "",
          "type": "uint256"
        }
      ],
      "stateMutability": "view",
      "type": "function",
      "constant": true
    },
    {
      "inputs": [
        {
          "internalType": "uint256",
          "name": "tokenId",
          "type": "uint256"
        }
      ],
      "name": "tokenURI",
      "outputs": [
        {
          "internalType": "string",
          "name": "",
          "type": "string"
        }
      ],
      "stateMutability": "view",
      "type": "function",
      "constant": true
    },
    {
      "inputs": [],
      "name": "totalSupply",
      "outputs": [
        {
          "internalType": "uint256",
          "name": "",
          "type": "uint256"
        }
      ],
      "stateMutability": "view",
      "type": "function",
      "constant": true
    },
    {
      "inputs": [
        {
          "internalType": "address",
          "name": "from",
          "type": "address"
        },
        {
          "internalType": "address",
          "name": "to",
          "type": "address"
        },
        {
          "internalType": "uint256",
          "name": "tokenId",
          "type": "uint256"
        }
      ],
      "name": "transferFrom",
      "outputs": [],
      "stateMutability": "nonpayable",
      "type": "function"
    },
    {
      "inputs": [
        {
          "internalType": "uint256",
          "name": "rarityLevel",
          "type": "uint256"
        }
      ],
      "name": "getWeapons",
      "outputs": [
        {
          "internalType": "uint256[]",
          "name": "",
          "type": "uint256[]"
        }
      ],
      "stateMutability": "view",
      "type": "function",
      "constant": true
    },
    {
      "inputs": [
        {
          "internalType": "uint256",
          "name": "rarityLevel",
          "type": "uint256"
        }
      ],
      "name": "getArmours",
      "outputs": [
        {
          "internalType": "uint256[]",
          "name": "",
          "type": "uint256[]"
        }
      ],
      "stateMutability": "view",
      "type": "function",
      "constant": true
    },
    {
      "inputs": [
        {
          "internalType": "uint256",
          "name": "rarityLevel",
          "type": "uint256"
        }
      ],
      "name": "getJewels",
      "outputs": [
        {
          "internalType": "uint256[]",
          "name": "",
          "type": "uint256[]"
        }
      ],
      "stateMutability": "view",
      "type": "function",
      "constant": true
    },
    {
      "inputs": [
        {
          "internalType": "uint256",
          "name": "rarityLevel",
          "type": "uint256"
        }
      ],
      "name": "getMisc",
      "outputs": [
        {
          "internalType": "uint256[]",
          "name": "",
          "type": "uint256[]"
        }
      ],
      "stateMutability": "view",
      "type": "function",
      "constant": true
    },
    {
      "inputs": [
        {
          "internalType": "uint256",
          "name": "tokenId",
          "type": "uint256"
        },
        {
          "internalType": "uint256",
          "name": "points",
          "type": "uint256"
        }
      ],
      "name": "setAdditionalPoints",
      "outputs": [],
      "stateMutability": "nonpayable",
      "type": "function"
    },
    {
      "inputs": [
        {
          "internalType": "uint256",
          "name": "tokenId",
          "type": "uint256"
        },
        {
          "internalType": "uint256",
          "name": "level",
          "type": "uint256"
        }
      ],
      "name": "setItemLevel",
      "outputs": [],
      "stateMutability": "nonpayable",
      "type": "function"
    },
    {
      "inputs": [
        {
          "internalType": "uint256",
          "name": "tokenId",
          "type": "uint256"
        }
      ],
      "name": "burnItem",
      "outputs": [],
      "stateMutability": "nonpayable",
      "type": "function"
    },
    {
      "inputs": [
        {
          "internalType": "address",
          "name": "ownerAddres",
          "type": "address"
        }
      ],
      "name": "safeMint",
      "outputs": [
        {
          "internalType": "uint256",
          "name": "",
          "type": "uint256"
        }
      ],
      "stateMutability": "nonpayable",
      "type": "function"
    },
    {
      "inputs": [
        {
          "internalType": "uint256",
          "name": "tokenId",
          "type": "uint256"
        },
        {
          "components": [
            {
              "internalType": "string",
              "name": "name",
              "type": "string"
            },
            {
              "internalType": "uint256",
              "name": "tokenId",
              "type": "uint256"
            },
            {
              "internalType": "uint256",
              "name": "itemLevel",
              "type": "uint256"
            },
            {
              "internalType": "uint256",
              "name": "maxLevel",
              "type": "uint256"
            },
            {
              "internalType": "uint256",
              "name": "durability",
              "type": "uint256"
            },
            {
              "internalType": "uint256",
              "name": "classRequired",
              "type": "uint256"
            },
            {
              "internalType": "uint256",
              "name": "strengthRequired",
              "type": "uint256"
            },
            {
              "internalType": "uint256",
              "name": "agilityRequired",
              "type": "uint256"
            },
            {
              "internalType": "uint256",
              "name": "energyRequired",
              "type": "uint256"
            },
            {
              "internalType": "uint256",
              "name": "vitalityRequired",
              "type": "uint256"
            },
            {
              "internalType": "uint256",
              "name": "itemWidth",
              "type": "uint256"
            },
            {
              "internalType": "uint256",
              "name": "itemHeight",
              "type": "uint256"
            },
            {
              "internalType": "uint256",
              "name": "acceptableSlot1",
              "type": "uint256"
            },
            {
              "internalType": "uint256",
              "name": "acceptableSlot2",
              "type": "uint256"
            },
            {
              "internalType": "uint256",
              "name": "baseMinPhysicalDamage",
              "type": "uint256"
            },
            {
              "internalType": "uint256",
              "name": "baseMaxPhysicalDamage",
              "type": "uint256"
            },
            {
              "internalType": "uint256",
              "name": "baseMinMagicDamage",
              "type": "uint256"
            },
            {
              "internalType": "uint256",
              "name": "baseMaxMagicDamage",
              "type": "uint256"
            },
            {
              "internalType": "uint256",
              "name": "baseDefense",
              "type": "uint256"
            },
            {
              "internalType": "uint256",
              "name": "attackSpeed",
              "type": "uint256"
            },
            {
              "internalType": "uint256",
              "name": "additionalDamage",
              "type": "uint256"
            },
            {
              "internalType": "uint256",
              "name": "additionalDefense",
              "type": "uint256"
            },
            {
              "internalType": "uint256",
              "name": "fighterId",
              "type": "uint256"
            },
            {
              "internalType": "uint256",
              "name": "lastUpdBlock",
              "type": "uint256"
            },
            {
              "internalType": "uint256",
              "name": "itemRarityLevel",
              "type": "uint256"
            },
            {
              "internalType": "uint256",
              "name": "itemAttributesId",
              "type": "uint256"
            },
            {
              "internalType": "bool",
              "name": "luck",
              "type": "bool"
            },
            {
              "internalType": "bool",
              "name": "skill",
              "type": "bool"
            },
            {
              "internalType": "bool",
              "name": "isBox",
              "type": "bool"
            },
            {
              "internalType": "bool",
              "name": "isWeapon",
              "type": "bool"
            },
            {
              "internalType": "bool",
              "name": "isArmour",
              "type": "bool"
            },
            {
              "internalType": "bool",
              "name": "isJewel",
              "type": "bool"
            },
            {
              "internalType": "bool",
              "name": "isWings",
              "type": "bool"
            },
            {
              "internalType": "bool",
              "name": "isMisc",
              "type": "bool"
            },
            {
              "internalType": "bool",
              "name": "inShop",
              "type": "bool"
            }
          ],
          "internalType": "struct ItemsAtts.ItemAttributes",
          "name": "atts",
          "type": "tuple"
        }
      ],
      "name": "setTokenAttributes",
      "outputs": [],
      "stateMutability": "nonpayable",
      "type": "function"
    },
    {
      "inputs": [
        {
          "internalType": "uint256",
          "name": "tokenId",
          "type": "uint256"
        }
      ],
      "name": "itemExists",
      "outputs": [
        {
          "internalType": "bool",
          "name": "",
          "type": "bool"
        }
      ],
      "stateMutability": "view",
      "type": "function",
      "constant": true
    },
    {
      "inputs": [
        {
          "components": [
            {
              "internalType": "string",
              "name": "name",
              "type": "string"
            },
            {
              "internalType": "uint256",
              "name": "tokenId",
              "type": "uint256"
            },
            {
              "internalType": "uint256",
              "name": "itemLevel",
              "type": "uint256"
            },
            {
              "internalType": "uint256",
              "name": "maxLevel",
              "type": "uint256"
            },
            {
              "internalType": "uint256",
              "name": "durability",
              "type": "uint256"
            },
            {
              "internalType": "uint256",
              "name": "classRequired",
              "type": "uint256"
            },
            {
              "internalType": "uint256",
              "name": "strengthRequired",
              "type": "uint256"
            },
            {
              "internalType": "uint256",
              "name": "agilityRequired",
              "type": "uint256"
            },
            {
              "internalType": "uint256",
              "name": "energyRequired",
              "type": "uint256"
            },
            {
              "internalType": "uint256",
              "name": "vitalityRequired",
              "type": "uint256"
            },
            {
              "internalType": "uint256",
              "name": "itemWidth",
              "type": "uint256"
            },
            {
              "internalType": "uint256",
              "name": "itemHeight",
              "type": "uint256"
            },
            {
              "internalType": "uint256",
              "name": "acceptableSlot1",
              "type": "uint256"
            },
            {
              "internalType": "uint256",
              "name": "acceptableSlot2",
              "type": "uint256"
            },
            {
              "internalType": "uint256",
              "name": "baseMinPhysicalDamage",
              "type": "uint256"
            },
            {
              "internalType": "uint256",
              "name": "baseMaxPhysicalDamage",
              "type": "uint256"
            },
            {
              "internalType": "uint256",
              "name": "baseMinMagicDamage",
              "type": "uint256"
            },
            {
              "internalType": "uint256",
              "name": "baseMaxMagicDamage",
              "type": "uint256"
            },
            {
              "internalType": "uint256",
              "name": "baseDefense",
              "type": "uint256"
            },
            {
              "internalType": "uint256",
              "name": "attackSpeed",
              "type": "uint256"
            },
            {
              "internalType": "uint256",
              "name": "additionalDamage",
              "type": "uint256"
            },
            {
              "internalType": "uint256",
              "name": "additionalDefense",
              "type": "uint256"
            },
            {
              "internalType": "uint256",
              "name": "fighterId",
              "type": "uint256"
            },
            {
              "internalType": "uint256",
              "name": "lastUpdBlock",
              "type": "uint256"
            },
            {
              "internalType": "uint256",
              "name": "itemRarityLevel",
              "type": "uint256"
            },
            {
              "internalType": "uint256",
              "name": "itemAttributesId",
              "type": "uint256"
            },
            {
              "internalType": "bool",
              "name": "luck",
              "type": "bool"
            },
            {
              "internalType": "bool",
              "name": "skill",
              "type": "bool"
            },
            {
              "internalType": "bool",
              "name": "isBox",
              "type": "bool"
            },
            {
              "internalType": "bool",
              "name": "isWeapon",
              "type": "bool"
            },
            {
              "internalType": "bool",
              "name": "isArmour",
              "type": "bool"
            },
            {
              "internalType": "bool",
              "name": "isJewel",
              "type": "bool"
            },
            {
              "internalType": "bool",
              "name": "isWings",
              "type": "bool"
            },
            {
              "internalType": "bool",
              "name": "isMisc",
              "type": "bool"
            },
            {
              "internalType": "bool",
              "name": "inShop",
              "type": "bool"
            }
          ],
          "internalType": "struct ItemsAtts.ItemAttributes",
          "name": "atts",
          "type": "tuple"
        }
      ],
      "name": "createItem",
      "outputs": [
        {
          "internalType": "uint256",
          "name": "tokenId",
          "type": "uint256"
        }
      ],
      "stateMutability": "nonpayable",
      "type": "function"
    },
    {
      "inputs": [
        {
          "internalType": "uint256",
          "name": "tokenId",
          "type": "uint256"
        },
        {
          "internalType": "address",
          "name": "to",
          "type": "address"
        }
      ],
      "name": "transferItem",
      "outputs": [],
      "stateMutability": "nonpayable",
      "type": "function"
    },
    {
      "inputs": [
        {
          "internalType": "uint256",
          "name": "tokenId",
          "type": "uint256"
        }
      ],
      "name": "getTokenAttributes",
      "outputs": [
        {
          "components": [
            {
              "internalType": "string",
              "name": "name",
              "type": "string"
            },
            {
              "internalType": "uint256",
              "name": "tokenId",
              "type": "uint256"
            },
            {
              "internalType": "uint256",
              "name": "itemLevel",
              "type": "uint256"
            },
            {
              "internalType": "uint256",
              "name": "maxLevel",
              "type": "uint256"
            },
            {
              "internalType": "uint256",
              "name": "durability",
              "type": "uint256"
            },
            {
              "internalType": "uint256",
              "name": "classRequired",
              "type": "uint256"
            },
            {
              "internalType": "uint256",
              "name": "strengthRequired",
              "type": "uint256"
            },
            {
              "internalType": "uint256",
              "name": "agilityRequired",
              "type": "uint256"
            },
            {
              "internalType": "uint256",
              "name": "energyRequired",
              "type": "uint256"
            },
            {
              "internalType": "uint256",
              "name": "vitalityRequired",
              "type": "uint256"
            },
            {
              "internalType": "uint256",
              "name": "itemWidth",
              "type": "uint256"
            },
            {
              "internalType": "uint256",
              "name": "itemHeight",
              "type": "uint256"
            },
            {
              "internalType": "uint256",
              "name": "acceptableSlot1",
              "type": "uint256"
            },
            {
              "internalType": "uint256",
              "name": "acceptableSlot2",
              "type": "uint256"
            },
            {
              "internalType": "uint256",
              "name": "baseMinPhysicalDamage",
              "type": "uint256"
            },
            {
              "internalType": "uint256",
              "name": "baseMaxPhysicalDamage",
              "type": "uint256"
            },
            {
              "internalType": "uint256",
              "name": "baseMinMagicDamage",
              "type": "uint256"
            },
            {
              "internalType": "uint256",
              "name": "baseMaxMagicDamage",
              "type": "uint256"
            },
            {
              "internalType": "uint256",
              "name": "baseDefense",
              "type": "uint256"
            },
            {
              "internalType": "uint256",
              "name": "attackSpeed",
              "type": "uint256"
            },
            {
              "internalType": "uint256",
              "name": "additionalDamage",
              "type": "uint256"
            },
            {
              "internalType": "uint256",
              "name": "additionalDefense",
              "type": "uint256"
            },
            {
              "internalType": "uint256",
              "name": "fighterId",
              "type": "uint256"
            },
            {
              "internalType": "uint256",
              "name": "lastUpdBlock",
              "type": "uint256"
            },
            {
              "internalType": "uint256",
              "name": "itemRarityLevel",
              "type": "uint256"
            },
            {
              "internalType": "uint256",
              "name": "itemAttributesId",
              "type": "uint256"
            },
            {
              "internalType": "bool",
              "name": "luck",
              "type": "bool"
            },
            {
              "internalType": "bool",
              "name": "skill",
              "type": "bool"
            },
            {
              "internalType": "bool",
              "name": "isBox",
              "type": "bool"
            },
            {
              "internalType": "bool",
              "name": "isWeapon",
              "type": "bool"
            },
            {
              "internalType": "bool",
              "name": "isArmour",
              "type": "bool"
            },
            {
              "internalType": "bool",
              "name": "isJewel",
              "type": "bool"
            },
            {
              "internalType": "bool",
              "name": "isWings",
              "type": "bool"
            },
            {
              "internalType": "bool",
              "name": "isMisc",
              "type": "bool"
            },
            {
              "internalType": "bool",
              "name": "inShop",
              "type": "bool"
            }
          ],
          "internalType": "struct ItemsAtts.ItemAttributes",
          "name": "",
          "type": "tuple"
        }
      ],
      "stateMutability": "view",
      "type": "function",
      "constant": true
    },
    {
      "inputs": [
        {
          "internalType": "uint256",
          "name": "itemId",
          "type": "uint256"
        }
      ],
      "name": "getItemAttributes",
      "outputs": [
        {
          "components": [
            {
              "internalType": "string",
              "name": "name",
              "type": "string"
            },
            {
              "internalType": "uint256",
              "name": "tokenId",
              "type": "uint256"
            },
            {
              "internalType": "uint256",
              "name": "itemLevel",
              "type": "uint256"
            },
            {
              "internalType": "uint256",
              "name": "maxLevel",
              "type": "uint256"
            },
            {
              "internalType": "uint256",
              "name": "durability",
              "type": "uint256"
            },
            {
              "internalType": "uint256",
              "name": "classRequired",
              "type": "uint256"
            },
            {
              "internalType": "uint256",
              "name": "strengthRequired",
              "type": "uint256"
            },
            {
              "internalType": "uint256",
              "name": "agilityRequired",
              "type": "uint256"
            },
            {
              "internalType": "uint256",
              "name": "energyRequired",
              "type": "uint256"
            },
            {
              "internalType": "uint256",
              "name": "vitalityRequired",
              "type": "uint256"
            },
            {
              "internalType": "uint256",
              "name": "itemWidth",
              "type": "uint256"
            },
            {
              "internalType": "uint256",
              "name": "itemHeight",
              "type": "uint256"
            },
            {
              "internalType": "uint256",
              "name": "acceptableSlot1",
              "type": "uint256"
            },
            {
              "internalType": "uint256",
              "name": "acceptableSlot2",
              "type": "uint256"
            },
            {
              "internalType": "uint256",
              "name": "baseMinPhysicalDamage",
              "type": "uint256"
            },
            {
              "internalType": "uint256",
              "name": "baseMaxPhysicalDamage",
              "type": "uint256"
            },
            {
              "internalType": "uint256",
              "name": "baseMinMagicDamage",
              "type": "uint256"
            },
            {
              "internalType": "uint256",
              "name": "baseMaxMagicDamage",
              "type": "uint256"
            },
            {
              "internalType": "uint256",
              "name": "baseDefense",
              "type": "uint256"
            },
            {
              "internalType": "uint256",
              "name": "attackSpeed",
              "type": "uint256"
            },
            {
              "internalType": "uint256",
              "name": "additionalDamage",
              "type": "uint256"
            },
            {
              "internalType": "uint256",
              "name": "additionalDefense",
              "type": "uint256"
            },
            {
              "internalType": "uint256",
              "name": "fighterId",
              "type": "uint256"
            },
            {
              "internalType": "uint256",
              "name": "lastUpdBlock",
              "type": "uint256"
            },
            {
              "internalType": "uint256",
              "name": "itemRarityLevel",
              "type": "uint256"
            },
            {
              "internalType": "uint256",
              "name": "itemAttributesId",
              "type": "uint256"
            },
            {
              "internalType": "bool",
              "name": "luck",
              "type": "bool"
            },
            {
              "internalType": "bool",
              "name": "skill",
              "type": "bool"
            },
            {
              "internalType": "bool",
              "name": "isBox",
              "type": "bool"
            },
            {
              "internalType": "bool",
              "name": "isWeapon",
              "type": "bool"
            },
            {
              "internalType": "bool",
              "name": "isArmour",
              "type": "bool"
            },
            {
              "internalType": "bool",
              "name": "isJewel",
              "type": "bool"
            },
            {
              "internalType": "bool",
              "name": "isWings",
              "type": "bool"
            },
            {
              "internalType": "bool",
              "name": "isMisc",
              "type": "bool"
            },
            {
              "internalType": "bool",
              "name": "inShop",
              "type": "bool"
            }
          ],
          "internalType": "struct ItemsAtts.ItemAttributes",
          "name": "",
          "type": "tuple"
        }
      ],
      "stateMutability": "view",
      "type": "function",
      "constant": true
    },
    {
      "inputs": [
        {
          "internalType": "address",
          "name": "userAddress",
          "type": "address"
        }
      ],
      "name": "getUserItems",
      "outputs": [
        {
          "internalType": "uint256[]",
          "name": "",
          "type": "uint256[]"
        }
      ],
      "stateMutability": "view",
      "type": "function",
      "constant": true
    },
    {
      "inputs": [
        {
          "internalType": "address",
          "name": "userAddress",
          "type": "address"
        },
        {
          "internalType": "uint256",
          "name": "fighterId",
          "type": "uint256"
        }
      ],
      "name": "getFighterItems",
      "outputs": [
        {
          "internalType": "uint256[2][]",
          "name": "",
          "type": "uint256[2][]"
        }
      ],
      "stateMutability": "view",
      "type": "function",
      "constant": true
    },
    {
      "inputs": [
        {
          "internalType": "uint256",
          "name": "a",
          "type": "uint256"
        },
        {
          "internalType": "uint256",
          "name": "b",
          "type": "uint256"
        }
      ],
      "name": "safeMul",
      "outputs": [
        {
          "internalType": "uint256",
          "name": "",
          "type": "uint256"
        }
      ],
      "stateMutability": "nonpayable",
      "type": "function"
    },
    {
      "inputs": [
        {
          "internalType": "uint256",
          "name": "a",
          "type": "uint256"
        },
        {
          "internalType": "uint256",
          "name": "b",
          "type": "uint256"
        }
      ],
      "name": "safeSub",
      "outputs": [
        {
          "internalType": "uint256",
          "name": "",
          "type": "uint256"
        }
      ],
      "stateMutability": "nonpayable",
      "type": "function"
    },
    {
      "inputs": [
        {
          "internalType": "uint256",
          "name": "a",
          "type": "uint256"
        },
        {
          "internalType": "uint256",
          "name": "b",
          "type": "uint256"
        }
      ],
      "name": "safeAdd",
      "outputs": [
        {
          "internalType": "uint256",
          "name": "",
          "type": "uint256"
        }
      ],
      "stateMutability": "nonpayable",
      "type": "function"
    }
  ],
  "bytecode": "0x60806040526064600a55601c600b556032600c556032600d55601e600e55601e600f556002601055600160115560006012553480156200003e57600080fd5b50604051620049d2380380620049d283398101604081905262000061916200109d565b604051806040016040528060068152602001651354925554d160d21b815250604051806040016040528060048152602001634974656d60e01b8152508160009081620000ae919062001179565b506001620000bd828262001179565b505060158054336001600160a01b0319918216179091556013805482166001600160a01b038681169190911790915560148054909216908416179055506040805161046081018252606080825260006020830181905292820183905281018290526080810182905260a0810182905260c0810182905260e08101829052610100810182905261012081018290526101408101829052610160810182905261018081018290526101a081018290526101c081018290526101e08101829052610200810182905261022081018290526102408101829052610260810182905261028081018290526102a081018290526102c081018290526102e08101829052610300810182905261032081018290526103408101829052610360810182905261038081018290526103a081018290526103c081018290526103e081018290526104008101829052610420810182905261044081019190915260408051808201909152600a815269456d707479206974656d60b01b6020820152815262000241816200028a565b506200024d8162000685565b60408051808201909152600481526311dbdb1960e21b6020820152815262000275816200028a565b50620002818162000685565b5050506200136e565b601c8054600181018255600091825282518391601b027f0e4562a10381dec21b205ed72637e6b1b523bdd0e4d4d50af5cd23dd4500a21101908190620002d1908262001179565b50602082015160018281019190915560408301516002830155606083015160038301556080830151600483015560a0830151600583015560c0830151600683015560e083015160078301556101008084015160088401556101208401516009840155610140840151600a840155610160840151600b840155610180840151600c8401556101a0840151600d8401556101c0840151600e8401556101e0840151600f840155610200840151601084015561022084015160118401556102408401516012840155610260840151601384015561028084015160148401556102a084015160158401556102c084015160168401556102e0840151601784015561030084015160188401556103208401516019840155610340840151601a90930180546103608601516103808701516103a08801516103c08901516103e08a01516104008b01516104208c0151610440909c015161ffff199097169a151561ff0019169a909a179415159097029390931763ffff00001916620100009215159290920263ff0000001916919091176301000000911515919091021761ffff60201b19166401000000009115159190910260ff60281b19161765010000000000931515939093029290921761ffff60301b191666010000000000009415159490940260ff60381b191693909317670100000000000000941515949094029390931760ff60401b19166801000000000000000093151593909302929092179055601c54600091620004fc9162001245565b905080601c82815481106200051557620005156200126d565b90600052602060002090601b020160190181905550826103a0015115620005635761030083015160009081526016602090815260408220805460018101825590835291200181905562000642565b826103c00151156200059c5761030083015160009081526017602090815260408220805460018101825590835291200181905562000642565b826103e0015115620005d55761030083015160009081526018602090815260408220805460018101825590835291200181905562000642565b826104200151156200060e576103008301516000908152601a602090815260408220805460018101825590835291200181905562000642565b8261040001511562000642576103008301516000908152601960209081526040822080546001810182559083529120018190555b82516040517f0538ce8dba67be446d1a480a6e48683b27c6efb61d7c01d60767e15705e5d00f916200067791849190620012cb565b60405180910390a192915050565b62000694601d80546001019055565b6000620006a0601d5490565b9050620006ae3382620006df565b620006ba818362000705565b6000818152601b60205260408120600181019290925560168201554360179091015550565b62000701828260405180602001604052806000815250620009aa60201b60201c565b5050565b6000828152600260205260409020546001600160a01b03166200076f5760405162461bcd60e51b815260206004820152601460248201527f546f6b656e20646f6573206e6f7420657869737400000000000000000000000060448201526064015b60405180910390fd5b6000828152601b602052604090208151829190819062000790908262001179565b506020820151600182015560408201516002820155606082015160038201556080820151600482015560a0820151600582015560c0820151600682015560e082015160078201556101008083015160088301556101208301516009830155610140830151600a830155610160830151600b830155610180830151600c8301556101a0830151600d8301556101c0830151600e8301556101e0830151600f830155610200830151601083015561022083015160118301556102408301516012830155610260830151601383015561028083015160148301556102a083015160158301556102c083015160168301556102e0830151601783015561030083015160188301556103208301516019830155610340830151601a90920180546103608501516103808601516103a08701516103c08801516103e08901516104008a01516104208b0151610440909b015161ffff1990971699151561ff001916999099179415159097029390931763ffff00001916620100009215159290920263ff0000001916919091176301000000911515919091021761ffff60201b19166401000000009115159190910260ff60281b19161765010000000000931515939093029290921761ffff60301b191666010000000000009315159390930260ff60381b191692909217670100000000000000931515939093029290921760ff60401b191668010000000000000000921515929092029190911790555050565b620009b6838362000a22565b620009c5600084848462000bc3565b62000a1d5760405162461bcd60e51b81526020600482015260326024820152600080516020620049b283398151915260448201527131b2b4bb32b91034b6b83632b6b2b73a32b960711b606482015260840162000766565b505050565b6001600160a01b03821662000a7a5760405162461bcd60e51b815260206004820181905260248201527f4552433732313a206d696e7420746f20746865207a65726f2061646472657373604482015260640162000766565b6000818152600260205260409020546001600160a01b03161562000ae15760405162461bcd60e51b815260206004820152601c60248201527f4552433732313a20746f6b656e20616c7265616479206d696e74656400000000604482015260640162000766565b62000af160008383600162000d0b565b6000818152600260205260409020546001600160a01b03161562000b585760405162461bcd60e51b815260206004820152601c60248201527f4552433732313a20746f6b656e20616c7265616479206d696e74656400000000604482015260640162000766565b6001600160a01b038216600081815260036020908152604080832080546001019055848352600290915280822080546001600160a01b0319168417905551839291907fddf252ad1be2c89b69c2b068fc378daa952ba7f163c4a11628f55a4df523b3ef908290a45050565b60006001600160a01b0384163b1562000cff57604051630a85bd0160e11b81526001600160a01b0385169063150b7a029062000c0a903390899088908890600401620012e6565b6020604051808303816000875af192505050801562000c48575060408051601f3d908101601f1916820190925262000c459181019062001325565b60015b62000ce4573d80801562000c79576040519150601f19603f3d011682016040523d82523d6000602084013e62000c7e565b606091505b50805160000362000cdc5760405162461bcd60e51b81526020600482015260326024820152600080516020620049b283398151915260448201527131b2b4bb32b91034b6b83632b6b2b73a32b960711b606482015260840162000766565b805181602001fd5b6001600160e01b031916630a85bd0160e11b14905062000d03565b5060015b949350505050565b600181111562000d845760405162461bcd60e51b815260206004820152603560248201527f455243373231456e756d657261626c653a20636f6e736563757469766520747260448201527f616e7366657273206e6f7420737570706f727465640000000000000000000000606482015260840162000766565b816001600160a01b03851662000de35762000ddd81600880546000838152600960205260408120829055600182018355919091527ff3f7a9fe364faab93b216da50a3214154f22a0a2b415b23a84c8169e8b636ee30155565b62000e09565b836001600160a01b0316856001600160a01b03161462000e095762000e09858262000e56565b6001600160a01b03841662000e295762000e238162000ef8565b62000e4f565b846001600160a01b0316846001600160a01b03161462000e4f5762000e4f848262000fb2565b5050505050565b6000600162000e658462000ff8565b62000e71919062001245565b60008381526007602052604090205490915080821462000ec5576001600160a01b03841660009081526006602090815260408083208584528252808320548484528184208190558352600790915290208190555b5060009182526007602090815260408084208490556001600160a01b039094168352600681528383209183525290812055565b60085460009062000f0c9060019062001245565b6000838152600960205260408120546008805493945090928490811062000f375762000f376200126d565b90600052602060002001549050806008838154811062000f5b5762000f5b6200126d565b600091825260208083209091019290925582815260099091526040808220849055858252812055600880548062000f965762000f9662001358565b6001900381819060005260206000200160009055905550505050565b600062000fbf8362000ff8565b6001600160a01b039093166000908152600660209081526040808320868452825280832085905593825260079052919091209190915550565b60006001600160a01b038216620010645760405162461bcd60e51b815260206004820152602960248201527f4552433732313a2061646472657373207a65726f206973206e6f7420612076616044820152683634b21037bbb732b960b91b606482015260840162000766565b506001600160a01b031660009081526003602052604090205490565b80516001600160a01b03811681146200109857600080fd5b919050565b60008060408385031215620010b157600080fd5b620010bc8362001080565b9150620010cc6020840162001080565b90509250929050565b634e487b7160e01b600052604160045260246000fd5b600181811c908216806200110057607f821691505b6020821081036200112157634e487b7160e01b600052602260045260246000fd5b50919050565b601f82111562000a1d57600081815260208120601f850160051c81016020861015620011505750805b601f850160051c820191505b8181101562001171578281556001016200115c565b505050505050565b81516001600160401b03811115620011955762001195620010d5565b620011ad81620011a68454620010eb565b8462001127565b602080601f831160018114620011e55760008415620011cc5750858301515b600019600386901b1c1916600185901b17855562001171565b600085815260208120601f198616915b828110156200121657888601518255948401946001909101908401620011f5565b5085821015620012355787850151600019600388901b60f8161c191681555b5050505050600190811b01905550565b818103818111156200126757634e487b7160e01b600052601160045260246000fd5b92915050565b634e487b7160e01b600052603260045260246000fd5b6000815180845260005b81811015620012ab576020818501810151868301820152016200128d565b506000602082860101526020601f19601f83011685010191505092915050565b82815260406020820152600062000d03604083018462001283565b6001600160a01b03858116825284166020820152604081018390526080606082018190526000906200131b9083018462001283565b9695505050505050565b6000602082840312156200133857600080fd5b81516001600160e01b0319811681146200135157600080fd5b9392505050565b634e487b7160e01b600052603160045260246000fd5b613634806200137e6000396000f3fe608060405234801561001057600080fd5b50600436106102525760003560e01c806370a0823111610146578063c29a3c93116100c3578063e6cb901311610087578063e6cb901314610540578063e8af18f314610553578063e985e9c514610566578063f4d10654146105a2578063fd8f6170146105b5578063feee783e146105c857600080fd5b8063c29a3c93146104e1578063c87b56dd146104f4578063caf7c44514610507578063ce6019b41461051a578063d05c78da1461052d57600080fd5b8063a22cb4651161010a578063a22cb46514610482578063a293d1e814610495578063a4229101146104a8578063af8881c5146104bb578063b88d4fde146104ce57600080fd5b806370a082311461042e578063843bd641146104415780638da5cb5b1461045457806395d89b41146104675780639b94680f1461046f57600080fd5b80632f745c59116101d4578063513c145211610198578063513c1452146103c2578063576cc0f7146103e257806363503447146103f55780636352211e146104085780636995795b1461041b57600080fd5b80632f745c591461036357806332fac8f81461037657806340d097c31461038957806342842e0e1461039c5780634f6ccce7146103af57600080fd5b8063081812fc1161021b578063081812fc146102e8578063095ea7b31461031357806318160ddd146103285780631f4f5a231461033057806323b872dd1461035057600080fd5b8062695f4b1461025757806301ffc9a71461027d57806303d2e4a1146102a057806303f46b8b146102b357806306fdde03146102d3575b600080fd5b61026a6102653660046129a7565b6105db565b6040519081526020015b60405180910390f35b61029061028b3660046129df565b61060c565b6040519015158152602001610274565b61026a6102ae3660046129a7565b610637565b6102c66102c13660046129fc565b610653565b6040516102749190612a15565b6102db6106b5565b6040516102749190612aa9565b6102fb6102f63660046129fc565b610747565b6040516001600160a01b039091168152602001610274565b610326610321366004612ad8565b61076e565b005b60085461026a565b61034361033e3660046129fc565b610888565b6040516102749190612b02565b61032661035e366004612d1d565b610b10565b61026a610371366004612ad8565b610b41565b6103266103843660046129a7565b610bd7565b61026a610397366004612d59565b610dba565b6103266103aa366004612d1d565b610de1565b61026a6103bd3660046129fc565b610dfc565b6103d56103d0366004612ad8565b610e8f565b6040516102749190612d74565b6103266103f03660046129fc565b610f9d565b61026a6104033660046129a7565b61103c565b6102fb6104163660046129fc565b611058565b6103436104293660046129fc565b6110b8565b61026a61043c366004612d59565b611144565b61029061044f3660046129fc565b6111ca565b6015546102fb906001600160a01b031681565b6102db6111d5565b6102c661047d3660046129fc565b6111e4565b610326610490366004612ded565b611244565b61026a6104a33660046129a7565b611253565b6103266104b6366004612e20565b611276565b61026a6104c9366004613110565b6112be565b6103266104dc366004613145565b6116a1565b61026a6104ef3660046129a7565b6116d9565b6102db6105023660046129fc565b6116f5565b6103266105153660046129a7565b611768565b6102c6610528366004612d59565b61188e565b61026a61053b3660046129a7565b611930565b61026a61054e3660046129a7565b611960565b6102c66105613660046129fc565b61198a565b6102906105743660046131c1565b6001600160a01b03918216600090815260056020908152604080832093909416825291909152205460ff1690565b61026a6105b03660046129a7565b6119ea565b6102c66105c33660046129fc565b611a06565b6103266105d63660046131eb565b611a66565b601960205281600052604060002081815481106105f757600080fd5b90600052602060002001600091509150505481565b60006001600160e01b0319821663780e9d6360e01b1480610631575061063182611cbe565b92915050565b601860205281600052604060002081815481106105f757600080fd5b6000818152601860209081526040918290208054835181840281018401909452808452606093928301828280156106a957602002820191906000526020600020905b815481526020019060010190808311610695575b50505050509050919050565b6060600080546106c490613232565b80601f01602080910402602001604051908101604052809291908181526020018280546106f090613232565b801561073d5780601f106107125761010080835404028352916020019161073d565b820191906000526020600020905b81548152906001019060200180831161072057829003601f168201915b5050505050905090565b600061075282611d0e565b506000908152600460205260409020546001600160a01b031690565b600061077982611058565b9050806001600160a01b0316836001600160a01b0316036107eb5760405162461bcd60e51b815260206004820152602160248201527f4552433732313a20617070726f76616c20746f2063757272656e74206f776e656044820152603960f91b60648201526084015b60405180910390fd5b336001600160a01b038216148061080757506108078133610574565b6108795760405162461bcd60e51b815260206004820152603d60248201527f4552433732313a20617070726f76652063616c6c6572206973206e6f7420746f60448201527f6b656e206f776e6572206f7220617070726f76656420666f7220616c6c00000060648201526084016107e2565b6108838383611d5e565b505050565b610890612875565b61089982611dcc565b6108b55760405162461bcd60e51b81526004016107e29061326c565b6000828152601b602052604090819020815161046081019092528054829082906108de90613232565b80601f016020809104026020016040519081016040528092919081815260200182805461090a90613232565b80156109575780601f1061092c57610100808354040283529160200191610957565b820191906000526020600020905b81548152906001019060200180831161093a57829003601f168201915b505050918352505060018201546020820152600282015460408201526003820154606082015260048201546080820152600582015460a0820152600682015460c0820152600782015460e08201526008820154610100808301919091526009830154610120830152600a830154610140830152600b830154610160830152600c830154610180830152600d8301546101a0830152600e8301546101c0830152600f8301546101e08301526010830154610200830152601183015461022083015260128301546102408301526013830154610260830152601483015461028083015260158301546102a083015260168301546102c083015260178301546102e083015260188301546103008301526019830154610320830152601a9092015460ff8082161515610340840152928104831615156103608301526201000081048316151561038083015263010000008104831615156103a08301526401000000008104831615156103c0830152650100000000008104831615156103e0830152600160301b810483161515610400830152600160381b810483161515610420830152600160401b900490911615156104409091015292915050565b610b1a3382611de9565b610b365760405162461bcd60e51b81526004016107e29061329a565b610883838383611e68565b6000610b4c83611144565b8210610bae5760405162461bcd60e51b815260206004820152602b60248201527f455243373231456e756d657261626c653a206f776e657220696e646578206f7560448201526a74206f6620626f756e647360a81b60648201526084016107e2565b506001600160a01b03919091166000908152600660209081526040808320938352929052205490565b600b54811115610c1e5760405162461bcd60e51b815260206004820152601260248201527113585e081c1bda5b9d1cc81c995858da195960721b60448201526064016107e2565b6000828152601b60205260409020601a01546301000000900460ff1680610c5e57506000828152601b60205260409020601a0154640100000000900460ff165b80610c8157506000828152601b60205260409020601a0154600160301b900460ff165b610cc25760405162461bcd60e51b815260206004820152601260248201527113585e081c1bda5b9d1cc81c995858da195960721b60448201526064016107e2565b6000828152601b60205260409020601a01546301000000900460ff1680610d0157506000828152601b60205260409020601a0154600160301b900460ff165b15610d1f576000828152601b60205260409020601401819055610d56565b6000828152601b60205260409020601a0154640100000000900460ff1615610d56576000828152601b602052604090206015018190555b6000828152601b6020526040902060148101546015909101547feb0459535a230602900381169fbc16d356c03aaccc2d5579b42d132d65ffa82a918491610d9d91906132fd565b604080519283526020830191909152015b60405180910390a15050565b6000610dca601d80546001019055565b6000610dd5601d5490565b90506106318382611fd9565b610883838383604051806020016040528060008152506116a1565b6000610e0760085490565b8210610e6a5760405162461bcd60e51b815260206004820152602c60248201527f455243373231456e756d657261626c653a20676c6f62616c20696e646578206f60448201526b7574206f6620626f756e647360a01b60648201526084016107e2565b60088281548110610e7d57610e7d613310565b90600052602060002001549050919050565b60606000610e9c84611144565b905060008167ffffffffffffffff811115610eb957610eb9612e43565b604051908082528060200260200182016040528015610ef257816020015b610edf612989565b815260200190600190039081610ed75790505b509050600080805b84811015610f9157610f0c8882610b41565b6000818152601b6020526040902060160154909350879003610f71576040518060400160405280848152602001601b600086815260200190815260200160002060170154815250848381518110610f6557610f65613310565b60200260200101819052505b81610f7b81613326565b9250508080610f8990613326565b915050610efa565b50919695505050505050565b60018111610fe55760405162461bcd60e51b8152602060048201526015602482015274151bdad95b8818d85b9b9bdd08189948189d5c9b9d605a1b60448201526064016107e2565b610fee81611dcc565b6110305760405162461bcd60e51b8152602060048201526013602482015272151bdad95b88191bd95cdb89dd08195e1a5cdd606a1b60448201526064016107e2565b61103981611ff3565b50565b601760205281600052604060002081815481106105f757600080fd5b6000818152600260205260408120546001600160a01b0316806106315760405162461bcd60e51b8152602060048201526018602482015277115490cdcc8c4e881a5b9d985b1a59081d1bdad95b88125160421b60448201526064016107e2565b6110c0612875565b601c5482106111075760405162461bcd60e51b8152602060048201526013602482015272125d195b48191bd95cc81b9bdd08195e1a5cdd606a1b60448201526064016107e2565b601c828154811061111a5761111a613310565b90600052602060002090601b0201604051806104600160405290816000820180546108de90613232565b60006001600160a01b0382166111ae5760405162461bcd60e51b815260206004820152602960248201527f4552433732313a2061646472657373207a65726f206973206e6f7420612076616044820152683634b21037bbb732b960b91b60648201526084016107e2565b506001600160a01b031660009081526003602052604090205490565b600061063182611dcc565b6060600180546106c490613232565b6000818152601760209081526040918290208054835181840281018401909452808452606093928301828280156106a957602002820191906000526020600020908154815260200190600101908083116106955750505050509050919050565b61124f338383612096565b5050565b6000828211156112655761126561333f565b61126f8284613355565b9392505050565b61127f82611dcc565b61129b5760405162461bcd60e51b81526004016107e29061326c565b6000828152600260205260409020546001600160a01b0316610883818385611e68565b601c8054600181018255600091825282518391601b027f0e4562a10381dec21b205ed72637e6b1b523bdd0e4d4d50af5cd23dd4500a2110190819061130390826133b6565b50602082015160018281019190915560408301516002830155606083015160038301556080830151600483015560a0830151600583015560c0830151600683015560e083015160078301556101008084015160088401556101208401516009840155610140840151600a840155610160840151600b840155610180840151600c8401556101a0840151600d8401556101c0840151600e8401556101e0840151600f840155610200840151601084015561022084015160118401556102408401516012840155610260840151601384015561028084015160148401556102a084015160158401556102c084015160168401556102e0840151601784015561030084015160188401556103208401516019840155610340840151601a90930180546103608601516103808701516103a08801516103c08901516103e08a01516104008b01516104208c0151610440909c015161ffff199097169a151561ff0019169a909a179415159097029390931763ffff00001916620100009215159290920263ff0000001916919091176301000000911515919091021765ffff0000000019166401000000009115159190910265ff000000000019161765010000000000931515939093029290921767ffff0000000000001916600160301b9415159490940260ff60381b191693909317600160381b941515949094029390931760ff60401b1916600160401b93151593909302929092179055601c5460009161152691613355565b905080601c828154811061153c5761153c613310565b90600052602060002090601b020160190181905550826103a001511561158857610300830151600090815260166020908152604082208054600181018255908352912001819055611660565b826103c00151156115bf57610300830151600090815260176020908152604082208054600181018255908352912001819055611660565b826103e00151156115f657610300830151600090815260186020908152604082208054600181018255908352912001819055611660565b8261042001511561162d576103008301516000908152601a6020908152604082208054600181018255908352912001819055611660565b82610400015115611660576103008301516000908152601960209081526040822080546001810182559083529120018190555b82516040517f0538ce8dba67be446d1a480a6e48683b27c6efb61d7c01d60767e15705e5d00f9161169391849190613476565b60405180910390a192915050565b6116ab3383611de9565b6116c75760405162461bcd60e51b81526004016107e29061329a565b6116d384848484612164565b50505050565b601a60205281600052604060002081815481106105f757600080fd5b606061170082611d0e565b600061171760408051602081019091526000815290565b90506000815111611737576040518060200160405280600081525061126f565b8061174184612197565b60405160200161175292919061348f565b6040516020818303038152906040529392505050565b6000828152601b60205260409020600301548111156117c25760405162461bcd60e51b815260206004820152601660248201527513585e081a5d195b481b195d995b081c995858da195960521b60448201526064016107e2565b6000828152601b60205260409020600201546117df9060016132fd565b8111156118435760405162461bcd60e51b815260206004820152602c60248201527f4974656d2063616e2062652075706772616465206f6e65206c6576656c20617460448201526b20612074696d65206f6e6c7960a01b60648201526084016107e2565b6000828152601b602090815260409182902060020183905581518481529081018390527f535fb4315d70f1b2d62609c85f8b9cd714e3687d6cee1a46ff7947f852bf71649101610dae565b6060600061189b83611144565b905060008167ffffffffffffffff8111156118b8576118b8612e43565b6040519080825280602002602001820160405280156118e1578160200160208202803683370190505b50905060005b82811015611928576118f98582610b41565b82828151811061190b5761190b613310565b60209081029190910101528061192081613326565b9150506118e7565b509392505050565b60008061193d83856134be565b905083158061195457508261195285836134d5565b145b61126f5761126f61333f565b60008061196d83856132fd565b905083811015801561195457508281101561126f5761126f61333f565b6000818152601660209081526040918290208054835181840281018401909452808452606093928301828280156106a957602002820191906000526020600020908154815260200190600101908083116106955750505050509050919050565b601660205281600052604060002081815481106105f757600080fd5b6000818152601a60209081526040918290208054835181840281018401909452808452606093928301828280156106a957602002820191906000526020600020908154815260200190600101908083116106955750505050509050919050565b611a6f82611dcc565b611a8b5760405162461bcd60e51b81526004016107e29061326c565b6000828152601b6020526040902081518291908190611aaa90826133b6565b506020820151600182015560408201516002820155606082015160038201556080820151600482015560a0820151600582015560c0820151600682015560e082015160078201556101008083015160088301556101208301516009830155610140830151600a830155610160830151600b830155610180830151600c8301556101a0830151600d8301556101c0830151600e8301556101e0830151600f830155610200830151601083015561022083015160118301556102408301516012830155610260830151601383015561028083015160148301556102a083015160158301556102c083015160168301556102e0830151601783015561030083015160188301556103208301516019830155610340830151601a90920180546103608501516103808601516103a08701516103c08801516103e08901516104008a01516104208b0151610440909b015161ffff1990971699151561ff001916999099179415159097029390931763ffff00001916620100009215159290920263ff0000001916919091176301000000911515919091021765ffff0000000019166401000000009115159190910265ff000000000019161765010000000000931515939093029290921767ffff0000000000001916600160301b9315159390930260ff60381b191692909217600160381b931515939093029290921760ff60401b1916600160401b921515929092029190911790555050565b60006001600160e01b031982166380ac58cd60e01b1480611cef57506001600160e01b03198216635b5e139f60e01b145b8061063157506301ffc9a760e01b6001600160e01b0319831614610631565b611d1781611dcc565b6110395760405162461bcd60e51b8152602060048201526018602482015277115490cdcc8c4e881a5b9d985b1a59081d1bdad95b88125160421b60448201526064016107e2565b600081815260046020526040902080546001600160a01b0319166001600160a01b0384169081179091558190611d9382611058565b6001600160a01b03167f8c5be1e5ebec7d5bd14f71427d1e84f3dd0314c0f7b2291e5b200ac8c7c3b92560405160405180910390a45050565b6000908152600260205260409020546001600160a01b0316151590565b600080611df583611058565b9050806001600160a01b0316846001600160a01b03161480611e3c57506001600160a01b0380821660009081526005602090815260408083209388168352929052205460ff165b80611e605750836001600160a01b0316611e5584610747565b6001600160a01b0316145b949350505050565b826001600160a01b0316611e7b82611058565b6001600160a01b031614611ea15760405162461bcd60e51b81526004016107e2906134f7565b6001600160a01b038216611f035760405162461bcd60e51b8152602060048201526024808201527f4552433732313a207472616e7366657220746f20746865207a65726f206164646044820152637265737360e01b60648201526084016107e2565b611f10838383600161222a565b826001600160a01b0316611f2382611058565b6001600160a01b031614611f495760405162461bcd60e51b81526004016107e2906134f7565b600081815260046020908152604080832080546001600160a01b03199081169091556001600160a01b0387811680865260038552838620805460001901905590871680865283862080546001019055868652600290945282852080549092168417909155905184937fddf252ad1be2c89b69c2b068fc378daa952ba7f163c4a11628f55a4df523b3ef91a4505050565b61124f82826040518060200160405280600081525061235e565b6000611ffe82611058565b905061200e81600084600161222a565b61201782611058565b600083815260046020908152604080832080546001600160a01b03199081169091556001600160a01b0385168085526003845282852080546000190190558785526002909352818420805490911690555192935084927fddf252ad1be2c89b69c2b068fc378daa952ba7f163c4a11628f55a4df523b3ef908390a45050565b816001600160a01b0316836001600160a01b0316036120f75760405162461bcd60e51b815260206004820152601960248201527f4552433732313a20617070726f766520746f2063616c6c65720000000000000060448201526064016107e2565b6001600160a01b03838116600081815260056020908152604080832094871680845294825291829020805460ff191686151590811790915591519182527f17307eab39ab6107e8899845ad3d59bd9653f200f220920489ca2b5937696c31910160405180910390a3505050565b61216f848484611e68565b61217b84848484612391565b6116d35760405162461bcd60e51b81526004016107e29061353c565b606060006121a483612492565b600101905060008167ffffffffffffffff8111156121c4576121c4612e43565b6040519080825280601f01601f1916602001820160405280156121ee576020820181803683370190505b5090508181016020015b600019016f181899199a1a9b1b9c1cb0b131b232b360811b600a86061a8153600a85049450846121f857509392505050565b60018111156122995760405162461bcd60e51b815260206004820152603560248201527f455243373231456e756d657261626c653a20636f6e7365637574697665207472604482015274185b9cd9995c9cc81b9bdd081cdd5c1c1bdc9d1959605a1b60648201526084016107e2565b816001600160a01b0385166122f5576122f081600880546000838152600960205260408120829055600182018355919091527ff3f7a9fe364faab93b216da50a3214154f22a0a2b415b23a84c8169e8b636ee30155565b612318565b836001600160a01b0316856001600160a01b03161461231857612318858261256a565b6001600160a01b0384166123345761232f81612607565b612357565b846001600160a01b0316846001600160a01b0316146123575761235784826126b6565b5050505050565b61236883836126fa565b6123756000848484612391565b6108835760405162461bcd60e51b81526004016107e29061353c565b60006001600160a01b0384163b1561248757604051630a85bd0160e11b81526001600160a01b0385169063150b7a02906123d590339089908890889060040161358e565b6020604051808303816000875af1925050508015612410575060408051601f3d908101601f1916820190925261240d918101906135cb565b60015b61246d573d80801561243e576040519150601f19603f3d011682016040523d82523d6000602084013e612443565b606091505b5080516000036124655760405162461bcd60e51b81526004016107e29061353c565b805181602001fd5b6001600160e01b031916630a85bd0160e11b149050611e60565b506001949350505050565b60008072184f03e93ff9f4daa797ed6e38ed64bf6a1f0160401b83106124d15772184f03e93ff9f4daa797ed6e38ed64bf6a1f0160401b830492506040015b6d04ee2d6d415b85acef810000000083106124fd576d04ee2d6d415b85acef8100000000830492506020015b662386f26fc10000831061251b57662386f26fc10000830492506010015b6305f5e1008310612533576305f5e100830492506008015b612710831061254757612710830492506004015b60648310612559576064830492506002015b600a83106106315760010192915050565b6000600161257784611144565b6125819190613355565b6000838152600760205260409020549091508082146125d4576001600160a01b03841660009081526006602090815260408083208584528252808320548484528184208190558352600790915290208190555b5060009182526007602090815260408084208490556001600160a01b039094168352600681528383209183525290812055565b60085460009061261990600190613355565b6000838152600960205260408120546008805493945090928490811061264157612641613310565b90600052602060002001549050806008838154811061266257612662613310565b600091825260208083209091019290925582815260099091526040808220849055858252812055600880548061269a5761269a6135e8565b6001900381819060005260206000200160009055905550505050565b60006126c183611144565b6001600160a01b039093166000908152600660209081526040808320868452825280832085905593825260079052919091209190915550565b6001600160a01b0382166127505760405162461bcd60e51b815260206004820181905260248201527f4552433732313a206d696e7420746f20746865207a65726f206164647265737360448201526064016107e2565b61275981611dcc565b156127a65760405162461bcd60e51b815260206004820152601c60248201527f4552433732313a20746f6b656e20616c7265616479206d696e7465640000000060448201526064016107e2565b6127b460008383600161222a565b6127bd81611dcc565b1561280a5760405162461bcd60e51b815260206004820152601c60248201527f4552433732313a20746f6b656e20616c7265616479206d696e7465640000000060448201526064016107e2565b6001600160a01b038216600081815260036020908152604080832080546001019055848352600290915280822080546001600160a01b0319168417905551839291907fddf252ad1be2c89b69c2b068fc378daa952ba7f163c4a11628f55a4df523b3ef908290a45050565b60405180610460016040528060608152602001600081526020016000815260200160008152602001600081526020016000815260200160008152602001600081526020016000815260200160008152602001600081526020016000815260200160008152602001600081526020016000815260200160008152602001600081526020016000815260200160008152602001600081526020016000815260200160008152602001600081526020016000815260200160008152602001600081526020016000151581526020016000151581526020016000151581526020016000151581526020016000151581526020016000151581526020016000151581526020016000151581526020016000151581525090565b60405180604001604052806002906020820280368337509192915050565b600080604083850312156129ba57600080fd5b50508035926020909101359150565b6001600160e01b03198116811461103957600080fd5b6000602082840312156129f157600080fd5b813561126f816129c9565b600060208284031215612a0e57600080fd5b5035919050565b6020808252825182820181905260009190848201906040850190845b81811015612a4d57835183529284019291840191600101612a31565b50909695505050505050565b60005b83811015612a74578181015183820152602001612a5c565b50506000910152565b60008151808452612a95816020860160208601612a59565b601f01601f19169290920160200192915050565b60208152600061126f6020830184612a7d565b80356001600160a01b0381168114612ad357600080fd5b919050565b60008060408385031215612aeb57600080fd5b612af483612abc565b946020939093013593505050565b6020815260008251610460806020850152612b21610480850183612a7d565b602086015160408681019190915286015160608087019190915286015160808087019190915286015160a08087019190915286015160c08087019190915286015160e08087019190915286015161010080870191909152860151610120808701919091528601516101408087019190915286015161016080870191909152860151610180808701919091528601516101a0808701919091528601516101c0808701919091528601516101e08087019190915286015161020080870191909152860151610220808701919091528601516102408087019190915286015161026080870191909152860151610280808701919091528601516102a0808701919091528601516102c0808701919091528601516102e080870191909152860151610300808701919091528601516103208087019190915286015161034080870191909152860151909250610360612c788187018315159052565b8601519050610380612c8d8682018315159052565b86015190506103a0612ca28682018315159052565b86015190506103c0612cb78682018315159052565b86015190506103e0612ccc8682018315159052565b8601519050610400612ce18682018315159052565b8601519050610420612cf68682018315159052565b8601519050610440612d0b8682018315159052565b90950151151593019290925250919050565b600080600060608486031215612d3257600080fd5b612d3b84612abc565b9250612d4960208501612abc565b9150604084013590509250925092565b600060208284031215612d6b57600080fd5b61126f82612abc565b60208082528251828201819052600091906040908185019086840185805b83811015612dcf57825185835b6002811015612dbc57825182529189019190890190600101612d9f565b5050509385019391860191600101612d92565b509298975050505050505050565b80358015158114612ad357600080fd5b60008060408385031215612e0057600080fd5b612e0983612abc565b9150612e1760208401612ddd565b90509250929050565b60008060408385031215612e3357600080fd5b82359150612e1760208401612abc565b634e487b7160e01b600052604160045260246000fd5b604051610460810167ffffffffffffffff81118282101715612e7d57612e7d612e43565b60405290565b600067ffffffffffffffff80841115612e9e57612e9e612e43565b604051601f8501601f19908116603f01168101908282118183101715612ec657612ec6612e43565b81604052809350858152868686011115612edf57600080fd5b858560208301376000602087830101525050509392505050565b600082601f830112612f0a57600080fd5b61126f83833560208501612e83565b60006104608284031215612f2c57600080fd5b612f34612e59565b9050813567ffffffffffffffff811115612f4d57600080fd5b612f5984828501612ef9565b8252506020828101359082015260408083013590820152606080830135908201526080808301359082015260a0808301359082015260c0808301359082015260e08083013590820152610100808301359082015261012080830135908201526101408083013590820152610160808301359082015261018080830135908201526101a080830135908201526101c080830135908201526101e08083013590820152610200808301359082015261022080830135908201526102408083013590820152610260808301359082015261028080830135908201526102a080830135908201526102c080830135908201526102e0808301359082015261030080830135908201526103208083013590820152610340613076818401612ddd565b90820152610360613088838201612ddd565b9082015261038061309a838201612ddd565b908201526103a06130ac838201612ddd565b908201526103c06130be838201612ddd565b908201526103e06130d0838201612ddd565b908201526104006130e2838201612ddd565b908201526104206130f4838201612ddd565b90820152610440613106838201612ddd565b9082015292915050565b60006020828403121561312257600080fd5b813567ffffffffffffffff81111561313957600080fd5b611e6084828501612f19565b6000806000806080858703121561315b57600080fd5b61316485612abc565b935061317260208601612abc565b925060408501359150606085013567ffffffffffffffff81111561319557600080fd5b8501601f810187136131a657600080fd5b6131b587823560208401612e83565b91505092959194509250565b600080604083850312156131d457600080fd5b6131dd83612abc565b9150612e1760208401612abc565b600080604083850312156131fe57600080fd5b82359150602083013567ffffffffffffffff81111561321c57600080fd5b61322885828601612f19565b9150509250929050565b600181811c9082168061324657607f821691505b60208210810361326657634e487b7160e01b600052602260045260246000fd5b50919050565b602080825260149082015273151bdad95b88191bd95cc81b9bdd08195e1a5cdd60621b604082015260600190565b6020808252602d908201527f4552433732313a2063616c6c6572206973206e6f7420746f6b656e206f776e6560408201526c1c881bdc88185c1c1c9bdd9959609a1b606082015260800190565b634e487b7160e01b600052601160045260246000fd5b80820180821115610631576106316132e7565b634e487b7160e01b600052603260045260246000fd5b600060018201613338576133386132e7565b5060010190565b634e487b7160e01b600052600160045260246000fd5b81810381811115610631576106316132e7565b601f82111561088357600081815260208120601f850160051c8101602086101561338f5750805b601f850160051c820191505b818110156133ae5782815560010161339b565b505050505050565b815167ffffffffffffffff8111156133d0576133d0612e43565b6133e4816133de8454613232565b84613368565b602080601f83116001811461341957600084156134015750858301515b600019600386901b1c1916600185901b1785556133ae565b600085815260208120601f198616915b8281101561344857888601518255948401946001909101908401613429565b50858210156134665787850151600019600388901b60f8161c191681555b5050505050600190811b01905550565b828152604060208201526000611e606040830184612a7d565b600083516134a1818460208801612a59565b8351908301906134b5818360208801612a59565b01949350505050565b8082028115828204841417610631576106316132e7565b6000826134f257634e487b7160e01b600052601260045260246000fd5b500490565b60208082526025908201527f4552433732313a207472616e736665722066726f6d20696e636f72726563742060408201526437bbb732b960d91b606082015260800190565b60208082526032908201527f4552433732313a207472616e7366657220746f206e6f6e20455243373231526560408201527131b2b4bb32b91034b6b83632b6b2b73a32b960711b606082015260800190565b6001600160a01b03858116825284166020820152604081018390526080606082018190526000906135c190830184612a7d565b9695505050505050565b6000602082840312156135dd57600080fd5b815161126f816129c9565b634e487b7160e01b600052603160045260246000fdfea264697066735822122015fab38e724a82ffd323b8d6262c830e92a0778e8ab1593c05753976b0c51cc464736f6c634300081300334552433732313a207472616e7366657220746f206e6f6e204552433732315265",
  "immutableReferences": {},
  "source": "// SPDX-License-Identifier: MIT\npragma solidity ^0.8.18;\n\nimport \"@openzeppelin/contracts/token/ERC721/ERC721.sol\";\nimport \"@openzeppelin/contracts/token/ERC721/extensions/ERC721Enumerable.sol\";\nimport \"@openzeppelin/contracts/utils/Counters.sol\";\n\nimport \"truffle/Console.sol\";\nimport \"./ItemsAtts.sol\";\nimport \"./FightersHelper.sol\";\nimport \"./MoneyHelper.sol\";\n\ncontract Items is ERC721Enumerable, ItemsAtts {\n    using Counters for Counters.Counter;\n    FightersHelper private _fightersHelper;\n    MoneyHelper private _moneyHelper;\n\n    address public owner;\n\n    constructor(address fightersHelperContract, address moneyHelperContract) ERC721(\"MRIUSD\", \"Item\") {\n        owner = msg.sender;\n        _fightersHelper = FightersHelper(fightersHelperContract);  \n        _moneyHelper = MoneyHelper(moneyHelperContract);\n\n        // create empty item\n        ItemAttributes memory emptyAtts;\n        emptyAtts.name = \"Empty item\";\n        createItem(emptyAtts);\n        generateInitialTokens(emptyAtts);\n\n        // create item for gold\n        emptyAtts.name = \"Gold\";\n        createItem(emptyAtts);\n        generateInitialTokens(emptyAtts);\n    }\n\n\n    mapping (uint256 => uint256[]) public Weapons; // mapping of rarityLevel => tokenId[]\n    mapping (uint256 => uint256[]) public Armours; // mapping of rarityLevel => tokenId[]\n    mapping (uint256 => uint256[]) public Jewels; // mapping of rarityLevel => tokenId[]\n    mapping (uint256 => uint256[]) public Wings; // mapping of rarityLevel => tokenId[]\n    mapping (uint256 => uint256[]) public Misc; // mapping of rarityLevel => tokenId[]\n\n    // mapping (bytes32 => uint256) public dropHashes;\n\n    function getWeapons(uint256 rarityLevel) public view returns(uint256[] memory) {\n        return Weapons[rarityLevel];\n    }\n    function getArmours(uint256 rarityLevel) public view returns(uint256[] memory) {\n        return Armours[rarityLevel];\n    }\n    function getJewels(uint256 rarityLevel) public view returns(uint256[] memory) {\n        return Jewels[rarityLevel];\n    }\n    function getMisc(uint256 rarityLevel) public view returns(uint256[] memory) {\n        return Misc[rarityLevel];\n    }\n\n\n    // struct DropParams {\n    //     uint256 weaponsDropRate;\n    //     uint256 armoursDropRate;\n    //     uint256 jewelsDropRate;\n    //     uint256 miscDropRate;\n    //     uint256 boxDropRate;\n\n    //     uint256 excDropRate;\n    //     uint256 boxId;\n\n    //     uint256 minItemLevel;\n    //     uint256 maxItemLevel;\n    //     uint256 maxAddPoints;\n\n    //     uint256 blockCrated;\n    // }\n\n    // mapping (uint256 => DropParams) public DropParamsList; // mapping of rarityLevels to drop parameters\n    // mapping (uint256 => DropParams) public BoxDropPramsList; // mapping of rarityLevels to drop parameters\n\n    event ItemGenerated(uint256 itemId, string name);\n    event LogError(uint8, uint256);\n    // event DropParametersChange(uint256 rarityLevel, DropParams params);\n    // event BoxDropParametersChange(uint256 rarityLevel, DropParams params);\n    \n    event ItemCrafted(uint256 tokenId, address owner);\n    // event BoxOppened(uint256 tokenId, uint256 rarityLevel, address owner);\n    event ItemBoughtFromShop(uint256 tokenId, uint256 itemId, address owner, string itemName);\n\n    event ItemLevelUpgrade(uint256 tokenId, uint256 newLevel);\n    event ItemAddPointsUpdate(uint256 tokenId, uint256 newAddPoints);\n\n    // event ItemDropped(bytes32 itemHash, ItemAttributes item, uint256 qty, uint256 tokenId);\n    // event ItemPicked(uint256 tokenId, uint256 fighterId, uint256 qty);\n\n    function setAdditionalPoints(uint256 tokenId, uint256 points) external {\n        require(points <= maxAdditionalPoints, \"Max points reached\");\n        require(_tokenAttributes[tokenId].isWeapon || _tokenAttributes[tokenId].isArmour || _tokenAttributes[tokenId].isWings , \"Max points reached\");\n        if (_tokenAttributes[tokenId].isWeapon || _tokenAttributes[tokenId].isWings) {\n            _tokenAttributes[tokenId].additionalDamage = points;\n        } else if (_tokenAttributes[tokenId].isArmour) { \n            _tokenAttributes[tokenId].additionalDefense = points;\n        } \n\n        emit ItemAddPointsUpdate(tokenId, _tokenAttributes[tokenId].additionalDefense + _tokenAttributes[tokenId].additionalDamage);\n    }\n\n    function generateInitialTokens(ItemAttributes memory itemAtts) internal {\n        _tokenIdCounter.increment();\n        uint256 newTokenId = _tokenIdCounter.current();\n\n        _safeMint(msg.sender, newTokenId);\n        _setTokenAttributes(newTokenId, itemAtts);\n\n        _tokenAttributes[newTokenId].tokenId = newTokenId;      \n        _tokenAttributes[newTokenId].fighterId = 0;      \n        _tokenAttributes[newTokenId].lastUpdBlock = block.number; \n    }\n\n    function setItemLevel(uint256 tokenId, uint256 level)  external {\n        require(level <= _tokenAttributes[tokenId].maxLevel, \"Max item level reached\");\n        require(level <= _tokenAttributes[tokenId].itemLevel+1, \"Item can be upgrade one level at a time only\");\n\n        _tokenAttributes[tokenId].itemLevel = level;\n        emit ItemLevelUpgrade(tokenId, _tokenAttributes[tokenId].itemLevel);  \n    }\n\n    function burnItem(uint256 tokenId) external {\n        require(tokenId > 1, \"Token cannot be burnt\");\n        require(_exists(tokenId), \"Token doesn't exist\");\n        _burn(tokenId);\n    }\n\n    // function openBox(uint256 tokenId) external returns (uint256) {\n    //     require(_exists(tokenId), \"Token doesn't exist\");\n    //     ItemAttributes memory box = _tokenAttributes[tokenId];\n    //     DropParams memory params = BoxDropPramsList[box.itemRarityLevel];\n\n    //     ItemAttributes memory itemAtts = getDropItem(box.itemRarityLevel, params);\n\n    //     uint256 qty = 1;\n\n    //     bytes32 itemHash = keccak256(abi.encode(itemAtts, qty, block.number));\n    //     dropHashes[itemHash] = qty;\n    //      emit ItemDropped(itemHash, itemAtts, qty, 0);\n    //     _burn(tokenId);\n       \n    // }    \n\n    function safeMint(address ownerAddres) external returns (uint256) {\n        _tokenIdCounter.increment();\n        uint256 newTokenId = _tokenIdCounter.current();\n        _safeMint(ownerAddres, newTokenId);\n\n        return newTokenId;\n    }\n\n    function setTokenAttributes(uint256 tokenId, ItemAttributes memory atts) external {\n        require(_exists(tokenId), \"Token does not exist\");\n        _tokenAttributes[tokenId] = atts;\n    }\n\n    // function getDropQty(bytes32 dropHash) external returns(uint256) {\n    //     return dropHashes[dropHash];\n    // }\n\n    // function createDropHash(bytes32 itemHash, uint256 qty) external {\n    //     dropHashes[itemHash] = qty;\n    // }\n\n    function itemExists(uint256 tokenId) public view returns(bool) {\n        return _exists(tokenId);\n    }\n\n    // function setDropParams(uint256 rarityLevel, DropParams memory params) external {\n    //     DropParamsList[rarityLevel] = params;\n    //     emit DropParametersChange(rarityLevel, params);\n    // }\n\n    // function setBoxDropParams(uint256 rarityLevel, DropParams memory params) external {\n    //     BoxDropPramsList[rarityLevel] = params;\n    //     emit BoxDropParametersChange(rarityLevel, params);\n    // }\n\n    function createItem(ItemAttributes memory atts) public returns (uint256 tokenId) {                \n        _itemAttributes.push(atts);   \n         uint256 itemId = _itemAttributes.length - 1;   \n         _itemAttributes[itemId].itemAttributesId = itemId;\n\n         if (atts.isWeapon) {\n            Weapons[atts.itemRarityLevel].push(itemId);\n         } else if (atts.isArmour) {\n            Armours[atts.itemRarityLevel].push(itemId);\n         } else if (atts.isJewel) {\n            Jewels[atts.itemRarityLevel].push(itemId);\n         } else if (atts.isMisc) {\n            Misc[atts.itemRarityLevel].push(itemId);\n         } else if (atts.isWings) {\n            Wings[atts.itemRarityLevel].push(itemId);\n         }\n\n        emit ItemGenerated(itemId, atts.name);\n        return itemId;\n    }\n\n    function transferItem(uint256 tokenId, address to) external {\n        require(_exists(tokenId), \"Token does not exist\");\n        address from = _ownerOf(tokenId);\n        _transfer(from, to, tokenId);\n    }\n\n    // function getDropItem(uint256 rarityLevel, DropParams memory params) internal returns (ItemAttributes memory) {\n\n    //     uint256 randomNumber = getRandomNumberMax(0, 100);\n    //     uint256 randomItem;\n        \n    //     //emit LogDropValues(randomNumber, params.jewelsDropRate, params.weaponsDropRate, params.armoursDropRate, params.miscDropRate, params.boxDropRate);\n        \n    //     uint256 cumulativeRate = params.jewelsDropRate;\n    //     if (randomNumber < cumulativeRate) {\n    //         randomItem = returnRandomItemFromDropList(100, Jewels[rarityLevel]);\n    //     } else {\n    //         cumulativeRate += params.armoursDropRate;\n    //         if (randomNumber < cumulativeRate) {\n    //             randomItem = returnRandomItemFromDropList(101, Armours[rarityLevel]);\n    //         } else {\n    //             cumulativeRate += params.weaponsDropRate;\n    //             if (randomNumber < cumulativeRate) {\n    //                 randomItem = returnRandomItemFromDropList(102, Weapons[rarityLevel]);\n    //             } else {\n    //                 cumulativeRate += params.miscDropRate;\n    //                 if (randomNumber < cumulativeRate) {\n    //                     randomItem = returnRandomItemFromDropList(103, Misc[rarityLevel]);\n    //                 } else {\n    //                     cumulativeRate += params.boxDropRate;\n    //                     if (randomNumber < cumulativeRate) {\n    //                         randomItem = params.boxId;\n    //                     } else {\n    //                         randomItem = 1;\n    //                     }\n    //                 }\n    //             }\n    //         }\n    //     }\n\n\n    //     ItemAttributes memory itemAtts = _itemAttributes[randomItem];\n    //     itemAtts.itemAttributesId = randomItem;\n\n\n    //     if (!itemAtts.isJewel && !itemAtts.isMisc && !itemAtts.isBox && getRandomNumber(1) <= luckDropRate && itemAtts.itemAttributesId != 1 && itemAtts.itemAttributesId != 2) {\n    //         itemAtts.luck  = true;\n    //     }\n\n    //     if (itemAtts.isWeapon && getRandomNumber(2) <= skillDropRate) {\n    //         itemAtts.skill  = true;\n    //     }\n\n    //     if (itemAtts.isBox) {\n    //         itemAtts.itemLevel = rarityLevel;\n    //     } else if (!itemAtts.isMisc && !itemAtts.isJewel && itemAtts.itemAttributesId != 1 && itemAtts.itemAttributesId != 2) {\n    //         itemAtts.itemLevel = params.minItemLevel + getRandomNumber(4) % (params.maxItemLevel-params.minItemLevel+1);\n\n    //         if (itemAtts.isWeapon) {\n    //             itemAtts.additionalDamage = 4 * (getRandomNumber(5) % (params.maxAddPoints/4+1));\n    //         } else if (itemAtts.isArmour) {\n    //             itemAtts.additionalDefense = 4 * (getRandomNumber(5) % (params.maxAddPoints/4+1));\n    //         }\n    //     }\n\n    //     if ((itemAtts.isWeapon || itemAtts.isArmour) && getRandomNumberMax(3, 1000) <= params.excDropRate) {\n    //         itemAtts = addExcelentOption(itemAtts);\n    //     }\n\n    //     return itemAtts;  \n    // }\n\n    // function dropItem(uint256 rarityLevel, uint256 fighterId, uint256 experience) external returns (bytes32) {\n    //     DropParams memory params = DropParamsList[rarityLevel];\n    //     require(params.blockCrated > 0, \"No drop parameters for rarityLevel\");\n    //     require(experience > 0, \"Experience must be non zero\");\n\n    //     ItemAttributes memory itemAtts = getDropItem(rarityLevel, params);        \n\n    //     uint256 randomNumber = getRandomNumber(200);\n\n    //     uint256 qty = 1;\n\n    //     if (randomNumber > generalDropRate) {\n    //         itemAtts = _itemAttributes[1];\n    //         emit ItemDropped(dummyHash, itemAtts, 0, 0);\n    //         return 0;\n    //     }\n\n    //     if (itemAtts.itemAttributesId == goldItemId) {\n    //         qty = max(1, experience/_moneyHelper.getExperienceDivider());\n    //     }\n\n    //     bytes32 itemHash = keccak256(abi.encode(itemAtts, qty, block.number));\n    //     dropHashes[itemHash] = qty;\n    //     emit ItemDropped(itemHash, itemAtts, qty, 0);\n    //     return itemHash;\n    // }\n\n\n    // // This function is for development and testing only\n    // // Should be removed in Production\n    // function makeItem(ItemAttributes memory itemAtts) external returns (bytes32) {\n    //     bytes32 itemHash = keccak256(abi.encode(itemAtts, 1, block.number));\n    //     dropHashes[itemHash] = 1;\n    //     emit ItemDropped(itemHash, itemAtts, 1, 0);\n    //     return itemHash;\n    // }\n\n    \n\n    // function craftItem(uint256 itemId, address itemOwner, uint256 maxLevel, uint256 maxAddPoints) public returns (uint256) {\n    //     require(_itemAttributes.length > itemId, \"Item attributes not found\");\n    //     ItemAttributes memory itemAtts = _itemAttributes[itemId];\n\n    //     if ((itemAtts.isWeapon || itemAtts.isArmour) && getRandomNumber(50) < luckDropRate)\n    //     {\n    //         itemAtts.luck = true;\n\n    //     }\n\n    //     if (itemAtts.isWeapon && getRandomNumber(51) < skillDropRate)\n    //     {\n    //         itemAtts.skill = true;\n    //     }\n\n    //     if (itemAtts.isWeapon || itemAtts.isArmour)\n    //     {\n    //         if (maxLevel > 0)\n    //         {\n    //             itemAtts.itemLevel = getRandomNumber(53) % (maxLevel + 1);\n    //         }\n\n    //         if (maxAddPoints > 0)\n    //         {\n    //             if (itemAtts.isWeapon) {\n    //                 itemAtts.additionalDamage = (getRandomNumber(54) % (maxAddPoints/4 + 1)) * 4;\n    //             } else if (itemAtts.isArmour) {\n    //                 itemAtts.additionalDefense = (getRandomNumber(54) % (maxAddPoints/4 + 1)) * 4;\n    //             }\n    //         }                \n    //     }        \n\n    //     _tokenIdCounter.increment();\n    //     uint256 newTokenId = _tokenIdCounter.current();\n        \n    //     _safeMint(itemOwner, newTokenId);\n \n    //     _setTokenAttributes(newTokenId, itemAtts);\n\n    //     _tokenAttributes[newTokenId].tokenId = newTokenId;      \n    //     _tokenAttributes[newTokenId].itemAttributesId = itemId;      \n    //     _tokenAttributes[newTokenId].fighterId = 0;      \n    //     _tokenAttributes[newTokenId].lastUpdBlock = block.number; \n\n    //     emit ItemCrafted(newTokenId, itemOwner);\n\n    //     return newTokenId;\n    // }     \n\n    // function getWeaponsLength(uint256 rarityLevel) public view returns (uint256) {\n    //     return Weapons[rarityLevel].length;\n    // }\n\n    // function getArmoursLength(uint256 rarityLevel) public view returns (uint256) {\n    //     return Armours[rarityLevel].length;\n    // }\n\n    // function getJewelsLength(uint256 rarityLevel) public view returns (uint256) {\n    //     return Jewels[rarityLevel].length;\n    // }\n\n    // function getMiscsLength(uint256 rarityLevel) public view returns (uint256) {\n    //     return Misc[rarityLevel].length;\n    // }    \n\n    // function buyItemFromShop(uint256 itemId, uint256 fighterId) external {\n    //     require(_itemAttributes[itemId].inShop, \"Item not in shop or doesn't exist\");\n\n    //     // money logic\n\n    //     _tokenIdCounter.increment();\n    //     uint256 tokenId = _tokenIdCounter.current();\n    //     _safeMint(msg.sender, tokenId);\n    //     _setTokenAttributes(tokenId, _itemAttributes[itemId]);\n\n    //     _tokenAttributes[tokenId].tokenId = tokenId;      \n    //     _tokenAttributes[tokenId].itemAttributesId = itemId;      \n    //     _tokenAttributes[tokenId].fighterId = fighterId;      \n    //     _tokenAttributes[tokenId].lastUpdBlock = block.number;      \n\n    //     emit ItemBoughtFromShop(tokenId, itemId, msg.sender, _tokenAttributes[tokenId].name);\n    // }\n\n    // Get the attributes for a fighter NFT\n    function getTokenAttributes(uint256 tokenId) public view returns (ItemAttributes memory) {\n        require(_exists(tokenId), \"Token does not exist\");\n\n        return _tokenAttributes[tokenId];\n    }\n\n    // Get the attributes for a fighter NFT\n    function getItemAttributes(uint256 itemId) public view returns (ItemAttributes memory) {\n        require(_itemAttributes.length > itemId, \"Item does not exist\");\n\n        return _itemAttributes[itemId];\n    }\n\n    mapping (uint256 => ItemAttributes) private _tokenAttributes;\n    ItemAttributes[] private _itemAttributes;\n    Counters.Counter private _tokenIdCounter;\n\n    ItemAttributes boxAttributes;\n\n\n\n    function getUserItems(address userAddress) external view returns (uint256[] memory) {\n        \n        uint256 numTokens = balanceOf(userAddress);\n        uint256[] memory tokenIds = new uint256[](numTokens);\n\n        for (uint256 i = 0; i < numTokens; i++) {\n            tokenIds[i] = tokenOfOwnerByIndex(userAddress, i);\n        }\n\n        return tokenIds;\n    }\n\n\n    function getFighterItems(address userAddress, uint256 fighterId) external view returns (uint256[2][] memory) {\n        \n        uint256 numTokens = balanceOf(userAddress);\n        uint256[2][] memory tokenIds = new uint256[2][](numTokens);\n\n        uint256 id;\n        uint counter = 0;\n\n        for (uint256 i = 0; i < numTokens; i++) {\n            id = tokenOfOwnerByIndex(userAddress, i);\n            if (_tokenAttributes[id].fighterId == fighterId)\n            {\n                tokenIds[counter] = [id, _tokenAttributes[id].lastUpdBlock];\n            }\n            \n            counter++;\n        }\n\n        return tokenIds;\n    }\n\n\n    function _setTokenAttributes(uint256 tokenId, ItemAttributes memory attrs) internal {\n        require(_exists(tokenId), \"Token does not exist\");\n\n        _tokenAttributes[tokenId] = attrs;\n    }\n\n\n    // Returns the smaller of two values\n    function min(uint a, uint b) private pure returns (uint) {\n        return a < b ? a : b;\n    }\n\n    // Returns the largest of the two values\n    function max(uint a, uint b) private pure returns (uint) {\n        return a > b ? a : b;\n    }\n\n    // Safe Multiply Function - prevents integer overflow \n    function safeMul(uint a, uint b) public returns (uint) {\n        uint c = a * b;\n        assert(a == 0 || c / a == b);\n        return c;\n    }\n\n    // Safe Subtraction Function - prevents integer overflow \n    function safeSub(uint a, uint b) public returns (uint) {\n        assert(b <= a);\n        return a - b;\n    }\n\n    // Safe Addition Function - prevents integer overflow \n    function safeAdd(uint a, uint b) public returns (uint) {\n        uint c = a + b;\n        assert(c>=a && c>=b);\n        return c;\n    }\n\n}",
  "sourcePath": "/Users/max/Documents/prog/game-contracts/contracts/Items.sol",
  "compiler": {
    "name": "solc",
    "version": "0.8.19+commit.7dd6d404.Emscripten.clang"
  },
  "schemaVersion": "3.4.13",
  "updatedAt": "2023-07-30T04:48:21.158Z",
  "networkType": "ethereum",
  "devdoc": {
    "events": {
      "Approval(address,address,uint256)": {
        "details": "Emitted when `owner` enables `approved` to manage the `tokenId` token."
      },
      "ApprovalForAll(address,address,bool)": {
        "details": "Emitted when `owner` enables or disables (`approved`) `operator` to manage all of its assets."
      },
      "Transfer(address,address,uint256)": {
        "details": "Emitted when `tokenId` token is transferred from `from` to `to`."
      }
    },
    "kind": "dev",
    "methods": {
      "approve(address,uint256)": {
        "details": "See {IERC721-approve}."
      },
      "balanceOf(address)": {
        "details": "See {IERC721-balanceOf}."
      },
      "getApproved(uint256)": {
        "details": "See {IERC721-getApproved}."
      },
      "isApprovedForAll(address,address)": {
        "details": "See {IERC721-isApprovedForAll}."
      },
      "name()": {
        "details": "See {IERC721Metadata-name}."
      },
      "ownerOf(uint256)": {
        "details": "See {IERC721-ownerOf}."
      },
      "safeTransferFrom(address,address,uint256)": {
        "details": "See {IERC721-safeTransferFrom}."
      },
      "safeTransferFrom(address,address,uint256,bytes)": {
        "details": "See {IERC721-safeTransferFrom}."
      },
      "setApprovalForAll(address,bool)": {
        "details": "See {IERC721-setApprovalForAll}."
      },
      "supportsInterface(bytes4)": {
        "details": "See {IERC165-supportsInterface}."
      },
      "symbol()": {
        "details": "See {IERC721Metadata-symbol}."
      },
      "tokenByIndex(uint256)": {
        "details": "See {IERC721Enumerable-tokenByIndex}."
      },
      "tokenOfOwnerByIndex(address,uint256)": {
        "details": "See {IERC721Enumerable-tokenOfOwnerByIndex}."
      },
      "tokenURI(uint256)": {
        "details": "See {IERC721Metadata-tokenURI}."
      },
      "totalSupply()": {
        "details": "See {IERC721Enumerable-totalSupply}."
      },
      "transferFrom(address,address,uint256)": {
        "details": "See {IERC721-transferFrom}."
      }
    },
    "version": 1
  },
  "userdoc": {
    "kind": "user",
    "methods": {},
    "version": 1
  }
}