{
  "contractName": "Items",
  "abi": [
    {
      "inputs": [
        {
          "internalType": "address",
          "name": "ItemsBaseContract",
          "type": "address"
        },
        {
          "internalType": "address",
          "name": "fightersHelperContract",
          "type": "address"
        }
      ],
      "stateMutability": "nonpayable",
      "type": "constructor"
    },
    {
      "anonymous": false,
      "inputs": [
        {
          "indexed": true,
          "internalType": "address",
          "name": "owner",
          "type": "address"
        },
        {
          "indexed": true,
          "internalType": "address",
          "name": "approved",
          "type": "address"
        },
        {
          "indexed": true,
          "internalType": "uint256",
          "name": "tokenId",
          "type": "uint256"
        }
      ],
      "name": "Approval",
      "type": "event"
    },
    {
      "anonymous": false,
      "inputs": [
        {
          "indexed": true,
          "internalType": "address",
          "name": "owner",
          "type": "address"
        },
        {
          "indexed": true,
          "internalType": "address",
          "name": "operator",
          "type": "address"
        },
        {
          "indexed": false,
          "internalType": "bool",
          "name": "approved",
          "type": "bool"
        }
      ],
      "name": "ApprovalForAll",
      "type": "event"
    },
    {
      "anonymous": false,
      "inputs": [
        {
          "indexed": false,
          "internalType": "uint256",
          "name": "tokenId",
          "type": "uint256"
        },
        {
          "indexed": false,
          "internalType": "string",
          "name": "itemName",
          "type": "string"
        },
        {
          "indexed": false,
          "internalType": "address",
          "name": "owner",
          "type": "address"
        }
      ],
      "name": "ItemCraftedForShop",
      "type": "event"
    },
    {
      "anonymous": false,
      "inputs": [
        {
          "indexed": false,
          "internalType": "uint256",
          "name": "tokenId",
          "type": "uint256"
        },
        {
          "indexed": false,
          "internalType": "uint256",
          "name": "newLevel",
          "type": "uint256"
        }
      ],
      "name": "ItemLevelUpgrade",
      "type": "event"
    },
    {
      "anonymous": false,
      "inputs": [
        {
          "indexed": true,
          "internalType": "address",
          "name": "from",
          "type": "address"
        },
        {
          "indexed": true,
          "internalType": "address",
          "name": "to",
          "type": "address"
        },
        {
          "indexed": true,
          "internalType": "uint256",
          "name": "tokenId",
          "type": "uint256"
        }
      ],
      "name": "Transfer",
      "type": "event"
    },
    {
      "inputs": [
        {
          "internalType": "address",
          "name": "to",
          "type": "address"
        },
        {
          "internalType": "uint256",
          "name": "tokenId",
          "type": "uint256"
        }
      ],
      "name": "approve",
      "outputs": [],
      "stateMutability": "nonpayable",
      "type": "function"
    },
    {
      "inputs": [
        {
          "internalType": "address",
          "name": "owner",
          "type": "address"
        }
      ],
      "name": "balanceOf",
      "outputs": [
        {
          "internalType": "uint256",
          "name": "",
          "type": "uint256"
        }
      ],
      "stateMutability": "view",
      "type": "function",
      "constant": true
    },
    {
      "inputs": [
        {
          "internalType": "uint256",
          "name": "tokenId",
          "type": "uint256"
        }
      ],
      "name": "getApproved",
      "outputs": [
        {
          "internalType": "address",
          "name": "",
          "type": "address"
        }
      ],
      "stateMutability": "view",
      "type": "function",
      "constant": true
    },
    {
      "inputs": [
        {
          "internalType": "uint256",
          "name": "seed",
          "type": "uint256"
        }
      ],
      "name": "getRandomNumber",
      "outputs": [
        {
          "internalType": "uint256",
          "name": "",
          "type": "uint256"
        }
      ],
      "stateMutability": "view",
      "type": "function",
      "constant": true
    },
    {
      "inputs": [
        {
          "internalType": "uint256",
          "name": "seed",
          "type": "uint256"
        },
        {
          "internalType": "uint256",
          "name": "maxNum",
          "type": "uint256"
        }
      ],
      "name": "getRandomNumberMax",
      "outputs": [
        {
          "internalType": "uint256",
          "name": "",
          "type": "uint256"
        }
      ],
      "stateMutability": "view",
      "type": "function",
      "constant": true
    },
    {
      "inputs": [
        {
          "internalType": "address",
          "name": "owner",
          "type": "address"
        },
        {
          "internalType": "address",
          "name": "operator",
          "type": "address"
        }
      ],
      "name": "isApprovedForAll",
      "outputs": [
        {
          "internalType": "bool",
          "name": "",
          "type": "bool"
        }
      ],
      "stateMutability": "view",
      "type": "function",
      "constant": true
    },
    {
      "inputs": [
        {
          "internalType": "uint256",
          "name": "a",
          "type": "uint256"
        },
        {
          "internalType": "uint256",
          "name": "b",
          "type": "uint256"
        }
      ],
      "name": "max",
      "outputs": [
        {
          "internalType": "uint256",
          "name": "",
          "type": "uint256"
        }
      ],
      "stateMutability": "view",
      "type": "function",
      "constant": true
    },
    {
      "inputs": [
        {
          "internalType": "uint256",
          "name": "a",
          "type": "uint256"
        },
        {
          "internalType": "uint256",
          "name": "b",
          "type": "uint256"
        }
      ],
      "name": "min",
      "outputs": [
        {
          "internalType": "uint256",
          "name": "",
          "type": "uint256"
        }
      ],
      "stateMutability": "view",
      "type": "function",
      "constant": true
    },
    {
      "inputs": [],
      "name": "name",
      "outputs": [
        {
          "internalType": "string",
          "name": "",
          "type": "string"
        }
      ],
      "stateMutability": "view",
      "type": "function",
      "constant": true
    },
    {
      "inputs": [],
      "name": "owner",
      "outputs": [
        {
          "internalType": "address",
          "name": "",
          "type": "address"
        }
      ],
      "stateMutability": "view",
      "type": "function",
      "constant": true
    },
    {
      "inputs": [
        {
          "internalType": "uint256",
          "name": "tokenId",
          "type": "uint256"
        }
      ],
      "name": "ownerOf",
      "outputs": [
        {
          "internalType": "address",
          "name": "",
          "type": "address"
        }
      ],
      "stateMutability": "view",
      "type": "function",
      "constant": true
    },
    {
      "inputs": [
        {
          "internalType": "uint256",
          "name": "a",
          "type": "uint256"
        },
        {
          "internalType": "uint256",
          "name": "b",
          "type": "uint256"
        }
      ],
      "name": "safeAdd",
      "outputs": [
        {
          "internalType": "uint256",
          "name": "",
          "type": "uint256"
        }
      ],
      "stateMutability": "view",
      "type": "function",
      "constant": true
    },
    {
      "inputs": [
        {
          "internalType": "uint256",
          "name": "a",
          "type": "uint256"
        },
        {
          "internalType": "uint256",
          "name": "b",
          "type": "uint256"
        }
      ],
      "name": "safeMul",
      "outputs": [
        {
          "internalType": "uint256",
          "name": "",
          "type": "uint256"
        }
      ],
      "stateMutability": "view",
      "type": "function",
      "constant": true
    },
    {
      "inputs": [
        {
          "internalType": "uint256",
          "name": "a",
          "type": "uint256"
        },
        {
          "internalType": "uint256",
          "name": "b",
          "type": "uint256"
        }
      ],
      "name": "safeSub",
      "outputs": [
        {
          "internalType": "uint256",
          "name": "",
          "type": "uint256"
        }
      ],
      "stateMutability": "view",
      "type": "function",
      "constant": true
    },
    {
      "inputs": [
        {
          "internalType": "address",
          "name": "from",
          "type": "address"
        },
        {
          "internalType": "address",
          "name": "to",
          "type": "address"
        },
        {
          "internalType": "uint256",
          "name": "tokenId",
          "type": "uint256"
        }
      ],
      "name": "safeTransferFrom",
      "outputs": [],
      "stateMutability": "nonpayable",
      "type": "function"
    },
    {
      "inputs": [
        {
          "internalType": "address",
          "name": "from",
          "type": "address"
        },
        {
          "internalType": "address",
          "name": "to",
          "type": "address"
        },
        {
          "internalType": "uint256",
          "name": "tokenId",
          "type": "uint256"
        },
        {
          "internalType": "bytes",
          "name": "data",
          "type": "bytes"
        }
      ],
      "name": "safeTransferFrom",
      "outputs": [],
      "stateMutability": "nonpayable",
      "type": "function"
    },
    {
      "inputs": [
        {
          "internalType": "address",
          "name": "operator",
          "type": "address"
        },
        {
          "internalType": "bool",
          "name": "approved",
          "type": "bool"
        }
      ],
      "name": "setApprovalForAll",
      "outputs": [],
      "stateMutability": "nonpayable",
      "type": "function"
    },
    {
      "inputs": [
        {
          "internalType": "string",
          "name": "a",
          "type": "string"
        },
        {
          "internalType": "string",
          "name": "b",
          "type": "string"
        }
      ],
      "name": "stringsEqual",
      "outputs": [
        {
          "internalType": "bool",
          "name": "",
          "type": "bool"
        }
      ],
      "stateMutability": "view",
      "type": "function",
      "constant": true
    },
    {
      "inputs": [
        {
          "internalType": "bytes4",
          "name": "interfaceId",
          "type": "bytes4"
        }
      ],
      "name": "supportsInterface",
      "outputs": [
        {
          "internalType": "bool",
          "name": "",
          "type": "bool"
        }
      ],
      "stateMutability": "view",
      "type": "function",
      "constant": true
    },
    {
      "inputs": [],
      "name": "symbol",
      "outputs": [
        {
          "internalType": "string",
          "name": "",
          "type": "string"
        }
      ],
      "stateMutability": "view",
      "type": "function",
      "constant": true
    },
    {
      "inputs": [
        {
          "internalType": "uint256",
          "name": "index",
          "type": "uint256"
        }
      ],
      "name": "tokenByIndex",
      "outputs": [
        {
          "internalType": "uint256",
          "name": "",
          "type": "uint256"
        }
      ],
      "stateMutability": "view",
      "type": "function",
      "constant": true
    },
    {
      "inputs": [
        {
          "internalType": "address",
          "name": "owner",
          "type": "address"
        },
        {
          "internalType": "uint256",
          "name": "index",
          "type": "uint256"
        }
      ],
      "name": "tokenOfOwnerByIndex",
      "outputs": [
        {
          "internalType": "uint256",
          "name": "",
          "type": "uint256"
        }
      ],
      "stateMutability": "view",
      "type": "function",
      "constant": true
    },
    {
      "inputs": [
        {
          "internalType": "uint256",
          "name": "tokenId",
          "type": "uint256"
        }
      ],
      "name": "tokenURI",
      "outputs": [
        {
          "internalType": "string",
          "name": "",
          "type": "string"
        }
      ],
      "stateMutability": "view",
      "type": "function",
      "constant": true
    },
    {
      "inputs": [],
      "name": "totalSupply",
      "outputs": [
        {
          "internalType": "uint256",
          "name": "",
          "type": "uint256"
        }
      ],
      "stateMutability": "view",
      "type": "function",
      "constant": true
    },
    {
      "inputs": [
        {
          "internalType": "address",
          "name": "from",
          "type": "address"
        },
        {
          "internalType": "address",
          "name": "to",
          "type": "address"
        },
        {
          "internalType": "uint256",
          "name": "tokenId",
          "type": "uint256"
        }
      ],
      "name": "transferFrom",
      "outputs": [],
      "stateMutability": "nonpayable",
      "type": "function"
    },
    {
      "inputs": [
        {
          "internalType": "uint256",
          "name": "tokenId",
          "type": "uint256"
        },
        {
          "internalType": "uint256",
          "name": "level",
          "type": "uint256"
        }
      ],
      "name": "setItemLevel",
      "outputs": [],
      "stateMutability": "nonpayable",
      "type": "function"
    },
    {
      "inputs": [
        {
          "internalType": "uint256",
          "name": "tokenId",
          "type": "uint256"
        }
      ],
      "name": "burnItem",
      "outputs": [],
      "stateMutability": "nonpayable",
      "type": "function"
    },
    {
      "inputs": [
        {
          "internalType": "address",
          "name": "ownerAddres",
          "type": "address"
        }
      ],
      "name": "safeMint",
      "outputs": [
        {
          "internalType": "uint256",
          "name": "",
          "type": "uint256"
        }
      ],
      "stateMutability": "nonpayable",
      "type": "function"
    },
    {
      "inputs": [
        {
          "internalType": "uint256",
          "name": "tokenId",
          "type": "uint256"
        },
        {
          "components": [
            {
              "internalType": "string",
              "name": "name",
              "type": "string"
            },
            {
              "internalType": "uint256",
              "name": "tokenId",
              "type": "uint256"
            },
            {
              "internalType": "uint256",
              "name": "itemLevel",
              "type": "uint256"
            },
            {
              "internalType": "uint256",
              "name": "maxLevel",
              "type": "uint256"
            },
            {
              "internalType": "uint256",
              "name": "additionalDamage",
              "type": "uint256"
            },
            {
              "internalType": "uint256",
              "name": "additionalDefense",
              "type": "uint256"
            },
            {
              "internalType": "uint256",
              "name": "fighterId",
              "type": "uint256"
            },
            {
              "internalType": "uint256",
              "name": "lastUpdBlock",
              "type": "uint256"
            },
            {
              "internalType": "uint256",
              "name": "itemRarityLevel",
              "type": "uint256"
            },
            {
              "internalType": "uint256",
              "name": "packSize",
              "type": "uint256"
            },
            {
              "internalType": "bool",
              "name": "luck",
              "type": "bool"
            },
            {
              "internalType": "bool",
              "name": "skill",
              "type": "bool"
            },
            {
              "internalType": "bool",
              "name": "isPackable",
              "type": "bool"
            },
            {
              "internalType": "bool",
              "name": "isBox",
              "type": "bool"
            },
            {
              "internalType": "bool",
              "name": "isWeapon",
              "type": "bool"
            },
            {
              "internalType": "bool",
              "name": "isArmour",
              "type": "bool"
            },
            {
              "internalType": "bool",
              "name": "isJewel",
              "type": "bool"
            },
            {
              "internalType": "bool",
              "name": "isWings",
              "type": "bool"
            },
            {
              "internalType": "bool",
              "name": "isMisc",
              "type": "bool"
            },
            {
              "internalType": "bool",
              "name": "isConsumable",
              "type": "bool"
            },
            {
              "internalType": "bool",
              "name": "inShop",
              "type": "bool"
            }
          ],
          "internalType": "struct ItemsAtts.ItemAttributes",
          "name": "atts",
          "type": "tuple"
        }
      ],
      "name": "setTokenAttributes",
      "outputs": [],
      "stateMutability": "nonpayable",
      "type": "function"
    },
    {
      "inputs": [
        {
          "internalType": "uint256",
          "name": "tokenId",
          "type": "uint256"
        }
      ],
      "name": "itemExists",
      "outputs": [
        {
          "internalType": "bool",
          "name": "",
          "type": "bool"
        }
      ],
      "stateMutability": "view",
      "type": "function",
      "constant": true
    },
    {
      "inputs": [
        {
          "components": [
            {
              "internalType": "string",
              "name": "name",
              "type": "string"
            },
            {
              "internalType": "uint256",
              "name": "maxLevel",
              "type": "uint256"
            },
            {
              "internalType": "uint256",
              "name": "itemRarityLevel",
              "type": "uint256"
            },
            {
              "internalType": "bool",
              "name": "isPackable",
              "type": "bool"
            },
            {
              "internalType": "bool",
              "name": "isBox",
              "type": "bool"
            },
            {
              "internalType": "bool",
              "name": "isWeapon",
              "type": "bool"
            },
            {
              "internalType": "bool",
              "name": "isArmour",
              "type": "bool"
            },
            {
              "internalType": "bool",
              "name": "isJewel",
              "type": "bool"
            },
            {
              "internalType": "bool",
              "name": "isWings",
              "type": "bool"
            },
            {
              "internalType": "bool",
              "name": "isMisc",
              "type": "bool"
            },
            {
              "internalType": "bool",
              "name": "isConsumable",
              "type": "bool"
            },
            {
              "internalType": "bool",
              "name": "inShop",
              "type": "bool"
            }
          ],
          "internalType": "struct ItemsBase.BaseItemAtts",
          "name": "atts",
          "type": "tuple"
        }
      ],
      "name": "createItem",
      "outputs": [
        {
          "internalType": "string",
          "name": "name",
          "type": "string"
        }
      ],
      "stateMutability": "nonpayable",
      "type": "function"
    },
    {
      "inputs": [
        {
          "internalType": "uint256",
          "name": "tokenId",
          "type": "uint256"
        },
        {
          "internalType": "address",
          "name": "to",
          "type": "address"
        }
      ],
      "name": "transferItem",
      "outputs": [],
      "stateMutability": "nonpayable",
      "type": "function"
    },
    {
      "inputs": [
        {
          "internalType": "string",
          "name": "itemName",
          "type": "string"
        },
        {
          "internalType": "uint256",
          "name": "fighterId",
          "type": "uint256"
        }
      ],
      "name": "craftItemForShop",
      "outputs": [
        {
          "internalType": "uint256",
          "name": "",
          "type": "uint256"
        }
      ],
      "stateMutability": "nonpayable",
      "type": "function"
    },
    {
      "inputs": [
        {
          "internalType": "string",
          "name": "name",
          "type": "string"
        }
      ],
      "name": "isItemInShop",
      "outputs": [
        {
          "internalType": "bool",
          "name": "",
          "type": "bool"
        }
      ],
      "stateMutability": "view",
      "type": "function",
      "constant": true
    },
    {
      "inputs": [
        {
          "internalType": "uint256",
          "name": "tokenId",
          "type": "uint256"
        }
      ],
      "name": "getTokenAttributes",
      "outputs": [
        {
          "components": [
            {
              "internalType": "string",
              "name": "name",
              "type": "string"
            },
            {
              "internalType": "uint256",
              "name": "tokenId",
              "type": "uint256"
            },
            {
              "internalType": "uint256",
              "name": "itemLevel",
              "type": "uint256"
            },
            {
              "internalType": "uint256",
              "name": "maxLevel",
              "type": "uint256"
            },
            {
              "internalType": "uint256",
              "name": "additionalDamage",
              "type": "uint256"
            },
            {
              "internalType": "uint256",
              "name": "additionalDefense",
              "type": "uint256"
            },
            {
              "internalType": "uint256",
              "name": "fighterId",
              "type": "uint256"
            },
            {
              "internalType": "uint256",
              "name": "lastUpdBlock",
              "type": "uint256"
            },
            {
              "internalType": "uint256",
              "name": "itemRarityLevel",
              "type": "uint256"
            },
            {
              "internalType": "uint256",
              "name": "packSize",
              "type": "uint256"
            },
            {
              "internalType": "bool",
              "name": "luck",
              "type": "bool"
            },
            {
              "internalType": "bool",
              "name": "skill",
              "type": "bool"
            },
            {
              "internalType": "bool",
              "name": "isPackable",
              "type": "bool"
            },
            {
              "internalType": "bool",
              "name": "isBox",
              "type": "bool"
            },
            {
              "internalType": "bool",
              "name": "isWeapon",
              "type": "bool"
            },
            {
              "internalType": "bool",
              "name": "isArmour",
              "type": "bool"
            },
            {
              "internalType": "bool",
              "name": "isJewel",
              "type": "bool"
            },
            {
              "internalType": "bool",
              "name": "isWings",
              "type": "bool"
            },
            {
              "internalType": "bool",
              "name": "isMisc",
              "type": "bool"
            },
            {
              "internalType": "bool",
              "name": "isConsumable",
              "type": "bool"
            },
            {
              "internalType": "bool",
              "name": "inShop",
              "type": "bool"
            }
          ],
          "internalType": "struct ItemsAtts.ItemAttributes",
          "name": "",
          "type": "tuple"
        }
      ],
      "stateMutability": "view",
      "type": "function",
      "constant": true
    },
    {
      "inputs": [
        {
          "internalType": "string",
          "name": "name",
          "type": "string"
        }
      ],
      "name": "getItemAttributes",
      "outputs": [
        {
          "components": [
            {
              "internalType": "string",
              "name": "name",
              "type": "string"
            },
            {
              "internalType": "uint256",
              "name": "tokenId",
              "type": "uint256"
            },
            {
              "internalType": "uint256",
              "name": "itemLevel",
              "type": "uint256"
            },
            {
              "internalType": "uint256",
              "name": "maxLevel",
              "type": "uint256"
            },
            {
              "internalType": "uint256",
              "name": "additionalDamage",
              "type": "uint256"
            },
            {
              "internalType": "uint256",
              "name": "additionalDefense",
              "type": "uint256"
            },
            {
              "internalType": "uint256",
              "name": "fighterId",
              "type": "uint256"
            },
            {
              "internalType": "uint256",
              "name": "lastUpdBlock",
              "type": "uint256"
            },
            {
              "internalType": "uint256",
              "name": "itemRarityLevel",
              "type": "uint256"
            },
            {
              "internalType": "uint256",
              "name": "packSize",
              "type": "uint256"
            },
            {
              "internalType": "bool",
              "name": "luck",
              "type": "bool"
            },
            {
              "internalType": "bool",
              "name": "skill",
              "type": "bool"
            },
            {
              "internalType": "bool",
              "name": "isPackable",
              "type": "bool"
            },
            {
              "internalType": "bool",
              "name": "isBox",
              "type": "bool"
            },
            {
              "internalType": "bool",
              "name": "isWeapon",
              "type": "bool"
            },
            {
              "internalType": "bool",
              "name": "isArmour",
              "type": "bool"
            },
            {
              "internalType": "bool",
              "name": "isJewel",
              "type": "bool"
            },
            {
              "internalType": "bool",
              "name": "isWings",
              "type": "bool"
            },
            {
              "internalType": "bool",
              "name": "isMisc",
              "type": "bool"
            },
            {
              "internalType": "bool",
              "name": "isConsumable",
              "type": "bool"
            },
            {
              "internalType": "bool",
              "name": "inShop",
              "type": "bool"
            }
          ],
          "internalType": "struct ItemsAtts.ItemAttributes",
          "name": "",
          "type": "tuple"
        }
      ],
      "stateMutability": "view",
      "type": "function",
      "constant": true
    },
    {
      "inputs": [
        {
          "internalType": "uint256",
          "name": "tokenId",
          "type": "uint256"
        }
      ],
      "name": "burnConsumable",
      "outputs": [],
      "stateMutability": "nonpayable",
      "type": "function"
    },
    {
      "inputs": [
        {
          "internalType": "address",
          "name": "userAddress",
          "type": "address"
        }
      ],
      "name": "getUserItems",
      "outputs": [
        {
          "internalType": "uint256[]",
          "name": "",
          "type": "uint256[]"
        }
      ],
      "stateMutability": "view",
      "type": "function",
      "constant": true
    },
    {
      "inputs": [
        {
          "internalType": "address",
          "name": "userAddress",
          "type": "address"
        },
        {
          "internalType": "uint256",
          "name": "fighterId",
          "type": "uint256"
        }
      ],
      "name": "getFighterItems",
      "outputs": [
        {
          "internalType": "uint256[2][]",
          "name": "",
          "type": "uint256[2][]"
        }
      ],
      "stateMutability": "view",
      "type": "function",
      "constant": true
    }
  ],
  "bytecode": "0x60806040818152346200047357808262003e6e8038038091620000238285620004aa565b83398101031262000473576200003982620004ce565b620000486020809401620004ce565b928251620000568162000478565b60068152651354925554d160d21b82820152835192620000768462000478565b600495868552634974656d60e01b8486015282519260018060401b03958685116200045e576000948554906001938483811c9316801562000453575b898410146200035f578190601f9384811162000400575b5089908483116001146200039c57899262000390575b5050600019600383901b1c191690841b1786555b8151918883116200037d5783548481811c9116801562000372575b898210146200035f57908183859493116200030a575b5088918311600114620002a65787926200029a575b5050600019600383901b1c191690821b1781555b6064600a55601c600b556032600c556032600d55601e600e55601e600f5560026010556011558260125560018060a01b03908160018060a01b031993168360135416176013551681601454161760145533906015541617601555835192610180840190848210908211176200028757916311dbdb1960e21b9185969362000279965260608552808286015280878601528060608601528060808601528060a08601528060c08601528060e08601528061010086015280610120860152806101408601526101608501528551620002238162000478565b600a815269456d707479206974656d60b01b828201528452620002468462000a7e565b506200025284620004ff565b855192620002608462000478565b83528201528152620002728162000a7e565b50620004ff565b5161324b908162000c038239f35b634e487b7160e01b825260418652602482fd5b01519050388062000139565b8488528888208594509190601f198416895b8b828210620002f35750508411620002d9575b505050811b0181556200014d565b015160001960f88460031b161c19169055388080620002cb565b8385015186558897909501949384019301620002b8565b909192508488528888208380860160051c8201928b871062000355575b91869588929594930160051c01915b8281106200034657505062000124565b8a815586955087910162000336565b9250819262000327565b634e487b7160e01b885260228c52602488fd5b90607f16906200010e565b634e487b7160e01b875260418b52602487fd5b015190503880620000df565b8980528a8a208794509190601f1984168b5b8d828210620003e95750508411620003cf575b505050811b018655620000f3565b015160001960f88460031b161c19169055388080620003c1565b8385015186558a97909501949384019301620003ae565b9091508880528989208480850160051c8201928c861062000449575b918891869594930160051c01915b8281106200043a575050620000c9565b8b81558594508891016200042a565b925081926200041c565b92607f1692620000b2565b604189634e487b7160e01b6000525260246000fd5b600080fd5b604081019081106001600160401b038211176200049457604052565b634e487b7160e01b600052604160045260246000fd5b601f909101601f19168101906001600160401b038211908210176200049457604052565b51906001600160a01b03821682036200047357565b6001600160401b0381116200049457601f01601f191660200190565b60019081601854018060185560408051926020908185019060018060401b0391868110838211176200049457845260009586815233156200083a5760008681526002602052604090205462000561906001600160a01b031615155b156200087c565b600854868852600985528086892055680100000000000000008110156200082657888101806008558110156200081257600888528488200186905533875260038452848720546006855285882081895285528588208790558688526007855285882055600086815260026020526040902054620006499190620005ef906001600160a01b031615156200055a565b338089526003865286892080548b0190558789526002865286892080546001600160a01b031916821790558790897fddf252ad1be2c89b69c2b068fc378daa952ba7f163c4a11628f55a4df523b3ef8180a4863362000915565b15620007c457519084865260168352838620918051918211620007b05782548881811c91168015620007a5575b858210146200079157601f811162000746575b508390601f8311600114620006de57601694939291889183620006d2575b5050600019600383901b1c191690881b1790555b838552528220928301556005820155600643910155565b015190503880620006a7565b838852848820601f1984169594938a9390928a5b8881106200072e5750836016981062000714575b505050811b019055620006bb565b015160001960f88460031b161c1916905538808062000706565b8282015184558c9590930192918701918701620006f2565b838852848820601f840160051c81019186851062000786575b601f0160051c019089905b8281106200077a57505062000689565b8981550189906200076a565b90915081906200075f565b634e487b7160e01b88526022600452602488fd5b90607f169062000676565b634e487b7160e01b87526041600452602487fd5b835162461bcd60e51b8152602060048201526032602482015260008051602062003e4e83398151915260448201527131b2b4bb32b91034b6b83632b6b2b73a32b960711b6064820152608490fd5b634e487b7160e01b88526032600452602488fd5b634e487b7160e01b88526041600452602488fd5b60648486519062461bcd60e51b825280600483015260248201527f4552433732313a206d696e7420746f20746865207a65726f20616464726573736044820152fd5b156200088457565b60405162461bcd60e51b815260206004820152601c60248201527f4552433732313a20746f6b656e20616c7265616479206d696e746564000000006044820152606490fd5b60005b838110620008dd5750506000910152565b8181015183820152602001620008cc565b906020916200090981518092818552858086019101620008c9565b601f01601f1916010190565b9192600092909190803b1562000a745762000966946040518092630a85bd0160e11b9485835233600484015287602484015260448301526080606483015281878160209a8b966084830190620008ee565b03926001600160a01b03165af184918162000a29575b5062000a18575050503d60001462000a0f573d6200099a81620004e3565b90620009aa6040519283620004aa565b81528091833d92013e5b8051918262000a0c5760405162461bcd60e51b8152602060048201526032602482015260008051602062003e4e83398151915260448201527131b2b4bb32b91034b6b83632b6b2b73a32b960711b6064820152608490fd5b01fd5b506060620009b4565b6001600160e01b0319161492509050565b9091508581813d831162000a6c575b62000a448183620004aa565b8101031262000a6857516001600160e01b03198116810362000a685790386200097c565b8480fd5b503d62000a38565b5050915050600190565b9060018060a01b03601354169160405180936333768e1d60e01b82526020908160048401528262000abe855161018060248401526101a4830190620008ee565b91838601516044830152604086015160648301526060860151151560848301526080860151151560a483015260a0860151151560c483015260c0860151151560e483015260e0860151151561010483015261010086015115156101248301526101208601511515610144830152610140860151151561016483015261016086015115156101848301528160008096819503925af1801562000bf75762000b66575b5050519150565b3d8083873e62000b778187620004aa565b850194818187031262000bef578051906001600160401b03821162000bf357019085601f8301121562000bef5781519262000bb284620004e3565b9662000bc26040519889620004aa565b84885282858501011162000bec57508062000be2949596019101620008c9565b8190388062000b5f565b80fd5b8280fd5b8380fd5b6040513d84823e3d90fdfe6101a080604052600436101561001457600080fd5b60003560e01c9081629df65b14611a545750806301ffc9a7146119cc57806306fdde0314611929578063081812fc1461190b578063095ea7b31461179157806313d199501461173b57806318160ddd1461171d5780631f4f5a23146116fe57806323b872dd146116da5780632f745c59146116b357806335dd88ef1461147857806340d097c31461144957806342842e0e146114165780634e10d30d146110b35780634f6ccce714611022578063513c145214610e52578063576cc0f714610d975780636352211e14610d675780636d5433e614610d4657806370a0823114610d235780637ae2b5c714610cfb5780637eb3abaf14610cc157806380971e2c14610c54578063843bd64114610c1857806387c7ab5c14610bd15780638da5cb5b14610ba857806395d89b4114610ac9578063a22cb465146109ee578063a293d1e8146109c0578063a422910114610961578063b37217a4146108ed578063b88d4fde14610866578063bef9eed91461052b578063c87b56dd146104ba578063caf7c445146103a7578063ce6019b4146102e4578063d05c78da14610281578063e6cb9013146102275763e985e9c5146101cc57600080fd5b34610222576040366003190112610222576101e5611b1a565b6101ed611b30565b9060018060a01b03809116600052600560205260406000209116600052602052602060ff604060002054166040519015158152f35b600080fd5b346102225761023536611abc565b908181019081811161026b57602092610258918310159081610260575b50613198565b604051908152f35b905082101584610252565b634e487b7160e01b600052601160045260246000fd5b346102225761028f36611abc565b8082029082820492159280821484171561026b578380156102b7575b60208461025887613198565b909193506102ce57602092610258911492846102ab565b634e487b7160e01b600052601260045260246000fd5b3461022257602080600319360112610222576102fe611b1a565b61030781611d77565b6103108161315e565b9061031e6040519283611b99565b80825261032a8161315e565b8285019390601f190136853760005b8281106103845750505090604051928392818401908285525180915260408401929160005b82811061036d57505050500390f35b83518552869550938101939281019260010161035e565b806103926103a29284612466565b61039c8287613184565b52613175565b610339565b34610222576103b536611abc565b6103be82612bf4565b6060810151821161047c57604001516001810180911161026b57811161042257816040917f535fb4315d70f1b2d62609c85f8b9cd714e3687d6cee1a46ff7947f852bf716493600052601660205280600284600020015582519182526020820152a1005b60405162461bcd60e51b815260206004820152602c60248201527f4974656d2063616e2062652075706772616465206f6e65206c6576656c20617460448201526b20612074696d65206f6e6c7960a01b6064820152608490fd5b60405162461bcd60e51b815260206004820152601660248201527513585e081a5d195b481b195d995b081c995858da195960521b6044820152606490fd5b34610222576020366003190112610222576004356000908152600260205260409020546104f1906001600160a01b03161515611dee565b60006040516104ff81611b7e565b5261052760405161050f81611b7e565b60008152604051918291602083526020830190611af5565b0390f35b346102225760031960403682011261022257602435906001600160401b038211610222576102a0908236030112610222576040519061056982611b62565b80600401356001600160401b0381116102225761058c9060043691840101611c0c565b82526106b861028460208401926024810135845260448101356040860152606481013560608601526084810135608086015260a481013560a086015260c481013560c086015260e481013560e08601526101048101356101008601526101248101356101208601526106016101448201611d6a565b6101408601526106146101648201611d6a565b6101608601526106276101848201611d6a565b61018086015261063a6101a48201611d6a565b6101a086015261064d6101c48201611d6a565b6101c08601526106606101e48201611d6a565b6101e08601526106736102048201611d6a565b6102008601526106866102248201611d6a565b6102208601526106996102448201611d6a565b6102408601526106ac6102648201611d6a565b61026086015201611d6a565b6102808301526004356000908152600260205260409020546106e4906001600160a01b03161515612924565b51906004356000526016602052604060002091600183015580519182516001600160401b038111610850576107238161071d8454611e5d565b84612986565b6020601f82116001146107e857819293946000926107dd575b50508160011b916000199060031b1c19161790555b610160604082015191600435600052601660205260406000209260028401556080810151600384015560a0810151600484015560c0810151600584015560e0810151600684015561012081015160078401556107c560086101408301511515940193849060ff801983541691151516179055565b0151815461ff00191690151560081b61ff0016179055005b01519050848061073c565b8260005260206000209060005b601f19841681106108385750600193949583601f1981161061081f575b505050811b019055610751565b015160001960f88460031b161c19169055848080610812565b9091602060018192858a0151815501930191016107f5565b634e487b7160e01b600052604160045260246000fd5b346102225760803660031901126102225761087f611b1a565b610887611b30565b90606435906044356001600160401b0383116102225736602384011215610222576108eb936108c36108e6943690602481600401359101611bd5565b926108d66108d18433611fae565b611ed5565b6108e1838383612076565b6123db565b611f8a565b005b346102225760203660031901126102225760206064604051828101906109558161094733424360043544899391609495939185526020850152604084015260608301526001600160601b03199060601b1660808201520190565b03601f198101835282611b99565b51902006604051908152f35b34610222576040366003190112610222576108eb600435610980611b30565b6000828152600260205260409020546109a3906001600160a01b03161515612924565b6000828152600260205260409020546001600160a01b0316612076565b34610222576109ce36611abc565b6109da82821115613198565b810390811161026b57602090604051908152f35b3461022257604036600319011261022257610a07611b1a565b6024359081151590818303610222576001600160a01b031691338314610a8457610a569033600052600560205260406000208460005260205260406000209060ff801983541691151516179055565b6040519081527f17307eab39ab6107e8899845ad3d59bd9653f200f220920489ca2b5937696c3160203392a3005b60405162461bcd60e51b815260206004820152601960248201527f4552433732313a20617070726f766520746f2063616c6c6572000000000000006044820152606490fd5b346102225760003660031901126102225760405160006001805490610aed82611e5d565b80855291818116908115610b815750600114610b28575b61052784610b1481860382611b99565b604051918291602083526020830190611af5565b600081815292507fb10e2d527612073b26eecdfd717e6a320cf44b4afac2b0732d9fcbe2b7fa0cf65b828410610b69575050508101602001610b1482610b04565b80546020858701810191909152909301928101610b51565b60ff191660208087019190915292151560051b85019092019250610b149150839050610b04565b34610222576000366003190112610222576015546040516001600160a01b039091168152602090f35b34610222576020366003190112610222576004356001600160401b03811161022257610c0c610c07610527923690600401611c0c565b612f3c565b60405191829182611c2a565b34610222576020366003190112610222576004356000908152600260209081526040909120546001600160a01b031615155b6040519015158152f35b3461022257602036600319011261022257600435610260610c7482612bf4565b015115610c84576108eb90612541565b60405162461bcd60e51b81526020600482015260156024820152744974656d206e6f74206120636f6e73756d61626c6560581b6044820152606490fd5b34610222576020366003190112610222576004356001600160401b03811161022257610c4a610cf66020923690600401611c0c565b612ae7565b34610222576020610d0b36611abc565b80821015610d1c5750604051908152f35b9050610258565b34610222576020366003190112610222576020610258610d41611b1a565b611d77565b34610222576020610d5636611abc565b80821115610d1c5750604051908152f35b34610222576020366003190112610222576020610d85600435611e3a565b6040516001600160a01b039091168152f35b34610222576020366003190112610222576004356001811115610e15576000818152600260205260409020546001600160a01b031615610dda576108eb90612541565b60405162461bcd60e51b8152602060048201526013602482015272151bdad95b88191bd95cdb89dd08195e1a5cdd606a1b6044820152606490fd5b60405162461bcd60e51b8152602060048201526015602482015274151bdad95b8818d85b9b9bdd08189948189d5c9b9d605a1b6044820152606490fd5b3461022257604036600319011261022257610e6b611b1a565b6024803591610e7981611d77565b90610e838261315e565b93610e916040519586611b99565b828552601f19610ea08461315e565b0160005b818110610fdb5750506000916000925b848410610f2d5786604051809160208083018184528251809152816040850193019160005b828110610ee857505050500390f35b91939083819496505182906000915b60028310610f175750505060406001920195019101918594939192610ed9565b8151815286936001909301929182019101610ef7565b610f378483612466565b8060005260166020908082528560056040600020015414610f6e575b505050610f62610f6891613175565b93613175565b92610eb4565b60405192604084018481106001600160401b03821117610fc65760409081528185526000918252918352206006015490820152610f6891610f6291610fb3828b613184565b52610fbe818a613184565b509189610f53565b8a634e487b7160e01b60005260416004526000fd5b604051604081018181106001600160401b0382111761100d579060209291604052604036823782828a01015201610ea4565b87634e487b7160e01b60005260416004526000fd5b34610222576020366003190112610222576004356008548110156110595761104b6020916124f4565b90546040519160031b1c8152f35b60405162461bcd60e51b815260206004820152602c60248201527f455243373231456e756d657261626c653a20676c6f62616c20696e646578206f60448201526b7574206f6620626f756e647360a01b6064820152608490fd5b34610222576040366003190112610222576001600160401b0380600435116102225736602360043501121561022257600435600401351161022257366024600435600401356004350101116102225761111b610cf63660043560040135602460043501611bd5565b156113c757611139610c073660043560040135602460043501611bd5565b50601880546001019081905560145460405163620d1b0560e11b81526024803560048301529091602091839182906001600160a01b03165afa9081156113065761118d9183916000916113a8575b50612713565b8060005260166020526040600020908060018301556111b66004356004013561071d8454611e5d565b600091601f60043560040135116001146113215760249260009060043560040135611312575b506004356004013560011b906000196004356004013560031b1c19161790555b806000526016602052604060002082356005820155600643910155602060018060a01b03601454166040519384809263620d1b0560e11b8252823560048301525afa918215611306576020927ffafbc3b5fa62ca7b698bd38898ddd23d06fe719c8384d22b3b2ebbb052b04e9b916000916112d9575b506040519083825260608583015260043560040135606083015260043560040135602460043501608084013760006080600435600401358401015260018060a01b03166040820152608081601f19601f6004356004013501168101030190a1604051908152f35b6112f99150843d86116112ff575b6112f18183611b99565b810190612967565b84611272565b503d6112e7565b6040513d6000823e3d90fd5b849150600435010135846111dc565b601f196004356004013516928160005260206000209060005b85811061138b57506024946004356004013511611367575b5050600160043560040135811b0190556111fc565b8460001960f86004356004013560031b161c19916004350101351690558380611352565b90916020600181926024866004350101358155019301910161133a565b6113c1915060203d6020116112ff576112f18183611b99565b84611187565b60405162461bcd60e51b815260206004820152602160248201527f4974656d206e6f7420696e2073686f70206f7220646f65736e277420657869736044820152601d60fa1b6064820152608490fd5b34610222576108eb6108e661142a36611d35565b906040519261143884611b7e565b600084526108d66108d18433611fae565b34610222576020366003190112610222576020611464611b1a565b610258600160185401809281601855612713565b3461022257600319602036820112610222576004356001600160401b03918282116102225761018090823603011261022257604051906114b782611b46565b806004013583811161022257611584916114da6101649260043691840101611c0c565b845260248101356020850152604481013560408501526114fc60648201611d6a565b606085015261150d60848201611d6a565b608085015261151e60a48201611d6a565b60a085015261152f60c48201611d6a565b60c085015261154060e48201611d6a565b60e08501526115526101048201611d6a565b6101008501526115656101248201611d6a565b6101208501526115786101448201611d6a565b61014085015201611d6a565b61016082015260018060a01b0360135416600060405180926333768e1d60e01b8252602060048301528183816115c8885161018060248401526101a4830190611af5565b60208901516044830152604089015160648301526060890151151560848301526080890151151560a483015260a0890151151560c483015260c0890151151560e483015260e08901511515610104830152610100890151151561012483015261012089015115156101448301526101408901511515610164830152610160890151151561018483015203925af1801561130657611679575b6105278251604051918291602083526020830190611af5565b3d806000833e6116898183611b99565b810160208282031261022257815193841161022257610527936116ac92016128e2565b5082611660565b346102225760403660031901126102225760206102586116d1611b1a565b60243590612466565b34610222576108eb6116eb36611d35565b916116f96108d18433611fae565b612076565b3461022257602036600319011261022257610527610c0c600435612bf4565b34610222576000366003190112610222576020600854604051908152f35b34610222576040366003190112610222576001600160401b036004358181116102225761176c903690600401611c0c565b906024359081116102225760209161178b610c4a923690600401611c0c565b906131b5565b34610222576040366003190112610222576117aa611b1a565b602435906001600160a01b0380806117c185611e3a565b169216918083146118bc57803314908115611897575b501561182c57600083815260046020526040902080546001600160a01b0319168317905561180483611e3a565b167f8c5be1e5ebec7d5bd14f71427d1e84f3dd0314c0f7b2291e5b200ac8c7c3b925600080a4005b60405162461bcd60e51b815260206004820152603d60248201527f4552433732313a20617070726f76652063616c6c6572206973206e6f7420746f60448201527f6b656e206f776e6572206f7220617070726f76656420666f7220616c6c0000006064820152608490fd5b9050600052600560205260406000203360005260205260ff60406000205416846117d7565b60405162461bcd60e51b815260206004820152602160248201527f4552433732313a20617070726f76616c20746f2063757272656e74206f776e656044820152603960f91b6064820152608490fd5b34610222576020366003190112610222576020610d85600435611e97565b34610222576000366003190112610222576040516000805461194a81611e5d565b80845290600190818116908115610b8157506001146119735761052784610b1481860382611b99565b600080805292507f290decd9548b62a8d60345a988386fc84ba6bc95484008f6362f93160ef3e5635b8284106119b4575050508101602001610b1482610b04565b8054602085870181019190915290930192810161199c565b346102225760203660031901126102225760043563ffffffff60e01b81168091036102225760209063780e9d6360e01b8114908115611a11575b506040519015158152f35b6380ac58cd60e01b811491508115611a43575b8115611a32575b5082611a06565b6301ffc9a760e01b14905082611a2b565b635b5e139f60e01b81149150611a24565b3461022257611a6236611abc565b446020840190815260408401929092524360608085019190915242608085015233901b6bffffffffffffffffffffffff191660a084015291611aa78160b48101610947565b51902081156102ce5760209160405191068152f35b6040906003190112610222576004359060243590565b60005b838110611ae55750506000910152565b8181015183820152602001611ad5565b90602091611b0e81518092818552858086019101611ad2565b601f01601f1916010190565b600435906001600160a01b038216820361022257565b602435906001600160a01b038216820361022257565b61018081019081106001600160401b0382111761085057604052565b6102a081019081106001600160401b0382111761085057604052565b602081019081106001600160401b0382111761085057604052565b90601f801991011681019081106001600160401b0382111761085057604052565b6001600160401b03811161085057601f01601f191660200190565b929192611be182611bba565b91611bef6040519384611b99565b829481845281830111610222578281602093846000960137010152565b9080601f8301121561022257816020611c2793359101611bd5565b90565b602081528151611c486102a0918260208501526102c0840190611af5565b92602081015160408401526040810151606084015260608101516080840152608081015160a084015260a081015160c084015260c081015160e084015260e0810151610100908185015281015161012090818501528101516101409081850152810151151561016090818501528101511515610180908185015281015115156101a0908185015281015115156101c0908185015281015115156101e090818501528101511515610200908185015281015115156102209081850152810151151561024090818501528101511515610260908185015281015115159061028091828501520151151591015290565b6060906003190112610222576001600160a01b0390600435828116810361022257916024359081168103610222579060443590565b3590811515820361022257565b6001600160a01b03168015611d9757600052600360205260406000205490565b60405162461bcd60e51b815260206004820152602960248201527f4552433732313a2061646472657373207a65726f206973206e6f7420612076616044820152683634b21037bbb732b960b91b6064820152608490fd5b15611df557565b60405162461bcd60e51b815260206004820152601860248201527f4552433732313a20696e76616c696420746f6b656e20494400000000000000006044820152606490fd5b6000908152600260205260409020546001600160a01b0316611c27811515611dee565b90600182811c92168015611e8d575b6020831014611e7757565b634e487b7160e01b600052602260045260246000fd5b91607f1691611e6c565b600081815260026020526040902054611eba906001600160a01b03161515611dee565b6000908152600460205260409020546001600160a01b031690565b15611edc57565b60405162461bcd60e51b815260206004820152602d60248201527f4552433732313a2063616c6c6572206973206e6f7420746f6b656e206f776e6560448201526c1c881bdc88185c1c1c9bdd9959609a1b6064820152608490fd5b60809060208152603260208201527f4552433732313a207472616e7366657220746f206e6f6e20455243373231526560408201527131b2b4bb32b91034b6b83632b6b2b73a32b960711b60608201520190565b15611f9157565b60405162461bcd60e51b815280611faa60048201611f37565b0390fd5b906001600160a01b038080611fc284611e3a565b16931691838314938415611ff5575b508315611fdf575b50505090565b611feb91929350611e97565b1614388080611fd9565b909350600052600560205260406000208260005260205260ff604060002054169238611fd1565b1561202357565b60405162461bcd60e51b815260206004820152602560248201527f4552433732313a207472616e736665722066726f6d20696e636f72726563742060448201526437bbb732b960d91b6064820152608490fd5b61209a9161208384611e3a565b6001600160a01b039384841693918516841461201c565b83821693841561226a578391826121c7575090506008549085600052600960205281604060002055600160401b8210156108505761211992612100876120e78560018997016008556124f4565b90919082549060031b91821b91600019901b1916179055565b828603612194575b5061211286611e3a565b161461201c565b7fddf252ad1be2c89b69c2b068fc378daa952ba7f163c4a11628f55a4df523b3ef60008481526004602052604081206001600160601b0360a01b9081815416905583825260036020526040822060001981540190558482526040822060018154019055858252600260205284604083209182541617905580a4565b61219d90611d77565b60406000878152600660205281812083825260205288828220558881526007602052205538612108565b8583036121d9575b5061211992612100565b6121e4919250611d77565b60001981019190821161026b576121199284926000908882526020906007825260409182842054828103612233575b508a845283838120558684526006815282842091845252812055926121cf565b8785526006825283852083865282528385205488865260068352848620828752835280858720558552600782528385205538612213565b60405162461bcd60e51b8152602060048201526024808201527f4552433732313a207472616e7366657220746f20746865207a65726f206164646044820152637265737360e01b6064820152608490fd5b9192600092909190803b156123d157612309946040518092630a85bd0160e11b9485835233600484015287602484015260448301526080606483015281878160209a8b966084830190611af5565b03926001600160a01b03165af184918161238d575b5061237c575050503d600014612374573d61233881611bba565b906123466040519283611b99565b81528091833d92013e5b805191826123715760405162461bcd60e51b815280611faa60048201611f37565b01fd5b506060612350565b6001600160e01b0319161492509050565b9091508581813d83116123ca575b6123a58183611b99565b810103126123c657516001600160e01b0319811681036123c657903861231e565b8480fd5b503d61239b565b5050915050600190565b9293600093909291803b1561245b579484916124359660405180948193630a85bd0160e11b9788845233600485015260018060a01b0380921660248501526044840152608060648401528260209b8c976084830190611af5565b0393165af184918161238d575061237c575050503d600014612374573d61233881611bba565b505050915050600190565b61246f81611d77565b82101561249b5760018060a01b0316600052600660205260406000209060005260205260406000205490565b60405162461bcd60e51b815260206004820152602b60248201527f455243373231456e756d657261626c653a206f776e657220696e646578206f7560448201526a74206f6620626f756e647360a81b6064820152608490fd5b60085481101561252b5760086000527ff3f7a9fe364faab93b216da50a3214154f22a0a2b415b23a84c8169e8b636ee30190600090565b634e487b7160e01b600052603260045260246000fd5b61254a81611e3a565b6001600160a01b0390808216908161268d57505060085482600052600960205280604060002055600160401b81101561085057826120e782600161259194016008556124f4565b600854600019808201929091831161026b5760009284845260096020526040906125be82862054916124f4565b90549060031b1c6125d2816120e7846124f4565b8552600960205281852055848452838181205560085480156126795783016125f9816124f4565b8582549160031b1b1916905560085561261185611e3a565b918585526004602052818520926001600160601b0360a01b9384815416905516928385526003602052818520908154019055848452600260205283209081541690557fddf252ad1be2c89b69c2b068fc378daa952ba7f163c4a11628f55a4df523b3ef8280a4565b634e487b7160e01b85526031600452602485fd5b61269690611d77565b60001981019190821161026b57600091848352602060078152604092838520548381036126dc575b50868552848481205584526006815282842091845252812055612591565b81865260068352848620848752835284862054828752600684528587208288528452808688205586526007835284862055386126be565b9060409182519261272384611b7e565b60008085526001600160a01b0383169182156128535760008581526002602052604090205461275e906001600160a01b031615155b15612896565b600854858352602090600982528083852055600160401b81101561283f579286949192600286946127a16108e69a6120e789600161283d9f9d9b016008556124f4565b6127aa87611d77565b85855260068252838520818652825283852087905586855260078252838520556000868152600260205260409020546127ed906001600160a01b03161515612758565b848452600381528284208054600101905585845252812080546001600160a01b031916831790557fddf252ad1be2c89b69c2b068fc378daa952ba7f163c4a11628f55a4df523b3ef8180a46122bb565b565b634e487b7160e01b84526041600452602484fd5b5162461bcd60e51b815260206004820181905260248201527f4552433732313a206d696e7420746f20746865207a65726f20616464726573736044820152606490fd5b1561289d57565b60405162461bcd60e51b815260206004820152601c60248201527f4552433732313a20746f6b656e20616c7265616479206d696e746564000000006044820152606490fd5b81601f820112156102225780516128f881611bba565b926129066040519485611b99565b8184526020828401011161022257611c279160208085019101611ad2565b1561292b57565b60405162461bcd60e51b8152602060048201526014602482015273151bdad95b88191bd95cc81b9bdd08195e1a5cdd60621b6044820152606490fd5b9081602091031261022257516001600160a01b03811681036102225790565b90601f811161299457505050565b600091825260208220906020601f850160051c830194106129d0575b601f0160051c01915b8281106129c557505050565b8181556001016129b9565b90925082906129b0565b5190811515820361022257565b6020818303126102225780516001600160401b0391828211610222570190610180828403126102225760405192612a1d84611b46565b825191821161022257612a319183016128e2565b82526020810151602083015260408101516040830152612a53606082016129da565b6060830152612a64608082016129da565b6080830152612a7560a082016129da565b60a0830152612a8660c082016129da565b60c0830152612a9760e082016129da565b60e0830152610100612aaa8183016129da565b90830152610120612abc8183016129da565b90830152610140612ace8183016129da565b90830152612ae06101608092016129da565b9082015290565b6000612b1b9160018060a01b036013541660405180809581946307ffce7160e11b8352602060048401526024830190611af5565b03915afa80156113065761016091600091612b39575b500151151590565b612b54913d8091833e612b4c8183611b99565b8101906129e7565b38612b31565b60405190612b6782611b62565b81606081526102806000918260208201528260408201528260608201528260808201528260a08201528260c08201528260e08201528261010082015282610120820152826101408201528261016082015282610180820152826101a0820152826101c0820152826101e0820152826102008201528261022082015282610240820152826102608201520152565b612bfc612b5a565b50600081815260026020526040902054612c20906001600160a01b03161515612924565b6000526016602052604060002060405190816101408101106001600160401b036101408401111761085057610140820160405280546000612c6082611e5d565b806101408601526001928381169081600014612f185750600114612ede575b5091600891612c9c60ff948661013f199103016101408701611b99565b610140850185528101546020850152600281015460408501526003810154606085015260048101546080850152600581015460a0850152600681015460c0850152600781015460e08501520154818116151561010084015260081c16151561012082015260018060a01b0360135416600060405180926307ffce7160e11b8252602060048301528180612d36602482016101408901611af5565b03915afa8015611306576000608052612ec1575b506080518091815190602081015161018052604081015161016052602083015190606081015190608081015160a082015160c083015160408801519160e085015193610100860151151595610120015115159660608b015115159860808c015115159a60a08d015115159c60c0015115159d60e0810151151560c052610100810151151561010052610120810151151560e05261014081015115156101205261016001511515610140526040518060a052612e0490611b62565b60a051526101805160a051602001526101605160a0516040015260a0516060015260a0516080015260a05160a0015260a05160c0015260a05160e0015260a051610100015260a051610120015260a051610140015260a051610160015260a051610180015260a0516101a0015260a0516101c0015260a0516101e0015260c05160a05161020001526101005160a051610220015260e05160a05161024001526101205160a05161026001526101405160a051610280015260a05190565b612ed5903d806000833e612b4c8183611b99565b60805238612d4a565b6000848152602081209092505b818310612f015750508301610160016008612c7f565b805461016084880101526020909201918301612eeb565b60ff19166101608781019190915291151560051b8601909101915060089050612c7f565b612f44612b5a565b506013546040516307ffce7160e11b81526020600482015291906001600160a01b031660008380612f786024820186611af5565b0381845afa92831561130657600093613138575b50612fb6916020916040518080958194630631fb3360e21b83528660048401526024830190611af5565b03915afa908115611306576000916130fe575b50156130c357612fd7612b5a565b508051906020810151906040810151606082015115156080830151151560a0840151151560c085015115159060e08601511515926101008701511515946101208801511515966101606101408a015115159901511515996040519b61303b8d611b62565b8c52600060208d0152600060408d015260608c0152600060808c0152600060a08c0152600060c08c0152600060e08c01526101008b015260016101208b015260006101408b015260006101608b01526101808a01526101a08901526101c08801526101e087015261020086015261022085015261024084015261026083015261028082015290565b60405162461bcd60e51b8152602060048201526013602482015272125d195b48191bd95cc81b9bdd08195e1a5cdd606a1b6044820152606490fd5b90506020813d602011613130575b8161311960209383611b99565b810103126102225761312a906129da565b38612fc9565b3d915061310c565b602091935091613155612fb6933d806000833e612b4c8183611b99565b93915091612f8c565b6001600160401b0381116108505760051b60200190565b600019811461026b5760010190565b805182101561252b5760209160051b010190565b1561319f57565b634e487b7160e01b600052600160045260246000fd5b90604051916020926131e38482816131d68183019687815193849201611ad2565b8101038084520182611b99565b519020916132036040519182816131d68183019687815193849201611ad2565b5190200361321057600190565b60009056fea264697066735822122068a0576e5c9cfe8fcb272b0fe9a3a50b6a378f992db9431fcdd3507e47b4edc264736f6c634300081300334552433732313a207472616e7366657220746f206e6f6e204552433732315265",
  "immutableReferences": {},
  "source": "// SPDX-License-Identifier: MIT\npragma solidity ^0.8.18;\n\nimport \"@openzeppelin/contracts/token/ERC721/ERC721.sol\";\nimport \"@openzeppelin/contracts/token/ERC721/extensions/ERC721Enumerable.sol\";\nimport \"@openzeppelin/contracts/utils/Counters.sol\";\n\nimport \"./SafeMath.sol\";\nimport \"./ItemsBase.sol\";\nimport \"./ItemsAtts.sol\";\nimport \"./FightersHelper.sol\";\n\ncontract Items is ERC721Enumerable, ItemsAtts, SafeMath {\n    ItemsBase private _base;\n    FightersHelper private _fightersHelper;\n    using Counters for Counters.Counter;\n\n    address public owner;\n\n    constructor(address ItemsBaseContract, address fightersHelperContract) ERC721(\"MRIUSD\", \"Item\") {\n        _base = ItemsBase(ItemsBaseContract);\n        _fightersHelper = FightersHelper(fightersHelperContract);\n        owner = msg.sender;\n\n        // create empty item\n        ItemsBase.BaseItemAtts memory emptyBaseAtts;\n        emptyBaseAtts.name = \"Empty item\";\n        createItem(emptyBaseAtts);\n        generateInitialTokens(emptyBaseAtts);\n\n        // create item for gold\n        emptyBaseAtts.name = \"Gold\";\n        createItem(emptyBaseAtts);\n        generateInitialTokens(emptyBaseAtts);\n    }\n\n\n\n\n\n\n\n   \n    // event LogError(uint8, uint256);\n    \n    // event ItemCrafted(uint256 tokenId, address owner);\n    event ItemCraftedForShop(uint256 tokenId, string itemName, address owner);\n\n    event ItemLevelUpgrade(uint256 tokenId, uint256 newLevel);\n    // event ItemAddPointsUpdate(uint256 tokenId, uint256 newAddPoints);\n\n    // function setAdditionalPoints(uint256 tokenId, uint256 points) external {\n    //     require(points <= maxAdditionalPoints, \"Max points reached\");\n\n    //     ItemAttributes memory item = getTokenAttributes(tokenId);\n\n    //     require(item.isWeapon || item.isArmour || item.isWings , \"Max points reached\");\n    //     if (item.isWeapon || item.isWings) {\n    //         item.additionalDamage = points;\n    //     } else if (item.isArmour) { \n    //         item.additionalDefense = points;\n    //     } \n\n    //     emit ItemAddPointsUpdate(tokenId, item.additionalDefense + item.additionalDamage);\n    // }\n\n    function generateInitialTokens(ItemsBase.BaseItemAtts memory itemAtts) internal {\n        _tokenIdCounter.increment();\n        uint256 newTokenId = _tokenIdCounter.current();\n\n        _safeMint(msg.sender, newTokenId);\n\n        _tokenAttributes[newTokenId].name = itemAtts.name;      \n        _tokenAttributes[newTokenId].tokenId = newTokenId;      \n        _tokenAttributes[newTokenId].fighterId = 0;      \n        _tokenAttributes[newTokenId].lastUpdBlock = block.number; \n    }\n\n    function setItemLevel(uint256 tokenId, uint256 level)  external {\n        ItemAttributes memory item = getTokenAttributes(tokenId);\n\n        require(level <= item.maxLevel, \"Max item level reached\");\n        require(level <= item.itemLevel+1, \"Item can be upgrade one level at a time only\");\n\n        _tokenAttributes[tokenId].itemLevel = level;\n        emit ItemLevelUpgrade(tokenId, _tokenAttributes[tokenId].itemLevel);  \n    }\n\n    function burnItem(uint256 tokenId) external {\n        require(tokenId > 1, \"Token cannot be burnt\");\n        require(_exists(tokenId), \"Token doesn't exist\");\n        _burn(tokenId);\n    }  \n\n    function safeMint(address ownerAddres) external returns (uint256) {\n        _tokenIdCounter.increment();\n        uint256 newTokenId = _tokenIdCounter.current();\n        _safeMint(ownerAddres, newTokenId);\n\n        return newTokenId;\n    }\n\n    function setTokenAttributes(uint256 tokenId, ItemAttributes memory atts) external {\n        _setTokenAttributes(tokenId, atts);\n    }\n\n    function itemExists(uint256 tokenId) public view returns(bool) {\n        return _exists(tokenId);\n    }\n\n    function createItem(ItemsBase.BaseItemAtts memory atts) public returns (string memory name) {                \n        _base.createBaseItem(atts);        \n        return atts.name;\n    }\n\n    function transferItem(uint256 tokenId, address to) external {\n        require(_exists(tokenId), \"Token does not exist\");\n        address from = _ownerOf(tokenId);\n        _transfer(from, to, tokenId);\n    }   \n\n    // event PackedItems(string itemName, uint256 packSize, uint256 fighterId, uint256 newTokenId);\n    // event UnpackedItems(uint256 tokenId);\n\n    // function packItems(string calldata itemName, uint256[] memory tokenIds, uint256 packSize, uint256 fighterId) external returns (uint256 newTokenId) {\n    //     ItemAttributes memory atts = getItemAttributes(itemName);\n    //     require(atts.isPackable, \"Item not packable\");\n\n    //     // Ensure that the number of tokens is equal to the packSize\n    //     require(tokenIds.length == packSize, \"Invalid pack size\");\n        \n    //     for (uint i = 0; i < tokenIds.length; i++) {\n    //         require(keccak256(abi.encodePacked(_tokenAttributes[tokenIds[i]].name)) == keccak256(abi.encodePacked(itemName)), \"Invalid item\");\n    //         require(_tokenAttributes[tokenIds[i]].fighterId == fighterId, \"Item does not belong to fighter\");\n\n    //         _burn(tokenIds[i]);\n    //     }\n\n    //     _tokenIdCounter.increment();\n    //     newTokenId = _tokenIdCounter.current();\n    //     _safeMint(_fightersHelper.getOwner(fighterId), newTokenId);\n\n    //     _setTokenAttributes(newTokenId, atts);\n\n    //     _tokenAttributes[newTokenId].name = itemName;      \n    //     _tokenAttributes[newTokenId].tokenId = newTokenId;      \n    //     _tokenAttributes[newTokenId].fighterId = fighterId;      \n    //     _tokenAttributes[newTokenId].lastUpdBlock = block.number; \n    //     _tokenAttributes[newTokenId].packSize = packSize; \n\n    //     emit PackedItems(itemName, packSize, fighterId, newTokenId);\n\n    //     // Return the ItemAttributes object\n    //     return newTokenId;\n    // }\n\n    // function unpackItems(uint256 tokenId) external returns(uint256[] memory tokenIds) {\n    //     ItemAttributes memory atts = getTokenAttributes(tokenId);\n    //     require(atts.packSize > 1, \"Item not packed\");\n\n    //     // Initialize tokenIds with size atts.packSize\n    //     tokenIds = new uint256[](atts.packSize);\n\n    //     for (uint i = 0; i < atts.packSize; i++) {\n    //         _tokenIdCounter.increment();\n    //         uint256 newTokenId = _tokenIdCounter.current();\n    //         _safeMint(_fightersHelper.getOwner(atts.fighterId), newTokenId);\n\n    //         _setTokenAttributes(newTokenId, atts);\n\n    //         _tokenAttributes[newTokenId].tokenId = newTokenId;      \n    //         _tokenAttributes[newTokenId].fighterId = atts.fighterId;      \n    //         _tokenAttributes[newTokenId].lastUpdBlock = block.number; \n    //         _tokenAttributes[newTokenId].packSize = 1; \n\n    //         tokenIds[i] = newTokenId;\n    //     }\n\n    //     emit UnpackedItems(tokenId);\n\n    //     return tokenIds;\n\n    // }\n\n    // function craftItem(uint256 itemId, address itemOwner, uint256 maxLevel, uint256 maxAddPoints) public returns (uint256) {\n    //     require(_itemAttributes.length > itemId, \"Item attributes not found\");\n    //     ItemAttributes memory itemAtts = _itemAttributes[itemId];\n\n    //     if ((itemAtts.isWeapon || itemAtts.isArmour) && getRandomNumber(50) < luckDropRate)\n    //     {\n    //         itemAtts.luck = true;\n\n    //     }\n\n    //     if (itemAtts.isWeapon && getRandomNumber(51) < skillDropRate)\n    //     {\n    //         itemAtts.skill = true;\n    //     }\n\n    //     if (itemAtts.isWeapon || itemAtts.isArmour)\n    //     {\n    //         if (maxLevel > 0)\n    //         {\n    //             itemAtts.itemLevel = getRandomNumber(53) % (maxLevel + 1);\n    //         }\n\n    //         if (maxAddPoints > 0)\n    //         {\n    //             if (itemAtts.isWeapon) {\n    //                 itemAtts.additionalDamage = (getRandomNumber(54) % (maxAddPoints/4 + 1)) * 4;\n    //             } else if (itemAtts.isArmour) {\n    //                 itemAtts.additionalDefense = (getRandomNumber(54) % (maxAddPoints/4 + 1)) * 4;\n    //             }\n    //         }                \n    //     }        \n\n    //     _tokenIdCounter.increment();\n    //     uint256 newTokenId = _tokenIdCounter.current();\n        \n    //     _safeMint(itemOwner, newTokenId);\n \n    //     _setTokenAttributes(newTokenId, itemAtts);\n\n    //     _tokenAttributes[newTokenId].tokenId = newTokenId;      \n    //     _tokenAttributes[newTokenId].itemAttributesId = itemId;      \n    //     _tokenAttributes[newTokenId].fighterId = 0;      \n    //     _tokenAttributes[newTokenId].lastUpdBlock = block.number; \n\n    //     emit ItemCrafted(newTokenId, itemOwner);\n\n    //     return newTokenId;\n    // }     \n\n    // function getWeaponsLength(uint256 rarityLevel) public view returns (uint256) {\n    //     return Weapons[rarityLevel].length;\n    // }\n\n    // function getArmoursLength(uint256 rarityLevel) public view returns (uint256) {\n    //     return Armours[rarityLevel].length;\n    // }\n\n    // function getJewelsLength(uint256 rarityLevel) public view returns (uint256) {\n    //     return Jewels[rarityLevel].length;\n    // }\n\n    // function getMiscsLength(uint256 rarityLevel) public view returns (uint256) {\n    //     return Misc[rarityLevel].length;\n    // }   \n\n\n    function craftItemForShop(string calldata itemName, uint256 fighterId) external returns (uint256) {\n        require(isItemInShop(itemName), \"Item not in shop or doesn't exist\");\n\n        ItemAttributes memory atts = getItemAttributes(itemName);   \n\n        _tokenIdCounter.increment();\n        uint256 tokenId = _tokenIdCounter.current();\n        _safeMint(_fightersHelper.getOwner(fighterId), tokenId);\n\n        _tokenAttributes[tokenId].tokenId = tokenId;      \n        _tokenAttributes[tokenId].name = itemName;      \n        _tokenAttributes[tokenId].fighterId = fighterId;      \n        _tokenAttributes[tokenId].lastUpdBlock = block.number;  \n\n        emit ItemCraftedForShop(tokenId, itemName, _fightersHelper.getOwner(fighterId));\n\n        return tokenId;        \n    }\n\n    function isItemInShop(string memory name) public view returns (bool) {\n        ItemsBase.BaseItemAtts memory baseAtts = _base.getBaseItemAtts(name);\n        return baseAtts.inShop;\n    } \n\n\n    function getTokenAttributes(uint256 tokenId) public view returns (ItemAttributes memory) {\n        require(_exists(tokenId), \"Token does not exist\");\n\n        TokenAttributes memory tokenAtts = _tokenAttributes[tokenId];\n        ItemsBase.BaseItemAtts memory baseAtts = _base.getBaseItemAtts(tokenAtts.name);\n        \n        return ItemAttributes({\n            name: baseAtts.name,\n            tokenId: tokenAtts.tokenId,\n            itemLevel: tokenAtts.itemLevel,\n            maxLevel: baseAtts.maxLevel,\n            additionalDamage: tokenAtts.additionalDamage,\n            additionalDefense: tokenAtts.additionalDefense,\n            fighterId: tokenAtts.fighterId,\n            lastUpdBlock: tokenAtts.lastUpdBlock,\n            itemRarityLevel: baseAtts.itemRarityLevel,\n            packSize: tokenAtts.packSize,\n            luck: tokenAtts.luck,\n            skill: tokenAtts.skill,\n            isPackable: baseAtts.isPackable,\n            isBox: baseAtts.isBox,\n            isWeapon: baseAtts.isWeapon,\n            isArmour: baseAtts.isArmour,\n            isJewel: baseAtts.isJewel,\n            isWings: baseAtts.isWings,\n            isMisc: baseAtts.isMisc,\n            isConsumable: baseAtts.isConsumable,\n            inShop: baseAtts.inShop\n        });\n    }\n\n\n    // Get the attributes for a fighter NFT\n    function getItemAttributes(string memory name) public view returns (ItemAttributes memory) {\n        ItemsBase.BaseItemAtts memory baseAtts = _base.getBaseItemAtts(name);\n        require(_base.baseItemExists(name), \"Item does not exist\");\n\n        ItemAttributes memory itemAtts;\n\n        return ItemAttributes({\n            name: baseAtts.name,\n            tokenId: 0,\n            itemLevel: 0,\n            maxLevel: baseAtts.maxLevel,\n            additionalDamage: 0,\n            additionalDefense: 0,\n            fighterId: 0,\n            lastUpdBlock: 0,\n            itemRarityLevel: baseAtts.itemRarityLevel,\n            packSize: 1,\n            luck: false,\n            skill: false,\n            isPackable: baseAtts.isPackable,\n            isBox: baseAtts.isBox,\n            isWeapon: baseAtts.isWeapon,\n            isArmour: baseAtts.isArmour,\n            isJewel: baseAtts.isJewel,\n            isWings: baseAtts.isWings,\n            isMisc: baseAtts.isMisc,\n            isConsumable: baseAtts.isConsumable,\n            inShop: baseAtts.inShop\n        });  \n    }\n\n    function burnConsumable(uint256 tokenId) external {\n        ItemAttributes memory atts = getTokenAttributes(tokenId);\n\n        require(atts.isConsumable, \"Item not a consumable\");\n        _burn(tokenId);\n    }\n\n    mapping (uint256 => TokenAttributes) private _tokenAttributes;\n    ItemAttributes[] private _itemAttributes;\n    Counters.Counter private _tokenIdCounter;\n\n    ItemAttributes boxAttributes;\n\n\n\n    function getUserItems(address userAddress) external view returns (uint256[] memory) {\n        \n        uint256 numTokens = balanceOf(userAddress);\n        uint256[] memory tokenIds = new uint256[](numTokens);\n\n        for (uint256 i = 0; i < numTokens; i++) {\n            tokenIds[i] = tokenOfOwnerByIndex(userAddress, i);\n        }\n\n        return tokenIds;\n    }\n\n\n    function getFighterItems(address userAddress, uint256 fighterId) external view returns (uint256[2][] memory) {\n        \n        uint256 numTokens = balanceOf(userAddress);\n        uint256[2][] memory tokenIds = new uint256[2][](numTokens);\n\n        uint256 id;\n        uint counter = 0;\n\n        for (uint256 i = 0; i < numTokens; i++) {\n            id = tokenOfOwnerByIndex(userAddress, i);\n            if (_tokenAttributes[id].fighterId == fighterId)\n            {\n                tokenIds[counter] = [id, _tokenAttributes[id].lastUpdBlock];\n            }\n            \n            counter++;\n        }\n\n        return tokenIds;\n    }\n\n\n    function _setTokenAttributes(uint256 tokenId, ItemAttributes memory atts) internal {\n        require(_exists(tokenId), \"Token does not exist\");\n\n        _tokenAttributes[tokenId].tokenId = atts.tokenId;\n        _tokenAttributes[tokenId].name = atts.name;\n        _tokenAttributes[tokenId].itemLevel = atts.itemLevel;\n        _tokenAttributes[tokenId].additionalDamage = atts.additionalDamage;\n        _tokenAttributes[tokenId].additionalDefense = atts.additionalDefense;\n        _tokenAttributes[tokenId].fighterId = atts.fighterId;\n        _tokenAttributes[tokenId].lastUpdBlock = atts.lastUpdBlock;\n        _tokenAttributes[tokenId].packSize = atts.packSize;\n        _tokenAttributes[tokenId].luck = atts.luck;\n        _tokenAttributes[tokenId].skill = atts.skill;\n    }\n\n}",
  "sourcePath": "/Users/max/Documents/prog/game-contracts/contracts/Items.sol",
  "compiler": {
    "name": "solc",
    "version": "0.8.19+commit.7dd6d404.Emscripten.clang"
  },
  "schemaVersion": "3.4.13",
  "updatedAt": "2023-09-03T04:36:07.074Z",
  "networkType": "ethereum",
  "devdoc": {
    "events": {
      "Approval(address,address,uint256)": {
        "details": "Emitted when `owner` enables `approved` to manage the `tokenId` token."
      },
      "ApprovalForAll(address,address,bool)": {
        "details": "Emitted when `owner` enables or disables (`approved`) `operator` to manage all of its assets."
      },
      "Transfer(address,address,uint256)": {
        "details": "Emitted when `tokenId` token is transferred from `from` to `to`."
      }
    },
    "kind": "dev",
    "methods": {
      "approve(address,uint256)": {
        "details": "See {IERC721-approve}."
      },
      "balanceOf(address)": {
        "details": "See {IERC721-balanceOf}."
      },
      "getApproved(uint256)": {
        "details": "See {IERC721-getApproved}."
      },
      "isApprovedForAll(address,address)": {
        "details": "See {IERC721-isApprovedForAll}."
      },
      "name()": {
        "details": "See {IERC721Metadata-name}."
      },
      "ownerOf(uint256)": {
        "details": "See {IERC721-ownerOf}."
      },
      "safeTransferFrom(address,address,uint256)": {
        "details": "See {IERC721-safeTransferFrom}."
      },
      "safeTransferFrom(address,address,uint256,bytes)": {
        "details": "See {IERC721-safeTransferFrom}."
      },
      "setApprovalForAll(address,bool)": {
        "details": "See {IERC721-setApprovalForAll}."
      },
      "supportsInterface(bytes4)": {
        "details": "See {IERC165-supportsInterface}."
      },
      "symbol()": {
        "details": "See {IERC721Metadata-symbol}."
      },
      "tokenByIndex(uint256)": {
        "details": "See {IERC721Enumerable-tokenByIndex}."
      },
      "tokenOfOwnerByIndex(address,uint256)": {
        "details": "See {IERC721Enumerable-tokenOfOwnerByIndex}."
      },
      "tokenURI(uint256)": {
        "details": "See {IERC721Metadata-tokenURI}."
      },
      "totalSupply()": {
        "details": "See {IERC721Enumerable-totalSupply}."
      },
      "transferFrom(address,address,uint256)": {
        "details": "See {IERC721-transferFrom}."
      }
    },
    "version": 1
  },
  "userdoc": {
    "kind": "user",
    "methods": {},
    "version": 1
  }
}