{
  "contractName": "ItemsBase",
  "abi": [
    {
      "anonymous": false,
      "inputs": [
        {
          "indexed": false,
          "internalType": "string",
          "name": "name",
          "type": "string"
        },
        {
          "components": [
            {
              "internalType": "string",
              "name": "name",
              "type": "string"
            },
            {
              "internalType": "uint256",
              "name": "maxLevel",
              "type": "uint256"
            },
            {
              "internalType": "uint256",
              "name": "itemRarityLevel",
              "type": "uint256"
            },
            {
              "internalType": "bool",
              "name": "isPackable",
              "type": "bool"
            },
            {
              "internalType": "bool",
              "name": "isBox",
              "type": "bool"
            },
            {
              "internalType": "bool",
              "name": "isWeapon",
              "type": "bool"
            },
            {
              "internalType": "bool",
              "name": "isArmour",
              "type": "bool"
            },
            {
              "internalType": "bool",
              "name": "isJewel",
              "type": "bool"
            },
            {
              "internalType": "bool",
              "name": "isWings",
              "type": "bool"
            },
            {
              "internalType": "bool",
              "name": "isMisc",
              "type": "bool"
            },
            {
              "internalType": "bool",
              "name": "isConsumable",
              "type": "bool"
            },
            {
              "internalType": "bool",
              "name": "inShop",
              "type": "bool"
            }
          ],
          "indexed": false,
          "internalType": "struct ItemsBase.BaseItemAtts",
          "name": "atts",
          "type": "tuple"
        }
      ],
      "name": "ItemGenerated",
      "type": "event"
    },
    {
      "inputs": [
        {
          "internalType": "uint256",
          "name": "",
          "type": "uint256"
        },
        {
          "internalType": "uint256",
          "name": "",
          "type": "uint256"
        }
      ],
      "name": "Armours",
      "outputs": [
        {
          "internalType": "string",
          "name": "",
          "type": "string"
        }
      ],
      "stateMutability": "view",
      "type": "function",
      "constant": true
    },
    {
      "inputs": [
        {
          "internalType": "uint256",
          "name": "",
          "type": "uint256"
        },
        {
          "internalType": "uint256",
          "name": "",
          "type": "uint256"
        }
      ],
      "name": "Boxes",
      "outputs": [
        {
          "internalType": "string",
          "name": "",
          "type": "string"
        }
      ],
      "stateMutability": "view",
      "type": "function",
      "constant": true
    },
    {
      "inputs": [
        {
          "internalType": "uint256",
          "name": "",
          "type": "uint256"
        },
        {
          "internalType": "uint256",
          "name": "",
          "type": "uint256"
        }
      ],
      "name": "Consumables",
      "outputs": [
        {
          "internalType": "string",
          "name": "",
          "type": "string"
        }
      ],
      "stateMutability": "view",
      "type": "function",
      "constant": true
    },
    {
      "inputs": [
        {
          "internalType": "uint256",
          "name": "",
          "type": "uint256"
        },
        {
          "internalType": "uint256",
          "name": "",
          "type": "uint256"
        }
      ],
      "name": "Jewels",
      "outputs": [
        {
          "internalType": "string",
          "name": "",
          "type": "string"
        }
      ],
      "stateMutability": "view",
      "type": "function",
      "constant": true
    },
    {
      "inputs": [
        {
          "internalType": "uint256",
          "name": "",
          "type": "uint256"
        },
        {
          "internalType": "uint256",
          "name": "",
          "type": "uint256"
        }
      ],
      "name": "Misc",
      "outputs": [
        {
          "internalType": "string",
          "name": "",
          "type": "string"
        }
      ],
      "stateMutability": "view",
      "type": "function",
      "constant": true
    },
    {
      "inputs": [
        {
          "internalType": "uint256",
          "name": "",
          "type": "uint256"
        },
        {
          "internalType": "uint256",
          "name": "",
          "type": "uint256"
        }
      ],
      "name": "Weapons",
      "outputs": [
        {
          "internalType": "string",
          "name": "",
          "type": "string"
        }
      ],
      "stateMutability": "view",
      "type": "function",
      "constant": true
    },
    {
      "inputs": [
        {
          "internalType": "uint256",
          "name": "",
          "type": "uint256"
        },
        {
          "internalType": "uint256",
          "name": "",
          "type": "uint256"
        }
      ],
      "name": "Wings",
      "outputs": [
        {
          "internalType": "string",
          "name": "",
          "type": "string"
        }
      ],
      "stateMutability": "view",
      "type": "function",
      "constant": true
    },
    {
      "inputs": [
        {
          "internalType": "string",
          "name": "",
          "type": "string"
        }
      ],
      "name": "baseItemAttributes",
      "outputs": [
        {
          "internalType": "string",
          "name": "name",
          "type": "string"
        },
        {
          "internalType": "uint256",
          "name": "maxLevel",
          "type": "uint256"
        },
        {
          "internalType": "uint256",
          "name": "itemRarityLevel",
          "type": "uint256"
        },
        {
          "internalType": "bool",
          "name": "isPackable",
          "type": "bool"
        },
        {
          "internalType": "bool",
          "name": "isBox",
          "type": "bool"
        },
        {
          "internalType": "bool",
          "name": "isWeapon",
          "type": "bool"
        },
        {
          "internalType": "bool",
          "name": "isArmour",
          "type": "bool"
        },
        {
          "internalType": "bool",
          "name": "isJewel",
          "type": "bool"
        },
        {
          "internalType": "bool",
          "name": "isWings",
          "type": "bool"
        },
        {
          "internalType": "bool",
          "name": "isMisc",
          "type": "bool"
        },
        {
          "internalType": "bool",
          "name": "isConsumable",
          "type": "bool"
        },
        {
          "internalType": "bool",
          "name": "inShop",
          "type": "bool"
        }
      ],
      "stateMutability": "view",
      "type": "function",
      "constant": true
    },
    {
      "inputs": [
        {
          "internalType": "uint256",
          "name": "seed",
          "type": "uint256"
        }
      ],
      "name": "getRandomNumber",
      "outputs": [
        {
          "internalType": "uint256",
          "name": "",
          "type": "uint256"
        }
      ],
      "stateMutability": "view",
      "type": "function",
      "constant": true
    },
    {
      "inputs": [
        {
          "internalType": "uint256",
          "name": "seed",
          "type": "uint256"
        },
        {
          "internalType": "uint256",
          "name": "maxNum",
          "type": "uint256"
        }
      ],
      "name": "getRandomNumberMax",
      "outputs": [
        {
          "internalType": "uint256",
          "name": "",
          "type": "uint256"
        }
      ],
      "stateMutability": "view",
      "type": "function",
      "constant": true
    },
    {
      "inputs": [
        {
          "internalType": "uint256",
          "name": "a",
          "type": "uint256"
        },
        {
          "internalType": "uint256",
          "name": "b",
          "type": "uint256"
        }
      ],
      "name": "max",
      "outputs": [
        {
          "internalType": "uint256",
          "name": "",
          "type": "uint256"
        }
      ],
      "stateMutability": "view",
      "type": "function",
      "constant": true
    },
    {
      "inputs": [
        {
          "internalType": "uint256",
          "name": "a",
          "type": "uint256"
        },
        {
          "internalType": "uint256",
          "name": "b",
          "type": "uint256"
        }
      ],
      "name": "min",
      "outputs": [
        {
          "internalType": "uint256",
          "name": "",
          "type": "uint256"
        }
      ],
      "stateMutability": "view",
      "type": "function",
      "constant": true
    },
    {
      "inputs": [
        {
          "internalType": "uint256",
          "name": "a",
          "type": "uint256"
        },
        {
          "internalType": "uint256",
          "name": "b",
          "type": "uint256"
        }
      ],
      "name": "safeAdd",
      "outputs": [
        {
          "internalType": "uint256",
          "name": "",
          "type": "uint256"
        }
      ],
      "stateMutability": "view",
      "type": "function",
      "constant": true
    },
    {
      "inputs": [
        {
          "internalType": "uint256",
          "name": "a",
          "type": "uint256"
        },
        {
          "internalType": "uint256",
          "name": "b",
          "type": "uint256"
        }
      ],
      "name": "safeMul",
      "outputs": [
        {
          "internalType": "uint256",
          "name": "",
          "type": "uint256"
        }
      ],
      "stateMutability": "view",
      "type": "function",
      "constant": true
    },
    {
      "inputs": [
        {
          "internalType": "uint256",
          "name": "a",
          "type": "uint256"
        },
        {
          "internalType": "uint256",
          "name": "b",
          "type": "uint256"
        }
      ],
      "name": "safeSub",
      "outputs": [
        {
          "internalType": "uint256",
          "name": "",
          "type": "uint256"
        }
      ],
      "stateMutability": "view",
      "type": "function",
      "constant": true
    },
    {
      "inputs": [
        {
          "internalType": "string",
          "name": "a",
          "type": "string"
        },
        {
          "internalType": "string",
          "name": "b",
          "type": "string"
        }
      ],
      "name": "stringsEqual",
      "outputs": [
        {
          "internalType": "bool",
          "name": "",
          "type": "bool"
        }
      ],
      "stateMutability": "view",
      "type": "function",
      "constant": true
    },
    {
      "inputs": [
        {
          "internalType": "string",
          "name": "name",
          "type": "string"
        }
      ],
      "name": "baseItemExists",
      "outputs": [
        {
          "internalType": "bool",
          "name": "",
          "type": "bool"
        }
      ],
      "stateMutability": "view",
      "type": "function",
      "constant": true
    },
    {
      "inputs": [
        {
          "internalType": "uint256",
          "name": "rarityLevel",
          "type": "uint256"
        }
      ],
      "name": "getWeapons",
      "outputs": [
        {
          "internalType": "string[]",
          "name": "",
          "type": "string[]"
        }
      ],
      "stateMutability": "view",
      "type": "function",
      "constant": true
    },
    {
      "inputs": [
        {
          "internalType": "uint256",
          "name": "rarityLevel",
          "type": "uint256"
        }
      ],
      "name": "getArmours",
      "outputs": [
        {
          "internalType": "string[]",
          "name": "",
          "type": "string[]"
        }
      ],
      "stateMutability": "view",
      "type": "function",
      "constant": true
    },
    {
      "inputs": [
        {
          "internalType": "uint256",
          "name": "rarityLevel",
          "type": "uint256"
        }
      ],
      "name": "getJewels",
      "outputs": [
        {
          "internalType": "string[]",
          "name": "",
          "type": "string[]"
        }
      ],
      "stateMutability": "view",
      "type": "function",
      "constant": true
    },
    {
      "inputs": [
        {
          "internalType": "uint256",
          "name": "rarityLevel",
          "type": "uint256"
        }
      ],
      "name": "getWings",
      "outputs": [
        {
          "internalType": "string[]",
          "name": "",
          "type": "string[]"
        }
      ],
      "stateMutability": "view",
      "type": "function",
      "constant": true
    },
    {
      "inputs": [
        {
          "internalType": "uint256",
          "name": "rarityLevel",
          "type": "uint256"
        }
      ],
      "name": "getBoxes",
      "outputs": [
        {
          "internalType": "string[]",
          "name": "",
          "type": "string[]"
        }
      ],
      "stateMutability": "view",
      "type": "function",
      "constant": true
    },
    {
      "inputs": [
        {
          "internalType": "uint256",
          "name": "rarityLevel",
          "type": "uint256"
        }
      ],
      "name": "getConsumables",
      "outputs": [
        {
          "internalType": "string[]",
          "name": "",
          "type": "string[]"
        }
      ],
      "stateMutability": "view",
      "type": "function",
      "constant": true
    },
    {
      "inputs": [
        {
          "internalType": "uint256",
          "name": "rarityLevel",
          "type": "uint256"
        }
      ],
      "name": "getMisc",
      "outputs": [
        {
          "internalType": "string[]",
          "name": "",
          "type": "string[]"
        }
      ],
      "stateMutability": "view",
      "type": "function",
      "constant": true
    },
    {
      "inputs": [
        {
          "internalType": "uint256",
          "name": "rarityLevel",
          "type": "uint256"
        },
        {
          "internalType": "string",
          "name": "name",
          "type": "string"
        }
      ],
      "name": "addWeapons",
      "outputs": [
        {
          "internalType": "string[]",
          "name": "",
          "type": "string[]"
        }
      ],
      "stateMutability": "nonpayable",
      "type": "function"
    },
    {
      "inputs": [
        {
          "internalType": "uint256",
          "name": "rarityLevel",
          "type": "uint256"
        },
        {
          "internalType": "string",
          "name": "name",
          "type": "string"
        }
      ],
      "name": "addArmours",
      "outputs": [
        {
          "internalType": "string[]",
          "name": "",
          "type": "string[]"
        }
      ],
      "stateMutability": "nonpayable",
      "type": "function"
    },
    {
      "inputs": [
        {
          "internalType": "uint256",
          "name": "rarityLevel",
          "type": "uint256"
        },
        {
          "internalType": "string",
          "name": "name",
          "type": "string"
        }
      ],
      "name": "addJewels",
      "outputs": [
        {
          "internalType": "string[]",
          "name": "",
          "type": "string[]"
        }
      ],
      "stateMutability": "nonpayable",
      "type": "function"
    },
    {
      "inputs": [
        {
          "internalType": "uint256",
          "name": "rarityLevel",
          "type": "uint256"
        },
        {
          "internalType": "string",
          "name": "name",
          "type": "string"
        }
      ],
      "name": "addWings",
      "outputs": [
        {
          "internalType": "string[]",
          "name": "",
          "type": "string[]"
        }
      ],
      "stateMutability": "nonpayable",
      "type": "function"
    },
    {
      "inputs": [
        {
          "internalType": "uint256",
          "name": "rarityLevel",
          "type": "uint256"
        },
        {
          "internalType": "string",
          "name": "name",
          "type": "string"
        }
      ],
      "name": "addBoxes",
      "outputs": [
        {
          "internalType": "string[]",
          "name": "",
          "type": "string[]"
        }
      ],
      "stateMutability": "nonpayable",
      "type": "function"
    },
    {
      "inputs": [
        {
          "internalType": "uint256",
          "name": "rarityLevel",
          "type": "uint256"
        },
        {
          "internalType": "string",
          "name": "name",
          "type": "string"
        }
      ],
      "name": "addConsumables",
      "outputs": [
        {
          "internalType": "string[]",
          "name": "",
          "type": "string[]"
        }
      ],
      "stateMutability": "nonpayable",
      "type": "function"
    },
    {
      "inputs": [
        {
          "internalType": "uint256",
          "name": "rarityLevel",
          "type": "uint256"
        },
        {
          "internalType": "string",
          "name": "name",
          "type": "string"
        }
      ],
      "name": "addMisc",
      "outputs": [
        {
          "internalType": "string[]",
          "name": "",
          "type": "string[]"
        }
      ],
      "stateMutability": "nonpayable",
      "type": "function"
    },
    {
      "inputs": [
        {
          "components": [
            {
              "internalType": "string",
              "name": "name",
              "type": "string"
            },
            {
              "internalType": "uint256",
              "name": "maxLevel",
              "type": "uint256"
            },
            {
              "internalType": "uint256",
              "name": "itemRarityLevel",
              "type": "uint256"
            },
            {
              "internalType": "bool",
              "name": "isPackable",
              "type": "bool"
            },
            {
              "internalType": "bool",
              "name": "isBox",
              "type": "bool"
            },
            {
              "internalType": "bool",
              "name": "isWeapon",
              "type": "bool"
            },
            {
              "internalType": "bool",
              "name": "isArmour",
              "type": "bool"
            },
            {
              "internalType": "bool",
              "name": "isJewel",
              "type": "bool"
            },
            {
              "internalType": "bool",
              "name": "isWings",
              "type": "bool"
            },
            {
              "internalType": "bool",
              "name": "isMisc",
              "type": "bool"
            },
            {
              "internalType": "bool",
              "name": "isConsumable",
              "type": "bool"
            },
            {
              "internalType": "bool",
              "name": "inShop",
              "type": "bool"
            }
          ],
          "internalType": "struct ItemsBase.BaseItemAtts",
          "name": "atts",
          "type": "tuple"
        }
      ],
      "name": "createBaseItem",
      "outputs": [
        {
          "internalType": "string",
          "name": "name",
          "type": "string"
        }
      ],
      "stateMutability": "nonpayable",
      "type": "function"
    },
    {
      "inputs": [
        {
          "internalType": "string",
          "name": "name",
          "type": "string"
        }
      ],
      "name": "getBaseItemAtts",
      "outputs": [
        {
          "components": [
            {
              "internalType": "string",
              "name": "name",
              "type": "string"
            },
            {
              "internalType": "uint256",
              "name": "maxLevel",
              "type": "uint256"
            },
            {
              "internalType": "uint256",
              "name": "itemRarityLevel",
              "type": "uint256"
            },
            {
              "internalType": "bool",
              "name": "isPackable",
              "type": "bool"
            },
            {
              "internalType": "bool",
              "name": "isBox",
              "type": "bool"
            },
            {
              "internalType": "bool",
              "name": "isWeapon",
              "type": "bool"
            },
            {
              "internalType": "bool",
              "name": "isArmour",
              "type": "bool"
            },
            {
              "internalType": "bool",
              "name": "isJewel",
              "type": "bool"
            },
            {
              "internalType": "bool",
              "name": "isWings",
              "type": "bool"
            },
            {
              "internalType": "bool",
              "name": "isMisc",
              "type": "bool"
            },
            {
              "internalType": "bool",
              "name": "isConsumable",
              "type": "bool"
            },
            {
              "internalType": "bool",
              "name": "inShop",
              "type": "bool"
            }
          ],
          "internalType": "struct ItemsBase.BaseItemAtts",
          "name": "",
          "type": "tuple"
        }
      ],
      "stateMutability": "view",
      "type": "function",
      "constant": true
    }
  ],
  "bytecode": "0x6080806040523461001657611694908161001c8239f35b600080fdfe6080604052600436101561001257600080fd5b60003560e01c8062695f4b146110a95780629df65b1461103d57806301db91e01461101957806303d2e4a114610fe357806303f46b8b14610f5b5780630fff9ce214610df057806313d1995014610d9a57806318c7eccc14610d305780633267f8ab14610ca857806333768e1d1461090e5780633843147a146108d85780633a6713ec146108505780634e34b9c21461082c57806363503447146107f65780636b6c9368146107d25780636d5433e6146107b1578063751b32051461078d5780637ae2b5c7146107655780639b94680f146106dd578063a293d1e8146106af578063aa87adfc14610627578063afb6d70014610603578063b37217a41461058a578063c29a3c9314610554578063c93ae74e14610530578063d05c78da146104cd578063e6cb901314610473578063e8306a321461043d578063e8af18f3146103b7578063eee0d2f5146102ad578063f3cbb8b61461027c578063f4d106541461022c5763fd8f61701461018557600080fd5b3461022757602080600319360112610227576004356000526007815260406000209081546001600160401b038111610211578290604051916101cc848360051b0184611179565b8183526000908152838120938084015b8383106101f557604051806101f18782611396565b0390f35b60018281926102038961119a565b8152019601920191946101dc565b634e487b7160e01b600052604160045260246000fd5b600080fd5b346102275761023a366110df565b906000526001602052604060002090815481101561022757610262610268916101f1936110f5565b90611240565b60405191829160208352602083019061128a565b34610227576102a061028d36611305565b90600052600560205260406000206115af565b604051806101f181611334565b34610227576020366003190112610227576004356001600160401b038111610227576102f860206102e56103319336906004016112af565b8160405193828580945193849201611267565b8101600081520301902061030b8161119a565b90600181015490600360028201549101549060405194859461018080875286019061128a565b926020850152604084015260ff9081811615156060850152818160081c1615156080850152818160101c16151560a0850152818160181c16151560c0850152818160201c16151560e0850152818160281c161515610100850152818160301c161515610120850152818160381c16151561014085015260401c1615156101608301520390f35b34610227576020806003193601126102275760043560005260019081815260406000208054906001600160401b03821161021157604051926103fe818460051b0185611179565b82845260009182528082208185015b84841061042257604051806101f18882611396565b8683819261042f8561119a565b81520192019301929061040d565b346102275761044b366110df565b906000526005602052604060002090815481101561022757610262610268916101f1936110f5565b3461022757610481366110df565b90818101908181116104b7576020926104a49183101590816104ac575b506115e1565b604051908152f35b90508210158461049e565b634e487b7160e01b600052601160045260246000fd5b34610227576104db366110df565b808202908282049215928082148417156104b757838015610503575b6020846104a4876115e1565b9091935061051a576020926104a4911492846104f7565b634e487b7160e01b600052601260045260246000fd5b34610227576102a061054136611305565b90600052600760205260406000206115af565b3461022757610562366110df565b906000526007602052604060002090815481101561022757610262610268916101f1936110f5565b346102275760203660031901126102275760206064604051828101906105f7816105e933424360043544899391609495939185526020850152604084015260608301526bffffffffffffffffffffffff199060601b1660808201520190565b03601f198101835282611179565b51902006604051908152f35b34610227576102a061061436611305565b90600052600660205260406000206115af565b3461022757602080600319360112610227576004356000526006815260406000209081546001600160401b0381116102115782906040519161066e848360051b0184611179565b8183526000908152838120938084015b83831061069357604051806101f18782611396565b60018281926106a18961119a565b81520196019201919461067e565b34610227576106bd366110df565b6106c9828211156115e1565b81039081116104b757602090604051908152f35b3461022757602080600319360112610227576004356000526002815260406000209081546001600160401b03811161021157829060405191610724848360051b0184611179565b8183526000908152838120938084015b83831061074957604051806101f18782611396565b60018281926107578961119a565b815201960192019194610734565b34610227576020610775366110df565b808210156107865750604051908152f35b90506104a4565b34610227576102a061079e36611305565b90600052600260205260406000206115af565b346102275760206107c1366110df565b808211156107865750604051908152f35b34610227576102a06107e336611305565b90600052600460205260406000206115af565b3461022757610804366110df565b906000526002602052604060002090815481101561022757610262610268916101f1936110f5565b34610227576102a061083d36611305565b90600052600360205260406000206115af565b3461022757602080600319360112610227576004356000526004815260406000209081546001600160401b03811161021157829060405191610897848360051b0184611179565b8183526000908152838120938084015b8383106108bc57604051806101f18782611396565b60018281926108ca8961119a565b8152019601920191946108a7565b34610227576108e6366110df565b906000526006602052604060002090815481101561022757610262610268916101f1936110f5565b3461022757600319602036820112610227576004356001600160401b039182821161022757610180908236030112610227576040519061094d8261115d565b80600401359283116102275761096c6101f193600436918401016112af565b9081835282602081016024830135815260448301356040830152610a44602061099760648601611493565b95606085019687526109ab60848701611493565b60808601526109bc60a48701611493565b60a0860152610a2b6101646109d360c48901611493565b9760c088019889526109e760e48201611493565b60e08901526109f96101048201611493565b610100890152610a0c6101248201611493565b610120890152610a1f6101448201611493565b61014089015201611493565b6101608601528160405193828580945193849201611267565b8101600081520301902090610a5a8351836114a0565b51600182015560408201519384600283015551151590600381015490608084015115159460a08501511515905115159060e0860151151592600361010088015115159661012089015115159660ff68ff00000000000000006101606101408d015115159c0151151560401b1692169068ffffffffffffffffff19161761ff008b60081b161762ff00008560101b161763ff0000008660181b161764ff000000008760201b161765ff00000000008960281b161766ff0000000000008860301b161767ff000000000000008a60381b161717910155600014610bbc575050505050505060408101516000526001602052610b5960406000208251906115af565b7f3cb8f6655cbe6ad12f5c969c3f7c10c796bcca4d043289c4ebc17ccd4ba779fc610b968251610ba460405192839260408452604084019061128a565b8281036020840152856113f8565b0390a15160405191829160208352602083019061128a565b15610be95750505050505060408101516000526002602052610be460406000208251906115af565b610b59565b15610c1057505050505060408101516000526003602052610be460406000208251906115af565b15610c36575050505060408101516000526007602052610be460406000208251906115af565b15610c5b5750505060408101516000526004602052610be460406000208251906115af565b15610c7f57505060408101516000526006602052610be460406000208251906115af565b610c8a575b50610b59565b6000526005602052610ca260406000208251906115af565b82610c84565b3461022757602080600319360112610227576004356000526005815260406000209081546001600160401b03811161021157829060405191610cef848360051b0184611179565b8183526000908152838120938084015b838310610d1457604051806101f18782611396565b6001828192610d228961119a565b815201960192019194610cff565b34610227576020366003190112610227576004356001600160401b03811161022757610d90610d6560209236906004016112af565b610d8b60405184818451610d7c8183858901611267565b8101600081520301902061119a565b6115fe565b6040519015158152f35b34610227576040366003190112610227576001600160401b0360043581811161022757610dcb9036906004016112af565b9060243590811161022757602091610dea610d909236906004016112af565b906115fe565b3461022757602080600319360112610227576004356001600160401b03811161022757610e219036906004016112af565b90604051610e2e8161115d565b60608152600082820152600060408201526000606082015260006080820152600060a0820152600060c0820152600060e0820152610100600081830152610120600081840152610e9e84610140966000888701526000610160809701528160405193828580945193849201611267565b8101600081520301902094600360405196610eb88861115d565b610ec18161119a565b88526001810154878901526002810154604089015201549160ff9384841615156060890152848460081c1615156080890152848460101c16151560a0890152848460181c16151560c08901528484881c16151560e0890152848460281c16151590880152838360301c16151590870152828260381c1615159086015260401c161515908301526101f16040519282849384528301906113f8565b3461022757602080600319360112610227576004356000526003815260406000209081546001600160401b03811161021157829060405191610fa2848360051b0184611179565b8183526000908152838120938084015b838310610fc757604051806101f18782611396565b6001828192610fd58961119a565b815201960192019194610fb2565b3461022757610ff1366110df565b906000526003602052604060002090815481101561022757610262610268916101f1936110f5565b34610227576102a061102a36611305565b90600052600160205260406000206115af565b346102275761104b366110df565b604080514460208201908152918101939093524360608085019190915242608085015233901b6bffffffffffffffffffffffff191660a084015290916110948160b481016105e9565b519020811561051a5760209160405191068152f35b34610227576110b7366110df565b906000526004602052604060002090815481101561022757610262610268916101f1936110f5565b6040906003190112610227576004359060243590565b805482101561110d5760005260206000200190600090565b634e487b7160e01b600052603260045260246000fd5b90600182811c92168015611153575b602083101461113d57565b634e487b7160e01b600052602260045260246000fd5b91607f1691611132565b61018081019081106001600160401b0382111761021157604052565b90601f801991011681019081106001600160401b0382111761021157604052565b90604051918260008254926111ae84611123565b90818452600194858116908160001461121d57506001146111da575b50506111d892500383611179565b565b9093915060005260209081600020936000915b8183106112055750506111d8935082010138806111ca565b855488840185015294850194879450918301916111ed565b9150506111d894506020925060ff191682840152151560051b82010138806111ca565b906112515761124e9061119a565b90565b634e487b7160e01b600052600060045260246000fd5b60005b83811061127a5750506000910152565b818101518382015260200161126a565b906020916112a381518092818552858086019101611267565b601f01601f1916010190565b81601f82011215610227578035906001600160401b03821161021157604051926112e3601f8401601f191660200185611179565b8284526020838301011161022757816000926020809301838601378301015290565b9060406003198301126102275760043591602435906001600160401b0382116102275761124e916004016112af565b6020808201818352606051809152604083019160408260051b850101936080936000915b8483106113685750505050505090565b9091929394958480611386600193603f198682030187528a5161128a565b9801930193019194939290611358565b602080820190808352835180925260408301928160408460051b8301019501936000915b8483106113ca5750505050505090565b90919293949584806113e8600193603f198682030187528a5161128a565b98019301930191949392906113ba565b9061140c825161018080845283019061128a565b91602081015160208301526040810151604083015260608101511515606083015260808101511515608083015260a0810151151560a083015260c0810151151560c083015260e0810151151560e083015261010080820151151590830152610120808201511515908301526101408082015115159083015261016080910151151591015290565b3590811515820361022757565b91909182516001600160401b038111610211576114bd8254611123565b601f8111611567575b50602080601f83116001146115035750819293946000926114f8575b50508160011b916000199060031b1c1916179055565b0151905038806114e2565b90601f198316958460005282600020926000905b88821061154f57505083600195969710611536575b505050811b019055565b015160001960f88460031b161c1916905538808061152c565b80600185968294968601518155019501930190611517565b600083815260208120601f840160051c810192602085106115a5575b601f0160051c01915b82811061159a5750506114c6565b81815560010161158c565b9092508290611583565b805468010000000000000000811015610211576115d1916001820181556110f5565b919091611251576111d8916114a0565b156115e857565b634e487b7160e01b600052600160045260246000fd5b906040519160209261162c84828161161f8183019687815193849201611267565b8101038084520182611179565b5190209161164c60405191828161161f8183019687815193849201611267565b5190200361165957600190565b60009056fea26469706673582212206b2e96678f656f38304e75d96ad81f3d96dae9af53d2e54fdfddca818306750364736f6c63430008130033",
  "immutableReferences": {},
  "source": "// SPDX-License-Identifier: MIT\npragma solidity ^0.8.18;\n\nimport \"./SafeMath.sol\";\n\ncontract ItemsBase is SafeMath {\n\n\n\n    mapping (string => BaseItemAtts) public baseItemAttributes;\n\n    mapping (uint256 => string[]) public Weapons;\n    mapping (uint256 => string[]) public Armours;\n    mapping (uint256 => string[]) public Jewels;\n    mapping (uint256 => string[]) public Wings;\n    mapping (uint256 => string[]) public Boxes; \n    mapping (uint256 => string[]) public Consumables; // potions\n    mapping (uint256 => string[]) public Misc; // scrolls\n\n    struct BaseItemAtts {\n        string name;\n\n        uint256 maxLevel;\n        \n        uint256 itemRarityLevel;\n\n        bool isPackable;\n\n        bool isBox;\n        bool isWeapon;\n        bool isArmour;\n        bool isJewel;\n        bool isWings;\n        bool isMisc;\n        bool isConsumable;\n        bool inShop;\n    }    \n\n    event ItemGenerated(string name, ItemsBase.BaseItemAtts atts);\n\n    function baseItemExists(string memory name) public view returns (bool) {\n        return stringsEqual(baseItemAttributes[name].name, name);\n    }\n\n\n\n    function getWeapons(uint256 rarityLevel) public view returns(string[] memory) {\n        return Weapons[rarityLevel];\n    }\n    function getArmours(uint256 rarityLevel) public view returns(string[] memory) {\n        return Armours[rarityLevel];\n    }\n    function getJewels(uint256 rarityLevel) public view returns(string[] memory) {\n        return Jewels[rarityLevel];\n    }\n    function getWings(uint256 rarityLevel) public view returns(string[] memory) {\n        return Wings[rarityLevel];\n    }\n    function getBoxes(uint256 rarityLevel) public view returns(string[] memory) {\n        return Boxes[rarityLevel];\n    }\n    function getConsumables(uint256 rarityLevel) public view returns(string[] memory) {\n        return Consumables[rarityLevel];\n    }\n    function getMisc(uint256 rarityLevel) public view returns(string[] memory) {\n        return Misc[rarityLevel];\n    }\n\n\n    function addWeapons(uint256 rarityLevel, string memory name) public returns(string[] memory) {\n        Weapons[rarityLevel].push(name);\n    }\n    function addArmours(uint256 rarityLevel, string memory name) public returns(string[] memory) {\n        Armours[rarityLevel].push(name);\n    }\n    function addJewels(uint256 rarityLevel, string memory name) public returns(string[] memory) {\n        Jewels[rarityLevel].push(name);\n    }\n    function addWings(uint256 rarityLevel, string memory name) public returns(string[] memory) {\n        Wings[rarityLevel].push(name);\n    }\n    function addBoxes(uint256 rarityLevel, string memory name) public returns(string[] memory) {\n        Boxes[rarityLevel].push(name);\n    }\n    function addConsumables(uint256 rarityLevel, string memory name) public returns(string[] memory) {\n        Consumables[rarityLevel].push(name);\n    }\n    function addMisc(uint256 rarityLevel, string memory name) public returns(string[] memory) {\n        Misc[rarityLevel].push(name);\n    }\n\n\n\n\n    function createBaseItem(BaseItemAtts memory atts) public returns (string memory name) {  \n        baseItemAttributes[atts.name] = atts;\n\n        if (atts.isWeapon) {\n            Weapons[atts.itemRarityLevel].push(atts.name);\n        } else if (atts.isArmour) {\n            Armours[atts.itemRarityLevel].push(atts.name);\n        } else if (atts.isJewel) {\n            Jewels[atts.itemRarityLevel].push(atts.name);\n        } else if (atts.isMisc) {\n            Misc[atts.itemRarityLevel].push(atts.name);\n        } else if (atts.isWings) {\n            Wings[atts.itemRarityLevel].push(atts.name);\n        } else if (atts.isConsumable) {\n            Consumables[atts.itemRarityLevel].push(atts.name);\n        } else if (atts.isBox) {\n            Boxes[atts.itemRarityLevel].push(atts.name);\n        } \n\n        emit ItemGenerated(atts.name, atts);\n\n        return atts.name;\n    }\n\n    function getBaseItemAtts(string memory name) public view returns (BaseItemAtts memory) {  \n        return baseItemAttributes[name];\n    }\n\n}",
  "sourcePath": "/Users/max/Documents/prog/game-contracts/contracts/ItemsBase.sol",
  "compiler": {
    "name": "solc",
    "version": "0.8.19+commit.7dd6d404.Emscripten.clang"
  },
  "schemaVersion": "3.4.13",
  "updatedAt": "2023-08-09T04:15:28.888Z",
  "networkType": "ethereum",
  "devdoc": {
    "kind": "dev",
    "methods": {},
    "version": 1
  },
  "userdoc": {
    "kind": "user",
    "methods": {},
    "version": 1
  }
}