{
  "contractName": "ItemsExcellent",
  "abi": [
    {
      "inputs": [
        {
          "internalType": "address",
          "name": "itemsAddress",
          "type": "address"
        }
      ],
      "stateMutability": "nonpayable",
      "type": "constructor"
    },
    {
      "inputs": [
        {
          "internalType": "uint256",
          "name": "",
          "type": "uint256"
        }
      ],
      "name": "ArmoursExcOpts",
      "outputs": [
        {
          "internalType": "uint256",
          "name": "defenseSuccessRateIncrease",
          "type": "uint256"
        },
        {
          "internalType": "uint256",
          "name": "goldAfterMonsterIncrease",
          "type": "uint256"
        },
        {
          "internalType": "uint256",
          "name": "reflectDamage",
          "type": "uint256"
        },
        {
          "internalType": "uint256",
          "name": "maxLifeIncrease",
          "type": "uint256"
        },
        {
          "internalType": "uint256",
          "name": "maxManaIncrease",
          "type": "uint256"
        },
        {
          "internalType": "uint256",
          "name": "hpRecoveryRateIncrease",
          "type": "uint256"
        },
        {
          "internalType": "uint256",
          "name": "mpRecoveryRateIncrease",
          "type": "uint256"
        },
        {
          "internalType": "uint256",
          "name": "decreaseDamageRateIncrease",
          "type": "uint256"
        },
        {
          "internalType": "uint256",
          "name": "doubleOptionChance",
          "type": "uint256"
        }
      ],
      "stateMutability": "view",
      "type": "function",
      "constant": true
    },
    {
      "inputs": [
        {
          "internalType": "uint256",
          "name": "",
          "type": "uint256"
        }
      ],
      "name": "WeaponsExcOpts",
      "outputs": [
        {
          "internalType": "uint256",
          "name": "lifeAfterMonsterIncrease",
          "type": "uint256"
        },
        {
          "internalType": "uint256",
          "name": "manaAfterMonsterIncrease",
          "type": "uint256"
        },
        {
          "internalType": "uint256",
          "name": "excellentDamageProbabilityIncrease",
          "type": "uint256"
        },
        {
          "internalType": "uint256",
          "name": "attackSpeedIncrease",
          "type": "uint256"
        },
        {
          "internalType": "uint256",
          "name": "attackLvl20",
          "type": "uint256"
        },
        {
          "internalType": "uint256",
          "name": "attackIncreasePercent",
          "type": "uint256"
        },
        {
          "internalType": "uint256",
          "name": "doubleOptionChance",
          "type": "uint256"
        }
      ],
      "stateMutability": "view",
      "type": "function",
      "constant": true
    },
    {
      "inputs": [
        {
          "internalType": "uint256",
          "name": "",
          "type": "uint256"
        }
      ],
      "name": "WingsExcOpts",
      "outputs": [
        {
          "internalType": "uint256",
          "name": "increaseAttackSpeedPoints",
          "type": "uint256"
        },
        {
          "internalType": "uint256",
          "name": "reflectDamagePercent",
          "type": "uint256"
        },
        {
          "internalType": "uint256",
          "name": "restoreHPChance",
          "type": "uint256"
        },
        {
          "internalType": "uint256",
          "name": "restoreMPChance",
          "type": "uint256"
        },
        {
          "internalType": "uint256",
          "name": "doubleDamageChance",
          "type": "uint256"
        },
        {
          "internalType": "uint256",
          "name": "ignoreOpponentDefenseChance",
          "type": "uint256"
        },
        {
          "internalType": "uint256",
          "name": "doubleOptionChance",
          "type": "uint256"
        }
      ],
      "stateMutability": "view",
      "type": "function",
      "constant": true
    },
    {
      "inputs": [
        {
          "internalType": "uint256",
          "name": "seed",
          "type": "uint256"
        }
      ],
      "name": "getRandomNumber",
      "outputs": [
        {
          "internalType": "uint256",
          "name": "",
          "type": "uint256"
        }
      ],
      "stateMutability": "view",
      "type": "function",
      "constant": true
    },
    {
      "inputs": [
        {
          "internalType": "uint256",
          "name": "seed",
          "type": "uint256"
        },
        {
          "internalType": "uint256",
          "name": "maxNum",
          "type": "uint256"
        }
      ],
      "name": "getRandomNumberMax",
      "outputs": [
        {
          "internalType": "uint256",
          "name": "",
          "type": "uint256"
        }
      ],
      "stateMutability": "view",
      "type": "function",
      "constant": true
    },
    {
      "inputs": [
        {
          "internalType": "uint256",
          "name": "",
          "type": "uint256"
        }
      ],
      "name": "isExcellent",
      "outputs": [
        {
          "internalType": "bool",
          "name": "",
          "type": "bool"
        }
      ],
      "stateMutability": "view",
      "type": "function",
      "constant": true
    },
    {
      "inputs": [
        {
          "internalType": "uint256",
          "name": "a",
          "type": "uint256"
        },
        {
          "internalType": "uint256",
          "name": "b",
          "type": "uint256"
        }
      ],
      "name": "max",
      "outputs": [
        {
          "internalType": "uint256",
          "name": "",
          "type": "uint256"
        }
      ],
      "stateMutability": "view",
      "type": "function",
      "constant": true
    },
    {
      "inputs": [
        {
          "internalType": "uint256",
          "name": "a",
          "type": "uint256"
        },
        {
          "internalType": "uint256",
          "name": "b",
          "type": "uint256"
        }
      ],
      "name": "min",
      "outputs": [
        {
          "internalType": "uint256",
          "name": "",
          "type": "uint256"
        }
      ],
      "stateMutability": "view",
      "type": "function",
      "constant": true
    },
    {
      "inputs": [
        {
          "internalType": "uint256",
          "name": "a",
          "type": "uint256"
        },
        {
          "internalType": "uint256",
          "name": "b",
          "type": "uint256"
        }
      ],
      "name": "safeAdd",
      "outputs": [
        {
          "internalType": "uint256",
          "name": "",
          "type": "uint256"
        }
      ],
      "stateMutability": "view",
      "type": "function",
      "constant": true
    },
    {
      "inputs": [
        {
          "internalType": "uint256",
          "name": "a",
          "type": "uint256"
        },
        {
          "internalType": "uint256",
          "name": "b",
          "type": "uint256"
        }
      ],
      "name": "safeMul",
      "outputs": [
        {
          "internalType": "uint256",
          "name": "",
          "type": "uint256"
        }
      ],
      "stateMutability": "view",
      "type": "function",
      "constant": true
    },
    {
      "inputs": [
        {
          "internalType": "uint256",
          "name": "a",
          "type": "uint256"
        },
        {
          "internalType": "uint256",
          "name": "b",
          "type": "uint256"
        }
      ],
      "name": "safeSub",
      "outputs": [
        {
          "internalType": "uint256",
          "name": "",
          "type": "uint256"
        }
      ],
      "stateMutability": "view",
      "type": "function",
      "constant": true
    },
    {
      "inputs": [
        {
          "internalType": "string",
          "name": "a",
          "type": "string"
        },
        {
          "internalType": "string",
          "name": "b",
          "type": "string"
        }
      ],
      "name": "stringsEqual",
      "outputs": [
        {
          "internalType": "bool",
          "name": "",
          "type": "bool"
        }
      ],
      "stateMutability": "view",
      "type": "function",
      "constant": true
    },
    {
      "inputs": [
        {
          "internalType": "uint256",
          "name": "tokenId",
          "type": "uint256"
        }
      ],
      "name": "isItemExcellent",
      "outputs": [
        {
          "internalType": "bool",
          "name": "",
          "type": "bool"
        }
      ],
      "stateMutability": "view",
      "type": "function",
      "constant": true
    },
    {
      "inputs": [
        {
          "components": [
            {
              "internalType": "string",
              "name": "name",
              "type": "string"
            },
            {
              "internalType": "uint256",
              "name": "tokenId",
              "type": "uint256"
            },
            {
              "internalType": "uint256",
              "name": "itemLevel",
              "type": "uint256"
            },
            {
              "internalType": "uint256",
              "name": "maxLevel",
              "type": "uint256"
            },
            {
              "internalType": "uint256",
              "name": "additionalDamage",
              "type": "uint256"
            },
            {
              "internalType": "uint256",
              "name": "additionalDefense",
              "type": "uint256"
            },
            {
              "internalType": "uint256",
              "name": "fighterId",
              "type": "uint256"
            },
            {
              "internalType": "uint256",
              "name": "lastUpdBlock",
              "type": "uint256"
            },
            {
              "internalType": "uint256",
              "name": "itemRarityLevel",
              "type": "uint256"
            },
            {
              "internalType": "uint256",
              "name": "packSize",
              "type": "uint256"
            },
            {
              "internalType": "bool",
              "name": "luck",
              "type": "bool"
            },
            {
              "internalType": "bool",
              "name": "skill",
              "type": "bool"
            },
            {
              "internalType": "bool",
              "name": "isPackable",
              "type": "bool"
            },
            {
              "internalType": "bool",
              "name": "isBox",
              "type": "bool"
            },
            {
              "internalType": "bool",
              "name": "isWeapon",
              "type": "bool"
            },
            {
              "internalType": "bool",
              "name": "isArmour",
              "type": "bool"
            },
            {
              "internalType": "bool",
              "name": "isJewel",
              "type": "bool"
            },
            {
              "internalType": "bool",
              "name": "isWings",
              "type": "bool"
            },
            {
              "internalType": "bool",
              "name": "isMisc",
              "type": "bool"
            },
            {
              "internalType": "bool",
              "name": "isConsumable",
              "type": "bool"
            },
            {
              "internalType": "bool",
              "name": "inShop",
              "type": "bool"
            }
          ],
          "internalType": "struct ItemsAtts.ItemAttributes",
          "name": "item",
          "type": "tuple"
        }
      ],
      "name": "convertToExcellent",
      "outputs": [
        {
          "components": [
            {
              "internalType": "string",
              "name": "name",
              "type": "string"
            },
            {
              "internalType": "uint256",
              "name": "tokenId",
              "type": "uint256"
            },
            {
              "internalType": "uint256",
              "name": "itemLevel",
              "type": "uint256"
            },
            {
              "internalType": "uint256",
              "name": "maxLevel",
              "type": "uint256"
            },
            {
              "internalType": "uint256",
              "name": "additionalDamage",
              "type": "uint256"
            },
            {
              "internalType": "uint256",
              "name": "additionalDefense",
              "type": "uint256"
            },
            {
              "internalType": "uint256",
              "name": "fighterId",
              "type": "uint256"
            },
            {
              "internalType": "uint256",
              "name": "lastUpdBlock",
              "type": "uint256"
            },
            {
              "internalType": "uint256",
              "name": "itemRarityLevel",
              "type": "uint256"
            },
            {
              "internalType": "uint256",
              "name": "packSize",
              "type": "uint256"
            },
            {
              "internalType": "bool",
              "name": "luck",
              "type": "bool"
            },
            {
              "internalType": "bool",
              "name": "skill",
              "type": "bool"
            },
            {
              "internalType": "bool",
              "name": "isPackable",
              "type": "bool"
            },
            {
              "internalType": "bool",
              "name": "isBox",
              "type": "bool"
            },
            {
              "internalType": "bool",
              "name": "isWeapon",
              "type": "bool"
            },
            {
              "internalType": "bool",
              "name": "isArmour",
              "type": "bool"
            },
            {
              "internalType": "bool",
              "name": "isJewel",
              "type": "bool"
            },
            {
              "internalType": "bool",
              "name": "isWings",
              "type": "bool"
            },
            {
              "internalType": "bool",
              "name": "isMisc",
              "type": "bool"
            },
            {
              "internalType": "bool",
              "name": "isConsumable",
              "type": "bool"
            },
            {
              "internalType": "bool",
              "name": "inShop",
              "type": "bool"
            },
            {
              "internalType": "uint256",
              "name": "increaseAttackSpeedPoints",
              "type": "uint256"
            },
            {
              "internalType": "uint256",
              "name": "reflectDamagePercent",
              "type": "uint256"
            },
            {
              "internalType": "uint256",
              "name": "restoreHPChance",
              "type": "uint256"
            },
            {
              "internalType": "uint256",
              "name": "restoreMPChance",
              "type": "uint256"
            },
            {
              "internalType": "uint256",
              "name": "doubleDamageChance",
              "type": "uint256"
            },
            {
              "internalType": "uint256",
              "name": "ignoreOpponentDefenseChance",
              "type": "uint256"
            },
            {
              "internalType": "uint256",
              "name": "lifeAfterMonsterIncrease",
              "type": "uint256"
            },
            {
              "internalType": "uint256",
              "name": "manaAfterMonsterIncrease",
              "type": "uint256"
            },
            {
              "internalType": "uint256",
              "name": "excellentDamageProbabilityIncrease",
              "type": "uint256"
            },
            {
              "internalType": "uint256",
              "name": "attackSpeedIncrease",
              "type": "uint256"
            },
            {
              "internalType": "uint256",
              "name": "attackLvl20",
              "type": "uint256"
            },
            {
              "internalType": "uint256",
              "name": "attackIncreasePercent",
              "type": "uint256"
            },
            {
              "internalType": "uint256",
              "name": "defenseSuccessRateIncrease",
              "type": "uint256"
            },
            {
              "internalType": "uint256",
              "name": "goldAfterMonsterIncrease",
              "type": "uint256"
            },
            {
              "internalType": "uint256",
              "name": "reflectDamage",
              "type": "uint256"
            },
            {
              "internalType": "uint256",
              "name": "maxLifeIncrease",
              "type": "uint256"
            },
            {
              "internalType": "uint256",
              "name": "maxManaIncrease",
              "type": "uint256"
            },
            {
              "internalType": "uint256",
              "name": "hpRecoveryRateIncrease",
              "type": "uint256"
            },
            {
              "internalType": "uint256",
              "name": "mpRecoveryRateIncrease",
              "type": "uint256"
            },
            {
              "internalType": "uint256",
              "name": "decreaseDamageRateIncrease",
              "type": "uint256"
            }
          ],
          "internalType": "struct ItemsExcellentAtts.ExcellentItemAtts",
          "name": "",
          "type": "tuple"
        }
      ],
      "stateMutability": "view",
      "type": "function",
      "constant": true
    },
    {
      "inputs": [
        {
          "internalType": "string",
          "name": "itemName",
          "type": "string"
        }
      ],
      "name": "getItemAttributes",
      "outputs": [
        {
          "components": [
            {
              "internalType": "string",
              "name": "name",
              "type": "string"
            },
            {
              "internalType": "uint256",
              "name": "tokenId",
              "type": "uint256"
            },
            {
              "internalType": "uint256",
              "name": "itemLevel",
              "type": "uint256"
            },
            {
              "internalType": "uint256",
              "name": "maxLevel",
              "type": "uint256"
            },
            {
              "internalType": "uint256",
              "name": "additionalDamage",
              "type": "uint256"
            },
            {
              "internalType": "uint256",
              "name": "additionalDefense",
              "type": "uint256"
            },
            {
              "internalType": "uint256",
              "name": "fighterId",
              "type": "uint256"
            },
            {
              "internalType": "uint256",
              "name": "lastUpdBlock",
              "type": "uint256"
            },
            {
              "internalType": "uint256",
              "name": "itemRarityLevel",
              "type": "uint256"
            },
            {
              "internalType": "uint256",
              "name": "packSize",
              "type": "uint256"
            },
            {
              "internalType": "bool",
              "name": "luck",
              "type": "bool"
            },
            {
              "internalType": "bool",
              "name": "skill",
              "type": "bool"
            },
            {
              "internalType": "bool",
              "name": "isPackable",
              "type": "bool"
            },
            {
              "internalType": "bool",
              "name": "isBox",
              "type": "bool"
            },
            {
              "internalType": "bool",
              "name": "isWeapon",
              "type": "bool"
            },
            {
              "internalType": "bool",
              "name": "isArmour",
              "type": "bool"
            },
            {
              "internalType": "bool",
              "name": "isJewel",
              "type": "bool"
            },
            {
              "internalType": "bool",
              "name": "isWings",
              "type": "bool"
            },
            {
              "internalType": "bool",
              "name": "isMisc",
              "type": "bool"
            },
            {
              "internalType": "bool",
              "name": "isConsumable",
              "type": "bool"
            },
            {
              "internalType": "bool",
              "name": "inShop",
              "type": "bool"
            },
            {
              "internalType": "uint256",
              "name": "increaseAttackSpeedPoints",
              "type": "uint256"
            },
            {
              "internalType": "uint256",
              "name": "reflectDamagePercent",
              "type": "uint256"
            },
            {
              "internalType": "uint256",
              "name": "restoreHPChance",
              "type": "uint256"
            },
            {
              "internalType": "uint256",
              "name": "restoreMPChance",
              "type": "uint256"
            },
            {
              "internalType": "uint256",
              "name": "doubleDamageChance",
              "type": "uint256"
            },
            {
              "internalType": "uint256",
              "name": "ignoreOpponentDefenseChance",
              "type": "uint256"
            },
            {
              "internalType": "uint256",
              "name": "lifeAfterMonsterIncrease",
              "type": "uint256"
            },
            {
              "internalType": "uint256",
              "name": "manaAfterMonsterIncrease",
              "type": "uint256"
            },
            {
              "internalType": "uint256",
              "name": "excellentDamageProbabilityIncrease",
              "type": "uint256"
            },
            {
              "internalType": "uint256",
              "name": "attackSpeedIncrease",
              "type": "uint256"
            },
            {
              "internalType": "uint256",
              "name": "attackLvl20",
              "type": "uint256"
            },
            {
              "internalType": "uint256",
              "name": "attackIncreasePercent",
              "type": "uint256"
            },
            {
              "internalType": "uint256",
              "name": "defenseSuccessRateIncrease",
              "type": "uint256"
            },
            {
              "internalType": "uint256",
              "name": "goldAfterMonsterIncrease",
              "type": "uint256"
            },
            {
              "internalType": "uint256",
              "name": "reflectDamage",
              "type": "uint256"
            },
            {
              "internalType": "uint256",
              "name": "maxLifeIncrease",
              "type": "uint256"
            },
            {
              "internalType": "uint256",
              "name": "maxManaIncrease",
              "type": "uint256"
            },
            {
              "internalType": "uint256",
              "name": "hpRecoveryRateIncrease",
              "type": "uint256"
            },
            {
              "internalType": "uint256",
              "name": "mpRecoveryRateIncrease",
              "type": "uint256"
            },
            {
              "internalType": "uint256",
              "name": "decreaseDamageRateIncrease",
              "type": "uint256"
            }
          ],
          "internalType": "struct ItemsExcellentAtts.ExcellentItemAtts",
          "name": "",
          "type": "tuple"
        }
      ],
      "stateMutability": "nonpayable",
      "type": "function"
    },
    {
      "inputs": [
        {
          "internalType": "uint256",
          "name": "tokenId",
          "type": "uint256"
        }
      ],
      "name": "getTokenAttributes",
      "outputs": [
        {
          "components": [
            {
              "internalType": "string",
              "name": "name",
              "type": "string"
            },
            {
              "internalType": "uint256",
              "name": "tokenId",
              "type": "uint256"
            },
            {
              "internalType": "uint256",
              "name": "itemLevel",
              "type": "uint256"
            },
            {
              "internalType": "uint256",
              "name": "maxLevel",
              "type": "uint256"
            },
            {
              "internalType": "uint256",
              "name": "additionalDamage",
              "type": "uint256"
            },
            {
              "internalType": "uint256",
              "name": "additionalDefense",
              "type": "uint256"
            },
            {
              "internalType": "uint256",
              "name": "fighterId",
              "type": "uint256"
            },
            {
              "internalType": "uint256",
              "name": "lastUpdBlock",
              "type": "uint256"
            },
            {
              "internalType": "uint256",
              "name": "itemRarityLevel",
              "type": "uint256"
            },
            {
              "internalType": "uint256",
              "name": "packSize",
              "type": "uint256"
            },
            {
              "internalType": "bool",
              "name": "luck",
              "type": "bool"
            },
            {
              "internalType": "bool",
              "name": "skill",
              "type": "bool"
            },
            {
              "internalType": "bool",
              "name": "isPackable",
              "type": "bool"
            },
            {
              "internalType": "bool",
              "name": "isBox",
              "type": "bool"
            },
            {
              "internalType": "bool",
              "name": "isWeapon",
              "type": "bool"
            },
            {
              "internalType": "bool",
              "name": "isArmour",
              "type": "bool"
            },
            {
              "internalType": "bool",
              "name": "isJewel",
              "type": "bool"
            },
            {
              "internalType": "bool",
              "name": "isWings",
              "type": "bool"
            },
            {
              "internalType": "bool",
              "name": "isMisc",
              "type": "bool"
            },
            {
              "internalType": "bool",
              "name": "isConsumable",
              "type": "bool"
            },
            {
              "internalType": "bool",
              "name": "inShop",
              "type": "bool"
            },
            {
              "internalType": "uint256",
              "name": "increaseAttackSpeedPoints",
              "type": "uint256"
            },
            {
              "internalType": "uint256",
              "name": "reflectDamagePercent",
              "type": "uint256"
            },
            {
              "internalType": "uint256",
              "name": "restoreHPChance",
              "type": "uint256"
            },
            {
              "internalType": "uint256",
              "name": "restoreMPChance",
              "type": "uint256"
            },
            {
              "internalType": "uint256",
              "name": "doubleDamageChance",
              "type": "uint256"
            },
            {
              "internalType": "uint256",
              "name": "ignoreOpponentDefenseChance",
              "type": "uint256"
            },
            {
              "internalType": "uint256",
              "name": "lifeAfterMonsterIncrease",
              "type": "uint256"
            },
            {
              "internalType": "uint256",
              "name": "manaAfterMonsterIncrease",
              "type": "uint256"
            },
            {
              "internalType": "uint256",
              "name": "excellentDamageProbabilityIncrease",
              "type": "uint256"
            },
            {
              "internalType": "uint256",
              "name": "attackSpeedIncrease",
              "type": "uint256"
            },
            {
              "internalType": "uint256",
              "name": "attackLvl20",
              "type": "uint256"
            },
            {
              "internalType": "uint256",
              "name": "attackIncreasePercent",
              "type": "uint256"
            },
            {
              "internalType": "uint256",
              "name": "defenseSuccessRateIncrease",
              "type": "uint256"
            },
            {
              "internalType": "uint256",
              "name": "goldAfterMonsterIncrease",
              "type": "uint256"
            },
            {
              "internalType": "uint256",
              "name": "reflectDamage",
              "type": "uint256"
            },
            {
              "internalType": "uint256",
              "name": "maxLifeIncrease",
              "type": "uint256"
            },
            {
              "internalType": "uint256",
              "name": "maxManaIncrease",
              "type": "uint256"
            },
            {
              "internalType": "uint256",
              "name": "hpRecoveryRateIncrease",
              "type": "uint256"
            },
            {
              "internalType": "uint256",
              "name": "mpRecoveryRateIncrease",
              "type": "uint256"
            },
            {
              "internalType": "uint256",
              "name": "decreaseDamageRateIncrease",
              "type": "uint256"
            }
          ],
          "internalType": "struct ItemsExcellentAtts.ExcellentItemAtts",
          "name": "",
          "type": "tuple"
        }
      ],
      "stateMutability": "nonpayable",
      "type": "function"
    },
    {
      "inputs": [
        {
          "internalType": "uint256",
          "name": "tokenId",
          "type": "uint256"
        },
        {
          "components": [
            {
              "internalType": "string",
              "name": "name",
              "type": "string"
            },
            {
              "internalType": "uint256",
              "name": "tokenId",
              "type": "uint256"
            },
            {
              "internalType": "uint256",
              "name": "itemLevel",
              "type": "uint256"
            },
            {
              "internalType": "uint256",
              "name": "maxLevel",
              "type": "uint256"
            },
            {
              "internalType": "uint256",
              "name": "additionalDamage",
              "type": "uint256"
            },
            {
              "internalType": "uint256",
              "name": "additionalDefense",
              "type": "uint256"
            },
            {
              "internalType": "uint256",
              "name": "fighterId",
              "type": "uint256"
            },
            {
              "internalType": "uint256",
              "name": "lastUpdBlock",
              "type": "uint256"
            },
            {
              "internalType": "uint256",
              "name": "itemRarityLevel",
              "type": "uint256"
            },
            {
              "internalType": "uint256",
              "name": "packSize",
              "type": "uint256"
            },
            {
              "internalType": "bool",
              "name": "luck",
              "type": "bool"
            },
            {
              "internalType": "bool",
              "name": "skill",
              "type": "bool"
            },
            {
              "internalType": "bool",
              "name": "isPackable",
              "type": "bool"
            },
            {
              "internalType": "bool",
              "name": "isBox",
              "type": "bool"
            },
            {
              "internalType": "bool",
              "name": "isWeapon",
              "type": "bool"
            },
            {
              "internalType": "bool",
              "name": "isArmour",
              "type": "bool"
            },
            {
              "internalType": "bool",
              "name": "isJewel",
              "type": "bool"
            },
            {
              "internalType": "bool",
              "name": "isWings",
              "type": "bool"
            },
            {
              "internalType": "bool",
              "name": "isMisc",
              "type": "bool"
            },
            {
              "internalType": "bool",
              "name": "isConsumable",
              "type": "bool"
            },
            {
              "internalType": "bool",
              "name": "inShop",
              "type": "bool"
            },
            {
              "internalType": "uint256",
              "name": "increaseAttackSpeedPoints",
              "type": "uint256"
            },
            {
              "internalType": "uint256",
              "name": "reflectDamagePercent",
              "type": "uint256"
            },
            {
              "internalType": "uint256",
              "name": "restoreHPChance",
              "type": "uint256"
            },
            {
              "internalType": "uint256",
              "name": "restoreMPChance",
              "type": "uint256"
            },
            {
              "internalType": "uint256",
              "name": "doubleDamageChance",
              "type": "uint256"
            },
            {
              "internalType": "uint256",
              "name": "ignoreOpponentDefenseChance",
              "type": "uint256"
            },
            {
              "internalType": "uint256",
              "name": "lifeAfterMonsterIncrease",
              "type": "uint256"
            },
            {
              "internalType": "uint256",
              "name": "manaAfterMonsterIncrease",
              "type": "uint256"
            },
            {
              "internalType": "uint256",
              "name": "excellentDamageProbabilityIncrease",
              "type": "uint256"
            },
            {
              "internalType": "uint256",
              "name": "attackSpeedIncrease",
              "type": "uint256"
            },
            {
              "internalType": "uint256",
              "name": "attackLvl20",
              "type": "uint256"
            },
            {
              "internalType": "uint256",
              "name": "attackIncreasePercent",
              "type": "uint256"
            },
            {
              "internalType": "uint256",
              "name": "defenseSuccessRateIncrease",
              "type": "uint256"
            },
            {
              "internalType": "uint256",
              "name": "goldAfterMonsterIncrease",
              "type": "uint256"
            },
            {
              "internalType": "uint256",
              "name": "reflectDamage",
              "type": "uint256"
            },
            {
              "internalType": "uint256",
              "name": "maxLifeIncrease",
              "type": "uint256"
            },
            {
              "internalType": "uint256",
              "name": "maxManaIncrease",
              "type": "uint256"
            },
            {
              "internalType": "uint256",
              "name": "hpRecoveryRateIncrease",
              "type": "uint256"
            },
            {
              "internalType": "uint256",
              "name": "mpRecoveryRateIncrease",
              "type": "uint256"
            },
            {
              "internalType": "uint256",
              "name": "decreaseDamageRateIncrease",
              "type": "uint256"
            }
          ],
          "internalType": "struct ItemsExcellentAtts.ExcellentItemAtts",
          "name": "atts",
          "type": "tuple"
        }
      ],
      "name": "setTokenAttributes",
      "outputs": [],
      "stateMutability": "nonpayable",
      "type": "function"
    },
    {
      "inputs": [
        {
          "components": [
            {
              "internalType": "string",
              "name": "name",
              "type": "string"
            },
            {
              "internalType": "uint256",
              "name": "tokenId",
              "type": "uint256"
            },
            {
              "internalType": "uint256",
              "name": "itemLevel",
              "type": "uint256"
            },
            {
              "internalType": "uint256",
              "name": "maxLevel",
              "type": "uint256"
            },
            {
              "internalType": "uint256",
              "name": "additionalDamage",
              "type": "uint256"
            },
            {
              "internalType": "uint256",
              "name": "additionalDefense",
              "type": "uint256"
            },
            {
              "internalType": "uint256",
              "name": "fighterId",
              "type": "uint256"
            },
            {
              "internalType": "uint256",
              "name": "lastUpdBlock",
              "type": "uint256"
            },
            {
              "internalType": "uint256",
              "name": "itemRarityLevel",
              "type": "uint256"
            },
            {
              "internalType": "uint256",
              "name": "packSize",
              "type": "uint256"
            },
            {
              "internalType": "bool",
              "name": "luck",
              "type": "bool"
            },
            {
              "internalType": "bool",
              "name": "skill",
              "type": "bool"
            },
            {
              "internalType": "bool",
              "name": "isPackable",
              "type": "bool"
            },
            {
              "internalType": "bool",
              "name": "isBox",
              "type": "bool"
            },
            {
              "internalType": "bool",
              "name": "isWeapon",
              "type": "bool"
            },
            {
              "internalType": "bool",
              "name": "isArmour",
              "type": "bool"
            },
            {
              "internalType": "bool",
              "name": "isJewel",
              "type": "bool"
            },
            {
              "internalType": "bool",
              "name": "isWings",
              "type": "bool"
            },
            {
              "internalType": "bool",
              "name": "isMisc",
              "type": "bool"
            },
            {
              "internalType": "bool",
              "name": "isConsumable",
              "type": "bool"
            },
            {
              "internalType": "bool",
              "name": "inShop",
              "type": "bool"
            },
            {
              "internalType": "uint256",
              "name": "increaseAttackSpeedPoints",
              "type": "uint256"
            },
            {
              "internalType": "uint256",
              "name": "reflectDamagePercent",
              "type": "uint256"
            },
            {
              "internalType": "uint256",
              "name": "restoreHPChance",
              "type": "uint256"
            },
            {
              "internalType": "uint256",
              "name": "restoreMPChance",
              "type": "uint256"
            },
            {
              "internalType": "uint256",
              "name": "doubleDamageChance",
              "type": "uint256"
            },
            {
              "internalType": "uint256",
              "name": "ignoreOpponentDefenseChance",
              "type": "uint256"
            },
            {
              "internalType": "uint256",
              "name": "lifeAfterMonsterIncrease",
              "type": "uint256"
            },
            {
              "internalType": "uint256",
              "name": "manaAfterMonsterIncrease",
              "type": "uint256"
            },
            {
              "internalType": "uint256",
              "name": "excellentDamageProbabilityIncrease",
              "type": "uint256"
            },
            {
              "internalType": "uint256",
              "name": "attackSpeedIncrease",
              "type": "uint256"
            },
            {
              "internalType": "uint256",
              "name": "attackLvl20",
              "type": "uint256"
            },
            {
              "internalType": "uint256",
              "name": "attackIncreasePercent",
              "type": "uint256"
            },
            {
              "internalType": "uint256",
              "name": "defenseSuccessRateIncrease",
              "type": "uint256"
            },
            {
              "internalType": "uint256",
              "name": "goldAfterMonsterIncrease",
              "type": "uint256"
            },
            {
              "internalType": "uint256",
              "name": "reflectDamage",
              "type": "uint256"
            },
            {
              "internalType": "uint256",
              "name": "maxLifeIncrease",
              "type": "uint256"
            },
            {
              "internalType": "uint256",
              "name": "maxManaIncrease",
              "type": "uint256"
            },
            {
              "internalType": "uint256",
              "name": "hpRecoveryRateIncrease",
              "type": "uint256"
            },
            {
              "internalType": "uint256",
              "name": "mpRecoveryRateIncrease",
              "type": "uint256"
            },
            {
              "internalType": "uint256",
              "name": "decreaseDamageRateIncrease",
              "type": "uint256"
            }
          ],
          "internalType": "struct ItemsExcellentAtts.ExcellentItemAtts",
          "name": "excItem",
          "type": "tuple"
        }
      ],
      "name": "addExcellentOption",
      "outputs": [
        {
          "components": [
            {
              "internalType": "string",
              "name": "name",
              "type": "string"
            },
            {
              "internalType": "uint256",
              "name": "tokenId",
              "type": "uint256"
            },
            {
              "internalType": "uint256",
              "name": "itemLevel",
              "type": "uint256"
            },
            {
              "internalType": "uint256",
              "name": "maxLevel",
              "type": "uint256"
            },
            {
              "internalType": "uint256",
              "name": "additionalDamage",
              "type": "uint256"
            },
            {
              "internalType": "uint256",
              "name": "additionalDefense",
              "type": "uint256"
            },
            {
              "internalType": "uint256",
              "name": "fighterId",
              "type": "uint256"
            },
            {
              "internalType": "uint256",
              "name": "lastUpdBlock",
              "type": "uint256"
            },
            {
              "internalType": "uint256",
              "name": "itemRarityLevel",
              "type": "uint256"
            },
            {
              "internalType": "uint256",
              "name": "packSize",
              "type": "uint256"
            },
            {
              "internalType": "bool",
              "name": "luck",
              "type": "bool"
            },
            {
              "internalType": "bool",
              "name": "skill",
              "type": "bool"
            },
            {
              "internalType": "bool",
              "name": "isPackable",
              "type": "bool"
            },
            {
              "internalType": "bool",
              "name": "isBox",
              "type": "bool"
            },
            {
              "internalType": "bool",
              "name": "isWeapon",
              "type": "bool"
            },
            {
              "internalType": "bool",
              "name": "isArmour",
              "type": "bool"
            },
            {
              "internalType": "bool",
              "name": "isJewel",
              "type": "bool"
            },
            {
              "internalType": "bool",
              "name": "isWings",
              "type": "bool"
            },
            {
              "internalType": "bool",
              "name": "isMisc",
              "type": "bool"
            },
            {
              "internalType": "bool",
              "name": "isConsumable",
              "type": "bool"
            },
            {
              "internalType": "bool",
              "name": "inShop",
              "type": "bool"
            },
            {
              "internalType": "uint256",
              "name": "increaseAttackSpeedPoints",
              "type": "uint256"
            },
            {
              "internalType": "uint256",
              "name": "reflectDamagePercent",
              "type": "uint256"
            },
            {
              "internalType": "uint256",
              "name": "restoreHPChance",
              "type": "uint256"
            },
            {
              "internalType": "uint256",
              "name": "restoreMPChance",
              "type": "uint256"
            },
            {
              "internalType": "uint256",
              "name": "doubleDamageChance",
              "type": "uint256"
            },
            {
              "internalType": "uint256",
              "name": "ignoreOpponentDefenseChance",
              "type": "uint256"
            },
            {
              "internalType": "uint256",
              "name": "lifeAfterMonsterIncrease",
              "type": "uint256"
            },
            {
              "internalType": "uint256",
              "name": "manaAfterMonsterIncrease",
              "type": "uint256"
            },
            {
              "internalType": "uint256",
              "name": "excellentDamageProbabilityIncrease",
              "type": "uint256"
            },
            {
              "internalType": "uint256",
              "name": "attackSpeedIncrease",
              "type": "uint256"
            },
            {
              "internalType": "uint256",
              "name": "attackLvl20",
              "type": "uint256"
            },
            {
              "internalType": "uint256",
              "name": "attackIncreasePercent",
              "type": "uint256"
            },
            {
              "internalType": "uint256",
              "name": "defenseSuccessRateIncrease",
              "type": "uint256"
            },
            {
              "internalType": "uint256",
              "name": "goldAfterMonsterIncrease",
              "type": "uint256"
            },
            {
              "internalType": "uint256",
              "name": "reflectDamage",
              "type": "uint256"
            },
            {
              "internalType": "uint256",
              "name": "maxLifeIncrease",
              "type": "uint256"
            },
            {
              "internalType": "uint256",
              "name": "maxManaIncrease",
              "type": "uint256"
            },
            {
              "internalType": "uint256",
              "name": "hpRecoveryRateIncrease",
              "type": "uint256"
            },
            {
              "internalType": "uint256",
              "name": "mpRecoveryRateIncrease",
              "type": "uint256"
            },
            {
              "internalType": "uint256",
              "name": "decreaseDamageRateIncrease",
              "type": "uint256"
            }
          ],
          "internalType": "struct ItemsExcellentAtts.ExcellentItemAtts",
          "name": "newItem",
          "type": "tuple"
        }
      ],
      "stateMutability": "nonpayable",
      "type": "function"
    }
  ],
  "bytecode": "0x608034620001cf57601f620023d538819003918201601f19168301926001600160401b0392909183851183861017620001b9578160209284926040978852833981010312620001cf57516001600160a01b0381169190829003620001cf576064600055601c6001556032600255603260035560c0601e91826004558260055560026006556001600755600060085562000097620001d4565b600f928184809352826020820152858882015285606082015260056080820152600360a08201520152600a9180835580600b5583600c5583600d556005600e5560038155806010558060c0620000ec620001d4565b602381526023602082015285898201528560608201528560808201528560a08201520152602360115560236012558260135582601455826015558260165560175584519061012082019082821090821117620001b95783916101009187528381526014602082015283878201528360608201528360808201528360a08201528360c08201528360e0820152015280601855601460195580601a5580601b5580601c5580601d55808255601f5560205560018060a01b03196009541617600955516121e09081620001f58239f35b634e487b7160e01b600052604160045260246000fd5b600080fd5b6040519060e082016001600160401b03811183821017620001b95760405256fe61048080604052600436101561001457600080fd5b600090813560e01c9081629df65b146113535750806313d19950146112f35780631f4f5a231461128e57806331d5d1d7146110ed5780635c3c271d1461097a5780636d5433e614610954578063740cf1dc146108d15780637ae2b5c7146108a45780637f59c177146101a657806387c7ab5c146107dc5780639088d14014610760578063a293d1e81461072e578063a9ed8e21146102ca578063b37217a414610255578063b416dad6146101d5578063cd9a850d146101a6578063d05c78da1461012d5763e6cb9013146100e757600080fd5b3461012a5760206101176100fa366113b4565b610106818394936120ea565b92831015908161011f575b5061212d565b604051908152f35b905082101584610111565b80fd5b503461012a5761013c366113b4565b8082029180830490159381831485171561019257848015610164575b6020856101178861212d565b909192945061017e57506020926101179114923880610158565b634e487b7160e01b81526012600452602490fd5b634e487b7160e01b81526011600452602490fd5b503461012a57602036600319011261012a5760ff60406020926004358152602484522054166040519015158152f35b503461012a57602036600319011261012a5760409060043581526022602052208054610251600183015492600281015490600381015460048201549060066005840154930154936040519788978893909796959260c0959260e08601998652602086015260408501526060840152608083015260a08201520152565b0390f35b503461012a57602036600319011261012a5760206064604051828101906102be816102b033424360043544899391609495939185526020850152604084015260608301526001600160601b03199060601b1660808201520190565b03601f198101835282611438565b51902006604051908152f35b503461012a57604036600319011261012a576024356001600160401b03811161072a576102fb9036906004016116f7565b60095460405163843bd64160e01b81526004803590820152602092916001600160a01b0316908381602481855afa90811561071f5785916106e6575b50156106aa57610345612050565b508361034f612050565b83518152848401518582015260408401516040820152606084015160608201526080840151608082015260a084015160a082015260c084015160c082015260e084015160e0820152610100928385015184830152610120808601518184015261014092838701511515848201526101609586880151151587830152610180808901511515818401526101a090818a01511515828501526101c093848b01511515858201526101e08b015115156101e08201526102008b015115156102008201526102208b015115156102208201526102408b015115156102408201526102808b01511515610280820152863b156106a65788948c93610280936040519c8d9b8c9a8b9963bef9eed960e01b8b5260043560048c0152604060248c01526104848b6102a060448b519201526102e48d01906114de565b9988015160648c0152604088015160848c0152606088015160a48c0152608088015160c48c015260a088015160e48c015260c08801516101048c015260e08801516101248c01528701516101448b01528601516101648a0152850151151561018489015284015115156101a488015283015115156101c487015282015115156101e486015281015115156102048501526101e0810151151561022485015261020081015115156102448501526102208101511515610264850152610240810151151561028485015261026081015115156102a4850152015115156102c483015203925af1801561069b5761066a575b50610500816102a06007930151600435865260218552604086209081556102c082015160018201556102e08201516002820155610300820151600382015561032082015160048201556005610340830151910155610360810151602285526040862090815561038082015160018201556103a082015160028201556103c082015160038201556103e08201516004820155600561040083015191015560236104208201519452604085209384556104408101516001850155610460810151600285015561048081015160038501556104a081015160048501556104c081015160058501556104e08101516006850155015191015580f35b6001600160401b0381949294116106875760405291610500610573565b634e487b7160e01b82526041600452602482fd5b6040513d86823e3d90fd5b8880fd5b60405162461bcd60e51b8152600481018490526014602482015273151bdad95b88191bd95cc81b9bdd08195e1a5cdd60621b6044820152606490fd5b90508381813d8311610718575b6106fd8183611438565b810103126107145761070e90611e9b565b38610337565b8480fd5b503d6106f3565b6040513d87823e3d90fd5b5080fd5b503461012a5761073d366113b4565b61074c8282949394111561212d565b820391821161019257602082604051908152f35b503461012a57602036600319011261012a5760409060043581526021602052208054610251600183015492600281015490600381015460048201549060066005840154930154936040519788978893909796959260c0959260e08601998652602086015260408501526060840152608083015260a08201520152565b503461012a57602036600319011261012a57600435816001600160401b03821161012a57610811610848923690600401611474565b610819611931565b5060018060a01b036009541660405180809581946321f1ead760e21b83526020600484015260248301906114de565b03915afa908115610899579061086a91836102519492610876575b5050611a57565b60405191829182611503565b61089292503d8091833e61088a8183611438565b810190611ea8565b3880610863565b6040513d84823e3d90fd5b503461012a576020906108b6366113b4565b909150808210156108ca5750604051908152f35b9050610117565b503461012a57602036600319011261012a5760406101209160043581526023602052208054906001810154906002810154600382015460048301546005840154916006850154936008600787015496015496604051988952602089015260408801526060870152608086015260a085015260c084015260e0830152610100820152f35b503461012a57602090610966366113b4565b909150808211156108ca5750604051908152f35b503461012a576020908160031936011261012a57600435916001600160401b03831161072a576109b16102519336906004016116f7565b90816109bb611931565b50604083018490526101c083015115610ccd5750600190816101608401526109e1611931565b50604051906064818301448152600b60408501524360608501524260808501526001600160601b03193360601b16938460a082015260948152610a238161141d565b5190200660115460125491610a3883836120ea565b91610a4660135480946120ea565b610a76610a5660145480936120ea565b93610a70610a6760155480976120ea565b601654906120ea565b9061210d565b94828611610c2a57505050505050826103608501525b8394606460405183810190448252600c60408201524360608201524260808201528560a082015260948152610ac08161141d565b519020066017541015610adf575b505050505060405191829182611503565b84955060409082606495960151815260248352208460ff19825416179055610b05611931565b5060405190810191448352600d604083015243606083015242608083015260a082015260948152610b358161141d565b5190200660115460125491610b4a83836120ea565b91610b5860135480946120ea565b610b68610a5660145480936120ea565b94828611610b87575050505050506103608201525b3880808080610ace565b610b9181846120ea565b8611610ba857505050505050610380820152610b7d565b610bbb85610bb683866120ea565b6120ea565b8611610bd2575050505050506103a0820152610b7d565b610be482610bb687610bb685886120ea565b8611610bfb575050505050506103c0820152610b7d565b610c0f94610bb6610bb692610bb6956120ea565b10610c1f576103e0820152610b7d565b610400820152610b7d565b610c3481846120ea565b8611610c4c5750505050505082610380850152610a8c565b610c5a85610bb683866120ea565b8611610c7257505050505050826103a0850152610a8c565b610c8482610bb687610bb685886120ea565b8611610c9c57505050505050826103c0850152610a8c565b610cb094610bb6610bb692610bb6956120ea565b10610cc157826103e0850152610a8c565b82610400850152610a8c565b906101e08394930151610ce3575b50505061086a565b909192610cee611931565b50604051906064838301448152600e60408501524360608501524260808501526001600160601b03193360601b16938460a082015260948152610d308161141d565b519020066018549060195490610d4682846120ea565b91610d54601a5480946120ea565b92610d62601b5480956120ea565b90610d70601c5480936120ea565b91610d9b610d81601d5480956120ea565b95610a70610d92601e5480996120ea565b601f54906120ea565b96808811610fd257505050505050505060016104208201525b93606460405184810190448252600f60408201524360608201524260808201528460a082015260948152610de78161141d565b5190200683541015610dfa575b50610cdb565b8284015181526024835260409020805460ff19166001908117909155929350606491610e24611931565b50604051908101914483526010604083015243606083015242608083015260a082015260948152610e548161141d565b519020066018549060195490610e6a82846120ea565b91610e78601a5480946120ea565b92610e86601b5480956120ea565b90610e94601c5480936120ea565b91610ea5610d81601d5480956120ea565b96808811610ec55750505050505050506104208201525b38808080610df4565b610ecf85826120ea565b8811610ee8575050505050505050610440820152610ebc565b610ef683610bb687846120ea565b8811610f0f575050505050505050610460820152610ebc565b610f2187610bb685610bb689866120ea565b8811610f3a575050505050505050610480820152610ebc565b610f5082610bb689610bb687610bb68b886120ea565b8811610f695750505050505050506104a0820152610ebc565b610f8384610bb684610bb68b610bb689610bb68d8a6120ea565b8811610f9c5750505050505050506104c0820152610ebc565b610fb796610bb6610bb694610bb6610bb698610bb6956120ea565b10610fc7576104e0820152610ebc565b610500820152610ebc565b610fdc85826120ea565b8811610ff75750505050505050506001610440820152610db4565b61100583610bb687846120ea565b88116110205750505050505050506001610460820152610db4565b61103287610bb685610bb689866120ea565b881161104d5750505050505050506001610480820152610db4565b61106382610bb689610bb687610bb68b886120ea565b881161107e57505050505050505060016104a0820152610db4565b61109884610bb684610bb68b610bb689610bb68d8a6120ea565b88116110b357505050505050505060016104c0820152610db4565b6110ce96610bb6610bb694610bb6610bb698610bb6956120ea565b106110e05760016104e0820152610db4565b6001610500820152610db4565b503461012a5760031960203682011261072a57600435906001600160401b039081831161128a576102a0908336030112611286576040519261112e846113cf565b826004013591821161012a5761025161086a8561127b6102848761115736898301600401611474565b84526024810135602085015260448101356040850152606481013560608501526084810135608085015260a481013560a085015260c481013560c085015260e481013560e08501526101048101356101008501526101248101356101208501526111c461014482016116ea565b6101408501526111d761016482016116ea565b6101608501526111ea61018482016116ea565b6101808501526111fd6101a482016116ea565b6101a08501526112106101c482016116ea565b6101c08501526112236101e482016116ea565b6101e085015261123661020482016116ea565b61020085015261124961022482016116ea565b61022085015261125c61024482016116ea565b61024085015261126f61026482016116ea565b610260850152016116ea565b610280820152611a57565b8280fd5b8380fd5b503461012a57602036600319011261012a576112a8611931565b50600954604051631f4f5a2360e01b81526004803590820152908290829060249082906001600160a01b03165afa908115610899579061086a91836102519492610876575050611a57565b503461012a57604036600319011261012a576001600160401b0360043581811161128657611325903690600401611474565b9160243591821161012a576020611349846113433660048701611474565b9061214a565b6040519015158152f35b823461012a57602061011783611368366113b4565b4485840190815260208101929092524360408301524260608084019190915233901b6bffffffffffffffffffffffff19166080830152916113ac81609484016102b0565b51902061210d565b60409060031901126113ca576004359060243590565b600080fd5b6102a081019081106001600160401b038211176113eb57604052565b634e487b7160e01b600052604160045260246000fd5b61052081019081106001600160401b038211176113eb57604052565b60c081019081106001600160401b038211176113eb57604052565b90601f801991011681019081106001600160401b038211176113eb57604052565b6001600160401b0381116113eb57601f01601f191660200190565b81601f820112156113ca5780359061148b82611459565b926114996040519485611438565b828452602083830101116113ca57816000926020809301838601378301015290565b60005b8381106114ce5750506000910152565b81810151838201526020016114be565b906020916114f7815180928185528580860191016114bb565b601f01601f1916010190565b602081528151611521610520918260208501526105408401906114de565b92602081015160408401526040810151606084015260608101516080840152608081015160a084015260a081015160c084015260c081015160e084015260e0810151610100908185015281015161012090818501528101516101409081850152810151151561016090818501528101511515610180908185015281015115156101a0908185015281015115156101c0908185015281015115156101e09081850152810151151561020090818501528101511515610220908185015281015115156102409081850152810151151561026090818501528101511515610280908185015281015115156102a090818501528101516102c090818501528101516102e09081850152810151610300908185015281015161032090818501528101516103409081850152810151610360908185015281015161038090818501528101516103a090818501528101516103c090818501528101516103e09081850152810151610400908185015281015161042090818501528101516104409081850152810151610460908185015281015161048090818501528101516104a090818501528101516104c090818501528101516104e09081850152810151906105009182850152015191015290565b359081151582036113ca57565b919091610520818403126113ca576040519061171282611401565b81938135906001600160401b0382116113ca57611730918301611474565b82526020810135602083015260408101356040830152606081013560608301526080810135608083015260a081013560a083015260c081013560c083015260e081013560e08301526101008082013590830152610120808201359083015261014061179c8183016116ea565b908301526101606117ae8183016116ea565b908301526101806117c08183016116ea565b908301526101a06117d28183016116ea565b908301526101c06117e48183016116ea565b908301526101e06117f68183016116ea565b908301526102006118088183016116ea565b9083015261022061181a8183016116ea565b9083015261024061182c8183016116ea565b9083015261026061183e8183016116ea565b908301526102806118508183016116ea565b908301526102a080820135908301526102c080820135908301526102e08082013590830152610300808201359083015261032080820135908301526103408082013590830152610360808201359083015261038080820135908301526103a080820135908301526103c080820135908301526103e08082013590830152610400808201359083015261042080820135908301526104408082013590830152610460808201359083015261048080820135908301526104a080820135908301526104c080820135908301526104e0808201359083015261050080910135910152565b6040519061193e82611401565b81606081526105006000918260208201528260408201528260608201528260808201528260a08201528260c08201528260e08201528261010082015282610120820152826101408201528261016082015282610180820152826101a0820152826101c0820152826101e08201528261020082015282610220820152826102408201528261026082015282610280820152826102a0820152826102c0820152826102e08201528261030082015282610320820152826103408201528261036082015282610380820152826103a0820152826103c0820152826103e08201528261040082015282610420820152826104408201528261046082015282610480820152826104a0820152826104c0820152826104e08201520152565b608052611a62611931565b50608051805161032052602081015190816103e05260408101516104005260608101516104205260808101516104405260a081015160c082015160e08301516101008401516101208501516101408601511515916101608701511515936101808801511515956101a089015115159760206101c08b015115159a6101e081015115159c61020082015115156103c05261022082015115156103405261024082015115156103605261026082015115156103805261028082015115156103a0526000526021825260406000205461030052818101516000526001604060002001546102e052818101516000526002604060002001546102c05281810151600052600360406000200154610260528181015160005260046040600020015461028052818101516000526005604060002001546102a05281810151600052602282526040600020546102005281810151600052600160406000200154610220528181015160005260026040600020015461024052818101516000526003604060002001546101c052818101516000526004604060002001546101e052818101516000526005604060002001546101405281810151600052602382526040600020546101805281810151600052600160406000200154610160528181015160005260026040600020015460e05281810151600052600360406000200154610120528181015160005260046040600020015461010052818101516000526005604060002001546101a0528181015160005260066040600020015460a052015160005260076040600020015460c052611cbb6040518061046052611401565b6103205161046051526103e051602061046051015261040051604061046051015261042051606061046051015261044051608061046051015260a061046051015260c061046051015260e06104605101526101006104605101526101206104605101526101406104605101526101606104605101526101806104605101526101a06104605101526101c06104605101526101e06104605101526103c0516102006104605101526103405161022061046051015261036051610240610460510152610380516102606104605101526103a051610280610460510152610300516102a06104605101526102e0516102c06104605101526102c0516102e061046051015261026051610300610460510152610280516103206104605101526102a0516103406104605101526102005161036061046051015261022051610380610460510152610240516103a06104605101526101c0516103c06104605101526101e0516103e061046051015261014051610400610460510152610180516104206104605101526101605161044061046051015260e0516104608051015261012051610480610460510152610100516104a06104605101526101a0516104c061046051015260a0516104e061046051015260c0516105006104605101526104605190565b519081151582036113ca57565b90602080838303126113ca5782516001600160401b03938482116113ca5701916102a0838203126113ca5760405193611ee0856113cf565b83519081116113ca57830181601f820112156113ca578051611f0181611459565b92611f0f6040519485611438565b8184528482840101116113ca57611f2b918480850191016114bb565b8352808201519083015260408101516040830152606081015160608301526080810151608083015260a081015160a083015260c081015160c083015260e081015160e083015261010080820151908301526101208082015190830152610140611f95818301611e9b565b90830152610160611fa7818301611e9b565b90830152610180611fb9818301611e9b565b908301526101a0611fcb818301611e9b565b908301526101c0611fdd818301611e9b565b908301526101e0611fef818301611e9b565b90830152610200612001818301611e9b565b90830152610220612013818301611e9b565b90830152610240612025818301611e9b565b90830152610260612037818301611e9b565b90830152612049610280809201611e9b565b9082015290565b6040519061205d826113cf565b81606081526102806000918260208201528260408201528260608201528260808201528260a08201528260c08201528260e08201528261010082015282610120820152826101408201528261016082015282610180820152826101a0820152826101c0820152826101e0820152826102008201528261022082015282610240820152826102608201520152565b919082018092116120f757565b634e487b7160e01b600052601160045260246000fd5b8115612117570690565b634e487b7160e01b600052601260045260246000fd5b1561213457565b634e487b7160e01b600052600160045260246000fd5b906040519160209261217884828161216b81830196878151938492016114bb565b8101038084520182611438565b5190209161219860405191828161216b81830196878151938492016114bb565b519020036121a557600190565b60009056fea2646970667358221220d014ed625fb27542ed383c76e80fa608036bbffb1a1b59891fbdbe6f2af492a564736f6c63430008130033",
  "immutableReferences": {},
  "source": "// SPDX-License-Identifier: MIT\npragma solidity ^0.8.18;\n\nimport \"./SafeMath.sol\";\nimport \"./ItemsExcellentAtts.sol\";\nimport \"./Items.sol\";\n\ncontract ItemsExcellent is ItemsExcellentAtts, SafeMath {  \n    Items private _items;\n\n    constructor(address itemsAddress) {\n        _items = Items(itemsAddress);\n    }\n\n    struct WingsExcOptions {\n        uint256 increaseAttackSpeedPoints;\n        uint256 reflectDamagePercent;\n        uint256 restoreHPChance;\n        uint256 restoreMPChance;\n        uint256 doubleDamageChance;\n        uint256 ignoreOpponentDefenseChance;\n\n        uint256 doubleOptionChance;\n    }\n\n    WingsExcOptions WingsExcOptionsDropRates = WingsExcOptions({\n        increaseAttackSpeedPoints: 15,\n        reflectDamagePercent: 15,\n        restoreHPChance: 30,\n        restoreMPChance: 30,\n        doubleDamageChance: 5,\n        ignoreOpponentDefenseChance: 3,\n\n        doubleOptionChance: 15\n    });\n\n\n    struct WeaponsExcOptions {\n        uint256 lifeAfterMonsterIncrease;\n        uint256 manaAfterMonsterIncrease;\n        uint256 excellentDamageProbabilityIncrease;\n        uint256 attackSpeedIncrease;\n        uint256 attackLvl20; \n        uint256 attackIncreasePercent; \n\n        uint256 doubleOptionChance;\n    }\n\n    WeaponsExcOptions WeaponsExcOptionsDropRates = WeaponsExcOptions({\n        lifeAfterMonsterIncrease: 35,\n        manaAfterMonsterIncrease: 35,\n        excellentDamageProbabilityIncrease: 10,\n        attackSpeedIncrease: 10,\n        attackLvl20: 10,\n        attackIncreasePercent: 10,\n\n        doubleOptionChance: 15\n    });\n\n    struct ArmoursExcOptions {\n        uint256 defenseSuccessRateIncrease;\n        uint256 goldAfterMonsterIncrease;\n        uint256 reflectDamage;\n        uint256 maxLifeIncrease;\n        uint256 maxManaIncrease;\n        uint256 hpRecoveryRateIncrease;\n        uint256 mpRecoveryRateIncrease;\n        uint256 decreaseDamageRateIncrease;\n\n        uint256 doubleOptionChance;\n    }\n\n    ArmoursExcOptions ArmourExcOptionsDropRates = ArmoursExcOptions({\n        defenseSuccessRateIncrease: 10,\n        goldAfterMonsterIncrease: 20,\n        reflectDamage: 10,\n        maxLifeIncrease: 10,\n        maxManaIncrease: 10,\n        hpRecoveryRateIncrease: 10,\n        mpRecoveryRateIncrease: 10,\n        decreaseDamageRateIncrease: 10,\n\n        doubleOptionChance: 30\n    });\n\n\n    mapping (uint256 => WingsExcOptions) public WingsExcOpts;\n    mapping (uint256 => WeaponsExcOptions) public WeaponsExcOpts;\n    mapping (uint256 => ArmoursExcOptions) public ArmoursExcOpts;\n    mapping (uint256 => bool) public isExcellent;\n\n\n    function isItemExcellent(uint256 tokenId) public view returns (bool) {\n        return isExcellent[tokenId];\n    }\n\n    function convertToExcellent(ItemAttributes memory item) public view returns (ExcellentItemAtts memory) {\n\n        // Initialize the ExcellentItemAtts struct\n        ExcellentItemAtts memory excellentItem = ExcellentItemAtts({\n            name: item.name,\n            tokenId: item.tokenId,\n            itemLevel: item.itemLevel,\n            maxLevel: item.maxLevel,\n            additionalDamage: item.additionalDamage,\n            additionalDefense: item.additionalDefense,\n            fighterId: item.fighterId,\n            lastUpdBlock: item.lastUpdBlock,\n            itemRarityLevel: item.itemRarityLevel,\n            packSize: item.packSize,\n            luck: item.luck,\n            skill: item.skill,\n            isPackable: item.isPackable,\n            isBox: item.isBox,\n            isWeapon: item.isWeapon,\n            isArmour: item.isArmour,\n            isJewel: item.isJewel,\n            isWings: item.isWings,\n            isMisc: item.isMisc,\n            isConsumable: item.isConsumable,\n            inShop: item.inShop,\n\n            // Excellent attributes\n            increaseAttackSpeedPoints: WingsExcOpts[item.tokenId].increaseAttackSpeedPoints,\n            reflectDamagePercent: WingsExcOpts[item.tokenId].reflectDamagePercent,\n            restoreHPChance: WingsExcOpts[item.tokenId].restoreHPChance,\n            restoreMPChance: WingsExcOpts[item.tokenId].restoreMPChance,\n            doubleDamageChance: WingsExcOpts[item.tokenId].doubleDamageChance,\n            ignoreOpponentDefenseChance: WingsExcOpts[item.tokenId].ignoreOpponentDefenseChance,\n\n            lifeAfterMonsterIncrease: WeaponsExcOpts[item.tokenId].lifeAfterMonsterIncrease,\n            manaAfterMonsterIncrease: WeaponsExcOpts[item.tokenId].manaAfterMonsterIncrease,\n            excellentDamageProbabilityIncrease: WeaponsExcOpts[item.tokenId].excellentDamageProbabilityIncrease,\n            attackSpeedIncrease: WeaponsExcOpts[item.tokenId].attackSpeedIncrease,\n            attackLvl20: WeaponsExcOpts[item.tokenId].attackLvl20,\n            attackIncreasePercent: WeaponsExcOpts[item.tokenId].attackIncreasePercent,\n\n            defenseSuccessRateIncrease: ArmoursExcOpts[item.tokenId].defenseSuccessRateIncrease,\n            goldAfterMonsterIncrease: ArmoursExcOpts[item.tokenId].goldAfterMonsterIncrease,\n            reflectDamage: ArmoursExcOpts[item.tokenId].reflectDamage,\n            maxLifeIncrease: ArmoursExcOpts[item.tokenId].maxLifeIncrease,\n            maxManaIncrease: ArmoursExcOpts[item.tokenId].maxManaIncrease,\n            hpRecoveryRateIncrease: ArmoursExcOpts[item.tokenId].hpRecoveryRateIncrease,\n            mpRecoveryRateIncrease: ArmoursExcOpts[item.tokenId].mpRecoveryRateIncrease,\n            decreaseDamageRateIncrease: ArmoursExcOpts[item.tokenId].decreaseDamageRateIncrease\n        });\n\n        return excellentItem;\n    }\n\n\n    function assignExcellentAtts(ExcellentItemAtts memory a, uint256 tokenId) internal returns (ExcellentItemAtts memory) {\n        a.increaseAttackSpeedPoints = WingsExcOpts[tokenId].increaseAttackSpeedPoints;\n        a.reflectDamagePercent = WingsExcOpts[tokenId].reflectDamagePercent;\n        a.restoreHPChance = WingsExcOpts[tokenId].restoreHPChance;\n        a.restoreMPChance = WingsExcOpts[tokenId].restoreMPChance;\n        a.doubleDamageChance = WingsExcOpts[tokenId].doubleDamageChance;\n        a.ignoreOpponentDefenseChance = WingsExcOpts[tokenId].ignoreOpponentDefenseChance;\n\n\n        a.lifeAfterMonsterIncrease = WeaponsExcOpts[tokenId].lifeAfterMonsterIncrease;\n        a.manaAfterMonsterIncrease = WeaponsExcOpts[tokenId].manaAfterMonsterIncrease;\n        a.excellentDamageProbabilityIncrease = WeaponsExcOpts[tokenId].excellentDamageProbabilityIncrease;\n        a.attackSpeedIncrease = WeaponsExcOpts[tokenId].attackSpeedIncrease;\n        a.attackLvl20 = WeaponsExcOpts[tokenId].attackLvl20;\n        a.attackIncreasePercent = WeaponsExcOpts[tokenId].attackIncreasePercent;\n\n\n        a.defenseSuccessRateIncrease = ArmoursExcOpts[tokenId].defenseSuccessRateIncrease;\n        a.goldAfterMonsterIncrease = ArmoursExcOpts[tokenId].goldAfterMonsterIncrease;\n        a.reflectDamage = ArmoursExcOpts[tokenId].reflectDamage;\n        a.maxLifeIncrease = ArmoursExcOpts[tokenId].maxLifeIncrease;\n        a.maxManaIncrease = ArmoursExcOpts[tokenId].maxManaIncrease;\n        a.hpRecoveryRateIncrease = ArmoursExcOpts[tokenId].hpRecoveryRateIncrease;\n        a.mpRecoveryRateIncrease = ArmoursExcOpts[tokenId].mpRecoveryRateIncrease;\n        a.decreaseDamageRateIncrease = ArmoursExcOpts[tokenId].decreaseDamageRateIncrease;\n\n        return a;\n    }\n\n    function convertToItemAttributes(ExcellentItemAtts memory eia) internal pure returns (ItemAttributes memory) {\n        ItemAttributes memory ia;\n\n        ia.name = eia.name;\n        ia.tokenId = eia.tokenId;\n        ia.itemLevel = eia.itemLevel;\n        ia.maxLevel = eia.maxLevel;\n\n        ia.additionalDamage = eia.additionalDamage;\n        ia.additionalDefense = eia.additionalDefense;\n\n        ia.fighterId = eia.fighterId;\n        ia.lastUpdBlock = eia.lastUpdBlock;\n        ia.itemRarityLevel = eia.itemRarityLevel;\n\n        ia.packSize = eia.packSize;\n\n        ia.luck = eia.luck;\n        ia.skill = eia.skill;\n        ia.isPackable = eia.isPackable;\n\n        ia.isBox = eia.isBox;\n        ia.isWeapon = eia.isWeapon;\n        ia.isArmour = eia.isArmour;\n        ia.isJewel = eia.isJewel;\n        ia.isWings = eia.isWings;\n        ia.isMisc = eia.isMisc;\n        ia.inShop = eia.inShop;\n\n        return ia;\n    }\n\n\n    function reverseAssignExcellentAtts(uint256 tokenId, ExcellentItemAtts memory a) internal {\n        WingsExcOpts[tokenId].increaseAttackSpeedPoints = a.increaseAttackSpeedPoints;\n        WingsExcOpts[tokenId].reflectDamagePercent = a.reflectDamagePercent;\n        WingsExcOpts[tokenId].restoreHPChance = a.restoreHPChance;\n        WingsExcOpts[tokenId].restoreMPChance = a.restoreMPChance;\n        WingsExcOpts[tokenId].doubleDamageChance = a.doubleDamageChance;\n        WingsExcOpts[tokenId].ignoreOpponentDefenseChance = a.ignoreOpponentDefenseChance;\n\n        WeaponsExcOpts[tokenId].lifeAfterMonsterIncrease = a.lifeAfterMonsterIncrease;\n        WeaponsExcOpts[tokenId].manaAfterMonsterIncrease = a.manaAfterMonsterIncrease;\n        WeaponsExcOpts[tokenId].excellentDamageProbabilityIncrease = a.excellentDamageProbabilityIncrease;\n        WeaponsExcOpts[tokenId].attackSpeedIncrease = a.attackSpeedIncrease;\n        WeaponsExcOpts[tokenId].attackLvl20 = a.attackLvl20;\n        WeaponsExcOpts[tokenId].attackIncreasePercent = a.attackIncreasePercent;\n\n        ArmoursExcOpts[tokenId].defenseSuccessRateIncrease = a.defenseSuccessRateIncrease;\n        ArmoursExcOpts[tokenId].goldAfterMonsterIncrease = a.goldAfterMonsterIncrease;\n        ArmoursExcOpts[tokenId].reflectDamage = a.reflectDamage;\n        ArmoursExcOpts[tokenId].maxLifeIncrease = a.maxLifeIncrease;\n        ArmoursExcOpts[tokenId].maxManaIncrease = a.maxManaIncrease;\n        ArmoursExcOpts[tokenId].hpRecoveryRateIncrease = a.hpRecoveryRateIncrease;\n        ArmoursExcOpts[tokenId].mpRecoveryRateIncrease = a.mpRecoveryRateIncrease;\n        ArmoursExcOpts[tokenId].decreaseDamageRateIncrease = a.decreaseDamageRateIncrease;\n    }\n\n\n\n\n    function getItemAttributes(string memory itemName) external returns (ExcellentItemAtts memory) {\n        ItemAttributes memory itemAtts = _items.getItemAttributes(itemName);\n        return convertToExcellent(itemAtts);\n    }\n\n    function getTokenAttributes(uint256 tokenId) external returns (ExcellentItemAtts memory) {\n        ItemAttributes memory tokenAtts = _items.getTokenAttributes(tokenId);\n\n        return convertToExcellent(tokenAtts);\n    }\n\n    function setTokenAttributes(uint256 tokenId, ExcellentItemAtts memory atts) external {\n        require(_items.itemExists(tokenId), \"Token does not exist\");\n\n        ItemAttributes memory baseAtts = convertToItemAttributes(atts);\n        _items.setTokenAttributes(tokenId, baseAtts);\n        reverseAssignExcellentAtts(tokenId, atts);\n    }\n\n\n    function getRandomArmourExcOption(ExcellentItemAtts memory item,  uint256 seed) internal returns (ExcellentItemAtts memory) {\n        uint256 randomNumber = getRandomNumber(seed);\n        uint256 totalProbability = ArmourExcOptionsDropRates.defenseSuccessRateIncrease +\n            ArmourExcOptionsDropRates.goldAfterMonsterIncrease +\n            ArmourExcOptionsDropRates.reflectDamage +\n            ArmourExcOptionsDropRates.maxLifeIncrease +\n            ArmourExcOptionsDropRates.maxManaIncrease +\n            ArmourExcOptionsDropRates.hpRecoveryRateIncrease +\n            ArmourExcOptionsDropRates.mpRecoveryRateIncrease +\n            ArmourExcOptionsDropRates.decreaseDamageRateIncrease;\n        \n\n        uint256 randomIndex = randomNumber % totalProbability;\n\n        if (randomIndex <= ArmourExcOptionsDropRates.defenseSuccessRateIncrease) {\n            item.defenseSuccessRateIncrease = 1;\n        } else if (randomIndex <= ArmourExcOptionsDropRates.defenseSuccessRateIncrease \n            + ArmourExcOptionsDropRates.goldAfterMonsterIncrease) {\n            item.goldAfterMonsterIncrease = 1;\n        } else if (randomIndex <= ArmourExcOptionsDropRates.defenseSuccessRateIncrease \n            + ArmourExcOptionsDropRates.goldAfterMonsterIncrease\n            + ArmourExcOptionsDropRates.reflectDamage) {\n            item.reflectDamage = 1;\n        } else if (randomIndex <= ArmourExcOptionsDropRates.defenseSuccessRateIncrease \n            + ArmourExcOptionsDropRates.goldAfterMonsterIncrease\n            + ArmourExcOptionsDropRates.reflectDamage\n            + ArmourExcOptionsDropRates.maxLifeIncrease) {\n            item.maxLifeIncrease = 1;\n        } else if (randomIndex <= ArmourExcOptionsDropRates.defenseSuccessRateIncrease \n            + ArmourExcOptionsDropRates.goldAfterMonsterIncrease\n            + ArmourExcOptionsDropRates.reflectDamage\n            + ArmourExcOptionsDropRates.maxLifeIncrease\n            + ArmourExcOptionsDropRates.maxManaIncrease) {\n            item.maxManaIncrease = 1;\n        } else if (randomIndex <= ArmourExcOptionsDropRates.defenseSuccessRateIncrease \n            + ArmourExcOptionsDropRates.goldAfterMonsterIncrease\n            + ArmourExcOptionsDropRates.reflectDamage\n            + ArmourExcOptionsDropRates.maxLifeIncrease\n            + ArmourExcOptionsDropRates.maxManaIncrease\n            + ArmourExcOptionsDropRates.hpRecoveryRateIncrease) {\n            item.hpRecoveryRateIncrease = 1;\n        } else if (randomIndex <= ArmourExcOptionsDropRates.defenseSuccessRateIncrease \n            + ArmourExcOptionsDropRates.goldAfterMonsterIncrease\n            + ArmourExcOptionsDropRates.reflectDamage\n            + ArmourExcOptionsDropRates.maxLifeIncrease\n            + ArmourExcOptionsDropRates.maxManaIncrease\n            + ArmourExcOptionsDropRates.hpRecoveryRateIncrease\n            + ArmourExcOptionsDropRates.mpRecoveryRateIncrease) {\n            item.mpRecoveryRateIncrease = 1;\n        } else {\n            item.decreaseDamageRateIncrease = 1;\n        }\n\n        return item;\n    }\n\n\n\n    function addExcellentOption(ExcellentItemAtts memory excItem) external returns (ExcellentItemAtts memory newItem) {\n\n\n        excItem.itemLevel = 0;\n        if (excItem.isWeapon) {\n            excItem.skill = true;\n            // choose from weapon exc options            \n            excItem = getRandomWeaponExcOption(excItem, 11);\n            if (getRandomNumber(12) <= WeaponsExcOptionsDropRates.doubleOptionChance) {\n                isExcellent[excItem.tokenId] = true;\n                excItem = getRandomWeaponExcOption(excItem, 13);\n            }\n        } else if (excItem.isArmour) {\n            // choose from armout exc options\n            excItem = getRandomArmourExcOption(excItem, 14);\n            if (getRandomNumber(15) <= ArmourExcOptionsDropRates.doubleOptionChance) {\n                isExcellent[excItem.tokenId] = true;\n                excItem = getRandomArmourExcOption(excItem, 16);\n            }\n        }\n\n        return excItem;\n    }\n\n    function getRandomWeaponExcOption(ExcellentItemAtts memory item,  uint256 seed) internal returns (ExcellentItemAtts memory) {\n        uint256 randomNumber = getRandomNumber(seed);\n        uint256 totalProbability = WeaponsExcOptionsDropRates.lifeAfterMonsterIncrease +\n            WeaponsExcOptionsDropRates.manaAfterMonsterIncrease +\n            WeaponsExcOptionsDropRates.excellentDamageProbabilityIncrease +\n            WeaponsExcOptionsDropRates.attackSpeedIncrease +\n            WeaponsExcOptionsDropRates.attackLvl20 +\n            WeaponsExcOptionsDropRates.attackIncreasePercent;\n        \n\n        uint256 randomIndex = randomNumber % totalProbability;\n\n        if (randomIndex <= WeaponsExcOptionsDropRates.lifeAfterMonsterIncrease) {\n            item.lifeAfterMonsterIncrease = 1;\n        } else if (randomIndex <= WeaponsExcOptionsDropRates.lifeAfterMonsterIncrease \n            + WeaponsExcOptionsDropRates.manaAfterMonsterIncrease) {\n            item.manaAfterMonsterIncrease = 1;\n        } else if (randomIndex <= WeaponsExcOptionsDropRates.lifeAfterMonsterIncrease \n            + WeaponsExcOptionsDropRates.manaAfterMonsterIncrease\n            + WeaponsExcOptionsDropRates.excellentDamageProbabilityIncrease) {\n            item.excellentDamageProbabilityIncrease = 1;\n        } else if (randomIndex <= WeaponsExcOptionsDropRates.lifeAfterMonsterIncrease \n            + WeaponsExcOptionsDropRates.manaAfterMonsterIncrease\n            + WeaponsExcOptionsDropRates.excellentDamageProbabilityIncrease\n            + WeaponsExcOptionsDropRates.attackSpeedIncrease) {\n            item.attackSpeedIncrease = 1;\n        } else if (randomIndex <= WeaponsExcOptionsDropRates.lifeAfterMonsterIncrease \n            + WeaponsExcOptionsDropRates.manaAfterMonsterIncrease\n            + WeaponsExcOptionsDropRates.excellentDamageProbabilityIncrease\n            + WeaponsExcOptionsDropRates.attackSpeedIncrease\n            + WeaponsExcOptionsDropRates.attackLvl20 ) {\n            item.attackLvl20 = 1;\n        } else {\n            item.attackIncreasePercent = 1;\n        }\n\n        return item;\n    }\n\n}",
  "sourcePath": "/Users/max/Documents/prog/game-contracts/contracts/ItemsExcellent.sol",
  "compiler": {
    "name": "solc",
    "version": "0.8.19+commit.7dd6d404.Emscripten.clang"
  },
  "schemaVersion": "3.4.13",
  "updatedAt": "2023-08-10T07:36:56.073Z",
  "networkType": "ethereum",
  "devdoc": {
    "kind": "dev",
    "methods": {},
    "version": 1
  },
  "userdoc": {
    "kind": "user",
    "methods": {},
    "version": 1
  }
}