{
  "contractName": "ItemsHelper",
  "abi": [
    {
      "inputs": [
        {
          "internalType": "address",
          "name": "itemsBaseAddress",
          "type": "address"
        },
        {
          "internalType": "address",
          "name": "itemsAddress",
          "type": "address"
        },
        {
          "internalType": "address",
          "name": "itemsExcellentAddress",
          "type": "address"
        }
      ],
      "stateMutability": "nonpayable",
      "type": "constructor"
    },
    {
      "inputs": [
        {
          "internalType": "uint256",
          "name": "tokenId",
          "type": "uint256"
        }
      ],
      "name": "burnItem",
      "outputs": [],
      "stateMutability": "nonpayable",
      "type": "function"
    },
    {
      "inputs": [
        {
          "internalType": "uint256",
          "name": "tokenId",
          "type": "uint256"
        },
        {
          "internalType": "uint256",
          "name": "level",
          "type": "uint256"
        }
      ],
      "name": "setItemLevel",
      "outputs": [],
      "stateMutability": "nonpayable",
      "type": "function"
    },
    {
      "inputs": [
        {
          "internalType": "uint256",
          "name": "tokenId",
          "type": "uint256"
        },
        {
          "internalType": "uint256",
          "name": "points",
          "type": "uint256"
        }
      ],
      "name": "setAdditionalPoints",
      "outputs": [],
      "stateMutability": "nonpayable",
      "type": "function"
    },
    {
      "inputs": [
        {
          "internalType": "address",
          "name": "owner",
          "type": "address"
        }
      ],
      "name": "safeMint",
      "outputs": [
        {
          "internalType": "uint256",
          "name": "",
          "type": "uint256"
        }
      ],
      "stateMutability": "nonpayable",
      "type": "function"
    },
    {
      "inputs": [
        {
          "internalType": "uint256",
          "name": "tokenId",
          "type": "uint256"
        },
        {
          "components": [
            {
              "internalType": "string",
              "name": "name",
              "type": "string"
            },
            {
              "internalType": "uint256",
              "name": "tokenId",
              "type": "uint256"
            },
            {
              "internalType": "uint256",
              "name": "itemLevel",
              "type": "uint256"
            },
            {
              "internalType": "uint256",
              "name": "maxLevel",
              "type": "uint256"
            },
            {
              "internalType": "uint256",
              "name": "additionalDamage",
              "type": "uint256"
            },
            {
              "internalType": "uint256",
              "name": "additionalDefense",
              "type": "uint256"
            },
            {
              "internalType": "uint256",
              "name": "fighterId",
              "type": "uint256"
            },
            {
              "internalType": "uint256",
              "name": "lastUpdBlock",
              "type": "uint256"
            },
            {
              "internalType": "uint256",
              "name": "itemRarityLevel",
              "type": "uint256"
            },
            {
              "internalType": "uint256",
              "name": "packSize",
              "type": "uint256"
            },
            {
              "internalType": "bool",
              "name": "luck",
              "type": "bool"
            },
            {
              "internalType": "bool",
              "name": "skill",
              "type": "bool"
            },
            {
              "internalType": "bool",
              "name": "isPackable",
              "type": "bool"
            },
            {
              "internalType": "bool",
              "name": "isBox",
              "type": "bool"
            },
            {
              "internalType": "bool",
              "name": "isWeapon",
              "type": "bool"
            },
            {
              "internalType": "bool",
              "name": "isArmour",
              "type": "bool"
            },
            {
              "internalType": "bool",
              "name": "isJewel",
              "type": "bool"
            },
            {
              "internalType": "bool",
              "name": "isWings",
              "type": "bool"
            },
            {
              "internalType": "bool",
              "name": "isMisc",
              "type": "bool"
            },
            {
              "internalType": "bool",
              "name": "isConsumable",
              "type": "bool"
            },
            {
              "internalType": "bool",
              "name": "inShop",
              "type": "bool"
            },
            {
              "internalType": "uint256",
              "name": "increaseAttackSpeedPoints",
              "type": "uint256"
            },
            {
              "internalType": "uint256",
              "name": "reflectDamagePercent",
              "type": "uint256"
            },
            {
              "internalType": "uint256",
              "name": "restoreHPChance",
              "type": "uint256"
            },
            {
              "internalType": "uint256",
              "name": "restoreMPChance",
              "type": "uint256"
            },
            {
              "internalType": "uint256",
              "name": "doubleDamageChance",
              "type": "uint256"
            },
            {
              "internalType": "uint256",
              "name": "ignoreOpponentDefenseChance",
              "type": "uint256"
            },
            {
              "internalType": "uint256",
              "name": "lifeAfterMonsterIncrease",
              "type": "uint256"
            },
            {
              "internalType": "uint256",
              "name": "manaAfterMonsterIncrease",
              "type": "uint256"
            },
            {
              "internalType": "uint256",
              "name": "excellentDamageProbabilityIncrease",
              "type": "uint256"
            },
            {
              "internalType": "uint256",
              "name": "attackSpeedIncrease",
              "type": "uint256"
            },
            {
              "internalType": "uint256",
              "name": "attackLvl20",
              "type": "uint256"
            },
            {
              "internalType": "uint256",
              "name": "attackIncreasePercent",
              "type": "uint256"
            },
            {
              "internalType": "uint256",
              "name": "defenseSuccessRateIncrease",
              "type": "uint256"
            },
            {
              "internalType": "uint256",
              "name": "goldAfterMonsterIncrease",
              "type": "uint256"
            },
            {
              "internalType": "uint256",
              "name": "reflectDamage",
              "type": "uint256"
            },
            {
              "internalType": "uint256",
              "name": "maxLifeIncrease",
              "type": "uint256"
            },
            {
              "internalType": "uint256",
              "name": "maxManaIncrease",
              "type": "uint256"
            },
            {
              "internalType": "uint256",
              "name": "hpRecoveryRateIncrease",
              "type": "uint256"
            },
            {
              "internalType": "uint256",
              "name": "mpRecoveryRateIncrease",
              "type": "uint256"
            },
            {
              "internalType": "uint256",
              "name": "decreaseDamageRateIncrease",
              "type": "uint256"
            }
          ],
          "internalType": "struct ItemsExcellentAtts.ExcellentItemAtts",
          "name": "atts",
          "type": "tuple"
        }
      ],
      "name": "setTokenAttributes",
      "outputs": [],
      "stateMutability": "nonpayable",
      "type": "function"
    },
    {
      "inputs": [
        {
          "internalType": "uint256",
          "name": "tokenId",
          "type": "uint256"
        }
      ],
      "name": "itemExists",
      "outputs": [
        {
          "internalType": "bool",
          "name": "",
          "type": "bool"
        }
      ],
      "stateMutability": "nonpayable",
      "type": "function"
    },
    {
      "inputs": [
        {
          "internalType": "uint256",
          "name": "tokenId",
          "type": "uint256"
        },
        {
          "internalType": "address",
          "name": "to",
          "type": "address"
        }
      ],
      "name": "transferItem",
      "outputs": [],
      "stateMutability": "nonpayable",
      "type": "function"
    },
    {
      "inputs": [
        {
          "components": [
            {
              "internalType": "string",
              "name": "name",
              "type": "string"
            },
            {
              "internalType": "uint256",
              "name": "tokenId",
              "type": "uint256"
            },
            {
              "internalType": "uint256",
              "name": "itemLevel",
              "type": "uint256"
            },
            {
              "internalType": "uint256",
              "name": "maxLevel",
              "type": "uint256"
            },
            {
              "internalType": "uint256",
              "name": "additionalDamage",
              "type": "uint256"
            },
            {
              "internalType": "uint256",
              "name": "additionalDefense",
              "type": "uint256"
            },
            {
              "internalType": "uint256",
              "name": "fighterId",
              "type": "uint256"
            },
            {
              "internalType": "uint256",
              "name": "lastUpdBlock",
              "type": "uint256"
            },
            {
              "internalType": "uint256",
              "name": "itemRarityLevel",
              "type": "uint256"
            },
            {
              "internalType": "uint256",
              "name": "packSize",
              "type": "uint256"
            },
            {
              "internalType": "bool",
              "name": "luck",
              "type": "bool"
            },
            {
              "internalType": "bool",
              "name": "skill",
              "type": "bool"
            },
            {
              "internalType": "bool",
              "name": "isPackable",
              "type": "bool"
            },
            {
              "internalType": "bool",
              "name": "isBox",
              "type": "bool"
            },
            {
              "internalType": "bool",
              "name": "isWeapon",
              "type": "bool"
            },
            {
              "internalType": "bool",
              "name": "isArmour",
              "type": "bool"
            },
            {
              "internalType": "bool",
              "name": "isJewel",
              "type": "bool"
            },
            {
              "internalType": "bool",
              "name": "isWings",
              "type": "bool"
            },
            {
              "internalType": "bool",
              "name": "isMisc",
              "type": "bool"
            },
            {
              "internalType": "bool",
              "name": "isConsumable",
              "type": "bool"
            },
            {
              "internalType": "bool",
              "name": "inShop",
              "type": "bool"
            },
            {
              "internalType": "uint256",
              "name": "increaseAttackSpeedPoints",
              "type": "uint256"
            },
            {
              "internalType": "uint256",
              "name": "reflectDamagePercent",
              "type": "uint256"
            },
            {
              "internalType": "uint256",
              "name": "restoreHPChance",
              "type": "uint256"
            },
            {
              "internalType": "uint256",
              "name": "restoreMPChance",
              "type": "uint256"
            },
            {
              "internalType": "uint256",
              "name": "doubleDamageChance",
              "type": "uint256"
            },
            {
              "internalType": "uint256",
              "name": "ignoreOpponentDefenseChance",
              "type": "uint256"
            },
            {
              "internalType": "uint256",
              "name": "lifeAfterMonsterIncrease",
              "type": "uint256"
            },
            {
              "internalType": "uint256",
              "name": "manaAfterMonsterIncrease",
              "type": "uint256"
            },
            {
              "internalType": "uint256",
              "name": "excellentDamageProbabilityIncrease",
              "type": "uint256"
            },
            {
              "internalType": "uint256",
              "name": "attackSpeedIncrease",
              "type": "uint256"
            },
            {
              "internalType": "uint256",
              "name": "attackLvl20",
              "type": "uint256"
            },
            {
              "internalType": "uint256",
              "name": "attackIncreasePercent",
              "type": "uint256"
            },
            {
              "internalType": "uint256",
              "name": "defenseSuccessRateIncrease",
              "type": "uint256"
            },
            {
              "internalType": "uint256",
              "name": "goldAfterMonsterIncrease",
              "type": "uint256"
            },
            {
              "internalType": "uint256",
              "name": "reflectDamage",
              "type": "uint256"
            },
            {
              "internalType": "uint256",
              "name": "maxLifeIncrease",
              "type": "uint256"
            },
            {
              "internalType": "uint256",
              "name": "maxManaIncrease",
              "type": "uint256"
            },
            {
              "internalType": "uint256",
              "name": "hpRecoveryRateIncrease",
              "type": "uint256"
            },
            {
              "internalType": "uint256",
              "name": "mpRecoveryRateIncrease",
              "type": "uint256"
            },
            {
              "internalType": "uint256",
              "name": "decreaseDamageRateIncrease",
              "type": "uint256"
            }
          ],
          "internalType": "struct ItemsExcellentAtts.ExcellentItemAtts",
          "name": "item",
          "type": "tuple"
        }
      ],
      "name": "addExcellentOption",
      "outputs": [
        {
          "components": [
            {
              "internalType": "string",
              "name": "name",
              "type": "string"
            },
            {
              "internalType": "uint256",
              "name": "tokenId",
              "type": "uint256"
            },
            {
              "internalType": "uint256",
              "name": "itemLevel",
              "type": "uint256"
            },
            {
              "internalType": "uint256",
              "name": "maxLevel",
              "type": "uint256"
            },
            {
              "internalType": "uint256",
              "name": "additionalDamage",
              "type": "uint256"
            },
            {
              "internalType": "uint256",
              "name": "additionalDefense",
              "type": "uint256"
            },
            {
              "internalType": "uint256",
              "name": "fighterId",
              "type": "uint256"
            },
            {
              "internalType": "uint256",
              "name": "lastUpdBlock",
              "type": "uint256"
            },
            {
              "internalType": "uint256",
              "name": "itemRarityLevel",
              "type": "uint256"
            },
            {
              "internalType": "uint256",
              "name": "packSize",
              "type": "uint256"
            },
            {
              "internalType": "bool",
              "name": "luck",
              "type": "bool"
            },
            {
              "internalType": "bool",
              "name": "skill",
              "type": "bool"
            },
            {
              "internalType": "bool",
              "name": "isPackable",
              "type": "bool"
            },
            {
              "internalType": "bool",
              "name": "isBox",
              "type": "bool"
            },
            {
              "internalType": "bool",
              "name": "isWeapon",
              "type": "bool"
            },
            {
              "internalType": "bool",
              "name": "isArmour",
              "type": "bool"
            },
            {
              "internalType": "bool",
              "name": "isJewel",
              "type": "bool"
            },
            {
              "internalType": "bool",
              "name": "isWings",
              "type": "bool"
            },
            {
              "internalType": "bool",
              "name": "isMisc",
              "type": "bool"
            },
            {
              "internalType": "bool",
              "name": "isConsumable",
              "type": "bool"
            },
            {
              "internalType": "bool",
              "name": "inShop",
              "type": "bool"
            },
            {
              "internalType": "uint256",
              "name": "increaseAttackSpeedPoints",
              "type": "uint256"
            },
            {
              "internalType": "uint256",
              "name": "reflectDamagePercent",
              "type": "uint256"
            },
            {
              "internalType": "uint256",
              "name": "restoreHPChance",
              "type": "uint256"
            },
            {
              "internalType": "uint256",
              "name": "restoreMPChance",
              "type": "uint256"
            },
            {
              "internalType": "uint256",
              "name": "doubleDamageChance",
              "type": "uint256"
            },
            {
              "internalType": "uint256",
              "name": "ignoreOpponentDefenseChance",
              "type": "uint256"
            },
            {
              "internalType": "uint256",
              "name": "lifeAfterMonsterIncrease",
              "type": "uint256"
            },
            {
              "internalType": "uint256",
              "name": "manaAfterMonsterIncrease",
              "type": "uint256"
            },
            {
              "internalType": "uint256",
              "name": "excellentDamageProbabilityIncrease",
              "type": "uint256"
            },
            {
              "internalType": "uint256",
              "name": "attackSpeedIncrease",
              "type": "uint256"
            },
            {
              "internalType": "uint256",
              "name": "attackLvl20",
              "type": "uint256"
            },
            {
              "internalType": "uint256",
              "name": "attackIncreasePercent",
              "type": "uint256"
            },
            {
              "internalType": "uint256",
              "name": "defenseSuccessRateIncrease",
              "type": "uint256"
            },
            {
              "internalType": "uint256",
              "name": "goldAfterMonsterIncrease",
              "type": "uint256"
            },
            {
              "internalType": "uint256",
              "name": "reflectDamage",
              "type": "uint256"
            },
            {
              "internalType": "uint256",
              "name": "maxLifeIncrease",
              "type": "uint256"
            },
            {
              "internalType": "uint256",
              "name": "maxManaIncrease",
              "type": "uint256"
            },
            {
              "internalType": "uint256",
              "name": "hpRecoveryRateIncrease",
              "type": "uint256"
            },
            {
              "internalType": "uint256",
              "name": "mpRecoveryRateIncrease",
              "type": "uint256"
            },
            {
              "internalType": "uint256",
              "name": "decreaseDamageRateIncrease",
              "type": "uint256"
            }
          ],
          "internalType": "struct ItemsExcellentAtts.ExcellentItemAtts",
          "name": "",
          "type": "tuple"
        }
      ],
      "stateMutability": "nonpayable",
      "type": "function"
    },
    {
      "inputs": [
        {
          "components": [
            {
              "internalType": "string",
              "name": "name",
              "type": "string"
            },
            {
              "internalType": "uint256",
              "name": "tokenId",
              "type": "uint256"
            },
            {
              "internalType": "uint256",
              "name": "itemLevel",
              "type": "uint256"
            },
            {
              "internalType": "uint256",
              "name": "maxLevel",
              "type": "uint256"
            },
            {
              "internalType": "uint256",
              "name": "additionalDamage",
              "type": "uint256"
            },
            {
              "internalType": "uint256",
              "name": "additionalDefense",
              "type": "uint256"
            },
            {
              "internalType": "uint256",
              "name": "fighterId",
              "type": "uint256"
            },
            {
              "internalType": "uint256",
              "name": "lastUpdBlock",
              "type": "uint256"
            },
            {
              "internalType": "uint256",
              "name": "itemRarityLevel",
              "type": "uint256"
            },
            {
              "internalType": "uint256",
              "name": "packSize",
              "type": "uint256"
            },
            {
              "internalType": "bool",
              "name": "luck",
              "type": "bool"
            },
            {
              "internalType": "bool",
              "name": "skill",
              "type": "bool"
            },
            {
              "internalType": "bool",
              "name": "isPackable",
              "type": "bool"
            },
            {
              "internalType": "bool",
              "name": "isBox",
              "type": "bool"
            },
            {
              "internalType": "bool",
              "name": "isWeapon",
              "type": "bool"
            },
            {
              "internalType": "bool",
              "name": "isArmour",
              "type": "bool"
            },
            {
              "internalType": "bool",
              "name": "isJewel",
              "type": "bool"
            },
            {
              "internalType": "bool",
              "name": "isWings",
              "type": "bool"
            },
            {
              "internalType": "bool",
              "name": "isMisc",
              "type": "bool"
            },
            {
              "internalType": "bool",
              "name": "isConsumable",
              "type": "bool"
            },
            {
              "internalType": "bool",
              "name": "inShop",
              "type": "bool"
            }
          ],
          "internalType": "struct ItemsAtts.ItemAttributes",
          "name": "item",
          "type": "tuple"
        }
      ],
      "name": "convertToExcellent",
      "outputs": [
        {
          "components": [
            {
              "internalType": "string",
              "name": "name",
              "type": "string"
            },
            {
              "internalType": "uint256",
              "name": "tokenId",
              "type": "uint256"
            },
            {
              "internalType": "uint256",
              "name": "itemLevel",
              "type": "uint256"
            },
            {
              "internalType": "uint256",
              "name": "maxLevel",
              "type": "uint256"
            },
            {
              "internalType": "uint256",
              "name": "additionalDamage",
              "type": "uint256"
            },
            {
              "internalType": "uint256",
              "name": "additionalDefense",
              "type": "uint256"
            },
            {
              "internalType": "uint256",
              "name": "fighterId",
              "type": "uint256"
            },
            {
              "internalType": "uint256",
              "name": "lastUpdBlock",
              "type": "uint256"
            },
            {
              "internalType": "uint256",
              "name": "itemRarityLevel",
              "type": "uint256"
            },
            {
              "internalType": "uint256",
              "name": "packSize",
              "type": "uint256"
            },
            {
              "internalType": "bool",
              "name": "luck",
              "type": "bool"
            },
            {
              "internalType": "bool",
              "name": "skill",
              "type": "bool"
            },
            {
              "internalType": "bool",
              "name": "isPackable",
              "type": "bool"
            },
            {
              "internalType": "bool",
              "name": "isBox",
              "type": "bool"
            },
            {
              "internalType": "bool",
              "name": "isWeapon",
              "type": "bool"
            },
            {
              "internalType": "bool",
              "name": "isArmour",
              "type": "bool"
            },
            {
              "internalType": "bool",
              "name": "isJewel",
              "type": "bool"
            },
            {
              "internalType": "bool",
              "name": "isWings",
              "type": "bool"
            },
            {
              "internalType": "bool",
              "name": "isMisc",
              "type": "bool"
            },
            {
              "internalType": "bool",
              "name": "isConsumable",
              "type": "bool"
            },
            {
              "internalType": "bool",
              "name": "inShop",
              "type": "bool"
            },
            {
              "internalType": "uint256",
              "name": "increaseAttackSpeedPoints",
              "type": "uint256"
            },
            {
              "internalType": "uint256",
              "name": "reflectDamagePercent",
              "type": "uint256"
            },
            {
              "internalType": "uint256",
              "name": "restoreHPChance",
              "type": "uint256"
            },
            {
              "internalType": "uint256",
              "name": "restoreMPChance",
              "type": "uint256"
            },
            {
              "internalType": "uint256",
              "name": "doubleDamageChance",
              "type": "uint256"
            },
            {
              "internalType": "uint256",
              "name": "ignoreOpponentDefenseChance",
              "type": "uint256"
            },
            {
              "internalType": "uint256",
              "name": "lifeAfterMonsterIncrease",
              "type": "uint256"
            },
            {
              "internalType": "uint256",
              "name": "manaAfterMonsterIncrease",
              "type": "uint256"
            },
            {
              "internalType": "uint256",
              "name": "excellentDamageProbabilityIncrease",
              "type": "uint256"
            },
            {
              "internalType": "uint256",
              "name": "attackSpeedIncrease",
              "type": "uint256"
            },
            {
              "internalType": "uint256",
              "name": "attackLvl20",
              "type": "uint256"
            },
            {
              "internalType": "uint256",
              "name": "attackIncreasePercent",
              "type": "uint256"
            },
            {
              "internalType": "uint256",
              "name": "defenseSuccessRateIncrease",
              "type": "uint256"
            },
            {
              "internalType": "uint256",
              "name": "goldAfterMonsterIncrease",
              "type": "uint256"
            },
            {
              "internalType": "uint256",
              "name": "reflectDamage",
              "type": "uint256"
            },
            {
              "internalType": "uint256",
              "name": "maxLifeIncrease",
              "type": "uint256"
            },
            {
              "internalType": "uint256",
              "name": "maxManaIncrease",
              "type": "uint256"
            },
            {
              "internalType": "uint256",
              "name": "hpRecoveryRateIncrease",
              "type": "uint256"
            },
            {
              "internalType": "uint256",
              "name": "mpRecoveryRateIncrease",
              "type": "uint256"
            },
            {
              "internalType": "uint256",
              "name": "decreaseDamageRateIncrease",
              "type": "uint256"
            }
          ],
          "internalType": "struct ItemsExcellentAtts.ExcellentItemAtts",
          "name": "",
          "type": "tuple"
        }
      ],
      "stateMutability": "view",
      "type": "function",
      "constant": true
    },
    {
      "inputs": [
        {
          "internalType": "uint256",
          "name": "tokenId",
          "type": "uint256"
        }
      ],
      "name": "burnConsumable",
      "outputs": [],
      "stateMutability": "nonpayable",
      "type": "function"
    },
    {
      "inputs": [
        {
          "internalType": "string",
          "name": "itemName",
          "type": "string"
        },
        {
          "internalType": "uint256[]",
          "name": "tokenIds",
          "type": "uint256[]"
        },
        {
          "internalType": "uint256",
          "name": "packSize",
          "type": "uint256"
        },
        {
          "internalType": "uint256",
          "name": "fighterId",
          "type": "uint256"
        }
      ],
      "name": "packItems",
      "outputs": [
        {
          "internalType": "uint256",
          "name": "newTokenId",
          "type": "uint256"
        }
      ],
      "stateMutability": "nonpayable",
      "type": "function"
    },
    {
      "inputs": [
        {
          "internalType": "uint256",
          "name": "tokenId",
          "type": "uint256"
        }
      ],
      "name": "unpackItems",
      "outputs": [
        {
          "internalType": "uint256[]",
          "name": "tokenIds",
          "type": "uint256[]"
        }
      ],
      "stateMutability": "nonpayable",
      "type": "function"
    },
    {
      "inputs": [
        {
          "internalType": "uint256",
          "name": "rarityLevel",
          "type": "uint256"
        }
      ],
      "name": "getWeapons",
      "outputs": [
        {
          "internalType": "string[]",
          "name": "",
          "type": "string[]"
        }
      ],
      "stateMutability": "view",
      "type": "function",
      "constant": true
    },
    {
      "inputs": [
        {
          "internalType": "uint256",
          "name": "rarityLevel",
          "type": "uint256"
        }
      ],
      "name": "getArmours",
      "outputs": [
        {
          "internalType": "string[]",
          "name": "",
          "type": "string[]"
        }
      ],
      "stateMutability": "view",
      "type": "function",
      "constant": true
    },
    {
      "inputs": [
        {
          "internalType": "uint256",
          "name": "rarityLevel",
          "type": "uint256"
        }
      ],
      "name": "getJewels",
      "outputs": [
        {
          "internalType": "string[]",
          "name": "",
          "type": "string[]"
        }
      ],
      "stateMutability": "view",
      "type": "function",
      "constant": true
    },
    {
      "inputs": [
        {
          "internalType": "uint256",
          "name": "rarityLevel",
          "type": "uint256"
        }
      ],
      "name": "getWings",
      "outputs": [
        {
          "internalType": "string[]",
          "name": "",
          "type": "string[]"
        }
      ],
      "stateMutability": "view",
      "type": "function",
      "constant": true
    },
    {
      "inputs": [
        {
          "internalType": "uint256",
          "name": "rarityLevel",
          "type": "uint256"
        }
      ],
      "name": "getBoxes",
      "outputs": [
        {
          "internalType": "string[]",
          "name": "",
          "type": "string[]"
        }
      ],
      "stateMutability": "view",
      "type": "function",
      "constant": true
    },
    {
      "inputs": [
        {
          "internalType": "uint256",
          "name": "rarityLevel",
          "type": "uint256"
        }
      ],
      "name": "getConsumables",
      "outputs": [
        {
          "internalType": "string[]",
          "name": "",
          "type": "string[]"
        }
      ],
      "stateMutability": "view",
      "type": "function",
      "constant": true
    },
    {
      "inputs": [
        {
          "internalType": "uint256",
          "name": "rarityLevel",
          "type": "uint256"
        }
      ],
      "name": "getMisc",
      "outputs": [
        {
          "internalType": "string[]",
          "name": "",
          "type": "string[]"
        }
      ],
      "stateMutability": "view",
      "type": "function",
      "constant": true
    },
    {
      "inputs": [
        {
          "internalType": "string",
          "name": "itemName",
          "type": "string"
        }
      ],
      "name": "getItemAttributes",
      "outputs": [
        {
          "components": [
            {
              "internalType": "string",
              "name": "name",
              "type": "string"
            },
            {
              "internalType": "uint256",
              "name": "tokenId",
              "type": "uint256"
            },
            {
              "internalType": "uint256",
              "name": "itemLevel",
              "type": "uint256"
            },
            {
              "internalType": "uint256",
              "name": "maxLevel",
              "type": "uint256"
            },
            {
              "internalType": "uint256",
              "name": "additionalDamage",
              "type": "uint256"
            },
            {
              "internalType": "uint256",
              "name": "additionalDefense",
              "type": "uint256"
            },
            {
              "internalType": "uint256",
              "name": "fighterId",
              "type": "uint256"
            },
            {
              "internalType": "uint256",
              "name": "lastUpdBlock",
              "type": "uint256"
            },
            {
              "internalType": "uint256",
              "name": "itemRarityLevel",
              "type": "uint256"
            },
            {
              "internalType": "uint256",
              "name": "packSize",
              "type": "uint256"
            },
            {
              "internalType": "bool",
              "name": "luck",
              "type": "bool"
            },
            {
              "internalType": "bool",
              "name": "skill",
              "type": "bool"
            },
            {
              "internalType": "bool",
              "name": "isPackable",
              "type": "bool"
            },
            {
              "internalType": "bool",
              "name": "isBox",
              "type": "bool"
            },
            {
              "internalType": "bool",
              "name": "isWeapon",
              "type": "bool"
            },
            {
              "internalType": "bool",
              "name": "isArmour",
              "type": "bool"
            },
            {
              "internalType": "bool",
              "name": "isJewel",
              "type": "bool"
            },
            {
              "internalType": "bool",
              "name": "isWings",
              "type": "bool"
            },
            {
              "internalType": "bool",
              "name": "isMisc",
              "type": "bool"
            },
            {
              "internalType": "bool",
              "name": "isConsumable",
              "type": "bool"
            },
            {
              "internalType": "bool",
              "name": "inShop",
              "type": "bool"
            },
            {
              "internalType": "uint256",
              "name": "increaseAttackSpeedPoints",
              "type": "uint256"
            },
            {
              "internalType": "uint256",
              "name": "reflectDamagePercent",
              "type": "uint256"
            },
            {
              "internalType": "uint256",
              "name": "restoreHPChance",
              "type": "uint256"
            },
            {
              "internalType": "uint256",
              "name": "restoreMPChance",
              "type": "uint256"
            },
            {
              "internalType": "uint256",
              "name": "doubleDamageChance",
              "type": "uint256"
            },
            {
              "internalType": "uint256",
              "name": "ignoreOpponentDefenseChance",
              "type": "uint256"
            },
            {
              "internalType": "uint256",
              "name": "lifeAfterMonsterIncrease",
              "type": "uint256"
            },
            {
              "internalType": "uint256",
              "name": "manaAfterMonsterIncrease",
              "type": "uint256"
            },
            {
              "internalType": "uint256",
              "name": "excellentDamageProbabilityIncrease",
              "type": "uint256"
            },
            {
              "internalType": "uint256",
              "name": "attackSpeedIncrease",
              "type": "uint256"
            },
            {
              "internalType": "uint256",
              "name": "attackLvl20",
              "type": "uint256"
            },
            {
              "internalType": "uint256",
              "name": "attackIncreasePercent",
              "type": "uint256"
            },
            {
              "internalType": "uint256",
              "name": "defenseSuccessRateIncrease",
              "type": "uint256"
            },
            {
              "internalType": "uint256",
              "name": "goldAfterMonsterIncrease",
              "type": "uint256"
            },
            {
              "internalType": "uint256",
              "name": "reflectDamage",
              "type": "uint256"
            },
            {
              "internalType": "uint256",
              "name": "maxLifeIncrease",
              "type": "uint256"
            },
            {
              "internalType": "uint256",
              "name": "maxManaIncrease",
              "type": "uint256"
            },
            {
              "internalType": "uint256",
              "name": "hpRecoveryRateIncrease",
              "type": "uint256"
            },
            {
              "internalType": "uint256",
              "name": "mpRecoveryRateIncrease",
              "type": "uint256"
            },
            {
              "internalType": "uint256",
              "name": "decreaseDamageRateIncrease",
              "type": "uint256"
            }
          ],
          "internalType": "struct ItemsExcellentAtts.ExcellentItemAtts",
          "name": "",
          "type": "tuple"
        }
      ],
      "stateMutability": "nonpayable",
      "type": "function"
    },
    {
      "inputs": [
        {
          "internalType": "uint256",
          "name": "tokenId",
          "type": "uint256"
        }
      ],
      "name": "getTokenAttributes",
      "outputs": [
        {
          "components": [
            {
              "internalType": "string",
              "name": "name",
              "type": "string"
            },
            {
              "internalType": "uint256",
              "name": "tokenId",
              "type": "uint256"
            },
            {
              "internalType": "uint256",
              "name": "itemLevel",
              "type": "uint256"
            },
            {
              "internalType": "uint256",
              "name": "maxLevel",
              "type": "uint256"
            },
            {
              "internalType": "uint256",
              "name": "additionalDamage",
              "type": "uint256"
            },
            {
              "internalType": "uint256",
              "name": "additionalDefense",
              "type": "uint256"
            },
            {
              "internalType": "uint256",
              "name": "fighterId",
              "type": "uint256"
            },
            {
              "internalType": "uint256",
              "name": "lastUpdBlock",
              "type": "uint256"
            },
            {
              "internalType": "uint256",
              "name": "itemRarityLevel",
              "type": "uint256"
            },
            {
              "internalType": "uint256",
              "name": "packSize",
              "type": "uint256"
            },
            {
              "internalType": "bool",
              "name": "luck",
              "type": "bool"
            },
            {
              "internalType": "bool",
              "name": "skill",
              "type": "bool"
            },
            {
              "internalType": "bool",
              "name": "isPackable",
              "type": "bool"
            },
            {
              "internalType": "bool",
              "name": "isBox",
              "type": "bool"
            },
            {
              "internalType": "bool",
              "name": "isWeapon",
              "type": "bool"
            },
            {
              "internalType": "bool",
              "name": "isArmour",
              "type": "bool"
            },
            {
              "internalType": "bool",
              "name": "isJewel",
              "type": "bool"
            },
            {
              "internalType": "bool",
              "name": "isWings",
              "type": "bool"
            },
            {
              "internalType": "bool",
              "name": "isMisc",
              "type": "bool"
            },
            {
              "internalType": "bool",
              "name": "isConsumable",
              "type": "bool"
            },
            {
              "internalType": "bool",
              "name": "inShop",
              "type": "bool"
            },
            {
              "internalType": "uint256",
              "name": "increaseAttackSpeedPoints",
              "type": "uint256"
            },
            {
              "internalType": "uint256",
              "name": "reflectDamagePercent",
              "type": "uint256"
            },
            {
              "internalType": "uint256",
              "name": "restoreHPChance",
              "type": "uint256"
            },
            {
              "internalType": "uint256",
              "name": "restoreMPChance",
              "type": "uint256"
            },
            {
              "internalType": "uint256",
              "name": "doubleDamageChance",
              "type": "uint256"
            },
            {
              "internalType": "uint256",
              "name": "ignoreOpponentDefenseChance",
              "type": "uint256"
            },
            {
              "internalType": "uint256",
              "name": "lifeAfterMonsterIncrease",
              "type": "uint256"
            },
            {
              "internalType": "uint256",
              "name": "manaAfterMonsterIncrease",
              "type": "uint256"
            },
            {
              "internalType": "uint256",
              "name": "excellentDamageProbabilityIncrease",
              "type": "uint256"
            },
            {
              "internalType": "uint256",
              "name": "attackSpeedIncrease",
              "type": "uint256"
            },
            {
              "internalType": "uint256",
              "name": "attackLvl20",
              "type": "uint256"
            },
            {
              "internalType": "uint256",
              "name": "attackIncreasePercent",
              "type": "uint256"
            },
            {
              "internalType": "uint256",
              "name": "defenseSuccessRateIncrease",
              "type": "uint256"
            },
            {
              "internalType": "uint256",
              "name": "goldAfterMonsterIncrease",
              "type": "uint256"
            },
            {
              "internalType": "uint256",
              "name": "reflectDamage",
              "type": "uint256"
            },
            {
              "internalType": "uint256",
              "name": "maxLifeIncrease",
              "type": "uint256"
            },
            {
              "internalType": "uint256",
              "name": "maxManaIncrease",
              "type": "uint256"
            },
            {
              "internalType": "uint256",
              "name": "hpRecoveryRateIncrease",
              "type": "uint256"
            },
            {
              "internalType": "uint256",
              "name": "mpRecoveryRateIncrease",
              "type": "uint256"
            },
            {
              "internalType": "uint256",
              "name": "decreaseDamageRateIncrease",
              "type": "uint256"
            }
          ],
          "internalType": "struct ItemsExcellentAtts.ExcellentItemAtts",
          "name": "",
          "type": "tuple"
        }
      ],
      "stateMutability": "nonpayable",
      "type": "function"
    },
    {
      "inputs": [
        {
          "internalType": "address",
          "name": "userAddress",
          "type": "address"
        },
        {
          "internalType": "uint256",
          "name": "fighterId",
          "type": "uint256"
        }
      ],
      "name": "getFighterItems",
      "outputs": [
        {
          "internalType": "uint256[2][]",
          "name": "",
          "type": "uint256[2][]"
        }
      ],
      "stateMutability": "view",
      "type": "function",
      "constant": true
    }
  ],
  "bytecode": "0x608034620000d857601f62001a6e38819003918201601f19168301916001600160401b03831184841017620000dd57808492606094604052833981010312620000d8576200004d81620000f3565b906200006a60406200006260208401620000f3565b9201620000f3565b6064600055601c60015560326002556032600355601e600455601e60055560026006556001600755600060085560018060a01b0380928160018060a01b031995168560095416176009551683600a541617600a551690600b541617600b556040516119659081620001098239f35b600080fd5b634e487b7160e01b600052604160045260246000fd5b51906001600160a01b0382168203620000d85756fe608080604052600436101561001357600080fd5b600090813560e01c90816303f46b8b14610ea0575080631f4f5a2314610e2f57806331d5d1d714610afa5780633267f8ab14610a9c57806332fac8f814610a885780633a6713ec14610a2a57806340d097c314610997578063513c1452146107b6578063576cc0f7146107565780635c3c271d146106e357806380971e2c1461068f578063811aee2f146105e0578063843bd6411461054157806387c7ab5c1461047f5780639b94680f14610421578063a0b2adc0146103cc578063a42291011461035d578063a9ed8e21146102cc578063aa87adfc1461026e578063caf7c44514610204578063e8af18f3146101a65763fd8f61701461011357600080fd5b346101a35760203660031901126101a357600954604051630fd8f61760e41b81526004803590820152908290829060249082906001600160a01b03165afa90811561019857826101719392610175575b505060405191829182610f43565b0390f35b61019192503d8091833e61018981836111c8565b81019061189a565b3880610163565b6040513d84823e3d90fd5b80fd5b50346101a35760203660031901126101a35760095460405163e8af18f360e01b81526004803590820152908290829060249082906001600160a01b03165afa9081156101985782610171939261017557505060405191829182610f43565b50346101a3578061021436611258565b600a546001600160a01b03169190823b15610269576044849283604051958694859363caf7c44560e01b8552600485015260248401525af18015610198576102595750f35b61026290611183565b6101a35780f35b505050fd5b50346101a35760203660031901126101a357600954604051632aa1eb7f60e21b81526004803590820152908290829060249082906001600160a01b03165afa9081156101985782610171939261017557505060405191829182610f43565b50346101a35760403660031901126101a357806024356001600160401b03811161035a576102fe903690600401611284565b600b546001600160a01b0316803b1561035657610345839291839260405194858094819363a9ed8e2160e01b83526004356004840152604060248401526044830190610fa5565b03925af18015610198576102595750f35b5050fd5b50fd5b50346101a35760403660031901126101a3576001600160a01b03602435818116908190036103c7578291600a541690813b1561035657829160448392604051948593849263a422910160e01b8452600435600485015260248401525af18015610198576102595750f35b600080fd5b50346101a357602090816003193601126101a35760405191829181830182845260605180915260408401926080925b82811061040a57505050500390f35b8351855286955093810193928101926001016103fb565b50346101a35760203660031901126101a357600954604051639b94680f60e01b81526004803590820152908290829060249082906001600160a01b03165afa9081156101985782610171939261017557505060405191829182610f43565b50346101a35760203660031901126101a357806004356001600160401b03811161035a576104f26104b583923690600401611204565b6104bd6114e2565b50600b546040516321f1ead760e21b8152602060048201529485936001600160a01b0390921692849283916024830190610f1e565b03925af19081156101985782610171939261051e575b5050604051918291602083526020830190610fa5565b61053a92503d8091833e61053281836111c8565b81019061164d565b3880610508565b50346101a357602090816003193601126101a357600a5460405163843bd64160e01b81526004803590820152908390829060249082906001600160a01b03165afa9182156105d457809261059c575b50506040519015158152f35b9091508282813d83116105cd575b6105b481836111c8565b810103126101a357506105c6906114d5565b3880610590565b503d6105aa565b604051903d90823e3d90fd5b50346101a35760803660031901126101a3576001600160401b039060043582811161068b57610613903690600401611204565b506024359182116101a357366023830112156101a357816004013591610638836114be565b9261064660405194856111c8565b808452602460208095019160051b8301019136831161068757906024859201905b838210610678578285604051908152f35b81358152908201908201610667565b8380fd5b5080fd5b50346101a35760203660031901126101a357600a5481906001600160a01b0316803b1561035a57818091602460405180948193632025c78b60e21b835260043560048401525af18015610198576102595750f35b50346101a35760203660031901126101a357806004356001600160401b03811161035a576104f261071983923690600401611284565b6107216114e2565b50600b54604051635c3c271d60e01b8152602060048201529485936001600160a01b0390921692849283916024830190610fa5565b50346101a35760203660031901126101a357600a5481906001600160a01b0316803b1561035a57819060246040518094819363576cc0f760e01b835260043560048401525af18015610198576107aa575080f35b6107b390611183565b80f35b50346101a35760403660031901126101a3576107d061126e565b600a5460405163289e0a2960e11b81526001600160a01b0392831660048201526024803581830152929091849183916044918391165afa91821561098c57839261087f575b505060405190602080830181845282518091528160408501930191855b82811061083f5785850386f35b90919293828551829089915b60028310610869575050506040600192019501910192919092610832565b815181528693600190930192918201910161084b565b9091503d8084843e61089181846111c8565b8201602080848303126109885783516001600160401b0394858211610984570191601f93818585011215610984578351916108cb836114be565b956108d960405197886111c8565b838752848088019460061b87010195828711610980578501935b86851061090a575050505050505090503880610815565b82828601121561098057604051604081018181108b82111761096d5760405280604087018581116109695791889288949294905b808210610956575050604093508152019401936108f3565b81518652948401948a949091019061093e565b8c80fd5b634e487b7160e01b8c526041600452858cfd5b8980fd5b8680fd5b8480fd5b6040513d85823e3d90fd5b50346101a357602090816003193601126101a3576109b361126e565b600a546040516340d097c360e01b81526001600160a01b039283166004820152918491839160249183918791165af19182156105d45780926109fa575b5050604051908152f35b9091508282813d8311610a23575b610a1281836111c8565b810103126101a357505138806109f0565b503d610a08565b50346101a35760203660031901126101a357600954604051630e99c4fb60e21b81526004803590820152908290829060249082906001600160a01b03165afa9081156101985782610171939261017557505060405191829182610f43565b50346101a357610a9736611258565b505080f35b50346101a35760203660031901126101a357600954604051633267f8ab60e01b81526004803590820152908290829060249082906001600160a01b03165afa9081156101985782610171939261017557505060405191829182610f43565b50346101a35760031960203682011261068b576001600160401b03908160043511610e17576102a0906004353603011261068b57604051906102a0820182811082821117610e1b5760405260043560040135908111610e1757610b64906004369181350101611204565b81526004356024810135602083015260448101356040830152606481013560608301526084810135608083015260a481013560a083015260c481013560c083015260e481013560e0830152610104810135610100830152610124810135610120830152610bd4906101440161124b565b610140820152610be96101646004350161124b565b610160820152610bfe6101846004350161124b565b610180820152610c136101a46004350161124b565b6101a0820152610c286101c46004350161124b565b6101c0820152610c3d6101e46004350161124b565b6101e0820152610c526102046004350161124b565b610200820152610c676102246004350161124b565b610220820152610c7c6102446004350161124b565b610240820152610c916102646004350161124b565b610260820152610ca66102846004350161124b565b610280820152610cb46114e2565b508160018060a01b03600b54169160405192838080936331d5d1d760e01b825260206004830152610280610cf682516102a060248601526102c4850190610f1e565b91602081015160448501526040810151606485015260608101516084850152608081015160a485015260a081015160c485015260c081015160e485015260e08101516101048501526101008101516101248501526101208101516101448501526101408101511515610164850152610160810151151561018485015261018081015115156101a48501526101a081015115156101c48501526101c081015115156101e48501526101e081015115156102048501526102008101511515610224850152610220810151151561024485015261024081015115156102648501526102608101511515610284850152015115156102a483015203915afa9081156101985782610171939261051e575050604051918291602083526020830190610fa5565b8280fd5b634e487b7160e01b84526041600452602484fd5b50346101a35760203660031901126101a357610e496114e2565b50600b54604051631f4f5a2360e01b815260048035908201529082908290602490829084906001600160a01b03165af19081156101985782610171939261051e575050604051918291602083526020830190610fa5565b90503461068b57602036600319011261068b576009546303f46b8b60e01b825260048035908301528290829060249082906001600160a01b03165afa9081156101985782610171939261017557505060405191829182610f43565b60005b838110610f0e5750506000910152565b8181015183820152602001610efe565b90602091610f3781518092818552858086019101610efb565b601f01601f1916010190565b602080820190808352835180925260408301928160408460051b8301019501936000915b848310610f775750505050505090565b9091929394958480610f95600193603f198682030187528a51610f1e565b9801930193019194939290610f67565b90610fb98251610520808452830190610f1e565b916020810151602083015260408101516040830152606081015160608301526080810151608083015260a081015160a083015260c081015160c083015260e081015160e0830152610100808201519083015261012080820151908301526101408082015115159083015261016080820151151590830152610180808201511515908301526101a0808201511515908301526101c0808201511515908301526101e08082015115159083015261020080820151151590830152610220808201511515908301526102408082015115159083015261026080820151151590830152610280808201511515908301526102a080820151908301526102c080820151908301526102e08082015190830152610300808201519083015261032080820151908301526103408082015190830152610360808201519083015261038080820151908301526103a080820151908301526103c080820151908301526103e08082015190830152610400808201519083015261042080820151908301526104408082015190830152610460808201519083015261048080820151908301526104a080820151908301526104c080820151908301526104e080820151908301526105008091015191015290565b6001600160401b03811161119657604052565b634e487b7160e01b600052604160045260246000fd5b61052081019081106001600160401b0382111761119657604052565b90601f801991011681019081106001600160401b0382111761119657604052565b6001600160401b03811161119657601f01601f191660200190565b81601f820112156103c75780359061121b826111e9565b9261122960405194856111c8565b828452602083830101116103c757816000926020809301838601378301015290565b359081151582036103c757565b60409060031901126103c7576004359060243590565b600435906001600160a01b03821682036103c757565b919091610520818403126103c7576040519061129f826111ac565b81938135906001600160401b0382116103c7576112bd918301611204565b82526020810135602083015260408101356040830152606081013560608301526080810135608083015260a081013560a083015260c081013560c083015260e081013560e08301526101008082013590830152610120808201359083015261014061132981830161124b565b9083015261016061133b81830161124b565b9083015261018061134d81830161124b565b908301526101a061135f81830161124b565b908301526101c061137181830161124b565b908301526101e061138381830161124b565b9083015261020061139581830161124b565b908301526102206113a781830161124b565b908301526102406113b981830161124b565b908301526102606113cb81830161124b565b908301526102806113dd81830161124b565b908301526102a080820135908301526102c080820135908301526102e08082013590830152610300808201359083015261032080820135908301526103408082013590830152610360808201359083015261038080820135908301526103a080820135908301526103c080820135908301526103e08082013590830152610400808201359083015261042080820135908301526104408082013590830152610460808201359083015261048080820135908301526104a080820135908301526104c080820135908301526104e0808201359083015261050080910135910152565b6001600160401b0381116111965760051b60200190565b519081151582036103c757565b604051906114ef826111ac565b81606081526105006000918260208201528260408201528260608201528260808201528260a08201528260c08201528260e08201528261010082015282610120820152826101408201528261016082015282610180820152826101a0820152826101c0820152826101e08201528261020082015282610220820152826102408201528261026082015282610280820152826102a0820152826102c0820152826102e08201528261030082015282610320820152826103408201528261036082015282610380820152826103a0820152826103c0820152826103e08201528261040082015282610420820152826104408201528261046082015282610480820152826104a0820152826104c0820152826104e08201520152565b81601f820112156103c757805161161e816111e9565b9261162c60405194856111c8565b818452602082840101116103c75761164a9160208085019101610efb565b90565b6020818303126103c75780516001600160401b03918282116103c7570190610520828403126103c75760405192611683846111ac565b82519182116103c757611697918301611608565b82526020810151602083015260408101516040830152606081015160608301526080810151608083015260a081015160a083015260c081015160c083015260e081015160e0830152610100808201519083015261012080820151908301526101406117038183016114d5565b908301526101606117158183016114d5565b908301526101806117278183016114d5565b908301526101a06117398183016114d5565b908301526101c061174b8183016114d5565b908301526101e061175d8183016114d5565b9083015261020061176f8183016114d5565b908301526102206117818183016114d5565b908301526102406117938183016114d5565b908301526102606117a58183016114d5565b908301526102806117b78183016114d5565b908301526102a080820151908301526102c080820151908301526102e08082015190830152610300808201519083015261032080820151908301526103408082015190830152610360808201519083015261038080820151908301526103a080820151908301526103c080820151908301526103e08082015190830152610400808201519083015261042080820151908301526104408082015190830152610460808201519083015261048080820151908301526104a080820151908301526104c080820151908301526104e08082015190830152610500809101519082015290565b9060209081838203126103c75782516001600160401b03938482116103c7570181601f820112156103c75780516118d0816114be565b946118de60405196876111c8565b818652848087019260051b840101938085116103c757858401925b85841061190a575050505050505090565b83518381116103c7578791611924848480948a0101611608565b8152019301926118f956fea2646970667358221220d96ff831dbac96a9adb616c46828ff9f8486f9ca054aa81347411c2afb018be864736f6c63430008130033",
  "immutableReferences": {},
  "source": "// SPDX-License-Identifier: MIT\npragma solidity ^0.8.18;\nimport \"./ItemsExcellentAtts.sol\";\nimport \"./ItemsBase.sol\";\nimport \"./ItemsExcellent.sol\";\n\ncontract ItemsHelper is ItemsExcellentAtts {\n    ItemsBase private _base;\n    Items private _items;\n    ItemsExcellent private _itemsExcellent;\n\n\n\n    constructor(address itemsBaseAddress, address itemsAddress, address itemsExcellentAddress) {\n        _base = ItemsBase(itemsBaseAddress);\n        _items = Items(itemsAddress);\n        _itemsExcellent = ItemsExcellent(itemsExcellentAddress);\n    }\n\n\n    // Contract Calls (These are called only from allowed contracts)\n    function burnItem(uint256 tokenId) external {\n        return _items.burnItem(tokenId);\n    }\n\n    function setItemLevel(uint256 tokenId, uint256 level)  external {\n        return _items.setItemLevel(tokenId, level);\n    }   \n\n    function setAdditionalPoints(uint256 tokenId, uint256 points) external {\n        //return _items.setAdditionalPoints(tokenId, points);\n    }\n\n    function safeMint(address owner) external returns (uint256) {\n        return _items.safeMint(owner);\n    }\n\n    function setTokenAttributes(uint256 tokenId, ExcellentItemAtts memory atts) external {\n        return _itemsExcellent.setTokenAttributes(tokenId, atts);\n    }\n\n    function itemExists(uint256 tokenId) external returns (bool) {\n        return _items.itemExists(tokenId);\n    }\n\n    function transferItem(uint256 tokenId, address to) external {\n        _items.transferItem(tokenId, to);\n    }\n\n    function addExcellentOption(ExcellentItemAtts memory item) external returns (ExcellentItemAtts memory) {\n        return _itemsExcellent.addExcellentOption(item);\n    }\n\n    function convertToExcellent(ItemAttributes memory item) public view returns (ExcellentItemAtts memory) {\n        return _itemsExcellent.convertToExcellent(item);\n    }\n\n    // function craftItem(uint256 itemId, address itemOwner, uint256 maxLevel, uint256 maxAddPoints) external returns (uint256) {\n    //     return _items.craftItem(itemId, itemOwner, maxLevel, maxAddPoints);\n    // }\n\n\n\n    // RPC Calls (These cane be called by the backend)\n    function burnConsumable(uint256 tokenId) external {\n        return _items.burnConsumable(tokenId);\n    }\n\n    // function buyItemFromShop(string memory itemName, uint256 fighterId) external { \n    //     return _items.buyItemFromShop(itemName, fighterId);\n    // }\n\n\n    function packItems(string memory itemName, uint256[] memory tokenIds, uint256 packSize, uint256 fighterId) external returns (uint256 newTokenId) {\n        //return _items.packItems(itemName, tokenIds, packSize, fighterId);\n    }\n\n    function unpackItems(uint256 tokenId) external returns(uint256[] memory tokenIds) {\n        //return _items.unpackItems(tokenId);\n    }\n\n\n    // Getters (These can be called by anyone)\n    function getWeapons(uint256 rarityLevel) public view returns(string[] memory) {\n        return _base.getWeapons(rarityLevel);\n    }\n\n    function getArmours(uint256 rarityLevel) public view returns(string[] memory) {\n        return _base.getArmours(rarityLevel);\n    }\n\n    function getJewels(uint256 rarityLevel) public view returns(string[] memory) {\n        return _base.getJewels(rarityLevel);\n    }\n\n    function getWings(uint256 rarityLevel) public view returns(string[] memory) {\n        return _base.getWings(rarityLevel);\n    }\n    function getBoxes(uint256 rarityLevel) public view returns(string[] memory) {\n        return _base.getBoxes(rarityLevel);\n    }\n    function getConsumables(uint256 rarityLevel) public view returns(string[] memory) {\n        return _base.getConsumables(rarityLevel);\n    }\n\n    function getMisc(uint256 rarityLevel) public view returns(string[] memory) {\n        return _base.getMisc(rarityLevel);\n    }\n\n    function getItemAttributes(string memory itemName) external returns (ExcellentItemAtts memory) {\n        return _itemsExcellent.getItemAttributes(itemName);\n    }\n\n    function getTokenAttributes(uint256 tokenId) external returns (ExcellentItemAtts memory) {\n        return _itemsExcellent.getTokenAttributes(tokenId);\n    }\n\n    function getFighterItems(address userAddress, uint256 fighterId) external view returns (uint256[2][] memory) { \n        return _items.getFighterItems(userAddress, fighterId);\n    }\n}",
  "sourcePath": "/Users/max/Documents/prog/game-contracts/contracts/ItemsHelper.sol",
  "compiler": {
    "name": "solc",
    "version": "0.8.19+commit.7dd6d404.Emscripten.clang"
  },
  "schemaVersion": "3.4.13",
  "updatedAt": "2023-08-09T04:15:28.907Z",
  "networkType": "ethereum",
  "devdoc": {
    "kind": "dev",
    "methods": {},
    "version": 1
  },
  "userdoc": {
    "kind": "user",
    "methods": {},
    "version": 1
  }
}