{
  "contractName": "Items",
  "abi": [
    {
      "inputs": [
        {
          "internalType": "address",
          "name": "fighterHelperContract",
          "type": "address"
        },
        {
          "internalType": "address",
          "name": "moneyHelperContract",
          "type": "address"
        }
      ],
      "stateMutability": "nonpayable",
      "type": "constructor"
    },
    {
      "anonymous": false,
      "inputs": [
        {
          "indexed": true,
          "internalType": "address",
          "name": "owner",
          "type": "address"
        },
        {
          "indexed": true,
          "internalType": "address",
          "name": "approved",
          "type": "address"
        },
        {
          "indexed": true,
          "internalType": "uint256",
          "name": "tokenId",
          "type": "uint256"
        }
      ],
      "name": "Approval",
      "type": "event"
    },
    {
      "anonymous": false,
      "inputs": [
        {
          "indexed": true,
          "internalType": "address",
          "name": "owner",
          "type": "address"
        },
        {
          "indexed": true,
          "internalType": "address",
          "name": "operator",
          "type": "address"
        },
        {
          "indexed": false,
          "internalType": "bool",
          "name": "approved",
          "type": "bool"
        }
      ],
      "name": "ApprovalForAll",
      "type": "event"
    },
    {
      "anonymous": false,
      "inputs": [
        {
          "indexed": false,
          "internalType": "uint256",
          "name": "rarityLevel",
          "type": "uint256"
        },
        {
          "components": [
            {
              "internalType": "uint256",
              "name": "weaponsDropRate",
              "type": "uint256"
            },
            {
              "internalType": "uint256",
              "name": "armoursDropRate",
              "type": "uint256"
            },
            {
              "internalType": "uint256",
              "name": "jewelsDropRate",
              "type": "uint256"
            },
            {
              "internalType": "uint256",
              "name": "miscDropRate",
              "type": "uint256"
            },
            {
              "internalType": "uint256",
              "name": "boxDropRate",
              "type": "uint256"
            },
            {
              "internalType": "uint256",
              "name": "excDropRate",
              "type": "uint256"
            },
            {
              "internalType": "uint256",
              "name": "boxId",
              "type": "uint256"
            },
            {
              "internalType": "uint256",
              "name": "minItemLevel",
              "type": "uint256"
            },
            {
              "internalType": "uint256",
              "name": "maxItemLevel",
              "type": "uint256"
            },
            {
              "internalType": "uint256",
              "name": "maxAddPoints",
              "type": "uint256"
            },
            {
              "internalType": "uint256",
              "name": "blockCrated",
              "type": "uint256"
            }
          ],
          "indexed": false,
          "internalType": "struct Items.DropParams",
          "name": "params",
          "type": "tuple"
        }
      ],
      "name": "BoxDropParametersChange",
      "type": "event"
    },
    {
      "anonymous": false,
      "inputs": [
        {
          "indexed": false,
          "internalType": "uint256",
          "name": "tokenId",
          "type": "uint256"
        },
        {
          "indexed": false,
          "internalType": "uint256",
          "name": "rarityLevel",
          "type": "uint256"
        },
        {
          "indexed": false,
          "internalType": "address",
          "name": "owner",
          "type": "address"
        }
      ],
      "name": "BoxOppened",
      "type": "event"
    },
    {
      "anonymous": false,
      "inputs": [
        {
          "indexed": false,
          "internalType": "uint256",
          "name": "rarityLevel",
          "type": "uint256"
        },
        {
          "components": [
            {
              "internalType": "uint256",
              "name": "weaponsDropRate",
              "type": "uint256"
            },
            {
              "internalType": "uint256",
              "name": "armoursDropRate",
              "type": "uint256"
            },
            {
              "internalType": "uint256",
              "name": "jewelsDropRate",
              "type": "uint256"
            },
            {
              "internalType": "uint256",
              "name": "miscDropRate",
              "type": "uint256"
            },
            {
              "internalType": "uint256",
              "name": "boxDropRate",
              "type": "uint256"
            },
            {
              "internalType": "uint256",
              "name": "excDropRate",
              "type": "uint256"
            },
            {
              "internalType": "uint256",
              "name": "boxId",
              "type": "uint256"
            },
            {
              "internalType": "uint256",
              "name": "minItemLevel",
              "type": "uint256"
            },
            {
              "internalType": "uint256",
              "name": "maxItemLevel",
              "type": "uint256"
            },
            {
              "internalType": "uint256",
              "name": "maxAddPoints",
              "type": "uint256"
            },
            {
              "internalType": "uint256",
              "name": "blockCrated",
              "type": "uint256"
            }
          ],
          "indexed": false,
          "internalType": "struct Items.DropParams",
          "name": "params",
          "type": "tuple"
        }
      ],
      "name": "DropParametersChange",
      "type": "event"
    },
    {
      "anonymous": false,
      "inputs": [
        {
          "indexed": false,
          "internalType": "uint256",
          "name": "tokenId",
          "type": "uint256"
        },
        {
          "indexed": false,
          "internalType": "uint256",
          "name": "newAddPoints",
          "type": "uint256"
        }
      ],
      "name": "ItemAddPointsUpdate",
      "type": "event"
    },
    {
      "anonymous": false,
      "inputs": [
        {
          "indexed": false,
          "internalType": "uint256",
          "name": "tokenId",
          "type": "uint256"
        },
        {
          "indexed": false,
          "internalType": "uint256",
          "name": "itemId",
          "type": "uint256"
        },
        {
          "indexed": false,
          "internalType": "address",
          "name": "owner",
          "type": "address"
        },
        {
          "indexed": false,
          "internalType": "string",
          "name": "itemName",
          "type": "string"
        }
      ],
      "name": "ItemBoughtFromShop",
      "type": "event"
    },
    {
      "anonymous": false,
      "inputs": [
        {
          "indexed": false,
          "internalType": "uint256",
          "name": "tokenId",
          "type": "uint256"
        },
        {
          "indexed": false,
          "internalType": "address",
          "name": "owner",
          "type": "address"
        }
      ],
      "name": "ItemCrafted",
      "type": "event"
    },
    {
      "anonymous": false,
      "inputs": [
        {
          "indexed": false,
          "internalType": "bytes32",
          "name": "itemHash",
          "type": "bytes32"
        },
        {
          "components": [
            {
              "internalType": "string",
              "name": "name",
              "type": "string"
            },
            {
              "internalType": "uint256",
              "name": "tokenId",
              "type": "uint256"
            },
            {
              "internalType": "uint256",
              "name": "itemLevel",
              "type": "uint256"
            },
            {
              "internalType": "uint256",
              "name": "maxLevel",
              "type": "uint256"
            },
            {
              "internalType": "uint256",
              "name": "durability",
              "type": "uint256"
            },
            {
              "internalType": "uint256",
              "name": "classRequired",
              "type": "uint256"
            },
            {
              "internalType": "uint256",
              "name": "strengthRequired",
              "type": "uint256"
            },
            {
              "internalType": "uint256",
              "name": "agilityRequired",
              "type": "uint256"
            },
            {
              "internalType": "uint256",
              "name": "energyRequired",
              "type": "uint256"
            },
            {
              "internalType": "uint256",
              "name": "vitalityRequired",
              "type": "uint256"
            },
            {
              "internalType": "uint256",
              "name": "itemWidth",
              "type": "uint256"
            },
            {
              "internalType": "uint256",
              "name": "itemHeight",
              "type": "uint256"
            },
            {
              "internalType": "uint256",
              "name": "acceptableSlot1",
              "type": "uint256"
            },
            {
              "internalType": "uint256",
              "name": "acceptableSlot2",
              "type": "uint256"
            },
            {
              "internalType": "uint256",
              "name": "physicalDamage",
              "type": "uint256"
            },
            {
              "internalType": "uint256",
              "name": "magicDamage",
              "type": "uint256"
            },
            {
              "internalType": "uint256",
              "name": "defense",
              "type": "uint256"
            },
            {
              "internalType": "uint256",
              "name": "attackSpeed",
              "type": "uint256"
            },
            {
              "internalType": "uint256",
              "name": "defenseSuccessRate",
              "type": "uint256"
            },
            {
              "internalType": "uint256",
              "name": "additionalDamage",
              "type": "uint256"
            },
            {
              "internalType": "uint256",
              "name": "additionalDefense",
              "type": "uint256"
            },
            {
              "internalType": "uint256",
              "name": "increasedExperienceGain",
              "type": "uint256"
            },
            {
              "internalType": "uint256",
              "name": "damageIncrease",
              "type": "uint256"
            },
            {
              "internalType": "uint256",
              "name": "defenseSuccessRateIncrease",
              "type": "uint256"
            },
            {
              "internalType": "uint256",
              "name": "lifeAfterMonsterIncrease",
              "type": "uint256"
            },
            {
              "internalType": "uint256",
              "name": "manaAfterMonsterIncrease",
              "type": "uint256"
            },
            {
              "internalType": "uint256",
              "name": "goldAfterMonsterIncrease",
              "type": "uint256"
            },
            {
              "internalType": "uint256",
              "name": "doubleDamageProbabilityIncrease",
              "type": "uint256"
            },
            {
              "internalType": "uint256",
              "name": "excellentDamageProbabilityIncrease",
              "type": "uint256"
            },
            {
              "internalType": "uint256",
              "name": "ignoreOpponentsDefenseRateIncrease",
              "type": "uint256"
            },
            {
              "internalType": "uint256",
              "name": "reflectDamage",
              "type": "uint256"
            },
            {
              "internalType": "uint256",
              "name": "maxLifeIncrease",
              "type": "uint256"
            },
            {
              "internalType": "uint256",
              "name": "maxManaIncrease",
              "type": "uint256"
            },
            {
              "internalType": "uint256",
              "name": "excellentDamageRateIncrease",
              "type": "uint256"
            },
            {
              "internalType": "uint256",
              "name": "doubleDamageRateIncrease",
              "type": "uint256"
            },
            {
              "internalType": "uint256",
              "name": "ignoreOpponentsDefenseSuccessRateIncrease",
              "type": "uint256"
            },
            {
              "internalType": "uint256",
              "name": "attackDamageIncrease",
              "type": "uint256"
            },
            {
              "internalType": "uint256",
              "name": "isAncient",
              "type": "uint256"
            },
            {
              "internalType": "uint256",
              "name": "reflectDamageRateIncrease",
              "type": "uint256"
            },
            {
              "internalType": "uint256",
              "name": "decreaseDamageRateIncrease",
              "type": "uint256"
            },
            {
              "internalType": "uint256",
              "name": "hpRecoveryRateIncrease",
              "type": "uint256"
            },
            {
              "internalType": "uint256",
              "name": "mpRecoveryRateIncrease",
              "type": "uint256"
            },
            {
              "internalType": "uint256",
              "name": "defenceIncreasePerLevel",
              "type": "uint256"
            },
            {
              "internalType": "uint256",
              "name": "damageIncreasePerLevel",
              "type": "uint256"
            },
            {
              "internalType": "uint256",
              "name": "increaseDefenseRate",
              "type": "uint256"
            },
            {
              "internalType": "uint256",
              "name": "strengthReqIncreasePerLevel",
              "type": "uint256"
            },
            {
              "internalType": "uint256",
              "name": "agilityReqIncreasePerLevel",
              "type": "uint256"
            },
            {
              "internalType": "uint256",
              "name": "energyReqIncreasePerLevel",
              "type": "uint256"
            },
            {
              "internalType": "uint256",
              "name": "vitalityReqIncreasePerLevel",
              "type": "uint256"
            },
            {
              "internalType": "uint256",
              "name": "attackSpeedIncrease",
              "type": "uint256"
            },
            {
              "internalType": "uint256",
              "name": "fighterId",
              "type": "uint256"
            },
            {
              "internalType": "uint256",
              "name": "lastUpdBlock",
              "type": "uint256"
            },
            {
              "internalType": "uint256",
              "name": "itemRarityLevel",
              "type": "uint256"
            },
            {
              "internalType": "uint256",
              "name": "itemAttributesId",
              "type": "uint256"
            },
            {
              "internalType": "bool",
              "name": "luck",
              "type": "bool"
            },
            {
              "internalType": "bool",
              "name": "skill",
              "type": "bool"
            },
            {
              "internalType": "bool",
              "name": "isBox",
              "type": "bool"
            },
            {
              "internalType": "bool",
              "name": "isWeapon",
              "type": "bool"
            },
            {
              "internalType": "bool",
              "name": "isArmour",
              "type": "bool"
            },
            {
              "internalType": "bool",
              "name": "isJewel",
              "type": "bool"
            },
            {
              "internalType": "bool",
              "name": "isMisc",
              "type": "bool"
            },
            {
              "internalType": "bool",
              "name": "isConsumable",
              "type": "bool"
            },
            {
              "internalType": "bool",
              "name": "inShop",
              "type": "bool"
            }
          ],
          "indexed": false,
          "internalType": "struct ItemAtts.ItemAttributes",
          "name": "item",
          "type": "tuple"
        },
        {
          "indexed": false,
          "internalType": "uint256",
          "name": "qty",
          "type": "uint256"
        },
        {
          "indexed": false,
          "internalType": "uint256",
          "name": "tokenId",
          "type": "uint256"
        }
      ],
      "name": "ItemDropped",
      "type": "event"
    },
    {
      "anonymous": false,
      "inputs": [
        {
          "indexed": false,
          "internalType": "uint256",
          "name": "itemId",
          "type": "uint256"
        },
        {
          "indexed": false,
          "internalType": "string",
          "name": "name",
          "type": "string"
        }
      ],
      "name": "ItemGenerated",
      "type": "event"
    },
    {
      "anonymous": false,
      "inputs": [
        {
          "indexed": false,
          "internalType": "uint256",
          "name": "tokenId",
          "type": "uint256"
        },
        {
          "indexed": false,
          "internalType": "uint256",
          "name": "newLevel",
          "type": "uint256"
        }
      ],
      "name": "ItemLevelUpgrade",
      "type": "event"
    },
    {
      "anonymous": false,
      "inputs": [
        {
          "indexed": false,
          "internalType": "uint256",
          "name": "tokenId",
          "type": "uint256"
        },
        {
          "indexed": false,
          "internalType": "uint256",
          "name": "fighterId",
          "type": "uint256"
        },
        {
          "indexed": false,
          "internalType": "uint256",
          "name": "qty",
          "type": "uint256"
        }
      ],
      "name": "ItemPicked",
      "type": "event"
    },
    {
      "anonymous": false,
      "inputs": [
        {
          "indexed": false,
          "internalType": "uint8",
          "name": "",
          "type": "uint8"
        },
        {
          "indexed": false,
          "internalType": "uint256",
          "name": "",
          "type": "uint256"
        }
      ],
      "name": "LogError",
      "type": "event"
    },
    {
      "anonymous": false,
      "inputs": [
        {
          "indexed": true,
          "internalType": "address",
          "name": "from",
          "type": "address"
        },
        {
          "indexed": true,
          "internalType": "address",
          "name": "to",
          "type": "address"
        },
        {
          "indexed": true,
          "internalType": "uint256",
          "name": "tokenId",
          "type": "uint256"
        }
      ],
      "name": "Transfer",
      "type": "event"
    },
    {
      "inputs": [
        {
          "internalType": "uint256",
          "name": "",
          "type": "uint256"
        },
        {
          "internalType": "uint256",
          "name": "",
          "type": "uint256"
        }
      ],
      "name": "Armours",
      "outputs": [
        {
          "internalType": "uint256",
          "name": "",
          "type": "uint256"
        }
      ],
      "stateMutability": "view",
      "type": "function",
      "constant": true
    },
    {
      "inputs": [
        {
          "internalType": "uint256",
          "name": "",
          "type": "uint256"
        }
      ],
      "name": "BoxDropPramsList",
      "outputs": [
        {
          "internalType": "uint256",
          "name": "weaponsDropRate",
          "type": "uint256"
        },
        {
          "internalType": "uint256",
          "name": "armoursDropRate",
          "type": "uint256"
        },
        {
          "internalType": "uint256",
          "name": "jewelsDropRate",
          "type": "uint256"
        },
        {
          "internalType": "uint256",
          "name": "miscDropRate",
          "type": "uint256"
        },
        {
          "internalType": "uint256",
          "name": "boxDropRate",
          "type": "uint256"
        },
        {
          "internalType": "uint256",
          "name": "excDropRate",
          "type": "uint256"
        },
        {
          "internalType": "uint256",
          "name": "boxId",
          "type": "uint256"
        },
        {
          "internalType": "uint256",
          "name": "minItemLevel",
          "type": "uint256"
        },
        {
          "internalType": "uint256",
          "name": "maxItemLevel",
          "type": "uint256"
        },
        {
          "internalType": "uint256",
          "name": "maxAddPoints",
          "type": "uint256"
        },
        {
          "internalType": "uint256",
          "name": "blockCrated",
          "type": "uint256"
        }
      ],
      "stateMutability": "view",
      "type": "function",
      "constant": true
    },
    {
      "inputs": [
        {
          "internalType": "uint256",
          "name": "",
          "type": "uint256"
        }
      ],
      "name": "DropParamsList",
      "outputs": [
        {
          "internalType": "uint256",
          "name": "weaponsDropRate",
          "type": "uint256"
        },
        {
          "internalType": "uint256",
          "name": "armoursDropRate",
          "type": "uint256"
        },
        {
          "internalType": "uint256",
          "name": "jewelsDropRate",
          "type": "uint256"
        },
        {
          "internalType": "uint256",
          "name": "miscDropRate",
          "type": "uint256"
        },
        {
          "internalType": "uint256",
          "name": "boxDropRate",
          "type": "uint256"
        },
        {
          "internalType": "uint256",
          "name": "excDropRate",
          "type": "uint256"
        },
        {
          "internalType": "uint256",
          "name": "boxId",
          "type": "uint256"
        },
        {
          "internalType": "uint256",
          "name": "minItemLevel",
          "type": "uint256"
        },
        {
          "internalType": "uint256",
          "name": "maxItemLevel",
          "type": "uint256"
        },
        {
          "internalType": "uint256",
          "name": "maxAddPoints",
          "type": "uint256"
        },
        {
          "internalType": "uint256",
          "name": "blockCrated",
          "type": "uint256"
        }
      ],
      "stateMutability": "view",
      "type": "function",
      "constant": true
    },
    {
      "inputs": [
        {
          "internalType": "uint256",
          "name": "",
          "type": "uint256"
        },
        {
          "internalType": "uint256",
          "name": "",
          "type": "uint256"
        }
      ],
      "name": "Jewels",
      "outputs": [
        {
          "internalType": "uint256",
          "name": "",
          "type": "uint256"
        }
      ],
      "stateMutability": "view",
      "type": "function",
      "constant": true
    },
    {
      "inputs": [
        {
          "internalType": "uint256",
          "name": "",
          "type": "uint256"
        },
        {
          "internalType": "uint256",
          "name": "",
          "type": "uint256"
        }
      ],
      "name": "Misc",
      "outputs": [
        {
          "internalType": "uint256",
          "name": "",
          "type": "uint256"
        }
      ],
      "stateMutability": "view",
      "type": "function",
      "constant": true
    },
    {
      "inputs": [
        {
          "internalType": "uint256",
          "name": "",
          "type": "uint256"
        },
        {
          "internalType": "uint256",
          "name": "",
          "type": "uint256"
        }
      ],
      "name": "Weapons",
      "outputs": [
        {
          "internalType": "uint256",
          "name": "",
          "type": "uint256"
        }
      ],
      "stateMutability": "view",
      "type": "function",
      "constant": true
    },
    {
      "inputs": [
        {
          "internalType": "address",
          "name": "to",
          "type": "address"
        },
        {
          "internalType": "uint256",
          "name": "tokenId",
          "type": "uint256"
        }
      ],
      "name": "approve",
      "outputs": [],
      "stateMutability": "nonpayable",
      "type": "function"
    },
    {
      "inputs": [
        {
          "internalType": "address",
          "name": "owner",
          "type": "address"
        }
      ],
      "name": "balanceOf",
      "outputs": [
        {
          "internalType": "uint256",
          "name": "",
          "type": "uint256"
        }
      ],
      "stateMutability": "view",
      "type": "function",
      "constant": true
    },
    {
      "inputs": [
        {
          "internalType": "bytes32",
          "name": "",
          "type": "bytes32"
        }
      ],
      "name": "dropHashes",
      "outputs": [
        {
          "internalType": "uint256",
          "name": "",
          "type": "uint256"
        }
      ],
      "stateMutability": "view",
      "type": "function",
      "constant": true
    },
    {
      "inputs": [
        {
          "internalType": "uint256",
          "name": "tokenId",
          "type": "uint256"
        }
      ],
      "name": "getApproved",
      "outputs": [
        {
          "internalType": "address",
          "name": "",
          "type": "address"
        }
      ],
      "stateMutability": "view",
      "type": "function",
      "constant": true
    },
    {
      "inputs": [
        {
          "internalType": "address",
          "name": "owner",
          "type": "address"
        },
        {
          "internalType": "address",
          "name": "operator",
          "type": "address"
        }
      ],
      "name": "isApprovedForAll",
      "outputs": [
        {
          "internalType": "bool",
          "name": "",
          "type": "bool"
        }
      ],
      "stateMutability": "view",
      "type": "function",
      "constant": true
    },
    {
      "inputs": [],
      "name": "name",
      "outputs": [
        {
          "internalType": "string",
          "name": "",
          "type": "string"
        }
      ],
      "stateMutability": "view",
      "type": "function",
      "constant": true
    },
    {
      "inputs": [],
      "name": "owner",
      "outputs": [
        {
          "internalType": "address",
          "name": "",
          "type": "address"
        }
      ],
      "stateMutability": "view",
      "type": "function",
      "constant": true
    },
    {
      "inputs": [
        {
          "internalType": "uint256",
          "name": "tokenId",
          "type": "uint256"
        }
      ],
      "name": "ownerOf",
      "outputs": [
        {
          "internalType": "address",
          "name": "",
          "type": "address"
        }
      ],
      "stateMutability": "view",
      "type": "function",
      "constant": true
    },
    {
      "inputs": [
        {
          "internalType": "address",
          "name": "from",
          "type": "address"
        },
        {
          "internalType": "address",
          "name": "to",
          "type": "address"
        },
        {
          "internalType": "uint256",
          "name": "tokenId",
          "type": "uint256"
        }
      ],
      "name": "safeTransferFrom",
      "outputs": [],
      "stateMutability": "nonpayable",
      "type": "function"
    },
    {
      "inputs": [
        {
          "internalType": "address",
          "name": "from",
          "type": "address"
        },
        {
          "internalType": "address",
          "name": "to",
          "type": "address"
        },
        {
          "internalType": "uint256",
          "name": "tokenId",
          "type": "uint256"
        },
        {
          "internalType": "bytes",
          "name": "data",
          "type": "bytes"
        }
      ],
      "name": "safeTransferFrom",
      "outputs": [],
      "stateMutability": "nonpayable",
      "type": "function"
    },
    {
      "inputs": [
        {
          "internalType": "address",
          "name": "operator",
          "type": "address"
        },
        {
          "internalType": "bool",
          "name": "approved",
          "type": "bool"
        }
      ],
      "name": "setApprovalForAll",
      "outputs": [],
      "stateMutability": "nonpayable",
      "type": "function"
    },
    {
      "inputs": [
        {
          "internalType": "bytes4",
          "name": "interfaceId",
          "type": "bytes4"
        }
      ],
      "name": "supportsInterface",
      "outputs": [
        {
          "internalType": "bool",
          "name": "",
          "type": "bool"
        }
      ],
      "stateMutability": "view",
      "type": "function",
      "constant": true
    },
    {
      "inputs": [],
      "name": "symbol",
      "outputs": [
        {
          "internalType": "string",
          "name": "",
          "type": "string"
        }
      ],
      "stateMutability": "view",
      "type": "function",
      "constant": true
    },
    {
      "inputs": [
        {
          "internalType": "uint256",
          "name": "index",
          "type": "uint256"
        }
      ],
      "name": "tokenByIndex",
      "outputs": [
        {
          "internalType": "uint256",
          "name": "",
          "type": "uint256"
        }
      ],
      "stateMutability": "view",
      "type": "function",
      "constant": true
    },
    {
      "inputs": [
        {
          "internalType": "address",
          "name": "owner",
          "type": "address"
        },
        {
          "internalType": "uint256",
          "name": "index",
          "type": "uint256"
        }
      ],
      "name": "tokenOfOwnerByIndex",
      "outputs": [
        {
          "internalType": "uint256",
          "name": "",
          "type": "uint256"
        }
      ],
      "stateMutability": "view",
      "type": "function",
      "constant": true
    },
    {
      "inputs": [
        {
          "internalType": "uint256",
          "name": "tokenId",
          "type": "uint256"
        }
      ],
      "name": "tokenURI",
      "outputs": [
        {
          "internalType": "string",
          "name": "",
          "type": "string"
        }
      ],
      "stateMutability": "view",
      "type": "function",
      "constant": true
    },
    {
      "inputs": [],
      "name": "totalSupply",
      "outputs": [
        {
          "internalType": "uint256",
          "name": "",
          "type": "uint256"
        }
      ],
      "stateMutability": "view",
      "type": "function",
      "constant": true
    },
    {
      "inputs": [
        {
          "internalType": "address",
          "name": "from",
          "type": "address"
        },
        {
          "internalType": "address",
          "name": "to",
          "type": "address"
        },
        {
          "internalType": "uint256",
          "name": "tokenId",
          "type": "uint256"
        }
      ],
      "name": "transferFrom",
      "outputs": [],
      "stateMutability": "nonpayable",
      "type": "function"
    },
    {
      "inputs": [
        {
          "internalType": "uint256",
          "name": "tokenId",
          "type": "uint256"
        },
        {
          "internalType": "uint256",
          "name": "points",
          "type": "uint256"
        }
      ],
      "name": "setAdditionalPoints",
      "outputs": [],
      "stateMutability": "nonpayable",
      "type": "function"
    },
    {
      "inputs": [
        {
          "internalType": "uint256",
          "name": "tokenId",
          "type": "uint256"
        },
        {
          "internalType": "uint256",
          "name": "level",
          "type": "uint256"
        }
      ],
      "name": "setItemLevel",
      "outputs": [],
      "stateMutability": "nonpayable",
      "type": "function"
    },
    {
      "inputs": [
        {
          "internalType": "uint256",
          "name": "tokenId",
          "type": "uint256"
        }
      ],
      "name": "burnItem",
      "outputs": [],
      "stateMutability": "nonpayable",
      "type": "function"
    },
    {
      "inputs": [
        {
          "internalType": "uint256",
          "name": "tokenId",
          "type": "uint256"
        }
      ],
      "name": "openBox",
      "outputs": [
        {
          "internalType": "uint256",
          "name": "",
          "type": "uint256"
        }
      ],
      "stateMutability": "nonpayable",
      "type": "function"
    },
    {
      "inputs": [
        {
          "internalType": "address",
          "name": "ownerAddres",
          "type": "address"
        }
      ],
      "name": "safeMint",
      "outputs": [
        {
          "internalType": "uint256",
          "name": "",
          "type": "uint256"
        }
      ],
      "stateMutability": "nonpayable",
      "type": "function"
    },
    {
      "inputs": [
        {
          "internalType": "uint256",
          "name": "tokenId",
          "type": "uint256"
        },
        {
          "components": [
            {
              "internalType": "string",
              "name": "name",
              "type": "string"
            },
            {
              "internalType": "uint256",
              "name": "tokenId",
              "type": "uint256"
            },
            {
              "internalType": "uint256",
              "name": "itemLevel",
              "type": "uint256"
            },
            {
              "internalType": "uint256",
              "name": "maxLevel",
              "type": "uint256"
            },
            {
              "internalType": "uint256",
              "name": "durability",
              "type": "uint256"
            },
            {
              "internalType": "uint256",
              "name": "classRequired",
              "type": "uint256"
            },
            {
              "internalType": "uint256",
              "name": "strengthRequired",
              "type": "uint256"
            },
            {
              "internalType": "uint256",
              "name": "agilityRequired",
              "type": "uint256"
            },
            {
              "internalType": "uint256",
              "name": "energyRequired",
              "type": "uint256"
            },
            {
              "internalType": "uint256",
              "name": "vitalityRequired",
              "type": "uint256"
            },
            {
              "internalType": "uint256",
              "name": "itemWidth",
              "type": "uint256"
            },
            {
              "internalType": "uint256",
              "name": "itemHeight",
              "type": "uint256"
            },
            {
              "internalType": "uint256",
              "name": "acceptableSlot1",
              "type": "uint256"
            },
            {
              "internalType": "uint256",
              "name": "acceptableSlot2",
              "type": "uint256"
            },
            {
              "internalType": "uint256",
              "name": "physicalDamage",
              "type": "uint256"
            },
            {
              "internalType": "uint256",
              "name": "magicDamage",
              "type": "uint256"
            },
            {
              "internalType": "uint256",
              "name": "defense",
              "type": "uint256"
            },
            {
              "internalType": "uint256",
              "name": "attackSpeed",
              "type": "uint256"
            },
            {
              "internalType": "uint256",
              "name": "defenseSuccessRate",
              "type": "uint256"
            },
            {
              "internalType": "uint256",
              "name": "additionalDamage",
              "type": "uint256"
            },
            {
              "internalType": "uint256",
              "name": "additionalDefense",
              "type": "uint256"
            },
            {
              "internalType": "uint256",
              "name": "increasedExperienceGain",
              "type": "uint256"
            },
            {
              "internalType": "uint256",
              "name": "damageIncrease",
              "type": "uint256"
            },
            {
              "internalType": "uint256",
              "name": "defenseSuccessRateIncrease",
              "type": "uint256"
            },
            {
              "internalType": "uint256",
              "name": "lifeAfterMonsterIncrease",
              "type": "uint256"
            },
            {
              "internalType": "uint256",
              "name": "manaAfterMonsterIncrease",
              "type": "uint256"
            },
            {
              "internalType": "uint256",
              "name": "goldAfterMonsterIncrease",
              "type": "uint256"
            },
            {
              "internalType": "uint256",
              "name": "doubleDamageProbabilityIncrease",
              "type": "uint256"
            },
            {
              "internalType": "uint256",
              "name": "excellentDamageProbabilityIncrease",
              "type": "uint256"
            },
            {
              "internalType": "uint256",
              "name": "ignoreOpponentsDefenseRateIncrease",
              "type": "uint256"
            },
            {
              "internalType": "uint256",
              "name": "reflectDamage",
              "type": "uint256"
            },
            {
              "internalType": "uint256",
              "name": "maxLifeIncrease",
              "type": "uint256"
            },
            {
              "internalType": "uint256",
              "name": "maxManaIncrease",
              "type": "uint256"
            },
            {
              "internalType": "uint256",
              "name": "excellentDamageRateIncrease",
              "type": "uint256"
            },
            {
              "internalType": "uint256",
              "name": "doubleDamageRateIncrease",
              "type": "uint256"
            },
            {
              "internalType": "uint256",
              "name": "ignoreOpponentsDefenseSuccessRateIncrease",
              "type": "uint256"
            },
            {
              "internalType": "uint256",
              "name": "attackDamageIncrease",
              "type": "uint256"
            },
            {
              "internalType": "uint256",
              "name": "isAncient",
              "type": "uint256"
            },
            {
              "internalType": "uint256",
              "name": "reflectDamageRateIncrease",
              "type": "uint256"
            },
            {
              "internalType": "uint256",
              "name": "decreaseDamageRateIncrease",
              "type": "uint256"
            },
            {
              "internalType": "uint256",
              "name": "hpRecoveryRateIncrease",
              "type": "uint256"
            },
            {
              "internalType": "uint256",
              "name": "mpRecoveryRateIncrease",
              "type": "uint256"
            },
            {
              "internalType": "uint256",
              "name": "defenceIncreasePerLevel",
              "type": "uint256"
            },
            {
              "internalType": "uint256",
              "name": "damageIncreasePerLevel",
              "type": "uint256"
            },
            {
              "internalType": "uint256",
              "name": "increaseDefenseRate",
              "type": "uint256"
            },
            {
              "internalType": "uint256",
              "name": "strengthReqIncreasePerLevel",
              "type": "uint256"
            },
            {
              "internalType": "uint256",
              "name": "agilityReqIncreasePerLevel",
              "type": "uint256"
            },
            {
              "internalType": "uint256",
              "name": "energyReqIncreasePerLevel",
              "type": "uint256"
            },
            {
              "internalType": "uint256",
              "name": "vitalityReqIncreasePerLevel",
              "type": "uint256"
            },
            {
              "internalType": "uint256",
              "name": "attackSpeedIncrease",
              "type": "uint256"
            },
            {
              "internalType": "uint256",
              "name": "fighterId",
              "type": "uint256"
            },
            {
              "internalType": "uint256",
              "name": "lastUpdBlock",
              "type": "uint256"
            },
            {
              "internalType": "uint256",
              "name": "itemRarityLevel",
              "type": "uint256"
            },
            {
              "internalType": "uint256",
              "name": "itemAttributesId",
              "type": "uint256"
            },
            {
              "internalType": "bool",
              "name": "luck",
              "type": "bool"
            },
            {
              "internalType": "bool",
              "name": "skill",
              "type": "bool"
            },
            {
              "internalType": "bool",
              "name": "isBox",
              "type": "bool"
            },
            {
              "internalType": "bool",
              "name": "isWeapon",
              "type": "bool"
            },
            {
              "internalType": "bool",
              "name": "isArmour",
              "type": "bool"
            },
            {
              "internalType": "bool",
              "name": "isJewel",
              "type": "bool"
            },
            {
              "internalType": "bool",
              "name": "isMisc",
              "type": "bool"
            },
            {
              "internalType": "bool",
              "name": "isConsumable",
              "type": "bool"
            },
            {
              "internalType": "bool",
              "name": "inShop",
              "type": "bool"
            }
          ],
          "internalType": "struct ItemAtts.ItemAttributes",
          "name": "atts",
          "type": "tuple"
        }
      ],
      "name": "setTokenAttributes",
      "outputs": [],
      "stateMutability": "nonpayable",
      "type": "function"
    },
    {
      "inputs": [
        {
          "internalType": "bytes32",
          "name": "dropHash",
          "type": "bytes32"
        }
      ],
      "name": "getDropQty",
      "outputs": [
        {
          "internalType": "uint256",
          "name": "",
          "type": "uint256"
        }
      ],
      "stateMutability": "nonpayable",
      "type": "function"
    },
    {
      "inputs": [
        {
          "internalType": "bytes32",
          "name": "itemHash",
          "type": "bytes32"
        },
        {
          "internalType": "uint256",
          "name": "qty",
          "type": "uint256"
        }
      ],
      "name": "createDropHash",
      "outputs": [],
      "stateMutability": "nonpayable",
      "type": "function"
    },
    {
      "inputs": [
        {
          "internalType": "uint256",
          "name": "tokenId",
          "type": "uint256"
        }
      ],
      "name": "itemExists",
      "outputs": [
        {
          "internalType": "bool",
          "name": "",
          "type": "bool"
        }
      ],
      "stateMutability": "view",
      "type": "function",
      "constant": true
    },
    {
      "inputs": [
        {
          "internalType": "uint256",
          "name": "rarityLevel",
          "type": "uint256"
        },
        {
          "components": [
            {
              "internalType": "uint256",
              "name": "weaponsDropRate",
              "type": "uint256"
            },
            {
              "internalType": "uint256",
              "name": "armoursDropRate",
              "type": "uint256"
            },
            {
              "internalType": "uint256",
              "name": "jewelsDropRate",
              "type": "uint256"
            },
            {
              "internalType": "uint256",
              "name": "miscDropRate",
              "type": "uint256"
            },
            {
              "internalType": "uint256",
              "name": "boxDropRate",
              "type": "uint256"
            },
            {
              "internalType": "uint256",
              "name": "excDropRate",
              "type": "uint256"
            },
            {
              "internalType": "uint256",
              "name": "boxId",
              "type": "uint256"
            },
            {
              "internalType": "uint256",
              "name": "minItemLevel",
              "type": "uint256"
            },
            {
              "internalType": "uint256",
              "name": "maxItemLevel",
              "type": "uint256"
            },
            {
              "internalType": "uint256",
              "name": "maxAddPoints",
              "type": "uint256"
            },
            {
              "internalType": "uint256",
              "name": "blockCrated",
              "type": "uint256"
            }
          ],
          "internalType": "struct Items.DropParams",
          "name": "params",
          "type": "tuple"
        }
      ],
      "name": "setDropParams",
      "outputs": [],
      "stateMutability": "nonpayable",
      "type": "function"
    },
    {
      "inputs": [
        {
          "internalType": "uint256",
          "name": "rarityLevel",
          "type": "uint256"
        },
        {
          "components": [
            {
              "internalType": "uint256",
              "name": "weaponsDropRate",
              "type": "uint256"
            },
            {
              "internalType": "uint256",
              "name": "armoursDropRate",
              "type": "uint256"
            },
            {
              "internalType": "uint256",
              "name": "jewelsDropRate",
              "type": "uint256"
            },
            {
              "internalType": "uint256",
              "name": "miscDropRate",
              "type": "uint256"
            },
            {
              "internalType": "uint256",
              "name": "boxDropRate",
              "type": "uint256"
            },
            {
              "internalType": "uint256",
              "name": "excDropRate",
              "type": "uint256"
            },
            {
              "internalType": "uint256",
              "name": "boxId",
              "type": "uint256"
            },
            {
              "internalType": "uint256",
              "name": "minItemLevel",
              "type": "uint256"
            },
            {
              "internalType": "uint256",
              "name": "maxItemLevel",
              "type": "uint256"
            },
            {
              "internalType": "uint256",
              "name": "maxAddPoints",
              "type": "uint256"
            },
            {
              "internalType": "uint256",
              "name": "blockCrated",
              "type": "uint256"
            }
          ],
          "internalType": "struct Items.DropParams",
          "name": "params",
          "type": "tuple"
        }
      ],
      "name": "setBoxDropParams",
      "outputs": [],
      "stateMutability": "nonpayable",
      "type": "function"
    },
    {
      "inputs": [
        {
          "components": [
            {
              "internalType": "string",
              "name": "name",
              "type": "string"
            },
            {
              "internalType": "uint256",
              "name": "tokenId",
              "type": "uint256"
            },
            {
              "internalType": "uint256",
              "name": "itemLevel",
              "type": "uint256"
            },
            {
              "internalType": "uint256",
              "name": "maxLevel",
              "type": "uint256"
            },
            {
              "internalType": "uint256",
              "name": "durability",
              "type": "uint256"
            },
            {
              "internalType": "uint256",
              "name": "classRequired",
              "type": "uint256"
            },
            {
              "internalType": "uint256",
              "name": "strengthRequired",
              "type": "uint256"
            },
            {
              "internalType": "uint256",
              "name": "agilityRequired",
              "type": "uint256"
            },
            {
              "internalType": "uint256",
              "name": "energyRequired",
              "type": "uint256"
            },
            {
              "internalType": "uint256",
              "name": "vitalityRequired",
              "type": "uint256"
            },
            {
              "internalType": "uint256",
              "name": "itemWidth",
              "type": "uint256"
            },
            {
              "internalType": "uint256",
              "name": "itemHeight",
              "type": "uint256"
            },
            {
              "internalType": "uint256",
              "name": "acceptableSlot1",
              "type": "uint256"
            },
            {
              "internalType": "uint256",
              "name": "acceptableSlot2",
              "type": "uint256"
            },
            {
              "internalType": "uint256",
              "name": "physicalDamage",
              "type": "uint256"
            },
            {
              "internalType": "uint256",
              "name": "magicDamage",
              "type": "uint256"
            },
            {
              "internalType": "uint256",
              "name": "defense",
              "type": "uint256"
            },
            {
              "internalType": "uint256",
              "name": "attackSpeed",
              "type": "uint256"
            },
            {
              "internalType": "uint256",
              "name": "defenseSuccessRate",
              "type": "uint256"
            },
            {
              "internalType": "uint256",
              "name": "additionalDamage",
              "type": "uint256"
            },
            {
              "internalType": "uint256",
              "name": "additionalDefense",
              "type": "uint256"
            },
            {
              "internalType": "uint256",
              "name": "increasedExperienceGain",
              "type": "uint256"
            },
            {
              "internalType": "uint256",
              "name": "damageIncrease",
              "type": "uint256"
            },
            {
              "internalType": "uint256",
              "name": "defenseSuccessRateIncrease",
              "type": "uint256"
            },
            {
              "internalType": "uint256",
              "name": "lifeAfterMonsterIncrease",
              "type": "uint256"
            },
            {
              "internalType": "uint256",
              "name": "manaAfterMonsterIncrease",
              "type": "uint256"
            },
            {
              "internalType": "uint256",
              "name": "goldAfterMonsterIncrease",
              "type": "uint256"
            },
            {
              "internalType": "uint256",
              "name": "doubleDamageProbabilityIncrease",
              "type": "uint256"
            },
            {
              "internalType": "uint256",
              "name": "excellentDamageProbabilityIncrease",
              "type": "uint256"
            },
            {
              "internalType": "uint256",
              "name": "ignoreOpponentsDefenseRateIncrease",
              "type": "uint256"
            },
            {
              "internalType": "uint256",
              "name": "reflectDamage",
              "type": "uint256"
            },
            {
              "internalType": "uint256",
              "name": "maxLifeIncrease",
              "type": "uint256"
            },
            {
              "internalType": "uint256",
              "name": "maxManaIncrease",
              "type": "uint256"
            },
            {
              "internalType": "uint256",
              "name": "excellentDamageRateIncrease",
              "type": "uint256"
            },
            {
              "internalType": "uint256",
              "name": "doubleDamageRateIncrease",
              "type": "uint256"
            },
            {
              "internalType": "uint256",
              "name": "ignoreOpponentsDefenseSuccessRateIncrease",
              "type": "uint256"
            },
            {
              "internalType": "uint256",
              "name": "attackDamageIncrease",
              "type": "uint256"
            },
            {
              "internalType": "uint256",
              "name": "isAncient",
              "type": "uint256"
            },
            {
              "internalType": "uint256",
              "name": "reflectDamageRateIncrease",
              "type": "uint256"
            },
            {
              "internalType": "uint256",
              "name": "decreaseDamageRateIncrease",
              "type": "uint256"
            },
            {
              "internalType": "uint256",
              "name": "hpRecoveryRateIncrease",
              "type": "uint256"
            },
            {
              "internalType": "uint256",
              "name": "mpRecoveryRateIncrease",
              "type": "uint256"
            },
            {
              "internalType": "uint256",
              "name": "defenceIncreasePerLevel",
              "type": "uint256"
            },
            {
              "internalType": "uint256",
              "name": "damageIncreasePerLevel",
              "type": "uint256"
            },
            {
              "internalType": "uint256",
              "name": "increaseDefenseRate",
              "type": "uint256"
            },
            {
              "internalType": "uint256",
              "name": "strengthReqIncreasePerLevel",
              "type": "uint256"
            },
            {
              "internalType": "uint256",
              "name": "agilityReqIncreasePerLevel",
              "type": "uint256"
            },
            {
              "internalType": "uint256",
              "name": "energyReqIncreasePerLevel",
              "type": "uint256"
            },
            {
              "internalType": "uint256",
              "name": "vitalityReqIncreasePerLevel",
              "type": "uint256"
            },
            {
              "internalType": "uint256",
              "name": "attackSpeedIncrease",
              "type": "uint256"
            },
            {
              "internalType": "uint256",
              "name": "fighterId",
              "type": "uint256"
            },
            {
              "internalType": "uint256",
              "name": "lastUpdBlock",
              "type": "uint256"
            },
            {
              "internalType": "uint256",
              "name": "itemRarityLevel",
              "type": "uint256"
            },
            {
              "internalType": "uint256",
              "name": "itemAttributesId",
              "type": "uint256"
            },
            {
              "internalType": "bool",
              "name": "luck",
              "type": "bool"
            },
            {
              "internalType": "bool",
              "name": "skill",
              "type": "bool"
            },
            {
              "internalType": "bool",
              "name": "isBox",
              "type": "bool"
            },
            {
              "internalType": "bool",
              "name": "isWeapon",
              "type": "bool"
            },
            {
              "internalType": "bool",
              "name": "isArmour",
              "type": "bool"
            },
            {
              "internalType": "bool",
              "name": "isJewel",
              "type": "bool"
            },
            {
              "internalType": "bool",
              "name": "isMisc",
              "type": "bool"
            },
            {
              "internalType": "bool",
              "name": "isConsumable",
              "type": "bool"
            },
            {
              "internalType": "bool",
              "name": "inShop",
              "type": "bool"
            }
          ],
          "internalType": "struct ItemAtts.ItemAttributes",
          "name": "atts",
          "type": "tuple"
        }
      ],
      "name": "createItem",
      "outputs": [
        {
          "internalType": "uint256",
          "name": "tokenId",
          "type": "uint256"
        }
      ],
      "stateMutability": "nonpayable",
      "type": "function"
    },
    {
      "inputs": [
        {
          "internalType": "uint256",
          "name": "rarityLevel",
          "type": "uint256"
        },
        {
          "internalType": "uint256",
          "name": "fighterId",
          "type": "uint256"
        },
        {
          "internalType": "uint256",
          "name": "experience",
          "type": "uint256"
        }
      ],
      "name": "dropItem",
      "outputs": [
        {
          "internalType": "bytes32",
          "name": "",
          "type": "bytes32"
        }
      ],
      "stateMutability": "nonpayable",
      "type": "function"
    },
    {
      "inputs": [
        {
          "components": [
            {
              "internalType": "string",
              "name": "name",
              "type": "string"
            },
            {
              "internalType": "uint256",
              "name": "tokenId",
              "type": "uint256"
            },
            {
              "internalType": "uint256",
              "name": "itemLevel",
              "type": "uint256"
            },
            {
              "internalType": "uint256",
              "name": "maxLevel",
              "type": "uint256"
            },
            {
              "internalType": "uint256",
              "name": "durability",
              "type": "uint256"
            },
            {
              "internalType": "uint256",
              "name": "classRequired",
              "type": "uint256"
            },
            {
              "internalType": "uint256",
              "name": "strengthRequired",
              "type": "uint256"
            },
            {
              "internalType": "uint256",
              "name": "agilityRequired",
              "type": "uint256"
            },
            {
              "internalType": "uint256",
              "name": "energyRequired",
              "type": "uint256"
            },
            {
              "internalType": "uint256",
              "name": "vitalityRequired",
              "type": "uint256"
            },
            {
              "internalType": "uint256",
              "name": "itemWidth",
              "type": "uint256"
            },
            {
              "internalType": "uint256",
              "name": "itemHeight",
              "type": "uint256"
            },
            {
              "internalType": "uint256",
              "name": "acceptableSlot1",
              "type": "uint256"
            },
            {
              "internalType": "uint256",
              "name": "acceptableSlot2",
              "type": "uint256"
            },
            {
              "internalType": "uint256",
              "name": "physicalDamage",
              "type": "uint256"
            },
            {
              "internalType": "uint256",
              "name": "magicDamage",
              "type": "uint256"
            },
            {
              "internalType": "uint256",
              "name": "defense",
              "type": "uint256"
            },
            {
              "internalType": "uint256",
              "name": "attackSpeed",
              "type": "uint256"
            },
            {
              "internalType": "uint256",
              "name": "defenseSuccessRate",
              "type": "uint256"
            },
            {
              "internalType": "uint256",
              "name": "additionalDamage",
              "type": "uint256"
            },
            {
              "internalType": "uint256",
              "name": "additionalDefense",
              "type": "uint256"
            },
            {
              "internalType": "uint256",
              "name": "increasedExperienceGain",
              "type": "uint256"
            },
            {
              "internalType": "uint256",
              "name": "damageIncrease",
              "type": "uint256"
            },
            {
              "internalType": "uint256",
              "name": "defenseSuccessRateIncrease",
              "type": "uint256"
            },
            {
              "internalType": "uint256",
              "name": "lifeAfterMonsterIncrease",
              "type": "uint256"
            },
            {
              "internalType": "uint256",
              "name": "manaAfterMonsterIncrease",
              "type": "uint256"
            },
            {
              "internalType": "uint256",
              "name": "goldAfterMonsterIncrease",
              "type": "uint256"
            },
            {
              "internalType": "uint256",
              "name": "doubleDamageProbabilityIncrease",
              "type": "uint256"
            },
            {
              "internalType": "uint256",
              "name": "excellentDamageProbabilityIncrease",
              "type": "uint256"
            },
            {
              "internalType": "uint256",
              "name": "ignoreOpponentsDefenseRateIncrease",
              "type": "uint256"
            },
            {
              "internalType": "uint256",
              "name": "reflectDamage",
              "type": "uint256"
            },
            {
              "internalType": "uint256",
              "name": "maxLifeIncrease",
              "type": "uint256"
            },
            {
              "internalType": "uint256",
              "name": "maxManaIncrease",
              "type": "uint256"
            },
            {
              "internalType": "uint256",
              "name": "excellentDamageRateIncrease",
              "type": "uint256"
            },
            {
              "internalType": "uint256",
              "name": "doubleDamageRateIncrease",
              "type": "uint256"
            },
            {
              "internalType": "uint256",
              "name": "ignoreOpponentsDefenseSuccessRateIncrease",
              "type": "uint256"
            },
            {
              "internalType": "uint256",
              "name": "attackDamageIncrease",
              "type": "uint256"
            },
            {
              "internalType": "uint256",
              "name": "isAncient",
              "type": "uint256"
            },
            {
              "internalType": "uint256",
              "name": "reflectDamageRateIncrease",
              "type": "uint256"
            },
            {
              "internalType": "uint256",
              "name": "decreaseDamageRateIncrease",
              "type": "uint256"
            },
            {
              "internalType": "uint256",
              "name": "hpRecoveryRateIncrease",
              "type": "uint256"
            },
            {
              "internalType": "uint256",
              "name": "mpRecoveryRateIncrease",
              "type": "uint256"
            },
            {
              "internalType": "uint256",
              "name": "defenceIncreasePerLevel",
              "type": "uint256"
            },
            {
              "internalType": "uint256",
              "name": "damageIncreasePerLevel",
              "type": "uint256"
            },
            {
              "internalType": "uint256",
              "name": "increaseDefenseRate",
              "type": "uint256"
            },
            {
              "internalType": "uint256",
              "name": "strengthReqIncreasePerLevel",
              "type": "uint256"
            },
            {
              "internalType": "uint256",
              "name": "agilityReqIncreasePerLevel",
              "type": "uint256"
            },
            {
              "internalType": "uint256",
              "name": "energyReqIncreasePerLevel",
              "type": "uint256"
            },
            {
              "internalType": "uint256",
              "name": "vitalityReqIncreasePerLevel",
              "type": "uint256"
            },
            {
              "internalType": "uint256",
              "name": "attackSpeedIncrease",
              "type": "uint256"
            },
            {
              "internalType": "uint256",
              "name": "fighterId",
              "type": "uint256"
            },
            {
              "internalType": "uint256",
              "name": "lastUpdBlock",
              "type": "uint256"
            },
            {
              "internalType": "uint256",
              "name": "itemRarityLevel",
              "type": "uint256"
            },
            {
              "internalType": "uint256",
              "name": "itemAttributesId",
              "type": "uint256"
            },
            {
              "internalType": "bool",
              "name": "luck",
              "type": "bool"
            },
            {
              "internalType": "bool",
              "name": "skill",
              "type": "bool"
            },
            {
              "internalType": "bool",
              "name": "isBox",
              "type": "bool"
            },
            {
              "internalType": "bool",
              "name": "isWeapon",
              "type": "bool"
            },
            {
              "internalType": "bool",
              "name": "isArmour",
              "type": "bool"
            },
            {
              "internalType": "bool",
              "name": "isJewel",
              "type": "bool"
            },
            {
              "internalType": "bool",
              "name": "isMisc",
              "type": "bool"
            },
            {
              "internalType": "bool",
              "name": "isConsumable",
              "type": "bool"
            },
            {
              "internalType": "bool",
              "name": "inShop",
              "type": "bool"
            }
          ],
          "internalType": "struct ItemAtts.ItemAttributes",
          "name": "itemAtts",
          "type": "tuple"
        }
      ],
      "name": "makeItem",
      "outputs": [
        {
          "internalType": "bytes32",
          "name": "",
          "type": "bytes32"
        }
      ],
      "stateMutability": "nonpayable",
      "type": "function"
    },
    {
      "inputs": [
        {
          "internalType": "uint256",
          "name": "tokenId",
          "type": "uint256"
        }
      ],
      "name": "getTokenAttributes",
      "outputs": [
        {
          "components": [
            {
              "internalType": "string",
              "name": "name",
              "type": "string"
            },
            {
              "internalType": "uint256",
              "name": "tokenId",
              "type": "uint256"
            },
            {
              "internalType": "uint256",
              "name": "itemLevel",
              "type": "uint256"
            },
            {
              "internalType": "uint256",
              "name": "maxLevel",
              "type": "uint256"
            },
            {
              "internalType": "uint256",
              "name": "durability",
              "type": "uint256"
            },
            {
              "internalType": "uint256",
              "name": "classRequired",
              "type": "uint256"
            },
            {
              "internalType": "uint256",
              "name": "strengthRequired",
              "type": "uint256"
            },
            {
              "internalType": "uint256",
              "name": "agilityRequired",
              "type": "uint256"
            },
            {
              "internalType": "uint256",
              "name": "energyRequired",
              "type": "uint256"
            },
            {
              "internalType": "uint256",
              "name": "vitalityRequired",
              "type": "uint256"
            },
            {
              "internalType": "uint256",
              "name": "itemWidth",
              "type": "uint256"
            },
            {
              "internalType": "uint256",
              "name": "itemHeight",
              "type": "uint256"
            },
            {
              "internalType": "uint256",
              "name": "acceptableSlot1",
              "type": "uint256"
            },
            {
              "internalType": "uint256",
              "name": "acceptableSlot2",
              "type": "uint256"
            },
            {
              "internalType": "uint256",
              "name": "physicalDamage",
              "type": "uint256"
            },
            {
              "internalType": "uint256",
              "name": "magicDamage",
              "type": "uint256"
            },
            {
              "internalType": "uint256",
              "name": "defense",
              "type": "uint256"
            },
            {
              "internalType": "uint256",
              "name": "attackSpeed",
              "type": "uint256"
            },
            {
              "internalType": "uint256",
              "name": "defenseSuccessRate",
              "type": "uint256"
            },
            {
              "internalType": "uint256",
              "name": "additionalDamage",
              "type": "uint256"
            },
            {
              "internalType": "uint256",
              "name": "additionalDefense",
              "type": "uint256"
            },
            {
              "internalType": "uint256",
              "name": "increasedExperienceGain",
              "type": "uint256"
            },
            {
              "internalType": "uint256",
              "name": "damageIncrease",
              "type": "uint256"
            },
            {
              "internalType": "uint256",
              "name": "defenseSuccessRateIncrease",
              "type": "uint256"
            },
            {
              "internalType": "uint256",
              "name": "lifeAfterMonsterIncrease",
              "type": "uint256"
            },
            {
              "internalType": "uint256",
              "name": "manaAfterMonsterIncrease",
              "type": "uint256"
            },
            {
              "internalType": "uint256",
              "name": "goldAfterMonsterIncrease",
              "type": "uint256"
            },
            {
              "internalType": "uint256",
              "name": "doubleDamageProbabilityIncrease",
              "type": "uint256"
            },
            {
              "internalType": "uint256",
              "name": "excellentDamageProbabilityIncrease",
              "type": "uint256"
            },
            {
              "internalType": "uint256",
              "name": "ignoreOpponentsDefenseRateIncrease",
              "type": "uint256"
            },
            {
              "internalType": "uint256",
              "name": "reflectDamage",
              "type": "uint256"
            },
            {
              "internalType": "uint256",
              "name": "maxLifeIncrease",
              "type": "uint256"
            },
            {
              "internalType": "uint256",
              "name": "maxManaIncrease",
              "type": "uint256"
            },
            {
              "internalType": "uint256",
              "name": "excellentDamageRateIncrease",
              "type": "uint256"
            },
            {
              "internalType": "uint256",
              "name": "doubleDamageRateIncrease",
              "type": "uint256"
            },
            {
              "internalType": "uint256",
              "name": "ignoreOpponentsDefenseSuccessRateIncrease",
              "type": "uint256"
            },
            {
              "internalType": "uint256",
              "name": "attackDamageIncrease",
              "type": "uint256"
            },
            {
              "internalType": "uint256",
              "name": "isAncient",
              "type": "uint256"
            },
            {
              "internalType": "uint256",
              "name": "reflectDamageRateIncrease",
              "type": "uint256"
            },
            {
              "internalType": "uint256",
              "name": "decreaseDamageRateIncrease",
              "type": "uint256"
            },
            {
              "internalType": "uint256",
              "name": "hpRecoveryRateIncrease",
              "type": "uint256"
            },
            {
              "internalType": "uint256",
              "name": "mpRecoveryRateIncrease",
              "type": "uint256"
            },
            {
              "internalType": "uint256",
              "name": "defenceIncreasePerLevel",
              "type": "uint256"
            },
            {
              "internalType": "uint256",
              "name": "damageIncreasePerLevel",
              "type": "uint256"
            },
            {
              "internalType": "uint256",
              "name": "increaseDefenseRate",
              "type": "uint256"
            },
            {
              "internalType": "uint256",
              "name": "strengthReqIncreasePerLevel",
              "type": "uint256"
            },
            {
              "internalType": "uint256",
              "name": "agilityReqIncreasePerLevel",
              "type": "uint256"
            },
            {
              "internalType": "uint256",
              "name": "energyReqIncreasePerLevel",
              "type": "uint256"
            },
            {
              "internalType": "uint256",
              "name": "vitalityReqIncreasePerLevel",
              "type": "uint256"
            },
            {
              "internalType": "uint256",
              "name": "attackSpeedIncrease",
              "type": "uint256"
            },
            {
              "internalType": "uint256",
              "name": "fighterId",
              "type": "uint256"
            },
            {
              "internalType": "uint256",
              "name": "lastUpdBlock",
              "type": "uint256"
            },
            {
              "internalType": "uint256",
              "name": "itemRarityLevel",
              "type": "uint256"
            },
            {
              "internalType": "uint256",
              "name": "itemAttributesId",
              "type": "uint256"
            },
            {
              "internalType": "bool",
              "name": "luck",
              "type": "bool"
            },
            {
              "internalType": "bool",
              "name": "skill",
              "type": "bool"
            },
            {
              "internalType": "bool",
              "name": "isBox",
              "type": "bool"
            },
            {
              "internalType": "bool",
              "name": "isWeapon",
              "type": "bool"
            },
            {
              "internalType": "bool",
              "name": "isArmour",
              "type": "bool"
            },
            {
              "internalType": "bool",
              "name": "isJewel",
              "type": "bool"
            },
            {
              "internalType": "bool",
              "name": "isMisc",
              "type": "bool"
            },
            {
              "internalType": "bool",
              "name": "isConsumable",
              "type": "bool"
            },
            {
              "internalType": "bool",
              "name": "inShop",
              "type": "bool"
            }
          ],
          "internalType": "struct ItemAtts.ItemAttributes",
          "name": "",
          "type": "tuple"
        }
      ],
      "stateMutability": "view",
      "type": "function",
      "constant": true
    },
    {
      "inputs": [
        {
          "internalType": "uint256",
          "name": "itemId",
          "type": "uint256"
        }
      ],
      "name": "getItemAttributes",
      "outputs": [
        {
          "components": [
            {
              "internalType": "string",
              "name": "name",
              "type": "string"
            },
            {
              "internalType": "uint256",
              "name": "tokenId",
              "type": "uint256"
            },
            {
              "internalType": "uint256",
              "name": "itemLevel",
              "type": "uint256"
            },
            {
              "internalType": "uint256",
              "name": "maxLevel",
              "type": "uint256"
            },
            {
              "internalType": "uint256",
              "name": "durability",
              "type": "uint256"
            },
            {
              "internalType": "uint256",
              "name": "classRequired",
              "type": "uint256"
            },
            {
              "internalType": "uint256",
              "name": "strengthRequired",
              "type": "uint256"
            },
            {
              "internalType": "uint256",
              "name": "agilityRequired",
              "type": "uint256"
            },
            {
              "internalType": "uint256",
              "name": "energyRequired",
              "type": "uint256"
            },
            {
              "internalType": "uint256",
              "name": "vitalityRequired",
              "type": "uint256"
            },
            {
              "internalType": "uint256",
              "name": "itemWidth",
              "type": "uint256"
            },
            {
              "internalType": "uint256",
              "name": "itemHeight",
              "type": "uint256"
            },
            {
              "internalType": "uint256",
              "name": "acceptableSlot1",
              "type": "uint256"
            },
            {
              "internalType": "uint256",
              "name": "acceptableSlot2",
              "type": "uint256"
            },
            {
              "internalType": "uint256",
              "name": "physicalDamage",
              "type": "uint256"
            },
            {
              "internalType": "uint256",
              "name": "magicDamage",
              "type": "uint256"
            },
            {
              "internalType": "uint256",
              "name": "defense",
              "type": "uint256"
            },
            {
              "internalType": "uint256",
              "name": "attackSpeed",
              "type": "uint256"
            },
            {
              "internalType": "uint256",
              "name": "defenseSuccessRate",
              "type": "uint256"
            },
            {
              "internalType": "uint256",
              "name": "additionalDamage",
              "type": "uint256"
            },
            {
              "internalType": "uint256",
              "name": "additionalDefense",
              "type": "uint256"
            },
            {
              "internalType": "uint256",
              "name": "increasedExperienceGain",
              "type": "uint256"
            },
            {
              "internalType": "uint256",
              "name": "damageIncrease",
              "type": "uint256"
            },
            {
              "internalType": "uint256",
              "name": "defenseSuccessRateIncrease",
              "type": "uint256"
            },
            {
              "internalType": "uint256",
              "name": "lifeAfterMonsterIncrease",
              "type": "uint256"
            },
            {
              "internalType": "uint256",
              "name": "manaAfterMonsterIncrease",
              "type": "uint256"
            },
            {
              "internalType": "uint256",
              "name": "goldAfterMonsterIncrease",
              "type": "uint256"
            },
            {
              "internalType": "uint256",
              "name": "doubleDamageProbabilityIncrease",
              "type": "uint256"
            },
            {
              "internalType": "uint256",
              "name": "excellentDamageProbabilityIncrease",
              "type": "uint256"
            },
            {
              "internalType": "uint256",
              "name": "ignoreOpponentsDefenseRateIncrease",
              "type": "uint256"
            },
            {
              "internalType": "uint256",
              "name": "reflectDamage",
              "type": "uint256"
            },
            {
              "internalType": "uint256",
              "name": "maxLifeIncrease",
              "type": "uint256"
            },
            {
              "internalType": "uint256",
              "name": "maxManaIncrease",
              "type": "uint256"
            },
            {
              "internalType": "uint256",
              "name": "excellentDamageRateIncrease",
              "type": "uint256"
            },
            {
              "internalType": "uint256",
              "name": "doubleDamageRateIncrease",
              "type": "uint256"
            },
            {
              "internalType": "uint256",
              "name": "ignoreOpponentsDefenseSuccessRateIncrease",
              "type": "uint256"
            },
            {
              "internalType": "uint256",
              "name": "attackDamageIncrease",
              "type": "uint256"
            },
            {
              "internalType": "uint256",
              "name": "isAncient",
              "type": "uint256"
            },
            {
              "internalType": "uint256",
              "name": "reflectDamageRateIncrease",
              "type": "uint256"
            },
            {
              "internalType": "uint256",
              "name": "decreaseDamageRateIncrease",
              "type": "uint256"
            },
            {
              "internalType": "uint256",
              "name": "hpRecoveryRateIncrease",
              "type": "uint256"
            },
            {
              "internalType": "uint256",
              "name": "mpRecoveryRateIncrease",
              "type": "uint256"
            },
            {
              "internalType": "uint256",
              "name": "defenceIncreasePerLevel",
              "type": "uint256"
            },
            {
              "internalType": "uint256",
              "name": "damageIncreasePerLevel",
              "type": "uint256"
            },
            {
              "internalType": "uint256",
              "name": "increaseDefenseRate",
              "type": "uint256"
            },
            {
              "internalType": "uint256",
              "name": "strengthReqIncreasePerLevel",
              "type": "uint256"
            },
            {
              "internalType": "uint256",
              "name": "agilityReqIncreasePerLevel",
              "type": "uint256"
            },
            {
              "internalType": "uint256",
              "name": "energyReqIncreasePerLevel",
              "type": "uint256"
            },
            {
              "internalType": "uint256",
              "name": "vitalityReqIncreasePerLevel",
              "type": "uint256"
            },
            {
              "internalType": "uint256",
              "name": "attackSpeedIncrease",
              "type": "uint256"
            },
            {
              "internalType": "uint256",
              "name": "fighterId",
              "type": "uint256"
            },
            {
              "internalType": "uint256",
              "name": "lastUpdBlock",
              "type": "uint256"
            },
            {
              "internalType": "uint256",
              "name": "itemRarityLevel",
              "type": "uint256"
            },
            {
              "internalType": "uint256",
              "name": "itemAttributesId",
              "type": "uint256"
            },
            {
              "internalType": "bool",
              "name": "luck",
              "type": "bool"
            },
            {
              "internalType": "bool",
              "name": "skill",
              "type": "bool"
            },
            {
              "internalType": "bool",
              "name": "isBox",
              "type": "bool"
            },
            {
              "internalType": "bool",
              "name": "isWeapon",
              "type": "bool"
            },
            {
              "internalType": "bool",
              "name": "isArmour",
              "type": "bool"
            },
            {
              "internalType": "bool",
              "name": "isJewel",
              "type": "bool"
            },
            {
              "internalType": "bool",
              "name": "isMisc",
              "type": "bool"
            },
            {
              "internalType": "bool",
              "name": "isConsumable",
              "type": "bool"
            },
            {
              "internalType": "bool",
              "name": "inShop",
              "type": "bool"
            }
          ],
          "internalType": "struct ItemAtts.ItemAttributes",
          "name": "",
          "type": "tuple"
        }
      ],
      "stateMutability": "view",
      "type": "function",
      "constant": true
    },
    {
      "inputs": [
        {
          "internalType": "address",
          "name": "userAddress",
          "type": "address"
        }
      ],
      "name": "getUserItems",
      "outputs": [
        {
          "internalType": "uint256[]",
          "name": "",
          "type": "uint256[]"
        }
      ],
      "stateMutability": "view",
      "type": "function",
      "constant": true
    },
    {
      "inputs": [
        {
          "internalType": "address",
          "name": "userAddress",
          "type": "address"
        },
        {
          "internalType": "uint256",
          "name": "fighterId",
          "type": "uint256"
        }
      ],
      "name": "getFighterItems",
      "outputs": [
        {
          "internalType": "uint256[2][]",
          "name": "",
          "type": "uint256[2][]"
        }
      ],
      "stateMutability": "view",
      "type": "function",
      "constant": true
    },
    {
      "inputs": [
        {
          "internalType": "uint256",
          "name": "a",
          "type": "uint256"
        },
        {
          "internalType": "uint256",
          "name": "b",
          "type": "uint256"
        }
      ],
      "name": "safeMul",
      "outputs": [
        {
          "internalType": "uint256",
          "name": "",
          "type": "uint256"
        }
      ],
      "stateMutability": "nonpayable",
      "type": "function"
    },
    {
      "inputs": [
        {
          "internalType": "uint256",
          "name": "a",
          "type": "uint256"
        },
        {
          "internalType": "uint256",
          "name": "b",
          "type": "uint256"
        }
      ],
      "name": "safeSub",
      "outputs": [
        {
          "internalType": "uint256",
          "name": "",
          "type": "uint256"
        }
      ],
      "stateMutability": "nonpayable",
      "type": "function"
    },
    {
      "inputs": [
        {
          "internalType": "uint256",
          "name": "a",
          "type": "uint256"
        },
        {
          "internalType": "uint256",
          "name": "b",
          "type": "uint256"
        }
      ],
      "name": "safeAdd",
      "outputs": [
        {
          "internalType": "uint256",
          "name": "",
          "type": "uint256"
        }
      ],
      "stateMutability": "nonpayable",
      "type": "function"
    }
  ],
  "bytecode": "0x6064600a908155601c600b8190556032600c819055600d55601e600e819055600f8181556002601055600160115560006012556023608081905260a081905260c085905260e0859052610100859052610120829052601381905560149081556015859055601685905560178590556018919091556102606040526101408490526101608190526101808490526101a08490526101c08490526101e08490526102008490526102208490526102408290526019849055601a55601b83905590829055601d829055818155601f829055602091909155602155348015620000e357600080fd5b5060405162006fe638038062006fe6833981016040819052620001069162001479565b604051806040016040528060068152602001651354925554d160d21b815250604051806040016040528060048152602001634974656d60e01b815250816000908162000153919062001555565b50600162000162828262001555565b50505033602460006101000a8154816001600160a01b0302191690836001600160a01b0316021790555081602260006101000a8154816001600160a01b0302191690836001600160a01b0316021790555080602360006101000a8154816001600160a01b0302191690836001600160a01b03160217905550620003b6604051806107e001604052806060815260200160008152602001600081526020016000815260200160008152602001600081526020016000815260200160008152602001600081526020016000815260200160008152602001600081526020016000815260200160008152602001600081526020016000815260200160008152602001600081526020016000815260200160008152602001600081526020016000815260200160008152602001600081526020016000815260200160008152602001600081526020016000815260200160008152602001600081526020016000815260200160008152602001600081526020016000815260200160008152602001600081526020016000815260200160008152602001600081526020016000815260200160008152602001600081526020016000815260200160008152602001600081526020016000815260200160008152602001600081526020016000815260200160008152602001600081526020016000815260200160008152602001600081526020016000151581526020016000151581526020016000151581526020016000151581526020016000151581526020016000151581526020016000151581526020016000151581526020016000151581525090565b60408051808201909152600a815269456d707479206974656d60b01b60208201528152620003e4816200042d565b50620003f0816200092a565b60408051808201909152600481526311dbdb1960e21b6020820152815262000418816200042d565b5062000424816200092a565b5050506200174a565b602d80546001810182556000918252825183916037027f4a2cc91ee622da3bc833a54c37ffcb6f3ec23b7793efc5eaf5e71b7b406c5c060190819062000474908262001555565b5060208281015160018381019190915560408401516002840155606084015160038401556080840151600484015560a0840151600584015560c0840151600684015560e084015160078401556101008085015160088501556101208501516009850155610140850151600a850155610160850151600b850155610180850151600c8501556101a0850151600d8501556101c0850151600e8501556101e0850151600f850155610200850151601085015561022085015160118501556102408501516012850155610260850151601385015561028085015160148501556102a085015160158501556102c085015160168501556102e0850151601785015561030085015160188501556103208501516019850155610340850151601a850155610360850151601b850155610380850151601c8501556103a0850151601d8501556103c0850151601e8501556103e0850151601f8501556104008501519284019290925561042084015160218401556104408401516022840155610460840151602384015561048084015160248401556104a084015160258401556104c084015160268401556104e0840151602784015561050084015160288401556105208401516029840155610540840151602a840155610560840151602b840155610580840151602c8401556105a0840151602d808501919091556105c0850151602e8501556105e0850151602f850155610600850151603085015561062085015160318501556106408501516032850155610660850151603385015561068085015160348501556106a085015160358501556106c0850151603690940180546106e08701516107008801516107208901516107408a01516107608b01516107808c01516107a08d01516107c0909d015161ffff199097169b151561ff0019169b909b179415159099029390931763ffff00001916620100009215159290920263ff0000001916919091176301000000911515919091021761ffff60201b19166401000000009115159190910260ff60281b19161765010000000000951515959095029490941761ffff60301b191666010000000000009515159590950260ff60381b191694909417670100000000000000951515959095029490941760ff60401b19166801000000000000000092151592909202919091179091559054600091620007da9162001621565b905080602d8281548110620007f357620007f362001649565b906000526020600020906037020160350181905550826107200151156200084157610680830151600090815260256020908152604082208054600181018255908352912001819055620008e7565b826107400151156200087a57610680830151600090815260266020908152604082208054600181018255908352912001819055620008e7565b82610760015115620008b357610680830151600090815260276020908152604082208054600181018255908352912001819055620008e7565b82610780015115620008e7576106808301516000908152602860209081526040822080546001810182559083529120018190555b82516040517f0538ce8dba67be446d1a480a6e48683b27c6efb61d7c01d60767e15705e5d00f916200091c91849190620016a7565b60405180910390a192915050565b62000939602e80546001019055565b600062000945602e5490565b905062000953338262000984565b6200095f8183620009aa565b6000818152602c60205260408120600181019290925560328201554360339091015550565b620009a682826040518060200160405280600081525062000d8660201b60201c565b5050565b6000828152600260205260409020546001600160a01b031662000a145760405162461bcd60e51b815260206004820152601460248201527f546f6b656e20646f6573206e6f7420657869737400000000000000000000000060448201526064015b60405180910390fd5b6000828152602c602052604090208151829190819062000a35908262001555565b50602082810151600183015560408301516002830155606083015160038301556080830151600483015560a0830151600583015560c0830151600683015560e083015160078301556101008084015160088401556101208401516009840155610140840151600a840155610160840151600b840155610180840151600c8401556101a0840151600d8401556101c0840151600e8401556101e0840151600f840155610200840151601084015561022084015160118401556102408401516012840155610260840151601384015561028084015160148401556102a084015160158401556102c084015160168401556102e0840151601784015561030084015160188401556103208401516019840155610340840151601a840155610360840151601b840155610380840151601c8401556103a0840151601d8401556103c0840151601e8401556103e0840151601f8401556104008401519183019190915561042083015160218301556104408301516022830155610460830151602383015561048083015160248301556104a083015160258301556104c083015160268301556104e0830151602783015561050083015160288301556105208301516029830155610540830151602a830155610560830151602b830155610580830151602c8301556105a0830151602d8301556105c0830151602e8301556105e0830151602f830155610600830151603083015561062083015160318301556106408301516032830155610660830151603383015561068083015160348301556106a083015160358301556106c0830151603690920180546106e08501516107008601516107208701516107408801516107608901516107808a01516107a08b01516107c0909b015161ffff1990971699151561ff001916999099179415159097029390931763ffff00001916620100009215159290920263ff0000001916919091176301000000911515919091021761ffff60201b19166401000000009115159190910260ff60281b19161765010000000000931515939093029290921761ffff60301b191666010000000000009315159390930260ff60381b191692909217670100000000000000931515939093029290921760ff60401b191668010000000000000000921515929092029190911790555050565b62000d92838362000dfe565b62000da1600084848462000f9f565b62000df95760405162461bcd60e51b8152602060048201526032602482015260008051602062006fc683398151915260448201527131b2b4bb32b91034b6b83632b6b2b73a32b960711b606482015260840162000a0b565b505050565b6001600160a01b03821662000e565760405162461bcd60e51b815260206004820181905260248201527f4552433732313a206d696e7420746f20746865207a65726f2061646472657373604482015260640162000a0b565b6000818152600260205260409020546001600160a01b03161562000ebd5760405162461bcd60e51b815260206004820152601c60248201527f4552433732313a20746f6b656e20616c7265616479206d696e74656400000000604482015260640162000a0b565b62000ecd600083836001620010e7565b6000818152600260205260409020546001600160a01b03161562000f345760405162461bcd60e51b815260206004820152601c60248201527f4552433732313a20746f6b656e20616c7265616479206d696e74656400000000604482015260640162000a0b565b6001600160a01b038216600081815260036020908152604080832080546001019055848352600290915280822080546001600160a01b0319168417905551839291907fddf252ad1be2c89b69c2b068fc378daa952ba7f163c4a11628f55a4df523b3ef908290a45050565b60006001600160a01b0384163b15620010db57604051630a85bd0160e11b81526001600160a01b0385169063150b7a029062000fe6903390899088908890600401620016c2565b6020604051808303816000875af192505050801562001024575060408051601f3d908101601f19168201909252620010219181019062001701565b60015b620010c0573d80801562001055576040519150601f19603f3d011682016040523d82523d6000602084013e6200105a565b606091505b508051600003620010b85760405162461bcd60e51b8152602060048201526032602482015260008051602062006fc683398151915260448201527131b2b4bb32b91034b6b83632b6b2b73a32b960711b606482015260840162000a0b565b805181602001fd5b6001600160e01b031916630a85bd0160e11b149050620010df565b5060015b949350505050565b6001811115620011605760405162461bcd60e51b815260206004820152603560248201527f455243373231456e756d657261626c653a20636f6e736563757469766520747260448201527f616e7366657273206e6f7420737570706f727465640000000000000000000000606482015260840162000a0b565b816001600160a01b038516620011bf57620011b981600880546000838152600960205260408120829055600182018355919091527ff3f7a9fe364faab93b216da50a3214154f22a0a2b415b23a84c8169e8b636ee30155565b620011e5565b836001600160a01b0316856001600160a01b031614620011e557620011e5858262001232565b6001600160a01b0384166200120557620011ff81620012d4565b6200122b565b846001600160a01b0316846001600160a01b0316146200122b576200122b84826200138e565b5050505050565b600060016200124184620013d4565b6200124d919062001621565b600083815260076020526040902054909150808214620012a1576001600160a01b03841660009081526006602090815260408083208584528252808320548484528184208190558352600790915290208190555b5060009182526007602090815260408084208490556001600160a01b039094168352600681528383209183525290812055565b600854600090620012e89060019062001621565b6000838152600960205260408120546008805493945090928490811062001313576200131362001649565b90600052602060002001549050806008838154811062001337576200133762001649565b600091825260208083209091019290925582815260099091526040808220849055858252812055600880548062001372576200137262001734565b6001900381819060005260206000200160009055905550505050565b60006200139b83620013d4565b6001600160a01b039093166000908152600660209081526040808320868452825280832085905593825260079052919091209190915550565b60006001600160a01b038216620014405760405162461bcd60e51b815260206004820152602960248201527f4552433732313a2061646472657373207a65726f206973206e6f7420612076616044820152683634b21037bbb732b960b91b606482015260840162000a0b565b506001600160a01b031660009081526003602052604090205490565b80516001600160a01b03811681146200147457600080fd5b919050565b600080604083850312156200148d57600080fd5b62001498836200145c565b9150620014a8602084016200145c565b90509250929050565b634e487b7160e01b600052604160045260246000fd5b600181811c90821680620014dc57607f821691505b602082108103620014fd57634e487b7160e01b600052602260045260246000fd5b50919050565b601f82111562000df957600081815260208120601f850160051c810160208610156200152c5750805b601f850160051c820191505b818110156200154d5782815560010162001538565b505050505050565b81516001600160401b03811115620015715762001571620014b1565b6200158981620015828454620014c7565b8462001503565b602080601f831160018114620015c15760008415620015a85750858301515b600019600386901b1c1916600185901b1785556200154d565b600085815260208120601f198616915b82811015620015f257888601518255948401946001909101908401620015d1565b5085821015620016115787850151600019600388901b60f8161c191681555b5050505050600190811b01905550565b818103818111156200164357634e487b7160e01b600052601160045260246000fd5b92915050565b634e487b7160e01b600052603260045260246000fd5b6000815180845260005b81811015620016875760208185018101518683018201520162001669565b506000602082860101526020601f19601f83011685010191505092915050565b828152604060208201526000620010df60408301846200165f565b6001600160a01b0385811682528416602082015260408101839052608060608201819052600090620016f7908301846200165f565b9695505050505050565b6000602082840312156200171457600080fd5b81516001600160e01b0319811681146200172d57600080fd5b9392505050565b634e487b7160e01b600052603160045260246000fd5b61586c806200175a6000396000f3fe608060405234801561001057600080fd5b506004361061027f5760003560e01c806370a082311161015c578063c864b1eb116100ce578063e6cb901311610087578063e6cb9013146106d0578063e985e9c5146106e3578063eb36bf9c1461071f578063eceb690214610732578063f108ff2b14610745578063f4d106541461076557600080fd5b8063c864b1eb146105ef578063c87b56dd1461060f578063caf7c44514610622578063ce6019b414610635578063d05c78da14610655578063d0660b371461066857600080fd5b8063a293d1e811610120578063a293d1e8146104d5578063a73135bc146104e8578063b1e5e2b7146104fb578063b88d4fde1461050e578063c29a3c9314610521578063c6d6f6b11461053457600080fd5b806370a0823114610481578063843bd641146104945780638da5cb5b146104a757806395d89b41146104ba578063a22cb465146104c257600080fd5b806340d097c3116101f5578063576cc0f7116101b9578063576cc0f71461040f578063590956cd1461042257806363503447146104355780636352211e14610448578063683c277d1461045b5780636995795b1461046e57600080fd5b806340d097c3146103a357806342842e0e146103b65780634d772a38146103c95780634f6ccce7146103dc578063513c1452146103ef57600080fd5b806318160ddd1161024757806318160ddd146103225780631f4f5a231461032a57806323b872dd1461034a57806324b9c5951461035d5780632f745c591461037d57806332fac8f81461039057600080fd5b806301ffc9a71461028457806303d2e4a1146102ac57806306fdde03146102cd578063081812fc146102e2578063095ea7b31461030d575b600080fd5b6102976102923660046147b7565b610778565b60405190151581526020015b60405180910390f35b6102bf6102ba3660046147d4565b6107a3565b6040519081526020016102a3565b6102d56107d4565b6040516102a39190614846565b6102f56102f0366004614859565b610866565b6040516001600160a01b0390911681526020016102a3565b61032061031b36600461488e565b61088d565b005b6008546102bf565b61033d610338366004614859565b6109a7565b6040516102a39190614b8f565b610320610358366004614ba2565b610d8a565b61032061036b3660046147d4565b60009182526029602052604090912055565b6102bf61038b36600461488e565b610dbb565b61032061039e3660046147d4565b610e51565b6102bf6103b1366004614bde565b610fec565b6103206103c4366004614ba2565b611013565b6102bf6103d736600461502e565b61102e565b6102bf6103ea366004614859565b611512565b6104026103fd36600461488e565b6115a5565b6040516102a39190615063565b61032061041d366004614859565b6116b3565b6103206104303660046150cc565b611752565b6102bf6104433660046147d4565b6117fe565b6102f5610456366004614859565b61181a565b6103206104693660046150cc565b61187a565b61033d61047c366004614859565b611926565b6102bf61048f366004614bde565b6119b2565b6102976104a2366004614859565b611a38565b6024546102f5906001600160a01b031681565b6102d5611a43565b6103206104d0366004615180565b611a52565b6102bf6104e33660046147d4565b611a61565b6102bf6104f636600461502e565b611a84565b6102bf610509366004614859565b611ae8565b61032061051c3660046151b3565b612011565b6102bf61052f3660046147d4565b612049565b61059c610542366004614859565b602a60205280600052604060002060009150905080600001549080600101549080600201549080600301549080600401549080600501549080600601549080600701549080600801549080600901549080600a015490508b565b604080519b8c5260208c019a909a52988a01979097526060890195909552608088019390935260a087019190915260c086015260e0850152610100840152610120830152610140820152610160016102a3565b6102bf6105fd366004614859565b60296020526000908152604090205481565b6102d561061d366004614859565b612065565b6103206106303660046147d4565b6120d8565b610648610643366004614bde565b6121fe565b6040516102a3919061522f565b6102bf6106633660046147d4565b6122a0565b61059c610676366004614859565b602b60205280600052604060002060009150905080600001549080600101549080600201549080600301549080600401549080600501549080600601549080600701549080600801549080600901549080600a015490508b565b6102bf6106de3660046147d4565b6122d0565b6102976106f1366004615273565b6001600160a01b03918216600090815260056020908152604080832093909416825291909152205460ff1690565b61032061072d36600461529d565b6122fa565b6102bf6107403660046152e4565b6126ad565b6102bf610753366004614859565b60009081526029602052604090205490565b6102bf6107733660046147d4565b612cfc565b60006001600160e01b0319821663780e9d6360e01b148061079d575061079d82612d18565b92915050565b602760205281600052604060002081815481106107bf57600080fd5b90600052602060002001600091509150505481565b6060600080546107e390615310565b80601f016020809104026020016040519081016040528092919081815260200182805461080f90615310565b801561085c5780601f106108315761010080835404028352916020019161085c565b820191906000526020600020905b81548152906001019060200180831161083f57829003601f168201915b5050505050905090565b600061087182612d68565b506000908152600460205260409020546001600160a01b031690565b60006108988261181a565b9050806001600160a01b0316836001600160a01b03160361090a5760405162461bcd60e51b815260206004820152602160248201527f4552433732313a20617070726f76616c20746f2063757272656e74206f776e656044820152603960f91b60648201526084015b60405180910390fd5b336001600160a01b0382161480610926575061092681336106f1565b6109985760405162461bcd60e51b815260206004820152603d60248201527f4552433732313a20617070726f76652063616c6c6572206973206e6f7420746f60448201527f6b656e206f776e6572206f7220617070726f76656420666f7220616c6c0000006064820152608401610901565b6109a28383612db8565b505050565b6109af6145ab565b6109b882612e26565b6109fb5760405162461bcd60e51b8152602060048201526014602482015273151bdad95b88191bd95cc81b9bdd08195e1a5cdd60621b6044820152606401610901565b6000828152602c60205260409081902081516107e08101909252805482908290610a2490615310565b80601f0160208091040260200160405190810160405280929190818152602001828054610a5090615310565b8015610a9d5780601f10610a7257610100808354040283529160200191610a9d565b820191906000526020600020905b815481529060010190602001808311610a8057829003601f168201915b50505091835250506001820154602080830191909152600283015460408301526003830154606083015260048301546080830152600583015460a0830152600683015460c0830152600783015460e08301526008830154610100808401919091526009840154610120840152600a840154610140840152600b840154610160840152600c840154610180840152600d8401546101a0840152600e8401546101c0840152600f8401546101e08401526010840154610200840152601184015461022084015260128401546102408401526013840154610260840152601484015461028084015260158401546102a084015260168401546102c084015260178401546102e084015260188401546103008401526019840154610320840152601a840154610340840152601b840154610360840152601c840154610380840152601d8401546103a0840152601e8401546103c0840152601f8401546103e084015290830154610400830152602183015461042083015260228301546104408301526023830154610460830152602483015461048083015260258301546104a083015260268301546104c083015260278301546104e083015260288301546105008301526029830154610520830152602a830154610540830152602b830154610560830152602c830154610580830152602d8301546105a0830152602e8301546105c0830152602f8301546105e08301526030830154610600830152603183015461062083015260328301546106408301526033830154610660830152603483015461068083015260358301546106a083015260369092015460ff80821615156106c0840152928104831615156106e0830152620100008104831615156107008301526301000000810483161515610720830152600160201b810483161515610740830152600160281b810483161515610760830152600160301b810483161515610780830152600160381b8104831615156107a0830152600160401b900490911615156107c09091015292915050565b610d943382612e43565b610db05760405162461bcd60e51b81526004016109019061534a565b6109a2838383612ec2565b6000610dc6836119b2565b8210610e285760405162461bcd60e51b815260206004820152602b60248201527f455243373231456e756d657261626c653a206f776e657220696e646578206f7560448201526a74206f6620626f756e647360a81b6064820152608401610901565b506001600160a01b03919091166000908152600660209081526040808320938352929052205490565b600b54811115610e985760405162461bcd60e51b815260206004820152601260248201527113585e081c1bda5b9d1cc81c995858da195960721b6044820152606401610901565b6000828152602c60205260409020603601546301000000900460ff1680610ed757506000828152602c6020526040902060360154600160201b900460ff165b610f185760405162461bcd60e51b815260206004820152601260248201527113585e081c1bda5b9d1cc81c995858da195960721b6044820152606401610901565b6000828152602c60205260409020603601546301000000900460ff1615610f52576000828152602c60205260409020601301819055610f88565b6000828152602c6020526040902060360154600160201b900460ff1615610f88576000828152602c602052604090206014018190555b6000828152602c6020526040902060138101546014909101547feb0459535a230602900381169fbc16d356c03aaccc2d5579b42d132d65ffa82a918491610fcf91906153ad565b604080519283526020830191909152015b60405180910390a15050565b6000610ffc602e80546001019055565b6000611007602e5490565b905061079d8382613033565b6109a283838360405180602001604052806000815250612011565b602d80546001810182556000918252825183916037027f4a2cc91ee622da3bc833a54c37ffcb6f3ec23b7793efc5eaf5e71b7b406c5c0601908190611073908261540e565b5060208281015160018381019190915560408401516002840155606084015160038401556080840151600484015560a0840151600584015560c0840151600684015560e084015160078401556101008085015160088501556101208501516009850155610140850151600a850155610160850151600b850155610180850151600c8501556101a0850151600d8501556101c0850151600e8501556101e0850151600f850155610200850151601085015561022085015160118501556102408501516012850155610260850151601385015561028085015160148501556102a085015160158501556102c085015160168501556102e0850151601785015561030085015160188501556103208501516019850155610340850151601a850155610360850151601b850155610380850151601c8501556103a0850151601d8501556103c0850151601e8501556103e0850151601f8501556104008501519284019290925561042084015160218401556104408401516022840155610460840151602384015561048084015160248401556104a084015160258401556104c084015160268401556104e0840151602784015561050084015160288401556105208401516029840155610540840151602a840155610560840151602b840155610580840151602c8401556105a0840151602d808501919091556105c0850151602e8501556105e0850151602f850155610600850151603085015561062085015160318501556106408501516032850155610660850151603385015561068085015160348501556106a085015160358501556106c0850151603690940180546106e08701516107008801516107208901516107408a01516107608b01516107808c01516107a08d01516107c0909d015161ffff199097169b151561ff0019169b909b179415159099029390931763ffff00001916620100009215159290920263ff0000001916919091176301000000911515919091021765ffff000000001916600160201b9115159190910265ff0000000000191617600160281b951515959095029490941767ffff0000000000001916600160301b9515159590950260ff60381b191694909417600160381b951515959095029490941760ff60401b1916600160401b921515929092029190911790915590546000916113ce916154ce565b905080602d82815481106113e4576113e46154e1565b90600052602060002090603702016035018190555082610720015115611430576106808301516000908152602560209081526040822080546001810182559083529120018190556114d1565b82610740015115611467576106808301516000908152602660209081526040822080546001810182559083529120018190556114d1565b8261076001511561149e576106808301516000908152602760209081526040822080546001810182559083529120018190556114d1565b826107800151156114d1576106808301516000908152602860209081526040822080546001810182559083529120018190555b82516040517f0538ce8dba67be446d1a480a6e48683b27c6efb61d7c01d60767e15705e5d00f91611504918491906154f7565b60405180910390a192915050565b600061151d60085490565b82106115805760405162461bcd60e51b815260206004820152602c60248201527f455243373231456e756d657261626c653a20676c6f62616c20696e646578206f60448201526b7574206f6620626f756e647360a01b6064820152608401610901565b60088281548110611593576115936154e1565b90600052602060002001549050919050565b606060006115b2846119b2565b905060008167ffffffffffffffff8111156115cf576115cf614bf9565b60405190808252806020026020018201604052801561160857816020015b6115f5614783565b8152602001906001900390816115ed5790505b509050600080805b848110156116a7576116228882610dbb565b6000818152602c6020526040902060320154909350879003611687576040518060400160405280848152602001602c60008681526020019081526020016000206033015481525084838151811061167b5761167b6154e1565b60200260200101819052505b8161169181615510565b925050808061169f90615510565b915050611610565b50919695505050505050565b600181116116fb5760405162461bcd60e51b8152602060048201526015602482015274151bdad95b8818d85b9b9bdd08189948189d5c9b9d605a1b6044820152606401610901565b61170481612e26565b6117465760405162461bcd60e51b8152602060048201526013602482015272151bdad95b88191bd95cdb89dd08195e1a5cdd606a1b6044820152606401610901565b61174f8161304d565b50565b6000828152602b602090815260409182902083518155908301516001820155818301516002820155606083015160038201556080830151600482015560a0830151600582015560c0830151600682015560e0830151600782015561010083015160088201556101208301516009820155610140830151600a90910155517f38ba25a70ea7fc2424eb4bb439184f5c089930d5f9e2b0fb1da7bc6302717a3f90610fe09084908490615529565b602660205281600052604060002081815481106107bf57600080fd5b6000818152600260205260408120546001600160a01b03168061079d5760405162461bcd60e51b8152602060048201526018602482015277115490cdcc8c4e881a5b9d985b1a59081d1bdad95b88125160421b6044820152606401610901565b6000828152602a602090815260409182902083518155908301516001820155818301516002820155606083015160038201556080830151600482015560a0830151600582015560c0830151600682015560e0830151600782015561010083015160088201556101208301516009820155610140830151600a90910155517f888ff831b3adb1b32886789f0933b0a05ec1c94ee21c8989f11f236ab465e86e90610fe09084908490615529565b61192e6145ab565b602d5482106119755760405162461bcd60e51b8152602060048201526013602482015272125d195b48191bd95cc81b9bdd08195e1a5cdd606a1b6044820152606401610901565b602d8281548110611988576119886154e1565b9060005260206000209060370201604051806107e0016040529081600082018054610a2490615310565b60006001600160a01b038216611a1c5760405162461bcd60e51b815260206004820152602960248201527f4552433732313a2061646472657373207a65726f206973206e6f7420612076616044820152683634b21037bbb732b960b91b6064820152608401610901565b506001600160a01b031660009081526003602052604090205490565b600061079d82612e26565b6060600180546107e390615310565b611a5d3383836130f0565b5050565b600082821115611a7357611a736155b6565b611a7d82846154ce565b9392505050565b60008082600143604051602001611a9d939291906155cc565b60408051601f198184030181528282528051602091820120600081815260299092529181206001908190559193506000805160206158178339815191529261150492859288926155f4565b6000611af382612e26565b611b355760405162461bcd60e51b8152602060048201526013602482015272151bdad95b88191bd95cdb89dd08195e1a5cdd606a1b6044820152606401610901565b6000828152602c602052604080822081516107e08101909252805482908290611b5d90615310565b80601f0160208091040260200160405190810160405280929190818152602001828054611b8990615310565b8015611bd65780601f10611bab57610100808354040283529160200191611bd6565b820191906000526020600020905b815481529060010190602001808311611bb957829003601f168201915b50505050508152602001600182015481526020016002820154815260200160038201548152602001600482015481526020016005820154815260200160068201548152602001600782015481526020016008820154815260200160098201548152602001600a8201548152602001600b8201548152602001600c8201548152602001600d8201548152602001600e8201548152602001600f820154815260200160108201548152602001601182015481526020016012820154815260200160138201548152602001601482015481526020016015820154815260200160168201548152602001601782015481526020016018820154815260200160198201548152602001601a8201548152602001601b8201548152602001601c8201548152602001601d8201548152602001601e8201548152602001601f820154815260200160208201548152602001602182015481526020016022820154815260200160238201548152602001602482015481526020016025820154815260200160268201548152602001602782015481526020016028820154815260200160298201548152602001602a8201548152602001602b8201548152602001602c8201548152602001602d8201548152602001602e8201548152602001602f82015481526020016030820154815260200160318201548152602001603282015481526020016033820154815260200160348201548152602001603582015481526020016036820160009054906101000a900460ff161515151581526020016036820160019054906101000a900460ff161515151581526020016036820160029054906101000a900460ff161515151581526020016036820160039054906101000a900460ff161515151581526020016036820160049054906101000a900460ff161515151581526020016036820160059054906101000a900460ff161515151581526020016036820160069054906101000a900460ff161515151581526020016036820160079054906101000a900460ff161515151581526020016036820160089054906101000a900460ff16151515158152505090506000602b600083610680015181526020019081526020016000206040518061016001604052908160008201548152602001600182015481526020016002820154815260200160038201548152602001600482015481526020016005820154815260200160068201548152602001600782015481526020016008820154815260200160098201548152602001600a8201548152505090506000611f8d836106800151836131be565b90506000600190506000828243604051602001611fac93929190615620565b60408051601f1981840301815282825280516020918201206000818152602990925291812085905590925060008051602061581783398151915291611ff6918491879187916155f4565b60405180910390a16120078761304d565b5050505050919050565b61201b3383612e43565b6120375760405162461bcd60e51b81526004016109019061534a565b612043848484846139dc565b50505050565b602860205281600052604060002081815481106107bf57600080fd5b606061207082612d68565b600061208760408051602081019091526000815290565b905060008151116120a75760405180602001604052806000815250611a7d565b806120b184613a0f565b6040516020016120c2929190615645565b6040516020818303038152906040529392505050565b6000828152602c60205260409020600301548111156121325760405162461bcd60e51b815260206004820152601660248201527513585e081a5d195b481b195d995b081c995858da195960521b6044820152606401610901565b6000828152602c602052604090206002015461214f9060016153ad565b8111156121b35760405162461bcd60e51b815260206004820152602c60248201527f4974656d2063616e2062652075706772616465206f6e65206c6576656c20617460448201526b20612074696d65206f6e6c7960a01b6064820152608401610901565b6000828152602c602090815260409182902060020183905581518481529081018390527f535fb4315d70f1b2d62609c85f8b9cd714e3687d6cee1a46ff7947f852bf71649101610fe0565b6060600061220b836119b2565b905060008167ffffffffffffffff81111561222857612228614bf9565b604051908082528060200260200182016040528015612251578160200160208202803683370190505b50905060005b82811015612298576122698582610dbb565b82828151811061227b5761227b6154e1565b60209081029190910101528061229081615510565b915050612257565b509392505050565b6000806122ad8385615674565b90508315806122c45750826122c285836156a1565b145b611a7d57611a7d6155b6565b6000806122dd83856153ad565b90508381101580156122c4575082811015611a7d57611a7d6155b6565b61230382612e26565b6123465760405162461bcd60e51b8152602060048201526014602482015273151bdad95b88191bd95cc81b9bdd08195e1a5cdd60621b6044820152606401610901565b6000828152602c6020526040902081518291908190612365908261540e565b50602082810151600183015560408301516002830155606083015160038301556080830151600483015560a0830151600583015560c0830151600683015560e083015160078301556101008084015160088401556101208401516009840155610140840151600a840155610160840151600b840155610180840151600c8401556101a0840151600d8401556101c0840151600e8401556101e0840151600f840155610200840151601084015561022084015160118401556102408401516012840155610260840151601384015561028084015160148401556102a084015160158401556102c084015160168401556102e0840151601784015561030084015160188401556103208401516019840155610340840151601a840155610360840151601b840155610380840151601c8401556103a0840151601d8401556103c0840151601e8401556103e0840151601f8401556104008401519183019190915561042083015160218301556104408301516022830155610460830151602383015561048083015160248301556104a083015160258301556104c083015160268301556104e0830151602783015561050083015160288301556105208301516029830155610540830151602a830155610560830151602b830155610580830151602c8301556105a0830151602d8301556105c0830151602e8301556105e0830151602f830155610600830151603083015561062083015160318301556106408301516032830155610660830151603383015561068083015160348301556106a083015160358301556106c0830151603690920180546106e08501516107008601516107208701516107408801516107608901516107808a01516107a08b01516107c0909b015161ffff1990971699151561ff001916999099179415159097029390931763ffff00001916620100009215159290920263ff0000001916919091176301000000911515919091021765ffff000000001916600160201b9115159190910265ff0000000000191617600160281b931515939093029290921767ffff0000000000001916600160301b9315159390930260ff60381b191692909217600160381b931515939093029290921760ff60401b1916600160401b921515929092029190911790555050565b6000838152602a60209081526040808320815161016081018352815481526001820154938101939093526002810154918301919091526003810154606083015260048101546080830152600581015460a0830152600681015460c0830152600781015460e083015260088101546101008301526009810154610120830152600a0154610140820181905261278e5760405162461bcd60e51b815260206004820152602260248201527f4e6f2064726f7020706172616d657465727320666f72207261726974794c6576604482015261195b60f21b6064820152608401610901565b600083116127de5760405162461bcd60e51b815260206004820152601b60248201527f457870657269656e6365206d757374206265206e6f6e207a65726f00000000006044820152606401610901565b60006127ea86836131be565b905060006127f860c8613aa2565b600a54909150600190821115612beb57602d60018154811061281c5761281c6154e1565b9060005260206000209060370201604051806107e001604052908160008201805461284690615310565b80601f016020809104026020016040519081016040528092919081815260200182805461287290615310565b80156128bf5780601f10612894576101008083540402835291602001916128bf565b820191906000526020600020905b8154815290600101906020018083116128a257829003601f168201915b5050509183525050600182015460208083019190915260028301546040808401919091526003840154606084015260048401546080840152600584015460a0840152600684015460c0840152600784015460e08401526008840154610100808501919091526009850154610120850152600a850154610140850152600b850154610160850152600c850154610180850152600d8501546101a0850152600e8501546101c0850152600f8501546101e0850152601085015461020085015260118501546102208501526012808601546102408601526013860154610260860152601486015461028086015260158601546102a086015260168601546102c086015260178601546102e086015260188601546103008601526019860154610320860152601a860154610340860152601b860154610360860152601c860154610380860152601d8601546103a0860152601e8601546103c0860152601f8601546103e086015292850154610400850152602185015461042085015260228501546104408501526023850154610460850152602485015461048085015260258501546104a085015260268501546104c085015260278501546104e085015260288501546105008501526029850154610520850152602a850154610540850152602b850154610560850152602c850154610580850152602d8501546105a0850152602e8501546105c0850152602f8501546105e08501526030850154610600850152603185015461062085015260328501546106408501526033850154610660850152603485015461068085015260358501546106a085015260369094015460ff80821615156106c0860152948104851615156106e0850152620100008104851615156107008501526301000000810485161515610720850152600160201b810485161515610740850152600160281b810485161515610760850152600160301b810485161515610780850152600160381b8104851615156107a0850152600160401b900490931615156107c09092019190915254905191945060008051602061581783398151915291612bd59190869060009081906155f4565b60405180910390a15060009350611a7d92505050565b601154836106a0015103612c8757612c846001602360009054906101000a90046001600160a01b03166001600160a01b0316631e56dc2c6040518163ffffffff1660e01b8152600401602060405180830381865afa158015612c51573d6000803e3d6000fd5b505050506040513d601f19601f82011682018060405250810190612c7591906156b5565b612c7f90896156a1565b613ae3565b90505b6000838243604051602001612c9e93929190615620565b60408051601f1981840301815282825280516020918201206000818152602990925291812085905590925060008051602061581783398151915291612ce8918491889187916155f4565b60405180910390a198975050505050505050565b602560205281600052604060002081815481106107bf57600080fd5b60006001600160e01b031982166380ac58cd60e01b1480612d4957506001600160e01b03198216635b5e139f60e01b145b8061079d57506301ffc9a760e01b6001600160e01b031983161461079d565b612d7181612e26565b61174f5760405162461bcd60e51b8152602060048201526018602482015277115490cdcc8c4e881a5b9d985b1a59081d1bdad95b88125160421b6044820152606401610901565b600081815260046020526040902080546001600160a01b0319166001600160a01b0384169081179091558190612ded8261181a565b6001600160a01b03167f8c5be1e5ebec7d5bd14f71427d1e84f3dd0314c0f7b2291e5b200ac8c7c3b92560405160405180910390a45050565b6000908152600260205260409020546001600160a01b0316151590565b600080612e4f8361181a565b9050806001600160a01b0316846001600160a01b03161480612e9657506001600160a01b0380821660009081526005602090815260408083209388168352929052205460ff165b80612eba5750836001600160a01b0316612eaf84610866565b6001600160a01b0316145b949350505050565b826001600160a01b0316612ed58261181a565b6001600160a01b031614612efb5760405162461bcd60e51b8152600401610901906156ce565b6001600160a01b038216612f5d5760405162461bcd60e51b8152602060048201526024808201527f4552433732313a207472616e7366657220746f20746865207a65726f206164646044820152637265737360e01b6064820152608401610901565b612f6a8383836001613af9565b826001600160a01b0316612f7d8261181a565b6001600160a01b031614612fa35760405162461bcd60e51b8152600401610901906156ce565b600081815260046020908152604080832080546001600160a01b03199081169091556001600160a01b0387811680865260038552838620805460001901905590871680865283862080546001019055868652600290945282852080549092168417909155905184937fddf252ad1be2c89b69c2b068fc378daa952ba7f163c4a11628f55a4df523b3ef91a4505050565b611a5d828260405180602001604052806000815250613c2d565b60006130588261181a565b9050613068816000846001613af9565b6130718261181a565b600083815260046020908152604080832080546001600160a01b03199081169091556001600160a01b0385168085526003845282852080546000190190558785526002909352818420805490911690555192935084927fddf252ad1be2c89b69c2b068fc378daa952ba7f163c4a11628f55a4df523b3ef908390a45050565b816001600160a01b0316836001600160a01b0316036131515760405162461bcd60e51b815260206004820152601960248201527f4552433732313a20617070726f766520746f2063616c6c6572000000000000006044820152606401610901565b6001600160a01b03838116600081815260056020908152604080832094871680845294825291829020805460ff191686151590811790915591519182527f17307eab39ab6107e8899845ad3d59bd9653f200f220920489ca2b5937696c31910160405180910390a3505050565b6131c66145ab565b60006131d460006064613c60565b60408401519091506000908083101561325a5761325360646027600089815260200190815260200160002080548060200260200160405190810160405280929190818152602001828054801561324957602002820191906000526020600020905b815481526020019060010190808311613235575b5050505050613ca0565b915061340a565b602085015161326990826153ad565b9050808310156132dd576132536065602660008981526020019081526020016000208054806020026020016040519081016040528092919081815260200182805480156132495760200282019190600052602060002090815481526020019060010190808311613235575050505050613ca0565b84516132e990826153ad565b90508083101561335d576132536066602560008981526020019081526020016000208054806020026020016040519081016040528092919081815260200182805480156132495760200282019190600052602060002090815481526020019060010190808311613235575050505050613ca0565b606085015161336c90826153ad565b9050808310156133e0576132536067602860008981526020019081526020016000208054806020026020016040519081016040528092919081815260200182805480156132495760200282019190600052602060002090815481526020019060010190808311613235575050505050613ca0565b60808501516133ef90826153ad565b905080831015613405578460c00151915061340a565b600191505b6000602d838154811061341f5761341f6154e1565b9060005260206000209060370201604051806107e001604052908160008201805461344990615310565b80601f016020809104026020016040519081016040528092919081815260200182805461347590615310565b80156134c25780601f10613497576101008083540402835291602001916134c2565b820191906000526020600020905b8154815290600101906020018083116134a557829003601f168201915b50505091835250506001820154602080830191909152600283015460408301526003830154606083015260048301546080830152600583015460a0830152600683015460c0830152600783015460e08301526008830154610100808401919091526009840154610120840152600a840154610140840152600b840154610160840152600c840154610180840152600d8401546101a0840152600e8401546101c0840152600f8401546101e08401526010840154610200840152601184015461022084015260128401546102408401526013840154610260840152601484015461028084015260158401546102a084015260168401546102c084015260178401546102e084015260188401546103008401526019840154610320840152601a840154610340840152601b840154610360840152601c840154610380840152601d8401546103a0840152601e8401546103c0840152601f8401546103e084015290830154610400830152602183015461042083015260228301546104408301526023830154610460830152602483015461048083015260258301546104a083015260268301546104c083015260278301546104e083015260288301546105008301526029830154610520830152602a830154610540830152602b830154610560830152602c830154610580830152602d8301546105a0830152602e8301546105c0830152602f8301546105e08301526030830154610600830152603183015461062083015260328301546106408301526033830154610660830152603483015461068083015260358301546106a08084019190915260369093015460ff80821615156106c0850152918104821615156106e0840152620100008104821615156107008401526301000000810482161515610720840152600160201b810482161515610740840152600160281b81048216151561076080850191909152600160301b820483161515610780850152600160381b8204831615156107a0850152600160401b90910490911615156107c0909201919091529082018590528101519091501580156137d15750806107800151155b80156137e05750806107000151155b80156137f75750600e546137f46001613aa2565b11155b80156138095750806106a00151600114155b801561381b5750806106a00151600214155b156138295760016106c08201525b80610720015180156138465750600f546138436002613aa2565b11155b156138545760016106e08201525b8061070001511561386b5760408101879052613992565b8061078001511580156138815750806107600151155b80156138935750806106a00151600114155b80156138a55750806106a00151600214155b15613992578560e001518661010001516138bf91906154ce565b6138ca9060016153ad565b6138d46004613aa2565b6138de9190615713565b8660e001516138ed91906153ad565b60408201526107208101511561394457600486610120015161390f91906156a1565b61391a9060016153ad565b6139246005613aa2565b61392e9190615713565b613939906004615674565b610260820152613992565b8061074001511561399257600486610120015161396191906156a1565b61396c9060016153ad565b6139766005613aa2565b6139809190615713565b61398b906004615674565b6102808201525b806107200151806139a557508061074001515b80156139c157508560a001516139be60036103e8613c60565b11155b156139d2576139cf81613cde565b90505b9695505050505050565b6139e7848484612ec2565b6139f384848484613d68565b6120435760405162461bcd60e51b815260040161090190615727565b60606000613a1c83613e69565b600101905060008167ffffffffffffffff811115613a3c57613a3c614bf9565b6040519080825280601f01601f191660200182016040528015613a66576020820181803683370190505b5090508181016020015b600019016f181899199a1a9b1b9c1cb0b131b232b360811b600a86061a8153600a8504945084613a7057509392505050565b6000804483434233604051602001613abe959493929190615779565b60408051601f1981840301815291905280516020909101209050611a7d606482615713565b6000818311613af25781611a7d565b5090919050565b6001811115613b685760405162461bcd60e51b815260206004820152603560248201527f455243373231456e756d657261626c653a20636f6e7365637574697665207472604482015274185b9cd9995c9cc81b9bdd081cdd5c1c1bdc9d1959605a1b6064820152608401610901565b816001600160a01b038516613bc457613bbf81600880546000838152600960205260408120829055600182018355919091527ff3f7a9fe364faab93b216da50a3214154f22a0a2b415b23a84c8169e8b636ee30155565b613be7565b836001600160a01b0316856001600160a01b031614613be757613be78582613f41565b6001600160a01b038416613c0357613bfe81613fde565b613c26565b846001600160a01b0316846001600160a01b031614613c2657613c26848261408d565b5050505050565b613c3783836140d1565b613c446000848484613d68565b6109a25760405162461bcd60e51b815260040161090190615727565b6000804484434233604051602001613c7c959493929190615779565b60408051601f1981840301815291905280516020909101209050612eba8382615713565b600080613cac84613aa2565b835190915083613cbc8284615713565b81518110613ccc57613ccc6154e1565b60200260200101519250505092915050565b613ce66145ab565b6000604083015261072082015115613d325760016106e0830152613d0b82600b61424c565b601854909250613d1b600c613aa2565b11613d2e57613d2b82600d61424c565b91505b5090565b81610740015115613d2e57613d4882600e614366565b602154909250613d58600f613aa2565b11613d2e57613d2b826010614366565b60006001600160a01b0384163b15613e5e57604051630a85bd0160e11b81526001600160a01b0385169063150b7a0290613dac9033908990889088906004016157b0565b6020604051808303816000875af1925050508015613de7575060408051601f3d908101601f19168201909252613de4918101906157e3565b60015b613e44573d808015613e15576040519150601f19603f3d011682016040523d82523d6000602084013e613e1a565b606091505b508051600003613e3c5760405162461bcd60e51b815260040161090190615727565b805181602001fd5b6001600160e01b031916630a85bd0160e11b149050612eba565b506001949350505050565b60008072184f03e93ff9f4daa797ed6e38ed64bf6a1f0160401b8310613ea85772184f03e93ff9f4daa797ed6e38ed64bf6a1f0160401b830492506040015b6d04ee2d6d415b85acef81000000008310613ed4576d04ee2d6d415b85acef8100000000830492506020015b662386f26fc100008310613ef257662386f26fc10000830492506010015b6305f5e1008310613f0a576305f5e100830492506008015b6127108310613f1e57612710830492506004015b60648310613f30576064830492506002015b600a831061079d5760010192915050565b60006001613f4e846119b2565b613f5891906154ce565b600083815260076020526040902054909150808214613fab576001600160a01b03841660009081526006602090815260408083208584528252808320548484528184208190558352600790915290208190555b5060009182526007602090815260408084208490556001600160a01b039094168352600681528383209183525290812055565b600854600090613ff0906001906154ce565b60008381526009602052604081205460088054939450909284908110614018576140186154e1565b906000526020600020015490508060088381548110614039576140396154e1565b600091825260208083209091019290925582815260099091526040808220849055858252812055600880548061407157614071615800565b6001900381819060005260206000200160009055905550505050565b6000614098836119b2565b6001600160a01b039093166000908152600660209081526040808320868452825280832085905593825260079052919091209190915550565b6001600160a01b0382166141275760405162461bcd60e51b815260206004820181905260248201527f4552433732313a206d696e7420746f20746865207a65726f20616464726573736044820152606401610901565b61413081612e26565b1561417d5760405162461bcd60e51b815260206004820152601c60248201527f4552433732313a20746f6b656e20616c7265616479206d696e746564000000006044820152606401610901565b61418b600083836001613af9565b61419481612e26565b156141e15760405162461bcd60e51b815260206004820152601c60248201527f4552433732313a20746f6b656e20616c7265616479206d696e746564000000006044820152606401610901565b6001600160a01b038216600081815260036020908152604080832080546001019055848352600290915280822080546001600160a01b0319168417905551839291907fddf252ad1be2c89b69c2b068fc378daa952ba7f163c4a11628f55a4df523b3ef908290a45050565b6142546145ab565b600061425f83613aa2565b60175460165460155460145460135494955060009461427e91906153ad565b61428891906153ad565b61429291906153ad565b61429c91906153ad565b905060006142aa8284615713565b60135490915081116142c357600161030087015261435c565b6014546013546142d391906153ad565b81116142e657600161032087015261435c565b6015546014546013546142f991906153ad565b61430391906153ad565b811161431657600161038087015261435c565b60165460155460145460135461432c91906153ad565b61433691906153ad565b61434091906153ad565b811161435357600161062087015261435c565b60016102c08701525b5093949350505050565b61436e6145ab565b600061437983613aa2565b602054601f54601e54601d54601c54601b54601a546019549798506000976143a191906153ad565b6143ab91906153ad565b6143b591906153ad565b6143bf91906153ad565b6143c991906153ad565b6143d391906153ad565b6143dd91906153ad565b905060006143eb8284615713565b60195490915081116144045760016102e087015261435c565b601a5460195461441491906153ad565b811161442757600161034087015261435c565b601b54601a5460195461443a91906153ad565b61444491906153ad565b81116144575760016103c087015261435c565b601c54601b54601a5460195461446d91906153ad565b61447791906153ad565b61448191906153ad565b81116144945760016103e087015261435c565b601d54601c54601b54601a546019546144ad91906153ad565b6144b791906153ad565b6144c191906153ad565b6144cb91906153ad565b81116144de57600161040087015261435c565b601e54601d54601c54601b54601a546019546144fa91906153ad565b61450491906153ad565b61450e91906153ad565b61451891906153ad565b61452291906153ad565b811161453557600161050087015261435c565b601f54601e54601d54601c54601b54601a5460195461455491906153ad565b61455e91906153ad565b61456891906153ad565b61457291906153ad565b61457c91906153ad565b61458691906153ad565b811161459957600161052087015261435c565b505060016104e0850152509192915050565b604051806107e001604052806060815260200160008152602001600081526020016000815260200160008152602001600081526020016000815260200160008152602001600081526020016000815260200160008152602001600081526020016000815260200160008152602001600081526020016000815260200160008152602001600081526020016000815260200160008152602001600081526020016000815260200160008152602001600081526020016000815260200160008152602001600081526020016000815260200160008152602001600081526020016000815260200160008152602001600081526020016000815260200160008152602001600081526020016000815260200160008152602001600081526020016000815260200160008152602001600081526020016000815260200160008152602001600081526020016000815260200160008152602001600081526020016000815260200160008152602001600081526020016000815260200160008152602001600081526020016000151581526020016000151581526020016000151581526020016000151581526020016000151581526020016000151581526020016000151581526020016000151581526020016000151581525090565b60405180604001604052806002906020820280368337509192915050565b6001600160e01b03198116811461174f57600080fd5b6000602082840312156147c957600080fd5b8135611a7d816147a1565b600080604083850312156147e757600080fd5b50508035926020909101359150565b60005b838110156148115781810151838201526020016147f9565b50506000910152565b600081518084526148328160208601602086016147f6565b601f01601f19169290920160200192915050565b602081526000611a7d602083018461481a565b60006020828403121561486b57600080fd5b5035919050565b80356001600160a01b038116811461488957600080fd5b919050565b600080604083850312156148a157600080fd5b6148aa83614872565b946020939093013593505050565b60006107e082518185526148ce8286018261481a565b6020858101519087015260408086015190870152606080860151908701526080808601519087015260a0808601519087015260c0808601519087015260e08086015190870152610100808601519087015261012080860151908701526101408086015190870152610160808601519087015261018080860151908701526101a080860151908701526101c080860151908701526101e08086015190870152610200808601519087015261022080860151908701526102408086015190870152610260808601519087015261028080860151908701526102a080860151908701526102c080860151908701526102e08086015190870152610300808601519087015261032080860151908701526103408086015190870152610360808601519087015261038080860151908701526103a080860151908701526103c080860151908701526103e08086015190870152610400808601519087015261042080860151908701526104408086015190870152610460808601519087015261048080860151908701526104a080860151908701526104c080860151908701526104e08086015190870152610500808601519087015261052080860151908701526105408086015190870152610560808601519087015261058080860151908701526105a080860151908701526105c080860151908701526105e08086015190870152610600808601519087015261062080860151908701526106408086015190870152610660808601519087015261068080860151908701526106a080860151908701526106c0808601511515908701526106e08086015115159087015261070080860151151590870152610720808601511515908701526107408086015115159087015261076080860151151590870152610780808601511515908701526107a0808601511515908701526107c09485015115159490950193909352509192915050565b602081526000611a7d60208301846148b8565b600080600060608486031215614bb757600080fd5b614bc084614872565b9250614bce60208501614872565b9150604084013590509250925092565b600060208284031215614bf057600080fd5b611a7d82614872565b634e487b7160e01b600052604160045260246000fd5b6040516107e0810167ffffffffffffffff81118282101715614c3357614c33614bf9565b60405290565b604051610160810167ffffffffffffffff81118282101715614c3357614c33614bf9565b600067ffffffffffffffff80841115614c7857614c78614bf9565b604051601f8501601f19908116603f01168101908282118183101715614ca057614ca0614bf9565b81604052809350858152868686011115614cb957600080fd5b858560208301376000602087830101525050509392505050565b600082601f830112614ce457600080fd5b611a7d83833560208501614c5d565b8035801515811461488957600080fd5b60006107e08284031215614d1657600080fd5b614d1e614c0f565b9050813567ffffffffffffffff811115614d3757600080fd5b614d4384828501614cd3565b8252506020828101359082015260408083013590820152606080830135908201526080808301359082015260a0808301359082015260c0808301359082015260e08083013590820152610100808301359082015261012080830135908201526101408083013590820152610160808301359082015261018080830135908201526101a080830135908201526101c080830135908201526101e08083013590820152610200808301359082015261022080830135908201526102408083013590820152610260808301359082015261028080830135908201526102a080830135908201526102c080830135908201526102e08083013590820152610300808301359082015261032080830135908201526103408083013590820152610360808301359082015261038080830135908201526103a080830135908201526103c080830135908201526103e08083013590820152610400808301359082015261042080830135908201526104408083013590820152610460808301359082015261048080830135908201526104a080830135908201526104c080830135908201526104e08083013590820152610500808301359082015261052080830135908201526105408083013590820152610560808301359082015261058080830135908201526105a080830135908201526105c080830135908201526105e08083013590820152610600808301359082015261062080830135908201526106408083013590820152610660808301359082015261068080830135908201526106a080830135908201526106c0614f94818401614cf3565b908201526106e0614fa6838201614cf3565b90820152610700614fb8838201614cf3565b90820152610720614fca838201614cf3565b90820152610740614fdc838201614cf3565b90820152610760614fee838201614cf3565b90820152610780615000838201614cf3565b908201526107a0615012838201614cf3565b908201526107c0615024838201614cf3565b9082015292915050565b60006020828403121561504057600080fd5b813567ffffffffffffffff81111561505757600080fd5b612eba84828501614d03565b60208082528251828201819052600091906040908185019086840185805b838110156150be57825185835b60028110156150ab5782518252918901919089019060010161508e565b5050509385019391860191600101615081565b509298975050505050505050565b6000808284036101808112156150e157600080fd5b8335925061016080601f19830112156150f957600080fd5b615101614c39565b91506020850135825260408501356020830152606085013560408301526080850135606083015260a0850135608083015260c085013560a083015260e085013560c08301526101008086013560e08401526101208087013582850152610140915081870135818501525081860135818401525050809150509250929050565b6000806040838503121561519357600080fd5b61519c83614872565b91506151aa60208401614cf3565b90509250929050565b600080600080608085870312156151c957600080fd5b6151d285614872565b93506151e060208601614872565b925060408501359150606085013567ffffffffffffffff81111561520357600080fd5b8501601f8101871361521457600080fd5b61522387823560208401614c5d565b91505092959194509250565b6020808252825182820181905260009190848201906040850190845b818110156152675783518352928401929184019160010161524b565b50909695505050505050565b6000806040838503121561528657600080fd5b61528f83614872565b91506151aa60208401614872565b600080604083850312156152b057600080fd5b82359150602083013567ffffffffffffffff8111156152ce57600080fd5b6152da85828601614d03565b9150509250929050565b6000806000606084860312156152f957600080fd5b505081359360208301359350604090920135919050565b600181811c9082168061532457607f821691505b60208210810361534457634e487b7160e01b600052602260045260246000fd5b50919050565b6020808252602d908201527f4552433732313a2063616c6c6572206973206e6f7420746f6b656e206f776e6560408201526c1c881bdc88185c1c1c9bdd9959609a1b606082015260800190565b634e487b7160e01b600052601160045260246000fd5b8082018082111561079d5761079d615397565b601f8211156109a257600081815260208120601f850160051c810160208610156153e75750805b601f850160051c820191505b81811015615406578281556001016153f3565b505050505050565b815167ffffffffffffffff81111561542857615428614bf9565b61543c816154368454615310565b846153c0565b602080601f83116001811461547157600084156154595750858301515b600019600386901b1c1916600185901b178555615406565b600085815260208120601f198616915b828110156154a057888601518255948401946001909101908401615481565b50858210156154be5787850151600019600388901b60f8161c191681555b5050505050600190811b01905550565b8181038181111561079d5761079d615397565b634e487b7160e01b600052603260045260246000fd5b828152604060208201526000612eba604083018461481a565b60006001820161552257615522615397565b5060010190565b60006101808201905083825282516020830152602083015160408301526040830151606083015260608301516080830152608083015160a083015260a083015160c083015260c083015160e083015260e083015161010081818501528085015191505061012081818501528085015191505061014081818501528085015161016085015250509392505050565b634e487b7160e01b600052600160045260246000fd5b6060815260006155df60608301866148b8565b60ff9490941660208301525060400152919050565b84815260806020820152600061560d60808301866148b8565b6040830194909452506060015292915050565b60608152600061563360608301866148b8565b60208301949094525060400152919050565b600083516156578184602088016147f6565b83519083019061566b8183602088016147f6565b01949350505050565b808202811582820484141761079d5761079d615397565b634e487b7160e01b600052601260045260246000fd5b6000826156b0576156b061568b565b500490565b6000602082840312156156c757600080fd5b5051919050565b60208082526025908201527f4552433732313a207472616e736665722066726f6d20696e636f72726563742060408201526437bbb732b960d91b606082015260800190565b6000826157225761572261568b565b500690565b60208082526032908201527f4552433732313a207472616e7366657220746f206e6f6e20455243373231526560408201527131b2b4bb32b91034b6b83632b6b2b73a32b960711b606082015260800190565b948552602085019390935260408401919091526060808401919091521b6bffffffffffffffffffffffff1916608082015260940190565b6001600160a01b03858116825284166020820152604081018390526080606082018190526000906139d29083018461481a565b6000602082840312156157f557600080fd5b8151611a7d816147a1565b634e487b7160e01b600052603160045260246000fdfe3841c361cdf7d0e32f11fba3546430edc33df0af2ee8a7eaa09af95428fe784ba26469706673582212202bcd0ff4f5851c1194947304ca15540bd947541f05a47caaefdb3d8fd8cf9c5d64736f6c634300081300334552433732313a207472616e7366657220746f206e6f6e204552433732315265",
  "immutableReferences": {},
  "source": "// SPDX-License-Identifier: MIT\npragma solidity ^0.8.18;\n\nimport \"@openzeppelin/contracts/token/ERC721/ERC721.sol\";\nimport \"@openzeppelin/contracts/token/ERC721/extensions/ERC721Enumerable.sol\";\nimport \"@openzeppelin/contracts/utils/Counters.sol\";\n\nimport \"truffle/Console.sol\";\nimport \"./ExcellentItems.sol\";\nimport \"./FighterHelper.sol\";\nimport \"./MoneyHelper.sol\";\n\ncontract Items is ERC721Enumerable, ExcellentItems {\n    using Counters for Counters.Counter;\n    FighterHelper private _fighterHelper;\n    MoneyHelper private _moneyHelper;\n\n    address public owner;\n\n    constructor(address fighterHelperContract, address moneyHelperContract) ERC721(\"MRIUSD\", \"Item\") {\n        owner = msg.sender;\n        _fighterHelper = FighterHelper(fighterHelperContract);  \n        _moneyHelper = MoneyHelper(moneyHelperContract);\n\n        // create empty item\n        ItemAttributes memory emptyAtts;\n        emptyAtts.name = \"Empty item\";\n        createItem(emptyAtts);\n        generateInitialTokens(emptyAtts);\n\n        // create item for gold\n        emptyAtts.name = \"Gold\";\n        createItem(emptyAtts);\n        generateInitialTokens(emptyAtts);\n    }\n\n\n    mapping (uint256 => uint256[]) public Weapons; // mapping of rarityLevel => tokenId[]\n    mapping (uint256 => uint256[]) public Armours; // mapping of rarityLevel => tokenId[]\n    mapping (uint256 => uint256[]) public Jewels; // mapping of rarityLevel => tokenId[]\n    mapping (uint256 => uint256[]) public Misc; // mapping of rarityLevel => tokenId[]\n\n    mapping (bytes32 => uint256) public dropHashes;\n\n\n\n    struct DropParams {\n        uint256 weaponsDropRate;\n        uint256 armoursDropRate;\n        uint256 jewelsDropRate;\n        uint256 miscDropRate;\n        uint256 boxDropRate;\n\n        uint256 excDropRate;\n        uint256 boxId;\n\n        uint256 minItemLevel;\n        uint256 maxItemLevel;\n        uint256 maxAddPoints;\n\n        uint256 blockCrated;\n    }\n\n    mapping (uint256 => DropParams) public DropParamsList; // mapping of rarityLevels to drop parameters\n    mapping (uint256 => DropParams) public BoxDropPramsList; // mapping of rarityLevels to drop parameters\n\n    event ItemGenerated(uint256 itemId, string name);\n    event LogError(uint8, uint256);\n    event DropParametersChange(uint256 rarityLevel, DropParams params);\n    event BoxDropParametersChange(uint256 rarityLevel, DropParams params);\n    \n    event ItemCrafted(uint256 tokenId, address owner);\n    event BoxOppened(uint256 tokenId, uint256 rarityLevel, address owner);\n    event ItemBoughtFromShop(uint256 tokenId, uint256 itemId, address owner, string itemName);\n\n    event ItemLevelUpgrade(uint256 tokenId, uint256 newLevel);\n    event ItemAddPointsUpdate(uint256 tokenId, uint256 newAddPoints);\n\n    event ItemDropped(bytes32 itemHash, ItemAttributes item, uint256 qty, uint256 tokenId);\n    event ItemPicked(uint256 tokenId, uint256 fighterId, uint256 qty);\n\n    function setAdditionalPoints(uint256 tokenId, uint256 points) external {\n        require(points <= maxAdditionalPoints, \"Max points reached\");\n        require(_tokenAttributes[tokenId].isWeapon || _tokenAttributes[tokenId].isArmour, \"Max points reached\");\n        if (_tokenAttributes[tokenId].isWeapon) {\n            _tokenAttributes[tokenId].additionalDamage = points;\n        } else if (_tokenAttributes[tokenId].isArmour) { \n            _tokenAttributes[tokenId].additionalDefense = points;\n        } \n\n        emit ItemAddPointsUpdate(tokenId, _tokenAttributes[tokenId].additionalDefense + _tokenAttributes[tokenId].additionalDamage);\n    }\n\n    function generateInitialTokens(ItemAttributes memory itemAtts) internal {\n        _tokenIdCounter.increment();\n        uint256 newTokenId = _tokenIdCounter.current();\n\n        _safeMint(msg.sender, newTokenId);\n        _setTokenAttributes(newTokenId, itemAtts);\n\n        _tokenAttributes[newTokenId].tokenId = newTokenId;      \n        _tokenAttributes[newTokenId].fighterId = 0;      \n        _tokenAttributes[newTokenId].lastUpdBlock = block.number; \n    }\n\n    function setItemLevel(uint256 tokenId, uint256 level)  external {\n        require(level <= _tokenAttributes[tokenId].maxLevel, \"Max item level reached\");\n        require(level <= _tokenAttributes[tokenId].itemLevel+1, \"Item can be upgrade one level at a time only\");\n\n        _tokenAttributes[tokenId].itemLevel = level;\n        emit ItemLevelUpgrade(tokenId, _tokenAttributes[tokenId].itemLevel);  \n    }\n\n    function burnItem(uint256 tokenId) external {\n        require(tokenId > 1, \"Token cannot be burnt\");\n        require(_exists(tokenId), \"Token doesn't exist\");\n        _burn(tokenId);\n    }\n\n    function openBox(uint256 tokenId) external returns (uint256) {\n        require(_exists(tokenId), \"Token doesn't exist\");\n        ItemAttributes memory box = _tokenAttributes[tokenId];\n        DropParams memory params = BoxDropPramsList[box.itemRarityLevel];\n\n        ItemAttributes memory itemAtts = getDropItem(box.itemRarityLevel, params);\n\n        uint256 qty = 1;\n\n        bytes32 itemHash = keccak256(abi.encode(itemAtts, qty, block.number));\n        dropHashes[itemHash] = qty;\n         emit ItemDropped(itemHash, itemAtts, qty, 0);\n        _burn(tokenId);\n       \n    }    \n\n    function safeMint(address ownerAddres) external returns (uint256) {\n        _tokenIdCounter.increment();\n        uint256 newTokenId = _tokenIdCounter.current();\n        _safeMint(ownerAddres, newTokenId);\n\n        return newTokenId;\n    }\n\n    function setTokenAttributes(uint256 tokenId, ItemAttributes memory atts) external {\n        require(_exists(tokenId), \"Token does not exist\");\n        _tokenAttributes[tokenId] = atts;\n    }\n\n    function getDropQty(bytes32 dropHash) external returns(uint256) {\n        return dropHashes[dropHash];\n    }\n\n    function createDropHash(bytes32 itemHash, uint256 qty) external {\n        dropHashes[itemHash] = qty;\n    }\n\n    function itemExists(uint256 tokenId) public view returns(bool) {\n        return _exists(tokenId);\n    }\n\n    function setDropParams(uint256 rarityLevel, DropParams memory params) external {\n        DropParamsList[rarityLevel] = params;\n        emit DropParametersChange(rarityLevel, params);\n    }\n\n    function setBoxDropParams(uint256 rarityLevel, DropParams memory params) external {\n        BoxDropPramsList[rarityLevel] = params;\n        emit BoxDropParametersChange(rarityLevel, params);\n    }\n\n    function createItem(ItemAttributes memory atts) public returns (uint256 tokenId) {                \n        _itemAttributes.push(atts);   \n         uint256 itemId = _itemAttributes.length - 1;   \n         _itemAttributes[itemId].itemAttributesId = itemId;\n\n         if (atts.isWeapon) {\n             Weapons[atts.itemRarityLevel].push(itemId);\n         } else if (atts.isArmour) {\n             Armours[atts.itemRarityLevel].push(itemId);\n         } else if (atts.isJewel) {\n             Jewels[atts.itemRarityLevel].push(itemId);\n         } else if (atts.isMisc) {\n             Misc[atts.itemRarityLevel].push(itemId);\n         } \n\n        emit ItemGenerated(itemId, atts.name);\n        return itemId;\n    }\n\n    function getDropItem(uint256 rarityLevel, DropParams memory params) internal returns (ItemAttributes memory) {\n\n        uint256 randomNumber = getRandomNumberMax(0, 100);\n        uint256 randomItem;\n        \n        //emit LogDropValues(randomNumber, params.jewelsDropRate, params.weaponsDropRate, params.armoursDropRate, params.miscDropRate, params.boxDropRate);\n        \n        uint256 cumulativeRate = params.jewelsDropRate;\n        if (randomNumber < cumulativeRate) {\n            randomItem = returnRandomItemFromDropList(100, Jewels[rarityLevel]);\n        } else {\n            cumulativeRate += params.armoursDropRate;\n            if (randomNumber < cumulativeRate) {\n                randomItem = returnRandomItemFromDropList(101, Armours[rarityLevel]);\n            } else {\n                cumulativeRate += params.weaponsDropRate;\n                if (randomNumber < cumulativeRate) {\n                    randomItem = returnRandomItemFromDropList(102, Weapons[rarityLevel]);\n                } else {\n                    cumulativeRate += params.miscDropRate;\n                    if (randomNumber < cumulativeRate) {\n                        randomItem = returnRandomItemFromDropList(103, Misc[rarityLevel]);\n                    } else {\n                        cumulativeRate += params.boxDropRate;\n                        if (randomNumber < cumulativeRate) {\n                            randomItem = params.boxId;\n                        } else {\n                            randomItem = 1;\n                        }\n                    }\n                }\n            }\n        }\n\n\n        ItemAttributes memory itemAtts = _itemAttributes[randomItem];\n        itemAtts.itemAttributesId = randomItem;\n\n\n        if (!itemAtts.isJewel && !itemAtts.isMisc && !itemAtts.isBox && getRandomNumber(1) <= luckDropRate && itemAtts.itemAttributesId != 1 && itemAtts.itemAttributesId != 2) {\n            itemAtts.luck  = true;\n        }\n\n        if (itemAtts.isWeapon && getRandomNumber(2) <= skillDropRate) {\n            itemAtts.skill  = true;\n        }\n\n        if (itemAtts.isBox) {\n            itemAtts.itemLevel = rarityLevel;\n        } else if (!itemAtts.isMisc && !itemAtts.isJewel && itemAtts.itemAttributesId != 1 && itemAtts.itemAttributesId != 2) {\n            itemAtts.itemLevel = params.minItemLevel + getRandomNumber(4) % (params.maxItemLevel-params.minItemLevel+1);\n\n            if (itemAtts.isWeapon) {\n                itemAtts.additionalDamage = 4 * (getRandomNumber(5) % (params.maxAddPoints/4+1));\n            } else if (itemAtts.isArmour) {\n                itemAtts.additionalDefense = 4 * (getRandomNumber(5) % (params.maxAddPoints/4+1));\n            }\n        }\n\n        if ((itemAtts.isWeapon || itemAtts.isArmour) && getRandomNumberMax(3, 1000) <= params.excDropRate) {\n            itemAtts = addExcelentOption(itemAtts);\n        }\n\n        return itemAtts;  \n    }\n\n    function dropItem(uint256 rarityLevel, uint256 fighterId, uint256 experience) external returns (bytes32) {\n        DropParams memory params = DropParamsList[rarityLevel];\n        require(params.blockCrated > 0, \"No drop parameters for rarityLevel\");\n        require(experience > 0, \"Experience must be non zero\");\n\n        ItemAttributes memory itemAtts = getDropItem(rarityLevel, params);        \n\n        uint256 randomNumber = getRandomNumber(200);\n\n        uint256 qty = 1;\n\n        if (randomNumber > generalDropRate) {\n            itemAtts = _itemAttributes[1];\n            emit ItemDropped(dummyHash, itemAtts, 0, 0);\n            return 0;\n        }\n\n        if (itemAtts.itemAttributesId == goldItemId) {\n            qty = max(1, experience/_moneyHelper.getExperienceDivider());\n        }\n\n        bytes32 itemHash = keccak256(abi.encode(itemAtts, qty, block.number));\n        dropHashes[itemHash] = qty;\n        emit ItemDropped(itemHash, itemAtts, qty, 0);\n        return itemHash;\n    }\n\n\n    // This function is for development and testing only\n    // Should be removed in Production\n    function makeItem(ItemAttributes memory itemAtts) external returns (bytes32) {\n        bytes32 itemHash = keccak256(abi.encode(itemAtts, 1, block.number));\n        dropHashes[itemHash] = 1;\n        emit ItemDropped(itemHash, itemAtts, 1, 0);\n        return itemHash;\n    }\n\n    \n\n    // function craftItem(uint256 itemId, address itemOwner, uint256 maxLevel, uint256 maxAddPoints) public returns (uint256) {\n    //     require(_itemAttributes.length > itemId, \"Item attributes not found\");\n    //     ItemAttributes memory itemAtts = _itemAttributes[itemId];\n\n    //     if ((itemAtts.isWeapon || itemAtts.isArmour) && getRandomNumber(50) < luckDropRate)\n    //     {\n    //         itemAtts.luck = true;\n\n    //     }\n\n    //     if (itemAtts.isWeapon && getRandomNumber(51) < skillDropRate)\n    //     {\n    //         itemAtts.skill = true;\n    //     }\n\n    //     if (itemAtts.isWeapon || itemAtts.isArmour)\n    //     {\n    //         if (maxLevel > 0)\n    //         {\n    //             itemAtts.itemLevel = getRandomNumber(53) % (maxLevel + 1);\n    //         }\n\n    //         if (maxAddPoints > 0)\n    //         {\n    //             if (itemAtts.isWeapon) {\n    //                 itemAtts.additionalDamage = (getRandomNumber(54) % (maxAddPoints/4 + 1)) * 4;\n    //             } else if (itemAtts.isArmour) {\n    //                 itemAtts.additionalDefense = (getRandomNumber(54) % (maxAddPoints/4 + 1)) * 4;\n    //             }\n    //         }                \n    //     }        \n\n    //     _tokenIdCounter.increment();\n    //     uint256 newTokenId = _tokenIdCounter.current();\n        \n    //     _safeMint(itemOwner, newTokenId);\n \n    //     _setTokenAttributes(newTokenId, itemAtts);\n\n    //     _tokenAttributes[newTokenId].tokenId = newTokenId;      \n    //     _tokenAttributes[newTokenId].itemAttributesId = itemId;      \n    //     _tokenAttributes[newTokenId].fighterId = 0;      \n    //     _tokenAttributes[newTokenId].lastUpdBlock = block.number; \n\n    //     emit ItemCrafted(newTokenId, itemOwner);\n\n    //     return newTokenId;\n    // }     \n\n    // function getWeaponsLength(uint256 rarityLevel) public view returns (uint256) {\n    //     return Weapons[rarityLevel].length;\n    // }\n\n    // function getArmoursLength(uint256 rarityLevel) public view returns (uint256) {\n    //     return Armours[rarityLevel].length;\n    // }\n\n    // function getJewelsLength(uint256 rarityLevel) public view returns (uint256) {\n    //     return Jewels[rarityLevel].length;\n    // }\n\n    // function getMiscsLength(uint256 rarityLevel) public view returns (uint256) {\n    //     return Misc[rarityLevel].length;\n    // }    \n\n    // function buyItemFromShop(uint256 itemId, uint256 fighterId) external {\n    //     require(_itemAttributes[itemId].inShop, \"Item not in shop or doesn't exist\");\n\n    //     // money logic\n\n    //     _tokenIdCounter.increment();\n    //     uint256 tokenId = _tokenIdCounter.current();\n    //     _safeMint(msg.sender, tokenId);\n    //     _setTokenAttributes(tokenId, _itemAttributes[itemId]);\n\n    //     _tokenAttributes[tokenId].tokenId = tokenId;      \n    //     _tokenAttributes[tokenId].itemAttributesId = itemId;      \n    //     _tokenAttributes[tokenId].fighterId = fighterId;      \n    //     _tokenAttributes[tokenId].lastUpdBlock = block.number;      \n\n    //     emit ItemBoughtFromShop(tokenId, itemId, msg.sender, _tokenAttributes[tokenId].name);\n    // }\n\n    // Get the attributes for a fighter NFT\n    function getTokenAttributes(uint256 tokenId) public view returns (ItemAttributes memory) {\n        require(_exists(tokenId), \"Token does not exist\");\n\n        return _tokenAttributes[tokenId];\n    }\n\n    // Get the attributes for a fighter NFT\n    function getItemAttributes(uint256 itemId) public view returns (ItemAttributes memory) {\n        require(_itemAttributes.length > itemId, \"Item does not exist\");\n\n        return _itemAttributes[itemId];\n    }\n\n    mapping (uint256 => ItemAttributes) private _tokenAttributes;\n    ItemAttributes[] private _itemAttributes;\n    Counters.Counter private _tokenIdCounter;\n\n    ItemAttributes boxAttributes;\n\n\n\n    function getUserItems(address userAddress) external view returns (uint256[] memory) {\n        \n        uint256 numTokens = balanceOf(userAddress);\n        uint256[] memory tokenIds = new uint256[](numTokens);\n\n        for (uint256 i = 0; i < numTokens; i++) {\n            tokenIds[i] = tokenOfOwnerByIndex(userAddress, i);\n        }\n\n        return tokenIds;\n    }\n\n\n    function getFighterItems(address userAddress, uint256 fighterId) external view returns (uint256[2][] memory) {\n        \n        uint256 numTokens = balanceOf(userAddress);\n        uint256[2][] memory tokenIds = new uint256[2][](numTokens);\n\n        uint256 id;\n        uint counter = 0;\n\n        for (uint256 i = 0; i < numTokens; i++) {\n            id = tokenOfOwnerByIndex(userAddress, i);\n            if (_tokenAttributes[id].fighterId == fighterId)\n            {\n                tokenIds[counter] = [id, _tokenAttributes[id].lastUpdBlock];\n            }\n            \n            counter++;\n        }\n\n        return tokenIds;\n    }\n\n\n    function _setTokenAttributes(uint256 tokenId, ItemAttributes memory attrs) internal {\n        require(_exists(tokenId), \"Token does not exist\");\n\n        _tokenAttributes[tokenId] = attrs;\n    }\n\n    function returnRandomItemFromDropList(uint256 seed, uint256[] memory items) internal returns (uint256) {\n        uint256 randomNumber = getRandomNumber(seed);\n        uint256 len = items.length;\n\n        return items[randomNumber % len];\n\n    }\n\n    // Returns the smaller of two values\n    function min(uint a, uint b) private pure returns (uint) {\n        return a < b ? a : b;\n    }\n\n    // Returns the largest of the two values\n    function max(uint a, uint b) private pure returns (uint) {\n        return a > b ? a : b;\n    }\n\n    // Safe Multiply Function - prevents integer overflow \n    function safeMul(uint a, uint b) public returns (uint) {\n        uint c = a * b;\n        assert(a == 0 || c / a == b);\n        return c;\n    }\n\n    // Safe Subtraction Function - prevents integer overflow \n    function safeSub(uint a, uint b) public returns (uint) {\n        assert(b <= a);\n        return a - b;\n    }\n\n    // Safe Addition Function - prevents integer overflow \n    function safeAdd(uint a, uint b) public returns (uint) {\n        uint c = a + b;\n        assert(c>=a && c>=b);\n        return c;\n    }\n\n}",
  "sourcePath": "/Users/max/Documents/prog/game-contracts/contracts/Items.sol",
  "compiler": {
    "name": "solc",
    "version": "0.8.19+commit.7dd6d404.Emscripten.clang"
  },
  "schemaVersion": "3.4.13",
  "updatedAt": "2023-07-25T05:51:08.411Z",
  "networkType": "ethereum",
  "devdoc": {
    "events": {
      "Approval(address,address,uint256)": {
        "details": "Emitted when `owner` enables `approved` to manage the `tokenId` token."
      },
      "ApprovalForAll(address,address,bool)": {
        "details": "Emitted when `owner` enables or disables (`approved`) `operator` to manage all of its assets."
      },
      "Transfer(address,address,uint256)": {
        "details": "Emitted when `tokenId` token is transferred from `from` to `to`."
      }
    },
    "kind": "dev",
    "methods": {
      "approve(address,uint256)": {
        "details": "See {IERC721-approve}."
      },
      "balanceOf(address)": {
        "details": "See {IERC721-balanceOf}."
      },
      "getApproved(uint256)": {
        "details": "See {IERC721-getApproved}."
      },
      "isApprovedForAll(address,address)": {
        "details": "See {IERC721-isApprovedForAll}."
      },
      "name()": {
        "details": "See {IERC721Metadata-name}."
      },
      "ownerOf(uint256)": {
        "details": "See {IERC721-ownerOf}."
      },
      "safeTransferFrom(address,address,uint256)": {
        "details": "See {IERC721-safeTransferFrom}."
      },
      "safeTransferFrom(address,address,uint256,bytes)": {
        "details": "See {IERC721-safeTransferFrom}."
      },
      "setApprovalForAll(address,bool)": {
        "details": "See {IERC721-setApprovalForAll}."
      },
      "supportsInterface(bytes4)": {
        "details": "See {IERC165-supportsInterface}."
      },
      "symbol()": {
        "details": "See {IERC721Metadata-symbol}."
      },
      "tokenByIndex(uint256)": {
        "details": "See {IERC721Enumerable-tokenByIndex}."
      },
      "tokenOfOwnerByIndex(address,uint256)": {
        "details": "See {IERC721Enumerable-tokenOfOwnerByIndex}."
      },
      "tokenURI(uint256)": {
        "details": "See {IERC721Metadata-tokenURI}."
      },
      "totalSupply()": {
        "details": "See {IERC721Enumerable-totalSupply}."
      },
      "transferFrom(address,address,uint256)": {
        "details": "See {IERC721-transferFrom}."
      }
    },
    "version": 1
  },
  "userdoc": {
    "kind": "user",
    "methods": {},
    "version": 1
  }
}