{
  "contractName": "Items",
  "abi": [
    {
      "inputs": [
        {
          "internalType": "address",
          "name": "fightersHelperContract",
          "type": "address"
        },
        {
          "internalType": "address",
          "name": "moneyHelperContract",
          "type": "address"
        }
      ],
      "stateMutability": "nonpayable",
      "type": "constructor"
    },
    {
      "anonymous": false,
      "inputs": [
        {
          "indexed": true,
          "internalType": "address",
          "name": "owner",
          "type": "address"
        },
        {
          "indexed": true,
          "internalType": "address",
          "name": "approved",
          "type": "address"
        },
        {
          "indexed": true,
          "internalType": "uint256",
          "name": "tokenId",
          "type": "uint256"
        }
      ],
      "name": "Approval",
      "type": "event"
    },
    {
      "anonymous": false,
      "inputs": [
        {
          "indexed": true,
          "internalType": "address",
          "name": "owner",
          "type": "address"
        },
        {
          "indexed": true,
          "internalType": "address",
          "name": "operator",
          "type": "address"
        },
        {
          "indexed": false,
          "internalType": "bool",
          "name": "approved",
          "type": "bool"
        }
      ],
      "name": "ApprovalForAll",
      "type": "event"
    },
    {
      "anonymous": false,
      "inputs": [
        {
          "indexed": false,
          "internalType": "uint256",
          "name": "tokenId",
          "type": "uint256"
        },
        {
          "indexed": false,
          "internalType": "uint256",
          "name": "newAddPoints",
          "type": "uint256"
        }
      ],
      "name": "ItemAddPointsUpdate",
      "type": "event"
    },
    {
      "anonymous": false,
      "inputs": [
        {
          "indexed": false,
          "internalType": "uint256",
          "name": "tokenId",
          "type": "uint256"
        },
        {
          "indexed": false,
          "internalType": "uint256",
          "name": "itemId",
          "type": "uint256"
        },
        {
          "indexed": false,
          "internalType": "address",
          "name": "owner",
          "type": "address"
        },
        {
          "indexed": false,
          "internalType": "string",
          "name": "itemName",
          "type": "string"
        }
      ],
      "name": "ItemBoughtFromShop",
      "type": "event"
    },
    {
      "anonymous": false,
      "inputs": [
        {
          "indexed": false,
          "internalType": "uint256",
          "name": "tokenId",
          "type": "uint256"
        },
        {
          "indexed": false,
          "internalType": "address",
          "name": "owner",
          "type": "address"
        }
      ],
      "name": "ItemCrafted",
      "type": "event"
    },
    {
      "anonymous": false,
      "inputs": [
        {
          "indexed": false,
          "internalType": "uint256",
          "name": "itemId",
          "type": "uint256"
        },
        {
          "indexed": false,
          "internalType": "string",
          "name": "name",
          "type": "string"
        }
      ],
      "name": "ItemGenerated",
      "type": "event"
    },
    {
      "anonymous": false,
      "inputs": [
        {
          "indexed": false,
          "internalType": "uint256",
          "name": "tokenId",
          "type": "uint256"
        },
        {
          "indexed": false,
          "internalType": "uint256",
          "name": "newLevel",
          "type": "uint256"
        }
      ],
      "name": "ItemLevelUpgrade",
      "type": "event"
    },
    {
      "anonymous": false,
      "inputs": [
        {
          "indexed": false,
          "internalType": "uint8",
          "name": "",
          "type": "uint8"
        },
        {
          "indexed": false,
          "internalType": "uint256",
          "name": "",
          "type": "uint256"
        }
      ],
      "name": "LogError",
      "type": "event"
    },
    {
      "anonymous": false,
      "inputs": [
        {
          "indexed": false,
          "internalType": "uint256",
          "name": "itemId",
          "type": "uint256"
        },
        {
          "indexed": false,
          "internalType": "uint256",
          "name": "packSize",
          "type": "uint256"
        },
        {
          "indexed": false,
          "internalType": "uint256",
          "name": "fighterId",
          "type": "uint256"
        },
        {
          "indexed": false,
          "internalType": "uint256",
          "name": "newTokenId",
          "type": "uint256"
        }
      ],
      "name": "PackedItems",
      "type": "event"
    },
    {
      "anonymous": false,
      "inputs": [
        {
          "indexed": true,
          "internalType": "address",
          "name": "from",
          "type": "address"
        },
        {
          "indexed": true,
          "internalType": "address",
          "name": "to",
          "type": "address"
        },
        {
          "indexed": true,
          "internalType": "uint256",
          "name": "tokenId",
          "type": "uint256"
        }
      ],
      "name": "Transfer",
      "type": "event"
    },
    {
      "anonymous": false,
      "inputs": [
        {
          "indexed": false,
          "internalType": "uint256",
          "name": "tokenId",
          "type": "uint256"
        }
      ],
      "name": "UnpackedItems",
      "type": "event"
    },
    {
      "inputs": [
        {
          "internalType": "uint256",
          "name": "",
          "type": "uint256"
        },
        {
          "internalType": "uint256",
          "name": "",
          "type": "uint256"
        }
      ],
      "name": "Armours",
      "outputs": [
        {
          "internalType": "uint256",
          "name": "",
          "type": "uint256"
        }
      ],
      "stateMutability": "view",
      "type": "function",
      "constant": true
    },
    {
      "inputs": [
        {
          "internalType": "uint256",
          "name": "",
          "type": "uint256"
        },
        {
          "internalType": "uint256",
          "name": "",
          "type": "uint256"
        }
      ],
      "name": "Jewels",
      "outputs": [
        {
          "internalType": "uint256",
          "name": "",
          "type": "uint256"
        }
      ],
      "stateMutability": "view",
      "type": "function",
      "constant": true
    },
    {
      "inputs": [
        {
          "internalType": "uint256",
          "name": "",
          "type": "uint256"
        },
        {
          "internalType": "uint256",
          "name": "",
          "type": "uint256"
        }
      ],
      "name": "Misc",
      "outputs": [
        {
          "internalType": "uint256",
          "name": "",
          "type": "uint256"
        }
      ],
      "stateMutability": "view",
      "type": "function",
      "constant": true
    },
    {
      "inputs": [
        {
          "internalType": "uint256",
          "name": "",
          "type": "uint256"
        },
        {
          "internalType": "uint256",
          "name": "",
          "type": "uint256"
        }
      ],
      "name": "Weapons",
      "outputs": [
        {
          "internalType": "uint256",
          "name": "",
          "type": "uint256"
        }
      ],
      "stateMutability": "view",
      "type": "function",
      "constant": true
    },
    {
      "inputs": [
        {
          "internalType": "uint256",
          "name": "",
          "type": "uint256"
        },
        {
          "internalType": "uint256",
          "name": "",
          "type": "uint256"
        }
      ],
      "name": "Wings",
      "outputs": [
        {
          "internalType": "uint256",
          "name": "",
          "type": "uint256"
        }
      ],
      "stateMutability": "view",
      "type": "function",
      "constant": true
    },
    {
      "inputs": [
        {
          "internalType": "address",
          "name": "to",
          "type": "address"
        },
        {
          "internalType": "uint256",
          "name": "tokenId",
          "type": "uint256"
        }
      ],
      "name": "approve",
      "outputs": [],
      "stateMutability": "nonpayable",
      "type": "function"
    },
    {
      "inputs": [
        {
          "internalType": "address",
          "name": "owner",
          "type": "address"
        }
      ],
      "name": "balanceOf",
      "outputs": [
        {
          "internalType": "uint256",
          "name": "",
          "type": "uint256"
        }
      ],
      "stateMutability": "view",
      "type": "function",
      "constant": true
    },
    {
      "inputs": [
        {
          "internalType": "uint256",
          "name": "tokenId",
          "type": "uint256"
        }
      ],
      "name": "getApproved",
      "outputs": [
        {
          "internalType": "address",
          "name": "",
          "type": "address"
        }
      ],
      "stateMutability": "view",
      "type": "function",
      "constant": true
    },
    {
      "inputs": [
        {
          "internalType": "address",
          "name": "owner",
          "type": "address"
        },
        {
          "internalType": "address",
          "name": "operator",
          "type": "address"
        }
      ],
      "name": "isApprovedForAll",
      "outputs": [
        {
          "internalType": "bool",
          "name": "",
          "type": "bool"
        }
      ],
      "stateMutability": "view",
      "type": "function",
      "constant": true
    },
    {
      "inputs": [],
      "name": "name",
      "outputs": [
        {
          "internalType": "string",
          "name": "",
          "type": "string"
        }
      ],
      "stateMutability": "view",
      "type": "function",
      "constant": true
    },
    {
      "inputs": [],
      "name": "owner",
      "outputs": [
        {
          "internalType": "address",
          "name": "",
          "type": "address"
        }
      ],
      "stateMutability": "view",
      "type": "function",
      "constant": true
    },
    {
      "inputs": [
        {
          "internalType": "uint256",
          "name": "tokenId",
          "type": "uint256"
        }
      ],
      "name": "ownerOf",
      "outputs": [
        {
          "internalType": "address",
          "name": "",
          "type": "address"
        }
      ],
      "stateMutability": "view",
      "type": "function",
      "constant": true
    },
    {
      "inputs": [
        {
          "internalType": "address",
          "name": "from",
          "type": "address"
        },
        {
          "internalType": "address",
          "name": "to",
          "type": "address"
        },
        {
          "internalType": "uint256",
          "name": "tokenId",
          "type": "uint256"
        }
      ],
      "name": "safeTransferFrom",
      "outputs": [],
      "stateMutability": "nonpayable",
      "type": "function"
    },
    {
      "inputs": [
        {
          "internalType": "address",
          "name": "from",
          "type": "address"
        },
        {
          "internalType": "address",
          "name": "to",
          "type": "address"
        },
        {
          "internalType": "uint256",
          "name": "tokenId",
          "type": "uint256"
        },
        {
          "internalType": "bytes",
          "name": "data",
          "type": "bytes"
        }
      ],
      "name": "safeTransferFrom",
      "outputs": [],
      "stateMutability": "nonpayable",
      "type": "function"
    },
    {
      "inputs": [
        {
          "internalType": "address",
          "name": "operator",
          "type": "address"
        },
        {
          "internalType": "bool",
          "name": "approved",
          "type": "bool"
        }
      ],
      "name": "setApprovalForAll",
      "outputs": [],
      "stateMutability": "nonpayable",
      "type": "function"
    },
    {
      "inputs": [
        {
          "internalType": "bytes4",
          "name": "interfaceId",
          "type": "bytes4"
        }
      ],
      "name": "supportsInterface",
      "outputs": [
        {
          "internalType": "bool",
          "name": "",
          "type": "bool"
        }
      ],
      "stateMutability": "view",
      "type": "function",
      "constant": true
    },
    {
      "inputs": [],
      "name": "symbol",
      "outputs": [
        {
          "internalType": "string",
          "name": "",
          "type": "string"
        }
      ],
      "stateMutability": "view",
      "type": "function",
      "constant": true
    },
    {
      "inputs": [
        {
          "internalType": "uint256",
          "name": "index",
          "type": "uint256"
        }
      ],
      "name": "tokenByIndex",
      "outputs": [
        {
          "internalType": "uint256",
          "name": "",
          "type": "uint256"
        }
      ],
      "stateMutability": "view",
      "type": "function",
      "constant": true
    },
    {
      "inputs": [
        {
          "internalType": "address",
          "name": "owner",
          "type": "address"
        },
        {
          "internalType": "uint256",
          "name": "index",
          "type": "uint256"
        }
      ],
      "name": "tokenOfOwnerByIndex",
      "outputs": [
        {
          "internalType": "uint256",
          "name": "",
          "type": "uint256"
        }
      ],
      "stateMutability": "view",
      "type": "function",
      "constant": true
    },
    {
      "inputs": [
        {
          "internalType": "uint256",
          "name": "tokenId",
          "type": "uint256"
        }
      ],
      "name": "tokenURI",
      "outputs": [
        {
          "internalType": "string",
          "name": "",
          "type": "string"
        }
      ],
      "stateMutability": "view",
      "type": "function",
      "constant": true
    },
    {
      "inputs": [],
      "name": "totalSupply",
      "outputs": [
        {
          "internalType": "uint256",
          "name": "",
          "type": "uint256"
        }
      ],
      "stateMutability": "view",
      "type": "function",
      "constant": true
    },
    {
      "inputs": [
        {
          "internalType": "address",
          "name": "from",
          "type": "address"
        },
        {
          "internalType": "address",
          "name": "to",
          "type": "address"
        },
        {
          "internalType": "uint256",
          "name": "tokenId",
          "type": "uint256"
        }
      ],
      "name": "transferFrom",
      "outputs": [],
      "stateMutability": "nonpayable",
      "type": "function"
    },
    {
      "inputs": [
        {
          "internalType": "uint256",
          "name": "rarityLevel",
          "type": "uint256"
        }
      ],
      "name": "getWeapons",
      "outputs": [
        {
          "internalType": "uint256[]",
          "name": "",
          "type": "uint256[]"
        }
      ],
      "stateMutability": "view",
      "type": "function",
      "constant": true
    },
    {
      "inputs": [
        {
          "internalType": "uint256",
          "name": "rarityLevel",
          "type": "uint256"
        }
      ],
      "name": "getArmours",
      "outputs": [
        {
          "internalType": "uint256[]",
          "name": "",
          "type": "uint256[]"
        }
      ],
      "stateMutability": "view",
      "type": "function",
      "constant": true
    },
    {
      "inputs": [
        {
          "internalType": "uint256",
          "name": "rarityLevel",
          "type": "uint256"
        }
      ],
      "name": "getJewels",
      "outputs": [
        {
          "internalType": "uint256[]",
          "name": "",
          "type": "uint256[]"
        }
      ],
      "stateMutability": "view",
      "type": "function",
      "constant": true
    },
    {
      "inputs": [
        {
          "internalType": "uint256",
          "name": "rarityLevel",
          "type": "uint256"
        }
      ],
      "name": "getMisc",
      "outputs": [
        {
          "internalType": "uint256[]",
          "name": "",
          "type": "uint256[]"
        }
      ],
      "stateMutability": "view",
      "type": "function",
      "constant": true
    },
    {
      "inputs": [
        {
          "internalType": "uint256",
          "name": "tokenId",
          "type": "uint256"
        },
        {
          "internalType": "uint256",
          "name": "points",
          "type": "uint256"
        }
      ],
      "name": "setAdditionalPoints",
      "outputs": [],
      "stateMutability": "nonpayable",
      "type": "function"
    },
    {
      "inputs": [
        {
          "internalType": "uint256",
          "name": "tokenId",
          "type": "uint256"
        },
        {
          "internalType": "uint256",
          "name": "level",
          "type": "uint256"
        }
      ],
      "name": "setItemLevel",
      "outputs": [],
      "stateMutability": "nonpayable",
      "type": "function"
    },
    {
      "inputs": [
        {
          "internalType": "uint256",
          "name": "tokenId",
          "type": "uint256"
        }
      ],
      "name": "burnItem",
      "outputs": [],
      "stateMutability": "nonpayable",
      "type": "function"
    },
    {
      "inputs": [
        {
          "internalType": "address",
          "name": "ownerAddres",
          "type": "address"
        }
      ],
      "name": "safeMint",
      "outputs": [
        {
          "internalType": "uint256",
          "name": "",
          "type": "uint256"
        }
      ],
      "stateMutability": "nonpayable",
      "type": "function"
    },
    {
      "inputs": [
        {
          "internalType": "uint256",
          "name": "tokenId",
          "type": "uint256"
        },
        {
          "components": [
            {
              "internalType": "string",
              "name": "name",
              "type": "string"
            },
            {
              "internalType": "uint256",
              "name": "tokenId",
              "type": "uint256"
            },
            {
              "internalType": "uint256",
              "name": "itemLevel",
              "type": "uint256"
            },
            {
              "internalType": "uint256",
              "name": "maxLevel",
              "type": "uint256"
            },
            {
              "internalType": "uint256",
              "name": "durability",
              "type": "uint256"
            },
            {
              "internalType": "uint256",
              "name": "classRequired",
              "type": "uint256"
            },
            {
              "internalType": "uint256",
              "name": "strengthRequired",
              "type": "uint256"
            },
            {
              "internalType": "uint256",
              "name": "agilityRequired",
              "type": "uint256"
            },
            {
              "internalType": "uint256",
              "name": "energyRequired",
              "type": "uint256"
            },
            {
              "internalType": "uint256",
              "name": "vitalityRequired",
              "type": "uint256"
            },
            {
              "internalType": "uint256",
              "name": "itemWidth",
              "type": "uint256"
            },
            {
              "internalType": "uint256",
              "name": "itemHeight",
              "type": "uint256"
            },
            {
              "internalType": "uint256",
              "name": "acceptableSlot1",
              "type": "uint256"
            },
            {
              "internalType": "uint256",
              "name": "acceptableSlot2",
              "type": "uint256"
            },
            {
              "internalType": "uint256",
              "name": "baseMinPhysicalDamage",
              "type": "uint256"
            },
            {
              "internalType": "uint256",
              "name": "baseMaxPhysicalDamage",
              "type": "uint256"
            },
            {
              "internalType": "uint256",
              "name": "baseMinMagicDamage",
              "type": "uint256"
            },
            {
              "internalType": "uint256",
              "name": "baseMaxMagicDamage",
              "type": "uint256"
            },
            {
              "internalType": "uint256",
              "name": "baseDefense",
              "type": "uint256"
            },
            {
              "internalType": "uint256",
              "name": "attackSpeed",
              "type": "uint256"
            },
            {
              "internalType": "uint256",
              "name": "additionalDamage",
              "type": "uint256"
            },
            {
              "internalType": "uint256",
              "name": "additionalDefense",
              "type": "uint256"
            },
            {
              "internalType": "uint256",
              "name": "fighterId",
              "type": "uint256"
            },
            {
              "internalType": "uint256",
              "name": "lastUpdBlock",
              "type": "uint256"
            },
            {
              "internalType": "uint256",
              "name": "itemRarityLevel",
              "type": "uint256"
            },
            {
              "internalType": "uint256",
              "name": "itemAttributesId",
              "type": "uint256"
            },
            {
              "internalType": "uint256",
              "name": "packSize",
              "type": "uint256"
            },
            {
              "internalType": "bool",
              "name": "luck",
              "type": "bool"
            },
            {
              "internalType": "bool",
              "name": "skill",
              "type": "bool"
            },
            {
              "internalType": "bool",
              "name": "isPackable",
              "type": "bool"
            },
            {
              "internalType": "bool",
              "name": "isBox",
              "type": "bool"
            },
            {
              "internalType": "bool",
              "name": "isWeapon",
              "type": "bool"
            },
            {
              "internalType": "bool",
              "name": "isArmour",
              "type": "bool"
            },
            {
              "internalType": "bool",
              "name": "isJewel",
              "type": "bool"
            },
            {
              "internalType": "bool",
              "name": "isWings",
              "type": "bool"
            },
            {
              "internalType": "bool",
              "name": "isMisc",
              "type": "bool"
            },
            {
              "internalType": "bool",
              "name": "isConsumable",
              "type": "bool"
            },
            {
              "internalType": "bool",
              "name": "inShop",
              "type": "bool"
            }
          ],
          "internalType": "struct ItemsAtts.ItemAttributes",
          "name": "atts",
          "type": "tuple"
        }
      ],
      "name": "setTokenAttributes",
      "outputs": [],
      "stateMutability": "nonpayable",
      "type": "function"
    },
    {
      "inputs": [
        {
          "internalType": "uint256",
          "name": "tokenId",
          "type": "uint256"
        }
      ],
      "name": "itemExists",
      "outputs": [
        {
          "internalType": "bool",
          "name": "",
          "type": "bool"
        }
      ],
      "stateMutability": "view",
      "type": "function",
      "constant": true
    },
    {
      "inputs": [
        {
          "components": [
            {
              "internalType": "string",
              "name": "name",
              "type": "string"
            },
            {
              "internalType": "uint256",
              "name": "tokenId",
              "type": "uint256"
            },
            {
              "internalType": "uint256",
              "name": "itemLevel",
              "type": "uint256"
            },
            {
              "internalType": "uint256",
              "name": "maxLevel",
              "type": "uint256"
            },
            {
              "internalType": "uint256",
              "name": "durability",
              "type": "uint256"
            },
            {
              "internalType": "uint256",
              "name": "classRequired",
              "type": "uint256"
            },
            {
              "internalType": "uint256",
              "name": "strengthRequired",
              "type": "uint256"
            },
            {
              "internalType": "uint256",
              "name": "agilityRequired",
              "type": "uint256"
            },
            {
              "internalType": "uint256",
              "name": "energyRequired",
              "type": "uint256"
            },
            {
              "internalType": "uint256",
              "name": "vitalityRequired",
              "type": "uint256"
            },
            {
              "internalType": "uint256",
              "name": "itemWidth",
              "type": "uint256"
            },
            {
              "internalType": "uint256",
              "name": "itemHeight",
              "type": "uint256"
            },
            {
              "internalType": "uint256",
              "name": "acceptableSlot1",
              "type": "uint256"
            },
            {
              "internalType": "uint256",
              "name": "acceptableSlot2",
              "type": "uint256"
            },
            {
              "internalType": "uint256",
              "name": "baseMinPhysicalDamage",
              "type": "uint256"
            },
            {
              "internalType": "uint256",
              "name": "baseMaxPhysicalDamage",
              "type": "uint256"
            },
            {
              "internalType": "uint256",
              "name": "baseMinMagicDamage",
              "type": "uint256"
            },
            {
              "internalType": "uint256",
              "name": "baseMaxMagicDamage",
              "type": "uint256"
            },
            {
              "internalType": "uint256",
              "name": "baseDefense",
              "type": "uint256"
            },
            {
              "internalType": "uint256",
              "name": "attackSpeed",
              "type": "uint256"
            },
            {
              "internalType": "uint256",
              "name": "additionalDamage",
              "type": "uint256"
            },
            {
              "internalType": "uint256",
              "name": "additionalDefense",
              "type": "uint256"
            },
            {
              "internalType": "uint256",
              "name": "fighterId",
              "type": "uint256"
            },
            {
              "internalType": "uint256",
              "name": "lastUpdBlock",
              "type": "uint256"
            },
            {
              "internalType": "uint256",
              "name": "itemRarityLevel",
              "type": "uint256"
            },
            {
              "internalType": "uint256",
              "name": "itemAttributesId",
              "type": "uint256"
            },
            {
              "internalType": "uint256",
              "name": "packSize",
              "type": "uint256"
            },
            {
              "internalType": "bool",
              "name": "luck",
              "type": "bool"
            },
            {
              "internalType": "bool",
              "name": "skill",
              "type": "bool"
            },
            {
              "internalType": "bool",
              "name": "isPackable",
              "type": "bool"
            },
            {
              "internalType": "bool",
              "name": "isBox",
              "type": "bool"
            },
            {
              "internalType": "bool",
              "name": "isWeapon",
              "type": "bool"
            },
            {
              "internalType": "bool",
              "name": "isArmour",
              "type": "bool"
            },
            {
              "internalType": "bool",
              "name": "isJewel",
              "type": "bool"
            },
            {
              "internalType": "bool",
              "name": "isWings",
              "type": "bool"
            },
            {
              "internalType": "bool",
              "name": "isMisc",
              "type": "bool"
            },
            {
              "internalType": "bool",
              "name": "isConsumable",
              "type": "bool"
            },
            {
              "internalType": "bool",
              "name": "inShop",
              "type": "bool"
            }
          ],
          "internalType": "struct ItemsAtts.ItemAttributes",
          "name": "atts",
          "type": "tuple"
        }
      ],
      "name": "createItem",
      "outputs": [
        {
          "internalType": "uint256",
          "name": "tokenId",
          "type": "uint256"
        }
      ],
      "stateMutability": "nonpayable",
      "type": "function"
    },
    {
      "inputs": [
        {
          "internalType": "uint256",
          "name": "tokenId",
          "type": "uint256"
        },
        {
          "internalType": "address",
          "name": "to",
          "type": "address"
        }
      ],
      "name": "transferItem",
      "outputs": [],
      "stateMutability": "nonpayable",
      "type": "function"
    },
    {
      "inputs": [
        {
          "internalType": "uint256",
          "name": "itemId",
          "type": "uint256"
        },
        {
          "internalType": "uint256[]",
          "name": "tokenIds",
          "type": "uint256[]"
        },
        {
          "internalType": "uint256",
          "name": "packSize",
          "type": "uint256"
        },
        {
          "internalType": "uint256",
          "name": "fighterId",
          "type": "uint256"
        }
      ],
      "name": "packItems",
      "outputs": [
        {
          "internalType": "uint256",
          "name": "newTokenId",
          "type": "uint256"
        }
      ],
      "stateMutability": "nonpayable",
      "type": "function"
    },
    {
      "inputs": [
        {
          "internalType": "uint256",
          "name": "tokenId",
          "type": "uint256"
        }
      ],
      "name": "unpackItems",
      "outputs": [
        {
          "internalType": "uint256[]",
          "name": "tokenIds",
          "type": "uint256[]"
        }
      ],
      "stateMutability": "nonpayable",
      "type": "function"
    },
    {
      "inputs": [
        {
          "internalType": "uint256",
          "name": "itemId",
          "type": "uint256"
        },
        {
          "internalType": "uint256",
          "name": "fighterId",
          "type": "uint256"
        }
      ],
      "name": "buyItemFromShop",
      "outputs": [],
      "stateMutability": "nonpayable",
      "type": "function"
    },
    {
      "inputs": [
        {
          "internalType": "uint256",
          "name": "tokenId",
          "type": "uint256"
        }
      ],
      "name": "getTokenAttributes",
      "outputs": [
        {
          "components": [
            {
              "internalType": "string",
              "name": "name",
              "type": "string"
            },
            {
              "internalType": "uint256",
              "name": "tokenId",
              "type": "uint256"
            },
            {
              "internalType": "uint256",
              "name": "itemLevel",
              "type": "uint256"
            },
            {
              "internalType": "uint256",
              "name": "maxLevel",
              "type": "uint256"
            },
            {
              "internalType": "uint256",
              "name": "durability",
              "type": "uint256"
            },
            {
              "internalType": "uint256",
              "name": "classRequired",
              "type": "uint256"
            },
            {
              "internalType": "uint256",
              "name": "strengthRequired",
              "type": "uint256"
            },
            {
              "internalType": "uint256",
              "name": "agilityRequired",
              "type": "uint256"
            },
            {
              "internalType": "uint256",
              "name": "energyRequired",
              "type": "uint256"
            },
            {
              "internalType": "uint256",
              "name": "vitalityRequired",
              "type": "uint256"
            },
            {
              "internalType": "uint256",
              "name": "itemWidth",
              "type": "uint256"
            },
            {
              "internalType": "uint256",
              "name": "itemHeight",
              "type": "uint256"
            },
            {
              "internalType": "uint256",
              "name": "acceptableSlot1",
              "type": "uint256"
            },
            {
              "internalType": "uint256",
              "name": "acceptableSlot2",
              "type": "uint256"
            },
            {
              "internalType": "uint256",
              "name": "baseMinPhysicalDamage",
              "type": "uint256"
            },
            {
              "internalType": "uint256",
              "name": "baseMaxPhysicalDamage",
              "type": "uint256"
            },
            {
              "internalType": "uint256",
              "name": "baseMinMagicDamage",
              "type": "uint256"
            },
            {
              "internalType": "uint256",
              "name": "baseMaxMagicDamage",
              "type": "uint256"
            },
            {
              "internalType": "uint256",
              "name": "baseDefense",
              "type": "uint256"
            },
            {
              "internalType": "uint256",
              "name": "attackSpeed",
              "type": "uint256"
            },
            {
              "internalType": "uint256",
              "name": "additionalDamage",
              "type": "uint256"
            },
            {
              "internalType": "uint256",
              "name": "additionalDefense",
              "type": "uint256"
            },
            {
              "internalType": "uint256",
              "name": "fighterId",
              "type": "uint256"
            },
            {
              "internalType": "uint256",
              "name": "lastUpdBlock",
              "type": "uint256"
            },
            {
              "internalType": "uint256",
              "name": "itemRarityLevel",
              "type": "uint256"
            },
            {
              "internalType": "uint256",
              "name": "itemAttributesId",
              "type": "uint256"
            },
            {
              "internalType": "uint256",
              "name": "packSize",
              "type": "uint256"
            },
            {
              "internalType": "bool",
              "name": "luck",
              "type": "bool"
            },
            {
              "internalType": "bool",
              "name": "skill",
              "type": "bool"
            },
            {
              "internalType": "bool",
              "name": "isPackable",
              "type": "bool"
            },
            {
              "internalType": "bool",
              "name": "isBox",
              "type": "bool"
            },
            {
              "internalType": "bool",
              "name": "isWeapon",
              "type": "bool"
            },
            {
              "internalType": "bool",
              "name": "isArmour",
              "type": "bool"
            },
            {
              "internalType": "bool",
              "name": "isJewel",
              "type": "bool"
            },
            {
              "internalType": "bool",
              "name": "isWings",
              "type": "bool"
            },
            {
              "internalType": "bool",
              "name": "isMisc",
              "type": "bool"
            },
            {
              "internalType": "bool",
              "name": "isConsumable",
              "type": "bool"
            },
            {
              "internalType": "bool",
              "name": "inShop",
              "type": "bool"
            }
          ],
          "internalType": "struct ItemsAtts.ItemAttributes",
          "name": "",
          "type": "tuple"
        }
      ],
      "stateMutability": "view",
      "type": "function",
      "constant": true
    },
    {
      "inputs": [
        {
          "internalType": "uint256",
          "name": "itemId",
          "type": "uint256"
        }
      ],
      "name": "getItemAttributes",
      "outputs": [
        {
          "components": [
            {
              "internalType": "string",
              "name": "name",
              "type": "string"
            },
            {
              "internalType": "uint256",
              "name": "tokenId",
              "type": "uint256"
            },
            {
              "internalType": "uint256",
              "name": "itemLevel",
              "type": "uint256"
            },
            {
              "internalType": "uint256",
              "name": "maxLevel",
              "type": "uint256"
            },
            {
              "internalType": "uint256",
              "name": "durability",
              "type": "uint256"
            },
            {
              "internalType": "uint256",
              "name": "classRequired",
              "type": "uint256"
            },
            {
              "internalType": "uint256",
              "name": "strengthRequired",
              "type": "uint256"
            },
            {
              "internalType": "uint256",
              "name": "agilityRequired",
              "type": "uint256"
            },
            {
              "internalType": "uint256",
              "name": "energyRequired",
              "type": "uint256"
            },
            {
              "internalType": "uint256",
              "name": "vitalityRequired",
              "type": "uint256"
            },
            {
              "internalType": "uint256",
              "name": "itemWidth",
              "type": "uint256"
            },
            {
              "internalType": "uint256",
              "name": "itemHeight",
              "type": "uint256"
            },
            {
              "internalType": "uint256",
              "name": "acceptableSlot1",
              "type": "uint256"
            },
            {
              "internalType": "uint256",
              "name": "acceptableSlot2",
              "type": "uint256"
            },
            {
              "internalType": "uint256",
              "name": "baseMinPhysicalDamage",
              "type": "uint256"
            },
            {
              "internalType": "uint256",
              "name": "baseMaxPhysicalDamage",
              "type": "uint256"
            },
            {
              "internalType": "uint256",
              "name": "baseMinMagicDamage",
              "type": "uint256"
            },
            {
              "internalType": "uint256",
              "name": "baseMaxMagicDamage",
              "type": "uint256"
            },
            {
              "internalType": "uint256",
              "name": "baseDefense",
              "type": "uint256"
            },
            {
              "internalType": "uint256",
              "name": "attackSpeed",
              "type": "uint256"
            },
            {
              "internalType": "uint256",
              "name": "additionalDamage",
              "type": "uint256"
            },
            {
              "internalType": "uint256",
              "name": "additionalDefense",
              "type": "uint256"
            },
            {
              "internalType": "uint256",
              "name": "fighterId",
              "type": "uint256"
            },
            {
              "internalType": "uint256",
              "name": "lastUpdBlock",
              "type": "uint256"
            },
            {
              "internalType": "uint256",
              "name": "itemRarityLevel",
              "type": "uint256"
            },
            {
              "internalType": "uint256",
              "name": "itemAttributesId",
              "type": "uint256"
            },
            {
              "internalType": "uint256",
              "name": "packSize",
              "type": "uint256"
            },
            {
              "internalType": "bool",
              "name": "luck",
              "type": "bool"
            },
            {
              "internalType": "bool",
              "name": "skill",
              "type": "bool"
            },
            {
              "internalType": "bool",
              "name": "isPackable",
              "type": "bool"
            },
            {
              "internalType": "bool",
              "name": "isBox",
              "type": "bool"
            },
            {
              "internalType": "bool",
              "name": "isWeapon",
              "type": "bool"
            },
            {
              "internalType": "bool",
              "name": "isArmour",
              "type": "bool"
            },
            {
              "internalType": "bool",
              "name": "isJewel",
              "type": "bool"
            },
            {
              "internalType": "bool",
              "name": "isWings",
              "type": "bool"
            },
            {
              "internalType": "bool",
              "name": "isMisc",
              "type": "bool"
            },
            {
              "internalType": "bool",
              "name": "isConsumable",
              "type": "bool"
            },
            {
              "internalType": "bool",
              "name": "inShop",
              "type": "bool"
            }
          ],
          "internalType": "struct ItemsAtts.ItemAttributes",
          "name": "",
          "type": "tuple"
        }
      ],
      "stateMutability": "view",
      "type": "function",
      "constant": true
    },
    {
      "inputs": [
        {
          "internalType": "uint256",
          "name": "tokenId",
          "type": "uint256"
        }
      ],
      "name": "burnConsumable",
      "outputs": [],
      "stateMutability": "nonpayable",
      "type": "function"
    },
    {
      "inputs": [
        {
          "internalType": "address",
          "name": "userAddress",
          "type": "address"
        }
      ],
      "name": "getUserItems",
      "outputs": [
        {
          "internalType": "uint256[]",
          "name": "",
          "type": "uint256[]"
        }
      ],
      "stateMutability": "view",
      "type": "function",
      "constant": true
    },
    {
      "inputs": [
        {
          "internalType": "address",
          "name": "userAddress",
          "type": "address"
        },
        {
          "internalType": "uint256",
          "name": "fighterId",
          "type": "uint256"
        }
      ],
      "name": "getFighterItems",
      "outputs": [
        {
          "internalType": "uint256[2][]",
          "name": "",
          "type": "uint256[2][]"
        }
      ],
      "stateMutability": "view",
      "type": "function",
      "constant": true
    }
  ],
  "bytecode": "0x60806040526064600a55601c600b556032600c556032600d55601e600e55601e600f556002601055600160115560006012553480156200003e57600080fd5b506040516200595838038062005958833981016040819052620000619162001195565b604051806040016040528060068152602001651354925554d160d21b815250604051806040016040528060048152602001634974656d60e01b8152508160009081620000ae919062001271565b506001620000bd828262001271565b505060158054336001600160a01b0319918216179091556013805482166001600160a01b03868116919091179091556014805490921690841617905550604080516104c081018252606080825260006020830181905292820183905281018290526080810182905260a0810182905260c0810182905260e08101829052610100810182905261012081018290526101408101829052610160810182905261018081018290526101a081018290526101c081018290526101e08101829052610200810182905261022081018290526102408101829052610260810182905261028081018290526102a081018290526102c081018290526102e08101829052610300810182905261032081018290526103408101829052610360810182905261038081018290526103a081018290526103c081018290526103e08101829052610400810182905261042081018290526104408101829052610460810182905261048081018290526104a081019190915260408051808201909152600a815269456d707479206974656d60b01b602082015281526200025981620002a2565b5062000265816200070d565b60408051808201909152600481526311dbdb1960e21b602082015281526200028d81620002a2565b5062000299816200070d565b50505062001466565b601c80546001810182556000828152835190928492027f0e4562a10381dec21b205ed72637e6b1b523bdd0e4d4d50af5cd23dd4500a21101908190620002e9908262001271565b506020820151816001015560408201518160020155606082015181600301556080820151816004015560a0820151816005015560c0820151816006015560e082015181600701556101008201518160080155610120820151816009015561014082015181600a015561016082015181600b015561018082015181600c01556101a082015181600d01556101c082015181600e01556101e082015181600f0155610200820151816010015561022082015181601101556102408201518160120155610260820151816013015561028082015181601401556102a082015181601501556102c082015181601601556102e082015181601701556103008201518160180155610320820151816019015561034082015181601a015561036082015181601b0160006101000a81548160ff02191690831515021790555061038082015181601b0160016101000a81548160ff0219169083151502179055506103a082015181601b0160026101000a81548160ff0219169083151502179055506103c082015181601b0160036101000a81548160ff0219169083151502179055506103e082015181601b0160046101000a81548160ff02191690831515021790555061040082015181601b0160056101000a81548160ff02191690831515021790555061042082015181601b0160066101000a81548160ff02191690831515021790555061044082015181601b0160076101000a81548160ff02191690831515021790555061046082015181601b0160086101000a81548160ff02191690831515021790555061048082015181601b0160096101000a81548160ff0219169083151502179055506104a082015181601b01600a6101000a81548160ff021916908315150217905550505060006001601c805490506200058491906200133d565b905080601c82815481106200059d576200059d62001365565b90600052602060002090601c020160190181905550826103e0015115620005eb57610300830151600090815260166020908152604082208054600181018255908352912001819055620006ca565b826104000151156200062457610300830151600090815260176020908152604082208054600181018255908352912001819055620006ca565b826104200151156200065d57610300830151600090815260186020908152604082208054600181018255908352912001819055620006ca565b8261046001511562000696576103008301516000908152601a6020908152604082208054600181018255908352912001819055620006ca565b82610440015115620006ca576103008301516000908152601960209081526040822080546001810182559083529120018190555b82516040517f0538ce8dba67be446d1a480a6e48683b27c6efb61d7c01d60767e15705e5d00f91620006ff91849190620013c3565b60405180910390a192915050565b6200071c601d80546001019055565b600062000728601d5490565b905062000736338262000767565b6200074281836200078d565b6000818152601b60205260408120600181019290925560168201554360179091015550565b6200078982826040518060200160405280600081525062000aa260201b60201c565b5050565b6000828152600260205260409020546001600160a01b0316620007f75760405162461bcd60e51b815260206004820152601460248201527f546f6b656e20646f6573206e6f7420657869737400000000000000000000000060448201526064015b60405180910390fd5b6000828152601b602052604090208151829190819062000818908262001271565b506020820151816001015560408201518160020155606082015181600301556080820151816004015560a0820151816005015560c0820151816006015560e082015181600701556101008201518160080155610120820151816009015561014082015181600a015561016082015181600b015561018082015181600c01556101a082015181600d01556101c082015181600e01556101e082015181600f0155610200820151816010015561022082015181601101556102408201518160120155610260820151816013015561028082015181601401556102a082015181601501556102c082015181601601556102e082015181601701556103008201518160180155610320820151816019015561034082015181601a015561036082015181601b0160006101000a81548160ff02191690831515021790555061038082015181601b0160016101000a81548160ff0219169083151502179055506103a082015181601b0160026101000a81548160ff0219169083151502179055506103c082015181601b0160036101000a81548160ff0219169083151502179055506103e082015181601b0160046101000a81548160ff02191690831515021790555061040082015181601b0160056101000a81548160ff02191690831515021790555061042082015181601b0160066101000a81548160ff02191690831515021790555061044082015181601b0160076101000a81548160ff02191690831515021790555061046082015181601b0160086101000a81548160ff02191690831515021790555061048082015181601b0160096101000a81548160ff0219169083151502179055506104a082015181601b01600a6101000a81548160ff0219169083151502179055509050505050565b62000aae838362000b1a565b62000abd600084848462000cbb565b62000b155760405162461bcd60e51b815260206004820152603260248201526000805160206200593883398151915260448201527131b2b4bb32b91034b6b83632b6b2b73a32b960711b6064820152608401620007ee565b505050565b6001600160a01b03821662000b725760405162461bcd60e51b815260206004820181905260248201527f4552433732313a206d696e7420746f20746865207a65726f20616464726573736044820152606401620007ee565b6000818152600260205260409020546001600160a01b03161562000bd95760405162461bcd60e51b815260206004820152601c60248201527f4552433732313a20746f6b656e20616c7265616479206d696e746564000000006044820152606401620007ee565b62000be960008383600162000e03565b6000818152600260205260409020546001600160a01b03161562000c505760405162461bcd60e51b815260206004820152601c60248201527f4552433732313a20746f6b656e20616c7265616479206d696e746564000000006044820152606401620007ee565b6001600160a01b038216600081815260036020908152604080832080546001019055848352600290915280822080546001600160a01b0319168417905551839291907fddf252ad1be2c89b69c2b068fc378daa952ba7f163c4a11628f55a4df523b3ef908290a45050565b60006001600160a01b0384163b1562000df757604051630a85bd0160e11b81526001600160a01b0385169063150b7a029062000d02903390899088908890600401620013de565b6020604051808303816000875af192505050801562000d40575060408051601f3d908101601f1916820190925262000d3d918101906200141d565b60015b62000ddc573d80801562000d71576040519150601f19603f3d011682016040523d82523d6000602084013e62000d76565b606091505b50805160000362000dd45760405162461bcd60e51b815260206004820152603260248201526000805160206200593883398151915260448201527131b2b4bb32b91034b6b83632b6b2b73a32b960711b6064820152608401620007ee565b805181602001fd5b6001600160e01b031916630a85bd0160e11b14905062000dfb565b5060015b949350505050565b600181111562000e7c5760405162461bcd60e51b815260206004820152603560248201527f455243373231456e756d657261626c653a20636f6e736563757469766520747260448201527f616e7366657273206e6f7420737570706f7274656400000000000000000000006064820152608401620007ee565b816001600160a01b03851662000edb5762000ed581600880546000838152600960205260408120829055600182018355919091527ff3f7a9fe364faab93b216da50a3214154f22a0a2b415b23a84c8169e8b636ee30155565b62000f01565b836001600160a01b0316856001600160a01b03161462000f015762000f01858262000f4e565b6001600160a01b03841662000f215762000f1b8162000ff0565b62000f47565b846001600160a01b0316846001600160a01b03161462000f475762000f478482620010aa565b5050505050565b6000600162000f5d84620010f0565b62000f6991906200133d565b60008381526007602052604090205490915080821462000fbd576001600160a01b03841660009081526006602090815260408083208584528252808320548484528184208190558352600790915290208190555b5060009182526007602090815260408084208490556001600160a01b039094168352600681528383209183525290812055565b60085460009062001004906001906200133d565b600083815260096020526040812054600880549394509092849081106200102f576200102f62001365565b90600052602060002001549050806008838154811062001053576200105362001365565b60009182526020808320909101929092558281526009909152604080822084905585825281205560088054806200108e576200108e62001450565b6001900381819060005260206000200160009055905550505050565b6000620010b783620010f0565b6001600160a01b039093166000908152600660209081526040808320868452825280832085905593825260079052919091209190915550565b60006001600160a01b0382166200115c5760405162461bcd60e51b815260206004820152602960248201527f4552433732313a2061646472657373207a65726f206973206e6f7420612076616044820152683634b21037bbb732b960b91b6064820152608401620007ee565b506001600160a01b031660009081526003602052604090205490565b80516001600160a01b03811681146200119057600080fd5b919050565b60008060408385031215620011a957600080fd5b620011b48362001178565b9150620011c46020840162001178565b90509250929050565b634e487b7160e01b600052604160045260246000fd5b600181811c90821680620011f857607f821691505b6020821081036200121957634e487b7160e01b600052602260045260246000fd5b50919050565b601f82111562000b1557600081815260208120601f850160051c81016020861015620012485750805b601f850160051c820191505b81811015620012695782815560010162001254565b505050505050565b81516001600160401b038111156200128d576200128d620011cd565b620012a5816200129e8454620011e3565b846200121f565b602080601f831160018114620012dd5760008415620012c45750858301515b600019600386901b1c1916600185901b17855562001269565b600085815260208120601f198616915b828110156200130e57888601518255948401946001909101908401620012ed565b50858210156200132d5787850151600019600388901b60f8161c191681555b5050505050600190811b01905550565b818103818111156200135f57634e487b7160e01b600052601160045260246000fd5b92915050565b634e487b7160e01b600052603260045260246000fd5b6000815180845260005b81811015620013a35760208185018101518683018201520162001385565b506000602082860101526020601f19601f83011685010191505092915050565b82815260406020820152600062000dfb60408301846200137b565b6001600160a01b038581168252841660208201526040810183905260806060820181905260009062001413908301846200137b565b9695505050505050565b6000602082840312156200143057600080fd5b81516001600160e01b0319811681146200144957600080fd5b9392505050565b634e487b7160e01b600052603160045260246000fd5b6144c280620014766000396000f3fe608060405234801561001057600080fd5b506004361061025d5760003560e01c806370a0823111610146578063b88d4fde116100c3578063ce6019b411610087578063ce6019b41461055e578063e8af18f314610571578063e985e9c514610584578063e9dbd3eb146105c0578063f4d10654146105d3578063fd8f6170146105e657600080fd5b8063b88d4fde146104ff578063c29a3c9314610512578063c715089b14610525578063c87b56dd14610538578063caf7c4451461054b57600080fd5b806395d89b411161010a57806395d89b41146104ab5780639b94680f146104b3578063a0b2adc0146104c6578063a22cb465146104d9578063a4229101146104ec57600080fd5b806370a082311461044c5780637f46914f1461045f57806380971e2c14610472578063843bd641146104855780638da5cb5b1461049857600080fd5b80632f745c59116101df578063513c1452116101a3578063513c1452146103cd578063576cc0f7146103ed5780635e8a44be1461040057806363503447146104135780636352211e146104265780636995795b1461043957600080fd5b80632f745c591461036e57806332fac8f81461038157806340d097c31461039457806342842e0e146103a75780634f6ccce7146103ba57600080fd5b8063081812fc11610226578063081812fc146102f3578063095ea7b31461031e57806318160ddd146103335780631f4f5a231461033b57806323b872dd1461035b57600080fd5b8062695f4b1461026257806301ffc9a71461028857806303d2e4a1146102ab57806303f46b8b146102be57806306fdde03146102de575b600080fd5b610275610270366004613670565b6105f9565b6040519081526020015b60405180910390f35b61029b6102963660046136a8565b61062a565b604051901515815260200161027f565b6102756102b9366004613670565b610655565b6102d16102cc3660046136c5565b610671565b60405161027f91906136de565b6102e66106d3565b60405161027f9190613772565b6103066103013660046136c5565b610765565b6040516001600160a01b03909116815260200161027f565b61033161032c36600461379a565b61078c565b005b600854610275565b61034e6103493660046136c5565b6108a6565b60405161027f91906137c6565b610331610369366004613a18565b610b59565b61027561037c36600461379a565b610b8a565b61033161038f366004613670565b610c20565b6102756103a2366004613a59565b610e09565b6103316103b5366004613a18565b610e30565b6102756103c83660046136c5565b610e4b565b6103e06103db36600461379a565b610ede565b60405161027f9190613a76565b6103316103fb3660046136c5565b610feb565b61027561040e366004613b4e565b61108a565b610275610421366004613670565b61135e565b6103066104343660046136c5565b61137a565b61034e6104473660046136c5565b6113da565b61027561045a366004613a59565b611466565b61033161046d366004613670565b6114ec565b6103316104803660046136c5565b61198d565b61029b6104933660046136c5565b611c68565b601554610306906001600160a01b031681565b6102e6611c73565b6102d16104c13660046136c5565b611c82565b6102d16104d43660046136c5565b611ce2565b6103316104e7366004613c22565b611e8e565b6103316104fa366004613c57565b611e99565b61033161050d366004613cde565b611ee1565b610275610520366004613670565b611f19565b610275610533366004613fa2565b611f35565b6102e66105463660046136c5565b61238e565b610331610559366004613670565b612402565b6102d161056c366004613a59565b612528565b6102d161057f3660046136c5565b6125c9565b61029b610592366004613fd6565b6001600160a01b03918216600090815260056020908152604080832093909416825291909152205460ff1690565b6103316105ce366004614004565b612629565b6102756105e1366004613670565b6128f7565b6102d16105f43660046136c5565b612913565b6019602052816000526040600020818154811061061557600080fd5b90600052602060002001600091509150505481565b60006001600160e01b0319821663780e9d6360e01b148061064f575061064f82612973565b92915050565b6018602052816000526040600020818154811061061557600080fd5b6000818152601860209081526040918290208054835181840281018401909452808452606093928301828280156106c757602002820191906000526020600020905b8154815260200190600101908083116106b3575b50505050509050919050565b6060600080546106e29061404a565b80601f016020809104026020016040519081016040528092919081815260200182805461070e9061404a565b801561075b5780601f106107305761010080835404028352916020019161075b565b820191906000526020600020905b81548152906001019060200180831161073e57829003601f168201915b5050505050905090565b6000610770826129c3565b506000908152600460205260409020546001600160a01b031690565b60006107978261137a565b9050806001600160a01b0316836001600160a01b0316036108095760405162461bcd60e51b815260206004820152602160248201527f4552433732313a20617070726f76616c20746f2063757272656e74206f776e656044820152603960f91b60648201526084015b60405180910390fd5b336001600160a01b038216148061082557506108258133610592565b6108975760405162461bcd60e51b815260206004820152603d60248201527f4552433732313a20617070726f76652063616c6c6572206973206e6f7420746f60448201527f6b656e206f776e6572206f7220617070726f76656420666f7220616c6c0000006064820152608401610800565b6108a18383612a13565b505050565b6108ae613525565b6108b782612a81565b6108d35760405162461bcd60e51b815260040161080090614084565b6000828152601b60205260409081902081516104c081019092528054829082906108fc9061404a565b80601f01602080910402602001604051908101604052809291908181526020018280546109289061404a565b80156109755780601f1061094a57610100808354040283529160200191610975565b820191906000526020600020905b81548152906001019060200180831161095857829003601f168201915b505050918352505060018201546020820152600282015460408201526003820154606082015260048201546080820152600582015460a0820152600682015460c0820152600782015460e08201526008820154610100808301919091526009830154610120830152600a830154610140830152600b830154610160830152600c830154610180830152600d8301546101a0830152600e8301546101c0830152600f8301546101e08301526010830154610200830152601183015461022083015260128301546102408301526013830154610260830152601483015461028083015260158301546102a083015260168301546102c083015260178301546102e083015260188301546103008301526019830154610320830152601a830154610340830152601b9092015460ff808216151561036084015292810483161515610380830152620100008104831615156103a083015263010000008104831615156103c08301526401000000008104831615156103e0830152600160281b810483161515610400830152600160301b810483161515610420830152600160381b810483161515610440830152600160401b810483161515610460830152600160481b810483161515610480830152600160501b900490911615156104a09091015292915050565b610b633382612a9e565b610b7f5760405162461bcd60e51b8152600401610800906140b2565b6108a1838383612b1c565b6000610b9583611466565b8210610bf75760405162461bcd60e51b815260206004820152602b60248201527f455243373231456e756d657261626c653a206f776e657220696e646578206f7560448201526a74206f6620626f756e647360a81b6064820152608401610800565b506001600160a01b03919091166000908152600660209081526040808320938352929052205490565b600b54811115610c675760405162461bcd60e51b815260206004820152601260248201527113585e081c1bda5b9d1cc81c995858da195960721b6044820152606401610800565b6000828152601b602081905260409091200154640100000000900460ff1680610ca957506000828152601b602081905260409091200154600160281b900460ff165b80610ccd57506000828152601b602081905260409091200154600160381b900460ff165b610d0e5760405162461bcd60e51b815260206004820152601260248201527113585e081c1bda5b9d1cc81c995858da195960721b6044820152606401610800565b6000828152601b602081905260409091200154640100000000900460ff1680610d5057506000828152601b602081905260409091200154600160381b900460ff165b15610d6e576000828152601b60205260409020601401819055610da5565b6000828152601b602081905260409091200154600160281b900460ff1615610da5576000828152601b602052604090206015018190555b6000828152601b6020526040902060148101546015909101547feb0459535a230602900381169fbc16d356c03aaccc2d5579b42d132d65ffa82a918491610dec9190614115565b604080519283526020830191909152015b60405180910390a15050565b6000610e19601d80546001019055565b6000610e24601d5490565b905061064f8382612c8d565b6108a183838360405180602001604052806000815250611ee1565b6000610e5660085490565b8210610eb95760405162461bcd60e51b815260206004820152602c60248201527f455243373231456e756d657261626c653a20676c6f62616c20696e646578206f60448201526b7574206f6620626f756e647360a01b6064820152608401610800565b60088281548110610ecc57610ecc614128565b90600052602060002001549050919050565b60606000610eeb84611466565b90506000816001600160401b03811115610f0757610f07613adf565b604051908082528060200260200182016040528015610f4057816020015b610f2d613652565b815260200190600190039081610f255790505b509050600080805b84811015610fdf57610f5a8882610b8a565b6000818152601b6020526040902060160154909350879003610fbf576040518060400160405280848152602001601b600086815260200190815260200160002060170154815250848381518110610fb357610fb3614128565b60200260200101819052505b81610fc98161413e565b9250508080610fd79061413e565b915050610f48565b50919695505050505050565b600181116110335760405162461bcd60e51b8152602060048201526015602482015274151bdad95b8818d85b9b9bdd08189948189d5c9b9d605a1b6044820152606401610800565b61103c81612a81565b61107e5760405162461bcd60e51b8152602060048201526013602482015272151bdad95b88191bd95cdb89dd08195e1a5cdd606a1b6044820152606401610800565b61108781612ca7565b50565b600080611096866113da565b9050806103a001516110de5760405162461bcd60e51b81526020600482015260116024820152704974656d206e6f74207061636b61626c6560781b6044820152606401610800565b838551146111225760405162461bcd60e51b8152602060048201526011602482015270496e76616c6964207061636b2073697a6560781b6044820152606401610800565b60005b855181101561124d5786601b600088848151811061114557611145614128565b60200260200101518152602001908152602001600020601901541461119b5760405162461bcd60e51b815260206004820152600c60248201526b496e76616c6964206974656d60a01b6044820152606401610800565b83601b60008884815181106111b2576111b2614128565b6020026020010151815260200190815260200160002060160154146112195760405162461bcd60e51b815260206004820152601f60248201527f4974656d20646f6573206e6f742062656c6f6e6720746f2066696768746572006044820152606401610800565b61123b86828151811061122e5761122e614128565b6020026020010151612ca7565b806112458161413e565b915050611125565b5061125c601d80546001019055565b601d5460135460405163620d1b0560e11b8152600481018690529193506112d9916001600160a01b039091169063c41a360a90602401602060405180830381865afa1580156112af573d6000803e3d6000fd5b505050506040513d601f19601f820116820180604052508101906112d39190614157565b83612c8d565b6112e38282612629565b6000828152601b60209081526040918290206001810185905560168101869055436017820155601a018690558151888152908101869052908101849052606081018390527ff23cada75feb5ca7eb08dc7495e2346ab23f1113a675f4d0a3bb2bcb3219cab09060800160405180910390a1505b949350505050565b6017602052816000526040600020818154811061061557600080fd5b6000818152600260205260408120546001600160a01b03168061064f5760405162461bcd60e51b8152602060048201526018602482015277115490cdcc8c4e881a5b9d985b1a59081d1bdad95b88125160421b6044820152606401610800565b6113e2613525565b601c5482106114295760405162461bcd60e51b8152602060048201526013602482015272125d195b48191bd95cc81b9bdd08195e1a5cdd606a1b6044820152606401610800565b601c828154811061143c5761143c614128565b90600052602060002090601c0201604051806104c00160405290816000820180546108fc9061404a565b60006001600160a01b0382166114d05760405162461bcd60e51b815260206004820152602960248201527f4552433732313a2061646472657373207a65726f206973206e6f7420612076616044820152683634b21037bbb732b960b91b6064820152608401610800565b506001600160a01b031660009081526003602052604090205490565b601c82815481106114ff576114ff614128565b90600052602060002090601c0201601b01600a9054906101000a900460ff166115745760405162461bcd60e51b815260206004820152602160248201527f4974656d206e6f7420696e2073686f70206f7220646f65736e277420657869736044820152601d60fa1b6064820152608401610800565b611582601d80546001019055565b600061158d601d5490565b60135460405163620d1b0560e11b815260048101859052919250611608916001600160a01b039091169063c41a360a906024015b602060405180830381865afa1580156115de573d6000803e3d6000fd5b505050506040513d601f19601f820116820180604052508101906116029190614157565b82612c8d565b6118a581601c858154811061161f5761161f614128565b90600052602060002090601c0201604051806104c00160405290816000820180546116499061404a565b80601f01602080910402602001604051908101604052809291908181526020018280546116759061404a565b80156116c25780601f10611697576101008083540402835291602001916116c2565b820191906000526020600020905b8154815290600101906020018083116116a557829003601f168201915b505050918352505060018201546020820152600282015460408201526003820154606082015260048201546080820152600582015460a0820152600682015460c0820152600782015460e08201526008820154610100808301919091526009830154610120830152600a830154610140830152600b830154610160830152600c830154610180830152600d8301546101a0830152600e8301546101c0830152600f8301546101e08301526010830154610200830152601183015461022083015260128301546102408301526013830154610260830152601483015461028083015260158301546102a083015260168301546102c083015260178301546102e083015260188301546103008301526019830154610320830152601a830154610340830152601b9092015460ff808216151561036084015292810483161515610380830152620100008104831615156103a083015263010000008104831615156103c08301526401000000008104831615156103e0830152600160281b810483161515610400830152600160301b810483161515610420830152600160381b810483161515610440830152600160401b810483161515610460830152600160481b810483161515610480830152600160501b900490911615156104a090910152612629565b6000818152601b60205260409081902060018101839055601981018590556016810184905543601790910155601354905163620d1b0560e11b8152600481018490527f78cb587a56a0dc7913ec51993eb7f7bf182fca207bd1460930bc912747387edd91839186916001600160a01b03169063c41a360a90602401602060405180830381865afa15801561193d573d6000803e3d6000fd5b505050506040513d601f19601f820116820180604052508101906119619190614157565b6000858152601b60205260409081902090516119809493929190614174565b60405180910390a1505050565b6000818152601b602052604080822081516104c081019092528054829082906119b59061404a565b80601f01602080910402602001604051908101604052809291908181526020018280546119e19061404a565b8015611a2e5780601f10611a0357610100808354040283529160200191611a2e565b820191906000526020600020905b815481529060010190602001808311611a1157829003601f168201915b505050918352505060018201546020820152600282015460408201526003820154606082015260048201546080820152600582015460a0820152600682015460c0820152600782015460e08201526008820154610100808301919091526009830154610120830152600a830154610140830152600b830154610160830152600c830154610180830152600d8301546101a0830152600e8301546101c0830152600f8301546101e08301526010830154610200830152601183015461022083015260128301546102408301526013830154610260830152601483015461028083015260158301546102a083015260168301546102c083015260178301546102e083015260188301546103008301526019830154610320830152601a830154610340830152601b9092015460ff808216151561036084015292810483161515610380830152620100008104831615156103a083015263010000008104831615156103c08301526401000000008104831615156103e0830152600160281b810483161515610400830152600160301b810483161515610420830152600160381b810483161515610440830152600160401b810483161515610460830152600160481b81048316151561048080840191909152600160501b90910490921615156104a090910152810151909150611c5b5760405162461bcd60e51b81526020600482015260156024820152744974656d206e6f74206120636f6e73756d61626c6560581b6044820152606401610800565b611c6482612ca7565b5050565b600061064f82612a81565b6060600180546106e29061404a565b6000818152601760209081526040918290208054835181840281018401909452808452606093928301828280156106c757602002820191906000526020600020908154815260200190600101908083116106b35750505050509050919050565b60606000611cef836108a6565b9050600181610340015111611d385760405162461bcd60e51b815260206004820152600f60248201526e125d195b481b9bdd081c1858dad959608a1b6044820152606401610800565b8061034001516001600160401b03811115611d5557611d55613adf565b604051908082528060200260200182016040528015611d7e578160200160208202803683370190505b50915060005b816103400151811015611e5457611d9f601d80546001019055565b6000611daa601d5490565b6013546102c085015160405163620d1b0560e11b8152929350611de9926001600160a01b039092169163c41a360a916115c19160040190815260200190565b611df38184612629565b6000818152601b6020526040902060018082018390556102c08501516016830155436017830155601a9091015583518190859084908110611e3657611e36614128565b60209081029190910101525080611e4c8161413e565b915050611d84565b506040518381527f0fad508c2e2420df470e18850d9a875076a51dc53e9b794e327a05f31340d78f9060200160405180910390a150919050565b611c64338383612d4a565b611ea282612a81565b611ebe5760405162461bcd60e51b815260040161080090614084565b6000828152600260205260409020546001600160a01b03166108a1818385612b1c565b611eeb3383612a9e565b611f075760405162461bcd60e51b8152600401610800906140b2565b611f1384848484612e18565b50505050565b601a602052816000526040600020818154811061061557600080fd5b601c80546001810182556000828152835190928492027f0e4562a10381dec21b205ed72637e6b1b523bdd0e4d4d50af5cd23dd4500a21101908190611f7a908261426b565b506020820151816001015560408201518160020155606082015181600301556080820151816004015560a0820151816005015560c0820151816006015560e082015181600701556101008201518160080155610120820151816009015561014082015181600a015561016082015181600b015561018082015181600c01556101a082015181600d01556101c082015181600e01556101e082015181600f0155610200820151816010015561022082015181601101556102408201518160120155610260820151816013015561028082015181601401556102a082015181601501556102c082015181601601556102e082015181601701556103008201518160180155610320820151816019015561034082015181601a015561036082015181601b0160006101000a81548160ff02191690831515021790555061038082015181601b0160016101000a81548160ff0219169083151502179055506103a082015181601b0160026101000a81548160ff0219169083151502179055506103c082015181601b0160036101000a81548160ff0219169083151502179055506103e082015181601b0160046101000a81548160ff02191690831515021790555061040082015181601b0160056101000a81548160ff02191690831515021790555061042082015181601b0160066101000a81548160ff02191690831515021790555061044082015181601b0160076101000a81548160ff02191690831515021790555061046082015181601b0160086101000a81548160ff02191690831515021790555061048082015181601b0160096101000a81548160ff0219169083151502179055506104a082015181601b01600a6101000a81548160ff021916908315150217905550505060006001601c80549050612213919061432a565b905080601c828154811061222957612229614128565b90600052602060002090601c020160190181905550826103e00151156122755761030083015160009081526016602090815260408220805460018101825590835291200181905561234d565b826104000151156122ac5761030083015160009081526017602090815260408220805460018101825590835291200181905561234d565b826104200151156122e35761030083015160009081526018602090815260408220805460018101825590835291200181905561234d565b8261046001511561231a576103008301516000908152601a602090815260408220805460018101825590835291200181905561234d565b8261044001511561234d576103008301516000908152601960209081526040822080546001810182559083529120018190555b82516040517f0538ce8dba67be446d1a480a6e48683b27c6efb61d7c01d60767e15705e5d00f916123809184919061433d565b60405180910390a192915050565b6060612399826129c3565b60006123b060408051602081019091526000815290565b905060008151116123d057604051806020016040528060008152506123fb565b806123da84612e4b565b6040516020016123eb929190614356565b6040516020818303038152906040525b9392505050565b6000828152601b602052604090206003015481111561245c5760405162461bcd60e51b815260206004820152601660248201527513585e081a5d195b481b195d995b081c995858da195960521b6044820152606401610800565b6000828152601b6020526040902060020154612479906001614115565b8111156124dd5760405162461bcd60e51b815260206004820152602c60248201527f4974656d2063616e2062652075706772616465206f6e65206c6576656c20617460448201526b20612074696d65206f6e6c7960a01b6064820152608401610800565b6000828152601b602090815260409182902060020183905581518481529081018390527f535fb4315d70f1b2d62609c85f8b9cd714e3687d6cee1a46ff7947f852bf71649101610dfd565b6060600061253583611466565b90506000816001600160401b0381111561255157612551613adf565b60405190808252806020026020018201604052801561257a578160200160208202803683370190505b50905060005b828110156125c1576125928582610b8a565b8282815181106125a4576125a4614128565b6020908102919091010152806125b98161413e565b915050612580565b509392505050565b6000818152601660209081526040918290208054835181840281018401909452808452606093928301828280156106c757602002820191906000526020600020908154815260200190600101908083116106b35750505050509050919050565b61263282612a81565b61264e5760405162461bcd60e51b815260040161080090614084565b6000828152601b602052604090208151829190819061266d908261426b565b506020820151816001015560408201518160020155606082015181600301556080820151816004015560a0820151816005015560c0820151816006015560e082015181600701556101008201518160080155610120820151816009015561014082015181600a015561016082015181600b015561018082015181600c01556101a082015181600d01556101c082015181600e01556101e082015181600f0155610200820151816010015561022082015181601101556102408201518160120155610260820151816013015561028082015181601401556102a082015181601501556102c082015181601601556102e082015181601701556103008201518160180155610320820151816019015561034082015181601a015561036082015181601b0160006101000a81548160ff02191690831515021790555061038082015181601b0160016101000a81548160ff0219169083151502179055506103a082015181601b0160026101000a81548160ff0219169083151502179055506103c082015181601b0160036101000a81548160ff0219169083151502179055506103e082015181601b0160046101000a81548160ff02191690831515021790555061040082015181601b0160056101000a81548160ff02191690831515021790555061042082015181601b0160066101000a81548160ff02191690831515021790555061044082015181601b0160076101000a81548160ff02191690831515021790555061046082015181601b0160086101000a81548160ff02191690831515021790555061048082015181601b0160096101000a81548160ff0219169083151502179055506104a082015181601b01600a6101000a81548160ff0219169083151502179055509050505050565b6016602052816000526040600020818154811061061557600080fd5b6000818152601a60209081526040918290208054835181840281018401909452808452606093928301828280156106c757602002820191906000526020600020908154815260200190600101908083116106b35750505050509050919050565b60006001600160e01b031982166380ac58cd60e01b14806129a457506001600160e01b03198216635b5e139f60e01b145b8061064f57506301ffc9a760e01b6001600160e01b031983161461064f565b6129cc81612a81565b6110875760405162461bcd60e51b8152602060048201526018602482015277115490cdcc8c4e881a5b9d985b1a59081d1bdad95b88125160421b6044820152606401610800565b600081815260046020526040902080546001600160a01b0319166001600160a01b0384169081179091558190612a488261137a565b6001600160a01b03167f8c5be1e5ebec7d5bd14f71427d1e84f3dd0314c0f7b2291e5b200ac8c7c3b92560405160405180910390a45050565b6000908152600260205260409020546001600160a01b0316151590565b600080612aaa8361137a565b9050806001600160a01b0316846001600160a01b03161480612af157506001600160a01b0380821660009081526005602090815260408083209388168352929052205460ff165b806113565750836001600160a01b0316612b0a84610765565b6001600160a01b031614949350505050565b826001600160a01b0316612b2f8261137a565b6001600160a01b031614612b555760405162461bcd60e51b815260040161080090614385565b6001600160a01b038216612bb75760405162461bcd60e51b8152602060048201526024808201527f4552433732313a207472616e7366657220746f20746865207a65726f206164646044820152637265737360e01b6064820152608401610800565b612bc48383836001612edd565b826001600160a01b0316612bd78261137a565b6001600160a01b031614612bfd5760405162461bcd60e51b815260040161080090614385565b600081815260046020908152604080832080546001600160a01b03199081169091556001600160a01b0387811680865260038552838620805460001901905590871680865283862080546001019055868652600290945282852080549092168417909155905184937fddf252ad1be2c89b69c2b068fc378daa952ba7f163c4a11628f55a4df523b3ef91a4505050565b611c64828260405180602001604052806000815250613011565b6000612cb28261137a565b9050612cc2816000846001612edd565b612ccb8261137a565b600083815260046020908152604080832080546001600160a01b03199081169091556001600160a01b0385168085526003845282852080546000190190558785526002909352818420805490911690555192935084927fddf252ad1be2c89b69c2b068fc378daa952ba7f163c4a11628f55a4df523b3ef908390a45050565b816001600160a01b0316836001600160a01b031603612dab5760405162461bcd60e51b815260206004820152601960248201527f4552433732313a20617070726f766520746f2063616c6c6572000000000000006044820152606401610800565b6001600160a01b03838116600081815260056020908152604080832094871680845294825291829020805460ff191686151590811790915591519182527f17307eab39ab6107e8899845ad3d59bd9653f200f220920489ca2b5937696c31910160405180910390a3505050565b612e23848484612b1c565b612e2f84848484613044565b611f135760405162461bcd60e51b8152600401610800906143ca565b60606000612e5883613142565b60010190506000816001600160401b03811115612e7757612e77613adf565b6040519080825280601f01601f191660200182016040528015612ea1576020820181803683370190505b5090508181016020015b600019016f181899199a1a9b1b9c1cb0b131b232b360811b600a86061a8153600a8504945084612eab57509392505050565b6001811115612f4c5760405162461bcd60e51b815260206004820152603560248201527f455243373231456e756d657261626c653a20636f6e7365637574697665207472604482015274185b9cd9995c9cc81b9bdd081cdd5c1c1bdc9d1959605a1b6064820152608401610800565b816001600160a01b038516612fa857612fa381600880546000838152600960205260408120829055600182018355919091527ff3f7a9fe364faab93b216da50a3214154f22a0a2b415b23a84c8169e8b636ee30155565b612fcb565b836001600160a01b0316856001600160a01b031614612fcb57612fcb858261321a565b6001600160a01b038416612fe757612fe2816132b7565b61300a565b846001600160a01b0316846001600160a01b03161461300a5761300a8482613366565b5050505050565b61301b83836133aa565b6130286000848484613044565b6108a15760405162461bcd60e51b8152600401610800906143ca565b60006001600160a01b0384163b1561313a57604051630a85bd0160e11b81526001600160a01b0385169063150b7a029061308890339089908890889060040161441c565b6020604051808303816000875af19250505080156130c3575060408051601f3d908101601f191682019092526130c091810190614459565b60015b613120573d8080156130f1576040519150601f19603f3d011682016040523d82523d6000602084013e6130f6565b606091505b5080516000036131185760405162461bcd60e51b8152600401610800906143ca565b805181602001fd5b6001600160e01b031916630a85bd0160e11b149050611356565b506001611356565b60008072184f03e93ff9f4daa797ed6e38ed64bf6a1f0160401b83106131815772184f03e93ff9f4daa797ed6e38ed64bf6a1f0160401b830492506040015b6d04ee2d6d415b85acef810000000083106131ad576d04ee2d6d415b85acef8100000000830492506020015b662386f26fc1000083106131cb57662386f26fc10000830492506010015b6305f5e10083106131e3576305f5e100830492506008015b61271083106131f757612710830492506004015b60648310613209576064830492506002015b600a831061064f5760010192915050565b6000600161322784611466565b613231919061432a565b600083815260076020526040902054909150808214613284576001600160a01b03841660009081526006602090815260408083208584528252808320548484528184208190558352600790915290208190555b5060009182526007602090815260408084208490556001600160a01b039094168352600681528383209183525290812055565b6008546000906132c99060019061432a565b600083815260096020526040812054600880549394509092849081106132f1576132f1614128565b90600052602060002001549050806008838154811061331257613312614128565b600091825260208083209091019290925582815260099091526040808220849055858252812055600880548061334a5761334a614476565b6001900381819060005260206000200160009055905550505050565b600061337183611466565b6001600160a01b039093166000908152600660209081526040808320868452825280832085905593825260079052919091209190915550565b6001600160a01b0382166134005760405162461bcd60e51b815260206004820181905260248201527f4552433732313a206d696e7420746f20746865207a65726f20616464726573736044820152606401610800565b61340981612a81565b156134565760405162461bcd60e51b815260206004820152601c60248201527f4552433732313a20746f6b656e20616c7265616479206d696e746564000000006044820152606401610800565b613464600083836001612edd565b61346d81612a81565b156134ba5760405162461bcd60e51b815260206004820152601c60248201527f4552433732313a20746f6b656e20616c7265616479206d696e746564000000006044820152606401610800565b6001600160a01b038216600081815260036020908152604080832080546001019055848352600290915280822080546001600160a01b0319168417905551839291907fddf252ad1be2c89b69c2b068fc378daa952ba7f163c4a11628f55a4df523b3ef908290a45050565b604051806104c001604052806060815260200160008152602001600081526020016000815260200160008152602001600081526020016000815260200160008152602001600081526020016000815260200160008152602001600081526020016000815260200160008152602001600081526020016000815260200160008152602001600081526020016000815260200160008152602001600081526020016000815260200160008152602001600081526020016000815260200160008152602001600081526020016000151581526020016000151581526020016000151581526020016000151581526020016000151581526020016000151581526020016000151581526020016000151581526020016000151581526020016000151581526020016000151581525090565b60405180604001604052806002906020820280368337509192915050565b6000806040838503121561368357600080fd5b50508035926020909101359150565b6001600160e01b03198116811461108757600080fd5b6000602082840312156136ba57600080fd5b81356123fb81613692565b6000602082840312156136d757600080fd5b5035919050565b6020808252825182820181905260009190848201906040850190845b81811015613716578351835292840192918401916001016136fa565b50909695505050505050565b60005b8381101561373d578181015183820152602001613725565b50506000910152565b6000815180845261375e816020860160208601613722565b601f01601f19169290920160200192915050565b6020815260006123fb6020830184613746565b6001600160a01b038116811461108757600080fd5b600080604083850312156137ad57600080fd5b82356137b881613785565b946020939093013593505050565b60208152600082516104c08060208501526137e56104e0850183613746565b602086015160408681019190915286015160608087019190915286015160808087019190915286015160a08087019190915286015160c08087019190915286015160e08087019190915286015161010080870191909152860151610120808701919091528601516101408087019190915286015161016080870191909152860151610180808701919091528601516101a0808701919091528601516101c0808701919091528601516101e08087019190915286015161020080870191909152860151610220808701919091528601516102408087019190915286015161026080870191909152860151610280808701919091528601516102a0808701919091528601516102c0808701919091528601516102e080870191909152860151610300808701919091528601516103208087019190915286015161034080870191909152860151610360808701919091528601519092506103806139498187018315159052565b86015190506103a061395e8682018315159052565b86015190506103c06139738682018315159052565b86015190506103e06139888682018315159052565b860151905061040061399d8682018315159052565b86015190506104206139b28682018315159052565b86015190506104406139c78682018315159052565b86015190506104606139dc8682018315159052565b86015190506104806139f18682018315159052565b86015190506104a0613a068682018315159052565b90950151151593019290925250919050565b600080600060608486031215613a2d57600080fd5b8335613a3881613785565b92506020840135613a4881613785565b929592945050506040919091013590565b600060208284031215613a6b57600080fd5b81356123fb81613785565b60208082528251828201819052600091906040908185019086840185805b83811015613ad157825185835b6002811015613abe57825182529189019190890190600101613aa1565b5050509385019391860191600101613a94565b509298975050505050505050565b634e487b7160e01b600052604160045260246000fd5b6040516104c081016001600160401b0381118282101715613b1857613b18613adf565b60405290565b604051601f8201601f191681016001600160401b0381118282101715613b4657613b46613adf565b604052919050565b60008060008060808587031215613b6457600080fd5b843593506020808601356001600160401b0380821115613b8357600080fd5b818801915088601f830112613b9757600080fd5b813581811115613ba957613ba9613adf565b8060051b9150613bba848301613b1e565b818152918301840191848101908b841115613bd457600080fd5b938501935b83851015613bf257843582529385019390850190613bd9565b989b989a505050506040870135966060013595945050505050565b80358015158114613c1d57600080fd5b919050565b60008060408385031215613c3557600080fd5b8235613c4081613785565b9150613c4e60208401613c0d565b90509250929050565b60008060408385031215613c6a57600080fd5b823591506020830135613c7c81613785565b809150509250929050565b60006001600160401b03831115613ca057613ca0613adf565b613cb3601f8401601f1916602001613b1e565b9050828152838383011115613cc757600080fd5b828260208301376000602084830101529392505050565b60008060008060808587031215613cf457600080fd5b8435613cff81613785565b93506020850135613d0f81613785565b92506040850135915060608501356001600160401b03811115613d3157600080fd5b8501601f81018713613d4257600080fd5b613d5187823560208401613c87565b91505092959194509250565b600082601f830112613d6e57600080fd5b6123fb83833560208501613c87565b60006104c08284031215613d9057600080fd5b613d98613af5565b905081356001600160401b03811115613db057600080fd5b613dbc84828501613d5d565b8252506020828101359082015260408083013590820152606080830135908201526080808301359082015260a0808301359082015260c0808301359082015260e08083013590820152610100808301359082015261012080830135908201526101408083013590820152610160808301359082015261018080830135908201526101a080830135908201526101c080830135908201526101e08083013590820152610200808301359082015261022080830135908201526102408083013590820152610260808301359082015261028080830135908201526102a080830135908201526102c080830135908201526102e08083013590820152610300808301359082015261032080830135908201526103408083013590820152610360613ee4818401613c0d565b90820152610380613ef6838201613c0d565b908201526103a0613f08838201613c0d565b908201526103c0613f1a838201613c0d565b908201526103e0613f2c838201613c0d565b90820152610400613f3e838201613c0d565b90820152610420613f50838201613c0d565b90820152610440613f62838201613c0d565b90820152610460613f74838201613c0d565b90820152610480613f86838201613c0d565b908201526104a0613f98838201613c0d565b9082015292915050565b600060208284031215613fb457600080fd5b81356001600160401b03811115613fca57600080fd5b61135684828501613d7d565b60008060408385031215613fe957600080fd5b8235613ff481613785565b91506020830135613c7c81613785565b6000806040838503121561401757600080fd5b8235915060208301356001600160401b0381111561403457600080fd5b61404085828601613d7d565b9150509250929050565b600181811c9082168061405e57607f821691505b60208210810361407e57634e487b7160e01b600052602260045260246000fd5b50919050565b602080825260149082015273151bdad95b88191bd95cc81b9bdd08195e1a5cdd60621b604082015260600190565b6020808252602d908201527f4552433732313a2063616c6c6572206973206e6f7420746f6b656e206f776e6560408201526c1c881bdc88185c1c1c9bdd9959609a1b606082015260800190565b634e487b7160e01b600052601160045260246000fd5b8082018082111561064f5761064f6140ff565b634e487b7160e01b600052603260045260246000fd5b600060018201614150576141506140ff565b5060010190565b60006020828403121561416957600080fd5b81516123fb81613785565b84815260006020858184015260018060a01b038516604084015260806060840152600084546141a28161404a565b80608087015260a06001808416600081146141c457600181146141de5761420c565b60ff1985168984015283151560051b89018301955061420c565b896000528660002060005b858110156142045781548b82018601529083019088016141e9565b8a0184019650505b50939b9a5050505050505050505050565b601f8211156108a157600081815260208120601f850160051c810160208610156142445750805b601f850160051c820191505b8181101561426357828155600101614250565b505050505050565b81516001600160401b0381111561428457614284613adf565b61429881614292845461404a565b8461421d565b602080601f8311600181146142cd57600084156142b55750858301515b600019600386901b1c1916600185901b178555614263565b600085815260208120601f198616915b828110156142fc578886015182559484019460019091019084016142dd565b508582101561431a5787850151600019600388901b60f8161c191681555b5050505050600190811b01905550565b8181038181111561064f5761064f6140ff565b8281526040602082015260006113566040830184613746565b60008351614368818460208801613722565b83519083019061437c818360208801613722565b01949350505050565b60208082526025908201527f4552433732313a207472616e736665722066726f6d20696e636f72726563742060408201526437bbb732b960d91b606082015260800190565b60208082526032908201527f4552433732313a207472616e7366657220746f206e6f6e20455243373231526560408201527131b2b4bb32b91034b6b83632b6b2b73a32b960711b606082015260800190565b6001600160a01b038581168252841660208201526040810183905260806060820181905260009061444f90830184613746565b9695505050505050565b60006020828403121561446b57600080fd5b81516123fb81613692565b634e487b7160e01b600052603160045260246000fdfea26469706673582212200ae2f1a6e428edba9c7c28bd3d2bc33e93c3cf94b90b259a0e9006b467c08b3e64736f6c634300081300334552433732313a207472616e7366657220746f206e6f6e204552433732315265",
  "immutableReferences": {},
  "source": "// SPDX-License-Identifier: MIT\npragma solidity ^0.8.18;\n\nimport \"@openzeppelin/contracts/token/ERC721/ERC721.sol\";\nimport \"@openzeppelin/contracts/token/ERC721/extensions/ERC721Enumerable.sol\";\nimport \"@openzeppelin/contracts/utils/Counters.sol\";\n\nimport \"./SafeMath.sol\";\nimport \"./ItemsAtts.sol\";\nimport \"./FightersHelper.sol\";\nimport \"./MoneyHelper.sol\";\n\ncontract Items is ERC721Enumerable, ItemsAtts {\n    using Counters for Counters.Counter;\n    FightersHelper private _fightersHelper;\n    MoneyHelper private _moneyHelper;\n\n    address public owner;\n\n    constructor(address fightersHelperContract, address moneyHelperContract) ERC721(\"MRIUSD\", \"Item\") {\n        owner = msg.sender;\n        _fightersHelper = FightersHelper(fightersHelperContract);  \n        _moneyHelper = MoneyHelper(moneyHelperContract);\n\n        // create empty item\n        ItemAttributes memory emptyAtts;\n        emptyAtts.name = \"Empty item\";\n        createItem(emptyAtts);\n        generateInitialTokens(emptyAtts);\n\n        // create item for gold\n        emptyAtts.name = \"Gold\";\n        createItem(emptyAtts);\n        generateInitialTokens(emptyAtts);\n    }\n\n\n    mapping (uint256 => uint256[]) public Weapons; // mapping of rarityLevel => tokenId[]\n    mapping (uint256 => uint256[]) public Armours; // mapping of rarityLevel => tokenId[]\n    mapping (uint256 => uint256[]) public Jewels; // mapping of rarityLevel => tokenId[]\n    mapping (uint256 => uint256[]) public Wings; // mapping of rarityLevel => tokenId[]\n    mapping (uint256 => uint256[]) public Misc; // mapping of rarityLevel => tokenId[]\n\n    // mapping (bytes32 => uint256) public dropHashes;\n\n    function getWeapons(uint256 rarityLevel) public view returns(uint256[] memory) {\n        return Weapons[rarityLevel];\n    }\n    function getArmours(uint256 rarityLevel) public view returns(uint256[] memory) {\n        return Armours[rarityLevel];\n    }\n    function getJewels(uint256 rarityLevel) public view returns(uint256[] memory) {\n        return Jewels[rarityLevel];\n    }\n    function getMisc(uint256 rarityLevel) public view returns(uint256[] memory) {\n        return Misc[rarityLevel];\n    }\n\n\n    event ItemGenerated(uint256 itemId, string name);\n    event LogError(uint8, uint256);\n    \n    event ItemCrafted(uint256 tokenId, address owner);\n    event ItemBoughtFromShop(uint256 tokenId, uint256 itemId, address owner, string itemName);\n\n    event ItemLevelUpgrade(uint256 tokenId, uint256 newLevel);\n    event ItemAddPointsUpdate(uint256 tokenId, uint256 newAddPoints);\n\n    function setAdditionalPoints(uint256 tokenId, uint256 points) external {\n        require(points <= maxAdditionalPoints, \"Max points reached\");\n        require(_tokenAttributes[tokenId].isWeapon || _tokenAttributes[tokenId].isArmour || _tokenAttributes[tokenId].isWings , \"Max points reached\");\n        if (_tokenAttributes[tokenId].isWeapon || _tokenAttributes[tokenId].isWings) {\n            _tokenAttributes[tokenId].additionalDamage = points;\n        } else if (_tokenAttributes[tokenId].isArmour) { \n            _tokenAttributes[tokenId].additionalDefense = points;\n        } \n\n        emit ItemAddPointsUpdate(tokenId, _tokenAttributes[tokenId].additionalDefense + _tokenAttributes[tokenId].additionalDamage);\n    }\n\n    function generateInitialTokens(ItemAttributes memory itemAtts) internal {\n        _tokenIdCounter.increment();\n        uint256 newTokenId = _tokenIdCounter.current();\n\n        _safeMint(msg.sender, newTokenId);\n        _setTokenAttributes(newTokenId, itemAtts);\n\n        _tokenAttributes[newTokenId].tokenId = newTokenId;      \n        _tokenAttributes[newTokenId].fighterId = 0;      \n        _tokenAttributes[newTokenId].lastUpdBlock = block.number; \n    }\n\n    function setItemLevel(uint256 tokenId, uint256 level)  external {\n        require(level <= _tokenAttributes[tokenId].maxLevel, \"Max item level reached\");\n        require(level <= _tokenAttributes[tokenId].itemLevel+1, \"Item can be upgrade one level at a time only\");\n\n        _tokenAttributes[tokenId].itemLevel = level;\n        emit ItemLevelUpgrade(tokenId, _tokenAttributes[tokenId].itemLevel);  \n    }\n\n    function burnItem(uint256 tokenId) external {\n        require(tokenId > 1, \"Token cannot be burnt\");\n        require(_exists(tokenId), \"Token doesn't exist\");\n        _burn(tokenId);\n    }  \n\n    function safeMint(address ownerAddres) external returns (uint256) {\n        _tokenIdCounter.increment();\n        uint256 newTokenId = _tokenIdCounter.current();\n        _safeMint(ownerAddres, newTokenId);\n\n        return newTokenId;\n    }\n\n    function setTokenAttributes(uint256 tokenId, ItemAttributes memory atts) external {\n        require(_exists(tokenId), \"Token does not exist\");\n        _tokenAttributes[tokenId] = atts;\n    }\n\n    function itemExists(uint256 tokenId) public view returns(bool) {\n        return _exists(tokenId);\n    }\n\n    function createItem(ItemAttributes memory atts) public returns (uint256 tokenId) {                \n        _itemAttributes.push(atts);   \n         uint256 itemId = _itemAttributes.length - 1;   \n         _itemAttributes[itemId].itemAttributesId = itemId;\n\n         if (atts.isWeapon) {\n            Weapons[atts.itemRarityLevel].push(itemId);\n         } else if (atts.isArmour) {\n            Armours[atts.itemRarityLevel].push(itemId);\n         } else if (atts.isJewel) {\n            Jewels[atts.itemRarityLevel].push(itemId);\n         } else if (atts.isMisc) {\n            Misc[atts.itemRarityLevel].push(itemId);\n         } else if (atts.isWings) {\n            Wings[atts.itemRarityLevel].push(itemId);\n         }\n\n        emit ItemGenerated(itemId, atts.name);\n        return itemId;\n    }\n\n    function transferItem(uint256 tokenId, address to) external {\n        require(_exists(tokenId), \"Token does not exist\");\n        address from = _ownerOf(tokenId);\n        _transfer(from, to, tokenId);\n    }   \n\n    event PackedItems(uint256 itemId, uint256 packSize, uint256 fighterId, uint256 newTokenId);\n    event UnpackedItems(uint256 tokenId);\n\n    function packItems(uint256 itemId, uint256[] memory tokenIds, uint256 packSize, uint256 fighterId) external returns (uint256 newTokenId) {\n        ItemAttributes memory atts = getItemAttributes(itemId);\n        require(atts.isPackable, \"Item not packable\");\n\n        // Ensure that the number of tokens is equal to the packSize\n        require(tokenIds.length == packSize, \"Invalid pack size\");\n        \n        for (uint i = 0; i < tokenIds.length; i++) {\n            // Check that each tokenId has an associated itemAttributeId equal to itemId\n            require(_tokenAttributes[tokenIds[i]].itemAttributesId == itemId, \"Invalid item\");\n            require(_tokenAttributes[tokenIds[i]].fighterId == fighterId, \"Item does not belong to fighter\");\n\n            _burn(tokenIds[i]);\n        }\n\n        _tokenIdCounter.increment();\n        newTokenId = _tokenIdCounter.current();\n        _safeMint(_fightersHelper.getOwner(fighterId), newTokenId);\n\n        _setTokenAttributes(newTokenId, atts);\n\n        _tokenAttributes[newTokenId].tokenId = newTokenId;      \n        _tokenAttributes[newTokenId].fighterId = fighterId;      \n        _tokenAttributes[newTokenId].lastUpdBlock = block.number; \n        _tokenAttributes[newTokenId].packSize = packSize; \n\n        emit PackedItems(itemId, packSize, fighterId, newTokenId);\n\n        // Return the ItemAttributes object\n        return newTokenId;\n    }\n\n    function unpackItems(uint256 tokenId) external returns(uint256[] memory tokenIds) {\n        ItemAttributes memory atts = getTokenAttributes(tokenId);\n        require(atts.packSize > 1, \"Item not packed\");\n\n        // Initialize tokenIds with size atts.packSize\n        tokenIds = new uint256[](atts.packSize);\n\n        for (uint i = 0; i < atts.packSize; i++) {\n            _tokenIdCounter.increment();\n            uint256 newTokenId = _tokenIdCounter.current();\n            _safeMint(_fightersHelper.getOwner(atts.fighterId), newTokenId);\n\n            _setTokenAttributes(newTokenId, atts);\n\n            _tokenAttributes[newTokenId].tokenId = newTokenId;      \n            _tokenAttributes[newTokenId].fighterId = atts.fighterId;      \n            _tokenAttributes[newTokenId].lastUpdBlock = block.number; \n            _tokenAttributes[newTokenId].packSize = 1; \n\n            tokenIds[i] = newTokenId;\n        }\n\n        emit UnpackedItems(tokenId);\n\n        return tokenIds;\n\n    }\n\n    // function craftItem(uint256 itemId, address itemOwner, uint256 maxLevel, uint256 maxAddPoints) public returns (uint256) {\n    //     require(_itemAttributes.length > itemId, \"Item attributes not found\");\n    //     ItemAttributes memory itemAtts = _itemAttributes[itemId];\n\n    //     if ((itemAtts.isWeapon || itemAtts.isArmour) && getRandomNumber(50) < luckDropRate)\n    //     {\n    //         itemAtts.luck = true;\n\n    //     }\n\n    //     if (itemAtts.isWeapon && getRandomNumber(51) < skillDropRate)\n    //     {\n    //         itemAtts.skill = true;\n    //     }\n\n    //     if (itemAtts.isWeapon || itemAtts.isArmour)\n    //     {\n    //         if (maxLevel > 0)\n    //         {\n    //             itemAtts.itemLevel = getRandomNumber(53) % (maxLevel + 1);\n    //         }\n\n    //         if (maxAddPoints > 0)\n    //         {\n    //             if (itemAtts.isWeapon) {\n    //                 itemAtts.additionalDamage = (getRandomNumber(54) % (maxAddPoints/4 + 1)) * 4;\n    //             } else if (itemAtts.isArmour) {\n    //                 itemAtts.additionalDefense = (getRandomNumber(54) % (maxAddPoints/4 + 1)) * 4;\n    //             }\n    //         }                \n    //     }        \n\n    //     _tokenIdCounter.increment();\n    //     uint256 newTokenId = _tokenIdCounter.current();\n        \n    //     _safeMint(itemOwner, newTokenId);\n \n    //     _setTokenAttributes(newTokenId, itemAtts);\n\n    //     _tokenAttributes[newTokenId].tokenId = newTokenId;      \n    //     _tokenAttributes[newTokenId].itemAttributesId = itemId;      \n    //     _tokenAttributes[newTokenId].fighterId = 0;      \n    //     _tokenAttributes[newTokenId].lastUpdBlock = block.number; \n\n    //     emit ItemCrafted(newTokenId, itemOwner);\n\n    //     return newTokenId;\n    // }     \n\n    // function getWeaponsLength(uint256 rarityLevel) public view returns (uint256) {\n    //     return Weapons[rarityLevel].length;\n    // }\n\n    // function getArmoursLength(uint256 rarityLevel) public view returns (uint256) {\n    //     return Armours[rarityLevel].length;\n    // }\n\n    // function getJewelsLength(uint256 rarityLevel) public view returns (uint256) {\n    //     return Jewels[rarityLevel].length;\n    // }\n\n    // function getMiscsLength(uint256 rarityLevel) public view returns (uint256) {\n    //     return Misc[rarityLevel].length;\n    // }    \n\n    function buyItemFromShop(uint256 itemId, uint256 fighterId) external {\n        require(_itemAttributes[itemId].inShop, \"Item not in shop or doesn't exist\");\n\n        // money logic\n\n        _tokenIdCounter.increment();\n        uint256 tokenId = _tokenIdCounter.current();\n        _safeMint(_fightersHelper.getOwner(fighterId), tokenId);\n        _setTokenAttributes(tokenId, _itemAttributes[itemId]);\n\n        _tokenAttributes[tokenId].tokenId = tokenId;      \n        _tokenAttributes[tokenId].itemAttributesId = itemId;      \n        _tokenAttributes[tokenId].fighterId = fighterId;      \n        _tokenAttributes[tokenId].lastUpdBlock = block.number;      \n\n        emit ItemBoughtFromShop(tokenId, itemId, _fightersHelper.getOwner(fighterId), _tokenAttributes[tokenId].name);\n    }\n\n    // Get the attributes for a fighter NFT\n    function getTokenAttributes(uint256 tokenId) public view returns (ItemAttributes memory) {\n        require(_exists(tokenId), \"Token does not exist\");\n\n        return _tokenAttributes[tokenId];\n    }\n\n    // Get the attributes for a fighter NFT\n    function getItemAttributes(uint256 itemId) public view returns (ItemAttributes memory) {\n        require(_itemAttributes.length > itemId, \"Item does not exist\");\n\n        return _itemAttributes[itemId];\n    }\n\n    function burnConsumable(uint256 tokenId) external {\n        ItemAttributes memory atts = _tokenAttributes[tokenId];\n\n        require(atts.isConsumable, \"Item not a consumable\");\n        _burn(tokenId);\n    }\n\n    mapping (uint256 => ItemAttributes) private _tokenAttributes;\n    ItemAttributes[] private _itemAttributes;\n    Counters.Counter private _tokenIdCounter;\n\n    ItemAttributes boxAttributes;\n\n\n\n    function getUserItems(address userAddress) external view returns (uint256[] memory) {\n        \n        uint256 numTokens = balanceOf(userAddress);\n        uint256[] memory tokenIds = new uint256[](numTokens);\n\n        for (uint256 i = 0; i < numTokens; i++) {\n            tokenIds[i] = tokenOfOwnerByIndex(userAddress, i);\n        }\n\n        return tokenIds;\n    }\n\n\n    function getFighterItems(address userAddress, uint256 fighterId) external view returns (uint256[2][] memory) {\n        \n        uint256 numTokens = balanceOf(userAddress);\n        uint256[2][] memory tokenIds = new uint256[2][](numTokens);\n\n        uint256 id;\n        uint counter = 0;\n\n        for (uint256 i = 0; i < numTokens; i++) {\n            id = tokenOfOwnerByIndex(userAddress, i);\n            if (_tokenAttributes[id].fighterId == fighterId)\n            {\n                tokenIds[counter] = [id, _tokenAttributes[id].lastUpdBlock];\n            }\n            \n            counter++;\n        }\n\n        return tokenIds;\n    }\n\n\n    function _setTokenAttributes(uint256 tokenId, ItemAttributes memory attrs) internal {\n        require(_exists(tokenId), \"Token does not exist\");\n\n        _tokenAttributes[tokenId] = attrs;\n    }\n\n}",
  "sourcePath": "/Users/max/Documents/prog/game-contracts/contracts/Items.sol",
  "compiler": {
    "name": "solc",
    "version": "0.8.19+commit.7dd6d404.Emscripten.clang"
  },
  "schemaVersion": "3.4.13",
  "updatedAt": "2023-08-06T07:11:13.378Z",
  "networkType": "ethereum",
  "devdoc": {
    "events": {
      "Approval(address,address,uint256)": {
        "details": "Emitted when `owner` enables `approved` to manage the `tokenId` token."
      },
      "ApprovalForAll(address,address,bool)": {
        "details": "Emitted when `owner` enables or disables (`approved`) `operator` to manage all of its assets."
      },
      "Transfer(address,address,uint256)": {
        "details": "Emitted when `tokenId` token is transferred from `from` to `to`."
      }
    },
    "kind": "dev",
    "methods": {
      "approve(address,uint256)": {
        "details": "See {IERC721-approve}."
      },
      "balanceOf(address)": {
        "details": "See {IERC721-balanceOf}."
      },
      "getApproved(uint256)": {
        "details": "See {IERC721-getApproved}."
      },
      "isApprovedForAll(address,address)": {
        "details": "See {IERC721-isApprovedForAll}."
      },
      "name()": {
        "details": "See {IERC721Metadata-name}."
      },
      "ownerOf(uint256)": {
        "details": "See {IERC721-ownerOf}."
      },
      "safeTransferFrom(address,address,uint256)": {
        "details": "See {IERC721-safeTransferFrom}."
      },
      "safeTransferFrom(address,address,uint256,bytes)": {
        "details": "See {IERC721-safeTransferFrom}."
      },
      "setApprovalForAll(address,bool)": {
        "details": "See {IERC721-setApprovalForAll}."
      },
      "supportsInterface(bytes4)": {
        "details": "See {IERC165-supportsInterface}."
      },
      "symbol()": {
        "details": "See {IERC721Metadata-symbol}."
      },
      "tokenByIndex(uint256)": {
        "details": "See {IERC721Enumerable-tokenByIndex}."
      },
      "tokenOfOwnerByIndex(address,uint256)": {
        "details": "See {IERC721Enumerable-tokenOfOwnerByIndex}."
      },
      "tokenURI(uint256)": {
        "details": "See {IERC721Metadata-tokenURI}."
      },
      "totalSupply()": {
        "details": "See {IERC721Enumerable-totalSupply}."
      },
      "transferFrom(address,address,uint256)": {
        "details": "See {IERC721-transferFrom}."
      }
    },
    "version": 1
  },
  "userdoc": {
    "kind": "user",
    "methods": {},
    "version": 1
  }
}