{
  "contractName": "ItemsExcellent",
  "abi": [
    {
      "inputs": [
        {
          "internalType": "address",
          "name": "itemsAddress",
          "type": "address"
        }
      ],
      "stateMutability": "nonpayable",
      "type": "constructor"
    },
    {
      "inputs": [
        {
          "internalType": "uint256",
          "name": "",
          "type": "uint256"
        }
      ],
      "name": "ArmoursExcOpts",
      "outputs": [
        {
          "internalType": "uint256",
          "name": "defenseSuccessRateIncrease",
          "type": "uint256"
        },
        {
          "internalType": "uint256",
          "name": "goldAfterMonsterIncrease",
          "type": "uint256"
        },
        {
          "internalType": "uint256",
          "name": "reflectDamage",
          "type": "uint256"
        },
        {
          "internalType": "uint256",
          "name": "maxLifeIncrease",
          "type": "uint256"
        },
        {
          "internalType": "uint256",
          "name": "maxManaIncrease",
          "type": "uint256"
        },
        {
          "internalType": "uint256",
          "name": "hpRecoveryRateIncrease",
          "type": "uint256"
        },
        {
          "internalType": "uint256",
          "name": "mpRecoveryRateIncrease",
          "type": "uint256"
        },
        {
          "internalType": "uint256",
          "name": "decreaseDamageRateIncrease",
          "type": "uint256"
        },
        {
          "internalType": "uint256",
          "name": "doubleOptionChance",
          "type": "uint256"
        }
      ],
      "stateMutability": "view",
      "type": "function",
      "constant": true
    },
    {
      "inputs": [
        {
          "internalType": "uint256",
          "name": "",
          "type": "uint256"
        }
      ],
      "name": "WeaponsExcOpts",
      "outputs": [
        {
          "internalType": "uint256",
          "name": "lifeAfterMonsterIncrease",
          "type": "uint256"
        },
        {
          "internalType": "uint256",
          "name": "manaAfterMonsterIncrease",
          "type": "uint256"
        },
        {
          "internalType": "uint256",
          "name": "excellentDamageProbabilityIncrease",
          "type": "uint256"
        },
        {
          "internalType": "uint256",
          "name": "attackSpeedIncrease",
          "type": "uint256"
        },
        {
          "internalType": "uint256",
          "name": "attackLvl20",
          "type": "uint256"
        },
        {
          "internalType": "uint256",
          "name": "attackIncreasePercent",
          "type": "uint256"
        },
        {
          "internalType": "uint256",
          "name": "doubleOptionChance",
          "type": "uint256"
        }
      ],
      "stateMutability": "view",
      "type": "function",
      "constant": true
    },
    {
      "inputs": [
        {
          "internalType": "uint256",
          "name": "",
          "type": "uint256"
        }
      ],
      "name": "WingsExcOpts",
      "outputs": [
        {
          "internalType": "uint256",
          "name": "increaseAttackSpeedPoints",
          "type": "uint256"
        },
        {
          "internalType": "uint256",
          "name": "reflectDamagePercent",
          "type": "uint256"
        },
        {
          "internalType": "uint256",
          "name": "restoreHPChance",
          "type": "uint256"
        },
        {
          "internalType": "uint256",
          "name": "restoreMPChance",
          "type": "uint256"
        },
        {
          "internalType": "uint256",
          "name": "doubleDamageChance",
          "type": "uint256"
        },
        {
          "internalType": "uint256",
          "name": "ignoreOpponentDefenseChance",
          "type": "uint256"
        },
        {
          "internalType": "uint256",
          "name": "doubleOptionChance",
          "type": "uint256"
        }
      ],
      "stateMutability": "view",
      "type": "function",
      "constant": true
    },
    {
      "inputs": [
        {
          "internalType": "uint256",
          "name": "seed",
          "type": "uint256"
        }
      ],
      "name": "getRandomNumber",
      "outputs": [
        {
          "internalType": "uint256",
          "name": "",
          "type": "uint256"
        }
      ],
      "stateMutability": "view",
      "type": "function",
      "constant": true
    },
    {
      "inputs": [
        {
          "internalType": "uint256",
          "name": "seed",
          "type": "uint256"
        },
        {
          "internalType": "uint256",
          "name": "maxNum",
          "type": "uint256"
        }
      ],
      "name": "getRandomNumberMax",
      "outputs": [
        {
          "internalType": "uint256",
          "name": "",
          "type": "uint256"
        }
      ],
      "stateMutability": "view",
      "type": "function",
      "constant": true
    },
    {
      "inputs": [
        {
          "internalType": "uint256",
          "name": "",
          "type": "uint256"
        }
      ],
      "name": "isExcellent",
      "outputs": [
        {
          "internalType": "bool",
          "name": "",
          "type": "bool"
        }
      ],
      "stateMutability": "view",
      "type": "function",
      "constant": true
    },
    {
      "inputs": [
        {
          "internalType": "uint256",
          "name": "a",
          "type": "uint256"
        },
        {
          "internalType": "uint256",
          "name": "b",
          "type": "uint256"
        }
      ],
      "name": "max",
      "outputs": [
        {
          "internalType": "uint256",
          "name": "",
          "type": "uint256"
        }
      ],
      "stateMutability": "view",
      "type": "function",
      "constant": true
    },
    {
      "inputs": [
        {
          "internalType": "uint256",
          "name": "a",
          "type": "uint256"
        },
        {
          "internalType": "uint256",
          "name": "b",
          "type": "uint256"
        }
      ],
      "name": "min",
      "outputs": [
        {
          "internalType": "uint256",
          "name": "",
          "type": "uint256"
        }
      ],
      "stateMutability": "view",
      "type": "function",
      "constant": true
    },
    {
      "inputs": [
        {
          "internalType": "uint256",
          "name": "a",
          "type": "uint256"
        },
        {
          "internalType": "uint256",
          "name": "b",
          "type": "uint256"
        }
      ],
      "name": "safeAdd",
      "outputs": [
        {
          "internalType": "uint256",
          "name": "",
          "type": "uint256"
        }
      ],
      "stateMutability": "view",
      "type": "function",
      "constant": true
    },
    {
      "inputs": [
        {
          "internalType": "uint256",
          "name": "a",
          "type": "uint256"
        },
        {
          "internalType": "uint256",
          "name": "b",
          "type": "uint256"
        }
      ],
      "name": "safeMul",
      "outputs": [
        {
          "internalType": "uint256",
          "name": "",
          "type": "uint256"
        }
      ],
      "stateMutability": "view",
      "type": "function",
      "constant": true
    },
    {
      "inputs": [
        {
          "internalType": "uint256",
          "name": "a",
          "type": "uint256"
        },
        {
          "internalType": "uint256",
          "name": "b",
          "type": "uint256"
        }
      ],
      "name": "safeSub",
      "outputs": [
        {
          "internalType": "uint256",
          "name": "",
          "type": "uint256"
        }
      ],
      "stateMutability": "view",
      "type": "function",
      "constant": true
    },
    {
      "inputs": [
        {
          "internalType": "string",
          "name": "a",
          "type": "string"
        },
        {
          "internalType": "string",
          "name": "b",
          "type": "string"
        }
      ],
      "name": "stringsEqual",
      "outputs": [
        {
          "internalType": "bool",
          "name": "",
          "type": "bool"
        }
      ],
      "stateMutability": "view",
      "type": "function",
      "constant": true
    },
    {
      "inputs": [
        {
          "internalType": "uint256",
          "name": "tokenId",
          "type": "uint256"
        }
      ],
      "name": "isItemExcellent",
      "outputs": [
        {
          "internalType": "bool",
          "name": "",
          "type": "bool"
        }
      ],
      "stateMutability": "view",
      "type": "function",
      "constant": true
    },
    {
      "inputs": [
        {
          "components": [
            {
              "internalType": "string",
              "name": "name",
              "type": "string"
            },
            {
              "internalType": "uint256",
              "name": "tokenId",
              "type": "uint256"
            },
            {
              "internalType": "uint256",
              "name": "itemLevel",
              "type": "uint256"
            },
            {
              "internalType": "uint256",
              "name": "maxLevel",
              "type": "uint256"
            },
            {
              "internalType": "uint256",
              "name": "additionalDamage",
              "type": "uint256"
            },
            {
              "internalType": "uint256",
              "name": "additionalDefense",
              "type": "uint256"
            },
            {
              "internalType": "uint256",
              "name": "fighterId",
              "type": "uint256"
            },
            {
              "internalType": "uint256",
              "name": "lastUpdBlock",
              "type": "uint256"
            },
            {
              "internalType": "uint256",
              "name": "itemRarityLevel",
              "type": "uint256"
            },
            {
              "internalType": "uint256",
              "name": "packSize",
              "type": "uint256"
            },
            {
              "internalType": "bool",
              "name": "luck",
              "type": "bool"
            },
            {
              "internalType": "bool",
              "name": "skill",
              "type": "bool"
            },
            {
              "internalType": "bool",
              "name": "isPackable",
              "type": "bool"
            },
            {
              "internalType": "bool",
              "name": "isBox",
              "type": "bool"
            },
            {
              "internalType": "bool",
              "name": "isWeapon",
              "type": "bool"
            },
            {
              "internalType": "bool",
              "name": "isArmour",
              "type": "bool"
            },
            {
              "internalType": "bool",
              "name": "isJewel",
              "type": "bool"
            },
            {
              "internalType": "bool",
              "name": "isWings",
              "type": "bool"
            },
            {
              "internalType": "bool",
              "name": "isMisc",
              "type": "bool"
            },
            {
              "internalType": "bool",
              "name": "isConsumable",
              "type": "bool"
            },
            {
              "internalType": "bool",
              "name": "inShop",
              "type": "bool"
            }
          ],
          "internalType": "struct ItemsAtts.ItemAttributes",
          "name": "item",
          "type": "tuple"
        }
      ],
      "name": "convertToExcellent",
      "outputs": [
        {
          "components": [
            {
              "internalType": "string",
              "name": "name",
              "type": "string"
            },
            {
              "internalType": "uint256",
              "name": "tokenId",
              "type": "uint256"
            },
            {
              "internalType": "uint256",
              "name": "itemLevel",
              "type": "uint256"
            },
            {
              "internalType": "uint256",
              "name": "maxLevel",
              "type": "uint256"
            },
            {
              "internalType": "uint256",
              "name": "additionalDamage",
              "type": "uint256"
            },
            {
              "internalType": "uint256",
              "name": "additionalDefense",
              "type": "uint256"
            },
            {
              "internalType": "uint256",
              "name": "fighterId",
              "type": "uint256"
            },
            {
              "internalType": "uint256",
              "name": "lastUpdBlock",
              "type": "uint256"
            },
            {
              "internalType": "uint256",
              "name": "itemRarityLevel",
              "type": "uint256"
            },
            {
              "internalType": "uint256",
              "name": "packSize",
              "type": "uint256"
            },
            {
              "internalType": "bool",
              "name": "luck",
              "type": "bool"
            },
            {
              "internalType": "bool",
              "name": "skill",
              "type": "bool"
            },
            {
              "internalType": "bool",
              "name": "isPackable",
              "type": "bool"
            },
            {
              "internalType": "bool",
              "name": "isBox",
              "type": "bool"
            },
            {
              "internalType": "bool",
              "name": "isWeapon",
              "type": "bool"
            },
            {
              "internalType": "bool",
              "name": "isArmour",
              "type": "bool"
            },
            {
              "internalType": "bool",
              "name": "isJewel",
              "type": "bool"
            },
            {
              "internalType": "bool",
              "name": "isWings",
              "type": "bool"
            },
            {
              "internalType": "bool",
              "name": "isMisc",
              "type": "bool"
            },
            {
              "internalType": "bool",
              "name": "isConsumable",
              "type": "bool"
            },
            {
              "internalType": "bool",
              "name": "inShop",
              "type": "bool"
            },
            {
              "internalType": "bool",
              "name": "isExcellent",
              "type": "bool"
            },
            {
              "internalType": "uint256",
              "name": "increaseAttackSpeedPoints",
              "type": "uint256"
            },
            {
              "internalType": "uint256",
              "name": "reflectDamagePercent",
              "type": "uint256"
            },
            {
              "internalType": "uint256",
              "name": "restoreHPChance",
              "type": "uint256"
            },
            {
              "internalType": "uint256",
              "name": "restoreMPChance",
              "type": "uint256"
            },
            {
              "internalType": "uint256",
              "name": "doubleDamageChance",
              "type": "uint256"
            },
            {
              "internalType": "uint256",
              "name": "ignoreOpponentDefenseChance",
              "type": "uint256"
            },
            {
              "internalType": "uint256",
              "name": "lifeAfterMonsterIncrease",
              "type": "uint256"
            },
            {
              "internalType": "uint256",
              "name": "manaAfterMonsterIncrease",
              "type": "uint256"
            },
            {
              "internalType": "uint256",
              "name": "excellentDamageProbabilityIncrease",
              "type": "uint256"
            },
            {
              "internalType": "uint256",
              "name": "attackSpeedIncrease",
              "type": "uint256"
            },
            {
              "internalType": "uint256",
              "name": "attackLvl20",
              "type": "uint256"
            },
            {
              "internalType": "uint256",
              "name": "attackIncreasePercent",
              "type": "uint256"
            },
            {
              "internalType": "uint256",
              "name": "defenseSuccessRateIncrease",
              "type": "uint256"
            },
            {
              "internalType": "uint256",
              "name": "goldAfterMonsterIncrease",
              "type": "uint256"
            },
            {
              "internalType": "uint256",
              "name": "reflectDamage",
              "type": "uint256"
            },
            {
              "internalType": "uint256",
              "name": "maxLifeIncrease",
              "type": "uint256"
            },
            {
              "internalType": "uint256",
              "name": "maxManaIncrease",
              "type": "uint256"
            },
            {
              "internalType": "uint256",
              "name": "hpRecoveryRateIncrease",
              "type": "uint256"
            },
            {
              "internalType": "uint256",
              "name": "mpRecoveryRateIncrease",
              "type": "uint256"
            },
            {
              "internalType": "uint256",
              "name": "decreaseDamageRateIncrease",
              "type": "uint256"
            }
          ],
          "internalType": "struct ItemsExcellentAtts.ExcellentItemAtts",
          "name": "",
          "type": "tuple"
        }
      ],
      "stateMutability": "view",
      "type": "function",
      "constant": true
    },
    {
      "inputs": [
        {
          "internalType": "string",
          "name": "itemName",
          "type": "string"
        }
      ],
      "name": "getItemAttributes",
      "outputs": [
        {
          "components": [
            {
              "internalType": "string",
              "name": "name",
              "type": "string"
            },
            {
              "internalType": "uint256",
              "name": "tokenId",
              "type": "uint256"
            },
            {
              "internalType": "uint256",
              "name": "itemLevel",
              "type": "uint256"
            },
            {
              "internalType": "uint256",
              "name": "maxLevel",
              "type": "uint256"
            },
            {
              "internalType": "uint256",
              "name": "additionalDamage",
              "type": "uint256"
            },
            {
              "internalType": "uint256",
              "name": "additionalDefense",
              "type": "uint256"
            },
            {
              "internalType": "uint256",
              "name": "fighterId",
              "type": "uint256"
            },
            {
              "internalType": "uint256",
              "name": "lastUpdBlock",
              "type": "uint256"
            },
            {
              "internalType": "uint256",
              "name": "itemRarityLevel",
              "type": "uint256"
            },
            {
              "internalType": "uint256",
              "name": "packSize",
              "type": "uint256"
            },
            {
              "internalType": "bool",
              "name": "luck",
              "type": "bool"
            },
            {
              "internalType": "bool",
              "name": "skill",
              "type": "bool"
            },
            {
              "internalType": "bool",
              "name": "isPackable",
              "type": "bool"
            },
            {
              "internalType": "bool",
              "name": "isBox",
              "type": "bool"
            },
            {
              "internalType": "bool",
              "name": "isWeapon",
              "type": "bool"
            },
            {
              "internalType": "bool",
              "name": "isArmour",
              "type": "bool"
            },
            {
              "internalType": "bool",
              "name": "isJewel",
              "type": "bool"
            },
            {
              "internalType": "bool",
              "name": "isWings",
              "type": "bool"
            },
            {
              "internalType": "bool",
              "name": "isMisc",
              "type": "bool"
            },
            {
              "internalType": "bool",
              "name": "isConsumable",
              "type": "bool"
            },
            {
              "internalType": "bool",
              "name": "inShop",
              "type": "bool"
            },
            {
              "internalType": "bool",
              "name": "isExcellent",
              "type": "bool"
            },
            {
              "internalType": "uint256",
              "name": "increaseAttackSpeedPoints",
              "type": "uint256"
            },
            {
              "internalType": "uint256",
              "name": "reflectDamagePercent",
              "type": "uint256"
            },
            {
              "internalType": "uint256",
              "name": "restoreHPChance",
              "type": "uint256"
            },
            {
              "internalType": "uint256",
              "name": "restoreMPChance",
              "type": "uint256"
            },
            {
              "internalType": "uint256",
              "name": "doubleDamageChance",
              "type": "uint256"
            },
            {
              "internalType": "uint256",
              "name": "ignoreOpponentDefenseChance",
              "type": "uint256"
            },
            {
              "internalType": "uint256",
              "name": "lifeAfterMonsterIncrease",
              "type": "uint256"
            },
            {
              "internalType": "uint256",
              "name": "manaAfterMonsterIncrease",
              "type": "uint256"
            },
            {
              "internalType": "uint256",
              "name": "excellentDamageProbabilityIncrease",
              "type": "uint256"
            },
            {
              "internalType": "uint256",
              "name": "attackSpeedIncrease",
              "type": "uint256"
            },
            {
              "internalType": "uint256",
              "name": "attackLvl20",
              "type": "uint256"
            },
            {
              "internalType": "uint256",
              "name": "attackIncreasePercent",
              "type": "uint256"
            },
            {
              "internalType": "uint256",
              "name": "defenseSuccessRateIncrease",
              "type": "uint256"
            },
            {
              "internalType": "uint256",
              "name": "goldAfterMonsterIncrease",
              "type": "uint256"
            },
            {
              "internalType": "uint256",
              "name": "reflectDamage",
              "type": "uint256"
            },
            {
              "internalType": "uint256",
              "name": "maxLifeIncrease",
              "type": "uint256"
            },
            {
              "internalType": "uint256",
              "name": "maxManaIncrease",
              "type": "uint256"
            },
            {
              "internalType": "uint256",
              "name": "hpRecoveryRateIncrease",
              "type": "uint256"
            },
            {
              "internalType": "uint256",
              "name": "mpRecoveryRateIncrease",
              "type": "uint256"
            },
            {
              "internalType": "uint256",
              "name": "decreaseDamageRateIncrease",
              "type": "uint256"
            }
          ],
          "internalType": "struct ItemsExcellentAtts.ExcellentItemAtts",
          "name": "",
          "type": "tuple"
        }
      ],
      "stateMutability": "nonpayable",
      "type": "function"
    },
    {
      "inputs": [
        {
          "internalType": "uint256",
          "name": "tokenId",
          "type": "uint256"
        }
      ],
      "name": "getTokenAttributes",
      "outputs": [
        {
          "components": [
            {
              "internalType": "string",
              "name": "name",
              "type": "string"
            },
            {
              "internalType": "uint256",
              "name": "tokenId",
              "type": "uint256"
            },
            {
              "internalType": "uint256",
              "name": "itemLevel",
              "type": "uint256"
            },
            {
              "internalType": "uint256",
              "name": "maxLevel",
              "type": "uint256"
            },
            {
              "internalType": "uint256",
              "name": "additionalDamage",
              "type": "uint256"
            },
            {
              "internalType": "uint256",
              "name": "additionalDefense",
              "type": "uint256"
            },
            {
              "internalType": "uint256",
              "name": "fighterId",
              "type": "uint256"
            },
            {
              "internalType": "uint256",
              "name": "lastUpdBlock",
              "type": "uint256"
            },
            {
              "internalType": "uint256",
              "name": "itemRarityLevel",
              "type": "uint256"
            },
            {
              "internalType": "uint256",
              "name": "packSize",
              "type": "uint256"
            },
            {
              "internalType": "bool",
              "name": "luck",
              "type": "bool"
            },
            {
              "internalType": "bool",
              "name": "skill",
              "type": "bool"
            },
            {
              "internalType": "bool",
              "name": "isPackable",
              "type": "bool"
            },
            {
              "internalType": "bool",
              "name": "isBox",
              "type": "bool"
            },
            {
              "internalType": "bool",
              "name": "isWeapon",
              "type": "bool"
            },
            {
              "internalType": "bool",
              "name": "isArmour",
              "type": "bool"
            },
            {
              "internalType": "bool",
              "name": "isJewel",
              "type": "bool"
            },
            {
              "internalType": "bool",
              "name": "isWings",
              "type": "bool"
            },
            {
              "internalType": "bool",
              "name": "isMisc",
              "type": "bool"
            },
            {
              "internalType": "bool",
              "name": "isConsumable",
              "type": "bool"
            },
            {
              "internalType": "bool",
              "name": "inShop",
              "type": "bool"
            },
            {
              "internalType": "bool",
              "name": "isExcellent",
              "type": "bool"
            },
            {
              "internalType": "uint256",
              "name": "increaseAttackSpeedPoints",
              "type": "uint256"
            },
            {
              "internalType": "uint256",
              "name": "reflectDamagePercent",
              "type": "uint256"
            },
            {
              "internalType": "uint256",
              "name": "restoreHPChance",
              "type": "uint256"
            },
            {
              "internalType": "uint256",
              "name": "restoreMPChance",
              "type": "uint256"
            },
            {
              "internalType": "uint256",
              "name": "doubleDamageChance",
              "type": "uint256"
            },
            {
              "internalType": "uint256",
              "name": "ignoreOpponentDefenseChance",
              "type": "uint256"
            },
            {
              "internalType": "uint256",
              "name": "lifeAfterMonsterIncrease",
              "type": "uint256"
            },
            {
              "internalType": "uint256",
              "name": "manaAfterMonsterIncrease",
              "type": "uint256"
            },
            {
              "internalType": "uint256",
              "name": "excellentDamageProbabilityIncrease",
              "type": "uint256"
            },
            {
              "internalType": "uint256",
              "name": "attackSpeedIncrease",
              "type": "uint256"
            },
            {
              "internalType": "uint256",
              "name": "attackLvl20",
              "type": "uint256"
            },
            {
              "internalType": "uint256",
              "name": "attackIncreasePercent",
              "type": "uint256"
            },
            {
              "internalType": "uint256",
              "name": "defenseSuccessRateIncrease",
              "type": "uint256"
            },
            {
              "internalType": "uint256",
              "name": "goldAfterMonsterIncrease",
              "type": "uint256"
            },
            {
              "internalType": "uint256",
              "name": "reflectDamage",
              "type": "uint256"
            },
            {
              "internalType": "uint256",
              "name": "maxLifeIncrease",
              "type": "uint256"
            },
            {
              "internalType": "uint256",
              "name": "maxManaIncrease",
              "type": "uint256"
            },
            {
              "internalType": "uint256",
              "name": "hpRecoveryRateIncrease",
              "type": "uint256"
            },
            {
              "internalType": "uint256",
              "name": "mpRecoveryRateIncrease",
              "type": "uint256"
            },
            {
              "internalType": "uint256",
              "name": "decreaseDamageRateIncrease",
              "type": "uint256"
            }
          ],
          "internalType": "struct ItemsExcellentAtts.ExcellentItemAtts",
          "name": "",
          "type": "tuple"
        }
      ],
      "stateMutability": "nonpayable",
      "type": "function"
    },
    {
      "inputs": [
        {
          "internalType": "uint256",
          "name": "tokenId",
          "type": "uint256"
        },
        {
          "components": [
            {
              "internalType": "string",
              "name": "name",
              "type": "string"
            },
            {
              "internalType": "uint256",
              "name": "tokenId",
              "type": "uint256"
            },
            {
              "internalType": "uint256",
              "name": "itemLevel",
              "type": "uint256"
            },
            {
              "internalType": "uint256",
              "name": "maxLevel",
              "type": "uint256"
            },
            {
              "internalType": "uint256",
              "name": "additionalDamage",
              "type": "uint256"
            },
            {
              "internalType": "uint256",
              "name": "additionalDefense",
              "type": "uint256"
            },
            {
              "internalType": "uint256",
              "name": "fighterId",
              "type": "uint256"
            },
            {
              "internalType": "uint256",
              "name": "lastUpdBlock",
              "type": "uint256"
            },
            {
              "internalType": "uint256",
              "name": "itemRarityLevel",
              "type": "uint256"
            },
            {
              "internalType": "uint256",
              "name": "packSize",
              "type": "uint256"
            },
            {
              "internalType": "bool",
              "name": "luck",
              "type": "bool"
            },
            {
              "internalType": "bool",
              "name": "skill",
              "type": "bool"
            },
            {
              "internalType": "bool",
              "name": "isPackable",
              "type": "bool"
            },
            {
              "internalType": "bool",
              "name": "isBox",
              "type": "bool"
            },
            {
              "internalType": "bool",
              "name": "isWeapon",
              "type": "bool"
            },
            {
              "internalType": "bool",
              "name": "isArmour",
              "type": "bool"
            },
            {
              "internalType": "bool",
              "name": "isJewel",
              "type": "bool"
            },
            {
              "internalType": "bool",
              "name": "isWings",
              "type": "bool"
            },
            {
              "internalType": "bool",
              "name": "isMisc",
              "type": "bool"
            },
            {
              "internalType": "bool",
              "name": "isConsumable",
              "type": "bool"
            },
            {
              "internalType": "bool",
              "name": "inShop",
              "type": "bool"
            },
            {
              "internalType": "bool",
              "name": "isExcellent",
              "type": "bool"
            },
            {
              "internalType": "uint256",
              "name": "increaseAttackSpeedPoints",
              "type": "uint256"
            },
            {
              "internalType": "uint256",
              "name": "reflectDamagePercent",
              "type": "uint256"
            },
            {
              "internalType": "uint256",
              "name": "restoreHPChance",
              "type": "uint256"
            },
            {
              "internalType": "uint256",
              "name": "restoreMPChance",
              "type": "uint256"
            },
            {
              "internalType": "uint256",
              "name": "doubleDamageChance",
              "type": "uint256"
            },
            {
              "internalType": "uint256",
              "name": "ignoreOpponentDefenseChance",
              "type": "uint256"
            },
            {
              "internalType": "uint256",
              "name": "lifeAfterMonsterIncrease",
              "type": "uint256"
            },
            {
              "internalType": "uint256",
              "name": "manaAfterMonsterIncrease",
              "type": "uint256"
            },
            {
              "internalType": "uint256",
              "name": "excellentDamageProbabilityIncrease",
              "type": "uint256"
            },
            {
              "internalType": "uint256",
              "name": "attackSpeedIncrease",
              "type": "uint256"
            },
            {
              "internalType": "uint256",
              "name": "attackLvl20",
              "type": "uint256"
            },
            {
              "internalType": "uint256",
              "name": "attackIncreasePercent",
              "type": "uint256"
            },
            {
              "internalType": "uint256",
              "name": "defenseSuccessRateIncrease",
              "type": "uint256"
            },
            {
              "internalType": "uint256",
              "name": "goldAfterMonsterIncrease",
              "type": "uint256"
            },
            {
              "internalType": "uint256",
              "name": "reflectDamage",
              "type": "uint256"
            },
            {
              "internalType": "uint256",
              "name": "maxLifeIncrease",
              "type": "uint256"
            },
            {
              "internalType": "uint256",
              "name": "maxManaIncrease",
              "type": "uint256"
            },
            {
              "internalType": "uint256",
              "name": "hpRecoveryRateIncrease",
              "type": "uint256"
            },
            {
              "internalType": "uint256",
              "name": "mpRecoveryRateIncrease",
              "type": "uint256"
            },
            {
              "internalType": "uint256",
              "name": "decreaseDamageRateIncrease",
              "type": "uint256"
            }
          ],
          "internalType": "struct ItemsExcellentAtts.ExcellentItemAtts",
          "name": "atts",
          "type": "tuple"
        }
      ],
      "name": "setTokenAttributes",
      "outputs": [],
      "stateMutability": "nonpayable",
      "type": "function"
    },
    {
      "inputs": [
        {
          "components": [
            {
              "internalType": "string",
              "name": "name",
              "type": "string"
            },
            {
              "internalType": "uint256",
              "name": "tokenId",
              "type": "uint256"
            },
            {
              "internalType": "uint256",
              "name": "itemLevel",
              "type": "uint256"
            },
            {
              "internalType": "uint256",
              "name": "maxLevel",
              "type": "uint256"
            },
            {
              "internalType": "uint256",
              "name": "additionalDamage",
              "type": "uint256"
            },
            {
              "internalType": "uint256",
              "name": "additionalDefense",
              "type": "uint256"
            },
            {
              "internalType": "uint256",
              "name": "fighterId",
              "type": "uint256"
            },
            {
              "internalType": "uint256",
              "name": "lastUpdBlock",
              "type": "uint256"
            },
            {
              "internalType": "uint256",
              "name": "itemRarityLevel",
              "type": "uint256"
            },
            {
              "internalType": "uint256",
              "name": "packSize",
              "type": "uint256"
            },
            {
              "internalType": "bool",
              "name": "luck",
              "type": "bool"
            },
            {
              "internalType": "bool",
              "name": "skill",
              "type": "bool"
            },
            {
              "internalType": "bool",
              "name": "isPackable",
              "type": "bool"
            },
            {
              "internalType": "bool",
              "name": "isBox",
              "type": "bool"
            },
            {
              "internalType": "bool",
              "name": "isWeapon",
              "type": "bool"
            },
            {
              "internalType": "bool",
              "name": "isArmour",
              "type": "bool"
            },
            {
              "internalType": "bool",
              "name": "isJewel",
              "type": "bool"
            },
            {
              "internalType": "bool",
              "name": "isWings",
              "type": "bool"
            },
            {
              "internalType": "bool",
              "name": "isMisc",
              "type": "bool"
            },
            {
              "internalType": "bool",
              "name": "isConsumable",
              "type": "bool"
            },
            {
              "internalType": "bool",
              "name": "inShop",
              "type": "bool"
            },
            {
              "internalType": "bool",
              "name": "isExcellent",
              "type": "bool"
            },
            {
              "internalType": "uint256",
              "name": "increaseAttackSpeedPoints",
              "type": "uint256"
            },
            {
              "internalType": "uint256",
              "name": "reflectDamagePercent",
              "type": "uint256"
            },
            {
              "internalType": "uint256",
              "name": "restoreHPChance",
              "type": "uint256"
            },
            {
              "internalType": "uint256",
              "name": "restoreMPChance",
              "type": "uint256"
            },
            {
              "internalType": "uint256",
              "name": "doubleDamageChance",
              "type": "uint256"
            },
            {
              "internalType": "uint256",
              "name": "ignoreOpponentDefenseChance",
              "type": "uint256"
            },
            {
              "internalType": "uint256",
              "name": "lifeAfterMonsterIncrease",
              "type": "uint256"
            },
            {
              "internalType": "uint256",
              "name": "manaAfterMonsterIncrease",
              "type": "uint256"
            },
            {
              "internalType": "uint256",
              "name": "excellentDamageProbabilityIncrease",
              "type": "uint256"
            },
            {
              "internalType": "uint256",
              "name": "attackSpeedIncrease",
              "type": "uint256"
            },
            {
              "internalType": "uint256",
              "name": "attackLvl20",
              "type": "uint256"
            },
            {
              "internalType": "uint256",
              "name": "attackIncreasePercent",
              "type": "uint256"
            },
            {
              "internalType": "uint256",
              "name": "defenseSuccessRateIncrease",
              "type": "uint256"
            },
            {
              "internalType": "uint256",
              "name": "goldAfterMonsterIncrease",
              "type": "uint256"
            },
            {
              "internalType": "uint256",
              "name": "reflectDamage",
              "type": "uint256"
            },
            {
              "internalType": "uint256",
              "name": "maxLifeIncrease",
              "type": "uint256"
            },
            {
              "internalType": "uint256",
              "name": "maxManaIncrease",
              "type": "uint256"
            },
            {
              "internalType": "uint256",
              "name": "hpRecoveryRateIncrease",
              "type": "uint256"
            },
            {
              "internalType": "uint256",
              "name": "mpRecoveryRateIncrease",
              "type": "uint256"
            },
            {
              "internalType": "uint256",
              "name": "decreaseDamageRateIncrease",
              "type": "uint256"
            }
          ],
          "internalType": "struct ItemsExcellentAtts.ExcellentItemAtts",
          "name": "excItem",
          "type": "tuple"
        }
      ],
      "name": "addExcellentOption",
      "outputs": [
        {
          "components": [
            {
              "internalType": "string",
              "name": "name",
              "type": "string"
            },
            {
              "internalType": "uint256",
              "name": "tokenId",
              "type": "uint256"
            },
            {
              "internalType": "uint256",
              "name": "itemLevel",
              "type": "uint256"
            },
            {
              "internalType": "uint256",
              "name": "maxLevel",
              "type": "uint256"
            },
            {
              "internalType": "uint256",
              "name": "additionalDamage",
              "type": "uint256"
            },
            {
              "internalType": "uint256",
              "name": "additionalDefense",
              "type": "uint256"
            },
            {
              "internalType": "uint256",
              "name": "fighterId",
              "type": "uint256"
            },
            {
              "internalType": "uint256",
              "name": "lastUpdBlock",
              "type": "uint256"
            },
            {
              "internalType": "uint256",
              "name": "itemRarityLevel",
              "type": "uint256"
            },
            {
              "internalType": "uint256",
              "name": "packSize",
              "type": "uint256"
            },
            {
              "internalType": "bool",
              "name": "luck",
              "type": "bool"
            },
            {
              "internalType": "bool",
              "name": "skill",
              "type": "bool"
            },
            {
              "internalType": "bool",
              "name": "isPackable",
              "type": "bool"
            },
            {
              "internalType": "bool",
              "name": "isBox",
              "type": "bool"
            },
            {
              "internalType": "bool",
              "name": "isWeapon",
              "type": "bool"
            },
            {
              "internalType": "bool",
              "name": "isArmour",
              "type": "bool"
            },
            {
              "internalType": "bool",
              "name": "isJewel",
              "type": "bool"
            },
            {
              "internalType": "bool",
              "name": "isWings",
              "type": "bool"
            },
            {
              "internalType": "bool",
              "name": "isMisc",
              "type": "bool"
            },
            {
              "internalType": "bool",
              "name": "isConsumable",
              "type": "bool"
            },
            {
              "internalType": "bool",
              "name": "inShop",
              "type": "bool"
            },
            {
              "internalType": "bool",
              "name": "isExcellent",
              "type": "bool"
            },
            {
              "internalType": "uint256",
              "name": "increaseAttackSpeedPoints",
              "type": "uint256"
            },
            {
              "internalType": "uint256",
              "name": "reflectDamagePercent",
              "type": "uint256"
            },
            {
              "internalType": "uint256",
              "name": "restoreHPChance",
              "type": "uint256"
            },
            {
              "internalType": "uint256",
              "name": "restoreMPChance",
              "type": "uint256"
            },
            {
              "internalType": "uint256",
              "name": "doubleDamageChance",
              "type": "uint256"
            },
            {
              "internalType": "uint256",
              "name": "ignoreOpponentDefenseChance",
              "type": "uint256"
            },
            {
              "internalType": "uint256",
              "name": "lifeAfterMonsterIncrease",
              "type": "uint256"
            },
            {
              "internalType": "uint256",
              "name": "manaAfterMonsterIncrease",
              "type": "uint256"
            },
            {
              "internalType": "uint256",
              "name": "excellentDamageProbabilityIncrease",
              "type": "uint256"
            },
            {
              "internalType": "uint256",
              "name": "attackSpeedIncrease",
              "type": "uint256"
            },
            {
              "internalType": "uint256",
              "name": "attackLvl20",
              "type": "uint256"
            },
            {
              "internalType": "uint256",
              "name": "attackIncreasePercent",
              "type": "uint256"
            },
            {
              "internalType": "uint256",
              "name": "defenseSuccessRateIncrease",
              "type": "uint256"
            },
            {
              "internalType": "uint256",
              "name": "goldAfterMonsterIncrease",
              "type": "uint256"
            },
            {
              "internalType": "uint256",
              "name": "reflectDamage",
              "type": "uint256"
            },
            {
              "internalType": "uint256",
              "name": "maxLifeIncrease",
              "type": "uint256"
            },
            {
              "internalType": "uint256",
              "name": "maxManaIncrease",
              "type": "uint256"
            },
            {
              "internalType": "uint256",
              "name": "hpRecoveryRateIncrease",
              "type": "uint256"
            },
            {
              "internalType": "uint256",
              "name": "mpRecoveryRateIncrease",
              "type": "uint256"
            },
            {
              "internalType": "uint256",
              "name": "decreaseDamageRateIncrease",
              "type": "uint256"
            }
          ],
          "internalType": "struct ItemsExcellentAtts.ExcellentItemAtts",
          "name": "newItem",
          "type": "tuple"
        }
      ],
      "stateMutability": "nonpayable",
      "type": "function"
    }
  ],
  "bytecode": "0x608034620001cf57601f6200243338819003918201601f19168301926001600160401b0392909183851183861017620001b9578160209284926040978852833981010312620001cf57516001600160a01b0381169190829003620001cf576064600055601c6001556032600255603260035560c0601e91826004558260055560026006556001600755600060085562000097620001d4565b600f928184809352826020820152858882015285606082015260056080820152600360a08201520152600a9180835580600b5583600c5583600d556005600e5560038155806010558060c0620000ec620001d4565b602381526023602082015285898201528560608201528560808201528560a08201520152602360115560236012558260135582601455826015558260165560175584519061012082019082821090821117620001b95783916101009187528381526014602082015283878201528360608201528360808201528360a08201528360c08201528360e0820152015280601855601460195580601a5580601b5580601c5580601d55808255601f5560205560018060a01b031960095416176009555161223e9081620001f58239f35b634e487b7160e01b600052604160045260246000fd5b600080fd5b6040519060e082016001600160401b03811183821017620001b95760405256fe6104a080604052600436101561001457600080fd5b600090813560e01c9081629df65b146113785750806313d19950146113225780631f4f5a23146112bd57806331d5d1d71461111c578063684063d714610cba5780636d5433e614610c94578063740cf1dc14610c115780637ae2b5c714610be45780637f59c17714610bac57806387c7ab5c14610af05780639088d14014610a74578063a293d1e814610a42578063b37217a4146109cd578063b416dad614610951578063cd9a850d14610922578063d05c78da146108a9578063e6cb9013146108655763ef5b94d3146100e757600080fd5b34610862576020908160031936011261086257600435916001600160401b03831161085e5761011d61024c933690600401611729565b9081610127611975565b50604083018490526101c08301511561043e57506001908161016084015261014d611975565b50604051906064818301448152600b60408501524360608501524260808501526001600160601b03193360601b16938460a08201526094815261018f81611442565b51902006601154601254916101a48383612148565b916101b26013548094612148565b6101e26101c26014548093612148565b936101dc6101d36015548097612148565b60165490612148565b9061216b565b9482861161039b57505050505050826103808501525b8394606460405183810190448252600c60408201524360608201524260808201528560a08201526094815261022c81611442565b519020066017541015610250575b50505050505b60405191829182611528565b0390f35b84955060409082606495960151815260248352208460ff19825416179055610276611975565b5060405190810191448352600d604083015243606083015242608083015260a0820152609481526102a681611442565b51902006601154601254916102bb8383612148565b916102c96013548094612148565b6102d96101c26014548093612148565b948286116102f8575050505050506103808201525b388080808061023a565b6103028184612148565b8611610319575050505050506103a08201526102ee565b61032c856103278386612148565b612148565b8611610343575050505050506103c08201526102ee565b61035582610327876103278588612148565b861161036c575050505050506103e08201526102ee565b610380946103276103279261032795612148565b10610390576104008201526102ee565b6104208201526102ee565b6103a58184612148565b86116103bd57505050505050826103a08501526101f8565b6103cb856103278386612148565b86116103e357505050505050826103c08501526101f8565b6103f582610327876103278588612148565b861161040d57505050505050826103e08501526101f8565b610421946103276103279261032795612148565b1061043257826104008501526101f8565b826104208501526101f8565b906101e08394930151610454575b505050610240565b90919261045f611975565b50604051906064838301448152600e60408501524360608501524260808501526001600160601b03193360601b16938460a0820152609481526104a181611442565b5190200660185490601954906104b78284612148565b916104c5601a548094612148565b926104d3601b548095612148565b906104e1601c548093612148565b9161050c6104f2601d548095612148565b956101dc610503601e548099612148565b601f5490612148565b9680881161074357505050505050505060016104408201525b93606460405184810190448252600f60408201524360608201524260808201528460a08201526094815261055881611442565b519020068354101561056b575b5061044c565b8284015181526024835260409020805460ff19166001908117909155929350606491610595611975565b50604051908101914483526010604083015243606083015242608083015260a0820152609481526105c581611442565b5190200660185490601954906105db8284612148565b916105e9601a548094612148565b926105f7601b548095612148565b90610605601c548093612148565b916106166104f2601d548095612148565b968088116106365750505050505050506104408201525b38808080610565565b6106408582612148565b881161065957505050505050505061046082015261062d565b610667836103278784612148565b881161068057505050505050505061048082015261062d565b61069287610327856103278986612148565b88116106ab5750505050505050506104a082015261062d565b6106c18261032789610327876103278b88612148565b88116106da5750505050505050506104c082015261062d565b6106f484610327846103278b610327896103278d8a612148565b881161070d5750505050505050506104e082015261062d565b61072896610327610327946103276103279861032795612148565b106107385761050082015261062d565b61052082015261062d565b61074d8582612148565b88116107685750505050505050506001610460820152610525565b610776836103278784612148565b88116107915750505050505050506001610480820152610525565b6107a387610327856103278986612148565b88116107be57505050505050505060016104a0820152610525565b6107d48261032789610327876103278b88612148565b88116107ef57505050505050505060016104c0820152610525565b61080984610327846103278b610327896103278d8a612148565b881161082457505050505050505060016104e0820152610525565b61083f96610327610327946103276103279861032795612148565b10610851576001610500820152610525565b6001610520820152610525565b5080fd5b80fd5b5034610862576020610896610879366113d9565b61088581839493612148565b92831015908161089e575b5061218b565b604051908152f35b905082101584610890565b5034610862576108b8366113d9565b8082029180830490159381831485171561090e578480156108e0575b6020856108968861218b565b90919294506108fa575060209261089691149238806108d4565b634e487b7160e01b81526012600452602490fd5b634e487b7160e01b81526011600452602490fd5b50346108625760203660031901126108625760ff60406020926004358152602484522054166040519015158152f35b5034610862576020366003190112610862576040906004358152602260205220805461024c600183015492600281015490600381015460048201549060066005840154930154936040519788978893909796959260c0959260e08601998652602086015260408501526060840152608083015260a08201520152565b5034610862576020366003190112610862576020606460405182810190610a3681610a2833424360043544899391609495939185526020850152604084015260608301526001600160601b03199060601b1660808201520190565b03601f19810183528261145d565b51902006604051908152f35b503461086257610a51366113d9565b610a608282949394111561218b565b820391821161090e57602082604051908152f35b5034610862576020366003190112610862576040906004358152602160205220805461024c600183015492600281015490600381015460048201549060066005840154930154936040519788978893909796959260c0959260e08601998652602086015260408501526060840152608083015260a08201520152565b503461086257602036600319011261086257600435816001600160401b03821161086257610b25610b5c923690600401611499565b610b2d611975565b5060018060a01b036009541660405180809581946321f1ead760e21b8352602060048401526024830190611503565b03915afa908115610ba15790610240918361024c9492610b7e575b5050611aa2565b610b9a92503d8091833e610b92818361145d565b810190611f06565b3880610b77565b6040513d84823e3d90fd5b5034610862576020366003190112610862576020610bda600435600052602460205260ff6040600020541690565b6040519015158152f35b503461086257602090610bf6366113d9565b90915080821015610c0a5750604051908152f35b9050610896565b50346108625760203660031901126108625760406101209160043581526023602052208054906001810154906002810154600382015460048301546005840154916006850154936008600787015496015496604051988952602089015260408801526060870152608086015260a085015260c084015260e0830152610100820152f35b503461086257602090610ca6366113d9565b90915080821115610c0a5750604051908152f35b5034610862576040366003190112610862576024356001600160401b03811161085e57610ceb903690600401611729565b60095460405163843bd64160e01b81526004803590820152602092916001600160a01b0316908381602481855afa9081156111115785916110d8575b501561109c57610d356120ae565b5083610d3f6120ae565b83518152848401518582015260408401516040820152606084015160608201526080840151608082015260a084015160a082015260c084015160c082015260e084015160e0820152610100928385015184830152610120808601518184015261014092838701511515848201526101609586880151151587830152610180808901511515818401526101a090818a01511515828501526101c08a015115156101c08501526101e08a015115156101e08501526102008a015115156102008501526102208a015115156102208501526102408a015115156102408501526102808a01511515610280850152853b156110985787938b92610280926040519b8c9a8b998a9863bef9eed960e01b8a5260043560048b0152604060248b0152610e7387516102a060448d01526102e48c0190611503565b9887015160648b0152604087015160848b0152606087015160a48b0152608087015160c48b015260a087015160e48b015260c08701516101048b015260e08701516101248b01528601516101448a0152850151610164890152840151151561018488015283015115156101a487015282015115156101c486015281015115156101e48501526101c081015115156102048501526101e0810151151561022485015261020081015115156102448501526102208101511515610264850152610240810151151561028485015261026081015115156102a4850152015115156102c483015203925af1801561108d5761105c575b50610520816102c06007930151600435865260218552604086209081556102e08201516001820155610300820151600282015561032082015160038201556103408201516004820155600561036083015191015561038081015160228552604086209081556103a082015160018201556103c082015160028201556103e08201516003820155610400820151600482015560056104208301519101556023610440820151945260408520938455610460810151600185015561048081015160028501556104a081015160038501556104c081015160048501556104e081015160058501556105008101516006850155015191015580f35b6001600160401b0381949294116110795760405291610520610f65565b634e487b7160e01b82526041600452602482fd5b6040513d86823e3d90fd5b8780fd5b60405162461bcd60e51b8152600481018490526014602482015273151bdad95b88191bd95cc81b9bdd08195e1a5cdd60621b6044820152606490fd5b90508381813d831161110a575b6110ef818361145d565b810103126111065761110090611ef9565b38610d27565b8480fd5b503d6110e5565b6040513d87823e3d90fd5b50346108625760031960203682011261085e57600435906001600160401b03908183116112b9576102a09083360301126112b5576040519261115d846113f4565b82600401359182116108625761024c610240856112aa6102848761118636898301600401611499565b84526024810135602085015260448101356040850152606481013560608501526084810135608085015260a481013560a085015260c481013560c085015260e481013560e08501526101048101356101008501526101248101356101208501526111f3610144820161171c565b610140850152611206610164820161171c565b610160850152611219610184820161171c565b61018085015261122c6101a4820161171c565b6101a085015261123f6101c4820161171c565b6101c08501526112526101e4820161171c565b6101e0850152611265610204820161171c565b610200850152611278610224820161171c565b61022085015261128b610244820161171c565b61024085015261129e610264820161171c565b6102608501520161171c565b610280820152611aa2565b8280fd5b8380fd5b5034610862576020366003190112610862576112d7611975565b50600954604051631f4f5a2360e01b81526004803590820152908290829060249082906001600160a01b03165afa908115610ba15790610240918361024c9492610b7e575050611aa2565b5034610862576040366003190112610862576001600160401b036004358181116112b557611354903690600401611499565b91602435918211610862576020610bda846113723660048701611499565b906121a8565b82346108625760206108968361138d366113d9565b4485840190815260208101929092524360408301524260608084019190915233901b6bffffffffffffffffffffffff19166080830152916113d18160948401610a28565b51902061216b565b60409060031901126113ef576004359060243590565b600080fd5b6102a081019081106001600160401b0382111761141057604052565b634e487b7160e01b600052604160045260246000fd5b61054081019081106001600160401b0382111761141057604052565b60c081019081106001600160401b0382111761141057604052565b90601f801991011681019081106001600160401b0382111761141057604052565b6001600160401b03811161141057601f01601f191660200190565b81601f820112156113ef578035906114b08261147e565b926114be604051948561145d565b828452602083830101116113ef57816000926020809301838601378301015290565b60005b8381106114f35750506000910152565b81810151838201526020016114e3565b9060209161151c815180928185528580860191016114e0565b601f01601f1916010190565b60208152815161154661054091826020850152610560840190611503565b92602081015160408401526040810151606084015260608101516080840152608081015160a084015260a081015160c084015260c081015160e084015260e0810151610100908185015281015161012090818501528101516101409081850152810151151561016090818501528101511515610180908185015281015115156101a0908185015281015115156101c0908185015281015115156101e09081850152810151151561020090818501528101511515610220908185015281015115156102409081850152810151151561026090818501528101511515610280908185015281015115156102a0908185015281015115156102c090818501528101516102e09081850152810151610300908185015281015161032090818501528101516103409081850152810151610360908185015281015161038090818501528101516103a090818501528101516103c090818501528101516103e09081850152810151610400908185015281015161042090818501528101516104409081850152810151610460908185015281015161048090818501528101516104a090818501528101516104c090818501528101516104e090818501528101516105009081850152810151906105209182850152015191015290565b359081151582036113ef57565b919091610540818403126113ef576040519061174482611426565b81938135906001600160401b0382116113ef57611762918301611499565b82526020810135602083015260408101356040830152606081013560608301526080810135608083015260a081013560a083015260c081013560c083015260e081013560e0830152610100808201359083015261012080820135908301526101406117ce81830161171c565b908301526101606117e081830161171c565b908301526101806117f281830161171c565b908301526101a061180481830161171c565b908301526101c061181681830161171c565b908301526101e061182881830161171c565b9083015261020061183a81830161171c565b9083015261022061184c81830161171c565b9083015261024061185e81830161171c565b9083015261026061187081830161171c565b9083015261028061188281830161171c565b908301526102a061189481830161171c565b908301526102c080820135908301526102e08082013590830152610300808201359083015261032080820135908301526103408082013590830152610360808201359083015261038080820135908301526103a080820135908301526103c080820135908301526103e08082013590830152610400808201359083015261042080820135908301526104408082013590830152610460808201359083015261048080820135908301526104a080820135908301526104c080820135908301526104e08082013590830152610500808201359083015261052080910135910152565b6040519061198282611426565b81606081526105206000918260208201528260408201528260608201528260808201528260a08201528260c08201528260e08201528261010082015282610120820152826101408201528261016082015282610180820152826101a0820152826101c0820152826101e08201528261020082015282610220820152826102408201528261026082015282610280820152826102a0820152826102c0820152826102e08201528261030082015282610320820152826103408201528261036082015282610380820152826103a0820152826103c0820152826103e08201528261040082015282610420820152826104408201528261046082015282610480820152826104a0820152826104c0820152826104e0820152826105008201520152565b61048052611aae611975565b506104805180516101405280808080808080808080611b83816102806101e06101c06101a061018061016061014061012061010060e060c060a060208d01519c8d6104005260408101516104605260608101516104405260808101516104205201519d01519d01519d01519d01519d015115159d015115159d015115159d015115159d015115159d015115159d610200810151151560a0526102208101511515608052610240810151151560c052610260810151151560e0520151151561010052600052602460205260ff6040600020541690565b6103e05260206104805101805160005260216020526040600020546103805280516000526001604060002001546103a05280516000526002604060002001546103c052805160005260036040600020015461032052805160005260046040600020015461034052805160005260056040600020015461036052805160005260226020526040600020546102e05280516000526001604060002001546103005280516000526002604060002001546102405280516000526003604060002001546102805280516000526004604060002001546102605280516000526005604060002001546101e052805160005260236020526040600020546102205280516000526001604060002001546102005280516000526002604060002001546102c05280516000526003604060002001546102a05280516000526004604060002001546101a052805160005260056040600020015461016052805160005260066040600020015461018052516000526007604060002001546101c052611d0b6040518061012052611426565b61014051610120515261040051602061012051015261046051604061012051015261044051606061012051015261042051608061012051015260a061012051015260c061012051015260e0610120510152610100610120510152610120805101526101406101205101526101606101205101526101806101205101526101a06101205101526101c06101205101526101e061012051015260a05161020061012051015260805161022061012051015260c05161024061012051015260e051610260610120510152610100516102806101205101526103e05115156102a0610120510152610380516102c06101205101526103a0516102e06101205101526103c0516103006101205101526103205161032061012051015261034051610340610120510152610360516103606101205101526102e051610380610120510152610300516103a0610120510152610240516103c0610120510152610280516103e0610120510152610260516104006101205101526101e05161042061012051015261022051610440610120510152610200516104606101205101526102c0516104806101205101526102a0516104a06101205101526101a0516104c0610120510152610160516104e0610120510152610180516105006101205101526101c0516105206101205101526101205190565b519081151582036113ef57565b90602080838303126113ef5782516001600160401b03938482116113ef5701916102a0838203126113ef5760405193611f3e856113f4565b83519081116113ef57830181601f820112156113ef578051611f5f8161147e565b92611f6d604051948561145d565b8184528482840101116113ef57611f89918480850191016114e0565b8352808201519083015260408101516040830152606081015160608301526080810151608083015260a081015160a083015260c081015160c083015260e081015160e083015261010080820151908301526101208082015190830152610140611ff3818301611ef9565b90830152610160612005818301611ef9565b90830152610180612017818301611ef9565b908301526101a0612029818301611ef9565b908301526101c061203b818301611ef9565b908301526101e061204d818301611ef9565b9083015261020061205f818301611ef9565b90830152610220612071818301611ef9565b90830152610240612083818301611ef9565b90830152610260612095818301611ef9565b908301526120a7610280809201611ef9565b9082015290565b604051906120bb826113f4565b81606081526102806000918260208201528260408201528260608201528260808201528260a08201528260c08201528260e08201528261010082015282610120820152826101408201528261016082015282610180820152826101a0820152826101c0820152826101e0820152826102008201528261022082015282610240820152826102608201520152565b9190820180921161215557565b634e487b7160e01b600052601160045260246000fd5b8115612175570690565b634e487b7160e01b600052601260045260246000fd5b1561219257565b634e487b7160e01b600052600160045260246000fd5b90604051916020926121d68482816121c981830196878151938492016114e0565b810103808452018261145d565b519020916121f66040519182816121c981830196878151938492016114e0565b5190200361220357600190565b60009056fea26469706673582212200766addbe5209b0e94dabe75ad8a148f7968db1a92530181942579a16f3614cb64736f6c63430008130033",
  "immutableReferences": {},
  "source": "// SPDX-License-Identifier: MIT\npragma solidity ^0.8.18;\n\nimport \"./SafeMath.sol\";\nimport \"./ItemsExcellentAtts.sol\";\nimport \"./Items.sol\";\n\ncontract ItemsExcellent is ItemsExcellentAtts, SafeMath {  \n    Items private _items;\n\n    constructor(address itemsAddress) {\n        _items = Items(itemsAddress);\n    }\n\n    struct WingsExcOptions {\n        uint256 increaseAttackSpeedPoints;\n        uint256 reflectDamagePercent;\n        uint256 restoreHPChance;\n        uint256 restoreMPChance;\n        uint256 doubleDamageChance;\n        uint256 ignoreOpponentDefenseChance;\n\n        uint256 doubleOptionChance;\n    }\n\n    WingsExcOptions WingsExcOptionsDropRates = WingsExcOptions({\n        increaseAttackSpeedPoints: 15,\n        reflectDamagePercent: 15,\n        restoreHPChance: 30,\n        restoreMPChance: 30,\n        doubleDamageChance: 5,\n        ignoreOpponentDefenseChance: 3,\n\n        doubleOptionChance: 15\n    });\n\n\n    struct WeaponsExcOptions {\n        uint256 lifeAfterMonsterIncrease;\n        uint256 manaAfterMonsterIncrease;\n        uint256 excellentDamageProbabilityIncrease;\n        uint256 attackSpeedIncrease;\n        uint256 attackLvl20; \n        uint256 attackIncreasePercent; \n\n        uint256 doubleOptionChance;\n    }\n\n    WeaponsExcOptions WeaponsExcOptionsDropRates = WeaponsExcOptions({\n        lifeAfterMonsterIncrease: 35,\n        manaAfterMonsterIncrease: 35,\n        excellentDamageProbabilityIncrease: 10,\n        attackSpeedIncrease: 10,\n        attackLvl20: 10,\n        attackIncreasePercent: 10,\n\n        doubleOptionChance: 15\n    });\n\n    struct ArmoursExcOptions {\n        uint256 defenseSuccessRateIncrease;\n        uint256 goldAfterMonsterIncrease;\n        uint256 reflectDamage;\n        uint256 maxLifeIncrease;\n        uint256 maxManaIncrease;\n        uint256 hpRecoveryRateIncrease;\n        uint256 mpRecoveryRateIncrease;\n        uint256 decreaseDamageRateIncrease;\n\n        uint256 doubleOptionChance;\n    }\n\n    ArmoursExcOptions ArmourExcOptionsDropRates = ArmoursExcOptions({\n        defenseSuccessRateIncrease: 10,\n        goldAfterMonsterIncrease: 20,\n        reflectDamage: 10,\n        maxLifeIncrease: 10,\n        maxManaIncrease: 10,\n        hpRecoveryRateIncrease: 10,\n        mpRecoveryRateIncrease: 10,\n        decreaseDamageRateIncrease: 10,\n\n        doubleOptionChance: 30\n    });\n\n\n    mapping (uint256 => WingsExcOptions) public WingsExcOpts;\n    mapping (uint256 => WeaponsExcOptions) public WeaponsExcOpts;\n    mapping (uint256 => ArmoursExcOptions) public ArmoursExcOpts;\n    mapping (uint256 => bool) public isExcellent;\n\n\n    function isItemExcellent(uint256 tokenId) public view returns (bool) {\n        return isExcellent[tokenId];\n    }\n\n    function convertToExcellent(ItemAttributes memory item) public view returns (ExcellentItemAtts memory) {\n\n        // Initialize the ExcellentItemAtts struct\n        ExcellentItemAtts memory excellentItem = ExcellentItemAtts({\n            name: item.name,\n            tokenId: item.tokenId,\n            itemLevel: item.itemLevel,\n            maxLevel: item.maxLevel,\n            additionalDamage: item.additionalDamage,\n            additionalDefense: item.additionalDefense,\n            fighterId: item.fighterId,\n            lastUpdBlock: item.lastUpdBlock,\n            itemRarityLevel: item.itemRarityLevel,\n            packSize: item.packSize,\n            luck: item.luck,\n            skill: item.skill,\n            isPackable: item.isPackable,\n            isBox: item.isBox,\n            isWeapon: item.isWeapon,\n            isArmour: item.isArmour,\n            isJewel: item.isJewel,\n            isWings: item.isWings,\n            isMisc: item.isMisc,\n            isConsumable: item.isConsumable,\n            inShop: item.inShop,\n\n            // Excellent attributes\n            isExcellent: isItemExcellent(item.tokenId),\n            increaseAttackSpeedPoints: WingsExcOpts[item.tokenId].increaseAttackSpeedPoints,\n            reflectDamagePercent: WingsExcOpts[item.tokenId].reflectDamagePercent,\n            restoreHPChance: WingsExcOpts[item.tokenId].restoreHPChance,\n            restoreMPChance: WingsExcOpts[item.tokenId].restoreMPChance,\n            doubleDamageChance: WingsExcOpts[item.tokenId].doubleDamageChance,\n            ignoreOpponentDefenseChance: WingsExcOpts[item.tokenId].ignoreOpponentDefenseChance,\n\n            lifeAfterMonsterIncrease: WeaponsExcOpts[item.tokenId].lifeAfterMonsterIncrease,\n            manaAfterMonsterIncrease: WeaponsExcOpts[item.tokenId].manaAfterMonsterIncrease,\n            excellentDamageProbabilityIncrease: WeaponsExcOpts[item.tokenId].excellentDamageProbabilityIncrease,\n            attackSpeedIncrease: WeaponsExcOpts[item.tokenId].attackSpeedIncrease,\n            attackLvl20: WeaponsExcOpts[item.tokenId].attackLvl20,\n            attackIncreasePercent: WeaponsExcOpts[item.tokenId].attackIncreasePercent,\n\n            defenseSuccessRateIncrease: ArmoursExcOpts[item.tokenId].defenseSuccessRateIncrease,\n            goldAfterMonsterIncrease: ArmoursExcOpts[item.tokenId].goldAfterMonsterIncrease,\n            reflectDamage: ArmoursExcOpts[item.tokenId].reflectDamage,\n            maxLifeIncrease: ArmoursExcOpts[item.tokenId].maxLifeIncrease,\n            maxManaIncrease: ArmoursExcOpts[item.tokenId].maxManaIncrease,\n            hpRecoveryRateIncrease: ArmoursExcOpts[item.tokenId].hpRecoveryRateIncrease,\n            mpRecoveryRateIncrease: ArmoursExcOpts[item.tokenId].mpRecoveryRateIncrease,\n            decreaseDamageRateIncrease: ArmoursExcOpts[item.tokenId].decreaseDamageRateIncrease\n        });\n\n        return excellentItem;\n    }\n\n\n    function assignExcellentAtts(ExcellentItemAtts memory a, uint256 tokenId) internal returns (ExcellentItemAtts memory) {\n        a.isExcellent = isItemExcellent(tokenId);    \n\n        a.increaseAttackSpeedPoints = WingsExcOpts[tokenId].increaseAttackSpeedPoints;\n        a.reflectDamagePercent = WingsExcOpts[tokenId].reflectDamagePercent;\n        a.restoreHPChance = WingsExcOpts[tokenId].restoreHPChance;\n        a.restoreMPChance = WingsExcOpts[tokenId].restoreMPChance;\n        a.doubleDamageChance = WingsExcOpts[tokenId].doubleDamageChance;\n        a.ignoreOpponentDefenseChance = WingsExcOpts[tokenId].ignoreOpponentDefenseChance;\n\n\n        a.lifeAfterMonsterIncrease = WeaponsExcOpts[tokenId].lifeAfterMonsterIncrease;\n        a.manaAfterMonsterIncrease = WeaponsExcOpts[tokenId].manaAfterMonsterIncrease;\n        a.excellentDamageProbabilityIncrease = WeaponsExcOpts[tokenId].excellentDamageProbabilityIncrease;\n        a.attackSpeedIncrease = WeaponsExcOpts[tokenId].attackSpeedIncrease;\n        a.attackLvl20 = WeaponsExcOpts[tokenId].attackLvl20;\n        a.attackIncreasePercent = WeaponsExcOpts[tokenId].attackIncreasePercent;\n\n\n        a.defenseSuccessRateIncrease = ArmoursExcOpts[tokenId].defenseSuccessRateIncrease;\n        a.goldAfterMonsterIncrease = ArmoursExcOpts[tokenId].goldAfterMonsterIncrease;\n        a.reflectDamage = ArmoursExcOpts[tokenId].reflectDamage;\n        a.maxLifeIncrease = ArmoursExcOpts[tokenId].maxLifeIncrease;\n        a.maxManaIncrease = ArmoursExcOpts[tokenId].maxManaIncrease;\n        a.hpRecoveryRateIncrease = ArmoursExcOpts[tokenId].hpRecoveryRateIncrease;\n        a.mpRecoveryRateIncrease = ArmoursExcOpts[tokenId].mpRecoveryRateIncrease;\n        a.decreaseDamageRateIncrease = ArmoursExcOpts[tokenId].decreaseDamageRateIncrease;\n\n        return a;\n    }\n\n    function convertToItemAttributes(ExcellentItemAtts memory eia) internal pure returns (ItemAttributes memory) {\n        ItemAttributes memory ia;\n\n        ia.name = eia.name;\n        ia.tokenId = eia.tokenId;\n        ia.itemLevel = eia.itemLevel;\n        ia.maxLevel = eia.maxLevel;\n\n        ia.additionalDamage = eia.additionalDamage;\n        ia.additionalDefense = eia.additionalDefense;\n\n        ia.fighterId = eia.fighterId;\n        ia.lastUpdBlock = eia.lastUpdBlock;\n        ia.itemRarityLevel = eia.itemRarityLevel;\n\n        ia.packSize = eia.packSize;\n\n        ia.luck = eia.luck;\n        ia.skill = eia.skill;\n        ia.isPackable = eia.isPackable;\n\n        ia.isBox = eia.isBox;\n        ia.isWeapon = eia.isWeapon;\n        ia.isArmour = eia.isArmour;\n        ia.isJewel = eia.isJewel;\n        ia.isWings = eia.isWings;\n        ia.isMisc = eia.isMisc;\n        ia.inShop = eia.inShop;\n\n        return ia;\n    }\n\n\n    function reverseAssignExcellentAtts(uint256 tokenId, ExcellentItemAtts memory a) internal {\n        WingsExcOpts[tokenId].increaseAttackSpeedPoints = a.increaseAttackSpeedPoints;\n        WingsExcOpts[tokenId].reflectDamagePercent = a.reflectDamagePercent;\n        WingsExcOpts[tokenId].restoreHPChance = a.restoreHPChance;\n        WingsExcOpts[tokenId].restoreMPChance = a.restoreMPChance;\n        WingsExcOpts[tokenId].doubleDamageChance = a.doubleDamageChance;\n        WingsExcOpts[tokenId].ignoreOpponentDefenseChance = a.ignoreOpponentDefenseChance;\n\n        WeaponsExcOpts[tokenId].lifeAfterMonsterIncrease = a.lifeAfterMonsterIncrease;\n        WeaponsExcOpts[tokenId].manaAfterMonsterIncrease = a.manaAfterMonsterIncrease;\n        WeaponsExcOpts[tokenId].excellentDamageProbabilityIncrease = a.excellentDamageProbabilityIncrease;\n        WeaponsExcOpts[tokenId].attackSpeedIncrease = a.attackSpeedIncrease;\n        WeaponsExcOpts[tokenId].attackLvl20 = a.attackLvl20;\n        WeaponsExcOpts[tokenId].attackIncreasePercent = a.attackIncreasePercent;\n\n        ArmoursExcOpts[tokenId].defenseSuccessRateIncrease = a.defenseSuccessRateIncrease;\n        ArmoursExcOpts[tokenId].goldAfterMonsterIncrease = a.goldAfterMonsterIncrease;\n        ArmoursExcOpts[tokenId].reflectDamage = a.reflectDamage;\n        ArmoursExcOpts[tokenId].maxLifeIncrease = a.maxLifeIncrease;\n        ArmoursExcOpts[tokenId].maxManaIncrease = a.maxManaIncrease;\n        ArmoursExcOpts[tokenId].hpRecoveryRateIncrease = a.hpRecoveryRateIncrease;\n        ArmoursExcOpts[tokenId].mpRecoveryRateIncrease = a.mpRecoveryRateIncrease;\n        ArmoursExcOpts[tokenId].decreaseDamageRateIncrease = a.decreaseDamageRateIncrease;\n    }\n\n\n\n\n    function getItemAttributes(string memory itemName) external returns (ExcellentItemAtts memory) {\n        ItemAttributes memory itemAtts = _items.getItemAttributes(itemName);\n        return convertToExcellent(itemAtts);\n    }\n\n    function getTokenAttributes(uint256 tokenId) external returns (ExcellentItemAtts memory) {\n        ItemAttributes memory tokenAtts = _items.getTokenAttributes(tokenId);\n\n        return convertToExcellent(tokenAtts);\n    }\n\n    function setTokenAttributes(uint256 tokenId, ExcellentItemAtts memory atts) external {\n        require(_items.itemExists(tokenId), \"Token does not exist\");\n\n        ItemAttributes memory baseAtts = convertToItemAttributes(atts);\n        _items.setTokenAttributes(tokenId, baseAtts);\n        reverseAssignExcellentAtts(tokenId, atts);\n    }\n\n\n    function getRandomArmourExcOption(ExcellentItemAtts memory item,  uint256 seed) internal returns (ExcellentItemAtts memory) {\n        uint256 randomNumber = getRandomNumber(seed);\n        uint256 totalProbability = ArmourExcOptionsDropRates.defenseSuccessRateIncrease +\n            ArmourExcOptionsDropRates.goldAfterMonsterIncrease +\n            ArmourExcOptionsDropRates.reflectDamage +\n            ArmourExcOptionsDropRates.maxLifeIncrease +\n            ArmourExcOptionsDropRates.maxManaIncrease +\n            ArmourExcOptionsDropRates.hpRecoveryRateIncrease +\n            ArmourExcOptionsDropRates.mpRecoveryRateIncrease +\n            ArmourExcOptionsDropRates.decreaseDamageRateIncrease;\n        \n\n        uint256 randomIndex = randomNumber % totalProbability;\n\n        if (randomIndex <= ArmourExcOptionsDropRates.defenseSuccessRateIncrease) {\n            item.defenseSuccessRateIncrease = 1;\n        } else if (randomIndex <= ArmourExcOptionsDropRates.defenseSuccessRateIncrease \n            + ArmourExcOptionsDropRates.goldAfterMonsterIncrease) {\n            item.goldAfterMonsterIncrease = 1;\n        } else if (randomIndex <= ArmourExcOptionsDropRates.defenseSuccessRateIncrease \n            + ArmourExcOptionsDropRates.goldAfterMonsterIncrease\n            + ArmourExcOptionsDropRates.reflectDamage) {\n            item.reflectDamage = 1;\n        } else if (randomIndex <= ArmourExcOptionsDropRates.defenseSuccessRateIncrease \n            + ArmourExcOptionsDropRates.goldAfterMonsterIncrease\n            + ArmourExcOptionsDropRates.reflectDamage\n            + ArmourExcOptionsDropRates.maxLifeIncrease) {\n            item.maxLifeIncrease = 1;\n        } else if (randomIndex <= ArmourExcOptionsDropRates.defenseSuccessRateIncrease \n            + ArmourExcOptionsDropRates.goldAfterMonsterIncrease\n            + ArmourExcOptionsDropRates.reflectDamage\n            + ArmourExcOptionsDropRates.maxLifeIncrease\n            + ArmourExcOptionsDropRates.maxManaIncrease) {\n            item.maxManaIncrease = 1;\n        } else if (randomIndex <= ArmourExcOptionsDropRates.defenseSuccessRateIncrease \n            + ArmourExcOptionsDropRates.goldAfterMonsterIncrease\n            + ArmourExcOptionsDropRates.reflectDamage\n            + ArmourExcOptionsDropRates.maxLifeIncrease\n            + ArmourExcOptionsDropRates.maxManaIncrease\n            + ArmourExcOptionsDropRates.hpRecoveryRateIncrease) {\n            item.hpRecoveryRateIncrease = 1;\n        } else if (randomIndex <= ArmourExcOptionsDropRates.defenseSuccessRateIncrease \n            + ArmourExcOptionsDropRates.goldAfterMonsterIncrease\n            + ArmourExcOptionsDropRates.reflectDamage\n            + ArmourExcOptionsDropRates.maxLifeIncrease\n            + ArmourExcOptionsDropRates.maxManaIncrease\n            + ArmourExcOptionsDropRates.hpRecoveryRateIncrease\n            + ArmourExcOptionsDropRates.mpRecoveryRateIncrease) {\n            item.mpRecoveryRateIncrease = 1;\n        } else {\n            item.decreaseDamageRateIncrease = 1;\n        }\n\n        return item;\n    }\n\n\n\n    function addExcellentOption(ExcellentItemAtts memory excItem) external returns (ExcellentItemAtts memory newItem) {\n\n\n        excItem.itemLevel = 0;\n        if (excItem.isWeapon) {\n            excItem.skill = true;\n            // choose from weapon exc options            \n            excItem = getRandomWeaponExcOption(excItem, 11);\n            if (getRandomNumber(12) <= WeaponsExcOptionsDropRates.doubleOptionChance) {\n                isExcellent[excItem.tokenId] = true;\n                excItem = getRandomWeaponExcOption(excItem, 13);\n            }\n        } else if (excItem.isArmour) {\n            // choose from armout exc options\n            excItem = getRandomArmourExcOption(excItem, 14);\n            if (getRandomNumber(15) <= ArmourExcOptionsDropRates.doubleOptionChance) {\n                isExcellent[excItem.tokenId] = true;\n                excItem = getRandomArmourExcOption(excItem, 16);\n            }\n        }\n\n        return excItem;\n    }\n\n    function getRandomWeaponExcOption(ExcellentItemAtts memory item,  uint256 seed) internal returns (ExcellentItemAtts memory) {\n        uint256 randomNumber = getRandomNumber(seed);\n        uint256 totalProbability = WeaponsExcOptionsDropRates.lifeAfterMonsterIncrease +\n            WeaponsExcOptionsDropRates.manaAfterMonsterIncrease +\n            WeaponsExcOptionsDropRates.excellentDamageProbabilityIncrease +\n            WeaponsExcOptionsDropRates.attackSpeedIncrease +\n            WeaponsExcOptionsDropRates.attackLvl20 +\n            WeaponsExcOptionsDropRates.attackIncreasePercent;\n        \n\n        uint256 randomIndex = randomNumber % totalProbability;\n\n        if (randomIndex <= WeaponsExcOptionsDropRates.lifeAfterMonsterIncrease) {\n            item.lifeAfterMonsterIncrease = 1;\n        } else if (randomIndex <= WeaponsExcOptionsDropRates.lifeAfterMonsterIncrease \n            + WeaponsExcOptionsDropRates.manaAfterMonsterIncrease) {\n            item.manaAfterMonsterIncrease = 1;\n        } else if (randomIndex <= WeaponsExcOptionsDropRates.lifeAfterMonsterIncrease \n            + WeaponsExcOptionsDropRates.manaAfterMonsterIncrease\n            + WeaponsExcOptionsDropRates.excellentDamageProbabilityIncrease) {\n            item.excellentDamageProbabilityIncrease = 1;\n        } else if (randomIndex <= WeaponsExcOptionsDropRates.lifeAfterMonsterIncrease \n            + WeaponsExcOptionsDropRates.manaAfterMonsterIncrease\n            + WeaponsExcOptionsDropRates.excellentDamageProbabilityIncrease\n            + WeaponsExcOptionsDropRates.attackSpeedIncrease) {\n            item.attackSpeedIncrease = 1;\n        } else if (randomIndex <= WeaponsExcOptionsDropRates.lifeAfterMonsterIncrease \n            + WeaponsExcOptionsDropRates.manaAfterMonsterIncrease\n            + WeaponsExcOptionsDropRates.excellentDamageProbabilityIncrease\n            + WeaponsExcOptionsDropRates.attackSpeedIncrease\n            + WeaponsExcOptionsDropRates.attackLvl20 ) {\n            item.attackLvl20 = 1;\n        } else {\n            item.attackIncreasePercent = 1;\n        }\n\n        return item;\n    }\n\n}",
  "sourcePath": "/Users/max/Documents/prog/game-contracts/contracts/ItemsExcellent.sol",
  "compiler": {
    "name": "solc",
    "version": "0.8.19+commit.7dd6d404.Emscripten.clang"
  },
  "schemaVersion": "3.4.13",
  "updatedAt": "2023-09-03T04:36:07.080Z",
  "networkType": "ethereum",
  "devdoc": {
    "kind": "dev",
    "methods": {},
    "version": 1
  },
  "userdoc": {
    "kind": "user",
    "methods": {},
    "version": 1
  }
}