{
  "contractName": "Items",
  "abi": [
    {
      "inputs": [
        {
          "internalType": "address",
          "name": "ItemsBaseContract",
          "type": "address"
        }
      ],
      "stateMutability": "nonpayable",
      "type": "constructor"
    },
    {
      "anonymous": false,
      "inputs": [
        {
          "indexed": true,
          "internalType": "address",
          "name": "owner",
          "type": "address"
        },
        {
          "indexed": true,
          "internalType": "address",
          "name": "approved",
          "type": "address"
        },
        {
          "indexed": true,
          "internalType": "uint256",
          "name": "tokenId",
          "type": "uint256"
        }
      ],
      "name": "Approval",
      "type": "event"
    },
    {
      "anonymous": false,
      "inputs": [
        {
          "indexed": true,
          "internalType": "address",
          "name": "owner",
          "type": "address"
        },
        {
          "indexed": true,
          "internalType": "address",
          "name": "operator",
          "type": "address"
        },
        {
          "indexed": false,
          "internalType": "bool",
          "name": "approved",
          "type": "bool"
        }
      ],
      "name": "ApprovalForAll",
      "type": "event"
    },
    {
      "anonymous": false,
      "inputs": [
        {
          "indexed": false,
          "internalType": "uint256",
          "name": "tokenId",
          "type": "uint256"
        },
        {
          "indexed": false,
          "internalType": "uint256",
          "name": "newLevel",
          "type": "uint256"
        }
      ],
      "name": "ItemLevelUpgrade",
      "type": "event"
    },
    {
      "anonymous": false,
      "inputs": [
        {
          "indexed": true,
          "internalType": "address",
          "name": "from",
          "type": "address"
        },
        {
          "indexed": true,
          "internalType": "address",
          "name": "to",
          "type": "address"
        },
        {
          "indexed": true,
          "internalType": "uint256",
          "name": "tokenId",
          "type": "uint256"
        }
      ],
      "name": "Transfer",
      "type": "event"
    },
    {
      "inputs": [
        {
          "internalType": "address",
          "name": "to",
          "type": "address"
        },
        {
          "internalType": "uint256",
          "name": "tokenId",
          "type": "uint256"
        }
      ],
      "name": "approve",
      "outputs": [],
      "stateMutability": "nonpayable",
      "type": "function"
    },
    {
      "inputs": [
        {
          "internalType": "address",
          "name": "owner",
          "type": "address"
        }
      ],
      "name": "balanceOf",
      "outputs": [
        {
          "internalType": "uint256",
          "name": "",
          "type": "uint256"
        }
      ],
      "stateMutability": "view",
      "type": "function",
      "constant": true
    },
    {
      "inputs": [
        {
          "internalType": "uint256",
          "name": "tokenId",
          "type": "uint256"
        }
      ],
      "name": "getApproved",
      "outputs": [
        {
          "internalType": "address",
          "name": "",
          "type": "address"
        }
      ],
      "stateMutability": "view",
      "type": "function",
      "constant": true
    },
    {
      "inputs": [
        {
          "internalType": "uint256",
          "name": "seed",
          "type": "uint256"
        }
      ],
      "name": "getRandomNumber",
      "outputs": [
        {
          "internalType": "uint256",
          "name": "",
          "type": "uint256"
        }
      ],
      "stateMutability": "view",
      "type": "function",
      "constant": true
    },
    {
      "inputs": [
        {
          "internalType": "uint256",
          "name": "seed",
          "type": "uint256"
        },
        {
          "internalType": "uint256",
          "name": "maxNum",
          "type": "uint256"
        }
      ],
      "name": "getRandomNumberMax",
      "outputs": [
        {
          "internalType": "uint256",
          "name": "",
          "type": "uint256"
        }
      ],
      "stateMutability": "view",
      "type": "function",
      "constant": true
    },
    {
      "inputs": [
        {
          "internalType": "address",
          "name": "owner",
          "type": "address"
        },
        {
          "internalType": "address",
          "name": "operator",
          "type": "address"
        }
      ],
      "name": "isApprovedForAll",
      "outputs": [
        {
          "internalType": "bool",
          "name": "",
          "type": "bool"
        }
      ],
      "stateMutability": "view",
      "type": "function",
      "constant": true
    },
    {
      "inputs": [
        {
          "internalType": "uint256",
          "name": "a",
          "type": "uint256"
        },
        {
          "internalType": "uint256",
          "name": "b",
          "type": "uint256"
        }
      ],
      "name": "max",
      "outputs": [
        {
          "internalType": "uint256",
          "name": "",
          "type": "uint256"
        }
      ],
      "stateMutability": "view",
      "type": "function",
      "constant": true
    },
    {
      "inputs": [
        {
          "internalType": "uint256",
          "name": "a",
          "type": "uint256"
        },
        {
          "internalType": "uint256",
          "name": "b",
          "type": "uint256"
        }
      ],
      "name": "min",
      "outputs": [
        {
          "internalType": "uint256",
          "name": "",
          "type": "uint256"
        }
      ],
      "stateMutability": "view",
      "type": "function",
      "constant": true
    },
    {
      "inputs": [],
      "name": "name",
      "outputs": [
        {
          "internalType": "string",
          "name": "",
          "type": "string"
        }
      ],
      "stateMutability": "view",
      "type": "function",
      "constant": true
    },
    {
      "inputs": [],
      "name": "owner",
      "outputs": [
        {
          "internalType": "address",
          "name": "",
          "type": "address"
        }
      ],
      "stateMutability": "view",
      "type": "function",
      "constant": true
    },
    {
      "inputs": [
        {
          "internalType": "uint256",
          "name": "tokenId",
          "type": "uint256"
        }
      ],
      "name": "ownerOf",
      "outputs": [
        {
          "internalType": "address",
          "name": "",
          "type": "address"
        }
      ],
      "stateMutability": "view",
      "type": "function",
      "constant": true
    },
    {
      "inputs": [
        {
          "internalType": "uint256",
          "name": "a",
          "type": "uint256"
        },
        {
          "internalType": "uint256",
          "name": "b",
          "type": "uint256"
        }
      ],
      "name": "safeAdd",
      "outputs": [
        {
          "internalType": "uint256",
          "name": "",
          "type": "uint256"
        }
      ],
      "stateMutability": "view",
      "type": "function",
      "constant": true
    },
    {
      "inputs": [
        {
          "internalType": "uint256",
          "name": "a",
          "type": "uint256"
        },
        {
          "internalType": "uint256",
          "name": "b",
          "type": "uint256"
        }
      ],
      "name": "safeMul",
      "outputs": [
        {
          "internalType": "uint256",
          "name": "",
          "type": "uint256"
        }
      ],
      "stateMutability": "view",
      "type": "function",
      "constant": true
    },
    {
      "inputs": [
        {
          "internalType": "uint256",
          "name": "a",
          "type": "uint256"
        },
        {
          "internalType": "uint256",
          "name": "b",
          "type": "uint256"
        }
      ],
      "name": "safeSub",
      "outputs": [
        {
          "internalType": "uint256",
          "name": "",
          "type": "uint256"
        }
      ],
      "stateMutability": "view",
      "type": "function",
      "constant": true
    },
    {
      "inputs": [
        {
          "internalType": "address",
          "name": "from",
          "type": "address"
        },
        {
          "internalType": "address",
          "name": "to",
          "type": "address"
        },
        {
          "internalType": "uint256",
          "name": "tokenId",
          "type": "uint256"
        }
      ],
      "name": "safeTransferFrom",
      "outputs": [],
      "stateMutability": "nonpayable",
      "type": "function"
    },
    {
      "inputs": [
        {
          "internalType": "address",
          "name": "from",
          "type": "address"
        },
        {
          "internalType": "address",
          "name": "to",
          "type": "address"
        },
        {
          "internalType": "uint256",
          "name": "tokenId",
          "type": "uint256"
        },
        {
          "internalType": "bytes",
          "name": "data",
          "type": "bytes"
        }
      ],
      "name": "safeTransferFrom",
      "outputs": [],
      "stateMutability": "nonpayable",
      "type": "function"
    },
    {
      "inputs": [
        {
          "internalType": "address",
          "name": "operator",
          "type": "address"
        },
        {
          "internalType": "bool",
          "name": "approved",
          "type": "bool"
        }
      ],
      "name": "setApprovalForAll",
      "outputs": [],
      "stateMutability": "nonpayable",
      "type": "function"
    },
    {
      "inputs": [
        {
          "internalType": "string",
          "name": "a",
          "type": "string"
        },
        {
          "internalType": "string",
          "name": "b",
          "type": "string"
        }
      ],
      "name": "stringsEqual",
      "outputs": [
        {
          "internalType": "bool",
          "name": "",
          "type": "bool"
        }
      ],
      "stateMutability": "view",
      "type": "function",
      "constant": true
    },
    {
      "inputs": [
        {
          "internalType": "bytes4",
          "name": "interfaceId",
          "type": "bytes4"
        }
      ],
      "name": "supportsInterface",
      "outputs": [
        {
          "internalType": "bool",
          "name": "",
          "type": "bool"
        }
      ],
      "stateMutability": "view",
      "type": "function",
      "constant": true
    },
    {
      "inputs": [],
      "name": "symbol",
      "outputs": [
        {
          "internalType": "string",
          "name": "",
          "type": "string"
        }
      ],
      "stateMutability": "view",
      "type": "function",
      "constant": true
    },
    {
      "inputs": [
        {
          "internalType": "uint256",
          "name": "index",
          "type": "uint256"
        }
      ],
      "name": "tokenByIndex",
      "outputs": [
        {
          "internalType": "uint256",
          "name": "",
          "type": "uint256"
        }
      ],
      "stateMutability": "view",
      "type": "function",
      "constant": true
    },
    {
      "inputs": [
        {
          "internalType": "address",
          "name": "owner",
          "type": "address"
        },
        {
          "internalType": "uint256",
          "name": "index",
          "type": "uint256"
        }
      ],
      "name": "tokenOfOwnerByIndex",
      "outputs": [
        {
          "internalType": "uint256",
          "name": "",
          "type": "uint256"
        }
      ],
      "stateMutability": "view",
      "type": "function",
      "constant": true
    },
    {
      "inputs": [
        {
          "internalType": "uint256",
          "name": "tokenId",
          "type": "uint256"
        }
      ],
      "name": "tokenURI",
      "outputs": [
        {
          "internalType": "string",
          "name": "",
          "type": "string"
        }
      ],
      "stateMutability": "view",
      "type": "function",
      "constant": true
    },
    {
      "inputs": [],
      "name": "totalSupply",
      "outputs": [
        {
          "internalType": "uint256",
          "name": "",
          "type": "uint256"
        }
      ],
      "stateMutability": "view",
      "type": "function",
      "constant": true
    },
    {
      "inputs": [
        {
          "internalType": "address",
          "name": "from",
          "type": "address"
        },
        {
          "internalType": "address",
          "name": "to",
          "type": "address"
        },
        {
          "internalType": "uint256",
          "name": "tokenId",
          "type": "uint256"
        }
      ],
      "name": "transferFrom",
      "outputs": [],
      "stateMutability": "nonpayable",
      "type": "function"
    },
    {
      "inputs": [
        {
          "internalType": "uint256",
          "name": "tokenId",
          "type": "uint256"
        },
        {
          "internalType": "uint256",
          "name": "level",
          "type": "uint256"
        }
      ],
      "name": "setItemLevel",
      "outputs": [],
      "stateMutability": "nonpayable",
      "type": "function"
    },
    {
      "inputs": [
        {
          "internalType": "uint256",
          "name": "tokenId",
          "type": "uint256"
        }
      ],
      "name": "burnItem",
      "outputs": [],
      "stateMutability": "nonpayable",
      "type": "function"
    },
    {
      "inputs": [
        {
          "internalType": "address",
          "name": "ownerAddres",
          "type": "address"
        }
      ],
      "name": "safeMint",
      "outputs": [
        {
          "internalType": "uint256",
          "name": "",
          "type": "uint256"
        }
      ],
      "stateMutability": "nonpayable",
      "type": "function"
    },
    {
      "inputs": [
        {
          "internalType": "uint256",
          "name": "tokenId",
          "type": "uint256"
        },
        {
          "components": [
            {
              "internalType": "string",
              "name": "name",
              "type": "string"
            },
            {
              "internalType": "uint256",
              "name": "tokenId",
              "type": "uint256"
            },
            {
              "internalType": "uint256",
              "name": "itemLevel",
              "type": "uint256"
            },
            {
              "internalType": "uint256",
              "name": "maxLevel",
              "type": "uint256"
            },
            {
              "internalType": "uint256",
              "name": "additionalDamage",
              "type": "uint256"
            },
            {
              "internalType": "uint256",
              "name": "additionalDefense",
              "type": "uint256"
            },
            {
              "internalType": "uint256",
              "name": "fighterId",
              "type": "uint256"
            },
            {
              "internalType": "uint256",
              "name": "lastUpdBlock",
              "type": "uint256"
            },
            {
              "internalType": "uint256",
              "name": "itemRarityLevel",
              "type": "uint256"
            },
            {
              "internalType": "uint256",
              "name": "packSize",
              "type": "uint256"
            },
            {
              "internalType": "bool",
              "name": "luck",
              "type": "bool"
            },
            {
              "internalType": "bool",
              "name": "skill",
              "type": "bool"
            },
            {
              "internalType": "bool",
              "name": "isPackable",
              "type": "bool"
            },
            {
              "internalType": "bool",
              "name": "isBox",
              "type": "bool"
            },
            {
              "internalType": "bool",
              "name": "isWeapon",
              "type": "bool"
            },
            {
              "internalType": "bool",
              "name": "isArmour",
              "type": "bool"
            },
            {
              "internalType": "bool",
              "name": "isJewel",
              "type": "bool"
            },
            {
              "internalType": "bool",
              "name": "isWings",
              "type": "bool"
            },
            {
              "internalType": "bool",
              "name": "isMisc",
              "type": "bool"
            },
            {
              "internalType": "bool",
              "name": "isConsumable",
              "type": "bool"
            },
            {
              "internalType": "bool",
              "name": "inShop",
              "type": "bool"
            }
          ],
          "internalType": "struct ItemsAtts.ItemAttributes",
          "name": "atts",
          "type": "tuple"
        }
      ],
      "name": "setTokenAttributes",
      "outputs": [],
      "stateMutability": "nonpayable",
      "type": "function"
    },
    {
      "inputs": [
        {
          "internalType": "uint256",
          "name": "tokenId",
          "type": "uint256"
        }
      ],
      "name": "itemExists",
      "outputs": [
        {
          "internalType": "bool",
          "name": "",
          "type": "bool"
        }
      ],
      "stateMutability": "view",
      "type": "function",
      "constant": true
    },
    {
      "inputs": [
        {
          "components": [
            {
              "internalType": "string",
              "name": "name",
              "type": "string"
            },
            {
              "internalType": "uint256",
              "name": "maxLevel",
              "type": "uint256"
            },
            {
              "internalType": "uint256",
              "name": "itemRarityLevel",
              "type": "uint256"
            },
            {
              "internalType": "bool",
              "name": "isPackable",
              "type": "bool"
            },
            {
              "internalType": "bool",
              "name": "isBox",
              "type": "bool"
            },
            {
              "internalType": "bool",
              "name": "isWeapon",
              "type": "bool"
            },
            {
              "internalType": "bool",
              "name": "isArmour",
              "type": "bool"
            },
            {
              "internalType": "bool",
              "name": "isJewel",
              "type": "bool"
            },
            {
              "internalType": "bool",
              "name": "isWings",
              "type": "bool"
            },
            {
              "internalType": "bool",
              "name": "isMisc",
              "type": "bool"
            },
            {
              "internalType": "bool",
              "name": "isConsumable",
              "type": "bool"
            },
            {
              "internalType": "bool",
              "name": "inShop",
              "type": "bool"
            }
          ],
          "internalType": "struct ItemsBase.BaseItemAtts",
          "name": "atts",
          "type": "tuple"
        }
      ],
      "name": "createItem",
      "outputs": [
        {
          "internalType": "string",
          "name": "name",
          "type": "string"
        }
      ],
      "stateMutability": "nonpayable",
      "type": "function"
    },
    {
      "inputs": [
        {
          "internalType": "uint256",
          "name": "tokenId",
          "type": "uint256"
        },
        {
          "internalType": "address",
          "name": "to",
          "type": "address"
        }
      ],
      "name": "transferItem",
      "outputs": [],
      "stateMutability": "nonpayable",
      "type": "function"
    },
    {
      "inputs": [
        {
          "internalType": "uint256",
          "name": "tokenId",
          "type": "uint256"
        }
      ],
      "name": "getTokenAttributes",
      "outputs": [
        {
          "components": [
            {
              "internalType": "string",
              "name": "name",
              "type": "string"
            },
            {
              "internalType": "uint256",
              "name": "tokenId",
              "type": "uint256"
            },
            {
              "internalType": "uint256",
              "name": "itemLevel",
              "type": "uint256"
            },
            {
              "internalType": "uint256",
              "name": "maxLevel",
              "type": "uint256"
            },
            {
              "internalType": "uint256",
              "name": "additionalDamage",
              "type": "uint256"
            },
            {
              "internalType": "uint256",
              "name": "additionalDefense",
              "type": "uint256"
            },
            {
              "internalType": "uint256",
              "name": "fighterId",
              "type": "uint256"
            },
            {
              "internalType": "uint256",
              "name": "lastUpdBlock",
              "type": "uint256"
            },
            {
              "internalType": "uint256",
              "name": "itemRarityLevel",
              "type": "uint256"
            },
            {
              "internalType": "uint256",
              "name": "packSize",
              "type": "uint256"
            },
            {
              "internalType": "bool",
              "name": "luck",
              "type": "bool"
            },
            {
              "internalType": "bool",
              "name": "skill",
              "type": "bool"
            },
            {
              "internalType": "bool",
              "name": "isPackable",
              "type": "bool"
            },
            {
              "internalType": "bool",
              "name": "isBox",
              "type": "bool"
            },
            {
              "internalType": "bool",
              "name": "isWeapon",
              "type": "bool"
            },
            {
              "internalType": "bool",
              "name": "isArmour",
              "type": "bool"
            },
            {
              "internalType": "bool",
              "name": "isJewel",
              "type": "bool"
            },
            {
              "internalType": "bool",
              "name": "isWings",
              "type": "bool"
            },
            {
              "internalType": "bool",
              "name": "isMisc",
              "type": "bool"
            },
            {
              "internalType": "bool",
              "name": "isConsumable",
              "type": "bool"
            },
            {
              "internalType": "bool",
              "name": "inShop",
              "type": "bool"
            }
          ],
          "internalType": "struct ItemsAtts.ItemAttributes",
          "name": "",
          "type": "tuple"
        }
      ],
      "stateMutability": "view",
      "type": "function",
      "constant": true
    },
    {
      "inputs": [
        {
          "internalType": "string",
          "name": "name",
          "type": "string"
        }
      ],
      "name": "getItemAttributes",
      "outputs": [
        {
          "components": [
            {
              "internalType": "string",
              "name": "name",
              "type": "string"
            },
            {
              "internalType": "uint256",
              "name": "tokenId",
              "type": "uint256"
            },
            {
              "internalType": "uint256",
              "name": "itemLevel",
              "type": "uint256"
            },
            {
              "internalType": "uint256",
              "name": "maxLevel",
              "type": "uint256"
            },
            {
              "internalType": "uint256",
              "name": "additionalDamage",
              "type": "uint256"
            },
            {
              "internalType": "uint256",
              "name": "additionalDefense",
              "type": "uint256"
            },
            {
              "internalType": "uint256",
              "name": "fighterId",
              "type": "uint256"
            },
            {
              "internalType": "uint256",
              "name": "lastUpdBlock",
              "type": "uint256"
            },
            {
              "internalType": "uint256",
              "name": "itemRarityLevel",
              "type": "uint256"
            },
            {
              "internalType": "uint256",
              "name": "packSize",
              "type": "uint256"
            },
            {
              "internalType": "bool",
              "name": "luck",
              "type": "bool"
            },
            {
              "internalType": "bool",
              "name": "skill",
              "type": "bool"
            },
            {
              "internalType": "bool",
              "name": "isPackable",
              "type": "bool"
            },
            {
              "internalType": "bool",
              "name": "isBox",
              "type": "bool"
            },
            {
              "internalType": "bool",
              "name": "isWeapon",
              "type": "bool"
            },
            {
              "internalType": "bool",
              "name": "isArmour",
              "type": "bool"
            },
            {
              "internalType": "bool",
              "name": "isJewel",
              "type": "bool"
            },
            {
              "internalType": "bool",
              "name": "isWings",
              "type": "bool"
            },
            {
              "internalType": "bool",
              "name": "isMisc",
              "type": "bool"
            },
            {
              "internalType": "bool",
              "name": "isConsumable",
              "type": "bool"
            },
            {
              "internalType": "bool",
              "name": "inShop",
              "type": "bool"
            }
          ],
          "internalType": "struct ItemsAtts.ItemAttributes",
          "name": "",
          "type": "tuple"
        }
      ],
      "stateMutability": "view",
      "type": "function",
      "constant": true
    },
    {
      "inputs": [
        {
          "internalType": "uint256",
          "name": "tokenId",
          "type": "uint256"
        }
      ],
      "name": "burnConsumable",
      "outputs": [],
      "stateMutability": "nonpayable",
      "type": "function"
    },
    {
      "inputs": [
        {
          "internalType": "address",
          "name": "userAddress",
          "type": "address"
        }
      ],
      "name": "getUserItems",
      "outputs": [
        {
          "internalType": "uint256[]",
          "name": "",
          "type": "uint256[]"
        }
      ],
      "stateMutability": "view",
      "type": "function",
      "constant": true
    },
    {
      "inputs": [
        {
          "internalType": "address",
          "name": "userAddress",
          "type": "address"
        },
        {
          "internalType": "uint256",
          "name": "fighterId",
          "type": "uint256"
        }
      ],
      "name": "getFighterItems",
      "outputs": [
        {
          "internalType": "uint256[2][]",
          "name": "",
          "type": "uint256[2][]"
        }
      ],
      "stateMutability": "view",
      "type": "function",
      "constant": true
    }
  ],
  "bytecode": "0x60806040818152346200045e5781620039e8803803809162000022828562000495565b83396020938491810103126200045e57516001600160a01b03811692908390036200045e57815190620000558262000463565b60068252651354925554d160d21b81830152825191620000758362000463565b600494858452634974656d60e01b8385015281519160018060401b039485841162000449576000938454906001938483811c931680156200043e575b888410146200034a578190601f93848111620003eb575b508890848311600114620003875788926200037b575b5050600019600383901b1c191690841b1785555b815191878311620003685783548481811c911680156200035d575b888210146200034a5790818385949311620002f5575b50879183116001146200029157869262000285575b5050600019600383901b1c191690821b1781555b6064600a55601c600b556032600c556032600d55601e600e55601e600f5560026010556011558160125560018060a01b03199081601354161760135533906014541617601455835192610180840190848210908211176200027257916311dbdb1960e21b9185969362000264965260608552808286015280878601528060608601528060808601528060a08601528060c08601528060e086015280610100860152806101208601528061014086015261016085015285516200020e8162000463565b600a815269456d707479206974656d60b01b828201528452620002318462000a54565b506200023d84620004d5565b8551926200024b8462000463565b835282015281526200025d8162000a54565b50620004d5565b51612def908162000bd98239f35b634e487b7160e01b825260418652602482fd5b01519050388062000138565b8487528787208594509190601f198416885b8a828210620002de5750508411620002c4575b505050811b0181556200014c565b015160001960f88460031b161c19169055388080620002b6565b8385015186558897909501949384019301620002a3565b909192508487528787208380860160051c8201928a871062000340575b91869588929594930160051c01915b8281106200033157505062000123565b89815586955087910162000321565b9250819262000312565b634e487b7160e01b875260228b52602487fd5b90607f16906200010d565b634e487b7160e01b865260418a52602486fd5b015190503880620000de565b8880528989208794509190601f1984168a5b8c828210620003d45750508411620003ba575b505050811b018555620000f2565b015160001960f88460031b161c19169055388080620003ac565b8385015186558a9790950194938401930162000399565b9091508780528888208480850160051c8201928b861062000434575b918891869594930160051c01915b82811062000425575050620000c8565b8a815585945088910162000415565b9250819262000407565b92607f1692620000b1565b604188634e487b7160e01b6000525260246000fd5b600080fd5b604081019081106001600160401b038211176200047f57604052565b634e487b7160e01b600052604160045260246000fd5b601f909101601f19168101906001600160401b038211908210176200047f57604052565b6001600160401b0381116200047f57601f01601f191660200190565b60019081601754018060175560408051926020908185019060018060401b0391868110838211176200047f5784526000958681523315620008105760008681526002602052604090205462000537906001600160a01b031615155b1562000852565b60085486885260098552808689205568010000000000000000811015620007fc5788810180600855811015620007e8576008885284882001869055338752600384528487205460068552858820818952855285882087905586885260078552858820556000868152600260205260409020546200061f9190620005c5906001600160a01b0316151562000530565b338089526003865286892080548b0190558789526002865286892080546001600160a01b031916821790558790897fddf252ad1be2c89b69c2b068fc378daa952ba7f163c4a11628f55a4df523b3ef8180a48633620008eb565b156200079a57519084865260158352838620918051918211620007865782548881811c911680156200077b575b858210146200076757601f81116200071c575b508390601f8311600114620006b457601594939291889183620006a8575b5050600019600383901b1c191690881b1790555b838552528220928301556005820155600643910155565b0151905038806200067d565b838852848820601f1984169594938a9390928a5b8881106200070457508360159810620006ea575b505050811b01905562000691565b015160001960f88460031b161c19169055388080620006dc565b8282015184558c9590930192918701918701620006c8565b838852848820601f840160051c8101918685106200075c575b601f0160051c019089905b828110620007505750506200065f565b89815501899062000740565b909150819062000735565b634e487b7160e01b88526022600452602488fd5b90607f16906200064c565b634e487b7160e01b87526041600452602487fd5b835162461bcd60e51b81526020600482015260326024820152600080516020620039c883398151915260448201527131b2b4bb32b91034b6b83632b6b2b73a32b960711b6064820152608490fd5b634e487b7160e01b88526032600452602488fd5b634e487b7160e01b88526041600452602488fd5b60648486519062461bcd60e51b825280600483015260248201527f4552433732313a206d696e7420746f20746865207a65726f20616464726573736044820152fd5b156200085a57565b60405162461bcd60e51b815260206004820152601c60248201527f4552433732313a20746f6b656e20616c7265616479206d696e746564000000006044820152606490fd5b60005b838110620008b35750506000910152565b8181015183820152602001620008a2565b90602091620008df815180928185528580860191016200089f565b601f01601f1916010190565b9192600092909190803b1562000a4a576200093c946040518092630a85bd0160e11b9485835233600484015287602484015260448301526080606483015281878160209a8b966084830190620008c4565b03926001600160a01b03165af1849181620009ff575b50620009ee575050503d600014620009e5573d6200097081620004b9565b9062000980604051928362000495565b81528091833d92013e5b80519182620009e25760405162461bcd60e51b81526020600482015260326024820152600080516020620039c883398151915260448201527131b2b4bb32b91034b6b83632b6b2b73a32b960711b6064820152608490fd5b01fd5b5060606200098a565b6001600160e01b0319161492509050565b9091508581813d831162000a42575b62000a1a818362000495565b8101031262000a3e57516001600160e01b03198116810362000a3e57903862000952565b8480fd5b503d62000a0e565b5050915050600190565b9060018060a01b03601354169160405180936333768e1d60e01b82526020908160048401528262000a94855161018060248401526101a4830190620008c4565b91838601516044830152604086015160648301526060860151151560848301526080860151151560a483015260a0860151151560c483015260c0860151151560e483015260e0860151151561010483015261010086015115156101248301526101208601511515610144830152610140860151151561016483015261016086015115156101848301528160008096819503925af1801562000bcd5762000b3c575b5050519150565b3d8083873e62000b4d818762000495565b850194818187031262000bc5578051906001600160401b03821162000bc957019085601f8301121562000bc55781519262000b8884620004b9565b9662000b98604051988962000495565b84885282858501011162000bc257508062000bb89495960191016200089f565b8190388062000b35565b80fd5b8280fd5b8380fd5b6040513d84823e3d90fdfe6101a080604052600436101561001457600080fd5b60003560e01c9081629df65b14611a9c5750806301ffc9a714611a1457806306fdde0314611971578063081812fc14611953578063095ea7b3146117d957806313d199501461178357806318160ddd146117655780631f4f5a231461173a57806323b872dd146117165780632f745c59146116ef57806335dd88ef146114b457806340d097c31461130657806342842e0e146112d35780634f6ccce714611242578063513c145214611072578063576cc0f714610fb75780636352211e14610f875780636d5433e614610f6657806370a0823114610f435780637ae2b5c714610f1b57806380971e2c14610eae578063843bd64114610e7257806387c7ab5c14610bff5780638da5cb5b14610bd657806395d89b4114610af7578063a22cb46514610a1c578063a293d1e8146109ee578063a42291011461098f578063b37217a41461091b578063b88d4fde14610894578063bef9eed914610515578063c87b56dd146104a4578063caf7c44514610391578063ce6019b4146102ce578063d05c78da1461026b578063e6cb9013146102115763e985e9c5146101b657600080fd5b3461020c57604036600319011261020c576101cf611b62565b6101d7611b78565b9060018060a01b03809116600052600560205260406000209116600052602052602060ff604060002054166040519015158152f35b600080fd5b3461020c5761021f36611b04565b90818101908181116102555760209261024291831015908161024a575b50612d3c565b604051908152f35b90508210158461023c565b634e487b7160e01b600052601160045260246000fd5b3461020c5761027936611b04565b80820290828204921592808214841715610255578380156102a1575b60208461024287612d3c565b909193506102b85760209261024291149284610295565b634e487b7160e01b600052601260045260246000fd5b3461020c5760208060031936011261020c576102e8611b62565b6102f181611dbf565b6102fa81612d02565b906103086040519283611be1565b80825261031481612d02565b8285019390601f190136853760005b82811061036e5750505090604051928392818401908285525180915260408401929160005b82811061035757505050500390f35b835185528695509381019392810192600101610348565b8061037c61038c9284612495565b6103868287612d28565b52612d19565b610323565b3461020c5761039f36611b04565b6103a8826129ba565b6060810151821161046657604001516001810180911161025557811161040c57816040917f535fb4315d70f1b2d62609c85f8b9cd714e3687d6cee1a46ff7947f852bf716493600052601560205280600284600020015582519182526020820152a1005b60405162461bcd60e51b815260206004820152602c60248201527f4974656d2063616e2062652075706772616465206f6e65206c6576656c20617460448201526b20612074696d65206f6e6c7960a01b6064820152608490fd5b60405162461bcd60e51b815260206004820152601660248201527513585e081a5d195b481b195d995b081c995858da195960521b6044820152606490fd5b3461020c57602036600319011261020c576004356000908152600260205260409020546104db906001600160a01b03161515611e36565b60006040516104e981611bc6565b526105116040516104f981611bc6565b60008152604051918291602083526020830190611b3d565b0390f35b3461020c5760031960403682011261020c57602435906001600160401b03821161020c576102a090823603011261020c576040519061055382611baa565b80600401356001600160401b03811161020c576105769060043691840101611c54565b82526106a261028460208401926024810135845260448101356040860152606481013560608601526084810135608086015260a481013560a086015260c481013560c086015260e481013560e08601526101048101356101008601526101248101356101208601526105eb6101448201611db2565b6101408601526105fe6101648201611db2565b6101608601526106116101848201611db2565b6101808601526106246101a48201611db2565b6101a08601526106376101c48201611db2565b6101c086015261064a6101e48201611db2565b6101e086015261065d6102048201611db2565b6102008601526106706102248201611db2565b6102208601526106836102448201611db2565b6102408601526106966102648201611db2565b61026086015201611db2565b6102808301526004356000908152600260205260409020546106ce906001600160a01b031615156127d0565b51906004356000526015602052604060002091600183015580519182516001600160401b03811161087e576107038254611ea5565b601f811161083a575b506020601f82116001146107d257819293946000926107c7575b50508160011b916000199060031b1c19161790555b610160604082015191600435600052601560205260406000209260028401556080810151600384015560a0810151600484015560c0810151600584015560e0810151600684015561012081015160078401556107af60086101408301511515940193849060ff801983541691151516179055565b0151815461ff00191690151560081b61ff0016179055005b015190508480610726565b8260005260206000209060005b601f19841681106108225750600193949583601f19811610610809575b505050811b01905561073b565b015160001960f88460031b161c191690558480806107fc565b9091602060018192858a0151815501930191016107df565b826000526020600020601f830160051c810160208410610877575b601f830160051c8201811061086b57505061070c565b60008155600101610855565b5080610855565b634e487b7160e01b600052604160045260246000fd5b3461020c57608036600319011261020c576108ad611b62565b6108b5611b78565b90606435906044356001600160401b03831161020c573660238401121561020c57610919936108f1610914943690602481600401359101611c1d565b926109046108ff8433611ff6565b611f1d565b61090f8383836120be565b61240a565b611fd2565b005b3461020c57602036600319011261020c5760206064604051828101906109838161097533424360043544899391609495939185526020850152604084015260608301526001600160601b03199060601b1660808201520190565b03601f198101835282611be1565b51902006604051908152f35b3461020c57604036600319011261020c576109196004356109ae611b78565b6000828152600260205260409020546109d1906001600160a01b031615156127d0565b6000828152600260205260409020546001600160a01b03166120be565b3461020c576109fc36611b04565b610a0882821115612d3c565b810390811161025557602090604051908152f35b3461020c57604036600319011261020c57610a35611b62565b602435908115159081830361020c576001600160a01b031691338314610ab257610a849033600052600560205260406000208460005260205260406000209060ff801983541691151516179055565b6040519081527f17307eab39ab6107e8899845ad3d59bd9653f200f220920489ca2b5937696c3160203392a3005b60405162461bcd60e51b815260206004820152601960248201527f4552433732313a20617070726f766520746f2063616c6c6572000000000000006044820152606490fd5b3461020c57600036600319011261020c5760405160006001805490610b1b82611ea5565b80855291818116908115610baf5750600114610b56575b61051184610b4281860382611be1565b604051918291602083526020830190611b3d565b600081815292507fb10e2d527612073b26eecdfd717e6a320cf44b4afac2b0732d9fcbe2b7fa0cf65b828410610b97575050508101602001610b4282610b32565b80546020858701810191909152909301928101610b7f565b60ff191660208087019190915292151560051b85019092019250610b429150839050610b32565b3461020c57600036600319011261020c576014546040516001600160a01b039091168152602090f35b3461020c57602036600319011261020c576004356001600160401b03811161020c57610c2f903690600401611c54565b610c37612813565b506013546040516307ffce7160e11b81526020600482015291906001600160a01b031660008380610c6b6024820186611b3d565b0381845afa928315610e3857600093610e44575b50610ca9916020916040518080958194630631fb3360e21b83528660048401526024830190611b3d565b03915afa908115610e3857600091610dfe575b5015610dc35761051190610cce612813565b508051906020810151906040810151606082015115156080830151151560a0840151151560c085015115159060e08601511515926101008701511515946101208801511515966101606101408a015115159901511515996040519b610d328d611baa565b8c52600060208d0152600060408d015260608c0152600060808c0152600060a08c0152600060c08c0152600060e08c01526101008b015260016101208b015260006101408b015260006101608b01526101808a01526101a08901526101c08801526101e087015261020086015261022085015261024084015261026083015261028082015260405191829182611c72565b60405162461bcd60e51b8152602060048201526013602482015272125d195b48191bd95cc81b9bdd08195e1a5cdd606a1b6044820152606490fd5b90506020813d602011610e30575b81610e1960209383611be1565b8101031261020c57610e2a906128ad565b82610cbc565b3d9150610e0c565b6040513d6000823e3d90fd5b602091935091610e69610ca9933d806000833e610e618183611be1565b8101906128ba565b93915091610c7f565b3461020c57602036600319011261020c576004356000908152600260209081526040909120546001600160a01b031615155b6040519015158152f35b3461020c57602036600319011261020c57600435610260610ece826129ba565b015115610ede5761091990612570565b60405162461bcd60e51b81526020600482015260156024820152744974656d206e6f74206120636f6e73756d61626c6560581b6044820152606490fd5b3461020c576020610f2b36611b04565b80821015610f3c5750604051908152f35b9050610242565b3461020c57602036600319011261020c576020610242610f61611b62565b611dbf565b3461020c576020610f7636611b04565b80821115610f3c5750604051908152f35b3461020c57602036600319011261020c576020610fa5600435611e82565b6040516001600160a01b039091168152f35b3461020c57602036600319011261020c576004356001811115611035576000818152600260205260409020546001600160a01b031615610ffa5761091990612570565b60405162461bcd60e51b8152602060048201526013602482015272151bdad95b88191bd95cdb89dd08195e1a5cdd606a1b6044820152606490fd5b60405162461bcd60e51b8152602060048201526015602482015274151bdad95b8818d85b9b9bdd08189948189d5c9b9d605a1b6044820152606490fd5b3461020c57604036600319011261020c5761108b611b62565b602480359161109981611dbf565b906110a382612d02565b936110b16040519586611be1565b828552601f196110c084612d02565b0160005b8181106111fb5750506000916000925b84841061114d5786604051809160208083018184528251809152816040850193019160005b82811061110857505050500390f35b91939083819496505182906000915b6002831061113757505050604060019201950191019185949391926110f9565b8151815286936001909301929182019101611117565b6111578483612495565b806000526015602090808252856005604060002001541461118e575b50505061118261118891612d19565b93612d19565b926110d4565b60405192604084018481106001600160401b038211176111e6576040908152818552600091825291835220600601549082015261118891611182916111d3828b612d28565b526111de818a612d28565b509189611173565b8a634e487b7160e01b60005260416004526000fd5b604051604081018181106001600160401b0382111761122d579060209291604052604036823782828a010152016110c4565b87634e487b7160e01b60005260416004526000fd5b3461020c57602036600319011261020c576004356008548110156112795761126b602091612523565b90546040519160031b1c8152f35b60405162461bcd60e51b815260206004820152602c60248201527f455243373231456e756d657261626c653a20676c6f62616c20696e646578206f60448201526b7574206f6620626f756e647360a01b6064820152608490fd5b3461020c576109196109146112e736611d7d565b90604051926112f584611bc6565b600084526109046108ff8433611ff6565b3461020c5760208060031936011261020c57611320611b62565b600160175401908160175560405161133781611bc6565b600081526001600160a01b03821690811561147157600084815260026020526040902054611371906001600160a01b031615155b15612742565b60085491846000526009865282604060002055600160401b83101561087e57610242938580926113c7826113ae8860016109149a01600855612523565b90919082549060031b91821b91600019901b1916179055565b6113d083611dbf565b8160005260068a526040600020816000528a52826040600020558260005260078a5260406000205561141a61136b83600052600260205260018060a01b0360406000205416151590565b600081815260038a5260408082208054600101905583825260028b52812080546001600160a01b031916831790557fddf252ad1be2c89b69c2b068fc378daa952ba7f163c4a11628f55a4df523b3ef8180a46122ea565b6064856040519062461bcd60e51b825280600483015260248201527f4552433732313a206d696e7420746f20746865207a65726f20616464726573736044820152fd5b3461020c5760031960203682011261020c576004356001600160401b039182821161020c5761018090823603011261020c57604051906114f382611b8e565b806004013583811161020c576115c0916115166101649260043691840101611c54565b8452602481013560208501526044810135604085015261153860648201611db2565b606085015261154960848201611db2565b608085015261155a60a48201611db2565b60a085015261156b60c48201611db2565b60c085015261157c60e48201611db2565b60e085015261158e6101048201611db2565b6101008501526115a16101248201611db2565b6101208501526115b46101448201611db2565b61014085015201611db2565b61016082015260018060a01b0360135416600060405180926333768e1d60e01b825260206004830152818381611604885161018060248401526101a4830190611b3d565b60208901516044830152604089015160648301526060890151151560848301526080890151151560a483015260a0890151151560c483015260c0890151151560e483015260e08901511515610104830152610100890151151561012483015261012089015115156101448301526101408901511515610164830152610160890151151561018483015203925af18015610e38576116b5575b6105118251604051918291602083526020830190611b3d565b3d806000833e6116c58183611be1565b810160208282031261020c57815193841161020c57610511936116e8920161278e565b508261169c565b3461020c57604036600319011261020c57602061024261170d611b62565b60243590612495565b3461020c5761091961172736611d7d565b916117356108ff8433611ff6565b6120be565b3461020c57602036600319011261020c576105116117596004356129ba565b60405191829182611c72565b3461020c57600036600319011261020c576020600854604051908152f35b3461020c57604036600319011261020c576001600160401b0360043581811161020c576117b4903690600401611c54565b9060243590811161020c576020916117d3610ea4923690600401611c54565b90612d59565b3461020c57604036600319011261020c576117f2611b62565b602435906001600160a01b03808061180985611e82565b16921691808314611904578033149081156118df575b501561187457600083815260046020526040902080546001600160a01b0319168317905561184c83611e82565b167f8c5be1e5ebec7d5bd14f71427d1e84f3dd0314c0f7b2291e5b200ac8c7c3b925600080a4005b60405162461bcd60e51b815260206004820152603d60248201527f4552433732313a20617070726f76652063616c6c6572206973206e6f7420746f60448201527f6b656e206f776e6572206f7220617070726f76656420666f7220616c6c0000006064820152608490fd5b9050600052600560205260406000203360005260205260ff604060002054168461181f565b60405162461bcd60e51b815260206004820152602160248201527f4552433732313a20617070726f76616c20746f2063757272656e74206f776e656044820152603960f91b6064820152608490fd5b3461020c57602036600319011261020c576020610fa5600435611edf565b3461020c57600036600319011261020c576040516000805461199281611ea5565b80845290600190818116908115610baf57506001146119bb5761051184610b4281860382611be1565b600080805292507f290decd9548b62a8d60345a988386fc84ba6bc95484008f6362f93160ef3e5635b8284106119fc575050508101602001610b4282610b32565b805460208587018101919091529093019281016119e4565b3461020c57602036600319011261020c5760043563ffffffff60e01b811680910361020c5760209063780e9d6360e01b8114908115611a59575b506040519015158152f35b6380ac58cd60e01b811491508115611a8b575b8115611a7a575b5082611a4e565b6301ffc9a760e01b14905082611a73565b635b5e139f60e01b81149150611a6c565b3461020c57611aaa36611b04565b446020840190815260408401929092524360608085019190915242608085015233901b6bffffffffffffffffffffffff191660a084015291611aef8160b48101610975565b51902081156102b85760209160405191068152f35b604090600319011261020c576004359060243590565b60005b838110611b2d5750506000910152565b8181015183820152602001611b1d565b90602091611b5681518092818552858086019101611b1a565b601f01601f1916010190565b600435906001600160a01b038216820361020c57565b602435906001600160a01b038216820361020c57565b61018081019081106001600160401b0382111761087e57604052565b6102a081019081106001600160401b0382111761087e57604052565b602081019081106001600160401b0382111761087e57604052565b90601f801991011681019081106001600160401b0382111761087e57604052565b6001600160401b03811161087e57601f01601f191660200190565b929192611c2982611c02565b91611c376040519384611be1565b82948184528183011161020c578281602093846000960137010152565b9080601f8301121561020c57816020611c6f93359101611c1d565b90565b602081528151611c906102a0918260208501526102c0840190611b3d565b92602081015160408401526040810151606084015260608101516080840152608081015160a084015260a081015160c084015260c081015160e084015260e0810151610100908185015281015161012090818501528101516101409081850152810151151561016090818501528101511515610180908185015281015115156101a0908185015281015115156101c0908185015281015115156101e090818501528101511515610200908185015281015115156102209081850152810151151561024090818501528101511515610260908185015281015115159061028091828501520151151591015290565b606090600319011261020c576001600160a01b0390600435828116810361020c5791602435908116810361020c579060443590565b3590811515820361020c57565b6001600160a01b03168015611ddf57600052600360205260406000205490565b60405162461bcd60e51b815260206004820152602960248201527f4552433732313a2061646472657373207a65726f206973206e6f7420612076616044820152683634b21037bbb732b960b91b6064820152608490fd5b15611e3d57565b60405162461bcd60e51b815260206004820152601860248201527f4552433732313a20696e76616c696420746f6b656e20494400000000000000006044820152606490fd5b6000908152600260205260409020546001600160a01b0316611c6f811515611e36565b90600182811c92168015611ed5575b6020831014611ebf57565b634e487b7160e01b600052602260045260246000fd5b91607f1691611eb4565b600081815260026020526040902054611f02906001600160a01b03161515611e36565b6000908152600460205260409020546001600160a01b031690565b15611f2457565b60405162461bcd60e51b815260206004820152602d60248201527f4552433732313a2063616c6c6572206973206e6f7420746f6b656e206f776e6560448201526c1c881bdc88185c1c1c9bdd9959609a1b6064820152608490fd5b60809060208152603260208201527f4552433732313a207472616e7366657220746f206e6f6e20455243373231526560408201527131b2b4bb32b91034b6b83632b6b2b73a32b960711b60608201520190565b15611fd957565b60405162461bcd60e51b815280611ff260048201611f7f565b0390fd5b906001600160a01b03808061200a84611e82565b1693169183831493841561203d575b508315612027575b50505090565b61203391929350611edf565b1614388080612021565b909350600052600560205260406000208260005260205260ff604060002054169238612019565b1561206b57565b60405162461bcd60e51b815260206004820152602560248201527f4552433732313a207472616e736665722066726f6d20696e636f72726563742060448201526437bbb732b960d91b6064820152608490fd5b6120e2916120cb84611e82565b6001600160a01b0393848416939185168414612064565b838216938415612299578391826121f6575090506008549085600052600960205281604060002055600160401b82101561087e576121489261212f876113ae856001899701600855612523565b8286036121c3575b5061214186611e82565b1614612064565b7fddf252ad1be2c89b69c2b068fc378daa952ba7f163c4a11628f55a4df523b3ef60008481526004602052604081206001600160601b0360a01b9081815416905583825260036020526040822060001981540190558482526040822060018154019055858252600260205284604083209182541617905580a4565b6121cc90611dbf565b60406000878152600660205281812083825260205288828220558881526007602052205538612137565b858303612208575b506121489261212f565b612213919250611dbf565b600019810191908211610255576121489284926000908882526020906007825260409182842054828103612262575b508a845283838120558684526006815282842091845252812055926121fe565b8785526006825283852083865282528385205488865260068352848620828752835280858720558552600782528385205538612242565b60405162461bcd60e51b8152602060048201526024808201527f4552433732313a207472616e7366657220746f20746865207a65726f206164646044820152637265737360e01b6064820152608490fd5b9192600092909190803b1561240057612338946040518092630a85bd0160e11b9485835233600484015287602484015260448301526080606483015281878160209a8b966084830190611b3d565b03926001600160a01b03165af18491816123bc575b506123ab575050503d6000146123a3573d61236781611c02565b906123756040519283611be1565b81528091833d92013e5b805191826123a05760405162461bcd60e51b815280611ff260048201611f7f565b01fd5b50606061237f565b6001600160e01b0319161492509050565b9091508581813d83116123f9575b6123d48183611be1565b810103126123f557516001600160e01b0319811681036123f557903861234d565b8480fd5b503d6123ca565b5050915050600190565b9293600093909291803b1561248a579484916124649660405180948193630a85bd0160e11b9788845233600485015260018060a01b0380921660248501526044840152608060648401528260209b8c976084830190611b3d565b0393165af18491816123bc57506123ab575050503d6000146123a3573d61236781611c02565b505050915050600190565b61249e81611dbf565b8210156124ca5760018060a01b0316600052600660205260406000209060005260205260406000205490565b60405162461bcd60e51b815260206004820152602b60248201527f455243373231456e756d657261626c653a206f776e657220696e646578206f7560448201526a74206f6620626f756e647360a81b6064820152608490fd5b60085481101561255a5760086000527ff3f7a9fe364faab93b216da50a3214154f22a0a2b415b23a84c8169e8b636ee30190600090565b634e487b7160e01b600052603260045260246000fd5b61257981611e82565b6001600160a01b039080821690816126bc57505060085482600052600960205280604060002055600160401b81101561087e57826113ae8260016125c09401600855612523565b60085460001980820192909183116102555760009284845260096020526040906125ed8286205491612523565b90549060031b1c612601816113ae84612523565b8552600960205281852055848452838181205560085480156126a857830161262881612523565b8582549160031b1b1916905560085561264085611e82565b918585526004602052818520926001600160601b0360a01b9384815416905516928385526003602052818520908154019055848452600260205283209081541690557fddf252ad1be2c89b69c2b068fc378daa952ba7f163c4a11628f55a4df523b3ef8280a4565b634e487b7160e01b85526031600452602485fd5b6126c590611dbf565b600019810191908211610255576000918483526020600781526040928385205483810361270b575b508685528484812055845260068152828420918452528120556125c0565b81865260068352848620848752835284862054828752600684528587208288528452808688205586526007835284862055386126ed565b1561274957565b60405162461bcd60e51b815260206004820152601c60248201527f4552433732313a20746f6b656e20616c7265616479206d696e746564000000006044820152606490fd5b81601f8201121561020c5780516127a481611c02565b926127b26040519485611be1565b8184526020828401011161020c57611c6f9160208085019101611b1a565b156127d757565b60405162461bcd60e51b8152602060048201526014602482015273151bdad95b88191bd95cc81b9bdd08195e1a5cdd60621b6044820152606490fd5b6040519061282082611baa565b81606081526102806000918260208201528260408201528260608201528260808201528260a08201528260c08201528260e08201528261010082015282610120820152826101408201528261016082015282610180820152826101a0820152826101c0820152826101e0820152826102008201528261022082015282610240820152826102608201520152565b5190811515820361020c57565b60208183031261020c5780516001600160401b039182821161020c5701906101808284031261020c57604051926128f084611b8e565b825191821161020c5761290491830161278e565b82526020810151602083015260408101516040830152612926606082016128ad565b6060830152612937608082016128ad565b608083015261294860a082016128ad565b60a083015261295960c082016128ad565b60c083015261296a60e082016128ad565b60e083015261010061297d8183016128ad565b9083015261012061298f8183016128ad565b908301526101406129a18183016128ad565b908301526129b36101608092016128ad565b9082015290565b6129c2612813565b506000818152600260205260409020546129e6906001600160a01b031615156127d0565b6000526015602052604060002060405190816101408101106001600160401b036101408401111761087e57610140820160405280546000612a2682611ea5565b806101408601526001928381169081600014612cde5750600114612ca4575b5091600891612a6260ff948661013f199103016101408701611be1565b610140850185528101546020850152600281015460408501526003810154606085015260048101546080850152600581015460a0850152600681015460c0850152600781015460e08501520154818116151561010084015260081c16151561012082015260018060a01b0360135416600060405180926307ffce7160e11b8252602060048301528180612afc602482016101408901611b3d565b03915afa8015610e38576000608052612c87575b506080518091815190602081015160c052604081015160e052602083015190606081015190608081015160a082015160c083015160408801519160e085015193610100860151151595610120015115159660608b015115159860808c015115159a60a08d015115159c60c0015115159d60e081015115156101805261010081015115156101405261012081015115156101605261014081015115156101005261016001511515610120526040518060a052612bca90611baa565b60a0515260c05160a0516020015260e05160a0516040015260a0516060015260a0516080015260a05160a0015260a05160c0015260a05160e0015260a051610100015260a051610120015260a051610140015260a051610160015260a051610180015260a0516101a0015260a0516101c0015260a0516101e001526101805160a05161020001526101405160a05161022001526101605160a05161024001526101005160a05161026001526101205160a051610280015260a05190565b612c9b903d806000833e610e618183611be1565b60805238612b10565b6000848152602081209092505b818310612cc75750508301610160016008612a45565b805461016084880101526020909201918301612cb1565b60ff19166101608781019190915291151560051b8601909101915060089050612a45565b6001600160401b03811161087e5760051b60200190565b60001981146102555760010190565b805182101561255a5760209160051b010190565b15612d4357565b634e487b7160e01b600052600160045260246000fd5b9060405191602092612d87848281612d7a8183019687815193849201611b1a565b8101038084520182611be1565b51902091612da7604051918281612d7a8183019687815193849201611b1a565b51902003612db457600190565b60009056fea26469706673582212202665c795bfea794860940c4288d5a7312e1e5531d81dca2f667fdd58a648b3c064736f6c634300081300334552433732313a207472616e7366657220746f206e6f6e204552433732315265",
  "immutableReferences": {},
  "source": "// SPDX-License-Identifier: MIT\npragma solidity ^0.8.18;\n\nimport \"@openzeppelin/contracts/token/ERC721/ERC721.sol\";\nimport \"@openzeppelin/contracts/token/ERC721/extensions/ERC721Enumerable.sol\";\nimport \"@openzeppelin/contracts/utils/Counters.sol\";\n\nimport \"./SafeMath.sol\";\nimport \"./ItemsBase.sol\";\nimport \"./ItemsAtts.sol\";\n\ncontract Items is ERC721Enumerable, ItemsAtts, SafeMath {\n    ItemsBase private _base;\n    using Counters for Counters.Counter;\n\n    address public owner;\n\n    constructor(address ItemsBaseContract) ERC721(\"MRIUSD\", \"Item\") {\n        _base = ItemsBase(ItemsBaseContract);\n        owner = msg.sender;\n\n        // create empty item\n        ItemsBase.BaseItemAtts memory emptyBaseAtts;\n        emptyBaseAtts.name = \"Empty item\";\n        createItem(emptyBaseAtts);\n        generateInitialTokens(emptyBaseAtts);\n\n        // create item for gold\n        emptyBaseAtts.name = \"Gold\";\n        createItem(emptyBaseAtts);\n        generateInitialTokens(emptyBaseAtts);\n    }\n\n\n\n\n\n\n\n   \n    // event LogError(uint8, uint256);\n    \n    // event ItemCrafted(uint256 tokenId, address owner);\n    // event ItemBoughtFromShop(uint256 tokenId, string itemName, address owner);\n\n    event ItemLevelUpgrade(uint256 tokenId, uint256 newLevel);\n    // event ItemAddPointsUpdate(uint256 tokenId, uint256 newAddPoints);\n\n    // function setAdditionalPoints(uint256 tokenId, uint256 points) external {\n    //     require(points <= maxAdditionalPoints, \"Max points reached\");\n\n    //     ItemAttributes memory item = getTokenAttributes(tokenId);\n\n    //     require(item.isWeapon || item.isArmour || item.isWings , \"Max points reached\");\n    //     if (item.isWeapon || item.isWings) {\n    //         item.additionalDamage = points;\n    //     } else if (item.isArmour) { \n    //         item.additionalDefense = points;\n    //     } \n\n    //     emit ItemAddPointsUpdate(tokenId, item.additionalDefense + item.additionalDamage);\n    // }\n\n    function generateInitialTokens(ItemsBase.BaseItemAtts memory itemAtts) internal {\n        _tokenIdCounter.increment();\n        uint256 newTokenId = _tokenIdCounter.current();\n\n        _safeMint(msg.sender, newTokenId);\n\n        _tokenAttributes[newTokenId].name = itemAtts.name;      \n        _tokenAttributes[newTokenId].tokenId = newTokenId;      \n        _tokenAttributes[newTokenId].fighterId = 0;      \n        _tokenAttributes[newTokenId].lastUpdBlock = block.number; \n    }\n\n    function setItemLevel(uint256 tokenId, uint256 level)  external {\n        ItemAttributes memory item = getTokenAttributes(tokenId);\n\n        require(level <= item.maxLevel, \"Max item level reached\");\n        require(level <= item.itemLevel+1, \"Item can be upgrade one level at a time only\");\n\n        _tokenAttributes[tokenId].itemLevel = level;\n        emit ItemLevelUpgrade(tokenId, _tokenAttributes[tokenId].itemLevel);  \n    }\n\n    function burnItem(uint256 tokenId) external {\n        require(tokenId > 1, \"Token cannot be burnt\");\n        require(_exists(tokenId), \"Token doesn't exist\");\n        _burn(tokenId);\n    }  \n\n    function safeMint(address ownerAddres) external returns (uint256) {\n        _tokenIdCounter.increment();\n        uint256 newTokenId = _tokenIdCounter.current();\n        _safeMint(ownerAddres, newTokenId);\n\n        return newTokenId;\n    }\n\n    function setTokenAttributes(uint256 tokenId, ItemAttributes memory atts) external {\n        _setTokenAttributes(tokenId, atts);\n    }\n\n    function itemExists(uint256 tokenId) public view returns(bool) {\n        return _exists(tokenId);\n    }\n\n    function createItem(ItemsBase.BaseItemAtts memory atts) public returns (string memory name) {                \n        _base.createBaseItem(atts);        \n        return atts.name;\n    }\n\n    function transferItem(uint256 tokenId, address to) external {\n        require(_exists(tokenId), \"Token does not exist\");\n        address from = _ownerOf(tokenId);\n        _transfer(from, to, tokenId);\n    }   \n\n    // event PackedItems(string itemName, uint256 packSize, uint256 fighterId, uint256 newTokenId);\n    // event UnpackedItems(uint256 tokenId);\n\n    // function packItems(string calldata itemName, uint256[] memory tokenIds, uint256 packSize, uint256 fighterId) external returns (uint256 newTokenId) {\n    //     ItemAttributes memory atts = getItemAttributes(itemName);\n    //     require(atts.isPackable, \"Item not packable\");\n\n    //     // Ensure that the number of tokens is equal to the packSize\n    //     require(tokenIds.length == packSize, \"Invalid pack size\");\n        \n    //     for (uint i = 0; i < tokenIds.length; i++) {\n    //         require(keccak256(abi.encodePacked(_tokenAttributes[tokenIds[i]].name)) == keccak256(abi.encodePacked(itemName)), \"Invalid item\");\n    //         require(_tokenAttributes[tokenIds[i]].fighterId == fighterId, \"Item does not belong to fighter\");\n\n    //         _burn(tokenIds[i]);\n    //     }\n\n    //     _tokenIdCounter.increment();\n    //     newTokenId = _tokenIdCounter.current();\n    //     _safeMint(_fightersHelper.getOwner(fighterId), newTokenId);\n\n    //     _setTokenAttributes(newTokenId, atts);\n\n    //     _tokenAttributes[newTokenId].name = itemName;      \n    //     _tokenAttributes[newTokenId].tokenId = newTokenId;      \n    //     _tokenAttributes[newTokenId].fighterId = fighterId;      \n    //     _tokenAttributes[newTokenId].lastUpdBlock = block.number; \n    //     _tokenAttributes[newTokenId].packSize = packSize; \n\n    //     emit PackedItems(itemName, packSize, fighterId, newTokenId);\n\n    //     // Return the ItemAttributes object\n    //     return newTokenId;\n    // }\n\n    // function unpackItems(uint256 tokenId) external returns(uint256[] memory tokenIds) {\n    //     ItemAttributes memory atts = getTokenAttributes(tokenId);\n    //     require(atts.packSize > 1, \"Item not packed\");\n\n    //     // Initialize tokenIds with size atts.packSize\n    //     tokenIds = new uint256[](atts.packSize);\n\n    //     for (uint i = 0; i < atts.packSize; i++) {\n    //         _tokenIdCounter.increment();\n    //         uint256 newTokenId = _tokenIdCounter.current();\n    //         _safeMint(_fightersHelper.getOwner(atts.fighterId), newTokenId);\n\n    //         _setTokenAttributes(newTokenId, atts);\n\n    //         _tokenAttributes[newTokenId].tokenId = newTokenId;      \n    //         _tokenAttributes[newTokenId].fighterId = atts.fighterId;      \n    //         _tokenAttributes[newTokenId].lastUpdBlock = block.number; \n    //         _tokenAttributes[newTokenId].packSize = 1; \n\n    //         tokenIds[i] = newTokenId;\n    //     }\n\n    //     emit UnpackedItems(tokenId);\n\n    //     return tokenIds;\n\n    // }\n\n    // function craftItem(uint256 itemId, address itemOwner, uint256 maxLevel, uint256 maxAddPoints) public returns (uint256) {\n    //     require(_itemAttributes.length > itemId, \"Item attributes not found\");\n    //     ItemAttributes memory itemAtts = _itemAttributes[itemId];\n\n    //     if ((itemAtts.isWeapon || itemAtts.isArmour) && getRandomNumber(50) < luckDropRate)\n    //     {\n    //         itemAtts.luck = true;\n\n    //     }\n\n    //     if (itemAtts.isWeapon && getRandomNumber(51) < skillDropRate)\n    //     {\n    //         itemAtts.skill = true;\n    //     }\n\n    //     if (itemAtts.isWeapon || itemAtts.isArmour)\n    //     {\n    //         if (maxLevel > 0)\n    //         {\n    //             itemAtts.itemLevel = getRandomNumber(53) % (maxLevel + 1);\n    //         }\n\n    //         if (maxAddPoints > 0)\n    //         {\n    //             if (itemAtts.isWeapon) {\n    //                 itemAtts.additionalDamage = (getRandomNumber(54) % (maxAddPoints/4 + 1)) * 4;\n    //             } else if (itemAtts.isArmour) {\n    //                 itemAtts.additionalDefense = (getRandomNumber(54) % (maxAddPoints/4 + 1)) * 4;\n    //             }\n    //         }                \n    //     }        \n\n    //     _tokenIdCounter.increment();\n    //     uint256 newTokenId = _tokenIdCounter.current();\n        \n    //     _safeMint(itemOwner, newTokenId);\n \n    //     _setTokenAttributes(newTokenId, itemAtts);\n\n    //     _tokenAttributes[newTokenId].tokenId = newTokenId;      \n    //     _tokenAttributes[newTokenId].itemAttributesId = itemId;      \n    //     _tokenAttributes[newTokenId].fighterId = 0;      \n    //     _tokenAttributes[newTokenId].lastUpdBlock = block.number; \n\n    //     emit ItemCrafted(newTokenId, itemOwner);\n\n    //     return newTokenId;\n    // }     \n\n    // function getWeaponsLength(uint256 rarityLevel) public view returns (uint256) {\n    //     return Weapons[rarityLevel].length;\n    // }\n\n    // function getArmoursLength(uint256 rarityLevel) public view returns (uint256) {\n    //     return Armours[rarityLevel].length;\n    // }\n\n    // function getJewelsLength(uint256 rarityLevel) public view returns (uint256) {\n    //     return Jewels[rarityLevel].length;\n    // }\n\n    // function getMiscsLength(uint256 rarityLevel) public view returns (uint256) {\n    //     return Misc[rarityLevel].length;\n    // }    \n\n    // function buyItemFromShop(string calldata itemName, uint256 fighterId) external {\n    //     require(baseItemAttributes[itemName].inShop, \"Item not in shop or doesn't exist\");\n\n    //     // money logic\n\n    //     _tokenIdCounter.increment();\n    //     uint256 tokenId = _tokenIdCounter.current();\n    //     _safeMint(_fightersHelper.getOwner(fighterId), tokenId);\n\n    //     _tokenAttributes[tokenId].tokenId = tokenId;      \n    //     _tokenAttributes[tokenId].name = itemName;      \n    //     _tokenAttributes[tokenId].fighterId = fighterId;      \n    //     _tokenAttributes[tokenId].lastUpdBlock = block.number;      \n\n    //     emit ItemBoughtFromShop(tokenId, itemName, _fightersHelper.getOwner(fighterId));\n    // }\n\n    function getTokenAttributes(uint256 tokenId) public view returns (ItemAttributes memory) {\n        require(_exists(tokenId), \"Token does not exist\");\n\n        TokenAttributes memory tokenAtts = _tokenAttributes[tokenId];\n        ItemsBase.BaseItemAtts memory baseAtts = _base.getBaseItemAtts(tokenAtts.name);\n        \n        return ItemAttributes({\n            name: baseAtts.name,\n            tokenId: tokenAtts.tokenId,\n            itemLevel: tokenAtts.itemLevel,\n            maxLevel: baseAtts.maxLevel,\n            additionalDamage: tokenAtts.additionalDamage,\n            additionalDefense: tokenAtts.additionalDefense,\n            fighterId: tokenAtts.fighterId,\n            lastUpdBlock: tokenAtts.lastUpdBlock,\n            itemRarityLevel: baseAtts.itemRarityLevel,\n            packSize: tokenAtts.packSize,\n            luck: tokenAtts.luck,\n            skill: tokenAtts.skill,\n            isPackable: baseAtts.isPackable,\n            isBox: baseAtts.isBox,\n            isWeapon: baseAtts.isWeapon,\n            isArmour: baseAtts.isArmour,\n            isJewel: baseAtts.isJewel,\n            isWings: baseAtts.isWings,\n            isMisc: baseAtts.isMisc,\n            isConsumable: baseAtts.isConsumable,\n            inShop: baseAtts.inShop\n        });\n    }\n\n\n    // Get the attributes for a fighter NFT\n    function getItemAttributes(string memory name) public view returns (ItemAttributes memory) {\n        ItemsBase.BaseItemAtts memory baseAtts = _base.getBaseItemAtts(name);\n        require(_base.baseItemExists(name), \"Item does not exist\");\n\n        ItemAttributes memory itemAtts;\n\n        return ItemAttributes({\n            name: baseAtts.name,\n            tokenId: 0,\n            itemLevel: 0,\n            maxLevel: baseAtts.maxLevel,\n            additionalDamage: 0,\n            additionalDefense: 0,\n            fighterId: 0,\n            lastUpdBlock: 0,\n            itemRarityLevel: baseAtts.itemRarityLevel,\n            packSize: 1,\n            luck: false,\n            skill: false,\n            isPackable: baseAtts.isPackable,\n            isBox: baseAtts.isBox,\n            isWeapon: baseAtts.isWeapon,\n            isArmour: baseAtts.isArmour,\n            isJewel: baseAtts.isJewel,\n            isWings: baseAtts.isWings,\n            isMisc: baseAtts.isMisc,\n            isConsumable: baseAtts.isConsumable,\n            inShop: baseAtts.inShop\n        });  \n    }\n\n    function burnConsumable(uint256 tokenId) external {\n        ItemAttributes memory atts = getTokenAttributes(tokenId);\n\n        require(atts.isConsumable, \"Item not a consumable\");\n        _burn(tokenId);\n    }\n\n    mapping (uint256 => TokenAttributes) private _tokenAttributes;\n    ItemAttributes[] private _itemAttributes;\n    Counters.Counter private _tokenIdCounter;\n\n    ItemAttributes boxAttributes;\n\n\n\n    function getUserItems(address userAddress) external view returns (uint256[] memory) {\n        \n        uint256 numTokens = balanceOf(userAddress);\n        uint256[] memory tokenIds = new uint256[](numTokens);\n\n        for (uint256 i = 0; i < numTokens; i++) {\n            tokenIds[i] = tokenOfOwnerByIndex(userAddress, i);\n        }\n\n        return tokenIds;\n    }\n\n\n    function getFighterItems(address userAddress, uint256 fighterId) external view returns (uint256[2][] memory) {\n        \n        uint256 numTokens = balanceOf(userAddress);\n        uint256[2][] memory tokenIds = new uint256[2][](numTokens);\n\n        uint256 id;\n        uint counter = 0;\n\n        for (uint256 i = 0; i < numTokens; i++) {\n            id = tokenOfOwnerByIndex(userAddress, i);\n            if (_tokenAttributes[id].fighterId == fighterId)\n            {\n                tokenIds[counter] = [id, _tokenAttributes[id].lastUpdBlock];\n            }\n            \n            counter++;\n        }\n\n        return tokenIds;\n    }\n\n\n    function _setTokenAttributes(uint256 tokenId, ItemAttributes memory atts) internal {\n        require(_exists(tokenId), \"Token does not exist\");\n\n        _tokenAttributes[tokenId].tokenId = atts.tokenId;\n        _tokenAttributes[tokenId].name = atts.name;\n        _tokenAttributes[tokenId].itemLevel = atts.itemLevel;\n        _tokenAttributes[tokenId].additionalDamage = atts.additionalDamage;\n        _tokenAttributes[tokenId].additionalDefense = atts.additionalDefense;\n        _tokenAttributes[tokenId].fighterId = atts.fighterId;\n        _tokenAttributes[tokenId].lastUpdBlock = atts.lastUpdBlock;\n        _tokenAttributes[tokenId].packSize = atts.packSize;\n        _tokenAttributes[tokenId].luck = atts.luck;\n        _tokenAttributes[tokenId].skill = atts.skill;\n    }\n\n}",
  "sourcePath": "/Users/max/Documents/prog/game-contracts/contracts/Items.sol",
  "compiler": {
    "name": "solc",
    "version": "0.8.19+commit.7dd6d404.Emscripten.clang"
  },
  "schemaVersion": "3.4.13",
  "updatedAt": "2023-08-09T04:15:28.894Z",
  "networkType": "ethereum",
  "devdoc": {
    "events": {
      "Approval(address,address,uint256)": {
        "details": "Emitted when `owner` enables `approved` to manage the `tokenId` token."
      },
      "ApprovalForAll(address,address,bool)": {
        "details": "Emitted when `owner` enables or disables (`approved`) `operator` to manage all of its assets."
      },
      "Transfer(address,address,uint256)": {
        "details": "Emitted when `tokenId` token is transferred from `from` to `to`."
      }
    },
    "kind": "dev",
    "methods": {
      "approve(address,uint256)": {
        "details": "See {IERC721-approve}."
      },
      "balanceOf(address)": {
        "details": "See {IERC721-balanceOf}."
      },
      "getApproved(uint256)": {
        "details": "See {IERC721-getApproved}."
      },
      "isApprovedForAll(address,address)": {
        "details": "See {IERC721-isApprovedForAll}."
      },
      "name()": {
        "details": "See {IERC721Metadata-name}."
      },
      "ownerOf(uint256)": {
        "details": "See {IERC721-ownerOf}."
      },
      "safeTransferFrom(address,address,uint256)": {
        "details": "See {IERC721-safeTransferFrom}."
      },
      "safeTransferFrom(address,address,uint256,bytes)": {
        "details": "See {IERC721-safeTransferFrom}."
      },
      "setApprovalForAll(address,bool)": {
        "details": "See {IERC721-setApprovalForAll}."
      },
      "supportsInterface(bytes4)": {
        "details": "See {IERC165-supportsInterface}."
      },
      "symbol()": {
        "details": "See {IERC721Metadata-symbol}."
      },
      "tokenByIndex(uint256)": {
        "details": "See {IERC721Enumerable-tokenByIndex}."
      },
      "tokenOfOwnerByIndex(address,uint256)": {
        "details": "See {IERC721Enumerable-tokenOfOwnerByIndex}."
      },
      "tokenURI(uint256)": {
        "details": "See {IERC721Metadata-tokenURI}."
      },
      "totalSupply()": {
        "details": "See {IERC721Enumerable-totalSupply}."
      },
      "transferFrom(address,address,uint256)": {
        "details": "See {IERC721-transferFrom}."
      }
    },
    "version": 1
  },
  "userdoc": {
    "kind": "user",
    "methods": {},
    "version": 1
  }
}