{
  "contractName": "MoneyHelper",
  "abi": [
    {
      "inputs": [
        {
          "internalType": "address",
          "name": "moneyAddress",
          "type": "address"
        }
      ],
      "stateMutability": "nonpayable",
      "type": "constructor"
    },
    {
      "inputs": [
        {
          "internalType": "address",
          "name": "playerAddress",
          "type": "address"
        },
        {
          "internalType": "uint256",
          "name": "experience",
          "type": "uint256"
        }
      ],
      "name": "mintGold",
      "outputs": [],
      "stateMutability": "nonpayable",
      "type": "function"
    }
  ],
  "bytecode": "0x6080604052606460015534801561001557600080fd5b5060405161021638038061021683398101604081905261003491610059565b600080546001600160a01b0319166001600160a01b0392909216919091179055610089565b60006020828403121561006b57600080fd5b81516001600160a01b038116811461008257600080fd5b9392505050565b61017e806100986000396000f3fe608060405234801561001057600080fd5b506004361061002b5760003560e01c8063edf52d1314610030575b600080fd5b61004361003e3660046100ee565b610045565b005b600054600180546001600160a01b039092169163edf52d13918591610074919061006f9087610126565b6100d6565b6040516001600160e01b031960e085901b1681526001600160a01b0390921660048301526024820152604401600060405180830381600087803b1580156100ba57600080fd5b505af11580156100ce573d6000803e3d6000fd5b505050505050565b60008183116100e557816100e7565b825b9392505050565b6000806040838503121561010157600080fd5b82356001600160a01b038116811461011857600080fd5b946020939093013593505050565b60008261014357634e487b7160e01b600052601260045260246000fd5b50049056fea26469706673582212209aac8b63b305b9db937292a5f779f46e932bcd965c1513ae7b8605e3f67d95c664736f6c63430008130033",
  "immutableReferences": {},
  "source": "// SPDX-License-Identifier: MIT\npragma solidity ^0.8.18;\nimport \"./Money.sol\";\ncontract MoneyHelper {\n    Money private _money;\n    uint256 experienceDivider = 100;\n\n    constructor(address moneyAddress) {\n        _money = Money(moneyAddress);\n    }\n\n    function mintGold(address playerAddress, uint256 experience) external {\n        _money.mintGold(playerAddress, max(1, experience/experienceDivider));\n    }\n\n    // Returns the largest of the two values\n    function max(uint a, uint b) private pure returns (uint) {\n        return a > b ? a : b;\n    }\n}",
  "sourcePath": "/Users/max/Documents/prog/game-contracts/contracts/MoneyHelper.sol",
  "compiler": {
    "name": "solc",
    "version": "0.8.19+commit.7dd6d404.Emscripten.clang"
  },
  "schemaVersion": "3.4.13",
  "updatedAt": "2023-04-23T09:38:20.393Z",
  "networkType": "ethereum",
  "devdoc": {
    "kind": "dev",
    "methods": {},
    "version": 1
  },
  "userdoc": {
    "kind": "user",
    "methods": {},
    "version": 1
  }
}