{
  "contractName": "MoneyHelper",
  "abi": [
    {
      "inputs": [
        {
          "internalType": "address",
          "name": "moneyAddress",
          "type": "address"
        }
      ],
      "stateMutability": "nonpayable",
      "type": "constructor"
    },
    {
      "inputs": [],
      "name": "experienceDivider",
      "outputs": [
        {
          "internalType": "uint256",
          "name": "",
          "type": "uint256"
        }
      ],
      "stateMutability": "view",
      "type": "function",
      "constant": true
    },
    {
      "inputs": [
        {
          "internalType": "address",
          "name": "account",
          "type": "address"
        }
      ],
      "name": "balanceOf",
      "outputs": [
        {
          "internalType": "uint256",
          "name": "",
          "type": "uint256"
        }
      ],
      "stateMutability": "view",
      "type": "function",
      "constant": true
    },
    {
      "inputs": [
        {
          "internalType": "address",
          "name": "playerAddress",
          "type": "address"
        },
        {
          "internalType": "uint256",
          "name": "amount",
          "type": "uint256"
        }
      ],
      "name": "mintGold",
      "outputs": [],
      "stateMutability": "nonpayable",
      "type": "function"
    },
    {
      "inputs": [],
      "name": "getExperienceDivider",
      "outputs": [
        {
          "internalType": "uint256",
          "name": "",
          "type": "uint256"
        }
      ],
      "stateMutability": "view",
      "type": "function",
      "constant": true
    },
    {
      "inputs": [
        {
          "internalType": "address",
          "name": "sender",
          "type": "address"
        },
        {
          "internalType": "address",
          "name": "recipient",
          "type": "address"
        },
        {
          "internalType": "uint256",
          "name": "amount",
          "type": "uint256"
        }
      ],
      "name": "transferThroughTrade",
      "outputs": [],
      "stateMutability": "nonpayable",
      "type": "function"
    }
  ],
  "bytecode": "0x60803461007857601f6103e938819003918201601f19168301916001600160401b0383118484101761007d5780849260209460405283398101031261007857516001600160a01b038116908190036100785760018055600080546001600160a01b03191691909117905560405161035590816100948239f35b600080fd5b634e487b7160e01b600052604160045260246000fdfe608060408181526004908136101561001657600080fd5b600092833560e01c9081631e56dc2c146102b0575080633971d5261461029157806370a08231146101f5578063a58d3b471461013e5763edf52d131461005b57600080fd5b3461013a578060031936011261013a576100736102cc565b83549092906001600160a01b03908116602435600181101561013457506001945b670de0b6b3a7640000958681029681880414901517156101215790869291813b1561011d57836044928751988995869463edf52d1360e01b8652168885015260248401525af18015610113576100e8578380f35b67ffffffffffffffff83116101005750523880808380f35b634e487b7160e01b845260419052602483fd5b82513d86823e3d90fd5b8380fd5b634e487b7160e01b875260118452602487fd5b94610094565b8280fd5b503461013a57606036600319011261013a57826101596102cc565b6001600160a01b0390602435828116919082900361011d5783606492846020965416908751988996879563a58d3b4760e01b87521690850152602484015260443560448401525af19081156101ec57506101b1575080f35b6020813d82116101e4575b816101c9602093836102e7565b810103126101e05751801515036101dd5780f35b80fd5b5080fd5b3d91506101bc565b513d84823e3d90fd5b508290346101e0576020928360031936011261013a57836102146102cc565b845484516370a0823160e01b81526001600160a01b039283169481019490945283916024918391165afa928315610286578093610254575b505051908152f35b909192508382813d831161027f575b61026d81836102e7565b810103126101dd57505190838061024c565b503d610263565b8251903d90823e3d90fd5b8382346101e057816003193601126101e0576020906001549051908152f35b8490346101e057816003193601126101e0576020906001548152f35b600435906001600160a01b03821682036102e257565b600080fd5b90601f8019910116810190811067ffffffffffffffff82111761030957604052565b634e487b7160e01b600052604160045260246000fdfea26469706673582212207d151ba388278a74069d01614a44e0c026e0997ed363c9bd536bd957316ddd8064736f6c63430008130033",
  "immutableReferences": {},
  "source": "// SPDX-License-Identifier: MIT\npragma solidity ^0.8.18;\nimport \"./Money.sol\";\ncontract MoneyHelper {\n    Money private _money;\n    uint256 public experienceDivider = 1;\n\n    constructor(address moneyAddress) {\n        _money = Money(moneyAddress);\n    }\n\n    function balanceOf(address account) public view returns (uint256) {\n        return _money.balanceOf(account);\n    }\n\n    function mintGold(address playerAddress, uint256 amount) external {\n        _money.mintGold(playerAddress, max(1, amount)*1e18);\n    }\n\n    // Returns the largest of the two values\n    function max(uint a, uint b) private pure returns (uint) {\n        return a > b ? a : b;\n    }\n\n    function getExperienceDivider() public view returns(uint256) {\n        return experienceDivider;\n    }\n\n    function transferThroughTrade(address sender, address recipient, uint256 amount) public {\n        _money.transferThroughTrade(sender, recipient, amount);\n    }\n}",
  "sourcePath": "/Users/max/Documents/prog/game-contracts/contracts/MoneyHelper.sol",
  "compiler": {
    "name": "solc",
    "version": "0.8.19+commit.7dd6d404.Emscripten.clang"
  },
  "schemaVersion": "3.4.13",
  "updatedAt": "2023-08-09T04:15:28.865Z",
  "networkType": "ethereum",
  "devdoc": {
    "kind": "dev",
    "methods": {},
    "version": 1
  },
  "userdoc": {
    "kind": "user",
    "methods": {},
    "version": 1
  }
}