{
  "contractName": "Money",
  "abi": [
    {
      "inputs": [],
      "stateMutability": "nonpayable",
      "type": "constructor"
    },
    {
      "anonymous": false,
      "inputs": [
        {
          "indexed": true,
          "internalType": "address",
          "name": "owner",
          "type": "address"
        },
        {
          "indexed": true,
          "internalType": "address",
          "name": "spender",
          "type": "address"
        },
        {
          "indexed": false,
          "internalType": "uint256",
          "name": "value",
          "type": "uint256"
        }
      ],
      "name": "Approval",
      "type": "event"
    },
    {
      "anonymous": false,
      "inputs": [
        {
          "indexed": false,
          "internalType": "address",
          "name": "receiver",
          "type": "address"
        },
        {
          "indexed": false,
          "internalType": "uint256",
          "name": "amount",
          "type": "uint256"
        }
      ],
      "name": "Burn",
      "type": "event"
    },
    {
      "anonymous": false,
      "inputs": [
        {
          "indexed": false,
          "internalType": "address",
          "name": "receiver",
          "type": "address"
        },
        {
          "indexed": false,
          "internalType": "uint256",
          "name": "amount",
          "type": "uint256"
        }
      ],
      "name": "Mint",
      "type": "event"
    },
    {
      "anonymous": false,
      "inputs": [
        {
          "indexed": true,
          "internalType": "address",
          "name": "from",
          "type": "address"
        },
        {
          "indexed": true,
          "internalType": "address",
          "name": "to",
          "type": "address"
        },
        {
          "indexed": false,
          "internalType": "uint256",
          "name": "value",
          "type": "uint256"
        }
      ],
      "name": "Transfer",
      "type": "event"
    },
    {
      "inputs": [],
      "name": "decimals",
      "outputs": [
        {
          "internalType": "uint8",
          "name": "",
          "type": "uint8"
        }
      ],
      "stateMutability": "view",
      "type": "function",
      "constant": true
    },
    {
      "inputs": [
        {
          "internalType": "uint256",
          "name": "seed",
          "type": "uint256"
        }
      ],
      "name": "getRandomNumber",
      "outputs": [
        {
          "internalType": "uint256",
          "name": "",
          "type": "uint256"
        }
      ],
      "stateMutability": "view",
      "type": "function",
      "constant": true
    },
    {
      "inputs": [
        {
          "internalType": "uint256",
          "name": "seed",
          "type": "uint256"
        },
        {
          "internalType": "uint256",
          "name": "maxNum",
          "type": "uint256"
        }
      ],
      "name": "getRandomNumberMax",
      "outputs": [
        {
          "internalType": "uint256",
          "name": "",
          "type": "uint256"
        }
      ],
      "stateMutability": "view",
      "type": "function",
      "constant": true
    },
    {
      "inputs": [
        {
          "internalType": "uint256",
          "name": "a",
          "type": "uint256"
        },
        {
          "internalType": "uint256",
          "name": "b",
          "type": "uint256"
        }
      ],
      "name": "max",
      "outputs": [
        {
          "internalType": "uint256",
          "name": "",
          "type": "uint256"
        }
      ],
      "stateMutability": "view",
      "type": "function",
      "constant": true
    },
    {
      "inputs": [
        {
          "internalType": "uint256",
          "name": "a",
          "type": "uint256"
        },
        {
          "internalType": "uint256",
          "name": "b",
          "type": "uint256"
        }
      ],
      "name": "min",
      "outputs": [
        {
          "internalType": "uint256",
          "name": "",
          "type": "uint256"
        }
      ],
      "stateMutability": "view",
      "type": "function",
      "constant": true
    },
    {
      "inputs": [],
      "name": "name",
      "outputs": [
        {
          "internalType": "string",
          "name": "",
          "type": "string"
        }
      ],
      "stateMutability": "view",
      "type": "function",
      "constant": true
    },
    {
      "inputs": [
        {
          "internalType": "uint256",
          "name": "a",
          "type": "uint256"
        },
        {
          "internalType": "uint256",
          "name": "b",
          "type": "uint256"
        }
      ],
      "name": "safeAdd",
      "outputs": [
        {
          "internalType": "uint256",
          "name": "",
          "type": "uint256"
        }
      ],
      "stateMutability": "view",
      "type": "function",
      "constant": true
    },
    {
      "inputs": [
        {
          "internalType": "uint256",
          "name": "a",
          "type": "uint256"
        },
        {
          "internalType": "uint256",
          "name": "b",
          "type": "uint256"
        }
      ],
      "name": "safeMul",
      "outputs": [
        {
          "internalType": "uint256",
          "name": "",
          "type": "uint256"
        }
      ],
      "stateMutability": "view",
      "type": "function",
      "constant": true
    },
    {
      "inputs": [
        {
          "internalType": "uint256",
          "name": "a",
          "type": "uint256"
        },
        {
          "internalType": "uint256",
          "name": "b",
          "type": "uint256"
        }
      ],
      "name": "safeSub",
      "outputs": [
        {
          "internalType": "uint256",
          "name": "",
          "type": "uint256"
        }
      ],
      "stateMutability": "view",
      "type": "function",
      "constant": true
    },
    {
      "inputs": [
        {
          "internalType": "string",
          "name": "a",
          "type": "string"
        },
        {
          "internalType": "string",
          "name": "b",
          "type": "string"
        }
      ],
      "name": "stringsEqual",
      "outputs": [
        {
          "internalType": "bool",
          "name": "",
          "type": "bool"
        }
      ],
      "stateMutability": "view",
      "type": "function",
      "constant": true
    },
    {
      "inputs": [],
      "name": "symbol",
      "outputs": [
        {
          "internalType": "string",
          "name": "",
          "type": "string"
        }
      ],
      "stateMutability": "view",
      "type": "function",
      "constant": true
    },
    {
      "inputs": [
        {
          "internalType": "address",
          "name": "playerAddress",
          "type": "address"
        },
        {
          "internalType": "uint256",
          "name": "amount",
          "type": "uint256"
        }
      ],
      "name": "mintGold",
      "outputs": [],
      "stateMutability": "nonpayable",
      "type": "function"
    },
    {
      "inputs": [
        {
          "internalType": "address",
          "name": "playerAddress",
          "type": "address"
        },
        {
          "internalType": "uint256",
          "name": "amount",
          "type": "uint256"
        }
      ],
      "name": "burnGold",
      "outputs": [],
      "stateMutability": "nonpayable",
      "type": "function"
    },
    {
      "inputs": [],
      "name": "totalSupply",
      "outputs": [
        {
          "internalType": "uint256",
          "name": "",
          "type": "uint256"
        }
      ],
      "stateMutability": "view",
      "type": "function",
      "constant": true
    },
    {
      "inputs": [
        {
          "internalType": "address",
          "name": "account",
          "type": "address"
        }
      ],
      "name": "balanceOf",
      "outputs": [
        {
          "internalType": "uint256",
          "name": "",
          "type": "uint256"
        }
      ],
      "stateMutability": "view",
      "type": "function",
      "constant": true
    },
    {
      "inputs": [
        {
          "internalType": "address",
          "name": "recipient",
          "type": "address"
        },
        {
          "internalType": "uint256",
          "name": "amount",
          "type": "uint256"
        }
      ],
      "name": "transfer",
      "outputs": [
        {
          "internalType": "bool",
          "name": "",
          "type": "bool"
        }
      ],
      "stateMutability": "nonpayable",
      "type": "function"
    },
    {
      "inputs": [
        {
          "internalType": "address",
          "name": "sender",
          "type": "address"
        },
        {
          "internalType": "address",
          "name": "recipient",
          "type": "address"
        },
        {
          "internalType": "uint256",
          "name": "amount",
          "type": "uint256"
        }
      ],
      "name": "transferThroughTrade",
      "outputs": [
        {
          "internalType": "bool",
          "name": "",
          "type": "bool"
        }
      ],
      "stateMutability": "nonpayable",
      "type": "function"
    },
    {
      "inputs": [
        {
          "internalType": "address",
          "name": "owner",
          "type": "address"
        },
        {
          "internalType": "address",
          "name": "spender",
          "type": "address"
        }
      ],
      "name": "allowance",
      "outputs": [
        {
          "internalType": "uint256",
          "name": "",
          "type": "uint256"
        }
      ],
      "stateMutability": "view",
      "type": "function",
      "constant": true
    },
    {
      "inputs": [
        {
          "internalType": "address",
          "name": "spender",
          "type": "address"
        },
        {
          "internalType": "uint256",
          "name": "amount",
          "type": "uint256"
        }
      ],
      "name": "approve",
      "outputs": [
        {
          "internalType": "bool",
          "name": "",
          "type": "bool"
        }
      ],
      "stateMutability": "nonpayable",
      "type": "function"
    },
    {
      "inputs": [
        {
          "internalType": "address",
          "name": "sender",
          "type": "address"
        },
        {
          "internalType": "address",
          "name": "recipient",
          "type": "address"
        },
        {
          "internalType": "uint256",
          "name": "amount",
          "type": "uint256"
        }
      ],
      "name": "transferFrom",
      "outputs": [
        {
          "internalType": "bool",
          "name": "",
          "type": "bool"
        }
      ],
      "stateMutability": "nonpayable",
      "type": "function"
    }
  ],
  "bytecode": "0x6080806040523461001a5760008055610bb090816100208239f35b600080fdfe608060408181526004918236101561001657600080fd5b600092833560e01c9182629df65b1461069f5750816306fdde031461065c578163095ea7b314610632578382630b2b60a1146105675750816313d199501461050857816318160ddd146104eb57816323b872dd1461049c578163313ce567146104805781636d5433e61461045a57816370a08231146104225781637ae2b5c7146103f457816395d89b41146103b2578163a293d1e81461038a578163a58d3b471461036e578163a9059cbb1461033d578163b37217a4146102c8578163d05c78da1461024257508063dd62ed3e146101ef578063e6cb9013146101cd5763edf52d131461010257600080fd5b346101c957806003193601126101c957817fddf252ad1be2c89b69c2b068fc378daa952ba7f163c4a11628f55a4df523b3ef602061013e6107dc565b937f0f6798a560793a54c3bcfe86a93cde1e73087d944c0ea20544137d412139688560243561016e818754610aec565b865560018060a01b038716968787526001855261018e8285892054610aec565b888852600186528488205583516001600160a01b039190911681526020810191909152604090a184845260018252808420549051908152a380f35b5080fd5b50346101c9576020906101e86101e23661071e565b90610aec565b9051908152f35b50346101c957806003193601126101c9576102086107dc565b6001600160a01b03602435818116929083900361023e579160209491849316825260028552828220908252845220549051908152f35b8480fd5b919050346102c4576102533661071e565b81159482820294928504908183148717156102b157868015610283575b6020878761027d8b610acf565b51908152f35b90919293965061029e575014925061027d6020388080610270565b634e487b7160e01b815260128652602490fd5b634e487b7160e01b815260118452602490fd5b8280fd5b82843461033a57602036600319011261033a57508051446020828101918252933560408301524360608084019190915242608084015233901b6bffffffffffffffffffffffff191660a083015260649161032f8160b481015b03601f19810183528261076b565b519020069051908152f35b80fd5b5050346101c957806003193601126101c95760209061036761035d6107dc565b60243590336108ae565b5160018152f35b5050346101c95760209061036761038436610849565b916108ae565b5050346101c9576020906101e86103a03661071e565b906103ad81831115610acf565b61087e565b5050346101c957816003193601126101c95780516103f0916103d382610739565b60068252654d524955534760d01b602083015251918291826107b0565b0390f35b5050346101c9576020916104073661071e565b9091508082101561041a57509051908152f35b90509061027d565b5050346101c95760203660031901126101c95760209181906001600160a01b0361044a6107dc565b1681526001845220549051908152f35b5050346101c95760209161046d3661071e565b9091508082111561041a57509051908152f35b5050346101c957816003193601126101c9576020905160128152f35b5050346101c9576103676104c46104e3602094846104b936610849565b8296918195936108ae565b6001600160a01b0385168152600288528181203382528852205461087e565b9033906109cd565b5050346101c957816003193601126101c957602091549051908152f35b9050346102c457816003193601126102c45767ffffffffffffffff813581811161023e5761053990369084016107f2565b9360243591821161033a57509261055861055e926020953691016107f2565b90610b1a565b90519015158152f35b80843461062f578060031936011261062f577fddf252ad1be2c89b69c2b068fc378daa952ba7f163c4a11628f55a4df523b3ef60206105a46107dc565b927fcc16f5dbb4873280815c1ee09dbd06736cffcc184412cf7a71a0fdb75d397ca56024356105d481885461087e565b875560018060a01b03861695868852600185526105f482858a205461087e565b878952600186528489205583516001600160a01b039190911681526020810191909152604090a183855260018252808520549051908152a380f35b50fd5b5050346101c957806003193601126101c9576020906103676106526107dc565b60243590336109cd565b5050346101c957816003193601126101c95780516103f09161067d82610739565b600b82526a1354925554d10811dbdb1960aa1b602083015251918291826107b0565b849084346102c4576106b03661071e565b446020850190815260408501929092524360608086019190915242608086015233901b6bffffffffffffffffffffffff191660a0850152926106f58160b48101610321565b51902092821561070b5750602093505191068152f35b634e487b7160e01b815260128552602490fd5b6040906003190112610734576004359060243590565b600080fd5b6040810190811067ffffffffffffffff82111761075557604052565b634e487b7160e01b600052604160045260246000fd5b90601f8019910116810190811067ffffffffffffffff82111761075557604052565b60005b8381106107a05750506000910152565b8181015183820152602001610790565b604091602082526107d0815180928160208601526020868601910161078d565b601f01601f1916010190565b600435906001600160a01b038216820361073457565b81601f820112156107345780359067ffffffffffffffff82116107555760405192610827601f8401601f19166020018561076b565b8284526020838301011161073457816000926020809301838601378301015290565b6060906003190112610734576001600160a01b0390600435828116810361073457916024359081168103610734579060443590565b9190820391821161088b57565b634e487b7160e01b600052601160045260246000fd5b9190820180921161088b57565b6001600160a01b0390811691821561097a57169182156109295760207fddf252ad1be2c89b69c2b068fc378daa952ba7f163c4a11628f55a4df523b3ef918360005260018252604060002061090482825461087e565b90558460005260018252604060002061091e8282546108a1565b9055604051908152a3565b60405162461bcd60e51b815260206004820152602360248201527f45524332303a207472616e7366657220746f20746865207a65726f206164647260448201526265737360e81b6064820152608490fd5b60405162461bcd60e51b815260206004820152602560248201527f45524332303a207472616e736665722066726f6d20746865207a65726f206164604482015264647265737360d81b6064820152608490fd5b6001600160a01b03908116918215610a7e5716918215610a2e5760207f8c5be1e5ebec7d5bd14f71427d1e84f3dd0314c0f7b2291e5b200ac8c7c3b925918360005260028252604060002085600052825280604060002055604051908152a3565b60405162461bcd60e51b815260206004820152602260248201527f45524332303a20617070726f766520746f20746865207a65726f206164647265604482015261737360f01b6064820152608490fd5b60405162461bcd60e51b8152602060048201526024808201527f45524332303a20617070726f76652066726f6d20746865207a65726f206164646044820152637265737360e01b6064820152608490fd5b15610ad657565b634e487b7160e01b600052600160045260246000fd5b90610b0c90610afb81846108a1565b928310159081610b0f575b50610acf565b90565b905082101538610b06565b9060405191602092610b48848281610b3b818301968781519384920161078d565b810103808452018261076b565b51902091610b68604051918281610b3b818301968781519384920161078d565b51902003610b7557600190565b60009056fea2646970667358221220167893ef2cf2c65f04b74875094b8acfc7d3caf57754467c9f3e12112760f28064736f6c63430008130033",
  "immutableReferences": {},
  "source": "// SPDX-License-Identifier: MIT\npragma solidity ^0.8.18;\n\nimport \"@openzeppelin/contracts/token/ERC20/ERC20.sol\";\nimport \"./SafeMath.sol\";\n\ncontract Money is IERC20, SafeMath {\n    string public constant name = \"MRIUSD Gold\";\n    string public constant symbol = \"MRIUSG\";\n    uint8 public constant decimals = 18;\n    uint256 private _totalSupply;\n    mapping(address => uint256) private _balances;\n    mapping(address => mapping(address => uint256)) private _allowances;\n\n    event Mint(address receiver, uint256 amount);\n    event Burn(address receiver, uint256 amount);\n    \n    \n    constructor() {\n        _totalSupply = 0;\n    }    \n\n    function mintGold(address playerAddress, uint256 amount) external {\n        _totalSupply = safeAdd(_totalSupply, amount);\n        _balances[playerAddress] = safeAdd(_balances[playerAddress], amount);\n        emit Mint(playerAddress, amount);\n        emit Transfer(address(0), playerAddress, _balances[playerAddress]);\n    }\n\n    function burnGold(address playerAddress, uint256 amount) external {\n        _totalSupply = _totalSupply - amount;\n        _balances[playerAddress] = _balances[playerAddress] - amount;\n        emit Burn(playerAddress, amount);\n        emit Transfer(playerAddress, address(0), _balances[playerAddress]);\n    }\n\n    function totalSupply() public view override returns (uint256) {\n        return _totalSupply;\n    }\n    \n    function balanceOf(address account) public view override returns (uint256) {\n        return _balances[account];\n    }\n    \n    function transfer(address recipient, uint256 amount) public override returns (bool) {\n        _transfer(msg.sender, recipient, amount);\n        return true;\n    }\n\n    function transferThroughTrade(address sender, address recipient, uint256 amount) public returns (bool) {\n        _transfer(sender, recipient, amount);\n        return true;\n    }\n    \n    function allowance(address owner, address spender) public view override returns (uint256) {\n        return _allowances[owner][spender];\n    }\n    \n    function approve(address spender, uint256 amount) public override returns (bool) {\n        _approve(msg.sender, spender, amount);\n        return true;\n    }\n    \n    function transferFrom(address sender, address recipient, uint256 amount) public override returns (bool) {\n        _transfer(sender, recipient, amount);\n        _approve(sender, msg.sender, _allowances[sender][msg.sender] - amount);\n        return true;\n    }\n    \n    function _transfer(address sender, address recipient, uint256 amount) internal {\n        require(sender != address(0), \"ERC20: transfer from the zero address\");\n        require(recipient != address(0), \"ERC20: transfer to the zero address\");\n        \n        _balances[sender] -= amount;\n        _balances[recipient] += amount;\n        emit Transfer(sender, recipient, amount);\n    }\n    \n    function _approve(address owner, address spender, uint256 amount) internal {\n        require(owner != address(0), \"ERC20: approve from the zero address\");\n        require(spender != address(0), \"ERC20: approve to the zero address\");\n        \n        _allowances[owner][spender] = amount;\n        emit Approval(owner, spender, amount);\n    }\n}\n",
  "sourcePath": "/Users/max/Documents/prog/game-contracts/contracts/Money.sol",
  "compiler": {
    "name": "solc",
    "version": "0.8.19+commit.7dd6d404.Emscripten.clang"
  },
  "schemaVersion": "3.4.13",
  "updatedAt": "2023-08-10T07:36:56.036Z",
  "networkType": "ethereum",
  "devdoc": {
    "events": {
      "Approval(address,address,uint256)": {
        "details": "Emitted when the allowance of a `spender` for an `owner` is set by a call to {approve}. `value` is the new allowance."
      },
      "Transfer(address,address,uint256)": {
        "details": "Emitted when `value` tokens are moved from one account (`from`) to another (`to`). Note that `value` may be zero."
      }
    },
    "kind": "dev",
    "methods": {
      "allowance(address,address)": {
        "details": "Returns the remaining number of tokens that `spender` will be allowed to spend on behalf of `owner` through {transferFrom}. This is zero by default. This value changes when {approve} or {transferFrom} are called."
      },
      "approve(address,uint256)": {
        "details": "Sets `amount` as the allowance of `spender` over the caller's tokens. Returns a boolean value indicating whether the operation succeeded. IMPORTANT: Beware that changing an allowance with this method brings the risk that someone may use both the old and the new allowance by unfortunate transaction ordering. One possible solution to mitigate this race condition is to first reduce the spender's allowance to 0 and set the desired value afterwards: https://github.com/ethereum/EIPs/issues/20#issuecomment-263524729 Emits an {Approval} event."
      },
      "balanceOf(address)": {
        "details": "Returns the amount of tokens owned by `account`."
      },
      "totalSupply()": {
        "details": "Returns the amount of tokens in existence."
      }
    },
    "version": 1
  },
  "userdoc": {
    "kind": "user",
    "methods": {},
    "version": 1
  }
}