{
  "contractName": "MoneyHelper",
  "abi": [
    {
      "inputs": [
        {
          "internalType": "address",
          "name": "moneyAddress",
          "type": "address"
        }
      ],
      "stateMutability": "nonpayable",
      "type": "constructor"
    },
    {
      "inputs": [],
      "name": "experienceDivider",
      "outputs": [
        {
          "internalType": "uint256",
          "name": "",
          "type": "uint256"
        }
      ],
      "stateMutability": "view",
      "type": "function",
      "constant": true
    },
    {
      "inputs": [
        {
          "internalType": "address",
          "name": "account",
          "type": "address"
        }
      ],
      "name": "balanceOf",
      "outputs": [
        {
          "internalType": "uint256",
          "name": "",
          "type": "uint256"
        }
      ],
      "stateMutability": "view",
      "type": "function",
      "constant": true
    },
    {
      "inputs": [
        {
          "internalType": "address",
          "name": "playerAddress",
          "type": "address"
        },
        {
          "internalType": "uint256",
          "name": "amount",
          "type": "uint256"
        }
      ],
      "name": "mintGold",
      "outputs": [],
      "stateMutability": "nonpayable",
      "type": "function"
    },
    {
      "inputs": [],
      "name": "getExperienceDivider",
      "outputs": [
        {
          "internalType": "uint256",
          "name": "",
          "type": "uint256"
        }
      ],
      "stateMutability": "view",
      "type": "function",
      "constant": true
    },
    {
      "inputs": [
        {
          "internalType": "address",
          "name": "sender",
          "type": "address"
        },
        {
          "internalType": "address",
          "name": "recipient",
          "type": "address"
        },
        {
          "internalType": "uint256",
          "name": "amount",
          "type": "uint256"
        }
      ],
      "name": "transferThroughTrade",
      "outputs": [],
      "stateMutability": "nonpayable",
      "type": "function"
    }
  ],
  "bytecode": "0x60806040526001805534801561001457600080fd5b5060405161042338038061042383398101604081905261003391610058565b600080546001600160a01b0319166001600160a01b0392909216919091179055610088565b60006020828403121561006a57600080fd5b81516001600160a01b038116811461008157600080fd5b9392505050565b61038c806100976000396000f3fe608060405234801561001057600080fd5b50600436106100575760003560e01c80631e56dc2c1461005c5780633971d5261461007257806370a082311461007b578063a58d3b471461008e578063edf52d13146100a3575b600080fd5b6001545b60405190815260200160405180910390f35b61006060015481565b610060610089366004610275565b6100b6565b6100a161009c366004610290565b61012b565b005b6100a16100b13660046102cc565b6101b0565b600080546040516370a0823160e01b81526001600160a01b038481166004830152909116906370a0823190602401602060405180830381865afa158015610101573d6000803e3d6000fd5b505050506040513d601f19601f8201168201806040525081019061012591906102f6565b92915050565b60005460405163a58d3b4760e01b81526001600160a01b0385811660048301528481166024830152604482018490529091169063a58d3b47906064016020604051808303816000875af1158015610186573d6000803e3d6000fd5b505050506040513d601f19601f820116820180604052508101906101aa919061030f565b50505050565b6000546001600160a01b031663edf52d13836101cd600185610241565b6101df90670de0b6b3a7640000610331565b6040516001600160e01b031960e085901b1681526001600160a01b0390921660048301526024820152604401600060405180830381600087803b15801561022557600080fd5b505af1158015610239573d6000803e3d6000fd5b505050505050565b60008183116102505781610252565b825b9392505050565b80356001600160a01b038116811461027057600080fd5b919050565b60006020828403121561028757600080fd5b61025282610259565b6000806000606084860312156102a557600080fd5b6102ae84610259565b92506102bc60208501610259565b9150604084013590509250925092565b600080604083850312156102df57600080fd5b6102e883610259565b946020939093013593505050565b60006020828403121561030857600080fd5b5051919050565b60006020828403121561032157600080fd5b8151801515811461025257600080fd5b808202811582820484141761012557634e487b7160e01b600052601160045260246000fdfea26469706673582212208005ac3af65605d88a65058e39e384bb98f716d83ddb2aa41aee9d4cf7a8b1c164736f6c63430008130033",
  "immutableReferences": {},
  "source": "// SPDX-License-Identifier: MIT\npragma solidity ^0.8.18;\nimport \"./Money.sol\";\ncontract MoneyHelper {\n    Money private _money;\n    uint256 public experienceDivider = 1;\n\n    constructor(address moneyAddress) {\n        _money = Money(moneyAddress);\n    }\n\n    function balanceOf(address account) public view returns (uint256) {\n        return _money.balanceOf(account);\n    }\n\n    function mintGold(address playerAddress, uint256 amount) external {\n        _money.mintGold(playerAddress, max(1, amount)*1e18);\n    }\n\n    // Returns the largest of the two values\n    function max(uint a, uint b) private pure returns (uint) {\n        return a > b ? a : b;\n    }\n\n    function getExperienceDivider() public view returns(uint256) {\n        return experienceDivider;\n    }\n\n    function transferThroughTrade(address sender, address recipient, uint256 amount) public {\n        _money.transferThroughTrade(sender, recipient, amount);\n    }\n}",
  "sourcePath": "/Users/max/Documents/prog/game-contracts/contracts/MoneyHelper.sol",
  "compiler": {
    "name": "solc",
    "version": "0.8.19+commit.7dd6d404.Emscripten.clang"
  },
  "schemaVersion": "3.4.13",
  "updatedAt": "2023-08-04T05:17:18.091Z",
  "networkType": "ethereum",
  "devdoc": {
    "kind": "dev",
    "methods": {},
    "version": 1
  },
  "userdoc": {
    "kind": "user",
    "methods": {},
    "version": 1
  }
}