{
  "contractName": "MoneyHelper",
  "abi": [
    {
      "inputs": [
        {
          "internalType": "address",
          "name": "moneyAddress",
          "type": "address"
        }
      ],
      "stateMutability": "nonpayable",
      "type": "constructor"
    },
    {
      "inputs": [],
      "name": "experienceDivider",
      "outputs": [
        {
          "internalType": "uint256",
          "name": "",
          "type": "uint256"
        }
      ],
      "stateMutability": "view",
      "type": "function",
      "constant": true
    },
    {
      "inputs": [
        {
          "internalType": "address",
          "name": "account",
          "type": "address"
        }
      ],
      "name": "balanceOf",
      "outputs": [
        {
          "internalType": "uint256",
          "name": "",
          "type": "uint256"
        }
      ],
      "stateMutability": "view",
      "type": "function",
      "constant": true
    },
    {
      "inputs": [
        {
          "internalType": "address",
          "name": "playerAddress",
          "type": "address"
        },
        {
          "internalType": "uint256",
          "name": "amount",
          "type": "uint256"
        }
      ],
      "name": "mintGold",
      "outputs": [],
      "stateMutability": "nonpayable",
      "type": "function"
    },
    {
      "inputs": [
        {
          "internalType": "address",
          "name": "playerAddress",
          "type": "address"
        },
        {
          "internalType": "uint256",
          "name": "amount",
          "type": "uint256"
        }
      ],
      "name": "burnGold",
      "outputs": [],
      "stateMutability": "nonpayable",
      "type": "function"
    },
    {
      "inputs": [],
      "name": "getExperienceDivider",
      "outputs": [
        {
          "internalType": "uint256",
          "name": "",
          "type": "uint256"
        }
      ],
      "stateMutability": "view",
      "type": "function",
      "constant": true
    },
    {
      "inputs": [
        {
          "internalType": "address",
          "name": "sender",
          "type": "address"
        },
        {
          "internalType": "address",
          "name": "recipient",
          "type": "address"
        },
        {
          "internalType": "uint256",
          "name": "amount",
          "type": "uint256"
        }
      ],
      "name": "transferThroughTrade",
      "outputs": [],
      "stateMutability": "nonpayable",
      "type": "function"
    }
  ],
  "bytecode": "0x60803461007857601f6104a038819003918201601f19168301916001600160401b0383118484101761007d5780849260209460405283398101031261007857516001600160a01b038116908190036100785760018055600080546001600160a01b03191691909117905560405161040c90816100948239f35b600080fd5b634e487b7160e01b600052604160045260246000fdfe60806040908082526004918236101561001757600080fd5b600091823560e01c9081630b2b60a1146102ae575080631e56dc2c146102905780633971d5261461029057806370a08231146101f6578063a58d3b47146101465763edf52d131461006757600080fd5b3461014257806003193601126101425761007f610374565b82549091906001600160a01b0316602435600181101561013c57506001905b670de0b6b3a7640000918281029281840414901517156101295790818596923b1561012557835163edf52d1360e01b81526001600160a01b039095169285019283526020830191909152849184919082908490829060400103925af190811561011c57506101095750f35b6101129061038a565b6101195780f35b80fd5b513d84823e3d90fd5b8580fd5b634e487b7160e01b855260118652602485fd5b9061009e565b5080fd5b508290346101f25760603660031901126101f257610162610374565b6001600160a01b03602435818116908190036101ed576020928660649284825416908751988996879563a58d3b4760e01b87521690850152602484015260443560448401525af190811561011c57506101b9575080f35b6020813d82116101e5575b816101d1602093836103b4565b810103126101425751801515036101195780f35b3d91506101c4565b600080fd5b8280fd5b503461014257602092836003193601126101f25783610213610374565b845484516370a0823160e01b81526001600160a01b039283169481019490945283916024918391165afa928315610285578093610253575b505051908152f35b909192508382813d831161027e575b61026c81836103b4565b8101031261011957505190388061024b565b503d610262565b8251903d90823e3d90fd5b50346101425781600319360112610142576020906001549051908152f35b919050346101f257806003193601126101f2576102c9610374565b83546001600160a01b0316602435600181101561036f575060015b670de0b6b3a76400009081810291818304149015171561035c579086869392823b1561035857630b2b60a160e01b87526001600160a01b039093169086019081526020810192909252849182908490829060400103925af190811561011c575061034c575080f35b6103559061038a565b80f35b8480fd5b634e487b7160e01b865260118752602486fd5b6102e4565b600435906001600160a01b03821682036101ed57565b67ffffffffffffffff811161039e57604052565b634e487b7160e01b600052604160045260246000fd5b90601f8019910116810190811067ffffffffffffffff82111761039e5760405256fea26469706673582212203bd9e9aa98b0e97e37a70a853be72107a60e9e3d3c2928254a38b63f9d46210064736f6c63430008130033",
  "immutableReferences": {},
  "source": "// SPDX-License-Identifier: MIT\npragma solidity ^0.8.18;\nimport \"./Money.sol\";\ncontract MoneyHelper {\n    Money private _money;\n    uint256 public experienceDivider = 1;\n\n    constructor(address moneyAddress) {\n        _money = Money(moneyAddress);\n    }\n\n    function balanceOf(address account) public view returns (uint256) {\n        return _money.balanceOf(account);\n    }\n\n    function mintGold(address playerAddress, uint256 amount) external {\n        _money.mintGold(playerAddress, max(1, amount)*1e18);\n    }\n\n    function burnGold(address playerAddress, uint256 amount) external {\n        _money.burnGold(playerAddress, max(1, amount)*1e18);\n    }\n\n    // Returns the largest of the two values\n    function max(uint a, uint b) private pure returns (uint) {\n        return a > b ? a : b;\n    }\n\n    function getExperienceDivider() public view returns(uint256) {\n        return experienceDivider;\n    }\n\n    function transferThroughTrade(address sender, address recipient, uint256 amount) public {\n        _money.transferThroughTrade(sender, recipient, amount);\n    }\n}",
  "sourcePath": "/Users/max/Documents/prog/game-contracts/contracts/MoneyHelper.sol",
  "compiler": {
    "name": "solc",
    "version": "0.8.19+commit.7dd6d404.Emscripten.clang"
  },
  "schemaVersion": "3.4.13",
  "updatedAt": "2023-08-10T08:51:38.711Z",
  "networkType": "ethereum",
  "devdoc": {
    "kind": "dev",
    "methods": {},
    "version": 1
  },
  "userdoc": {
    "kind": "user",
    "methods": {},
    "version": 1
  }
}