{
  "contractName": "SafeMath",
  "abi": [
    {
      "inputs": [
        {
          "internalType": "uint256",
          "name": "a",
          "type": "uint256"
        },
        {
          "internalType": "uint256",
          "name": "b",
          "type": "uint256"
        }
      ],
      "name": "min",
      "outputs": [
        {
          "internalType": "uint256",
          "name": "",
          "type": "uint256"
        }
      ],
      "stateMutability": "view",
      "type": "function"
    },
    {
      "inputs": [
        {
          "internalType": "uint256",
          "name": "a",
          "type": "uint256"
        },
        {
          "internalType": "uint256",
          "name": "b",
          "type": "uint256"
        }
      ],
      "name": "max",
      "outputs": [
        {
          "internalType": "uint256",
          "name": "",
          "type": "uint256"
        }
      ],
      "stateMutability": "view",
      "type": "function"
    },
    {
      "inputs": [
        {
          "internalType": "uint256",
          "name": "a",
          "type": "uint256"
        },
        {
          "internalType": "uint256",
          "name": "b",
          "type": "uint256"
        }
      ],
      "name": "safeMul",
      "outputs": [
        {
          "internalType": "uint256",
          "name": "",
          "type": "uint256"
        }
      ],
      "stateMutability": "view",
      "type": "function"
    },
    {
      "inputs": [
        {
          "internalType": "uint256",
          "name": "a",
          "type": "uint256"
        },
        {
          "internalType": "uint256",
          "name": "b",
          "type": "uint256"
        }
      ],
      "name": "safeSub",
      "outputs": [
        {
          "internalType": "uint256",
          "name": "",
          "type": "uint256"
        }
      ],
      "stateMutability": "view",
      "type": "function"
    },
    {
      "inputs": [
        {
          "internalType": "uint256",
          "name": "a",
          "type": "uint256"
        },
        {
          "internalType": "uint256",
          "name": "b",
          "type": "uint256"
        }
      ],
      "name": "safeAdd",
      "outputs": [
        {
          "internalType": "uint256",
          "name": "",
          "type": "uint256"
        }
      ],
      "stateMutability": "view",
      "type": "function"
    },
    {
      "inputs": [
        {
          "internalType": "uint256",
          "name": "seed",
          "type": "uint256"
        }
      ],
      "name": "getRandomNumber",
      "outputs": [
        {
          "internalType": "uint256",
          "name": "",
          "type": "uint256"
        }
      ],
      "stateMutability": "view",
      "type": "function"
    },
    {
      "inputs": [
        {
          "internalType": "uint256",
          "name": "seed",
          "type": "uint256"
        },
        {
          "internalType": "uint256",
          "name": "maxNum",
          "type": "uint256"
        }
      ],
      "name": "getRandomNumberMax",
      "outputs": [
        {
          "internalType": "uint256",
          "name": "",
          "type": "uint256"
        }
      ],
      "stateMutability": "view",
      "type": "function"
    }
  ],
  "bytecode": "0x608060405234801561001057600080fd5b5061038f806100206000396000f3fe608060405234801561001057600080fd5b506004361061007c5760003560e01c8063a293d1e81161005b578063a293d1e8146100cc578063b37217a4146100df578063d05c78da146100f2578063e6cb90131461010557600080fd5b80629df65b146100815780636d5433e6146100a65780637ae2b5c7146100b9575b600080fd5b61009461008f366004610240565b610118565b60405190815260200160405180910390f35b6100946100b4366004610240565b610162565b6100946100c7366004610240565b61017a565b6100946100da366004610240565b610189565b6100946100ed366004610262565b6101a5565b610094610100366004610240565b6101e6565b610094610113366004610240565b610216565b600080448443423360405160200161013495949392919061027b565b60408051601f198184030181529190528051602090910120905061015883826102c8565b9150505b92915050565b60008183116101715781610173565b825b9392505050565b60008183106101715781610173565b60008282111561019b5761019b6102dc565b6101738284610308565b60008044834342336040516020016101c195949392919061027b565b60408051601f19818403018152919052805160209091012090506101736064826102c8565b6000806101f3838561031b565b905083158061020a5750826102088583610332565b145b610173576101736102dc565b6000806102238385610346565b905083811015801561020a575082811015610173576101736102dc565b6000806040838503121561025357600080fd5b50508035926020909101359150565b60006020828403121561027457600080fd5b5035919050565b948552602085019390935260408401919091526060808401919091521b6bffffffffffffffffffffffff1916608082015260940190565b634e487b7160e01b600052601260045260246000fd5b6000826102d7576102d76102b2565b500690565b634e487b7160e01b600052600160045260246000fd5b634e487b7160e01b600052601160045260246000fd5b8181038181111561015c5761015c6102f2565b808202811582820484141761015c5761015c6102f2565b600082610341576103416102b2565b500490565b8082018082111561015c5761015c6102f256fea26469706673582212209884037dc0bae0c399b20400b18bc9585bcbc6f8e11f01c5c264149383f2e9de64736f6c63430008130033",
  "immutableReferences": {},
  "source": "pragma solidity ^0.8.18;\n\n\ncontract SafeMath {\n    // Returns the smaller of two values\n    function min(uint a, uint b) public  view returns (uint) {\n        return a < b ? a : b;\n    }\n\n    // Returns the largest of the two values\n    function max(uint a, uint b) public  view returns (uint) {\n        return a > b ? a : b;\n    }\n\n    // Safe Multiply Function - prevents integer overflow \n    function safeMul(uint a, uint b) public view returns (uint) {\n        uint c = a * b;\n        assert(a == 0 || c / a == b);\n        return c;\n    }\n\n    // Safe Subtraction Function - prevents integer overflow \n    function safeSub(uint a, uint b) public view returns (uint) {\n        assert(b <= a);\n        return a - b;\n    }\n\n    // Safe Addition Function - prevents integer overflow \n    function safeAdd(uint a, uint b) public view returns (uint) {\n        uint c = a + b;\n        assert(c>=a && c>=b);\n        return c;\n    }\n\n    // Cube Root function\n    function sqrt(uint y) internal  view returns (uint z) {\n        if (y > 3) {\n            z = y;\n            uint x = y / 2 + 1;\n            while (x < z) {\n                z = x;\n                x = (y / x + x) / 2;\n            }\n        } else if (y != 0) {\n            z = 1;\n        }\n\n        return z;\n    }\n\n    function safePow(uint256 base, uint256 exponent) internal  view returns (uint256) {\n        if (exponent == 0) {\n            return 1;\n        } else if (exponent == 1) {\n            return base;\n        }\n\n        uint256 result = base;\n        for (uint256 i = 1; i < exponent; i++) {\n            result = safeMul(result, base); // result.mul(base);\n        }\n        return result;\n    }\n\n    function getRandomNumber (uint256 seed) public view returns (uint256) {\n        uint256 randomNumber = uint256(keccak256(abi.encodePacked(block.prevrandao, seed, block.number, block.timestamp, msg.sender)));\n\n        return randomNumber % 100;\n    }\n\n    function getRandomNumberMax (uint256 seed, uint256 maxNum)  public view returns (uint256) {\n        uint256 randomNumber = uint256(keccak256(abi.encodePacked(block.prevrandao, seed, block.number, block.timestamp, msg.sender)));\n\n        return randomNumber % maxNum;\n    }\n}",
  "sourcePath": "/Users/max/Documents/prog/game-contracts/contracts/SafeMath.sol",
  "compiler": {
    "name": "solc",
    "version": "0.8.19+commit.7dd6d404.Emscripten.clang"
  },
  "schemaVersion": "3.4.13",
  "updatedAt": "2023-08-04T04:28:54.905Z",
  "devdoc": {
    "kind": "dev",
    "methods": {},
    "version": 1
  },
  "userdoc": {
    "kind": "user",
    "methods": {},
    "version": 1
  }
}