{
  "contractName": "SafeMath",
  "abi": [
    {
      "inputs": [
        {
          "internalType": "uint256",
          "name": "a",
          "type": "uint256"
        },
        {
          "internalType": "uint256",
          "name": "b",
          "type": "uint256"
        }
      ],
      "name": "min",
      "outputs": [
        {
          "internalType": "uint256",
          "name": "",
          "type": "uint256"
        }
      ],
      "stateMutability": "view",
      "type": "function"
    },
    {
      "inputs": [
        {
          "internalType": "uint256",
          "name": "a",
          "type": "uint256"
        },
        {
          "internalType": "uint256",
          "name": "b",
          "type": "uint256"
        }
      ],
      "name": "max",
      "outputs": [
        {
          "internalType": "uint256",
          "name": "",
          "type": "uint256"
        }
      ],
      "stateMutability": "view",
      "type": "function"
    },
    {
      "inputs": [
        {
          "internalType": "uint256",
          "name": "a",
          "type": "uint256"
        },
        {
          "internalType": "uint256",
          "name": "b",
          "type": "uint256"
        }
      ],
      "name": "safeMul",
      "outputs": [
        {
          "internalType": "uint256",
          "name": "",
          "type": "uint256"
        }
      ],
      "stateMutability": "view",
      "type": "function"
    },
    {
      "inputs": [
        {
          "internalType": "uint256",
          "name": "a",
          "type": "uint256"
        },
        {
          "internalType": "uint256",
          "name": "b",
          "type": "uint256"
        }
      ],
      "name": "safeSub",
      "outputs": [
        {
          "internalType": "uint256",
          "name": "",
          "type": "uint256"
        }
      ],
      "stateMutability": "view",
      "type": "function"
    },
    {
      "inputs": [
        {
          "internalType": "uint256",
          "name": "a",
          "type": "uint256"
        },
        {
          "internalType": "uint256",
          "name": "b",
          "type": "uint256"
        }
      ],
      "name": "safeAdd",
      "outputs": [
        {
          "internalType": "uint256",
          "name": "",
          "type": "uint256"
        }
      ],
      "stateMutability": "view",
      "type": "function"
    },
    {
      "inputs": [
        {
          "internalType": "uint256",
          "name": "seed",
          "type": "uint256"
        }
      ],
      "name": "getRandomNumber",
      "outputs": [
        {
          "internalType": "uint256",
          "name": "",
          "type": "uint256"
        }
      ],
      "stateMutability": "view",
      "type": "function"
    },
    {
      "inputs": [
        {
          "internalType": "uint256",
          "name": "seed",
          "type": "uint256"
        },
        {
          "internalType": "uint256",
          "name": "maxNum",
          "type": "uint256"
        }
      ],
      "name": "getRandomNumberMax",
      "outputs": [
        {
          "internalType": "uint256",
          "name": "",
          "type": "uint256"
        }
      ],
      "stateMutability": "view",
      "type": "function"
    },
    {
      "inputs": [
        {
          "internalType": "string",
          "name": "a",
          "type": "string"
        },
        {
          "internalType": "string",
          "name": "b",
          "type": "string"
        }
      ],
      "name": "stringsEqual",
      "outputs": [
        {
          "internalType": "bool",
          "name": "",
          "type": "bool"
        }
      ],
      "stateMutability": "view",
      "type": "function"
    }
  ],
  "bytecode": "0x60808060405234610016576104b8908161001c8239f35b600080fdfe60806040908082526004918236101561001757600080fd5b600091823560e01c9081629df65b146102b15750806313d199501461024e5780636d5433e6146102295780637ae2b5c7146101fc578063a293d1e8146101cb578063b37217a414610156578063d05c78da146100d65763e6cb90131461007c57600080fd5b346100d25761008a36610330565b90818101938482116100bf57602085856100ae8583101587816100b4575b506103da565b51908152f35b9050831015856100a8565b634e487b7160e01b815260118652602490fd5b5080fd5b50829034610152576100e736610330565b811594828202949285049081831487171561013f57868015610111575b602087876100ae8b6103da565b90919293965061012c57501492506100ae6020858080610104565b634e487b7160e01b815260128652602490fd5b634e487b7160e01b815260118452602490fd5b8280fd5b5090346101c85760203660031901126101c857508051446020828101918252933560408301524360608084019190915242608084015233901b6bffffffffffffffffffffffff191660a08301526064916101bd8160b481015b03601f19810183528261034b565b519020069051908152f35b80fd5b50346100d2576101da36610330565b6101e9828295939511156103da565b830392831161013f576020838351908152f35b50346100d25760209161020e36610330565b9091508082101561022157509051908152f35b9050906100ae565b50346100d25760209161023b36610330565b9091508082111561022157509051908152f35b50823461015257816003193601126101525767ffffffffffffffff81358181116102ad5761027f9036908401610383565b936024359182116101c857509261029e6102a492602095369101610383565b90610422565b90519015158152f35b8480fd5b91905034610152576102c236610330565b446020850190815260408501929092524360608086019190915242608086015233901b6bffffffffffffffffffffffff191660a0850152926103078160b481016101af565b51902092821561031d5750602093505191068152f35b634e487b7160e01b815260128552602490fd5b6040906003190112610346576004359060243590565b600080fd5b90601f8019910116810190811067ffffffffffffffff82111761036d57604052565b634e487b7160e01b600052604160045260246000fd5b81601f820112156103465780359067ffffffffffffffff821161036d57604051926103b8601f8401601f19166020018561034b565b8284526020838301011161034657816000926020809301838601378301015290565b156103e157565b634e487b7160e01b600052600160045260246000fd5b9081519160005b83811061040f575050016000815290565b80602080928401015181850152016103fe565b9060405191826104366020820180936103f7565b039261044a601f199485810183528261034b565b5190209161047060405191826104646020820180966103f7565b0390810183528261034b565b5190200361047d57600190565b60009056fea2646970667358221220de938f42b1e1c562629ae4d4c3619de0a982c51f5ccb3d1cdff763a5d56b2f2c64736f6c63430008130033",
  "immutableReferences": {},
  "source": "pragma solidity ^0.8.18;\n\n\ncontract SafeMath {\n    // Returns the smaller of two values\n    function min(uint a, uint b) public  view returns (uint) {\n        return a < b ? a : b;\n    }\n\n    // Returns the largest of the two values\n    function max(uint a, uint b) public  view returns (uint) {\n        return a > b ? a : b;\n    }\n\n    // Safe Multiply Function - prevents integer overflow \n    function safeMul(uint a, uint b) public view returns (uint) {\n        uint c = a * b;\n        assert(a == 0 || c / a == b);\n        return c;\n    }\n\n    // Safe Subtraction Function - prevents integer overflow \n    function safeSub(uint a, uint b) public view returns (uint) {\n        assert(b <= a);\n        return a - b;\n    }\n\n    // Safe Addition Function - prevents integer overflow \n    function safeAdd(uint a, uint b) public view returns (uint) {\n        uint c = a + b;\n        assert(c>=a && c>=b);\n        return c;\n    }\n\n    // Cube Root function\n    function sqrt(uint y) internal  view returns (uint z) {\n        if (y > 3) {\n            z = y;\n            uint x = y / 2 + 1;\n            while (x < z) {\n                z = x;\n                x = (y / x + x) / 2;\n            }\n        } else if (y != 0) {\n            z = 1;\n        }\n\n        return z;\n    }\n\n    function safePow(uint256 base, uint256 exponent) internal  view returns (uint256) {\n        if (exponent == 0) {\n            return 1;\n        } else if (exponent == 1) {\n            return base;\n        }\n\n        uint256 result = base;\n        for (uint256 i = 1; i < exponent; i++) {\n            result = safeMul(result, base); // result.mul(base);\n        }\n        return result;\n    }\n\n    function getRandomNumber (uint256 seed) public view returns (uint256) {\n        uint256 randomNumber = uint256(keccak256(abi.encodePacked(block.prevrandao, seed, block.number, block.timestamp, msg.sender)));\n\n        return randomNumber % 100;\n    }\n\n    function getRandomNumberMax (uint256 seed, uint256 maxNum)  public view returns (uint256) {\n        uint256 randomNumber = uint256(keccak256(abi.encodePacked(block.prevrandao, seed, block.number, block.timestamp, msg.sender)));\n\n        return randomNumber % maxNum;\n    }\n\n    function stringsEqual(string memory a, string memory b) public view returns (bool) {\n        if (keccak256(abi.encodePacked(a)) == keccak256(abi.encodePacked(b))) {\n            return true;\n        } else {\n            return false;\n        }\n    }\n}",
  "sourcePath": "/Users/max/Documents/prog/game-contracts/contracts/SafeMath.sol",
  "compiler": {
    "name": "solc",
    "version": "0.8.19+commit.7dd6d404.Emscripten.clang"
  },
  "schemaVersion": "3.4.13",
  "updatedAt": "2023-08-10T07:16:14.318Z",
  "devdoc": {
    "kind": "dev",
    "methods": {},
    "version": 1
  },
  "userdoc": {
    "kind": "user",
    "methods": {},
    "version": 1
  }
}