{
  "contractName": "Shop",
  "abi": [
    {
      "inputs": [
        {
          "internalType": "address",
          "name": "itemsHelperContract",
          "type": "address"
        },
        {
          "internalType": "address",
          "name": "moneyHelperContract",
          "type": "address"
        },
        {
          "internalType": "address",
          "name": "fightersHelperContract",
          "type": "address"
        },
        {
          "components": [
            {
              "internalType": "uint256",
              "name": "weaponBasePrice",
              "type": "uint256"
            },
            {
              "internalType": "uint256",
              "name": "armourBasePrice",
              "type": "uint256"
            },
            {
              "internalType": "uint256",
              "name": "wingBasePrice",
              "type": "uint256"
            },
            {
              "internalType": "uint256",
              "name": "jocPrice",
              "type": "uint256"
            },
            {
              "internalType": "uint256",
              "name": "josPrice",
              "type": "uint256"
            },
            {
              "internalType": "uint256",
              "name": "jobPrice",
              "type": "uint256"
            },
            {
              "internalType": "uint256",
              "name": "jolPrice",
              "type": "uint256"
            },
            {
              "internalType": "uint256",
              "name": "rarityMultiplierPct",
              "type": "uint256"
            },
            {
              "internalType": "uint256",
              "name": "levelMultiplierPct",
              "type": "uint256"
            },
            {
              "internalType": "uint256",
              "name": "addPointsMultiplierPct",
              "type": "uint256"
            },
            {
              "internalType": "uint256",
              "name": "luckMultiplierPct",
              "type": "uint256"
            },
            {
              "internalType": "uint256",
              "name": "exceMultiplierPct",
              "type": "uint256"
            },
            {
              "internalType": "uint256",
              "name": "buySellMultiplier",
              "type": "uint256"
            }
          ],
          "internalType": "struct Shop.PriceList",
          "name": "_pl",
          "type": "tuple"
        }
      ],
      "stateMutability": "nonpayable",
      "type": "constructor"
    },
    {
      "anonymous": false,
      "inputs": [
        {
          "indexed": false,
          "internalType": "uint256",
          "name": "tokenId",
          "type": "uint256"
        },
        {
          "indexed": false,
          "internalType": "string",
          "name": "itemName",
          "type": "string"
        },
        {
          "indexed": false,
          "internalType": "address",
          "name": "ownerAddress",
          "type": "address"
        }
      ],
      "name": "ItemBought",
      "type": "event"
    },
    {
      "anonymous": false,
      "inputs": [
        {
          "indexed": false,
          "internalType": "uint256",
          "name": "tokenId",
          "type": "uint256"
        },
        {
          "indexed": false,
          "internalType": "string",
          "name": "itemName",
          "type": "string"
        },
        {
          "indexed": false,
          "internalType": "uint256",
          "name": "itemPrice",
          "type": "uint256"
        },
        {
          "indexed": false,
          "internalType": "address",
          "name": "ownerAddress",
          "type": "address"
        }
      ],
      "name": "ItemSold",
      "type": "event"
    },
    {
      "inputs": [
        {
          "internalType": "uint256",
          "name": "seed",
          "type": "uint256"
        }
      ],
      "name": "getRandomNumber",
      "outputs": [
        {
          "internalType": "uint256",
          "name": "",
          "type": "uint256"
        }
      ],
      "stateMutability": "view",
      "type": "function",
      "constant": true
    },
    {
      "inputs": [
        {
          "internalType": "uint256",
          "name": "seed",
          "type": "uint256"
        },
        {
          "internalType": "uint256",
          "name": "maxNum",
          "type": "uint256"
        }
      ],
      "name": "getRandomNumberMax",
      "outputs": [
        {
          "internalType": "uint256",
          "name": "",
          "type": "uint256"
        }
      ],
      "stateMutability": "view",
      "type": "function",
      "constant": true
    },
    {
      "inputs": [
        {
          "internalType": "uint256",
          "name": "a",
          "type": "uint256"
        },
        {
          "internalType": "uint256",
          "name": "b",
          "type": "uint256"
        }
      ],
      "name": "max",
      "outputs": [
        {
          "internalType": "uint256",
          "name": "",
          "type": "uint256"
        }
      ],
      "stateMutability": "view",
      "type": "function",
      "constant": true
    },
    {
      "inputs": [
        {
          "internalType": "uint256",
          "name": "a",
          "type": "uint256"
        },
        {
          "internalType": "uint256",
          "name": "b",
          "type": "uint256"
        }
      ],
      "name": "min",
      "outputs": [
        {
          "internalType": "uint256",
          "name": "",
          "type": "uint256"
        }
      ],
      "stateMutability": "view",
      "type": "function",
      "constant": true
    },
    {
      "inputs": [],
      "name": "pl",
      "outputs": [
        {
          "internalType": "uint256",
          "name": "weaponBasePrice",
          "type": "uint256"
        },
        {
          "internalType": "uint256",
          "name": "armourBasePrice",
          "type": "uint256"
        },
        {
          "internalType": "uint256",
          "name": "wingBasePrice",
          "type": "uint256"
        },
        {
          "internalType": "uint256",
          "name": "jocPrice",
          "type": "uint256"
        },
        {
          "internalType": "uint256",
          "name": "josPrice",
          "type": "uint256"
        },
        {
          "internalType": "uint256",
          "name": "jobPrice",
          "type": "uint256"
        },
        {
          "internalType": "uint256",
          "name": "jolPrice",
          "type": "uint256"
        },
        {
          "internalType": "uint256",
          "name": "rarityMultiplierPct",
          "type": "uint256"
        },
        {
          "internalType": "uint256",
          "name": "levelMultiplierPct",
          "type": "uint256"
        },
        {
          "internalType": "uint256",
          "name": "addPointsMultiplierPct",
          "type": "uint256"
        },
        {
          "internalType": "uint256",
          "name": "luckMultiplierPct",
          "type": "uint256"
        },
        {
          "internalType": "uint256",
          "name": "exceMultiplierPct",
          "type": "uint256"
        },
        {
          "internalType": "uint256",
          "name": "buySellMultiplier",
          "type": "uint256"
        }
      ],
      "stateMutability": "view",
      "type": "function",
      "constant": true
    },
    {
      "inputs": [
        {
          "internalType": "uint256",
          "name": "a",
          "type": "uint256"
        },
        {
          "internalType": "uint256",
          "name": "b",
          "type": "uint256"
        }
      ],
      "name": "safeAdd",
      "outputs": [
        {
          "internalType": "uint256",
          "name": "",
          "type": "uint256"
        }
      ],
      "stateMutability": "view",
      "type": "function",
      "constant": true
    },
    {
      "inputs": [
        {
          "internalType": "uint256",
          "name": "a",
          "type": "uint256"
        },
        {
          "internalType": "uint256",
          "name": "b",
          "type": "uint256"
        }
      ],
      "name": "safeMul",
      "outputs": [
        {
          "internalType": "uint256",
          "name": "",
          "type": "uint256"
        }
      ],
      "stateMutability": "view",
      "type": "function",
      "constant": true
    },
    {
      "inputs": [
        {
          "internalType": "uint256",
          "name": "a",
          "type": "uint256"
        },
        {
          "internalType": "uint256",
          "name": "b",
          "type": "uint256"
        }
      ],
      "name": "safeSub",
      "outputs": [
        {
          "internalType": "uint256",
          "name": "",
          "type": "uint256"
        }
      ],
      "stateMutability": "view",
      "type": "function",
      "constant": true
    },
    {
      "inputs": [
        {
          "internalType": "string",
          "name": "a",
          "type": "string"
        },
        {
          "internalType": "string",
          "name": "b",
          "type": "string"
        }
      ],
      "name": "stringsEqual",
      "outputs": [
        {
          "internalType": "bool",
          "name": "",
          "type": "bool"
        }
      ],
      "stateMutability": "view",
      "type": "function",
      "constant": true
    },
    {
      "inputs": [
        {
          "internalType": "string",
          "name": "itemName",
          "type": "string"
        },
        {
          "internalType": "uint256",
          "name": "fighterId",
          "type": "uint256"
        }
      ],
      "name": "buyItemFromShop",
      "outputs": [],
      "stateMutability": "nonpayable",
      "type": "function"
    },
    {
      "inputs": [
        {
          "internalType": "uint256",
          "name": "tokenId",
          "type": "uint256"
        }
      ],
      "name": "sellItemToShop",
      "outputs": [],
      "stateMutability": "nonpayable",
      "type": "function"
    },
    {
      "inputs": [
        {
          "components": [
            {
              "internalType": "string",
              "name": "name",
              "type": "string"
            },
            {
              "internalType": "uint256",
              "name": "tokenId",
              "type": "uint256"
            },
            {
              "internalType": "uint256",
              "name": "itemLevel",
              "type": "uint256"
            },
            {
              "internalType": "uint256",
              "name": "maxLevel",
              "type": "uint256"
            },
            {
              "internalType": "uint256",
              "name": "additionalDamage",
              "type": "uint256"
            },
            {
              "internalType": "uint256",
              "name": "additionalDefense",
              "type": "uint256"
            },
            {
              "internalType": "uint256",
              "name": "fighterId",
              "type": "uint256"
            },
            {
              "internalType": "uint256",
              "name": "lastUpdBlock",
              "type": "uint256"
            },
            {
              "internalType": "uint256",
              "name": "itemRarityLevel",
              "type": "uint256"
            },
            {
              "internalType": "uint256",
              "name": "packSize",
              "type": "uint256"
            },
            {
              "internalType": "bool",
              "name": "luck",
              "type": "bool"
            },
            {
              "internalType": "bool",
              "name": "skill",
              "type": "bool"
            },
            {
              "internalType": "bool",
              "name": "isPackable",
              "type": "bool"
            },
            {
              "internalType": "bool",
              "name": "isBox",
              "type": "bool"
            },
            {
              "internalType": "bool",
              "name": "isWeapon",
              "type": "bool"
            },
            {
              "internalType": "bool",
              "name": "isArmour",
              "type": "bool"
            },
            {
              "internalType": "bool",
              "name": "isJewel",
              "type": "bool"
            },
            {
              "internalType": "bool",
              "name": "isWings",
              "type": "bool"
            },
            {
              "internalType": "bool",
              "name": "isMisc",
              "type": "bool"
            },
            {
              "internalType": "bool",
              "name": "isConsumable",
              "type": "bool"
            },
            {
              "internalType": "bool",
              "name": "inShop",
              "type": "bool"
            },
            {
              "internalType": "bool",
              "name": "isExcellent",
              "type": "bool"
            },
            {
              "internalType": "uint256",
              "name": "increaseAttackSpeedPoints",
              "type": "uint256"
            },
            {
              "internalType": "uint256",
              "name": "reflectDamagePercent",
              "type": "uint256"
            },
            {
              "internalType": "uint256",
              "name": "restoreHPChance",
              "type": "uint256"
            },
            {
              "internalType": "uint256",
              "name": "restoreMPChance",
              "type": "uint256"
            },
            {
              "internalType": "uint256",
              "name": "doubleDamageChance",
              "type": "uint256"
            },
            {
              "internalType": "uint256",
              "name": "ignoreOpponentDefenseChance",
              "type": "uint256"
            },
            {
              "internalType": "uint256",
              "name": "lifeAfterMonsterIncrease",
              "type": "uint256"
            },
            {
              "internalType": "uint256",
              "name": "manaAfterMonsterIncrease",
              "type": "uint256"
            },
            {
              "internalType": "uint256",
              "name": "excellentDamageProbabilityIncrease",
              "type": "uint256"
            },
            {
              "internalType": "uint256",
              "name": "attackSpeedIncrease",
              "type": "uint256"
            },
            {
              "internalType": "uint256",
              "name": "attackLvl20",
              "type": "uint256"
            },
            {
              "internalType": "uint256",
              "name": "attackIncreasePercent",
              "type": "uint256"
            },
            {
              "internalType": "uint256",
              "name": "defenseSuccessRateIncrease",
              "type": "uint256"
            },
            {
              "internalType": "uint256",
              "name": "goldAfterMonsterIncrease",
              "type": "uint256"
            },
            {
              "internalType": "uint256",
              "name": "reflectDamage",
              "type": "uint256"
            },
            {
              "internalType": "uint256",
              "name": "maxLifeIncrease",
              "type": "uint256"
            },
            {
              "internalType": "uint256",
              "name": "maxManaIncrease",
              "type": "uint256"
            },
            {
              "internalType": "uint256",
              "name": "hpRecoveryRateIncrease",
              "type": "uint256"
            },
            {
              "internalType": "uint256",
              "name": "mpRecoveryRateIncrease",
              "type": "uint256"
            },
            {
              "internalType": "uint256",
              "name": "decreaseDamageRateIncrease",
              "type": "uint256"
            }
          ],
          "internalType": "struct ItemsExcellentAtts.ExcellentItemAtts",
          "name": "atts",
          "type": "tuple"
        }
      ],
      "name": "calculateItemSellingPrice",
      "outputs": [
        {
          "internalType": "uint256",
          "name": "",
          "type": "uint256"
        }
      ],
      "stateMutability": "view",
      "type": "function",
      "constant": true
    }
  ],
  "bytecode": "0x34620002025760a0601f6200175d38819003918201601f19168301926001600160401b0392919083851190851017620001ec578190604094855260a039610200811262000202576200005260a062000207565b916200005f60c062000207565b916101a0620000718660a00162000207565b91605f19011262000202578451936101a0850192831185841017620001ec5760c060a0608060608960206101009760e0976101409b8d9b85528560a0015192838d528c8860a0015195869101528c8960a0015196879101528c8a60a0015197889101528c8b60a0015198899101528c8c60a00151998a9101528c61012060a001519a8b9101528c8e60a001519b8c9101528c61016060a001519c8d91015261018060a001519c8d6101208201526101a060a001519e8f9101526101c060a001519e8f6101608201526101806101e060a00151918260805201526064600055601c60015560326002556032600355601e600455601e600555600260065560016007556000600855670de0b6b3a7640000600c5560018060a01b0380928160018060a01b031995168560095416176009551683600a541617600a551690600b541617600b55600d55600e55600f556010556011556012556013556014556015556016556017556018556080516019555161154090816200021d8239f35b634e487b7160e01b600052604160045260246000fd5b600080fd5b51906001600160a01b0382168203620002025756fe60806040908082526004908136101561001757600080fd5b600091823560e01c9182629df65b14610ba35750816313d1995014610b435781633419ef3d1461093257816335aaecbb146105815781636d5433e61461055b5781637ae2b5c71461052d578163821ef04a1461027c57816390e1437c146101f0578163a293d1e8146101a7578163b37217a41461013557508063d05c78da146100ee5763e6cb9013146100a957600080fd5b346100eb5760206100da836100bd36610c22565b6100c981839593610d98565b9384101590816100e0575b50610d7b565b51908152f35b9050831015856100d4565b80fd5b50346100eb5760206100da8361010336610c22565b929061010f8482610d32565b938115918215610121575b5050610d7b565b61012d91925085610d5b565b14858061011a565b8383346100eb5760203660031901126100eb57508051446020828101918252933560408301524360608084019190915242608084015233901b6bffffffffffffffffffffffff191660a083015260649161019c8160b481015b03601f198101835282610ca0565b519020069051908152f35b8284346101ec576101b736610c22565b6101c682829593951115610d7b565b83039283116101d9576020838351908152f35b634e487b7160e01b815260118452602490fd5b5080fd5b8284346101ec57816003193601126101ec576101a090600d5490600e5490600f5460105460115460125460135460145491601554936016549560175497601854996019549b602082519e8f90815201528c015260608b015260808a015260a089015260c088015260e0870152610100860152610120850152610140840152610160830152610180820152f35b83915034610529576003196020368201126105255781359167ffffffffffffffff918284116105215761054090843603011261051d578351946102be86610c67565b838201359283116100eb5750610516926102e360209693610524933691840101610cde565b8352602481013586840152604481013585840152606481013560608401526084810135608084015260a481013560a084015260c481013560c084015260e481013560e084015261010481013561010084015261012481013561012084015261034e6101448201610d25565b6101408401526103616101648201610d25565b6101608401526103746101848201610d25565b6101808401526103876101a48201610d25565b6101a084015261039a6101c48201610d25565b6101c08401526103ad6101e48201610d25565b6101e08401526103c06102048201610d25565b6102008401526103d36102248201610d25565b6102208401526103e66102448201610d25565b6102408401526103f96102648201610d25565b61026084015261040c6102848201610d25565b61028084015261041f6102a48201610d25565b6102a08401526102c48101356102c08401526102e48101356102e08401526103048101356103008401526103248101356103208401526103448101356103408401526103648101356103608401526103848101356103808401526103a48101356103a08401526103c48101356103c08401526103e48101356103e08401526104048101356104008401526104248101356104208401526104448101356104408401526104648101356104608401526104848101356104808401526104a48101356104a08401526104c48101356104c08401526104e48101356104e084015261050481013561050084015201356105208201526111ce565b9051908152f35b8480fd5b8580fd5b8380fd5b8280fd5b8284346101ec5760209161054036610c22565b9091508082101561055357509051908152f35b9050906100da565b8284346101ec5760209161056e36610c22565b9091508082111561055357509051908152f35b8284346101ec57806003193601126101ec5782359067ffffffffffffffff8083116105255736602384011215610525578285013590811161052557602491828401938383369201011161051d5782359360018060a01b0390816009541697835195637eb3abaf60e01b8752602096878382015287818c81806106068782018d8b610e35565b03915afa9081156108a7578a916108fd575b50156108b157889989865180926321f1ead760e21b82528a868301528183816106458d898301908c610e35565b03925af19081156108a7578a91610885575b508161066e601954610668846111ce565b90610d32565b8960c088600b54169401519389519384809263620d1b0560e11b978883528a8301525afa91821561087b578c9261085c575b5086600a541691823b15610858578851630b2b60a160e01b81526001600160a01b0390911686820190815260208101929092529b9182918d919082908490829060400103925af19a8b1561084c578a9b9a999a61082f575b506009548751634e10d30d60e01b8152858101899052998b928b928916918391908290610729604483018f8d610e35565b908983015203925af19788156108255790899392918c996107f0575b5085600b541687519b8c94859384528301525afa9384156107e6577f7b18132d5a291a65468c3b8fd567c1e4e4b23affb15943bacb20f11a44b064399789956107b1575b50906107a5916060855198899889528801526060870191610e35565b9216908301520390a180f35b6107a5929195506107d790883d8a116107df575b6107cf8183610ca0565b8101906110ed565b949091610789565b503d6107c5565b83513d8a823e3d90fd5b848195929a503d831161081e575b6108088183610ca0565b8101031261081a57889251978c610745565b8a80fd5b503d6107fe565b86513d8d823e3d90fd5b61083b91929950610c3d565b6108485788968a8c6106f8565b8980fd5b508651903d90823e3d90fd5b8c80fd5b6108749192508a3d8c116107df576107cf8183610ca0565b908d6106a0565b88513d8e823e3d90fd5b6108a191503d808c833e6108998183610ca0565b810190610e56565b8b610657565b86513d8c823e3d90fd5b845162461bcd60e51b81529182018790526021908201527f4974656d206e6f7420696e2073686f70206f7220646f65736e277420657869736044820152601d60fa1b6064820152608490fd5b90508781813d831161092b575b6109148183610ca0565b810103126108485761092590610e28565b8b610618565b503d61090a565b8293915034610b3f5760209182600319360112610b3a5781359160018060a01b03908582600954166024855180998193631f4f5a2360e01b835289878401525af1958615610b30578796610b14575b5061098b866111ce565b9582600b5416918660c0830151602487518096819363620d1b0560e11b8352868301525afa928315610b0a578993610aeb575b50888460095416803b156101ec578190602488518094819363576cc0f760e01b83528c888401525af180156108a757610ad8575b50889084600a5416803b1561052957865163edf52d1360e01b81526001600160a01b038616928101928352602083018b9052918391839182908490829060400103925af18015610ace57610aac575b5050907f2610db13bdae11bb7a480b311799fa3800a4ffc344a6afe420ebb06286049c609660a0959493925193610a938151988997885260808189015286519687918260808b01528a8a019101610da5565b850152166060830152601f01601f19168101030190a180f35b610abb90969594939296610c3d565b610aca57909192938738610a41565b8780fd5b86513d84823e3d90fd5b610ae490999199610c3d565b97386109f2565b610b03919350873d89116107df576107cf8183610ca0565b91386109be565b85513d8b823e3d90fd5b610b299196503d8089833e6108998183610ca0565b9438610981565b83513d89823e3d90fd5b505050fd5b5050fd5b8391503461052957816003193601126105295767ffffffffffffffff813581811161051d57610b759036908401610cde565b936024359182116100eb575092610b94610b9a92602095369101610cde565b90610dc8565b90519015158152f35b9150923461052957610bb436610c22565b446020850190815260408501929092524360608086019190915242608086015233901b6bffffffffffffffffffffffff191660a085015292610bf98160b4810161018e565b519020928215610c0f5750602093505191068152f35b634e487b7160e01b815260128552602490fd5b6040906003190112610c38576004359060243590565b600080fd5b67ffffffffffffffff8111610c5157604052565b634e487b7160e01b600052604160045260246000fd5b610540810190811067ffffffffffffffff821117610c5157604052565b6040810190811067ffffffffffffffff821117610c5157604052565b90601f8019910116810190811067ffffffffffffffff821117610c5157604052565b67ffffffffffffffff8111610c5157601f01601f191660200190565b81601f82011215610c3857803590610cf582610cc2565b92610d036040519485610ca0565b82845260208383010111610c3857816000926020809301838601378301015290565b35908115158203610c3857565b81810292918115918404141715610d4557565b634e487b7160e01b600052601160045260246000fd5b8115610d65570490565b634e487b7160e01b600052601260045260246000fd5b15610d8257565b634e487b7160e01b600052600160045260246000fd5b91908201809211610d4557565b60005b838110610db85750506000910152565b8181015183820152602001610da8565b9060405191602092610df6848281610de98183019687815193849201610da5565b8101038084520182610ca0565b51902091610e16604051918281610de98183019687815193849201610da5565b51902003610e2357600190565b600090565b51908115158203610c3857565b908060209392818452848401376000828201840152601f01601f1916010190565b9060208083830312610c3857825167ffffffffffffffff93848211610c3857019161054083820312610c385760405193610e8f85610c67565b8351908111610c3857830181601f82011215610c38578051610eb081610cc2565b92610ebe6040519485610ca0565b818452848284010111610c3857610eda91848085019101610da5565b8352808201519083015260408101516040830152606081015160608301526080810151608083015260a081015160a083015260c081015160c083015260e081015160e083015261010080820151908301526101208082015190830152610140610f44818301610e28565b90830152610160610f56818301610e28565b90830152610180610f68818301610e28565b908301526101a0610f7a818301610e28565b908301526101c0610f8c818301610e28565b908301526101e0610f9e818301610e28565b90830152610200610fb0818301610e28565b90830152610220610fc2818301610e28565b90830152610240610fd4818301610e28565b90830152610260610fe6818301610e28565b90830152610280610ff8818301610e28565b908301526102a061100a818301610e28565b908301526102c080820151908301526102e08082015190830152610300808201519083015261032080820151908301526103408082015190830152610360808201519083015261038080820151908301526103a080820151908301526103c080820151908301526103e08082015190830152610400808201519083015261042080820151908301526104408082015190830152610460808201519083015261048080820151908301526104a080820151908301526104c080820151908301526104e080820151908301526105008082015190830152610520809101519082015290565b90816020910312610c3857516001600160a01b0381168103610c385790565b60009080156111ca5780806001146111c2576002146111ba576001918261013383101683600b841016176111aa5760058392935b80821161116d5750508260001904821161115957500290565b634e487b7160e01b81526011600452602490fd5b9093806000190481116111965781851661118d575b800293811c90611140565b80930292611182565b634e487b7160e01b83526011600452602483fd5b929150600583910a926111595750565b509060209150565b505050600190565b5090565b60018060a01b036009541690602091828201519160409284845195868095637f59c17760e01b82526004948583015260249889915afa9384156114ff576000946114c8575b506101c0830151600091901561138f575050600d54935b61123c60145461010085015190610d32565b95606461124c600c548099610d32565b049060019182019283831161137b5761127789611272606493601554908a015190610d32565b610d32565b048201938483116113285760646112a98a6112a160165461066860808c015160a08d015190610d98565b60021c610d32565b04830195868411611360576101400151156113745760646112cc8a601754610d32565b04830180841161136057965b1561133b5760646112eb8a601854610d32565b04830180931161132857505093611272611319946112726113259998956112726112729661131f9a98610d32565b9161110c565b90610d5b565b90565b601190634e487b7160e01b600052526000fd5b50505061131f9361127261131994611272899895611272611272966113259c98610d32565b50601190634e487b7160e01b600052526000fd5b88966112d8565b50634e487b7160e01b600090815260118552fd5b6101e0840151156113a6575050600e54935b61122a565b610200840151156114b1576113e184518751906113c282610c84565b600e82526d4a6577656c206f66204368616f7360901b84830152610dc8565b156113f15750506010549361122a565b611420845187519061140282610c84565b600d82526c12995dd95b081bd98814dbdd5b609a1b84830152610dc8565b156114305750506011549361122a565b611460845187519061144182610c84565b600e82526d4a6577656c206f6620426c65737360901b84830152610dc8565b156114705750506012549361122a565b6114a29084969296516c4a6577656c206f66204c69666560981b84519261149684610c84565b600d8452830152610dc8565b156113a157601354945061122a565b5093610220830151156113a157600f54945061122a565b90938482813d83116114f8575b6114df8183610ca0565b810103126100eb57506114f190610e28565b9238611213565b503d6114d5565b85513d6000823e3d90fdfea26469706673582212209cf4257360c0ee57dea6a24c42fb2eddf6197461908167dfcf1602470996c6e964736f6c63430008130033",
  "immutableReferences": {},
  "source": "// SPDX-License-Identifier: MIT\npragma solidity ^0.8.10;\nimport \"./ItemsHelper.sol\";\nimport \"./ItemsExcellentAtts.sol\";\nimport \"./MoneyHelper.sol\";\nimport \"./FightersHelper.sol\";\n\ncontract Shop is ItemsExcellentAtts, SafeMath {\n    ItemsHelper private _itemsHelper;\n    MoneyHelper private _moneyHelper;\n    FightersHelper private _fightersHelper;\n\n    uint256 WEI_MULTIPLE = 10**18;\n\n    struct PriceList {\n        uint256 weaponBasePrice;\n        uint256 armourBasePrice; \n        uint256 wingBasePrice;\n\n\n        uint256 jocPrice;\n        \n        uint256 josPrice;\n        uint256 jobPrice;\n        uint256 jolPrice;\n\n        \n\n        uint256 rarityMultiplierPct;\n        uint256 levelMultiplierPct;\n        uint256 addPointsMultiplierPct;\n        uint256 luckMultiplierPct;\n        uint256 exceMultiplierPct;\n\n        uint256 buySellMultiplier;\n    }\n    \n\n    PriceList public pl;\n\n    event ItemBought(uint256 tokenId, string itemName, address ownerAddress);\n    event ItemSold(uint256 tokenId, string itemName, uint256 itemPrice, address ownerAddress);\n\n    constructor(address itemsHelperContract, address moneyHelperContract, address fightersHelperContract, PriceList memory _pl) {     \n        _itemsHelper = ItemsHelper(itemsHelperContract);\n        _moneyHelper = MoneyHelper(moneyHelperContract);\n        _fightersHelper = FightersHelper(fightersHelperContract);\n\n        pl = _pl;\n    }\n    \n    function buyItemFromShop(string calldata itemName, uint256 fighterId) external {\n        require(_itemsHelper.isItemInShop(itemName), \"Item not in shop or doesn't exist\");\n\n        ExcellentItemAtts memory atts = _itemsHelper.getItemAttributes(itemName);   \n\n        uint256 itemPrice = pl.buySellMultiplier * calculateItemSellingPrice(atts);\n        address ownerAddress = _fightersHelper.getOwner(atts.fighterId);\n        _moneyHelper.burnGold(ownerAddress, itemPrice);\n\n        // money logic\n\n        uint256 tokenId = _itemsHelper.craftItemForShop(itemName, fighterId);   \n\n        emit ItemBought(tokenId, itemName, _fightersHelper.getOwner(fighterId));\n    }\n\n    function sellItemToShop(uint256 tokenId) external {\n        ExcellentItemAtts memory atts = _itemsHelper.getTokenAttributes(tokenId);\n\n        uint256 itemPrice = calculateItemSellingPrice(atts);\n\n        address ownerAddress = _fightersHelper.getOwner(atts.fighterId);\n\n        _itemsHelper.burnItem(tokenId);\n        _moneyHelper.mintGold(ownerAddress, itemPrice);\n\n        emit ItemSold(tokenId, atts.name, itemPrice, ownerAddress);\n    }\n\n    function calculateItemSellingPrice(ExcellentItemAtts memory atts)  public view returns (uint256) {\n        bool isExc = _itemsHelper.isItemExcellent(atts.tokenId);\n        uint256 basePrice;\n\n        if (atts.isWeapon) {\n            basePrice = pl.weaponBasePrice;\n        } else if (atts.isArmour) {\n            basePrice = pl.armourBasePrice;\n        } else if (atts.isJewel) {\n            if (stringsEqual(atts.name, \"Jewel of Chaos\")) {\n                basePrice = pl.jocPrice;\n            } else if (stringsEqual(atts.name, \"Jewel of Soul\")) {\n                basePrice = pl.josPrice;\n            } else if (stringsEqual(atts.name, \"Jewel of Bless\")) {\n                basePrice = pl.jobPrice;\n            } else if (stringsEqual(atts.name, \"Jewel of Life\")) {\n                basePrice = pl.jolPrice;\n            }\n        } else if (atts.isWings) {\n            basePrice = pl.wingBasePrice;\n        }\n\n\n        uint256 rarityMultiplier = 1 + ((pl.rarityMultiplierPct * atts.itemRarityLevel * WEI_MULTIPLE) / 100);\n        uint256 levelMultiplier = 1 + ((pl.levelMultiplierPct * atts.itemLevel * WEI_MULTIPLE) / 100);\n        uint256 optionMultiplier = 1 + ((pl.addPointsMultiplierPct * (atts.additionalDamage + atts.additionalDefense)/4 * WEI_MULTIPLE) / 100);\n        uint256 luckMultiplier = atts.luck ? 1 +((pl.luckMultiplierPct * WEI_MULTIPLE) / 100) : WEI_MULTIPLE; // 1.1 in wei format\n        uint256 excellentMultiplier = isExc ? 1 +((pl.exceMultiplierPct * WEI_MULTIPLE) / 100) : WEI_MULTIPLE; // 1.15 in wei format\n\n        uint256 totalPrice = (basePrice * rarityMultiplier * levelMultiplier * optionMultiplier * luckMultiplier * excellentMultiplier) / (WEI_MULTIPLE**5);\n\n\n        return totalPrice;\n    }\n}\n",
  "sourcePath": "/Users/max/Documents/prog/game-contracts/contracts/Shop.sol",
  "compiler": {
    "name": "solc",
    "version": "0.8.19+commit.7dd6d404.Emscripten.clang"
  },
  "schemaVersion": "3.4.13",
  "updatedAt": "2023-09-03T04:36:07.100Z",
  "networkType": "ethereum",
  "devdoc": {
    "kind": "dev",
    "methods": {},
    "version": 1
  },
  "userdoc": {
    "kind": "user",
    "methods": {},
    "version": 1
  }
}