{
  "contractName": "TradeHelper",
  "abi": [
    {
      "inputs": [
        {
          "internalType": "address",
          "name": "tradeAddress",
          "type": "address"
        }
      ],
      "stateMutability": "nonpayable",
      "type": "constructor"
    },
    {
      "inputs": [
        {
          "internalType": "address",
          "name": "from",
          "type": "address"
        },
        {
          "internalType": "address",
          "name": "to",
          "type": "address"
        },
        {
          "internalType": "uint256[]",
          "name": "fromItems",
          "type": "uint256[]"
        },
        {
          "internalType": "uint256[]",
          "name": "toItems",
          "type": "uint256[]"
        },
        {
          "internalType": "uint256",
          "name": "fromMoney",
          "type": "uint256"
        },
        {
          "internalType": "uint256",
          "name": "toMoney",
          "type": "uint256"
        }
      ],
      "name": "trade",
      "outputs": [],
      "stateMutability": "nonpayable",
      "type": "function"
    }
  ],
  "bytecode": "0x60803461007457601f61027438819003918201601f19168301916001600160401b038311848410176100795780849260209460405283398101031261007457516001600160a01b0381169081900361007457600080546001600160a01b0319169190911790556040516101e490816100908239f35b600080fd5b634e487b7160e01b600052604160045260246000fdfe6080806040526004908136101561001557600080fd5b600091823560e01c63091aa58b1461002c57600080fd5b346101505760031960c03682011261014c5781356001600160a01b03818116928692849003610150576024359382851680950361014c5767ffffffffffffffff94604435868111610148576100849036908901610154565b90916064358881116101445761009d9036908b01610154565b95909688541695863b15610140578b976100e08a968a98966100ef968f988b9963091aa58b60e01b8b528a0152602489015260c0604489015260c488019161018a565b9285840301606486015261018a565b608435608483015260a43560a483015203925af1801561013557610111578380f35b821161012257506040523880808380f35b634e487b7160e01b835260419052602482fd5b6040513d86823e3d90fd5b8880fd5b8780fd5b8580fd5b8380fd5b8280fd5b9181601f840112156101855782359167ffffffffffffffff8311610185576020808501948460051b01011161018557565b600080fd5b81835290916001600160fb1b0383116101855760209260051b80928483013701019056fea26469706673582212208e385ceeb760abca7fd53fb13f41829829a0dea42b325d157a23784cfe8b6b4864736f6c63430008130033",
  "immutableReferences": {},
  "source": "// SPDX-License-Identifier: MIT\npragma solidity ^0.8.18;\nimport \"./Trade.sol\";\ncontract TradeHelper {\n    Trade private _trade;\n\n    constructor(address tradeAddress) {\n        _trade = Trade(tradeAddress);\n    }    \n\n    function trade (address from, address to, uint256[] calldata fromItems, uint256[] calldata toItems, uint256 fromMoney, uint256 toMoney) external {\n        _trade.trade(from, to, fromItems, toItems, fromMoney, toMoney);\n    }\n}",
  "sourcePath": "/Users/max/Documents/prog/game-contracts/contracts/TradeHelper.sol",
  "compiler": {
    "name": "solc",
    "version": "0.8.19+commit.7dd6d404.Emscripten.clang"
  },
  "schemaVersion": "3.4.13",
  "updatedAt": "2023-08-10T07:36:56.044Z",
  "networkType": "ethereum",
  "devdoc": {
    "kind": "dev",
    "methods": {},
    "version": 1
  },
  "userdoc": {
    "kind": "user",
    "methods": {},
    "version": 1
  }
}