{
  "contractName": "Trade",
  "abi": [
    {
      "inputs": [
        {
          "internalType": "address",
          "name": "itemsHelperContract",
          "type": "address"
        },
        {
          "internalType": "address",
          "name": "moneyHelperContract",
          "type": "address"
        }
      ],
      "stateMutability": "nonpayable",
      "type": "constructor"
    },
    {
      "anonymous": false,
      "inputs": [
        {
          "indexed": false,
          "internalType": "uint256",
          "name": "killedFighter",
          "type": "uint256"
        },
        {
          "indexed": false,
          "internalType": "bytes32",
          "name": "battleHash",
          "type": "bytes32"
        },
        {
          "indexed": false,
          "internalType": "uint256",
          "name": "battleNonce",
          "type": "uint256"
        }
      ],
      "name": "BattleRecorded",
      "type": "event"
    },
    {
      "anonymous": false,
      "inputs": [
        {
          "indexed": false,
          "internalType": "uint8",
          "name": "",
          "type": "uint8"
        },
        {
          "indexed": false,
          "internalType": "uint256",
          "name": "",
          "type": "uint256"
        }
      ],
      "name": "LogError",
      "type": "event"
    },
    {
      "inputs": [
        {
          "internalType": "bytes32",
          "name": "",
          "type": "bytes32"
        }
      ],
      "name": "tradeHashes",
      "outputs": [
        {
          "internalType": "bool",
          "name": "",
          "type": "bool"
        }
      ],
      "stateMutability": "view",
      "type": "function",
      "constant": true
    },
    {
      "inputs": [
        {
          "internalType": "address",
          "name": "from",
          "type": "address"
        },
        {
          "internalType": "address",
          "name": "to",
          "type": "address"
        },
        {
          "internalType": "uint256[]",
          "name": "fromItems",
          "type": "uint256[]"
        },
        {
          "internalType": "uint256[]",
          "name": "toItems",
          "type": "uint256[]"
        },
        {
          "internalType": "uint256",
          "name": "fromMoney",
          "type": "uint256"
        },
        {
          "internalType": "uint256",
          "name": "toMoney",
          "type": "uint256"
        }
      ],
      "name": "trade",
      "outputs": [],
      "stateMutability": "nonpayable",
      "type": "function"
    }
  ],
  "bytecode": "0x608060405234801561001057600080fd5b5060405161051538038061051583398101604081905261002f9161007c565b600080546001600160a01b039384166001600160a01b031991821617909155600180549290931691161790556100af565b80516001600160a01b038116811461007757600080fd5b919050565b6000806040838503121561008f57600080fd5b61009883610060565b91506100a660208401610060565b90509250929050565b610457806100be6000396000f3fe608060405234801561001057600080fd5b50600436106100365760003560e01c8063091aa58b1461003b57806345a719d814610050575b600080fd5b61004e61004936600461032b565b610087565b005b61007361005e3660046103cb565b60026020526000908152604090205460ff1681565b604051901515815260200160405180910390f35b60005b85811015610131576000546001600160a01b031663a42291018888848181106100b5576100b56103e4565b905060200201358a6040518363ffffffff1660e01b81526004016100ec9291909182526001600160a01b0316602082015260400190565b600060405180830381600087803b15801561010657600080fd5b505af115801561011a573d6000803e3d6000fd5b505050508080610129906103fa565b91505061008a565b5060005b838110156101dc576000546001600160a01b031663a4229101868684818110610160576101606103e4565b905060200201358b6040518363ffffffff1660e01b81526004016101979291909182526001600160a01b0316602082015260400190565b600060405180830381600087803b1580156101b157600080fd5b505af11580156101c5573d6000803e3d6000fd5b5050505080806101d4906103fa565b915050610135565b5060015460405163a58d3b4760e01b81526001600160a01b038a811660048301528981166024830152604482018590529091169063a58d3b4790606401600060405180830381600087803b15801561023357600080fd5b505af1158015610247573d6000803e3d6000fd5b505060015460405163a58d3b4760e01b81526001600160a01b038b811660048301528c8116602483015260448201869052909116925063a58d3b479150606401600060405180830381600087803b1580156102a157600080fd5b505af11580156102b5573d6000803e3d6000fd5b505050505050505050505050565b80356001600160a01b03811681146102da57600080fd5b919050565b60008083601f8401126102f157600080fd5b50813567ffffffffffffffff81111561030957600080fd5b6020830191508360208260051b850101111561032457600080fd5b9250929050565b60008060008060008060008060c0898b03121561034757600080fd5b610350896102c3565b975061035e60208a016102c3565b9650604089013567ffffffffffffffff8082111561037b57600080fd5b6103878c838d016102df565b909850965060608b01359150808211156103a057600080fd5b506103ad8b828c016102df565b999c989b5096999598969760808701359660a0013595509350505050565b6000602082840312156103dd57600080fd5b5035919050565b634e487b7160e01b600052603260045260246000fd5b60006001820161041a57634e487b7160e01b600052601160045260246000fd5b506001019056fea264697066735822122075ccc05f9c29bd912f06b21e2ac4d47b328f051d8d27094111ff5cea9a08106964736f6c63430008130033",
  "immutableReferences": {},
  "source": "// SPDX-License-Identifier: MIT\npragma solidity ^0.8.10;\nimport \"./ItemsHelper.sol\";\nimport \"./MoneyHelper.sol\";\n\ncontract Trade {\n    ItemsHelper private _itemsHelper;\n    MoneyHelper private _moneyHelper;\n\n    mapping(bytes32 => bool) public tradeHashes;\n\n    event LogError(uint8, uint256);\n    event BattleRecorded(uint256 killedFighter, bytes32 battleHash, uint256 battleNonce);\n\n\n    constructor(address itemsHelperContract, address moneyHelperContract) {     \n        _itemsHelper = ItemsHelper(itemsHelperContract);\n        _moneyHelper = MoneyHelper(moneyHelperContract);\n    }\n\n    \n    function trade (address from, address to, uint256[] calldata fromItems, uint256[] calldata toItems, uint256 fromMoney, uint256 toMoney) external {\n        for (uint i = 0; i < fromItems.length; i++) {\n            // use fromItems[i] here to access each item\n            _itemsHelper.transferItem(fromItems[i], to);\n        }\n        for (uint i = 0; i < toItems.length; i++) {\n            // use fromItems[i] here to access each item\n            _itemsHelper.transferItem(toItems[i], from);\n        }\n\n        _moneyHelper.transferThroughTrade(from, to, fromMoney);\n        _moneyHelper.transferThroughTrade(to, from, toMoney);\n    }\n}\n",
  "sourcePath": "/Users/max/Documents/prog/game-contracts/contracts/Trade.sol",
  "compiler": {
    "name": "solc",
    "version": "0.8.19+commit.7dd6d404.Emscripten.clang"
  },
  "schemaVersion": "3.4.13",
  "updatedAt": "2023-08-03T04:55:26.372Z",
  "networkType": "ethereum",
  "devdoc": {
    "kind": "dev",
    "methods": {},
    "version": 1
  },
  "userdoc": {
    "kind": "user",
    "methods": {},
    "version": 1
  }
}