{
  "contractName": "TradeHelper",
  "abi": [
    {
      "inputs": [
        {
          "internalType": "address",
          "name": "tradeAddress",
          "type": "address"
        }
      ],
      "stateMutability": "nonpayable",
      "type": "constructor"
    },
    {
      "inputs": [
        {
          "internalType": "address",
          "name": "from",
          "type": "address"
        },
        {
          "internalType": "address",
          "name": "to",
          "type": "address"
        },
        {
          "internalType": "uint256[]",
          "name": "fromItems",
          "type": "uint256[]"
        },
        {
          "internalType": "uint256[]",
          "name": "toItems",
          "type": "uint256[]"
        },
        {
          "internalType": "uint256",
          "name": "fromMoney",
          "type": "uint256"
        },
        {
          "internalType": "uint256",
          "name": "toMoney",
          "type": "uint256"
        }
      ],
      "name": "trade",
      "outputs": [],
      "stateMutability": "nonpayable",
      "type": "function"
    }
  ],
  "bytecode": "0x608060405234801561001057600080fd5b5060405161031a38038061031a83398101604081905261002f91610054565b600080546001600160a01b0319166001600160a01b0392909216919091179055610084565b60006020828403121561006657600080fd5b81516001600160a01b038116811461007d57600080fd5b9392505050565b610287806100936000396000f3fe608060405234801561001057600080fd5b506004361061002b5760003560e01c8063091aa58b14610030575b600080fd5b61004361003e366004610127565b610045565b005b60005460405163091aa58b60e01b81526001600160a01b039091169063091aa58b90610083908b908b908b908b908b908b908b908b906004016101f9565b600060405180830381600087803b15801561009d57600080fd5b505af11580156100b1573d6000803e3d6000fd5b505050505050505050505050565b80356001600160a01b03811681146100d657600080fd5b919050565b60008083601f8401126100ed57600080fd5b50813567ffffffffffffffff81111561010557600080fd5b6020830191508360208260051b850101111561012057600080fd5b9250929050565b60008060008060008060008060c0898b03121561014357600080fd5b61014c896100bf565b975061015a60208a016100bf565b9650604089013567ffffffffffffffff8082111561017757600080fd5b6101838c838d016100db565b909850965060608b013591508082111561019c57600080fd5b506101a98b828c016100db565b999c989b5096999598969760808701359660a0013595509350505050565b81835260006001600160fb1b038311156101e057600080fd5b8260051b80836020870137939093016020019392505050565b6001600160a01b0389811682528816602082015260c060408201819052600090610226908301888a6101c7565b82810360608401526102398187896101c7565b6080840195909552505060a00152969550505050505056fea2646970667358221220ce39552ed148518589158c2ab5757c87affd837375bac182901b52618ed44e3e64736f6c63430008130033",
  "immutableReferences": {},
  "source": "// SPDX-License-Identifier: MIT\npragma solidity ^0.8.18;\nimport \"./Trade.sol\";\ncontract TradeHelper {\n    Trade private _trade;\n\n    constructor(address tradeAddress) {\n        _trade = Trade(tradeAddress);\n    }    \n\n    function trade (address from, address to, uint256[] calldata fromItems, uint256[] calldata toItems, uint256 fromMoney, uint256 toMoney) external {\n        _trade.trade(from, to, fromItems, toItems, fromMoney, toMoney);\n    }\n}",
  "sourcePath": "/Users/max/Documents/prog/game-contracts/contracts/TradeHelper.sol",
  "compiler": {
    "name": "solc",
    "version": "0.8.19+commit.7dd6d404.Emscripten.clang"
  },
  "schemaVersion": "3.4.13",
  "updatedAt": "2023-08-04T05:17:18.102Z",
  "networkType": "ethereum",
  "devdoc": {
    "kind": "dev",
    "methods": {},
    "version": 1
  },
  "userdoc": {
    "kind": "user",
    "methods": {},
    "version": 1
  }
}