{
  "contractName": "Trade",
  "abi": [
    {
      "inputs": [
        {
          "internalType": "address",
          "name": "itemsHelperContract",
          "type": "address"
        },
        {
          "internalType": "address",
          "name": "moneyHelperContract",
          "type": "address"
        }
      ],
      "stateMutability": "nonpayable",
      "type": "constructor"
    },
    {
      "anonymous": false,
      "inputs": [
        {
          "indexed": false,
          "internalType": "uint256",
          "name": "killedFighter",
          "type": "uint256"
        },
        {
          "indexed": false,
          "internalType": "bytes32",
          "name": "battleHash",
          "type": "bytes32"
        },
        {
          "indexed": false,
          "internalType": "uint256",
          "name": "battleNonce",
          "type": "uint256"
        }
      ],
      "name": "BattleRecorded",
      "type": "event"
    },
    {
      "anonymous": false,
      "inputs": [
        {
          "indexed": false,
          "internalType": "uint8",
          "name": "",
          "type": "uint8"
        },
        {
          "indexed": false,
          "internalType": "uint256",
          "name": "",
          "type": "uint256"
        }
      ],
      "name": "LogError",
      "type": "event"
    },
    {
      "inputs": [
        {
          "internalType": "bytes32",
          "name": "",
          "type": "bytes32"
        }
      ],
      "name": "tradeHashes",
      "outputs": [
        {
          "internalType": "bool",
          "name": "",
          "type": "bool"
        }
      ],
      "stateMutability": "view",
      "type": "function",
      "constant": true
    },
    {
      "inputs": [
        {
          "internalType": "address",
          "name": "from",
          "type": "address"
        },
        {
          "internalType": "address",
          "name": "to",
          "type": "address"
        },
        {
          "internalType": "uint256[]",
          "name": "fromItems",
          "type": "uint256[]"
        },
        {
          "internalType": "uint256[]",
          "name": "toItems",
          "type": "uint256[]"
        },
        {
          "internalType": "uint256",
          "name": "fromMoney",
          "type": "uint256"
        },
        {
          "internalType": "uint256",
          "name": "toMoney",
          "type": "uint256"
        }
      ],
      "name": "trade",
      "outputs": [],
      "stateMutability": "nonpayable",
      "type": "function"
    }
  ],
  "bytecode": "0x60803461008d57601f61046e38819003918201601f19168301916001600160401b0383118484101761009257808492604094855283398101031261008d57610052602061004b836100a8565b92016100a8565b600080546001600160a01b039384166001600160a01b031991821617909155600180549290931691161790556040516103b190816100bd8239f35b600080fd5b634e487b7160e01b600052604160045260246000fd5b51906001600160a01b038216820361008d5756fe6040608081526004908136101561001557600080fd5b600091823560e01c8063091aa58b14610066576345a719d81461003757600080fd5b34610062576020366003190112610062578160209360ff923581526002855220541690519015158152f35b8280fd5b5090346100625760c0366003190112610062578282356001600160a01b0380821682036100625760243581811681036102cc5767ffffffffffffffff6044358181116102c8576100b990369089016102d0565b916064359081116102c4576100d19036908a016102d0565b929091875b82811061025057505050855b8281106101cc57505050816001541691823b156101af57855163a58d3b4760e01b8082526001600160a01b03808716838b01908152908516602082015260843560408201529094879183919082908490829060600103925af180156101c2576101b3575b506001541691823b156101af5785519081526001600160a01b039182169681019687529216602086015260a4356040860152909384919082908490829060600103925af19081156101a6575061019a575080f35b6101a390610351565b80f35b513d84823e3d90fd5b8480fd5b6101bc90610351565b38610146565b87513d88823e3d90fd5b848754166101db82858561032b565b3590803b1561024c57895163a422910160e01b8152808c019283526001600160a01b0389166020840152918991839182908490829060400103925af18015610242579061022e9291610233575b50610306565b6100e2565b61023c90610351565b38610228565b89513d8a823e3d90fd5b8880fd5b8689541661025f82858561032b565b3590803b156102c0578b5163a422910160e01b8152808e019283526001600160a01b0389166020840152918b91839182908490829060400103925af180156102b657906102b192916102335750610306565b6100d6565b8b513d8c823e3d90fd5b8a80fd5b8680fd5b8580fd5b8380fd5b9181601f840112156103015782359167ffffffffffffffff8311610301576020808501948460051b01011161030157565b600080fd5b60001981146103155760010190565b634e487b7160e01b600052601160045260246000fd5b919081101561033b5760051b0190565b634e487b7160e01b600052603260045260246000fd5b67ffffffffffffffff811161036557604052565b634e487b7160e01b600052604160045260246000fdfea2646970667358221220a6bb199d1911d6b5447de41220a660912ac94afafa1f18d720145ed3c8a9c84e64736f6c63430008130033",
  "immutableReferences": {},
  "source": "// SPDX-License-Identifier: MIT\npragma solidity ^0.8.10;\nimport \"./ItemsHelper.sol\";\nimport \"./MoneyHelper.sol\";\n\ncontract Trade {\n    ItemsHelper private _itemsHelper;\n    MoneyHelper private _moneyHelper;\n\n    mapping(bytes32 => bool) public tradeHashes;\n\n    event LogError(uint8, uint256);\n    event BattleRecorded(uint256 killedFighter, bytes32 battleHash, uint256 battleNonce);\n\n\n    constructor(address itemsHelperContract, address moneyHelperContract) {     \n        _itemsHelper = ItemsHelper(itemsHelperContract);\n        _moneyHelper = MoneyHelper(moneyHelperContract);\n    }\n\n    \n    function trade (address from, address to, uint256[] calldata fromItems, uint256[] calldata toItems, uint256 fromMoney, uint256 toMoney) external {\n        for (uint i = 0; i < fromItems.length; i++) {\n            // use fromItems[i] here to access each item\n            _itemsHelper.transferItem(fromItems[i], to);\n        }\n        for (uint i = 0; i < toItems.length; i++) {\n            // use fromItems[i] here to access each item\n            _itemsHelper.transferItem(toItems[i], from);\n        }\n\n        _moneyHelper.transferThroughTrade(from, to, fromMoney);\n        _moneyHelper.transferThroughTrade(to, from, toMoney);\n    }\n}\n",
  "sourcePath": "/Users/max/Documents/prog/game-contracts/contracts/Trade.sol",
  "compiler": {
    "name": "solc",
    "version": "0.8.19+commit.7dd6d404.Emscripten.clang"
  },
  "schemaVersion": "3.4.13",
  "updatedAt": "2023-09-03T04:36:07.051Z",
  "networkType": "ethereum",
  "devdoc": {
    "kind": "dev",
    "methods": {},
    "version": 1
  },
  "userdoc": {
    "kind": "user",
    "methods": {},
    "version": 1
  }
}