{
  "contractName": "UpgradeItem",
  "abi": [
    {
      "inputs": [
        {
          "internalType": "address",
          "name": "itemsContract",
          "type": "address"
        },
        {
          "internalType": "address",
          "name": "itemsHelperContract",
          "type": "address"
        }
      ],
      "stateMutability": "nonpayable",
      "type": "constructor"
    },
    {
      "inputs": [
        {
          "internalType": "uint256",
          "name": "seed",
          "type": "uint256"
        }
      ],
      "name": "getRandomNumber",
      "outputs": [
        {
          "internalType": "uint256",
          "name": "",
          "type": "uint256"
        }
      ],
      "stateMutability": "view",
      "type": "function",
      "constant": true
    },
    {
      "inputs": [
        {
          "internalType": "uint256",
          "name": "seed",
          "type": "uint256"
        },
        {
          "internalType": "uint256",
          "name": "maxNum",
          "type": "uint256"
        }
      ],
      "name": "getRandomNumberMax",
      "outputs": [
        {
          "internalType": "uint256",
          "name": "",
          "type": "uint256"
        }
      ],
      "stateMutability": "view",
      "type": "function",
      "constant": true
    },
    {
      "inputs": [
        {
          "internalType": "uint256",
          "name": "a",
          "type": "uint256"
        },
        {
          "internalType": "uint256",
          "name": "b",
          "type": "uint256"
        }
      ],
      "name": "max",
      "outputs": [
        {
          "internalType": "uint256",
          "name": "",
          "type": "uint256"
        }
      ],
      "stateMutability": "view",
      "type": "function",
      "constant": true
    },
    {
      "inputs": [
        {
          "internalType": "uint256",
          "name": "a",
          "type": "uint256"
        },
        {
          "internalType": "uint256",
          "name": "b",
          "type": "uint256"
        }
      ],
      "name": "min",
      "outputs": [
        {
          "internalType": "uint256",
          "name": "",
          "type": "uint256"
        }
      ],
      "stateMutability": "view",
      "type": "function",
      "constant": true
    },
    {
      "inputs": [
        {
          "internalType": "uint256",
          "name": "a",
          "type": "uint256"
        },
        {
          "internalType": "uint256",
          "name": "b",
          "type": "uint256"
        }
      ],
      "name": "safeAdd",
      "outputs": [
        {
          "internalType": "uint256",
          "name": "",
          "type": "uint256"
        }
      ],
      "stateMutability": "view",
      "type": "function",
      "constant": true
    },
    {
      "inputs": [
        {
          "internalType": "uint256",
          "name": "a",
          "type": "uint256"
        },
        {
          "internalType": "uint256",
          "name": "b",
          "type": "uint256"
        }
      ],
      "name": "safeMul",
      "outputs": [
        {
          "internalType": "uint256",
          "name": "",
          "type": "uint256"
        }
      ],
      "stateMutability": "view",
      "type": "function",
      "constant": true
    },
    {
      "inputs": [
        {
          "internalType": "uint256",
          "name": "a",
          "type": "uint256"
        },
        {
          "internalType": "uint256",
          "name": "b",
          "type": "uint256"
        }
      ],
      "name": "safeSub",
      "outputs": [
        {
          "internalType": "uint256",
          "name": "",
          "type": "uint256"
        }
      ],
      "stateMutability": "view",
      "type": "function",
      "constant": true
    },
    {
      "inputs": [
        {
          "internalType": "uint256",
          "name": "itemTokenId",
          "type": "uint256"
        },
        {
          "internalType": "uint256",
          "name": "jewelTokenId",
          "type": "uint256"
        }
      ],
      "name": "upgradeItemLevel",
      "outputs": [],
      "stateMutability": "nonpayable",
      "type": "function"
    },
    {
      "inputs": [
        {
          "internalType": "uint256",
          "name": "itemTokenId",
          "type": "uint256"
        },
        {
          "internalType": "uint256",
          "name": "jolTokenId",
          "type": "uint256"
        }
      ],
      "name": "updateItemAdditionalPoints",
      "outputs": [
        {
          "internalType": "bool",
          "name": "",
          "type": "bool"
        }
      ],
      "stateMutability": "nonpayable",
      "type": "function"
    }
  ],
  "bytecode": "0x60806040526064600055601c60015560326002556032600355601e600455601e60055560026006556001600755600060085534801561003d57600080fd5b5060405161129b38038061129b83398101604081905261005c9161009e565b600980546001600160a01b0319166001600160a01b0392909216919091179055506100d1565b80516001600160a01b038116811461009957600080fd5b919050565b600080604083850312156100b157600080fd5b6100ba83610082565b91506100c860208401610082565b90509250929050565b6111bb806100e06000396000f3fe608060405234801561001057600080fd5b50600436106100925760003560e01c80639e62b16a116100665780639e62b16a14610106578063a293d1e81461011b578063b37217a41461012e578063d05c78da14610141578063e6cb90131461015457600080fd5b80629df65b146100975780635fb83cfa146100bd5780636d5433e6146100e05780637ae2b5c7146100f3575b600080fd5b6100aa6100a5366004610c20565b610167565b6040519081526020015b60405180910390f35b6100d06100cb366004610c20565b6101b1565b60405190151581526020016100b4565b6100aa6100ee366004610c20565b61063f565b6100aa610101366004610c20565b610657565b610119610114366004610c20565b610666565b005b6100aa610129366004610c20565b610b69565b6100aa61013c366004610c42565b610b85565b6100aa61014f366004610c20565b610bc6565b6100aa610162366004610c20565b610bf6565b6000804484434233604051602001610183959493929190610c5b565b60408051601f19818403018152919052805160209091012090506101a78382610ca8565b9150505b92915050565b600954604051631f4f5a2360e01b81526004810184905260009182916001600160a01b0390911690631f4f5a23906024016000604051808303816000875af1158015610201573d6000803e3d6000fd5b505050506040513d6000823e601f3d908101601f191682016040526102299190810190610dc7565b600954604051631f4f5a2360e01b8152600481018690529192506000916001600160a01b0390911690631f4f5a23906024016000604051808303816000875af115801561027a573d6000803e3d6000fd5b505050506040513d6000823e601f3d908101601f191682016040526102a29190810190610dc7565b9050600080836103600151156102b757601991505b836103e00151806102ca57508361040001515b61030a5760405162461bcd60e51b815260206004820152600c60248201526b496e76616c6964206974656d60a01b60448201526064015b60405180910390fd5b600154846102a00151856102800151610323919061111e565b106103705760405162461bcd60e51b815260206004820152601d60248201527f4d6178206164646974696f6e616c20706f696e747320726561636865640000006044820152606401610301565b8261032001516004146103b55760405162461bcd60e51b815260206004820152600d60248201526c125b9d985b1a59081a995dd95b609a1b6044820152606401610301565b836103e00151156104c657816002546103ce919061111e565b6103d8601e610b85565b11610460576009546102808501516001600160a01b03909116906332fac8f890899061040590600461111e565b6040516001600160e01b031960e085901b16815260048101929092526024820152604401600060405180830381600087803b15801561044357600080fd5b505af1158015610457573d6000803e3d6000fd5b505050506104c6565b60095460405163065f591f60e31b815260048101899052600060248201526001600160a01b03909116906332fac8f890604401600060405180830381600087803b1580156104ad57600080fd5b505af11580156104c1573d6000803e3d6000fd5b505050505b836104000151156105d757816002546104df919061111e565b6104e9601e610b85565b11610571576009546102a08501516001600160a01b03909116906332fac8f890899061051690600461111e565b6040516001600160e01b031960e085901b16815260048101929092526024820152604401600060405180830381600087803b15801561055457600080fd5b505af1158015610568573d6000803e3d6000fd5b505050506105d7565b60095460405163065f591f60e31b815260048101899052600060248201526001600160a01b03909116906332fac8f890604401600060405180830381600087803b1580156105be57600080fd5b505af11580156105d2573d6000803e3d6000fd5b505050505b60095460405163576cc0f760e01b8152600481018890526001600160a01b039091169063576cc0f790602401600060405180830381600087803b15801561061d57600080fd5b505af1158015610631573d6000803e3d6000fd5b505050505050505092915050565b600081831161064e5781610650565b825b9392505050565b600081831061064e5781610650565b600954604051631f4f5a2360e01b8152600481018490526000916001600160a01b031690631f4f5a23906024016000604051808303816000875af11580156106b2573d6000803e3d6000fd5b505050506040513d6000823e601f3d908101601f191682016040526106da9190810190610dc7565b600954604051631f4f5a2360e01b8152600481018590529192506000916001600160a01b0390911690631f4f5a23906024016000604051808303816000875af115801561072b573d6000803e3d6000fd5b505050506040513d6000823e601f3d908101601f191682016040526107539190810190610dc7565b9050600080836103e001518061076b57508361040001515b6107a65760405162461bcd60e51b815260206004820152600c60248201526b496e76616c6964206974656d60a01b6044820152606401610301565b600984604001511061082b5760405162461bcd60e51b815260206004820152604260248201527f4974656d2063616e206265207570677261646564206f6e6c7920757020746f2060448201527f6c6576656c20392c20757365204368616f73204d616368696e6520667572746860648201526132b960f11b608482015260a401610301565b8261032001516002148061084457508261032001516003145b6108805760405162461bcd60e51b815260206004820152600d60248201526c125b9d985b1a59081a995dd95b609a1b6044820152606401610301565b8361036001511561089057601991505b600684604001511015610970578261032001516002146108f25760405162461bcd60e51b815260206004820152601760248201527f5265717569726564206a6577656c206f6620626c6573730000000000000000006044820152606401610301565b60095460408501516001600160a01b039091169063caf7c44590889061091990600161111e565b6040516001600160e01b031960e085901b16815260048101929092526024820152604401600060405180830381600087803b15801561095757600080fd5b505af115801561096b573d6000803e3d6000fd5b505050505b6006846040015110610b03578261032001516003146109ca5760405162461bcd60e51b815260206004820152601660248201527514995c5d5a5c9959081a995dd95b081bd9881cdbdd5b60521b6044820152606401610301565b816003546109d8919061111e565b6109e26014610b85565b11610a695760095460408501516001600160a01b039091169063caf7c445908890610a0e90600161111e565b6040516001600160e01b031960e085901b16815260048101929092526024820152604401600060405180830381600087803b158015610a4c57600080fd5b505af1158015610a60573d6000803e3d6000fd5b50505050610b03565b8360400151600603610a9d5760095460408501516001600160a01b039091169063caf7c445908890610a0e90600190611131565b60095460405163caf7c44560e01b815260048101889052600060248201526001600160a01b039091169063caf7c44590604401600060405180830381600087803b158015610aea57600080fd5b505af1158015610afe573d6000803e3d6000fd5b505050505b60095460405163576cc0f760e01b8152600481018790526001600160a01b039091169063576cc0f790602401600060405180830381600087803b158015610b4957600080fd5b505af1158015610b5d573d6000803e3d6000fd5b50505050505050505050565b600082821115610b7b57610b7b611144565b6106508284611131565b6000804483434233604051602001610ba1959493929190610c5b565b60408051601f1981840301815291905280516020909101209050610650606482610ca8565b600080610bd3838561115a565b9050831580610bea575082610be88583611171565b145b61065057610650611144565b600080610c03838561111e565b9050838110158015610bea57508281101561065057610650611144565b60008060408385031215610c3357600080fd5b50508035926020909101359150565b600060208284031215610c5457600080fd5b5035919050565b948552602085019390935260408401919091526060808401919091521b6bffffffffffffffffffffffff1916608082015260940190565b634e487b7160e01b600052601260045260246000fd5b600082610cb757610cb7610c92565b500690565b634e487b7160e01b600052604160045260246000fd5b604051610740810167ffffffffffffffff81118282101715610cf657610cf6610cbc565b60405290565b604051601f8201601f1916810167ffffffffffffffff81118282101715610d2557610d25610cbc565b604052919050565b600082601f830112610d3e57600080fd5b815167ffffffffffffffff811115610d5857610d58610cbc565b6020610d6c601f8301601f19168201610cfc565b8281528582848701011115610d8057600080fd5b60005b83811015610d9e578581018301518282018401528201610d83565b506000928101909101919091529392505050565b80518015158114610dc257600080fd5b919050565b600060208284031215610dd957600080fd5b815167ffffffffffffffff80821115610df157600080fd5b908301906107408286031215610e0657600080fd5b610e0e610cd2565b825182811115610e1d57600080fd5b610e2987828601610d2d565b8252506020838101519082015260408084015190820152606080840151908201526080808401519082015260a0808401519082015260c0808401519082015260e08084015190820152610100808401519082015261012080840151908201526101408084015190820152610160808401519082015261018080840151908201526101a080840151908201526101c080840151908201526101e08084015190820152610200808401519082015261022080840151908201526102408084015190820152610260808401519082015261028080840151908201526102a080840151908201526102c080840151908201526102e080840151908201526103008084015190820152610320808401519082015261034080840151908201526103609150610f53828401610db2565b828201526103809150610f67828401610db2565b828201526103a09150610f7b828401610db2565b828201526103c09150610f8f828401610db2565b828201526103e09150610fa3828401610db2565b828201526104009150610fb7828401610db2565b828201526104209150610fcb828401610db2565b828201526104409150610fdf828401610db2565b828201526104609150610ff3828401610db2565b828201526104809150611007828401610db2565b828201526104a0915061101b828401610db2565b918101919091526104c082810151908201526104e08083015190820152610500808301519082015261052080830151908201526105408083015190820152610560808301519082015261058080830151908201526105a080830151908201526105c080830151908201526105e08083015190820152610600808301519082015261062080830151908201526106408083015190820152610660808301519082015261068080830151908201526106a080830151908201526106c080830151908201526106e08083015190820152610700808301519082015261072091820151918101919091529392505050565b634e487b7160e01b600052601160045260246000fd5b808201808211156101ab576101ab611108565b818103818111156101ab576101ab611108565b634e487b7160e01b600052600160045260246000fd5b80820281158282048414176101ab576101ab611108565b60008261118057611180610c92565b50049056fea2646970667358221220f2146aeac1ad9464ef576d8146b89515ae0aa35aa685e911042d3a3362a3804364736f6c63430008130033",
  "immutableReferences": {},
  "source": "// SPDX-License-Identifier: MIT\npragma solidity ^0.8.0;\n\nimport \"./SafeMath.sol\";\nimport \"./ItemsHelper.sol\";\nimport \"./ItemsExcellentAtts.sol\";\n\ncontract UpgradeItem is ItemsExcellentAtts, SafeMath {\n\tItemsHelper private _itemsHelper;\n\n\tconstructor (address itemsContract, address itemsHelperContract) {\n\t\t_itemsHelper = ItemsHelper(itemsHelperContract);\n\t}\n\n\tfunction upgradeItemLevel(uint256 itemTokenId, uint256 jewelTokenId) external {\n        ExcellentItemAtts memory item = _itemsHelper.getTokenAttributes(itemTokenId);\n        ExcellentItemAtts memory jewel = _itemsHelper.getTokenAttributes(jewelTokenId);\n        uint256 luckPoints = 0;\n        bool success = false;\n\n        require(item.isWeapon || item.isArmour, \"Invalid item\");\n        require(item.itemLevel < 9, \"Item can be upgraded only up to level 9, use Chaos Machine further\");\n        require(jewel.itemAttributesId == 2 ||  jewel.itemAttributesId == 3, \"Invalid jewel\");\n\n        if (item.luck) {\n            luckPoints = 25;\n        }\n\n        if (item.itemLevel < 6) { // bless\n            require(jewel.itemAttributesId == 2, \"Required jewel of bless\");\n            _itemsHelper.setItemLevel(itemTokenId, item.itemLevel + 1);\n        }\n\n        if (item.itemLevel >= 6) { // soul\n            require(jewel.itemAttributesId == 3, \"Required jewel of soul\");\n\n\n            if (getRandomNumber(20) <= josSuccessRate+luckPoints) {\n                _itemsHelper.setItemLevel(itemTokenId, item.itemLevel + 1);\n\n            } else {\n                if (item.itemLevel == 6) {\n                    _itemsHelper.setItemLevel(itemTokenId, item.itemLevel - 1);\n                } else {\n                    _itemsHelper.setItemLevel(itemTokenId, 0);\n                }\n                \n            }\n        }\n\n        _itemsHelper.burnItem(jewelTokenId);     \n    }\n\n    function updateItemAdditionalPoints(uint256 itemTokenId, uint256 jolTokenId) external returns (bool) {\n        ExcellentItemAtts memory item = _itemsHelper.getTokenAttributes(itemTokenId);\n        ExcellentItemAtts memory jewel = _itemsHelper.getTokenAttributes(jolTokenId);\n        uint256 luckPoints = 0;\n        bool success = false;\n\n        if (item.luck) {\n            luckPoints = 25;\n        }\n\n        require(item.isWeapon || item.isArmour, \"Invalid item\");\n        require(item.additionalDamage + item.additionalDefense < maxAdditionalPoints, \"Max additional points reached\");\n        require(jewel.itemAttributesId == 4, \"Invalid jewel\");\n\n        \n        if (item.isWeapon) {\n            if (getRandomNumber(30) <= jolSuccessRate+luckPoints) {\n                _itemsHelper.setAdditionalPoints(itemTokenId, item.additionalDamage+4);\n            } else {\n                _itemsHelper.setAdditionalPoints(itemTokenId, 0);\n            }\n            \n        }\n\n        if (item.isArmour) {\n            if (getRandomNumber(30) <= jolSuccessRate+luckPoints) {\n                _itemsHelper.setAdditionalPoints(itemTokenId, item.additionalDefense+4);\n            } else {\n                _itemsHelper.setAdditionalPoints(itemTokenId, 0);\n            }\n        }\n\n        _itemsHelper.burnItem(jolTokenId);\n    }\n}",
  "sourcePath": "/Users/max/Documents/prog/game-contracts/contracts/UpgradeItem.sol",
  "compiler": {
    "name": "solc",
    "version": "0.8.19+commit.7dd6d404.Emscripten.clang"
  },
  "schemaVersion": "3.4.13",
  "updatedAt": "2023-08-06T07:11:13.317Z",
  "networkType": "ethereum",
  "devdoc": {
    "kind": "dev",
    "methods": {},
    "version": 1
  },
  "userdoc": {
    "kind": "user",
    "methods": {},
    "version": 1
  }
}