{
  "contractName": "UpgradeItem",
  "abi": [
    {
      "inputs": [
        {
          "internalType": "address",
          "name": "itemsContract",
          "type": "address"
        },
        {
          "internalType": "address",
          "name": "itemsHelperContract",
          "type": "address"
        }
      ],
      "stateMutability": "nonpayable",
      "type": "constructor"
    },
    {
      "inputs": [
        {
          "internalType": "uint256",
          "name": "seed",
          "type": "uint256"
        }
      ],
      "name": "getRandomNumber",
      "outputs": [
        {
          "internalType": "uint256",
          "name": "",
          "type": "uint256"
        }
      ],
      "stateMutability": "view",
      "type": "function",
      "constant": true
    },
    {
      "inputs": [
        {
          "internalType": "uint256",
          "name": "seed",
          "type": "uint256"
        },
        {
          "internalType": "uint256",
          "name": "maxNum",
          "type": "uint256"
        }
      ],
      "name": "getRandomNumberMax",
      "outputs": [
        {
          "internalType": "uint256",
          "name": "",
          "type": "uint256"
        }
      ],
      "stateMutability": "view",
      "type": "function",
      "constant": true
    },
    {
      "inputs": [
        {
          "internalType": "uint256",
          "name": "a",
          "type": "uint256"
        },
        {
          "internalType": "uint256",
          "name": "b",
          "type": "uint256"
        }
      ],
      "name": "max",
      "outputs": [
        {
          "internalType": "uint256",
          "name": "",
          "type": "uint256"
        }
      ],
      "stateMutability": "view",
      "type": "function",
      "constant": true
    },
    {
      "inputs": [
        {
          "internalType": "uint256",
          "name": "a",
          "type": "uint256"
        },
        {
          "internalType": "uint256",
          "name": "b",
          "type": "uint256"
        }
      ],
      "name": "min",
      "outputs": [
        {
          "internalType": "uint256",
          "name": "",
          "type": "uint256"
        }
      ],
      "stateMutability": "view",
      "type": "function",
      "constant": true
    },
    {
      "inputs": [
        {
          "internalType": "uint256",
          "name": "a",
          "type": "uint256"
        },
        {
          "internalType": "uint256",
          "name": "b",
          "type": "uint256"
        }
      ],
      "name": "safeAdd",
      "outputs": [
        {
          "internalType": "uint256",
          "name": "",
          "type": "uint256"
        }
      ],
      "stateMutability": "view",
      "type": "function",
      "constant": true
    },
    {
      "inputs": [
        {
          "internalType": "uint256",
          "name": "a",
          "type": "uint256"
        },
        {
          "internalType": "uint256",
          "name": "b",
          "type": "uint256"
        }
      ],
      "name": "safeMul",
      "outputs": [
        {
          "internalType": "uint256",
          "name": "",
          "type": "uint256"
        }
      ],
      "stateMutability": "view",
      "type": "function",
      "constant": true
    },
    {
      "inputs": [
        {
          "internalType": "uint256",
          "name": "a",
          "type": "uint256"
        },
        {
          "internalType": "uint256",
          "name": "b",
          "type": "uint256"
        }
      ],
      "name": "safeSub",
      "outputs": [
        {
          "internalType": "uint256",
          "name": "",
          "type": "uint256"
        }
      ],
      "stateMutability": "view",
      "type": "function",
      "constant": true
    },
    {
      "inputs": [
        {
          "internalType": "string",
          "name": "a",
          "type": "string"
        },
        {
          "internalType": "string",
          "name": "b",
          "type": "string"
        }
      ],
      "name": "stringsEqual",
      "outputs": [
        {
          "internalType": "bool",
          "name": "",
          "type": "bool"
        }
      ],
      "stateMutability": "view",
      "type": "function",
      "constant": true
    },
    {
      "inputs": [
        {
          "internalType": "uint256",
          "name": "itemTokenId",
          "type": "uint256"
        },
        {
          "internalType": "uint256",
          "name": "jewelTokenId",
          "type": "uint256"
        }
      ],
      "name": "upgradeItemLevel",
      "outputs": [],
      "stateMutability": "nonpayable",
      "type": "function"
    },
    {
      "inputs": [
        {
          "internalType": "uint256",
          "name": "itemTokenId",
          "type": "uint256"
        },
        {
          "internalType": "uint256",
          "name": "jolTokenId",
          "type": "uint256"
        }
      ],
      "name": "updateItemAdditionalPoints",
      "outputs": [
        {
          "internalType": "bool",
          "name": "",
          "type": "bool"
        }
      ],
      "stateMutability": "nonpayable",
      "type": "function"
    }
  ],
  "bytecode": "0x6080346100a757601f6112c338819003918201601f19168301916001600160401b038311848410176100ac5780849260409485528339810103126100a75760208161004c610053936100c2565b50016100c2565b6064600055601c60015560326002556032600355601e600455601e60055560026006556001600755600060085560018060a01b031660018060a01b031960095416176009556040516111ec90816100d78239f35b600080fd5b634e487b7160e01b600052604160045260246000fd5b51906001600160a01b03821682036100a75756fe60806040908082526004908136101561001757600080fd5b600091823560e01c9182629df65b14610baf5750816313d1995014610b555781635fb83cfa1461074d5781636d5433e6146107275781637ae2b5c7146106f95781639e62b16a14610212578163a293d1e8146101ca578163b37217a414610158578163d05c78da146100d8575063e6cb90131461009357600080fd5b346100d55760206100c4836100a736610c2e565b6100b381839593610d4d565b9384101590816100ca575b50610d30565b51908152f35b9050831015856100be565b80fd5b90508234610154576100e936610c2e565b811594828202949285049081831487171561014157868015610113575b602087876100c48b610d30565b90919293965061012e57501492506100c46020858080610106565b634e487b7160e01b815260128652602490fd5b634e487b7160e01b815260118452602490fd5b8280fd5b8383346100d55760203660031901126100d557508051446020828101918252933560408301524360608084019190915242608084015233901b6bffffffffffffffffffffffff191660a08301526064916101bf8160b481015b03601f198101835282610cab565b519020069051908152f35b8383346100d557506101db36610c2e565b6101ea82829493941115610d30565b82039182116101fd576020925051908152f35b601183634e487b7160e01b6000525260246000fd5b8284346106f557819061022436610c2e565b60018060a09793971b036009818154168551908782631f4f5a2360e01b928382528c898301528160249b8c925af19182156106cd5790899182936106d7575b5081908986865416918a51948593849283528a8c8401525af19081156106cd5789916106ab575b5088906101c08301511580159061069d575b6102a5906110ec565b87830192848451101561062a57610140906102c983516102c3611127565b90610ddf565b8015610612575b6102d99061117a565b0151610609575b6006835110610532575b60068351101561034a575b505050869750541693843b15610346578592838551968794859363576cc0f760e01b85528401525af190811561033d575061032d5750f35b61033690610c49565b6100d55780f35b513d84823e3d90fd5b8580fd5b61035790516102c3611127565b156104f7576103af60648851602081019044825260148b8201524360608201524260808201526bffffffffffffffffffffffff193360601b1660a0820152609481526103a281610c8f565b5190200691600354610d4d565b10610440578282541690519860018a01809a1161042e578899823b1561042a5760448a92838a51958694859363caf7c44560e01b85528c8501528d8401525af1801561042057908891610408575b50505b8880806102f5565b61041190610c49565b61041c5786896103fd565b8680fd5b86513d8a823e3d90fd5b8980fd5b634e487b7160e01b8952601186528789fd5b80516006036104ae57828254169051986000198a01998a1161042e578899823b1561042a5760448a92838a51958694859363caf7c44560e01b85528c8501528d8401525af180156104205790889161049a575b5050610400565b6104a390610c49565b61041c578689610493565b5086978282541690813b156104f3578891604483928951948593849263caf7c44560e01b84528b840152818d8401525af180156104205790889161049a575050610400565b8880fd5b865162461bcd60e51b81526020818801526016818a01527514995c5d5a5c9959081a995dd95b081bd9881cdbdd5b60521b6044820152606490fd5b61053f81516102c3611150565b156105c757848454168351600181018091116105b557813b156105b1578c60448a8e8e9581958f51978896879563caf7c44560e01b87528601528401525af180156105a757908b91610593575b50506102ea565b61059c90610c49565b61042a57898c61058c565b89513d8d823e3d90fd5b8b80fd5b634e487b7160e01b8c52601189528a8cfd5b875162461bcd60e51b81526020818901526017818b01527f5265717569726564206a6577656c206f6620626c6573730000000000000000006044820152606490fd5b601991506102e0565b506102d961062384516102c3611150565b90506102d0565b885162461bcd60e51b81526020818a01526042818c01527f4974656d2063616e206265207570677261646564206f6e6c7920757020746f2060448201527f6c6576656c20392c20757365204368616f73204d616368696e6520667572746860648201526132b960f11b608482015260a490fd5b506101e0830151151561029c565b6106c791503d808b833e6106bf8183610cab565b810190610e4c565b8a61028a565b87513d8b823e3d90fd5b829193506106ee903d8084833e6106bf8183610cab565b9290610263565b5080fd5b8284346106f55760209161070c36610c2e565b9091508082101561071f57509051908152f35b9050906100c4565b8284346106f55760209161073a36610c2e565b9091508082111561071f57509051908152f35b8284346106f55761075d36610c2e565b8360018060a09794971b036009818154168651908482631f4f5a2360e01b928382528c8a8301528160249889925af1918215610b2f5789929183918293610b39575b508686865416918b51958693849283528b8d8401525af1918215610b2f578992610b13575b508890610140810151610b0a575b6101c08101805115801590610afc575b6107eb906110ec565b608082019081519461080360a0850196875190610d4d565b6001541115610ab95761083f61084491518d519061082082610c73565b600d82526c4a6577656c206f66204c69666560981b6020830152610ddf565b61117a565b516109c1575b506101e001516108b8575b505086975095939495541693843b156108b457838651958694859363576cc0f760e01b85528401525af180156108a857610894575b6020838351908152f35b61089e8391610c49565b6106f5578261088a565b505051903d90823e3d90fd5b8380fd5b6108cc6108c3610d70565b91600254610d4d565b10610963578282541690519086820180921161095157889981999798993b1561094d576044898980948d51968795869463065f591f60e31b86528501528a8401525af190811561094357869161092b575b50505b888097969597610855565b61093490610c49565b61093f57848961091d565b8480fd5b88513d88823e3d90fd5b8780fd5b634e487b7160e01b8952601187528489fd5b508697828298969798541690813b1561041c578691604483928b51948593849263065f591f60e31b84528d840152818a8401525af19081156109435786916109ad575b5050610920565b6109b690610c49565b61093f5784896109a6565b6109c9610d70565b6109d584600254610d4d565b10610a5e5785855416905190898201809211610a4c57803b156105b1578c60448b8e80948f51968795869463065f591f60e31b86528501528d8401525af18015610a4257908b91610a2e575b50506101e0905b9061084a565b610a3790610c49565b61042a57898c610a21565b8a513d8d823e3d90fd5b634e487b7160e01b8c5260118a52878cfd5b5084845416803b15610ab5578a8c60448b838e51958694859363065f591f60e31b8552840152818d8401525af18015610a4257610aa0575b506101e090610a28565b99610aae6101e0929b610c49565b9990610a96565b8a80fd5b508a5162461bcd60e51b81526020818c0152601d818a01527f4d6178206164646974696f6e616c20706f696e747320726561636865640000006044820152606490fd5b506101e082015115156107e2565b601991506107d2565b610b289192503d808b833e6106bf8183610cab565b908a6107c4565b88513d8b823e3d90fd5b610b4e9193503d8084833e6106bf8183610cab565b918c61079f565b8391503461015457816003193601126101545767ffffffffffffffff813581811161093f57610b879036908401610ce9565b936024359182116100d55750926102c3610ba692602095369101610ce9565b90519015158152f35b9150923461015457610bc036610c2e565b446020850190815260408501929092524360608086019190915242608086015233901b6bffffffffffffffffffffffff191660a085015292610c058160b481016101b1565b519020928215610c1b5750602093505191068152f35b634e487b7160e01b815260128552602490fd5b6040906003190112610c44576004359060243590565b600080fd5b67ffffffffffffffff8111610c5d57604052565b634e487b7160e01b600052604160045260246000fd5b6040810190811067ffffffffffffffff821117610c5d57604052565b60c0810190811067ffffffffffffffff821117610c5d57604052565b90601f8019910116810190811067ffffffffffffffff821117610c5d57604052565b67ffffffffffffffff8111610c5d57601f01601f191660200190565b81601f82011215610c4457803590610d0082610ccd565b92610d0e6040519485610cab565b82845260208383010111610c4457816000926020809301838601378301015290565b15610d3757565b634e487b7160e01b600052600160045260246000fd5b91908201809211610d5a57565b634e487b7160e01b600052601160045260246000fd5b60646040516020810190448252601e60408201524360608201524260808201526bffffffffffffffffffffffff193360601b1660a082015260948152610db581610c8f565b5190200690565b60005b838110610dcf5750506000910152565b8181015183820152602001610dbf565b9060405191602092610e0d848281610e008183019687815193849201610dbc565b8101038084520182610cab565b51902091610e2d604051918281610e008183019687815193849201610dbc565b51902003610e3a57600190565b600090565b51908115158203610c4457565b9060208083830312610c4457825167ffffffffffffffff93848211610c44570191610540938484830312610c445760405194850185811082821117610c5d576040528351908111610c4457830181601f82011215610c44578051610eaf81610ccd565b92610ebd6040519485610cab565b818452848284010111610c4457610ed991848085019101610dbc565b8352808201519083015260408101516040830152606081015160608301526080810151608083015260a081015160a083015260c081015160c083015260e081015160e083015261010080820151908301526101208082015190830152610140610f43818301610e3f565b90830152610160610f55818301610e3f565b90830152610180610f67818301610e3f565b908301526101a0610f79818301610e3f565b908301526101c0610f8b818301610e3f565b908301526101e0610f9d818301610e3f565b90830152610200610faf818301610e3f565b90830152610220610fc1818301610e3f565b90830152610240610fd3818301610e3f565b90830152610260610fe5818301610e3f565b90830152610280610ff7818301610e3f565b908301526102a0611009818301610e3f565b908301526102c080820151908301526102e08082015190830152610300808201519083015261032080820151908301526103408082015190830152610360808201519083015261038080820151908301526103a080820151908301526103c080820151908301526103e08082015190830152610400808201519083015261042080820151908301526104408082015190830152610460808201519083015261048080820151908301526104a080820151908301526104c080820151908301526104e080820151908301526105008082015190830152610520809101519082015290565b156110f357565b60405162461bcd60e51b815260206004820152600c60248201526b496e76616c6964206974656d60a01b6044820152606490fd5b6040519061113482610c73565b600d82526c12995dd95b081bd98814dbdd5b609a1b6020830152565b6040519061115d82610c73565b600e82526d4a6577656c206f6620426c65737360901b6020830152565b1561118157565b60405162461bcd60e51b815260206004820152600d60248201526c125b9d985b1a59081a995dd95b609a1b6044820152606490fdfea26469706673582212205277d83e618e97beea0c34ed984a6b918c22b892177692420885e1da9dad66d764736f6c63430008130033",
  "immutableReferences": {},
  "source": "// SPDX-License-Identifier: MIT\npragma solidity ^0.8.0;\n\nimport \"./SafeMath.sol\";\nimport \"./ItemsHelper.sol\";\nimport \"./ItemsExcellentAtts.sol\";\n\ncontract UpgradeItem is ItemsExcellentAtts, SafeMath {\n\tItemsHelper private _itemsHelper;\n\n\tconstructor (address itemsContract, address itemsHelperContract) {\n\t\t_itemsHelper = ItemsHelper(itemsHelperContract);\n\t}\n\n\tfunction upgradeItemLevel(uint256 itemTokenId, uint256 jewelTokenId) external {\n        ExcellentItemAtts memory item = _itemsHelper.getTokenAttributes(itemTokenId);\n        ExcellentItemAtts memory jewel = _itemsHelper.getTokenAttributes(jewelTokenId);\n        uint256 luckPoints = 0;\n        bool success = false;\n\n        require(item.isWeapon || item.isArmour, \"Invalid item\");\n        require(item.itemLevel < 9, \"Item can be upgraded only up to level 9, use Chaos Machine further\");\n        require(stringsEqual(jewel.name, \"Jewel of Soul\") ||  stringsEqual(jewel.name, \"Jewel of Bless\"), \"Invalid jewel\");\n\n        if (item.luck) {\n            luckPoints = 25;\n        }\n\n        if (item.itemLevel < 6) { // bless\n            require(stringsEqual(jewel.name, \"Jewel of Bless\"), \"Required jewel of bless\");\n            _itemsHelper.setItemLevel(itemTokenId, item.itemLevel + 1);\n        }\n\n        if (item.itemLevel >= 6) { // soul\n            require(stringsEqual(jewel.name, \"Jewel of Soul\"), \"Required jewel of soul\");\n\n\n            if (getRandomNumber(20) <= josSuccessRate+luckPoints) {\n                _itemsHelper.setItemLevel(itemTokenId, item.itemLevel + 1);\n\n            } else {\n                if (item.itemLevel == 6) {\n                    _itemsHelper.setItemLevel(itemTokenId, item.itemLevel - 1);\n                } else {\n                    _itemsHelper.setItemLevel(itemTokenId, 0);\n                }\n                \n            }\n        }\n\n        _itemsHelper.burnItem(jewelTokenId);     \n    }\n\n    function updateItemAdditionalPoints(uint256 itemTokenId, uint256 jolTokenId) external returns (bool) {\n        ExcellentItemAtts memory item = _itemsHelper.getTokenAttributes(itemTokenId);\n        ExcellentItemAtts memory jewel = _itemsHelper.getTokenAttributes(jolTokenId);\n        uint256 luckPoints = 0;\n        bool success = false;\n\n        if (item.luck) {\n            luckPoints = 25;\n        }\n\n        require(item.isWeapon || item.isArmour, \"Invalid item\");\n        require(item.additionalDamage + item.additionalDefense < maxAdditionalPoints, \"Max additional points reached\");\n        require(stringsEqual(jewel.name, \"Jewel of Life\"), \"Invalid jewel\");\n\n        \n        if (item.isWeapon) {\n            if (getRandomNumber(30) <= jolSuccessRate+luckPoints) {\n                _itemsHelper.setAdditionalPoints(itemTokenId, item.additionalDamage+4);\n            } else {\n                _itemsHelper.setAdditionalPoints(itemTokenId, 0);\n            }\n            \n        }\n\n        if (item.isArmour) {\n            if (getRandomNumber(30) <= jolSuccessRate+luckPoints) {\n                _itemsHelper.setAdditionalPoints(itemTokenId, item.additionalDefense+4);\n            } else {\n                _itemsHelper.setAdditionalPoints(itemTokenId, 0);\n            }\n        }\n\n        _itemsHelper.burnItem(jolTokenId);\n    }\n}",
  "sourcePath": "/Users/max/Documents/prog/game-contracts/contracts/UpgradeItem.sol",
  "compiler": {
    "name": "solc",
    "version": "0.8.19+commit.7dd6d404.Emscripten.clang"
  },
  "schemaVersion": "3.4.13",
  "updatedAt": "2023-08-10T08:51:38.712Z",
  "networkType": "ethereum",
  "devdoc": {
    "kind": "dev",
    "methods": {},
    "version": 1
  },
  "userdoc": {
    "kind": "user",
    "methods": {},
    "version": 1
  }
}