{
  "contractName": "UpgradeItem",
  "abi": [
    {
      "inputs": [
        {
          "internalType": "address",
          "name": "itemsContract",
          "type": "address"
        }
      ],
      "stateMutability": "nonpayable",
      "type": "constructor"
    },
    {
      "inputs": [
        {
          "internalType": "uint256",
          "name": "itemTokenId",
          "type": "uint256"
        },
        {
          "internalType": "uint256",
          "name": "jewelTokenId",
          "type": "uint256"
        }
      ],
      "name": "upgradeItemLevel",
      "outputs": [],
      "stateMutability": "nonpayable",
      "type": "function"
    },
    {
      "inputs": [
        {
          "internalType": "uint256",
          "name": "itemTokenId",
          "type": "uint256"
        },
        {
          "internalType": "uint256",
          "name": "jolTokenId",
          "type": "uint256"
        }
      ],
      "name": "updateItemAdditionalPoints",
      "outputs": [
        {
          "internalType": "bool",
          "name": "",
          "type": "bool"
        }
      ],
      "stateMutability": "nonpayable",
      "type": "function"
    }
  ],
  "bytecode": "0x6080604052601c60005560326001556032600255601e600355601e60045534801561002957600080fd5b506040516110213803806110218339810160408190526100489161006d565b600580546001600160a01b0319166001600160a01b039290921691909117905561009d565b60006020828403121561007f57600080fd5b81516001600160a01b038116811461009657600080fd5b9392505050565b610f75806100ac6000396000f3fe608060405234801561001057600080fd5b50600436106100365760003560e01c80635fb83cfa1461003b5780639e62b16a14610062575b600080fd5b61004e610049366004610a4a565b610077565b604051901515815260200160405180910390f35b610075610070366004610a4a565b610501565b005b600554604051631f4f5a2360e01b81526004810184905260009182916001600160a01b0390911690631f4f5a2390602401600060405180830381865afa1580156100c5573d6000803e3d6000fd5b505050506040513d6000823e601f3d908101601f191682016040526100ed9190810190610b77565b600554604051631f4f5a2360e01b8152600481018690529192506000916001600160a01b0390911690631f4f5a2390602401600060405180830381865afa15801561013c573d6000803e3d6000fd5b505050506040513d6000823e601f3d908101601f191682016040526101649190810190610b77565b9050600080836106c001511561017957601991505b8361072001518061018c57508361074001515b6101cc5760405162461bcd60e51b815260206004820152600c60248201526b496e76616c6964206974656d60a01b60448201526064015b60405180910390fd5b6000548461028001518561026001516101e59190610ef1565b106102325760405162461bcd60e51b815260206004820152601d60248201527f4d6178206164646974696f6e616c20706f696e7473207265616368656400000060448201526064016101c3565b826106a001516004146102775760405162461bcd60e51b815260206004820152600d60248201526c125b9d985b1a59081a995dd95b609a1b60448201526064016101c3565b8361072001511561038857816001546102909190610ef1565b61029a601e610a00565b11610322576005546102608501516001600160a01b03909116906332fac8f89089906102c7906004610ef1565b6040516001600160e01b031960e085901b16815260048101929092526024820152604401600060405180830381600087803b15801561030557600080fd5b505af1158015610319573d6000803e3d6000fd5b50505050610388565b60055460405163065f591f60e31b815260048101899052600060248201526001600160a01b03909116906332fac8f890604401600060405180830381600087803b15801561036f57600080fd5b505af1158015610383573d6000803e3d6000fd5b505050505b8361074001511561049957816001546103a19190610ef1565b6103ab601e610a00565b11610433576005546102808501516001600160a01b03909116906332fac8f89089906103d8906004610ef1565b6040516001600160e01b031960e085901b16815260048101929092526024820152604401600060405180830381600087803b15801561041657600080fd5b505af115801561042a573d6000803e3d6000fd5b50505050610499565b60055460405163065f591f60e31b815260048101899052600060248201526001600160a01b03909116906332fac8f890604401600060405180830381600087803b15801561048057600080fd5b505af1158015610494573d6000803e3d6000fd5b505050505b60055460405163576cc0f760e01b8152600481018890526001600160a01b039091169063576cc0f790602401600060405180830381600087803b1580156104df57600080fd5b505af11580156104f3573d6000803e3d6000fd5b505050505050505092915050565b600554604051631f4f5a2360e01b8152600481018490526000916001600160a01b031690631f4f5a2390602401600060405180830381865afa15801561054b573d6000803e3d6000fd5b505050506040513d6000823e601f3d908101601f191682016040526105739190810190610b77565b600554604051631f4f5a2360e01b8152600481018590529192506000916001600160a01b0390911690631f4f5a2390602401600060405180830381865afa1580156105c2573d6000803e3d6000fd5b505050506040513d6000823e601f3d908101601f191682016040526105ea9190810190610b77565b90506000808361072001518061060257508361074001515b61063d5760405162461bcd60e51b815260206004820152600c60248201526b496e76616c6964206974656d60a01b60448201526064016101c3565b60098460400151106106c25760405162461bcd60e51b815260206004820152604260248201527f4974656d2063616e206265207570677261646564206f6e6c7920757020746f2060448201527f6c6576656c20392c20757365204368616f73204d616368696e6520667572746860648201526132b960f11b608482015260a4016101c3565b826106a00151600214806106db5750826106a001516003145b6107175760405162461bcd60e51b815260206004820152600d60248201526c125b9d985b1a59081a995dd95b609a1b60448201526064016101c3565b836106c001511561072757601991505b60068460400151101561080757826106a001516002146107895760405162461bcd60e51b815260206004820152601760248201527f5265717569726564206a6577656c206f6620626c65737300000000000000000060448201526064016101c3565b60055460408501516001600160a01b039091169063caf7c4459088906107b0906001610ef1565b6040516001600160e01b031960e085901b16815260048101929092526024820152604401600060405180830381600087803b1580156107ee57600080fd5b505af1158015610802573d6000803e3d6000fd5b505050505b600684604001511061099a57826106a001516003146108615760405162461bcd60e51b815260206004820152601660248201527514995c5d5a5c9959081a995dd95b081bd9881cdbdd5b60521b60448201526064016101c3565b8160025461086f9190610ef1565b6108796014610a00565b116109005760055460408501516001600160a01b039091169063caf7c4459088906108a5906001610ef1565b6040516001600160e01b031960e085901b16815260048101929092526024820152604401600060405180830381600087803b1580156108e357600080fd5b505af11580156108f7573d6000803e3d6000fd5b5050505061099a565b83604001516006036109345760055460408501516001600160a01b039091169063caf7c4459088906108a590600190610f0a565b60055460405163caf7c44560e01b815260048101889052600060248201526001600160a01b039091169063caf7c44590604401600060405180830381600087803b15801561098157600080fd5b505af1158015610995573d6000803e3d6000fd5b505050505b60055460405163576cc0f760e01b8152600481018790526001600160a01b039091169063576cc0f790602401600060405180830381600087803b1580156109e057600080fd5b505af11580156109f4573d6000803e3d6000fd5b50505050505050505050565b60408051446020820152908101829052436060820152600090819060800160408051601f1981840301815291905280516020909101209050610a43606482610f1d565b9392505050565b60008060408385031215610a5d57600080fd5b50508035926020909101359150565b634e487b7160e01b600052604160045260246000fd5b6040516107e0810167ffffffffffffffff81118282101715610aa657610aa6610a6c565b60405290565b604051601f8201601f1916810167ffffffffffffffff81118282101715610ad557610ad5610a6c565b604052919050565b600082601f830112610aee57600080fd5b815167ffffffffffffffff811115610b0857610b08610a6c565b6020610b1c601f8301601f19168201610aac565b8281528582848701011115610b3057600080fd5b60005b83811015610b4e578581018301518282018401528201610b33565b506000928101909101919091529392505050565b80518015158114610b7257600080fd5b919050565b600060208284031215610b8957600080fd5b815167ffffffffffffffff80821115610ba157600080fd5b908301906107e08286031215610bb657600080fd5b610bbe610a82565b825182811115610bcd57600080fd5b610bd987828601610add565b8252506020838101519082015260408084015190820152606080840151908201526080808401519082015260a0808401519082015260c0808401519082015260e08084015190820152610100808401519082015261012080840151908201526101408084015190820152610160808401519082015261018080840151908201526101a080840151908201526101c080840151908201526101e08084015190820152610200808401519082015261022080840151908201526102408084015190820152610260808401519082015261028080840151908201526102a080840151908201526102c080840151908201526102e08084015190820152610300808401519082015261032080840151908201526103408084015190820152610360808401519082015261038080840151908201526103a080840151908201526103c080840151908201526103e08084015190820152610400808401519082015261042080840151908201526104408084015190820152610460808401519082015261048080840151908201526104a080840151908201526104c080840151908201526104e08084015190820152610500808401519082015261052080840151908201526105408084015190820152610560808401519082015261058080840151908201526105a080840151908201526105c080840151908201526105e08084015190820152610600808401519082015261062080840151908201526106408084015190820152610660808401519082015261068080840151908201526106a080840151908201526106c09150610e2c828401610b62565b828201526106e09150610e40828401610b62565b828201526107009150610e54828401610b62565b828201526107209150610e68828401610b62565b828201526107409150610e7c828401610b62565b828201526107609150610e90828401610b62565b828201526107809150610ea4828401610b62565b828201526107a09150610eb8828401610b62565b828201526107c09150610ecc828401610b62565b91810191909152949350505050565b634e487b7160e01b600052601160045260246000fd5b80820180821115610f0457610f04610edb565b92915050565b81810381811115610f0457610f04610edb565b600082610f3a57634e487b7160e01b600052601260045260246000fd5b50069056fea2646970667358221220c3e361655d8dfc20a5287dea5dcf2e9746be7eb75ac675e17dc446f2c43d402e64736f6c63430008130033",
  "immutableReferences": {},
  "source": "// SPDX-License-Identifier: MIT\npragma solidity ^0.8.18;\nimport \"./ItemAtts.sol\";\n\nabstract contract MainItems {\n    function setAdditionalPoints(uint256 tokenId, uint256 points) external virtual;\n    function setItemLevel(uint256 tokenId, uint256 level)  external virtual;\n    function burnItem(uint256 itemId)  external virtual;\n    function getTokenAttributes(uint256 tokenId) external virtual view returns (ItemAtts.ItemAttributes memory);\n    function craftItem(uint256 itemId, address itemOwner) external virtual returns (uint256);\n}\n\ncontract UpgradeItem is ItemAtts {\n\taddress ItemsContractAddress;\t\n\n\tconstructor (address itemsContract) {\n\t\tItemsContractAddress = itemsContract;\n\t}\n\n\tfunction upgradeItemLevel(uint256 itemTokenId, uint256 jewelTokenId) external {\n        ItemAttributes memory item = MainItems(ItemsContractAddress).getTokenAttributes(itemTokenId);\n        ItemAttributes memory jewel = MainItems(ItemsContractAddress).getTokenAttributes(jewelTokenId);\n        uint256 luckPoints = 0;\n        bool success = false;\n\n        require(item.isWeapon || item.isArmour, \"Invalid item\");\n        require(item.itemLevel < 9, \"Item can be upgraded only up to level 9, use Chaos Machine further\");\n        require(jewel.itemAttributesId == 2 ||  jewel.itemAttributesId == 3, \"Invalid jewel\");\n\n        if (item.luck) {\n            luckPoints = 25;\n        }\n\n        if (item.itemLevel < 6) { // bless\n            require(jewel.itemAttributesId == 2, \"Required jewel of bless\");\n            MainItems(ItemsContractAddress).setItemLevel(itemTokenId, item.itemLevel + 1);\n        }\n\n        if (item.itemLevel >= 6) { // soul\n            require(jewel.itemAttributesId == 3, \"Required jewel of soul\");\n\n\n            if (getRandomNumber(20) <= josSuccessRate+luckPoints) {\n                MainItems(ItemsContractAddress).setItemLevel(itemTokenId, item.itemLevel + 1);\n\n            } else {\n                if (item.itemLevel == 6) {\n                    MainItems(ItemsContractAddress).setItemLevel(itemTokenId, item.itemLevel - 1);\n                } else {\n                    MainItems(ItemsContractAddress).setItemLevel(itemTokenId, 0);\n                }\n                \n            }\n        }\n\n        MainItems(ItemsContractAddress).burnItem(jewelTokenId);     \n    }\n\n    function updateItemAdditionalPoints(uint256 itemTokenId, uint256 jolTokenId) external returns (bool) {\n        ItemAttributes memory item = MainItems(ItemsContractAddress).getTokenAttributes(itemTokenId);\n        ItemAttributes memory jewel = MainItems(ItemsContractAddress).getTokenAttributes(jolTokenId);\n        uint256 luckPoints = 0;\n        bool success = false;\n\n        if (item.luck) {\n            luckPoints = 25;\n        }\n\n        require(item.isWeapon || item.isArmour, \"Invalid item\");\n        require(item.additionalDamage + item.additionalDefense < maxAdditionalPoints, \"Max additional points reached\");\n        require(jewel.itemAttributesId == 4, \"Invalid jewel\");\n\n        \n        if (item.isWeapon) {\n            if (getRandomNumber(30) <= jolSuccessRate+luckPoints) {\n                MainItems(ItemsContractAddress).setAdditionalPoints(itemTokenId, item.additionalDamage+4);\n            } else {\n                MainItems(ItemsContractAddress).setAdditionalPoints(itemTokenId, 0);\n            }\n            \n        }\n\n        if (item.isArmour) {\n            if (getRandomNumber(30) <= jolSuccessRate+luckPoints) {\n                MainItems(ItemsContractAddress).setAdditionalPoints(itemTokenId, item.additionalDefense+4);\n            } else {\n                MainItems(ItemsContractAddress).setAdditionalPoints(itemTokenId, 0);\n            }\n        }\n\n        MainItems(ItemsContractAddress).burnItem(jolTokenId);\n    }\n}",
  "sourcePath": "/Users/max/Documents/prog/game-contracts/contracts/UpgradeItem.sol",
  "compiler": {
    "name": "solc",
    "version": "0.8.19+commit.7dd6d404.Emscripten.clang"
  },
  "schemaVersion": "3.4.13",
  "updatedAt": "2023-04-18T16:44:23.716Z",
  "networkType": "ethereum",
  "devdoc": {
    "kind": "dev",
    "methods": {},
    "version": 1
  },
  "userdoc": {
    "kind": "user",
    "methods": {},
    "version": 1
  }
}