{
  "contractName": "UpgradeItem",
  "abi": [
    {
      "inputs": [
        {
          "internalType": "address",
          "name": "itemsContract",
          "type": "address"
        },
        {
          "internalType": "address",
          "name": "itemsHelperContract",
          "type": "address"
        }
      ],
      "stateMutability": "nonpayable",
      "type": "constructor"
    },
    {
      "inputs": [
        {
          "internalType": "uint256",
          "name": "itemTokenId",
          "type": "uint256"
        },
        {
          "internalType": "uint256",
          "name": "jewelTokenId",
          "type": "uint256"
        }
      ],
      "name": "upgradeItemLevel",
      "outputs": [],
      "stateMutability": "nonpayable",
      "type": "function"
    },
    {
      "inputs": [
        {
          "internalType": "uint256",
          "name": "itemTokenId",
          "type": "uint256"
        },
        {
          "internalType": "uint256",
          "name": "jolTokenId",
          "type": "uint256"
        }
      ],
      "name": "updateItemAdditionalPoints",
      "outputs": [
        {
          "internalType": "bool",
          "name": "",
          "type": "bool"
        }
      ],
      "stateMutability": "nonpayable",
      "type": "function"
    }
  ],
  "bytecode": "0x60806040526064600055601c60015560326002556032600355601e600455601e60055560026006556001600755600060085534801561003d57600080fd5b5060405161107e38038061107e83398101604081905261005c9161009e565b600980546001600160a01b0319166001600160a01b0392909216919091179055506100d1565b80516001600160a01b038116811461009957600080fd5b919050565b600080604083850312156100b157600080fd5b6100ba83610082565b91506100c860208401610082565b90509250929050565b610f9e806100e06000396000f3fe608060405234801561001057600080fd5b50600436106100365760003560e01c80635fb83cfa1461003b5780639e62b16a14610062575b600080fd5b61004e610049366004610a73565b610077565b604051901515815260200160405180910390f35b610075610070366004610a73565b610505565b005b600954604051631f4f5a2360e01b81526004810184905260009182916001600160a01b0390911690631f4f5a23906024016000604051808303816000875af11580156100c7573d6000803e3d6000fd5b505050506040513d6000823e601f3d908101601f191682016040526100ef9190810190610ba0565b600954604051631f4f5a2360e01b8152600481018690529192506000916001600160a01b0390911690631f4f5a23906024016000604051808303816000875af1158015610140573d6000803e3d6000fd5b505050506040513d6000823e601f3d908101601f191682016040526101689190810190610ba0565b9050600080836106c001511561017d57601991505b8361072001518061019057508361074001515b6101d05760405162461bcd60e51b815260206004820152600c60248201526b496e76616c6964206974656d60a01b60448201526064015b60405180910390fd5b6001548461028001518561026001516101e99190610f1a565b106102365760405162461bcd60e51b815260206004820152601d60248201527f4d6178206164646974696f6e616c20706f696e7473207265616368656400000060448201526064016101c7565b826106a0015160041461027b5760405162461bcd60e51b815260206004820152600d60248201526c125b9d985b1a59081a995dd95b609a1b60448201526064016101c7565b8361072001511561038c57816002546102949190610f1a565b61029e601e610a08565b11610326576009546102608501516001600160a01b03909116906332fac8f89089906102cb906004610f1a565b6040516001600160e01b031960e085901b16815260048101929092526024820152604401600060405180830381600087803b15801561030957600080fd5b505af115801561031d573d6000803e3d6000fd5b5050505061038c565b60095460405163065f591f60e31b815260048101899052600060248201526001600160a01b03909116906332fac8f890604401600060405180830381600087803b15801561037357600080fd5b505af1158015610387573d6000803e3d6000fd5b505050505b8361074001511561049d57816002546103a59190610f1a565b6103af601e610a08565b11610437576009546102808501516001600160a01b03909116906332fac8f89089906103dc906004610f1a565b6040516001600160e01b031960e085901b16815260048101929092526024820152604401600060405180830381600087803b15801561041a57600080fd5b505af115801561042e573d6000803e3d6000fd5b5050505061049d565b60095460405163065f591f60e31b815260048101899052600060248201526001600160a01b03909116906332fac8f890604401600060405180830381600087803b15801561048457600080fd5b505af1158015610498573d6000803e3d6000fd5b505050505b60095460405163576cc0f760e01b8152600481018890526001600160a01b039091169063576cc0f790602401600060405180830381600087803b1580156104e357600080fd5b505af11580156104f7573d6000803e3d6000fd5b505050505050505092915050565b600954604051631f4f5a2360e01b8152600481018490526000916001600160a01b031690631f4f5a23906024016000604051808303816000875af1158015610551573d6000803e3d6000fd5b505050506040513d6000823e601f3d908101601f191682016040526105799190810190610ba0565b600954604051631f4f5a2360e01b8152600481018590529192506000916001600160a01b0390911690631f4f5a23906024016000604051808303816000875af11580156105ca573d6000803e3d6000fd5b505050506040513d6000823e601f3d908101601f191682016040526105f29190810190610ba0565b90506000808361072001518061060a57508361074001515b6106455760405162461bcd60e51b815260206004820152600c60248201526b496e76616c6964206974656d60a01b60448201526064016101c7565b60098460400151106106ca5760405162461bcd60e51b815260206004820152604260248201527f4974656d2063616e206265207570677261646564206f6e6c7920757020746f2060448201527f6c6576656c20392c20757365204368616f73204d616368696e6520667572746860648201526132b960f11b608482015260a4016101c7565b826106a00151600214806106e35750826106a001516003145b61071f5760405162461bcd60e51b815260206004820152600d60248201526c125b9d985b1a59081a995dd95b609a1b60448201526064016101c7565b836106c001511561072f57601991505b60068460400151101561080f57826106a001516002146107915760405162461bcd60e51b815260206004820152601760248201527f5265717569726564206a6577656c206f6620626c65737300000000000000000060448201526064016101c7565b60095460408501516001600160a01b039091169063caf7c4459088906107b8906001610f1a565b6040516001600160e01b031960e085901b16815260048101929092526024820152604401600060405180830381600087803b1580156107f657600080fd5b505af115801561080a573d6000803e3d6000fd5b505050505b60068460400151106109a257826106a001516003146108695760405162461bcd60e51b815260206004820152601660248201527514995c5d5a5c9959081a995dd95b081bd9881cdbdd5b60521b60448201526064016101c7565b816003546108779190610f1a565b6108816014610a08565b116109085760095460408501516001600160a01b039091169063caf7c4459088906108ad906001610f1a565b6040516001600160e01b031960e085901b16815260048101929092526024820152604401600060405180830381600087803b1580156108eb57600080fd5b505af11580156108ff573d6000803e3d6000fd5b505050506109a2565b836040015160060361093c5760095460408501516001600160a01b039091169063caf7c4459088906108ad90600190610f33565b60095460405163caf7c44560e01b815260048101889052600060248201526001600160a01b039091169063caf7c44590604401600060405180830381600087803b15801561098957600080fd5b505af115801561099d573d6000803e3d6000fd5b505050505b60095460405163576cc0f760e01b8152600481018790526001600160a01b039091169063576cc0f790602401600060405180830381600087803b1580156109e857600080fd5b505af11580156109fc573d6000803e3d6000fd5b50505050505050505050565b604080514460208201529081018290524360608083019190915242608083015233901b6bffffffffffffffffffffffff191660a0820152600090819060b40160408051601f1981840301815291905280516020909101209050610a6c606482610f46565b9392505050565b60008060408385031215610a8657600080fd5b50508035926020909101359150565b634e487b7160e01b600052604160045260246000fd5b6040516107e0810167ffffffffffffffff81118282101715610acf57610acf610a95565b60405290565b604051601f8201601f1916810167ffffffffffffffff81118282101715610afe57610afe610a95565b604052919050565b600082601f830112610b1757600080fd5b815167ffffffffffffffff811115610b3157610b31610a95565b6020610b45601f8301601f19168201610ad5565b8281528582848701011115610b5957600080fd5b60005b83811015610b77578581018301518282018401528201610b5c565b506000928101909101919091529392505050565b80518015158114610b9b57600080fd5b919050565b600060208284031215610bb257600080fd5b815167ffffffffffffffff80821115610bca57600080fd5b908301906107e08286031215610bdf57600080fd5b610be7610aab565b825182811115610bf657600080fd5b610c0287828601610b06565b8252506020838101519082015260408084015190820152606080840151908201526080808401519082015260a0808401519082015260c0808401519082015260e08084015190820152610100808401519082015261012080840151908201526101408084015190820152610160808401519082015261018080840151908201526101a080840151908201526101c080840151908201526101e08084015190820152610200808401519082015261022080840151908201526102408084015190820152610260808401519082015261028080840151908201526102a080840151908201526102c080840151908201526102e08084015190820152610300808401519082015261032080840151908201526103408084015190820152610360808401519082015261038080840151908201526103a080840151908201526103c080840151908201526103e08084015190820152610400808401519082015261042080840151908201526104408084015190820152610460808401519082015261048080840151908201526104a080840151908201526104c080840151908201526104e08084015190820152610500808401519082015261052080840151908201526105408084015190820152610560808401519082015261058080840151908201526105a080840151908201526105c080840151908201526105e08084015190820152610600808401519082015261062080840151908201526106408084015190820152610660808401519082015261068080840151908201526106a080840151908201526106c09150610e55828401610b8b565b828201526106e09150610e69828401610b8b565b828201526107009150610e7d828401610b8b565b828201526107209150610e91828401610b8b565b828201526107409150610ea5828401610b8b565b828201526107609150610eb9828401610b8b565b828201526107809150610ecd828401610b8b565b828201526107a09150610ee1828401610b8b565b828201526107c09150610ef5828401610b8b565b91810191909152949350505050565b634e487b7160e01b600052601160045260246000fd5b80820180821115610f2d57610f2d610f04565b92915050565b81810381811115610f2d57610f2d610f04565b600082610f6357634e487b7160e01b600052601260045260246000fd5b50069056fea2646970667358221220c9c173615a6cf11ebe1552a4b872c6e9938803757b6acb9d6b9b793e5eb1364964736f6c63430008130033",
  "immutableReferences": {},
  "source": "// SPDX-License-Identifier: MIT\npragma solidity ^0.8.0;\nimport \"./ItemsHelper.sol\";\nimport \"./ItemAtts.sol\";\n\nabstract contract MainItems {\n    function setAdditionalPoints(uint256 tokenId, uint256 points) external virtual;\n    function setItemLevel(uint256 tokenId, uint256 level)  external virtual;\n    function burnItem(uint256 itemId)  external virtual;\n    function getTokenAttributes(uint256 tokenId) external virtual view returns (ItemAtts.ItemAttributes memory);\n    function craftItem(uint256 itemId, address itemOwner) public virtual returns (uint256);\n    function buyItemFromShop(uint256 itemId, uint256 fighterId) external virtual;\n}\n\ncontract UpgradeItem is ItemAtts {\n\tItemsHelper private _itemsHelper;\n\n\tconstructor (address itemsContract, address itemsHelperContract) {\n\t\t_itemsHelper = ItemsHelper(itemsHelperContract);\n\t}\n\n\tfunction upgradeItemLevel(uint256 itemTokenId, uint256 jewelTokenId) external {\n        ItemAttributes memory item = _itemsHelper.getTokenAttributes(itemTokenId);\n        ItemAttributes memory jewel = _itemsHelper.getTokenAttributes(jewelTokenId);\n        uint256 luckPoints = 0;\n        bool success = false;\n\n        require(item.isWeapon || item.isArmour, \"Invalid item\");\n        require(item.itemLevel < 9, \"Item can be upgraded only up to level 9, use Chaos Machine further\");\n        require(jewel.itemAttributesId == 2 ||  jewel.itemAttributesId == 3, \"Invalid jewel\");\n\n        if (item.luck) {\n            luckPoints = 25;\n        }\n\n        if (item.itemLevel < 6) { // bless\n            require(jewel.itemAttributesId == 2, \"Required jewel of bless\");\n            _itemsHelper.setItemLevel(itemTokenId, item.itemLevel + 1);\n        }\n\n        if (item.itemLevel >= 6) { // soul\n            require(jewel.itemAttributesId == 3, \"Required jewel of soul\");\n\n\n            if (getRandomNumber(20) <= josSuccessRate+luckPoints) {\n                _itemsHelper.setItemLevel(itemTokenId, item.itemLevel + 1);\n\n            } else {\n                if (item.itemLevel == 6) {\n                    _itemsHelper.setItemLevel(itemTokenId, item.itemLevel - 1);\n                } else {\n                    _itemsHelper.setItemLevel(itemTokenId, 0);\n                }\n                \n            }\n        }\n\n        _itemsHelper.burnItem(jewelTokenId);     \n    }\n\n    function updateItemAdditionalPoints(uint256 itemTokenId, uint256 jolTokenId) external returns (bool) {\n        ItemAttributes memory item = _itemsHelper.getTokenAttributes(itemTokenId);\n        ItemAttributes memory jewel = _itemsHelper.getTokenAttributes(jolTokenId);\n        uint256 luckPoints = 0;\n        bool success = false;\n\n        if (item.luck) {\n            luckPoints = 25;\n        }\n\n        require(item.isWeapon || item.isArmour, \"Invalid item\");\n        require(item.additionalDamage + item.additionalDefense < maxAdditionalPoints, \"Max additional points reached\");\n        require(jewel.itemAttributesId == 4, \"Invalid jewel\");\n\n        \n        if (item.isWeapon) {\n            if (getRandomNumber(30) <= jolSuccessRate+luckPoints) {\n                _itemsHelper.setAdditionalPoints(itemTokenId, item.additionalDamage+4);\n            } else {\n                _itemsHelper.setAdditionalPoints(itemTokenId, 0);\n            }\n            \n        }\n\n        if (item.isArmour) {\n            if (getRandomNumber(30) <= jolSuccessRate+luckPoints) {\n                _itemsHelper.setAdditionalPoints(itemTokenId, item.additionalDefense+4);\n            } else {\n                _itemsHelper.setAdditionalPoints(itemTokenId, 0);\n            }\n        }\n\n        _itemsHelper.burnItem(jolTokenId);\n    }\n}",
  "sourcePath": "/Users/max/Documents/prog/game-contracts/contracts/UpgradeItem.sol",
  "compiler": {
    "name": "solc",
    "version": "0.8.19+commit.7dd6d404.Emscripten.clang"
  },
  "schemaVersion": "3.4.13",
  "updatedAt": "2023-07-25T05:51:08.439Z",
  "networkType": "ethereum",
  "devdoc": {
    "kind": "dev",
    "methods": {},
    "version": 1
  },
  "userdoc": {
    "kind": "user",
    "methods": {},
    "version": 1
  }
}