{
	"data": {
		"bytecode": {
			"linkReferences": {},
			"object": "6080604052606460055534801561001557600080fd5b50604051610fd1380380610fd1833981016040819052610034916100b8565b600180546001600160a01b03199081166001600160a01b0395861617825560028054821694861694909417909355600680548416929094169190911790925560038054339216821790556000908152600460205260409020805460ff191690911790556100fb565b80516001600160a01b03811681146100b357600080fd5b919050565b6000806000606084860312156100cd57600080fd5b6100d68461009c565b92506100e46020850161009c565b91506100f26040850161009c565b90509250925092565b610ec78061010a6000396000f3fe608060405234801561001057600080fd5b50600436106100a95760003560e01c806378547e6c1161007157806378547e6c146101225780638da5cb5b14610177578063a293d1e8146101a2578063a971e842146101b5578063d05c78da146101c8578063e6cb9013146101db57600080fd5b806313af4035146100ae5780631fedfd0a146100c35780634b0bddd2146100d657806357bcd00d146100e957806374440e9e146100fc575b600080fd5b6100c16100bc366004610c9d565b6101ee565b005b6100c16100d1366004610cba565b610271565b6100c16100e4366004610cd3565b6102c6565b6100c16100f7366004610d22565b610343565b61010f61010a366004610d62565b610b4b565b6040519081526020015b60405180910390f35b610157610130366004610cba565b60006020819052908152604090208054600182015460028301546003909301549192909184565b604080519485526020850193909352918301526060820152608001610119565b60035461018a906001600160a01b031681565b6040516001600160a01b039091168152602001610119565b61010f6101b0366004610d8e565b610c06565b60065461018a906001600160a01b031681565b61010f6101d6366004610d8e565b610c2b565b61010f6101e9366004610d8e565b610c5b565b6003546001600160a01b0316331461020857610208610db0565b600354604080516001600160a01b03928316815291831660208301527fcbf985117192c8f614a58aaf97226bb80a754772f5f6edf06f87c675f2e6c663910160405180910390a1600380546001600160a01b0319166001600160a01b0392909216919091179055565b6003546001600160a01b0316331461028b5761028b610db0565b60058190556040518181527f127404d508a0cf69493bfd98baf6b96ec49407cc6fe58263bcf55e98d9994e349060200160405180910390a150565b6003546001600160a01b031633146102e0576102e0610db0565b6001600160a01b038216600081815260046020908152604091829020805460ff19168515159081179091558251938452908301527f55a5194bc0174fcaf12b2978bef43911466bf63b34db8d1dd1a0d5dcd5c41bea910160405180910390a15050565b3360009081526004602052604090205460ff1661036257610362610db0565b60408051306020808301919091528535828401528435606083015260808083018590528351808403909101815260a0909201835281519181019190912060008181529182905291902054156103fd5760405162461bcd60e51b815260206004820152601760248201527f426174746c6520616c7265616479207265636f72646564000000000000000000604482015260640160405180910390fd5b604080516080810191829052600154630219207560e61b9092528535608482015260009181906001600160a01b03166386481d4060a483016020604051808303816000875af1158015610454573d6000803e3d6000fd5b505050506040513d601f19601f820116820180604052508101906104789190610dc6565b8152600154604051630219207560e61b8152873560048201526020909201916001600160a01b03909116906386481d40906024016020604051808303816000875af11580156104cb573d6000803e3d6000fd5b505050506040513d601f19601f820116820180604052508101906104ef9190610dc6565b81526001546040516331a9108f60e11b8152883560048201526020909201916001600160a01b0390911690636352211e90602401602060405180830381865afa158015610540573d6000803e3d6000fd5b505050506040513d601f19601f820116820180604052508101906105649190610ddf565b6001600160a01b0390811682526001546040516331a9108f60e11b815288356004820152602090930192911690636352211e90602401602060405180830381865afa1580156105b7573d6000803e3d6000fd5b505050506040513d601f19601f820116820180604052508101906105db9190610ddf565b6001600160a01b0390811690915260015460405163a7518eb160e01b81528835600482015260808901356024820152929350169063a7518eb190604401600060405180830381600087803b15801561063257600080fd5b505af1158015610646573d6000803e3d6000fd5b505060015460405163a7518eb160e01b815287356004820152608088013560248201526001600160a01b03909116925063a7518eb19150604401600060405180830381600087803b15801561069a57600080fd5b505af11580156106ae573d6000803e3d6000fd5b5050600154604051638dc1424760e01b81528835600482015260a089013560248201526001600160a01b039091169250638dc142479150604401600060405180830381600087803b15801561070257600080fd5b505af1158015610716573d6000803e3d6000fd5b5050600154604051638dc1424760e01b81528735600482015260a088013560248201526001600160a01b039091169250638dc142479150604401600060405180830381600087803b15801561076a57600080fd5b505af115801561077e573d6000803e3d6000fd5b5050825160208401516000935061079e92508860035b6020020135610b4b565b604080516015815260208101839052919250600080516020610e72833981519152910160405180910390a1602082015182516000916107df91886003610794565b604080516003815260208101859052919250600080516020610e72833981519152910160405180910390a1604080516004815260208101839052600080516020610e72833981519152910160405180910390a160015460405163243a7c7b60e01b815288356004820152602481018490526001600160a01b039091169063243a7c7b90604401600060405180830381600087803b15801561087f57600080fd5b505af1158015610893573d6000803e3d6000fd5b505060015460405163243a7c7b60e01b815289356004820152602481018590526001600160a01b03909116925063243a7c7b9150604401600060405180830381600087803b1580156108e457600080fd5b505af11580156108f8573d6000803e3d6000fd5b5050604080516005815260006020820152600080516020610e72833981519152935001905060405180910390a1600060c0880135600103610937575086355b60c0870135600103610947575085355b604080516006815260006020820152600080516020610e72833981519152910160405180910390a1600088358203610a095760055461098e85670de0b6b3a7640000610c2b565b6109989190610e12565b600254604087810151905163b78636a160e01b81526001600160a01b03918216600482015260248101849052929350169063b78636a190604401600060405180830381600087803b1580156109ec57600080fd5b505af1158015610a00573d6000803e3d6000fd5b50505050610a9d565b87358203610a9d57600554610a2684670de0b6b3a7640000610c2b565b610a309190610e12565b600254606087015160405163b78636a160e01b81526001600160a01b03918216600482015260248101849052929350169063b78636a190604401600060405180830381600087803b158015610a8457600080fd5b505af1158015610a98573d6000803e3d6000fd5b505050505b604080516080810182524381528a35602082015290810189600060209081029190910135825290810184905260008881528082526040908190208351815583830151600182015583820151600282015560609384015160039091015580518c3581528b359281019290925281018490529081018290527f3ea69882536ba5c0664cf3bdef8a6b5c27996390aa0f0f3fb10c6812ee9f787e9060800160405180910390a1505050505050505050565b600080600084861115610bab57610b628587610e34565b9150670de0b6b3a7640000610b9a856101d6670de0b6b3a76400008a610b9088670de0b6b3a7640000610c2b565b6101b09190610e12565b610ba49190610e12565b9050610bfd565b84861015610bfa57610bbd8686610e34565b9150670de0b6b3a7640000610b9a856101d689610be287670de0b6b3a7640000610c2b565b610bec9190610e12565b670de0b6b3a7640000610c5b565b50825b95945050505050565b600082821115610c1857610c18610db0565b610c228284610e34565b90505b92915050565b600080610c388385610e47565b9050831580610c4f575082610c4d8583610e12565b145b610c2257610c22610db0565b600080610c688385610e5e565b9050838110158015610c4f575082811015610c2257610c22610db0565b6001600160a01b0381168114610c9a57600080fd5b50565b600060208284031215610caf57600080fd5b8135610c2281610c85565b600060208284031215610ccc57600080fd5b5035919050565b60008060408385031215610ce657600080fd5b8235610cf181610c85565b915060208301358015158114610d0657600080fd5b809150509250929050565b8060e08101831015610c2557600080fd5b60008060006101e08486031215610d3857600080fd5b610d428585610d11565b9250610d518560e08601610d11565b91506101c084013590509250925092565b600080600060608486031215610d7757600080fd5b505081359360208301359350604090920135919050565b60008060408385031215610da157600080fd5b50508035926020909101359150565b634e487b7160e01b600052600160045260246000fd5b600060208284031215610dd857600080fd5b5051919050565b600060208284031215610df157600080fd5b8151610c2281610c85565b634e487b7160e01b600052601160045260246000fd5b600082610e2f57634e487b7160e01b600052601260045260246000fd5b500490565b81810381811115610c2557610c25610dfc565b8082028115828204841417610c2557610c25610dfc565b80820180821115610c2557610c25610dfc56fe93f9b03ea0c4f6f4154119b4b78510f183504fad78f2517d46d84a546ac0e97da26469706673582212206c7c9ceb8a4dd15a7e446d66224d252b9242fae3535338dcb1959c9258049bd964736f6c63430008130033",
			"opcodes": "PUSH1 0x80 PUSH1 0x40 MSTORE PUSH1 0x64 PUSH1 0x5 SSTORE CALLVALUE DUP1 ISZERO PUSH2 0x15 JUMPI PUSH1 0x0 DUP1 REVERT JUMPDEST POP PUSH1 0x40 MLOAD PUSH2 0xFD1 CODESIZE SUB DUP1 PUSH2 0xFD1 DUP4 CODECOPY DUP2 ADD PUSH1 0x40 DUP2 SWAP1 MSTORE PUSH2 0x34 SWAP2 PUSH2 0xB8 JUMP JUMPDEST PUSH1 0x1 DUP1 SLOAD PUSH1 0x1 PUSH1 0x1 PUSH1 0xA0 SHL SUB NOT SWAP1 DUP2 AND PUSH1 0x1 PUSH1 0x1 PUSH1 0xA0 SHL SUB SWAP6 DUP7 AND OR DUP3 SSTORE PUSH1 0x2 DUP1 SLOAD DUP3 AND SWAP5 DUP7 AND SWAP5 SWAP1 SWAP5 OR SWAP1 SWAP4 SSTORE PUSH1 0x6 DUP1 SLOAD DUP5 AND SWAP3 SWAP1 SWAP5 AND SWAP2 SWAP1 SWAP2 OR SWAP1 SWAP3 SSTORE PUSH1 0x3 DUP1 SLOAD CALLER SWAP3 AND DUP3 OR SWAP1 SSTORE PUSH1 0x0 SWAP1 DUP2 MSTORE PUSH1 0x4 PUSH1 0x20 MSTORE PUSH1 0x40 SWAP1 KECCAK256 DUP1 SLOAD PUSH1 0xFF NOT AND SWAP1 SWAP2 OR SWAP1 SSTORE PUSH2 0xFB JUMP JUMPDEST DUP1 MLOAD PUSH1 0x1 PUSH1 0x1 PUSH1 0xA0 SHL SUB DUP2 AND DUP2 EQ PUSH2 0xB3 JUMPI PUSH1 0x0 DUP1 REVERT JUMPDEST SWAP2 SWAP1 POP JUMP JUMPDEST PUSH1 0x0 DUP1 PUSH1 0x0 PUSH1 0x60 DUP5 DUP7 SUB SLT ISZERO PUSH2 0xCD JUMPI PUSH1 0x0 DUP1 REVERT JUMPDEST PUSH2 0xD6 DUP5 PUSH2 0x9C JUMP JUMPDEST SWAP3 POP PUSH2 0xE4 PUSH1 0x20 DUP6 ADD PUSH2 0x9C JUMP JUMPDEST SWAP2 POP PUSH2 0xF2 PUSH1 0x40 DUP6 ADD PUSH2 0x9C JUMP JUMPDEST SWAP1 POP SWAP3 POP SWAP3 POP SWAP3 JUMP JUMPDEST PUSH2 0xEC7 DUP1 PUSH2 0x10A PUSH1 0x0 CODECOPY PUSH1 0x0 RETURN INVALID PUSH1 0x80 PUSH1 0x40 MSTORE CALLVALUE DUP1 ISZERO PUSH2 0x10 JUMPI PUSH1 0x0 DUP1 REVERT JUMPDEST POP PUSH1 0x4 CALLDATASIZE LT PUSH2 0xA9 JUMPI PUSH1 0x0 CALLDATALOAD PUSH1 0xE0 SHR DUP1 PUSH4 0x78547E6C GT PUSH2 0x71 JUMPI DUP1 PUSH4 0x78547E6C EQ PUSH2 0x122 JUMPI DUP1 PUSH4 0x8DA5CB5B EQ PUSH2 0x177 JUMPI DUP1 PUSH4 0xA293D1E8 EQ PUSH2 0x1A2 JUMPI DUP1 PUSH4 0xA971E842 EQ PUSH2 0x1B5 JUMPI DUP1 PUSH4 0xD05C78DA EQ PUSH2 0x1C8 JUMPI DUP1 PUSH4 0xE6CB9013 EQ PUSH2 0x1DB JUMPI PUSH1 0x0 DUP1 REVERT JUMPDEST DUP1 PUSH4 0x13AF4035 EQ PUSH2 0xAE JUMPI DUP1 PUSH4 0x1FEDFD0A EQ PUSH2 0xC3 JUMPI DUP1 PUSH4 0x4B0BDDD2 EQ PUSH2 0xD6 JUMPI DUP1 PUSH4 0x57BCD00D EQ PUSH2 0xE9 JUMPI DUP1 PUSH4 0x74440E9E EQ PUSH2 0xFC JUMPI JUMPDEST PUSH1 0x0 DUP1 REVERT JUMPDEST PUSH2 0xC1 PUSH2 0xBC CALLDATASIZE PUSH1 0x4 PUSH2 0xC9D JUMP JUMPDEST PUSH2 0x1EE JUMP JUMPDEST STOP JUMPDEST PUSH2 0xC1 PUSH2 0xD1 CALLDATASIZE PUSH1 0x4 PUSH2 0xCBA JUMP JUMPDEST PUSH2 0x271 JUMP JUMPDEST PUSH2 0xC1 PUSH2 0xE4 CALLDATASIZE PUSH1 0x4 PUSH2 0xCD3 JUMP JUMPDEST PUSH2 0x2C6 JUMP JUMPDEST PUSH2 0xC1 PUSH2 0xF7 CALLDATASIZE PUSH1 0x4 PUSH2 0xD22 JUMP JUMPDEST PUSH2 0x343 JUMP JUMPDEST PUSH2 0x10F PUSH2 0x10A CALLDATASIZE PUSH1 0x4 PUSH2 0xD62 JUMP JUMPDEST PUSH2 0xB4B JUMP JUMPDEST PUSH1 0x40 MLOAD SWAP1 DUP2 MSTORE PUSH1 0x20 ADD JUMPDEST PUSH1 0x40 MLOAD DUP1 SWAP2 SUB SWAP1 RETURN JUMPDEST PUSH2 0x157 PUSH2 0x130 CALLDATASIZE PUSH1 0x4 PUSH2 0xCBA JUMP JUMPDEST PUSH1 0x0 PUSH1 0x20 DUP2 SWAP1 MSTORE SWAP1 DUP2 MSTORE PUSH1 0x40 SWAP1 KECCAK256 DUP1 SLOAD PUSH1 0x1 DUP3 ADD SLOAD PUSH1 0x2 DUP4 ADD SLOAD PUSH1 0x3 SWAP1 SWAP4 ADD SLOAD SWAP2 SWAP3 SWAP1 SWAP2 DUP5 JUMP JUMPDEST PUSH1 0x40 DUP1 MLOAD SWAP5 DUP6 MSTORE PUSH1 0x20 DUP6 ADD SWAP4 SWAP1 SWAP4 MSTORE SWAP2 DUP4 ADD MSTORE PUSH1 0x60 DUP3 ADD MSTORE PUSH1 0x80 ADD PUSH2 0x119 JUMP JUMPDEST PUSH1 0x3 SLOAD PUSH2 0x18A SWAP1 PUSH1 0x1 PUSH1 0x1 PUSH1 0xA0 SHL SUB AND DUP2 JUMP JUMPDEST PUSH1 0x40 MLOAD PUSH1 0x1 PUSH1 0x1 PUSH1 0xA0 SHL SUB SWAP1 SWAP2 AND DUP2 MSTORE PUSH1 0x20 ADD PUSH2 0x119 JUMP JUMPDEST PUSH2 0x10F PUSH2 0x1B0 CALLDATASIZE PUSH1 0x4 PUSH2 0xD8E JUMP JUMPDEST PUSH2 0xC06 JUMP JUMPDEST PUSH1 0x6 SLOAD PUSH2 0x18A SWAP1 PUSH1 0x1 PUSH1 0x1 PUSH1 0xA0 SHL SUB AND DUP2 JUMP JUMPDEST PUSH2 0x10F PUSH2 0x1D6 CALLDATASIZE PUSH1 0x4 PUSH2 0xD8E JUMP JUMPDEST PUSH2 0xC2B JUMP JUMPDEST PUSH2 0x10F PUSH2 0x1E9 CALLDATASIZE PUSH1 0x4 PUSH2 0xD8E JUMP JUMPDEST PUSH2 0xC5B JUMP JUMPDEST PUSH1 0x3 SLOAD PUSH1 0x1 PUSH1 0x1 PUSH1 0xA0 SHL SUB AND CALLER EQ PUSH2 0x208 JUMPI PUSH2 0x208 PUSH2 0xDB0 JUMP JUMPDEST PUSH1 0x3 SLOAD PUSH1 0x40 DUP1 MLOAD PUSH1 0x1 PUSH1 0x1 PUSH1 0xA0 SHL SUB SWAP3 DUP4 AND DUP2 MSTORE SWAP2 DUP4 AND PUSH1 0x20 DUP4 ADD MSTORE PUSH32 0xCBF985117192C8F614A58AAF97226BB80A754772F5F6EDF06F87C675F2E6C663 SWAP2 ADD PUSH1 0x40 MLOAD DUP1 SWAP2 SUB SWAP1 LOG1 PUSH1 0x3 DUP1 SLOAD PUSH1 0x1 PUSH1 0x1 PUSH1 0xA0 SHL SUB NOT AND PUSH1 0x1 PUSH1 0x1 PUSH1 0xA0 SHL SUB SWAP3 SWAP1 SWAP3 AND SWAP2 SWAP1 SWAP2 OR SWAP1 SSTORE JUMP JUMPDEST PUSH1 0x3 SLOAD PUSH1 0x1 PUSH1 0x1 PUSH1 0xA0 SHL SUB AND CALLER EQ PUSH2 0x28B JUMPI PUSH2 0x28B PUSH2 0xDB0 JUMP JUMPDEST PUSH1 0x5 DUP2 SWAP1 SSTORE PUSH1 0x40 MLOAD DUP2 DUP2 MSTORE PUSH32 0x127404D508A0CF69493BFD98BAF6B96EC49407CC6FE58263BCF55E98D9994E34 SWAP1 PUSH1 0x20 ADD PUSH1 0x40 MLOAD DUP1 SWAP2 SUB SWAP1 LOG1 POP JUMP JUMPDEST PUSH1 0x3 SLOAD PUSH1 0x1 PUSH1 0x1 PUSH1 0xA0 SHL SUB AND CALLER EQ PUSH2 0x2E0 JUMPI PUSH2 0x2E0 PUSH2 0xDB0 JUMP JUMPDEST PUSH1 0x1 PUSH1 0x1 PUSH1 0xA0 SHL SUB DUP3 AND PUSH1 0x0 DUP2 DUP2 MSTORE PUSH1 0x4 PUSH1 0x20 SWAP1 DUP2 MSTORE PUSH1 0x40 SWAP2 DUP3 SWAP1 KECCAK256 DUP1 SLOAD PUSH1 0xFF NOT AND DUP6 ISZERO ISZERO SWAP1 DUP2 OR SWAP1 SWAP2 SSTORE DUP3 MLOAD SWAP4 DUP5 MSTORE SWAP1 DUP4 ADD MSTORE PUSH32 0x55A5194BC0174FCAF12B2978BEF43911466BF63B34DB8D1DD1A0D5DCD5C41BEA SWAP2 ADD PUSH1 0x40 MLOAD DUP1 SWAP2 SUB SWAP1 LOG1 POP POP JUMP JUMPDEST CALLER PUSH1 0x0 SWAP1 DUP2 MSTORE PUSH1 0x4 PUSH1 0x20 MSTORE PUSH1 0x40 SWAP1 KECCAK256 SLOAD PUSH1 0xFF AND PUSH2 0x362 JUMPI PUSH2 0x362 PUSH2 0xDB0 JUMP JUMPDEST PUSH1 0x40 DUP1 MLOAD ADDRESS PUSH1 0x20 DUP1 DUP4 ADD SWAP2 SWAP1 SWAP2 MSTORE DUP6 CALLDATALOAD DUP3 DUP5 ADD MSTORE DUP5 CALLDATALOAD PUSH1 0x60 DUP4 ADD MSTORE PUSH1 0x80 DUP1 DUP4 ADD DUP6 SWAP1 MSTORE DUP4 MLOAD DUP1 DUP5 SUB SWAP1 SWAP2 ADD DUP2 MSTORE PUSH1 0xA0 SWAP1 SWAP3 ADD DUP4 MSTORE DUP2 MLOAD SWAP2 DUP2 ADD SWAP2 SWAP1 SWAP2 KECCAK256 PUSH1 0x0 DUP2 DUP2 MSTORE SWAP2 DUP3 SWAP1 MSTORE SWAP2 SWAP1 KECCAK256 SLOAD ISZERO PUSH2 0x3FD JUMPI PUSH1 0x40 MLOAD PUSH3 0x461BCD PUSH1 0xE5 SHL DUP2 MSTORE PUSH1 0x20 PUSH1 0x4 DUP3 ADD MSTORE PUSH1 0x17 PUSH1 0x24 DUP3 ADD MSTORE PUSH32 0x426174746C6520616C7265616479207265636F72646564000000000000000000 PUSH1 0x44 DUP3 ADD MSTORE PUSH1 0x64 ADD PUSH1 0x40 MLOAD DUP1 SWAP2 SUB SWAP1 REVERT JUMPDEST PUSH1 0x40 DUP1 MLOAD PUSH1 0x80 DUP2 ADD SWAP2 DUP3 SWAP1 MSTORE PUSH1 0x1 SLOAD PUSH4 0x2192075 PUSH1 0xE6 SHL SWAP1 SWAP3 MSTORE DUP6 CALLDATALOAD PUSH1 0x84 DUP3 ADD MSTORE PUSH1 0x0 SWAP2 DUP2 SWAP1 PUSH1 0x1 PUSH1 0x1 PUSH1 0xA0 SHL SUB AND PUSH4 0x86481D40 PUSH1 0xA4 DUP4 ADD PUSH1 0x20 PUSH1 0x40 MLOAD DUP1 DUP4 SUB DUP2 PUSH1 0x0 DUP8 GAS CALL ISZERO DUP1 ISZERO PUSH2 0x454 JUMPI RETURNDATASIZE PUSH1 0x0 DUP1 RETURNDATACOPY RETURNDATASIZE PUSH1 0x0 REVERT JUMPDEST POP POP POP POP PUSH1 0x40 MLOAD RETURNDATASIZE PUSH1 0x1F NOT PUSH1 0x1F DUP3 ADD AND DUP3 ADD DUP1 PUSH1 0x40 MSTORE POP DUP2 ADD SWAP1 PUSH2 0x478 SWAP2 SWAP1 PUSH2 0xDC6 JUMP JUMPDEST DUP2 MSTORE PUSH1 0x1 SLOAD PUSH1 0x40 MLOAD PUSH4 0x2192075 PUSH1 0xE6 SHL DUP2 MSTORE DUP8 CALLDATALOAD PUSH1 0x4 DUP3 ADD MSTORE PUSH1 0x20 SWAP1 SWAP3 ADD SWAP2 PUSH1 0x1 PUSH1 0x1 PUSH1 0xA0 SHL SUB SWAP1 SWAP2 AND SWAP1 PUSH4 0x86481D40 SWAP1 PUSH1 0x24 ADD PUSH1 0x20 PUSH1 0x40 MLOAD DUP1 DUP4 SUB DUP2 PUSH1 0x0 DUP8 GAS CALL ISZERO DUP1 ISZERO PUSH2 0x4CB JUMPI RETURNDATASIZE PUSH1 0x0 DUP1 RETURNDATACOPY RETURNDATASIZE PUSH1 0x0 REVERT JUMPDEST POP POP POP POP PUSH1 0x40 MLOAD RETURNDATASIZE PUSH1 0x1F NOT PUSH1 0x1F DUP3 ADD AND DUP3 ADD DUP1 PUSH1 0x40 MSTORE POP DUP2 ADD SWAP1 PUSH2 0x4EF SWAP2 SWAP1 PUSH2 0xDC6 JUMP JUMPDEST DUP2 MSTORE PUSH1 0x1 SLOAD PUSH1 0x40 MLOAD PUSH4 0x31A9108F PUSH1 0xE1 SHL DUP2 MSTORE DUP9 CALLDATALOAD PUSH1 0x4 DUP3 ADD MSTORE PUSH1 0x20 SWAP1 SWAP3 ADD SWAP2 PUSH1 0x1 PUSH1 0x1 PUSH1 0xA0 SHL SUB SWAP1 SWAP2 AND SWAP1 PUSH4 0x6352211E SWAP1 PUSH1 0x24 ADD PUSH1 0x20 PUSH1 0x40 MLOAD DUP1 DUP4 SUB DUP2 DUP7 GAS STATICCALL ISZERO DUP1 ISZERO PUSH2 0x540 JUMPI RETURNDATASIZE PUSH1 0x0 DUP1 RETURNDATACOPY RETURNDATASIZE PUSH1 0x0 REVERT JUMPDEST POP POP POP POP PUSH1 0x40 MLOAD RETURNDATASIZE PUSH1 0x1F NOT PUSH1 0x1F DUP3 ADD AND DUP3 ADD DUP1 PUSH1 0x40 MSTORE POP DUP2 ADD SWAP1 PUSH2 0x564 SWAP2 SWAP1 PUSH2 0xDDF JUMP JUMPDEST PUSH1 0x1 PUSH1 0x1 PUSH1 0xA0 SHL SUB SWAP1 DUP2 AND DUP3 MSTORE PUSH1 0x1 SLOAD PUSH1 0x40 MLOAD PUSH4 0x31A9108F PUSH1 0xE1 SHL DUP2 MSTORE DUP9 CALLDATALOAD PUSH1 0x4 DUP3 ADD MSTORE PUSH1 0x20 SWAP1 SWAP4 ADD SWAP3 SWAP2 AND SWAP1 PUSH4 0x6352211E SWAP1 PUSH1 0x24 ADD PUSH1 0x20 PUSH1 0x40 MLOAD DUP1 DUP4 SUB DUP2 DUP7 GAS STATICCALL ISZERO DUP1 ISZERO PUSH2 0x5B7 JUMPI RETURNDATASIZE PUSH1 0x0 DUP1 RETURNDATACOPY RETURNDATASIZE PUSH1 0x0 REVERT JUMPDEST POP POP POP POP PUSH1 0x40 MLOAD RETURNDATASIZE PUSH1 0x1F NOT PUSH1 0x1F DUP3 ADD AND DUP3 ADD DUP1 PUSH1 0x40 MSTORE POP DUP2 ADD SWAP1 PUSH2 0x5DB SWAP2 SWAP1 PUSH2 0xDDF JUMP JUMPDEST PUSH1 0x1 PUSH1 0x1 PUSH1 0xA0 SHL SUB SWAP1 DUP2 AND SWAP1 SWAP2 MSTORE PUSH1 0x1 SLOAD PUSH1 0x40 MLOAD PUSH4 0xA7518EB1 PUSH1 0xE0 SHL DUP2 MSTORE DUP9 CALLDATALOAD PUSH1 0x4 DUP3 ADD MSTORE PUSH1 0x80 DUP10 ADD CALLDATALOAD PUSH1 0x24 DUP3 ADD MSTORE SWAP3 SWAP4 POP AND SWAP1 PUSH4 0xA7518EB1 SWAP1 PUSH1 0x44 ADD PUSH1 0x0 PUSH1 0x40 MLOAD DUP1 DUP4 SUB DUP2 PUSH1 0x0 DUP8 DUP1 EXTCODESIZE ISZERO DUP1 ISZERO PUSH2 0x632 JUMPI PUSH1 0x0 DUP1 REVERT JUMPDEST POP GAS CALL ISZERO DUP1 ISZERO PUSH2 0x646 JUMPI RETURNDATASIZE PUSH1 0x0 DUP1 RETURNDATACOPY RETURNDATASIZE PUSH1 0x0 REVERT JUMPDEST POP POP PUSH1 0x1 SLOAD PUSH1 0x40 MLOAD PUSH4 0xA7518EB1 PUSH1 0xE0 SHL DUP2 MSTORE DUP8 CALLDATALOAD PUSH1 0x4 DUP3 ADD MSTORE PUSH1 0x80 DUP9 ADD CALLDATALOAD PUSH1 0x24 DUP3 ADD MSTORE PUSH1 0x1 PUSH1 0x1 PUSH1 0xA0 SHL SUB SWAP1 SWAP2 AND SWAP3 POP PUSH4 0xA7518EB1 SWAP2 POP PUSH1 0x44 ADD PUSH1 0x0 PUSH1 0x40 MLOAD DUP1 DUP4 SUB DUP2 PUSH1 0x0 DUP8 DUP1 EXTCODESIZE ISZERO DUP1 ISZERO PUSH2 0x69A JUMPI PUSH1 0x0 DUP1 REVERT JUMPDEST POP GAS CALL ISZERO DUP1 ISZERO PUSH2 0x6AE JUMPI RETURNDATASIZE PUSH1 0x0 DUP1 RETURNDATACOPY RETURNDATASIZE PUSH1 0x0 REVERT JUMPDEST POP POP PUSH1 0x1 SLOAD PUSH1 0x40 MLOAD PUSH4 0x8DC14247 PUSH1 0xE0 SHL DUP2 MSTORE DUP9 CALLDATALOAD PUSH1 0x4 DUP3 ADD MSTORE PUSH1 0xA0 DUP10 ADD CALLDATALOAD PUSH1 0x24 DUP3 ADD MSTORE PUSH1 0x1 PUSH1 0x1 PUSH1 0xA0 SHL SUB SWAP1 SWAP2 AND SWAP3 POP PUSH4 0x8DC14247 SWAP2 POP PUSH1 0x44 ADD PUSH1 0x0 PUSH1 0x40 MLOAD DUP1 DUP4 SUB DUP2 PUSH1 0x0 DUP8 DUP1 EXTCODESIZE ISZERO DUP1 ISZERO PUSH2 0x702 JUMPI PUSH1 0x0 DUP1 REVERT JUMPDEST POP GAS CALL ISZERO DUP1 ISZERO PUSH2 0x716 JUMPI RETURNDATASIZE PUSH1 0x0 DUP1 RETURNDATACOPY RETURNDATASIZE PUSH1 0x0 REVERT JUMPDEST POP POP PUSH1 0x1 SLOAD PUSH1 0x40 MLOAD PUSH4 0x8DC14247 PUSH1 0xE0 SHL DUP2 MSTORE DUP8 CALLDATALOAD PUSH1 0x4 DUP3 ADD MSTORE PUSH1 0xA0 DUP9 ADD CALLDATALOAD PUSH1 0x24 DUP3 ADD MSTORE PUSH1 0x1 PUSH1 0x1 PUSH1 0xA0 SHL SUB SWAP1 SWAP2 AND SWAP3 POP PUSH4 0x8DC14247 SWAP2 POP PUSH1 0x44 ADD PUSH1 0x0 PUSH1 0x40 MLOAD DUP1 DUP4 SUB DUP2 PUSH1 0x0 DUP8 DUP1 EXTCODESIZE ISZERO DUP1 ISZERO PUSH2 0x76A JUMPI PUSH1 0x0 DUP1 REVERT JUMPDEST POP GAS CALL ISZERO DUP1 ISZERO PUSH2 0x77E JUMPI RETURNDATASIZE PUSH1 0x0 DUP1 RETURNDATACOPY RETURNDATASIZE PUSH1 0x0 REVERT JUMPDEST POP POP DUP3 MLOAD PUSH1 0x20 DUP5 ADD MLOAD PUSH1 0x0 SWAP4 POP PUSH2 0x79E SWAP3 POP DUP9 PUSH1 0x3 JUMPDEST PUSH1 0x20 MUL ADD CALLDATALOAD PUSH2 0xB4B JUMP JUMPDEST PUSH1 0x40 DUP1 MLOAD PUSH1 0x15 DUP2 MSTORE PUSH1 0x20 DUP2 ADD DUP4 SWAP1 MSTORE SWAP2 SWAP3 POP PUSH1 0x0 DUP1 MLOAD PUSH1 0x20 PUSH2 0xE72 DUP4 CODECOPY DUP2 MLOAD SWAP2 MSTORE SWAP2 ADD PUSH1 0x40 MLOAD DUP1 SWAP2 SUB SWAP1 LOG1 PUSH1 0x20 DUP3 ADD MLOAD DUP3 MLOAD PUSH1 0x0 SWAP2 PUSH2 0x7DF SWAP2 DUP9 PUSH1 0x3 PUSH2 0x794 JUMP JUMPDEST PUSH1 0x40 DUP1 MLOAD PUSH1 0x3 DUP2 MSTORE PUSH1 0x20 DUP2 ADD DUP6 SWAP1 MSTORE SWAP2 SWAP3 POP PUSH1 0x0 DUP1 MLOAD PUSH1 0x20 PUSH2 0xE72 DUP4 CODECOPY DUP2 MLOAD SWAP2 MSTORE SWAP2 ADD PUSH1 0x40 MLOAD DUP1 SWAP2 SUB SWAP1 LOG1 PUSH1 0x40 DUP1 MLOAD PUSH1 0x4 DUP2 MSTORE PUSH1 0x20 DUP2 ADD DUP4 SWAP1 MSTORE PUSH1 0x0 DUP1 MLOAD PUSH1 0x20 PUSH2 0xE72 DUP4 CODECOPY DUP2 MLOAD SWAP2 MSTORE SWAP2 ADD PUSH1 0x40 MLOAD DUP1 SWAP2 SUB SWAP1 LOG1 PUSH1 0x1 SLOAD PUSH1 0x40 MLOAD PUSH4 0x243A7C7B PUSH1 0xE0 SHL DUP2 MSTORE DUP9 CALLDATALOAD PUSH1 0x4 DUP3 ADD MSTORE PUSH1 0x24 DUP2 ADD DUP5 SWAP1 MSTORE PUSH1 0x1 PUSH1 0x1 PUSH1 0xA0 SHL SUB SWAP1 SWAP2 AND SWAP1 PUSH4 0x243A7C7B SWAP1 PUSH1 0x44 ADD PUSH1 0x0 PUSH1 0x40 MLOAD DUP1 DUP4 SUB DUP2 PUSH1 0x0 DUP8 DUP1 EXTCODESIZE ISZERO DUP1 ISZERO PUSH2 0x87F JUMPI PUSH1 0x0 DUP1 REVERT JUMPDEST POP GAS CALL ISZERO DUP1 ISZERO PUSH2 0x893 JUMPI RETURNDATASIZE PUSH1 0x0 DUP1 RETURNDATACOPY RETURNDATASIZE PUSH1 0x0 REVERT JUMPDEST POP POP PUSH1 0x1 SLOAD PUSH1 0x40 MLOAD PUSH4 0x243A7C7B PUSH1 0xE0 SHL DUP2 MSTORE DUP10 CALLDATALOAD PUSH1 0x4 DUP3 ADD MSTORE PUSH1 0x24 DUP2 ADD DUP6 SWAP1 MSTORE PUSH1 0x1 PUSH1 0x1 PUSH1 0xA0 SHL SUB SWAP1 SWAP2 AND SWAP3 POP PUSH4 0x243A7C7B SWAP2 POP PUSH1 0x44 ADD PUSH1 0x0 PUSH1 0x40 MLOAD DUP1 DUP4 SUB DUP2 PUSH1 0x0 DUP8 DUP1 EXTCODESIZE ISZERO DUP1 ISZERO PUSH2 0x8E4 JUMPI PUSH1 0x0 DUP1 REVERT JUMPDEST POP GAS CALL ISZERO DUP1 ISZERO PUSH2 0x8F8 JUMPI RETURNDATASIZE PUSH1 0x0 DUP1 RETURNDATACOPY RETURNDATASIZE PUSH1 0x0 REVERT JUMPDEST POP POP PUSH1 0x40 DUP1 MLOAD PUSH1 0x5 DUP2 MSTORE PUSH1 0x0 PUSH1 0x20 DUP3 ADD MSTORE PUSH1 0x0 DUP1 MLOAD PUSH1 0x20 PUSH2 0xE72 DUP4 CODECOPY DUP2 MLOAD SWAP2 MSTORE SWAP4 POP ADD SWAP1 POP PUSH1 0x40 MLOAD DUP1 SWAP2 SUB SWAP1 LOG1 PUSH1 0x0 PUSH1 0xC0 DUP9 ADD CALLDATALOAD PUSH1 0x1 SUB PUSH2 0x937 JUMPI POP DUP7 CALLDATALOAD JUMPDEST PUSH1 0xC0 DUP8 ADD CALLDATALOAD PUSH1 0x1 SUB PUSH2 0x947 JUMPI POP DUP6 CALLDATALOAD JUMPDEST PUSH1 0x40 DUP1 MLOAD PUSH1 0x6 DUP2 MSTORE PUSH1 0x0 PUSH1 0x20 DUP3 ADD MSTORE PUSH1 0x0 DUP1 MLOAD PUSH1 0x20 PUSH2 0xE72 DUP4 CODECOPY DUP2 MLOAD SWAP2 MSTORE SWAP2 ADD PUSH1 0x40 MLOAD DUP1 SWAP2 SUB SWAP1 LOG1 PUSH1 0x0 DUP9 CALLDATALOAD DUP3 SUB PUSH2 0xA09 JUMPI PUSH1 0x5 SLOAD PUSH2 0x98E DUP6 PUSH8 0xDE0B6B3A7640000 PUSH2 0xC2B JUMP JUMPDEST PUSH2 0x998 SWAP2 SWAP1 PUSH2 0xE12 JUMP JUMPDEST PUSH1 0x2 SLOAD PUSH1 0x40 DUP8 DUP2 ADD MLOAD SWAP1 MLOAD PUSH4 0xB78636A1 PUSH1 0xE0 SHL DUP2 MSTORE PUSH1 0x1 PUSH1 0x1 PUSH1 0xA0 SHL SUB SWAP2 DUP3 AND PUSH1 0x4 DUP3 ADD MSTORE PUSH1 0x24 DUP2 ADD DUP5 SWAP1 MSTORE SWAP3 SWAP4 POP AND SWAP1 PUSH4 0xB78636A1 SWAP1 PUSH1 0x44 ADD PUSH1 0x0 PUSH1 0x40 MLOAD DUP1 DUP4 SUB DUP2 PUSH1 0x0 DUP8 DUP1 EXTCODESIZE ISZERO DUP1 ISZERO PUSH2 0x9EC JUMPI PUSH1 0x0 DUP1 REVERT JUMPDEST POP GAS CALL ISZERO DUP1 ISZERO PUSH2 0xA00 JUMPI RETURNDATASIZE PUSH1 0x0 DUP1 RETURNDATACOPY RETURNDATASIZE PUSH1 0x0 REVERT JUMPDEST POP POP POP POP PUSH2 0xA9D JUMP JUMPDEST DUP8 CALLDATALOAD DUP3 SUB PUSH2 0xA9D JUMPI PUSH1 0x5 SLOAD PUSH2 0xA26 DUP5 PUSH8 0xDE0B6B3A7640000 PUSH2 0xC2B JUMP JUMPDEST PUSH2 0xA30 SWAP2 SWAP1 PUSH2 0xE12 JUMP JUMPDEST PUSH1 0x2 SLOAD PUSH1 0x60 DUP8 ADD MLOAD PUSH1 0x40 MLOAD PUSH4 0xB78636A1 PUSH1 0xE0 SHL DUP2 MSTORE PUSH1 0x1 PUSH1 0x1 PUSH1 0xA0 SHL SUB SWAP2 DUP3 AND PUSH1 0x4 DUP3 ADD MSTORE PUSH1 0x24 DUP2 ADD DUP5 SWAP1 MSTORE SWAP3 SWAP4 POP AND SWAP1 PUSH4 0xB78636A1 SWAP1 PUSH1 0x44 ADD PUSH1 0x0 PUSH1 0x40 MLOAD DUP1 DUP4 SUB DUP2 PUSH1 0x0 DUP8 DUP1 EXTCODESIZE ISZERO DUP1 ISZERO PUSH2 0xA84 JUMPI PUSH1 0x0 DUP1 REVERT JUMPDEST POP GAS CALL ISZERO DUP1 ISZERO PUSH2 0xA98 JUMPI RETURNDATASIZE PUSH1 0x0 DUP1 RETURNDATACOPY RETURNDATASIZE PUSH1 0x0 REVERT JUMPDEST POP POP POP POP JUMPDEST PUSH1 0x40 DUP1 MLOAD PUSH1 0x80 DUP2 ADD DUP3 MSTORE NUMBER DUP2 MSTORE DUP11 CALLDATALOAD PUSH1 0x20 DUP3 ADD MSTORE SWAP1 DUP2 ADD DUP10 PUSH1 0x0 PUSH1 0x20 SWAP1 DUP2 MUL SWAP2 SWAP1 SWAP2 ADD CALLDATALOAD DUP3 MSTORE SWAP1 DUP2 ADD DUP5 SWAP1 MSTORE PUSH1 0x0 DUP9 DUP2 MSTORE DUP1 DUP3 MSTORE PUSH1 0x40 SWAP1 DUP2 SWAP1 KECCAK256 DUP4 MLOAD DUP2 SSTORE DUP4 DUP4 ADD MLOAD PUSH1 0x1 DUP3 ADD SSTORE DUP4 DUP3 ADD MLOAD PUSH1 0x2 DUP3 ADD SSTORE PUSH1 0x60 SWAP4 DUP5 ADD MLOAD PUSH1 0x3 SWAP1 SWAP2 ADD SSTORE DUP1 MLOAD DUP13 CALLDATALOAD DUP2 MSTORE DUP12 CALLDATALOAD SWAP3 DUP2 ADD SWAP3 SWAP1 SWAP3 MSTORE DUP2 ADD DUP5 SWAP1 MSTORE SWAP1 DUP2 ADD DUP3 SWAP1 MSTORE PUSH32 0x3EA69882536BA5C0664CF3BDEF8A6B5C27996390AA0F0F3FB10C6812EE9F787E SWAP1 PUSH1 0x80 ADD PUSH1 0x40 MLOAD DUP1 SWAP2 SUB SWAP1 LOG1 POP POP POP POP POP POP POP POP POP JUMP JUMPDEST PUSH1 0x0 DUP1 PUSH1 0x0 DUP5 DUP7 GT ISZERO PUSH2 0xBAB JUMPI PUSH2 0xB62 DUP6 DUP8 PUSH2 0xE34 JUMP JUMPDEST SWAP2 POP PUSH8 0xDE0B6B3A7640000 PUSH2 0xB9A DUP6 PUSH2 0x1D6 PUSH8 0xDE0B6B3A7640000 DUP11 PUSH2 0xB90 DUP9 PUSH8 0xDE0B6B3A7640000 PUSH2 0xC2B JUMP JUMPDEST PUSH2 0x1B0 SWAP2 SWAP1 PUSH2 0xE12 JUMP JUMPDEST PUSH2 0xBA4 SWAP2 SWAP1 PUSH2 0xE12 JUMP JUMPDEST SWAP1 POP PUSH2 0xBFD JUMP JUMPDEST DUP5 DUP7 LT ISZERO PUSH2 0xBFA JUMPI PUSH2 0xBBD DUP7 DUP7 PUSH2 0xE34 JUMP JUMPDEST SWAP2 POP PUSH8 0xDE0B6B3A7640000 PUSH2 0xB9A DUP6 PUSH2 0x1D6 DUP10 PUSH2 0xBE2 DUP8 PUSH8 0xDE0B6B3A7640000 PUSH2 0xC2B JUMP JUMPDEST PUSH2 0xBEC SWAP2 SWAP1 PUSH2 0xE12 JUMP JUMPDEST PUSH8 0xDE0B6B3A7640000 PUSH2 0xC5B JUMP JUMPDEST POP DUP3 JUMPDEST SWAP6 SWAP5 POP POP POP POP POP JUMP JUMPDEST PUSH1 0x0 DUP3 DUP3 GT ISZERO PUSH2 0xC18 JUMPI PUSH2 0xC18 PUSH2 0xDB0 JUMP JUMPDEST PUSH2 0xC22 DUP3 DUP5 PUSH2 0xE34 JUMP JUMPDEST SWAP1 POP JUMPDEST SWAP3 SWAP2 POP POP JUMP JUMPDEST PUSH1 0x0 DUP1 PUSH2 0xC38 DUP4 DUP6 PUSH2 0xE47 JUMP JUMPDEST SWAP1 POP DUP4 ISZERO DUP1 PUSH2 0xC4F JUMPI POP DUP3 PUSH2 0xC4D DUP6 DUP4 PUSH2 0xE12 JUMP JUMPDEST EQ JUMPDEST PUSH2 0xC22 JUMPI PUSH2 0xC22 PUSH2 0xDB0 JUMP JUMPDEST PUSH1 0x0 DUP1 PUSH2 0xC68 DUP4 DUP6 PUSH2 0xE5E JUMP JUMPDEST SWAP1 POP DUP4 DUP2 LT ISZERO DUP1 ISZERO PUSH2 0xC4F JUMPI POP DUP3 DUP2 LT ISZERO PUSH2 0xC22 JUMPI PUSH2 0xC22 PUSH2 0xDB0 JUMP JUMPDEST PUSH1 0x1 PUSH1 0x1 PUSH1 0xA0 SHL SUB DUP2 AND DUP2 EQ PUSH2 0xC9A JUMPI PUSH1 0x0 DUP1 REVERT JUMPDEST POP JUMP JUMPDEST PUSH1 0x0 PUSH1 0x20 DUP3 DUP5 SUB SLT ISZERO PUSH2 0xCAF JUMPI PUSH1 0x0 DUP1 REVERT JUMPDEST DUP2 CALLDATALOAD PUSH2 0xC22 DUP2 PUSH2 0xC85 JUMP JUMPDEST PUSH1 0x0 PUSH1 0x20 DUP3 DUP5 SUB SLT ISZERO PUSH2 0xCCC JUMPI PUSH1 0x0 DUP1 REVERT JUMPDEST POP CALLDATALOAD SWAP2 SWAP1 POP JUMP JUMPDEST PUSH1 0x0 DUP1 PUSH1 0x40 DUP4 DUP6 SUB SLT ISZERO PUSH2 0xCE6 JUMPI PUSH1 0x0 DUP1 REVERT JUMPDEST DUP3 CALLDATALOAD PUSH2 0xCF1 DUP2 PUSH2 0xC85 JUMP JUMPDEST SWAP2 POP PUSH1 0x20 DUP4 ADD CALLDATALOAD DUP1 ISZERO ISZERO DUP2 EQ PUSH2 0xD06 JUMPI PUSH1 0x0 DUP1 REVERT JUMPDEST DUP1 SWAP2 POP POP SWAP3 POP SWAP3 SWAP1 POP JUMP JUMPDEST DUP1 PUSH1 0xE0 DUP2 ADD DUP4 LT ISZERO PUSH2 0xC25 JUMPI PUSH1 0x0 DUP1 REVERT JUMPDEST PUSH1 0x0 DUP1 PUSH1 0x0 PUSH2 0x1E0 DUP5 DUP7 SUB SLT ISZERO PUSH2 0xD38 JUMPI PUSH1 0x0 DUP1 REVERT JUMPDEST PUSH2 0xD42 DUP6 DUP6 PUSH2 0xD11 JUMP JUMPDEST SWAP3 POP PUSH2 0xD51 DUP6 PUSH1 0xE0 DUP7 ADD PUSH2 0xD11 JUMP JUMPDEST SWAP2 POP PUSH2 0x1C0 DUP5 ADD CALLDATALOAD SWAP1 POP SWAP3 POP SWAP3 POP SWAP3 JUMP JUMPDEST PUSH1 0x0 DUP1 PUSH1 0x0 PUSH1 0x60 DUP5 DUP7 SUB SLT ISZERO PUSH2 0xD77 JUMPI PUSH1 0x0 DUP1 REVERT JUMPDEST POP POP DUP2 CALLDATALOAD SWAP4 PUSH1 0x20 DUP4 ADD CALLDATALOAD SWAP4 POP PUSH1 0x40 SWAP1 SWAP3 ADD CALLDATALOAD SWAP2 SWAP1 POP JUMP JUMPDEST PUSH1 0x0 DUP1 PUSH1 0x40 DUP4 DUP6 SUB SLT ISZERO PUSH2 0xDA1 JUMPI PUSH1 0x0 DUP1 REVERT JUMPDEST POP POP DUP1 CALLDATALOAD SWAP3 PUSH1 0x20 SWAP1 SWAP2 ADD CALLDATALOAD SWAP2 POP JUMP JUMPDEST PUSH4 0x4E487B71 PUSH1 0xE0 SHL PUSH1 0x0 MSTORE PUSH1 0x1 PUSH1 0x4 MSTORE PUSH1 0x24 PUSH1 0x0 REVERT JUMPDEST PUSH1 0x0 PUSH1 0x20 DUP3 DUP5 SUB SLT ISZERO PUSH2 0xDD8 JUMPI PUSH1 0x0 DUP1 REVERT JUMPDEST POP MLOAD SWAP2 SWAP1 POP JUMP JUMPDEST PUSH1 0x0 PUSH1 0x20 DUP3 DUP5 SUB SLT ISZERO PUSH2 0xDF1 JUMPI PUSH1 0x0 DUP1 REVERT JUMPDEST DUP2 MLOAD PUSH2 0xC22 DUP2 PUSH2 0xC85 JUMP JUMPDEST PUSH4 0x4E487B71 PUSH1 0xE0 SHL PUSH1 0x0 MSTORE PUSH1 0x11 PUSH1 0x4 MSTORE PUSH1 0x24 PUSH1 0x0 REVERT JUMPDEST PUSH1 0x0 DUP3 PUSH2 0xE2F JUMPI PUSH4 0x4E487B71 PUSH1 0xE0 SHL PUSH1 0x0 MSTORE PUSH1 0x12 PUSH1 0x4 MSTORE PUSH1 0x24 PUSH1 0x0 REVERT JUMPDEST POP DIV SWAP1 JUMP JUMPDEST DUP2 DUP2 SUB DUP2 DUP2 GT ISZERO PUSH2 0xC25 JUMPI PUSH2 0xC25 PUSH2 0xDFC JUMP JUMPDEST DUP1 DUP3 MUL DUP2 ISZERO DUP3 DUP3 DIV DUP5 EQ OR PUSH2 0xC25 JUMPI PUSH2 0xC25 PUSH2 0xDFC JUMP JUMPDEST DUP1 DUP3 ADD DUP1 DUP3 GT ISZERO PUSH2 0xC25 JUMPI PUSH2 0xC25 PUSH2 0xDFC JUMP INVALID SWAP4 0xF9 0xB0 RETURNDATACOPY LOG0 0xC4 0xF6 DELEGATECALL ISZERO COINBASE NOT 0xB4 0xB7 DUP6 LT CALL DUP4 POP 0x4F 0xAD PUSH25 0xF2517D46D84A546AC0E97DA26469706673582212206C7C9CEB DUP11 0x4D 0xD1 GAS PUSH31 0x446D66224D252B9242FAE3535338DCB1959C9258049BD964736F6C63430008 SGT STOP CALLER "
		},
		"gasEstimates": {
			"creation": {
				"codeDepositCost": "756600",
				"executionCost": "infinite",
				"totalCost": "infinite"
			},
			"external": {
				"battles(bytes32)": "8843",
				"calculateExpirience(uint256,uint256,uint256)": "infinite",
				"itemsContract()": "2403",
				"owner()": "2359",
				"recordFight(uint256[7],uint256[7],uint256)": "infinite",
				"safeAdd(uint256,uint256)": "infinite",
				"safeMul(uint256,uint256)": "infinite",
				"safeSub(uint256,uint256)": "infinite",
				"setAdmin(address,bool)": "28208",
				"setMoneyExpDivider(uint256)": "25552",
				"setOwner(address)": "30171"
			},
			"internal": {
				"generateBattleHash(uint256,uint256,uint256)": "infinite",
				"max(uint256,uint256)": "infinite",
				"min(uint256,uint256)": "infinite"
			}
		},
		"methodIdentifiers": {
			"battles(bytes32)": "78547e6c",
			"calculateExpirience(uint256,uint256,uint256)": "74440e9e",
			"itemsContract()": "a971e842",
			"owner()": "8da5cb5b",
			"recordFight(uint256[7],uint256[7],uint256)": "57bcd00d",
			"safeAdd(uint256,uint256)": "e6cb9013",
			"safeMul(uint256,uint256)": "d05c78da",
			"safeSub(uint256,uint256)": "a293d1e8",
			"setAdmin(address,bool)": "4b0bddd2",
			"setMoneyExpDivider(uint256)": "1fedfd0a",
			"setOwner(address)": "13af4035"
		}
	},
	"abi": [
		{
			"inputs": [
				{
					"internalType": "address",
					"name": "fighterContractAddress_",
					"type": "address"
				},
				{
					"internalType": "address",
					"name": "fighterMoneyContractAddress_",
					"type": "address"
				},
				{
					"internalType": "address",
					"name": "itemsContract_",
					"type": "address"
				}
			],
			"stateMutability": "nonpayable",
			"type": "constructor"
		},
		{
			"anonymous": false,
			"inputs": [
				{
					"indexed": false,
					"internalType": "uint256",
					"name": "player1",
					"type": "uint256"
				},
				{
					"indexed": false,
					"internalType": "uint256",
					"name": "player2",
					"type": "uint256"
				},
				{
					"indexed": false,
					"internalType": "uint256",
					"name": "winner",
					"type": "uint256"
				},
				{
					"indexed": false,
					"internalType": "uint256",
					"name": "purse",
					"type": "uint256"
				}
			],
			"name": "BattleRecorded",
			"type": "event"
		},
		{
			"anonymous": false,
			"inputs": [
				{
					"indexed": false,
					"internalType": "uint8",
					"name": "",
					"type": "uint8"
				},
				{
					"indexed": false,
					"internalType": "uint256",
					"name": "",
					"type": "uint256"
				}
			],
			"name": "LogError",
			"type": "event"
		},
		{
			"anonymous": false,
			"inputs": [
				{
					"indexed": false,
					"internalType": "address",
					"name": "previousOwner",
					"type": "address"
				},
				{
					"indexed": false,
					"internalType": "bool",
					"name": "isActive",
					"type": "bool"
				}
			],
			"name": "SetAdmin",
			"type": "event"
		},
		{
			"anonymous": false,
			"inputs": [
				{
					"indexed": false,
					"internalType": "address",
					"name": "previousOwner",
					"type": "address"
				},
				{
					"indexed": false,
					"internalType": "address",
					"name": "newOwner",
					"type": "address"
				}
			],
			"name": "SetOwner",
			"type": "event"
		},
		{
			"anonymous": false,
			"inputs": [
				{
					"indexed": false,
					"internalType": "uint256",
					"name": "",
					"type": "uint256"
				}
			],
			"name": "updatedMoneyExpDivider",
			"type": "event"
		},
		{
			"inputs": [
				{
					"internalType": "bytes32",
					"name": "",
					"type": "bytes32"
				}
			],
			"name": "battles",
			"outputs": [
				{
					"internalType": "uint256",
					"name": "blockNumber",
					"type": "uint256"
				},
				{
					"internalType": "uint256",
					"name": "opponent1",
					"type": "uint256"
				},
				{
					"internalType": "uint256",
					"name": "opponent2",
					"type": "uint256"
				},
				{
					"internalType": "uint256",
					"name": "winner",
					"type": "uint256"
				}
			],
			"stateMutability": "view",
			"type": "function"
		},
		{
			"inputs": [
				{
					"internalType": "uint256",
					"name": "fighterLevel",
					"type": "uint256"
				},
				{
					"internalType": "uint256",
					"name": "opponentLevel",
					"type": "uint256"
				},
				{
					"internalType": "uint256",
					"name": "damageDealt",
					"type": "uint256"
				}
			],
			"name": "calculateExpirience",
			"outputs": [
				{
					"internalType": "uint256",
					"name": "",
					"type": "uint256"
				}
			],
			"stateMutability": "nonpayable",
			"type": "function"
		},
		{
			"inputs": [],
			"name": "itemsContract",
			"outputs": [
				{
					"internalType": "address",
					"name": "",
					"type": "address"
				}
			],
			"stateMutability": "view",
			"type": "function"
		},
		{
			"inputs": [],
			"name": "owner",
			"outputs": [
				{
					"internalType": "address",
					"name": "",
					"type": "address"
				}
			],
			"stateMutability": "view",
			"type": "function"
		},
		{
			"inputs": [
				{
					"internalType": "uint256[7]",
					"name": "vals1",
					"type": "uint256[7]"
				},
				{
					"internalType": "uint256[7]",
					"name": "vals2",
					"type": "uint256[7]"
				},
				{
					"internalType": "uint256",
					"name": "battleNonce",
					"type": "uint256"
				}
			],
			"name": "recordFight",
			"outputs": [],
			"stateMutability": "nonpayable",
			"type": "function"
		},
		{
			"inputs": [
				{
					"internalType": "uint256",
					"name": "a",
					"type": "uint256"
				},
				{
					"internalType": "uint256",
					"name": "b",
					"type": "uint256"
				}
			],
			"name": "safeAdd",
			"outputs": [
				{
					"internalType": "uint256",
					"name": "",
					"type": "uint256"
				}
			],
			"stateMutability": "nonpayable",
			"type": "function"
		},
		{
			"inputs": [
				{
					"internalType": "uint256",
					"name": "a",
					"type": "uint256"
				},
				{
					"internalType": "uint256",
					"name": "b",
					"type": "uint256"
				}
			],
			"name": "safeMul",
			"outputs": [
				{
					"internalType": "uint256",
					"name": "",
					"type": "uint256"
				}
			],
			"stateMutability": "nonpayable",
			"type": "function"
		},
		{
			"inputs": [
				{
					"internalType": "uint256",
					"name": "a",
					"type": "uint256"
				},
				{
					"internalType": "uint256",
					"name": "b",
					"type": "uint256"
				}
			],
			"name": "safeSub",
			"outputs": [
				{
					"internalType": "uint256",
					"name": "",
					"type": "uint256"
				}
			],
			"stateMutability": "nonpayable",
			"type": "function"
		},
		{
			"inputs": [
				{
					"internalType": "address",
					"name": "addy",
					"type": "address"
				},
				{
					"internalType": "bool",
					"name": "isActive",
					"type": "bool"
				}
			],
			"name": "setAdmin",
			"outputs": [],
			"stateMutability": "nonpayable",
			"type": "function"
		},
		{
			"inputs": [
				{
					"internalType": "uint256",
					"name": "val",
					"type": "uint256"
				}
			],
			"name": "setMoneyExpDivider",
			"outputs": [],
			"stateMutability": "nonpayable",
			"type": "function"
		},
		{
			"inputs": [
				{
					"internalType": "address",
					"name": "newOwner",
					"type": "address"
				}
			],
			"name": "setOwner",
			"outputs": [],
			"stateMutability": "nonpayable",
			"type": "function"
		}
	]
}