{
	"data": {
		"bytecode": {
			"linkReferences": {},
			"object": "60806040526008600c556008600d556004600e556008600f55600860105563115d88a460115560056012553480156200003757600080fd5b5060405180604001604052806007815260200166436f6d6261747360c81b815250604051806040016040528060078152602001662334b3b43a32b960c91b815250816000908162000089919062000b08565b50600162000098828262000b08565b50505060405180610400016040528060008152602001602a815260200160158152602001600581526020016014815260200160008152602001600081526020016000815260200160018152602001600081526020016000815260200160008152602001600081526020016005815260200160058152602001600581526020016001815260200160058152602001601b8152602001600781526020016000815260200160008152602001600081526020016000815260200160008152602001600081526020016000815260200160008152602001600081526020016000815260200160008152602001600081525060066000600160048111156200019f576200019f62000bd4565b8152602001908152602001600020600082015181600001556020820151816001015560408201518160020155606082015181600301556080820151816004015560a0820151816005015560c0820151816006015560e082015181600701556101008201518160080155610120820151816009015561014082015181600a015561016082015181600b015561018082015181600c01556101a082015181600d01556101c082015181600e01556101e082015181600f0155610200820151816010015561022082015181601101556102408201518160120155610260820151816013015561028082015181601401556102a082015181601501556102c082015181601601556102e082015181601701556103008201518160180155610320820151816019015561034082015181601a015561036082015181601b015561038082015181601c01556103a082015181601d01556103c082015181601e01556103e082015181601f015590505060405180610400016040528060008152602001600f8152602001601481526020016032815260200160148152602001600081526020016000815260200160008152602001600281526020016000815260200160008152602001600081526020016000815260200160038152602001600a815260200160038152602001600581526020016005815260200160108152602001600581526020016000815260200160008152602001600081526020016000815260200160008152602001600081526020016000815260200160008152602001600081526020016000815260200160008152602001600081525060066000600260048111156200040c576200040c62000bd4565b8152602001908152602001600020600082015181600001556020820151816001015560408201518160020155606082015181600301556080820151816004015560a0820151816005015560c0820151816006015560e082015181600701556101008201518160080155610120820151816009015561014082015181600a015561016082015181600b015561018082015181600c01556101a082015181600d01556101c082015181600e01556101e082015181600f0155610200820151816010015561022082015181601101556102408201518160120155610260820151816013015561028082015181601401556102a082015181601501556102c082015181601601556102e082015181601701556103008201518160180155610320820151816019015561034082015181601a015561036082015181601b015561038082015181601c01556103a082015181601d01556103c082015181601e01556103e082015181601f0155905050604051806104000160405280600081526020016014815260200160198152602001600f81526020016014815260200160008152602001600081526020016000815260200160038152602001600081526020016000815260200160008152602001600081526020016003815260200160058152602001600381526020016004815260200160058152602001600c81526020016005815260200160008152602001600081526020016000815260200160008152602001600081526020016000815260200160008152602001600081526020016000815260200160008152602001600081526020016000815250600660006003600481111562000679576200067962000bd4565b8152602001908152602001600020600082015181600001556020820151816001015560408201518160020155606082015181600301556080820151816004015560a0820151816005015560c0820151816006015560e082015181600701556101008201518160080155610120820151816009015561014082015181600a015561016082015181600b015561018082015181600c01556101a082015181600d01556101c082015181600e01556101e082015181600f0155610200820151816010015561022082015181601101556102408201518160120155610260820151816013015561028082015181601401556102a082015181601501556102c082015181601601556102e082015181601701556103008201518160180155610320820151816019015561034082015181601a015561036082015181601b015561038082015181601c01556103a082015181601d01556103c082015181601e01556103e082015181601f015590505060405180610400016040528060008152602001601c8152602001600e815260200160148152602001601481526020016000815260200160008152602001600081526020016004815260200160008152602001600081526020016000815260200160008152602001600481526020016007815260200160068152602001600281526020016007815260200160178152602001600781526020016000815260200160008152602001600081526020016000815260200160008152602001600081526020016000815260200160008152602001600081526020016000815260200160008152602001600081525060066000600480811115620008e557620008e562000bd4565b81526020808201929092526040908101600020835181559183015160018301558201516002820155606082015160038201556080820151600482015560a0820151600582015560c0820151600682015560e082015160078201556101008201516008820155610120820151600980830191909155610140830151600a830155610160830151600b830155610180830151600c8301556101a0830151600d8301556101c0830151600e8301556101e0830151600f830155610200830151601083015561022083015160118301556102408301516012830155610260830151601383015561028083015160148301556102a083015160158301556102c083015160168301556102e0830151601783015561030083015160188301556103208301516019830155610340830151601a830155610360830151601b830155610380830151601c8301556103a0830151601d8301556103c0830151601e8301556103e090920151601f9091015580546001600160a01b0319163317905562000bea565b634e487b7160e01b600052604160045260246000fd5b600181811c9082168062000a8e57607f821691505b60208210810362000aaf57634e487b7160e01b600052602260045260246000fd5b50919050565b601f82111562000b0357600081815260208120601f850160051c8101602086101562000ade5750805b601f850160051c820191505b8181101562000aff5782815560010162000aea565b5050505b505050565b81516001600160401b0381111562000b245762000b2462000a63565b62000b3c8162000b35845462000a79565b8462000ab5565b602080601f83116001811462000b74576000841562000b5b5750858301515b600019600386901b1c1916600185901b17855562000aff565b600085815260208120601f198616915b8281101562000ba55788860151825594840194600190910190840162000b84565b508582101562000bc45787850151600019600388901b60f8161c191681555b5050505050600190811b01905550565b634e487b7160e01b600052602160045260246000fd5b6136f38062000bfa6000396000f3fe608060405234801561001057600080fd5b50600436106102d65760003560e01c8063745bd45311610182578063b88d4fde116100e9578063d20a53c8116100a2578063e6cb90131161007c578063e6cb901314610872578063e985e9c514610885578063f04968be146108c1578063fd9513bd146108d457600080fd5b8063d20a53c814610839578063d5a93d681461084c578063d87e90201461085f57600080fd5b8063b88d4fde146107c7578063c77daef6146107da578063c87b56dd146107ed578063cb08304114610800578063d05c78da14610813578063d1e5ef571461082657600080fd5b8063a22cb4651161013b578063a22cb46514610755578063a293d1e814610768578063a6438db21461077b578063a7518eb11461078e578063b1ca2106146107a1578063b7379531146107b457600080fd5b8063745bd453146106ee5780637cd7f3bb1461070157806386481d40146107145780638da5cb5b146107275780638dc142471461073a57806395d89b411461074d57600080fd5b80633a0995e9116102415780636352211e116101fa5780636ae15f76116101d45780636ae15f76146106a25780636d9cbb4e146106b557806370a08231146106c8578063744e94aa146106db57600080fd5b80636352211e146106695780636599273f1461067c578063688f30ac1461068f57600080fd5b80633a0995e9146105625780633fc70f2c1461058557806342842e0e1461059857806343c6916b146105ab57806351585b49146105be57806355af86c4146105d157600080fd5b806317a405761161029357806317a405761461037e5780631f4f5a231461039157806320b430d51461050857806323b872dd14610529578063243a7c7b1461053c578063360deb761461054f57600080fd5b806301ffc9a7146102db57806306fdde0314610303578063081812fc14610318578063095ea7b3146103435780630b1f15cd1461035857806313af40351461036b575b600080fd5b6102ee6102e93660046130a4565b6108e7565b60405190151581526020015b60405180910390f35b61030b610939565b6040516102fa9190613111565b61032b610326366004613124565b6109cb565b6040516001600160a01b0390911681526020016102fa565b610356610351366004613154565b6109f2565b005b610356610366366004613124565b610b0c565b61035661037936600461317e565b610b72565b61035661038c366004613124565b610bf8565b6103a461039f366004613124565b610c57565b6040516102fa9190815181526020808301519082015260408083015190820152606080830151908201526080808301519082015260a0808301519082015260c0808301519082015260e08083015190820152610100808301519082015261012080830151908201526101408083015190820152610160808301519082015261018080830151908201526101a080830151908201526101c080830151908201526101e08083015190820152610200808301519082015261022080830151908201526102408083015190820152610260808301519082015261028080830151908201526102a080830151908201526102c080830151908201526102e08083015190820152610300808301519082015261032080830151908201526103408083015190820152610360808301519082015261038080830151908201526103a080830151908201526103c080830151908201526103e091820151918101919091526104000190565b61051b610516366004613199565b610ee1565b6040519081526020016102fa565b6103566105373660046131dc565b6110a4565b61035661054a366004613218565b6110d5565b61035661055d36600461323a565b61116b565b6102ee61057036600461317e565b600a6020526000908152604090205460ff1681565b61051b610593366004613124565b6111f9565b6103566105a63660046131dc565b611262565b61051b6105b9366004613124565b61127d565b61051b6105cc366004613124565b6112ff565b6105e46105df366004613124565b611345565b6040516102fa9190600061016082019050825182526020830151602083015260408301516040830152606083015160608301526080830151608083015260a083015160a083015260c083015160c083015260e083015160e083015261010080840151818401525061012080840151818401525061014080840151818401525092915050565b61032b610677366004613124565b61146b565b61035661068a366004613124565b6114cb565b61035661069d366004613124565b61152a565b6103566106b0366004613124565b611589565b61051b6106c3366004613124565b6115e8565b61051b6106d636600461317e565b611655565b61051b6106e9366004613124565b6116db565b6103566106fc366004613124565b611744565b61051b61070f366004613124565b6117a3565b61051b610722366004613124565b611812565b60095461032b906001600160a01b031681565b610356610748366004613218565b61188b565b61030b61195c565b61035661076336600461323a565b61196b565b61051b610776366004613218565b611976565b61051b610789366004613276565b6119c3565b61035661079c366004613218565b611c27565b61051b6107af366004613124565b611cf6565b6103566107c2366004613297565b611d33565b6103566107d53660046132d9565b611f72565b61051b6107e8366004613124565b611faa565b61030b6107fb366004613124565b612019565b61035661080e366004613124565b61208c565b61051b610821366004613218565b6120eb565b6103566108343660046133b5565b61214c565b61051b610847366004613124565b612403565b61035661085a36600461323a565b612437565b61051b61086d366004613124565b6124bd565b61051b610880366004613218565b612519565b6102ee6108933660046133f0565b6001600160a01b03918216600090815260056020908152604080832093909416825291909152205460ff1690565b61051b6108cf366004613124565b612575565b61051b6108e2366004613124565b6125b6565b60006001600160e01b031982166380ac58cd60e01b148061091857506001600160e01b03198216635b5e139f60e01b145b8061093357506301ffc9a760e01b6001600160e01b03198316145b92915050565b60606000805461094890613423565b80601f016020809104026020016040519081016040528092919081815260200182805461097490613423565b80156109c15780601f10610996576101008083540402835291602001916109c1565b820191906000526020600020905b8154815290600101906020018083116109a457829003601f168201915b5050505050905090565b60006109d682612616565b506000908152600460205260409020546001600160a01b031690565b60006109fd8261146b565b9050806001600160a01b0316836001600160a01b031603610a6f5760405162461bcd60e51b815260206004820152602160248201527f4552433732313a20617070726f76616c20746f2063757272656e74206f776e656044820152603960f91b60648201526084015b60405180910390fd5b336001600160a01b0382161480610a8b5750610a8b8133610893565b610afd5760405162461bcd60e51b815260206004820152603d60248201527f4552433732313a20617070726f76652063616c6c6572206973206e6f7420746f60448201527f6b656e206f776e6572206f7220617070726f76656420666f7220616c6c0000006064820152608401610a66565b610b078383612669565b505050565b6009546001600160a01b03163314610b365760405162461bcd60e51b8152600401610a6690613457565b600f8190556040518181527f2709c3545e934f71bad88a10628cfcb26544abef6d319e025dafcfaa8ecd371b906020015b60405180910390a150565b6009546001600160a01b03163314610b9c5760405162461bcd60e51b8152600401610a6690613457565b6009546040516001600160a01b038084169216907fcbf985117192c8f614a58aaf97226bb80a754772f5f6edf06f87c675f2e6c66390600090a3600980546001600160a01b0319166001600160a01b0392909216919091179055565b6009546001600160a01b03163314610c225760405162461bcd60e51b8152600401610a6690613457565b60108190556040518181527f8bc6f507740334e03eb54c47352da054221b790b05465e2e8abf2c6e2bd9fd1090602001610b67565b610d4760405180610400016040528060008152602001600081526020016000815260200160008152602001600081526020016000815260200160008152602001600081526020016000815260200160008152602001600081526020016000815260200160008152602001600081526020016000815260200160008152602001600081526020016000815260200160008152602001600081526020016000815260200160008152602001600081526020016000815260200160008152602001600081526020016000815260200160008152602001600081526020016000815260200160008152602001600081525090565b610d50826126d7565b610d6c5760405162461bcd60e51b8152600401610a669061347e565b50600090815260076020818152604092839020835161040081018552815481526001820154928101929092526002810154938201939093526003830154606082015260048301546080820152600583015460a0820152600683015460c08201529082015460e082015260088201546101008201526009820154610120820152600a820154610140820152600b820154610160820152600c820154610180820152600d8201546101a0820152600e8201546101c0820152600f8201546101e08201526010820154610200820152601182015461022082015260128201546102408201526013820154610260820152601482015461028082015260158201546102a082015260168201546102c082015260178201546102e082015260188201546103008201526019820154610320820152601a820154610340820152601b820154610360820152601c820154610380820152601d8201546103a0820152601e8201546103c0820152601f909101546103e082015290565b336000908152600a602052604081205460ff1680610f0957506009546001600160a01b031633145b610f255760405162461bcd60e51b8152600401610a6690613457565b600060405180610400016040528060008152602001898152602001888152602001878152602001868152602001610f5b85612575565b815260200160008152602001600081526020016000815260200160008152602001600081526020016000815260200160008152602001600181526020016001815260200160008152602001600081526020016000815260200185815260200160008152602001600181526020016000815260200160008152602001600081526020016000815260200160008152602001600081526020016000815260200160008152602001600081526020016000815260200160008152509050611023600880546001019055565b600061102e60085490565b905061103a33826126f4565b611044818361270e565b6000818152600760205260408082208390555133917fe6ad03ae09e6216384922d74b5734a0ebc9aa6de15bcd7d61ed9999ba2cb1df5916110909185825260ff16602082015260400190565b60405180910390a298975050505050505050565b6110ae3382612896565b6110ca5760405162461bcd60e51b8152600401610a66906134ac565b610b07838383612914565b336000908152600b602052604090205460ff166111045760405162461bcd60e51b8152600401610a6690613457565b61110d826126d7565b6111295760405162461bcd60e51b8152600401610a669061347e565b601154600083815260076020526040902060050154611152919061114d9084612519565b612a78565b6000928352600760205260409092206005019190915550565b6009546001600160a01b031633146111955760405162461bcd60e51b8152600401610a6690613457565b6001600160a01b0382166000818152600a6020908152604091829020805460ff19168515159081179091558251938452908301527f29ff5e8999b00a7437c384659fb2312b275b85c589f4d149f8b460ea477dcb7e91015b60405180910390a15050565b6000611204826126d7565b6112205760405162461bcd60e51b8152600401610a669061347e565b61093361122c83611faa565b6000848152600760208190526040909120600681015491015461114d919061088090611259904390611976565b610821886125b6565b610b0783838360405180602001604052806000815250611f72565b60008181526007602090815260408083206008015483526006909152812060018101546002820154600383015460049093015484936112c493926108809290918391612519565b905060006112eb6112d485611812565b6000868152600760205260409020601101546120eb565b90506112f78282612519565b949350505050565b600061130a826126d7565b6113265760405162461bcd60e51b8152600401610a669061347e565b600e54600083815260076020526040902060020154610933919061350f565b6113a260405180610160016040528060008152602001600081526020016000815260200160008152602001600081526020016000815260200160008152602001600081526020016000815260200160008152602001600081525090565b6113ab826126d7565b6113c75760405162461bcd60e51b8152600401610a669061347e565b60006040518061016001604052808481526020016113e4856111f9565b81526020016113f285611faa565b8152602001611400856116db565b815260200161140e856115e8565b815260200161141c85611812565b815260200161142a85611cf6565b8152602001611438856117a3565b8152602001611446856112ff565b815260200161145485612403565b81526020016114628561127d565b90529392505050565b6000818152600260205260408120546001600160a01b0316806109335760405162461bcd60e51b8152602060048201526018602482015277115490cdcc8c4e881a5b9d985b1a59081d1bdad95b88125160421b6044820152606401610a66565b6009546001600160a01b031633146114f55760405162461bcd60e51b8152600401610a6690613457565b600e8190556040518181527f8e5252d2d2f885f4bae3553bbe34c3630f9274028f3c343ce0eac0dd710c6a0390602001610b67565b6009546001600160a01b031633146115545760405162461bcd60e51b8152600401610a6690613457565b60118190556040518181527f8b92a2a371ec2af95aa1740562d5031b28f403d2780beaecdce6befd43667fb890602001610b67565b6009546001600160a01b031633146115b35760405162461bcd60e51b8152600401610a6690613457565b600d8190556040518181527f0665124c1d0c6d84ba8a4d99cb0c2a03455171ce7503623c6cceb9da5bbd7a9190602001610b67565b60006115f3826126d7565b61160f5760405162461bcd60e51b8152600401610a669061347e565b60008281526007602052604081206010810154600e82015460039092015490929061164c9061163f9084906120eb565b6108808561082189611812565b95945050505050565b60006001600160a01b0382166116bf5760405162461bcd60e51b815260206004820152602960248201527f4552433732313a2061646472657373207a65726f206973206e6f7420612076616044820152683634b21037bbb732b960b91b6064820152608401610a66565b506001600160a01b031660009081526003602052604090205490565b60006116e6826126d7565b6117025760405162461bcd60e51b8152600401610a669061347e565b61093361170e836115e8565b6000848152600760205260409020600a810154600b9091015461114d91906108809061173b904390611976565b610821886124bd565b6009546001600160a01b0316331461176e5760405162461bcd60e51b8152600401610a6690613457565b60128190556040518181527f0dbed17fa1cbd28e0338d43e05619d042b9ca1ac23a9d5383ebe0ab7049ff16e90602001610b67565b60006117ae826126d7565b6117ca5760405162461bcd60e51b8152600401610a669061347e565b6010546000838152600760205260409020600301546117e9919061350f565b600f54600084815260076020526040902060010154611808919061350f565b6109339190613531565b600061181d826126d7565b6118395760405162461bcd60e51b8152600401610a669061347e565b600082815260076020526040902060050154601254600a9061187a906118739061186e9061186790866120eb565b607d612519565b612a8e565b6005611976565b611884919061350f565b9392505050565b336000908152600b602052604090205460ff166118ba5760405162461bcd60e51b8152600401610a6690613457565b6118c3826126d7565b6118df5760405162461bcd60e51b8152600401610a669061347e565b600082815260076020526040902060140154600114611958576000611903836116db565b905081811015611924576000838152600760205260408120600a0155611941565b61192e8183611976565b6000848152600760205260409020600a01555b50600082815260076020526040902043600b909101555b5050565b60606001805461094890613423565b611958338383612afe565b6000828211156119b95760405162461bcd60e51b815260206004820152600e60248201526d1cd8599954dd588811985a5b195960921b6044820152606401610a66565b6118848284613544565b6000808260048111156119d8576119d8613557565b03611a1d5760405162461bcd60e51b8152602060048201526015602482015274496e76616c6964206669676874657220636c61737360581b6044820152606401610a66565b600060066000846004811115611a3557611a35613557565b81526020019081526020016000206040518061040001604052908160008201548152602001600182015481526020016002820154815260200160038201548152602001600482015481526020016005820154815260200160068201548152602001600782015481526020016008820154815260200160098201548152602001600a8201548152602001600b8201548152602001600c8201548152602001600d8201548152602001600e8201548152602001600f820154815260200160108201548152602001601182015481526020016012820154815260200160138201548152602001601482015481526020016015820154815260200160168201548152602001601782015481526020016018820154815260200160198201548152602001601a8201548152602001601b8201548152602001601c8201548152602001601d8201548152602001601e8201548152602001601f820154815250509050611b9f600880546001019055565b6000611baa60085490565b9050611bb633826126f4565b611bc0818361270e565b6000818152600760205260409020819055337ffa7343ad709ac91d3c10902ecf30b0048166ea21049de84c532bc3dfdf8c6f0e82866004811115611c0657611c06613557565b6040805192835260ff90911660208301520160405180910390a29392505050565b336000908152600b602052604090205460ff16611c565760405162461bcd60e51b8152600401610a6690613457565b611c5f826126d7565b611c7b5760405162461bcd60e51b8152600401610a669061347e565b600082815260076020526040902060140154600114611958576000611c9f836111f9565b905081811015611cc057600083815260076020526040812060060155611cdd565b611cca8183611976565b6000848152600760205260409020600601555b5050600090815260076020819052604090912043910155565b6000611d01826126d7565b611d1d5760405162461bcd60e51b8152600401610a669061347e565b5060009081526007602052604090206005015490565b611d3c836126d7565b611d7e5760405162461bcd60e51b815260206004820152601360248201527210da185c88191bd95cc81b9bdd08195e1a5cdd606a1b6044820152606401610a66565b33611d888461146b565b6001600160a01b031614611dae5760405162461bcd60e51b8152600401610a6690613457565b60008111611ded5760405162461bcd60e51b815260206004820152600c60248201526b125b9d985b1a59081cdb1bdd60a21b6044820152606401610a66565b80600103611e0a5760008381526007602052604090206015018290555b80600203611e275760008381526007602052604090206016018290555b80600303611e445760008381526007602052604090206017018290555b80600403611e615760008381526007602052604090206018018290555b80600503611e7e5760008381526007602052604090206019018290555b80600603611e9b576000838152600760205260409020601a018290555b80600703611eb8576000838152600760205260409020601b018290555b80600803611ed5576000838152600760205260409020601c018290555b80600903611ef2576000838152600760205260409020601d018290555b80600a03611f0f576000838152600760205260409020601e018290555b80600b03611f2c576000838152600760205260409020601f018290555b60408051848152602081018490529081018290527f4d71ce238d1218a1f21de645b44d8d791c8c42f634ae4b7a576c6c548ddb639d9060600160405180910390a1505050565b611f7c3383612896565b611f985760405162461bcd60e51b8152600401610a66906134ac565b611fa484848484612bcc565b50505050565b6000611fb5826126d7565b611fd15760405162461bcd60e51b8152600401610a669061347e565b6000828152600760205260408120600f810154600d90910154909161164c611ffc8461082188611812565b6000878152600760205260409020600401546108809085906120eb565b606061202482612616565b600061203b60408051602081019091526000815290565b9050600081511161205b5760405180602001604052806000815250611884565b8061206584612bff565b60405160200161207692919061356d565b6040516020818303038152906040529392505050565b6009546001600160a01b031633146120b65760405162461bcd60e51b8152600401610a6690613457565b600c8190556040518181527f3dc2199ccebb6b521944bbb446fd55ec36fc6b23c37808e7304ac55d535d3ac490602001610b67565b6000806120f8838561359c565b905083158061210f57508261210d858361350f565b145b6118845760405162461bcd60e51b815260206004820152600e60248201526d1cd85999535d5b0811985a5b195960921b6044820152606401610a66565b336121568661146b565b6001600160a01b03161461217c5760405162461bcd60e51b8152600401610a6690613457565b6000858152600760205260409020600101548410156121dd5760405162461bcd60e51b815260206004820152601b60248201527f537472656e6774682063616e27742062652064656372656173656400000000006044820152606401610a66565b60008581526007602052604090206002015483101561223e5760405162461bcd60e51b815260206004820152601a60248201527f4167696c6974792063616e2774206265206465637265617365640000000000006044820152606401610a66565b60008581526007602052604090206003015482101561229f5760405162461bcd60e51b815260206004820152601960248201527f456e657267792063616e277420626520646563726561736564000000000000006044820152606401610a66565b6000858152600760205260409020600401548110156123005760405162461bcd60e51b815260206004820152601b60248201527f566974616c6974792063616e27742062652064656372656173656400000000006044820152606401610a66565b600061230b8661127d565b9050600061231887612403565b9050600061232e87610880886108808989612519565b9050828111156123805760405162461bcd60e51b815260206004820152601e60248201527f547279696e6720746f6f2061646420746f6f206d616e7920706f696e747300006044820152606401610a66565b600088815260076020908152604091829020600181018a9055600281018990556003810188905560040186905581518a815290810189905290810187905260608101869052608081018590527f9e28895821cef6daa08da1e82406e8be9675974fd115ccca84e332e6c15cff8f9060a00160405180910390a15050505050505050565b6000818152600760205260408120600181015460028201546003830154600490930154610933936108809291839190612519565b6009546001600160a01b031633146124615760405162461bcd60e51b8152600401610a6690613457565b6001600160a01b0382166000818152600b6020908152604091829020805460ff19168515159081179091558251938452908301527f01c144ac08fce1689d8f39e7c6b611ff5de0a11668f47d49788f2d8add83669a91016111ed565b60006124c8826126d7565b6124e45760405162461bcd60e51b8152600401610a669061347e565b600d54600083815260076020526040902060040154610933916125069161350f565b6000848152600760205260409020600c01545b6000806125268385613531565b90508381101580156125385750828110155b6118845760405162461bcd60e51b815260206004820152600e60248201526d1cd859995059190811985a5b195960921b6044820152606401610a66565b60008061258e600561258885600a612c92565b90612c9e565b905061259b816002612caa565b601254909150611884906125b083607d612cfd565b90612d09565b60006125c1826126d7565b6125dd5760405162461bcd60e51b8152600401610a669061347e565b600c54600083815260076020526040902060040154610933916125ff9161350f565b600084815260076020526040902060090154612519565b61261f816126d7565b6126665760405162461bcd60e51b8152602060048201526018602482015277115490cdcc8c4e881a5b9d985b1a59081d1bdad95b88125160421b6044820152606401610a66565b50565b600081815260046020526040902080546001600160a01b0319166001600160a01b038416908117909155819061269e8261146b565b6001600160a01b03167f8c5be1e5ebec7d5bd14f71427d1e84f3dd0314c0f7b2291e5b200ac8c7c3b92560405160405180910390a45050565b6000908152600260205260409020546001600160a01b0316151590565b611958828260405180602001604052806000815250612d15565b612717826126d7565b6127335760405162461bcd60e51b8152600401610a669061347e565b60009182526007602081815260409384902083518155908301516001820155928201516002840155606082015160038401556080820151600484015560a0820151600584015560c0820151600684015560e08201519083015561010081015160088301556101208101516009830155610140810151600a830155610160810151600b830155610180810151600c8301556101a0810151600d8301556101c0810151600e8301556101e0810151600f830155610200810151601083015561022081015160118301556102408101516012830155610260810151601383015561028081015160148301556102a081015160158301556102c081015160168301556102e0810151601783015561030081015160188301556103208101516019830155610340810151601a830155610360810151601b830155610380810151601c8301556103a0810151601d8301556103c0810151601e8301556103e00151601f90910155565b6000806128a28361146b565b9050806001600160a01b0316846001600160a01b031614806128e957506001600160a01b0380821660009081526005602090815260408083209388168352929052205460ff165b806112f75750836001600160a01b0316612902846109cb565b6001600160a01b031614949350505050565b826001600160a01b03166129278261146b565b6001600160a01b03161461294d5760405162461bcd60e51b8152600401610a66906135b3565b6001600160a01b0382166129af5760405162461bcd60e51b8152602060048201526024808201527f4552433732313a207472616e7366657220746f20746865207a65726f206164646044820152637265737360e01b6064820152608401610a66565b826001600160a01b03166129c28261146b565b6001600160a01b0316146129e85760405162461bcd60e51b8152600401610a66906135b3565b600081815260046020908152604080832080546001600160a01b03199081169091556001600160a01b0387811680865260038552838620805460001901905590871680865283862080546001019055868652600290945282852080549092168417909155905184937fddf252ad1be2c89b69c2b068fc378daa952ba7f163c4a11628f55a4df523b3ef91a4505050565b6000818310612a875781611884565b5090919050565b60006003821115612aef5750806000612aa860028361350f565b612ab3906001613531565b90505b81811015612ae957905080600281612ace818661350f565b612ad89190613531565b612ae2919061350f565b9050612ab6565b50919050565b8115612af9575060015b919050565b816001600160a01b0316836001600160a01b031603612b5f5760405162461bcd60e51b815260206004820152601960248201527f4552433732313a20617070726f766520746f2063616c6c6572000000000000006044820152606401610a66565b6001600160a01b03838116600081815260056020908152604080832094871680845294825291829020805460ff191686151590811790915591519182527f17307eab39ab6107e8899845ad3d59bd9653f200f220920489ca2b5937696c31910160405180910390a3505050565b612bd7848484612914565b612be384848484612d48565b611fa45760405162461bcd60e51b8152600401610a66906135f8565b60606000612c0c83612e49565b600101905060008167ffffffffffffffff811115612c2c57612c2c6132c3565b6040519080825280601f01601f191660200182016040528015612c56576020820181803683370190505b5090508181016020015b600019016f181899199a1a9b1b9c1cb0b131b232b360811b600a86061a8153600a8504945084612c6057509392505050565b6000611884828461359c565b60006118848284613531565b600081600003612cbc57506001610933565b81600103612ccb575081610933565b8260015b83811015612cf557612ce18286612c92565b915080612ced8161364a565b915050612ccf565b509392505050565b60006118848284613544565b6000611884828461350f565b612d1f8383612f21565b612d2c6000848484612d48565b610b075760405162461bcd60e51b8152600401610a66906135f8565b60006001600160a01b0384163b15612e3e57604051630a85bd0160e11b81526001600160a01b0385169063150b7a0290612d8c903390899088908890600401613663565b6020604051808303816000875af1925050508015612dc7575060408051601f3d908101601f19168201909252612dc4918101906136a0565b60015b612e24573d808015612df5576040519150601f19603f3d011682016040523d82523d6000602084013e612dfa565b606091505b508051600003612e1c5760405162461bcd60e51b8152600401610a66906135f8565b805181602001fd5b6001600160e01b031916630a85bd0160e11b1490506112f7565b506001949350505050565b60008072184f03e93ff9f4daa797ed6e38ed64bf6a1f0160401b8310612e885772184f03e93ff9f4daa797ed6e38ed64bf6a1f0160401b830492506040015b6d04ee2d6d415b85acef81000000008310612eb4576d04ee2d6d415b85acef8100000000830492506020015b662386f26fc100008310612ed257662386f26fc10000830492506010015b6305f5e1008310612eea576305f5e100830492506008015b6127108310612efe57612710830492506004015b60648310612f10576064830492506002015b600a83106109335760010192915050565b6001600160a01b038216612f775760405162461bcd60e51b815260206004820181905260248201527f4552433732313a206d696e7420746f20746865207a65726f20616464726573736044820152606401610a66565b612f80816126d7565b15612fcd5760405162461bcd60e51b815260206004820152601c60248201527f4552433732313a20746f6b656e20616c7265616479206d696e746564000000006044820152606401610a66565b612fd6816126d7565b156130235760405162461bcd60e51b815260206004820152601c60248201527f4552433732313a20746f6b656e20616c7265616479206d696e746564000000006044820152606401610a66565b6001600160a01b038216600081815260036020908152604080832080546001019055848352600290915280822080546001600160a01b0319168417905551839291907fddf252ad1be2c89b69c2b068fc378daa952ba7f163c4a11628f55a4df523b3ef908290a45050565b6001600160e01b03198116811461266657600080fd5b6000602082840312156130b657600080fd5b81356118848161308e565b60005b838110156130dc5781810151838201526020016130c4565b50506000910152565b600081518084526130fd8160208601602086016130c1565b601f01601f19169290920160200192915050565b60208152600061188460208301846130e5565b60006020828403121561313657600080fd5b5035919050565b80356001600160a01b0381168114612af957600080fd5b6000806040838503121561316757600080fd5b6131708361313d565b946020939093013593505050565b60006020828403121561319057600080fd5b6118848261313d565b60008060008060008060c087890312156131b257600080fd5b505084359660208601359650604086013595606081013595506080810135945060a0013592509050565b6000806000606084860312156131f157600080fd5b6131fa8461313d565b92506132086020850161313d565b9150604084013590509250925092565b6000806040838503121561322b57600080fd5b50508035926020909101359150565b6000806040838503121561324d57600080fd5b6132568361313d565b91506020830135801515811461326b57600080fd5b809150509250929050565b60006020828403121561328857600080fd5b81356005811061188457600080fd5b6000806000606084860312156132ac57600080fd5b505081359360208301359350604090920135919050565b634e487b7160e01b600052604160045260246000fd5b600080600080608085870312156132ef57600080fd5b6132f88561313d565b93506133066020860161313d565b925060408501359150606085013567ffffffffffffffff8082111561332a57600080fd5b818701915087601f83011261333e57600080fd5b813581811115613350576133506132c3565b604051601f8201601f19908116603f01168101908382118183101715613378576133786132c3565b816040528281528a602084870101111561339157600080fd5b82602086016020830137600060208483010152809550505050505092959194509250565b600080600080600060a086880312156133cd57600080fd5b505083359560208501359550604085013594606081013594506080013592509050565b6000806040838503121561340357600080fd5b61340c8361313d565b915061341a6020840161313d565b90509250929050565b600181811c9082168061343757607f821691505b602082108103612ae957634e487b7160e01b600052602260045260246000fd5b6020808252600d908201526c1058d8d95cdcc811195b9a5959609a1b604082015260600190565b602080825260149082015273151bdad95b88191bd95cc81b9bdd08195e1a5cdd60621b604082015260600190565b6020808252602d908201527f4552433732313a2063616c6c6572206973206e6f7420746f6b656e206f776e6560408201526c1c881bdc88185c1c1c9bdd9959609a1b606082015260800190565b634e487b7160e01b600052601160045260246000fd5b60008261352c57634e487b7160e01b600052601260045260246000fd5b500490565b80820180821115610933576109336134f9565b81810381811115610933576109336134f9565b634e487b7160e01b600052602160045260246000fd5b6000835161357f8184602088016130c1565b8351908301906135938183602088016130c1565b01949350505050565b8082028115828204841417610933576109336134f9565b60208082526025908201527f4552433732313a207472616e736665722066726f6d20696e636f72726563742060408201526437bbb732b960d91b606082015260800190565b60208082526032908201527f4552433732313a207472616e7366657220746f206e6f6e20455243373231526560408201527131b2b4bb32b91034b6b83632b6b2b73a32b960711b606082015260800190565b60006001820161365c5761365c6134f9565b5060010190565b6001600160a01b0385811682528416602082015260408101839052608060608201819052600090613696908301846130e5565b9695505050505050565b6000602082840312156136b257600080fd5b81516118848161308e56fea264697066735822122009eae49c7c04bdca43db044bb7f60476c53a5fde80c0072960129d4ab9ec9d2664736f6c63430008130033",
			"opcodes": "PUSH1 0x80 PUSH1 0x40 MSTORE PUSH1 0x8 PUSH1 0xC SSTORE PUSH1 0x8 PUSH1 0xD SSTORE PUSH1 0x4 PUSH1 0xE SSTORE PUSH1 0x8 PUSH1 0xF SSTORE PUSH1 0x8 PUSH1 0x10 SSTORE PUSH4 0x115D88A4 PUSH1 0x11 SSTORE PUSH1 0x5 PUSH1 0x12 SSTORE CALLVALUE DUP1 ISZERO PUSH3 0x37 JUMPI PUSH1 0x0 DUP1 REVERT JUMPDEST POP PUSH1 0x40 MLOAD DUP1 PUSH1 0x40 ADD PUSH1 0x40 MSTORE DUP1 PUSH1 0x7 DUP2 MSTORE PUSH1 0x20 ADD PUSH7 0x436F6D62617473 PUSH1 0xC8 SHL DUP2 MSTORE POP PUSH1 0x40 MLOAD DUP1 PUSH1 0x40 ADD PUSH1 0x40 MSTORE DUP1 PUSH1 0x7 DUP2 MSTORE PUSH1 0x20 ADD PUSH7 0x2334B3B43A32B9 PUSH1 0xC9 SHL DUP2 MSTORE POP DUP2 PUSH1 0x0 SWAP1 DUP2 PUSH3 0x89 SWAP2 SWAP1 PUSH3 0xB08 JUMP JUMPDEST POP PUSH1 0x1 PUSH3 0x98 DUP3 DUP3 PUSH3 0xB08 JUMP JUMPDEST POP POP POP PUSH1 0x40 MLOAD DUP1 PUSH2 0x400 ADD PUSH1 0x40 MSTORE DUP1 PUSH1 0x0 DUP2 MSTORE PUSH1 0x20 ADD PUSH1 0x2A DUP2 MSTORE PUSH1 0x20 ADD PUSH1 0x15 DUP2 MSTORE PUSH1 0x20 ADD PUSH1 0x5 DUP2 MSTORE PUSH1 0x20 ADD PUSH1 0x14 DUP2 MSTORE PUSH1 0x20 ADD PUSH1 0x0 DUP2 MSTORE PUSH1 0x20 ADD PUSH1 0x0 DUP2 MSTORE PUSH1 0x20 ADD PUSH1 0x0 DUP2 MSTORE PUSH1 0x20 ADD PUSH1 0x1 DUP2 MSTORE PUSH1 0x20 ADD PUSH1 0x0 DUP2 MSTORE PUSH1 0x20 ADD PUSH1 0x0 DUP2 MSTORE PUSH1 0x20 ADD PUSH1 0x0 DUP2 MSTORE PUSH1 0x20 ADD PUSH1 0x0 DUP2 MSTORE PUSH1 0x20 ADD PUSH1 0x5 DUP2 MSTORE PUSH1 0x20 ADD PUSH1 0x5 DUP2 MSTORE PUSH1 0x20 ADD PUSH1 0x5 DUP2 MSTORE PUSH1 0x20 ADD PUSH1 0x1 DUP2 MSTORE PUSH1 0x20 ADD PUSH1 0x5 DUP2 MSTORE PUSH1 0x20 ADD PUSH1 0x1B DUP2 MSTORE PUSH1 0x20 ADD PUSH1 0x7 DUP2 MSTORE PUSH1 0x20 ADD PUSH1 0x0 DUP2 MSTORE PUSH1 0x20 ADD PUSH1 0x0 DUP2 MSTORE PUSH1 0x20 ADD PUSH1 0x0 DUP2 MSTORE PUSH1 0x20 ADD PUSH1 0x0 DUP2 MSTORE PUSH1 0x20 ADD PUSH1 0x0 DUP2 MSTORE PUSH1 0x20 ADD PUSH1 0x0 DUP2 MSTORE PUSH1 0x20 ADD PUSH1 0x0 DUP2 MSTORE PUSH1 0x20 ADD PUSH1 0x0 DUP2 MSTORE PUSH1 0x20 ADD PUSH1 0x0 DUP2 MSTORE PUSH1 0x20 ADD PUSH1 0x0 DUP2 MSTORE PUSH1 0x20 ADD PUSH1 0x0 DUP2 MSTORE PUSH1 0x20 ADD PUSH1 0x0 DUP2 MSTORE POP PUSH1 0x6 PUSH1 0x0 PUSH1 0x1 PUSH1 0x4 DUP2 GT ISZERO PUSH3 0x19F JUMPI PUSH3 0x19F PUSH3 0xBD4 JUMP JUMPDEST DUP2 MSTORE PUSH1 0x20 ADD SWAP1 DUP2 MSTORE PUSH1 0x20 ADD PUSH1 0x0 KECCAK256 PUSH1 0x0 DUP3 ADD MLOAD DUP2 PUSH1 0x0 ADD SSTORE PUSH1 0x20 DUP3 ADD MLOAD DUP2 PUSH1 0x1 ADD SSTORE PUSH1 0x40 DUP3 ADD MLOAD DUP2 PUSH1 0x2 ADD SSTORE PUSH1 0x60 DUP3 ADD MLOAD DUP2 PUSH1 0x3 ADD SSTORE PUSH1 0x80 DUP3 ADD MLOAD DUP2 PUSH1 0x4 ADD SSTORE PUSH1 0xA0 DUP3 ADD MLOAD DUP2 PUSH1 0x5 ADD SSTORE PUSH1 0xC0 DUP3 ADD MLOAD DUP2 PUSH1 0x6 ADD SSTORE PUSH1 0xE0 DUP3 ADD MLOAD DUP2 PUSH1 0x7 ADD SSTORE PUSH2 0x100 DUP3 ADD MLOAD DUP2 PUSH1 0x8 ADD SSTORE PUSH2 0x120 DUP3 ADD MLOAD DUP2 PUSH1 0x9 ADD SSTORE PUSH2 0x140 DUP3 ADD MLOAD DUP2 PUSH1 0xA ADD SSTORE PUSH2 0x160 DUP3 ADD MLOAD DUP2 PUSH1 0xB ADD SSTORE PUSH2 0x180 DUP3 ADD MLOAD DUP2 PUSH1 0xC ADD SSTORE PUSH2 0x1A0 DUP3 ADD MLOAD DUP2 PUSH1 0xD ADD SSTORE PUSH2 0x1C0 DUP3 ADD MLOAD DUP2 PUSH1 0xE ADD SSTORE PUSH2 0x1E0 DUP3 ADD MLOAD DUP2 PUSH1 0xF ADD SSTORE PUSH2 0x200 DUP3 ADD MLOAD DUP2 PUSH1 0x10 ADD SSTORE PUSH2 0x220 DUP3 ADD MLOAD DUP2 PUSH1 0x11 ADD SSTORE PUSH2 0x240 DUP3 ADD MLOAD DUP2 PUSH1 0x12 ADD SSTORE PUSH2 0x260 DUP3 ADD MLOAD DUP2 PUSH1 0x13 ADD SSTORE PUSH2 0x280 DUP3 ADD MLOAD DUP2 PUSH1 0x14 ADD SSTORE PUSH2 0x2A0 DUP3 ADD MLOAD DUP2 PUSH1 0x15 ADD SSTORE PUSH2 0x2C0 DUP3 ADD MLOAD DUP2 PUSH1 0x16 ADD SSTORE PUSH2 0x2E0 DUP3 ADD MLOAD DUP2 PUSH1 0x17 ADD SSTORE PUSH2 0x300 DUP3 ADD MLOAD DUP2 PUSH1 0x18 ADD SSTORE PUSH2 0x320 DUP3 ADD MLOAD DUP2 PUSH1 0x19 ADD SSTORE PUSH2 0x340 DUP3 ADD MLOAD DUP2 PUSH1 0x1A ADD SSTORE PUSH2 0x360 DUP3 ADD MLOAD DUP2 PUSH1 0x1B ADD SSTORE PUSH2 0x380 DUP3 ADD MLOAD DUP2 PUSH1 0x1C ADD SSTORE PUSH2 0x3A0 DUP3 ADD MLOAD DUP2 PUSH1 0x1D ADD SSTORE PUSH2 0x3C0 DUP3 ADD MLOAD DUP2 PUSH1 0x1E ADD SSTORE PUSH2 0x3E0 DUP3 ADD MLOAD DUP2 PUSH1 0x1F ADD SSTORE SWAP1 POP POP PUSH1 0x40 MLOAD DUP1 PUSH2 0x400 ADD PUSH1 0x40 MSTORE DUP1 PUSH1 0x0 DUP2 MSTORE PUSH1 0x20 ADD PUSH1 0xF DUP2 MSTORE PUSH1 0x20 ADD PUSH1 0x14 DUP2 MSTORE PUSH1 0x20 ADD PUSH1 0x32 DUP2 MSTORE PUSH1 0x20 ADD PUSH1 0x14 DUP2 MSTORE PUSH1 0x20 ADD PUSH1 0x0 DUP2 MSTORE PUSH1 0x20 ADD PUSH1 0x0 DUP2 MSTORE PUSH1 0x20 ADD PUSH1 0x0 DUP2 MSTORE PUSH1 0x20 ADD PUSH1 0x2 DUP2 MSTORE PUSH1 0x20 ADD PUSH1 0x0 DUP2 MSTORE PUSH1 0x20 ADD PUSH1 0x0 DUP2 MSTORE PUSH1 0x20 ADD PUSH1 0x0 DUP2 MSTORE PUSH1 0x20 ADD PUSH1 0x0 DUP2 MSTORE PUSH1 0x20 ADD PUSH1 0x3 DUP2 MSTORE PUSH1 0x20 ADD PUSH1 0xA DUP2 MSTORE PUSH1 0x20 ADD PUSH1 0x3 DUP2 MSTORE PUSH1 0x20 ADD PUSH1 0x5 DUP2 MSTORE PUSH1 0x20 ADD PUSH1 0x5 DUP2 MSTORE PUSH1 0x20 ADD PUSH1 0x10 DUP2 MSTORE PUSH1 0x20 ADD PUSH1 0x5 DUP2 MSTORE PUSH1 0x20 ADD PUSH1 0x0 DUP2 MSTORE PUSH1 0x20 ADD PUSH1 0x0 DUP2 MSTORE PUSH1 0x20 ADD PUSH1 0x0 DUP2 MSTORE PUSH1 0x20 ADD PUSH1 0x0 DUP2 MSTORE PUSH1 0x20 ADD PUSH1 0x0 DUP2 MSTORE PUSH1 0x20 ADD PUSH1 0x0 DUP2 MSTORE PUSH1 0x20 ADD PUSH1 0x0 DUP2 MSTORE PUSH1 0x20 ADD PUSH1 0x0 DUP2 MSTORE PUSH1 0x20 ADD PUSH1 0x0 DUP2 MSTORE PUSH1 0x20 ADD PUSH1 0x0 DUP2 MSTORE PUSH1 0x20 ADD PUSH1 0x0 DUP2 MSTORE PUSH1 0x20 ADD PUSH1 0x0 DUP2 MSTORE POP PUSH1 0x6 PUSH1 0x0 PUSH1 0x2 PUSH1 0x4 DUP2 GT ISZERO PUSH3 0x40C JUMPI PUSH3 0x40C PUSH3 0xBD4 JUMP JUMPDEST DUP2 MSTORE PUSH1 0x20 ADD SWAP1 DUP2 MSTORE PUSH1 0x20 ADD PUSH1 0x0 KECCAK256 PUSH1 0x0 DUP3 ADD MLOAD DUP2 PUSH1 0x0 ADD SSTORE PUSH1 0x20 DUP3 ADD MLOAD DUP2 PUSH1 0x1 ADD SSTORE PUSH1 0x40 DUP3 ADD MLOAD DUP2 PUSH1 0x2 ADD SSTORE PUSH1 0x60 DUP3 ADD MLOAD DUP2 PUSH1 0x3 ADD SSTORE PUSH1 0x80 DUP3 ADD MLOAD DUP2 PUSH1 0x4 ADD SSTORE PUSH1 0xA0 DUP3 ADD MLOAD DUP2 PUSH1 0x5 ADD SSTORE PUSH1 0xC0 DUP3 ADD MLOAD DUP2 PUSH1 0x6 ADD SSTORE PUSH1 0xE0 DUP3 ADD MLOAD DUP2 PUSH1 0x7 ADD SSTORE PUSH2 0x100 DUP3 ADD MLOAD DUP2 PUSH1 0x8 ADD SSTORE PUSH2 0x120 DUP3 ADD MLOAD DUP2 PUSH1 0x9 ADD SSTORE PUSH2 0x140 DUP3 ADD MLOAD DUP2 PUSH1 0xA ADD SSTORE PUSH2 0x160 DUP3 ADD MLOAD DUP2 PUSH1 0xB ADD SSTORE PUSH2 0x180 DUP3 ADD MLOAD DUP2 PUSH1 0xC ADD SSTORE PUSH2 0x1A0 DUP3 ADD MLOAD DUP2 PUSH1 0xD ADD SSTORE PUSH2 0x1C0 DUP3 ADD MLOAD DUP2 PUSH1 0xE ADD SSTORE PUSH2 0x1E0 DUP3 ADD MLOAD DUP2 PUSH1 0xF ADD SSTORE PUSH2 0x200 DUP3 ADD MLOAD DUP2 PUSH1 0x10 ADD SSTORE PUSH2 0x220 DUP3 ADD MLOAD DUP2 PUSH1 0x11 ADD SSTORE PUSH2 0x240 DUP3 ADD MLOAD DUP2 PUSH1 0x12 ADD SSTORE PUSH2 0x260 DUP3 ADD MLOAD DUP2 PUSH1 0x13 ADD SSTORE PUSH2 0x280 DUP3 ADD MLOAD DUP2 PUSH1 0x14 ADD SSTORE PUSH2 0x2A0 DUP3 ADD MLOAD DUP2 PUSH1 0x15 ADD SSTORE PUSH2 0x2C0 DUP3 ADD MLOAD DUP2 PUSH1 0x16 ADD SSTORE PUSH2 0x2E0 DUP3 ADD MLOAD DUP2 PUSH1 0x17 ADD SSTORE PUSH2 0x300 DUP3 ADD MLOAD DUP2 PUSH1 0x18 ADD SSTORE PUSH2 0x320 DUP3 ADD MLOAD DUP2 PUSH1 0x19 ADD SSTORE PUSH2 0x340 DUP3 ADD MLOAD DUP2 PUSH1 0x1A ADD SSTORE PUSH2 0x360 DUP3 ADD MLOAD DUP2 PUSH1 0x1B ADD SSTORE PUSH2 0x380 DUP3 ADD MLOAD DUP2 PUSH1 0x1C ADD SSTORE PUSH2 0x3A0 DUP3 ADD MLOAD DUP2 PUSH1 0x1D ADD SSTORE PUSH2 0x3C0 DUP3 ADD MLOAD DUP2 PUSH1 0x1E ADD SSTORE PUSH2 0x3E0 DUP3 ADD MLOAD DUP2 PUSH1 0x1F ADD SSTORE SWAP1 POP POP PUSH1 0x40 MLOAD DUP1 PUSH2 0x400 ADD PUSH1 0x40 MSTORE DUP1 PUSH1 0x0 DUP2 MSTORE PUSH1 0x20 ADD PUSH1 0x14 DUP2 MSTORE PUSH1 0x20 ADD PUSH1 0x19 DUP2 MSTORE PUSH1 0x20 ADD PUSH1 0xF DUP2 MSTORE PUSH1 0x20 ADD PUSH1 0x14 DUP2 MSTORE PUSH1 0x20 ADD PUSH1 0x0 DUP2 MSTORE PUSH1 0x20 ADD PUSH1 0x0 DUP2 MSTORE PUSH1 0x20 ADD PUSH1 0x0 DUP2 MSTORE PUSH1 0x20 ADD PUSH1 0x3 DUP2 MSTORE PUSH1 0x20 ADD PUSH1 0x0 DUP2 MSTORE PUSH1 0x20 ADD PUSH1 0x0 DUP2 MSTORE PUSH1 0x20 ADD PUSH1 0x0 DUP2 MSTORE PUSH1 0x20 ADD PUSH1 0x0 DUP2 MSTORE PUSH1 0x20 ADD PUSH1 0x3 DUP2 MSTORE PUSH1 0x20 ADD PUSH1 0x5 DUP2 MSTORE PUSH1 0x20 ADD PUSH1 0x3 DUP2 MSTORE PUSH1 0x20 ADD PUSH1 0x4 DUP2 MSTORE PUSH1 0x20 ADD PUSH1 0x5 DUP2 MSTORE PUSH1 0x20 ADD PUSH1 0xC DUP2 MSTORE PUSH1 0x20 ADD PUSH1 0x5 DUP2 MSTORE PUSH1 0x20 ADD PUSH1 0x0 DUP2 MSTORE PUSH1 0x20 ADD PUSH1 0x0 DUP2 MSTORE PUSH1 0x20 ADD PUSH1 0x0 DUP2 MSTORE PUSH1 0x20 ADD PUSH1 0x0 DUP2 MSTORE PUSH1 0x20 ADD PUSH1 0x0 DUP2 MSTORE PUSH1 0x20 ADD PUSH1 0x0 DUP2 MSTORE PUSH1 0x20 ADD PUSH1 0x0 DUP2 MSTORE PUSH1 0x20 ADD PUSH1 0x0 DUP2 MSTORE PUSH1 0x20 ADD PUSH1 0x0 DUP2 MSTORE PUSH1 0x20 ADD PUSH1 0x0 DUP2 MSTORE PUSH1 0x20 ADD PUSH1 0x0 DUP2 MSTORE PUSH1 0x20 ADD PUSH1 0x0 DUP2 MSTORE POP PUSH1 0x6 PUSH1 0x0 PUSH1 0x3 PUSH1 0x4 DUP2 GT ISZERO PUSH3 0x679 JUMPI PUSH3 0x679 PUSH3 0xBD4 JUMP JUMPDEST DUP2 MSTORE PUSH1 0x20 ADD SWAP1 DUP2 MSTORE PUSH1 0x20 ADD PUSH1 0x0 KECCAK256 PUSH1 0x0 DUP3 ADD MLOAD DUP2 PUSH1 0x0 ADD SSTORE PUSH1 0x20 DUP3 ADD MLOAD DUP2 PUSH1 0x1 ADD SSTORE PUSH1 0x40 DUP3 ADD MLOAD DUP2 PUSH1 0x2 ADD SSTORE PUSH1 0x60 DUP3 ADD MLOAD DUP2 PUSH1 0x3 ADD SSTORE PUSH1 0x80 DUP3 ADD MLOAD DUP2 PUSH1 0x4 ADD SSTORE PUSH1 0xA0 DUP3 ADD MLOAD DUP2 PUSH1 0x5 ADD SSTORE PUSH1 0xC0 DUP3 ADD MLOAD DUP2 PUSH1 0x6 ADD SSTORE PUSH1 0xE0 DUP3 ADD MLOAD DUP2 PUSH1 0x7 ADD SSTORE PUSH2 0x100 DUP3 ADD MLOAD DUP2 PUSH1 0x8 ADD SSTORE PUSH2 0x120 DUP3 ADD MLOAD DUP2 PUSH1 0x9 ADD SSTORE PUSH2 0x140 DUP3 ADD MLOAD DUP2 PUSH1 0xA ADD SSTORE PUSH2 0x160 DUP3 ADD MLOAD DUP2 PUSH1 0xB ADD SSTORE PUSH2 0x180 DUP3 ADD MLOAD DUP2 PUSH1 0xC ADD SSTORE PUSH2 0x1A0 DUP3 ADD MLOAD DUP2 PUSH1 0xD ADD SSTORE PUSH2 0x1C0 DUP3 ADD MLOAD DUP2 PUSH1 0xE ADD SSTORE PUSH2 0x1E0 DUP3 ADD MLOAD DUP2 PUSH1 0xF ADD SSTORE PUSH2 0x200 DUP3 ADD MLOAD DUP2 PUSH1 0x10 ADD SSTORE PUSH2 0x220 DUP3 ADD MLOAD DUP2 PUSH1 0x11 ADD SSTORE PUSH2 0x240 DUP3 ADD MLOAD DUP2 PUSH1 0x12 ADD SSTORE PUSH2 0x260 DUP3 ADD MLOAD DUP2 PUSH1 0x13 ADD SSTORE PUSH2 0x280 DUP3 ADD MLOAD DUP2 PUSH1 0x14 ADD SSTORE PUSH2 0x2A0 DUP3 ADD MLOAD DUP2 PUSH1 0x15 ADD SSTORE PUSH2 0x2C0 DUP3 ADD MLOAD DUP2 PUSH1 0x16 ADD SSTORE PUSH2 0x2E0 DUP3 ADD MLOAD DUP2 PUSH1 0x17 ADD SSTORE PUSH2 0x300 DUP3 ADD MLOAD DUP2 PUSH1 0x18 ADD SSTORE PUSH2 0x320 DUP3 ADD MLOAD DUP2 PUSH1 0x19 ADD SSTORE PUSH2 0x340 DUP3 ADD MLOAD DUP2 PUSH1 0x1A ADD SSTORE PUSH2 0x360 DUP3 ADD MLOAD DUP2 PUSH1 0x1B ADD SSTORE PUSH2 0x380 DUP3 ADD MLOAD DUP2 PUSH1 0x1C ADD SSTORE PUSH2 0x3A0 DUP3 ADD MLOAD DUP2 PUSH1 0x1D ADD SSTORE PUSH2 0x3C0 DUP3 ADD MLOAD DUP2 PUSH1 0x1E ADD SSTORE PUSH2 0x3E0 DUP3 ADD MLOAD DUP2 PUSH1 0x1F ADD SSTORE SWAP1 POP POP PUSH1 0x40 MLOAD DUP1 PUSH2 0x400 ADD PUSH1 0x40 MSTORE DUP1 PUSH1 0x0 DUP2 MSTORE PUSH1 0x20 ADD PUSH1 0x1C DUP2 MSTORE PUSH1 0x20 ADD PUSH1 0xE DUP2 MSTORE PUSH1 0x20 ADD PUSH1 0x14 DUP2 MSTORE PUSH1 0x20 ADD PUSH1 0x14 DUP2 MSTORE PUSH1 0x20 ADD PUSH1 0x0 DUP2 MSTORE PUSH1 0x20 ADD PUSH1 0x0 DUP2 MSTORE PUSH1 0x20 ADD PUSH1 0x0 DUP2 MSTORE PUSH1 0x20 ADD PUSH1 0x4 DUP2 MSTORE PUSH1 0x20 ADD PUSH1 0x0 DUP2 MSTORE PUSH1 0x20 ADD PUSH1 0x0 DUP2 MSTORE PUSH1 0x20 ADD PUSH1 0x0 DUP2 MSTORE PUSH1 0x20 ADD PUSH1 0x0 DUP2 MSTORE PUSH1 0x20 ADD PUSH1 0x4 DUP2 MSTORE PUSH1 0x20 ADD PUSH1 0x7 DUP2 MSTORE PUSH1 0x20 ADD PUSH1 0x6 DUP2 MSTORE PUSH1 0x20 ADD PUSH1 0x2 DUP2 MSTORE PUSH1 0x20 ADD PUSH1 0x7 DUP2 MSTORE PUSH1 0x20 ADD PUSH1 0x17 DUP2 MSTORE PUSH1 0x20 ADD PUSH1 0x7 DUP2 MSTORE PUSH1 0x20 ADD PUSH1 0x0 DUP2 MSTORE PUSH1 0x20 ADD PUSH1 0x0 DUP2 MSTORE PUSH1 0x20 ADD PUSH1 0x0 DUP2 MSTORE PUSH1 0x20 ADD PUSH1 0x0 DUP2 MSTORE PUSH1 0x20 ADD PUSH1 0x0 DUP2 MSTORE PUSH1 0x20 ADD PUSH1 0x0 DUP2 MSTORE PUSH1 0x20 ADD PUSH1 0x0 DUP2 MSTORE PUSH1 0x20 ADD PUSH1 0x0 DUP2 MSTORE PUSH1 0x20 ADD PUSH1 0x0 DUP2 MSTORE PUSH1 0x20 ADD PUSH1 0x0 DUP2 MSTORE PUSH1 0x20 ADD PUSH1 0x0 DUP2 MSTORE PUSH1 0x20 ADD PUSH1 0x0 DUP2 MSTORE POP PUSH1 0x6 PUSH1 0x0 PUSH1 0x4 DUP1 DUP2 GT ISZERO PUSH3 0x8E5 JUMPI PUSH3 0x8E5 PUSH3 0xBD4 JUMP JUMPDEST DUP2 MSTORE PUSH1 0x20 DUP1 DUP3 ADD SWAP3 SWAP1 SWAP3 MSTORE PUSH1 0x40 SWAP1 DUP2 ADD PUSH1 0x0 KECCAK256 DUP4 MLOAD DUP2 SSTORE SWAP2 DUP4 ADD MLOAD PUSH1 0x1 DUP4 ADD SSTORE DUP3 ADD MLOAD PUSH1 0x2 DUP3 ADD SSTORE PUSH1 0x60 DUP3 ADD MLOAD PUSH1 0x3 DUP3 ADD SSTORE PUSH1 0x80 DUP3 ADD MLOAD PUSH1 0x4 DUP3 ADD SSTORE PUSH1 0xA0 DUP3 ADD MLOAD PUSH1 0x5 DUP3 ADD SSTORE PUSH1 0xC0 DUP3 ADD MLOAD PUSH1 0x6 DUP3 ADD SSTORE PUSH1 0xE0 DUP3 ADD MLOAD PUSH1 0x7 DUP3 ADD SSTORE PUSH2 0x100 DUP3 ADD MLOAD PUSH1 0x8 DUP3 ADD SSTORE PUSH2 0x120 DUP3 ADD MLOAD PUSH1 0x9 DUP1 DUP4 ADD SWAP2 SWAP1 SWAP2 SSTORE PUSH2 0x140 DUP4 ADD MLOAD PUSH1 0xA DUP4 ADD SSTORE PUSH2 0x160 DUP4 ADD MLOAD PUSH1 0xB DUP4 ADD SSTORE PUSH2 0x180 DUP4 ADD MLOAD PUSH1 0xC DUP4 ADD SSTORE PUSH2 0x1A0 DUP4 ADD MLOAD PUSH1 0xD DUP4 ADD SSTORE PUSH2 0x1C0 DUP4 ADD MLOAD PUSH1 0xE DUP4 ADD SSTORE PUSH2 0x1E0 DUP4 ADD MLOAD PUSH1 0xF DUP4 ADD SSTORE PUSH2 0x200 DUP4 ADD MLOAD PUSH1 0x10 DUP4 ADD SSTORE PUSH2 0x220 DUP4 ADD MLOAD PUSH1 0x11 DUP4 ADD SSTORE PUSH2 0x240 DUP4 ADD MLOAD PUSH1 0x12 DUP4 ADD SSTORE PUSH2 0x260 DUP4 ADD MLOAD PUSH1 0x13 DUP4 ADD SSTORE PUSH2 0x280 DUP4 ADD MLOAD PUSH1 0x14 DUP4 ADD SSTORE PUSH2 0x2A0 DUP4 ADD MLOAD PUSH1 0x15 DUP4 ADD SSTORE PUSH2 0x2C0 DUP4 ADD MLOAD PUSH1 0x16 DUP4 ADD SSTORE PUSH2 0x2E0 DUP4 ADD MLOAD PUSH1 0x17 DUP4 ADD SSTORE PUSH2 0x300 DUP4 ADD MLOAD PUSH1 0x18 DUP4 ADD SSTORE PUSH2 0x320 DUP4 ADD MLOAD PUSH1 0x19 DUP4 ADD SSTORE PUSH2 0x340 DUP4 ADD MLOAD PUSH1 0x1A DUP4 ADD SSTORE PUSH2 0x360 DUP4 ADD MLOAD PUSH1 0x1B DUP4 ADD SSTORE PUSH2 0x380 DUP4 ADD MLOAD PUSH1 0x1C DUP4 ADD SSTORE PUSH2 0x3A0 DUP4 ADD MLOAD PUSH1 0x1D DUP4 ADD SSTORE PUSH2 0x3C0 DUP4 ADD MLOAD PUSH1 0x1E DUP4 ADD SSTORE PUSH2 0x3E0 SWAP1 SWAP3 ADD MLOAD PUSH1 0x1F SWAP1 SWAP2 ADD SSTORE DUP1 SLOAD PUSH1 0x1 PUSH1 0x1 PUSH1 0xA0 SHL SUB NOT AND CALLER OR SWAP1 SSTORE PUSH3 0xBEA JUMP JUMPDEST PUSH4 0x4E487B71 PUSH1 0xE0 SHL PUSH1 0x0 MSTORE PUSH1 0x41 PUSH1 0x4 MSTORE PUSH1 0x24 PUSH1 0x0 REVERT JUMPDEST PUSH1 0x1 DUP2 DUP2 SHR SWAP1 DUP3 AND DUP1 PUSH3 0xA8E JUMPI PUSH1 0x7F DUP3 AND SWAP2 POP JUMPDEST PUSH1 0x20 DUP3 LT DUP2 SUB PUSH3 0xAAF JUMPI PUSH4 0x4E487B71 PUSH1 0xE0 SHL PUSH1 0x0 MSTORE PUSH1 0x22 PUSH1 0x4 MSTORE PUSH1 0x24 PUSH1 0x0 REVERT JUMPDEST POP SWAP2 SWAP1 POP JUMP JUMPDEST PUSH1 0x1F DUP3 GT ISZERO PUSH3 0xB03 JUMPI PUSH1 0x0 DUP2 DUP2 MSTORE PUSH1 0x20 DUP2 KECCAK256 PUSH1 0x1F DUP6 ADD PUSH1 0x5 SHR DUP2 ADD PUSH1 0x20 DUP7 LT ISZERO PUSH3 0xADE JUMPI POP DUP1 JUMPDEST PUSH1 0x1F DUP6 ADD PUSH1 0x5 SHR DUP3 ADD SWAP2 POP JUMPDEST DUP2 DUP2 LT ISZERO PUSH3 0xAFF JUMPI DUP3 DUP2 SSTORE PUSH1 0x1 ADD PUSH3 0xAEA JUMP JUMPDEST POP POP POP JUMPDEST POP POP POP JUMP JUMPDEST DUP2 MLOAD PUSH1 0x1 PUSH1 0x1 PUSH1 0x40 SHL SUB DUP2 GT ISZERO PUSH3 0xB24 JUMPI PUSH3 0xB24 PUSH3 0xA63 JUMP JUMPDEST PUSH3 0xB3C DUP2 PUSH3 0xB35 DUP5 SLOAD PUSH3 0xA79 JUMP JUMPDEST DUP5 PUSH3 0xAB5 JUMP JUMPDEST PUSH1 0x20 DUP1 PUSH1 0x1F DUP4 GT PUSH1 0x1 DUP2 EQ PUSH3 0xB74 JUMPI PUSH1 0x0 DUP5 ISZERO PUSH3 0xB5B JUMPI POP DUP6 DUP4 ADD MLOAD JUMPDEST PUSH1 0x0 NOT PUSH1 0x3 DUP7 SWAP1 SHL SHR NOT AND PUSH1 0x1 DUP6 SWAP1 SHL OR DUP6 SSTORE PUSH3 0xAFF JUMP JUMPDEST PUSH1 0x0 DUP6 DUP2 MSTORE PUSH1 0x20 DUP2 KECCAK256 PUSH1 0x1F NOT DUP7 AND SWAP2 JUMPDEST DUP3 DUP2 LT ISZERO PUSH3 0xBA5 JUMPI DUP9 DUP7 ADD MLOAD DUP3 SSTORE SWAP5 DUP5 ADD SWAP5 PUSH1 0x1 SWAP1 SWAP2 ADD SWAP1 DUP5 ADD PUSH3 0xB84 JUMP JUMPDEST POP DUP6 DUP3 LT ISZERO PUSH3 0xBC4 JUMPI DUP8 DUP6 ADD MLOAD PUSH1 0x0 NOT PUSH1 0x3 DUP9 SWAP1 SHL PUSH1 0xF8 AND SHR NOT AND DUP2 SSTORE JUMPDEST POP POP POP POP POP PUSH1 0x1 SWAP1 DUP2 SHL ADD SWAP1 SSTORE POP JUMP JUMPDEST PUSH4 0x4E487B71 PUSH1 0xE0 SHL PUSH1 0x0 MSTORE PUSH1 0x21 PUSH1 0x4 MSTORE PUSH1 0x24 PUSH1 0x0 REVERT JUMPDEST PUSH2 0x36F3 DUP1 PUSH3 0xBFA PUSH1 0x0 CODECOPY PUSH1 0x0 RETURN INVALID PUSH1 0x80 PUSH1 0x40 MSTORE CALLVALUE DUP1 ISZERO PUSH2 0x10 JUMPI PUSH1 0x0 DUP1 REVERT JUMPDEST POP PUSH1 0x4 CALLDATASIZE LT PUSH2 0x2D6 JUMPI PUSH1 0x0 CALLDATALOAD PUSH1 0xE0 SHR DUP1 PUSH4 0x745BD453 GT PUSH2 0x182 JUMPI DUP1 PUSH4 0xB88D4FDE GT PUSH2 0xE9 JUMPI DUP1 PUSH4 0xD20A53C8 GT PUSH2 0xA2 JUMPI DUP1 PUSH4 0xE6CB9013 GT PUSH2 0x7C JUMPI DUP1 PUSH4 0xE6CB9013 EQ PUSH2 0x872 JUMPI DUP1 PUSH4 0xE985E9C5 EQ PUSH2 0x885 JUMPI DUP1 PUSH4 0xF04968BE EQ PUSH2 0x8C1 JUMPI DUP1 PUSH4 0xFD9513BD EQ PUSH2 0x8D4 JUMPI PUSH1 0x0 DUP1 REVERT JUMPDEST DUP1 PUSH4 0xD20A53C8 EQ PUSH2 0x839 JUMPI DUP1 PUSH4 0xD5A93D68 EQ PUSH2 0x84C JUMPI DUP1 PUSH4 0xD87E9020 EQ PUSH2 0x85F JUMPI PUSH1 0x0 DUP1 REVERT JUMPDEST DUP1 PUSH4 0xB88D4FDE EQ PUSH2 0x7C7 JUMPI DUP1 PUSH4 0xC77DAEF6 EQ PUSH2 0x7DA JUMPI DUP1 PUSH4 0xC87B56DD EQ PUSH2 0x7ED JUMPI DUP1 PUSH4 0xCB083041 EQ PUSH2 0x800 JUMPI DUP1 PUSH4 0xD05C78DA EQ PUSH2 0x813 JUMPI DUP1 PUSH4 0xD1E5EF57 EQ PUSH2 0x826 JUMPI PUSH1 0x0 DUP1 REVERT JUMPDEST DUP1 PUSH4 0xA22CB465 GT PUSH2 0x13B JUMPI DUP1 PUSH4 0xA22CB465 EQ PUSH2 0x755 JUMPI DUP1 PUSH4 0xA293D1E8 EQ PUSH2 0x768 JUMPI DUP1 PUSH4 0xA6438DB2 EQ PUSH2 0x77B JUMPI DUP1 PUSH4 0xA7518EB1 EQ PUSH2 0x78E JUMPI DUP1 PUSH4 0xB1CA2106 EQ PUSH2 0x7A1 JUMPI DUP1 PUSH4 0xB7379531 EQ PUSH2 0x7B4 JUMPI PUSH1 0x0 DUP1 REVERT JUMPDEST DUP1 PUSH4 0x745BD453 EQ PUSH2 0x6EE JUMPI DUP1 PUSH4 0x7CD7F3BB EQ PUSH2 0x701 JUMPI DUP1 PUSH4 0x86481D40 EQ PUSH2 0x714 JUMPI DUP1 PUSH4 0x8DA5CB5B EQ PUSH2 0x727 JUMPI DUP1 PUSH4 0x8DC14247 EQ PUSH2 0x73A JUMPI DUP1 PUSH4 0x95D89B41 EQ PUSH2 0x74D JUMPI PUSH1 0x0 DUP1 REVERT JUMPDEST DUP1 PUSH4 0x3A0995E9 GT PUSH2 0x241 JUMPI DUP1 PUSH4 0x6352211E GT PUSH2 0x1FA JUMPI DUP1 PUSH4 0x6AE15F76 GT PUSH2 0x1D4 JUMPI DUP1 PUSH4 0x6AE15F76 EQ PUSH2 0x6A2 JUMPI DUP1 PUSH4 0x6D9CBB4E EQ PUSH2 0x6B5 JUMPI DUP1 PUSH4 0x70A08231 EQ PUSH2 0x6C8 JUMPI DUP1 PUSH4 0x744E94AA EQ PUSH2 0x6DB JUMPI PUSH1 0x0 DUP1 REVERT JUMPDEST DUP1 PUSH4 0x6352211E EQ PUSH2 0x669 JUMPI DUP1 PUSH4 0x6599273F EQ PUSH2 0x67C JUMPI DUP1 PUSH4 0x688F30AC EQ PUSH2 0x68F JUMPI PUSH1 0x0 DUP1 REVERT JUMPDEST DUP1 PUSH4 0x3A0995E9 EQ PUSH2 0x562 JUMPI DUP1 PUSH4 0x3FC70F2C EQ PUSH2 0x585 JUMPI DUP1 PUSH4 0x42842E0E EQ PUSH2 0x598 JUMPI DUP1 PUSH4 0x43C6916B EQ PUSH2 0x5AB JUMPI DUP1 PUSH4 0x51585B49 EQ PUSH2 0x5BE JUMPI DUP1 PUSH4 0x55AF86C4 EQ PUSH2 0x5D1 JUMPI PUSH1 0x0 DUP1 REVERT JUMPDEST DUP1 PUSH4 0x17A40576 GT PUSH2 0x293 JUMPI DUP1 PUSH4 0x17A40576 EQ PUSH2 0x37E JUMPI DUP1 PUSH4 0x1F4F5A23 EQ PUSH2 0x391 JUMPI DUP1 PUSH4 0x20B430D5 EQ PUSH2 0x508 JUMPI DUP1 PUSH4 0x23B872DD EQ PUSH2 0x529 JUMPI DUP1 PUSH4 0x243A7C7B EQ PUSH2 0x53C JUMPI DUP1 PUSH4 0x360DEB76 EQ PUSH2 0x54F JUMPI PUSH1 0x0 DUP1 REVERT JUMPDEST DUP1 PUSH4 0x1FFC9A7 EQ PUSH2 0x2DB JUMPI DUP1 PUSH4 0x6FDDE03 EQ PUSH2 0x303 JUMPI DUP1 PUSH4 0x81812FC EQ PUSH2 0x318 JUMPI DUP1 PUSH4 0x95EA7B3 EQ PUSH2 0x343 JUMPI DUP1 PUSH4 0xB1F15CD EQ PUSH2 0x358 JUMPI DUP1 PUSH4 0x13AF4035 EQ PUSH2 0x36B JUMPI JUMPDEST PUSH1 0x0 DUP1 REVERT JUMPDEST PUSH2 0x2EE PUSH2 0x2E9 CALLDATASIZE PUSH1 0x4 PUSH2 0x30A4 JUMP JUMPDEST PUSH2 0x8E7 JUMP JUMPDEST PUSH1 0x40 MLOAD SWAP1 ISZERO ISZERO DUP2 MSTORE PUSH1 0x20 ADD JUMPDEST PUSH1 0x40 MLOAD DUP1 SWAP2 SUB SWAP1 RETURN JUMPDEST PUSH2 0x30B PUSH2 0x939 JUMP JUMPDEST PUSH1 0x40 MLOAD PUSH2 0x2FA SWAP2 SWAP1 PUSH2 0x3111 JUMP JUMPDEST PUSH2 0x32B PUSH2 0x326 CALLDATASIZE PUSH1 0x4 PUSH2 0x3124 JUMP JUMPDEST PUSH2 0x9CB JUMP JUMPDEST PUSH1 0x40 MLOAD PUSH1 0x1 PUSH1 0x1 PUSH1 0xA0 SHL SUB SWAP1 SWAP2 AND DUP2 MSTORE PUSH1 0x20 ADD PUSH2 0x2FA JUMP JUMPDEST PUSH2 0x356 PUSH2 0x351 CALLDATASIZE PUSH1 0x4 PUSH2 0x3154 JUMP JUMPDEST PUSH2 0x9F2 JUMP JUMPDEST STOP JUMPDEST PUSH2 0x356 PUSH2 0x366 CALLDATASIZE PUSH1 0x4 PUSH2 0x3124 JUMP JUMPDEST PUSH2 0xB0C JUMP JUMPDEST PUSH2 0x356 PUSH2 0x379 CALLDATASIZE PUSH1 0x4 PUSH2 0x317E JUMP JUMPDEST PUSH2 0xB72 JUMP JUMPDEST PUSH2 0x356 PUSH2 0x38C CALLDATASIZE PUSH1 0x4 PUSH2 0x3124 JUMP JUMPDEST PUSH2 0xBF8 JUMP JUMPDEST PUSH2 0x3A4 PUSH2 0x39F CALLDATASIZE PUSH1 0x4 PUSH2 0x3124 JUMP JUMPDEST PUSH2 0xC57 JUMP JUMPDEST PUSH1 0x40 MLOAD PUSH2 0x2FA SWAP2 SWAP1 DUP2 MLOAD DUP2 MSTORE PUSH1 0x20 DUP1 DUP4 ADD MLOAD SWAP1 DUP3 ADD MSTORE PUSH1 0x40 DUP1 DUP4 ADD MLOAD SWAP1 DUP3 ADD MSTORE PUSH1 0x60 DUP1 DUP4 ADD MLOAD SWAP1 DUP3 ADD MSTORE PUSH1 0x80 DUP1 DUP4 ADD MLOAD SWAP1 DUP3 ADD MSTORE PUSH1 0xA0 DUP1 DUP4 ADD MLOAD SWAP1 DUP3 ADD MSTORE PUSH1 0xC0 DUP1 DUP4 ADD MLOAD SWAP1 DUP3 ADD MSTORE PUSH1 0xE0 DUP1 DUP4 ADD MLOAD SWAP1 DUP3 ADD MSTORE PUSH2 0x100 DUP1 DUP4 ADD MLOAD SWAP1 DUP3 ADD MSTORE PUSH2 0x120 DUP1 DUP4 ADD MLOAD SWAP1 DUP3 ADD MSTORE PUSH2 0x140 DUP1 DUP4 ADD MLOAD SWAP1 DUP3 ADD MSTORE PUSH2 0x160 DUP1 DUP4 ADD MLOAD SWAP1 DUP3 ADD MSTORE PUSH2 0x180 DUP1 DUP4 ADD MLOAD SWAP1 DUP3 ADD MSTORE PUSH2 0x1A0 DUP1 DUP4 ADD MLOAD SWAP1 DUP3 ADD MSTORE PUSH2 0x1C0 DUP1 DUP4 ADD MLOAD SWAP1 DUP3 ADD MSTORE PUSH2 0x1E0 DUP1 DUP4 ADD MLOAD SWAP1 DUP3 ADD MSTORE PUSH2 0x200 DUP1 DUP4 ADD MLOAD SWAP1 DUP3 ADD MSTORE PUSH2 0x220 DUP1 DUP4 ADD MLOAD SWAP1 DUP3 ADD MSTORE PUSH2 0x240 DUP1 DUP4 ADD MLOAD SWAP1 DUP3 ADD MSTORE PUSH2 0x260 DUP1 DUP4 ADD MLOAD SWAP1 DUP3 ADD MSTORE PUSH2 0x280 DUP1 DUP4 ADD MLOAD SWAP1 DUP3 ADD MSTORE PUSH2 0x2A0 DUP1 DUP4 ADD MLOAD SWAP1 DUP3 ADD MSTORE PUSH2 0x2C0 DUP1 DUP4 ADD MLOAD SWAP1 DUP3 ADD MSTORE PUSH2 0x2E0 DUP1 DUP4 ADD MLOAD SWAP1 DUP3 ADD MSTORE PUSH2 0x300 DUP1 DUP4 ADD MLOAD SWAP1 DUP3 ADD MSTORE PUSH2 0x320 DUP1 DUP4 ADD MLOAD SWAP1 DUP3 ADD MSTORE PUSH2 0x340 DUP1 DUP4 ADD MLOAD SWAP1 DUP3 ADD MSTORE PUSH2 0x360 DUP1 DUP4 ADD MLOAD SWAP1 DUP3 ADD MSTORE PUSH2 0x380 DUP1 DUP4 ADD MLOAD SWAP1 DUP3 ADD MSTORE PUSH2 0x3A0 DUP1 DUP4 ADD MLOAD SWAP1 DUP3 ADD MSTORE PUSH2 0x3C0 DUP1 DUP4 ADD MLOAD SWAP1 DUP3 ADD MSTORE PUSH2 0x3E0 SWAP2 DUP3 ADD MLOAD SWAP2 DUP2 ADD SWAP2 SWAP1 SWAP2 MSTORE PUSH2 0x400 ADD SWAP1 JUMP JUMPDEST PUSH2 0x51B PUSH2 0x516 CALLDATASIZE PUSH1 0x4 PUSH2 0x3199 JUMP JUMPDEST PUSH2 0xEE1 JUMP JUMPDEST PUSH1 0x40 MLOAD SWAP1 DUP2 MSTORE PUSH1 0x20 ADD PUSH2 0x2FA JUMP JUMPDEST PUSH2 0x356 PUSH2 0x537 CALLDATASIZE PUSH1 0x4 PUSH2 0x31DC JUMP JUMPDEST PUSH2 0x10A4 JUMP JUMPDEST PUSH2 0x356 PUSH2 0x54A CALLDATASIZE PUSH1 0x4 PUSH2 0x3218 JUMP JUMPDEST PUSH2 0x10D5 JUMP JUMPDEST PUSH2 0x356 PUSH2 0x55D CALLDATASIZE PUSH1 0x4 PUSH2 0x323A JUMP JUMPDEST PUSH2 0x116B JUMP JUMPDEST PUSH2 0x2EE PUSH2 0x570 CALLDATASIZE PUSH1 0x4 PUSH2 0x317E JUMP JUMPDEST PUSH1 0xA PUSH1 0x20 MSTORE PUSH1 0x0 SWAP1 DUP2 MSTORE PUSH1 0x40 SWAP1 KECCAK256 SLOAD PUSH1 0xFF AND DUP2 JUMP JUMPDEST PUSH2 0x51B PUSH2 0x593 CALLDATASIZE PUSH1 0x4 PUSH2 0x3124 JUMP JUMPDEST PUSH2 0x11F9 JUMP JUMPDEST PUSH2 0x356 PUSH2 0x5A6 CALLDATASIZE PUSH1 0x4 PUSH2 0x31DC JUMP JUMPDEST PUSH2 0x1262 JUMP JUMPDEST PUSH2 0x51B PUSH2 0x5B9 CALLDATASIZE PUSH1 0x4 PUSH2 0x3124 JUMP JUMPDEST PUSH2 0x127D JUMP JUMPDEST PUSH2 0x51B PUSH2 0x5CC CALLDATASIZE PUSH1 0x4 PUSH2 0x3124 JUMP JUMPDEST PUSH2 0x12FF JUMP JUMPDEST PUSH2 0x5E4 PUSH2 0x5DF CALLDATASIZE PUSH1 0x4 PUSH2 0x3124 JUMP JUMPDEST PUSH2 0x1345 JUMP JUMPDEST PUSH1 0x40 MLOAD PUSH2 0x2FA SWAP2 SWAP1 PUSH1 0x0 PUSH2 0x160 DUP3 ADD SWAP1 POP DUP3 MLOAD DUP3 MSTORE PUSH1 0x20 DUP4 ADD MLOAD PUSH1 0x20 DUP4 ADD MSTORE PUSH1 0x40 DUP4 ADD MLOAD PUSH1 0x40 DUP4 ADD MSTORE PUSH1 0x60 DUP4 ADD MLOAD PUSH1 0x60 DUP4 ADD MSTORE PUSH1 0x80 DUP4 ADD MLOAD PUSH1 0x80 DUP4 ADD MSTORE PUSH1 0xA0 DUP4 ADD MLOAD PUSH1 0xA0 DUP4 ADD MSTORE PUSH1 0xC0 DUP4 ADD MLOAD PUSH1 0xC0 DUP4 ADD MSTORE PUSH1 0xE0 DUP4 ADD MLOAD PUSH1 0xE0 DUP4 ADD MSTORE PUSH2 0x100 DUP1 DUP5 ADD MLOAD DUP2 DUP5 ADD MSTORE POP PUSH2 0x120 DUP1 DUP5 ADD MLOAD DUP2 DUP5 ADD MSTORE POP PUSH2 0x140 DUP1 DUP5 ADD MLOAD DUP2 DUP5 ADD MSTORE POP SWAP3 SWAP2 POP POP JUMP JUMPDEST PUSH2 0x32B PUSH2 0x677 CALLDATASIZE PUSH1 0x4 PUSH2 0x3124 JUMP JUMPDEST PUSH2 0x146B JUMP JUMPDEST PUSH2 0x356 PUSH2 0x68A CALLDATASIZE PUSH1 0x4 PUSH2 0x3124 JUMP JUMPDEST PUSH2 0x14CB JUMP JUMPDEST PUSH2 0x356 PUSH2 0x69D CALLDATASIZE PUSH1 0x4 PUSH2 0x3124 JUMP JUMPDEST PUSH2 0x152A JUMP JUMPDEST PUSH2 0x356 PUSH2 0x6B0 CALLDATASIZE PUSH1 0x4 PUSH2 0x3124 JUMP JUMPDEST PUSH2 0x1589 JUMP JUMPDEST PUSH2 0x51B PUSH2 0x6C3 CALLDATASIZE PUSH1 0x4 PUSH2 0x3124 JUMP JUMPDEST PUSH2 0x15E8 JUMP JUMPDEST PUSH2 0x51B PUSH2 0x6D6 CALLDATASIZE PUSH1 0x4 PUSH2 0x317E JUMP JUMPDEST PUSH2 0x1655 JUMP JUMPDEST PUSH2 0x51B PUSH2 0x6E9 CALLDATASIZE PUSH1 0x4 PUSH2 0x3124 JUMP JUMPDEST PUSH2 0x16DB JUMP JUMPDEST PUSH2 0x356 PUSH2 0x6FC CALLDATASIZE PUSH1 0x4 PUSH2 0x3124 JUMP JUMPDEST PUSH2 0x1744 JUMP JUMPDEST PUSH2 0x51B PUSH2 0x70F CALLDATASIZE PUSH1 0x4 PUSH2 0x3124 JUMP JUMPDEST PUSH2 0x17A3 JUMP JUMPDEST PUSH2 0x51B PUSH2 0x722 CALLDATASIZE PUSH1 0x4 PUSH2 0x3124 JUMP JUMPDEST PUSH2 0x1812 JUMP JUMPDEST PUSH1 0x9 SLOAD PUSH2 0x32B SWAP1 PUSH1 0x1 PUSH1 0x1 PUSH1 0xA0 SHL SUB AND DUP2 JUMP JUMPDEST PUSH2 0x356 PUSH2 0x748 CALLDATASIZE PUSH1 0x4 PUSH2 0x3218 JUMP JUMPDEST PUSH2 0x188B JUMP JUMPDEST PUSH2 0x30B PUSH2 0x195C JUMP JUMPDEST PUSH2 0x356 PUSH2 0x763 CALLDATASIZE PUSH1 0x4 PUSH2 0x323A JUMP JUMPDEST PUSH2 0x196B JUMP JUMPDEST PUSH2 0x51B PUSH2 0x776 CALLDATASIZE PUSH1 0x4 PUSH2 0x3218 JUMP JUMPDEST PUSH2 0x1976 JUMP JUMPDEST PUSH2 0x51B PUSH2 0x789 CALLDATASIZE PUSH1 0x4 PUSH2 0x3276 JUMP JUMPDEST PUSH2 0x19C3 JUMP JUMPDEST PUSH2 0x356 PUSH2 0x79C CALLDATASIZE PUSH1 0x4 PUSH2 0x3218 JUMP JUMPDEST PUSH2 0x1C27 JUMP JUMPDEST PUSH2 0x51B PUSH2 0x7AF CALLDATASIZE PUSH1 0x4 PUSH2 0x3124 JUMP JUMPDEST PUSH2 0x1CF6 JUMP JUMPDEST PUSH2 0x356 PUSH2 0x7C2 CALLDATASIZE PUSH1 0x4 PUSH2 0x3297 JUMP JUMPDEST PUSH2 0x1D33 JUMP JUMPDEST PUSH2 0x356 PUSH2 0x7D5 CALLDATASIZE PUSH1 0x4 PUSH2 0x32D9 JUMP JUMPDEST PUSH2 0x1F72 JUMP JUMPDEST PUSH2 0x51B PUSH2 0x7E8 CALLDATASIZE PUSH1 0x4 PUSH2 0x3124 JUMP JUMPDEST PUSH2 0x1FAA JUMP JUMPDEST PUSH2 0x30B PUSH2 0x7FB CALLDATASIZE PUSH1 0x4 PUSH2 0x3124 JUMP JUMPDEST PUSH2 0x2019 JUMP JUMPDEST PUSH2 0x356 PUSH2 0x80E CALLDATASIZE PUSH1 0x4 PUSH2 0x3124 JUMP JUMPDEST PUSH2 0x208C JUMP JUMPDEST PUSH2 0x51B PUSH2 0x821 CALLDATASIZE PUSH1 0x4 PUSH2 0x3218 JUMP JUMPDEST PUSH2 0x20EB JUMP JUMPDEST PUSH2 0x356 PUSH2 0x834 CALLDATASIZE PUSH1 0x4 PUSH2 0x33B5 JUMP JUMPDEST PUSH2 0x214C JUMP JUMPDEST PUSH2 0x51B PUSH2 0x847 CALLDATASIZE PUSH1 0x4 PUSH2 0x3124 JUMP JUMPDEST PUSH2 0x2403 JUMP JUMPDEST PUSH2 0x356 PUSH2 0x85A CALLDATASIZE PUSH1 0x4 PUSH2 0x323A JUMP JUMPDEST PUSH2 0x2437 JUMP JUMPDEST PUSH2 0x51B PUSH2 0x86D CALLDATASIZE PUSH1 0x4 PUSH2 0x3124 JUMP JUMPDEST PUSH2 0x24BD JUMP JUMPDEST PUSH2 0x51B PUSH2 0x880 CALLDATASIZE PUSH1 0x4 PUSH2 0x3218 JUMP JUMPDEST PUSH2 0x2519 JUMP JUMPDEST PUSH2 0x2EE PUSH2 0x893 CALLDATASIZE PUSH1 0x4 PUSH2 0x33F0 JUMP JUMPDEST PUSH1 0x1 PUSH1 0x1 PUSH1 0xA0 SHL SUB SWAP2 DUP3 AND PUSH1 0x0 SWAP1 DUP2 MSTORE PUSH1 0x5 PUSH1 0x20 SWAP1 DUP2 MSTORE PUSH1 0x40 DUP1 DUP4 KECCAK256 SWAP4 SWAP1 SWAP5 AND DUP3 MSTORE SWAP2 SWAP1 SWAP2 MSTORE KECCAK256 SLOAD PUSH1 0xFF AND SWAP1 JUMP JUMPDEST PUSH2 0x51B PUSH2 0x8CF CALLDATASIZE PUSH1 0x4 PUSH2 0x3124 JUMP JUMPDEST PUSH2 0x2575 JUMP JUMPDEST PUSH2 0x51B PUSH2 0x8E2 CALLDATASIZE PUSH1 0x4 PUSH2 0x3124 JUMP JUMPDEST PUSH2 0x25B6 JUMP JUMPDEST PUSH1 0x0 PUSH1 0x1 PUSH1 0x1 PUSH1 0xE0 SHL SUB NOT DUP3 AND PUSH4 0x80AC58CD PUSH1 0xE0 SHL EQ DUP1 PUSH2 0x918 JUMPI POP PUSH1 0x1 PUSH1 0x1 PUSH1 0xE0 SHL SUB NOT DUP3 AND PUSH4 0x5B5E139F PUSH1 0xE0 SHL EQ JUMPDEST DUP1 PUSH2 0x933 JUMPI POP PUSH4 0x1FFC9A7 PUSH1 0xE0 SHL PUSH1 0x1 PUSH1 0x1 PUSH1 0xE0 SHL SUB NOT DUP4 AND EQ JUMPDEST SWAP3 SWAP2 POP POP JUMP JUMPDEST PUSH1 0x60 PUSH1 0x0 DUP1 SLOAD PUSH2 0x948 SWAP1 PUSH2 0x3423 JUMP JUMPDEST DUP1 PUSH1 0x1F ADD PUSH1 0x20 DUP1 SWAP2 DIV MUL PUSH1 0x20 ADD PUSH1 0x40 MLOAD SWAP1 DUP2 ADD PUSH1 0x40 MSTORE DUP1 SWAP3 SWAP2 SWAP1 DUP2 DUP2 MSTORE PUSH1 0x20 ADD DUP3 DUP1 SLOAD PUSH2 0x974 SWAP1 PUSH2 0x3423 JUMP JUMPDEST DUP1 ISZERO PUSH2 0x9C1 JUMPI DUP1 PUSH1 0x1F LT PUSH2 0x996 JUMPI PUSH2 0x100 DUP1 DUP4 SLOAD DIV MUL DUP4 MSTORE SWAP2 PUSH1 0x20 ADD SWAP2 PUSH2 0x9C1 JUMP JUMPDEST DUP3 ADD SWAP2 SWAP1 PUSH1 0x0 MSTORE PUSH1 0x20 PUSH1 0x0 KECCAK256 SWAP1 JUMPDEST DUP2 SLOAD DUP2 MSTORE SWAP1 PUSH1 0x1 ADD SWAP1 PUSH1 0x20 ADD DUP1 DUP4 GT PUSH2 0x9A4 JUMPI DUP3 SWAP1 SUB PUSH1 0x1F AND DUP3 ADD SWAP2 JUMPDEST POP POP POP POP POP SWAP1 POP SWAP1 JUMP JUMPDEST PUSH1 0x0 PUSH2 0x9D6 DUP3 PUSH2 0x2616 JUMP JUMPDEST POP PUSH1 0x0 SWAP1 DUP2 MSTORE PUSH1 0x4 PUSH1 0x20 MSTORE PUSH1 0x40 SWAP1 KECCAK256 SLOAD PUSH1 0x1 PUSH1 0x1 PUSH1 0xA0 SHL SUB AND SWAP1 JUMP JUMPDEST PUSH1 0x0 PUSH2 0x9FD DUP3 PUSH2 0x146B JUMP JUMPDEST SWAP1 POP DUP1 PUSH1 0x1 PUSH1 0x1 PUSH1 0xA0 SHL SUB AND DUP4 PUSH1 0x1 PUSH1 0x1 PUSH1 0xA0 SHL SUB AND SUB PUSH2 0xA6F JUMPI PUSH1 0x40 MLOAD PUSH3 0x461BCD PUSH1 0xE5 SHL DUP2 MSTORE PUSH1 0x20 PUSH1 0x4 DUP3 ADD MSTORE PUSH1 0x21 PUSH1 0x24 DUP3 ADD MSTORE PUSH32 0x4552433732313A20617070726F76616C20746F2063757272656E74206F776E65 PUSH1 0x44 DUP3 ADD MSTORE PUSH1 0x39 PUSH1 0xF9 SHL PUSH1 0x64 DUP3 ADD MSTORE PUSH1 0x84 ADD JUMPDEST PUSH1 0x40 MLOAD DUP1 SWAP2 SUB SWAP1 REVERT JUMPDEST CALLER PUSH1 0x1 PUSH1 0x1 PUSH1 0xA0 SHL SUB DUP3 AND EQ DUP1 PUSH2 0xA8B JUMPI POP PUSH2 0xA8B DUP2 CALLER PUSH2 0x893 JUMP JUMPDEST PUSH2 0xAFD JUMPI PUSH1 0x40 MLOAD PUSH3 0x461BCD PUSH1 0xE5 SHL DUP2 MSTORE PUSH1 0x20 PUSH1 0x4 DUP3 ADD MSTORE PUSH1 0x3D PUSH1 0x24 DUP3 ADD MSTORE PUSH32 0x4552433732313A20617070726F76652063616C6C6572206973206E6F7420746F PUSH1 0x44 DUP3 ADD MSTORE PUSH32 0x6B656E206F776E6572206F7220617070726F76656420666F7220616C6C000000 PUSH1 0x64 DUP3 ADD MSTORE PUSH1 0x84 ADD PUSH2 0xA66 JUMP JUMPDEST PUSH2 0xB07 DUP4 DUP4 PUSH2 0x2669 JUMP JUMPDEST POP POP POP JUMP JUMPDEST PUSH1 0x9 SLOAD PUSH1 0x1 PUSH1 0x1 PUSH1 0xA0 SHL SUB AND CALLER EQ PUSH2 0xB36 JUMPI PUSH1 0x40 MLOAD PUSH3 0x461BCD PUSH1 0xE5 SHL DUP2 MSTORE PUSH1 0x4 ADD PUSH2 0xA66 SWAP1 PUSH2 0x3457 JUMP JUMPDEST PUSH1 0xF DUP2 SWAP1 SSTORE PUSH1 0x40 MLOAD DUP2 DUP2 MSTORE PUSH32 0x2709C3545E934F71BAD88A10628CFCB26544ABEF6D319E025DAFCFAA8ECD371B SWAP1 PUSH1 0x20 ADD JUMPDEST PUSH1 0x40 MLOAD DUP1 SWAP2 SUB SWAP1 LOG1 POP JUMP JUMPDEST PUSH1 0x9 SLOAD PUSH1 0x1 PUSH1 0x1 PUSH1 0xA0 SHL SUB AND CALLER EQ PUSH2 0xB9C JUMPI PUSH1 0x40 MLOAD PUSH3 0x461BCD PUSH1 0xE5 SHL DUP2 MSTORE PUSH1 0x4 ADD PUSH2 0xA66 SWAP1 PUSH2 0x3457 JUMP JUMPDEST PUSH1 0x9 SLOAD PUSH1 0x40 MLOAD PUSH1 0x1 PUSH1 0x1 PUSH1 0xA0 SHL SUB DUP1 DUP5 AND SWAP3 AND SWAP1 PUSH32 0xCBF985117192C8F614A58AAF97226BB80A754772F5F6EDF06F87C675F2E6C663 SWAP1 PUSH1 0x0 SWAP1 LOG3 PUSH1 0x9 DUP1 SLOAD PUSH1 0x1 PUSH1 0x1 PUSH1 0xA0 SHL SUB NOT AND PUSH1 0x1 PUSH1 0x1 PUSH1 0xA0 SHL SUB SWAP3 SWAP1 SWAP3 AND SWAP2 SWAP1 SWAP2 OR SWAP1 SSTORE JUMP JUMPDEST PUSH1 0x9 SLOAD PUSH1 0x1 PUSH1 0x1 PUSH1 0xA0 SHL SUB AND CALLER EQ PUSH2 0xC22 JUMPI PUSH1 0x40 MLOAD PUSH3 0x461BCD PUSH1 0xE5 SHL DUP2 MSTORE PUSH1 0x4 ADD PUSH2 0xA66 SWAP1 PUSH2 0x3457 JUMP JUMPDEST PUSH1 0x10 DUP2 SWAP1 SSTORE PUSH1 0x40 MLOAD DUP2 DUP2 MSTORE PUSH32 0x8BC6F507740334E03EB54C47352DA054221B790B05465E2E8ABF2C6E2BD9FD10 SWAP1 PUSH1 0x20 ADD PUSH2 0xB67 JUMP JUMPDEST PUSH2 0xD47 PUSH1 0x40 MLOAD DUP1 PUSH2 0x400 ADD PUSH1 0x40 MSTORE DUP1 PUSH1 0x0 DUP2 MSTORE PUSH1 0x20 ADD PUSH1 0x0 DUP2 MSTORE PUSH1 0x20 ADD PUSH1 0x0 DUP2 MSTORE PUSH1 0x20 ADD PUSH1 0x0 DUP2 MSTORE PUSH1 0x20 ADD PUSH1 0x0 DUP2 MSTORE PUSH1 0x20 ADD PUSH1 0x0 DUP2 MSTORE PUSH1 0x20 ADD PUSH1 0x0 DUP2 MSTORE PUSH1 0x20 ADD PUSH1 0x0 DUP2 MSTORE PUSH1 0x20 ADD PUSH1 0x0 DUP2 MSTORE PUSH1 0x20 ADD PUSH1 0x0 DUP2 MSTORE PUSH1 0x20 ADD PUSH1 0x0 DUP2 MSTORE PUSH1 0x20 ADD PUSH1 0x0 DUP2 MSTORE PUSH1 0x20 ADD PUSH1 0x0 DUP2 MSTORE PUSH1 0x20 ADD PUSH1 0x0 DUP2 MSTORE PUSH1 0x20 ADD PUSH1 0x0 DUP2 MSTORE PUSH1 0x20 ADD PUSH1 0x0 DUP2 MSTORE PUSH1 0x20 ADD PUSH1 0x0 DUP2 MSTORE PUSH1 0x20 ADD PUSH1 0x0 DUP2 MSTORE PUSH1 0x20 ADD PUSH1 0x0 DUP2 MSTORE PUSH1 0x20 ADD PUSH1 0x0 DUP2 MSTORE PUSH1 0x20 ADD PUSH1 0x0 DUP2 MSTORE PUSH1 0x20 ADD PUSH1 0x0 DUP2 MSTORE PUSH1 0x20 ADD PUSH1 0x0 DUP2 MSTORE PUSH1 0x20 ADD PUSH1 0x0 DUP2 MSTORE PUSH1 0x20 ADD PUSH1 0x0 DUP2 MSTORE PUSH1 0x20 ADD PUSH1 0x0 DUP2 MSTORE PUSH1 0x20 ADD PUSH1 0x0 DUP2 MSTORE PUSH1 0x20 ADD PUSH1 0x0 DUP2 MSTORE PUSH1 0x20 ADD PUSH1 0x0 DUP2 MSTORE PUSH1 0x20 ADD PUSH1 0x0 DUP2 MSTORE PUSH1 0x20 ADD PUSH1 0x0 DUP2 MSTORE PUSH1 0x20 ADD PUSH1 0x0 DUP2 MSTORE POP SWAP1 JUMP JUMPDEST PUSH2 0xD50 DUP3 PUSH2 0x26D7 JUMP JUMPDEST PUSH2 0xD6C JUMPI PUSH1 0x40 MLOAD PUSH3 0x461BCD PUSH1 0xE5 SHL DUP2 MSTORE PUSH1 0x4 ADD PUSH2 0xA66 SWAP1 PUSH2 0x347E JUMP JUMPDEST POP PUSH1 0x0 SWAP1 DUP2 MSTORE PUSH1 0x7 PUSH1 0x20 DUP2 DUP2 MSTORE PUSH1 0x40 SWAP3 DUP4 SWAP1 KECCAK256 DUP4 MLOAD PUSH2 0x400 DUP2 ADD DUP6 MSTORE DUP2 SLOAD DUP2 MSTORE PUSH1 0x1 DUP3 ADD SLOAD SWAP3 DUP2 ADD SWAP3 SWAP1 SWAP3 MSTORE PUSH1 0x2 DUP2 ADD SLOAD SWAP4 DUP3 ADD SWAP4 SWAP1 SWAP4 MSTORE PUSH1 0x3 DUP4 ADD SLOAD PUSH1 0x60 DUP3 ADD MSTORE PUSH1 0x4 DUP4 ADD SLOAD PUSH1 0x80 DUP3 ADD MSTORE PUSH1 0x5 DUP4 ADD SLOAD PUSH1 0xA0 DUP3 ADD MSTORE PUSH1 0x6 DUP4 ADD SLOAD PUSH1 0xC0 DUP3 ADD MSTORE SWAP1 DUP3 ADD SLOAD PUSH1 0xE0 DUP3 ADD MSTORE PUSH1 0x8 DUP3 ADD SLOAD PUSH2 0x100 DUP3 ADD MSTORE PUSH1 0x9 DUP3 ADD SLOAD PUSH2 0x120 DUP3 ADD MSTORE PUSH1 0xA DUP3 ADD SLOAD PUSH2 0x140 DUP3 ADD MSTORE PUSH1 0xB DUP3 ADD SLOAD PUSH2 0x160 DUP3 ADD MSTORE PUSH1 0xC DUP3 ADD SLOAD PUSH2 0x180 DUP3 ADD MSTORE PUSH1 0xD DUP3 ADD SLOAD PUSH2 0x1A0 DUP3 ADD MSTORE PUSH1 0xE DUP3 ADD SLOAD PUSH2 0x1C0 DUP3 ADD MSTORE PUSH1 0xF DUP3 ADD SLOAD PUSH2 0x1E0 DUP3 ADD MSTORE PUSH1 0x10 DUP3 ADD SLOAD PUSH2 0x200 DUP3 ADD MSTORE PUSH1 0x11 DUP3 ADD SLOAD PUSH2 0x220 DUP3 ADD MSTORE PUSH1 0x12 DUP3 ADD SLOAD PUSH2 0x240 DUP3 ADD MSTORE PUSH1 0x13 DUP3 ADD SLOAD PUSH2 0x260 DUP3 ADD MSTORE PUSH1 0x14 DUP3 ADD SLOAD PUSH2 0x280 DUP3 ADD MSTORE PUSH1 0x15 DUP3 ADD SLOAD PUSH2 0x2A0 DUP3 ADD MSTORE PUSH1 0x16 DUP3 ADD SLOAD PUSH2 0x2C0 DUP3 ADD MSTORE PUSH1 0x17 DUP3 ADD SLOAD PUSH2 0x2E0 DUP3 ADD MSTORE PUSH1 0x18 DUP3 ADD SLOAD PUSH2 0x300 DUP3 ADD MSTORE PUSH1 0x19 DUP3 ADD SLOAD PUSH2 0x320 DUP3 ADD MSTORE PUSH1 0x1A DUP3 ADD SLOAD PUSH2 0x340 DUP3 ADD MSTORE PUSH1 0x1B DUP3 ADD SLOAD PUSH2 0x360 DUP3 ADD MSTORE PUSH1 0x1C DUP3 ADD SLOAD PUSH2 0x380 DUP3 ADD MSTORE PUSH1 0x1D DUP3 ADD SLOAD PUSH2 0x3A0 DUP3 ADD MSTORE PUSH1 0x1E DUP3 ADD SLOAD PUSH2 0x3C0 DUP3 ADD MSTORE PUSH1 0x1F SWAP1 SWAP2 ADD SLOAD PUSH2 0x3E0 DUP3 ADD MSTORE SWAP1 JUMP JUMPDEST CALLER PUSH1 0x0 SWAP1 DUP2 MSTORE PUSH1 0xA PUSH1 0x20 MSTORE PUSH1 0x40 DUP2 KECCAK256 SLOAD PUSH1 0xFF AND DUP1 PUSH2 0xF09 JUMPI POP PUSH1 0x9 SLOAD PUSH1 0x1 PUSH1 0x1 PUSH1 0xA0 SHL SUB AND CALLER EQ JUMPDEST PUSH2 0xF25 JUMPI PUSH1 0x40 MLOAD PUSH3 0x461BCD PUSH1 0xE5 SHL DUP2 MSTORE PUSH1 0x4 ADD PUSH2 0xA66 SWAP1 PUSH2 0x3457 JUMP JUMPDEST PUSH1 0x0 PUSH1 0x40 MLOAD DUP1 PUSH2 0x400 ADD PUSH1 0x40 MSTORE DUP1 PUSH1 0x0 DUP2 MSTORE PUSH1 0x20 ADD DUP10 DUP2 MSTORE PUSH1 0x20 ADD DUP9 DUP2 MSTORE PUSH1 0x20 ADD DUP8 DUP2 MSTORE PUSH1 0x20 ADD DUP7 DUP2 MSTORE PUSH1 0x20 ADD PUSH2 0xF5B DUP6 PUSH2 0x2575 JUMP JUMPDEST DUP2 MSTORE PUSH1 0x20 ADD PUSH1 0x0 DUP2 MSTORE PUSH1 0x20 ADD PUSH1 0x0 DUP2 MSTORE PUSH1 0x20 ADD PUSH1 0x0 DUP2 MSTORE PUSH1 0x20 ADD PUSH1 0x0 DUP2 MSTORE PUSH1 0x20 ADD PUSH1 0x0 DUP2 MSTORE PUSH1 0x20 ADD PUSH1 0x0 DUP2 MSTORE PUSH1 0x20 ADD PUSH1 0x0 DUP2 MSTORE PUSH1 0x20 ADD PUSH1 0x1 DUP2 MSTORE PUSH1 0x20 ADD PUSH1 0x1 DUP2 MSTORE PUSH1 0x20 ADD PUSH1 0x0 DUP2 MSTORE PUSH1 0x20 ADD PUSH1 0x0 DUP2 MSTORE PUSH1 0x20 ADD PUSH1 0x0 DUP2 MSTORE PUSH1 0x20 ADD DUP6 DUP2 MSTORE PUSH1 0x20 ADD PUSH1 0x0 DUP2 MSTORE PUSH1 0x20 ADD PUSH1 0x1 DUP2 MSTORE PUSH1 0x20 ADD PUSH1 0x0 DUP2 MSTORE PUSH1 0x20 ADD PUSH1 0x0 DUP2 MSTORE PUSH1 0x20 ADD PUSH1 0x0 DUP2 MSTORE PUSH1 0x20 ADD PUSH1 0x0 DUP2 MSTORE PUSH1 0x20 ADD PUSH1 0x0 DUP2 MSTORE PUSH1 0x20 ADD PUSH1 0x0 DUP2 MSTORE PUSH1 0x20 ADD PUSH1 0x0 DUP2 MSTORE PUSH1 0x20 ADD PUSH1 0x0 DUP2 MSTORE PUSH1 0x20 ADD PUSH1 0x0 DUP2 MSTORE PUSH1 0x20 ADD PUSH1 0x0 DUP2 MSTORE PUSH1 0x20 ADD PUSH1 0x0 DUP2 MSTORE POP SWAP1 POP PUSH2 0x1023 PUSH1 0x8 DUP1 SLOAD PUSH1 0x1 ADD SWAP1 SSTORE JUMP JUMPDEST PUSH1 0x0 PUSH2 0x102E PUSH1 0x8 SLOAD SWAP1 JUMP JUMPDEST SWAP1 POP PUSH2 0x103A CALLER DUP3 PUSH2 0x26F4 JUMP JUMPDEST PUSH2 0x1044 DUP2 DUP4 PUSH2 0x270E JUMP JUMPDEST PUSH1 0x0 DUP2 DUP2 MSTORE PUSH1 0x7 PUSH1 0x20 MSTORE PUSH1 0x40 DUP1 DUP3 KECCAK256 DUP4 SWAP1 SSTORE MLOAD CALLER SWAP2 PUSH32 0xE6AD03AE09E6216384922D74B5734A0EBC9AA6DE15BCD7D61ED9999BA2CB1DF5 SWAP2 PUSH2 0x1090 SWAP2 DUP6 DUP3 MSTORE PUSH1 0xFF AND PUSH1 0x20 DUP3 ADD MSTORE PUSH1 0x40 ADD SWAP1 JUMP JUMPDEST PUSH1 0x40 MLOAD DUP1 SWAP2 SUB SWAP1 LOG2 SWAP9 SWAP8 POP POP POP POP POP POP POP POP JUMP JUMPDEST PUSH2 0x10AE CALLER DUP3 PUSH2 0x2896 JUMP JUMPDEST PUSH2 0x10CA JUMPI PUSH1 0x40 MLOAD PUSH3 0x461BCD PUSH1 0xE5 SHL DUP2 MSTORE PUSH1 0x4 ADD PUSH2 0xA66 SWAP1 PUSH2 0x34AC JUMP JUMPDEST PUSH2 0xB07 DUP4 DUP4 DUP4 PUSH2 0x2914 JUMP JUMPDEST CALLER PUSH1 0x0 SWAP1 DUP2 MSTORE PUSH1 0xB PUSH1 0x20 MSTORE PUSH1 0x40 SWAP1 KECCAK256 SLOAD PUSH1 0xFF AND PUSH2 0x1104 JUMPI PUSH1 0x40 MLOAD PUSH3 0x461BCD PUSH1 0xE5 SHL DUP2 MSTORE PUSH1 0x4 ADD PUSH2 0xA66 SWAP1 PUSH2 0x3457 JUMP JUMPDEST PUSH2 0x110D DUP3 PUSH2 0x26D7 JUMP JUMPDEST PUSH2 0x1129 JUMPI PUSH1 0x40 MLOAD PUSH3 0x461BCD PUSH1 0xE5 SHL DUP2 MSTORE PUSH1 0x4 ADD PUSH2 0xA66 SWAP1 PUSH2 0x347E JUMP JUMPDEST PUSH1 0x11 SLOAD PUSH1 0x0 DUP4 DUP2 MSTORE PUSH1 0x7 PUSH1 0x20 MSTORE PUSH1 0x40 SWAP1 KECCAK256 PUSH1 0x5 ADD SLOAD PUSH2 0x1152 SWAP2 SWAP1 PUSH2 0x114D SWAP1 DUP5 PUSH2 0x2519 JUMP JUMPDEST PUSH2 0x2A78 JUMP JUMPDEST PUSH1 0x0 SWAP3 DUP4 MSTORE PUSH1 0x7 PUSH1 0x20 MSTORE PUSH1 0x40 SWAP1 SWAP3 KECCAK256 PUSH1 0x5 ADD SWAP2 SWAP1 SWAP2 SSTORE POP JUMP JUMPDEST PUSH1 0x9 SLOAD PUSH1 0x1 PUSH1 0x1 PUSH1 0xA0 SHL SUB AND CALLER EQ PUSH2 0x1195 JUMPI PUSH1 0x40 MLOAD PUSH3 0x461BCD PUSH1 0xE5 SHL DUP2 MSTORE PUSH1 0x4 ADD PUSH2 0xA66 SWAP1 PUSH2 0x3457 JUMP JUMPDEST PUSH1 0x1 PUSH1 0x1 PUSH1 0xA0 SHL SUB DUP3 AND PUSH1 0x0 DUP2 DUP2 MSTORE PUSH1 0xA PUSH1 0x20 SWAP1 DUP2 MSTORE PUSH1 0x40 SWAP2 DUP3 SWAP1 KECCAK256 DUP1 SLOAD PUSH1 0xFF NOT AND DUP6 ISZERO ISZERO SWAP1 DUP2 OR SWAP1 SWAP2 SSTORE DUP3 MLOAD SWAP4 DUP5 MSTORE SWAP1 DUP4 ADD MSTORE PUSH32 0x29FF5E8999B00A7437C384659FB2312B275B85C589F4D149F8B460EA477DCB7E SWAP2 ADD JUMPDEST PUSH1 0x40 MLOAD DUP1 SWAP2 SUB SWAP1 LOG1 POP POP JUMP JUMPDEST PUSH1 0x0 PUSH2 0x1204 DUP3 PUSH2 0x26D7 JUMP JUMPDEST PUSH2 0x1220 JUMPI PUSH1 0x40 MLOAD PUSH3 0x461BCD PUSH1 0xE5 SHL DUP2 MSTORE PUSH1 0x4 ADD PUSH2 0xA66 SWAP1 PUSH2 0x347E JUMP JUMPDEST PUSH2 0x933 PUSH2 0x122C DUP4 PUSH2 0x1FAA JUMP JUMPDEST PUSH1 0x0 DUP5 DUP2 MSTORE PUSH1 0x7 PUSH1 0x20 DUP2 SWAP1 MSTORE PUSH1 0x40 SWAP1 SWAP2 KECCAK256 PUSH1 0x6 DUP2 ADD SLOAD SWAP2 ADD SLOAD PUSH2 0x114D SWAP2 SWAP1 PUSH2 0x880 SWAP1 PUSH2 0x1259 SWAP1 NUMBER SWAP1 PUSH2 0x1976 JUMP JUMPDEST PUSH2 0x821 DUP9 PUSH2 0x25B6 JUMP JUMPDEST PUSH2 0xB07 DUP4 DUP4 DUP4 PUSH1 0x40 MLOAD DUP1 PUSH1 0x20 ADD PUSH1 0x40 MSTORE DUP1 PUSH1 0x0 DUP2 MSTORE POP PUSH2 0x1F72 JUMP JUMPDEST PUSH1 0x0 DUP2 DUP2 MSTORE PUSH1 0x7 PUSH1 0x20 SWAP1 DUP2 MSTORE PUSH1 0x40 DUP1 DUP4 KECCAK256 PUSH1 0x8 ADD SLOAD DUP4 MSTORE PUSH1 0x6 SWAP1 SWAP2 MSTORE DUP2 KECCAK256 PUSH1 0x1 DUP2 ADD SLOAD PUSH1 0x2 DUP3 ADD SLOAD PUSH1 0x3 DUP4 ADD SLOAD PUSH1 0x4 SWAP1 SWAP4 ADD SLOAD DUP5 SWAP4 PUSH2 0x12C4 SWAP4 SWAP3 PUSH2 0x880 SWAP3 SWAP1 SWAP2 DUP4 SWAP2 PUSH2 0x2519 JUMP JUMPDEST SWAP1 POP PUSH1 0x0 PUSH2 0x12EB PUSH2 0x12D4 DUP6 PUSH2 0x1812 JUMP JUMPDEST PUSH1 0x0 DUP7 DUP2 MSTORE PUSH1 0x7 PUSH1 0x20 MSTORE PUSH1 0x40 SWAP1 KECCAK256 PUSH1 0x11 ADD SLOAD PUSH2 0x20EB JUMP JUMPDEST SWAP1 POP PUSH2 0x12F7 DUP3 DUP3 PUSH2 0x2519 JUMP JUMPDEST SWAP5 SWAP4 POP POP POP POP JUMP JUMPDEST PUSH1 0x0 PUSH2 0x130A DUP3 PUSH2 0x26D7 JUMP JUMPDEST PUSH2 0x1326 JUMPI PUSH1 0x40 MLOAD PUSH3 0x461BCD PUSH1 0xE5 SHL DUP2 MSTORE PUSH1 0x4 ADD PUSH2 0xA66 SWAP1 PUSH2 0x347E JUMP JUMPDEST PUSH1 0xE SLOAD PUSH1 0x0 DUP4 DUP2 MSTORE PUSH1 0x7 PUSH1 0x20 MSTORE PUSH1 0x40 SWAP1 KECCAK256 PUSH1 0x2 ADD SLOAD PUSH2 0x933 SWAP2 SWAP1 PUSH2 0x350F JUMP JUMPDEST PUSH2 0x13A2 PUSH1 0x40 MLOAD DUP1 PUSH2 0x160 ADD PUSH1 0x40 MSTORE DUP1 PUSH1 0x0 DUP2 MSTORE PUSH1 0x20 ADD PUSH1 0x0 DUP2 MSTORE PUSH1 0x20 ADD PUSH1 0x0 DUP2 MSTORE PUSH1 0x20 ADD PUSH1 0x0 DUP2 MSTORE PUSH1 0x20 ADD PUSH1 0x0 DUP2 MSTORE PUSH1 0x20 ADD PUSH1 0x0 DUP2 MSTORE PUSH1 0x20 ADD PUSH1 0x0 DUP2 MSTORE PUSH1 0x20 ADD PUSH1 0x0 DUP2 MSTORE PUSH1 0x20 ADD PUSH1 0x0 DUP2 MSTORE PUSH1 0x20 ADD PUSH1 0x0 DUP2 MSTORE PUSH1 0x20 ADD PUSH1 0x0 DUP2 MSTORE POP SWAP1 JUMP JUMPDEST PUSH2 0x13AB DUP3 PUSH2 0x26D7 JUMP JUMPDEST PUSH2 0x13C7 JUMPI PUSH1 0x40 MLOAD PUSH3 0x461BCD PUSH1 0xE5 SHL DUP2 MSTORE PUSH1 0x4 ADD PUSH2 0xA66 SWAP1 PUSH2 0x347E JUMP JUMPDEST PUSH1 0x0 PUSH1 0x40 MLOAD DUP1 PUSH2 0x160 ADD PUSH1 0x40 MSTORE DUP1 DUP5 DUP2 MSTORE PUSH1 0x20 ADD PUSH2 0x13E4 DUP6 PUSH2 0x11F9 JUMP JUMPDEST DUP2 MSTORE PUSH1 0x20 ADD PUSH2 0x13F2 DUP6 PUSH2 0x1FAA JUMP JUMPDEST DUP2 MSTORE PUSH1 0x20 ADD PUSH2 0x1400 DUP6 PUSH2 0x16DB JUMP JUMPDEST DUP2 MSTORE PUSH1 0x20 ADD PUSH2 0x140E DUP6 PUSH2 0x15E8 JUMP JUMPDEST DUP2 MSTORE PUSH1 0x20 ADD PUSH2 0x141C DUP6 PUSH2 0x1812 JUMP JUMPDEST DUP2 MSTORE PUSH1 0x20 ADD PUSH2 0x142A DUP6 PUSH2 0x1CF6 JUMP JUMPDEST DUP2 MSTORE PUSH1 0x20 ADD PUSH2 0x1438 DUP6 PUSH2 0x17A3 JUMP JUMPDEST DUP2 MSTORE PUSH1 0x20 ADD PUSH2 0x1446 DUP6 PUSH2 0x12FF JUMP JUMPDEST DUP2 MSTORE PUSH1 0x20 ADD PUSH2 0x1454 DUP6 PUSH2 0x2403 JUMP JUMPDEST DUP2 MSTORE PUSH1 0x20 ADD PUSH2 0x1462 DUP6 PUSH2 0x127D JUMP JUMPDEST SWAP1 MSTORE SWAP4 SWAP3 POP POP POP JUMP JUMPDEST PUSH1 0x0 DUP2 DUP2 MSTORE PUSH1 0x2 PUSH1 0x20 MSTORE PUSH1 0x40 DUP2 KECCAK256 SLOAD PUSH1 0x1 PUSH1 0x1 PUSH1 0xA0 SHL SUB AND DUP1 PUSH2 0x933 JUMPI PUSH1 0x40 MLOAD PUSH3 0x461BCD PUSH1 0xE5 SHL DUP2 MSTORE PUSH1 0x20 PUSH1 0x4 DUP3 ADD MSTORE PUSH1 0x18 PUSH1 0x24 DUP3 ADD MSTORE PUSH24 0x115490CDCC8C4E881A5B9D985B1A59081D1BDAD95B881251 PUSH1 0x42 SHL PUSH1 0x44 DUP3 ADD MSTORE PUSH1 0x64 ADD PUSH2 0xA66 JUMP JUMPDEST PUSH1 0x9 SLOAD PUSH1 0x1 PUSH1 0x1 PUSH1 0xA0 SHL SUB AND CALLER EQ PUSH2 0x14F5 JUMPI PUSH1 0x40 MLOAD PUSH3 0x461BCD PUSH1 0xE5 SHL DUP2 MSTORE PUSH1 0x4 ADD PUSH2 0xA66 SWAP1 PUSH2 0x3457 JUMP JUMPDEST PUSH1 0xE DUP2 SWAP1 SSTORE PUSH1 0x40 MLOAD DUP2 DUP2 MSTORE PUSH32 0x8E5252D2D2F885F4BAE3553BBE34C3630F9274028F3C343CE0EAC0DD710C6A03 SWAP1 PUSH1 0x20 ADD PUSH2 0xB67 JUMP JUMPDEST PUSH1 0x9 SLOAD PUSH1 0x1 PUSH1 0x1 PUSH1 0xA0 SHL SUB AND CALLER EQ PUSH2 0x1554 JUMPI PUSH1 0x40 MLOAD PUSH3 0x461BCD PUSH1 0xE5 SHL DUP2 MSTORE PUSH1 0x4 ADD PUSH2 0xA66 SWAP1 PUSH2 0x3457 JUMP JUMPDEST PUSH1 0x11 DUP2 SWAP1 SSTORE PUSH1 0x40 MLOAD DUP2 DUP2 MSTORE PUSH32 0x8B92A2A371EC2AF95AA1740562D5031B28F403D2780BEAECDCE6BEFD43667FB8 SWAP1 PUSH1 0x20 ADD PUSH2 0xB67 JUMP JUMPDEST PUSH1 0x9 SLOAD PUSH1 0x1 PUSH1 0x1 PUSH1 0xA0 SHL SUB AND CALLER EQ PUSH2 0x15B3 JUMPI PUSH1 0x40 MLOAD PUSH3 0x461BCD PUSH1 0xE5 SHL DUP2 MSTORE PUSH1 0x4 ADD PUSH2 0xA66 SWAP1 PUSH2 0x3457 JUMP JUMPDEST PUSH1 0xD DUP2 SWAP1 SSTORE PUSH1 0x40 MLOAD DUP2 DUP2 MSTORE PUSH32 0x665124C1D0C6D84BA8A4D99CB0C2A03455171CE7503623C6CCEB9DA5BBD7A91 SWAP1 PUSH1 0x20 ADD PUSH2 0xB67 JUMP JUMPDEST PUSH1 0x0 PUSH2 0x15F3 DUP3 PUSH2 0x26D7 JUMP JUMPDEST PUSH2 0x160F JUMPI PUSH1 0x40 MLOAD PUSH3 0x461BCD PUSH1 0xE5 SHL DUP2 MSTORE PUSH1 0x4 ADD PUSH2 0xA66 SWAP1 PUSH2 0x347E JUMP JUMPDEST PUSH1 0x0 DUP3 DUP2 MSTORE PUSH1 0x7 PUSH1 0x20 MSTORE PUSH1 0x40 DUP2 KECCAK256 PUSH1 0x10 DUP2 ADD SLOAD PUSH1 0xE DUP3 ADD SLOAD PUSH1 0x3 SWAP1 SWAP3 ADD SLOAD SWAP1 SWAP3 SWAP1 PUSH2 0x164C SWAP1 PUSH2 0x163F SWAP1 DUP5 SWAP1 PUSH2 0x20EB JUMP JUMPDEST PUSH2 0x880 DUP6 PUSH2 0x821 DUP10 PUSH2 0x1812 JUMP JUMPDEST SWAP6 SWAP5 POP POP POP POP POP JUMP JUMPDEST PUSH1 0x0 PUSH1 0x1 PUSH1 0x1 PUSH1 0xA0 SHL SUB DUP3 AND PUSH2 0x16BF JUMPI PUSH1 0x40 MLOAD PUSH3 0x461BCD PUSH1 0xE5 SHL DUP2 MSTORE PUSH1 0x20 PUSH1 0x4 DUP3 ADD MSTORE PUSH1 0x29 PUSH1 0x24 DUP3 ADD MSTORE PUSH32 0x4552433732313A2061646472657373207A65726F206973206E6F742061207661 PUSH1 0x44 DUP3 ADD MSTORE PUSH9 0x3634B21037BBB732B9 PUSH1 0xB9 SHL PUSH1 0x64 DUP3 ADD MSTORE PUSH1 0x84 ADD PUSH2 0xA66 JUMP JUMPDEST POP PUSH1 0x1 PUSH1 0x1 PUSH1 0xA0 SHL SUB AND PUSH1 0x0 SWAP1 DUP2 MSTORE PUSH1 0x3 PUSH1 0x20 MSTORE PUSH1 0x40 SWAP1 KECCAK256 SLOAD SWAP1 JUMP JUMPDEST PUSH1 0x0 PUSH2 0x16E6 DUP3 PUSH2 0x26D7 JUMP JUMPDEST PUSH2 0x1702 JUMPI PUSH1 0x40 MLOAD PUSH3 0x461BCD PUSH1 0xE5 SHL DUP2 MSTORE PUSH1 0x4 ADD PUSH2 0xA66 SWAP1 PUSH2 0x347E JUMP JUMPDEST PUSH2 0x933 PUSH2 0x170E DUP4 PUSH2 0x15E8 JUMP JUMPDEST PUSH1 0x0 DUP5 DUP2 MSTORE PUSH1 0x7 PUSH1 0x20 MSTORE PUSH1 0x40 SWAP1 KECCAK256 PUSH1 0xA DUP2 ADD SLOAD PUSH1 0xB SWAP1 SWAP2 ADD SLOAD PUSH2 0x114D SWAP2 SWAP1 PUSH2 0x880 SWAP1 PUSH2 0x173B SWAP1 NUMBER SWAP1 PUSH2 0x1976 JUMP JUMPDEST PUSH2 0x821 DUP9 PUSH2 0x24BD JUMP JUMPDEST PUSH1 0x9 SLOAD PUSH1 0x1 PUSH1 0x1 PUSH1 0xA0 SHL SUB AND CALLER EQ PUSH2 0x176E JUMPI PUSH1 0x40 MLOAD PUSH3 0x461BCD PUSH1 0xE5 SHL DUP2 MSTORE PUSH1 0x4 ADD PUSH2 0xA66 SWAP1 PUSH2 0x3457 JUMP JUMPDEST PUSH1 0x12 DUP2 SWAP1 SSTORE PUSH1 0x40 MLOAD DUP2 DUP2 MSTORE PUSH32 0xDBED17FA1CBD28E0338D43E05619D042B9CA1AC23A9D5383EBE0AB7049FF16E SWAP1 PUSH1 0x20 ADD PUSH2 0xB67 JUMP JUMPDEST PUSH1 0x0 PUSH2 0x17AE DUP3 PUSH2 0x26D7 JUMP JUMPDEST PUSH2 0x17CA JUMPI PUSH1 0x40 MLOAD PUSH3 0x461BCD PUSH1 0xE5 SHL DUP2 MSTORE PUSH1 0x4 ADD PUSH2 0xA66 SWAP1 PUSH2 0x347E JUMP JUMPDEST PUSH1 0x10 SLOAD PUSH1 0x0 DUP4 DUP2 MSTORE PUSH1 0x7 PUSH1 0x20 MSTORE PUSH1 0x40 SWAP1 KECCAK256 PUSH1 0x3 ADD SLOAD PUSH2 0x17E9 SWAP2 SWAP1 PUSH2 0x350F JUMP JUMPDEST PUSH1 0xF SLOAD PUSH1 0x0 DUP5 DUP2 MSTORE PUSH1 0x7 PUSH1 0x20 MSTORE PUSH1 0x40 SWAP1 KECCAK256 PUSH1 0x1 ADD SLOAD PUSH2 0x1808 SWAP2 SWAP1 PUSH2 0x350F JUMP JUMPDEST PUSH2 0x933 SWAP2 SWAP1 PUSH2 0x3531 JUMP JUMPDEST PUSH1 0x0 PUSH2 0x181D DUP3 PUSH2 0x26D7 JUMP JUMPDEST PUSH2 0x1839 JUMPI PUSH1 0x40 MLOAD PUSH3 0x461BCD PUSH1 0xE5 SHL DUP2 MSTORE PUSH1 0x4 ADD PUSH2 0xA66 SWAP1 PUSH2 0x347E JUMP JUMPDEST PUSH1 0x0 DUP3 DUP2 MSTORE PUSH1 0x7 PUSH1 0x20 MSTORE PUSH1 0x40 SWAP1 KECCAK256 PUSH1 0x5 ADD SLOAD PUSH1 0x12 SLOAD PUSH1 0xA SWAP1 PUSH2 0x187A SWAP1 PUSH2 0x1873 SWAP1 PUSH2 0x186E SWAP1 PUSH2 0x1867 SWAP1 DUP7 PUSH2 0x20EB JUMP JUMPDEST PUSH1 0x7D PUSH2 0x2519 JUMP JUMPDEST PUSH2 0x2A8E JUMP JUMPDEST PUSH1 0x5 PUSH2 0x1976 JUMP JUMPDEST PUSH2 0x1884 SWAP2 SWAP1 PUSH2 0x350F JUMP JUMPDEST SWAP4 SWAP3 POP POP POP JUMP JUMPDEST CALLER PUSH1 0x0 SWAP1 DUP2 MSTORE PUSH1 0xB PUSH1 0x20 MSTORE PUSH1 0x40 SWAP1 KECCAK256 SLOAD PUSH1 0xFF AND PUSH2 0x18BA JUMPI PUSH1 0x40 MLOAD PUSH3 0x461BCD PUSH1 0xE5 SHL DUP2 MSTORE PUSH1 0x4 ADD PUSH2 0xA66 SWAP1 PUSH2 0x3457 JUMP JUMPDEST PUSH2 0x18C3 DUP3 PUSH2 0x26D7 JUMP JUMPDEST PUSH2 0x18DF JUMPI PUSH1 0x40 MLOAD PUSH3 0x461BCD PUSH1 0xE5 SHL DUP2 MSTORE PUSH1 0x4 ADD PUSH2 0xA66 SWAP1 PUSH2 0x347E JUMP JUMPDEST PUSH1 0x0 DUP3 DUP2 MSTORE PUSH1 0x7 PUSH1 0x20 MSTORE PUSH1 0x40 SWAP1 KECCAK256 PUSH1 0x14 ADD SLOAD PUSH1 0x1 EQ PUSH2 0x1958 JUMPI PUSH1 0x0 PUSH2 0x1903 DUP4 PUSH2 0x16DB JUMP JUMPDEST SWAP1 POP DUP2 DUP2 LT ISZERO PUSH2 0x1924 JUMPI PUSH1 0x0 DUP4 DUP2 MSTORE PUSH1 0x7 PUSH1 0x20 MSTORE PUSH1 0x40 DUP2 KECCAK256 PUSH1 0xA ADD SSTORE PUSH2 0x1941 JUMP JUMPDEST PUSH2 0x192E DUP2 DUP4 PUSH2 0x1976 JUMP JUMPDEST PUSH1 0x0 DUP5 DUP2 MSTORE PUSH1 0x7 PUSH1 0x20 MSTORE PUSH1 0x40 SWAP1 KECCAK256 PUSH1 0xA ADD SSTORE JUMPDEST POP PUSH1 0x0 DUP3 DUP2 MSTORE PUSH1 0x7 PUSH1 0x20 MSTORE PUSH1 0x40 SWAP1 KECCAK256 NUMBER PUSH1 0xB SWAP1 SWAP2 ADD SSTORE JUMPDEST POP POP JUMP JUMPDEST PUSH1 0x60 PUSH1 0x1 DUP1 SLOAD PUSH2 0x948 SWAP1 PUSH2 0x3423 JUMP JUMPDEST PUSH2 0x1958 CALLER DUP4 DUP4 PUSH2 0x2AFE JUMP JUMPDEST PUSH1 0x0 DUP3 DUP3 GT ISZERO PUSH2 0x19B9 JUMPI PUSH1 0x40 MLOAD PUSH3 0x461BCD PUSH1 0xE5 SHL DUP2 MSTORE PUSH1 0x20 PUSH1 0x4 DUP3 ADD MSTORE PUSH1 0xE PUSH1 0x24 DUP3 ADD MSTORE PUSH14 0x1CD8599954DD588811985A5B1959 PUSH1 0x92 SHL PUSH1 0x44 DUP3 ADD MSTORE PUSH1 0x64 ADD PUSH2 0xA66 JUMP JUMPDEST PUSH2 0x1884 DUP3 DUP5 PUSH2 0x3544 JUMP JUMPDEST PUSH1 0x0 DUP1 DUP3 PUSH1 0x4 DUP2 GT ISZERO PUSH2 0x19D8 JUMPI PUSH2 0x19D8 PUSH2 0x3557 JUMP JUMPDEST SUB PUSH2 0x1A1D JUMPI PUSH1 0x40 MLOAD PUSH3 0x461BCD PUSH1 0xE5 SHL DUP2 MSTORE PUSH1 0x20 PUSH1 0x4 DUP3 ADD MSTORE PUSH1 0x15 PUSH1 0x24 DUP3 ADD MSTORE PUSH21 0x496E76616C6964206669676874657220636C617373 PUSH1 0x58 SHL PUSH1 0x44 DUP3 ADD MSTORE PUSH1 0x64 ADD PUSH2 0xA66 JUMP JUMPDEST PUSH1 0x0 PUSH1 0x6 PUSH1 0x0 DUP5 PUSH1 0x4 DUP2 GT ISZERO PUSH2 0x1A35 JUMPI PUSH2 0x1A35 PUSH2 0x3557 JUMP JUMPDEST DUP2 MSTORE PUSH1 0x20 ADD SWAP1 DUP2 MSTORE PUSH1 0x20 ADD PUSH1 0x0 KECCAK256 PUSH1 0x40 MLOAD DUP1 PUSH2 0x400 ADD PUSH1 0x40 MSTORE SWAP1 DUP2 PUSH1 0x0 DUP3 ADD SLOAD DUP2 MSTORE PUSH1 0x20 ADD PUSH1 0x1 DUP3 ADD SLOAD DUP2 MSTORE PUSH1 0x20 ADD PUSH1 0x2 DUP3 ADD SLOAD DUP2 MSTORE PUSH1 0x20 ADD PUSH1 0x3 DUP3 ADD SLOAD DUP2 MSTORE PUSH1 0x20 ADD PUSH1 0x4 DUP3 ADD SLOAD DUP2 MSTORE PUSH1 0x20 ADD PUSH1 0x5 DUP3 ADD SLOAD DUP2 MSTORE PUSH1 0x20 ADD PUSH1 0x6 DUP3 ADD SLOAD DUP2 MSTORE PUSH1 0x20 ADD PUSH1 0x7 DUP3 ADD SLOAD DUP2 MSTORE PUSH1 0x20 ADD PUSH1 0x8 DUP3 ADD SLOAD DUP2 MSTORE PUSH1 0x20 ADD PUSH1 0x9 DUP3 ADD SLOAD DUP2 MSTORE PUSH1 0x20 ADD PUSH1 0xA DUP3 ADD SLOAD DUP2 MSTORE PUSH1 0x20 ADD PUSH1 0xB DUP3 ADD SLOAD DUP2 MSTORE PUSH1 0x20 ADD PUSH1 0xC DUP3 ADD SLOAD DUP2 MSTORE PUSH1 0x20 ADD PUSH1 0xD DUP3 ADD SLOAD DUP2 MSTORE PUSH1 0x20 ADD PUSH1 0xE DUP3 ADD SLOAD DUP2 MSTORE PUSH1 0x20 ADD PUSH1 0xF DUP3 ADD SLOAD DUP2 MSTORE PUSH1 0x20 ADD PUSH1 0x10 DUP3 ADD SLOAD DUP2 MSTORE PUSH1 0x20 ADD PUSH1 0x11 DUP3 ADD SLOAD DUP2 MSTORE PUSH1 0x20 ADD PUSH1 0x12 DUP3 ADD SLOAD DUP2 MSTORE PUSH1 0x20 ADD PUSH1 0x13 DUP3 ADD SLOAD DUP2 MSTORE PUSH1 0x20 ADD PUSH1 0x14 DUP3 ADD SLOAD DUP2 MSTORE PUSH1 0x20 ADD PUSH1 0x15 DUP3 ADD SLOAD DUP2 MSTORE PUSH1 0x20 ADD PUSH1 0x16 DUP3 ADD SLOAD DUP2 MSTORE PUSH1 0x20 ADD PUSH1 0x17 DUP3 ADD SLOAD DUP2 MSTORE PUSH1 0x20 ADD PUSH1 0x18 DUP3 ADD SLOAD DUP2 MSTORE PUSH1 0x20 ADD PUSH1 0x19 DUP3 ADD SLOAD DUP2 MSTORE PUSH1 0x20 ADD PUSH1 0x1A DUP3 ADD SLOAD DUP2 MSTORE PUSH1 0x20 ADD PUSH1 0x1B DUP3 ADD SLOAD DUP2 MSTORE PUSH1 0x20 ADD PUSH1 0x1C DUP3 ADD SLOAD DUP2 MSTORE PUSH1 0x20 ADD PUSH1 0x1D DUP3 ADD SLOAD DUP2 MSTORE PUSH1 0x20 ADD PUSH1 0x1E DUP3 ADD SLOAD DUP2 MSTORE PUSH1 0x20 ADD PUSH1 0x1F DUP3 ADD SLOAD DUP2 MSTORE POP POP SWAP1 POP PUSH2 0x1B9F PUSH1 0x8 DUP1 SLOAD PUSH1 0x1 ADD SWAP1 SSTORE JUMP JUMPDEST PUSH1 0x0 PUSH2 0x1BAA PUSH1 0x8 SLOAD SWAP1 JUMP JUMPDEST SWAP1 POP PUSH2 0x1BB6 CALLER DUP3 PUSH2 0x26F4 JUMP JUMPDEST PUSH2 0x1BC0 DUP2 DUP4 PUSH2 0x270E JUMP JUMPDEST PUSH1 0x0 DUP2 DUP2 MSTORE PUSH1 0x7 PUSH1 0x20 MSTORE PUSH1 0x40 SWAP1 KECCAK256 DUP2 SWAP1 SSTORE CALLER PUSH32 0xFA7343AD709AC91D3C10902ECF30B0048166EA21049DE84C532BC3DFDF8C6F0E DUP3 DUP7 PUSH1 0x4 DUP2 GT ISZERO PUSH2 0x1C06 JUMPI PUSH2 0x1C06 PUSH2 0x3557 JUMP JUMPDEST PUSH1 0x40 DUP1 MLOAD SWAP3 DUP4 MSTORE PUSH1 0xFF SWAP1 SWAP2 AND PUSH1 0x20 DUP4 ADD MSTORE ADD PUSH1 0x40 MLOAD DUP1 SWAP2 SUB SWAP1 LOG2 SWAP4 SWAP3 POP POP POP JUMP JUMPDEST CALLER PUSH1 0x0 SWAP1 DUP2 MSTORE PUSH1 0xB PUSH1 0x20 MSTORE PUSH1 0x40 SWAP1 KECCAK256 SLOAD PUSH1 0xFF AND PUSH2 0x1C56 JUMPI PUSH1 0x40 MLOAD PUSH3 0x461BCD PUSH1 0xE5 SHL DUP2 MSTORE PUSH1 0x4 ADD PUSH2 0xA66 SWAP1 PUSH2 0x3457 JUMP JUMPDEST PUSH2 0x1C5F DUP3 PUSH2 0x26D7 JUMP JUMPDEST PUSH2 0x1C7B JUMPI PUSH1 0x40 MLOAD PUSH3 0x461BCD PUSH1 0xE5 SHL DUP2 MSTORE PUSH1 0x4 ADD PUSH2 0xA66 SWAP1 PUSH2 0x347E JUMP JUMPDEST PUSH1 0x0 DUP3 DUP2 MSTORE PUSH1 0x7 PUSH1 0x20 MSTORE PUSH1 0x40 SWAP1 KECCAK256 PUSH1 0x14 ADD SLOAD PUSH1 0x1 EQ PUSH2 0x1958 JUMPI PUSH1 0x0 PUSH2 0x1C9F DUP4 PUSH2 0x11F9 JUMP JUMPDEST SWAP1 POP DUP2 DUP2 LT ISZERO PUSH2 0x1CC0 JUMPI PUSH1 0x0 DUP4 DUP2 MSTORE PUSH1 0x7 PUSH1 0x20 MSTORE PUSH1 0x40 DUP2 KECCAK256 PUSH1 0x6 ADD SSTORE PUSH2 0x1CDD JUMP JUMPDEST PUSH2 0x1CCA DUP2 DUP4 PUSH2 0x1976 JUMP JUMPDEST PUSH1 0x0 DUP5 DUP2 MSTORE PUSH1 0x7 PUSH1 0x20 MSTORE PUSH1 0x40 SWAP1 KECCAK256 PUSH1 0x6 ADD SSTORE JUMPDEST POP POP PUSH1 0x0 SWAP1 DUP2 MSTORE PUSH1 0x7 PUSH1 0x20 DUP2 SWAP1 MSTORE PUSH1 0x40 SWAP1 SWAP2 KECCAK256 NUMBER SWAP2 ADD SSTORE JUMP JUMPDEST PUSH1 0x0 PUSH2 0x1D01 DUP3 PUSH2 0x26D7 JUMP JUMPDEST PUSH2 0x1D1D JUMPI PUSH1 0x40 MLOAD PUSH3 0x461BCD PUSH1 0xE5 SHL DUP2 MSTORE PUSH1 0x4 ADD PUSH2 0xA66 SWAP1 PUSH2 0x347E JUMP JUMPDEST POP PUSH1 0x0 SWAP1 DUP2 MSTORE PUSH1 0x7 PUSH1 0x20 MSTORE PUSH1 0x40 SWAP1 KECCAK256 PUSH1 0x5 ADD SLOAD SWAP1 JUMP JUMPDEST PUSH2 0x1D3C DUP4 PUSH2 0x26D7 JUMP JUMPDEST PUSH2 0x1D7E JUMPI PUSH1 0x40 MLOAD PUSH3 0x461BCD PUSH1 0xE5 SHL DUP2 MSTORE PUSH1 0x20 PUSH1 0x4 DUP3 ADD MSTORE PUSH1 0x13 PUSH1 0x24 DUP3 ADD MSTORE PUSH19 0x10DA185C88191BD95CC81B9BDD08195E1A5CDD PUSH1 0x6A SHL PUSH1 0x44 DUP3 ADD MSTORE PUSH1 0x64 ADD PUSH2 0xA66 JUMP JUMPDEST CALLER PUSH2 0x1D88 DUP5 PUSH2 0x146B JUMP JUMPDEST PUSH1 0x1 PUSH1 0x1 PUSH1 0xA0 SHL SUB AND EQ PUSH2 0x1DAE JUMPI PUSH1 0x40 MLOAD PUSH3 0x461BCD PUSH1 0xE5 SHL DUP2 MSTORE PUSH1 0x4 ADD PUSH2 0xA66 SWAP1 PUSH2 0x3457 JUMP JUMPDEST PUSH1 0x0 DUP2 GT PUSH2 0x1DED JUMPI PUSH1 0x40 MLOAD PUSH3 0x461BCD PUSH1 0xE5 SHL DUP2 MSTORE PUSH1 0x20 PUSH1 0x4 DUP3 ADD MSTORE PUSH1 0xC PUSH1 0x24 DUP3 ADD MSTORE PUSH12 0x125B9D985B1A59081CDB1BDD PUSH1 0xA2 SHL PUSH1 0x44 DUP3 ADD MSTORE PUSH1 0x64 ADD PUSH2 0xA66 JUMP JUMPDEST DUP1 PUSH1 0x1 SUB PUSH2 0x1E0A JUMPI PUSH1 0x0 DUP4 DUP2 MSTORE PUSH1 0x7 PUSH1 0x20 MSTORE PUSH1 0x40 SWAP1 KECCAK256 PUSH1 0x15 ADD DUP3 SWAP1 SSTORE JUMPDEST DUP1 PUSH1 0x2 SUB PUSH2 0x1E27 JUMPI PUSH1 0x0 DUP4 DUP2 MSTORE PUSH1 0x7 PUSH1 0x20 MSTORE PUSH1 0x40 SWAP1 KECCAK256 PUSH1 0x16 ADD DUP3 SWAP1 SSTORE JUMPDEST DUP1 PUSH1 0x3 SUB PUSH2 0x1E44 JUMPI PUSH1 0x0 DUP4 DUP2 MSTORE PUSH1 0x7 PUSH1 0x20 MSTORE PUSH1 0x40 SWAP1 KECCAK256 PUSH1 0x17 ADD DUP3 SWAP1 SSTORE JUMPDEST DUP1 PUSH1 0x4 SUB PUSH2 0x1E61 JUMPI PUSH1 0x0 DUP4 DUP2 MSTORE PUSH1 0x7 PUSH1 0x20 MSTORE PUSH1 0x40 SWAP1 KECCAK256 PUSH1 0x18 ADD DUP3 SWAP1 SSTORE JUMPDEST DUP1 PUSH1 0x5 SUB PUSH2 0x1E7E JUMPI PUSH1 0x0 DUP4 DUP2 MSTORE PUSH1 0x7 PUSH1 0x20 MSTORE PUSH1 0x40 SWAP1 KECCAK256 PUSH1 0x19 ADD DUP3 SWAP1 SSTORE JUMPDEST DUP1 PUSH1 0x6 SUB PUSH2 0x1E9B JUMPI PUSH1 0x0 DUP4 DUP2 MSTORE PUSH1 0x7 PUSH1 0x20 MSTORE PUSH1 0x40 SWAP1 KECCAK256 PUSH1 0x1A ADD DUP3 SWAP1 SSTORE JUMPDEST DUP1 PUSH1 0x7 SUB PUSH2 0x1EB8 JUMPI PUSH1 0x0 DUP4 DUP2 MSTORE PUSH1 0x7 PUSH1 0x20 MSTORE PUSH1 0x40 SWAP1 KECCAK256 PUSH1 0x1B ADD DUP3 SWAP1 SSTORE JUMPDEST DUP1 PUSH1 0x8 SUB PUSH2 0x1ED5 JUMPI PUSH1 0x0 DUP4 DUP2 MSTORE PUSH1 0x7 PUSH1 0x20 MSTORE PUSH1 0x40 SWAP1 KECCAK256 PUSH1 0x1C ADD DUP3 SWAP1 SSTORE JUMPDEST DUP1 PUSH1 0x9 SUB PUSH2 0x1EF2 JUMPI PUSH1 0x0 DUP4 DUP2 MSTORE PUSH1 0x7 PUSH1 0x20 MSTORE PUSH1 0x40 SWAP1 KECCAK256 PUSH1 0x1D ADD DUP3 SWAP1 SSTORE JUMPDEST DUP1 PUSH1 0xA SUB PUSH2 0x1F0F JUMPI PUSH1 0x0 DUP4 DUP2 MSTORE PUSH1 0x7 PUSH1 0x20 MSTORE PUSH1 0x40 SWAP1 KECCAK256 PUSH1 0x1E ADD DUP3 SWAP1 SSTORE JUMPDEST DUP1 PUSH1 0xB SUB PUSH2 0x1F2C JUMPI PUSH1 0x0 DUP4 DUP2 MSTORE PUSH1 0x7 PUSH1 0x20 MSTORE PUSH1 0x40 SWAP1 KECCAK256 PUSH1 0x1F ADD DUP3 SWAP1 SSTORE JUMPDEST PUSH1 0x40 DUP1 MLOAD DUP5 DUP2 MSTORE PUSH1 0x20 DUP2 ADD DUP5 SWAP1 MSTORE SWAP1 DUP2 ADD DUP3 SWAP1 MSTORE PUSH32 0x4D71CE238D1218A1F21DE645B44D8D791C8C42F634AE4B7A576C6C548DDB639D SWAP1 PUSH1 0x60 ADD PUSH1 0x40 MLOAD DUP1 SWAP2 SUB SWAP1 LOG1 POP POP POP JUMP JUMPDEST PUSH2 0x1F7C CALLER DUP4 PUSH2 0x2896 JUMP JUMPDEST PUSH2 0x1F98 JUMPI PUSH1 0x40 MLOAD PUSH3 0x461BCD PUSH1 0xE5 SHL DUP2 MSTORE PUSH1 0x4 ADD PUSH2 0xA66 SWAP1 PUSH2 0x34AC JUMP JUMPDEST PUSH2 0x1FA4 DUP5 DUP5 DUP5 DUP5 PUSH2 0x2BCC JUMP JUMPDEST POP POP POP POP JUMP JUMPDEST PUSH1 0x0 PUSH2 0x1FB5 DUP3 PUSH2 0x26D7 JUMP JUMPDEST PUSH2 0x1FD1 JUMPI PUSH1 0x40 MLOAD PUSH3 0x461BCD PUSH1 0xE5 SHL DUP2 MSTORE PUSH1 0x4 ADD PUSH2 0xA66 SWAP1 PUSH2 0x347E JUMP JUMPDEST PUSH1 0x0 DUP3 DUP2 MSTORE PUSH1 0x7 PUSH1 0x20 MSTORE PUSH1 0x40 DUP2 KECCAK256 PUSH1 0xF DUP2 ADD SLOAD PUSH1 0xD SWAP1 SWAP2 ADD SLOAD SWAP1 SWAP2 PUSH2 0x164C PUSH2 0x1FFC DUP5 PUSH2 0x821 DUP9 PUSH2 0x1812 JUMP JUMPDEST PUSH1 0x0 DUP8 DUP2 MSTORE PUSH1 0x7 PUSH1 0x20 MSTORE PUSH1 0x40 SWAP1 KECCAK256 PUSH1 0x4 ADD SLOAD PUSH2 0x880 SWAP1 DUP6 SWAP1 PUSH2 0x20EB JUMP JUMPDEST PUSH1 0x60 PUSH2 0x2024 DUP3 PUSH2 0x2616 JUMP JUMPDEST PUSH1 0x0 PUSH2 0x203B PUSH1 0x40 DUP1 MLOAD PUSH1 0x20 DUP2 ADD SWAP1 SWAP2 MSTORE PUSH1 0x0 DUP2 MSTORE SWAP1 JUMP JUMPDEST SWAP1 POP PUSH1 0x0 DUP2 MLOAD GT PUSH2 0x205B JUMPI PUSH1 0x40 MLOAD DUP1 PUSH1 0x20 ADD PUSH1 0x40 MSTORE DUP1 PUSH1 0x0 DUP2 MSTORE POP PUSH2 0x1884 JUMP JUMPDEST DUP1 PUSH2 0x2065 DUP5 PUSH2 0x2BFF JUMP JUMPDEST PUSH1 0x40 MLOAD PUSH1 0x20 ADD PUSH2 0x2076 SWAP3 SWAP2 SWAP1 PUSH2 0x356D JUMP JUMPDEST PUSH1 0x40 MLOAD PUSH1 0x20 DUP2 DUP4 SUB SUB DUP2 MSTORE SWAP1 PUSH1 0x40 MSTORE SWAP4 SWAP3 POP POP POP JUMP JUMPDEST PUSH1 0x9 SLOAD PUSH1 0x1 PUSH1 0x1 PUSH1 0xA0 SHL SUB AND CALLER EQ PUSH2 0x20B6 JUMPI PUSH1 0x40 MLOAD PUSH3 0x461BCD PUSH1 0xE5 SHL DUP2 MSTORE PUSH1 0x4 ADD PUSH2 0xA66 SWAP1 PUSH2 0x3457 JUMP JUMPDEST PUSH1 0xC DUP2 SWAP1 SSTORE PUSH1 0x40 MLOAD DUP2 DUP2 MSTORE PUSH32 0x3DC2199CCEBB6B521944BBB446FD55EC36FC6B23C37808E7304AC55D535D3AC4 SWAP1 PUSH1 0x20 ADD PUSH2 0xB67 JUMP JUMPDEST PUSH1 0x0 DUP1 PUSH2 0x20F8 DUP4 DUP6 PUSH2 0x359C JUMP JUMPDEST SWAP1 POP DUP4 ISZERO DUP1 PUSH2 0x210F JUMPI POP DUP3 PUSH2 0x210D DUP6 DUP4 PUSH2 0x350F JUMP JUMPDEST EQ JUMPDEST PUSH2 0x1884 JUMPI PUSH1 0x40 MLOAD PUSH3 0x461BCD PUSH1 0xE5 SHL DUP2 MSTORE PUSH1 0x20 PUSH1 0x4 DUP3 ADD MSTORE PUSH1 0xE PUSH1 0x24 DUP3 ADD MSTORE PUSH14 0x1CD85999535D5B0811985A5B1959 PUSH1 0x92 SHL PUSH1 0x44 DUP3 ADD MSTORE PUSH1 0x64 ADD PUSH2 0xA66 JUMP JUMPDEST CALLER PUSH2 0x2156 DUP7 PUSH2 0x146B JUMP JUMPDEST PUSH1 0x1 PUSH1 0x1 PUSH1 0xA0 SHL SUB AND EQ PUSH2 0x217C JUMPI PUSH1 0x40 MLOAD PUSH3 0x461BCD PUSH1 0xE5 SHL DUP2 MSTORE PUSH1 0x4 ADD PUSH2 0xA66 SWAP1 PUSH2 0x3457 JUMP JUMPDEST PUSH1 0x0 DUP6 DUP2 MSTORE PUSH1 0x7 PUSH1 0x20 MSTORE PUSH1 0x40 SWAP1 KECCAK256 PUSH1 0x1 ADD SLOAD DUP5 LT ISZERO PUSH2 0x21DD JUMPI PUSH1 0x40 MLOAD PUSH3 0x461BCD PUSH1 0xE5 SHL DUP2 MSTORE PUSH1 0x20 PUSH1 0x4 DUP3 ADD MSTORE PUSH1 0x1B PUSH1 0x24 DUP3 ADD MSTORE PUSH32 0x537472656E6774682063616E2774206265206465637265617365640000000000 PUSH1 0x44 DUP3 ADD MSTORE PUSH1 0x64 ADD PUSH2 0xA66 JUMP JUMPDEST PUSH1 0x0 DUP6 DUP2 MSTORE PUSH1 0x7 PUSH1 0x20 MSTORE PUSH1 0x40 SWAP1 KECCAK256 PUSH1 0x2 ADD SLOAD DUP4 LT ISZERO PUSH2 0x223E JUMPI PUSH1 0x40 MLOAD PUSH3 0x461BCD PUSH1 0xE5 SHL DUP2 MSTORE PUSH1 0x20 PUSH1 0x4 DUP3 ADD MSTORE PUSH1 0x1A PUSH1 0x24 DUP3 ADD MSTORE PUSH32 0x4167696C6974792063616E277420626520646563726561736564000000000000 PUSH1 0x44 DUP3 ADD MSTORE PUSH1 0x64 ADD PUSH2 0xA66 JUMP JUMPDEST PUSH1 0x0 DUP6 DUP2 MSTORE PUSH1 0x7 PUSH1 0x20 MSTORE PUSH1 0x40 SWAP1 KECCAK256 PUSH1 0x3 ADD SLOAD DUP3 LT ISZERO PUSH2 0x229F JUMPI PUSH1 0x40 MLOAD PUSH3 0x461BCD PUSH1 0xE5 SHL DUP2 MSTORE PUSH1 0x20 PUSH1 0x4 DUP3 ADD MSTORE PUSH1 0x19 PUSH1 0x24 DUP3 ADD MSTORE PUSH32 0x456E657267792063616E27742062652064656372656173656400000000000000 PUSH1 0x44 DUP3 ADD MSTORE PUSH1 0x64 ADD PUSH2 0xA66 JUMP JUMPDEST PUSH1 0x0 DUP6 DUP2 MSTORE PUSH1 0x7 PUSH1 0x20 MSTORE PUSH1 0x40 SWAP1 KECCAK256 PUSH1 0x4 ADD SLOAD DUP2 LT ISZERO PUSH2 0x2300 JUMPI PUSH1 0x40 MLOAD PUSH3 0x461BCD PUSH1 0xE5 SHL DUP2 MSTORE PUSH1 0x20 PUSH1 0x4 DUP3 ADD MSTORE PUSH1 0x1B PUSH1 0x24 DUP3 ADD MSTORE PUSH32 0x566974616C6974792063616E2774206265206465637265617365640000000000 PUSH1 0x44 DUP3 ADD MSTORE PUSH1 0x64 ADD PUSH2 0xA66 JUMP JUMPDEST PUSH1 0x0 PUSH2 0x230B DUP7 PUSH2 0x127D JUMP JUMPDEST SWAP1 POP PUSH1 0x0 PUSH2 0x2318 DUP8 PUSH2 0x2403 JUMP JUMPDEST SWAP1 POP PUSH1 0x0 PUSH2 0x232E DUP8 PUSH2 0x880 DUP9 PUSH2 0x880 DUP10 DUP10 PUSH2 0x2519 JUMP JUMPDEST SWAP1 POP DUP3 DUP2 GT ISZERO PUSH2 0x2380 JUMPI PUSH1 0x40 MLOAD PUSH3 0x461BCD PUSH1 0xE5 SHL DUP2 MSTORE PUSH1 0x20 PUSH1 0x4 DUP3 ADD MSTORE PUSH1 0x1E PUSH1 0x24 DUP3 ADD MSTORE PUSH32 0x547279696E6720746F6F2061646420746F6F206D616E7920706F696E74730000 PUSH1 0x44 DUP3 ADD MSTORE PUSH1 0x64 ADD PUSH2 0xA66 JUMP JUMPDEST PUSH1 0x0 DUP9 DUP2 MSTORE PUSH1 0x7 PUSH1 0x20 SWAP1 DUP2 MSTORE PUSH1 0x40 SWAP2 DUP3 SWAP1 KECCAK256 PUSH1 0x1 DUP2 ADD DUP11 SWAP1 SSTORE PUSH1 0x2 DUP2 ADD DUP10 SWAP1 SSTORE PUSH1 0x3 DUP2 ADD DUP9 SWAP1 SSTORE PUSH1 0x4 ADD DUP7 SWAP1 SSTORE DUP2 MLOAD DUP11 DUP2 MSTORE SWAP1 DUP2 ADD DUP10 SWAP1 MSTORE SWAP1 DUP2 ADD DUP8 SWAP1 MSTORE PUSH1 0x60 DUP2 ADD DUP7 SWAP1 MSTORE PUSH1 0x80 DUP2 ADD DUP6 SWAP1 MSTORE PUSH32 0x9E28895821CEF6DAA08DA1E82406E8BE9675974FD115CCCA84E332E6C15CFF8F SWAP1 PUSH1 0xA0 ADD PUSH1 0x40 MLOAD DUP1 SWAP2 SUB SWAP1 LOG1 POP POP POP POP POP POP POP POP JUMP JUMPDEST PUSH1 0x0 DUP2 DUP2 MSTORE PUSH1 0x7 PUSH1 0x20 MSTORE PUSH1 0x40 DUP2 KECCAK256 PUSH1 0x1 DUP2 ADD SLOAD PUSH1 0x2 DUP3 ADD SLOAD PUSH1 0x3 DUP4 ADD SLOAD PUSH1 0x4 SWAP1 SWAP4 ADD SLOAD PUSH2 0x933 SWAP4 PUSH2 0x880 SWAP3 SWAP2 DUP4 SWAP2 SWAP1 PUSH2 0x2519 JUMP JUMPDEST PUSH1 0x9 SLOAD PUSH1 0x1 PUSH1 0x1 PUSH1 0xA0 SHL SUB AND CALLER EQ PUSH2 0x2461 JUMPI PUSH1 0x40 MLOAD PUSH3 0x461BCD PUSH1 0xE5 SHL DUP2 MSTORE PUSH1 0x4 ADD PUSH2 0xA66 SWAP1 PUSH2 0x3457 JUMP JUMPDEST PUSH1 0x1 PUSH1 0x1 PUSH1 0xA0 SHL SUB DUP3 AND PUSH1 0x0 DUP2 DUP2 MSTORE PUSH1 0xB PUSH1 0x20 SWAP1 DUP2 MSTORE PUSH1 0x40 SWAP2 DUP3 SWAP1 KECCAK256 DUP1 SLOAD PUSH1 0xFF NOT AND DUP6 ISZERO ISZERO SWAP1 DUP2 OR SWAP1 SWAP2 SSTORE DUP3 MLOAD SWAP4 DUP5 MSTORE SWAP1 DUP4 ADD MSTORE PUSH32 0x1C144AC08FCE1689D8F39E7C6B611FF5DE0A11668F47D49788F2D8ADD83669A SWAP2 ADD PUSH2 0x11ED JUMP JUMPDEST PUSH1 0x0 PUSH2 0x24C8 DUP3 PUSH2 0x26D7 JUMP JUMPDEST PUSH2 0x24E4 JUMPI PUSH1 0x40 MLOAD PUSH3 0x461BCD PUSH1 0xE5 SHL DUP2 MSTORE PUSH1 0x4 ADD PUSH2 0xA66 SWAP1 PUSH2 0x347E JUMP JUMPDEST PUSH1 0xD SLOAD PUSH1 0x0 DUP4 DUP2 MSTORE PUSH1 0x7 PUSH1 0x20 MSTORE PUSH1 0x40 SWAP1 KECCAK256 PUSH1 0x4 ADD SLOAD PUSH2 0x933 SWAP2 PUSH2 0x2506 SWAP2 PUSH2 0x350F JUMP JUMPDEST PUSH1 0x0 DUP5 DUP2 MSTORE PUSH1 0x7 PUSH1 0x20 MSTORE PUSH1 0x40 SWAP1 KECCAK256 PUSH1 0xC ADD SLOAD JUMPDEST PUSH1 0x0 DUP1 PUSH2 0x2526 DUP4 DUP6 PUSH2 0x3531 JUMP JUMPDEST SWAP1 POP DUP4 DUP2 LT ISZERO DUP1 ISZERO PUSH2 0x2538 JUMPI POP DUP3 DUP2 LT ISZERO JUMPDEST PUSH2 0x1884 JUMPI PUSH1 0x40 MLOAD PUSH3 0x461BCD PUSH1 0xE5 SHL DUP2 MSTORE PUSH1 0x20 PUSH1 0x4 DUP3 ADD MSTORE PUSH1 0xE PUSH1 0x24 DUP3 ADD MSTORE PUSH14 0x1CD859995059190811985A5B1959 PUSH1 0x92 SHL PUSH1 0x44 DUP3 ADD MSTORE PUSH1 0x64 ADD PUSH2 0xA66 JUMP JUMPDEST PUSH1 0x0 DUP1 PUSH2 0x258E PUSH1 0x5 PUSH2 0x2588 DUP6 PUSH1 0xA PUSH2 0x2C92 JUMP JUMPDEST SWAP1 PUSH2 0x2C9E JUMP JUMPDEST SWAP1 POP PUSH2 0x259B DUP2 PUSH1 0x2 PUSH2 0x2CAA JUMP JUMPDEST PUSH1 0x12 SLOAD SWAP1 SWAP2 POP PUSH2 0x1884 SWAP1 PUSH2 0x25B0 DUP4 PUSH1 0x7D PUSH2 0x2CFD JUMP JUMPDEST SWAP1 PUSH2 0x2D09 JUMP JUMPDEST PUSH1 0x0 PUSH2 0x25C1 DUP3 PUSH2 0x26D7 JUMP JUMPDEST PUSH2 0x25DD JUMPI PUSH1 0x40 MLOAD PUSH3 0x461BCD PUSH1 0xE5 SHL DUP2 MSTORE PUSH1 0x4 ADD PUSH2 0xA66 SWAP1 PUSH2 0x347E JUMP JUMPDEST PUSH1 0xC SLOAD PUSH1 0x0 DUP4 DUP2 MSTORE PUSH1 0x7 PUSH1 0x20 MSTORE PUSH1 0x40 SWAP1 KECCAK256 PUSH1 0x4 ADD SLOAD PUSH2 0x933 SWAP2 PUSH2 0x25FF SWAP2 PUSH2 0x350F JUMP JUMPDEST PUSH1 0x0 DUP5 DUP2 MSTORE PUSH1 0x7 PUSH1 0x20 MSTORE PUSH1 0x40 SWAP1 KECCAK256 PUSH1 0x9 ADD SLOAD PUSH2 0x2519 JUMP JUMPDEST PUSH2 0x261F DUP2 PUSH2 0x26D7 JUMP JUMPDEST PUSH2 0x2666 JUMPI PUSH1 0x40 MLOAD PUSH3 0x461BCD PUSH1 0xE5 SHL DUP2 MSTORE PUSH1 0x20 PUSH1 0x4 DUP3 ADD MSTORE PUSH1 0x18 PUSH1 0x24 DUP3 ADD MSTORE PUSH24 0x115490CDCC8C4E881A5B9D985B1A59081D1BDAD95B881251 PUSH1 0x42 SHL PUSH1 0x44 DUP3 ADD MSTORE PUSH1 0x64 ADD PUSH2 0xA66 JUMP JUMPDEST POP JUMP JUMPDEST PUSH1 0x0 DUP2 DUP2 MSTORE PUSH1 0x4 PUSH1 0x20 MSTORE PUSH1 0x40 SWAP1 KECCAK256 DUP1 SLOAD PUSH1 0x1 PUSH1 0x1 PUSH1 0xA0 SHL SUB NOT AND PUSH1 0x1 PUSH1 0x1 PUSH1 0xA0 SHL SUB DUP5 AND SWAP1 DUP2 OR SWAP1 SWAP2 SSTORE DUP2 SWAP1 PUSH2 0x269E DUP3 PUSH2 0x146B JUMP JUMPDEST PUSH1 0x1 PUSH1 0x1 PUSH1 0xA0 SHL SUB AND PUSH32 0x8C5BE1E5EBEC7D5BD14F71427D1E84F3DD0314C0F7B2291E5B200AC8C7C3B925 PUSH1 0x40 MLOAD PUSH1 0x40 MLOAD DUP1 SWAP2 SUB SWAP1 LOG4 POP POP JUMP JUMPDEST PUSH1 0x0 SWAP1 DUP2 MSTORE PUSH1 0x2 PUSH1 0x20 MSTORE PUSH1 0x40 SWAP1 KECCAK256 SLOAD PUSH1 0x1 PUSH1 0x1 PUSH1 0xA0 SHL SUB AND ISZERO ISZERO SWAP1 JUMP JUMPDEST PUSH2 0x1958 DUP3 DUP3 PUSH1 0x40 MLOAD DUP1 PUSH1 0x20 ADD PUSH1 0x40 MSTORE DUP1 PUSH1 0x0 DUP2 MSTORE POP PUSH2 0x2D15 JUMP JUMPDEST PUSH2 0x2717 DUP3 PUSH2 0x26D7 JUMP JUMPDEST PUSH2 0x2733 JUMPI PUSH1 0x40 MLOAD PUSH3 0x461BCD PUSH1 0xE5 SHL DUP2 MSTORE PUSH1 0x4 ADD PUSH2 0xA66 SWAP1 PUSH2 0x347E JUMP JUMPDEST PUSH1 0x0 SWAP2 DUP3 MSTORE PUSH1 0x7 PUSH1 0x20 DUP2 DUP2 MSTORE PUSH1 0x40 SWAP4 DUP5 SWAP1 KECCAK256 DUP4 MLOAD DUP2 SSTORE SWAP1 DUP4 ADD MLOAD PUSH1 0x1 DUP3 ADD SSTORE SWAP3 DUP3 ADD MLOAD PUSH1 0x2 DUP5 ADD SSTORE PUSH1 0x60 DUP3 ADD MLOAD PUSH1 0x3 DUP5 ADD SSTORE PUSH1 0x80 DUP3 ADD MLOAD PUSH1 0x4 DUP5 ADD SSTORE PUSH1 0xA0 DUP3 ADD MLOAD PUSH1 0x5 DUP5 ADD SSTORE PUSH1 0xC0 DUP3 ADD MLOAD PUSH1 0x6 DUP5 ADD SSTORE PUSH1 0xE0 DUP3 ADD MLOAD SWAP1 DUP4 ADD SSTORE PUSH2 0x100 DUP2 ADD MLOAD PUSH1 0x8 DUP4 ADD SSTORE PUSH2 0x120 DUP2 ADD MLOAD PUSH1 0x9 DUP4 ADD SSTORE PUSH2 0x140 DUP2 ADD MLOAD PUSH1 0xA DUP4 ADD SSTORE PUSH2 0x160 DUP2 ADD MLOAD PUSH1 0xB DUP4 ADD SSTORE PUSH2 0x180 DUP2 ADD MLOAD PUSH1 0xC DUP4 ADD SSTORE PUSH2 0x1A0 DUP2 ADD MLOAD PUSH1 0xD DUP4 ADD SSTORE PUSH2 0x1C0 DUP2 ADD MLOAD PUSH1 0xE DUP4 ADD SSTORE PUSH2 0x1E0 DUP2 ADD MLOAD PUSH1 0xF DUP4 ADD SSTORE PUSH2 0x200 DUP2 ADD MLOAD PUSH1 0x10 DUP4 ADD SSTORE PUSH2 0x220 DUP2 ADD MLOAD PUSH1 0x11 DUP4 ADD SSTORE PUSH2 0x240 DUP2 ADD MLOAD PUSH1 0x12 DUP4 ADD SSTORE PUSH2 0x260 DUP2 ADD MLOAD PUSH1 0x13 DUP4 ADD SSTORE PUSH2 0x280 DUP2 ADD MLOAD PUSH1 0x14 DUP4 ADD SSTORE PUSH2 0x2A0 DUP2 ADD MLOAD PUSH1 0x15 DUP4 ADD SSTORE PUSH2 0x2C0 DUP2 ADD MLOAD PUSH1 0x16 DUP4 ADD SSTORE PUSH2 0x2E0 DUP2 ADD MLOAD PUSH1 0x17 DUP4 ADD SSTORE PUSH2 0x300 DUP2 ADD MLOAD PUSH1 0x18 DUP4 ADD SSTORE PUSH2 0x320 DUP2 ADD MLOAD PUSH1 0x19 DUP4 ADD SSTORE PUSH2 0x340 DUP2 ADD MLOAD PUSH1 0x1A DUP4 ADD SSTORE PUSH2 0x360 DUP2 ADD MLOAD PUSH1 0x1B DUP4 ADD SSTORE PUSH2 0x380 DUP2 ADD MLOAD PUSH1 0x1C DUP4 ADD SSTORE PUSH2 0x3A0 DUP2 ADD MLOAD PUSH1 0x1D DUP4 ADD SSTORE PUSH2 0x3C0 DUP2 ADD MLOAD PUSH1 0x1E DUP4 ADD SSTORE PUSH2 0x3E0 ADD MLOAD PUSH1 0x1F SWAP1 SWAP2 ADD SSTORE JUMP JUMPDEST PUSH1 0x0 DUP1 PUSH2 0x28A2 DUP4 PUSH2 0x146B JUMP JUMPDEST SWAP1 POP DUP1 PUSH1 0x1 PUSH1 0x1 PUSH1 0xA0 SHL SUB AND DUP5 PUSH1 0x1 PUSH1 0x1 PUSH1 0xA0 SHL SUB AND EQ DUP1 PUSH2 0x28E9 JUMPI POP PUSH1 0x1 PUSH1 0x1 PUSH1 0xA0 SHL SUB DUP1 DUP3 AND PUSH1 0x0 SWAP1 DUP2 MSTORE PUSH1 0x5 PUSH1 0x20 SWAP1 DUP2 MSTORE PUSH1 0x40 DUP1 DUP4 KECCAK256 SWAP4 DUP9 AND DUP4 MSTORE SWAP3 SWAP1 MSTORE KECCAK256 SLOAD PUSH1 0xFF AND JUMPDEST DUP1 PUSH2 0x12F7 JUMPI POP DUP4 PUSH1 0x1 PUSH1 0x1 PUSH1 0xA0 SHL SUB AND PUSH2 0x2902 DUP5 PUSH2 0x9CB JUMP JUMPDEST PUSH1 0x1 PUSH1 0x1 PUSH1 0xA0 SHL SUB AND EQ SWAP5 SWAP4 POP POP POP POP JUMP JUMPDEST DUP3 PUSH1 0x1 PUSH1 0x1 PUSH1 0xA0 SHL SUB AND PUSH2 0x2927 DUP3 PUSH2 0x146B JUMP JUMPDEST PUSH1 0x1 PUSH1 0x1 PUSH1 0xA0 SHL SUB AND EQ PUSH2 0x294D JUMPI PUSH1 0x40 MLOAD PUSH3 0x461BCD PUSH1 0xE5 SHL DUP2 MSTORE PUSH1 0x4 ADD PUSH2 0xA66 SWAP1 PUSH2 0x35B3 JUMP JUMPDEST PUSH1 0x1 PUSH1 0x1 PUSH1 0xA0 SHL SUB DUP3 AND PUSH2 0x29AF JUMPI PUSH1 0x40 MLOAD PUSH3 0x461BCD PUSH1 0xE5 SHL DUP2 MSTORE PUSH1 0x20 PUSH1 0x4 DUP3 ADD MSTORE PUSH1 0x24 DUP1 DUP3 ADD MSTORE PUSH32 0x4552433732313A207472616E7366657220746F20746865207A65726F20616464 PUSH1 0x44 DUP3 ADD MSTORE PUSH4 0x72657373 PUSH1 0xE0 SHL PUSH1 0x64 DUP3 ADD MSTORE PUSH1 0x84 ADD PUSH2 0xA66 JUMP JUMPDEST DUP3 PUSH1 0x1 PUSH1 0x1 PUSH1 0xA0 SHL SUB AND PUSH2 0x29C2 DUP3 PUSH2 0x146B JUMP JUMPDEST PUSH1 0x1 PUSH1 0x1 PUSH1 0xA0 SHL SUB AND EQ PUSH2 0x29E8 JUMPI PUSH1 0x40 MLOAD PUSH3 0x461BCD PUSH1 0xE5 SHL DUP2 MSTORE PUSH1 0x4 ADD PUSH2 0xA66 SWAP1 PUSH2 0x35B3 JUMP JUMPDEST PUSH1 0x0 DUP2 DUP2 MSTORE PUSH1 0x4 PUSH1 0x20 SWAP1 DUP2 MSTORE PUSH1 0x40 DUP1 DUP4 KECCAK256 DUP1 SLOAD PUSH1 0x1 PUSH1 0x1 PUSH1 0xA0 SHL SUB NOT SWAP1 DUP2 AND SWAP1 SWAP2 SSTORE PUSH1 0x1 PUSH1 0x1 PUSH1 0xA0 SHL SUB DUP8 DUP2 AND DUP1 DUP7 MSTORE PUSH1 0x3 DUP6 MSTORE DUP4 DUP7 KECCAK256 DUP1 SLOAD PUSH1 0x0 NOT ADD SWAP1 SSTORE SWAP1 DUP8 AND DUP1 DUP7 MSTORE DUP4 DUP7 KECCAK256 DUP1 SLOAD PUSH1 0x1 ADD SWAP1 SSTORE DUP7 DUP7 MSTORE PUSH1 0x2 SWAP1 SWAP5 MSTORE DUP3 DUP6 KECCAK256 DUP1 SLOAD SWAP1 SWAP3 AND DUP5 OR SWAP1 SWAP2 SSTORE SWAP1 MLOAD DUP5 SWAP4 PUSH32 0xDDF252AD1BE2C89B69C2B068FC378DAA952BA7F163C4A11628F55A4DF523B3EF SWAP2 LOG4 POP POP POP JUMP JUMPDEST PUSH1 0x0 DUP2 DUP4 LT PUSH2 0x2A87 JUMPI DUP2 PUSH2 0x1884 JUMP JUMPDEST POP SWAP1 SWAP2 SWAP1 POP JUMP JUMPDEST PUSH1 0x0 PUSH1 0x3 DUP3 GT ISZERO PUSH2 0x2AEF JUMPI POP DUP1 PUSH1 0x0 PUSH2 0x2AA8 PUSH1 0x2 DUP4 PUSH2 0x350F JUMP JUMPDEST PUSH2 0x2AB3 SWAP1 PUSH1 0x1 PUSH2 0x3531 JUMP JUMPDEST SWAP1 POP JUMPDEST DUP2 DUP2 LT ISZERO PUSH2 0x2AE9 JUMPI SWAP1 POP DUP1 PUSH1 0x2 DUP2 PUSH2 0x2ACE DUP2 DUP7 PUSH2 0x350F JUMP JUMPDEST PUSH2 0x2AD8 SWAP2 SWAP1 PUSH2 0x3531 JUMP JUMPDEST PUSH2 0x2AE2 SWAP2 SWAP1 PUSH2 0x350F JUMP JUMPDEST SWAP1 POP PUSH2 0x2AB6 JUMP JUMPDEST POP SWAP2 SWAP1 POP JUMP JUMPDEST DUP2 ISZERO PUSH2 0x2AF9 JUMPI POP PUSH1 0x1 JUMPDEST SWAP2 SWAP1 POP JUMP JUMPDEST DUP2 PUSH1 0x1 PUSH1 0x1 PUSH1 0xA0 SHL SUB AND DUP4 PUSH1 0x1 PUSH1 0x1 PUSH1 0xA0 SHL SUB AND SUB PUSH2 0x2B5F JUMPI PUSH1 0x40 MLOAD PUSH3 0x461BCD PUSH1 0xE5 SHL DUP2 MSTORE PUSH1 0x20 PUSH1 0x4 DUP3 ADD MSTORE PUSH1 0x19 PUSH1 0x24 DUP3 ADD MSTORE PUSH32 0x4552433732313A20617070726F766520746F2063616C6C657200000000000000 PUSH1 0x44 DUP3 ADD MSTORE PUSH1 0x64 ADD PUSH2 0xA66 JUMP JUMPDEST PUSH1 0x1 PUSH1 0x1 PUSH1 0xA0 SHL SUB DUP4 DUP2 AND PUSH1 0x0 DUP2 DUP2 MSTORE PUSH1 0x5 PUSH1 0x20 SWAP1 DUP2 MSTORE PUSH1 0x40 DUP1 DUP4 KECCAK256 SWAP5 DUP8 AND DUP1 DUP5 MSTORE SWAP5 DUP3 MSTORE SWAP2 DUP3 SWAP1 KECCAK256 DUP1 SLOAD PUSH1 0xFF NOT AND DUP7 ISZERO ISZERO SWAP1 DUP2 OR SWAP1 SWAP2 SSTORE SWAP2 MLOAD SWAP2 DUP3 MSTORE PUSH32 0x17307EAB39AB6107E8899845AD3D59BD9653F200F220920489CA2B5937696C31 SWAP2 ADD PUSH1 0x40 MLOAD DUP1 SWAP2 SUB SWAP1 LOG3 POP POP POP JUMP JUMPDEST PUSH2 0x2BD7 DUP5 DUP5 DUP5 PUSH2 0x2914 JUMP JUMPDEST PUSH2 0x2BE3 DUP5 DUP5 DUP5 DUP5 PUSH2 0x2D48 JUMP JUMPDEST PUSH2 0x1FA4 JUMPI PUSH1 0x40 MLOAD PUSH3 0x461BCD PUSH1 0xE5 SHL DUP2 MSTORE PUSH1 0x4 ADD PUSH2 0xA66 SWAP1 PUSH2 0x35F8 JUMP JUMPDEST PUSH1 0x60 PUSH1 0x0 PUSH2 0x2C0C DUP4 PUSH2 0x2E49 JUMP JUMPDEST PUSH1 0x1 ADD SWAP1 POP PUSH1 0x0 DUP2 PUSH8 0xFFFFFFFFFFFFFFFF DUP2 GT ISZERO PUSH2 0x2C2C JUMPI PUSH2 0x2C2C PUSH2 0x32C3 JUMP JUMPDEST PUSH1 0x40 MLOAD SWAP1 DUP1 DUP3 MSTORE DUP1 PUSH1 0x1F ADD PUSH1 0x1F NOT AND PUSH1 0x20 ADD DUP3 ADD PUSH1 0x40 MSTORE DUP1 ISZERO PUSH2 0x2C56 JUMPI PUSH1 0x20 DUP3 ADD DUP2 DUP1 CALLDATASIZE DUP4 CALLDATACOPY ADD SWAP1 POP JUMPDEST POP SWAP1 POP DUP2 DUP2 ADD PUSH1 0x20 ADD JUMPDEST PUSH1 0x0 NOT ADD PUSH16 0x181899199A1A9B1B9C1CB0B131B232B3 PUSH1 0x81 SHL PUSH1 0xA DUP7 MOD BYTE DUP2 MSTORE8 PUSH1 0xA DUP6 DIV SWAP5 POP DUP5 PUSH2 0x2C60 JUMPI POP SWAP4 SWAP3 POP POP POP JUMP JUMPDEST PUSH1 0x0 PUSH2 0x1884 DUP3 DUP5 PUSH2 0x359C JUMP JUMPDEST PUSH1 0x0 PUSH2 0x1884 DUP3 DUP5 PUSH2 0x3531 JUMP JUMPDEST PUSH1 0x0 DUP2 PUSH1 0x0 SUB PUSH2 0x2CBC JUMPI POP PUSH1 0x1 PUSH2 0x933 JUMP JUMPDEST DUP2 PUSH1 0x1 SUB PUSH2 0x2CCB JUMPI POP DUP2 PUSH2 0x933 JUMP JUMPDEST DUP3 PUSH1 0x1 JUMPDEST DUP4 DUP2 LT ISZERO PUSH2 0x2CF5 JUMPI PUSH2 0x2CE1 DUP3 DUP7 PUSH2 0x2C92 JUMP JUMPDEST SWAP2 POP DUP1 PUSH2 0x2CED DUP2 PUSH2 0x364A JUMP JUMPDEST SWAP2 POP POP PUSH2 0x2CCF JUMP JUMPDEST POP SWAP4 SWAP3 POP POP POP JUMP JUMPDEST PUSH1 0x0 PUSH2 0x1884 DUP3 DUP5 PUSH2 0x3544 JUMP JUMPDEST PUSH1 0x0 PUSH2 0x1884 DUP3 DUP5 PUSH2 0x350F JUMP JUMPDEST PUSH2 0x2D1F DUP4 DUP4 PUSH2 0x2F21 JUMP JUMPDEST PUSH2 0x2D2C PUSH1 0x0 DUP5 DUP5 DUP5 PUSH2 0x2D48 JUMP JUMPDEST PUSH2 0xB07 JUMPI PUSH1 0x40 MLOAD PUSH3 0x461BCD PUSH1 0xE5 SHL DUP2 MSTORE PUSH1 0x4 ADD PUSH2 0xA66 SWAP1 PUSH2 0x35F8 JUMP JUMPDEST PUSH1 0x0 PUSH1 0x1 PUSH1 0x1 PUSH1 0xA0 SHL SUB DUP5 AND EXTCODESIZE ISZERO PUSH2 0x2E3E JUMPI PUSH1 0x40 MLOAD PUSH4 0xA85BD01 PUSH1 0xE1 SHL DUP2 MSTORE PUSH1 0x1 PUSH1 0x1 PUSH1 0xA0 SHL SUB DUP6 AND SWAP1 PUSH4 0x150B7A02 SWAP1 PUSH2 0x2D8C SWAP1 CALLER SWAP1 DUP10 SWAP1 DUP9 SWAP1 DUP9 SWAP1 PUSH1 0x4 ADD PUSH2 0x3663 JUMP JUMPDEST PUSH1 0x20 PUSH1 0x40 MLOAD DUP1 DUP4 SUB DUP2 PUSH1 0x0 DUP8 GAS CALL SWAP3 POP POP POP DUP1 ISZERO PUSH2 0x2DC7 JUMPI POP PUSH1 0x40 DUP1 MLOAD PUSH1 0x1F RETURNDATASIZE SWAP1 DUP2 ADD PUSH1 0x1F NOT AND DUP3 ADD SWAP1 SWAP3 MSTORE PUSH2 0x2DC4 SWAP2 DUP2 ADD SWAP1 PUSH2 0x36A0 JUMP JUMPDEST PUSH1 0x1 JUMPDEST PUSH2 0x2E24 JUMPI RETURNDATASIZE DUP1 DUP1 ISZERO PUSH2 0x2DF5 JUMPI PUSH1 0x40 MLOAD SWAP2 POP PUSH1 0x1F NOT PUSH1 0x3F RETURNDATASIZE ADD AND DUP3 ADD PUSH1 0x40 MSTORE RETURNDATASIZE DUP3 MSTORE RETURNDATASIZE PUSH1 0x0 PUSH1 0x20 DUP5 ADD RETURNDATACOPY PUSH2 0x2DFA JUMP JUMPDEST PUSH1 0x60 SWAP2 POP JUMPDEST POP DUP1 MLOAD PUSH1 0x0 SUB PUSH2 0x2E1C JUMPI PUSH1 0x40 MLOAD PUSH3 0x461BCD PUSH1 0xE5 SHL DUP2 MSTORE PUSH1 0x4 ADD PUSH2 0xA66 SWAP1 PUSH2 0x35F8 JUMP JUMPDEST DUP1 MLOAD DUP2 PUSH1 0x20 ADD REVERT JUMPDEST PUSH1 0x1 PUSH1 0x1 PUSH1 0xE0 SHL SUB NOT AND PUSH4 0xA85BD01 PUSH1 0xE1 SHL EQ SWAP1 POP PUSH2 0x12F7 JUMP JUMPDEST POP PUSH1 0x1 SWAP5 SWAP4 POP POP POP POP JUMP JUMPDEST PUSH1 0x0 DUP1 PUSH19 0x184F03E93FF9F4DAA797ED6E38ED64BF6A1F01 PUSH1 0x40 SHL DUP4 LT PUSH2 0x2E88 JUMPI PUSH19 0x184F03E93FF9F4DAA797ED6E38ED64BF6A1F01 PUSH1 0x40 SHL DUP4 DIV SWAP3 POP PUSH1 0x40 ADD JUMPDEST PUSH14 0x4EE2D6D415B85ACEF8100000000 DUP4 LT PUSH2 0x2EB4 JUMPI PUSH14 0x4EE2D6D415B85ACEF8100000000 DUP4 DIV SWAP3 POP PUSH1 0x20 ADD JUMPDEST PUSH7 0x2386F26FC10000 DUP4 LT PUSH2 0x2ED2 JUMPI PUSH7 0x2386F26FC10000 DUP4 DIV SWAP3 POP PUSH1 0x10 ADD JUMPDEST PUSH4 0x5F5E100 DUP4 LT PUSH2 0x2EEA JUMPI PUSH4 0x5F5E100 DUP4 DIV SWAP3 POP PUSH1 0x8 ADD JUMPDEST PUSH2 0x2710 DUP4 LT PUSH2 0x2EFE JUMPI PUSH2 0x2710 DUP4 DIV SWAP3 POP PUSH1 0x4 ADD JUMPDEST PUSH1 0x64 DUP4 LT PUSH2 0x2F10 JUMPI PUSH1 0x64 DUP4 DIV SWAP3 POP PUSH1 0x2 ADD JUMPDEST PUSH1 0xA DUP4 LT PUSH2 0x933 JUMPI PUSH1 0x1 ADD SWAP3 SWAP2 POP POP JUMP JUMPDEST PUSH1 0x1 PUSH1 0x1 PUSH1 0xA0 SHL SUB DUP3 AND PUSH2 0x2F77 JUMPI PUSH1 0x40 MLOAD PUSH3 0x461BCD PUSH1 0xE5 SHL DUP2 MSTORE PUSH1 0x20 PUSH1 0x4 DUP3 ADD DUP2 SWAP1 MSTORE PUSH1 0x24 DUP3 ADD MSTORE PUSH32 0x4552433732313A206D696E7420746F20746865207A65726F2061646472657373 PUSH1 0x44 DUP3 ADD MSTORE PUSH1 0x64 ADD PUSH2 0xA66 JUMP JUMPDEST PUSH2 0x2F80 DUP2 PUSH2 0x26D7 JUMP JUMPDEST ISZERO PUSH2 0x2FCD JUMPI PUSH1 0x40 MLOAD PUSH3 0x461BCD PUSH1 0xE5 SHL DUP2 MSTORE PUSH1 0x20 PUSH1 0x4 DUP3 ADD MSTORE PUSH1 0x1C PUSH1 0x24 DUP3 ADD MSTORE PUSH32 0x4552433732313A20746F6B656E20616C7265616479206D696E74656400000000 PUSH1 0x44 DUP3 ADD MSTORE PUSH1 0x64 ADD PUSH2 0xA66 JUMP JUMPDEST PUSH2 0x2FD6 DUP2 PUSH2 0x26D7 JUMP JUMPDEST ISZERO PUSH2 0x3023 JUMPI PUSH1 0x40 MLOAD PUSH3 0x461BCD PUSH1 0xE5 SHL DUP2 MSTORE PUSH1 0x20 PUSH1 0x4 DUP3 ADD MSTORE PUSH1 0x1C PUSH1 0x24 DUP3 ADD MSTORE PUSH32 0x4552433732313A20746F6B656E20616C7265616479206D696E74656400000000 PUSH1 0x44 DUP3 ADD MSTORE PUSH1 0x64 ADD PUSH2 0xA66 JUMP JUMPDEST PUSH1 0x1 PUSH1 0x1 PUSH1 0xA0 SHL SUB DUP3 AND PUSH1 0x0 DUP2 DUP2 MSTORE PUSH1 0x3 PUSH1 0x20 SWAP1 DUP2 MSTORE PUSH1 0x40 DUP1 DUP4 KECCAK256 DUP1 SLOAD PUSH1 0x1 ADD SWAP1 SSTORE DUP5 DUP4 MSTORE PUSH1 0x2 SWAP1 SWAP2 MSTORE DUP1 DUP3 KECCAK256 DUP1 SLOAD PUSH1 0x1 PUSH1 0x1 PUSH1 0xA0 SHL SUB NOT AND DUP5 OR SWAP1 SSTORE MLOAD DUP4 SWAP3 SWAP2 SWAP1 PUSH32 0xDDF252AD1BE2C89B69C2B068FC378DAA952BA7F163C4A11628F55A4DF523B3EF SWAP1 DUP3 SWAP1 LOG4 POP POP JUMP JUMPDEST PUSH1 0x1 PUSH1 0x1 PUSH1 0xE0 SHL SUB NOT DUP2 AND DUP2 EQ PUSH2 0x2666 JUMPI PUSH1 0x0 DUP1 REVERT JUMPDEST PUSH1 0x0 PUSH1 0x20 DUP3 DUP5 SUB SLT ISZERO PUSH2 0x30B6 JUMPI PUSH1 0x0 DUP1 REVERT JUMPDEST DUP2 CALLDATALOAD PUSH2 0x1884 DUP2 PUSH2 0x308E JUMP JUMPDEST PUSH1 0x0 JUMPDEST DUP4 DUP2 LT ISZERO PUSH2 0x30DC JUMPI DUP2 DUP2 ADD MLOAD DUP4 DUP3 ADD MSTORE PUSH1 0x20 ADD PUSH2 0x30C4 JUMP JUMPDEST POP POP PUSH1 0x0 SWAP2 ADD MSTORE JUMP JUMPDEST PUSH1 0x0 DUP2 MLOAD DUP1 DUP5 MSTORE PUSH2 0x30FD DUP2 PUSH1 0x20 DUP7 ADD PUSH1 0x20 DUP7 ADD PUSH2 0x30C1 JUMP JUMPDEST PUSH1 0x1F ADD PUSH1 0x1F NOT AND SWAP3 SWAP1 SWAP3 ADD PUSH1 0x20 ADD SWAP3 SWAP2 POP POP JUMP JUMPDEST PUSH1 0x20 DUP2 MSTORE PUSH1 0x0 PUSH2 0x1884 PUSH1 0x20 DUP4 ADD DUP5 PUSH2 0x30E5 JUMP JUMPDEST PUSH1 0x0 PUSH1 0x20 DUP3 DUP5 SUB SLT ISZERO PUSH2 0x3136 JUMPI PUSH1 0x0 DUP1 REVERT JUMPDEST POP CALLDATALOAD SWAP2 SWAP1 POP JUMP JUMPDEST DUP1 CALLDATALOAD PUSH1 0x1 PUSH1 0x1 PUSH1 0xA0 SHL SUB DUP2 AND DUP2 EQ PUSH2 0x2AF9 JUMPI PUSH1 0x0 DUP1 REVERT JUMPDEST PUSH1 0x0 DUP1 PUSH1 0x40 DUP4 DUP6 SUB SLT ISZERO PUSH2 0x3167 JUMPI PUSH1 0x0 DUP1 REVERT JUMPDEST PUSH2 0x3170 DUP4 PUSH2 0x313D JUMP JUMPDEST SWAP5 PUSH1 0x20 SWAP4 SWAP1 SWAP4 ADD CALLDATALOAD SWAP4 POP POP POP JUMP JUMPDEST PUSH1 0x0 PUSH1 0x20 DUP3 DUP5 SUB SLT ISZERO PUSH2 0x3190 JUMPI PUSH1 0x0 DUP1 REVERT JUMPDEST PUSH2 0x1884 DUP3 PUSH2 0x313D JUMP JUMPDEST PUSH1 0x0 DUP1 PUSH1 0x0 DUP1 PUSH1 0x0 DUP1 PUSH1 0xC0 DUP8 DUP10 SUB SLT ISZERO PUSH2 0x31B2 JUMPI PUSH1 0x0 DUP1 REVERT JUMPDEST POP POP DUP5 CALLDATALOAD SWAP7 PUSH1 0x20 DUP7 ADD CALLDATALOAD SWAP7 POP PUSH1 0x40 DUP7 ADD CALLDATALOAD SWAP6 PUSH1 0x60 DUP2 ADD CALLDATALOAD SWAP6 POP PUSH1 0x80 DUP2 ADD CALLDATALOAD SWAP5 POP PUSH1 0xA0 ADD CALLDATALOAD SWAP3 POP SWAP1 POP JUMP JUMPDEST PUSH1 0x0 DUP1 PUSH1 0x0 PUSH1 0x60 DUP5 DUP7 SUB SLT ISZERO PUSH2 0x31F1 JUMPI PUSH1 0x0 DUP1 REVERT JUMPDEST PUSH2 0x31FA DUP5 PUSH2 0x313D JUMP JUMPDEST SWAP3 POP PUSH2 0x3208 PUSH1 0x20 DUP6 ADD PUSH2 0x313D JUMP JUMPDEST SWAP2 POP PUSH1 0x40 DUP5 ADD CALLDATALOAD SWAP1 POP SWAP3 POP SWAP3 POP SWAP3 JUMP JUMPDEST PUSH1 0x0 DUP1 PUSH1 0x40 DUP4 DUP6 SUB SLT ISZERO PUSH2 0x322B JUMPI PUSH1 0x0 DUP1 REVERT JUMPDEST POP POP DUP1 CALLDATALOAD SWAP3 PUSH1 0x20 SWAP1 SWAP2 ADD CALLDATALOAD SWAP2 POP JUMP JUMPDEST PUSH1 0x0 DUP1 PUSH1 0x40 DUP4 DUP6 SUB SLT ISZERO PUSH2 0x324D JUMPI PUSH1 0x0 DUP1 REVERT JUMPDEST PUSH2 0x3256 DUP4 PUSH2 0x313D JUMP JUMPDEST SWAP2 POP PUSH1 0x20 DUP4 ADD CALLDATALOAD DUP1 ISZERO ISZERO DUP2 EQ PUSH2 0x326B JUMPI PUSH1 0x0 DUP1 REVERT JUMPDEST DUP1 SWAP2 POP POP SWAP3 POP SWAP3 SWAP1 POP JUMP JUMPDEST PUSH1 0x0 PUSH1 0x20 DUP3 DUP5 SUB SLT ISZERO PUSH2 0x3288 JUMPI PUSH1 0x0 DUP1 REVERT JUMPDEST DUP2 CALLDATALOAD PUSH1 0x5 DUP2 LT PUSH2 0x1884 JUMPI PUSH1 0x0 DUP1 REVERT JUMPDEST PUSH1 0x0 DUP1 PUSH1 0x0 PUSH1 0x60 DUP5 DUP7 SUB SLT ISZERO PUSH2 0x32AC JUMPI PUSH1 0x0 DUP1 REVERT JUMPDEST POP POP DUP2 CALLDATALOAD SWAP4 PUSH1 0x20 DUP4 ADD CALLDATALOAD SWAP4 POP PUSH1 0x40 SWAP1 SWAP3 ADD CALLDATALOAD SWAP2 SWAP1 POP JUMP JUMPDEST PUSH4 0x4E487B71 PUSH1 0xE0 SHL PUSH1 0x0 MSTORE PUSH1 0x41 PUSH1 0x4 MSTORE PUSH1 0x24 PUSH1 0x0 REVERT JUMPDEST PUSH1 0x0 DUP1 PUSH1 0x0 DUP1 PUSH1 0x80 DUP6 DUP8 SUB SLT ISZERO PUSH2 0x32EF JUMPI PUSH1 0x0 DUP1 REVERT JUMPDEST PUSH2 0x32F8 DUP6 PUSH2 0x313D JUMP JUMPDEST SWAP4 POP PUSH2 0x3306 PUSH1 0x20 DUP7 ADD PUSH2 0x313D JUMP JUMPDEST SWAP3 POP PUSH1 0x40 DUP6 ADD CALLDATALOAD SWAP2 POP PUSH1 0x60 DUP6 ADD CALLDATALOAD PUSH8 0xFFFFFFFFFFFFFFFF DUP1 DUP3 GT ISZERO PUSH2 0x332A JUMPI PUSH1 0x0 DUP1 REVERT JUMPDEST DUP2 DUP8 ADD SWAP2 POP DUP8 PUSH1 0x1F DUP4 ADD SLT PUSH2 0x333E JUMPI PUSH1 0x0 DUP1 REVERT JUMPDEST DUP2 CALLDATALOAD DUP2 DUP2 GT ISZERO PUSH2 0x3350 JUMPI PUSH2 0x3350 PUSH2 0x32C3 JUMP JUMPDEST PUSH1 0x40 MLOAD PUSH1 0x1F DUP3 ADD PUSH1 0x1F NOT SWAP1 DUP2 AND PUSH1 0x3F ADD AND DUP2 ADD SWAP1 DUP4 DUP3 GT DUP2 DUP4 LT OR ISZERO PUSH2 0x3378 JUMPI PUSH2 0x3378 PUSH2 0x32C3 JUMP JUMPDEST DUP2 PUSH1 0x40 MSTORE DUP3 DUP2 MSTORE DUP11 PUSH1 0x20 DUP5 DUP8 ADD ADD GT ISZERO PUSH2 0x3391 JUMPI PUSH1 0x0 DUP1 REVERT JUMPDEST DUP3 PUSH1 0x20 DUP7 ADD PUSH1 0x20 DUP4 ADD CALLDATACOPY PUSH1 0x0 PUSH1 0x20 DUP5 DUP4 ADD ADD MSTORE DUP1 SWAP6 POP POP POP POP POP POP SWAP3 SWAP6 SWAP2 SWAP5 POP SWAP3 POP JUMP JUMPDEST PUSH1 0x0 DUP1 PUSH1 0x0 DUP1 PUSH1 0x0 PUSH1 0xA0 DUP7 DUP9 SUB SLT ISZERO PUSH2 0x33CD JUMPI PUSH1 0x0 DUP1 REVERT JUMPDEST POP POP DUP4 CALLDATALOAD SWAP6 PUSH1 0x20 DUP6 ADD CALLDATALOAD SWAP6 POP PUSH1 0x40 DUP6 ADD CALLDATALOAD SWAP5 PUSH1 0x60 DUP2 ADD CALLDATALOAD SWAP5 POP PUSH1 0x80 ADD CALLDATALOAD SWAP3 POP SWAP1 POP JUMP JUMPDEST PUSH1 0x0 DUP1 PUSH1 0x40 DUP4 DUP6 SUB SLT ISZERO PUSH2 0x3403 JUMPI PUSH1 0x0 DUP1 REVERT JUMPDEST PUSH2 0x340C DUP4 PUSH2 0x313D JUMP JUMPDEST SWAP2 POP PUSH2 0x341A PUSH1 0x20 DUP5 ADD PUSH2 0x313D JUMP JUMPDEST SWAP1 POP SWAP3 POP SWAP3 SWAP1 POP JUMP JUMPDEST PUSH1 0x1 DUP2 DUP2 SHR SWAP1 DUP3 AND DUP1 PUSH2 0x3437 JUMPI PUSH1 0x7F DUP3 AND SWAP2 POP JUMPDEST PUSH1 0x20 DUP3 LT DUP2 SUB PUSH2 0x2AE9 JUMPI PUSH4 0x4E487B71 PUSH1 0xE0 SHL PUSH1 0x0 MSTORE PUSH1 0x22 PUSH1 0x4 MSTORE PUSH1 0x24 PUSH1 0x0 REVERT JUMPDEST PUSH1 0x20 DUP1 DUP3 MSTORE PUSH1 0xD SWAP1 DUP3 ADD MSTORE PUSH13 0x1058D8D95CDCC811195B9A5959 PUSH1 0x9A SHL PUSH1 0x40 DUP3 ADD MSTORE PUSH1 0x60 ADD SWAP1 JUMP JUMPDEST PUSH1 0x20 DUP1 DUP3 MSTORE PUSH1 0x14 SWAP1 DUP3 ADD MSTORE PUSH20 0x151BDAD95B88191BD95CC81B9BDD08195E1A5CDD PUSH1 0x62 SHL PUSH1 0x40 DUP3 ADD MSTORE PUSH1 0x60 ADD SWAP1 JUMP JUMPDEST PUSH1 0x20 DUP1 DUP3 MSTORE PUSH1 0x2D SWAP1 DUP3 ADD MSTORE PUSH32 0x4552433732313A2063616C6C6572206973206E6F7420746F6B656E206F776E65 PUSH1 0x40 DUP3 ADD MSTORE PUSH13 0x1C881BDC88185C1C1C9BDD9959 PUSH1 0x9A SHL PUSH1 0x60 DUP3 ADD MSTORE PUSH1 0x80 ADD SWAP1 JUMP JUMPDEST PUSH4 0x4E487B71 PUSH1 0xE0 SHL PUSH1 0x0 MSTORE PUSH1 0x11 PUSH1 0x4 MSTORE PUSH1 0x24 PUSH1 0x0 REVERT JUMPDEST PUSH1 0x0 DUP3 PUSH2 0x352C JUMPI PUSH4 0x4E487B71 PUSH1 0xE0 SHL PUSH1 0x0 MSTORE PUSH1 0x12 PUSH1 0x4 MSTORE PUSH1 0x24 PUSH1 0x0 REVERT JUMPDEST POP DIV SWAP1 JUMP JUMPDEST DUP1 DUP3 ADD DUP1 DUP3 GT ISZERO PUSH2 0x933 JUMPI PUSH2 0x933 PUSH2 0x34F9 JUMP JUMPDEST DUP2 DUP2 SUB DUP2 DUP2 GT ISZERO PUSH2 0x933 JUMPI PUSH2 0x933 PUSH2 0x34F9 JUMP JUMPDEST PUSH4 0x4E487B71 PUSH1 0xE0 SHL PUSH1 0x0 MSTORE PUSH1 0x21 PUSH1 0x4 MSTORE PUSH1 0x24 PUSH1 0x0 REVERT JUMPDEST PUSH1 0x0 DUP4 MLOAD PUSH2 0x357F DUP2 DUP5 PUSH1 0x20 DUP9 ADD PUSH2 0x30C1 JUMP JUMPDEST DUP4 MLOAD SWAP1 DUP4 ADD SWAP1 PUSH2 0x3593 DUP2 DUP4 PUSH1 0x20 DUP9 ADD PUSH2 0x30C1 JUMP JUMPDEST ADD SWAP5 SWAP4 POP POP POP POP JUMP JUMPDEST DUP1 DUP3 MUL DUP2 ISZERO DUP3 DUP3 DIV DUP5 EQ OR PUSH2 0x933 JUMPI PUSH2 0x933 PUSH2 0x34F9 JUMP JUMPDEST PUSH1 0x20 DUP1 DUP3 MSTORE PUSH1 0x25 SWAP1 DUP3 ADD MSTORE PUSH32 0x4552433732313A207472616E736665722066726F6D20696E636F727265637420 PUSH1 0x40 DUP3 ADD MSTORE PUSH5 0x37BBB732B9 PUSH1 0xD9 SHL PUSH1 0x60 DUP3 ADD MSTORE PUSH1 0x80 ADD SWAP1 JUMP JUMPDEST PUSH1 0x20 DUP1 DUP3 MSTORE PUSH1 0x32 SWAP1 DUP3 ADD MSTORE PUSH32 0x4552433732313A207472616E7366657220746F206E6F6E204552433732315265 PUSH1 0x40 DUP3 ADD MSTORE PUSH18 0x31B2B4BB32B91034B6B83632B6B2B73A32B9 PUSH1 0x71 SHL PUSH1 0x60 DUP3 ADD MSTORE PUSH1 0x80 ADD SWAP1 JUMP JUMPDEST PUSH1 0x0 PUSH1 0x1 DUP3 ADD PUSH2 0x365C JUMPI PUSH2 0x365C PUSH2 0x34F9 JUMP JUMPDEST POP PUSH1 0x1 ADD SWAP1 JUMP JUMPDEST PUSH1 0x1 PUSH1 0x1 PUSH1 0xA0 SHL SUB DUP6 DUP2 AND DUP3 MSTORE DUP5 AND PUSH1 0x20 DUP3 ADD MSTORE PUSH1 0x40 DUP2 ADD DUP4 SWAP1 MSTORE PUSH1 0x80 PUSH1 0x60 DUP3 ADD DUP2 SWAP1 MSTORE PUSH1 0x0 SWAP1 PUSH2 0x3696 SWAP1 DUP4 ADD DUP5 PUSH2 0x30E5 JUMP JUMPDEST SWAP7 SWAP6 POP POP POP POP POP POP JUMP JUMPDEST PUSH1 0x0 PUSH1 0x20 DUP3 DUP5 SUB SLT ISZERO PUSH2 0x36B2 JUMPI PUSH1 0x0 DUP1 REVERT JUMPDEST DUP2 MLOAD PUSH2 0x1884 DUP2 PUSH2 0x308E JUMP INVALID LOG2 PUSH5 0x6970667358 0x22 SLT KECCAK256 MULMOD 0xEA 0xE4 SWAP13 PUSH29 0x4BDCA43DB044BB7F60476C53A5FDE80C0072960129D4AB9EC9D266473 PUSH16 0x6C634300081300330000000000000000 "
		},
		"gasEstimates": {
			"creation": {
				"codeDepositCost": "2813400",
				"executionCost": "infinite",
				"totalCost": "infinite"
			},
			"external": {
				"approve(address,uint256)": "infinite",
				"balanceOf(address)": "2700",
				"createFighter(uint8)": "infinite",
				"createNPC(uint256,uint256,uint256,uint256,uint256,uint256)": "infinite",
				"decreaseHealth(uint256,uint256)": "infinite",
				"decreaseMana(uint256,uint256)": "infinite",
				"equipItem(uint256,uint256,uint256)": "250824",
				"getApproved(uint256)": "4851",
				"getDamage(uint256)": "infinite",
				"getDefence(uint256)": "7000",
				"getExpFromLevel(uint256)": "infinite",
				"getExperience(uint256)": "4831",
				"getFighterStats(uint256)": "infinite",
				"getHealth(uint256)": "infinite",
				"getHealthRegenerationRate(uint256)": "infinite",
				"getLevel(uint256)": "infinite",
				"getMana(uint256)": "infinite",
				"getManaRegenerationRate(uint256)": "infinite",
				"getMaxHealth(uint256)": "infinite",
				"getMaxMana(uint256)": "infinite",
				"getMaxStatPoints(uint256)": "infinite",
				"getTokenAttributes(uint256)": "72248",
				"getTotalUsedStatPoints(uint256)": "infinite",
				"increaseExperience(uint256,uint256)": "infinite",
				"isApprovedForAll(address,address)": "infinite",
				"isGM(address)": "2566",
				"name()": "infinite",
				"owner()": "2449",
				"ownerOf(uint256)": "2606",
				"safeAdd(uint256,uint256)": "569",
				"safeMul(uint256,uint256)": "697",
				"safeSub(uint256,uint256)": "484",
				"safeTransferFrom(address,address,uint256)": "infinite",
				"safeTransferFrom(address,address,uint256,bytes)": "infinite",
				"setAgilityPerDefence(uint256)": "25631",
				"setApprovalForAll(address,bool)": "26728",
				"setBattleContract(address,bool)": "28270",
				"setEnergyPerDamage(uint256)": "25587",
				"setExperienceDivider(uint256)": "25587",
				"setGM(address,bool)": "28326",
				"setHealthRegenerationDivider(uint256)": "25652",
				"setManaRegenerationDivider(uint256)": "25608",
				"setMaxExperience(uint256)": "25653",
				"setOwner(address)": "30522",
				"setStrengthPerDamage(uint256)": "25665",
				"supportsInterface(bytes4)": "557",
				"symbol()": "infinite",
				"tokenURI(uint256)": "infinite",
				"transferFrom(address,address,uint256)": "infinite",
				"updateFighterStats(uint256,uint256,uint256,uint256,uint256)": "infinite"
			},
			"internal": {
				"_setTokenAttributes(uint256,struct FighterAttributes.Attributes memory)": "infinite",
				"max(uint256,uint256)": "infinite",
				"min(uint256,uint256)": "61",
				"safePow(uint256,uint256)": "infinite",
				"sqrt(uint256)": "infinite"
			}
		},
		"methodIdentifiers": {
			"approve(address,uint256)": "095ea7b3",
			"balanceOf(address)": "70a08231",
			"createFighter(uint8)": "a6438db2",
			"createNPC(uint256,uint256,uint256,uint256,uint256,uint256)": "20b430d5",
			"decreaseHealth(uint256,uint256)": "a7518eb1",
			"decreaseMana(uint256,uint256)": "8dc14247",
			"equipItem(uint256,uint256,uint256)": "b7379531",
			"getApproved(uint256)": "081812fc",
			"getDamage(uint256)": "7cd7f3bb",
			"getDefence(uint256)": "51585b49",
			"getExpFromLevel(uint256)": "f04968be",
			"getExperience(uint256)": "b1ca2106",
			"getFighterStats(uint256)": "55af86c4",
			"getHealth(uint256)": "3fc70f2c",
			"getHealthRegenerationRate(uint256)": "fd9513bd",
			"getLevel(uint256)": "86481d40",
			"getMana(uint256)": "744e94aa",
			"getManaRegenerationRate(uint256)": "d87e9020",
			"getMaxHealth(uint256)": "c77daef6",
			"getMaxMana(uint256)": "6d9cbb4e",
			"getMaxStatPoints(uint256)": "43c6916b",
			"getTokenAttributes(uint256)": "1f4f5a23",
			"getTotalUsedStatPoints(uint256)": "d20a53c8",
			"increaseExperience(uint256,uint256)": "243a7c7b",
			"isApprovedForAll(address,address)": "e985e9c5",
			"isGM(address)": "3a0995e9",
			"name()": "06fdde03",
			"owner()": "8da5cb5b",
			"ownerOf(uint256)": "6352211e",
			"safeAdd(uint256,uint256)": "e6cb9013",
			"safeMul(uint256,uint256)": "d05c78da",
			"safeSub(uint256,uint256)": "a293d1e8",
			"safeTransferFrom(address,address,uint256)": "42842e0e",
			"safeTransferFrom(address,address,uint256,bytes)": "b88d4fde",
			"setAgilityPerDefence(uint256)": "6599273f",
			"setApprovalForAll(address,bool)": "a22cb465",
			"setBattleContract(address,bool)": "d5a93d68",
			"setEnergyPerDamage(uint256)": "17a40576",
			"setExperienceDivider(uint256)": "745bd453",
			"setGM(address,bool)": "360deb76",
			"setHealthRegenerationDivider(uint256)": "cb083041",
			"setManaRegenerationDivider(uint256)": "6ae15f76",
			"setMaxExperience(uint256)": "688f30ac",
			"setOwner(address)": "13af4035",
			"setStrengthPerDamage(uint256)": "0b1f15cd",
			"supportsInterface(bytes4)": "01ffc9a7",
			"symbol()": "95d89b41",
			"tokenURI(uint256)": "c87b56dd",
			"transferFrom(address,address,uint256)": "23b872dd",
			"updateFighterStats(uint256,uint256,uint256,uint256,uint256)": "d1e5ef57"
		}
	},
	"abi": [
		{
			"inputs": [],
			"stateMutability": "nonpayable",
			"type": "constructor"
		},
		{
			"anonymous": false,
			"inputs": [
				{
					"indexed": true,
					"internalType": "address",
					"name": "owner",
					"type": "address"
				},
				{
					"indexed": true,
					"internalType": "address",
					"name": "approved",
					"type": "address"
				},
				{
					"indexed": true,
					"internalType": "uint256",
					"name": "tokenId",
					"type": "uint256"
				}
			],
			"name": "Approval",
			"type": "event"
		},
		{
			"anonymous": false,
			"inputs": [
				{
					"indexed": true,
					"internalType": "address",
					"name": "owner",
					"type": "address"
				},
				{
					"indexed": true,
					"internalType": "address",
					"name": "operator",
					"type": "address"
				},
				{
					"indexed": false,
					"internalType": "bool",
					"name": "approved",
					"type": "bool"
				}
			],
			"name": "ApprovalForAll",
			"type": "event"
		},
		{
			"anonymous": false,
			"inputs": [
				{
					"indexed": true,
					"internalType": "address",
					"name": "owner",
					"type": "address"
				},
				{
					"indexed": false,
					"internalType": "uint256",
					"name": "tokenId",
					"type": "uint256"
				},
				{
					"indexed": false,
					"internalType": "uint8",
					"name": "class",
					"type": "uint8"
				}
			],
			"name": "FighterCreated",
			"type": "event"
		},
		{
			"anonymous": false,
			"inputs": [
				{
					"indexed": false,
					"internalType": "uint256",
					"name": "tokenId",
					"type": "uint256"
				},
				{
					"indexed": false,
					"internalType": "uint256",
					"name": "itemId",
					"type": "uint256"
				},
				{
					"indexed": false,
					"internalType": "uint256",
					"name": "slot",
					"type": "uint256"
				}
			],
			"name": "ItemEquiped",
			"type": "event"
		},
		{
			"anonymous": false,
			"inputs": [
				{
					"indexed": true,
					"internalType": "address",
					"name": "creator",
					"type": "address"
				},
				{
					"indexed": false,
					"internalType": "uint256",
					"name": "tokenId",
					"type": "uint256"
				},
				{
					"indexed": false,
					"internalType": "uint8",
					"name": "class",
					"type": "uint8"
				}
			],
			"name": "NPCCreated",
			"type": "event"
		},
		{
			"anonymous": false,
			"inputs": [
				{
					"indexed": false,
					"internalType": "address",
					"name": "battleContract",
					"type": "address"
				},
				{
					"indexed": false,
					"internalType": "bool",
					"name": "isActive",
					"type": "bool"
				}
			],
			"name": "SetBattleContract",
			"type": "event"
		},
		{
			"anonymous": false,
			"inputs": [
				{
					"indexed": false,
					"internalType": "address",
					"name": "",
					"type": "address"
				},
				{
					"indexed": false,
					"internalType": "bool",
					"name": "",
					"type": "bool"
				}
			],
			"name": "SetGM",
			"type": "event"
		},
		{
			"anonymous": false,
			"inputs": [
				{
					"indexed": true,
					"internalType": "address",
					"name": "previousOwner",
					"type": "address"
				},
				{
					"indexed": true,
					"internalType": "address",
					"name": "newOwner",
					"type": "address"
				}
			],
			"name": "SetOwner",
			"type": "event"
		},
		{
			"anonymous": false,
			"inputs": [
				{
					"indexed": false,
					"internalType": "uint256",
					"name": "tokenId",
					"type": "uint256"
				},
				{
					"indexed": false,
					"internalType": "uint256",
					"name": "strength",
					"type": "uint256"
				},
				{
					"indexed": false,
					"internalType": "uint256",
					"name": "agility",
					"type": "uint256"
				},
				{
					"indexed": false,
					"internalType": "uint256",
					"name": "energy",
					"type": "uint256"
				},
				{
					"indexed": false,
					"internalType": "uint256",
					"name": "vitality",
					"type": "uint256"
				}
			],
			"name": "StatsUpdated",
			"type": "event"
		},
		{
			"anonymous": false,
			"inputs": [
				{
					"indexed": true,
					"internalType": "address",
					"name": "from",
					"type": "address"
				},
				{
					"indexed": true,
					"internalType": "address",
					"name": "to",
					"type": "address"
				},
				{
					"indexed": true,
					"internalType": "uint256",
					"name": "tokenId",
					"type": "uint256"
				}
			],
			"name": "Transfer",
			"type": "event"
		},
		{
			"anonymous": false,
			"inputs": [
				{
					"indexed": false,
					"internalType": "uint256",
					"name": "",
					"type": "uint256"
				}
			],
			"name": "updateAgilityPerDefence",
			"type": "event"
		},
		{
			"anonymous": false,
			"inputs": [
				{
					"indexed": false,
					"internalType": "uint256",
					"name": "",
					"type": "uint256"
				}
			],
			"name": "updateEnergyPerDamage",
			"type": "event"
		},
		{
			"anonymous": false,
			"inputs": [
				{
					"indexed": false,
					"internalType": "uint256",
					"name": "",
					"type": "uint256"
				}
			],
			"name": "updateExperienceDivider",
			"type": "event"
		},
		{
			"anonymous": false,
			"inputs": [
				{
					"indexed": false,
					"internalType": "uint256",
					"name": "",
					"type": "uint256"
				}
			],
			"name": "updateHealthRegenerationDivider",
			"type": "event"
		},
		{
			"anonymous": false,
			"inputs": [
				{
					"indexed": false,
					"internalType": "uint256",
					"name": "",
					"type": "uint256"
				}
			],
			"name": "updateManaRegenerationDivider",
			"type": "event"
		},
		{
			"anonymous": false,
			"inputs": [
				{
					"indexed": false,
					"internalType": "uint256",
					"name": "",
					"type": "uint256"
				}
			],
			"name": "updateMaxExperience",
			"type": "event"
		},
		{
			"anonymous": false,
			"inputs": [
				{
					"indexed": false,
					"internalType": "uint256",
					"name": "",
					"type": "uint256"
				}
			],
			"name": "updateStrengthPerDamage",
			"type": "event"
		},
		{
			"inputs": [
				{
					"internalType": "address",
					"name": "to",
					"type": "address"
				},
				{
					"internalType": "uint256",
					"name": "tokenId",
					"type": "uint256"
				}
			],
			"name": "approve",
			"outputs": [],
			"stateMutability": "nonpayable",
			"type": "function"
		},
		{
			"inputs": [
				{
					"internalType": "address",
					"name": "owner",
					"type": "address"
				}
			],
			"name": "balanceOf",
			"outputs": [
				{
					"internalType": "uint256",
					"name": "",
					"type": "uint256"
				}
			],
			"stateMutability": "view",
			"type": "function"
		},
		{
			"inputs": [
				{
					"internalType": "enum FighterAttributes.FighterClass",
					"name": "fighterClass",
					"type": "uint8"
				}
			],
			"name": "createFighter",
			"outputs": [
				{
					"internalType": "uint256",
					"name": "",
					"type": "uint256"
				}
			],
			"stateMutability": "nonpayable",
			"type": "function"
		},
		{
			"inputs": [
				{
					"internalType": "uint256",
					"name": "strength",
					"type": "uint256"
				},
				{
					"internalType": "uint256",
					"name": "agility",
					"type": "uint256"
				},
				{
					"internalType": "uint256",
					"name": "energy",
					"type": "uint256"
				},
				{
					"internalType": "uint256",
					"name": "vitality",
					"type": "uint256"
				},
				{
					"internalType": "uint256",
					"name": "attackSpeed",
					"type": "uint256"
				},
				{
					"internalType": "uint256",
					"name": "level",
					"type": "uint256"
				}
			],
			"name": "createNPC",
			"outputs": [
				{
					"internalType": "uint256",
					"name": "",
					"type": "uint256"
				}
			],
			"stateMutability": "nonpayable",
			"type": "function"
		},
		{
			"inputs": [
				{
					"internalType": "uint256",
					"name": "tokenId",
					"type": "uint256"
				},
				{
					"internalType": "uint256",
					"name": "damage",
					"type": "uint256"
				}
			],
			"name": "decreaseHealth",
			"outputs": [],
			"stateMutability": "nonpayable",
			"type": "function"
		},
		{
			"inputs": [
				{
					"internalType": "uint256",
					"name": "tokenId",
					"type": "uint256"
				},
				{
					"internalType": "uint256",
					"name": "manaUsed",
					"type": "uint256"
				}
			],
			"name": "decreaseMana",
			"outputs": [],
			"stateMutability": "nonpayable",
			"type": "function"
		},
		{
			"inputs": [
				{
					"internalType": "uint256",
					"name": "tokenId",
					"type": "uint256"
				},
				{
					"internalType": "uint256",
					"name": "itemId",
					"type": "uint256"
				},
				{
					"internalType": "uint256",
					"name": "slot",
					"type": "uint256"
				}
			],
			"name": "equipItem",
			"outputs": [],
			"stateMutability": "nonpayable",
			"type": "function"
		},
		{
			"inputs": [
				{
					"internalType": "uint256",
					"name": "tokenId",
					"type": "uint256"
				}
			],
			"name": "getApproved",
			"outputs": [
				{
					"internalType": "address",
					"name": "",
					"type": "address"
				}
			],
			"stateMutability": "view",
			"type": "function"
		},
		{
			"inputs": [
				{
					"internalType": "uint256",
					"name": "tokenId",
					"type": "uint256"
				}
			],
			"name": "getDamage",
			"outputs": [
				{
					"internalType": "uint256",
					"name": "",
					"type": "uint256"
				}
			],
			"stateMutability": "view",
			"type": "function"
		},
		{
			"inputs": [
				{
					"internalType": "uint256",
					"name": "tokenId",
					"type": "uint256"
				}
			],
			"name": "getDefence",
			"outputs": [
				{
					"internalType": "uint256",
					"name": "",
					"type": "uint256"
				}
			],
			"stateMutability": "view",
			"type": "function"
		},
		{
			"inputs": [
				{
					"internalType": "uint256",
					"name": "level",
					"type": "uint256"
				}
			],
			"name": "getExpFromLevel",
			"outputs": [
				{
					"internalType": "uint256",
					"name": "",
					"type": "uint256"
				}
			],
			"stateMutability": "view",
			"type": "function"
		},
		{
			"inputs": [
				{
					"internalType": "uint256",
					"name": "tokenId",
					"type": "uint256"
				}
			],
			"name": "getExperience",
			"outputs": [
				{
					"internalType": "uint256",
					"name": "",
					"type": "uint256"
				}
			],
			"stateMutability": "view",
			"type": "function"
		},
		{
			"inputs": [
				{
					"internalType": "uint256",
					"name": "tokenId",
					"type": "uint256"
				}
			],
			"name": "getFighterStats",
			"outputs": [
				{
					"components": [
						{
							"internalType": "uint256",
							"name": "tokenId",
							"type": "uint256"
						},
						{
							"internalType": "uint256",
							"name": "currentHealth",
							"type": "uint256"
						},
						{
							"internalType": "uint256",
							"name": "maxHealth",
							"type": "uint256"
						},
						{
							"internalType": "uint256",
							"name": "currentMana",
							"type": "uint256"
						},
						{
							"internalType": "uint256",
							"name": "maxMana",
							"type": "uint256"
						},
						{
							"internalType": "uint256",
							"name": "level",
							"type": "uint256"
						},
						{
							"internalType": "uint256",
							"name": "exp",
							"type": "uint256"
						},
						{
							"internalType": "uint256",
							"name": "damage",
							"type": "uint256"
						},
						{
							"internalType": "uint256",
							"name": "defence",
							"type": "uint256"
						},
						{
							"internalType": "uint256",
							"name": "totalStatPoints",
							"type": "uint256"
						},
						{
							"internalType": "uint256",
							"name": "maxStatPoints",
							"type": "uint256"
						}
					],
					"internalType": "struct FighterAttributes.FighterStats",
					"name": "",
					"type": "tuple"
				}
			],
			"stateMutability": "view",
			"type": "function"
		},
		{
			"inputs": [
				{
					"internalType": "uint256",
					"name": "tokenId",
					"type": "uint256"
				}
			],
			"name": "getHealth",
			"outputs": [
				{
					"internalType": "uint256",
					"name": "",
					"type": "uint256"
				}
			],
			"stateMutability": "view",
			"type": "function"
		},
		{
			"inputs": [
				{
					"internalType": "uint256",
					"name": "tokenId",
					"type": "uint256"
				}
			],
			"name": "getHealthRegenerationRate",
			"outputs": [
				{
					"internalType": "uint256",
					"name": "",
					"type": "uint256"
				}
			],
			"stateMutability": "view",
			"type": "function"
		},
		{
			"inputs": [
				{
					"internalType": "uint256",
					"name": "tokenId",
					"type": "uint256"
				}
			],
			"name": "getLevel",
			"outputs": [
				{
					"internalType": "uint256",
					"name": "",
					"type": "uint256"
				}
			],
			"stateMutability": "view",
			"type": "function"
		},
		{
			"inputs": [
				{
					"internalType": "uint256",
					"name": "tokenId",
					"type": "uint256"
				}
			],
			"name": "getMana",
			"outputs": [
				{
					"internalType": "uint256",
					"name": "",
					"type": "uint256"
				}
			],
			"stateMutability": "view",
			"type": "function"
		},
		{
			"inputs": [
				{
					"internalType": "uint256",
					"name": "tokenId",
					"type": "uint256"
				}
			],
			"name": "getManaRegenerationRate",
			"outputs": [
				{
					"internalType": "uint256",
					"name": "",
					"type": "uint256"
				}
			],
			"stateMutability": "view",
			"type": "function"
		},
		{
			"inputs": [
				{
					"internalType": "uint256",
					"name": "tokenId",
					"type": "uint256"
				}
			],
			"name": "getMaxHealth",
			"outputs": [
				{
					"internalType": "uint256",
					"name": "",
					"type": "uint256"
				}
			],
			"stateMutability": "view",
			"type": "function"
		},
		{
			"inputs": [
				{
					"internalType": "uint256",
					"name": "tokenId",
					"type": "uint256"
				}
			],
			"name": "getMaxMana",
			"outputs": [
				{
					"internalType": "uint256",
					"name": "",
					"type": "uint256"
				}
			],
			"stateMutability": "view",
			"type": "function"
		},
		{
			"inputs": [
				{
					"internalType": "uint256",
					"name": "tokenId",
					"type": "uint256"
				}
			],
			"name": "getMaxStatPoints",
			"outputs": [
				{
					"internalType": "uint256",
					"name": "",
					"type": "uint256"
				}
			],
			"stateMutability": "view",
			"type": "function"
		},
		{
			"inputs": [
				{
					"internalType": "uint256",
					"name": "tokenId",
					"type": "uint256"
				}
			],
			"name": "getTokenAttributes",
			"outputs": [
				{
					"components": [
						{
							"internalType": "uint256",
							"name": "tokenId",
							"type": "uint256"
						},
						{
							"internalType": "uint256",
							"name": "strength",
							"type": "uint256"
						},
						{
							"internalType": "uint256",
							"name": "agility",
							"type": "uint256"
						},
						{
							"internalType": "uint256",
							"name": "energy",
							"type": "uint256"
						},
						{
							"internalType": "uint256",
							"name": "vitality",
							"type": "uint256"
						},
						{
							"internalType": "uint256",
							"name": "experience",
							"type": "uint256"
						},
						{
							"internalType": "uint256",
							"name": "healthAfterLastDmg",
							"type": "uint256"
						},
						{
							"internalType": "uint256",
							"name": "lastDmgBlockNumber",
							"type": "uint256"
						},
						{
							"internalType": "uint256",
							"name": "class",
							"type": "uint256"
						},
						{
							"internalType": "uint256",
							"name": "healthRegenerationBonus",
							"type": "uint256"
						},
						{
							"internalType": "uint256",
							"name": "manaAfterLastUse",
							"type": "uint256"
						},
						{
							"internalType": "uint256",
							"name": "lastManaUseBlock",
							"type": "uint256"
						},
						{
							"internalType": "uint256",
							"name": "manaRegenerationBonus",
							"type": "uint256"
						},
						{
							"internalType": "uint256",
							"name": "hpPerVitalityPoint",
							"type": "uint256"
						},
						{
							"internalType": "uint256",
							"name": "manaPerEnergyPoint",
							"type": "uint256"
						},
						{
							"internalType": "uint256",
							"name": "hpIncreasePerLevel",
							"type": "uint256"
						},
						{
							"internalType": "uint256",
							"name": "manaIncreasePerLevel",
							"type": "uint256"
						},
						{
							"internalType": "uint256",
							"name": "statPointsPerLevel",
							"type": "uint256"
						},
						{
							"internalType": "uint256",
							"name": "attackSpeed",
							"type": "uint256"
						},
						{
							"internalType": "uint256",
							"name": "agilityPointsPerSpeed",
							"type": "uint256"
						},
						{
							"internalType": "uint256",
							"name": "isNpc",
							"type": "uint256"
						},
						{
							"internalType": "uint256",
							"name": "helmSlot",
							"type": "uint256"
						},
						{
							"internalType": "uint256",
							"name": "armourSlot",
							"type": "uint256"
						},
						{
							"internalType": "uint256",
							"name": "pantsSlot",
							"type": "uint256"
						},
						{
							"internalType": "uint256",
							"name": "glovesSlot",
							"type": "uint256"
						},
						{
							"internalType": "uint256",
							"name": "bootsSlot",
							"type": "uint256"
						},
						{
							"internalType": "uint256",
							"name": "leftHandSlot",
							"type": "uint256"
						},
						{
							"internalType": "uint256",
							"name": "rightHandSlot",
							"type": "uint256"
						},
						{
							"internalType": "uint256",
							"name": "leftRingSlot",
							"type": "uint256"
						},
						{
							"internalType": "uint256",
							"name": "rightRingSlot",
							"type": "uint256"
						},
						{
							"internalType": "uint256",
							"name": "pendSlot",
							"type": "uint256"
						},
						{
							"internalType": "uint256",
							"name": "wingsSlot",
							"type": "uint256"
						}
					],
					"internalType": "struct FighterAttributes.Attributes",
					"name": "",
					"type": "tuple"
				}
			],
			"stateMutability": "view",
			"type": "function"
		},
		{
			"inputs": [
				{
					"internalType": "uint256",
					"name": "tokenId",
					"type": "uint256"
				}
			],
			"name": "getTotalUsedStatPoints",
			"outputs": [
				{
					"internalType": "uint256",
					"name": "",
					"type": "uint256"
				}
			],
			"stateMutability": "view",
			"type": "function"
		},
		{
			"inputs": [
				{
					"internalType": "uint256",
					"name": "tokenId",
					"type": "uint256"
				},
				{
					"internalType": "uint256",
					"name": "addExp",
					"type": "uint256"
				}
			],
			"name": "increaseExperience",
			"outputs": [],
			"stateMutability": "nonpayable",
			"type": "function"
		},
		{
			"inputs": [
				{
					"internalType": "address",
					"name": "owner",
					"type": "address"
				},
				{
					"internalType": "address",
					"name": "operator",
					"type": "address"
				}
			],
			"name": "isApprovedForAll",
			"outputs": [
				{
					"internalType": "bool",
					"name": "",
					"type": "bool"
				}
			],
			"stateMutability": "view",
			"type": "function"
		},
		{
			"inputs": [
				{
					"internalType": "address",
					"name": "",
					"type": "address"
				}
			],
			"name": "isGM",
			"outputs": [
				{
					"internalType": "bool",
					"name": "",
					"type": "bool"
				}
			],
			"stateMutability": "view",
			"type": "function"
		},
		{
			"inputs": [],
			"name": "name",
			"outputs": [
				{
					"internalType": "string",
					"name": "",
					"type": "string"
				}
			],
			"stateMutability": "view",
			"type": "function"
		},
		{
			"inputs": [],
			"name": "owner",
			"outputs": [
				{
					"internalType": "address",
					"name": "",
					"type": "address"
				}
			],
			"stateMutability": "view",
			"type": "function"
		},
		{
			"inputs": [
				{
					"internalType": "uint256",
					"name": "tokenId",
					"type": "uint256"
				}
			],
			"name": "ownerOf",
			"outputs": [
				{
					"internalType": "address",
					"name": "",
					"type": "address"
				}
			],
			"stateMutability": "view",
			"type": "function"
		},
		{
			"inputs": [
				{
					"internalType": "uint256",
					"name": "a",
					"type": "uint256"
				},
				{
					"internalType": "uint256",
					"name": "b",
					"type": "uint256"
				}
			],
			"name": "safeAdd",
			"outputs": [
				{
					"internalType": "uint256",
					"name": "",
					"type": "uint256"
				}
			],
			"stateMutability": "view",
			"type": "function"
		},
		{
			"inputs": [
				{
					"internalType": "uint256",
					"name": "a",
					"type": "uint256"
				},
				{
					"internalType": "uint256",
					"name": "b",
					"type": "uint256"
				}
			],
			"name": "safeMul",
			"outputs": [
				{
					"internalType": "uint256",
					"name": "",
					"type": "uint256"
				}
			],
			"stateMutability": "view",
			"type": "function"
		},
		{
			"inputs": [
				{
					"internalType": "uint256",
					"name": "a",
					"type": "uint256"
				},
				{
					"internalType": "uint256",
					"name": "b",
					"type": "uint256"
				}
			],
			"name": "safeSub",
			"outputs": [
				{
					"internalType": "uint256",
					"name": "",
					"type": "uint256"
				}
			],
			"stateMutability": "view",
			"type": "function"
		},
		{
			"inputs": [
				{
					"internalType": "address",
					"name": "from",
					"type": "address"
				},
				{
					"internalType": "address",
					"name": "to",
					"type": "address"
				},
				{
					"internalType": "uint256",
					"name": "tokenId",
					"type": "uint256"
				}
			],
			"name": "safeTransferFrom",
			"outputs": [],
			"stateMutability": "nonpayable",
			"type": "function"
		},
		{
			"inputs": [
				{
					"internalType": "address",
					"name": "from",
					"type": "address"
				},
				{
					"internalType": "address",
					"name": "to",
					"type": "address"
				},
				{
					"internalType": "uint256",
					"name": "tokenId",
					"type": "uint256"
				},
				{
					"internalType": "bytes",
					"name": "data",
					"type": "bytes"
				}
			],
			"name": "safeTransferFrom",
			"outputs": [],
			"stateMutability": "nonpayable",
			"type": "function"
		},
		{
			"inputs": [
				{
					"internalType": "uint256",
					"name": "val",
					"type": "uint256"
				}
			],
			"name": "setAgilityPerDefence",
			"outputs": [],
			"stateMutability": "nonpayable",
			"type": "function"
		},
		{
			"inputs": [
				{
					"internalType": "address",
					"name": "operator",
					"type": "address"
				},
				{
					"internalType": "bool",
					"name": "approved",
					"type": "bool"
				}
			],
			"name": "setApprovalForAll",
			"outputs": [],
			"stateMutability": "nonpayable",
			"type": "function"
		},
		{
			"inputs": [
				{
					"internalType": "address",
					"name": "contr",
					"type": "address"
				},
				{
					"internalType": "bool",
					"name": "isActive",
					"type": "bool"
				}
			],
			"name": "setBattleContract",
			"outputs": [],
			"stateMutability": "nonpayable",
			"type": "function"
		},
		{
			"inputs": [
				{
					"internalType": "uint256",
					"name": "val",
					"type": "uint256"
				}
			],
			"name": "setEnergyPerDamage",
			"outputs": [],
			"stateMutability": "nonpayable",
			"type": "function"
		},
		{
			"inputs": [
				{
					"internalType": "uint256",
					"name": "val",
					"type": "uint256"
				}
			],
			"name": "setExperienceDivider",
			"outputs": [],
			"stateMutability": "nonpayable",
			"type": "function"
		},
		{
			"inputs": [
				{
					"internalType": "address",
					"name": "gmAddress",
					"type": "address"
				},
				{
					"internalType": "bool",
					"name": "val",
					"type": "bool"
				}
			],
			"name": "setGM",
			"outputs": [],
			"stateMutability": "nonpayable",
			"type": "function"
		},
		{
			"inputs": [
				{
					"internalType": "uint256",
					"name": "val",
					"type": "uint256"
				}
			],
			"name": "setHealthRegenerationDivider",
			"outputs": [],
			"stateMutability": "nonpayable",
			"type": "function"
		},
		{
			"inputs": [
				{
					"internalType": "uint256",
					"name": "val",
					"type": "uint256"
				}
			],
			"name": "setManaRegenerationDivider",
			"outputs": [],
			"stateMutability": "nonpayable",
			"type": "function"
		},
		{
			"inputs": [
				{
					"internalType": "uint256",
					"name": "val",
					"type": "uint256"
				}
			],
			"name": "setMaxExperience",
			"outputs": [],
			"stateMutability": "nonpayable",
			"type": "function"
		},
		{
			"inputs": [
				{
					"internalType": "address",
					"name": "newOwner",
					"type": "address"
				}
			],
			"name": "setOwner",
			"outputs": [],
			"stateMutability": "nonpayable",
			"type": "function"
		},
		{
			"inputs": [
				{
					"internalType": "uint256",
					"name": "val",
					"type": "uint256"
				}
			],
			"name": "setStrengthPerDamage",
			"outputs": [],
			"stateMutability": "nonpayable",
			"type": "function"
		},
		{
			"inputs": [
				{
					"internalType": "bytes4",
					"name": "interfaceId",
					"type": "bytes4"
				}
			],
			"name": "supportsInterface",
			"outputs": [
				{
					"internalType": "bool",
					"name": "",
					"type": "bool"
				}
			],
			"stateMutability": "view",
			"type": "function"
		},
		{
			"inputs": [],
			"name": "symbol",
			"outputs": [
				{
					"internalType": "string",
					"name": "",
					"type": "string"
				}
			],
			"stateMutability": "view",
			"type": "function"
		},
		{
			"inputs": [
				{
					"internalType": "uint256",
					"name": "tokenId",
					"type": "uint256"
				}
			],
			"name": "tokenURI",
			"outputs": [
				{
					"internalType": "string",
					"name": "",
					"type": "string"
				}
			],
			"stateMutability": "view",
			"type": "function"
		},
		{
			"inputs": [
				{
					"internalType": "address",
					"name": "from",
					"type": "address"
				},
				{
					"internalType": "address",
					"name": "to",
					"type": "address"
				},
				{
					"internalType": "uint256",
					"name": "tokenId",
					"type": "uint256"
				}
			],
			"name": "transferFrom",
			"outputs": [],
			"stateMutability": "nonpayable",
			"type": "function"
		},
		{
			"inputs": [
				{
					"internalType": "uint256",
					"name": "tokenId",
					"type": "uint256"
				},
				{
					"internalType": "uint256",
					"name": "strength",
					"type": "uint256"
				},
				{
					"internalType": "uint256",
					"name": "agility",
					"type": "uint256"
				},
				{
					"internalType": "uint256",
					"name": "energy",
					"type": "uint256"
				},
				{
					"internalType": "uint256",
					"name": "vitality",
					"type": "uint256"
				}
			],
			"name": "updateFighterStats",
			"outputs": [],
			"stateMutability": "nonpayable",
			"type": "function"
		}
	]
}