{
	"data": {
		"bytecode": {
			"linkReferences": {},
			"object": "60806040526008600c556008600d556004600e556008600f55600860105563115d88a460115560056012553480156200003757600080fd5b5060405180604001604052806007815260200166436f6d6261747360c81b815250604051806040016040528060078152602001662334b3b43a32b960c91b815250816000908162000089919062000a78565b50600162000098828262000a78565b505050604051806103c0016040528060008152602001602a81526020016014815260200160058152602001601481526020016000815260200160008152602001600081526020016001815260200160008152602001600081526020016000815260200160008152602001600581526020016005815260200160058152602001600181526020016005815260200160008152602001600081526020016000815260200160008152602001600081526020016000815260200160008152602001600081526020016000815260200160008152602001600081526020016000815250600660006001600481111562000191576200019162000b44565b8152602001908152602001600020600082015181600001556020820151816001015560408201518160020155606082015181600301556080820151816004015560a0820151816005015560c0820151816006015560e082015181600701556101008201518160080155610120820151816009015561014082015181600a015561016082015181600b015561018082015181600c01556101a082015181600d01556101c082015181600e01556101e082015181600f0155610200820151816010015561022082015181601101556102408201518160120155610260820151816013015561028082015181601401556102a082015181601501556102c082015181601601556102e082015181601701556103008201518160180155610320820151816019015561034082015181601a015561036082015181601b015561038082015181601c01556103a082015181601d0155905050604051806103c0016040528060008152602001600f8152602001601481526020016032815260200160148152602001600081526020016000815260200160008152602001600281526020016000815260200160008152602001600081526020016000815260200160038152602001600a8152602001600381526020016005815260200160058152602001600081526020016000815260200160008152602001600081526020016000815260200160008152602001600081526020016000815260200160008152602001600081526020016000815260200160008152506006600060026004811115620003da57620003da62000b44565b8152602001908152602001600020600082015181600001556020820151816001015560408201518160020155606082015181600301556080820151816004015560a0820151816005015560c0820151816006015560e082015181600701556101008201518160080155610120820151816009015561014082015181600a015561016082015181600b015561018082015181600c01556101a082015181600d01556101c082015181600e01556101e082015181600f0155610200820151816010015561022082015181601101556102408201518160120155610260820151816013015561028082015181601401556102a082015181601501556102c082015181601601556102e082015181601701556103008201518160180155610320820151816019015561034082015181601a015561036082015181601b015561038082015181601c01556103a082015181601d0155905050604051806103c00160405280600081526020016014815260200160198152602001600f8152602001601481526020016000815260200160008152602001600081526020016003815260200160008152602001600081526020016000815260200160008152602001600381526020016005815260200160038152602001600481526020016005815260200160008152602001600081526020016000815260200160008152602001600081526020016000815260200160008152602001600081526020016000815260200160008152602001600081526020016000815250600660006003600481111562000623576200062362000b44565b8152602001908152602001600020600082015181600001556020820151816001015560408201518160020155606082015181600301556080820151816004015560a0820151816005015560c0820151816006015560e082015181600701556101008201518160080155610120820151816009015561014082015181600a015561016082015181600b015561018082015181600c01556101a082015181600d01556101c082015181600e01556101e082015181600f0155610200820151816010015561022082015181601101556102408201518160120155610260820151816013015561028082015181601401556102a082015181601501556102c082015181601601556102e082015181601701556103008201518160180155610320820151816019015561034082015181601a015561036082015181601b015561038082015181601c01556103a082015181601d0155905050604051806103c0016040528060008152602001601c8152602001600f815260200160148152602001601481526020016000815260200160008152602001600081526020016004815260200160008152602001600081526020016000815260200160008152602001600481526020016007815260200160068152602001600281526020016007815260200160008152602001600081526020016000815260200160008152602001600081526020016000815260200160008152602001600081526020016000815260200160008152602001600081526020016000815250600660006004808111156200086b576200086b62000b44565b81526020808201929092526040908101600020835181559183015160018301558201516002820155606082015160038201556080820151600482015560a0820151600582015560c0820151600682015560e082015160078201556101008201516008820155610120820151600980830191909155610140830151600a830155610160830151600b830155610180830151600c8301556101a0830151600d8301556101c0830151600e8301556101e0830151600f830155610200830151601083015561022083015160118301556102408301516012830155610260830151601383015561028083015160148301556102a083015160158301556102c083015160168301556102e0830151601783015561030083015160188301556103208301516019830155610340830151601a830155610360830151601b830155610380830151601c8301556103a090920151601d9091015580546001600160a01b0319163317905562000b5a565b634e487b7160e01b600052604160045260246000fd5b600181811c90821680620009fe57607f821691505b60208210810362000a1f57634e487b7160e01b600052602260045260246000fd5b50919050565b601f82111562000a7357600081815260208120601f850160051c8101602086101562000a4e5750805b601f850160051c820191505b8181101562000a6f5782815560010162000a5a565b5050505b505050565b81516001600160401b0381111562000a945762000a94620009d3565b62000aac8162000aa58454620009e9565b8462000a25565b602080601f83116001811462000ae4576000841562000acb5750858301515b600019600386901b1c1916600185901b17855562000a6f565b600085815260208120601f198616915b8281101562000b155788860151825594840194600190910190840162000af4565b508582101562000b345787850151600019600388901b60f8161c191681555b5050505050600190811b01905550565b634e487b7160e01b600052602160045260246000fd5b61352b8062000b6a6000396000f3fe608060405234801561001057600080fd5b50600436106102bb5760003560e01c8063744e94aa11610182578063b7379531116100e9578063d1e5ef57116100a2578063d87e90201161007c578063d87e90201461082e578063e6cb901314610841578063e985e9c514610854578063fd9513bd1461089057600080fd5b8063d1e5ef57146107f5578063d20a53c814610808578063d5a93d681461081b57600080fd5b8063b737953114610783578063b88d4fde14610796578063c77daef6146107a9578063c87b56dd146107bc578063cb083041146107cf578063d05c78da146107e257600080fd5b806395d89b411161013b57806395d89b411461071c578063a22cb46514610724578063a293d1e814610737578063a6438db21461074a578063a7518eb11461075d578063b1ca21061461077057600080fd5b8063744e94aa146106aa578063745bd453146106bd5780637cd7f3bb146106d057806386481d40146106e35780638da5cb5b146106f65780638dc142471461070957600080fd5b80633fc70f2c116102265780636352211e116101df5780636352211e146106385780636599273f1461064b578063688f30ac1461065e5780636ae15f76146106715780636d9cbb4e1461068457806370a082311461069757600080fd5b80633fc70f2c1461053357806342842e0e1461055457806343c6916b1461056757806351585b491461057a57806355af86c41461058d5780635c821d7f1461062557600080fd5b806317a405761161027857806317a40576146103635780631f4f5a231461037657806323b872dd146104d7578063243a7c7b146104ea578063360deb76146104fd5780633a0995e91461051057600080fd5b806301ffc9a7146102c057806306fdde03146102e8578063081812fc146102fd578063095ea7b3146103285780630b1f15cd1461033d57806313af403514610350575b600080fd5b6102d36102ce366004612f06565b6108a3565b60405190151581526020015b60405180910390f35b6102f06108f5565b6040516102df9190612f73565b61031061030b366004612f86565b610987565b6040516001600160a01b0390911681526020016102df565b61033b610336366004612fb6565b6109ae565b005b61033b61034b366004612f86565b610ac8565b61033b61035e366004612fe0565b610b2e565b61033b610371366004612f86565b610bb4565b610389610384366004612f86565b610c13565b6040516102df9190815181526020808301519082015260408083015190820152606080830151908201526080808301519082015260a0808301519082015260c0808301519082015260e08083015190820152610100808301519082015261012080830151908201526101408083015190820152610160808301519082015261018080830151908201526101a080830151908201526101c080830151908201526101e08083015190820152610200808301519082015261022080830151908201526102408083015190820152610260808301519082015261028080830151908201526102a080830151908201526102c080830151908201526102e08083015190820152610300808301519082015261032080830151908201526103408083015190820152610360808301519082015261038080830151908201526103a091820151918101919091526103c00190565b61033b6104e5366004612ffb565b610e79565b61033b6104f8366004613037565b610eaa565b61033b61050b366004613059565b610f40565b6102d361051e366004612fe0565b600a6020526000908152604090205460ff1681565b610546610541366004612f86565b610fce565b6040519081526020016102df565b61033b610562366004612ffb565b611037565b610546610575366004612f86565b611052565b610546610588366004612f86565b6110d4565b6105a061059b366004612f86565b61111a565b6040516102df9190600061016082019050825182526020830151602083015260408301516040830152606083015160608301526080830151608083015260a083015160a083015260c083015160c083015260e083015160e083015261010080840151818401525061012080840151818401525061014080840151818401525092915050565b610546610633366004613095565b611240565b610310610646366004612f86565b6113ee565b61033b610659366004612f86565b61144e565b61033b61066c366004612f86565b6114ad565b61033b61067f366004612f86565b61150c565b610546610692366004612f86565b61156b565b6105466106a5366004612fe0565b6115d8565b6105466106b8366004612f86565b61165e565b61033b6106cb366004612f86565b6116c7565b6105466106de366004612f86565b611726565b6105466106f1366004612f86565b611795565b600954610310906001600160a01b031681565b61033b610717366004613037565b61180e565b6102f06118c4565b61033b610732366004613059565b6118d3565b610546610745366004613037565b6118e2565b6105466107583660046130c7565b61192f565b61033b61076b366004613037565b611b7f565b61054661077e366004612f86565b611c35565b61033b6107913660046130e8565b611c72565b61033b6107a436600461312a565b611eb1565b6105466107b7366004612f86565b611ee9565b6102f06107ca366004612f86565b611f58565b61033b6107dd366004612f86565b611fcb565b6105466107f0366004613037565b61202a565b61033b610803366004613206565b61208b565b610546610816366004612f86565b612342565b61033b610829366004613059565b612376565b61054661083c366004612f86565b6123fc565b61054661084f366004613037565b612458565b6102d3610862366004613241565b6001600160a01b03918216600090815260056020908152604080832093909416825291909152205460ff1690565b61054661089e366004612f86565b6124b4565b60006001600160e01b031982166380ac58cd60e01b14806108d457506001600160e01b03198216635b5e139f60e01b145b806108ef57506301ffc9a760e01b6001600160e01b03198316145b92915050565b60606000805461090490613274565b80601f016020809104026020016040519081016040528092919081815260200182805461093090613274565b801561097d5780601f106109525761010080835404028352916020019161097d565b820191906000526020600020905b81548152906001019060200180831161096057829003601f168201915b5050505050905090565b600061099282612514565b506000908152600460205260409020546001600160a01b031690565b60006109b9826113ee565b9050806001600160a01b0316836001600160a01b031603610a2b5760405162461bcd60e51b815260206004820152602160248201527f4552433732313a20617070726f76616c20746f2063757272656e74206f776e656044820152603960f91b60648201526084015b60405180910390fd5b336001600160a01b0382161480610a475750610a478133610862565b610ab95760405162461bcd60e51b815260206004820152603d60248201527f4552433732313a20617070726f76652063616c6c6572206973206e6f7420746f60448201527f6b656e206f776e6572206f7220617070726f76656420666f7220616c6c0000006064820152608401610a22565b610ac38383612567565b505050565b6009546001600160a01b03163314610af25760405162461bcd60e51b8152600401610a22906132a8565b600f8190556040518181527f2709c3545e934f71bad88a10628cfcb26544abef6d319e025dafcfaa8ecd371b906020015b60405180910390a150565b6009546001600160a01b03163314610b585760405162461bcd60e51b8152600401610a22906132a8565b6009546040516001600160a01b038084169216907fcbf985117192c8f614a58aaf97226bb80a754772f5f6edf06f87c675f2e6c66390600090a3600980546001600160a01b0319166001600160a01b0392909216919091179055565b6009546001600160a01b03163314610bde5760405162461bcd60e51b8152600401610a22906132a8565b60108190556040518181527f8bc6f507740334e03eb54c47352da054221b790b05465e2e8abf2c6e2bd9fd1090602001610b23565b610cf5604051806103c001604052806000815260200160008152602001600081526020016000815260200160008152602001600081526020016000815260200160008152602001600081526020016000815260200160008152602001600081526020016000815260200160008152602001600081526020016000815260200160008152602001600081526020016000815260200160008152602001600081526020016000815260200160008152602001600081526020016000815260200160008152602001600081526020016000815260200160008152602001600081525090565b610cfe826125d5565b610d1a5760405162461bcd60e51b8152600401610a22906132cf565b5060009081526007602081815260409283902083516103c081018552815481526001820154928101929092526002810154938201939093526003830154606082015260048301546080820152600583015460a0820152600683015460c08201529082015460e082015260088201546101008201526009820154610120820152600a820154610140820152600b820154610160820152600c820154610180820152600d8201546101a0820152600e8201546101c0820152600f8201546101e08201526010820154610200820152601182015461022082015260128201546102408201526013820154610260820152601482015461028082015260158201546102a082015260168201546102c082015260178201546102e082015260188201546103008201526019820154610320820152601a820154610340820152601b820154610360820152601c820154610380820152601d909101546103a082015290565b610e8333826125f2565b610e9f5760405162461bcd60e51b8152600401610a22906132fd565b610ac3838383612670565b336000908152600b602052604090205460ff16610ed95760405162461bcd60e51b8152600401610a22906132a8565b610ee2826125d5565b610efe5760405162461bcd60e51b8152600401610a22906132cf565b601154600083815260076020526040902060050154610f279190610f229084612458565b6127d4565b6000928352600760205260409092206005019190915550565b6009546001600160a01b03163314610f6a5760405162461bcd60e51b8152600401610a22906132a8565b6001600160a01b0382166000818152600a6020908152604091829020805460ff19168515159081179091558251938452908301527f29ff5e8999b00a7437c384659fb2312b275b85c589f4d149f8b460ea477dcb7e91015b60405180910390a15050565b6000610fd9826125d5565b610ff55760405162461bcd60e51b8152600401610a22906132cf565b6108ef61100183611ee9565b60008481526007602081905260409091206006810154910154610f22919061084f9061102e9043906118e2565b6107f0886124b4565b610ac383838360405180602001604052806000815250611eb1565b6000818152600760209081526040808320600801548352600690915281206001810154600282015460038301546004909301548493611099939261084f9290918391612458565b905060006110c06110a985611795565b60008681526007602052604090206011015461202a565b90506110cc8282612458565b949350505050565b60006110df826125d5565b6110fb5760405162461bcd60e51b8152600401610a22906132cf565b600e546000838152600760205260409020600201546108ef9190613360565b61117760405180610160016040528060008152602001600081526020016000815260200160008152602001600081526020016000815260200160008152602001600081526020016000815260200160008152602001600081525090565b611180826125d5565b61119c5760405162461bcd60e51b8152600401610a22906132cf565b60006040518061016001604052808481526020016111b985610fce565b81526020016111c785611ee9565b81526020016111d58561165e565b81526020016111e38561156b565b81526020016111f185611795565b81526020016111ff85611c35565b815260200161120d85611726565b815260200161121b856110d4565b815260200161122985612342565b815260200161123785611052565b90529392505050565b336000908152600a602052604081205460ff168061126857506009546001600160a01b031633145b6112845760405162461bcd60e51b8152600401610a22906132a8565b6000604051806103c00160405280600081526020018781526020018681526020018581526020018481526020016000815260200160008152602001600081526020016000815260200160008152602001600081526020016000815260200160008152602001600181526020016001815260200160008152602001600081526020016000815260200160018152602001600081526020016000815260200160008152602001600081526020016000815260200160008152602001600081526020016000815260200160008152602001600081526020016000815250905061136e600880546001019055565b600061137960085490565b90506113866000826127ea565b6113908183612804565b6000818152600760205260408082208390555133917fe6ad03ae09e6216384922d74b5734a0ebc9aa6de15bcd7d61ed9999ba2cb1df5916113dc9185825260ff16602082015260400190565b60405180910390a29695505050505050565b6000818152600260205260408120546001600160a01b0316806108ef5760405162461bcd60e51b8152602060048201526018602482015277115490cdcc8c4e881a5b9d985b1a59081d1bdad95b88125160421b6044820152606401610a22565b6009546001600160a01b031633146114785760405162461bcd60e51b8152600401610a22906132a8565b600e8190556040518181527f8e5252d2d2f885f4bae3553bbe34c3630f9274028f3c343ce0eac0dd710c6a0390602001610b23565b6009546001600160a01b031633146114d75760405162461bcd60e51b8152600401610a22906132a8565b60118190556040518181527f8b92a2a371ec2af95aa1740562d5031b28f403d2780beaecdce6befd43667fb890602001610b23565b6009546001600160a01b031633146115365760405162461bcd60e51b8152600401610a22906132a8565b600d8190556040518181527f0665124c1d0c6d84ba8a4d99cb0c2a03455171ce7503623c6cceb9da5bbd7a9190602001610b23565b6000611576826125d5565b6115925760405162461bcd60e51b8152600401610a22906132cf565b60008281526007602052604081206010810154600e8201546003909201549092906115cf906115c290849061202a565b61084f856107f089611795565b95945050505050565b60006001600160a01b0382166116425760405162461bcd60e51b815260206004820152602960248201527f4552433732313a2061646472657373207a65726f206973206e6f7420612076616044820152683634b21037bbb732b960b91b6064820152608401610a22565b506001600160a01b031660009081526003602052604090205490565b6000611669826125d5565b6116855760405162461bcd60e51b8152600401610a22906132cf565b6108ef6116918361156b565b6000848152600760205260409020600a810154600b90910154610f22919061084f906116be9043906118e2565b6107f0886123fc565b6009546001600160a01b031633146116f15760405162461bcd60e51b8152600401610a22906132a8565b60128190556040518181527f0dbed17fa1cbd28e0338d43e05619d042b9ca1ac23a9d5383ebe0ab7049ff16e90602001610b23565b6000611731826125d5565b61174d5760405162461bcd60e51b8152600401610a22906132cf565b60105460008381526007602052604090206003015461176c9190613360565b600f5460008481526007602052604090206001015461178b9190613360565b6108ef9190613382565b60006117a0826125d5565b6117bc5760405162461bcd60e51b8152600401610a22906132cf565b600082815260076020526040902060050154601254600a906117fd906117f6906117f1906117ea908661202a565b607d612458565b612976565b60056118e2565b6118079190613360565b9392505050565b336000908152600b602052604090205460ff1661183d5760405162461bcd60e51b8152600401610a22906132a8565b611846826125d5565b6118625760405162461bcd60e51b8152600401610a22906132cf565b600061186d8361165e565b90508181101561188e576000838152600760205260408120600a01556118ab565b61189881836118e2565b6000848152600760205260409020600a01555b5050600090815260076020526040902043600b90910155565b60606001805461090490613274565b6118de3383836129e6565b5050565b6000828211156119255760405162461bcd60e51b815260206004820152600e60248201526d1cd8599954dd588811985a5b195960921b6044820152606401610a22565b6118078284613395565b600080826004811115611944576119446133a8565b036119895760405162461bcd60e51b8152602060048201526015602482015274496e76616c6964206669676874657220636c61737360581b6044820152606401610a22565b6000600660008460048111156119a1576119a16133a8565b8152602001908152602001600020604051806103c001604052908160008201548152602001600182015481526020016002820154815260200160038201548152602001600482015481526020016005820154815260200160068201548152602001600782015481526020016008820154815260200160098201548152602001600a8201548152602001600b8201548152602001600c8201548152602001600d8201548152602001600e8201548152602001600f820154815260200160108201548152602001601182015481526020016012820154815260200160138201548152602001601482015481526020016015820154815260200160168201548152602001601782015481526020016018820154815260200160198201548152602001601a8201548152602001601b8201548152602001601c8201548152602001601d820154815250509050611af7600880546001019055565b6000611b0260085490565b9050611b0e33826127ea565b611b188183612804565b6000818152600760205260409020819055337ffa7343ad709ac91d3c10902ecf30b0048166ea21049de84c532bc3dfdf8c6f0e82866004811115611b5e57611b5e6133a8565b6040805192835260ff90911660208301520160405180910390a29392505050565b336000908152600b602052604090205460ff16611bae5760405162461bcd60e51b8152600401610a22906132a8565b611bb7826125d5565b611bd35760405162461bcd60e51b8152600401610a22906132cf565b6000611bde83610fce565b905081811015611bff57600083815260076020526040812060060155611c1c565b611c0981836118e2565b6000848152600760205260409020600601555b5050600090815260076020819052604090912043910155565b6000611c40826125d5565b611c5c5760405162461bcd60e51b8152600401610a22906132cf565b5060009081526007602052604090206005015490565b611c7b836125d5565b611cbd5760405162461bcd60e51b815260206004820152601360248201527210da185c88191bd95cc81b9bdd08195e1a5cdd606a1b6044820152606401610a22565b33611cc7846113ee565b6001600160a01b031614611ced5760405162461bcd60e51b8152600401610a22906132a8565b60008111611d2c5760405162461bcd60e51b815260206004820152600c60248201526b125b9d985b1a59081cdb1bdd60a21b6044820152606401610a22565b80600103611d495760008381526007602052604090206013018290555b80600203611d665760008381526007602052604090206014018290555b80600303611d835760008381526007602052604090206015018290555b80600403611da05760008381526007602052604090206016018290555b80600503611dbd5760008381526007602052604090206017018290555b80600603611dda5760008381526007602052604090206018018290555b80600703611df75760008381526007602052604090206019018290555b80600803611e14576000838152600760205260409020601a018290555b80600903611e31576000838152600760205260409020601b018290555b80600a03611e4e576000838152600760205260409020601c018290555b80600b03611e6b576000838152600760205260409020601d018290555b60408051848152602081018490529081018290527f4d71ce238d1218a1f21de645b44d8d791c8c42f634ae4b7a576c6c548ddb639d9060600160405180910390a1505050565b611ebb33836125f2565b611ed75760405162461bcd60e51b8152600401610a22906132fd565b611ee384848484612ab4565b50505050565b6000611ef4826125d5565b611f105760405162461bcd60e51b8152600401610a22906132cf565b6000828152600760205260408120600f810154600d9091015490916115cf611f3b846107f088611795565b60008781526007602052604090206004015461084f90859061202a565b6060611f6382612514565b6000611f7a60408051602081019091526000815290565b90506000815111611f9a5760405180602001604052806000815250611807565b80611fa484612ae7565b604051602001611fb59291906133be565b6040516020818303038152906040529392505050565b6009546001600160a01b03163314611ff55760405162461bcd60e51b8152600401610a22906132a8565b600c8190556040518181527f3dc2199ccebb6b521944bbb446fd55ec36fc6b23c37808e7304ac55d535d3ac490602001610b23565b60008061203783856133ed565b905083158061204e57508261204c8583613360565b145b6118075760405162461bcd60e51b815260206004820152600e60248201526d1cd85999535d5b0811985a5b195960921b6044820152606401610a22565b33612095866113ee565b6001600160a01b0316146120bb5760405162461bcd60e51b8152600401610a22906132a8565b60008581526007602052604090206001015484101561211c5760405162461bcd60e51b815260206004820152601b60248201527f537472656e6774682063616e27742062652064656372656173656400000000006044820152606401610a22565b60008581526007602052604090206002015483101561217d5760405162461bcd60e51b815260206004820152601a60248201527f4167696c6974792063616e2774206265206465637265617365640000000000006044820152606401610a22565b6000858152600760205260409020600301548210156121de5760405162461bcd60e51b815260206004820152601960248201527f456e657267792063616e277420626520646563726561736564000000000000006044820152606401610a22565b60008581526007602052604090206004015481101561223f5760405162461bcd60e51b815260206004820152601b60248201527f566974616c6974792063616e27742062652064656372656173656400000000006044820152606401610a22565b600061224a86611052565b9050600061225787612342565b9050600061226d8761084f8861084f8989612458565b9050828111156122bf5760405162461bcd60e51b815260206004820152601e60248201527f547279696e6720746f6f2061646420746f6f206d616e7920706f696e747300006044820152606401610a22565b600088815260076020908152604091829020600181018a9055600281018990556003810188905560040186905581518a815290810189905290810187905260608101869052608081018590527f9e28895821cef6daa08da1e82406e8be9675974fd115ccca84e332e6c15cff8f9060a00160405180910390a15050505050505050565b60008181526007602052604081206001810154600282015460038301546004909301546108ef9361084f9291839190612458565b6009546001600160a01b031633146123a05760405162461bcd60e51b8152600401610a22906132a8565b6001600160a01b0382166000818152600b6020908152604091829020805460ff19168515159081179091558251938452908301527f01c144ac08fce1689d8f39e7c6b611ff5de0a11668f47d49788f2d8add83669a9101610fc2565b6000612407826125d5565b6124235760405162461bcd60e51b8152600401610a22906132cf565b600d546000838152600760205260409020600401546108ef9161244591613360565b6000848152600760205260409020600c01545b6000806124658385613382565b90508381101580156124775750828110155b6118075760405162461bcd60e51b815260206004820152600e60248201526d1cd859995059190811985a5b195960921b6044820152606401610a22565b60006124bf826125d5565b6124db5760405162461bcd60e51b8152600401610a22906132cf565b600c546000838152600760205260409020600401546108ef916124fd91613360565b600084815260076020526040902060090154612458565b61251d816125d5565b6125645760405162461bcd60e51b8152602060048201526018602482015277115490cdcc8c4e881a5b9d985b1a59081d1bdad95b88125160421b6044820152606401610a22565b50565b600081815260046020526040902080546001600160a01b0319166001600160a01b038416908117909155819061259c826113ee565b6001600160a01b03167f8c5be1e5ebec7d5bd14f71427d1e84f3dd0314c0f7b2291e5b200ac8c7c3b92560405160405180910390a45050565b6000908152600260205260409020546001600160a01b0316151590565b6000806125fe836113ee565b9050806001600160a01b0316846001600160a01b0316148061264557506001600160a01b0380821660009081526005602090815260408083209388168352929052205460ff165b806110cc5750836001600160a01b031661265e84610987565b6001600160a01b031614949350505050565b826001600160a01b0316612683826113ee565b6001600160a01b0316146126a95760405162461bcd60e51b8152600401610a2290613404565b6001600160a01b03821661270b5760405162461bcd60e51b8152602060048201526024808201527f4552433732313a207472616e7366657220746f20746865207a65726f206164646044820152637265737360e01b6064820152608401610a22565b826001600160a01b031661271e826113ee565b6001600160a01b0316146127445760405162461bcd60e51b8152600401610a2290613404565b600081815260046020908152604080832080546001600160a01b03199081169091556001600160a01b0387811680865260038552838620805460001901905590871680865283862080546001019055868652600290945282852080549092168417909155905184937fddf252ad1be2c89b69c2b068fc378daa952ba7f163c4a11628f55a4df523b3ef91a4505050565b60008183106127e35781611807565b5090919050565b6118de828260405180602001604052806000815250612b7a565b61280d826125d5565b6128295760405162461bcd60e51b8152600401610a22906132cf565b60009182526007602081815260409384902083518155908301516001820155928201516002840155606082015160038401556080820151600484015560a0820151600584015560c0820151600684015560e08201519083015561010081015160088301556101208101516009830155610140810151600a830155610160810151600b830155610180810151600c8301556101a0810151600d8301556101c0810151600e8301556101e0810151600f830155610200810151601083015561022081015160118301556102408101516012830155610260810151601383015561028081015160148301556102a081015160158301556102c081015160168301556102e0810151601783015561030081015160188301556103208101516019830155610340810151601a830155610360810151601b830155610380810151601c8301556103a00151601d90910155565b600060038211156129d75750806000612990600283613360565b61299b906001613382565b90505b818110156129d1579050806002816129b68186613360565b6129c09190613382565b6129ca9190613360565b905061299e565b50919050565b81156129e1575060015b919050565b816001600160a01b0316836001600160a01b031603612a475760405162461bcd60e51b815260206004820152601960248201527f4552433732313a20617070726f766520746f2063616c6c6572000000000000006044820152606401610a22565b6001600160a01b03838116600081815260056020908152604080832094871680845294825291829020805460ff191686151590811790915591519182527f17307eab39ab6107e8899845ad3d59bd9653f200f220920489ca2b5937696c31910160405180910390a3505050565b612abf848484612670565b612acb84848484612bad565b611ee35760405162461bcd60e51b8152600401610a2290613449565b60606000612af483612cab565b600101905060008167ffffffffffffffff811115612b1457612b14613114565b6040519080825280601f01601f191660200182016040528015612b3e576020820181803683370190505b5090508181016020015b600019016f181899199a1a9b1b9c1cb0b131b232b360811b600a86061a8153600a8504945084612b4857509392505050565b612b848383612d83565b612b916000848484612bad565b610ac35760405162461bcd60e51b8152600401610a2290613449565b60006001600160a01b0384163b15612ca357604051630a85bd0160e11b81526001600160a01b0385169063150b7a0290612bf190339089908890889060040161349b565b6020604051808303816000875af1925050508015612c2c575060408051601f3d908101601f19168201909252612c29918101906134d8565b60015b612c89573d808015612c5a576040519150601f19603f3d011682016040523d82523d6000602084013e612c5f565b606091505b508051600003612c815760405162461bcd60e51b8152600401610a2290613449565b805181602001fd5b6001600160e01b031916630a85bd0160e11b1490506110cc565b5060016110cc565b60008072184f03e93ff9f4daa797ed6e38ed64bf6a1f0160401b8310612cea5772184f03e93ff9f4daa797ed6e38ed64bf6a1f0160401b830492506040015b6d04ee2d6d415b85acef81000000008310612d16576d04ee2d6d415b85acef8100000000830492506020015b662386f26fc100008310612d3457662386f26fc10000830492506010015b6305f5e1008310612d4c576305f5e100830492506008015b6127108310612d6057612710830492506004015b60648310612d72576064830492506002015b600a83106108ef5760010192915050565b6001600160a01b038216612dd95760405162461bcd60e51b815260206004820181905260248201527f4552433732313a206d696e7420746f20746865207a65726f20616464726573736044820152606401610a22565b612de2816125d5565b15612e2f5760405162461bcd60e51b815260206004820152601c60248201527f4552433732313a20746f6b656e20616c7265616479206d696e746564000000006044820152606401610a22565b612e38816125d5565b15612e855760405162461bcd60e51b815260206004820152601c60248201527f4552433732313a20746f6b656e20616c7265616479206d696e746564000000006044820152606401610a22565b6001600160a01b038216600081815260036020908152604080832080546001019055848352600290915280822080546001600160a01b0319168417905551839291907fddf252ad1be2c89b69c2b068fc378daa952ba7f163c4a11628f55a4df523b3ef908290a45050565b6001600160e01b03198116811461256457600080fd5b600060208284031215612f1857600080fd5b813561180781612ef0565b60005b83811015612f3e578181015183820152602001612f26565b50506000910152565b60008151808452612f5f816020860160208601612f23565b601f01601f19169290920160200192915050565b6020815260006118076020830184612f47565b600060208284031215612f9857600080fd5b5035919050565b80356001600160a01b03811681146129e157600080fd5b60008060408385031215612fc957600080fd5b612fd283612f9f565b946020939093013593505050565b600060208284031215612ff257600080fd5b61180782612f9f565b60008060006060848603121561301057600080fd5b61301984612f9f565b925061302760208501612f9f565b9150604084013590509250925092565b6000806040838503121561304a57600080fd5b50508035926020909101359150565b6000806040838503121561306c57600080fd5b61307583612f9f565b91506020830135801515811461308a57600080fd5b809150509250929050565b600080600080608085870312156130ab57600080fd5b5050823594602084013594506040840135936060013592509050565b6000602082840312156130d957600080fd5b81356005811061180757600080fd5b6000806000606084860312156130fd57600080fd5b505081359360208301359350604090920135919050565b634e487b7160e01b600052604160045260246000fd5b6000806000806080858703121561314057600080fd5b61314985612f9f565b935061315760208601612f9f565b925060408501359150606085013567ffffffffffffffff8082111561317b57600080fd5b818701915087601f83011261318f57600080fd5b8135818111156131a1576131a1613114565b604051601f8201601f19908116603f011681019083821181831017156131c9576131c9613114565b816040528281528a60208487010111156131e257600080fd5b82602086016020830137600060208483010152809550505050505092959194509250565b600080600080600060a0868803121561321e57600080fd5b505083359560208501359550604085013594606081013594506080013592509050565b6000806040838503121561325457600080fd5b61325d83612f9f565b915061326b60208401612f9f565b90509250929050565b600181811c9082168061328857607f821691505b6020821081036129d157634e487b7160e01b600052602260045260246000fd5b6020808252600d908201526c1058d8d95cdcc811195b9a5959609a1b604082015260600190565b602080825260149082015273151bdad95b88191bd95cc81b9bdd08195e1a5cdd60621b604082015260600190565b6020808252602d908201527f4552433732313a2063616c6c6572206973206e6f7420746f6b656e206f776e6560408201526c1c881bdc88185c1c1c9bdd9959609a1b606082015260800190565b634e487b7160e01b600052601160045260246000fd5b60008261337d57634e487b7160e01b600052601260045260246000fd5b500490565b808201808211156108ef576108ef61334a565b818103818111156108ef576108ef61334a565b634e487b7160e01b600052602160045260246000fd5b600083516133d0818460208801612f23565b8351908301906133e4818360208801612f23565b01949350505050565b80820281158282048414176108ef576108ef61334a565b60208082526025908201527f4552433732313a207472616e736665722066726f6d20696e636f72726563742060408201526437bbb732b960d91b606082015260800190565b60208082526032908201527f4552433732313a207472616e7366657220746f206e6f6e20455243373231526560408201527131b2b4bb32b91034b6b83632b6b2b73a32b960711b606082015260800190565b6001600160a01b03858116825284166020820152604081018390526080606082018190526000906134ce90830184612f47565b9695505050505050565b6000602082840312156134ea57600080fd5b815161180781612ef056fea2646970667358221220584df68b028172bfa625d25f1f88c68648d52629a81972f1196e43eb98320d7764736f6c63430008130033",
			"opcodes": "PUSH1 0x80 PUSH1 0x40 MSTORE PUSH1 0x8 PUSH1 0xC SSTORE PUSH1 0x8 PUSH1 0xD SSTORE PUSH1 0x4 PUSH1 0xE SSTORE PUSH1 0x8 PUSH1 0xF SSTORE PUSH1 0x8 PUSH1 0x10 SSTORE PUSH4 0x115D88A4 PUSH1 0x11 SSTORE PUSH1 0x5 PUSH1 0x12 SSTORE CALLVALUE DUP1 ISZERO PUSH3 0x37 JUMPI PUSH1 0x0 DUP1 REVERT JUMPDEST POP PUSH1 0x40 MLOAD DUP1 PUSH1 0x40 ADD PUSH1 0x40 MSTORE DUP1 PUSH1 0x7 DUP2 MSTORE PUSH1 0x20 ADD PUSH7 0x436F6D62617473 PUSH1 0xC8 SHL DUP2 MSTORE POP PUSH1 0x40 MLOAD DUP1 PUSH1 0x40 ADD PUSH1 0x40 MSTORE DUP1 PUSH1 0x7 DUP2 MSTORE PUSH1 0x20 ADD PUSH7 0x2334B3B43A32B9 PUSH1 0xC9 SHL DUP2 MSTORE POP DUP2 PUSH1 0x0 SWAP1 DUP2 PUSH3 0x89 SWAP2 SWAP1 PUSH3 0xA78 JUMP JUMPDEST POP PUSH1 0x1 PUSH3 0x98 DUP3 DUP3 PUSH3 0xA78 JUMP JUMPDEST POP POP POP PUSH1 0x40 MLOAD DUP1 PUSH2 0x3C0 ADD PUSH1 0x40 MSTORE DUP1 PUSH1 0x0 DUP2 MSTORE PUSH1 0x20 ADD PUSH1 0x2A DUP2 MSTORE PUSH1 0x20 ADD PUSH1 0x14 DUP2 MSTORE PUSH1 0x20 ADD PUSH1 0x5 DUP2 MSTORE PUSH1 0x20 ADD PUSH1 0x14 DUP2 MSTORE PUSH1 0x20 ADD PUSH1 0x0 DUP2 MSTORE PUSH1 0x20 ADD PUSH1 0x0 DUP2 MSTORE PUSH1 0x20 ADD PUSH1 0x0 DUP2 MSTORE PUSH1 0x20 ADD PUSH1 0x1 DUP2 MSTORE PUSH1 0x20 ADD PUSH1 0x0 DUP2 MSTORE PUSH1 0x20 ADD PUSH1 0x0 DUP2 MSTORE PUSH1 0x20 ADD PUSH1 0x0 DUP2 MSTORE PUSH1 0x20 ADD PUSH1 0x0 DUP2 MSTORE PUSH1 0x20 ADD PUSH1 0x5 DUP2 MSTORE PUSH1 0x20 ADD PUSH1 0x5 DUP2 MSTORE PUSH1 0x20 ADD PUSH1 0x5 DUP2 MSTORE PUSH1 0x20 ADD PUSH1 0x1 DUP2 MSTORE PUSH1 0x20 ADD PUSH1 0x5 DUP2 MSTORE PUSH1 0x20 ADD PUSH1 0x0 DUP2 MSTORE PUSH1 0x20 ADD PUSH1 0x0 DUP2 MSTORE PUSH1 0x20 ADD PUSH1 0x0 DUP2 MSTORE PUSH1 0x20 ADD PUSH1 0x0 DUP2 MSTORE PUSH1 0x20 ADD PUSH1 0x0 DUP2 MSTORE PUSH1 0x20 ADD PUSH1 0x0 DUP2 MSTORE PUSH1 0x20 ADD PUSH1 0x0 DUP2 MSTORE PUSH1 0x20 ADD PUSH1 0x0 DUP2 MSTORE PUSH1 0x20 ADD PUSH1 0x0 DUP2 MSTORE PUSH1 0x20 ADD PUSH1 0x0 DUP2 MSTORE PUSH1 0x20 ADD PUSH1 0x0 DUP2 MSTORE PUSH1 0x20 ADD PUSH1 0x0 DUP2 MSTORE POP PUSH1 0x6 PUSH1 0x0 PUSH1 0x1 PUSH1 0x4 DUP2 GT ISZERO PUSH3 0x191 JUMPI PUSH3 0x191 PUSH3 0xB44 JUMP JUMPDEST DUP2 MSTORE PUSH1 0x20 ADD SWAP1 DUP2 MSTORE PUSH1 0x20 ADD PUSH1 0x0 KECCAK256 PUSH1 0x0 DUP3 ADD MLOAD DUP2 PUSH1 0x0 ADD SSTORE PUSH1 0x20 DUP3 ADD MLOAD DUP2 PUSH1 0x1 ADD SSTORE PUSH1 0x40 DUP3 ADD MLOAD DUP2 PUSH1 0x2 ADD SSTORE PUSH1 0x60 DUP3 ADD MLOAD DUP2 PUSH1 0x3 ADD SSTORE PUSH1 0x80 DUP3 ADD MLOAD DUP2 PUSH1 0x4 ADD SSTORE PUSH1 0xA0 DUP3 ADD MLOAD DUP2 PUSH1 0x5 ADD SSTORE PUSH1 0xC0 DUP3 ADD MLOAD DUP2 PUSH1 0x6 ADD SSTORE PUSH1 0xE0 DUP3 ADD MLOAD DUP2 PUSH1 0x7 ADD SSTORE PUSH2 0x100 DUP3 ADD MLOAD DUP2 PUSH1 0x8 ADD SSTORE PUSH2 0x120 DUP3 ADD MLOAD DUP2 PUSH1 0x9 ADD SSTORE PUSH2 0x140 DUP3 ADD MLOAD DUP2 PUSH1 0xA ADD SSTORE PUSH2 0x160 DUP3 ADD MLOAD DUP2 PUSH1 0xB ADD SSTORE PUSH2 0x180 DUP3 ADD MLOAD DUP2 PUSH1 0xC ADD SSTORE PUSH2 0x1A0 DUP3 ADD MLOAD DUP2 PUSH1 0xD ADD SSTORE PUSH2 0x1C0 DUP3 ADD MLOAD DUP2 PUSH1 0xE ADD SSTORE PUSH2 0x1E0 DUP3 ADD MLOAD DUP2 PUSH1 0xF ADD SSTORE PUSH2 0x200 DUP3 ADD MLOAD DUP2 PUSH1 0x10 ADD SSTORE PUSH2 0x220 DUP3 ADD MLOAD DUP2 PUSH1 0x11 ADD SSTORE PUSH2 0x240 DUP3 ADD MLOAD DUP2 PUSH1 0x12 ADD SSTORE PUSH2 0x260 DUP3 ADD MLOAD DUP2 PUSH1 0x13 ADD SSTORE PUSH2 0x280 DUP3 ADD MLOAD DUP2 PUSH1 0x14 ADD SSTORE PUSH2 0x2A0 DUP3 ADD MLOAD DUP2 PUSH1 0x15 ADD SSTORE PUSH2 0x2C0 DUP3 ADD MLOAD DUP2 PUSH1 0x16 ADD SSTORE PUSH2 0x2E0 DUP3 ADD MLOAD DUP2 PUSH1 0x17 ADD SSTORE PUSH2 0x300 DUP3 ADD MLOAD DUP2 PUSH1 0x18 ADD SSTORE PUSH2 0x320 DUP3 ADD MLOAD DUP2 PUSH1 0x19 ADD SSTORE PUSH2 0x340 DUP3 ADD MLOAD DUP2 PUSH1 0x1A ADD SSTORE PUSH2 0x360 DUP3 ADD MLOAD DUP2 PUSH1 0x1B ADD SSTORE PUSH2 0x380 DUP3 ADD MLOAD DUP2 PUSH1 0x1C ADD SSTORE PUSH2 0x3A0 DUP3 ADD MLOAD DUP2 PUSH1 0x1D ADD SSTORE SWAP1 POP POP PUSH1 0x40 MLOAD DUP1 PUSH2 0x3C0 ADD PUSH1 0x40 MSTORE DUP1 PUSH1 0x0 DUP2 MSTORE PUSH1 0x20 ADD PUSH1 0xF DUP2 MSTORE PUSH1 0x20 ADD PUSH1 0x14 DUP2 MSTORE PUSH1 0x20 ADD PUSH1 0x32 DUP2 MSTORE PUSH1 0x20 ADD PUSH1 0x14 DUP2 MSTORE PUSH1 0x20 ADD PUSH1 0x0 DUP2 MSTORE PUSH1 0x20 ADD PUSH1 0x0 DUP2 MSTORE PUSH1 0x20 ADD PUSH1 0x0 DUP2 MSTORE PUSH1 0x20 ADD PUSH1 0x2 DUP2 MSTORE PUSH1 0x20 ADD PUSH1 0x0 DUP2 MSTORE PUSH1 0x20 ADD PUSH1 0x0 DUP2 MSTORE PUSH1 0x20 ADD PUSH1 0x0 DUP2 MSTORE PUSH1 0x20 ADD PUSH1 0x0 DUP2 MSTORE PUSH1 0x20 ADD PUSH1 0x3 DUP2 MSTORE PUSH1 0x20 ADD PUSH1 0xA DUP2 MSTORE PUSH1 0x20 ADD PUSH1 0x3 DUP2 MSTORE PUSH1 0x20 ADD PUSH1 0x5 DUP2 MSTORE PUSH1 0x20 ADD PUSH1 0x5 DUP2 MSTORE PUSH1 0x20 ADD PUSH1 0x0 DUP2 MSTORE PUSH1 0x20 ADD PUSH1 0x0 DUP2 MSTORE PUSH1 0x20 ADD PUSH1 0x0 DUP2 MSTORE PUSH1 0x20 ADD PUSH1 0x0 DUP2 MSTORE PUSH1 0x20 ADD PUSH1 0x0 DUP2 MSTORE PUSH1 0x20 ADD PUSH1 0x0 DUP2 MSTORE PUSH1 0x20 ADD PUSH1 0x0 DUP2 MSTORE PUSH1 0x20 ADD PUSH1 0x0 DUP2 MSTORE PUSH1 0x20 ADD PUSH1 0x0 DUP2 MSTORE PUSH1 0x20 ADD PUSH1 0x0 DUP2 MSTORE PUSH1 0x20 ADD PUSH1 0x0 DUP2 MSTORE PUSH1 0x20 ADD PUSH1 0x0 DUP2 MSTORE POP PUSH1 0x6 PUSH1 0x0 PUSH1 0x2 PUSH1 0x4 DUP2 GT ISZERO PUSH3 0x3DA JUMPI PUSH3 0x3DA PUSH3 0xB44 JUMP JUMPDEST DUP2 MSTORE PUSH1 0x20 ADD SWAP1 DUP2 MSTORE PUSH1 0x20 ADD PUSH1 0x0 KECCAK256 PUSH1 0x0 DUP3 ADD MLOAD DUP2 PUSH1 0x0 ADD SSTORE PUSH1 0x20 DUP3 ADD MLOAD DUP2 PUSH1 0x1 ADD SSTORE PUSH1 0x40 DUP3 ADD MLOAD DUP2 PUSH1 0x2 ADD SSTORE PUSH1 0x60 DUP3 ADD MLOAD DUP2 PUSH1 0x3 ADD SSTORE PUSH1 0x80 DUP3 ADD MLOAD DUP2 PUSH1 0x4 ADD SSTORE PUSH1 0xA0 DUP3 ADD MLOAD DUP2 PUSH1 0x5 ADD SSTORE PUSH1 0xC0 DUP3 ADD MLOAD DUP2 PUSH1 0x6 ADD SSTORE PUSH1 0xE0 DUP3 ADD MLOAD DUP2 PUSH1 0x7 ADD SSTORE PUSH2 0x100 DUP3 ADD MLOAD DUP2 PUSH1 0x8 ADD SSTORE PUSH2 0x120 DUP3 ADD MLOAD DUP2 PUSH1 0x9 ADD SSTORE PUSH2 0x140 DUP3 ADD MLOAD DUP2 PUSH1 0xA ADD SSTORE PUSH2 0x160 DUP3 ADD MLOAD DUP2 PUSH1 0xB ADD SSTORE PUSH2 0x180 DUP3 ADD MLOAD DUP2 PUSH1 0xC ADD SSTORE PUSH2 0x1A0 DUP3 ADD MLOAD DUP2 PUSH1 0xD ADD SSTORE PUSH2 0x1C0 DUP3 ADD MLOAD DUP2 PUSH1 0xE ADD SSTORE PUSH2 0x1E0 DUP3 ADD MLOAD DUP2 PUSH1 0xF ADD SSTORE PUSH2 0x200 DUP3 ADD MLOAD DUP2 PUSH1 0x10 ADD SSTORE PUSH2 0x220 DUP3 ADD MLOAD DUP2 PUSH1 0x11 ADD SSTORE PUSH2 0x240 DUP3 ADD MLOAD DUP2 PUSH1 0x12 ADD SSTORE PUSH2 0x260 DUP3 ADD MLOAD DUP2 PUSH1 0x13 ADD SSTORE PUSH2 0x280 DUP3 ADD MLOAD DUP2 PUSH1 0x14 ADD SSTORE PUSH2 0x2A0 DUP3 ADD MLOAD DUP2 PUSH1 0x15 ADD SSTORE PUSH2 0x2C0 DUP3 ADD MLOAD DUP2 PUSH1 0x16 ADD SSTORE PUSH2 0x2E0 DUP3 ADD MLOAD DUP2 PUSH1 0x17 ADD SSTORE PUSH2 0x300 DUP3 ADD MLOAD DUP2 PUSH1 0x18 ADD SSTORE PUSH2 0x320 DUP3 ADD MLOAD DUP2 PUSH1 0x19 ADD SSTORE PUSH2 0x340 DUP3 ADD MLOAD DUP2 PUSH1 0x1A ADD SSTORE PUSH2 0x360 DUP3 ADD MLOAD DUP2 PUSH1 0x1B ADD SSTORE PUSH2 0x380 DUP3 ADD MLOAD DUP2 PUSH1 0x1C ADD SSTORE PUSH2 0x3A0 DUP3 ADD MLOAD DUP2 PUSH1 0x1D ADD SSTORE SWAP1 POP POP PUSH1 0x40 MLOAD DUP1 PUSH2 0x3C0 ADD PUSH1 0x40 MSTORE DUP1 PUSH1 0x0 DUP2 MSTORE PUSH1 0x20 ADD PUSH1 0x14 DUP2 MSTORE PUSH1 0x20 ADD PUSH1 0x19 DUP2 MSTORE PUSH1 0x20 ADD PUSH1 0xF DUP2 MSTORE PUSH1 0x20 ADD PUSH1 0x14 DUP2 MSTORE PUSH1 0x20 ADD PUSH1 0x0 DUP2 MSTORE PUSH1 0x20 ADD PUSH1 0x0 DUP2 MSTORE PUSH1 0x20 ADD PUSH1 0x0 DUP2 MSTORE PUSH1 0x20 ADD PUSH1 0x3 DUP2 MSTORE PUSH1 0x20 ADD PUSH1 0x0 DUP2 MSTORE PUSH1 0x20 ADD PUSH1 0x0 DUP2 MSTORE PUSH1 0x20 ADD PUSH1 0x0 DUP2 MSTORE PUSH1 0x20 ADD PUSH1 0x0 DUP2 MSTORE PUSH1 0x20 ADD PUSH1 0x3 DUP2 MSTORE PUSH1 0x20 ADD PUSH1 0x5 DUP2 MSTORE PUSH1 0x20 ADD PUSH1 0x3 DUP2 MSTORE PUSH1 0x20 ADD PUSH1 0x4 DUP2 MSTORE PUSH1 0x20 ADD PUSH1 0x5 DUP2 MSTORE PUSH1 0x20 ADD PUSH1 0x0 DUP2 MSTORE PUSH1 0x20 ADD PUSH1 0x0 DUP2 MSTORE PUSH1 0x20 ADD PUSH1 0x0 DUP2 MSTORE PUSH1 0x20 ADD PUSH1 0x0 DUP2 MSTORE PUSH1 0x20 ADD PUSH1 0x0 DUP2 MSTORE PUSH1 0x20 ADD PUSH1 0x0 DUP2 MSTORE PUSH1 0x20 ADD PUSH1 0x0 DUP2 MSTORE PUSH1 0x20 ADD PUSH1 0x0 DUP2 MSTORE PUSH1 0x20 ADD PUSH1 0x0 DUP2 MSTORE PUSH1 0x20 ADD PUSH1 0x0 DUP2 MSTORE PUSH1 0x20 ADD PUSH1 0x0 DUP2 MSTORE PUSH1 0x20 ADD PUSH1 0x0 DUP2 MSTORE POP PUSH1 0x6 PUSH1 0x0 PUSH1 0x3 PUSH1 0x4 DUP2 GT ISZERO PUSH3 0x623 JUMPI PUSH3 0x623 PUSH3 0xB44 JUMP JUMPDEST DUP2 MSTORE PUSH1 0x20 ADD SWAP1 DUP2 MSTORE PUSH1 0x20 ADD PUSH1 0x0 KECCAK256 PUSH1 0x0 DUP3 ADD MLOAD DUP2 PUSH1 0x0 ADD SSTORE PUSH1 0x20 DUP3 ADD MLOAD DUP2 PUSH1 0x1 ADD SSTORE PUSH1 0x40 DUP3 ADD MLOAD DUP2 PUSH1 0x2 ADD SSTORE PUSH1 0x60 DUP3 ADD MLOAD DUP2 PUSH1 0x3 ADD SSTORE PUSH1 0x80 DUP3 ADD MLOAD DUP2 PUSH1 0x4 ADD SSTORE PUSH1 0xA0 DUP3 ADD MLOAD DUP2 PUSH1 0x5 ADD SSTORE PUSH1 0xC0 DUP3 ADD MLOAD DUP2 PUSH1 0x6 ADD SSTORE PUSH1 0xE0 DUP3 ADD MLOAD DUP2 PUSH1 0x7 ADD SSTORE PUSH2 0x100 DUP3 ADD MLOAD DUP2 PUSH1 0x8 ADD SSTORE PUSH2 0x120 DUP3 ADD MLOAD DUP2 PUSH1 0x9 ADD SSTORE PUSH2 0x140 DUP3 ADD MLOAD DUP2 PUSH1 0xA ADD SSTORE PUSH2 0x160 DUP3 ADD MLOAD DUP2 PUSH1 0xB ADD SSTORE PUSH2 0x180 DUP3 ADD MLOAD DUP2 PUSH1 0xC ADD SSTORE PUSH2 0x1A0 DUP3 ADD MLOAD DUP2 PUSH1 0xD ADD SSTORE PUSH2 0x1C0 DUP3 ADD MLOAD DUP2 PUSH1 0xE ADD SSTORE PUSH2 0x1E0 DUP3 ADD MLOAD DUP2 PUSH1 0xF ADD SSTORE PUSH2 0x200 DUP3 ADD MLOAD DUP2 PUSH1 0x10 ADD SSTORE PUSH2 0x220 DUP3 ADD MLOAD DUP2 PUSH1 0x11 ADD SSTORE PUSH2 0x240 DUP3 ADD MLOAD DUP2 PUSH1 0x12 ADD SSTORE PUSH2 0x260 DUP3 ADD MLOAD DUP2 PUSH1 0x13 ADD SSTORE PUSH2 0x280 DUP3 ADD MLOAD DUP2 PUSH1 0x14 ADD SSTORE PUSH2 0x2A0 DUP3 ADD MLOAD DUP2 PUSH1 0x15 ADD SSTORE PUSH2 0x2C0 DUP3 ADD MLOAD DUP2 PUSH1 0x16 ADD SSTORE PUSH2 0x2E0 DUP3 ADD MLOAD DUP2 PUSH1 0x17 ADD SSTORE PUSH2 0x300 DUP3 ADD MLOAD DUP2 PUSH1 0x18 ADD SSTORE PUSH2 0x320 DUP3 ADD MLOAD DUP2 PUSH1 0x19 ADD SSTORE PUSH2 0x340 DUP3 ADD MLOAD DUP2 PUSH1 0x1A ADD SSTORE PUSH2 0x360 DUP3 ADD MLOAD DUP2 PUSH1 0x1B ADD SSTORE PUSH2 0x380 DUP3 ADD MLOAD DUP2 PUSH1 0x1C ADD SSTORE PUSH2 0x3A0 DUP3 ADD MLOAD DUP2 PUSH1 0x1D ADD SSTORE SWAP1 POP POP PUSH1 0x40 MLOAD DUP1 PUSH2 0x3C0 ADD PUSH1 0x40 MSTORE DUP1 PUSH1 0x0 DUP2 MSTORE PUSH1 0x20 ADD PUSH1 0x1C DUP2 MSTORE PUSH1 0x20 ADD PUSH1 0xF DUP2 MSTORE PUSH1 0x20 ADD PUSH1 0x14 DUP2 MSTORE PUSH1 0x20 ADD PUSH1 0x14 DUP2 MSTORE PUSH1 0x20 ADD PUSH1 0x0 DUP2 MSTORE PUSH1 0x20 ADD PUSH1 0x0 DUP2 MSTORE PUSH1 0x20 ADD PUSH1 0x0 DUP2 MSTORE PUSH1 0x20 ADD PUSH1 0x4 DUP2 MSTORE PUSH1 0x20 ADD PUSH1 0x0 DUP2 MSTORE PUSH1 0x20 ADD PUSH1 0x0 DUP2 MSTORE PUSH1 0x20 ADD PUSH1 0x0 DUP2 MSTORE PUSH1 0x20 ADD PUSH1 0x0 DUP2 MSTORE PUSH1 0x20 ADD PUSH1 0x4 DUP2 MSTORE PUSH1 0x20 ADD PUSH1 0x7 DUP2 MSTORE PUSH1 0x20 ADD PUSH1 0x6 DUP2 MSTORE PUSH1 0x20 ADD PUSH1 0x2 DUP2 MSTORE PUSH1 0x20 ADD PUSH1 0x7 DUP2 MSTORE PUSH1 0x20 ADD PUSH1 0x0 DUP2 MSTORE PUSH1 0x20 ADD PUSH1 0x0 DUP2 MSTORE PUSH1 0x20 ADD PUSH1 0x0 DUP2 MSTORE PUSH1 0x20 ADD PUSH1 0x0 DUP2 MSTORE PUSH1 0x20 ADD PUSH1 0x0 DUP2 MSTORE PUSH1 0x20 ADD PUSH1 0x0 DUP2 MSTORE PUSH1 0x20 ADD PUSH1 0x0 DUP2 MSTORE PUSH1 0x20 ADD PUSH1 0x0 DUP2 MSTORE PUSH1 0x20 ADD PUSH1 0x0 DUP2 MSTORE PUSH1 0x20 ADD PUSH1 0x0 DUP2 MSTORE PUSH1 0x20 ADD PUSH1 0x0 DUP2 MSTORE PUSH1 0x20 ADD PUSH1 0x0 DUP2 MSTORE POP PUSH1 0x6 PUSH1 0x0 PUSH1 0x4 DUP1 DUP2 GT ISZERO PUSH3 0x86B JUMPI PUSH3 0x86B PUSH3 0xB44 JUMP JUMPDEST DUP2 MSTORE PUSH1 0x20 DUP1 DUP3 ADD SWAP3 SWAP1 SWAP3 MSTORE PUSH1 0x40 SWAP1 DUP2 ADD PUSH1 0x0 KECCAK256 DUP4 MLOAD DUP2 SSTORE SWAP2 DUP4 ADD MLOAD PUSH1 0x1 DUP4 ADD SSTORE DUP3 ADD MLOAD PUSH1 0x2 DUP3 ADD SSTORE PUSH1 0x60 DUP3 ADD MLOAD PUSH1 0x3 DUP3 ADD SSTORE PUSH1 0x80 DUP3 ADD MLOAD PUSH1 0x4 DUP3 ADD SSTORE PUSH1 0xA0 DUP3 ADD MLOAD PUSH1 0x5 DUP3 ADD SSTORE PUSH1 0xC0 DUP3 ADD MLOAD PUSH1 0x6 DUP3 ADD SSTORE PUSH1 0xE0 DUP3 ADD MLOAD PUSH1 0x7 DUP3 ADD SSTORE PUSH2 0x100 DUP3 ADD MLOAD PUSH1 0x8 DUP3 ADD SSTORE PUSH2 0x120 DUP3 ADD MLOAD PUSH1 0x9 DUP1 DUP4 ADD SWAP2 SWAP1 SWAP2 SSTORE PUSH2 0x140 DUP4 ADD MLOAD PUSH1 0xA DUP4 ADD SSTORE PUSH2 0x160 DUP4 ADD MLOAD PUSH1 0xB DUP4 ADD SSTORE PUSH2 0x180 DUP4 ADD MLOAD PUSH1 0xC DUP4 ADD SSTORE PUSH2 0x1A0 DUP4 ADD MLOAD PUSH1 0xD DUP4 ADD SSTORE PUSH2 0x1C0 DUP4 ADD MLOAD PUSH1 0xE DUP4 ADD SSTORE PUSH2 0x1E0 DUP4 ADD MLOAD PUSH1 0xF DUP4 ADD SSTORE PUSH2 0x200 DUP4 ADD MLOAD PUSH1 0x10 DUP4 ADD SSTORE PUSH2 0x220 DUP4 ADD MLOAD PUSH1 0x11 DUP4 ADD SSTORE PUSH2 0x240 DUP4 ADD MLOAD PUSH1 0x12 DUP4 ADD SSTORE PUSH2 0x260 DUP4 ADD MLOAD PUSH1 0x13 DUP4 ADD SSTORE PUSH2 0x280 DUP4 ADD MLOAD PUSH1 0x14 DUP4 ADD SSTORE PUSH2 0x2A0 DUP4 ADD MLOAD PUSH1 0x15 DUP4 ADD SSTORE PUSH2 0x2C0 DUP4 ADD MLOAD PUSH1 0x16 DUP4 ADD SSTORE PUSH2 0x2E0 DUP4 ADD MLOAD PUSH1 0x17 DUP4 ADD SSTORE PUSH2 0x300 DUP4 ADD MLOAD PUSH1 0x18 DUP4 ADD SSTORE PUSH2 0x320 DUP4 ADD MLOAD PUSH1 0x19 DUP4 ADD SSTORE PUSH2 0x340 DUP4 ADD MLOAD PUSH1 0x1A DUP4 ADD SSTORE PUSH2 0x360 DUP4 ADD MLOAD PUSH1 0x1B DUP4 ADD SSTORE PUSH2 0x380 DUP4 ADD MLOAD PUSH1 0x1C DUP4 ADD SSTORE PUSH2 0x3A0 SWAP1 SWAP3 ADD MLOAD PUSH1 0x1D SWAP1 SWAP2 ADD SSTORE DUP1 SLOAD PUSH1 0x1 PUSH1 0x1 PUSH1 0xA0 SHL SUB NOT AND CALLER OR SWAP1 SSTORE PUSH3 0xB5A JUMP JUMPDEST PUSH4 0x4E487B71 PUSH1 0xE0 SHL PUSH1 0x0 MSTORE PUSH1 0x41 PUSH1 0x4 MSTORE PUSH1 0x24 PUSH1 0x0 REVERT JUMPDEST PUSH1 0x1 DUP2 DUP2 SHR SWAP1 DUP3 AND DUP1 PUSH3 0x9FE JUMPI PUSH1 0x7F DUP3 AND SWAP2 POP JUMPDEST PUSH1 0x20 DUP3 LT DUP2 SUB PUSH3 0xA1F JUMPI PUSH4 0x4E487B71 PUSH1 0xE0 SHL PUSH1 0x0 MSTORE PUSH1 0x22 PUSH1 0x4 MSTORE PUSH1 0x24 PUSH1 0x0 REVERT JUMPDEST POP SWAP2 SWAP1 POP JUMP JUMPDEST PUSH1 0x1F DUP3 GT ISZERO PUSH3 0xA73 JUMPI PUSH1 0x0 DUP2 DUP2 MSTORE PUSH1 0x20 DUP2 KECCAK256 PUSH1 0x1F DUP6 ADD PUSH1 0x5 SHR DUP2 ADD PUSH1 0x20 DUP7 LT ISZERO PUSH3 0xA4E JUMPI POP DUP1 JUMPDEST PUSH1 0x1F DUP6 ADD PUSH1 0x5 SHR DUP3 ADD SWAP2 POP JUMPDEST DUP2 DUP2 LT ISZERO PUSH3 0xA6F JUMPI DUP3 DUP2 SSTORE PUSH1 0x1 ADD PUSH3 0xA5A JUMP JUMPDEST POP POP POP JUMPDEST POP POP POP JUMP JUMPDEST DUP2 MLOAD PUSH1 0x1 PUSH1 0x1 PUSH1 0x40 SHL SUB DUP2 GT ISZERO PUSH3 0xA94 JUMPI PUSH3 0xA94 PUSH3 0x9D3 JUMP JUMPDEST PUSH3 0xAAC DUP2 PUSH3 0xAA5 DUP5 SLOAD PUSH3 0x9E9 JUMP JUMPDEST DUP5 PUSH3 0xA25 JUMP JUMPDEST PUSH1 0x20 DUP1 PUSH1 0x1F DUP4 GT PUSH1 0x1 DUP2 EQ PUSH3 0xAE4 JUMPI PUSH1 0x0 DUP5 ISZERO PUSH3 0xACB JUMPI POP DUP6 DUP4 ADD MLOAD JUMPDEST PUSH1 0x0 NOT PUSH1 0x3 DUP7 SWAP1 SHL SHR NOT AND PUSH1 0x1 DUP6 SWAP1 SHL OR DUP6 SSTORE PUSH3 0xA6F JUMP JUMPDEST PUSH1 0x0 DUP6 DUP2 MSTORE PUSH1 0x20 DUP2 KECCAK256 PUSH1 0x1F NOT DUP7 AND SWAP2 JUMPDEST DUP3 DUP2 LT ISZERO PUSH3 0xB15 JUMPI DUP9 DUP7 ADD MLOAD DUP3 SSTORE SWAP5 DUP5 ADD SWAP5 PUSH1 0x1 SWAP1 SWAP2 ADD SWAP1 DUP5 ADD PUSH3 0xAF4 JUMP JUMPDEST POP DUP6 DUP3 LT ISZERO PUSH3 0xB34 JUMPI DUP8 DUP6 ADD MLOAD PUSH1 0x0 NOT PUSH1 0x3 DUP9 SWAP1 SHL PUSH1 0xF8 AND SHR NOT AND DUP2 SSTORE JUMPDEST POP POP POP POP POP PUSH1 0x1 SWAP1 DUP2 SHL ADD SWAP1 SSTORE POP JUMP JUMPDEST PUSH4 0x4E487B71 PUSH1 0xE0 SHL PUSH1 0x0 MSTORE PUSH1 0x21 PUSH1 0x4 MSTORE PUSH1 0x24 PUSH1 0x0 REVERT JUMPDEST PUSH2 0x352B DUP1 PUSH3 0xB6A PUSH1 0x0 CODECOPY PUSH1 0x0 RETURN INVALID PUSH1 0x80 PUSH1 0x40 MSTORE CALLVALUE DUP1 ISZERO PUSH2 0x10 JUMPI PUSH1 0x0 DUP1 REVERT JUMPDEST POP PUSH1 0x4 CALLDATASIZE LT PUSH2 0x2BB JUMPI PUSH1 0x0 CALLDATALOAD PUSH1 0xE0 SHR DUP1 PUSH4 0x744E94AA GT PUSH2 0x182 JUMPI DUP1 PUSH4 0xB7379531 GT PUSH2 0xE9 JUMPI DUP1 PUSH4 0xD1E5EF57 GT PUSH2 0xA2 JUMPI DUP1 PUSH4 0xD87E9020 GT PUSH2 0x7C JUMPI DUP1 PUSH4 0xD87E9020 EQ PUSH2 0x82E JUMPI DUP1 PUSH4 0xE6CB9013 EQ PUSH2 0x841 JUMPI DUP1 PUSH4 0xE985E9C5 EQ PUSH2 0x854 JUMPI DUP1 PUSH4 0xFD9513BD EQ PUSH2 0x890 JUMPI PUSH1 0x0 DUP1 REVERT JUMPDEST DUP1 PUSH4 0xD1E5EF57 EQ PUSH2 0x7F5 JUMPI DUP1 PUSH4 0xD20A53C8 EQ PUSH2 0x808 JUMPI DUP1 PUSH4 0xD5A93D68 EQ PUSH2 0x81B JUMPI PUSH1 0x0 DUP1 REVERT JUMPDEST DUP1 PUSH4 0xB7379531 EQ PUSH2 0x783 JUMPI DUP1 PUSH4 0xB88D4FDE EQ PUSH2 0x796 JUMPI DUP1 PUSH4 0xC77DAEF6 EQ PUSH2 0x7A9 JUMPI DUP1 PUSH4 0xC87B56DD EQ PUSH2 0x7BC JUMPI DUP1 PUSH4 0xCB083041 EQ PUSH2 0x7CF JUMPI DUP1 PUSH4 0xD05C78DA EQ PUSH2 0x7E2 JUMPI PUSH1 0x0 DUP1 REVERT JUMPDEST DUP1 PUSH4 0x95D89B41 GT PUSH2 0x13B JUMPI DUP1 PUSH4 0x95D89B41 EQ PUSH2 0x71C JUMPI DUP1 PUSH4 0xA22CB465 EQ PUSH2 0x724 JUMPI DUP1 PUSH4 0xA293D1E8 EQ PUSH2 0x737 JUMPI DUP1 PUSH4 0xA6438DB2 EQ PUSH2 0x74A JUMPI DUP1 PUSH4 0xA7518EB1 EQ PUSH2 0x75D JUMPI DUP1 PUSH4 0xB1CA2106 EQ PUSH2 0x770 JUMPI PUSH1 0x0 DUP1 REVERT JUMPDEST DUP1 PUSH4 0x744E94AA EQ PUSH2 0x6AA JUMPI DUP1 PUSH4 0x745BD453 EQ PUSH2 0x6BD JUMPI DUP1 PUSH4 0x7CD7F3BB EQ PUSH2 0x6D0 JUMPI DUP1 PUSH4 0x86481D40 EQ PUSH2 0x6E3 JUMPI DUP1 PUSH4 0x8DA5CB5B EQ PUSH2 0x6F6 JUMPI DUP1 PUSH4 0x8DC14247 EQ PUSH2 0x709 JUMPI PUSH1 0x0 DUP1 REVERT JUMPDEST DUP1 PUSH4 0x3FC70F2C GT PUSH2 0x226 JUMPI DUP1 PUSH4 0x6352211E GT PUSH2 0x1DF JUMPI DUP1 PUSH4 0x6352211E EQ PUSH2 0x638 JUMPI DUP1 PUSH4 0x6599273F EQ PUSH2 0x64B JUMPI DUP1 PUSH4 0x688F30AC EQ PUSH2 0x65E JUMPI DUP1 PUSH4 0x6AE15F76 EQ PUSH2 0x671 JUMPI DUP1 PUSH4 0x6D9CBB4E EQ PUSH2 0x684 JUMPI DUP1 PUSH4 0x70A08231 EQ PUSH2 0x697 JUMPI PUSH1 0x0 DUP1 REVERT JUMPDEST DUP1 PUSH4 0x3FC70F2C EQ PUSH2 0x533 JUMPI DUP1 PUSH4 0x42842E0E EQ PUSH2 0x554 JUMPI DUP1 PUSH4 0x43C6916B EQ PUSH2 0x567 JUMPI DUP1 PUSH4 0x51585B49 EQ PUSH2 0x57A JUMPI DUP1 PUSH4 0x55AF86C4 EQ PUSH2 0x58D JUMPI DUP1 PUSH4 0x5C821D7F EQ PUSH2 0x625 JUMPI PUSH1 0x0 DUP1 REVERT JUMPDEST DUP1 PUSH4 0x17A40576 GT PUSH2 0x278 JUMPI DUP1 PUSH4 0x17A40576 EQ PUSH2 0x363 JUMPI DUP1 PUSH4 0x1F4F5A23 EQ PUSH2 0x376 JUMPI DUP1 PUSH4 0x23B872DD EQ PUSH2 0x4D7 JUMPI DUP1 PUSH4 0x243A7C7B EQ PUSH2 0x4EA JUMPI DUP1 PUSH4 0x360DEB76 EQ PUSH2 0x4FD JUMPI DUP1 PUSH4 0x3A0995E9 EQ PUSH2 0x510 JUMPI PUSH1 0x0 DUP1 REVERT JUMPDEST DUP1 PUSH4 0x1FFC9A7 EQ PUSH2 0x2C0 JUMPI DUP1 PUSH4 0x6FDDE03 EQ PUSH2 0x2E8 JUMPI DUP1 PUSH4 0x81812FC EQ PUSH2 0x2FD JUMPI DUP1 PUSH4 0x95EA7B3 EQ PUSH2 0x328 JUMPI DUP1 PUSH4 0xB1F15CD EQ PUSH2 0x33D JUMPI DUP1 PUSH4 0x13AF4035 EQ PUSH2 0x350 JUMPI JUMPDEST PUSH1 0x0 DUP1 REVERT JUMPDEST PUSH2 0x2D3 PUSH2 0x2CE CALLDATASIZE PUSH1 0x4 PUSH2 0x2F06 JUMP JUMPDEST PUSH2 0x8A3 JUMP JUMPDEST PUSH1 0x40 MLOAD SWAP1 ISZERO ISZERO DUP2 MSTORE PUSH1 0x20 ADD JUMPDEST PUSH1 0x40 MLOAD DUP1 SWAP2 SUB SWAP1 RETURN JUMPDEST PUSH2 0x2F0 PUSH2 0x8F5 JUMP JUMPDEST PUSH1 0x40 MLOAD PUSH2 0x2DF SWAP2 SWAP1 PUSH2 0x2F73 JUMP JUMPDEST PUSH2 0x310 PUSH2 0x30B CALLDATASIZE PUSH1 0x4 PUSH2 0x2F86 JUMP JUMPDEST PUSH2 0x987 JUMP JUMPDEST PUSH1 0x40 MLOAD PUSH1 0x1 PUSH1 0x1 PUSH1 0xA0 SHL SUB SWAP1 SWAP2 AND DUP2 MSTORE PUSH1 0x20 ADD PUSH2 0x2DF JUMP JUMPDEST PUSH2 0x33B PUSH2 0x336 CALLDATASIZE PUSH1 0x4 PUSH2 0x2FB6 JUMP JUMPDEST PUSH2 0x9AE JUMP JUMPDEST STOP JUMPDEST PUSH2 0x33B PUSH2 0x34B CALLDATASIZE PUSH1 0x4 PUSH2 0x2F86 JUMP JUMPDEST PUSH2 0xAC8 JUMP JUMPDEST PUSH2 0x33B PUSH2 0x35E CALLDATASIZE PUSH1 0x4 PUSH2 0x2FE0 JUMP JUMPDEST PUSH2 0xB2E JUMP JUMPDEST PUSH2 0x33B PUSH2 0x371 CALLDATASIZE PUSH1 0x4 PUSH2 0x2F86 JUMP JUMPDEST PUSH2 0xBB4 JUMP JUMPDEST PUSH2 0x389 PUSH2 0x384 CALLDATASIZE PUSH1 0x4 PUSH2 0x2F86 JUMP JUMPDEST PUSH2 0xC13 JUMP JUMPDEST PUSH1 0x40 MLOAD PUSH2 0x2DF SWAP2 SWAP1 DUP2 MLOAD DUP2 MSTORE PUSH1 0x20 DUP1 DUP4 ADD MLOAD SWAP1 DUP3 ADD MSTORE PUSH1 0x40 DUP1 DUP4 ADD MLOAD SWAP1 DUP3 ADD MSTORE PUSH1 0x60 DUP1 DUP4 ADD MLOAD SWAP1 DUP3 ADD MSTORE PUSH1 0x80 DUP1 DUP4 ADD MLOAD SWAP1 DUP3 ADD MSTORE PUSH1 0xA0 DUP1 DUP4 ADD MLOAD SWAP1 DUP3 ADD MSTORE PUSH1 0xC0 DUP1 DUP4 ADD MLOAD SWAP1 DUP3 ADD MSTORE PUSH1 0xE0 DUP1 DUP4 ADD MLOAD SWAP1 DUP3 ADD MSTORE PUSH2 0x100 DUP1 DUP4 ADD MLOAD SWAP1 DUP3 ADD MSTORE PUSH2 0x120 DUP1 DUP4 ADD MLOAD SWAP1 DUP3 ADD MSTORE PUSH2 0x140 DUP1 DUP4 ADD MLOAD SWAP1 DUP3 ADD MSTORE PUSH2 0x160 DUP1 DUP4 ADD MLOAD SWAP1 DUP3 ADD MSTORE PUSH2 0x180 DUP1 DUP4 ADD MLOAD SWAP1 DUP3 ADD MSTORE PUSH2 0x1A0 DUP1 DUP4 ADD MLOAD SWAP1 DUP3 ADD MSTORE PUSH2 0x1C0 DUP1 DUP4 ADD MLOAD SWAP1 DUP3 ADD MSTORE PUSH2 0x1E0 DUP1 DUP4 ADD MLOAD SWAP1 DUP3 ADD MSTORE PUSH2 0x200 DUP1 DUP4 ADD MLOAD SWAP1 DUP3 ADD MSTORE PUSH2 0x220 DUP1 DUP4 ADD MLOAD SWAP1 DUP3 ADD MSTORE PUSH2 0x240 DUP1 DUP4 ADD MLOAD SWAP1 DUP3 ADD MSTORE PUSH2 0x260 DUP1 DUP4 ADD MLOAD SWAP1 DUP3 ADD MSTORE PUSH2 0x280 DUP1 DUP4 ADD MLOAD SWAP1 DUP3 ADD MSTORE PUSH2 0x2A0 DUP1 DUP4 ADD MLOAD SWAP1 DUP3 ADD MSTORE PUSH2 0x2C0 DUP1 DUP4 ADD MLOAD SWAP1 DUP3 ADD MSTORE PUSH2 0x2E0 DUP1 DUP4 ADD MLOAD SWAP1 DUP3 ADD MSTORE PUSH2 0x300 DUP1 DUP4 ADD MLOAD SWAP1 DUP3 ADD MSTORE PUSH2 0x320 DUP1 DUP4 ADD MLOAD SWAP1 DUP3 ADD MSTORE PUSH2 0x340 DUP1 DUP4 ADD MLOAD SWAP1 DUP3 ADD MSTORE PUSH2 0x360 DUP1 DUP4 ADD MLOAD SWAP1 DUP3 ADD MSTORE PUSH2 0x380 DUP1 DUP4 ADD MLOAD SWAP1 DUP3 ADD MSTORE PUSH2 0x3A0 SWAP2 DUP3 ADD MLOAD SWAP2 DUP2 ADD SWAP2 SWAP1 SWAP2 MSTORE PUSH2 0x3C0 ADD SWAP1 JUMP JUMPDEST PUSH2 0x33B PUSH2 0x4E5 CALLDATASIZE PUSH1 0x4 PUSH2 0x2FFB JUMP JUMPDEST PUSH2 0xE79 JUMP JUMPDEST PUSH2 0x33B PUSH2 0x4F8 CALLDATASIZE PUSH1 0x4 PUSH2 0x3037 JUMP JUMPDEST PUSH2 0xEAA JUMP JUMPDEST PUSH2 0x33B PUSH2 0x50B CALLDATASIZE PUSH1 0x4 PUSH2 0x3059 JUMP JUMPDEST PUSH2 0xF40 JUMP JUMPDEST PUSH2 0x2D3 PUSH2 0x51E CALLDATASIZE PUSH1 0x4 PUSH2 0x2FE0 JUMP JUMPDEST PUSH1 0xA PUSH1 0x20 MSTORE PUSH1 0x0 SWAP1 DUP2 MSTORE PUSH1 0x40 SWAP1 KECCAK256 SLOAD PUSH1 0xFF AND DUP2 JUMP JUMPDEST PUSH2 0x546 PUSH2 0x541 CALLDATASIZE PUSH1 0x4 PUSH2 0x2F86 JUMP JUMPDEST PUSH2 0xFCE JUMP JUMPDEST PUSH1 0x40 MLOAD SWAP1 DUP2 MSTORE PUSH1 0x20 ADD PUSH2 0x2DF JUMP JUMPDEST PUSH2 0x33B PUSH2 0x562 CALLDATASIZE PUSH1 0x4 PUSH2 0x2FFB JUMP JUMPDEST PUSH2 0x1037 JUMP JUMPDEST PUSH2 0x546 PUSH2 0x575 CALLDATASIZE PUSH1 0x4 PUSH2 0x2F86 JUMP JUMPDEST PUSH2 0x1052 JUMP JUMPDEST PUSH2 0x546 PUSH2 0x588 CALLDATASIZE PUSH1 0x4 PUSH2 0x2F86 JUMP JUMPDEST PUSH2 0x10D4 JUMP JUMPDEST PUSH2 0x5A0 PUSH2 0x59B CALLDATASIZE PUSH1 0x4 PUSH2 0x2F86 JUMP JUMPDEST PUSH2 0x111A JUMP JUMPDEST PUSH1 0x40 MLOAD PUSH2 0x2DF SWAP2 SWAP1 PUSH1 0x0 PUSH2 0x160 DUP3 ADD SWAP1 POP DUP3 MLOAD DUP3 MSTORE PUSH1 0x20 DUP4 ADD MLOAD PUSH1 0x20 DUP4 ADD MSTORE PUSH1 0x40 DUP4 ADD MLOAD PUSH1 0x40 DUP4 ADD MSTORE PUSH1 0x60 DUP4 ADD MLOAD PUSH1 0x60 DUP4 ADD MSTORE PUSH1 0x80 DUP4 ADD MLOAD PUSH1 0x80 DUP4 ADD MSTORE PUSH1 0xA0 DUP4 ADD MLOAD PUSH1 0xA0 DUP4 ADD MSTORE PUSH1 0xC0 DUP4 ADD MLOAD PUSH1 0xC0 DUP4 ADD MSTORE PUSH1 0xE0 DUP4 ADD MLOAD PUSH1 0xE0 DUP4 ADD MSTORE PUSH2 0x100 DUP1 DUP5 ADD MLOAD DUP2 DUP5 ADD MSTORE POP PUSH2 0x120 DUP1 DUP5 ADD MLOAD DUP2 DUP5 ADD MSTORE POP PUSH2 0x140 DUP1 DUP5 ADD MLOAD DUP2 DUP5 ADD MSTORE POP SWAP3 SWAP2 POP POP JUMP JUMPDEST PUSH2 0x546 PUSH2 0x633 CALLDATASIZE PUSH1 0x4 PUSH2 0x3095 JUMP JUMPDEST PUSH2 0x1240 JUMP JUMPDEST PUSH2 0x310 PUSH2 0x646 CALLDATASIZE PUSH1 0x4 PUSH2 0x2F86 JUMP JUMPDEST PUSH2 0x13EE JUMP JUMPDEST PUSH2 0x33B PUSH2 0x659 CALLDATASIZE PUSH1 0x4 PUSH2 0x2F86 JUMP JUMPDEST PUSH2 0x144E JUMP JUMPDEST PUSH2 0x33B PUSH2 0x66C CALLDATASIZE PUSH1 0x4 PUSH2 0x2F86 JUMP JUMPDEST PUSH2 0x14AD JUMP JUMPDEST PUSH2 0x33B PUSH2 0x67F CALLDATASIZE PUSH1 0x4 PUSH2 0x2F86 JUMP JUMPDEST PUSH2 0x150C JUMP JUMPDEST PUSH2 0x546 PUSH2 0x692 CALLDATASIZE PUSH1 0x4 PUSH2 0x2F86 JUMP JUMPDEST PUSH2 0x156B JUMP JUMPDEST PUSH2 0x546 PUSH2 0x6A5 CALLDATASIZE PUSH1 0x4 PUSH2 0x2FE0 JUMP JUMPDEST PUSH2 0x15D8 JUMP JUMPDEST PUSH2 0x546 PUSH2 0x6B8 CALLDATASIZE PUSH1 0x4 PUSH2 0x2F86 JUMP JUMPDEST PUSH2 0x165E JUMP JUMPDEST PUSH2 0x33B PUSH2 0x6CB CALLDATASIZE PUSH1 0x4 PUSH2 0x2F86 JUMP JUMPDEST PUSH2 0x16C7 JUMP JUMPDEST PUSH2 0x546 PUSH2 0x6DE CALLDATASIZE PUSH1 0x4 PUSH2 0x2F86 JUMP JUMPDEST PUSH2 0x1726 JUMP JUMPDEST PUSH2 0x546 PUSH2 0x6F1 CALLDATASIZE PUSH1 0x4 PUSH2 0x2F86 JUMP JUMPDEST PUSH2 0x1795 JUMP JUMPDEST PUSH1 0x9 SLOAD PUSH2 0x310 SWAP1 PUSH1 0x1 PUSH1 0x1 PUSH1 0xA0 SHL SUB AND DUP2 JUMP JUMPDEST PUSH2 0x33B PUSH2 0x717 CALLDATASIZE PUSH1 0x4 PUSH2 0x3037 JUMP JUMPDEST PUSH2 0x180E JUMP JUMPDEST PUSH2 0x2F0 PUSH2 0x18C4 JUMP JUMPDEST PUSH2 0x33B PUSH2 0x732 CALLDATASIZE PUSH1 0x4 PUSH2 0x3059 JUMP JUMPDEST PUSH2 0x18D3 JUMP JUMPDEST PUSH2 0x546 PUSH2 0x745 CALLDATASIZE PUSH1 0x4 PUSH2 0x3037 JUMP JUMPDEST PUSH2 0x18E2 JUMP JUMPDEST PUSH2 0x546 PUSH2 0x758 CALLDATASIZE PUSH1 0x4 PUSH2 0x30C7 JUMP JUMPDEST PUSH2 0x192F JUMP JUMPDEST PUSH2 0x33B PUSH2 0x76B CALLDATASIZE PUSH1 0x4 PUSH2 0x3037 JUMP JUMPDEST PUSH2 0x1B7F JUMP JUMPDEST PUSH2 0x546 PUSH2 0x77E CALLDATASIZE PUSH1 0x4 PUSH2 0x2F86 JUMP JUMPDEST PUSH2 0x1C35 JUMP JUMPDEST PUSH2 0x33B PUSH2 0x791 CALLDATASIZE PUSH1 0x4 PUSH2 0x30E8 JUMP JUMPDEST PUSH2 0x1C72 JUMP JUMPDEST PUSH2 0x33B PUSH2 0x7A4 CALLDATASIZE PUSH1 0x4 PUSH2 0x312A JUMP JUMPDEST PUSH2 0x1EB1 JUMP JUMPDEST PUSH2 0x546 PUSH2 0x7B7 CALLDATASIZE PUSH1 0x4 PUSH2 0x2F86 JUMP JUMPDEST PUSH2 0x1EE9 JUMP JUMPDEST PUSH2 0x2F0 PUSH2 0x7CA CALLDATASIZE PUSH1 0x4 PUSH2 0x2F86 JUMP JUMPDEST PUSH2 0x1F58 JUMP JUMPDEST PUSH2 0x33B PUSH2 0x7DD CALLDATASIZE PUSH1 0x4 PUSH2 0x2F86 JUMP JUMPDEST PUSH2 0x1FCB JUMP JUMPDEST PUSH2 0x546 PUSH2 0x7F0 CALLDATASIZE PUSH1 0x4 PUSH2 0x3037 JUMP JUMPDEST PUSH2 0x202A JUMP JUMPDEST PUSH2 0x33B PUSH2 0x803 CALLDATASIZE PUSH1 0x4 PUSH2 0x3206 JUMP JUMPDEST PUSH2 0x208B JUMP JUMPDEST PUSH2 0x546 PUSH2 0x816 CALLDATASIZE PUSH1 0x4 PUSH2 0x2F86 JUMP JUMPDEST PUSH2 0x2342 JUMP JUMPDEST PUSH2 0x33B PUSH2 0x829 CALLDATASIZE PUSH1 0x4 PUSH2 0x3059 JUMP JUMPDEST PUSH2 0x2376 JUMP JUMPDEST PUSH2 0x546 PUSH2 0x83C CALLDATASIZE PUSH1 0x4 PUSH2 0x2F86 JUMP JUMPDEST PUSH2 0x23FC JUMP JUMPDEST PUSH2 0x546 PUSH2 0x84F CALLDATASIZE PUSH1 0x4 PUSH2 0x3037 JUMP JUMPDEST PUSH2 0x2458 JUMP JUMPDEST PUSH2 0x2D3 PUSH2 0x862 CALLDATASIZE PUSH1 0x4 PUSH2 0x3241 JUMP JUMPDEST PUSH1 0x1 PUSH1 0x1 PUSH1 0xA0 SHL SUB SWAP2 DUP3 AND PUSH1 0x0 SWAP1 DUP2 MSTORE PUSH1 0x5 PUSH1 0x20 SWAP1 DUP2 MSTORE PUSH1 0x40 DUP1 DUP4 KECCAK256 SWAP4 SWAP1 SWAP5 AND DUP3 MSTORE SWAP2 SWAP1 SWAP2 MSTORE KECCAK256 SLOAD PUSH1 0xFF AND SWAP1 JUMP JUMPDEST PUSH2 0x546 PUSH2 0x89E CALLDATASIZE PUSH1 0x4 PUSH2 0x2F86 JUMP JUMPDEST PUSH2 0x24B4 JUMP JUMPDEST PUSH1 0x0 PUSH1 0x1 PUSH1 0x1 PUSH1 0xE0 SHL SUB NOT DUP3 AND PUSH4 0x80AC58CD PUSH1 0xE0 SHL EQ DUP1 PUSH2 0x8D4 JUMPI POP PUSH1 0x1 PUSH1 0x1 PUSH1 0xE0 SHL SUB NOT DUP3 AND PUSH4 0x5B5E139F PUSH1 0xE0 SHL EQ JUMPDEST DUP1 PUSH2 0x8EF JUMPI POP PUSH4 0x1FFC9A7 PUSH1 0xE0 SHL PUSH1 0x1 PUSH1 0x1 PUSH1 0xE0 SHL SUB NOT DUP4 AND EQ JUMPDEST SWAP3 SWAP2 POP POP JUMP JUMPDEST PUSH1 0x60 PUSH1 0x0 DUP1 SLOAD PUSH2 0x904 SWAP1 PUSH2 0x3274 JUMP JUMPDEST DUP1 PUSH1 0x1F ADD PUSH1 0x20 DUP1 SWAP2 DIV MUL PUSH1 0x20 ADD PUSH1 0x40 MLOAD SWAP1 DUP2 ADD PUSH1 0x40 MSTORE DUP1 SWAP3 SWAP2 SWAP1 DUP2 DUP2 MSTORE PUSH1 0x20 ADD DUP3 DUP1 SLOAD PUSH2 0x930 SWAP1 PUSH2 0x3274 JUMP JUMPDEST DUP1 ISZERO PUSH2 0x97D JUMPI DUP1 PUSH1 0x1F LT PUSH2 0x952 JUMPI PUSH2 0x100 DUP1 DUP4 SLOAD DIV MUL DUP4 MSTORE SWAP2 PUSH1 0x20 ADD SWAP2 PUSH2 0x97D JUMP JUMPDEST DUP3 ADD SWAP2 SWAP1 PUSH1 0x0 MSTORE PUSH1 0x20 PUSH1 0x0 KECCAK256 SWAP1 JUMPDEST DUP2 SLOAD DUP2 MSTORE SWAP1 PUSH1 0x1 ADD SWAP1 PUSH1 0x20 ADD DUP1 DUP4 GT PUSH2 0x960 JUMPI DUP3 SWAP1 SUB PUSH1 0x1F AND DUP3 ADD SWAP2 JUMPDEST POP POP POP POP POP SWAP1 POP SWAP1 JUMP JUMPDEST PUSH1 0x0 PUSH2 0x992 DUP3 PUSH2 0x2514 JUMP JUMPDEST POP PUSH1 0x0 SWAP1 DUP2 MSTORE PUSH1 0x4 PUSH1 0x20 MSTORE PUSH1 0x40 SWAP1 KECCAK256 SLOAD PUSH1 0x1 PUSH1 0x1 PUSH1 0xA0 SHL SUB AND SWAP1 JUMP JUMPDEST PUSH1 0x0 PUSH2 0x9B9 DUP3 PUSH2 0x13EE JUMP JUMPDEST SWAP1 POP DUP1 PUSH1 0x1 PUSH1 0x1 PUSH1 0xA0 SHL SUB AND DUP4 PUSH1 0x1 PUSH1 0x1 PUSH1 0xA0 SHL SUB AND SUB PUSH2 0xA2B JUMPI PUSH1 0x40 MLOAD PUSH3 0x461BCD PUSH1 0xE5 SHL DUP2 MSTORE PUSH1 0x20 PUSH1 0x4 DUP3 ADD MSTORE PUSH1 0x21 PUSH1 0x24 DUP3 ADD MSTORE PUSH32 0x4552433732313A20617070726F76616C20746F2063757272656E74206F776E65 PUSH1 0x44 DUP3 ADD MSTORE PUSH1 0x39 PUSH1 0xF9 SHL PUSH1 0x64 DUP3 ADD MSTORE PUSH1 0x84 ADD JUMPDEST PUSH1 0x40 MLOAD DUP1 SWAP2 SUB SWAP1 REVERT JUMPDEST CALLER PUSH1 0x1 PUSH1 0x1 PUSH1 0xA0 SHL SUB DUP3 AND EQ DUP1 PUSH2 0xA47 JUMPI POP PUSH2 0xA47 DUP2 CALLER PUSH2 0x862 JUMP JUMPDEST PUSH2 0xAB9 JUMPI PUSH1 0x40 MLOAD PUSH3 0x461BCD PUSH1 0xE5 SHL DUP2 MSTORE PUSH1 0x20 PUSH1 0x4 DUP3 ADD MSTORE PUSH1 0x3D PUSH1 0x24 DUP3 ADD MSTORE PUSH32 0x4552433732313A20617070726F76652063616C6C6572206973206E6F7420746F PUSH1 0x44 DUP3 ADD MSTORE PUSH32 0x6B656E206F776E6572206F7220617070726F76656420666F7220616C6C000000 PUSH1 0x64 DUP3 ADD MSTORE PUSH1 0x84 ADD PUSH2 0xA22 JUMP JUMPDEST PUSH2 0xAC3 DUP4 DUP4 PUSH2 0x2567 JUMP JUMPDEST POP POP POP JUMP JUMPDEST PUSH1 0x9 SLOAD PUSH1 0x1 PUSH1 0x1 PUSH1 0xA0 SHL SUB AND CALLER EQ PUSH2 0xAF2 JUMPI PUSH1 0x40 MLOAD PUSH3 0x461BCD PUSH1 0xE5 SHL DUP2 MSTORE PUSH1 0x4 ADD PUSH2 0xA22 SWAP1 PUSH2 0x32A8 JUMP JUMPDEST PUSH1 0xF DUP2 SWAP1 SSTORE PUSH1 0x40 MLOAD DUP2 DUP2 MSTORE PUSH32 0x2709C3545E934F71BAD88A10628CFCB26544ABEF6D319E025DAFCFAA8ECD371B SWAP1 PUSH1 0x20 ADD JUMPDEST PUSH1 0x40 MLOAD DUP1 SWAP2 SUB SWAP1 LOG1 POP JUMP JUMPDEST PUSH1 0x9 SLOAD PUSH1 0x1 PUSH1 0x1 PUSH1 0xA0 SHL SUB AND CALLER EQ PUSH2 0xB58 JUMPI PUSH1 0x40 MLOAD PUSH3 0x461BCD PUSH1 0xE5 SHL DUP2 MSTORE PUSH1 0x4 ADD PUSH2 0xA22 SWAP1 PUSH2 0x32A8 JUMP JUMPDEST PUSH1 0x9 SLOAD PUSH1 0x40 MLOAD PUSH1 0x1 PUSH1 0x1 PUSH1 0xA0 SHL SUB DUP1 DUP5 AND SWAP3 AND SWAP1 PUSH32 0xCBF985117192C8F614A58AAF97226BB80A754772F5F6EDF06F87C675F2E6C663 SWAP1 PUSH1 0x0 SWAP1 LOG3 PUSH1 0x9 DUP1 SLOAD PUSH1 0x1 PUSH1 0x1 PUSH1 0xA0 SHL SUB NOT AND PUSH1 0x1 PUSH1 0x1 PUSH1 0xA0 SHL SUB SWAP3 SWAP1 SWAP3 AND SWAP2 SWAP1 SWAP2 OR SWAP1 SSTORE JUMP JUMPDEST PUSH1 0x9 SLOAD PUSH1 0x1 PUSH1 0x1 PUSH1 0xA0 SHL SUB AND CALLER EQ PUSH2 0xBDE JUMPI PUSH1 0x40 MLOAD PUSH3 0x461BCD PUSH1 0xE5 SHL DUP2 MSTORE PUSH1 0x4 ADD PUSH2 0xA22 SWAP1 PUSH2 0x32A8 JUMP JUMPDEST PUSH1 0x10 DUP2 SWAP1 SSTORE PUSH1 0x40 MLOAD DUP2 DUP2 MSTORE PUSH32 0x8BC6F507740334E03EB54C47352DA054221B790B05465E2E8ABF2C6E2BD9FD10 SWAP1 PUSH1 0x20 ADD PUSH2 0xB23 JUMP JUMPDEST PUSH2 0xCF5 PUSH1 0x40 MLOAD DUP1 PUSH2 0x3C0 ADD PUSH1 0x40 MSTORE DUP1 PUSH1 0x0 DUP2 MSTORE PUSH1 0x20 ADD PUSH1 0x0 DUP2 MSTORE PUSH1 0x20 ADD PUSH1 0x0 DUP2 MSTORE PUSH1 0x20 ADD PUSH1 0x0 DUP2 MSTORE PUSH1 0x20 ADD PUSH1 0x0 DUP2 MSTORE PUSH1 0x20 ADD PUSH1 0x0 DUP2 MSTORE PUSH1 0x20 ADD PUSH1 0x0 DUP2 MSTORE PUSH1 0x20 ADD PUSH1 0x0 DUP2 MSTORE PUSH1 0x20 ADD PUSH1 0x0 DUP2 MSTORE PUSH1 0x20 ADD PUSH1 0x0 DUP2 MSTORE PUSH1 0x20 ADD PUSH1 0x0 DUP2 MSTORE PUSH1 0x20 ADD PUSH1 0x0 DUP2 MSTORE PUSH1 0x20 ADD PUSH1 0x0 DUP2 MSTORE PUSH1 0x20 ADD PUSH1 0x0 DUP2 MSTORE PUSH1 0x20 ADD PUSH1 0x0 DUP2 MSTORE PUSH1 0x20 ADD PUSH1 0x0 DUP2 MSTORE PUSH1 0x20 ADD PUSH1 0x0 DUP2 MSTORE PUSH1 0x20 ADD PUSH1 0x0 DUP2 MSTORE PUSH1 0x20 ADD PUSH1 0x0 DUP2 MSTORE PUSH1 0x20 ADD PUSH1 0x0 DUP2 MSTORE PUSH1 0x20 ADD PUSH1 0x0 DUP2 MSTORE PUSH1 0x20 ADD PUSH1 0x0 DUP2 MSTORE PUSH1 0x20 ADD PUSH1 0x0 DUP2 MSTORE PUSH1 0x20 ADD PUSH1 0x0 DUP2 MSTORE PUSH1 0x20 ADD PUSH1 0x0 DUP2 MSTORE PUSH1 0x20 ADD PUSH1 0x0 DUP2 MSTORE PUSH1 0x20 ADD PUSH1 0x0 DUP2 MSTORE PUSH1 0x20 ADD PUSH1 0x0 DUP2 MSTORE PUSH1 0x20 ADD PUSH1 0x0 DUP2 MSTORE PUSH1 0x20 ADD PUSH1 0x0 DUP2 MSTORE POP SWAP1 JUMP JUMPDEST PUSH2 0xCFE DUP3 PUSH2 0x25D5 JUMP JUMPDEST PUSH2 0xD1A JUMPI PUSH1 0x40 MLOAD PUSH3 0x461BCD PUSH1 0xE5 SHL DUP2 MSTORE PUSH1 0x4 ADD PUSH2 0xA22 SWAP1 PUSH2 0x32CF JUMP JUMPDEST POP PUSH1 0x0 SWAP1 DUP2 MSTORE PUSH1 0x7 PUSH1 0x20 DUP2 DUP2 MSTORE PUSH1 0x40 SWAP3 DUP4 SWAP1 KECCAK256 DUP4 MLOAD PUSH2 0x3C0 DUP2 ADD DUP6 MSTORE DUP2 SLOAD DUP2 MSTORE PUSH1 0x1 DUP3 ADD SLOAD SWAP3 DUP2 ADD SWAP3 SWAP1 SWAP3 MSTORE PUSH1 0x2 DUP2 ADD SLOAD SWAP4 DUP3 ADD SWAP4 SWAP1 SWAP4 MSTORE PUSH1 0x3 DUP4 ADD SLOAD PUSH1 0x60 DUP3 ADD MSTORE PUSH1 0x4 DUP4 ADD SLOAD PUSH1 0x80 DUP3 ADD MSTORE PUSH1 0x5 DUP4 ADD SLOAD PUSH1 0xA0 DUP3 ADD MSTORE PUSH1 0x6 DUP4 ADD SLOAD PUSH1 0xC0 DUP3 ADD MSTORE SWAP1 DUP3 ADD SLOAD PUSH1 0xE0 DUP3 ADD MSTORE PUSH1 0x8 DUP3 ADD SLOAD PUSH2 0x100 DUP3 ADD MSTORE PUSH1 0x9 DUP3 ADD SLOAD PUSH2 0x120 DUP3 ADD MSTORE PUSH1 0xA DUP3 ADD SLOAD PUSH2 0x140 DUP3 ADD MSTORE PUSH1 0xB DUP3 ADD SLOAD PUSH2 0x160 DUP3 ADD MSTORE PUSH1 0xC DUP3 ADD SLOAD PUSH2 0x180 DUP3 ADD MSTORE PUSH1 0xD DUP3 ADD SLOAD PUSH2 0x1A0 DUP3 ADD MSTORE PUSH1 0xE DUP3 ADD SLOAD PUSH2 0x1C0 DUP3 ADD MSTORE PUSH1 0xF DUP3 ADD SLOAD PUSH2 0x1E0 DUP3 ADD MSTORE PUSH1 0x10 DUP3 ADD SLOAD PUSH2 0x200 DUP3 ADD MSTORE PUSH1 0x11 DUP3 ADD SLOAD PUSH2 0x220 DUP3 ADD MSTORE PUSH1 0x12 DUP3 ADD SLOAD PUSH2 0x240 DUP3 ADD MSTORE PUSH1 0x13 DUP3 ADD SLOAD PUSH2 0x260 DUP3 ADD MSTORE PUSH1 0x14 DUP3 ADD SLOAD PUSH2 0x280 DUP3 ADD MSTORE PUSH1 0x15 DUP3 ADD SLOAD PUSH2 0x2A0 DUP3 ADD MSTORE PUSH1 0x16 DUP3 ADD SLOAD PUSH2 0x2C0 DUP3 ADD MSTORE PUSH1 0x17 DUP3 ADD SLOAD PUSH2 0x2E0 DUP3 ADD MSTORE PUSH1 0x18 DUP3 ADD SLOAD PUSH2 0x300 DUP3 ADD MSTORE PUSH1 0x19 DUP3 ADD SLOAD PUSH2 0x320 DUP3 ADD MSTORE PUSH1 0x1A DUP3 ADD SLOAD PUSH2 0x340 DUP3 ADD MSTORE PUSH1 0x1B DUP3 ADD SLOAD PUSH2 0x360 DUP3 ADD MSTORE PUSH1 0x1C DUP3 ADD SLOAD PUSH2 0x380 DUP3 ADD MSTORE PUSH1 0x1D SWAP1 SWAP2 ADD SLOAD PUSH2 0x3A0 DUP3 ADD MSTORE SWAP1 JUMP JUMPDEST PUSH2 0xE83 CALLER DUP3 PUSH2 0x25F2 JUMP JUMPDEST PUSH2 0xE9F JUMPI PUSH1 0x40 MLOAD PUSH3 0x461BCD PUSH1 0xE5 SHL DUP2 MSTORE PUSH1 0x4 ADD PUSH2 0xA22 SWAP1 PUSH2 0x32FD JUMP JUMPDEST PUSH2 0xAC3 DUP4 DUP4 DUP4 PUSH2 0x2670 JUMP JUMPDEST CALLER PUSH1 0x0 SWAP1 DUP2 MSTORE PUSH1 0xB PUSH1 0x20 MSTORE PUSH1 0x40 SWAP1 KECCAK256 SLOAD PUSH1 0xFF AND PUSH2 0xED9 JUMPI PUSH1 0x40 MLOAD PUSH3 0x461BCD PUSH1 0xE5 SHL DUP2 MSTORE PUSH1 0x4 ADD PUSH2 0xA22 SWAP1 PUSH2 0x32A8 JUMP JUMPDEST PUSH2 0xEE2 DUP3 PUSH2 0x25D5 JUMP JUMPDEST PUSH2 0xEFE JUMPI PUSH1 0x40 MLOAD PUSH3 0x461BCD PUSH1 0xE5 SHL DUP2 MSTORE PUSH1 0x4 ADD PUSH2 0xA22 SWAP1 PUSH2 0x32CF JUMP JUMPDEST PUSH1 0x11 SLOAD PUSH1 0x0 DUP4 DUP2 MSTORE PUSH1 0x7 PUSH1 0x20 MSTORE PUSH1 0x40 SWAP1 KECCAK256 PUSH1 0x5 ADD SLOAD PUSH2 0xF27 SWAP2 SWAP1 PUSH2 0xF22 SWAP1 DUP5 PUSH2 0x2458 JUMP JUMPDEST PUSH2 0x27D4 JUMP JUMPDEST PUSH1 0x0 SWAP3 DUP4 MSTORE PUSH1 0x7 PUSH1 0x20 MSTORE PUSH1 0x40 SWAP1 SWAP3 KECCAK256 PUSH1 0x5 ADD SWAP2 SWAP1 SWAP2 SSTORE POP JUMP JUMPDEST PUSH1 0x9 SLOAD PUSH1 0x1 PUSH1 0x1 PUSH1 0xA0 SHL SUB AND CALLER EQ PUSH2 0xF6A JUMPI PUSH1 0x40 MLOAD PUSH3 0x461BCD PUSH1 0xE5 SHL DUP2 MSTORE PUSH1 0x4 ADD PUSH2 0xA22 SWAP1 PUSH2 0x32A8 JUMP JUMPDEST PUSH1 0x1 PUSH1 0x1 PUSH1 0xA0 SHL SUB DUP3 AND PUSH1 0x0 DUP2 DUP2 MSTORE PUSH1 0xA PUSH1 0x20 SWAP1 DUP2 MSTORE PUSH1 0x40 SWAP2 DUP3 SWAP1 KECCAK256 DUP1 SLOAD PUSH1 0xFF NOT AND DUP6 ISZERO ISZERO SWAP1 DUP2 OR SWAP1 SWAP2 SSTORE DUP3 MLOAD SWAP4 DUP5 MSTORE SWAP1 DUP4 ADD MSTORE PUSH32 0x29FF5E8999B00A7437C384659FB2312B275B85C589F4D149F8B460EA477DCB7E SWAP2 ADD JUMPDEST PUSH1 0x40 MLOAD DUP1 SWAP2 SUB SWAP1 LOG1 POP POP JUMP JUMPDEST PUSH1 0x0 PUSH2 0xFD9 DUP3 PUSH2 0x25D5 JUMP JUMPDEST PUSH2 0xFF5 JUMPI PUSH1 0x40 MLOAD PUSH3 0x461BCD PUSH1 0xE5 SHL DUP2 MSTORE PUSH1 0x4 ADD PUSH2 0xA22 SWAP1 PUSH2 0x32CF JUMP JUMPDEST PUSH2 0x8EF PUSH2 0x1001 DUP4 PUSH2 0x1EE9 JUMP JUMPDEST PUSH1 0x0 DUP5 DUP2 MSTORE PUSH1 0x7 PUSH1 0x20 DUP2 SWAP1 MSTORE PUSH1 0x40 SWAP1 SWAP2 KECCAK256 PUSH1 0x6 DUP2 ADD SLOAD SWAP2 ADD SLOAD PUSH2 0xF22 SWAP2 SWAP1 PUSH2 0x84F SWAP1 PUSH2 0x102E SWAP1 NUMBER SWAP1 PUSH2 0x18E2 JUMP JUMPDEST PUSH2 0x7F0 DUP9 PUSH2 0x24B4 JUMP JUMPDEST PUSH2 0xAC3 DUP4 DUP4 DUP4 PUSH1 0x40 MLOAD DUP1 PUSH1 0x20 ADD PUSH1 0x40 MSTORE DUP1 PUSH1 0x0 DUP2 MSTORE POP PUSH2 0x1EB1 JUMP JUMPDEST PUSH1 0x0 DUP2 DUP2 MSTORE PUSH1 0x7 PUSH1 0x20 SWAP1 DUP2 MSTORE PUSH1 0x40 DUP1 DUP4 KECCAK256 PUSH1 0x8 ADD SLOAD DUP4 MSTORE PUSH1 0x6 SWAP1 SWAP2 MSTORE DUP2 KECCAK256 PUSH1 0x1 DUP2 ADD SLOAD PUSH1 0x2 DUP3 ADD SLOAD PUSH1 0x3 DUP4 ADD SLOAD PUSH1 0x4 SWAP1 SWAP4 ADD SLOAD DUP5 SWAP4 PUSH2 0x1099 SWAP4 SWAP3 PUSH2 0x84F SWAP3 SWAP1 SWAP2 DUP4 SWAP2 PUSH2 0x2458 JUMP JUMPDEST SWAP1 POP PUSH1 0x0 PUSH2 0x10C0 PUSH2 0x10A9 DUP6 PUSH2 0x1795 JUMP JUMPDEST PUSH1 0x0 DUP7 DUP2 MSTORE PUSH1 0x7 PUSH1 0x20 MSTORE PUSH1 0x40 SWAP1 KECCAK256 PUSH1 0x11 ADD SLOAD PUSH2 0x202A JUMP JUMPDEST SWAP1 POP PUSH2 0x10CC DUP3 DUP3 PUSH2 0x2458 JUMP JUMPDEST SWAP5 SWAP4 POP POP POP POP JUMP JUMPDEST PUSH1 0x0 PUSH2 0x10DF DUP3 PUSH2 0x25D5 JUMP JUMPDEST PUSH2 0x10FB JUMPI PUSH1 0x40 MLOAD PUSH3 0x461BCD PUSH1 0xE5 SHL DUP2 MSTORE PUSH1 0x4 ADD PUSH2 0xA22 SWAP1 PUSH2 0x32CF JUMP JUMPDEST PUSH1 0xE SLOAD PUSH1 0x0 DUP4 DUP2 MSTORE PUSH1 0x7 PUSH1 0x20 MSTORE PUSH1 0x40 SWAP1 KECCAK256 PUSH1 0x2 ADD SLOAD PUSH2 0x8EF SWAP2 SWAP1 PUSH2 0x3360 JUMP JUMPDEST PUSH2 0x1177 PUSH1 0x40 MLOAD DUP1 PUSH2 0x160 ADD PUSH1 0x40 MSTORE DUP1 PUSH1 0x0 DUP2 MSTORE PUSH1 0x20 ADD PUSH1 0x0 DUP2 MSTORE PUSH1 0x20 ADD PUSH1 0x0 DUP2 MSTORE PUSH1 0x20 ADD PUSH1 0x0 DUP2 MSTORE PUSH1 0x20 ADD PUSH1 0x0 DUP2 MSTORE PUSH1 0x20 ADD PUSH1 0x0 DUP2 MSTORE PUSH1 0x20 ADD PUSH1 0x0 DUP2 MSTORE PUSH1 0x20 ADD PUSH1 0x0 DUP2 MSTORE PUSH1 0x20 ADD PUSH1 0x0 DUP2 MSTORE PUSH1 0x20 ADD PUSH1 0x0 DUP2 MSTORE PUSH1 0x20 ADD PUSH1 0x0 DUP2 MSTORE POP SWAP1 JUMP JUMPDEST PUSH2 0x1180 DUP3 PUSH2 0x25D5 JUMP JUMPDEST PUSH2 0x119C JUMPI PUSH1 0x40 MLOAD PUSH3 0x461BCD PUSH1 0xE5 SHL DUP2 MSTORE PUSH1 0x4 ADD PUSH2 0xA22 SWAP1 PUSH2 0x32CF JUMP JUMPDEST PUSH1 0x0 PUSH1 0x40 MLOAD DUP1 PUSH2 0x160 ADD PUSH1 0x40 MSTORE DUP1 DUP5 DUP2 MSTORE PUSH1 0x20 ADD PUSH2 0x11B9 DUP6 PUSH2 0xFCE JUMP JUMPDEST DUP2 MSTORE PUSH1 0x20 ADD PUSH2 0x11C7 DUP6 PUSH2 0x1EE9 JUMP JUMPDEST DUP2 MSTORE PUSH1 0x20 ADD PUSH2 0x11D5 DUP6 PUSH2 0x165E JUMP JUMPDEST DUP2 MSTORE PUSH1 0x20 ADD PUSH2 0x11E3 DUP6 PUSH2 0x156B JUMP JUMPDEST DUP2 MSTORE PUSH1 0x20 ADD PUSH2 0x11F1 DUP6 PUSH2 0x1795 JUMP JUMPDEST DUP2 MSTORE PUSH1 0x20 ADD PUSH2 0x11FF DUP6 PUSH2 0x1C35 JUMP JUMPDEST DUP2 MSTORE PUSH1 0x20 ADD PUSH2 0x120D DUP6 PUSH2 0x1726 JUMP JUMPDEST DUP2 MSTORE PUSH1 0x20 ADD PUSH2 0x121B DUP6 PUSH2 0x10D4 JUMP JUMPDEST DUP2 MSTORE PUSH1 0x20 ADD PUSH2 0x1229 DUP6 PUSH2 0x2342 JUMP JUMPDEST DUP2 MSTORE PUSH1 0x20 ADD PUSH2 0x1237 DUP6 PUSH2 0x1052 JUMP JUMPDEST SWAP1 MSTORE SWAP4 SWAP3 POP POP POP JUMP JUMPDEST CALLER PUSH1 0x0 SWAP1 DUP2 MSTORE PUSH1 0xA PUSH1 0x20 MSTORE PUSH1 0x40 DUP2 KECCAK256 SLOAD PUSH1 0xFF AND DUP1 PUSH2 0x1268 JUMPI POP PUSH1 0x9 SLOAD PUSH1 0x1 PUSH1 0x1 PUSH1 0xA0 SHL SUB AND CALLER EQ JUMPDEST PUSH2 0x1284 JUMPI PUSH1 0x40 MLOAD PUSH3 0x461BCD PUSH1 0xE5 SHL DUP2 MSTORE PUSH1 0x4 ADD PUSH2 0xA22 SWAP1 PUSH2 0x32A8 JUMP JUMPDEST PUSH1 0x0 PUSH1 0x40 MLOAD DUP1 PUSH2 0x3C0 ADD PUSH1 0x40 MSTORE DUP1 PUSH1 0x0 DUP2 MSTORE PUSH1 0x20 ADD DUP8 DUP2 MSTORE PUSH1 0x20 ADD DUP7 DUP2 MSTORE PUSH1 0x20 ADD DUP6 DUP2 MSTORE PUSH1 0x20 ADD DUP5 DUP2 MSTORE PUSH1 0x20 ADD PUSH1 0x0 DUP2 MSTORE PUSH1 0x20 ADD PUSH1 0x0 DUP2 MSTORE PUSH1 0x20 ADD PUSH1 0x0 DUP2 MSTORE PUSH1 0x20 ADD PUSH1 0x0 DUP2 MSTORE PUSH1 0x20 ADD PUSH1 0x0 DUP2 MSTORE PUSH1 0x20 ADD PUSH1 0x0 DUP2 MSTORE PUSH1 0x20 ADD PUSH1 0x0 DUP2 MSTORE PUSH1 0x20 ADD PUSH1 0x0 DUP2 MSTORE PUSH1 0x20 ADD PUSH1 0x1 DUP2 MSTORE PUSH1 0x20 ADD PUSH1 0x1 DUP2 MSTORE PUSH1 0x20 ADD PUSH1 0x0 DUP2 MSTORE PUSH1 0x20 ADD PUSH1 0x0 DUP2 MSTORE PUSH1 0x20 ADD PUSH1 0x0 DUP2 MSTORE PUSH1 0x20 ADD PUSH1 0x1 DUP2 MSTORE PUSH1 0x20 ADD PUSH1 0x0 DUP2 MSTORE PUSH1 0x20 ADD PUSH1 0x0 DUP2 MSTORE PUSH1 0x20 ADD PUSH1 0x0 DUP2 MSTORE PUSH1 0x20 ADD PUSH1 0x0 DUP2 MSTORE PUSH1 0x20 ADD PUSH1 0x0 DUP2 MSTORE PUSH1 0x20 ADD PUSH1 0x0 DUP2 MSTORE PUSH1 0x20 ADD PUSH1 0x0 DUP2 MSTORE PUSH1 0x20 ADD PUSH1 0x0 DUP2 MSTORE PUSH1 0x20 ADD PUSH1 0x0 DUP2 MSTORE PUSH1 0x20 ADD PUSH1 0x0 DUP2 MSTORE PUSH1 0x20 ADD PUSH1 0x0 DUP2 MSTORE POP SWAP1 POP PUSH2 0x136E PUSH1 0x8 DUP1 SLOAD PUSH1 0x1 ADD SWAP1 SSTORE JUMP JUMPDEST PUSH1 0x0 PUSH2 0x1379 PUSH1 0x8 SLOAD SWAP1 JUMP JUMPDEST SWAP1 POP PUSH2 0x1386 PUSH1 0x0 DUP3 PUSH2 0x27EA JUMP JUMPDEST PUSH2 0x1390 DUP2 DUP4 PUSH2 0x2804 JUMP JUMPDEST PUSH1 0x0 DUP2 DUP2 MSTORE PUSH1 0x7 PUSH1 0x20 MSTORE PUSH1 0x40 DUP1 DUP3 KECCAK256 DUP4 SWAP1 SSTORE MLOAD CALLER SWAP2 PUSH32 0xE6AD03AE09E6216384922D74B5734A0EBC9AA6DE15BCD7D61ED9999BA2CB1DF5 SWAP2 PUSH2 0x13DC SWAP2 DUP6 DUP3 MSTORE PUSH1 0xFF AND PUSH1 0x20 DUP3 ADD MSTORE PUSH1 0x40 ADD SWAP1 JUMP JUMPDEST PUSH1 0x40 MLOAD DUP1 SWAP2 SUB SWAP1 LOG2 SWAP7 SWAP6 POP POP POP POP POP POP JUMP JUMPDEST PUSH1 0x0 DUP2 DUP2 MSTORE PUSH1 0x2 PUSH1 0x20 MSTORE PUSH1 0x40 DUP2 KECCAK256 SLOAD PUSH1 0x1 PUSH1 0x1 PUSH1 0xA0 SHL SUB AND DUP1 PUSH2 0x8EF JUMPI PUSH1 0x40 MLOAD PUSH3 0x461BCD PUSH1 0xE5 SHL DUP2 MSTORE PUSH1 0x20 PUSH1 0x4 DUP3 ADD MSTORE PUSH1 0x18 PUSH1 0x24 DUP3 ADD MSTORE PUSH24 0x115490CDCC8C4E881A5B9D985B1A59081D1BDAD95B881251 PUSH1 0x42 SHL PUSH1 0x44 DUP3 ADD MSTORE PUSH1 0x64 ADD PUSH2 0xA22 JUMP JUMPDEST PUSH1 0x9 SLOAD PUSH1 0x1 PUSH1 0x1 PUSH1 0xA0 SHL SUB AND CALLER EQ PUSH2 0x1478 JUMPI PUSH1 0x40 MLOAD PUSH3 0x461BCD PUSH1 0xE5 SHL DUP2 MSTORE PUSH1 0x4 ADD PUSH2 0xA22 SWAP1 PUSH2 0x32A8 JUMP JUMPDEST PUSH1 0xE DUP2 SWAP1 SSTORE PUSH1 0x40 MLOAD DUP2 DUP2 MSTORE PUSH32 0x8E5252D2D2F885F4BAE3553BBE34C3630F9274028F3C343CE0EAC0DD710C6A03 SWAP1 PUSH1 0x20 ADD PUSH2 0xB23 JUMP JUMPDEST PUSH1 0x9 SLOAD PUSH1 0x1 PUSH1 0x1 PUSH1 0xA0 SHL SUB AND CALLER EQ PUSH2 0x14D7 JUMPI PUSH1 0x40 MLOAD PUSH3 0x461BCD PUSH1 0xE5 SHL DUP2 MSTORE PUSH1 0x4 ADD PUSH2 0xA22 SWAP1 PUSH2 0x32A8 JUMP JUMPDEST PUSH1 0x11 DUP2 SWAP1 SSTORE PUSH1 0x40 MLOAD DUP2 DUP2 MSTORE PUSH32 0x8B92A2A371EC2AF95AA1740562D5031B28F403D2780BEAECDCE6BEFD43667FB8 SWAP1 PUSH1 0x20 ADD PUSH2 0xB23 JUMP JUMPDEST PUSH1 0x9 SLOAD PUSH1 0x1 PUSH1 0x1 PUSH1 0xA0 SHL SUB AND CALLER EQ PUSH2 0x1536 JUMPI PUSH1 0x40 MLOAD PUSH3 0x461BCD PUSH1 0xE5 SHL DUP2 MSTORE PUSH1 0x4 ADD PUSH2 0xA22 SWAP1 PUSH2 0x32A8 JUMP JUMPDEST PUSH1 0xD DUP2 SWAP1 SSTORE PUSH1 0x40 MLOAD DUP2 DUP2 MSTORE PUSH32 0x665124C1D0C6D84BA8A4D99CB0C2A03455171CE7503623C6CCEB9DA5BBD7A91 SWAP1 PUSH1 0x20 ADD PUSH2 0xB23 JUMP JUMPDEST PUSH1 0x0 PUSH2 0x1576 DUP3 PUSH2 0x25D5 JUMP JUMPDEST PUSH2 0x1592 JUMPI PUSH1 0x40 MLOAD PUSH3 0x461BCD PUSH1 0xE5 SHL DUP2 MSTORE PUSH1 0x4 ADD PUSH2 0xA22 SWAP1 PUSH2 0x32CF JUMP JUMPDEST PUSH1 0x0 DUP3 DUP2 MSTORE PUSH1 0x7 PUSH1 0x20 MSTORE PUSH1 0x40 DUP2 KECCAK256 PUSH1 0x10 DUP2 ADD SLOAD PUSH1 0xE DUP3 ADD SLOAD PUSH1 0x3 SWAP1 SWAP3 ADD SLOAD SWAP1 SWAP3 SWAP1 PUSH2 0x15CF SWAP1 PUSH2 0x15C2 SWAP1 DUP5 SWAP1 PUSH2 0x202A JUMP JUMPDEST PUSH2 0x84F DUP6 PUSH2 0x7F0 DUP10 PUSH2 0x1795 JUMP JUMPDEST SWAP6 SWAP5 POP POP POP POP POP JUMP JUMPDEST PUSH1 0x0 PUSH1 0x1 PUSH1 0x1 PUSH1 0xA0 SHL SUB DUP3 AND PUSH2 0x1642 JUMPI PUSH1 0x40 MLOAD PUSH3 0x461BCD PUSH1 0xE5 SHL DUP2 MSTORE PUSH1 0x20 PUSH1 0x4 DUP3 ADD MSTORE PUSH1 0x29 PUSH1 0x24 DUP3 ADD MSTORE PUSH32 0x4552433732313A2061646472657373207A65726F206973206E6F742061207661 PUSH1 0x44 DUP3 ADD MSTORE PUSH9 0x3634B21037BBB732B9 PUSH1 0xB9 SHL PUSH1 0x64 DUP3 ADD MSTORE PUSH1 0x84 ADD PUSH2 0xA22 JUMP JUMPDEST POP PUSH1 0x1 PUSH1 0x1 PUSH1 0xA0 SHL SUB AND PUSH1 0x0 SWAP1 DUP2 MSTORE PUSH1 0x3 PUSH1 0x20 MSTORE PUSH1 0x40 SWAP1 KECCAK256 SLOAD SWAP1 JUMP JUMPDEST PUSH1 0x0 PUSH2 0x1669 DUP3 PUSH2 0x25D5 JUMP JUMPDEST PUSH2 0x1685 JUMPI PUSH1 0x40 MLOAD PUSH3 0x461BCD PUSH1 0xE5 SHL DUP2 MSTORE PUSH1 0x4 ADD PUSH2 0xA22 SWAP1 PUSH2 0x32CF JUMP JUMPDEST PUSH2 0x8EF PUSH2 0x1691 DUP4 PUSH2 0x156B JUMP JUMPDEST PUSH1 0x0 DUP5 DUP2 MSTORE PUSH1 0x7 PUSH1 0x20 MSTORE PUSH1 0x40 SWAP1 KECCAK256 PUSH1 0xA DUP2 ADD SLOAD PUSH1 0xB SWAP1 SWAP2 ADD SLOAD PUSH2 0xF22 SWAP2 SWAP1 PUSH2 0x84F SWAP1 PUSH2 0x16BE SWAP1 NUMBER SWAP1 PUSH2 0x18E2 JUMP JUMPDEST PUSH2 0x7F0 DUP9 PUSH2 0x23FC JUMP JUMPDEST PUSH1 0x9 SLOAD PUSH1 0x1 PUSH1 0x1 PUSH1 0xA0 SHL SUB AND CALLER EQ PUSH2 0x16F1 JUMPI PUSH1 0x40 MLOAD PUSH3 0x461BCD PUSH1 0xE5 SHL DUP2 MSTORE PUSH1 0x4 ADD PUSH2 0xA22 SWAP1 PUSH2 0x32A8 JUMP JUMPDEST PUSH1 0x12 DUP2 SWAP1 SSTORE PUSH1 0x40 MLOAD DUP2 DUP2 MSTORE PUSH32 0xDBED17FA1CBD28E0338D43E05619D042B9CA1AC23A9D5383EBE0AB7049FF16E SWAP1 PUSH1 0x20 ADD PUSH2 0xB23 JUMP JUMPDEST PUSH1 0x0 PUSH2 0x1731 DUP3 PUSH2 0x25D5 JUMP JUMPDEST PUSH2 0x174D JUMPI PUSH1 0x40 MLOAD PUSH3 0x461BCD PUSH1 0xE5 SHL DUP2 MSTORE PUSH1 0x4 ADD PUSH2 0xA22 SWAP1 PUSH2 0x32CF JUMP JUMPDEST PUSH1 0x10 SLOAD PUSH1 0x0 DUP4 DUP2 MSTORE PUSH1 0x7 PUSH1 0x20 MSTORE PUSH1 0x40 SWAP1 KECCAK256 PUSH1 0x3 ADD SLOAD PUSH2 0x176C SWAP2 SWAP1 PUSH2 0x3360 JUMP JUMPDEST PUSH1 0xF SLOAD PUSH1 0x0 DUP5 DUP2 MSTORE PUSH1 0x7 PUSH1 0x20 MSTORE PUSH1 0x40 SWAP1 KECCAK256 PUSH1 0x1 ADD SLOAD PUSH2 0x178B SWAP2 SWAP1 PUSH2 0x3360 JUMP JUMPDEST PUSH2 0x8EF SWAP2 SWAP1 PUSH2 0x3382 JUMP JUMPDEST PUSH1 0x0 PUSH2 0x17A0 DUP3 PUSH2 0x25D5 JUMP JUMPDEST PUSH2 0x17BC JUMPI PUSH1 0x40 MLOAD PUSH3 0x461BCD PUSH1 0xE5 SHL DUP2 MSTORE PUSH1 0x4 ADD PUSH2 0xA22 SWAP1 PUSH2 0x32CF JUMP JUMPDEST PUSH1 0x0 DUP3 DUP2 MSTORE PUSH1 0x7 PUSH1 0x20 MSTORE PUSH1 0x40 SWAP1 KECCAK256 PUSH1 0x5 ADD SLOAD PUSH1 0x12 SLOAD PUSH1 0xA SWAP1 PUSH2 0x17FD SWAP1 PUSH2 0x17F6 SWAP1 PUSH2 0x17F1 SWAP1 PUSH2 0x17EA SWAP1 DUP7 PUSH2 0x202A JUMP JUMPDEST PUSH1 0x7D PUSH2 0x2458 JUMP JUMPDEST PUSH2 0x2976 JUMP JUMPDEST PUSH1 0x5 PUSH2 0x18E2 JUMP JUMPDEST PUSH2 0x1807 SWAP2 SWAP1 PUSH2 0x3360 JUMP JUMPDEST SWAP4 SWAP3 POP POP POP JUMP JUMPDEST CALLER PUSH1 0x0 SWAP1 DUP2 MSTORE PUSH1 0xB PUSH1 0x20 MSTORE PUSH1 0x40 SWAP1 KECCAK256 SLOAD PUSH1 0xFF AND PUSH2 0x183D JUMPI PUSH1 0x40 MLOAD PUSH3 0x461BCD PUSH1 0xE5 SHL DUP2 MSTORE PUSH1 0x4 ADD PUSH2 0xA22 SWAP1 PUSH2 0x32A8 JUMP JUMPDEST PUSH2 0x1846 DUP3 PUSH2 0x25D5 JUMP JUMPDEST PUSH2 0x1862 JUMPI PUSH1 0x40 MLOAD PUSH3 0x461BCD PUSH1 0xE5 SHL DUP2 MSTORE PUSH1 0x4 ADD PUSH2 0xA22 SWAP1 PUSH2 0x32CF JUMP JUMPDEST PUSH1 0x0 PUSH2 0x186D DUP4 PUSH2 0x165E JUMP JUMPDEST SWAP1 POP DUP2 DUP2 LT ISZERO PUSH2 0x188E JUMPI PUSH1 0x0 DUP4 DUP2 MSTORE PUSH1 0x7 PUSH1 0x20 MSTORE PUSH1 0x40 DUP2 KECCAK256 PUSH1 0xA ADD SSTORE PUSH2 0x18AB JUMP JUMPDEST PUSH2 0x1898 DUP2 DUP4 PUSH2 0x18E2 JUMP JUMPDEST PUSH1 0x0 DUP5 DUP2 MSTORE PUSH1 0x7 PUSH1 0x20 MSTORE PUSH1 0x40 SWAP1 KECCAK256 PUSH1 0xA ADD SSTORE JUMPDEST POP POP PUSH1 0x0 SWAP1 DUP2 MSTORE PUSH1 0x7 PUSH1 0x20 MSTORE PUSH1 0x40 SWAP1 KECCAK256 NUMBER PUSH1 0xB SWAP1 SWAP2 ADD SSTORE JUMP JUMPDEST PUSH1 0x60 PUSH1 0x1 DUP1 SLOAD PUSH2 0x904 SWAP1 PUSH2 0x3274 JUMP JUMPDEST PUSH2 0x18DE CALLER DUP4 DUP4 PUSH2 0x29E6 JUMP JUMPDEST POP POP JUMP JUMPDEST PUSH1 0x0 DUP3 DUP3 GT ISZERO PUSH2 0x1925 JUMPI PUSH1 0x40 MLOAD PUSH3 0x461BCD PUSH1 0xE5 SHL DUP2 MSTORE PUSH1 0x20 PUSH1 0x4 DUP3 ADD MSTORE PUSH1 0xE PUSH1 0x24 DUP3 ADD MSTORE PUSH14 0x1CD8599954DD588811985A5B1959 PUSH1 0x92 SHL PUSH1 0x44 DUP3 ADD MSTORE PUSH1 0x64 ADD PUSH2 0xA22 JUMP JUMPDEST PUSH2 0x1807 DUP3 DUP5 PUSH2 0x3395 JUMP JUMPDEST PUSH1 0x0 DUP1 DUP3 PUSH1 0x4 DUP2 GT ISZERO PUSH2 0x1944 JUMPI PUSH2 0x1944 PUSH2 0x33A8 JUMP JUMPDEST SUB PUSH2 0x1989 JUMPI PUSH1 0x40 MLOAD PUSH3 0x461BCD PUSH1 0xE5 SHL DUP2 MSTORE PUSH1 0x20 PUSH1 0x4 DUP3 ADD MSTORE PUSH1 0x15 PUSH1 0x24 DUP3 ADD MSTORE PUSH21 0x496E76616C6964206669676874657220636C617373 PUSH1 0x58 SHL PUSH1 0x44 DUP3 ADD MSTORE PUSH1 0x64 ADD PUSH2 0xA22 JUMP JUMPDEST PUSH1 0x0 PUSH1 0x6 PUSH1 0x0 DUP5 PUSH1 0x4 DUP2 GT ISZERO PUSH2 0x19A1 JUMPI PUSH2 0x19A1 PUSH2 0x33A8 JUMP JUMPDEST DUP2 MSTORE PUSH1 0x20 ADD SWAP1 DUP2 MSTORE PUSH1 0x20 ADD PUSH1 0x0 KECCAK256 PUSH1 0x40 MLOAD DUP1 PUSH2 0x3C0 ADD PUSH1 0x40 MSTORE SWAP1 DUP2 PUSH1 0x0 DUP3 ADD SLOAD DUP2 MSTORE PUSH1 0x20 ADD PUSH1 0x1 DUP3 ADD SLOAD DUP2 MSTORE PUSH1 0x20 ADD PUSH1 0x2 DUP3 ADD SLOAD DUP2 MSTORE PUSH1 0x20 ADD PUSH1 0x3 DUP3 ADD SLOAD DUP2 MSTORE PUSH1 0x20 ADD PUSH1 0x4 DUP3 ADD SLOAD DUP2 MSTORE PUSH1 0x20 ADD PUSH1 0x5 DUP3 ADD SLOAD DUP2 MSTORE PUSH1 0x20 ADD PUSH1 0x6 DUP3 ADD SLOAD DUP2 MSTORE PUSH1 0x20 ADD PUSH1 0x7 DUP3 ADD SLOAD DUP2 MSTORE PUSH1 0x20 ADD PUSH1 0x8 DUP3 ADD SLOAD DUP2 MSTORE PUSH1 0x20 ADD PUSH1 0x9 DUP3 ADD SLOAD DUP2 MSTORE PUSH1 0x20 ADD PUSH1 0xA DUP3 ADD SLOAD DUP2 MSTORE PUSH1 0x20 ADD PUSH1 0xB DUP3 ADD SLOAD DUP2 MSTORE PUSH1 0x20 ADD PUSH1 0xC DUP3 ADD SLOAD DUP2 MSTORE PUSH1 0x20 ADD PUSH1 0xD DUP3 ADD SLOAD DUP2 MSTORE PUSH1 0x20 ADD PUSH1 0xE DUP3 ADD SLOAD DUP2 MSTORE PUSH1 0x20 ADD PUSH1 0xF DUP3 ADD SLOAD DUP2 MSTORE PUSH1 0x20 ADD PUSH1 0x10 DUP3 ADD SLOAD DUP2 MSTORE PUSH1 0x20 ADD PUSH1 0x11 DUP3 ADD SLOAD DUP2 MSTORE PUSH1 0x20 ADD PUSH1 0x12 DUP3 ADD SLOAD DUP2 MSTORE PUSH1 0x20 ADD PUSH1 0x13 DUP3 ADD SLOAD DUP2 MSTORE PUSH1 0x20 ADD PUSH1 0x14 DUP3 ADD SLOAD DUP2 MSTORE PUSH1 0x20 ADD PUSH1 0x15 DUP3 ADD SLOAD DUP2 MSTORE PUSH1 0x20 ADD PUSH1 0x16 DUP3 ADD SLOAD DUP2 MSTORE PUSH1 0x20 ADD PUSH1 0x17 DUP3 ADD SLOAD DUP2 MSTORE PUSH1 0x20 ADD PUSH1 0x18 DUP3 ADD SLOAD DUP2 MSTORE PUSH1 0x20 ADD PUSH1 0x19 DUP3 ADD SLOAD DUP2 MSTORE PUSH1 0x20 ADD PUSH1 0x1A DUP3 ADD SLOAD DUP2 MSTORE PUSH1 0x20 ADD PUSH1 0x1B DUP3 ADD SLOAD DUP2 MSTORE PUSH1 0x20 ADD PUSH1 0x1C DUP3 ADD SLOAD DUP2 MSTORE PUSH1 0x20 ADD PUSH1 0x1D DUP3 ADD SLOAD DUP2 MSTORE POP POP SWAP1 POP PUSH2 0x1AF7 PUSH1 0x8 DUP1 SLOAD PUSH1 0x1 ADD SWAP1 SSTORE JUMP JUMPDEST PUSH1 0x0 PUSH2 0x1B02 PUSH1 0x8 SLOAD SWAP1 JUMP JUMPDEST SWAP1 POP PUSH2 0x1B0E CALLER DUP3 PUSH2 0x27EA JUMP JUMPDEST PUSH2 0x1B18 DUP2 DUP4 PUSH2 0x2804 JUMP JUMPDEST PUSH1 0x0 DUP2 DUP2 MSTORE PUSH1 0x7 PUSH1 0x20 MSTORE PUSH1 0x40 SWAP1 KECCAK256 DUP2 SWAP1 SSTORE CALLER PUSH32 0xFA7343AD709AC91D3C10902ECF30B0048166EA21049DE84C532BC3DFDF8C6F0E DUP3 DUP7 PUSH1 0x4 DUP2 GT ISZERO PUSH2 0x1B5E JUMPI PUSH2 0x1B5E PUSH2 0x33A8 JUMP JUMPDEST PUSH1 0x40 DUP1 MLOAD SWAP3 DUP4 MSTORE PUSH1 0xFF SWAP1 SWAP2 AND PUSH1 0x20 DUP4 ADD MSTORE ADD PUSH1 0x40 MLOAD DUP1 SWAP2 SUB SWAP1 LOG2 SWAP4 SWAP3 POP POP POP JUMP JUMPDEST CALLER PUSH1 0x0 SWAP1 DUP2 MSTORE PUSH1 0xB PUSH1 0x20 MSTORE PUSH1 0x40 SWAP1 KECCAK256 SLOAD PUSH1 0xFF AND PUSH2 0x1BAE JUMPI PUSH1 0x40 MLOAD PUSH3 0x461BCD PUSH1 0xE5 SHL DUP2 MSTORE PUSH1 0x4 ADD PUSH2 0xA22 SWAP1 PUSH2 0x32A8 JUMP JUMPDEST PUSH2 0x1BB7 DUP3 PUSH2 0x25D5 JUMP JUMPDEST PUSH2 0x1BD3 JUMPI PUSH1 0x40 MLOAD PUSH3 0x461BCD PUSH1 0xE5 SHL DUP2 MSTORE PUSH1 0x4 ADD PUSH2 0xA22 SWAP1 PUSH2 0x32CF JUMP JUMPDEST PUSH1 0x0 PUSH2 0x1BDE DUP4 PUSH2 0xFCE JUMP JUMPDEST SWAP1 POP DUP2 DUP2 LT ISZERO PUSH2 0x1BFF JUMPI PUSH1 0x0 DUP4 DUP2 MSTORE PUSH1 0x7 PUSH1 0x20 MSTORE PUSH1 0x40 DUP2 KECCAK256 PUSH1 0x6 ADD SSTORE PUSH2 0x1C1C JUMP JUMPDEST PUSH2 0x1C09 DUP2 DUP4 PUSH2 0x18E2 JUMP JUMPDEST PUSH1 0x0 DUP5 DUP2 MSTORE PUSH1 0x7 PUSH1 0x20 MSTORE PUSH1 0x40 SWAP1 KECCAK256 PUSH1 0x6 ADD SSTORE JUMPDEST POP POP PUSH1 0x0 SWAP1 DUP2 MSTORE PUSH1 0x7 PUSH1 0x20 DUP2 SWAP1 MSTORE PUSH1 0x40 SWAP1 SWAP2 KECCAK256 NUMBER SWAP2 ADD SSTORE JUMP JUMPDEST PUSH1 0x0 PUSH2 0x1C40 DUP3 PUSH2 0x25D5 JUMP JUMPDEST PUSH2 0x1C5C JUMPI PUSH1 0x40 MLOAD PUSH3 0x461BCD PUSH1 0xE5 SHL DUP2 MSTORE PUSH1 0x4 ADD PUSH2 0xA22 SWAP1 PUSH2 0x32CF JUMP JUMPDEST POP PUSH1 0x0 SWAP1 DUP2 MSTORE PUSH1 0x7 PUSH1 0x20 MSTORE PUSH1 0x40 SWAP1 KECCAK256 PUSH1 0x5 ADD SLOAD SWAP1 JUMP JUMPDEST PUSH2 0x1C7B DUP4 PUSH2 0x25D5 JUMP JUMPDEST PUSH2 0x1CBD JUMPI PUSH1 0x40 MLOAD PUSH3 0x461BCD PUSH1 0xE5 SHL DUP2 MSTORE PUSH1 0x20 PUSH1 0x4 DUP3 ADD MSTORE PUSH1 0x13 PUSH1 0x24 DUP3 ADD MSTORE PUSH19 0x10DA185C88191BD95CC81B9BDD08195E1A5CDD PUSH1 0x6A SHL PUSH1 0x44 DUP3 ADD MSTORE PUSH1 0x64 ADD PUSH2 0xA22 JUMP JUMPDEST CALLER PUSH2 0x1CC7 DUP5 PUSH2 0x13EE JUMP JUMPDEST PUSH1 0x1 PUSH1 0x1 PUSH1 0xA0 SHL SUB AND EQ PUSH2 0x1CED JUMPI PUSH1 0x40 MLOAD PUSH3 0x461BCD PUSH1 0xE5 SHL DUP2 MSTORE PUSH1 0x4 ADD PUSH2 0xA22 SWAP1 PUSH2 0x32A8 JUMP JUMPDEST PUSH1 0x0 DUP2 GT PUSH2 0x1D2C JUMPI PUSH1 0x40 MLOAD PUSH3 0x461BCD PUSH1 0xE5 SHL DUP2 MSTORE PUSH1 0x20 PUSH1 0x4 DUP3 ADD MSTORE PUSH1 0xC PUSH1 0x24 DUP3 ADD MSTORE PUSH12 0x125B9D985B1A59081CDB1BDD PUSH1 0xA2 SHL PUSH1 0x44 DUP3 ADD MSTORE PUSH1 0x64 ADD PUSH2 0xA22 JUMP JUMPDEST DUP1 PUSH1 0x1 SUB PUSH2 0x1D49 JUMPI PUSH1 0x0 DUP4 DUP2 MSTORE PUSH1 0x7 PUSH1 0x20 MSTORE PUSH1 0x40 SWAP1 KECCAK256 PUSH1 0x13 ADD DUP3 SWAP1 SSTORE JUMPDEST DUP1 PUSH1 0x2 SUB PUSH2 0x1D66 JUMPI PUSH1 0x0 DUP4 DUP2 MSTORE PUSH1 0x7 PUSH1 0x20 MSTORE PUSH1 0x40 SWAP1 KECCAK256 PUSH1 0x14 ADD DUP3 SWAP1 SSTORE JUMPDEST DUP1 PUSH1 0x3 SUB PUSH2 0x1D83 JUMPI PUSH1 0x0 DUP4 DUP2 MSTORE PUSH1 0x7 PUSH1 0x20 MSTORE PUSH1 0x40 SWAP1 KECCAK256 PUSH1 0x15 ADD DUP3 SWAP1 SSTORE JUMPDEST DUP1 PUSH1 0x4 SUB PUSH2 0x1DA0 JUMPI PUSH1 0x0 DUP4 DUP2 MSTORE PUSH1 0x7 PUSH1 0x20 MSTORE PUSH1 0x40 SWAP1 KECCAK256 PUSH1 0x16 ADD DUP3 SWAP1 SSTORE JUMPDEST DUP1 PUSH1 0x5 SUB PUSH2 0x1DBD JUMPI PUSH1 0x0 DUP4 DUP2 MSTORE PUSH1 0x7 PUSH1 0x20 MSTORE PUSH1 0x40 SWAP1 KECCAK256 PUSH1 0x17 ADD DUP3 SWAP1 SSTORE JUMPDEST DUP1 PUSH1 0x6 SUB PUSH2 0x1DDA JUMPI PUSH1 0x0 DUP4 DUP2 MSTORE PUSH1 0x7 PUSH1 0x20 MSTORE PUSH1 0x40 SWAP1 KECCAK256 PUSH1 0x18 ADD DUP3 SWAP1 SSTORE JUMPDEST DUP1 PUSH1 0x7 SUB PUSH2 0x1DF7 JUMPI PUSH1 0x0 DUP4 DUP2 MSTORE PUSH1 0x7 PUSH1 0x20 MSTORE PUSH1 0x40 SWAP1 KECCAK256 PUSH1 0x19 ADD DUP3 SWAP1 SSTORE JUMPDEST DUP1 PUSH1 0x8 SUB PUSH2 0x1E14 JUMPI PUSH1 0x0 DUP4 DUP2 MSTORE PUSH1 0x7 PUSH1 0x20 MSTORE PUSH1 0x40 SWAP1 KECCAK256 PUSH1 0x1A ADD DUP3 SWAP1 SSTORE JUMPDEST DUP1 PUSH1 0x9 SUB PUSH2 0x1E31 JUMPI PUSH1 0x0 DUP4 DUP2 MSTORE PUSH1 0x7 PUSH1 0x20 MSTORE PUSH1 0x40 SWAP1 KECCAK256 PUSH1 0x1B ADD DUP3 SWAP1 SSTORE JUMPDEST DUP1 PUSH1 0xA SUB PUSH2 0x1E4E JUMPI PUSH1 0x0 DUP4 DUP2 MSTORE PUSH1 0x7 PUSH1 0x20 MSTORE PUSH1 0x40 SWAP1 KECCAK256 PUSH1 0x1C ADD DUP3 SWAP1 SSTORE JUMPDEST DUP1 PUSH1 0xB SUB PUSH2 0x1E6B JUMPI PUSH1 0x0 DUP4 DUP2 MSTORE PUSH1 0x7 PUSH1 0x20 MSTORE PUSH1 0x40 SWAP1 KECCAK256 PUSH1 0x1D ADD DUP3 SWAP1 SSTORE JUMPDEST PUSH1 0x40 DUP1 MLOAD DUP5 DUP2 MSTORE PUSH1 0x20 DUP2 ADD DUP5 SWAP1 MSTORE SWAP1 DUP2 ADD DUP3 SWAP1 MSTORE PUSH32 0x4D71CE238D1218A1F21DE645B44D8D791C8C42F634AE4B7A576C6C548DDB639D SWAP1 PUSH1 0x60 ADD PUSH1 0x40 MLOAD DUP1 SWAP2 SUB SWAP1 LOG1 POP POP POP JUMP JUMPDEST PUSH2 0x1EBB CALLER DUP4 PUSH2 0x25F2 JUMP JUMPDEST PUSH2 0x1ED7 JUMPI PUSH1 0x40 MLOAD PUSH3 0x461BCD PUSH1 0xE5 SHL DUP2 MSTORE PUSH1 0x4 ADD PUSH2 0xA22 SWAP1 PUSH2 0x32FD JUMP JUMPDEST PUSH2 0x1EE3 DUP5 DUP5 DUP5 DUP5 PUSH2 0x2AB4 JUMP JUMPDEST POP POP POP POP JUMP JUMPDEST PUSH1 0x0 PUSH2 0x1EF4 DUP3 PUSH2 0x25D5 JUMP JUMPDEST PUSH2 0x1F10 JUMPI PUSH1 0x40 MLOAD PUSH3 0x461BCD PUSH1 0xE5 SHL DUP2 MSTORE PUSH1 0x4 ADD PUSH2 0xA22 SWAP1 PUSH2 0x32CF JUMP JUMPDEST PUSH1 0x0 DUP3 DUP2 MSTORE PUSH1 0x7 PUSH1 0x20 MSTORE PUSH1 0x40 DUP2 KECCAK256 PUSH1 0xF DUP2 ADD SLOAD PUSH1 0xD SWAP1 SWAP2 ADD SLOAD SWAP1 SWAP2 PUSH2 0x15CF PUSH2 0x1F3B DUP5 PUSH2 0x7F0 DUP9 PUSH2 0x1795 JUMP JUMPDEST PUSH1 0x0 DUP8 DUP2 MSTORE PUSH1 0x7 PUSH1 0x20 MSTORE PUSH1 0x40 SWAP1 KECCAK256 PUSH1 0x4 ADD SLOAD PUSH2 0x84F SWAP1 DUP6 SWAP1 PUSH2 0x202A JUMP JUMPDEST PUSH1 0x60 PUSH2 0x1F63 DUP3 PUSH2 0x2514 JUMP JUMPDEST PUSH1 0x0 PUSH2 0x1F7A PUSH1 0x40 DUP1 MLOAD PUSH1 0x20 DUP2 ADD SWAP1 SWAP2 MSTORE PUSH1 0x0 DUP2 MSTORE SWAP1 JUMP JUMPDEST SWAP1 POP PUSH1 0x0 DUP2 MLOAD GT PUSH2 0x1F9A JUMPI PUSH1 0x40 MLOAD DUP1 PUSH1 0x20 ADD PUSH1 0x40 MSTORE DUP1 PUSH1 0x0 DUP2 MSTORE POP PUSH2 0x1807 JUMP JUMPDEST DUP1 PUSH2 0x1FA4 DUP5 PUSH2 0x2AE7 JUMP JUMPDEST PUSH1 0x40 MLOAD PUSH1 0x20 ADD PUSH2 0x1FB5 SWAP3 SWAP2 SWAP1 PUSH2 0x33BE JUMP JUMPDEST PUSH1 0x40 MLOAD PUSH1 0x20 DUP2 DUP4 SUB SUB DUP2 MSTORE SWAP1 PUSH1 0x40 MSTORE SWAP4 SWAP3 POP POP POP JUMP JUMPDEST PUSH1 0x9 SLOAD PUSH1 0x1 PUSH1 0x1 PUSH1 0xA0 SHL SUB AND CALLER EQ PUSH2 0x1FF5 JUMPI PUSH1 0x40 MLOAD PUSH3 0x461BCD PUSH1 0xE5 SHL DUP2 MSTORE PUSH1 0x4 ADD PUSH2 0xA22 SWAP1 PUSH2 0x32A8 JUMP JUMPDEST PUSH1 0xC DUP2 SWAP1 SSTORE PUSH1 0x40 MLOAD DUP2 DUP2 MSTORE PUSH32 0x3DC2199CCEBB6B521944BBB446FD55EC36FC6B23C37808E7304AC55D535D3AC4 SWAP1 PUSH1 0x20 ADD PUSH2 0xB23 JUMP JUMPDEST PUSH1 0x0 DUP1 PUSH2 0x2037 DUP4 DUP6 PUSH2 0x33ED JUMP JUMPDEST SWAP1 POP DUP4 ISZERO DUP1 PUSH2 0x204E JUMPI POP DUP3 PUSH2 0x204C DUP6 DUP4 PUSH2 0x3360 JUMP JUMPDEST EQ JUMPDEST PUSH2 0x1807 JUMPI PUSH1 0x40 MLOAD PUSH3 0x461BCD PUSH1 0xE5 SHL DUP2 MSTORE PUSH1 0x20 PUSH1 0x4 DUP3 ADD MSTORE PUSH1 0xE PUSH1 0x24 DUP3 ADD MSTORE PUSH14 0x1CD85999535D5B0811985A5B1959 PUSH1 0x92 SHL PUSH1 0x44 DUP3 ADD MSTORE PUSH1 0x64 ADD PUSH2 0xA22 JUMP JUMPDEST CALLER PUSH2 0x2095 DUP7 PUSH2 0x13EE JUMP JUMPDEST PUSH1 0x1 PUSH1 0x1 PUSH1 0xA0 SHL SUB AND EQ PUSH2 0x20BB JUMPI PUSH1 0x40 MLOAD PUSH3 0x461BCD PUSH1 0xE5 SHL DUP2 MSTORE PUSH1 0x4 ADD PUSH2 0xA22 SWAP1 PUSH2 0x32A8 JUMP JUMPDEST PUSH1 0x0 DUP6 DUP2 MSTORE PUSH1 0x7 PUSH1 0x20 MSTORE PUSH1 0x40 SWAP1 KECCAK256 PUSH1 0x1 ADD SLOAD DUP5 LT ISZERO PUSH2 0x211C JUMPI PUSH1 0x40 MLOAD PUSH3 0x461BCD PUSH1 0xE5 SHL DUP2 MSTORE PUSH1 0x20 PUSH1 0x4 DUP3 ADD MSTORE PUSH1 0x1B PUSH1 0x24 DUP3 ADD MSTORE PUSH32 0x537472656E6774682063616E2774206265206465637265617365640000000000 PUSH1 0x44 DUP3 ADD MSTORE PUSH1 0x64 ADD PUSH2 0xA22 JUMP JUMPDEST PUSH1 0x0 DUP6 DUP2 MSTORE PUSH1 0x7 PUSH1 0x20 MSTORE PUSH1 0x40 SWAP1 KECCAK256 PUSH1 0x2 ADD SLOAD DUP4 LT ISZERO PUSH2 0x217D JUMPI PUSH1 0x40 MLOAD PUSH3 0x461BCD PUSH1 0xE5 SHL DUP2 MSTORE PUSH1 0x20 PUSH1 0x4 DUP3 ADD MSTORE PUSH1 0x1A PUSH1 0x24 DUP3 ADD MSTORE PUSH32 0x4167696C6974792063616E277420626520646563726561736564000000000000 PUSH1 0x44 DUP3 ADD MSTORE PUSH1 0x64 ADD PUSH2 0xA22 JUMP JUMPDEST PUSH1 0x0 DUP6 DUP2 MSTORE PUSH1 0x7 PUSH1 0x20 MSTORE PUSH1 0x40 SWAP1 KECCAK256 PUSH1 0x3 ADD SLOAD DUP3 LT ISZERO PUSH2 0x21DE JUMPI PUSH1 0x40 MLOAD PUSH3 0x461BCD PUSH1 0xE5 SHL DUP2 MSTORE PUSH1 0x20 PUSH1 0x4 DUP3 ADD MSTORE PUSH1 0x19 PUSH1 0x24 DUP3 ADD MSTORE PUSH32 0x456E657267792063616E27742062652064656372656173656400000000000000 PUSH1 0x44 DUP3 ADD MSTORE PUSH1 0x64 ADD PUSH2 0xA22 JUMP JUMPDEST PUSH1 0x0 DUP6 DUP2 MSTORE PUSH1 0x7 PUSH1 0x20 MSTORE PUSH1 0x40 SWAP1 KECCAK256 PUSH1 0x4 ADD SLOAD DUP2 LT ISZERO PUSH2 0x223F JUMPI PUSH1 0x40 MLOAD PUSH3 0x461BCD PUSH1 0xE5 SHL DUP2 MSTORE PUSH1 0x20 PUSH1 0x4 DUP3 ADD MSTORE PUSH1 0x1B PUSH1 0x24 DUP3 ADD MSTORE PUSH32 0x566974616C6974792063616E2774206265206465637265617365640000000000 PUSH1 0x44 DUP3 ADD MSTORE PUSH1 0x64 ADD PUSH2 0xA22 JUMP JUMPDEST PUSH1 0x0 PUSH2 0x224A DUP7 PUSH2 0x1052 JUMP JUMPDEST SWAP1 POP PUSH1 0x0 PUSH2 0x2257 DUP8 PUSH2 0x2342 JUMP JUMPDEST SWAP1 POP PUSH1 0x0 PUSH2 0x226D DUP8 PUSH2 0x84F DUP9 PUSH2 0x84F DUP10 DUP10 PUSH2 0x2458 JUMP JUMPDEST SWAP1 POP DUP3 DUP2 GT ISZERO PUSH2 0x22BF JUMPI PUSH1 0x40 MLOAD PUSH3 0x461BCD PUSH1 0xE5 SHL DUP2 MSTORE PUSH1 0x20 PUSH1 0x4 DUP3 ADD MSTORE PUSH1 0x1E PUSH1 0x24 DUP3 ADD MSTORE PUSH32 0x547279696E6720746F6F2061646420746F6F206D616E7920706F696E74730000 PUSH1 0x44 DUP3 ADD MSTORE PUSH1 0x64 ADD PUSH2 0xA22 JUMP JUMPDEST PUSH1 0x0 DUP9 DUP2 MSTORE PUSH1 0x7 PUSH1 0x20 SWAP1 DUP2 MSTORE PUSH1 0x40 SWAP2 DUP3 SWAP1 KECCAK256 PUSH1 0x1 DUP2 ADD DUP11 SWAP1 SSTORE PUSH1 0x2 DUP2 ADD DUP10 SWAP1 SSTORE PUSH1 0x3 DUP2 ADD DUP9 SWAP1 SSTORE PUSH1 0x4 ADD DUP7 SWAP1 SSTORE DUP2 MLOAD DUP11 DUP2 MSTORE SWAP1 DUP2 ADD DUP10 SWAP1 MSTORE SWAP1 DUP2 ADD DUP8 SWAP1 MSTORE PUSH1 0x60 DUP2 ADD DUP7 SWAP1 MSTORE PUSH1 0x80 DUP2 ADD DUP6 SWAP1 MSTORE PUSH32 0x9E28895821CEF6DAA08DA1E82406E8BE9675974FD115CCCA84E332E6C15CFF8F SWAP1 PUSH1 0xA0 ADD PUSH1 0x40 MLOAD DUP1 SWAP2 SUB SWAP1 LOG1 POP POP POP POP POP POP POP POP JUMP JUMPDEST PUSH1 0x0 DUP2 DUP2 MSTORE PUSH1 0x7 PUSH1 0x20 MSTORE PUSH1 0x40 DUP2 KECCAK256 PUSH1 0x1 DUP2 ADD SLOAD PUSH1 0x2 DUP3 ADD SLOAD PUSH1 0x3 DUP4 ADD SLOAD PUSH1 0x4 SWAP1 SWAP4 ADD SLOAD PUSH2 0x8EF SWAP4 PUSH2 0x84F SWAP3 SWAP2 DUP4 SWAP2 SWAP1 PUSH2 0x2458 JUMP JUMPDEST PUSH1 0x9 SLOAD PUSH1 0x1 PUSH1 0x1 PUSH1 0xA0 SHL SUB AND CALLER EQ PUSH2 0x23A0 JUMPI PUSH1 0x40 MLOAD PUSH3 0x461BCD PUSH1 0xE5 SHL DUP2 MSTORE PUSH1 0x4 ADD PUSH2 0xA22 SWAP1 PUSH2 0x32A8 JUMP JUMPDEST PUSH1 0x1 PUSH1 0x1 PUSH1 0xA0 SHL SUB DUP3 AND PUSH1 0x0 DUP2 DUP2 MSTORE PUSH1 0xB PUSH1 0x20 SWAP1 DUP2 MSTORE PUSH1 0x40 SWAP2 DUP3 SWAP1 KECCAK256 DUP1 SLOAD PUSH1 0xFF NOT AND DUP6 ISZERO ISZERO SWAP1 DUP2 OR SWAP1 SWAP2 SSTORE DUP3 MLOAD SWAP4 DUP5 MSTORE SWAP1 DUP4 ADD MSTORE PUSH32 0x1C144AC08FCE1689D8F39E7C6B611FF5DE0A11668F47D49788F2D8ADD83669A SWAP2 ADD PUSH2 0xFC2 JUMP JUMPDEST PUSH1 0x0 PUSH2 0x2407 DUP3 PUSH2 0x25D5 JUMP JUMPDEST PUSH2 0x2423 JUMPI PUSH1 0x40 MLOAD PUSH3 0x461BCD PUSH1 0xE5 SHL DUP2 MSTORE PUSH1 0x4 ADD PUSH2 0xA22 SWAP1 PUSH2 0x32CF JUMP JUMPDEST PUSH1 0xD SLOAD PUSH1 0x0 DUP4 DUP2 MSTORE PUSH1 0x7 PUSH1 0x20 MSTORE PUSH1 0x40 SWAP1 KECCAK256 PUSH1 0x4 ADD SLOAD PUSH2 0x8EF SWAP2 PUSH2 0x2445 SWAP2 PUSH2 0x3360 JUMP JUMPDEST PUSH1 0x0 DUP5 DUP2 MSTORE PUSH1 0x7 PUSH1 0x20 MSTORE PUSH1 0x40 SWAP1 KECCAK256 PUSH1 0xC ADD SLOAD JUMPDEST PUSH1 0x0 DUP1 PUSH2 0x2465 DUP4 DUP6 PUSH2 0x3382 JUMP JUMPDEST SWAP1 POP DUP4 DUP2 LT ISZERO DUP1 ISZERO PUSH2 0x2477 JUMPI POP DUP3 DUP2 LT ISZERO JUMPDEST PUSH2 0x1807 JUMPI PUSH1 0x40 MLOAD PUSH3 0x461BCD PUSH1 0xE5 SHL DUP2 MSTORE PUSH1 0x20 PUSH1 0x4 DUP3 ADD MSTORE PUSH1 0xE PUSH1 0x24 DUP3 ADD MSTORE PUSH14 0x1CD859995059190811985A5B1959 PUSH1 0x92 SHL PUSH1 0x44 DUP3 ADD MSTORE PUSH1 0x64 ADD PUSH2 0xA22 JUMP JUMPDEST PUSH1 0x0 PUSH2 0x24BF DUP3 PUSH2 0x25D5 JUMP JUMPDEST PUSH2 0x24DB JUMPI PUSH1 0x40 MLOAD PUSH3 0x461BCD PUSH1 0xE5 SHL DUP2 MSTORE PUSH1 0x4 ADD PUSH2 0xA22 SWAP1 PUSH2 0x32CF JUMP JUMPDEST PUSH1 0xC SLOAD PUSH1 0x0 DUP4 DUP2 MSTORE PUSH1 0x7 PUSH1 0x20 MSTORE PUSH1 0x40 SWAP1 KECCAK256 PUSH1 0x4 ADD SLOAD PUSH2 0x8EF SWAP2 PUSH2 0x24FD SWAP2 PUSH2 0x3360 JUMP JUMPDEST PUSH1 0x0 DUP5 DUP2 MSTORE PUSH1 0x7 PUSH1 0x20 MSTORE PUSH1 0x40 SWAP1 KECCAK256 PUSH1 0x9 ADD SLOAD PUSH2 0x2458 JUMP JUMPDEST PUSH2 0x251D DUP2 PUSH2 0x25D5 JUMP JUMPDEST PUSH2 0x2564 JUMPI PUSH1 0x40 MLOAD PUSH3 0x461BCD PUSH1 0xE5 SHL DUP2 MSTORE PUSH1 0x20 PUSH1 0x4 DUP3 ADD MSTORE PUSH1 0x18 PUSH1 0x24 DUP3 ADD MSTORE PUSH24 0x115490CDCC8C4E881A5B9D985B1A59081D1BDAD95B881251 PUSH1 0x42 SHL PUSH1 0x44 DUP3 ADD MSTORE PUSH1 0x64 ADD PUSH2 0xA22 JUMP JUMPDEST POP JUMP JUMPDEST PUSH1 0x0 DUP2 DUP2 MSTORE PUSH1 0x4 PUSH1 0x20 MSTORE PUSH1 0x40 SWAP1 KECCAK256 DUP1 SLOAD PUSH1 0x1 PUSH1 0x1 PUSH1 0xA0 SHL SUB NOT AND PUSH1 0x1 PUSH1 0x1 PUSH1 0xA0 SHL SUB DUP5 AND SWAP1 DUP2 OR SWAP1 SWAP2 SSTORE DUP2 SWAP1 PUSH2 0x259C DUP3 PUSH2 0x13EE JUMP JUMPDEST PUSH1 0x1 PUSH1 0x1 PUSH1 0xA0 SHL SUB AND PUSH32 0x8C5BE1E5EBEC7D5BD14F71427D1E84F3DD0314C0F7B2291E5B200AC8C7C3B925 PUSH1 0x40 MLOAD PUSH1 0x40 MLOAD DUP1 SWAP2 SUB SWAP1 LOG4 POP POP JUMP JUMPDEST PUSH1 0x0 SWAP1 DUP2 MSTORE PUSH1 0x2 PUSH1 0x20 MSTORE PUSH1 0x40 SWAP1 KECCAK256 SLOAD PUSH1 0x1 PUSH1 0x1 PUSH1 0xA0 SHL SUB AND ISZERO ISZERO SWAP1 JUMP JUMPDEST PUSH1 0x0 DUP1 PUSH2 0x25FE DUP4 PUSH2 0x13EE JUMP JUMPDEST SWAP1 POP DUP1 PUSH1 0x1 PUSH1 0x1 PUSH1 0xA0 SHL SUB AND DUP5 PUSH1 0x1 PUSH1 0x1 PUSH1 0xA0 SHL SUB AND EQ DUP1 PUSH2 0x2645 JUMPI POP PUSH1 0x1 PUSH1 0x1 PUSH1 0xA0 SHL SUB DUP1 DUP3 AND PUSH1 0x0 SWAP1 DUP2 MSTORE PUSH1 0x5 PUSH1 0x20 SWAP1 DUP2 MSTORE PUSH1 0x40 DUP1 DUP4 KECCAK256 SWAP4 DUP9 AND DUP4 MSTORE SWAP3 SWAP1 MSTORE KECCAK256 SLOAD PUSH1 0xFF AND JUMPDEST DUP1 PUSH2 0x10CC JUMPI POP DUP4 PUSH1 0x1 PUSH1 0x1 PUSH1 0xA0 SHL SUB AND PUSH2 0x265E DUP5 PUSH2 0x987 JUMP JUMPDEST PUSH1 0x1 PUSH1 0x1 PUSH1 0xA0 SHL SUB AND EQ SWAP5 SWAP4 POP POP POP POP JUMP JUMPDEST DUP3 PUSH1 0x1 PUSH1 0x1 PUSH1 0xA0 SHL SUB AND PUSH2 0x2683 DUP3 PUSH2 0x13EE JUMP JUMPDEST PUSH1 0x1 PUSH1 0x1 PUSH1 0xA0 SHL SUB AND EQ PUSH2 0x26A9 JUMPI PUSH1 0x40 MLOAD PUSH3 0x461BCD PUSH1 0xE5 SHL DUP2 MSTORE PUSH1 0x4 ADD PUSH2 0xA22 SWAP1 PUSH2 0x3404 JUMP JUMPDEST PUSH1 0x1 PUSH1 0x1 PUSH1 0xA0 SHL SUB DUP3 AND PUSH2 0x270B JUMPI PUSH1 0x40 MLOAD PUSH3 0x461BCD PUSH1 0xE5 SHL DUP2 MSTORE PUSH1 0x20 PUSH1 0x4 DUP3 ADD MSTORE PUSH1 0x24 DUP1 DUP3 ADD MSTORE PUSH32 0x4552433732313A207472616E7366657220746F20746865207A65726F20616464 PUSH1 0x44 DUP3 ADD MSTORE PUSH4 0x72657373 PUSH1 0xE0 SHL PUSH1 0x64 DUP3 ADD MSTORE PUSH1 0x84 ADD PUSH2 0xA22 JUMP JUMPDEST DUP3 PUSH1 0x1 PUSH1 0x1 PUSH1 0xA0 SHL SUB AND PUSH2 0x271E DUP3 PUSH2 0x13EE JUMP JUMPDEST PUSH1 0x1 PUSH1 0x1 PUSH1 0xA0 SHL SUB AND EQ PUSH2 0x2744 JUMPI PUSH1 0x40 MLOAD PUSH3 0x461BCD PUSH1 0xE5 SHL DUP2 MSTORE PUSH1 0x4 ADD PUSH2 0xA22 SWAP1 PUSH2 0x3404 JUMP JUMPDEST PUSH1 0x0 DUP2 DUP2 MSTORE PUSH1 0x4 PUSH1 0x20 SWAP1 DUP2 MSTORE PUSH1 0x40 DUP1 DUP4 KECCAK256 DUP1 SLOAD PUSH1 0x1 PUSH1 0x1 PUSH1 0xA0 SHL SUB NOT SWAP1 DUP2 AND SWAP1 SWAP2 SSTORE PUSH1 0x1 PUSH1 0x1 PUSH1 0xA0 SHL SUB DUP8 DUP2 AND DUP1 DUP7 MSTORE PUSH1 0x3 DUP6 MSTORE DUP4 DUP7 KECCAK256 DUP1 SLOAD PUSH1 0x0 NOT ADD SWAP1 SSTORE SWAP1 DUP8 AND DUP1 DUP7 MSTORE DUP4 DUP7 KECCAK256 DUP1 SLOAD PUSH1 0x1 ADD SWAP1 SSTORE DUP7 DUP7 MSTORE PUSH1 0x2 SWAP1 SWAP5 MSTORE DUP3 DUP6 KECCAK256 DUP1 SLOAD SWAP1 SWAP3 AND DUP5 OR SWAP1 SWAP2 SSTORE SWAP1 MLOAD DUP5 SWAP4 PUSH32 0xDDF252AD1BE2C89B69C2B068FC378DAA952BA7F163C4A11628F55A4DF523B3EF SWAP2 LOG4 POP POP POP JUMP JUMPDEST PUSH1 0x0 DUP2 DUP4 LT PUSH2 0x27E3 JUMPI DUP2 PUSH2 0x1807 JUMP JUMPDEST POP SWAP1 SWAP2 SWAP1 POP JUMP JUMPDEST PUSH2 0x18DE DUP3 DUP3 PUSH1 0x40 MLOAD DUP1 PUSH1 0x20 ADD PUSH1 0x40 MSTORE DUP1 PUSH1 0x0 DUP2 MSTORE POP PUSH2 0x2B7A JUMP JUMPDEST PUSH2 0x280D DUP3 PUSH2 0x25D5 JUMP JUMPDEST PUSH2 0x2829 JUMPI PUSH1 0x40 MLOAD PUSH3 0x461BCD PUSH1 0xE5 SHL DUP2 MSTORE PUSH1 0x4 ADD PUSH2 0xA22 SWAP1 PUSH2 0x32CF JUMP JUMPDEST PUSH1 0x0 SWAP2 DUP3 MSTORE PUSH1 0x7 PUSH1 0x20 DUP2 DUP2 MSTORE PUSH1 0x40 SWAP4 DUP5 SWAP1 KECCAK256 DUP4 MLOAD DUP2 SSTORE SWAP1 DUP4 ADD MLOAD PUSH1 0x1 DUP3 ADD SSTORE SWAP3 DUP3 ADD MLOAD PUSH1 0x2 DUP5 ADD SSTORE PUSH1 0x60 DUP3 ADD MLOAD PUSH1 0x3 DUP5 ADD SSTORE PUSH1 0x80 DUP3 ADD MLOAD PUSH1 0x4 DUP5 ADD SSTORE PUSH1 0xA0 DUP3 ADD MLOAD PUSH1 0x5 DUP5 ADD SSTORE PUSH1 0xC0 DUP3 ADD MLOAD PUSH1 0x6 DUP5 ADD SSTORE PUSH1 0xE0 DUP3 ADD MLOAD SWAP1 DUP4 ADD SSTORE PUSH2 0x100 DUP2 ADD MLOAD PUSH1 0x8 DUP4 ADD SSTORE PUSH2 0x120 DUP2 ADD MLOAD PUSH1 0x9 DUP4 ADD SSTORE PUSH2 0x140 DUP2 ADD MLOAD PUSH1 0xA DUP4 ADD SSTORE PUSH2 0x160 DUP2 ADD MLOAD PUSH1 0xB DUP4 ADD SSTORE PUSH2 0x180 DUP2 ADD MLOAD PUSH1 0xC DUP4 ADD SSTORE PUSH2 0x1A0 DUP2 ADD MLOAD PUSH1 0xD DUP4 ADD SSTORE PUSH2 0x1C0 DUP2 ADD MLOAD PUSH1 0xE DUP4 ADD SSTORE PUSH2 0x1E0 DUP2 ADD MLOAD PUSH1 0xF DUP4 ADD SSTORE PUSH2 0x200 DUP2 ADD MLOAD PUSH1 0x10 DUP4 ADD SSTORE PUSH2 0x220 DUP2 ADD MLOAD PUSH1 0x11 DUP4 ADD SSTORE PUSH2 0x240 DUP2 ADD MLOAD PUSH1 0x12 DUP4 ADD SSTORE PUSH2 0x260 DUP2 ADD MLOAD PUSH1 0x13 DUP4 ADD SSTORE PUSH2 0x280 DUP2 ADD MLOAD PUSH1 0x14 DUP4 ADD SSTORE PUSH2 0x2A0 DUP2 ADD MLOAD PUSH1 0x15 DUP4 ADD SSTORE PUSH2 0x2C0 DUP2 ADD MLOAD PUSH1 0x16 DUP4 ADD SSTORE PUSH2 0x2E0 DUP2 ADD MLOAD PUSH1 0x17 DUP4 ADD SSTORE PUSH2 0x300 DUP2 ADD MLOAD PUSH1 0x18 DUP4 ADD SSTORE PUSH2 0x320 DUP2 ADD MLOAD PUSH1 0x19 DUP4 ADD SSTORE PUSH2 0x340 DUP2 ADD MLOAD PUSH1 0x1A DUP4 ADD SSTORE PUSH2 0x360 DUP2 ADD MLOAD PUSH1 0x1B DUP4 ADD SSTORE PUSH2 0x380 DUP2 ADD MLOAD PUSH1 0x1C DUP4 ADD SSTORE PUSH2 0x3A0 ADD MLOAD PUSH1 0x1D SWAP1 SWAP2 ADD SSTORE JUMP JUMPDEST PUSH1 0x0 PUSH1 0x3 DUP3 GT ISZERO PUSH2 0x29D7 JUMPI POP DUP1 PUSH1 0x0 PUSH2 0x2990 PUSH1 0x2 DUP4 PUSH2 0x3360 JUMP JUMPDEST PUSH2 0x299B SWAP1 PUSH1 0x1 PUSH2 0x3382 JUMP JUMPDEST SWAP1 POP JUMPDEST DUP2 DUP2 LT ISZERO PUSH2 0x29D1 JUMPI SWAP1 POP DUP1 PUSH1 0x2 DUP2 PUSH2 0x29B6 DUP2 DUP7 PUSH2 0x3360 JUMP JUMPDEST PUSH2 0x29C0 SWAP2 SWAP1 PUSH2 0x3382 JUMP JUMPDEST PUSH2 0x29CA SWAP2 SWAP1 PUSH2 0x3360 JUMP JUMPDEST SWAP1 POP PUSH2 0x299E JUMP JUMPDEST POP SWAP2 SWAP1 POP JUMP JUMPDEST DUP2 ISZERO PUSH2 0x29E1 JUMPI POP PUSH1 0x1 JUMPDEST SWAP2 SWAP1 POP JUMP JUMPDEST DUP2 PUSH1 0x1 PUSH1 0x1 PUSH1 0xA0 SHL SUB AND DUP4 PUSH1 0x1 PUSH1 0x1 PUSH1 0xA0 SHL SUB AND SUB PUSH2 0x2A47 JUMPI PUSH1 0x40 MLOAD PUSH3 0x461BCD PUSH1 0xE5 SHL DUP2 MSTORE PUSH1 0x20 PUSH1 0x4 DUP3 ADD MSTORE PUSH1 0x19 PUSH1 0x24 DUP3 ADD MSTORE PUSH32 0x4552433732313A20617070726F766520746F2063616C6C657200000000000000 PUSH1 0x44 DUP3 ADD MSTORE PUSH1 0x64 ADD PUSH2 0xA22 JUMP JUMPDEST PUSH1 0x1 PUSH1 0x1 PUSH1 0xA0 SHL SUB DUP4 DUP2 AND PUSH1 0x0 DUP2 DUP2 MSTORE PUSH1 0x5 PUSH1 0x20 SWAP1 DUP2 MSTORE PUSH1 0x40 DUP1 DUP4 KECCAK256 SWAP5 DUP8 AND DUP1 DUP5 MSTORE SWAP5 DUP3 MSTORE SWAP2 DUP3 SWAP1 KECCAK256 DUP1 SLOAD PUSH1 0xFF NOT AND DUP7 ISZERO ISZERO SWAP1 DUP2 OR SWAP1 SWAP2 SSTORE SWAP2 MLOAD SWAP2 DUP3 MSTORE PUSH32 0x17307EAB39AB6107E8899845AD3D59BD9653F200F220920489CA2B5937696C31 SWAP2 ADD PUSH1 0x40 MLOAD DUP1 SWAP2 SUB SWAP1 LOG3 POP POP POP JUMP JUMPDEST PUSH2 0x2ABF DUP5 DUP5 DUP5 PUSH2 0x2670 JUMP JUMPDEST PUSH2 0x2ACB DUP5 DUP5 DUP5 DUP5 PUSH2 0x2BAD JUMP JUMPDEST PUSH2 0x1EE3 JUMPI PUSH1 0x40 MLOAD PUSH3 0x461BCD PUSH1 0xE5 SHL DUP2 MSTORE PUSH1 0x4 ADD PUSH2 0xA22 SWAP1 PUSH2 0x3449 JUMP JUMPDEST PUSH1 0x60 PUSH1 0x0 PUSH2 0x2AF4 DUP4 PUSH2 0x2CAB JUMP JUMPDEST PUSH1 0x1 ADD SWAP1 POP PUSH1 0x0 DUP2 PUSH8 0xFFFFFFFFFFFFFFFF DUP2 GT ISZERO PUSH2 0x2B14 JUMPI PUSH2 0x2B14 PUSH2 0x3114 JUMP JUMPDEST PUSH1 0x40 MLOAD SWAP1 DUP1 DUP3 MSTORE DUP1 PUSH1 0x1F ADD PUSH1 0x1F NOT AND PUSH1 0x20 ADD DUP3 ADD PUSH1 0x40 MSTORE DUP1 ISZERO PUSH2 0x2B3E JUMPI PUSH1 0x20 DUP3 ADD DUP2 DUP1 CALLDATASIZE DUP4 CALLDATACOPY ADD SWAP1 POP JUMPDEST POP SWAP1 POP DUP2 DUP2 ADD PUSH1 0x20 ADD JUMPDEST PUSH1 0x0 NOT ADD PUSH16 0x181899199A1A9B1B9C1CB0B131B232B3 PUSH1 0x81 SHL PUSH1 0xA DUP7 MOD BYTE DUP2 MSTORE8 PUSH1 0xA DUP6 DIV SWAP5 POP DUP5 PUSH2 0x2B48 JUMPI POP SWAP4 SWAP3 POP POP POP JUMP JUMPDEST PUSH2 0x2B84 DUP4 DUP4 PUSH2 0x2D83 JUMP JUMPDEST PUSH2 0x2B91 PUSH1 0x0 DUP5 DUP5 DUP5 PUSH2 0x2BAD JUMP JUMPDEST PUSH2 0xAC3 JUMPI PUSH1 0x40 MLOAD PUSH3 0x461BCD PUSH1 0xE5 SHL DUP2 MSTORE PUSH1 0x4 ADD PUSH2 0xA22 SWAP1 PUSH2 0x3449 JUMP JUMPDEST PUSH1 0x0 PUSH1 0x1 PUSH1 0x1 PUSH1 0xA0 SHL SUB DUP5 AND EXTCODESIZE ISZERO PUSH2 0x2CA3 JUMPI PUSH1 0x40 MLOAD PUSH4 0xA85BD01 PUSH1 0xE1 SHL DUP2 MSTORE PUSH1 0x1 PUSH1 0x1 PUSH1 0xA0 SHL SUB DUP6 AND SWAP1 PUSH4 0x150B7A02 SWAP1 PUSH2 0x2BF1 SWAP1 CALLER SWAP1 DUP10 SWAP1 DUP9 SWAP1 DUP9 SWAP1 PUSH1 0x4 ADD PUSH2 0x349B JUMP JUMPDEST PUSH1 0x20 PUSH1 0x40 MLOAD DUP1 DUP4 SUB DUP2 PUSH1 0x0 DUP8 GAS CALL SWAP3 POP POP POP DUP1 ISZERO PUSH2 0x2C2C JUMPI POP PUSH1 0x40 DUP1 MLOAD PUSH1 0x1F RETURNDATASIZE SWAP1 DUP2 ADD PUSH1 0x1F NOT AND DUP3 ADD SWAP1 SWAP3 MSTORE PUSH2 0x2C29 SWAP2 DUP2 ADD SWAP1 PUSH2 0x34D8 JUMP JUMPDEST PUSH1 0x1 JUMPDEST PUSH2 0x2C89 JUMPI RETURNDATASIZE DUP1 DUP1 ISZERO PUSH2 0x2C5A JUMPI PUSH1 0x40 MLOAD SWAP2 POP PUSH1 0x1F NOT PUSH1 0x3F RETURNDATASIZE ADD AND DUP3 ADD PUSH1 0x40 MSTORE RETURNDATASIZE DUP3 MSTORE RETURNDATASIZE PUSH1 0x0 PUSH1 0x20 DUP5 ADD RETURNDATACOPY PUSH2 0x2C5F JUMP JUMPDEST PUSH1 0x60 SWAP2 POP JUMPDEST POP DUP1 MLOAD PUSH1 0x0 SUB PUSH2 0x2C81 JUMPI PUSH1 0x40 MLOAD PUSH3 0x461BCD PUSH1 0xE5 SHL DUP2 MSTORE PUSH1 0x4 ADD PUSH2 0xA22 SWAP1 PUSH2 0x3449 JUMP JUMPDEST DUP1 MLOAD DUP2 PUSH1 0x20 ADD REVERT JUMPDEST PUSH1 0x1 PUSH1 0x1 PUSH1 0xE0 SHL SUB NOT AND PUSH4 0xA85BD01 PUSH1 0xE1 SHL EQ SWAP1 POP PUSH2 0x10CC JUMP JUMPDEST POP PUSH1 0x1 PUSH2 0x10CC JUMP JUMPDEST PUSH1 0x0 DUP1 PUSH19 0x184F03E93FF9F4DAA797ED6E38ED64BF6A1F01 PUSH1 0x40 SHL DUP4 LT PUSH2 0x2CEA JUMPI PUSH19 0x184F03E93FF9F4DAA797ED6E38ED64BF6A1F01 PUSH1 0x40 SHL DUP4 DIV SWAP3 POP PUSH1 0x40 ADD JUMPDEST PUSH14 0x4EE2D6D415B85ACEF8100000000 DUP4 LT PUSH2 0x2D16 JUMPI PUSH14 0x4EE2D6D415B85ACEF8100000000 DUP4 DIV SWAP3 POP PUSH1 0x20 ADD JUMPDEST PUSH7 0x2386F26FC10000 DUP4 LT PUSH2 0x2D34 JUMPI PUSH7 0x2386F26FC10000 DUP4 DIV SWAP3 POP PUSH1 0x10 ADD JUMPDEST PUSH4 0x5F5E100 DUP4 LT PUSH2 0x2D4C JUMPI PUSH4 0x5F5E100 DUP4 DIV SWAP3 POP PUSH1 0x8 ADD JUMPDEST PUSH2 0x2710 DUP4 LT PUSH2 0x2D60 JUMPI PUSH2 0x2710 DUP4 DIV SWAP3 POP PUSH1 0x4 ADD JUMPDEST PUSH1 0x64 DUP4 LT PUSH2 0x2D72 JUMPI PUSH1 0x64 DUP4 DIV SWAP3 POP PUSH1 0x2 ADD JUMPDEST PUSH1 0xA DUP4 LT PUSH2 0x8EF JUMPI PUSH1 0x1 ADD SWAP3 SWAP2 POP POP JUMP JUMPDEST PUSH1 0x1 PUSH1 0x1 PUSH1 0xA0 SHL SUB DUP3 AND PUSH2 0x2DD9 JUMPI PUSH1 0x40 MLOAD PUSH3 0x461BCD PUSH1 0xE5 SHL DUP2 MSTORE PUSH1 0x20 PUSH1 0x4 DUP3 ADD DUP2 SWAP1 MSTORE PUSH1 0x24 DUP3 ADD MSTORE PUSH32 0x4552433732313A206D696E7420746F20746865207A65726F2061646472657373 PUSH1 0x44 DUP3 ADD MSTORE PUSH1 0x64 ADD PUSH2 0xA22 JUMP JUMPDEST PUSH2 0x2DE2 DUP2 PUSH2 0x25D5 JUMP JUMPDEST ISZERO PUSH2 0x2E2F JUMPI PUSH1 0x40 MLOAD PUSH3 0x461BCD PUSH1 0xE5 SHL DUP2 MSTORE PUSH1 0x20 PUSH1 0x4 DUP3 ADD MSTORE PUSH1 0x1C PUSH1 0x24 DUP3 ADD MSTORE PUSH32 0x4552433732313A20746F6B656E20616C7265616479206D696E74656400000000 PUSH1 0x44 DUP3 ADD MSTORE PUSH1 0x64 ADD PUSH2 0xA22 JUMP JUMPDEST PUSH2 0x2E38 DUP2 PUSH2 0x25D5 JUMP JUMPDEST ISZERO PUSH2 0x2E85 JUMPI PUSH1 0x40 MLOAD PUSH3 0x461BCD PUSH1 0xE5 SHL DUP2 MSTORE PUSH1 0x20 PUSH1 0x4 DUP3 ADD MSTORE PUSH1 0x1C PUSH1 0x24 DUP3 ADD MSTORE PUSH32 0x4552433732313A20746F6B656E20616C7265616479206D696E74656400000000 PUSH1 0x44 DUP3 ADD MSTORE PUSH1 0x64 ADD PUSH2 0xA22 JUMP JUMPDEST PUSH1 0x1 PUSH1 0x1 PUSH1 0xA0 SHL SUB DUP3 AND PUSH1 0x0 DUP2 DUP2 MSTORE PUSH1 0x3 PUSH1 0x20 SWAP1 DUP2 MSTORE PUSH1 0x40 DUP1 DUP4 KECCAK256 DUP1 SLOAD PUSH1 0x1 ADD SWAP1 SSTORE DUP5 DUP4 MSTORE PUSH1 0x2 SWAP1 SWAP2 MSTORE DUP1 DUP3 KECCAK256 DUP1 SLOAD PUSH1 0x1 PUSH1 0x1 PUSH1 0xA0 SHL SUB NOT AND DUP5 OR SWAP1 SSTORE MLOAD DUP4 SWAP3 SWAP2 SWAP1 PUSH32 0xDDF252AD1BE2C89B69C2B068FC378DAA952BA7F163C4A11628F55A4DF523B3EF SWAP1 DUP3 SWAP1 LOG4 POP POP JUMP JUMPDEST PUSH1 0x1 PUSH1 0x1 PUSH1 0xE0 SHL SUB NOT DUP2 AND DUP2 EQ PUSH2 0x2564 JUMPI PUSH1 0x0 DUP1 REVERT JUMPDEST PUSH1 0x0 PUSH1 0x20 DUP3 DUP5 SUB SLT ISZERO PUSH2 0x2F18 JUMPI PUSH1 0x0 DUP1 REVERT JUMPDEST DUP2 CALLDATALOAD PUSH2 0x1807 DUP2 PUSH2 0x2EF0 JUMP JUMPDEST PUSH1 0x0 JUMPDEST DUP4 DUP2 LT ISZERO PUSH2 0x2F3E JUMPI DUP2 DUP2 ADD MLOAD DUP4 DUP3 ADD MSTORE PUSH1 0x20 ADD PUSH2 0x2F26 JUMP JUMPDEST POP POP PUSH1 0x0 SWAP2 ADD MSTORE JUMP JUMPDEST PUSH1 0x0 DUP2 MLOAD DUP1 DUP5 MSTORE PUSH2 0x2F5F DUP2 PUSH1 0x20 DUP7 ADD PUSH1 0x20 DUP7 ADD PUSH2 0x2F23 JUMP JUMPDEST PUSH1 0x1F ADD PUSH1 0x1F NOT AND SWAP3 SWAP1 SWAP3 ADD PUSH1 0x20 ADD SWAP3 SWAP2 POP POP JUMP JUMPDEST PUSH1 0x20 DUP2 MSTORE PUSH1 0x0 PUSH2 0x1807 PUSH1 0x20 DUP4 ADD DUP5 PUSH2 0x2F47 JUMP JUMPDEST PUSH1 0x0 PUSH1 0x20 DUP3 DUP5 SUB SLT ISZERO PUSH2 0x2F98 JUMPI PUSH1 0x0 DUP1 REVERT JUMPDEST POP CALLDATALOAD SWAP2 SWAP1 POP JUMP JUMPDEST DUP1 CALLDATALOAD PUSH1 0x1 PUSH1 0x1 PUSH1 0xA0 SHL SUB DUP2 AND DUP2 EQ PUSH2 0x29E1 JUMPI PUSH1 0x0 DUP1 REVERT JUMPDEST PUSH1 0x0 DUP1 PUSH1 0x40 DUP4 DUP6 SUB SLT ISZERO PUSH2 0x2FC9 JUMPI PUSH1 0x0 DUP1 REVERT JUMPDEST PUSH2 0x2FD2 DUP4 PUSH2 0x2F9F JUMP JUMPDEST SWAP5 PUSH1 0x20 SWAP4 SWAP1 SWAP4 ADD CALLDATALOAD SWAP4 POP POP POP JUMP JUMPDEST PUSH1 0x0 PUSH1 0x20 DUP3 DUP5 SUB SLT ISZERO PUSH2 0x2FF2 JUMPI PUSH1 0x0 DUP1 REVERT JUMPDEST PUSH2 0x1807 DUP3 PUSH2 0x2F9F JUMP JUMPDEST PUSH1 0x0 DUP1 PUSH1 0x0 PUSH1 0x60 DUP5 DUP7 SUB SLT ISZERO PUSH2 0x3010 JUMPI PUSH1 0x0 DUP1 REVERT JUMPDEST PUSH2 0x3019 DUP5 PUSH2 0x2F9F JUMP JUMPDEST SWAP3 POP PUSH2 0x3027 PUSH1 0x20 DUP6 ADD PUSH2 0x2F9F JUMP JUMPDEST SWAP2 POP PUSH1 0x40 DUP5 ADD CALLDATALOAD SWAP1 POP SWAP3 POP SWAP3 POP SWAP3 JUMP JUMPDEST PUSH1 0x0 DUP1 PUSH1 0x40 DUP4 DUP6 SUB SLT ISZERO PUSH2 0x304A JUMPI PUSH1 0x0 DUP1 REVERT JUMPDEST POP POP DUP1 CALLDATALOAD SWAP3 PUSH1 0x20 SWAP1 SWAP2 ADD CALLDATALOAD SWAP2 POP JUMP JUMPDEST PUSH1 0x0 DUP1 PUSH1 0x40 DUP4 DUP6 SUB SLT ISZERO PUSH2 0x306C JUMPI PUSH1 0x0 DUP1 REVERT JUMPDEST PUSH2 0x3075 DUP4 PUSH2 0x2F9F JUMP JUMPDEST SWAP2 POP PUSH1 0x20 DUP4 ADD CALLDATALOAD DUP1 ISZERO ISZERO DUP2 EQ PUSH2 0x308A JUMPI PUSH1 0x0 DUP1 REVERT JUMPDEST DUP1 SWAP2 POP POP SWAP3 POP SWAP3 SWAP1 POP JUMP JUMPDEST PUSH1 0x0 DUP1 PUSH1 0x0 DUP1 PUSH1 0x80 DUP6 DUP8 SUB SLT ISZERO PUSH2 0x30AB JUMPI PUSH1 0x0 DUP1 REVERT JUMPDEST POP POP DUP3 CALLDATALOAD SWAP5 PUSH1 0x20 DUP5 ADD CALLDATALOAD SWAP5 POP PUSH1 0x40 DUP5 ADD CALLDATALOAD SWAP4 PUSH1 0x60 ADD CALLDATALOAD SWAP3 POP SWAP1 POP JUMP JUMPDEST PUSH1 0x0 PUSH1 0x20 DUP3 DUP5 SUB SLT ISZERO PUSH2 0x30D9 JUMPI PUSH1 0x0 DUP1 REVERT JUMPDEST DUP2 CALLDATALOAD PUSH1 0x5 DUP2 LT PUSH2 0x1807 JUMPI PUSH1 0x0 DUP1 REVERT JUMPDEST PUSH1 0x0 DUP1 PUSH1 0x0 PUSH1 0x60 DUP5 DUP7 SUB SLT ISZERO PUSH2 0x30FD JUMPI PUSH1 0x0 DUP1 REVERT JUMPDEST POP POP DUP2 CALLDATALOAD SWAP4 PUSH1 0x20 DUP4 ADD CALLDATALOAD SWAP4 POP PUSH1 0x40 SWAP1 SWAP3 ADD CALLDATALOAD SWAP2 SWAP1 POP JUMP JUMPDEST PUSH4 0x4E487B71 PUSH1 0xE0 SHL PUSH1 0x0 MSTORE PUSH1 0x41 PUSH1 0x4 MSTORE PUSH1 0x24 PUSH1 0x0 REVERT JUMPDEST PUSH1 0x0 DUP1 PUSH1 0x0 DUP1 PUSH1 0x80 DUP6 DUP8 SUB SLT ISZERO PUSH2 0x3140 JUMPI PUSH1 0x0 DUP1 REVERT JUMPDEST PUSH2 0x3149 DUP6 PUSH2 0x2F9F JUMP JUMPDEST SWAP4 POP PUSH2 0x3157 PUSH1 0x20 DUP7 ADD PUSH2 0x2F9F JUMP JUMPDEST SWAP3 POP PUSH1 0x40 DUP6 ADD CALLDATALOAD SWAP2 POP PUSH1 0x60 DUP6 ADD CALLDATALOAD PUSH8 0xFFFFFFFFFFFFFFFF DUP1 DUP3 GT ISZERO PUSH2 0x317B JUMPI PUSH1 0x0 DUP1 REVERT JUMPDEST DUP2 DUP8 ADD SWAP2 POP DUP8 PUSH1 0x1F DUP4 ADD SLT PUSH2 0x318F JUMPI PUSH1 0x0 DUP1 REVERT JUMPDEST DUP2 CALLDATALOAD DUP2 DUP2 GT ISZERO PUSH2 0x31A1 JUMPI PUSH2 0x31A1 PUSH2 0x3114 JUMP JUMPDEST PUSH1 0x40 MLOAD PUSH1 0x1F DUP3 ADD PUSH1 0x1F NOT SWAP1 DUP2 AND PUSH1 0x3F ADD AND DUP2 ADD SWAP1 DUP4 DUP3 GT DUP2 DUP4 LT OR ISZERO PUSH2 0x31C9 JUMPI PUSH2 0x31C9 PUSH2 0x3114 JUMP JUMPDEST DUP2 PUSH1 0x40 MSTORE DUP3 DUP2 MSTORE DUP11 PUSH1 0x20 DUP5 DUP8 ADD ADD GT ISZERO PUSH2 0x31E2 JUMPI PUSH1 0x0 DUP1 REVERT JUMPDEST DUP3 PUSH1 0x20 DUP7 ADD PUSH1 0x20 DUP4 ADD CALLDATACOPY PUSH1 0x0 PUSH1 0x20 DUP5 DUP4 ADD ADD MSTORE DUP1 SWAP6 POP POP POP POP POP POP SWAP3 SWAP6 SWAP2 SWAP5 POP SWAP3 POP JUMP JUMPDEST PUSH1 0x0 DUP1 PUSH1 0x0 DUP1 PUSH1 0x0 PUSH1 0xA0 DUP7 DUP9 SUB SLT ISZERO PUSH2 0x321E JUMPI PUSH1 0x0 DUP1 REVERT JUMPDEST POP POP DUP4 CALLDATALOAD SWAP6 PUSH1 0x20 DUP6 ADD CALLDATALOAD SWAP6 POP PUSH1 0x40 DUP6 ADD CALLDATALOAD SWAP5 PUSH1 0x60 DUP2 ADD CALLDATALOAD SWAP5 POP PUSH1 0x80 ADD CALLDATALOAD SWAP3 POP SWAP1 POP JUMP JUMPDEST PUSH1 0x0 DUP1 PUSH1 0x40 DUP4 DUP6 SUB SLT ISZERO PUSH2 0x3254 JUMPI PUSH1 0x0 DUP1 REVERT JUMPDEST PUSH2 0x325D DUP4 PUSH2 0x2F9F JUMP JUMPDEST SWAP2 POP PUSH2 0x326B PUSH1 0x20 DUP5 ADD PUSH2 0x2F9F JUMP JUMPDEST SWAP1 POP SWAP3 POP SWAP3 SWAP1 POP JUMP JUMPDEST PUSH1 0x1 DUP2 DUP2 SHR SWAP1 DUP3 AND DUP1 PUSH2 0x3288 JUMPI PUSH1 0x7F DUP3 AND SWAP2 POP JUMPDEST PUSH1 0x20 DUP3 LT DUP2 SUB PUSH2 0x29D1 JUMPI PUSH4 0x4E487B71 PUSH1 0xE0 SHL PUSH1 0x0 MSTORE PUSH1 0x22 PUSH1 0x4 MSTORE PUSH1 0x24 PUSH1 0x0 REVERT JUMPDEST PUSH1 0x20 DUP1 DUP3 MSTORE PUSH1 0xD SWAP1 DUP3 ADD MSTORE PUSH13 0x1058D8D95CDCC811195B9A5959 PUSH1 0x9A SHL PUSH1 0x40 DUP3 ADD MSTORE PUSH1 0x60 ADD SWAP1 JUMP JUMPDEST PUSH1 0x20 DUP1 DUP3 MSTORE PUSH1 0x14 SWAP1 DUP3 ADD MSTORE PUSH20 0x151BDAD95B88191BD95CC81B9BDD08195E1A5CDD PUSH1 0x62 SHL PUSH1 0x40 DUP3 ADD MSTORE PUSH1 0x60 ADD SWAP1 JUMP JUMPDEST PUSH1 0x20 DUP1 DUP3 MSTORE PUSH1 0x2D SWAP1 DUP3 ADD MSTORE PUSH32 0x4552433732313A2063616C6C6572206973206E6F7420746F6B656E206F776E65 PUSH1 0x40 DUP3 ADD MSTORE PUSH13 0x1C881BDC88185C1C1C9BDD9959 PUSH1 0x9A SHL PUSH1 0x60 DUP3 ADD MSTORE PUSH1 0x80 ADD SWAP1 JUMP JUMPDEST PUSH4 0x4E487B71 PUSH1 0xE0 SHL PUSH1 0x0 MSTORE PUSH1 0x11 PUSH1 0x4 MSTORE PUSH1 0x24 PUSH1 0x0 REVERT JUMPDEST PUSH1 0x0 DUP3 PUSH2 0x337D JUMPI PUSH4 0x4E487B71 PUSH1 0xE0 SHL PUSH1 0x0 MSTORE PUSH1 0x12 PUSH1 0x4 MSTORE PUSH1 0x24 PUSH1 0x0 REVERT JUMPDEST POP DIV SWAP1 JUMP JUMPDEST DUP1 DUP3 ADD DUP1 DUP3 GT ISZERO PUSH2 0x8EF JUMPI PUSH2 0x8EF PUSH2 0x334A JUMP JUMPDEST DUP2 DUP2 SUB DUP2 DUP2 GT ISZERO PUSH2 0x8EF JUMPI PUSH2 0x8EF PUSH2 0x334A JUMP JUMPDEST PUSH4 0x4E487B71 PUSH1 0xE0 SHL PUSH1 0x0 MSTORE PUSH1 0x21 PUSH1 0x4 MSTORE PUSH1 0x24 PUSH1 0x0 REVERT JUMPDEST PUSH1 0x0 DUP4 MLOAD PUSH2 0x33D0 DUP2 DUP5 PUSH1 0x20 DUP9 ADD PUSH2 0x2F23 JUMP JUMPDEST DUP4 MLOAD SWAP1 DUP4 ADD SWAP1 PUSH2 0x33E4 DUP2 DUP4 PUSH1 0x20 DUP9 ADD PUSH2 0x2F23 JUMP JUMPDEST ADD SWAP5 SWAP4 POP POP POP POP JUMP JUMPDEST DUP1 DUP3 MUL DUP2 ISZERO DUP3 DUP3 DIV DUP5 EQ OR PUSH2 0x8EF JUMPI PUSH2 0x8EF PUSH2 0x334A JUMP JUMPDEST PUSH1 0x20 DUP1 DUP3 MSTORE PUSH1 0x25 SWAP1 DUP3 ADD MSTORE PUSH32 0x4552433732313A207472616E736665722066726F6D20696E636F727265637420 PUSH1 0x40 DUP3 ADD MSTORE PUSH5 0x37BBB732B9 PUSH1 0xD9 SHL PUSH1 0x60 DUP3 ADD MSTORE PUSH1 0x80 ADD SWAP1 JUMP JUMPDEST PUSH1 0x20 DUP1 DUP3 MSTORE PUSH1 0x32 SWAP1 DUP3 ADD MSTORE PUSH32 0x4552433732313A207472616E7366657220746F206E6F6E204552433732315265 PUSH1 0x40 DUP3 ADD MSTORE PUSH18 0x31B2B4BB32B91034B6B83632B6B2B73A32B9 PUSH1 0x71 SHL PUSH1 0x60 DUP3 ADD MSTORE PUSH1 0x80 ADD SWAP1 JUMP JUMPDEST PUSH1 0x1 PUSH1 0x1 PUSH1 0xA0 SHL SUB DUP6 DUP2 AND DUP3 MSTORE DUP5 AND PUSH1 0x20 DUP3 ADD MSTORE PUSH1 0x40 DUP2 ADD DUP4 SWAP1 MSTORE PUSH1 0x80 PUSH1 0x60 DUP3 ADD DUP2 SWAP1 MSTORE PUSH1 0x0 SWAP1 PUSH2 0x34CE SWAP1 DUP4 ADD DUP5 PUSH2 0x2F47 JUMP JUMPDEST SWAP7 SWAP6 POP POP POP POP POP POP JUMP JUMPDEST PUSH1 0x0 PUSH1 0x20 DUP3 DUP5 SUB SLT ISZERO PUSH2 0x34EA JUMPI PUSH1 0x0 DUP1 REVERT JUMPDEST DUP2 MLOAD PUSH2 0x1807 DUP2 PUSH2 0x2EF0 JUMP INVALID LOG2 PUSH5 0x6970667358 0x22 SLT KECCAK256 PC 0x4D 0xF6 DUP12 MUL DUP2 PUSH19 0xBFA625D25F1F88C68648D52629A81972F1196E NUMBER 0xEB SWAP9 ORIGIN 0xD PUSH24 0x64736F6C6343000813003300000000000000000000000000 "
		},
		"gasEstimates": {
			"creation": {
				"codeDepositCost": "2722200",
				"executionCost": "infinite",
				"totalCost": "infinite"
			},
			"external": {
				"approve(address,uint256)": "infinite",
				"balanceOf(address)": "2744",
				"createFighter(uint8)": "infinite",
				"createNPC(uint256,uint256,uint256,uint256)": "31942",
				"decreaseHealth(uint256,uint256)": "infinite",
				"decreaseMana(uint256,uint256)": "infinite",
				"equipItem(uint256,uint256,uint256)": "250714",
				"getApproved(uint256)": "4851",
				"getDamage(uint256)": "infinite",
				"getDefence(uint256)": "6978",
				"getExperience(uint256)": "4853",
				"getFighterStats(uint256)": "infinite",
				"getHealth(uint256)": "infinite",
				"getHealthRegenerationRate(uint256)": "infinite",
				"getLevel(uint256)": "infinite",
				"getMana(uint256)": "infinite",
				"getManaRegenerationRate(uint256)": "infinite",
				"getMaxHealth(uint256)": "infinite",
				"getMaxMana(uint256)": "infinite",
				"getMaxStatPoints(uint256)": "infinite",
				"getTokenAttributes(uint256)": "67902",
				"getTotalUsedStatPoints(uint256)": "infinite",
				"increaseExperience(uint256,uint256)": "infinite",
				"isApprovedForAll(address,address)": "infinite",
				"isGM(address)": "2676",
				"name()": "infinite",
				"owner()": "2471",
				"ownerOf(uint256)": "2583",
				"safeAdd(uint256,uint256)": "591",
				"safeMul(uint256,uint256)": "719",
				"safeSub(uint256,uint256)": "506",
				"safeTransferFrom(address,address,uint256)": "infinite",
				"safeTransferFrom(address,address,uint256,bytes)": "infinite",
				"setAgilityPerDefence(uint256)": "25608",
				"setApprovalForAll(address,bool)": "26750",
				"setBattleContract(address,bool)": "28292",
				"setEnergyPerDamage(uint256)": "25587",
				"setExperienceDivider(uint256)": "25609",
				"setGM(address,bool)": "28304",
				"setHealthRegenerationDivider(uint256)": "25674",
				"setManaRegenerationDivider(uint256)": "25652",
				"setMaxExperience(uint256)": "25630",
				"setOwner(address)": "30522",
				"setStrengthPerDamage(uint256)": "25665",
				"supportsInterface(bytes4)": "557",
				"symbol()": "infinite",
				"tokenURI(uint256)": "infinite",
				"transferFrom(address,address,uint256)": "infinite",
				"updateFighterStats(uint256,uint256,uint256,uint256,uint256)": "infinite"
			},
			"internal": {
				"_setTokenAttributes(uint256,struct FighterAttributes.Attributes memory)": "infinite",
				"max(uint256,uint256)": "infinite",
				"min(uint256,uint256)": "61",
				"sqrt(uint256)": "infinite"
			}
		},
		"methodIdentifiers": {
			"approve(address,uint256)": "095ea7b3",
			"balanceOf(address)": "70a08231",
			"createFighter(uint8)": "a6438db2",
			"createNPC(uint256,uint256,uint256,uint256)": "5c821d7f",
			"decreaseHealth(uint256,uint256)": "a7518eb1",
			"decreaseMana(uint256,uint256)": "8dc14247",
			"equipItem(uint256,uint256,uint256)": "b7379531",
			"getApproved(uint256)": "081812fc",
			"getDamage(uint256)": "7cd7f3bb",
			"getDefence(uint256)": "51585b49",
			"getExperience(uint256)": "b1ca2106",
			"getFighterStats(uint256)": "55af86c4",
			"getHealth(uint256)": "3fc70f2c",
			"getHealthRegenerationRate(uint256)": "fd9513bd",
			"getLevel(uint256)": "86481d40",
			"getMana(uint256)": "744e94aa",
			"getManaRegenerationRate(uint256)": "d87e9020",
			"getMaxHealth(uint256)": "c77daef6",
			"getMaxMana(uint256)": "6d9cbb4e",
			"getMaxStatPoints(uint256)": "43c6916b",
			"getTokenAttributes(uint256)": "1f4f5a23",
			"getTotalUsedStatPoints(uint256)": "d20a53c8",
			"increaseExperience(uint256,uint256)": "243a7c7b",
			"isApprovedForAll(address,address)": "e985e9c5",
			"isGM(address)": "3a0995e9",
			"name()": "06fdde03",
			"owner()": "8da5cb5b",
			"ownerOf(uint256)": "6352211e",
			"safeAdd(uint256,uint256)": "e6cb9013",
			"safeMul(uint256,uint256)": "d05c78da",
			"safeSub(uint256,uint256)": "a293d1e8",
			"safeTransferFrom(address,address,uint256)": "42842e0e",
			"safeTransferFrom(address,address,uint256,bytes)": "b88d4fde",
			"setAgilityPerDefence(uint256)": "6599273f",
			"setApprovalForAll(address,bool)": "a22cb465",
			"setBattleContract(address,bool)": "d5a93d68",
			"setEnergyPerDamage(uint256)": "17a40576",
			"setExperienceDivider(uint256)": "745bd453",
			"setGM(address,bool)": "360deb76",
			"setHealthRegenerationDivider(uint256)": "cb083041",
			"setManaRegenerationDivider(uint256)": "6ae15f76",
			"setMaxExperience(uint256)": "688f30ac",
			"setOwner(address)": "13af4035",
			"setStrengthPerDamage(uint256)": "0b1f15cd",
			"supportsInterface(bytes4)": "01ffc9a7",
			"symbol()": "95d89b41",
			"tokenURI(uint256)": "c87b56dd",
			"transferFrom(address,address,uint256)": "23b872dd",
			"updateFighterStats(uint256,uint256,uint256,uint256,uint256)": "d1e5ef57"
		}
	},
	"abi": [
		{
			"inputs": [],
			"stateMutability": "nonpayable",
			"type": "constructor"
		},
		{
			"anonymous": false,
			"inputs": [
				{
					"indexed": true,
					"internalType": "address",
					"name": "owner",
					"type": "address"
				},
				{
					"indexed": true,
					"internalType": "address",
					"name": "approved",
					"type": "address"
				},
				{
					"indexed": true,
					"internalType": "uint256",
					"name": "tokenId",
					"type": "uint256"
				}
			],
			"name": "Approval",
			"type": "event"
		},
		{
			"anonymous": false,
			"inputs": [
				{
					"indexed": true,
					"internalType": "address",
					"name": "owner",
					"type": "address"
				},
				{
					"indexed": true,
					"internalType": "address",
					"name": "operator",
					"type": "address"
				},
				{
					"indexed": false,
					"internalType": "bool",
					"name": "approved",
					"type": "bool"
				}
			],
			"name": "ApprovalForAll",
			"type": "event"
		},
		{
			"anonymous": false,
			"inputs": [
				{
					"indexed": true,
					"internalType": "address",
					"name": "owner",
					"type": "address"
				},
				{
					"indexed": false,
					"internalType": "uint256",
					"name": "tokenId",
					"type": "uint256"
				},
				{
					"indexed": false,
					"internalType": "uint8",
					"name": "class",
					"type": "uint8"
				}
			],
			"name": "FighterCreated",
			"type": "event"
		},
		{
			"anonymous": false,
			"inputs": [
				{
					"indexed": false,
					"internalType": "uint256",
					"name": "tokenId",
					"type": "uint256"
				},
				{
					"indexed": false,
					"internalType": "uint256",
					"name": "itemId",
					"type": "uint256"
				},
				{
					"indexed": false,
					"internalType": "uint256",
					"name": "slot",
					"type": "uint256"
				}
			],
			"name": "ItemEquiped",
			"type": "event"
		},
		{
			"anonymous": false,
			"inputs": [
				{
					"indexed": true,
					"internalType": "address",
					"name": "owner",
					"type": "address"
				},
				{
					"indexed": false,
					"internalType": "uint256",
					"name": "tokenId",
					"type": "uint256"
				},
				{
					"indexed": false,
					"internalType": "uint8",
					"name": "class",
					"type": "uint8"
				}
			],
			"name": "NPCCreated",
			"type": "event"
		},
		{
			"anonymous": false,
			"inputs": [
				{
					"indexed": false,
					"internalType": "address",
					"name": "battleContract",
					"type": "address"
				},
				{
					"indexed": false,
					"internalType": "bool",
					"name": "isActive",
					"type": "bool"
				}
			],
			"name": "SetBattleContract",
			"type": "event"
		},
		{
			"anonymous": false,
			"inputs": [
				{
					"indexed": false,
					"internalType": "address",
					"name": "",
					"type": "address"
				},
				{
					"indexed": false,
					"internalType": "bool",
					"name": "",
					"type": "bool"
				}
			],
			"name": "SetGM",
			"type": "event"
		},
		{
			"anonymous": false,
			"inputs": [
				{
					"indexed": true,
					"internalType": "address",
					"name": "previousOwner",
					"type": "address"
				},
				{
					"indexed": true,
					"internalType": "address",
					"name": "newOwner",
					"type": "address"
				}
			],
			"name": "SetOwner",
			"type": "event"
		},
		{
			"anonymous": false,
			"inputs": [
				{
					"indexed": false,
					"internalType": "uint256",
					"name": "tokenId",
					"type": "uint256"
				},
				{
					"indexed": false,
					"internalType": "uint256",
					"name": "strength",
					"type": "uint256"
				},
				{
					"indexed": false,
					"internalType": "uint256",
					"name": "agility",
					"type": "uint256"
				},
				{
					"indexed": false,
					"internalType": "uint256",
					"name": "energy",
					"type": "uint256"
				},
				{
					"indexed": false,
					"internalType": "uint256",
					"name": "vitality",
					"type": "uint256"
				}
			],
			"name": "StatsUpdated",
			"type": "event"
		},
		{
			"anonymous": false,
			"inputs": [
				{
					"indexed": true,
					"internalType": "address",
					"name": "from",
					"type": "address"
				},
				{
					"indexed": true,
					"internalType": "address",
					"name": "to",
					"type": "address"
				},
				{
					"indexed": true,
					"internalType": "uint256",
					"name": "tokenId",
					"type": "uint256"
				}
			],
			"name": "Transfer",
			"type": "event"
		},
		{
			"anonymous": false,
			"inputs": [
				{
					"indexed": false,
					"internalType": "uint256",
					"name": "",
					"type": "uint256"
				}
			],
			"name": "updateAgilityPerDefence",
			"type": "event"
		},
		{
			"anonymous": false,
			"inputs": [
				{
					"indexed": false,
					"internalType": "uint256",
					"name": "",
					"type": "uint256"
				}
			],
			"name": "updateEnergyPerDamage",
			"type": "event"
		},
		{
			"anonymous": false,
			"inputs": [
				{
					"indexed": false,
					"internalType": "uint256",
					"name": "",
					"type": "uint256"
				}
			],
			"name": "updateExperienceDivider",
			"type": "event"
		},
		{
			"anonymous": false,
			"inputs": [
				{
					"indexed": false,
					"internalType": "uint256",
					"name": "",
					"type": "uint256"
				}
			],
			"name": "updateHealthRegenerationDivider",
			"type": "event"
		},
		{
			"anonymous": false,
			"inputs": [
				{
					"indexed": false,
					"internalType": "uint256",
					"name": "",
					"type": "uint256"
				}
			],
			"name": "updateManaRegenerationDivider",
			"type": "event"
		},
		{
			"anonymous": false,
			"inputs": [
				{
					"indexed": false,
					"internalType": "uint256",
					"name": "",
					"type": "uint256"
				}
			],
			"name": "updateMaxExperience",
			"type": "event"
		},
		{
			"anonymous": false,
			"inputs": [
				{
					"indexed": false,
					"internalType": "uint256",
					"name": "",
					"type": "uint256"
				}
			],
			"name": "updateStrengthPerDamage",
			"type": "event"
		},
		{
			"inputs": [
				{
					"internalType": "address",
					"name": "to",
					"type": "address"
				},
				{
					"internalType": "uint256",
					"name": "tokenId",
					"type": "uint256"
				}
			],
			"name": "approve",
			"outputs": [],
			"stateMutability": "nonpayable",
			"type": "function"
		},
		{
			"inputs": [
				{
					"internalType": "address",
					"name": "owner",
					"type": "address"
				}
			],
			"name": "balanceOf",
			"outputs": [
				{
					"internalType": "uint256",
					"name": "",
					"type": "uint256"
				}
			],
			"stateMutability": "view",
			"type": "function"
		},
		{
			"inputs": [
				{
					"internalType": "enum FighterAttributes.FighterClass",
					"name": "fighterClass",
					"type": "uint8"
				}
			],
			"name": "createFighter",
			"outputs": [
				{
					"internalType": "uint256",
					"name": "",
					"type": "uint256"
				}
			],
			"stateMutability": "nonpayable",
			"type": "function"
		},
		{
			"inputs": [
				{
					"internalType": "uint256",
					"name": "strength",
					"type": "uint256"
				},
				{
					"internalType": "uint256",
					"name": "agility",
					"type": "uint256"
				},
				{
					"internalType": "uint256",
					"name": "energy",
					"type": "uint256"
				},
				{
					"internalType": "uint256",
					"name": "vitality",
					"type": "uint256"
				}
			],
			"name": "createNPC",
			"outputs": [
				{
					"internalType": "uint256",
					"name": "",
					"type": "uint256"
				}
			],
			"stateMutability": "nonpayable",
			"type": "function"
		},
		{
			"inputs": [
				{
					"internalType": "uint256",
					"name": "tokenId",
					"type": "uint256"
				},
				{
					"internalType": "uint256",
					"name": "damage",
					"type": "uint256"
				}
			],
			"name": "decreaseHealth",
			"outputs": [],
			"stateMutability": "nonpayable",
			"type": "function"
		},
		{
			"inputs": [
				{
					"internalType": "uint256",
					"name": "tokenId",
					"type": "uint256"
				},
				{
					"internalType": "uint256",
					"name": "manaUsed",
					"type": "uint256"
				}
			],
			"name": "decreaseMana",
			"outputs": [],
			"stateMutability": "nonpayable",
			"type": "function"
		},
		{
			"inputs": [
				{
					"internalType": "uint256",
					"name": "tokenId",
					"type": "uint256"
				},
				{
					"internalType": "uint256",
					"name": "itemId",
					"type": "uint256"
				},
				{
					"internalType": "uint256",
					"name": "slot",
					"type": "uint256"
				}
			],
			"name": "equipItem",
			"outputs": [],
			"stateMutability": "nonpayable",
			"type": "function"
		},
		{
			"inputs": [
				{
					"internalType": "uint256",
					"name": "tokenId",
					"type": "uint256"
				}
			],
			"name": "getApproved",
			"outputs": [
				{
					"internalType": "address",
					"name": "",
					"type": "address"
				}
			],
			"stateMutability": "view",
			"type": "function"
		},
		{
			"inputs": [
				{
					"internalType": "uint256",
					"name": "tokenId",
					"type": "uint256"
				}
			],
			"name": "getDamage",
			"outputs": [
				{
					"internalType": "uint256",
					"name": "",
					"type": "uint256"
				}
			],
			"stateMutability": "view",
			"type": "function"
		},
		{
			"inputs": [
				{
					"internalType": "uint256",
					"name": "tokenId",
					"type": "uint256"
				}
			],
			"name": "getDefence",
			"outputs": [
				{
					"internalType": "uint256",
					"name": "",
					"type": "uint256"
				}
			],
			"stateMutability": "view",
			"type": "function"
		},
		{
			"inputs": [
				{
					"internalType": "uint256",
					"name": "tokenId",
					"type": "uint256"
				}
			],
			"name": "getExperience",
			"outputs": [
				{
					"internalType": "uint256",
					"name": "",
					"type": "uint256"
				}
			],
			"stateMutability": "view",
			"type": "function"
		},
		{
			"inputs": [
				{
					"internalType": "uint256",
					"name": "tokenId",
					"type": "uint256"
				}
			],
			"name": "getFighterStats",
			"outputs": [
				{
					"components": [
						{
							"internalType": "uint256",
							"name": "tokenId",
							"type": "uint256"
						},
						{
							"internalType": "uint256",
							"name": "currentHealth",
							"type": "uint256"
						},
						{
							"internalType": "uint256",
							"name": "maxHealth",
							"type": "uint256"
						},
						{
							"internalType": "uint256",
							"name": "currentMana",
							"type": "uint256"
						},
						{
							"internalType": "uint256",
							"name": "maxMana",
							"type": "uint256"
						},
						{
							"internalType": "uint256",
							"name": "level",
							"type": "uint256"
						},
						{
							"internalType": "uint256",
							"name": "exp",
							"type": "uint256"
						},
						{
							"internalType": "uint256",
							"name": "damage",
							"type": "uint256"
						},
						{
							"internalType": "uint256",
							"name": "defence",
							"type": "uint256"
						},
						{
							"internalType": "uint256",
							"name": "totalStatPoints",
							"type": "uint256"
						},
						{
							"internalType": "uint256",
							"name": "maxStatPoints",
							"type": "uint256"
						}
					],
					"internalType": "struct FighterAttributes.FighterStats",
					"name": "",
					"type": "tuple"
				}
			],
			"stateMutability": "view",
			"type": "function"
		},
		{
			"inputs": [
				{
					"internalType": "uint256",
					"name": "tokenId",
					"type": "uint256"
				}
			],
			"name": "getHealth",
			"outputs": [
				{
					"internalType": "uint256",
					"name": "",
					"type": "uint256"
				}
			],
			"stateMutability": "view",
			"type": "function"
		},
		{
			"inputs": [
				{
					"internalType": "uint256",
					"name": "tokenId",
					"type": "uint256"
				}
			],
			"name": "getHealthRegenerationRate",
			"outputs": [
				{
					"internalType": "uint256",
					"name": "",
					"type": "uint256"
				}
			],
			"stateMutability": "view",
			"type": "function"
		},
		{
			"inputs": [
				{
					"internalType": "uint256",
					"name": "tokenId",
					"type": "uint256"
				}
			],
			"name": "getLevel",
			"outputs": [
				{
					"internalType": "uint256",
					"name": "",
					"type": "uint256"
				}
			],
			"stateMutability": "view",
			"type": "function"
		},
		{
			"inputs": [
				{
					"internalType": "uint256",
					"name": "tokenId",
					"type": "uint256"
				}
			],
			"name": "getMana",
			"outputs": [
				{
					"internalType": "uint256",
					"name": "",
					"type": "uint256"
				}
			],
			"stateMutability": "view",
			"type": "function"
		},
		{
			"inputs": [
				{
					"internalType": "uint256",
					"name": "tokenId",
					"type": "uint256"
				}
			],
			"name": "getManaRegenerationRate",
			"outputs": [
				{
					"internalType": "uint256",
					"name": "",
					"type": "uint256"
				}
			],
			"stateMutability": "view",
			"type": "function"
		},
		{
			"inputs": [
				{
					"internalType": "uint256",
					"name": "tokenId",
					"type": "uint256"
				}
			],
			"name": "getMaxHealth",
			"outputs": [
				{
					"internalType": "uint256",
					"name": "",
					"type": "uint256"
				}
			],
			"stateMutability": "view",
			"type": "function"
		},
		{
			"inputs": [
				{
					"internalType": "uint256",
					"name": "tokenId",
					"type": "uint256"
				}
			],
			"name": "getMaxMana",
			"outputs": [
				{
					"internalType": "uint256",
					"name": "",
					"type": "uint256"
				}
			],
			"stateMutability": "view",
			"type": "function"
		},
		{
			"inputs": [
				{
					"internalType": "uint256",
					"name": "tokenId",
					"type": "uint256"
				}
			],
			"name": "getMaxStatPoints",
			"outputs": [
				{
					"internalType": "uint256",
					"name": "",
					"type": "uint256"
				}
			],
			"stateMutability": "view",
			"type": "function"
		},
		{
			"inputs": [
				{
					"internalType": "uint256",
					"name": "tokenId",
					"type": "uint256"
				}
			],
			"name": "getTokenAttributes",
			"outputs": [
				{
					"components": [
						{
							"internalType": "uint256",
							"name": "tokenId",
							"type": "uint256"
						},
						{
							"internalType": "uint256",
							"name": "strength",
							"type": "uint256"
						},
						{
							"internalType": "uint256",
							"name": "agility",
							"type": "uint256"
						},
						{
							"internalType": "uint256",
							"name": "energy",
							"type": "uint256"
						},
						{
							"internalType": "uint256",
							"name": "vitality",
							"type": "uint256"
						},
						{
							"internalType": "uint256",
							"name": "experience",
							"type": "uint256"
						},
						{
							"internalType": "uint256",
							"name": "healthAfterLastDmg",
							"type": "uint256"
						},
						{
							"internalType": "uint256",
							"name": "lastDmgBlockNumber",
							"type": "uint256"
						},
						{
							"internalType": "uint256",
							"name": "class",
							"type": "uint256"
						},
						{
							"internalType": "uint256",
							"name": "healthRegenerationBonus",
							"type": "uint256"
						},
						{
							"internalType": "uint256",
							"name": "manaAfterLastUse",
							"type": "uint256"
						},
						{
							"internalType": "uint256",
							"name": "lastManaUseBlock",
							"type": "uint256"
						},
						{
							"internalType": "uint256",
							"name": "manaRegenerationBonus",
							"type": "uint256"
						},
						{
							"internalType": "uint256",
							"name": "hpPerVitalityPoint",
							"type": "uint256"
						},
						{
							"internalType": "uint256",
							"name": "manaPerEnergyPoint",
							"type": "uint256"
						},
						{
							"internalType": "uint256",
							"name": "hpIncreasePerLevel",
							"type": "uint256"
						},
						{
							"internalType": "uint256",
							"name": "manaIncreasePerLevel",
							"type": "uint256"
						},
						{
							"internalType": "uint256",
							"name": "statPointsPerLevel",
							"type": "uint256"
						},
						{
							"internalType": "uint256",
							"name": "isNpc",
							"type": "uint256"
						},
						{
							"internalType": "uint256",
							"name": "helmSlot",
							"type": "uint256"
						},
						{
							"internalType": "uint256",
							"name": "armourSlot",
							"type": "uint256"
						},
						{
							"internalType": "uint256",
							"name": "pantsSlot",
							"type": "uint256"
						},
						{
							"internalType": "uint256",
							"name": "glovesSlot",
							"type": "uint256"
						},
						{
							"internalType": "uint256",
							"name": "bootsSlot",
							"type": "uint256"
						},
						{
							"internalType": "uint256",
							"name": "leftHandSlot",
							"type": "uint256"
						},
						{
							"internalType": "uint256",
							"name": "rightHandSlot",
							"type": "uint256"
						},
						{
							"internalType": "uint256",
							"name": "leftRingSlot",
							"type": "uint256"
						},
						{
							"internalType": "uint256",
							"name": "rightRingSlot",
							"type": "uint256"
						},
						{
							"internalType": "uint256",
							"name": "pendSlot",
							"type": "uint256"
						},
						{
							"internalType": "uint256",
							"name": "wingsSlot",
							"type": "uint256"
						}
					],
					"internalType": "struct FighterAttributes.Attributes",
					"name": "",
					"type": "tuple"
				}
			],
			"stateMutability": "view",
			"type": "function"
		},
		{
			"inputs": [
				{
					"internalType": "uint256",
					"name": "tokenId",
					"type": "uint256"
				}
			],
			"name": "getTotalUsedStatPoints",
			"outputs": [
				{
					"internalType": "uint256",
					"name": "",
					"type": "uint256"
				}
			],
			"stateMutability": "view",
			"type": "function"
		},
		{
			"inputs": [
				{
					"internalType": "uint256",
					"name": "tokenId",
					"type": "uint256"
				},
				{
					"internalType": "uint256",
					"name": "addExp",
					"type": "uint256"
				}
			],
			"name": "increaseExperience",
			"outputs": [],
			"stateMutability": "nonpayable",
			"type": "function"
		},
		{
			"inputs": [
				{
					"internalType": "address",
					"name": "owner",
					"type": "address"
				},
				{
					"internalType": "address",
					"name": "operator",
					"type": "address"
				}
			],
			"name": "isApprovedForAll",
			"outputs": [
				{
					"internalType": "bool",
					"name": "",
					"type": "bool"
				}
			],
			"stateMutability": "view",
			"type": "function"
		},
		{
			"inputs": [
				{
					"internalType": "address",
					"name": "",
					"type": "address"
				}
			],
			"name": "isGM",
			"outputs": [
				{
					"internalType": "bool",
					"name": "",
					"type": "bool"
				}
			],
			"stateMutability": "view",
			"type": "function"
		},
		{
			"inputs": [],
			"name": "name",
			"outputs": [
				{
					"internalType": "string",
					"name": "",
					"type": "string"
				}
			],
			"stateMutability": "view",
			"type": "function"
		},
		{
			"inputs": [],
			"name": "owner",
			"outputs": [
				{
					"internalType": "address",
					"name": "",
					"type": "address"
				}
			],
			"stateMutability": "view",
			"type": "function"
		},
		{
			"inputs": [
				{
					"internalType": "uint256",
					"name": "tokenId",
					"type": "uint256"
				}
			],
			"name": "ownerOf",
			"outputs": [
				{
					"internalType": "address",
					"name": "",
					"type": "address"
				}
			],
			"stateMutability": "view",
			"type": "function"
		},
		{
			"inputs": [
				{
					"internalType": "uint256",
					"name": "a",
					"type": "uint256"
				},
				{
					"internalType": "uint256",
					"name": "b",
					"type": "uint256"
				}
			],
			"name": "safeAdd",
			"outputs": [
				{
					"internalType": "uint256",
					"name": "",
					"type": "uint256"
				}
			],
			"stateMutability": "view",
			"type": "function"
		},
		{
			"inputs": [
				{
					"internalType": "uint256",
					"name": "a",
					"type": "uint256"
				},
				{
					"internalType": "uint256",
					"name": "b",
					"type": "uint256"
				}
			],
			"name": "safeMul",
			"outputs": [
				{
					"internalType": "uint256",
					"name": "",
					"type": "uint256"
				}
			],
			"stateMutability": "view",
			"type": "function"
		},
		{
			"inputs": [
				{
					"internalType": "uint256",
					"name": "a",
					"type": "uint256"
				},
				{
					"internalType": "uint256",
					"name": "b",
					"type": "uint256"
				}
			],
			"name": "safeSub",
			"outputs": [
				{
					"internalType": "uint256",
					"name": "",
					"type": "uint256"
				}
			],
			"stateMutability": "view",
			"type": "function"
		},
		{
			"inputs": [
				{
					"internalType": "address",
					"name": "from",
					"type": "address"
				},
				{
					"internalType": "address",
					"name": "to",
					"type": "address"
				},
				{
					"internalType": "uint256",
					"name": "tokenId",
					"type": "uint256"
				}
			],
			"name": "safeTransferFrom",
			"outputs": [],
			"stateMutability": "nonpayable",
			"type": "function"
		},
		{
			"inputs": [
				{
					"internalType": "address",
					"name": "from",
					"type": "address"
				},
				{
					"internalType": "address",
					"name": "to",
					"type": "address"
				},
				{
					"internalType": "uint256",
					"name": "tokenId",
					"type": "uint256"
				},
				{
					"internalType": "bytes",
					"name": "data",
					"type": "bytes"
				}
			],
			"name": "safeTransferFrom",
			"outputs": [],
			"stateMutability": "nonpayable",
			"type": "function"
		},
		{
			"inputs": [
				{
					"internalType": "uint256",
					"name": "val",
					"type": "uint256"
				}
			],
			"name": "setAgilityPerDefence",
			"outputs": [],
			"stateMutability": "nonpayable",
			"type": "function"
		},
		{
			"inputs": [
				{
					"internalType": "address",
					"name": "operator",
					"type": "address"
				},
				{
					"internalType": "bool",
					"name": "approved",
					"type": "bool"
				}
			],
			"name": "setApprovalForAll",
			"outputs": [],
			"stateMutability": "nonpayable",
			"type": "function"
		},
		{
			"inputs": [
				{
					"internalType": "address",
					"name": "contr",
					"type": "address"
				},
				{
					"internalType": "bool",
					"name": "isActive",
					"type": "bool"
				}
			],
			"name": "setBattleContract",
			"outputs": [],
			"stateMutability": "nonpayable",
			"type": "function"
		},
		{
			"inputs": [
				{
					"internalType": "uint256",
					"name": "val",
					"type": "uint256"
				}
			],
			"name": "setEnergyPerDamage",
			"outputs": [],
			"stateMutability": "nonpayable",
			"type": "function"
		},
		{
			"inputs": [
				{
					"internalType": "uint256",
					"name": "val",
					"type": "uint256"
				}
			],
			"name": "setExperienceDivider",
			"outputs": [],
			"stateMutability": "nonpayable",
			"type": "function"
		},
		{
			"inputs": [
				{
					"internalType": "address",
					"name": "gmAddress",
					"type": "address"
				},
				{
					"internalType": "bool",
					"name": "val",
					"type": "bool"
				}
			],
			"name": "setGM",
			"outputs": [],
			"stateMutability": "nonpayable",
			"type": "function"
		},
		{
			"inputs": [
				{
					"internalType": "uint256",
					"name": "val",
					"type": "uint256"
				}
			],
			"name": "setHealthRegenerationDivider",
			"outputs": [],
			"stateMutability": "nonpayable",
			"type": "function"
		},
		{
			"inputs": [
				{
					"internalType": "uint256",
					"name": "val",
					"type": "uint256"
				}
			],
			"name": "setManaRegenerationDivider",
			"outputs": [],
			"stateMutability": "nonpayable",
			"type": "function"
		},
		{
			"inputs": [
				{
					"internalType": "uint256",
					"name": "val",
					"type": "uint256"
				}
			],
			"name": "setMaxExperience",
			"outputs": [],
			"stateMutability": "nonpayable",
			"type": "function"
		},
		{
			"inputs": [
				{
					"internalType": "address",
					"name": "newOwner",
					"type": "address"
				}
			],
			"name": "setOwner",
			"outputs": [],
			"stateMutability": "nonpayable",
			"type": "function"
		},
		{
			"inputs": [
				{
					"internalType": "uint256",
					"name": "val",
					"type": "uint256"
				}
			],
			"name": "setStrengthPerDamage",
			"outputs": [],
			"stateMutability": "nonpayable",
			"type": "function"
		},
		{
			"inputs": [
				{
					"internalType": "bytes4",
					"name": "interfaceId",
					"type": "bytes4"
				}
			],
			"name": "supportsInterface",
			"outputs": [
				{
					"internalType": "bool",
					"name": "",
					"type": "bool"
				}
			],
			"stateMutability": "view",
			"type": "function"
		},
		{
			"inputs": [],
			"name": "symbol",
			"outputs": [
				{
					"internalType": "string",
					"name": "",
					"type": "string"
				}
			],
			"stateMutability": "view",
			"type": "function"
		},
		{
			"inputs": [
				{
					"internalType": "uint256",
					"name": "tokenId",
					"type": "uint256"
				}
			],
			"name": "tokenURI",
			"outputs": [
				{
					"internalType": "string",
					"name": "",
					"type": "string"
				}
			],
			"stateMutability": "view",
			"type": "function"
		},
		{
			"inputs": [
				{
					"internalType": "address",
					"name": "from",
					"type": "address"
				},
				{
					"internalType": "address",
					"name": "to",
					"type": "address"
				},
				{
					"internalType": "uint256",
					"name": "tokenId",
					"type": "uint256"
				}
			],
			"name": "transferFrom",
			"outputs": [],
			"stateMutability": "nonpayable",
			"type": "function"
		},
		{
			"inputs": [
				{
					"internalType": "uint256",
					"name": "tokenId",
					"type": "uint256"
				},
				{
					"internalType": "uint256",
					"name": "strength",
					"type": "uint256"
				},
				{
					"internalType": "uint256",
					"name": "agility",
					"type": "uint256"
				},
				{
					"internalType": "uint256",
					"name": "energy",
					"type": "uint256"
				},
				{
					"internalType": "uint256",
					"name": "vitality",
					"type": "uint256"
				}
			],
			"name": "updateFighterStats",
			"outputs": [],
			"stateMutability": "nonpayable",
			"type": "function"
		}
	]
}