{
	"data": {
		"bytecode": {
			"linkReferences": {},
			"object": "60806040523480156200001157600080fd5b5060405180604001604052806007815260200166436f6d6261747360c81b815250604051806040016040528060048152602001634974656d60e01b81525081600090816200006091906200014a565b5060016200006f82826200014a565b5050600a80546001600160a01b03191633179055506043805462ff000019166201000017905560016019819055601a5562000216565b634e487b7160e01b600052604160045260246000fd5b600181811c90821680620000d057607f821691505b602082108103620000f157634e487b7160e01b600052602260045260246000fd5b50919050565b601f8211156200014557600081815260208120601f850160051c81016020861015620001205750805b601f850160051c820191505b8181101562000141578281556001016200012c565b5050505b505050565b81516001600160401b03811115620001665762000166620000a5565b6200017e81620001778454620000bb565b84620000f7565b602080601f831160018114620001b657600084156200019d5750858301515b600019600386901b1c1916600185901b17855562000141565b600085815260208120601f198616915b82811015620001e757888601518255948401946001909101908401620001c6565b5085821015620002065787850151600019600388901b60f8161c191681555b5050505050600190811b01905550565b61473680620002266000396000f3fe608060405234801561001057600080fd5b50600436106101e55760003560e01c806375023ca81161010f578063b88d4fde116100a2578063e6cb901311610071578063e6cb901314610437578063e985e9c51461044a578063f10bbe1814610486578063fb5d7f10146104eb57600080fd5b8063b88d4fde146103de578063c87b56dd146103f1578063ce6019b414610404578063d05c78da1461042457600080fd5b806395d89b41116100de57806395d89b411461039d578063a22cb465146103a5578063a293d1e8146103b8578063b4148054146103cb57600080fd5b806375023ca8146103515780637f46914f1461036457806388feaacc146103775780638da5cb5b1461038a57600080fd5b80632f745c5911610187578063513c145211610156578063513c1452146102f85780636352211e1461031857806370a082311461032b5780637310dc8a1461033e57600080fd5b80632f745c59146102ac57806342842e0e146102bf578063483f31ab146102d25780634f6ccce7146102e557600080fd5b8063095ea7b3116101c3578063095ea7b31461025257806318160ddd146102675780631f4f5a231461027957806323b872dd1461029957600080fd5b806301ffc9a7146101ea57806306fdde0314610212578063081812fc14610227575b600080fd5b6101fd6101f8366004613981565b6104fe565b60405190151581526020015b60405180910390f35b61021a610529565b60405161020991906139ee565b61023a610235366004613a01565b6105bb565b6040516001600160a01b039091168152602001610209565b610265610260366004613a36565b6105e2565b005b6008545b604051908152602001610209565b61028c610287366004613a01565b6106fc565b6040516102099190613a60565b6102656102a7366004613dcd565b610aa3565b61026b6102ba366004613a36565b610ad4565b6102656102cd366004613dcd565b610b6a565b6102656102e0366004613a01565b610b85565b61026b6102f3366004613a01565b610c5c565b61030b610306366004613a36565b610cef565b6040516102099190613e09565b61023a610326366004613a01565b610dfd565b61026b610339366004613e72565b610e5d565b61021a61034c366004613a01565b610ee3565b61026b61035f366004613e8d565b610f7d565b610265610372366004613f31565b611753565b61026b610385366004613a01565b611bf6565b600a5461023a906001600160a01b031681565b61021a611f9f565b6102656103b3366004613f63565b611fae565b61026b6103c6366004613f31565b611fb9565b6102656103d9366004613ff3565b611fdc565b6102656103ec3660046140ed565b612230565b61021a6103ff366004613a01565b612268565b610417610412366004613e72565b6122db565b60405161020991906141c9565b61026b610432366004613f31565b61237d565b61026b610445366004613f31565b6123ad565b6101fd61045836600461420d565b6001600160a01b03918216600090815260056020908152604080832093909416825291909152205460ff1690565b6104c3610494366004613a01565b604460205260009081526040902080546001820154600383015460058401546007909401549293919290919085565b604080519586526020860194909452928401919091526060830152608082015260a001610209565b6102656104f9366004613a36565b6123d7565b60006001600160e01b0319821663780e9d6360e01b14806105235750610523826127aa565b92915050565b60606000805461053890614237565b80601f016020809104026020016040519081016040528092919081815260200182805461056490614237565b80156105b15780601f10610586576101008083540402835291602001916105b1565b820191906000526020600020905b81548152906001019060200180831161059457829003601f168201915b5050505050905090565b60006105c6826127fa565b506000908152600460205260409020546001600160a01b031690565b60006105ed82610dfd565b9050806001600160a01b0316836001600160a01b03160361065f5760405162461bcd60e51b815260206004820152602160248201527f4552433732313a20617070726f76616c20746f2063757272656e74206f776e656044820152603960f91b60648201526084015b60405180910390fd5b336001600160a01b038216148061067b575061067b8133610458565b6106ed5760405162461bcd60e51b815260206004820152603d60248201527f4552433732313a20617070726f76652063616c6c6572206973206e6f7420746f60448201527f6b656e206f776e6572206f7220617070726f76656420666f7220616c6c0000006064820152608401610656565b6106f7838361284d565b505050565b610704613723565b61070d826128bb565b6107295760405162461bcd60e51b815260040161065690614271565b6000828152600c60205260409081902081516107a0810190925280548290829061075290614237565b80601f016020809104026020016040519081016040528092919081815260200182805461077e90614237565b80156107cb5780601f106107a0576101008083540402835291602001916107cb565b820191906000526020600020905b8154815290600101906020018083116107ae57829003601f168201915b50505091835250506001820154602080830191909152600283015460408301526003830154606083015260048301546080830152600583015460a0830152600683015460c0830152600783015460e08301526008830154610100808401919091526009840154610120840152600a840154610140840152600b840154610160840152600c840154610180840152600d8401546101a0840152600e8401546101c0840152600f8401546101e08401526010840154610200840152601184015461022084015260128401546102408401526013840154610260840152601484015461028084015260158401546102a084015260168401546102c084015260178401546102e084015260188401546103008401526019840154610320840152601a840154610340840152601b840154610360840152601c840154610380840152601d8401546103a0840152601e8401546103c0840152601f8401546103e084015290830154610400830152602183015461042083015260228301546104408301526023830154610460830152602483015461048083015260258301546104a083015260268301546104c083015260278301546104e083015260288301546105008301526029830154610520830152602a830154610540830152602b830154610560830152602c830154610580830152602d8301546105a0830152602e8301546105c0830152602f8301546105e0830152603083015461060083015260318301546106208301526032830154610640830152603383015461066083015260349092015460ff8082161515610680840152928104831615156106a0830152620100008104831615156106c083015263010000008104831615156106e0830152640100000000810483161515610700830152600160281b810483161515610720830152600160301b810483161515610740830152600160381b810483161515610760830152600160401b900490911615156107809091015292915050565b610aad33826128d8565b610ac95760405162461bcd60e51b81526004016106569061429f565b6106f7838383612956565b6000610adf83610e5d565b8210610b415760405162461bcd60e51b815260206004820152602b60248201527f455243373231456e756d657261626c653a206f776e657220696e646578206f7560448201526a74206f6620626f756e647360a81b6064820152608401610656565b506001600160a01b03919091166000908152600660209081526040808320938352929052205490565b6106f783838360405180602001604052806000815250612230565b610b8e816128bb565b610baa5760405162461bcd60e51b815260040161065690614271565b33610bb482610dfd565b6001600160a01b031614610bfa5760405162461bcd60e51b815260206004820152600d60248201526c4e6f7420796f7572206974656d60981b6044820152606401610656565b6000610c05826106fc565b9050806107600151610c4f5760405162461bcd60e51b81526020600482015260136024820152724974656d206e6f7420636f6e73756d61626c6560681b6044820152606401610656565b610c5882612ac7565b5050565b6000610c6760085490565b8210610cca5760405162461bcd60e51b815260206004820152602c60248201527f455243373231456e756d657261626c653a20676c6f62616c20696e646578206f60448201526b7574206f6620626f756e647360a01b6064820152608401610656565b60088281548110610cdd57610cdd6142ec565b90600052602060002001549050919050565b60606000610cfc84610e5d565b905060008167ffffffffffffffff811115610d1957610d196140d7565b604051908082528060200260200182016040528015610d5257816020015b610d3f6138ed565b815260200190600190039081610d375790505b509050600080805b84811015610df157610d6c8882610ad4565b6000818152600c6020526040902060320154909350879003610dd1576040518060400160405280848152602001600c600086815260200190815260200160002060330154815250848381518110610dc557610dc56142ec565b60200260200101819052505b81610ddb81614318565b9250508080610de990614318565b915050610d5a565b50919695505050505050565b6000818152600260205260408120546001600160a01b0316806105235760405162461bcd60e51b8152602060048201526018602482015277115490cdcc8c4e881a5b9d985b1a59081d1bdad95b88125160421b6044820152606401610656565b60006001600160a01b038216610ec75760405162461bcd60e51b815260206004820152602960248201527f4552433732313a2061646472657373207a65726f206973206e6f7420612076616044820152683634b21037bbb732b960b91b6064820152608401610656565b506001600160a01b031660009081526003602052604090205490565b600b6020526000908152604090208054610efc90614237565b80601f0160208091040260200160405190810160405280929190818152602001828054610f2890614237565b8015610f755780601f10610f4a57610100808354040283529160200191610f75565b820191906000526020600020905b815481529060010190602001808311610f5857829003601f168201915b505050505081565b6000610f87613723565b85858080601f01602080910402602001604051908101604052809392919081815260200183838082843760009201829052509385525086929150610fc89050565b6020908102919091013590820152836001602002013560408201528360026020020135606082015283600360200201356080820152836004602002013560a0820152836005602002013560c0820152836006602002013560e082015283600760200201356101008201528360086020020135610120820152836009602002013561014082015283600a602002013561016082015283600b602002013561018082015283600c60200201356101a082015283600d60200201356101c082015283600e60200201356101e082015283600f6020020135610200820152836010602002013561022082015283601160200201356102408201528360126020020135610260820152836013602002013561028082015283601460200201356102a082015283601560200201356102c082015283601660200201356102e082015283601760200201356103008201528360186020020135610320820152836019602002013561034082015283601a602002013561036082015283601b602002013561038082015283601c60200201356103a082015283601d60200201356103c082015283601e60200201356103e082015283601f602090810291909101356104008301528490602002013561042082015283602160200201356104408201528360226020020135610460820152836023602002013561048082015283602460200201356104a082015283602560200201356104c082015283602660200201356104e082015283602760200201356105008201528360286020020135610520820152836029602002013561054082015283602a602002013561056082015283602b602002013561058082015283602c60200201356105a082015283602d60200201356105c082015283602e60200201356105e082015283602f602002013561060082015283603060200201356106208201528360306020020135610620820152836031602002013561064082015283603260200201356106608201528260006020020160208101906112b49190614331565b15156106808201526112cc6040840160208501614331565b15156106a08201526112e46060840160408501614331565b15156106c08201526112fc6080840160608501614331565b15156106e082015261131460a0840160808501614331565b151561070082015261132c60c0840160a08501614331565b151561072082015261134460e0840160c08501614331565b151561074082015261135d610100840160e08501614331565b151561076082015261137761012084016101008501614331565b1515610780820152600d8054600181018255600091909152815182916035027fd7b6990105719101dabeb77144f2a3385c8033acd3af97e9423a695e81ad1eb5019081906113c5908261439a565b5060208281015160018381019190915560408401516002840155606084015160038401556080840151600484015560a0840151600584015560c0840151600684015560e084015160078401556101008085015160088501556101208501516009850155610140850151600a850155610160850151600b850155610180850151600c8501556101a0850151600d808601919091556101c0860151600e8601556101e0860151600f860155610200860151601086015561022086015160118601556102408601516012860155610260860151601386015561028086015160148601556102a086015160158601556102c086015160168601556102e0860151601786015561030086015160188601556103208601516019860155610340860151601a860155610360860151601b860155610380860151601c8601556103a0860151601d8601556103c0860151601e8601556103e0860151601f8601556104008601519385019390935561042085015160218501556104408501516022850155610460850151602385015561048085015160248501556104a085015160258501556104c085015160268501556104e0850151602785015561050085015160288501556105208501516029850155610540850151602a850155610560850151602b850155610580850151602c8501556105a0850151602d8501556105c0850151602e8501556105e0850151602f8501556106008501516030850155610620850151603185015561064085015160328501556106608501516033850155610680850151603490940180546106a08701516106c08801516106e08901516107008a01516107208b01516107408c01516107608d0151610780909d015161ffff199097169b151561ff0019169b909b179415159097029390931763ffff00001916620100009215159290920263ff0000001916919091176301000000911515919091021765ffff0000000019166401000000009115159190910265ff0000000000191617600160281b931515939093029290921767ffff0000000000001916600160301b9515159590950260ff60381b191694909417600160381b951515959095029490941760ff60401b1916600160401b94151594909402939093179091555460009161170a9161445a565b90507f0538ce8dba67be446d1a480a6e48683b27c6efb61d7c01d60767e15705e5d00f81888860405161173f9392919061446d565b60405180910390a19150505b949350505050565b600d8281548110611766576117666142ec565b906000526020600020906035020160340160089054906101000a900460ff166117db5760405162461bcd60e51b815260206004820152602160248201527f4974656d206e6f7420696e2073686f70206f7220646f65736e277420657869736044820152601d60fa1b6064820152608401610656565b6117e9600e80546001019055565b60006117f4600e5490565b90506118003382612b6a565b611b9181600d8581548110611817576118176142ec565b9060005260206000209060350201604051806107a001604052908160008201805461184190614237565b80601f016020809104026020016040519081016040528092919081815260200182805461186d90614237565b80156118ba5780601f1061188f576101008083540402835291602001916118ba565b820191906000526020600020905b81548152906001019060200180831161189d57829003601f168201915b50505091835250506001820154602080830191909152600283015460408301526003830154606083015260048301546080830152600583015460a0830152600683015460c0830152600783015460e08301526008830154610100808401919091526009840154610120840152600a840154610140840152600b840154610160840152600c840154610180840152600d8401546101a0840152600e8401546101c0840152600f8401546101e08401526010840154610200840152601184015461022084015260128401546102408401526013840154610260840152601484015461028084015260158401546102a084015260168401546102c084015260178401546102e084015260188401546103008401526019840154610320840152601a840154610340840152601b840154610360840152601c840154610380840152601d8401546103a0840152601e8401546103c0840152601f8401546103e084015290830154610400830152602183015461042083015260228301546104408301526023830154610460830152602483015461048083015260258301546104a083015260268301546104c083015260278301546104e083015260288301546105008301526029830154610520830152602a830154610540830152602b830154610560830152602c830154610580830152602d8301546105a0830152602e8301546105c0830152602f8301546105e0830152603083015461060083015260318301546106208301526032830154610640830152603383015461066083015260349092015460ff8082161515610680840152928104831615156106a0830152620100008104831615156106c083015263010000008104831615156106e0830152640100000000810483161515610700830152600160281b810483161515610720830152600160301b810483161515610740830152600160381b810483161515610760830152600160401b9004909116151561078090910152612b84565b6000818152600c602052604090819020600181018390556032810184905543603382015590517f78cb587a56a0dc7913ec51993eb7f7bf182fca207bd1460930bc912747387edd91611be991849187913391906144a3565b60405180910390a1505050565b6000611c01826128bb565b611c1d5760405162461bcd60e51b815260040161065690614271565b6000828152600c602052604090206034015462010000900460ff16611c705760405162461bcd60e51b815260206004820152600960248201526809cdee840c240c4def60bb1b6044820152606401610656565b6000828152600c60209081526040808320600290810154808552604484528285208351610120810185528154815260018201548187015292810180548551818802810188018752818152939796949592949286019392830182828015611cf557602002820191906000526020600020905b815481526020019060010190808311611ce1575b505050505081526020016003820154815260200160048201805480602002602001604051908101604052809291908181526020018280548015611d5757602002820191906000526020600020905b815481526020019060010190808311611d43575b505050505081526020016005820154815260200160068201805480602002602001604051908101604052809291908181526020018280548015611db957602002820191906000526020600020905b815481526020019060010190808311611da5575b505050505081526020016007820154815260200160088201805480602002602001604051908101604052809291908181526020018280548015611e1b57602002820191906000526020600020905b815481526020019060010190808311611e07575b50505050508152505090506000611e4a826020015161044584606001516104458660a001518760e001516123ad565b90506000611e56612efb565b905060008080600080868611611ef55787602001518611611e895760019350611e828860400151612f12565b9450611f06565b611e9b886020015189606001516123ad565b8611611eb25760019250611e828860800151612f12565b611ecc8860a001516104458a602001518b606001516123ad565b8611611ee35760019150611e828860c00151612f12565b60019050611e82886101000151612f12565b5060009a9950505050505050505050565b611f14600e80546001019055565b6000611f1f600e5490565b9050611f2b3382612b6a565b611f4281600d8881548110611817576118176142ec565b6000818152600c602090815260409182902060010183905581513381529081018390527fca303f21e08537b41000f97158de2ebca16244cb81143c3d691b410b0a2b8a4c910160405180910390a19b9a5050505050505050505050565b60606001805461053890614237565b610c58338383612f4e565b600082821115611fcb57611fcb61454c565b611fd5828461445a565b9392505050565b60006040518061012001604052808c81526020018b600060048110612003576120036142ec565b602002013581526020018a8a808060200260200160405190810160405280939291908181526020018383602002808284376000920191909152505050908252506020018b6001602002013581526020018888808060200260200160405190810160405280939291908181526020018383602002808284376000920191909152505050908252506020018b6002602002013581526020018686808060200260200160405190810160405280939291908181526020018383602002808284376000920191909152505050908252506020018b60036020020135815260200184848080602002602001604051908101604052809392919081815260200183836020028082843760009201829052509390945250508d815260446020908152604091829020845181558185015160018201559184015180519495508594929350612152926002850192919091019061390b565b50606082015160038201556080820151805161217891600484019160209091019061390b565b5060a0820151600582015560c0820151805161219e91600684019160209091019061390b565b5060e0820151600782015561010082015180516121c591600884019160209091019061390b565b5050604080518d81528c356020828101919091528d013581830152908c01356060808301919091528c013560808201527f86f382a6bc7e045486af422eb9e8f96528c8a6c437f0088461c6879f4c80fed9915060a00160405180910390a15050505050505050505050565b61223a33836128d8565b6122565760405162461bcd60e51b81526004016106569061429f565b6122628484848461301c565b50505050565b6060612273826127fa565b600061228a60408051602081019091526000815290565b905060008151116122aa5760405180602001604052806000815250611fd5565b806122b48461304f565b6040516020016122c5929190614562565b6040516020818303038152906040529392505050565b606060006122e883610e5d565b905060008167ffffffffffffffff811115612305576123056140d7565b60405190808252806020026020018201604052801561232e578160200160208202803683370190505b50905060005b82811015612375576123468582610ad4565b828281518110612358576123586142ec565b60209081029190910101528061236d81614318565b915050612334565b509392505050565b60008061238a8385614591565b90508315806123a157508261239f85836145be565b145b611fd557611fd561454c565b6000806123ba83856145d2565b90508381101580156123a1575082811015611fd557611fd561454c565b60006123e46032836145be565b90506123f4600e80546001019055565b60006123ff600e5490565b905061240b8482612b6a565b6000600f604051806107a001604052908160008201805461242b90614237565b80601f016020809104026020016040519081016040528092919081815260200182805461245790614237565b80156124a45780601f10612479576101008083540402835291602001916124a4565b820191906000526020600020905b81548152906001019060200180831161248757829003601f168201915b5050509183525050600182015460208083019190915260028301546040808401919091526003840154606084015260048401546080840152600584015460a0840152600684015460c0840152600784015460e08401526008840154610100808501919091526009850154610120850152600a850154610140850152600b850154610160850152600c850154610180850152600d8501546101a0850152600e8501546101c0850152600f808601546101e0860152601086015461020086015260118087015461022087015260128701546102408701526013870154610260870152601487015461028087015260158701546102a087015260168701546102c087015260178701546102e087015260188701546103008701526019870154610320870152601a870154610340870152601b870154610360870152601c870154610380870152601d8701546103a0870152601e8701546103c0870152601f8701546103e087015293860154610400860152602186015461042086015260228601546104408601526023860154610460860152602486015461048086015260258601546104a086015260268601546104c086015260278601546104e086015260288601546105008601526029860154610520860152602a860154610540860152602b860154610560860152602c860154610580860152602d8601546105a0860152602e8601546105c0860152602f8601546105e0860152603086015461060086015260318601546106208601526032860154610640860152603386015461066086015260349095015460ff8082161515610680870152918104821615156106a0860152620100008104821615156106c086015263010000008104821615156106e0860152640100000000810482161515610700860152600160281b810482161515610720860152600160301b810482161515610740860152600160381b810482161515610760860152600160401b90041615156107809093019290925286905580516107a0810190915281549293506127a3928592908290829061184190614237565b5050505050565b60006001600160e01b031982166380ac58cd60e01b14806127db57506001600160e01b03198216635b5e139f60e01b145b8061052357506301ffc9a760e01b6001600160e01b0319831614610523565b612803816128bb565b61284a5760405162461bcd60e51b8152602060048201526018602482015277115490cdcc8c4e881a5b9d985b1a59081d1bdad95b88125160421b6044820152606401610656565b50565b600081815260046020526040902080546001600160a01b0319166001600160a01b038416908117909155819061288282610dfd565b6001600160a01b03167f8c5be1e5ebec7d5bd14f71427d1e84f3dd0314c0f7b2291e5b200ac8c7c3b92560405160405180910390a45050565b6000908152600260205260409020546001600160a01b0316151590565b6000806128e483610dfd565b9050806001600160a01b0316846001600160a01b0316148061292b57506001600160a01b0380821660009081526005602090815260408083209388168352929052205460ff165b8061174b5750836001600160a01b0316612944846105bb565b6001600160a01b031614949350505050565b826001600160a01b031661296982610dfd565b6001600160a01b03161461298f5760405162461bcd60e51b8152600401610656906145e5565b6001600160a01b0382166129f15760405162461bcd60e51b8152602060048201526024808201527f4552433732313a207472616e7366657220746f20746865207a65726f206164646044820152637265737360e01b6064820152608401610656565b6129fe83838360016130e2565b826001600160a01b0316612a1182610dfd565b6001600160a01b031614612a375760405162461bcd60e51b8152600401610656906145e5565b600081815260046020908152604080832080546001600160a01b03199081169091556001600160a01b0387811680865260038552838620805460001901905590871680865283862080546001019055868652600290945282852080549092168417909155905184937fddf252ad1be2c89b69c2b068fc378daa952ba7f163c4a11628f55a4df523b3ef91a4505050565b6000612ad282610dfd565b9050612ae28160008460016130e2565b612aeb82610dfd565b600083815260046020908152604080832080546001600160a01b03199081169091556001600160a01b0385168085526003845282852080546000190190558785526002909352818420805490911690555192935084927fddf252ad1be2c89b69c2b068fc378daa952ba7f163c4a11628f55a4df523b3ef908390a45050565b610c5882826040518060200160405280600081525061320f565b612b8d826128bb565b612ba95760405162461bcd60e51b815260040161065690614271565b6000828152600c6020526040902081518291908190612bc8908261439a565b50602082810151600183015560408301516002830155606083015160038301556080830151600483015560a0830151600583015560c0830151600683015560e083015160078301556101008084015160088401556101208401516009840155610140840151600a840155610160840151600b840155610180840151600c8401556101a0840151600d8401556101c0840151600e8401556101e0840151600f840155610200840151601084015561022084015160118401556102408401516012840155610260840151601384015561028084015160148401556102a084015160158401556102c084015160168401556102e0840151601784015561030084015160188401556103208401516019840155610340840151601a840155610360840151601b840155610380840151601c8401556103a0840151601d8401556103c0840151601e8401556103e0840151601f8401556104008401519183019190915561042083015160218301556104408301516022830155610460830151602383015561048083015160248301556104a083015160258301556104c083015160268301556104e0830151602783015561050083015160288301556105208301516029830155610540830151602a830155610560830151602b830155610580830151602c8301556105a0830151602d8301556105c0830151602e8301556105e0830151602f8301556106008301516030830155610620830151603183015561064083015160328301556106608301516033830155610680830151603490920180546106a08501516106c08601516106e08701516107008801516107208901516107408a01516107608b0151610780909b015161ffff1990971699151561ff001916999099179415159097029390931763ffff00001916620100009215159290920263ff0000001916919091176301000000911515919091021765ffff0000000019166401000000009115159190910265ff0000000000191617600160281b931515939093029290921767ffff0000000000001916600160301b9315159390930260ff60381b191692909217600160381b931515939093029290921760ff60401b1916600160401b921515929092029190911790555050565b60004481612f0a60648361462a565b509092915050565b600080612f1d612efb565b835190915083612f2d828461462a565b81518110612f3d57612f3d6142ec565b602002602001015192505050919050565b816001600160a01b0316836001600160a01b031603612faf5760405162461bcd60e51b815260206004820152601960248201527f4552433732313a20617070726f766520746f2063616c6c6572000000000000006044820152606401610656565b6001600160a01b03838116600081815260056020908152604080832094871680845294825291829020805460ff191686151590811790915591519182527f17307eab39ab6107e8899845ad3d59bd9653f200f220920489ca2b5937696c31910160405180910390a3505050565b613027848484612956565b61303384848484613242565b6122625760405162461bcd60e51b81526004016106569061463e565b6060600061305c83613340565b600101905060008167ffffffffffffffff81111561307c5761307c6140d7565b6040519080825280601f01601f1916602001820160405280156130a6576020820181803683370190505b5090508181016020015b600019016f181899199a1a9b1b9c1cb0b131b232b360811b600a86061a8153600a85049450846130b057509392505050565b60018111156131515760405162461bcd60e51b815260206004820152603560248201527f455243373231456e756d657261626c653a20636f6e7365637574697665207472604482015274185b9cd9995c9cc81b9bdd081cdd5c1c1bdc9d1959605a1b6064820152608401610656565b816001600160a01b0385166131ad576131a881600880546000838152600960205260408120829055600182018355919091527ff3f7a9fe364faab93b216da50a3214154f22a0a2b415b23a84c8169e8b636ee30155565b6131d0565b836001600160a01b0316856001600160a01b0316146131d0576131d08582613418565b6001600160a01b0384166131ec576131e7816134b5565b6127a3565b846001600160a01b0316846001600160a01b0316146127a3576127a38482613564565b61321983836135a8565b6132266000848484613242565b6106f75760405162461bcd60e51b81526004016106569061463e565b60006001600160a01b0384163b1561333857604051630a85bd0160e11b81526001600160a01b0385169063150b7a0290613286903390899088908890600401614690565b6020604051808303816000875af19250505080156132c1575060408051601f3d908101601f191682019092526132be918101906146cd565b60015b61331e573d8080156132ef576040519150601f19603f3d011682016040523d82523d6000602084013e6132f4565b606091505b5080516000036133165760405162461bcd60e51b81526004016106569061463e565b805181602001fd5b6001600160e01b031916630a85bd0160e11b14905061174b565b50600161174b565b60008072184f03e93ff9f4daa797ed6e38ed64bf6a1f0160401b831061337f5772184f03e93ff9f4daa797ed6e38ed64bf6a1f0160401b830492506040015b6d04ee2d6d415b85acef810000000083106133ab576d04ee2d6d415b85acef8100000000830492506020015b662386f26fc1000083106133c957662386f26fc10000830492506010015b6305f5e10083106133e1576305f5e100830492506008015b61271083106133f557612710830492506004015b60648310613407576064830492506002015b600a83106105235760010192915050565b6000600161342584610e5d565b61342f919061445a565b600083815260076020526040902054909150808214613482576001600160a01b03841660009081526006602090815260408083208584528252808320548484528184208190558352600790915290208190555b5060009182526007602090815260408084208490556001600160a01b039094168352600681528383209183525290812055565b6008546000906134c79060019061445a565b600083815260096020526040812054600880549394509092849081106134ef576134ef6142ec565b906000526020600020015490508060088381548110613510576135106142ec565b6000918252602080832090910192909255828152600990915260408082208490558582528120556008805480613548576135486146ea565b6001900381819060005260206000200160009055905550505050565b600061356f83610e5d565b6001600160a01b039093166000908152600660209081526040808320868452825280832085905593825260079052919091209190915550565b6001600160a01b0382166135fe5760405162461bcd60e51b815260206004820181905260248201527f4552433732313a206d696e7420746f20746865207a65726f20616464726573736044820152606401610656565b613607816128bb565b156136545760405162461bcd60e51b815260206004820152601c60248201527f4552433732313a20746f6b656e20616c7265616479206d696e746564000000006044820152606401610656565b6136626000838360016130e2565b61366b816128bb565b156136b85760405162461bcd60e51b815260206004820152601c60248201527f4552433732313a20746f6b656e20616c7265616479206d696e746564000000006044820152606401610656565b6001600160a01b038216600081815260036020908152604080832080546001019055848352600290915280822080546001600160a01b0319168417905551839291907fddf252ad1be2c89b69c2b068fc378daa952ba7f163c4a11628f55a4df523b3ef908290a45050565b604051806107a00160405280606081526020016000815260200160008152602001600081526020016000815260200160008152602001600081526020016000815260200160008152602001600081526020016000815260200160008152602001600081526020016000815260200160008152602001600081526020016000815260200160008152602001600081526020016000815260200160008152602001600081526020016000815260200160008152602001600081526020016000815260200160008152602001600081526020016000815260200160008152602001600081526020016000815260200160008152602001600081526020016000815260200160008152602001600081526020016000815260200160008152602001600081526020016000815260200160008152602001600081526020016000815260200160008152602001600081526020016000815260200160008152602001600081526020016000815260200160008152602001600081526020016000151581526020016000151581526020016000151581526020016000151581526020016000151581526020016000151581526020016000151581526020016000151581526020016000151581525090565b60405180604001604052806002906020820280368337509192915050565b828054828255906000526020600020908101928215613946579160200282015b8281111561394657825182559160200191906001019061392b565b50613952929150613956565b5090565b5b808211156139525760008155600101613957565b6001600160e01b03198116811461284a57600080fd5b60006020828403121561399357600080fd5b8135611fd58161396b565b60005b838110156139b95781810151838201526020016139a1565b50506000910152565b600081518084526139da81602086016020860161399e565b601f01601f19169290920160200192915050565b602081526000611fd560208301846139c2565b600060208284031215613a1357600080fd5b5035919050565b80356001600160a01b0381168114613a3157600080fd5b919050565b60008060408385031215613a4957600080fd5b613a5283613a1a565b946020939093013593505050565b60208152600082516107a0806020850152613a7f6107c08501836139c2565b602086015160408681019190915286015160608087019190915286015160808087019190915286015160a08087019190915286015160c08087019190915286015160e08087019190915286015161010080870191909152860151610120808701919091528601516101408087019190915286015161016080870191909152860151610180808701919091528601516101a0808701919091528601516101c0808701919091528601516101e08087019190915286015161020080870191909152860151610220808701919091528601516102408087019190915286015161026080870191909152860151610280808701919091528601516102a0808701919091528601516102c0808701919091528601516102e08087019190915286015161030080870191909152860151610320808701919091528601516103408087019190915286015161036080870191909152860151610380808701919091528601516103a0808701919091528601516103c0808701919091528601516103e08087019190915286015161040080870191909152860151610420808701919091528601516104408087019190915286015161046080870191909152860151610480808701919091528601516104a0808701919091528601516104c0808701919091528601516104e08087019190915286015161050080870191909152860151610520808701919091528601516105408087019190915286015161056080870191909152860151610580808701919091528601516105a0808701919091528601516105c0808701919091528601516105e08087019190915286015161060080870191909152860151610620808701919091528601516106408087019190915286015161066080870191909152860151610680808701919091528601519092506106a0613d288187018315159052565b86015190506106c0613d3d8682018315159052565b86015190506106e0613d528682018315159052565b8601519050610700613d678682018315159052565b8601519050610720613d7c8682018315159052565b8601519050610740613d918682018315159052565b8601519050610760613da68682018315159052565b8601519050610780613dbb8682018315159052565b90950151151593019290925250919050565b600080600060608486031215613de257600080fd5b613deb84613a1a565b9250613df960208501613a1a565b9150604084013590509250925092565b60208082528251828201819052600091906040908185019086840185805b83811015613e6457825185835b6002811015613e5157825182529189019190890190600101613e34565b5050509385019391860191600101613e27565b509298975050505050505050565b600060208284031215613e8457600080fd5b611fd582613a1a565b6000806000806107a0808688031215613ea557600080fd5b853567ffffffffffffffff80821115613ebd57600080fd5b818801915088601f830112613ed157600080fd5b813581811115613ee057600080fd5b896020828501011115613ef257600080fd5b602083019750809650505050610680860187811115613f1057600080fd5b602087019350878288011115613f2557600080fd5b94979396509194505050565b60008060408385031215613f4457600080fd5b50508035926020909101359150565b80358015158114613a3157600080fd5b60008060408385031215613f7657600080fd5b613f7f83613a1a565b9150613f8d60208401613f53565b90509250929050565b806080810183101561052357600080fd5b60008083601f840112613fb957600080fd5b50813567ffffffffffffffff811115613fd157600080fd5b6020830191508360208260051b8501011115613fec57600080fd5b9250929050565b6000806000806000806000806000806101208b8d03121561401357600080fd5b8a3599506140248c60208d01613f96565b985060a08b013567ffffffffffffffff8082111561404157600080fd5b61404d8e838f01613fa7565b909a50985060c08d013591508082111561406657600080fd5b6140728e838f01613fa7565b909850965060e08d013591508082111561408b57600080fd5b6140978e838f01613fa7565b90965094506101008d01359150808211156140b157600080fd5b506140be8d828e01613fa7565b915080935050809150509295989b9194979a5092959850565b634e487b7160e01b600052604160045260246000fd5b6000806000806080858703121561410357600080fd5b61410c85613a1a565b935061411a60208601613a1a565b925060408501359150606085013567ffffffffffffffff8082111561413e57600080fd5b818701915087601f83011261415257600080fd5b813581811115614164576141646140d7565b604051601f8201601f19908116603f0116810190838211818310171561418c5761418c6140d7565b816040528281528a60208487010111156141a557600080fd5b82602086016020830137600060208483010152809550505050505092959194509250565b6020808252825182820181905260009190848201906040850190845b81811015614201578351835292840192918401916001016141e5565b50909695505050505050565b6000806040838503121561422057600080fd5b61422983613a1a565b9150613f8d60208401613a1a565b600181811c9082168061424b57607f821691505b60208210810361426b57634e487b7160e01b600052602260045260246000fd5b50919050565b602080825260149082015273151bdad95b88191bd95cc81b9bdd08195e1a5cdd60621b604082015260600190565b6020808252602d908201527f4552433732313a2063616c6c6572206973206e6f7420746f6b656e206f776e6560408201526c1c881bdc88185c1c1c9bdd9959609a1b606082015260800190565b634e487b7160e01b600052603260045260246000fd5b634e487b7160e01b600052601160045260246000fd5b60006001820161432a5761432a614302565b5060010190565b60006020828403121561434357600080fd5b611fd582613f53565b601f8211156106f757600081815260208120601f850160051c810160208610156143735750805b601f850160051c820191505b818110156143925782815560010161437f565b505050505050565b815167ffffffffffffffff8111156143b4576143b46140d7565b6143c8816143c28454614237565b8461434c565b602080601f8311600181146143fd57600084156143e55750858301515b600019600386901b1c1916600185901b178555614392565b600085815260208120601f198616915b8281101561442c5788860151825594840194600190910190840161440d565b508582101561444a5787850151600019600388901b60f8161c191681555b5050505050600190811b01905550565b8181038181111561052357610523614302565b83815260406020820152816040820152818360608301376000818301606090810191909152601f909201601f1916010192915050565b84815260006020858184015260018060a01b038516604084015260806060840152600084546144d181614237565b80608087015260a06001808416600081146144f3576001811461450d5761453b565b60ff1985168984015283151560051b89018301955061453b565b896000528660002060005b858110156145335781548b8201860152908301908801614518565b8a0184019650505b50939b9a5050505050505050505050565b634e487b7160e01b600052600160045260246000fd5b6000835161457481846020880161399e565b83519083019061458881836020880161399e565b01949350505050565b808202811582820484141761052357610523614302565b634e487b7160e01b600052601260045260246000fd5b6000826145cd576145cd6145a8565b500490565b8082018082111561052357610523614302565b60208082526025908201527f4552433732313a207472616e736665722066726f6d20696e636f72726563742060408201526437bbb732b960d91b606082015260800190565b600082614639576146396145a8565b500690565b60208082526032908201527f4552433732313a207472616e7366657220746f206e6f6e20455243373231526560408201527131b2b4bb32b91034b6b83632b6b2b73a32b960711b606082015260800190565b6001600160a01b03858116825284166020820152604081018390526080606082018190526000906146c3908301846139c2565b9695505050505050565b6000602082840312156146df57600080fd5b8151611fd58161396b565b634e487b7160e01b600052603160045260246000fdfea2646970667358221220fe303c192d29d21cb2b7040f368d64ddd2f4a3638d92932cd3ba09add149c1d364736f6c63430008130033",
			"opcodes": "PUSH1 0x80 PUSH1 0x40 MSTORE CALLVALUE DUP1 ISZERO PUSH3 0x11 JUMPI PUSH1 0x0 DUP1 REVERT JUMPDEST POP PUSH1 0x40 MLOAD DUP1 PUSH1 0x40 ADD PUSH1 0x40 MSTORE DUP1 PUSH1 0x7 DUP2 MSTORE PUSH1 0x20 ADD PUSH7 0x436F6D62617473 PUSH1 0xC8 SHL DUP2 MSTORE POP PUSH1 0x40 MLOAD DUP1 PUSH1 0x40 ADD PUSH1 0x40 MSTORE DUP1 PUSH1 0x4 DUP2 MSTORE PUSH1 0x20 ADD PUSH4 0x4974656D PUSH1 0xE0 SHL DUP2 MSTORE POP DUP2 PUSH1 0x0 SWAP1 DUP2 PUSH3 0x60 SWAP2 SWAP1 PUSH3 0x14A JUMP JUMPDEST POP PUSH1 0x1 PUSH3 0x6F DUP3 DUP3 PUSH3 0x14A JUMP JUMPDEST POP POP PUSH1 0xA DUP1 SLOAD PUSH1 0x1 PUSH1 0x1 PUSH1 0xA0 SHL SUB NOT AND CALLER OR SWAP1 SSTORE POP PUSH1 0x43 DUP1 SLOAD PUSH3 0xFF0000 NOT AND PUSH3 0x10000 OR SWAP1 SSTORE PUSH1 0x1 PUSH1 0x19 DUP2 SWAP1 SSTORE PUSH1 0x1A SSTORE PUSH3 0x216 JUMP JUMPDEST PUSH4 0x4E487B71 PUSH1 0xE0 SHL PUSH1 0x0 MSTORE PUSH1 0x41 PUSH1 0x4 MSTORE PUSH1 0x24 PUSH1 0x0 REVERT JUMPDEST PUSH1 0x1 DUP2 DUP2 SHR SWAP1 DUP3 AND DUP1 PUSH3 0xD0 JUMPI PUSH1 0x7F DUP3 AND SWAP2 POP JUMPDEST PUSH1 0x20 DUP3 LT DUP2 SUB PUSH3 0xF1 JUMPI PUSH4 0x4E487B71 PUSH1 0xE0 SHL PUSH1 0x0 MSTORE PUSH1 0x22 PUSH1 0x4 MSTORE PUSH1 0x24 PUSH1 0x0 REVERT JUMPDEST POP SWAP2 SWAP1 POP JUMP JUMPDEST PUSH1 0x1F DUP3 GT ISZERO PUSH3 0x145 JUMPI PUSH1 0x0 DUP2 DUP2 MSTORE PUSH1 0x20 DUP2 KECCAK256 PUSH1 0x1F DUP6 ADD PUSH1 0x5 SHR DUP2 ADD PUSH1 0x20 DUP7 LT ISZERO PUSH3 0x120 JUMPI POP DUP1 JUMPDEST PUSH1 0x1F DUP6 ADD PUSH1 0x5 SHR DUP3 ADD SWAP2 POP JUMPDEST DUP2 DUP2 LT ISZERO PUSH3 0x141 JUMPI DUP3 DUP2 SSTORE PUSH1 0x1 ADD PUSH3 0x12C JUMP JUMPDEST POP POP POP JUMPDEST POP POP POP JUMP JUMPDEST DUP2 MLOAD PUSH1 0x1 PUSH1 0x1 PUSH1 0x40 SHL SUB DUP2 GT ISZERO PUSH3 0x166 JUMPI PUSH3 0x166 PUSH3 0xA5 JUMP JUMPDEST PUSH3 0x17E DUP2 PUSH3 0x177 DUP5 SLOAD PUSH3 0xBB JUMP JUMPDEST DUP5 PUSH3 0xF7 JUMP JUMPDEST PUSH1 0x20 DUP1 PUSH1 0x1F DUP4 GT PUSH1 0x1 DUP2 EQ PUSH3 0x1B6 JUMPI PUSH1 0x0 DUP5 ISZERO PUSH3 0x19D JUMPI POP DUP6 DUP4 ADD MLOAD JUMPDEST PUSH1 0x0 NOT PUSH1 0x3 DUP7 SWAP1 SHL SHR NOT AND PUSH1 0x1 DUP6 SWAP1 SHL OR DUP6 SSTORE PUSH3 0x141 JUMP JUMPDEST PUSH1 0x0 DUP6 DUP2 MSTORE PUSH1 0x20 DUP2 KECCAK256 PUSH1 0x1F NOT DUP7 AND SWAP2 JUMPDEST DUP3 DUP2 LT ISZERO PUSH3 0x1E7 JUMPI DUP9 DUP7 ADD MLOAD DUP3 SSTORE SWAP5 DUP5 ADD SWAP5 PUSH1 0x1 SWAP1 SWAP2 ADD SWAP1 DUP5 ADD PUSH3 0x1C6 JUMP JUMPDEST POP DUP6 DUP3 LT ISZERO PUSH3 0x206 JUMPI DUP8 DUP6 ADD MLOAD PUSH1 0x0 NOT PUSH1 0x3 DUP9 SWAP1 SHL PUSH1 0xF8 AND SHR NOT AND DUP2 SSTORE JUMPDEST POP POP POP POP POP PUSH1 0x1 SWAP1 DUP2 SHL ADD SWAP1 SSTORE POP JUMP JUMPDEST PUSH2 0x4736 DUP1 PUSH3 0x226 PUSH1 0x0 CODECOPY PUSH1 0x0 RETURN INVALID PUSH1 0x80 PUSH1 0x40 MSTORE CALLVALUE DUP1 ISZERO PUSH2 0x10 JUMPI PUSH1 0x0 DUP1 REVERT JUMPDEST POP PUSH1 0x4 CALLDATASIZE LT PUSH2 0x1E5 JUMPI PUSH1 0x0 CALLDATALOAD PUSH1 0xE0 SHR DUP1 PUSH4 0x75023CA8 GT PUSH2 0x10F JUMPI DUP1 PUSH4 0xB88D4FDE GT PUSH2 0xA2 JUMPI DUP1 PUSH4 0xE6CB9013 GT PUSH2 0x71 JUMPI DUP1 PUSH4 0xE6CB9013 EQ PUSH2 0x437 JUMPI DUP1 PUSH4 0xE985E9C5 EQ PUSH2 0x44A JUMPI DUP1 PUSH4 0xF10BBE18 EQ PUSH2 0x486 JUMPI DUP1 PUSH4 0xFB5D7F10 EQ PUSH2 0x4EB JUMPI PUSH1 0x0 DUP1 REVERT JUMPDEST DUP1 PUSH4 0xB88D4FDE EQ PUSH2 0x3DE JUMPI DUP1 PUSH4 0xC87B56DD EQ PUSH2 0x3F1 JUMPI DUP1 PUSH4 0xCE6019B4 EQ PUSH2 0x404 JUMPI DUP1 PUSH4 0xD05C78DA EQ PUSH2 0x424 JUMPI PUSH1 0x0 DUP1 REVERT JUMPDEST DUP1 PUSH4 0x95D89B41 GT PUSH2 0xDE JUMPI DUP1 PUSH4 0x95D89B41 EQ PUSH2 0x39D JUMPI DUP1 PUSH4 0xA22CB465 EQ PUSH2 0x3A5 JUMPI DUP1 PUSH4 0xA293D1E8 EQ PUSH2 0x3B8 JUMPI DUP1 PUSH4 0xB4148054 EQ PUSH2 0x3CB JUMPI PUSH1 0x0 DUP1 REVERT JUMPDEST DUP1 PUSH4 0x75023CA8 EQ PUSH2 0x351 JUMPI DUP1 PUSH4 0x7F46914F EQ PUSH2 0x364 JUMPI DUP1 PUSH4 0x88FEAACC EQ PUSH2 0x377 JUMPI DUP1 PUSH4 0x8DA5CB5B EQ PUSH2 0x38A JUMPI PUSH1 0x0 DUP1 REVERT JUMPDEST DUP1 PUSH4 0x2F745C59 GT PUSH2 0x187 JUMPI DUP1 PUSH4 0x513C1452 GT PUSH2 0x156 JUMPI DUP1 PUSH4 0x513C1452 EQ PUSH2 0x2F8 JUMPI DUP1 PUSH4 0x6352211E EQ PUSH2 0x318 JUMPI DUP1 PUSH4 0x70A08231 EQ PUSH2 0x32B JUMPI DUP1 PUSH4 0x7310DC8A EQ PUSH2 0x33E JUMPI PUSH1 0x0 DUP1 REVERT JUMPDEST DUP1 PUSH4 0x2F745C59 EQ PUSH2 0x2AC JUMPI DUP1 PUSH4 0x42842E0E EQ PUSH2 0x2BF JUMPI DUP1 PUSH4 0x483F31AB EQ PUSH2 0x2D2 JUMPI DUP1 PUSH4 0x4F6CCCE7 EQ PUSH2 0x2E5 JUMPI PUSH1 0x0 DUP1 REVERT JUMPDEST DUP1 PUSH4 0x95EA7B3 GT PUSH2 0x1C3 JUMPI DUP1 PUSH4 0x95EA7B3 EQ PUSH2 0x252 JUMPI DUP1 PUSH4 0x18160DDD EQ PUSH2 0x267 JUMPI DUP1 PUSH4 0x1F4F5A23 EQ PUSH2 0x279 JUMPI DUP1 PUSH4 0x23B872DD EQ PUSH2 0x299 JUMPI PUSH1 0x0 DUP1 REVERT JUMPDEST DUP1 PUSH4 0x1FFC9A7 EQ PUSH2 0x1EA JUMPI DUP1 PUSH4 0x6FDDE03 EQ PUSH2 0x212 JUMPI DUP1 PUSH4 0x81812FC EQ PUSH2 0x227 JUMPI JUMPDEST PUSH1 0x0 DUP1 REVERT JUMPDEST PUSH2 0x1FD PUSH2 0x1F8 CALLDATASIZE PUSH1 0x4 PUSH2 0x3981 JUMP JUMPDEST PUSH2 0x4FE JUMP JUMPDEST PUSH1 0x40 MLOAD SWAP1 ISZERO ISZERO DUP2 MSTORE PUSH1 0x20 ADD JUMPDEST PUSH1 0x40 MLOAD DUP1 SWAP2 SUB SWAP1 RETURN JUMPDEST PUSH2 0x21A PUSH2 0x529 JUMP JUMPDEST PUSH1 0x40 MLOAD PUSH2 0x209 SWAP2 SWAP1 PUSH2 0x39EE JUMP JUMPDEST PUSH2 0x23A PUSH2 0x235 CALLDATASIZE PUSH1 0x4 PUSH2 0x3A01 JUMP JUMPDEST PUSH2 0x5BB JUMP JUMPDEST PUSH1 0x40 MLOAD PUSH1 0x1 PUSH1 0x1 PUSH1 0xA0 SHL SUB SWAP1 SWAP2 AND DUP2 MSTORE PUSH1 0x20 ADD PUSH2 0x209 JUMP JUMPDEST PUSH2 0x265 PUSH2 0x260 CALLDATASIZE PUSH1 0x4 PUSH2 0x3A36 JUMP JUMPDEST PUSH2 0x5E2 JUMP JUMPDEST STOP JUMPDEST PUSH1 0x8 SLOAD JUMPDEST PUSH1 0x40 MLOAD SWAP1 DUP2 MSTORE PUSH1 0x20 ADD PUSH2 0x209 JUMP JUMPDEST PUSH2 0x28C PUSH2 0x287 CALLDATASIZE PUSH1 0x4 PUSH2 0x3A01 JUMP JUMPDEST PUSH2 0x6FC JUMP JUMPDEST PUSH1 0x40 MLOAD PUSH2 0x209 SWAP2 SWAP1 PUSH2 0x3A60 JUMP JUMPDEST PUSH2 0x265 PUSH2 0x2A7 CALLDATASIZE PUSH1 0x4 PUSH2 0x3DCD JUMP JUMPDEST PUSH2 0xAA3 JUMP JUMPDEST PUSH2 0x26B PUSH2 0x2BA CALLDATASIZE PUSH1 0x4 PUSH2 0x3A36 JUMP JUMPDEST PUSH2 0xAD4 JUMP JUMPDEST PUSH2 0x265 PUSH2 0x2CD CALLDATASIZE PUSH1 0x4 PUSH2 0x3DCD JUMP JUMPDEST PUSH2 0xB6A JUMP JUMPDEST PUSH2 0x265 PUSH2 0x2E0 CALLDATASIZE PUSH1 0x4 PUSH2 0x3A01 JUMP JUMPDEST PUSH2 0xB85 JUMP JUMPDEST PUSH2 0x26B PUSH2 0x2F3 CALLDATASIZE PUSH1 0x4 PUSH2 0x3A01 JUMP JUMPDEST PUSH2 0xC5C JUMP JUMPDEST PUSH2 0x30B PUSH2 0x306 CALLDATASIZE PUSH1 0x4 PUSH2 0x3A36 JUMP JUMPDEST PUSH2 0xCEF JUMP JUMPDEST PUSH1 0x40 MLOAD PUSH2 0x209 SWAP2 SWAP1 PUSH2 0x3E09 JUMP JUMPDEST PUSH2 0x23A PUSH2 0x326 CALLDATASIZE PUSH1 0x4 PUSH2 0x3A01 JUMP JUMPDEST PUSH2 0xDFD JUMP JUMPDEST PUSH2 0x26B PUSH2 0x339 CALLDATASIZE PUSH1 0x4 PUSH2 0x3E72 JUMP JUMPDEST PUSH2 0xE5D JUMP JUMPDEST PUSH2 0x21A PUSH2 0x34C CALLDATASIZE PUSH1 0x4 PUSH2 0x3A01 JUMP JUMPDEST PUSH2 0xEE3 JUMP JUMPDEST PUSH2 0x26B PUSH2 0x35F CALLDATASIZE PUSH1 0x4 PUSH2 0x3E8D JUMP JUMPDEST PUSH2 0xF7D JUMP JUMPDEST PUSH2 0x265 PUSH2 0x372 CALLDATASIZE PUSH1 0x4 PUSH2 0x3F31 JUMP JUMPDEST PUSH2 0x1753 JUMP JUMPDEST PUSH2 0x26B PUSH2 0x385 CALLDATASIZE PUSH1 0x4 PUSH2 0x3A01 JUMP JUMPDEST PUSH2 0x1BF6 JUMP JUMPDEST PUSH1 0xA SLOAD PUSH2 0x23A SWAP1 PUSH1 0x1 PUSH1 0x1 PUSH1 0xA0 SHL SUB AND DUP2 JUMP JUMPDEST PUSH2 0x21A PUSH2 0x1F9F JUMP JUMPDEST PUSH2 0x265 PUSH2 0x3B3 CALLDATASIZE PUSH1 0x4 PUSH2 0x3F63 JUMP JUMPDEST PUSH2 0x1FAE JUMP JUMPDEST PUSH2 0x26B PUSH2 0x3C6 CALLDATASIZE PUSH1 0x4 PUSH2 0x3F31 JUMP JUMPDEST PUSH2 0x1FB9 JUMP JUMPDEST PUSH2 0x265 PUSH2 0x3D9 CALLDATASIZE PUSH1 0x4 PUSH2 0x3FF3 JUMP JUMPDEST PUSH2 0x1FDC JUMP JUMPDEST PUSH2 0x265 PUSH2 0x3EC CALLDATASIZE PUSH1 0x4 PUSH2 0x40ED JUMP JUMPDEST PUSH2 0x2230 JUMP JUMPDEST PUSH2 0x21A PUSH2 0x3FF CALLDATASIZE PUSH1 0x4 PUSH2 0x3A01 JUMP JUMPDEST PUSH2 0x2268 JUMP JUMPDEST PUSH2 0x417 PUSH2 0x412 CALLDATASIZE PUSH1 0x4 PUSH2 0x3E72 JUMP JUMPDEST PUSH2 0x22DB JUMP JUMPDEST PUSH1 0x40 MLOAD PUSH2 0x209 SWAP2 SWAP1 PUSH2 0x41C9 JUMP JUMPDEST PUSH2 0x26B PUSH2 0x432 CALLDATASIZE PUSH1 0x4 PUSH2 0x3F31 JUMP JUMPDEST PUSH2 0x237D JUMP JUMPDEST PUSH2 0x26B PUSH2 0x445 CALLDATASIZE PUSH1 0x4 PUSH2 0x3F31 JUMP JUMPDEST PUSH2 0x23AD JUMP JUMPDEST PUSH2 0x1FD PUSH2 0x458 CALLDATASIZE PUSH1 0x4 PUSH2 0x420D JUMP JUMPDEST PUSH1 0x1 PUSH1 0x1 PUSH1 0xA0 SHL SUB SWAP2 DUP3 AND PUSH1 0x0 SWAP1 DUP2 MSTORE PUSH1 0x5 PUSH1 0x20 SWAP1 DUP2 MSTORE PUSH1 0x40 DUP1 DUP4 KECCAK256 SWAP4 SWAP1 SWAP5 AND DUP3 MSTORE SWAP2 SWAP1 SWAP2 MSTORE KECCAK256 SLOAD PUSH1 0xFF AND SWAP1 JUMP JUMPDEST PUSH2 0x4C3 PUSH2 0x494 CALLDATASIZE PUSH1 0x4 PUSH2 0x3A01 JUMP JUMPDEST PUSH1 0x44 PUSH1 0x20 MSTORE PUSH1 0x0 SWAP1 DUP2 MSTORE PUSH1 0x40 SWAP1 KECCAK256 DUP1 SLOAD PUSH1 0x1 DUP3 ADD SLOAD PUSH1 0x3 DUP4 ADD SLOAD PUSH1 0x5 DUP5 ADD SLOAD PUSH1 0x7 SWAP1 SWAP5 ADD SLOAD SWAP3 SWAP4 SWAP2 SWAP3 SWAP1 SWAP2 SWAP1 DUP6 JUMP JUMPDEST PUSH1 0x40 DUP1 MLOAD SWAP6 DUP7 MSTORE PUSH1 0x20 DUP7 ADD SWAP5 SWAP1 SWAP5 MSTORE SWAP3 DUP5 ADD SWAP2 SWAP1 SWAP2 MSTORE PUSH1 0x60 DUP4 ADD MSTORE PUSH1 0x80 DUP3 ADD MSTORE PUSH1 0xA0 ADD PUSH2 0x209 JUMP JUMPDEST PUSH2 0x265 PUSH2 0x4F9 CALLDATASIZE PUSH1 0x4 PUSH2 0x3A36 JUMP JUMPDEST PUSH2 0x23D7 JUMP JUMPDEST PUSH1 0x0 PUSH1 0x1 PUSH1 0x1 PUSH1 0xE0 SHL SUB NOT DUP3 AND PUSH4 0x780E9D63 PUSH1 0xE0 SHL EQ DUP1 PUSH2 0x523 JUMPI POP PUSH2 0x523 DUP3 PUSH2 0x27AA JUMP JUMPDEST SWAP3 SWAP2 POP POP JUMP JUMPDEST PUSH1 0x60 PUSH1 0x0 DUP1 SLOAD PUSH2 0x538 SWAP1 PUSH2 0x4237 JUMP JUMPDEST DUP1 PUSH1 0x1F ADD PUSH1 0x20 DUP1 SWAP2 DIV MUL PUSH1 0x20 ADD PUSH1 0x40 MLOAD SWAP1 DUP2 ADD PUSH1 0x40 MSTORE DUP1 SWAP3 SWAP2 SWAP1 DUP2 DUP2 MSTORE PUSH1 0x20 ADD DUP3 DUP1 SLOAD PUSH2 0x564 SWAP1 PUSH2 0x4237 JUMP JUMPDEST DUP1 ISZERO PUSH2 0x5B1 JUMPI DUP1 PUSH1 0x1F LT PUSH2 0x586 JUMPI PUSH2 0x100 DUP1 DUP4 SLOAD DIV MUL DUP4 MSTORE SWAP2 PUSH1 0x20 ADD SWAP2 PUSH2 0x5B1 JUMP JUMPDEST DUP3 ADD SWAP2 SWAP1 PUSH1 0x0 MSTORE PUSH1 0x20 PUSH1 0x0 KECCAK256 SWAP1 JUMPDEST DUP2 SLOAD DUP2 MSTORE SWAP1 PUSH1 0x1 ADD SWAP1 PUSH1 0x20 ADD DUP1 DUP4 GT PUSH2 0x594 JUMPI DUP3 SWAP1 SUB PUSH1 0x1F AND DUP3 ADD SWAP2 JUMPDEST POP POP POP POP POP SWAP1 POP SWAP1 JUMP JUMPDEST PUSH1 0x0 PUSH2 0x5C6 DUP3 PUSH2 0x27FA JUMP JUMPDEST POP PUSH1 0x0 SWAP1 DUP2 MSTORE PUSH1 0x4 PUSH1 0x20 MSTORE PUSH1 0x40 SWAP1 KECCAK256 SLOAD PUSH1 0x1 PUSH1 0x1 PUSH1 0xA0 SHL SUB AND SWAP1 JUMP JUMPDEST PUSH1 0x0 PUSH2 0x5ED DUP3 PUSH2 0xDFD JUMP JUMPDEST SWAP1 POP DUP1 PUSH1 0x1 PUSH1 0x1 PUSH1 0xA0 SHL SUB AND DUP4 PUSH1 0x1 PUSH1 0x1 PUSH1 0xA0 SHL SUB AND SUB PUSH2 0x65F JUMPI PUSH1 0x40 MLOAD PUSH3 0x461BCD PUSH1 0xE5 SHL DUP2 MSTORE PUSH1 0x20 PUSH1 0x4 DUP3 ADD MSTORE PUSH1 0x21 PUSH1 0x24 DUP3 ADD MSTORE PUSH32 0x4552433732313A20617070726F76616C20746F2063757272656E74206F776E65 PUSH1 0x44 DUP3 ADD MSTORE PUSH1 0x39 PUSH1 0xF9 SHL PUSH1 0x64 DUP3 ADD MSTORE PUSH1 0x84 ADD JUMPDEST PUSH1 0x40 MLOAD DUP1 SWAP2 SUB SWAP1 REVERT JUMPDEST CALLER PUSH1 0x1 PUSH1 0x1 PUSH1 0xA0 SHL SUB DUP3 AND EQ DUP1 PUSH2 0x67B JUMPI POP PUSH2 0x67B DUP2 CALLER PUSH2 0x458 JUMP JUMPDEST PUSH2 0x6ED JUMPI PUSH1 0x40 MLOAD PUSH3 0x461BCD PUSH1 0xE5 SHL DUP2 MSTORE PUSH1 0x20 PUSH1 0x4 DUP3 ADD MSTORE PUSH1 0x3D PUSH1 0x24 DUP3 ADD MSTORE PUSH32 0x4552433732313A20617070726F76652063616C6C6572206973206E6F7420746F PUSH1 0x44 DUP3 ADD MSTORE PUSH32 0x6B656E206F776E6572206F7220617070726F76656420666F7220616C6C000000 PUSH1 0x64 DUP3 ADD MSTORE PUSH1 0x84 ADD PUSH2 0x656 JUMP JUMPDEST PUSH2 0x6F7 DUP4 DUP4 PUSH2 0x284D JUMP JUMPDEST POP POP POP JUMP JUMPDEST PUSH2 0x704 PUSH2 0x3723 JUMP JUMPDEST PUSH2 0x70D DUP3 PUSH2 0x28BB JUMP JUMPDEST PUSH2 0x729 JUMPI PUSH1 0x40 MLOAD PUSH3 0x461BCD PUSH1 0xE5 SHL DUP2 MSTORE PUSH1 0x4 ADD PUSH2 0x656 SWAP1 PUSH2 0x4271 JUMP JUMPDEST PUSH1 0x0 DUP3 DUP2 MSTORE PUSH1 0xC PUSH1 0x20 MSTORE PUSH1 0x40 SWAP1 DUP2 SWAP1 KECCAK256 DUP2 MLOAD PUSH2 0x7A0 DUP2 ADD SWAP1 SWAP3 MSTORE DUP1 SLOAD DUP3 SWAP1 DUP3 SWAP1 PUSH2 0x752 SWAP1 PUSH2 0x4237 JUMP JUMPDEST DUP1 PUSH1 0x1F ADD PUSH1 0x20 DUP1 SWAP2 DIV MUL PUSH1 0x20 ADD PUSH1 0x40 MLOAD SWAP1 DUP2 ADD PUSH1 0x40 MSTORE DUP1 SWAP3 SWAP2 SWAP1 DUP2 DUP2 MSTORE PUSH1 0x20 ADD DUP3 DUP1 SLOAD PUSH2 0x77E SWAP1 PUSH2 0x4237 JUMP JUMPDEST DUP1 ISZERO PUSH2 0x7CB JUMPI DUP1 PUSH1 0x1F LT PUSH2 0x7A0 JUMPI PUSH2 0x100 DUP1 DUP4 SLOAD DIV MUL DUP4 MSTORE SWAP2 PUSH1 0x20 ADD SWAP2 PUSH2 0x7CB JUMP JUMPDEST DUP3 ADD SWAP2 SWAP1 PUSH1 0x0 MSTORE PUSH1 0x20 PUSH1 0x0 KECCAK256 SWAP1 JUMPDEST DUP2 SLOAD DUP2 MSTORE SWAP1 PUSH1 0x1 ADD SWAP1 PUSH1 0x20 ADD DUP1 DUP4 GT PUSH2 0x7AE JUMPI DUP3 SWAP1 SUB PUSH1 0x1F AND DUP3 ADD SWAP2 JUMPDEST POP POP POP SWAP2 DUP4 MSTORE POP POP PUSH1 0x1 DUP3 ADD SLOAD PUSH1 0x20 DUP1 DUP4 ADD SWAP2 SWAP1 SWAP2 MSTORE PUSH1 0x2 DUP4 ADD SLOAD PUSH1 0x40 DUP4 ADD MSTORE PUSH1 0x3 DUP4 ADD SLOAD PUSH1 0x60 DUP4 ADD MSTORE PUSH1 0x4 DUP4 ADD SLOAD PUSH1 0x80 DUP4 ADD MSTORE PUSH1 0x5 DUP4 ADD SLOAD PUSH1 0xA0 DUP4 ADD MSTORE PUSH1 0x6 DUP4 ADD SLOAD PUSH1 0xC0 DUP4 ADD MSTORE PUSH1 0x7 DUP4 ADD SLOAD PUSH1 0xE0 DUP4 ADD MSTORE PUSH1 0x8 DUP4 ADD SLOAD PUSH2 0x100 DUP1 DUP5 ADD SWAP2 SWAP1 SWAP2 MSTORE PUSH1 0x9 DUP5 ADD SLOAD PUSH2 0x120 DUP5 ADD MSTORE PUSH1 0xA DUP5 ADD SLOAD PUSH2 0x140 DUP5 ADD MSTORE PUSH1 0xB DUP5 ADD SLOAD PUSH2 0x160 DUP5 ADD MSTORE PUSH1 0xC DUP5 ADD SLOAD PUSH2 0x180 DUP5 ADD MSTORE PUSH1 0xD DUP5 ADD SLOAD PUSH2 0x1A0 DUP5 ADD MSTORE PUSH1 0xE DUP5 ADD SLOAD PUSH2 0x1C0 DUP5 ADD MSTORE PUSH1 0xF DUP5 ADD SLOAD PUSH2 0x1E0 DUP5 ADD MSTORE PUSH1 0x10 DUP5 ADD SLOAD PUSH2 0x200 DUP5 ADD MSTORE PUSH1 0x11 DUP5 ADD SLOAD PUSH2 0x220 DUP5 ADD MSTORE PUSH1 0x12 DUP5 ADD SLOAD PUSH2 0x240 DUP5 ADD MSTORE PUSH1 0x13 DUP5 ADD SLOAD PUSH2 0x260 DUP5 ADD MSTORE PUSH1 0x14 DUP5 ADD SLOAD PUSH2 0x280 DUP5 ADD MSTORE PUSH1 0x15 DUP5 ADD SLOAD PUSH2 0x2A0 DUP5 ADD MSTORE PUSH1 0x16 DUP5 ADD SLOAD PUSH2 0x2C0 DUP5 ADD MSTORE PUSH1 0x17 DUP5 ADD SLOAD PUSH2 0x2E0 DUP5 ADD MSTORE PUSH1 0x18 DUP5 ADD SLOAD PUSH2 0x300 DUP5 ADD MSTORE PUSH1 0x19 DUP5 ADD SLOAD PUSH2 0x320 DUP5 ADD MSTORE PUSH1 0x1A DUP5 ADD SLOAD PUSH2 0x340 DUP5 ADD MSTORE PUSH1 0x1B DUP5 ADD SLOAD PUSH2 0x360 DUP5 ADD MSTORE PUSH1 0x1C DUP5 ADD SLOAD PUSH2 0x380 DUP5 ADD MSTORE PUSH1 0x1D DUP5 ADD SLOAD PUSH2 0x3A0 DUP5 ADD MSTORE PUSH1 0x1E DUP5 ADD SLOAD PUSH2 0x3C0 DUP5 ADD MSTORE PUSH1 0x1F DUP5 ADD SLOAD PUSH2 0x3E0 DUP5 ADD MSTORE SWAP1 DUP4 ADD SLOAD PUSH2 0x400 DUP4 ADD MSTORE PUSH1 0x21 DUP4 ADD SLOAD PUSH2 0x420 DUP4 ADD MSTORE PUSH1 0x22 DUP4 ADD SLOAD PUSH2 0x440 DUP4 ADD MSTORE PUSH1 0x23 DUP4 ADD SLOAD PUSH2 0x460 DUP4 ADD MSTORE PUSH1 0x24 DUP4 ADD SLOAD PUSH2 0x480 DUP4 ADD MSTORE PUSH1 0x25 DUP4 ADD SLOAD PUSH2 0x4A0 DUP4 ADD MSTORE PUSH1 0x26 DUP4 ADD SLOAD PUSH2 0x4C0 DUP4 ADD MSTORE PUSH1 0x27 DUP4 ADD SLOAD PUSH2 0x4E0 DUP4 ADD MSTORE PUSH1 0x28 DUP4 ADD SLOAD PUSH2 0x500 DUP4 ADD MSTORE PUSH1 0x29 DUP4 ADD SLOAD PUSH2 0x520 DUP4 ADD MSTORE PUSH1 0x2A DUP4 ADD SLOAD PUSH2 0x540 DUP4 ADD MSTORE PUSH1 0x2B DUP4 ADD SLOAD PUSH2 0x560 DUP4 ADD MSTORE PUSH1 0x2C DUP4 ADD SLOAD PUSH2 0x580 DUP4 ADD MSTORE PUSH1 0x2D DUP4 ADD SLOAD PUSH2 0x5A0 DUP4 ADD MSTORE PUSH1 0x2E DUP4 ADD SLOAD PUSH2 0x5C0 DUP4 ADD MSTORE PUSH1 0x2F DUP4 ADD SLOAD PUSH2 0x5E0 DUP4 ADD MSTORE PUSH1 0x30 DUP4 ADD SLOAD PUSH2 0x600 DUP4 ADD MSTORE PUSH1 0x31 DUP4 ADD SLOAD PUSH2 0x620 DUP4 ADD MSTORE PUSH1 0x32 DUP4 ADD SLOAD PUSH2 0x640 DUP4 ADD MSTORE PUSH1 0x33 DUP4 ADD SLOAD PUSH2 0x660 DUP4 ADD MSTORE PUSH1 0x34 SWAP1 SWAP3 ADD SLOAD PUSH1 0xFF DUP1 DUP3 AND ISZERO ISZERO PUSH2 0x680 DUP5 ADD MSTORE SWAP3 DUP2 DIV DUP4 AND ISZERO ISZERO PUSH2 0x6A0 DUP4 ADD MSTORE PUSH3 0x10000 DUP2 DIV DUP4 AND ISZERO ISZERO PUSH2 0x6C0 DUP4 ADD MSTORE PUSH4 0x1000000 DUP2 DIV DUP4 AND ISZERO ISZERO PUSH2 0x6E0 DUP4 ADD MSTORE PUSH5 0x100000000 DUP2 DIV DUP4 AND ISZERO ISZERO PUSH2 0x700 DUP4 ADD MSTORE PUSH1 0x1 PUSH1 0x28 SHL DUP2 DIV DUP4 AND ISZERO ISZERO PUSH2 0x720 DUP4 ADD MSTORE PUSH1 0x1 PUSH1 0x30 SHL DUP2 DIV DUP4 AND ISZERO ISZERO PUSH2 0x740 DUP4 ADD MSTORE PUSH1 0x1 PUSH1 0x38 SHL DUP2 DIV DUP4 AND ISZERO ISZERO PUSH2 0x760 DUP4 ADD MSTORE PUSH1 0x1 PUSH1 0x40 SHL SWAP1 DIV SWAP1 SWAP2 AND ISZERO ISZERO PUSH2 0x780 SWAP1 SWAP2 ADD MSTORE SWAP3 SWAP2 POP POP JUMP JUMPDEST PUSH2 0xAAD CALLER DUP3 PUSH2 0x28D8 JUMP JUMPDEST PUSH2 0xAC9 JUMPI PUSH1 0x40 MLOAD PUSH3 0x461BCD PUSH1 0xE5 SHL DUP2 MSTORE PUSH1 0x4 ADD PUSH2 0x656 SWAP1 PUSH2 0x429F JUMP JUMPDEST PUSH2 0x6F7 DUP4 DUP4 DUP4 PUSH2 0x2956 JUMP JUMPDEST PUSH1 0x0 PUSH2 0xADF DUP4 PUSH2 0xE5D JUMP JUMPDEST DUP3 LT PUSH2 0xB41 JUMPI PUSH1 0x40 MLOAD PUSH3 0x461BCD PUSH1 0xE5 SHL DUP2 MSTORE PUSH1 0x20 PUSH1 0x4 DUP3 ADD MSTORE PUSH1 0x2B PUSH1 0x24 DUP3 ADD MSTORE PUSH32 0x455243373231456E756D657261626C653A206F776E657220696E646578206F75 PUSH1 0x44 DUP3 ADD MSTORE PUSH11 0x74206F6620626F756E6473 PUSH1 0xA8 SHL PUSH1 0x64 DUP3 ADD MSTORE PUSH1 0x84 ADD PUSH2 0x656 JUMP JUMPDEST POP PUSH1 0x1 PUSH1 0x1 PUSH1 0xA0 SHL SUB SWAP2 SWAP1 SWAP2 AND PUSH1 0x0 SWAP1 DUP2 MSTORE PUSH1 0x6 PUSH1 0x20 SWAP1 DUP2 MSTORE PUSH1 0x40 DUP1 DUP4 KECCAK256 SWAP4 DUP4 MSTORE SWAP3 SWAP1 MSTORE KECCAK256 SLOAD SWAP1 JUMP JUMPDEST PUSH2 0x6F7 DUP4 DUP4 DUP4 PUSH1 0x40 MLOAD DUP1 PUSH1 0x20 ADD PUSH1 0x40 MSTORE DUP1 PUSH1 0x0 DUP2 MSTORE POP PUSH2 0x2230 JUMP JUMPDEST PUSH2 0xB8E DUP2 PUSH2 0x28BB JUMP JUMPDEST PUSH2 0xBAA JUMPI PUSH1 0x40 MLOAD PUSH3 0x461BCD PUSH1 0xE5 SHL DUP2 MSTORE PUSH1 0x4 ADD PUSH2 0x656 SWAP1 PUSH2 0x4271 JUMP JUMPDEST CALLER PUSH2 0xBB4 DUP3 PUSH2 0xDFD JUMP JUMPDEST PUSH1 0x1 PUSH1 0x1 PUSH1 0xA0 SHL SUB AND EQ PUSH2 0xBFA JUMPI PUSH1 0x40 MLOAD PUSH3 0x461BCD PUSH1 0xE5 SHL DUP2 MSTORE PUSH1 0x20 PUSH1 0x4 DUP3 ADD MSTORE PUSH1 0xD PUSH1 0x24 DUP3 ADD MSTORE PUSH13 0x4E6F7420796F7572206974656D PUSH1 0x98 SHL PUSH1 0x44 DUP3 ADD MSTORE PUSH1 0x64 ADD PUSH2 0x656 JUMP JUMPDEST PUSH1 0x0 PUSH2 0xC05 DUP3 PUSH2 0x6FC JUMP JUMPDEST SWAP1 POP DUP1 PUSH2 0x760 ADD MLOAD PUSH2 0xC4F JUMPI PUSH1 0x40 MLOAD PUSH3 0x461BCD PUSH1 0xE5 SHL DUP2 MSTORE PUSH1 0x20 PUSH1 0x4 DUP3 ADD MSTORE PUSH1 0x13 PUSH1 0x24 DUP3 ADD MSTORE PUSH19 0x4974656D206E6F7420636F6E73756D61626C65 PUSH1 0x68 SHL PUSH1 0x44 DUP3 ADD MSTORE PUSH1 0x64 ADD PUSH2 0x656 JUMP JUMPDEST PUSH2 0xC58 DUP3 PUSH2 0x2AC7 JUMP JUMPDEST POP POP JUMP JUMPDEST PUSH1 0x0 PUSH2 0xC67 PUSH1 0x8 SLOAD SWAP1 JUMP JUMPDEST DUP3 LT PUSH2 0xCCA JUMPI PUSH1 0x40 MLOAD PUSH3 0x461BCD PUSH1 0xE5 SHL DUP2 MSTORE PUSH1 0x20 PUSH1 0x4 DUP3 ADD MSTORE PUSH1 0x2C PUSH1 0x24 DUP3 ADD MSTORE PUSH32 0x455243373231456E756D657261626C653A20676C6F62616C20696E646578206F PUSH1 0x44 DUP3 ADD MSTORE PUSH12 0x7574206F6620626F756E6473 PUSH1 0xA0 SHL PUSH1 0x64 DUP3 ADD MSTORE PUSH1 0x84 ADD PUSH2 0x656 JUMP JUMPDEST PUSH1 0x8 DUP3 DUP2 SLOAD DUP2 LT PUSH2 0xCDD JUMPI PUSH2 0xCDD PUSH2 0x42EC JUMP JUMPDEST SWAP1 PUSH1 0x0 MSTORE PUSH1 0x20 PUSH1 0x0 KECCAK256 ADD SLOAD SWAP1 POP SWAP2 SWAP1 POP JUMP JUMPDEST PUSH1 0x60 PUSH1 0x0 PUSH2 0xCFC DUP5 PUSH2 0xE5D JUMP JUMPDEST SWAP1 POP PUSH1 0x0 DUP2 PUSH8 0xFFFFFFFFFFFFFFFF DUP2 GT ISZERO PUSH2 0xD19 JUMPI PUSH2 0xD19 PUSH2 0x40D7 JUMP JUMPDEST PUSH1 0x40 MLOAD SWAP1 DUP1 DUP3 MSTORE DUP1 PUSH1 0x20 MUL PUSH1 0x20 ADD DUP3 ADD PUSH1 0x40 MSTORE DUP1 ISZERO PUSH2 0xD52 JUMPI DUP2 PUSH1 0x20 ADD JUMPDEST PUSH2 0xD3F PUSH2 0x38ED JUMP JUMPDEST DUP2 MSTORE PUSH1 0x20 ADD SWAP1 PUSH1 0x1 SWAP1 SUB SWAP1 DUP2 PUSH2 0xD37 JUMPI SWAP1 POP JUMPDEST POP SWAP1 POP PUSH1 0x0 DUP1 DUP1 JUMPDEST DUP5 DUP2 LT ISZERO PUSH2 0xDF1 JUMPI PUSH2 0xD6C DUP9 DUP3 PUSH2 0xAD4 JUMP JUMPDEST PUSH1 0x0 DUP2 DUP2 MSTORE PUSH1 0xC PUSH1 0x20 MSTORE PUSH1 0x40 SWAP1 KECCAK256 PUSH1 0x32 ADD SLOAD SWAP1 SWAP4 POP DUP8 SWAP1 SUB PUSH2 0xDD1 JUMPI PUSH1 0x40 MLOAD DUP1 PUSH1 0x40 ADD PUSH1 0x40 MSTORE DUP1 DUP5 DUP2 MSTORE PUSH1 0x20 ADD PUSH1 0xC PUSH1 0x0 DUP7 DUP2 MSTORE PUSH1 0x20 ADD SWAP1 DUP2 MSTORE PUSH1 0x20 ADD PUSH1 0x0 KECCAK256 PUSH1 0x33 ADD SLOAD DUP2 MSTORE POP DUP5 DUP4 DUP2 MLOAD DUP2 LT PUSH2 0xDC5 JUMPI PUSH2 0xDC5 PUSH2 0x42EC JUMP JUMPDEST PUSH1 0x20 MUL PUSH1 0x20 ADD ADD DUP2 SWAP1 MSTORE POP JUMPDEST DUP2 PUSH2 0xDDB DUP2 PUSH2 0x4318 JUMP JUMPDEST SWAP3 POP POP DUP1 DUP1 PUSH2 0xDE9 SWAP1 PUSH2 0x4318 JUMP JUMPDEST SWAP2 POP POP PUSH2 0xD5A JUMP JUMPDEST POP SWAP2 SWAP7 SWAP6 POP POP POP POP POP POP JUMP JUMPDEST PUSH1 0x0 DUP2 DUP2 MSTORE PUSH1 0x2 PUSH1 0x20 MSTORE PUSH1 0x40 DUP2 KECCAK256 SLOAD PUSH1 0x1 PUSH1 0x1 PUSH1 0xA0 SHL SUB AND DUP1 PUSH2 0x523 JUMPI PUSH1 0x40 MLOAD PUSH3 0x461BCD PUSH1 0xE5 SHL DUP2 MSTORE PUSH1 0x20 PUSH1 0x4 DUP3 ADD MSTORE PUSH1 0x18 PUSH1 0x24 DUP3 ADD MSTORE PUSH24 0x115490CDCC8C4E881A5B9D985B1A59081D1BDAD95B881251 PUSH1 0x42 SHL PUSH1 0x44 DUP3 ADD MSTORE PUSH1 0x64 ADD PUSH2 0x656 JUMP JUMPDEST PUSH1 0x0 PUSH1 0x1 PUSH1 0x1 PUSH1 0xA0 SHL SUB DUP3 AND PUSH2 0xEC7 JUMPI PUSH1 0x40 MLOAD PUSH3 0x461BCD PUSH1 0xE5 SHL DUP2 MSTORE PUSH1 0x20 PUSH1 0x4 DUP3 ADD MSTORE PUSH1 0x29 PUSH1 0x24 DUP3 ADD MSTORE PUSH32 0x4552433732313A2061646472657373207A65726F206973206E6F742061207661 PUSH1 0x44 DUP3 ADD MSTORE PUSH9 0x3634B21037BBB732B9 PUSH1 0xB9 SHL PUSH1 0x64 DUP3 ADD MSTORE PUSH1 0x84 ADD PUSH2 0x656 JUMP JUMPDEST POP PUSH1 0x1 PUSH1 0x1 PUSH1 0xA0 SHL SUB AND PUSH1 0x0 SWAP1 DUP2 MSTORE PUSH1 0x3 PUSH1 0x20 MSTORE PUSH1 0x40 SWAP1 KECCAK256 SLOAD SWAP1 JUMP JUMPDEST PUSH1 0xB PUSH1 0x20 MSTORE PUSH1 0x0 SWAP1 DUP2 MSTORE PUSH1 0x40 SWAP1 KECCAK256 DUP1 SLOAD PUSH2 0xEFC SWAP1 PUSH2 0x4237 JUMP JUMPDEST DUP1 PUSH1 0x1F ADD PUSH1 0x20 DUP1 SWAP2 DIV MUL PUSH1 0x20 ADD PUSH1 0x40 MLOAD SWAP1 DUP2 ADD PUSH1 0x40 MSTORE DUP1 SWAP3 SWAP2 SWAP1 DUP2 DUP2 MSTORE PUSH1 0x20 ADD DUP3 DUP1 SLOAD PUSH2 0xF28 SWAP1 PUSH2 0x4237 JUMP JUMPDEST DUP1 ISZERO PUSH2 0xF75 JUMPI DUP1 PUSH1 0x1F LT PUSH2 0xF4A JUMPI PUSH2 0x100 DUP1 DUP4 SLOAD DIV MUL DUP4 MSTORE SWAP2 PUSH1 0x20 ADD SWAP2 PUSH2 0xF75 JUMP JUMPDEST DUP3 ADD SWAP2 SWAP1 PUSH1 0x0 MSTORE PUSH1 0x20 PUSH1 0x0 KECCAK256 SWAP1 JUMPDEST DUP2 SLOAD DUP2 MSTORE SWAP1 PUSH1 0x1 ADD SWAP1 PUSH1 0x20 ADD DUP1 DUP4 GT PUSH2 0xF58 JUMPI DUP3 SWAP1 SUB PUSH1 0x1F AND DUP3 ADD SWAP2 JUMPDEST POP POP POP POP POP DUP2 JUMP JUMPDEST PUSH1 0x0 PUSH2 0xF87 PUSH2 0x3723 JUMP JUMPDEST DUP6 DUP6 DUP1 DUP1 PUSH1 0x1F ADD PUSH1 0x20 DUP1 SWAP2 DIV MUL PUSH1 0x20 ADD PUSH1 0x40 MLOAD SWAP1 DUP2 ADD PUSH1 0x40 MSTORE DUP1 SWAP4 SWAP3 SWAP2 SWAP1 DUP2 DUP2 MSTORE PUSH1 0x20 ADD DUP4 DUP4 DUP1 DUP3 DUP5 CALLDATACOPY PUSH1 0x0 SWAP3 ADD DUP3 SWAP1 MSTORE POP SWAP4 DUP6 MSTORE POP DUP7 SWAP3 SWAP2 POP PUSH2 0xFC8 SWAP1 POP JUMP JUMPDEST PUSH1 0x20 SWAP1 DUP2 MUL SWAP2 SWAP1 SWAP2 ADD CALLDATALOAD SWAP1 DUP3 ADD MSTORE DUP4 PUSH1 0x1 PUSH1 0x20 MUL ADD CALLDATALOAD PUSH1 0x40 DUP3 ADD MSTORE DUP4 PUSH1 0x2 PUSH1 0x20 MUL ADD CALLDATALOAD PUSH1 0x60 DUP3 ADD MSTORE DUP4 PUSH1 0x3 PUSH1 0x20 MUL ADD CALLDATALOAD PUSH1 0x80 DUP3 ADD MSTORE DUP4 PUSH1 0x4 PUSH1 0x20 MUL ADD CALLDATALOAD PUSH1 0xA0 DUP3 ADD MSTORE DUP4 PUSH1 0x5 PUSH1 0x20 MUL ADD CALLDATALOAD PUSH1 0xC0 DUP3 ADD MSTORE DUP4 PUSH1 0x6 PUSH1 0x20 MUL ADD CALLDATALOAD PUSH1 0xE0 DUP3 ADD MSTORE DUP4 PUSH1 0x7 PUSH1 0x20 MUL ADD CALLDATALOAD PUSH2 0x100 DUP3 ADD MSTORE DUP4 PUSH1 0x8 PUSH1 0x20 MUL ADD CALLDATALOAD PUSH2 0x120 DUP3 ADD MSTORE DUP4 PUSH1 0x9 PUSH1 0x20 MUL ADD CALLDATALOAD PUSH2 0x140 DUP3 ADD MSTORE DUP4 PUSH1 0xA PUSH1 0x20 MUL ADD CALLDATALOAD PUSH2 0x160 DUP3 ADD MSTORE DUP4 PUSH1 0xB PUSH1 0x20 MUL ADD CALLDATALOAD PUSH2 0x180 DUP3 ADD MSTORE DUP4 PUSH1 0xC PUSH1 0x20 MUL ADD CALLDATALOAD PUSH2 0x1A0 DUP3 ADD MSTORE DUP4 PUSH1 0xD PUSH1 0x20 MUL ADD CALLDATALOAD PUSH2 0x1C0 DUP3 ADD MSTORE DUP4 PUSH1 0xE PUSH1 0x20 MUL ADD CALLDATALOAD PUSH2 0x1E0 DUP3 ADD MSTORE DUP4 PUSH1 0xF PUSH1 0x20 MUL ADD CALLDATALOAD PUSH2 0x200 DUP3 ADD MSTORE DUP4 PUSH1 0x10 PUSH1 0x20 MUL ADD CALLDATALOAD PUSH2 0x220 DUP3 ADD MSTORE DUP4 PUSH1 0x11 PUSH1 0x20 MUL ADD CALLDATALOAD PUSH2 0x240 DUP3 ADD MSTORE DUP4 PUSH1 0x12 PUSH1 0x20 MUL ADD CALLDATALOAD PUSH2 0x260 DUP3 ADD MSTORE DUP4 PUSH1 0x13 PUSH1 0x20 MUL ADD CALLDATALOAD PUSH2 0x280 DUP3 ADD MSTORE DUP4 PUSH1 0x14 PUSH1 0x20 MUL ADD CALLDATALOAD PUSH2 0x2A0 DUP3 ADD MSTORE DUP4 PUSH1 0x15 PUSH1 0x20 MUL ADD CALLDATALOAD PUSH2 0x2C0 DUP3 ADD MSTORE DUP4 PUSH1 0x16 PUSH1 0x20 MUL ADD CALLDATALOAD PUSH2 0x2E0 DUP3 ADD MSTORE DUP4 PUSH1 0x17 PUSH1 0x20 MUL ADD CALLDATALOAD PUSH2 0x300 DUP3 ADD MSTORE DUP4 PUSH1 0x18 PUSH1 0x20 MUL ADD CALLDATALOAD PUSH2 0x320 DUP3 ADD MSTORE DUP4 PUSH1 0x19 PUSH1 0x20 MUL ADD CALLDATALOAD PUSH2 0x340 DUP3 ADD MSTORE DUP4 PUSH1 0x1A PUSH1 0x20 MUL ADD CALLDATALOAD PUSH2 0x360 DUP3 ADD MSTORE DUP4 PUSH1 0x1B PUSH1 0x20 MUL ADD CALLDATALOAD PUSH2 0x380 DUP3 ADD MSTORE DUP4 PUSH1 0x1C PUSH1 0x20 MUL ADD CALLDATALOAD PUSH2 0x3A0 DUP3 ADD MSTORE DUP4 PUSH1 0x1D PUSH1 0x20 MUL ADD CALLDATALOAD PUSH2 0x3C0 DUP3 ADD MSTORE DUP4 PUSH1 0x1E PUSH1 0x20 MUL ADD CALLDATALOAD PUSH2 0x3E0 DUP3 ADD MSTORE DUP4 PUSH1 0x1F PUSH1 0x20 SWAP1 DUP2 MUL SWAP2 SWAP1 SWAP2 ADD CALLDATALOAD PUSH2 0x400 DUP4 ADD MSTORE DUP5 SWAP1 PUSH1 0x20 MUL ADD CALLDATALOAD PUSH2 0x420 DUP3 ADD MSTORE DUP4 PUSH1 0x21 PUSH1 0x20 MUL ADD CALLDATALOAD PUSH2 0x440 DUP3 ADD MSTORE DUP4 PUSH1 0x22 PUSH1 0x20 MUL ADD CALLDATALOAD PUSH2 0x460 DUP3 ADD MSTORE DUP4 PUSH1 0x23 PUSH1 0x20 MUL ADD CALLDATALOAD PUSH2 0x480 DUP3 ADD MSTORE DUP4 PUSH1 0x24 PUSH1 0x20 MUL ADD CALLDATALOAD PUSH2 0x4A0 DUP3 ADD MSTORE DUP4 PUSH1 0x25 PUSH1 0x20 MUL ADD CALLDATALOAD PUSH2 0x4C0 DUP3 ADD MSTORE DUP4 PUSH1 0x26 PUSH1 0x20 MUL ADD CALLDATALOAD PUSH2 0x4E0 DUP3 ADD MSTORE DUP4 PUSH1 0x27 PUSH1 0x20 MUL ADD CALLDATALOAD PUSH2 0x500 DUP3 ADD MSTORE DUP4 PUSH1 0x28 PUSH1 0x20 MUL ADD CALLDATALOAD PUSH2 0x520 DUP3 ADD MSTORE DUP4 PUSH1 0x29 PUSH1 0x20 MUL ADD CALLDATALOAD PUSH2 0x540 DUP3 ADD MSTORE DUP4 PUSH1 0x2A PUSH1 0x20 MUL ADD CALLDATALOAD PUSH2 0x560 DUP3 ADD MSTORE DUP4 PUSH1 0x2B PUSH1 0x20 MUL ADD CALLDATALOAD PUSH2 0x580 DUP3 ADD MSTORE DUP4 PUSH1 0x2C PUSH1 0x20 MUL ADD CALLDATALOAD PUSH2 0x5A0 DUP3 ADD MSTORE DUP4 PUSH1 0x2D PUSH1 0x20 MUL ADD CALLDATALOAD PUSH2 0x5C0 DUP3 ADD MSTORE DUP4 PUSH1 0x2E PUSH1 0x20 MUL ADD CALLDATALOAD PUSH2 0x5E0 DUP3 ADD MSTORE DUP4 PUSH1 0x2F PUSH1 0x20 MUL ADD CALLDATALOAD PUSH2 0x600 DUP3 ADD MSTORE DUP4 PUSH1 0x30 PUSH1 0x20 MUL ADD CALLDATALOAD PUSH2 0x620 DUP3 ADD MSTORE DUP4 PUSH1 0x30 PUSH1 0x20 MUL ADD CALLDATALOAD PUSH2 0x620 DUP3 ADD MSTORE DUP4 PUSH1 0x31 PUSH1 0x20 MUL ADD CALLDATALOAD PUSH2 0x640 DUP3 ADD MSTORE DUP4 PUSH1 0x32 PUSH1 0x20 MUL ADD CALLDATALOAD PUSH2 0x660 DUP3 ADD MSTORE DUP3 PUSH1 0x0 PUSH1 0x20 MUL ADD PUSH1 0x20 DUP2 ADD SWAP1 PUSH2 0x12B4 SWAP2 SWAP1 PUSH2 0x4331 JUMP JUMPDEST ISZERO ISZERO PUSH2 0x680 DUP3 ADD MSTORE PUSH2 0x12CC PUSH1 0x40 DUP5 ADD PUSH1 0x20 DUP6 ADD PUSH2 0x4331 JUMP JUMPDEST ISZERO ISZERO PUSH2 0x6A0 DUP3 ADD MSTORE PUSH2 0x12E4 PUSH1 0x60 DUP5 ADD PUSH1 0x40 DUP6 ADD PUSH2 0x4331 JUMP JUMPDEST ISZERO ISZERO PUSH2 0x6C0 DUP3 ADD MSTORE PUSH2 0x12FC PUSH1 0x80 DUP5 ADD PUSH1 0x60 DUP6 ADD PUSH2 0x4331 JUMP JUMPDEST ISZERO ISZERO PUSH2 0x6E0 DUP3 ADD MSTORE PUSH2 0x1314 PUSH1 0xA0 DUP5 ADD PUSH1 0x80 DUP6 ADD PUSH2 0x4331 JUMP JUMPDEST ISZERO ISZERO PUSH2 0x700 DUP3 ADD MSTORE PUSH2 0x132C PUSH1 0xC0 DUP5 ADD PUSH1 0xA0 DUP6 ADD PUSH2 0x4331 JUMP JUMPDEST ISZERO ISZERO PUSH2 0x720 DUP3 ADD MSTORE PUSH2 0x1344 PUSH1 0xE0 DUP5 ADD PUSH1 0xC0 DUP6 ADD PUSH2 0x4331 JUMP JUMPDEST ISZERO ISZERO PUSH2 0x740 DUP3 ADD MSTORE PUSH2 0x135D PUSH2 0x100 DUP5 ADD PUSH1 0xE0 DUP6 ADD PUSH2 0x4331 JUMP JUMPDEST ISZERO ISZERO PUSH2 0x760 DUP3 ADD MSTORE PUSH2 0x1377 PUSH2 0x120 DUP5 ADD PUSH2 0x100 DUP6 ADD PUSH2 0x4331 JUMP JUMPDEST ISZERO ISZERO PUSH2 0x780 DUP3 ADD MSTORE PUSH1 0xD DUP1 SLOAD PUSH1 0x1 DUP2 ADD DUP3 SSTORE PUSH1 0x0 SWAP2 SWAP1 SWAP2 MSTORE DUP2 MLOAD DUP3 SWAP2 PUSH1 0x35 MUL PUSH32 0xD7B6990105719101DABEB77144F2A3385C8033ACD3AF97E9423A695E81AD1EB5 ADD SWAP1 DUP2 SWAP1 PUSH2 0x13C5 SWAP1 DUP3 PUSH2 0x439A JUMP JUMPDEST POP PUSH1 0x20 DUP3 DUP2 ADD MLOAD PUSH1 0x1 DUP4 DUP2 ADD SWAP2 SWAP1 SWAP2 SSTORE PUSH1 0x40 DUP5 ADD MLOAD PUSH1 0x2 DUP5 ADD SSTORE PUSH1 0x60 DUP5 ADD MLOAD PUSH1 0x3 DUP5 ADD SSTORE PUSH1 0x80 DUP5 ADD MLOAD PUSH1 0x4 DUP5 ADD SSTORE PUSH1 0xA0 DUP5 ADD MLOAD PUSH1 0x5 DUP5 ADD SSTORE PUSH1 0xC0 DUP5 ADD MLOAD PUSH1 0x6 DUP5 ADD SSTORE PUSH1 0xE0 DUP5 ADD MLOAD PUSH1 0x7 DUP5 ADD SSTORE PUSH2 0x100 DUP1 DUP6 ADD MLOAD PUSH1 0x8 DUP6 ADD SSTORE PUSH2 0x120 DUP6 ADD MLOAD PUSH1 0x9 DUP6 ADD SSTORE PUSH2 0x140 DUP6 ADD MLOAD PUSH1 0xA DUP6 ADD SSTORE PUSH2 0x160 DUP6 ADD MLOAD PUSH1 0xB DUP6 ADD SSTORE PUSH2 0x180 DUP6 ADD MLOAD PUSH1 0xC DUP6 ADD SSTORE PUSH2 0x1A0 DUP6 ADD MLOAD PUSH1 0xD DUP1 DUP7 ADD SWAP2 SWAP1 SWAP2 SSTORE PUSH2 0x1C0 DUP7 ADD MLOAD PUSH1 0xE DUP7 ADD SSTORE PUSH2 0x1E0 DUP7 ADD MLOAD PUSH1 0xF DUP7 ADD SSTORE PUSH2 0x200 DUP7 ADD MLOAD PUSH1 0x10 DUP7 ADD SSTORE PUSH2 0x220 DUP7 ADD MLOAD PUSH1 0x11 DUP7 ADD SSTORE PUSH2 0x240 DUP7 ADD MLOAD PUSH1 0x12 DUP7 ADD SSTORE PUSH2 0x260 DUP7 ADD MLOAD PUSH1 0x13 DUP7 ADD SSTORE PUSH2 0x280 DUP7 ADD MLOAD PUSH1 0x14 DUP7 ADD SSTORE PUSH2 0x2A0 DUP7 ADD MLOAD PUSH1 0x15 DUP7 ADD SSTORE PUSH2 0x2C0 DUP7 ADD MLOAD PUSH1 0x16 DUP7 ADD SSTORE PUSH2 0x2E0 DUP7 ADD MLOAD PUSH1 0x17 DUP7 ADD SSTORE PUSH2 0x300 DUP7 ADD MLOAD PUSH1 0x18 DUP7 ADD SSTORE PUSH2 0x320 DUP7 ADD MLOAD PUSH1 0x19 DUP7 ADD SSTORE PUSH2 0x340 DUP7 ADD MLOAD PUSH1 0x1A DUP7 ADD SSTORE PUSH2 0x360 DUP7 ADD MLOAD PUSH1 0x1B DUP7 ADD SSTORE PUSH2 0x380 DUP7 ADD MLOAD PUSH1 0x1C DUP7 ADD SSTORE PUSH2 0x3A0 DUP7 ADD MLOAD PUSH1 0x1D DUP7 ADD SSTORE PUSH2 0x3C0 DUP7 ADD MLOAD PUSH1 0x1E DUP7 ADD SSTORE PUSH2 0x3E0 DUP7 ADD MLOAD PUSH1 0x1F DUP7 ADD SSTORE PUSH2 0x400 DUP7 ADD MLOAD SWAP4 DUP6 ADD SWAP4 SWAP1 SWAP4 SSTORE PUSH2 0x420 DUP6 ADD MLOAD PUSH1 0x21 DUP6 ADD SSTORE PUSH2 0x440 DUP6 ADD MLOAD PUSH1 0x22 DUP6 ADD SSTORE PUSH2 0x460 DUP6 ADD MLOAD PUSH1 0x23 DUP6 ADD SSTORE PUSH2 0x480 DUP6 ADD MLOAD PUSH1 0x24 DUP6 ADD SSTORE PUSH2 0x4A0 DUP6 ADD MLOAD PUSH1 0x25 DUP6 ADD SSTORE PUSH2 0x4C0 DUP6 ADD MLOAD PUSH1 0x26 DUP6 ADD SSTORE PUSH2 0x4E0 DUP6 ADD MLOAD PUSH1 0x27 DUP6 ADD SSTORE PUSH2 0x500 DUP6 ADD MLOAD PUSH1 0x28 DUP6 ADD SSTORE PUSH2 0x520 DUP6 ADD MLOAD PUSH1 0x29 DUP6 ADD SSTORE PUSH2 0x540 DUP6 ADD MLOAD PUSH1 0x2A DUP6 ADD SSTORE PUSH2 0x560 DUP6 ADD MLOAD PUSH1 0x2B DUP6 ADD SSTORE PUSH2 0x580 DUP6 ADD MLOAD PUSH1 0x2C DUP6 ADD SSTORE PUSH2 0x5A0 DUP6 ADD MLOAD PUSH1 0x2D DUP6 ADD SSTORE PUSH2 0x5C0 DUP6 ADD MLOAD PUSH1 0x2E DUP6 ADD SSTORE PUSH2 0x5E0 DUP6 ADD MLOAD PUSH1 0x2F DUP6 ADD SSTORE PUSH2 0x600 DUP6 ADD MLOAD PUSH1 0x30 DUP6 ADD SSTORE PUSH2 0x620 DUP6 ADD MLOAD PUSH1 0x31 DUP6 ADD SSTORE PUSH2 0x640 DUP6 ADD MLOAD PUSH1 0x32 DUP6 ADD SSTORE PUSH2 0x660 DUP6 ADD MLOAD PUSH1 0x33 DUP6 ADD SSTORE PUSH2 0x680 DUP6 ADD MLOAD PUSH1 0x34 SWAP1 SWAP5 ADD DUP1 SLOAD PUSH2 0x6A0 DUP8 ADD MLOAD PUSH2 0x6C0 DUP9 ADD MLOAD PUSH2 0x6E0 DUP10 ADD MLOAD PUSH2 0x700 DUP11 ADD MLOAD PUSH2 0x720 DUP12 ADD MLOAD PUSH2 0x740 DUP13 ADD MLOAD PUSH2 0x760 DUP14 ADD MLOAD PUSH2 0x780 SWAP1 SWAP14 ADD MLOAD PUSH2 0xFFFF NOT SWAP1 SWAP8 AND SWAP12 ISZERO ISZERO PUSH2 0xFF00 NOT AND SWAP12 SWAP1 SWAP12 OR SWAP5 ISZERO ISZERO SWAP1 SWAP8 MUL SWAP4 SWAP1 SWAP4 OR PUSH4 0xFFFF0000 NOT AND PUSH3 0x10000 SWAP3 ISZERO ISZERO SWAP3 SWAP1 SWAP3 MUL PUSH4 0xFF000000 NOT AND SWAP2 SWAP1 SWAP2 OR PUSH4 0x1000000 SWAP2 ISZERO ISZERO SWAP2 SWAP1 SWAP2 MUL OR PUSH6 0xFFFF00000000 NOT AND PUSH5 0x100000000 SWAP2 ISZERO ISZERO SWAP2 SWAP1 SWAP2 MUL PUSH6 0xFF0000000000 NOT AND OR PUSH1 0x1 PUSH1 0x28 SHL SWAP4 ISZERO ISZERO SWAP4 SWAP1 SWAP4 MUL SWAP3 SWAP1 SWAP3 OR PUSH8 0xFFFF000000000000 NOT AND PUSH1 0x1 PUSH1 0x30 SHL SWAP6 ISZERO ISZERO SWAP6 SWAP1 SWAP6 MUL PUSH1 0xFF PUSH1 0x38 SHL NOT AND SWAP5 SWAP1 SWAP5 OR PUSH1 0x1 PUSH1 0x38 SHL SWAP6 ISZERO ISZERO SWAP6 SWAP1 SWAP6 MUL SWAP5 SWAP1 SWAP5 OR PUSH1 0xFF PUSH1 0x40 SHL NOT AND PUSH1 0x1 PUSH1 0x40 SHL SWAP5 ISZERO ISZERO SWAP5 SWAP1 SWAP5 MUL SWAP4 SWAP1 SWAP4 OR SWAP1 SWAP2 SSTORE SLOAD PUSH1 0x0 SWAP2 PUSH2 0x170A SWAP2 PUSH2 0x445A JUMP JUMPDEST SWAP1 POP PUSH32 0x538CE8DBA67BE446D1A480A6E48683B27C6EFB61D7C01D60767E15705E5D00F DUP2 DUP9 DUP9 PUSH1 0x40 MLOAD PUSH2 0x173F SWAP4 SWAP3 SWAP2 SWAP1 PUSH2 0x446D JUMP JUMPDEST PUSH1 0x40 MLOAD DUP1 SWAP2 SUB SWAP1 LOG1 SWAP2 POP POP JUMPDEST SWAP5 SWAP4 POP POP POP POP JUMP JUMPDEST PUSH1 0xD DUP3 DUP2 SLOAD DUP2 LT PUSH2 0x1766 JUMPI PUSH2 0x1766 PUSH2 0x42EC JUMP JUMPDEST SWAP1 PUSH1 0x0 MSTORE PUSH1 0x20 PUSH1 0x0 KECCAK256 SWAP1 PUSH1 0x35 MUL ADD PUSH1 0x34 ADD PUSH1 0x8 SWAP1 SLOAD SWAP1 PUSH2 0x100 EXP SWAP1 DIV PUSH1 0xFF AND PUSH2 0x17DB JUMPI PUSH1 0x40 MLOAD PUSH3 0x461BCD PUSH1 0xE5 SHL DUP2 MSTORE PUSH1 0x20 PUSH1 0x4 DUP3 ADD MSTORE PUSH1 0x21 PUSH1 0x24 DUP3 ADD MSTORE PUSH32 0x4974656D206E6F7420696E2073686F70206F7220646F65736E27742065786973 PUSH1 0x44 DUP3 ADD MSTORE PUSH1 0x1D PUSH1 0xFA SHL PUSH1 0x64 DUP3 ADD MSTORE PUSH1 0x84 ADD PUSH2 0x656 JUMP JUMPDEST PUSH2 0x17E9 PUSH1 0xE DUP1 SLOAD PUSH1 0x1 ADD SWAP1 SSTORE JUMP JUMPDEST PUSH1 0x0 PUSH2 0x17F4 PUSH1 0xE SLOAD SWAP1 JUMP JUMPDEST SWAP1 POP PUSH2 0x1800 CALLER DUP3 PUSH2 0x2B6A JUMP JUMPDEST PUSH2 0x1B91 DUP2 PUSH1 0xD DUP6 DUP2 SLOAD DUP2 LT PUSH2 0x1817 JUMPI PUSH2 0x1817 PUSH2 0x42EC JUMP JUMPDEST SWAP1 PUSH1 0x0 MSTORE PUSH1 0x20 PUSH1 0x0 KECCAK256 SWAP1 PUSH1 0x35 MUL ADD PUSH1 0x40 MLOAD DUP1 PUSH2 0x7A0 ADD PUSH1 0x40 MSTORE SWAP1 DUP2 PUSH1 0x0 DUP3 ADD DUP1 SLOAD PUSH2 0x1841 SWAP1 PUSH2 0x4237 JUMP JUMPDEST DUP1 PUSH1 0x1F ADD PUSH1 0x20 DUP1 SWAP2 DIV MUL PUSH1 0x20 ADD PUSH1 0x40 MLOAD SWAP1 DUP2 ADD PUSH1 0x40 MSTORE DUP1 SWAP3 SWAP2 SWAP1 DUP2 DUP2 MSTORE PUSH1 0x20 ADD DUP3 DUP1 SLOAD PUSH2 0x186D SWAP1 PUSH2 0x4237 JUMP JUMPDEST DUP1 ISZERO PUSH2 0x18BA JUMPI DUP1 PUSH1 0x1F LT PUSH2 0x188F JUMPI PUSH2 0x100 DUP1 DUP4 SLOAD DIV MUL DUP4 MSTORE SWAP2 PUSH1 0x20 ADD SWAP2 PUSH2 0x18BA JUMP JUMPDEST DUP3 ADD SWAP2 SWAP1 PUSH1 0x0 MSTORE PUSH1 0x20 PUSH1 0x0 KECCAK256 SWAP1 JUMPDEST DUP2 SLOAD DUP2 MSTORE SWAP1 PUSH1 0x1 ADD SWAP1 PUSH1 0x20 ADD DUP1 DUP4 GT PUSH2 0x189D JUMPI DUP3 SWAP1 SUB PUSH1 0x1F AND DUP3 ADD SWAP2 JUMPDEST POP POP POP SWAP2 DUP4 MSTORE POP POP PUSH1 0x1 DUP3 ADD SLOAD PUSH1 0x20 DUP1 DUP4 ADD SWAP2 SWAP1 SWAP2 MSTORE PUSH1 0x2 DUP4 ADD SLOAD PUSH1 0x40 DUP4 ADD MSTORE PUSH1 0x3 DUP4 ADD SLOAD PUSH1 0x60 DUP4 ADD MSTORE PUSH1 0x4 DUP4 ADD SLOAD PUSH1 0x80 DUP4 ADD MSTORE PUSH1 0x5 DUP4 ADD SLOAD PUSH1 0xA0 DUP4 ADD MSTORE PUSH1 0x6 DUP4 ADD SLOAD PUSH1 0xC0 DUP4 ADD MSTORE PUSH1 0x7 DUP4 ADD SLOAD PUSH1 0xE0 DUP4 ADD MSTORE PUSH1 0x8 DUP4 ADD SLOAD PUSH2 0x100 DUP1 DUP5 ADD SWAP2 SWAP1 SWAP2 MSTORE PUSH1 0x9 DUP5 ADD SLOAD PUSH2 0x120 DUP5 ADD MSTORE PUSH1 0xA DUP5 ADD SLOAD PUSH2 0x140 DUP5 ADD MSTORE PUSH1 0xB DUP5 ADD SLOAD PUSH2 0x160 DUP5 ADD MSTORE PUSH1 0xC DUP5 ADD SLOAD PUSH2 0x180 DUP5 ADD MSTORE PUSH1 0xD DUP5 ADD SLOAD PUSH2 0x1A0 DUP5 ADD MSTORE PUSH1 0xE DUP5 ADD SLOAD PUSH2 0x1C0 DUP5 ADD MSTORE PUSH1 0xF DUP5 ADD SLOAD PUSH2 0x1E0 DUP5 ADD MSTORE PUSH1 0x10 DUP5 ADD SLOAD PUSH2 0x200 DUP5 ADD MSTORE PUSH1 0x11 DUP5 ADD SLOAD PUSH2 0x220 DUP5 ADD MSTORE PUSH1 0x12 DUP5 ADD SLOAD PUSH2 0x240 DUP5 ADD MSTORE PUSH1 0x13 DUP5 ADD SLOAD PUSH2 0x260 DUP5 ADD MSTORE PUSH1 0x14 DUP5 ADD SLOAD PUSH2 0x280 DUP5 ADD MSTORE PUSH1 0x15 DUP5 ADD SLOAD PUSH2 0x2A0 DUP5 ADD MSTORE PUSH1 0x16 DUP5 ADD SLOAD PUSH2 0x2C0 DUP5 ADD MSTORE PUSH1 0x17 DUP5 ADD SLOAD PUSH2 0x2E0 DUP5 ADD MSTORE PUSH1 0x18 DUP5 ADD SLOAD PUSH2 0x300 DUP5 ADD MSTORE PUSH1 0x19 DUP5 ADD SLOAD PUSH2 0x320 DUP5 ADD MSTORE PUSH1 0x1A DUP5 ADD SLOAD PUSH2 0x340 DUP5 ADD MSTORE PUSH1 0x1B DUP5 ADD SLOAD PUSH2 0x360 DUP5 ADD MSTORE PUSH1 0x1C DUP5 ADD SLOAD PUSH2 0x380 DUP5 ADD MSTORE PUSH1 0x1D DUP5 ADD SLOAD PUSH2 0x3A0 DUP5 ADD MSTORE PUSH1 0x1E DUP5 ADD SLOAD PUSH2 0x3C0 DUP5 ADD MSTORE PUSH1 0x1F DUP5 ADD SLOAD PUSH2 0x3E0 DUP5 ADD MSTORE SWAP1 DUP4 ADD SLOAD PUSH2 0x400 DUP4 ADD MSTORE PUSH1 0x21 DUP4 ADD SLOAD PUSH2 0x420 DUP4 ADD MSTORE PUSH1 0x22 DUP4 ADD SLOAD PUSH2 0x440 DUP4 ADD MSTORE PUSH1 0x23 DUP4 ADD SLOAD PUSH2 0x460 DUP4 ADD MSTORE PUSH1 0x24 DUP4 ADD SLOAD PUSH2 0x480 DUP4 ADD MSTORE PUSH1 0x25 DUP4 ADD SLOAD PUSH2 0x4A0 DUP4 ADD MSTORE PUSH1 0x26 DUP4 ADD SLOAD PUSH2 0x4C0 DUP4 ADD MSTORE PUSH1 0x27 DUP4 ADD SLOAD PUSH2 0x4E0 DUP4 ADD MSTORE PUSH1 0x28 DUP4 ADD SLOAD PUSH2 0x500 DUP4 ADD MSTORE PUSH1 0x29 DUP4 ADD SLOAD PUSH2 0x520 DUP4 ADD MSTORE PUSH1 0x2A DUP4 ADD SLOAD PUSH2 0x540 DUP4 ADD MSTORE PUSH1 0x2B DUP4 ADD SLOAD PUSH2 0x560 DUP4 ADD MSTORE PUSH1 0x2C DUP4 ADD SLOAD PUSH2 0x580 DUP4 ADD MSTORE PUSH1 0x2D DUP4 ADD SLOAD PUSH2 0x5A0 DUP4 ADD MSTORE PUSH1 0x2E DUP4 ADD SLOAD PUSH2 0x5C0 DUP4 ADD MSTORE PUSH1 0x2F DUP4 ADD SLOAD PUSH2 0x5E0 DUP4 ADD MSTORE PUSH1 0x30 DUP4 ADD SLOAD PUSH2 0x600 DUP4 ADD MSTORE PUSH1 0x31 DUP4 ADD SLOAD PUSH2 0x620 DUP4 ADD MSTORE PUSH1 0x32 DUP4 ADD SLOAD PUSH2 0x640 DUP4 ADD MSTORE PUSH1 0x33 DUP4 ADD SLOAD PUSH2 0x660 DUP4 ADD MSTORE PUSH1 0x34 SWAP1 SWAP3 ADD SLOAD PUSH1 0xFF DUP1 DUP3 AND ISZERO ISZERO PUSH2 0x680 DUP5 ADD MSTORE SWAP3 DUP2 DIV DUP4 AND ISZERO ISZERO PUSH2 0x6A0 DUP4 ADD MSTORE PUSH3 0x10000 DUP2 DIV DUP4 AND ISZERO ISZERO PUSH2 0x6C0 DUP4 ADD MSTORE PUSH4 0x1000000 DUP2 DIV DUP4 AND ISZERO ISZERO PUSH2 0x6E0 DUP4 ADD MSTORE PUSH5 0x100000000 DUP2 DIV DUP4 AND ISZERO ISZERO PUSH2 0x700 DUP4 ADD MSTORE PUSH1 0x1 PUSH1 0x28 SHL DUP2 DIV DUP4 AND ISZERO ISZERO PUSH2 0x720 DUP4 ADD MSTORE PUSH1 0x1 PUSH1 0x30 SHL DUP2 DIV DUP4 AND ISZERO ISZERO PUSH2 0x740 DUP4 ADD MSTORE PUSH1 0x1 PUSH1 0x38 SHL DUP2 DIV DUP4 AND ISZERO ISZERO PUSH2 0x760 DUP4 ADD MSTORE PUSH1 0x1 PUSH1 0x40 SHL SWAP1 DIV SWAP1 SWAP2 AND ISZERO ISZERO PUSH2 0x780 SWAP1 SWAP2 ADD MSTORE PUSH2 0x2B84 JUMP JUMPDEST PUSH1 0x0 DUP2 DUP2 MSTORE PUSH1 0xC PUSH1 0x20 MSTORE PUSH1 0x40 SWAP1 DUP2 SWAP1 KECCAK256 PUSH1 0x1 DUP2 ADD DUP4 SWAP1 SSTORE PUSH1 0x32 DUP2 ADD DUP5 SWAP1 SSTORE NUMBER PUSH1 0x33 DUP3 ADD SSTORE SWAP1 MLOAD PUSH32 0x78CB587A56A0DC7913EC51993EB7F7BF182FCA207BD1460930BC912747387EDD SWAP2 PUSH2 0x1BE9 SWAP2 DUP5 SWAP2 DUP8 SWAP2 CALLER SWAP2 SWAP1 PUSH2 0x44A3 JUMP JUMPDEST PUSH1 0x40 MLOAD DUP1 SWAP2 SUB SWAP1 LOG1 POP POP POP JUMP JUMPDEST PUSH1 0x0 PUSH2 0x1C01 DUP3 PUSH2 0x28BB JUMP JUMPDEST PUSH2 0x1C1D JUMPI PUSH1 0x40 MLOAD PUSH3 0x461BCD PUSH1 0xE5 SHL DUP2 MSTORE PUSH1 0x4 ADD PUSH2 0x656 SWAP1 PUSH2 0x4271 JUMP JUMPDEST PUSH1 0x0 DUP3 DUP2 MSTORE PUSH1 0xC PUSH1 0x20 MSTORE PUSH1 0x40 SWAP1 KECCAK256 PUSH1 0x34 ADD SLOAD PUSH3 0x10000 SWAP1 DIV PUSH1 0xFF AND PUSH2 0x1C70 JUMPI PUSH1 0x40 MLOAD PUSH3 0x461BCD PUSH1 0xE5 SHL DUP2 MSTORE PUSH1 0x20 PUSH1 0x4 DUP3 ADD MSTORE PUSH1 0x9 PUSH1 0x24 DUP3 ADD MSTORE PUSH9 0x9CDEE840C240C4DEF PUSH1 0xBB SHL PUSH1 0x44 DUP3 ADD MSTORE PUSH1 0x64 ADD PUSH2 0x656 JUMP JUMPDEST PUSH1 0x0 DUP3 DUP2 MSTORE PUSH1 0xC PUSH1 0x20 SWAP1 DUP2 MSTORE PUSH1 0x40 DUP1 DUP4 KECCAK256 PUSH1 0x2 SWAP1 DUP2 ADD SLOAD DUP1 DUP6 MSTORE PUSH1 0x44 DUP5 MSTORE DUP3 DUP6 KECCAK256 DUP4 MLOAD PUSH2 0x120 DUP2 ADD DUP6 MSTORE DUP2 SLOAD DUP2 MSTORE PUSH1 0x1 DUP3 ADD SLOAD DUP2 DUP8 ADD MSTORE SWAP3 DUP2 ADD DUP1 SLOAD DUP6 MLOAD DUP2 DUP9 MUL DUP2 ADD DUP9 ADD DUP8 MSTORE DUP2 DUP2 MSTORE SWAP4 SWAP8 SWAP7 SWAP5 SWAP6 SWAP3 SWAP5 SWAP3 DUP7 ADD SWAP4 SWAP3 DUP4 ADD DUP3 DUP3 DUP1 ISZERO PUSH2 0x1CF5 JUMPI PUSH1 0x20 MUL DUP3 ADD SWAP2 SWAP1 PUSH1 0x0 MSTORE PUSH1 0x20 PUSH1 0x0 KECCAK256 SWAP1 JUMPDEST DUP2 SLOAD DUP2 MSTORE PUSH1 0x20 ADD SWAP1 PUSH1 0x1 ADD SWAP1 DUP1 DUP4 GT PUSH2 0x1CE1 JUMPI JUMPDEST POP POP POP POP POP DUP2 MSTORE PUSH1 0x20 ADD PUSH1 0x3 DUP3 ADD SLOAD DUP2 MSTORE PUSH1 0x20 ADD PUSH1 0x4 DUP3 ADD DUP1 SLOAD DUP1 PUSH1 0x20 MUL PUSH1 0x20 ADD PUSH1 0x40 MLOAD SWAP1 DUP2 ADD PUSH1 0x40 MSTORE DUP1 SWAP3 SWAP2 SWAP1 DUP2 DUP2 MSTORE PUSH1 0x20 ADD DUP3 DUP1 SLOAD DUP1 ISZERO PUSH2 0x1D57 JUMPI PUSH1 0x20 MUL DUP3 ADD SWAP2 SWAP1 PUSH1 0x0 MSTORE PUSH1 0x20 PUSH1 0x0 KECCAK256 SWAP1 JUMPDEST DUP2 SLOAD DUP2 MSTORE PUSH1 0x20 ADD SWAP1 PUSH1 0x1 ADD SWAP1 DUP1 DUP4 GT PUSH2 0x1D43 JUMPI JUMPDEST POP POP POP POP POP DUP2 MSTORE PUSH1 0x20 ADD PUSH1 0x5 DUP3 ADD SLOAD DUP2 MSTORE PUSH1 0x20 ADD PUSH1 0x6 DUP3 ADD DUP1 SLOAD DUP1 PUSH1 0x20 MUL PUSH1 0x20 ADD PUSH1 0x40 MLOAD SWAP1 DUP2 ADD PUSH1 0x40 MSTORE DUP1 SWAP3 SWAP2 SWAP1 DUP2 DUP2 MSTORE PUSH1 0x20 ADD DUP3 DUP1 SLOAD DUP1 ISZERO PUSH2 0x1DB9 JUMPI PUSH1 0x20 MUL DUP3 ADD SWAP2 SWAP1 PUSH1 0x0 MSTORE PUSH1 0x20 PUSH1 0x0 KECCAK256 SWAP1 JUMPDEST DUP2 SLOAD DUP2 MSTORE PUSH1 0x20 ADD SWAP1 PUSH1 0x1 ADD SWAP1 DUP1 DUP4 GT PUSH2 0x1DA5 JUMPI JUMPDEST POP POP POP POP POP DUP2 MSTORE PUSH1 0x20 ADD PUSH1 0x7 DUP3 ADD SLOAD DUP2 MSTORE PUSH1 0x20 ADD PUSH1 0x8 DUP3 ADD DUP1 SLOAD DUP1 PUSH1 0x20 MUL PUSH1 0x20 ADD PUSH1 0x40 MLOAD SWAP1 DUP2 ADD PUSH1 0x40 MSTORE DUP1 SWAP3 SWAP2 SWAP1 DUP2 DUP2 MSTORE PUSH1 0x20 ADD DUP3 DUP1 SLOAD DUP1 ISZERO PUSH2 0x1E1B JUMPI PUSH1 0x20 MUL DUP3 ADD SWAP2 SWAP1 PUSH1 0x0 MSTORE PUSH1 0x20 PUSH1 0x0 KECCAK256 SWAP1 JUMPDEST DUP2 SLOAD DUP2 MSTORE PUSH1 0x20 ADD SWAP1 PUSH1 0x1 ADD SWAP1 DUP1 DUP4 GT PUSH2 0x1E07 JUMPI JUMPDEST POP POP POP POP POP DUP2 MSTORE POP POP SWAP1 POP PUSH1 0x0 PUSH2 0x1E4A DUP3 PUSH1 0x20 ADD MLOAD PUSH2 0x445 DUP5 PUSH1 0x60 ADD MLOAD PUSH2 0x445 DUP7 PUSH1 0xA0 ADD MLOAD DUP8 PUSH1 0xE0 ADD MLOAD PUSH2 0x23AD JUMP JUMPDEST SWAP1 POP PUSH1 0x0 PUSH2 0x1E56 PUSH2 0x2EFB JUMP JUMPDEST SWAP1 POP PUSH1 0x0 DUP1 DUP1 PUSH1 0x0 DUP1 DUP7 DUP7 GT PUSH2 0x1EF5 JUMPI DUP8 PUSH1 0x20 ADD MLOAD DUP7 GT PUSH2 0x1E89 JUMPI PUSH1 0x1 SWAP4 POP PUSH2 0x1E82 DUP9 PUSH1 0x40 ADD MLOAD PUSH2 0x2F12 JUMP JUMPDEST SWAP5 POP PUSH2 0x1F06 JUMP JUMPDEST PUSH2 0x1E9B DUP9 PUSH1 0x20 ADD MLOAD DUP10 PUSH1 0x60 ADD MLOAD PUSH2 0x23AD JUMP JUMPDEST DUP7 GT PUSH2 0x1EB2 JUMPI PUSH1 0x1 SWAP3 POP PUSH2 0x1E82 DUP9 PUSH1 0x80 ADD MLOAD PUSH2 0x2F12 JUMP JUMPDEST PUSH2 0x1ECC DUP9 PUSH1 0xA0 ADD MLOAD PUSH2 0x445 DUP11 PUSH1 0x20 ADD MLOAD DUP12 PUSH1 0x60 ADD MLOAD PUSH2 0x23AD JUMP JUMPDEST DUP7 GT PUSH2 0x1EE3 JUMPI PUSH1 0x1 SWAP2 POP PUSH2 0x1E82 DUP9 PUSH1 0xC0 ADD MLOAD PUSH2 0x2F12 JUMP JUMPDEST PUSH1 0x1 SWAP1 POP PUSH2 0x1E82 DUP9 PUSH2 0x100 ADD MLOAD PUSH2 0x2F12 JUMP JUMPDEST POP PUSH1 0x0 SWAP11 SWAP10 POP POP POP POP POP POP POP POP POP POP JUMP JUMPDEST PUSH2 0x1F14 PUSH1 0xE DUP1 SLOAD PUSH1 0x1 ADD SWAP1 SSTORE JUMP JUMPDEST PUSH1 0x0 PUSH2 0x1F1F PUSH1 0xE SLOAD SWAP1 JUMP JUMPDEST SWAP1 POP PUSH2 0x1F2B CALLER DUP3 PUSH2 0x2B6A JUMP JUMPDEST PUSH2 0x1F42 DUP2 PUSH1 0xD DUP9 DUP2 SLOAD DUP2 LT PUSH2 0x1817 JUMPI PUSH2 0x1817 PUSH2 0x42EC JUMP JUMPDEST PUSH1 0x0 DUP2 DUP2 MSTORE PUSH1 0xC PUSH1 0x20 SWAP1 DUP2 MSTORE PUSH1 0x40 SWAP2 DUP3 SWAP1 KECCAK256 PUSH1 0x1 ADD DUP4 SWAP1 SSTORE DUP2 MLOAD CALLER DUP2 MSTORE SWAP1 DUP2 ADD DUP4 SWAP1 MSTORE PUSH32 0xCA303F21E08537B41000F97158DE2EBCA16244CB81143C3D691B410B0A2B8A4C SWAP2 ADD PUSH1 0x40 MLOAD DUP1 SWAP2 SUB SWAP1 LOG1 SWAP12 SWAP11 POP POP POP POP POP POP POP POP POP POP POP JUMP JUMPDEST PUSH1 0x60 PUSH1 0x1 DUP1 SLOAD PUSH2 0x538 SWAP1 PUSH2 0x4237 JUMP JUMPDEST PUSH2 0xC58 CALLER DUP4 DUP4 PUSH2 0x2F4E JUMP JUMPDEST PUSH1 0x0 DUP3 DUP3 GT ISZERO PUSH2 0x1FCB JUMPI PUSH2 0x1FCB PUSH2 0x454C JUMP JUMPDEST PUSH2 0x1FD5 DUP3 DUP5 PUSH2 0x445A JUMP JUMPDEST SWAP4 SWAP3 POP POP POP JUMP JUMPDEST PUSH1 0x0 PUSH1 0x40 MLOAD DUP1 PUSH2 0x120 ADD PUSH1 0x40 MSTORE DUP1 DUP13 DUP2 MSTORE PUSH1 0x20 ADD DUP12 PUSH1 0x0 PUSH1 0x4 DUP2 LT PUSH2 0x2003 JUMPI PUSH2 0x2003 PUSH2 0x42EC JUMP JUMPDEST PUSH1 0x20 MUL ADD CALLDATALOAD DUP2 MSTORE PUSH1 0x20 ADD DUP11 DUP11 DUP1 DUP1 PUSH1 0x20 MUL PUSH1 0x20 ADD PUSH1 0x40 MLOAD SWAP1 DUP2 ADD PUSH1 0x40 MSTORE DUP1 SWAP4 SWAP3 SWAP2 SWAP1 DUP2 DUP2 MSTORE PUSH1 0x20 ADD DUP4 DUP4 PUSH1 0x20 MUL DUP1 DUP3 DUP5 CALLDATACOPY PUSH1 0x0 SWAP3 ADD SWAP2 SWAP1 SWAP2 MSTORE POP POP POP SWAP1 DUP3 MSTORE POP PUSH1 0x20 ADD DUP12 PUSH1 0x1 PUSH1 0x20 MUL ADD CALLDATALOAD DUP2 MSTORE PUSH1 0x20 ADD DUP9 DUP9 DUP1 DUP1 PUSH1 0x20 MUL PUSH1 0x20 ADD PUSH1 0x40 MLOAD SWAP1 DUP2 ADD PUSH1 0x40 MSTORE DUP1 SWAP4 SWAP3 SWAP2 SWAP1 DUP2 DUP2 MSTORE PUSH1 0x20 ADD DUP4 DUP4 PUSH1 0x20 MUL DUP1 DUP3 DUP5 CALLDATACOPY PUSH1 0x0 SWAP3 ADD SWAP2 SWAP1 SWAP2 MSTORE POP POP POP SWAP1 DUP3 MSTORE POP PUSH1 0x20 ADD DUP12 PUSH1 0x2 PUSH1 0x20 MUL ADD CALLDATALOAD DUP2 MSTORE PUSH1 0x20 ADD DUP7 DUP7 DUP1 DUP1 PUSH1 0x20 MUL PUSH1 0x20 ADD PUSH1 0x40 MLOAD SWAP1 DUP2 ADD PUSH1 0x40 MSTORE DUP1 SWAP4 SWAP3 SWAP2 SWAP1 DUP2 DUP2 MSTORE PUSH1 0x20 ADD DUP4 DUP4 PUSH1 0x20 MUL DUP1 DUP3 DUP5 CALLDATACOPY PUSH1 0x0 SWAP3 ADD SWAP2 SWAP1 SWAP2 MSTORE POP POP POP SWAP1 DUP3 MSTORE POP PUSH1 0x20 ADD DUP12 PUSH1 0x3 PUSH1 0x20 MUL ADD CALLDATALOAD DUP2 MSTORE PUSH1 0x20 ADD DUP5 DUP5 DUP1 DUP1 PUSH1 0x20 MUL PUSH1 0x20 ADD PUSH1 0x40 MLOAD SWAP1 DUP2 ADD PUSH1 0x40 MSTORE DUP1 SWAP4 SWAP3 SWAP2 SWAP1 DUP2 DUP2 MSTORE PUSH1 0x20 ADD DUP4 DUP4 PUSH1 0x20 MUL DUP1 DUP3 DUP5 CALLDATACOPY PUSH1 0x0 SWAP3 ADD DUP3 SWAP1 MSTORE POP SWAP4 SWAP1 SWAP5 MSTORE POP POP DUP14 DUP2 MSTORE PUSH1 0x44 PUSH1 0x20 SWAP1 DUP2 MSTORE PUSH1 0x40 SWAP2 DUP3 SWAP1 KECCAK256 DUP5 MLOAD DUP2 SSTORE DUP2 DUP6 ADD MLOAD PUSH1 0x1 DUP3 ADD SSTORE SWAP2 DUP5 ADD MLOAD DUP1 MLOAD SWAP5 SWAP6 POP DUP6 SWAP5 SWAP3 SWAP4 POP PUSH2 0x2152 SWAP3 PUSH1 0x2 DUP6 ADD SWAP3 SWAP2 SWAP1 SWAP2 ADD SWAP1 PUSH2 0x390B JUMP JUMPDEST POP PUSH1 0x60 DUP3 ADD MLOAD PUSH1 0x3 DUP3 ADD SSTORE PUSH1 0x80 DUP3 ADD MLOAD DUP1 MLOAD PUSH2 0x2178 SWAP2 PUSH1 0x4 DUP5 ADD SWAP2 PUSH1 0x20 SWAP1 SWAP2 ADD SWAP1 PUSH2 0x390B JUMP JUMPDEST POP PUSH1 0xA0 DUP3 ADD MLOAD PUSH1 0x5 DUP3 ADD SSTORE PUSH1 0xC0 DUP3 ADD MLOAD DUP1 MLOAD PUSH2 0x219E SWAP2 PUSH1 0x6 DUP5 ADD SWAP2 PUSH1 0x20 SWAP1 SWAP2 ADD SWAP1 PUSH2 0x390B JUMP JUMPDEST POP PUSH1 0xE0 DUP3 ADD MLOAD PUSH1 0x7 DUP3 ADD SSTORE PUSH2 0x100 DUP3 ADD MLOAD DUP1 MLOAD PUSH2 0x21C5 SWAP2 PUSH1 0x8 DUP5 ADD SWAP2 PUSH1 0x20 SWAP1 SWAP2 ADD SWAP1 PUSH2 0x390B JUMP JUMPDEST POP POP PUSH1 0x40 DUP1 MLOAD DUP14 DUP2 MSTORE DUP13 CALLDATALOAD PUSH1 0x20 DUP3 DUP2 ADD SWAP2 SWAP1 SWAP2 MSTORE DUP14 ADD CALLDATALOAD DUP2 DUP4 ADD MSTORE SWAP1 DUP13 ADD CALLDATALOAD PUSH1 0x60 DUP1 DUP4 ADD SWAP2 SWAP1 SWAP2 MSTORE DUP13 ADD CALLDATALOAD PUSH1 0x80 DUP3 ADD MSTORE PUSH32 0x86F382A6BC7E045486AF422EB9E8F96528C8A6C437F0088461C6879F4C80FED9 SWAP2 POP PUSH1 0xA0 ADD PUSH1 0x40 MLOAD DUP1 SWAP2 SUB SWAP1 LOG1 POP POP POP POP POP POP POP POP POP POP POP JUMP JUMPDEST PUSH2 0x223A CALLER DUP4 PUSH2 0x28D8 JUMP JUMPDEST PUSH2 0x2256 JUMPI PUSH1 0x40 MLOAD PUSH3 0x461BCD PUSH1 0xE5 SHL DUP2 MSTORE PUSH1 0x4 ADD PUSH2 0x656 SWAP1 PUSH2 0x429F JUMP JUMPDEST PUSH2 0x2262 DUP5 DUP5 DUP5 DUP5 PUSH2 0x301C JUMP JUMPDEST POP POP POP POP JUMP JUMPDEST PUSH1 0x60 PUSH2 0x2273 DUP3 PUSH2 0x27FA JUMP JUMPDEST PUSH1 0x0 PUSH2 0x228A PUSH1 0x40 DUP1 MLOAD PUSH1 0x20 DUP2 ADD SWAP1 SWAP2 MSTORE PUSH1 0x0 DUP2 MSTORE SWAP1 JUMP JUMPDEST SWAP1 POP PUSH1 0x0 DUP2 MLOAD GT PUSH2 0x22AA JUMPI PUSH1 0x40 MLOAD DUP1 PUSH1 0x20 ADD PUSH1 0x40 MSTORE DUP1 PUSH1 0x0 DUP2 MSTORE POP PUSH2 0x1FD5 JUMP JUMPDEST DUP1 PUSH2 0x22B4 DUP5 PUSH2 0x304F JUMP JUMPDEST PUSH1 0x40 MLOAD PUSH1 0x20 ADD PUSH2 0x22C5 SWAP3 SWAP2 SWAP1 PUSH2 0x4562 JUMP JUMPDEST PUSH1 0x40 MLOAD PUSH1 0x20 DUP2 DUP4 SUB SUB DUP2 MSTORE SWAP1 PUSH1 0x40 MSTORE SWAP4 SWAP3 POP POP POP JUMP JUMPDEST PUSH1 0x60 PUSH1 0x0 PUSH2 0x22E8 DUP4 PUSH2 0xE5D JUMP JUMPDEST SWAP1 POP PUSH1 0x0 DUP2 PUSH8 0xFFFFFFFFFFFFFFFF DUP2 GT ISZERO PUSH2 0x2305 JUMPI PUSH2 0x2305 PUSH2 0x40D7 JUMP JUMPDEST PUSH1 0x40 MLOAD SWAP1 DUP1 DUP3 MSTORE DUP1 PUSH1 0x20 MUL PUSH1 0x20 ADD DUP3 ADD PUSH1 0x40 MSTORE DUP1 ISZERO PUSH2 0x232E JUMPI DUP2 PUSH1 0x20 ADD PUSH1 0x20 DUP3 MUL DUP1 CALLDATASIZE DUP4 CALLDATACOPY ADD SWAP1 POP JUMPDEST POP SWAP1 POP PUSH1 0x0 JUMPDEST DUP3 DUP2 LT ISZERO PUSH2 0x2375 JUMPI PUSH2 0x2346 DUP6 DUP3 PUSH2 0xAD4 JUMP JUMPDEST DUP3 DUP3 DUP2 MLOAD DUP2 LT PUSH2 0x2358 JUMPI PUSH2 0x2358 PUSH2 0x42EC JUMP JUMPDEST PUSH1 0x20 SWAP1 DUP2 MUL SWAP2 SWAP1 SWAP2 ADD ADD MSTORE DUP1 PUSH2 0x236D DUP2 PUSH2 0x4318 JUMP JUMPDEST SWAP2 POP POP PUSH2 0x2334 JUMP JUMPDEST POP SWAP4 SWAP3 POP POP POP JUMP JUMPDEST PUSH1 0x0 DUP1 PUSH2 0x238A DUP4 DUP6 PUSH2 0x4591 JUMP JUMPDEST SWAP1 POP DUP4 ISZERO DUP1 PUSH2 0x23A1 JUMPI POP DUP3 PUSH2 0x239F DUP6 DUP4 PUSH2 0x45BE JUMP JUMPDEST EQ JUMPDEST PUSH2 0x1FD5 JUMPI PUSH2 0x1FD5 PUSH2 0x454C JUMP JUMPDEST PUSH1 0x0 DUP1 PUSH2 0x23BA DUP4 DUP6 PUSH2 0x45D2 JUMP JUMPDEST SWAP1 POP DUP4 DUP2 LT ISZERO DUP1 ISZERO PUSH2 0x23A1 JUMPI POP DUP3 DUP2 LT ISZERO PUSH2 0x1FD5 JUMPI PUSH2 0x1FD5 PUSH2 0x454C JUMP JUMPDEST PUSH1 0x0 PUSH2 0x23E4 PUSH1 0x32 DUP4 PUSH2 0x45BE JUMP JUMPDEST SWAP1 POP PUSH2 0x23F4 PUSH1 0xE DUP1 SLOAD PUSH1 0x1 ADD SWAP1 SSTORE JUMP JUMPDEST PUSH1 0x0 PUSH2 0x23FF PUSH1 0xE SLOAD SWAP1 JUMP JUMPDEST SWAP1 POP PUSH2 0x240B DUP5 DUP3 PUSH2 0x2B6A JUMP JUMPDEST PUSH1 0x0 PUSH1 0xF PUSH1 0x40 MLOAD DUP1 PUSH2 0x7A0 ADD PUSH1 0x40 MSTORE SWAP1 DUP2 PUSH1 0x0 DUP3 ADD DUP1 SLOAD PUSH2 0x242B SWAP1 PUSH2 0x4237 JUMP JUMPDEST DUP1 PUSH1 0x1F ADD PUSH1 0x20 DUP1 SWAP2 DIV MUL PUSH1 0x20 ADD PUSH1 0x40 MLOAD SWAP1 DUP2 ADD PUSH1 0x40 MSTORE DUP1 SWAP3 SWAP2 SWAP1 DUP2 DUP2 MSTORE PUSH1 0x20 ADD DUP3 DUP1 SLOAD PUSH2 0x2457 SWAP1 PUSH2 0x4237 JUMP JUMPDEST DUP1 ISZERO PUSH2 0x24A4 JUMPI DUP1 PUSH1 0x1F LT PUSH2 0x2479 JUMPI PUSH2 0x100 DUP1 DUP4 SLOAD DIV MUL DUP4 MSTORE SWAP2 PUSH1 0x20 ADD SWAP2 PUSH2 0x24A4 JUMP JUMPDEST DUP3 ADD SWAP2 SWAP1 PUSH1 0x0 MSTORE PUSH1 0x20 PUSH1 0x0 KECCAK256 SWAP1 JUMPDEST DUP2 SLOAD DUP2 MSTORE SWAP1 PUSH1 0x1 ADD SWAP1 PUSH1 0x20 ADD DUP1 DUP4 GT PUSH2 0x2487 JUMPI DUP3 SWAP1 SUB PUSH1 0x1F AND DUP3 ADD SWAP2 JUMPDEST POP POP POP SWAP2 DUP4 MSTORE POP POP PUSH1 0x1 DUP3 ADD SLOAD PUSH1 0x20 DUP1 DUP4 ADD SWAP2 SWAP1 SWAP2 MSTORE PUSH1 0x2 DUP4 ADD SLOAD PUSH1 0x40 DUP1 DUP5 ADD SWAP2 SWAP1 SWAP2 MSTORE PUSH1 0x3 DUP5 ADD SLOAD PUSH1 0x60 DUP5 ADD MSTORE PUSH1 0x4 DUP5 ADD SLOAD PUSH1 0x80 DUP5 ADD MSTORE PUSH1 0x5 DUP5 ADD SLOAD PUSH1 0xA0 DUP5 ADD MSTORE PUSH1 0x6 DUP5 ADD SLOAD PUSH1 0xC0 DUP5 ADD MSTORE PUSH1 0x7 DUP5 ADD SLOAD PUSH1 0xE0 DUP5 ADD MSTORE PUSH1 0x8 DUP5 ADD SLOAD PUSH2 0x100 DUP1 DUP6 ADD SWAP2 SWAP1 SWAP2 MSTORE PUSH1 0x9 DUP6 ADD SLOAD PUSH2 0x120 DUP6 ADD MSTORE PUSH1 0xA DUP6 ADD SLOAD PUSH2 0x140 DUP6 ADD MSTORE PUSH1 0xB DUP6 ADD SLOAD PUSH2 0x160 DUP6 ADD MSTORE PUSH1 0xC DUP6 ADD SLOAD PUSH2 0x180 DUP6 ADD MSTORE PUSH1 0xD DUP6 ADD SLOAD PUSH2 0x1A0 DUP6 ADD MSTORE PUSH1 0xE DUP6 ADD SLOAD PUSH2 0x1C0 DUP6 ADD MSTORE PUSH1 0xF DUP1 DUP7 ADD SLOAD PUSH2 0x1E0 DUP7 ADD MSTORE PUSH1 0x10 DUP7 ADD SLOAD PUSH2 0x200 DUP7 ADD MSTORE PUSH1 0x11 DUP1 DUP8 ADD SLOAD PUSH2 0x220 DUP8 ADD MSTORE PUSH1 0x12 DUP8 ADD SLOAD PUSH2 0x240 DUP8 ADD MSTORE PUSH1 0x13 DUP8 ADD SLOAD PUSH2 0x260 DUP8 ADD MSTORE PUSH1 0x14 DUP8 ADD SLOAD PUSH2 0x280 DUP8 ADD MSTORE PUSH1 0x15 DUP8 ADD SLOAD PUSH2 0x2A0 DUP8 ADD MSTORE PUSH1 0x16 DUP8 ADD SLOAD PUSH2 0x2C0 DUP8 ADD MSTORE PUSH1 0x17 DUP8 ADD SLOAD PUSH2 0x2E0 DUP8 ADD MSTORE PUSH1 0x18 DUP8 ADD SLOAD PUSH2 0x300 DUP8 ADD MSTORE PUSH1 0x19 DUP8 ADD SLOAD PUSH2 0x320 DUP8 ADD MSTORE PUSH1 0x1A DUP8 ADD SLOAD PUSH2 0x340 DUP8 ADD MSTORE PUSH1 0x1B DUP8 ADD SLOAD PUSH2 0x360 DUP8 ADD MSTORE PUSH1 0x1C DUP8 ADD SLOAD PUSH2 0x380 DUP8 ADD MSTORE PUSH1 0x1D DUP8 ADD SLOAD PUSH2 0x3A0 DUP8 ADD MSTORE PUSH1 0x1E DUP8 ADD SLOAD PUSH2 0x3C0 DUP8 ADD MSTORE PUSH1 0x1F DUP8 ADD SLOAD PUSH2 0x3E0 DUP8 ADD MSTORE SWAP4 DUP7 ADD SLOAD PUSH2 0x400 DUP7 ADD MSTORE PUSH1 0x21 DUP7 ADD SLOAD PUSH2 0x420 DUP7 ADD MSTORE PUSH1 0x22 DUP7 ADD SLOAD PUSH2 0x440 DUP7 ADD MSTORE PUSH1 0x23 DUP7 ADD SLOAD PUSH2 0x460 DUP7 ADD MSTORE PUSH1 0x24 DUP7 ADD SLOAD PUSH2 0x480 DUP7 ADD MSTORE PUSH1 0x25 DUP7 ADD SLOAD PUSH2 0x4A0 DUP7 ADD MSTORE PUSH1 0x26 DUP7 ADD SLOAD PUSH2 0x4C0 DUP7 ADD MSTORE PUSH1 0x27 DUP7 ADD SLOAD PUSH2 0x4E0 DUP7 ADD MSTORE PUSH1 0x28 DUP7 ADD SLOAD PUSH2 0x500 DUP7 ADD MSTORE PUSH1 0x29 DUP7 ADD SLOAD PUSH2 0x520 DUP7 ADD MSTORE PUSH1 0x2A DUP7 ADD SLOAD PUSH2 0x540 DUP7 ADD MSTORE PUSH1 0x2B DUP7 ADD SLOAD PUSH2 0x560 DUP7 ADD MSTORE PUSH1 0x2C DUP7 ADD SLOAD PUSH2 0x580 DUP7 ADD MSTORE PUSH1 0x2D DUP7 ADD SLOAD PUSH2 0x5A0 DUP7 ADD MSTORE PUSH1 0x2E DUP7 ADD SLOAD PUSH2 0x5C0 DUP7 ADD MSTORE PUSH1 0x2F DUP7 ADD SLOAD PUSH2 0x5E0 DUP7 ADD MSTORE PUSH1 0x30 DUP7 ADD SLOAD PUSH2 0x600 DUP7 ADD MSTORE PUSH1 0x31 DUP7 ADD SLOAD PUSH2 0x620 DUP7 ADD MSTORE PUSH1 0x32 DUP7 ADD SLOAD PUSH2 0x640 DUP7 ADD MSTORE PUSH1 0x33 DUP7 ADD SLOAD PUSH2 0x660 DUP7 ADD MSTORE PUSH1 0x34 SWAP1 SWAP6 ADD SLOAD PUSH1 0xFF DUP1 DUP3 AND ISZERO ISZERO PUSH2 0x680 DUP8 ADD MSTORE SWAP2 DUP2 DIV DUP3 AND ISZERO ISZERO PUSH2 0x6A0 DUP7 ADD MSTORE PUSH3 0x10000 DUP2 DIV DUP3 AND ISZERO ISZERO PUSH2 0x6C0 DUP7 ADD MSTORE PUSH4 0x1000000 DUP2 DIV DUP3 AND ISZERO ISZERO PUSH2 0x6E0 DUP7 ADD MSTORE PUSH5 0x100000000 DUP2 DIV DUP3 AND ISZERO ISZERO PUSH2 0x700 DUP7 ADD MSTORE PUSH1 0x1 PUSH1 0x28 SHL DUP2 DIV DUP3 AND ISZERO ISZERO PUSH2 0x720 DUP7 ADD MSTORE PUSH1 0x1 PUSH1 0x30 SHL DUP2 DIV DUP3 AND ISZERO ISZERO PUSH2 0x740 DUP7 ADD MSTORE PUSH1 0x1 PUSH1 0x38 SHL DUP2 DIV DUP3 AND ISZERO ISZERO PUSH2 0x760 DUP7 ADD MSTORE PUSH1 0x1 PUSH1 0x40 SHL SWAP1 DIV AND ISZERO ISZERO PUSH2 0x780 SWAP1 SWAP4 ADD SWAP3 SWAP1 SWAP3 MSTORE DUP7 SWAP1 SSTORE DUP1 MLOAD PUSH2 0x7A0 DUP2 ADD SWAP1 SWAP2 MSTORE DUP2 SLOAD SWAP3 SWAP4 POP PUSH2 0x27A3 SWAP3 DUP6 SWAP3 SWAP1 DUP3 SWAP1 DUP3 SWAP1 PUSH2 0x1841 SWAP1 PUSH2 0x4237 JUMP JUMPDEST POP POP POP POP POP JUMP JUMPDEST PUSH1 0x0 PUSH1 0x1 PUSH1 0x1 PUSH1 0xE0 SHL SUB NOT DUP3 AND PUSH4 0x80AC58CD PUSH1 0xE0 SHL EQ DUP1 PUSH2 0x27DB JUMPI POP PUSH1 0x1 PUSH1 0x1 PUSH1 0xE0 SHL SUB NOT DUP3 AND PUSH4 0x5B5E139F PUSH1 0xE0 SHL EQ JUMPDEST DUP1 PUSH2 0x523 JUMPI POP PUSH4 0x1FFC9A7 PUSH1 0xE0 SHL PUSH1 0x1 PUSH1 0x1 PUSH1 0xE0 SHL SUB NOT DUP4 AND EQ PUSH2 0x523 JUMP JUMPDEST PUSH2 0x2803 DUP2 PUSH2 0x28BB JUMP JUMPDEST PUSH2 0x284A JUMPI PUSH1 0x40 MLOAD PUSH3 0x461BCD PUSH1 0xE5 SHL DUP2 MSTORE PUSH1 0x20 PUSH1 0x4 DUP3 ADD MSTORE PUSH1 0x18 PUSH1 0x24 DUP3 ADD MSTORE PUSH24 0x115490CDCC8C4E881A5B9D985B1A59081D1BDAD95B881251 PUSH1 0x42 SHL PUSH1 0x44 DUP3 ADD MSTORE PUSH1 0x64 ADD PUSH2 0x656 JUMP JUMPDEST POP JUMP JUMPDEST PUSH1 0x0 DUP2 DUP2 MSTORE PUSH1 0x4 PUSH1 0x20 MSTORE PUSH1 0x40 SWAP1 KECCAK256 DUP1 SLOAD PUSH1 0x1 PUSH1 0x1 PUSH1 0xA0 SHL SUB NOT AND PUSH1 0x1 PUSH1 0x1 PUSH1 0xA0 SHL SUB DUP5 AND SWAP1 DUP2 OR SWAP1 SWAP2 SSTORE DUP2 SWAP1 PUSH2 0x2882 DUP3 PUSH2 0xDFD JUMP JUMPDEST PUSH1 0x1 PUSH1 0x1 PUSH1 0xA0 SHL SUB AND PUSH32 0x8C5BE1E5EBEC7D5BD14F71427D1E84F3DD0314C0F7B2291E5B200AC8C7C3B925 PUSH1 0x40 MLOAD PUSH1 0x40 MLOAD DUP1 SWAP2 SUB SWAP1 LOG4 POP POP JUMP JUMPDEST PUSH1 0x0 SWAP1 DUP2 MSTORE PUSH1 0x2 PUSH1 0x20 MSTORE PUSH1 0x40 SWAP1 KECCAK256 SLOAD PUSH1 0x1 PUSH1 0x1 PUSH1 0xA0 SHL SUB AND ISZERO ISZERO SWAP1 JUMP JUMPDEST PUSH1 0x0 DUP1 PUSH2 0x28E4 DUP4 PUSH2 0xDFD JUMP JUMPDEST SWAP1 POP DUP1 PUSH1 0x1 PUSH1 0x1 PUSH1 0xA0 SHL SUB AND DUP5 PUSH1 0x1 PUSH1 0x1 PUSH1 0xA0 SHL SUB AND EQ DUP1 PUSH2 0x292B JUMPI POP PUSH1 0x1 PUSH1 0x1 PUSH1 0xA0 SHL SUB DUP1 DUP3 AND PUSH1 0x0 SWAP1 DUP2 MSTORE PUSH1 0x5 PUSH1 0x20 SWAP1 DUP2 MSTORE PUSH1 0x40 DUP1 DUP4 KECCAK256 SWAP4 DUP9 AND DUP4 MSTORE SWAP3 SWAP1 MSTORE KECCAK256 SLOAD PUSH1 0xFF AND JUMPDEST DUP1 PUSH2 0x174B JUMPI POP DUP4 PUSH1 0x1 PUSH1 0x1 PUSH1 0xA0 SHL SUB AND PUSH2 0x2944 DUP5 PUSH2 0x5BB JUMP JUMPDEST PUSH1 0x1 PUSH1 0x1 PUSH1 0xA0 SHL SUB AND EQ SWAP5 SWAP4 POP POP POP POP JUMP JUMPDEST DUP3 PUSH1 0x1 PUSH1 0x1 PUSH1 0xA0 SHL SUB AND PUSH2 0x2969 DUP3 PUSH2 0xDFD JUMP JUMPDEST PUSH1 0x1 PUSH1 0x1 PUSH1 0xA0 SHL SUB AND EQ PUSH2 0x298F JUMPI PUSH1 0x40 MLOAD PUSH3 0x461BCD PUSH1 0xE5 SHL DUP2 MSTORE PUSH1 0x4 ADD PUSH2 0x656 SWAP1 PUSH2 0x45E5 JUMP JUMPDEST PUSH1 0x1 PUSH1 0x1 PUSH1 0xA0 SHL SUB DUP3 AND PUSH2 0x29F1 JUMPI PUSH1 0x40 MLOAD PUSH3 0x461BCD PUSH1 0xE5 SHL DUP2 MSTORE PUSH1 0x20 PUSH1 0x4 DUP3 ADD MSTORE PUSH1 0x24 DUP1 DUP3 ADD MSTORE PUSH32 0x4552433732313A207472616E7366657220746F20746865207A65726F20616464 PUSH1 0x44 DUP3 ADD MSTORE PUSH4 0x72657373 PUSH1 0xE0 SHL PUSH1 0x64 DUP3 ADD MSTORE PUSH1 0x84 ADD PUSH2 0x656 JUMP JUMPDEST PUSH2 0x29FE DUP4 DUP4 DUP4 PUSH1 0x1 PUSH2 0x30E2 JUMP JUMPDEST DUP3 PUSH1 0x1 PUSH1 0x1 PUSH1 0xA0 SHL SUB AND PUSH2 0x2A11 DUP3 PUSH2 0xDFD JUMP JUMPDEST PUSH1 0x1 PUSH1 0x1 PUSH1 0xA0 SHL SUB AND EQ PUSH2 0x2A37 JUMPI PUSH1 0x40 MLOAD PUSH3 0x461BCD PUSH1 0xE5 SHL DUP2 MSTORE PUSH1 0x4 ADD PUSH2 0x656 SWAP1 PUSH2 0x45E5 JUMP JUMPDEST PUSH1 0x0 DUP2 DUP2 MSTORE PUSH1 0x4 PUSH1 0x20 SWAP1 DUP2 MSTORE PUSH1 0x40 DUP1 DUP4 KECCAK256 DUP1 SLOAD PUSH1 0x1 PUSH1 0x1 PUSH1 0xA0 SHL SUB NOT SWAP1 DUP2 AND SWAP1 SWAP2 SSTORE PUSH1 0x1 PUSH1 0x1 PUSH1 0xA0 SHL SUB DUP8 DUP2 AND DUP1 DUP7 MSTORE PUSH1 0x3 DUP6 MSTORE DUP4 DUP7 KECCAK256 DUP1 SLOAD PUSH1 0x0 NOT ADD SWAP1 SSTORE SWAP1 DUP8 AND DUP1 DUP7 MSTORE DUP4 DUP7 KECCAK256 DUP1 SLOAD PUSH1 0x1 ADD SWAP1 SSTORE DUP7 DUP7 MSTORE PUSH1 0x2 SWAP1 SWAP5 MSTORE DUP3 DUP6 KECCAK256 DUP1 SLOAD SWAP1 SWAP3 AND DUP5 OR SWAP1 SWAP2 SSTORE SWAP1 MLOAD DUP5 SWAP4 PUSH32 0xDDF252AD1BE2C89B69C2B068FC378DAA952BA7F163C4A11628F55A4DF523B3EF SWAP2 LOG4 POP POP POP JUMP JUMPDEST PUSH1 0x0 PUSH2 0x2AD2 DUP3 PUSH2 0xDFD JUMP JUMPDEST SWAP1 POP PUSH2 0x2AE2 DUP2 PUSH1 0x0 DUP5 PUSH1 0x1 PUSH2 0x30E2 JUMP JUMPDEST PUSH2 0x2AEB DUP3 PUSH2 0xDFD JUMP JUMPDEST PUSH1 0x0 DUP4 DUP2 MSTORE PUSH1 0x4 PUSH1 0x20 SWAP1 DUP2 MSTORE PUSH1 0x40 DUP1 DUP4 KECCAK256 DUP1 SLOAD PUSH1 0x1 PUSH1 0x1 PUSH1 0xA0 SHL SUB NOT SWAP1 DUP2 AND SWAP1 SWAP2 SSTORE PUSH1 0x1 PUSH1 0x1 PUSH1 0xA0 SHL SUB DUP6 AND DUP1 DUP6 MSTORE PUSH1 0x3 DUP5 MSTORE DUP3 DUP6 KECCAK256 DUP1 SLOAD PUSH1 0x0 NOT ADD SWAP1 SSTORE DUP8 DUP6 MSTORE PUSH1 0x2 SWAP1 SWAP4 MSTORE DUP2 DUP5 KECCAK256 DUP1 SLOAD SWAP1 SWAP2 AND SWAP1 SSTORE MLOAD SWAP3 SWAP4 POP DUP5 SWAP3 PUSH32 0xDDF252AD1BE2C89B69C2B068FC378DAA952BA7F163C4A11628F55A4DF523B3EF SWAP1 DUP4 SWAP1 LOG4 POP POP JUMP JUMPDEST PUSH2 0xC58 DUP3 DUP3 PUSH1 0x40 MLOAD DUP1 PUSH1 0x20 ADD PUSH1 0x40 MSTORE DUP1 PUSH1 0x0 DUP2 MSTORE POP PUSH2 0x320F JUMP JUMPDEST PUSH2 0x2B8D DUP3 PUSH2 0x28BB JUMP JUMPDEST PUSH2 0x2BA9 JUMPI PUSH1 0x40 MLOAD PUSH3 0x461BCD PUSH1 0xE5 SHL DUP2 MSTORE PUSH1 0x4 ADD PUSH2 0x656 SWAP1 PUSH2 0x4271 JUMP JUMPDEST PUSH1 0x0 DUP3 DUP2 MSTORE PUSH1 0xC PUSH1 0x20 MSTORE PUSH1 0x40 SWAP1 KECCAK256 DUP2 MLOAD DUP3 SWAP2 SWAP1 DUP2 SWAP1 PUSH2 0x2BC8 SWAP1 DUP3 PUSH2 0x439A JUMP JUMPDEST POP PUSH1 0x20 DUP3 DUP2 ADD MLOAD PUSH1 0x1 DUP4 ADD SSTORE PUSH1 0x40 DUP4 ADD MLOAD PUSH1 0x2 DUP4 ADD SSTORE PUSH1 0x60 DUP4 ADD MLOAD PUSH1 0x3 DUP4 ADD SSTORE PUSH1 0x80 DUP4 ADD MLOAD PUSH1 0x4 DUP4 ADD SSTORE PUSH1 0xA0 DUP4 ADD MLOAD PUSH1 0x5 DUP4 ADD SSTORE PUSH1 0xC0 DUP4 ADD MLOAD PUSH1 0x6 DUP4 ADD SSTORE PUSH1 0xE0 DUP4 ADD MLOAD PUSH1 0x7 DUP4 ADD SSTORE PUSH2 0x100 DUP1 DUP5 ADD MLOAD PUSH1 0x8 DUP5 ADD SSTORE PUSH2 0x120 DUP5 ADD MLOAD PUSH1 0x9 DUP5 ADD SSTORE PUSH2 0x140 DUP5 ADD MLOAD PUSH1 0xA DUP5 ADD SSTORE PUSH2 0x160 DUP5 ADD MLOAD PUSH1 0xB DUP5 ADD SSTORE PUSH2 0x180 DUP5 ADD MLOAD PUSH1 0xC DUP5 ADD SSTORE PUSH2 0x1A0 DUP5 ADD MLOAD PUSH1 0xD DUP5 ADD SSTORE PUSH2 0x1C0 DUP5 ADD MLOAD PUSH1 0xE DUP5 ADD SSTORE PUSH2 0x1E0 DUP5 ADD MLOAD PUSH1 0xF DUP5 ADD SSTORE PUSH2 0x200 DUP5 ADD MLOAD PUSH1 0x10 DUP5 ADD SSTORE PUSH2 0x220 DUP5 ADD MLOAD PUSH1 0x11 DUP5 ADD SSTORE PUSH2 0x240 DUP5 ADD MLOAD PUSH1 0x12 DUP5 ADD SSTORE PUSH2 0x260 DUP5 ADD MLOAD PUSH1 0x13 DUP5 ADD SSTORE PUSH2 0x280 DUP5 ADD MLOAD PUSH1 0x14 DUP5 ADD SSTORE PUSH2 0x2A0 DUP5 ADD MLOAD PUSH1 0x15 DUP5 ADD SSTORE PUSH2 0x2C0 DUP5 ADD MLOAD PUSH1 0x16 DUP5 ADD SSTORE PUSH2 0x2E0 DUP5 ADD MLOAD PUSH1 0x17 DUP5 ADD SSTORE PUSH2 0x300 DUP5 ADD MLOAD PUSH1 0x18 DUP5 ADD SSTORE PUSH2 0x320 DUP5 ADD MLOAD PUSH1 0x19 DUP5 ADD SSTORE PUSH2 0x340 DUP5 ADD MLOAD PUSH1 0x1A DUP5 ADD SSTORE PUSH2 0x360 DUP5 ADD MLOAD PUSH1 0x1B DUP5 ADD SSTORE PUSH2 0x380 DUP5 ADD MLOAD PUSH1 0x1C DUP5 ADD SSTORE PUSH2 0x3A0 DUP5 ADD MLOAD PUSH1 0x1D DUP5 ADD SSTORE PUSH2 0x3C0 DUP5 ADD MLOAD PUSH1 0x1E DUP5 ADD SSTORE PUSH2 0x3E0 DUP5 ADD MLOAD PUSH1 0x1F DUP5 ADD SSTORE PUSH2 0x400 DUP5 ADD MLOAD SWAP2 DUP4 ADD SWAP2 SWAP1 SWAP2 SSTORE PUSH2 0x420 DUP4 ADD MLOAD PUSH1 0x21 DUP4 ADD SSTORE PUSH2 0x440 DUP4 ADD MLOAD PUSH1 0x22 DUP4 ADD SSTORE PUSH2 0x460 DUP4 ADD MLOAD PUSH1 0x23 DUP4 ADD SSTORE PUSH2 0x480 DUP4 ADD MLOAD PUSH1 0x24 DUP4 ADD SSTORE PUSH2 0x4A0 DUP4 ADD MLOAD PUSH1 0x25 DUP4 ADD SSTORE PUSH2 0x4C0 DUP4 ADD MLOAD PUSH1 0x26 DUP4 ADD SSTORE PUSH2 0x4E0 DUP4 ADD MLOAD PUSH1 0x27 DUP4 ADD SSTORE PUSH2 0x500 DUP4 ADD MLOAD PUSH1 0x28 DUP4 ADD SSTORE PUSH2 0x520 DUP4 ADD MLOAD PUSH1 0x29 DUP4 ADD SSTORE PUSH2 0x540 DUP4 ADD MLOAD PUSH1 0x2A DUP4 ADD SSTORE PUSH2 0x560 DUP4 ADD MLOAD PUSH1 0x2B DUP4 ADD SSTORE PUSH2 0x580 DUP4 ADD MLOAD PUSH1 0x2C DUP4 ADD SSTORE PUSH2 0x5A0 DUP4 ADD MLOAD PUSH1 0x2D DUP4 ADD SSTORE PUSH2 0x5C0 DUP4 ADD MLOAD PUSH1 0x2E DUP4 ADD SSTORE PUSH2 0x5E0 DUP4 ADD MLOAD PUSH1 0x2F DUP4 ADD SSTORE PUSH2 0x600 DUP4 ADD MLOAD PUSH1 0x30 DUP4 ADD SSTORE PUSH2 0x620 DUP4 ADD MLOAD PUSH1 0x31 DUP4 ADD SSTORE PUSH2 0x640 DUP4 ADD MLOAD PUSH1 0x32 DUP4 ADD SSTORE PUSH2 0x660 DUP4 ADD MLOAD PUSH1 0x33 DUP4 ADD SSTORE PUSH2 0x680 DUP4 ADD MLOAD PUSH1 0x34 SWAP1 SWAP3 ADD DUP1 SLOAD PUSH2 0x6A0 DUP6 ADD MLOAD PUSH2 0x6C0 DUP7 ADD MLOAD PUSH2 0x6E0 DUP8 ADD MLOAD PUSH2 0x700 DUP9 ADD MLOAD PUSH2 0x720 DUP10 ADD MLOAD PUSH2 0x740 DUP11 ADD MLOAD PUSH2 0x760 DUP12 ADD MLOAD PUSH2 0x780 SWAP1 SWAP12 ADD MLOAD PUSH2 0xFFFF NOT SWAP1 SWAP8 AND SWAP10 ISZERO ISZERO PUSH2 0xFF00 NOT AND SWAP10 SWAP1 SWAP10 OR SWAP5 ISZERO ISZERO SWAP1 SWAP8 MUL SWAP4 SWAP1 SWAP4 OR PUSH4 0xFFFF0000 NOT AND PUSH3 0x10000 SWAP3 ISZERO ISZERO SWAP3 SWAP1 SWAP3 MUL PUSH4 0xFF000000 NOT AND SWAP2 SWAP1 SWAP2 OR PUSH4 0x1000000 SWAP2 ISZERO ISZERO SWAP2 SWAP1 SWAP2 MUL OR PUSH6 0xFFFF00000000 NOT AND PUSH5 0x100000000 SWAP2 ISZERO ISZERO SWAP2 SWAP1 SWAP2 MUL PUSH6 0xFF0000000000 NOT AND OR PUSH1 0x1 PUSH1 0x28 SHL SWAP4 ISZERO ISZERO SWAP4 SWAP1 SWAP4 MUL SWAP3 SWAP1 SWAP3 OR PUSH8 0xFFFF000000000000 NOT AND PUSH1 0x1 PUSH1 0x30 SHL SWAP4 ISZERO ISZERO SWAP4 SWAP1 SWAP4 MUL PUSH1 0xFF PUSH1 0x38 SHL NOT AND SWAP3 SWAP1 SWAP3 OR PUSH1 0x1 PUSH1 0x38 SHL SWAP4 ISZERO ISZERO SWAP4 SWAP1 SWAP4 MUL SWAP3 SWAP1 SWAP3 OR PUSH1 0xFF PUSH1 0x40 SHL NOT AND PUSH1 0x1 PUSH1 0x40 SHL SWAP3 ISZERO ISZERO SWAP3 SWAP1 SWAP3 MUL SWAP2 SWAP1 SWAP2 OR SWAP1 SSTORE POP POP JUMP JUMPDEST PUSH1 0x0 PREVRANDAO DUP2 PUSH2 0x2F0A PUSH1 0x64 DUP4 PUSH2 0x462A JUMP JUMPDEST POP SWAP1 SWAP3 SWAP2 POP POP JUMP JUMPDEST PUSH1 0x0 DUP1 PUSH2 0x2F1D PUSH2 0x2EFB JUMP JUMPDEST DUP4 MLOAD SWAP1 SWAP2 POP DUP4 PUSH2 0x2F2D DUP3 DUP5 PUSH2 0x462A JUMP JUMPDEST DUP2 MLOAD DUP2 LT PUSH2 0x2F3D JUMPI PUSH2 0x2F3D PUSH2 0x42EC JUMP JUMPDEST PUSH1 0x20 MUL PUSH1 0x20 ADD ADD MLOAD SWAP3 POP POP POP SWAP2 SWAP1 POP JUMP JUMPDEST DUP2 PUSH1 0x1 PUSH1 0x1 PUSH1 0xA0 SHL SUB AND DUP4 PUSH1 0x1 PUSH1 0x1 PUSH1 0xA0 SHL SUB AND SUB PUSH2 0x2FAF JUMPI PUSH1 0x40 MLOAD PUSH3 0x461BCD PUSH1 0xE5 SHL DUP2 MSTORE PUSH1 0x20 PUSH1 0x4 DUP3 ADD MSTORE PUSH1 0x19 PUSH1 0x24 DUP3 ADD MSTORE PUSH32 0x4552433732313A20617070726F766520746F2063616C6C657200000000000000 PUSH1 0x44 DUP3 ADD MSTORE PUSH1 0x64 ADD PUSH2 0x656 JUMP JUMPDEST PUSH1 0x1 PUSH1 0x1 PUSH1 0xA0 SHL SUB DUP4 DUP2 AND PUSH1 0x0 DUP2 DUP2 MSTORE PUSH1 0x5 PUSH1 0x20 SWAP1 DUP2 MSTORE PUSH1 0x40 DUP1 DUP4 KECCAK256 SWAP5 DUP8 AND DUP1 DUP5 MSTORE SWAP5 DUP3 MSTORE SWAP2 DUP3 SWAP1 KECCAK256 DUP1 SLOAD PUSH1 0xFF NOT AND DUP7 ISZERO ISZERO SWAP1 DUP2 OR SWAP1 SWAP2 SSTORE SWAP2 MLOAD SWAP2 DUP3 MSTORE PUSH32 0x17307EAB39AB6107E8899845AD3D59BD9653F200F220920489CA2B5937696C31 SWAP2 ADD PUSH1 0x40 MLOAD DUP1 SWAP2 SUB SWAP1 LOG3 POP POP POP JUMP JUMPDEST PUSH2 0x3027 DUP5 DUP5 DUP5 PUSH2 0x2956 JUMP JUMPDEST PUSH2 0x3033 DUP5 DUP5 DUP5 DUP5 PUSH2 0x3242 JUMP JUMPDEST PUSH2 0x2262 JUMPI PUSH1 0x40 MLOAD PUSH3 0x461BCD PUSH1 0xE5 SHL DUP2 MSTORE PUSH1 0x4 ADD PUSH2 0x656 SWAP1 PUSH2 0x463E JUMP JUMPDEST PUSH1 0x60 PUSH1 0x0 PUSH2 0x305C DUP4 PUSH2 0x3340 JUMP JUMPDEST PUSH1 0x1 ADD SWAP1 POP PUSH1 0x0 DUP2 PUSH8 0xFFFFFFFFFFFFFFFF DUP2 GT ISZERO PUSH2 0x307C JUMPI PUSH2 0x307C PUSH2 0x40D7 JUMP JUMPDEST PUSH1 0x40 MLOAD SWAP1 DUP1 DUP3 MSTORE DUP1 PUSH1 0x1F ADD PUSH1 0x1F NOT AND PUSH1 0x20 ADD DUP3 ADD PUSH1 0x40 MSTORE DUP1 ISZERO PUSH2 0x30A6 JUMPI PUSH1 0x20 DUP3 ADD DUP2 DUP1 CALLDATASIZE DUP4 CALLDATACOPY ADD SWAP1 POP JUMPDEST POP SWAP1 POP DUP2 DUP2 ADD PUSH1 0x20 ADD JUMPDEST PUSH1 0x0 NOT ADD PUSH16 0x181899199A1A9B1B9C1CB0B131B232B3 PUSH1 0x81 SHL PUSH1 0xA DUP7 MOD BYTE DUP2 MSTORE8 PUSH1 0xA DUP6 DIV SWAP5 POP DUP5 PUSH2 0x30B0 JUMPI POP SWAP4 SWAP3 POP POP POP JUMP JUMPDEST PUSH1 0x1 DUP2 GT ISZERO PUSH2 0x3151 JUMPI PUSH1 0x40 MLOAD PUSH3 0x461BCD PUSH1 0xE5 SHL DUP2 MSTORE PUSH1 0x20 PUSH1 0x4 DUP3 ADD MSTORE PUSH1 0x35 PUSH1 0x24 DUP3 ADD MSTORE PUSH32 0x455243373231456E756D657261626C653A20636F6E7365637574697665207472 PUSH1 0x44 DUP3 ADD MSTORE PUSH21 0x185B9CD9995C9CC81B9BDD081CDD5C1C1BDC9D1959 PUSH1 0x5A SHL PUSH1 0x64 DUP3 ADD MSTORE PUSH1 0x84 ADD PUSH2 0x656 JUMP JUMPDEST DUP2 PUSH1 0x1 PUSH1 0x1 PUSH1 0xA0 SHL SUB DUP6 AND PUSH2 0x31AD JUMPI PUSH2 0x31A8 DUP2 PUSH1 0x8 DUP1 SLOAD PUSH1 0x0 DUP4 DUP2 MSTORE PUSH1 0x9 PUSH1 0x20 MSTORE PUSH1 0x40 DUP2 KECCAK256 DUP3 SWAP1 SSTORE PUSH1 0x1 DUP3 ADD DUP4 SSTORE SWAP2 SWAP1 SWAP2 MSTORE PUSH32 0xF3F7A9FE364FAAB93B216DA50A3214154F22A0A2B415B23A84C8169E8B636EE3 ADD SSTORE JUMP JUMPDEST PUSH2 0x31D0 JUMP JUMPDEST DUP4 PUSH1 0x1 PUSH1 0x1 PUSH1 0xA0 SHL SUB AND DUP6 PUSH1 0x1 PUSH1 0x1 PUSH1 0xA0 SHL SUB AND EQ PUSH2 0x31D0 JUMPI PUSH2 0x31D0 DUP6 DUP3 PUSH2 0x3418 JUMP JUMPDEST PUSH1 0x1 PUSH1 0x1 PUSH1 0xA0 SHL SUB DUP5 AND PUSH2 0x31EC JUMPI PUSH2 0x31E7 DUP2 PUSH2 0x34B5 JUMP JUMPDEST PUSH2 0x27A3 JUMP JUMPDEST DUP5 PUSH1 0x1 PUSH1 0x1 PUSH1 0xA0 SHL SUB AND DUP5 PUSH1 0x1 PUSH1 0x1 PUSH1 0xA0 SHL SUB AND EQ PUSH2 0x27A3 JUMPI PUSH2 0x27A3 DUP5 DUP3 PUSH2 0x3564 JUMP JUMPDEST PUSH2 0x3219 DUP4 DUP4 PUSH2 0x35A8 JUMP JUMPDEST PUSH2 0x3226 PUSH1 0x0 DUP5 DUP5 DUP5 PUSH2 0x3242 JUMP JUMPDEST PUSH2 0x6F7 JUMPI PUSH1 0x40 MLOAD PUSH3 0x461BCD PUSH1 0xE5 SHL DUP2 MSTORE PUSH1 0x4 ADD PUSH2 0x656 SWAP1 PUSH2 0x463E JUMP JUMPDEST PUSH1 0x0 PUSH1 0x1 PUSH1 0x1 PUSH1 0xA0 SHL SUB DUP5 AND EXTCODESIZE ISZERO PUSH2 0x3338 JUMPI PUSH1 0x40 MLOAD PUSH4 0xA85BD01 PUSH1 0xE1 SHL DUP2 MSTORE PUSH1 0x1 PUSH1 0x1 PUSH1 0xA0 SHL SUB DUP6 AND SWAP1 PUSH4 0x150B7A02 SWAP1 PUSH2 0x3286 SWAP1 CALLER SWAP1 DUP10 SWAP1 DUP9 SWAP1 DUP9 SWAP1 PUSH1 0x4 ADD PUSH2 0x4690 JUMP JUMPDEST PUSH1 0x20 PUSH1 0x40 MLOAD DUP1 DUP4 SUB DUP2 PUSH1 0x0 DUP8 GAS CALL SWAP3 POP POP POP DUP1 ISZERO PUSH2 0x32C1 JUMPI POP PUSH1 0x40 DUP1 MLOAD PUSH1 0x1F RETURNDATASIZE SWAP1 DUP2 ADD PUSH1 0x1F NOT AND DUP3 ADD SWAP1 SWAP3 MSTORE PUSH2 0x32BE SWAP2 DUP2 ADD SWAP1 PUSH2 0x46CD JUMP JUMPDEST PUSH1 0x1 JUMPDEST PUSH2 0x331E JUMPI RETURNDATASIZE DUP1 DUP1 ISZERO PUSH2 0x32EF JUMPI PUSH1 0x40 MLOAD SWAP2 POP PUSH1 0x1F NOT PUSH1 0x3F RETURNDATASIZE ADD AND DUP3 ADD PUSH1 0x40 MSTORE RETURNDATASIZE DUP3 MSTORE RETURNDATASIZE PUSH1 0x0 PUSH1 0x20 DUP5 ADD RETURNDATACOPY PUSH2 0x32F4 JUMP JUMPDEST PUSH1 0x60 SWAP2 POP JUMPDEST POP DUP1 MLOAD PUSH1 0x0 SUB PUSH2 0x3316 JUMPI PUSH1 0x40 MLOAD PUSH3 0x461BCD PUSH1 0xE5 SHL DUP2 MSTORE PUSH1 0x4 ADD PUSH2 0x656 SWAP1 PUSH2 0x463E JUMP JUMPDEST DUP1 MLOAD DUP2 PUSH1 0x20 ADD REVERT JUMPDEST PUSH1 0x1 PUSH1 0x1 PUSH1 0xE0 SHL SUB NOT AND PUSH4 0xA85BD01 PUSH1 0xE1 SHL EQ SWAP1 POP PUSH2 0x174B JUMP JUMPDEST POP PUSH1 0x1 PUSH2 0x174B JUMP JUMPDEST PUSH1 0x0 DUP1 PUSH19 0x184F03E93FF9F4DAA797ED6E38ED64BF6A1F01 PUSH1 0x40 SHL DUP4 LT PUSH2 0x337F JUMPI PUSH19 0x184F03E93FF9F4DAA797ED6E38ED64BF6A1F01 PUSH1 0x40 SHL DUP4 DIV SWAP3 POP PUSH1 0x40 ADD JUMPDEST PUSH14 0x4EE2D6D415B85ACEF8100000000 DUP4 LT PUSH2 0x33AB JUMPI PUSH14 0x4EE2D6D415B85ACEF8100000000 DUP4 DIV SWAP3 POP PUSH1 0x20 ADD JUMPDEST PUSH7 0x2386F26FC10000 DUP4 LT PUSH2 0x33C9 JUMPI PUSH7 0x2386F26FC10000 DUP4 DIV SWAP3 POP PUSH1 0x10 ADD JUMPDEST PUSH4 0x5F5E100 DUP4 LT PUSH2 0x33E1 JUMPI PUSH4 0x5F5E100 DUP4 DIV SWAP3 POP PUSH1 0x8 ADD JUMPDEST PUSH2 0x2710 DUP4 LT PUSH2 0x33F5 JUMPI PUSH2 0x2710 DUP4 DIV SWAP3 POP PUSH1 0x4 ADD JUMPDEST PUSH1 0x64 DUP4 LT PUSH2 0x3407 JUMPI PUSH1 0x64 DUP4 DIV SWAP3 POP PUSH1 0x2 ADD JUMPDEST PUSH1 0xA DUP4 LT PUSH2 0x523 JUMPI PUSH1 0x1 ADD SWAP3 SWAP2 POP POP JUMP JUMPDEST PUSH1 0x0 PUSH1 0x1 PUSH2 0x3425 DUP5 PUSH2 0xE5D JUMP JUMPDEST PUSH2 0x342F SWAP2 SWAP1 PUSH2 0x445A JUMP JUMPDEST PUSH1 0x0 DUP4 DUP2 MSTORE PUSH1 0x7 PUSH1 0x20 MSTORE PUSH1 0x40 SWAP1 KECCAK256 SLOAD SWAP1 SWAP2 POP DUP1 DUP3 EQ PUSH2 0x3482 JUMPI PUSH1 0x1 PUSH1 0x1 PUSH1 0xA0 SHL SUB DUP5 AND PUSH1 0x0 SWAP1 DUP2 MSTORE PUSH1 0x6 PUSH1 0x20 SWAP1 DUP2 MSTORE PUSH1 0x40 DUP1 DUP4 KECCAK256 DUP6 DUP5 MSTORE DUP3 MSTORE DUP1 DUP4 KECCAK256 SLOAD DUP5 DUP5 MSTORE DUP2 DUP5 KECCAK256 DUP2 SWAP1 SSTORE DUP4 MSTORE PUSH1 0x7 SWAP1 SWAP2 MSTORE SWAP1 KECCAK256 DUP2 SWAP1 SSTORE JUMPDEST POP PUSH1 0x0 SWAP2 DUP3 MSTORE PUSH1 0x7 PUSH1 0x20 SWAP1 DUP2 MSTORE PUSH1 0x40 DUP1 DUP5 KECCAK256 DUP5 SWAP1 SSTORE PUSH1 0x1 PUSH1 0x1 PUSH1 0xA0 SHL SUB SWAP1 SWAP5 AND DUP4 MSTORE PUSH1 0x6 DUP2 MSTORE DUP4 DUP4 KECCAK256 SWAP2 DUP4 MSTORE MSTORE SWAP1 DUP2 KECCAK256 SSTORE JUMP JUMPDEST PUSH1 0x8 SLOAD PUSH1 0x0 SWAP1 PUSH2 0x34C7 SWAP1 PUSH1 0x1 SWAP1 PUSH2 0x445A JUMP JUMPDEST PUSH1 0x0 DUP4 DUP2 MSTORE PUSH1 0x9 PUSH1 0x20 MSTORE PUSH1 0x40 DUP2 KECCAK256 SLOAD PUSH1 0x8 DUP1 SLOAD SWAP4 SWAP5 POP SWAP1 SWAP3 DUP5 SWAP1 DUP2 LT PUSH2 0x34EF JUMPI PUSH2 0x34EF PUSH2 0x42EC JUMP JUMPDEST SWAP1 PUSH1 0x0 MSTORE PUSH1 0x20 PUSH1 0x0 KECCAK256 ADD SLOAD SWAP1 POP DUP1 PUSH1 0x8 DUP4 DUP2 SLOAD DUP2 LT PUSH2 0x3510 JUMPI PUSH2 0x3510 PUSH2 0x42EC JUMP JUMPDEST PUSH1 0x0 SWAP2 DUP3 MSTORE PUSH1 0x20 DUP1 DUP4 KECCAK256 SWAP1 SWAP2 ADD SWAP3 SWAP1 SWAP3 SSTORE DUP3 DUP2 MSTORE PUSH1 0x9 SWAP1 SWAP2 MSTORE PUSH1 0x40 DUP1 DUP3 KECCAK256 DUP5 SWAP1 SSTORE DUP6 DUP3 MSTORE DUP2 KECCAK256 SSTORE PUSH1 0x8 DUP1 SLOAD DUP1 PUSH2 0x3548 JUMPI PUSH2 0x3548 PUSH2 0x46EA JUMP JUMPDEST PUSH1 0x1 SWAP1 SUB DUP2 DUP2 SWAP1 PUSH1 0x0 MSTORE PUSH1 0x20 PUSH1 0x0 KECCAK256 ADD PUSH1 0x0 SWAP1 SSTORE SWAP1 SSTORE POP POP POP POP JUMP JUMPDEST PUSH1 0x0 PUSH2 0x356F DUP4 PUSH2 0xE5D JUMP JUMPDEST PUSH1 0x1 PUSH1 0x1 PUSH1 0xA0 SHL SUB SWAP1 SWAP4 AND PUSH1 0x0 SWAP1 DUP2 MSTORE PUSH1 0x6 PUSH1 0x20 SWAP1 DUP2 MSTORE PUSH1 0x40 DUP1 DUP4 KECCAK256 DUP7 DUP5 MSTORE DUP3 MSTORE DUP1 DUP4 KECCAK256 DUP6 SWAP1 SSTORE SWAP4 DUP3 MSTORE PUSH1 0x7 SWAP1 MSTORE SWAP2 SWAP1 SWAP2 KECCAK256 SWAP2 SWAP1 SWAP2 SSTORE POP JUMP JUMPDEST PUSH1 0x1 PUSH1 0x1 PUSH1 0xA0 SHL SUB DUP3 AND PUSH2 0x35FE JUMPI PUSH1 0x40 MLOAD PUSH3 0x461BCD PUSH1 0xE5 SHL DUP2 MSTORE PUSH1 0x20 PUSH1 0x4 DUP3 ADD DUP2 SWAP1 MSTORE PUSH1 0x24 DUP3 ADD MSTORE PUSH32 0x4552433732313A206D696E7420746F20746865207A65726F2061646472657373 PUSH1 0x44 DUP3 ADD MSTORE PUSH1 0x64 ADD PUSH2 0x656 JUMP JUMPDEST PUSH2 0x3607 DUP2 PUSH2 0x28BB JUMP JUMPDEST ISZERO PUSH2 0x3654 JUMPI PUSH1 0x40 MLOAD PUSH3 0x461BCD PUSH1 0xE5 SHL DUP2 MSTORE PUSH1 0x20 PUSH1 0x4 DUP3 ADD MSTORE PUSH1 0x1C PUSH1 0x24 DUP3 ADD MSTORE PUSH32 0x4552433732313A20746F6B656E20616C7265616479206D696E74656400000000 PUSH1 0x44 DUP3 ADD MSTORE PUSH1 0x64 ADD PUSH2 0x656 JUMP JUMPDEST PUSH2 0x3662 PUSH1 0x0 DUP4 DUP4 PUSH1 0x1 PUSH2 0x30E2 JUMP JUMPDEST PUSH2 0x366B DUP2 PUSH2 0x28BB JUMP JUMPDEST ISZERO PUSH2 0x36B8 JUMPI PUSH1 0x40 MLOAD PUSH3 0x461BCD PUSH1 0xE5 SHL DUP2 MSTORE PUSH1 0x20 PUSH1 0x4 DUP3 ADD MSTORE PUSH1 0x1C PUSH1 0x24 DUP3 ADD MSTORE PUSH32 0x4552433732313A20746F6B656E20616C7265616479206D696E74656400000000 PUSH1 0x44 DUP3 ADD MSTORE PUSH1 0x64 ADD PUSH2 0x656 JUMP JUMPDEST PUSH1 0x1 PUSH1 0x1 PUSH1 0xA0 SHL SUB DUP3 AND PUSH1 0x0 DUP2 DUP2 MSTORE PUSH1 0x3 PUSH1 0x20 SWAP1 DUP2 MSTORE PUSH1 0x40 DUP1 DUP4 KECCAK256 DUP1 SLOAD PUSH1 0x1 ADD SWAP1 SSTORE DUP5 DUP4 MSTORE PUSH1 0x2 SWAP1 SWAP2 MSTORE DUP1 DUP3 KECCAK256 DUP1 SLOAD PUSH1 0x1 PUSH1 0x1 PUSH1 0xA0 SHL SUB NOT AND DUP5 OR SWAP1 SSTORE MLOAD DUP4 SWAP3 SWAP2 SWAP1 PUSH32 0xDDF252AD1BE2C89B69C2B068FC378DAA952BA7F163C4A11628F55A4DF523B3EF SWAP1 DUP3 SWAP1 LOG4 POP POP JUMP JUMPDEST PUSH1 0x40 MLOAD DUP1 PUSH2 0x7A0 ADD PUSH1 0x40 MSTORE DUP1 PUSH1 0x60 DUP2 MSTORE PUSH1 0x20 ADD PUSH1 0x0 DUP2 MSTORE PUSH1 0x20 ADD PUSH1 0x0 DUP2 MSTORE PUSH1 0x20 ADD PUSH1 0x0 DUP2 MSTORE PUSH1 0x20 ADD PUSH1 0x0 DUP2 MSTORE PUSH1 0x20 ADD PUSH1 0x0 DUP2 MSTORE PUSH1 0x20 ADD PUSH1 0x0 DUP2 MSTORE PUSH1 0x20 ADD PUSH1 0x0 DUP2 MSTORE PUSH1 0x20 ADD PUSH1 0x0 DUP2 MSTORE PUSH1 0x20 ADD PUSH1 0x0 DUP2 MSTORE PUSH1 0x20 ADD PUSH1 0x0 DUP2 MSTORE PUSH1 0x20 ADD PUSH1 0x0 DUP2 MSTORE PUSH1 0x20 ADD PUSH1 0x0 DUP2 MSTORE PUSH1 0x20 ADD PUSH1 0x0 DUP2 MSTORE PUSH1 0x20 ADD PUSH1 0x0 DUP2 MSTORE PUSH1 0x20 ADD PUSH1 0x0 DUP2 MSTORE PUSH1 0x20 ADD PUSH1 0x0 DUP2 MSTORE PUSH1 0x20 ADD PUSH1 0x0 DUP2 MSTORE PUSH1 0x20 ADD PUSH1 0x0 DUP2 MSTORE PUSH1 0x20 ADD PUSH1 0x0 DUP2 MSTORE PUSH1 0x20 ADD PUSH1 0x0 DUP2 MSTORE PUSH1 0x20 ADD PUSH1 0x0 DUP2 MSTORE PUSH1 0x20 ADD PUSH1 0x0 DUP2 MSTORE PUSH1 0x20 ADD PUSH1 0x0 DUP2 MSTORE PUSH1 0x20 ADD PUSH1 0x0 DUP2 MSTORE PUSH1 0x20 ADD PUSH1 0x0 DUP2 MSTORE PUSH1 0x20 ADD PUSH1 0x0 DUP2 MSTORE PUSH1 0x20 ADD PUSH1 0x0 DUP2 MSTORE PUSH1 0x20 ADD PUSH1 0x0 DUP2 MSTORE PUSH1 0x20 ADD PUSH1 0x0 DUP2 MSTORE PUSH1 0x20 ADD PUSH1 0x0 DUP2 MSTORE PUSH1 0x20 ADD PUSH1 0x0 DUP2 MSTORE PUSH1 0x20 ADD PUSH1 0x0 DUP2 MSTORE PUSH1 0x20 ADD PUSH1 0x0 DUP2 MSTORE PUSH1 0x20 ADD PUSH1 0x0 DUP2 MSTORE PUSH1 0x20 ADD PUSH1 0x0 DUP2 MSTORE PUSH1 0x20 ADD PUSH1 0x0 DUP2 MSTORE PUSH1 0x20 ADD PUSH1 0x0 DUP2 MSTORE PUSH1 0x20 ADD PUSH1 0x0 DUP2 MSTORE PUSH1 0x20 ADD PUSH1 0x0 DUP2 MSTORE PUSH1 0x20 ADD PUSH1 0x0 DUP2 MSTORE PUSH1 0x20 ADD PUSH1 0x0 DUP2 MSTORE PUSH1 0x20 ADD PUSH1 0x0 DUP2 MSTORE PUSH1 0x20 ADD PUSH1 0x0 DUP2 MSTORE PUSH1 0x20 ADD PUSH1 0x0 DUP2 MSTORE PUSH1 0x20 ADD PUSH1 0x0 DUP2 MSTORE PUSH1 0x20 ADD PUSH1 0x0 DUP2 MSTORE PUSH1 0x20 ADD PUSH1 0x0 DUP2 MSTORE PUSH1 0x20 ADD PUSH1 0x0 DUP2 MSTORE PUSH1 0x20 ADD PUSH1 0x0 DUP2 MSTORE PUSH1 0x20 ADD PUSH1 0x0 DUP2 MSTORE PUSH1 0x20 ADD PUSH1 0x0 DUP2 MSTORE PUSH1 0x20 ADD PUSH1 0x0 ISZERO ISZERO DUP2 MSTORE PUSH1 0x20 ADD PUSH1 0x0 ISZERO ISZERO DUP2 MSTORE PUSH1 0x20 ADD PUSH1 0x0 ISZERO ISZERO DUP2 MSTORE PUSH1 0x20 ADD PUSH1 0x0 ISZERO ISZERO DUP2 MSTORE PUSH1 0x20 ADD PUSH1 0x0 ISZERO ISZERO DUP2 MSTORE PUSH1 0x20 ADD PUSH1 0x0 ISZERO ISZERO DUP2 MSTORE PUSH1 0x20 ADD PUSH1 0x0 ISZERO ISZERO DUP2 MSTORE PUSH1 0x20 ADD PUSH1 0x0 ISZERO ISZERO DUP2 MSTORE PUSH1 0x20 ADD PUSH1 0x0 ISZERO ISZERO DUP2 MSTORE POP SWAP1 JUMP JUMPDEST PUSH1 0x40 MLOAD DUP1 PUSH1 0x40 ADD PUSH1 0x40 MSTORE DUP1 PUSH1 0x2 SWAP1 PUSH1 0x20 DUP3 MUL DUP1 CALLDATASIZE DUP4 CALLDATACOPY POP SWAP2 SWAP3 SWAP2 POP POP JUMP JUMPDEST DUP3 DUP1 SLOAD DUP3 DUP3 SSTORE SWAP1 PUSH1 0x0 MSTORE PUSH1 0x20 PUSH1 0x0 KECCAK256 SWAP1 DUP2 ADD SWAP3 DUP3 ISZERO PUSH2 0x3946 JUMPI SWAP2 PUSH1 0x20 MUL DUP3 ADD JUMPDEST DUP3 DUP2 GT ISZERO PUSH2 0x3946 JUMPI DUP3 MLOAD DUP3 SSTORE SWAP2 PUSH1 0x20 ADD SWAP2 SWAP1 PUSH1 0x1 ADD SWAP1 PUSH2 0x392B JUMP JUMPDEST POP PUSH2 0x3952 SWAP3 SWAP2 POP PUSH2 0x3956 JUMP JUMPDEST POP SWAP1 JUMP JUMPDEST JUMPDEST DUP1 DUP3 GT ISZERO PUSH2 0x3952 JUMPI PUSH1 0x0 DUP2 SSTORE PUSH1 0x1 ADD PUSH2 0x3957 JUMP JUMPDEST PUSH1 0x1 PUSH1 0x1 PUSH1 0xE0 SHL SUB NOT DUP2 AND DUP2 EQ PUSH2 0x284A JUMPI PUSH1 0x0 DUP1 REVERT JUMPDEST PUSH1 0x0 PUSH1 0x20 DUP3 DUP5 SUB SLT ISZERO PUSH2 0x3993 JUMPI PUSH1 0x0 DUP1 REVERT JUMPDEST DUP2 CALLDATALOAD PUSH2 0x1FD5 DUP2 PUSH2 0x396B JUMP JUMPDEST PUSH1 0x0 JUMPDEST DUP4 DUP2 LT ISZERO PUSH2 0x39B9 JUMPI DUP2 DUP2 ADD MLOAD DUP4 DUP3 ADD MSTORE PUSH1 0x20 ADD PUSH2 0x39A1 JUMP JUMPDEST POP POP PUSH1 0x0 SWAP2 ADD MSTORE JUMP JUMPDEST PUSH1 0x0 DUP2 MLOAD DUP1 DUP5 MSTORE PUSH2 0x39DA DUP2 PUSH1 0x20 DUP7 ADD PUSH1 0x20 DUP7 ADD PUSH2 0x399E JUMP JUMPDEST PUSH1 0x1F ADD PUSH1 0x1F NOT AND SWAP3 SWAP1 SWAP3 ADD PUSH1 0x20 ADD SWAP3 SWAP2 POP POP JUMP JUMPDEST PUSH1 0x20 DUP2 MSTORE PUSH1 0x0 PUSH2 0x1FD5 PUSH1 0x20 DUP4 ADD DUP5 PUSH2 0x39C2 JUMP JUMPDEST PUSH1 0x0 PUSH1 0x20 DUP3 DUP5 SUB SLT ISZERO PUSH2 0x3A13 JUMPI PUSH1 0x0 DUP1 REVERT JUMPDEST POP CALLDATALOAD SWAP2 SWAP1 POP JUMP JUMPDEST DUP1 CALLDATALOAD PUSH1 0x1 PUSH1 0x1 PUSH1 0xA0 SHL SUB DUP2 AND DUP2 EQ PUSH2 0x3A31 JUMPI PUSH1 0x0 DUP1 REVERT JUMPDEST SWAP2 SWAP1 POP JUMP JUMPDEST PUSH1 0x0 DUP1 PUSH1 0x40 DUP4 DUP6 SUB SLT ISZERO PUSH2 0x3A49 JUMPI PUSH1 0x0 DUP1 REVERT JUMPDEST PUSH2 0x3A52 DUP4 PUSH2 0x3A1A JUMP JUMPDEST SWAP5 PUSH1 0x20 SWAP4 SWAP1 SWAP4 ADD CALLDATALOAD SWAP4 POP POP POP JUMP JUMPDEST PUSH1 0x20 DUP2 MSTORE PUSH1 0x0 DUP3 MLOAD PUSH2 0x7A0 DUP1 PUSH1 0x20 DUP6 ADD MSTORE PUSH2 0x3A7F PUSH2 0x7C0 DUP6 ADD DUP4 PUSH2 0x39C2 JUMP JUMPDEST PUSH1 0x20 DUP7 ADD MLOAD PUSH1 0x40 DUP7 DUP2 ADD SWAP2 SWAP1 SWAP2 MSTORE DUP7 ADD MLOAD PUSH1 0x60 DUP1 DUP8 ADD SWAP2 SWAP1 SWAP2 MSTORE DUP7 ADD MLOAD PUSH1 0x80 DUP1 DUP8 ADD SWAP2 SWAP1 SWAP2 MSTORE DUP7 ADD MLOAD PUSH1 0xA0 DUP1 DUP8 ADD SWAP2 SWAP1 SWAP2 MSTORE DUP7 ADD MLOAD PUSH1 0xC0 DUP1 DUP8 ADD SWAP2 SWAP1 SWAP2 MSTORE DUP7 ADD MLOAD PUSH1 0xE0 DUP1 DUP8 ADD SWAP2 SWAP1 SWAP2 MSTORE DUP7 ADD MLOAD PUSH2 0x100 DUP1 DUP8 ADD SWAP2 SWAP1 SWAP2 MSTORE DUP7 ADD MLOAD PUSH2 0x120 DUP1 DUP8 ADD SWAP2 SWAP1 SWAP2 MSTORE DUP7 ADD MLOAD PUSH2 0x140 DUP1 DUP8 ADD SWAP2 SWAP1 SWAP2 MSTORE DUP7 ADD MLOAD PUSH2 0x160 DUP1 DUP8 ADD SWAP2 SWAP1 SWAP2 MSTORE DUP7 ADD MLOAD PUSH2 0x180 DUP1 DUP8 ADD SWAP2 SWAP1 SWAP2 MSTORE DUP7 ADD MLOAD PUSH2 0x1A0 DUP1 DUP8 ADD SWAP2 SWAP1 SWAP2 MSTORE DUP7 ADD MLOAD PUSH2 0x1C0 DUP1 DUP8 ADD SWAP2 SWAP1 SWAP2 MSTORE DUP7 ADD MLOAD PUSH2 0x1E0 DUP1 DUP8 ADD SWAP2 SWAP1 SWAP2 MSTORE DUP7 ADD MLOAD PUSH2 0x200 DUP1 DUP8 ADD SWAP2 SWAP1 SWAP2 MSTORE DUP7 ADD MLOAD PUSH2 0x220 DUP1 DUP8 ADD SWAP2 SWAP1 SWAP2 MSTORE DUP7 ADD MLOAD PUSH2 0x240 DUP1 DUP8 ADD SWAP2 SWAP1 SWAP2 MSTORE DUP7 ADD MLOAD PUSH2 0x260 DUP1 DUP8 ADD SWAP2 SWAP1 SWAP2 MSTORE DUP7 ADD MLOAD PUSH2 0x280 DUP1 DUP8 ADD SWAP2 SWAP1 SWAP2 MSTORE DUP7 ADD MLOAD PUSH2 0x2A0 DUP1 DUP8 ADD SWAP2 SWAP1 SWAP2 MSTORE DUP7 ADD MLOAD PUSH2 0x2C0 DUP1 DUP8 ADD SWAP2 SWAP1 SWAP2 MSTORE DUP7 ADD MLOAD PUSH2 0x2E0 DUP1 DUP8 ADD SWAP2 SWAP1 SWAP2 MSTORE DUP7 ADD MLOAD PUSH2 0x300 DUP1 DUP8 ADD SWAP2 SWAP1 SWAP2 MSTORE DUP7 ADD MLOAD PUSH2 0x320 DUP1 DUP8 ADD SWAP2 SWAP1 SWAP2 MSTORE DUP7 ADD MLOAD PUSH2 0x340 DUP1 DUP8 ADD SWAP2 SWAP1 SWAP2 MSTORE DUP7 ADD MLOAD PUSH2 0x360 DUP1 DUP8 ADD SWAP2 SWAP1 SWAP2 MSTORE DUP7 ADD MLOAD PUSH2 0x380 DUP1 DUP8 ADD SWAP2 SWAP1 SWAP2 MSTORE DUP7 ADD MLOAD PUSH2 0x3A0 DUP1 DUP8 ADD SWAP2 SWAP1 SWAP2 MSTORE DUP7 ADD MLOAD PUSH2 0x3C0 DUP1 DUP8 ADD SWAP2 SWAP1 SWAP2 MSTORE DUP7 ADD MLOAD PUSH2 0x3E0 DUP1 DUP8 ADD SWAP2 SWAP1 SWAP2 MSTORE DUP7 ADD MLOAD PUSH2 0x400 DUP1 DUP8 ADD SWAP2 SWAP1 SWAP2 MSTORE DUP7 ADD MLOAD PUSH2 0x420 DUP1 DUP8 ADD SWAP2 SWAP1 SWAP2 MSTORE DUP7 ADD MLOAD PUSH2 0x440 DUP1 DUP8 ADD SWAP2 SWAP1 SWAP2 MSTORE DUP7 ADD MLOAD PUSH2 0x460 DUP1 DUP8 ADD SWAP2 SWAP1 SWAP2 MSTORE DUP7 ADD MLOAD PUSH2 0x480 DUP1 DUP8 ADD SWAP2 SWAP1 SWAP2 MSTORE DUP7 ADD MLOAD PUSH2 0x4A0 DUP1 DUP8 ADD SWAP2 SWAP1 SWAP2 MSTORE DUP7 ADD MLOAD PUSH2 0x4C0 DUP1 DUP8 ADD SWAP2 SWAP1 SWAP2 MSTORE DUP7 ADD MLOAD PUSH2 0x4E0 DUP1 DUP8 ADD SWAP2 SWAP1 SWAP2 MSTORE DUP7 ADD MLOAD PUSH2 0x500 DUP1 DUP8 ADD SWAP2 SWAP1 SWAP2 MSTORE DUP7 ADD MLOAD PUSH2 0x520 DUP1 DUP8 ADD SWAP2 SWAP1 SWAP2 MSTORE DUP7 ADD MLOAD PUSH2 0x540 DUP1 DUP8 ADD SWAP2 SWAP1 SWAP2 MSTORE DUP7 ADD MLOAD PUSH2 0x560 DUP1 DUP8 ADD SWAP2 SWAP1 SWAP2 MSTORE DUP7 ADD MLOAD PUSH2 0x580 DUP1 DUP8 ADD SWAP2 SWAP1 SWAP2 MSTORE DUP7 ADD MLOAD PUSH2 0x5A0 DUP1 DUP8 ADD SWAP2 SWAP1 SWAP2 MSTORE DUP7 ADD MLOAD PUSH2 0x5C0 DUP1 DUP8 ADD SWAP2 SWAP1 SWAP2 MSTORE DUP7 ADD MLOAD PUSH2 0x5E0 DUP1 DUP8 ADD SWAP2 SWAP1 SWAP2 MSTORE DUP7 ADD MLOAD PUSH2 0x600 DUP1 DUP8 ADD SWAP2 SWAP1 SWAP2 MSTORE DUP7 ADD MLOAD PUSH2 0x620 DUP1 DUP8 ADD SWAP2 SWAP1 SWAP2 MSTORE DUP7 ADD MLOAD PUSH2 0x640 DUP1 DUP8 ADD SWAP2 SWAP1 SWAP2 MSTORE DUP7 ADD MLOAD PUSH2 0x660 DUP1 DUP8 ADD SWAP2 SWAP1 SWAP2 MSTORE DUP7 ADD MLOAD PUSH2 0x680 DUP1 DUP8 ADD SWAP2 SWAP1 SWAP2 MSTORE DUP7 ADD MLOAD SWAP1 SWAP3 POP PUSH2 0x6A0 PUSH2 0x3D28 DUP2 DUP8 ADD DUP4 ISZERO ISZERO SWAP1 MSTORE JUMP JUMPDEST DUP7 ADD MLOAD SWAP1 POP PUSH2 0x6C0 PUSH2 0x3D3D DUP7 DUP3 ADD DUP4 ISZERO ISZERO SWAP1 MSTORE JUMP JUMPDEST DUP7 ADD MLOAD SWAP1 POP PUSH2 0x6E0 PUSH2 0x3D52 DUP7 DUP3 ADD DUP4 ISZERO ISZERO SWAP1 MSTORE JUMP JUMPDEST DUP7 ADD MLOAD SWAP1 POP PUSH2 0x700 PUSH2 0x3D67 DUP7 DUP3 ADD DUP4 ISZERO ISZERO SWAP1 MSTORE JUMP JUMPDEST DUP7 ADD MLOAD SWAP1 POP PUSH2 0x720 PUSH2 0x3D7C DUP7 DUP3 ADD DUP4 ISZERO ISZERO SWAP1 MSTORE JUMP JUMPDEST DUP7 ADD MLOAD SWAP1 POP PUSH2 0x740 PUSH2 0x3D91 DUP7 DUP3 ADD DUP4 ISZERO ISZERO SWAP1 MSTORE JUMP JUMPDEST DUP7 ADD MLOAD SWAP1 POP PUSH2 0x760 PUSH2 0x3DA6 DUP7 DUP3 ADD DUP4 ISZERO ISZERO SWAP1 MSTORE JUMP JUMPDEST DUP7 ADD MLOAD SWAP1 POP PUSH2 0x780 PUSH2 0x3DBB DUP7 DUP3 ADD DUP4 ISZERO ISZERO SWAP1 MSTORE JUMP JUMPDEST SWAP1 SWAP6 ADD MLOAD ISZERO ISZERO SWAP4 ADD SWAP3 SWAP1 SWAP3 MSTORE POP SWAP2 SWAP1 POP JUMP JUMPDEST PUSH1 0x0 DUP1 PUSH1 0x0 PUSH1 0x60 DUP5 DUP7 SUB SLT ISZERO PUSH2 0x3DE2 JUMPI PUSH1 0x0 DUP1 REVERT JUMPDEST PUSH2 0x3DEB DUP5 PUSH2 0x3A1A JUMP JUMPDEST SWAP3 POP PUSH2 0x3DF9 PUSH1 0x20 DUP6 ADD PUSH2 0x3A1A JUMP JUMPDEST SWAP2 POP PUSH1 0x40 DUP5 ADD CALLDATALOAD SWAP1 POP SWAP3 POP SWAP3 POP SWAP3 JUMP JUMPDEST PUSH1 0x20 DUP1 DUP3 MSTORE DUP3 MLOAD DUP3 DUP3 ADD DUP2 SWAP1 MSTORE PUSH1 0x0 SWAP2 SWAP1 PUSH1 0x40 SWAP1 DUP2 DUP6 ADD SWAP1 DUP7 DUP5 ADD DUP6 DUP1 JUMPDEST DUP4 DUP2 LT ISZERO PUSH2 0x3E64 JUMPI DUP3 MLOAD DUP6 DUP4 JUMPDEST PUSH1 0x2 DUP2 LT ISZERO PUSH2 0x3E51 JUMPI DUP3 MLOAD DUP3 MSTORE SWAP2 DUP10 ADD SWAP2 SWAP1 DUP10 ADD SWAP1 PUSH1 0x1 ADD PUSH2 0x3E34 JUMP JUMPDEST POP POP POP SWAP4 DUP6 ADD SWAP4 SWAP2 DUP7 ADD SWAP2 PUSH1 0x1 ADD PUSH2 0x3E27 JUMP JUMPDEST POP SWAP3 SWAP9 SWAP8 POP POP POP POP POP POP POP POP JUMP JUMPDEST PUSH1 0x0 PUSH1 0x20 DUP3 DUP5 SUB SLT ISZERO PUSH2 0x3E84 JUMPI PUSH1 0x0 DUP1 REVERT JUMPDEST PUSH2 0x1FD5 DUP3 PUSH2 0x3A1A JUMP JUMPDEST PUSH1 0x0 DUP1 PUSH1 0x0 DUP1 PUSH2 0x7A0 DUP1 DUP7 DUP9 SUB SLT ISZERO PUSH2 0x3EA5 JUMPI PUSH1 0x0 DUP1 REVERT JUMPDEST DUP6 CALLDATALOAD PUSH8 0xFFFFFFFFFFFFFFFF DUP1 DUP3 GT ISZERO PUSH2 0x3EBD JUMPI PUSH1 0x0 DUP1 REVERT JUMPDEST DUP2 DUP9 ADD SWAP2 POP DUP9 PUSH1 0x1F DUP4 ADD SLT PUSH2 0x3ED1 JUMPI PUSH1 0x0 DUP1 REVERT JUMPDEST DUP2 CALLDATALOAD DUP2 DUP2 GT ISZERO PUSH2 0x3EE0 JUMPI PUSH1 0x0 DUP1 REVERT JUMPDEST DUP10 PUSH1 0x20 DUP3 DUP6 ADD ADD GT ISZERO PUSH2 0x3EF2 JUMPI PUSH1 0x0 DUP1 REVERT JUMPDEST PUSH1 0x20 DUP4 ADD SWAP8 POP DUP1 SWAP7 POP POP POP POP PUSH2 0x680 DUP7 ADD DUP8 DUP2 GT ISZERO PUSH2 0x3F10 JUMPI PUSH1 0x0 DUP1 REVERT JUMPDEST PUSH1 0x20 DUP8 ADD SWAP4 POP DUP8 DUP3 DUP9 ADD GT ISZERO PUSH2 0x3F25 JUMPI PUSH1 0x0 DUP1 REVERT JUMPDEST SWAP5 SWAP8 SWAP4 SWAP7 POP SWAP2 SWAP5 POP POP POP JUMP JUMPDEST PUSH1 0x0 DUP1 PUSH1 0x40 DUP4 DUP6 SUB SLT ISZERO PUSH2 0x3F44 JUMPI PUSH1 0x0 DUP1 REVERT JUMPDEST POP POP DUP1 CALLDATALOAD SWAP3 PUSH1 0x20 SWAP1 SWAP2 ADD CALLDATALOAD SWAP2 POP JUMP JUMPDEST DUP1 CALLDATALOAD DUP1 ISZERO ISZERO DUP2 EQ PUSH2 0x3A31 JUMPI PUSH1 0x0 DUP1 REVERT JUMPDEST PUSH1 0x0 DUP1 PUSH1 0x40 DUP4 DUP6 SUB SLT ISZERO PUSH2 0x3F76 JUMPI PUSH1 0x0 DUP1 REVERT JUMPDEST PUSH2 0x3F7F DUP4 PUSH2 0x3A1A JUMP JUMPDEST SWAP2 POP PUSH2 0x3F8D PUSH1 0x20 DUP5 ADD PUSH2 0x3F53 JUMP JUMPDEST SWAP1 POP SWAP3 POP SWAP3 SWAP1 POP JUMP JUMPDEST DUP1 PUSH1 0x80 DUP2 ADD DUP4 LT ISZERO PUSH2 0x523 JUMPI PUSH1 0x0 DUP1 REVERT JUMPDEST PUSH1 0x0 DUP1 DUP4 PUSH1 0x1F DUP5 ADD SLT PUSH2 0x3FB9 JUMPI PUSH1 0x0 DUP1 REVERT JUMPDEST POP DUP2 CALLDATALOAD PUSH8 0xFFFFFFFFFFFFFFFF DUP2 GT ISZERO PUSH2 0x3FD1 JUMPI PUSH1 0x0 DUP1 REVERT JUMPDEST PUSH1 0x20 DUP4 ADD SWAP2 POP DUP4 PUSH1 0x20 DUP3 PUSH1 0x5 SHL DUP6 ADD ADD GT ISZERO PUSH2 0x3FEC JUMPI PUSH1 0x0 DUP1 REVERT JUMPDEST SWAP3 POP SWAP3 SWAP1 POP JUMP JUMPDEST PUSH1 0x0 DUP1 PUSH1 0x0 DUP1 PUSH1 0x0 DUP1 PUSH1 0x0 DUP1 PUSH1 0x0 DUP1 PUSH2 0x120 DUP12 DUP14 SUB SLT ISZERO PUSH2 0x4013 JUMPI PUSH1 0x0 DUP1 REVERT JUMPDEST DUP11 CALLDATALOAD SWAP10 POP PUSH2 0x4024 DUP13 PUSH1 0x20 DUP14 ADD PUSH2 0x3F96 JUMP JUMPDEST SWAP9 POP PUSH1 0xA0 DUP12 ADD CALLDATALOAD PUSH8 0xFFFFFFFFFFFFFFFF DUP1 DUP3 GT ISZERO PUSH2 0x4041 JUMPI PUSH1 0x0 DUP1 REVERT JUMPDEST PUSH2 0x404D DUP15 DUP4 DUP16 ADD PUSH2 0x3FA7 JUMP JUMPDEST SWAP1 SWAP11 POP SWAP9 POP PUSH1 0xC0 DUP14 ADD CALLDATALOAD SWAP2 POP DUP1 DUP3 GT ISZERO PUSH2 0x4066 JUMPI PUSH1 0x0 DUP1 REVERT JUMPDEST PUSH2 0x4072 DUP15 DUP4 DUP16 ADD PUSH2 0x3FA7 JUMP JUMPDEST SWAP1 SWAP9 POP SWAP7 POP PUSH1 0xE0 DUP14 ADD CALLDATALOAD SWAP2 POP DUP1 DUP3 GT ISZERO PUSH2 0x408B JUMPI PUSH1 0x0 DUP1 REVERT JUMPDEST PUSH2 0x4097 DUP15 DUP4 DUP16 ADD PUSH2 0x3FA7 JUMP JUMPDEST SWAP1 SWAP7 POP SWAP5 POP PUSH2 0x100 DUP14 ADD CALLDATALOAD SWAP2 POP DUP1 DUP3 GT ISZERO PUSH2 0x40B1 JUMPI PUSH1 0x0 DUP1 REVERT JUMPDEST POP PUSH2 0x40BE DUP14 DUP3 DUP15 ADD PUSH2 0x3FA7 JUMP JUMPDEST SWAP2 POP DUP1 SWAP4 POP POP DUP1 SWAP2 POP POP SWAP3 SWAP6 SWAP9 SWAP12 SWAP2 SWAP5 SWAP8 SWAP11 POP SWAP3 SWAP6 SWAP9 POP JUMP JUMPDEST PUSH4 0x4E487B71 PUSH1 0xE0 SHL PUSH1 0x0 MSTORE PUSH1 0x41 PUSH1 0x4 MSTORE PUSH1 0x24 PUSH1 0x0 REVERT JUMPDEST PUSH1 0x0 DUP1 PUSH1 0x0 DUP1 PUSH1 0x80 DUP6 DUP8 SUB SLT ISZERO PUSH2 0x4103 JUMPI PUSH1 0x0 DUP1 REVERT JUMPDEST PUSH2 0x410C DUP6 PUSH2 0x3A1A JUMP JUMPDEST SWAP4 POP PUSH2 0x411A PUSH1 0x20 DUP7 ADD PUSH2 0x3A1A JUMP JUMPDEST SWAP3 POP PUSH1 0x40 DUP6 ADD CALLDATALOAD SWAP2 POP PUSH1 0x60 DUP6 ADD CALLDATALOAD PUSH8 0xFFFFFFFFFFFFFFFF DUP1 DUP3 GT ISZERO PUSH2 0x413E JUMPI PUSH1 0x0 DUP1 REVERT JUMPDEST DUP2 DUP8 ADD SWAP2 POP DUP8 PUSH1 0x1F DUP4 ADD SLT PUSH2 0x4152 JUMPI PUSH1 0x0 DUP1 REVERT JUMPDEST DUP2 CALLDATALOAD DUP2 DUP2 GT ISZERO PUSH2 0x4164 JUMPI PUSH2 0x4164 PUSH2 0x40D7 JUMP JUMPDEST PUSH1 0x40 MLOAD PUSH1 0x1F DUP3 ADD PUSH1 0x1F NOT SWAP1 DUP2 AND PUSH1 0x3F ADD AND DUP2 ADD SWAP1 DUP4 DUP3 GT DUP2 DUP4 LT OR ISZERO PUSH2 0x418C JUMPI PUSH2 0x418C PUSH2 0x40D7 JUMP JUMPDEST DUP2 PUSH1 0x40 MSTORE DUP3 DUP2 MSTORE DUP11 PUSH1 0x20 DUP5 DUP8 ADD ADD GT ISZERO PUSH2 0x41A5 JUMPI PUSH1 0x0 DUP1 REVERT JUMPDEST DUP3 PUSH1 0x20 DUP7 ADD PUSH1 0x20 DUP4 ADD CALLDATACOPY PUSH1 0x0 PUSH1 0x20 DUP5 DUP4 ADD ADD MSTORE DUP1 SWAP6 POP POP POP POP POP POP SWAP3 SWAP6 SWAP2 SWAP5 POP SWAP3 POP JUMP JUMPDEST PUSH1 0x20 DUP1 DUP3 MSTORE DUP3 MLOAD DUP3 DUP3 ADD DUP2 SWAP1 MSTORE PUSH1 0x0 SWAP2 SWAP1 DUP5 DUP3 ADD SWAP1 PUSH1 0x40 DUP6 ADD SWAP1 DUP5 JUMPDEST DUP2 DUP2 LT ISZERO PUSH2 0x4201 JUMPI DUP4 MLOAD DUP4 MSTORE SWAP3 DUP5 ADD SWAP3 SWAP2 DUP5 ADD SWAP2 PUSH1 0x1 ADD PUSH2 0x41E5 JUMP JUMPDEST POP SWAP1 SWAP7 SWAP6 POP POP POP POP POP POP JUMP JUMPDEST PUSH1 0x0 DUP1 PUSH1 0x40 DUP4 DUP6 SUB SLT ISZERO PUSH2 0x4220 JUMPI PUSH1 0x0 DUP1 REVERT JUMPDEST PUSH2 0x4229 DUP4 PUSH2 0x3A1A JUMP JUMPDEST SWAP2 POP PUSH2 0x3F8D PUSH1 0x20 DUP5 ADD PUSH2 0x3A1A JUMP JUMPDEST PUSH1 0x1 DUP2 DUP2 SHR SWAP1 DUP3 AND DUP1 PUSH2 0x424B JUMPI PUSH1 0x7F DUP3 AND SWAP2 POP JUMPDEST PUSH1 0x20 DUP3 LT DUP2 SUB PUSH2 0x426B JUMPI PUSH4 0x4E487B71 PUSH1 0xE0 SHL PUSH1 0x0 MSTORE PUSH1 0x22 PUSH1 0x4 MSTORE PUSH1 0x24 PUSH1 0x0 REVERT JUMPDEST POP SWAP2 SWAP1 POP JUMP JUMPDEST PUSH1 0x20 DUP1 DUP3 MSTORE PUSH1 0x14 SWAP1 DUP3 ADD MSTORE PUSH20 0x151BDAD95B88191BD95CC81B9BDD08195E1A5CDD PUSH1 0x62 SHL PUSH1 0x40 DUP3 ADD MSTORE PUSH1 0x60 ADD SWAP1 JUMP JUMPDEST PUSH1 0x20 DUP1 DUP3 MSTORE PUSH1 0x2D SWAP1 DUP3 ADD MSTORE PUSH32 0x4552433732313A2063616C6C6572206973206E6F7420746F6B656E206F776E65 PUSH1 0x40 DUP3 ADD MSTORE PUSH13 0x1C881BDC88185C1C1C9BDD9959 PUSH1 0x9A SHL PUSH1 0x60 DUP3 ADD MSTORE PUSH1 0x80 ADD SWAP1 JUMP JUMPDEST PUSH4 0x4E487B71 PUSH1 0xE0 SHL PUSH1 0x0 MSTORE PUSH1 0x32 PUSH1 0x4 MSTORE PUSH1 0x24 PUSH1 0x0 REVERT JUMPDEST PUSH4 0x4E487B71 PUSH1 0xE0 SHL PUSH1 0x0 MSTORE PUSH1 0x11 PUSH1 0x4 MSTORE PUSH1 0x24 PUSH1 0x0 REVERT JUMPDEST PUSH1 0x0 PUSH1 0x1 DUP3 ADD PUSH2 0x432A JUMPI PUSH2 0x432A PUSH2 0x4302 JUMP JUMPDEST POP PUSH1 0x1 ADD SWAP1 JUMP JUMPDEST PUSH1 0x0 PUSH1 0x20 DUP3 DUP5 SUB SLT ISZERO PUSH2 0x4343 JUMPI PUSH1 0x0 DUP1 REVERT JUMPDEST PUSH2 0x1FD5 DUP3 PUSH2 0x3F53 JUMP JUMPDEST PUSH1 0x1F DUP3 GT ISZERO PUSH2 0x6F7 JUMPI PUSH1 0x0 DUP2 DUP2 MSTORE PUSH1 0x20 DUP2 KECCAK256 PUSH1 0x1F DUP6 ADD PUSH1 0x5 SHR DUP2 ADD PUSH1 0x20 DUP7 LT ISZERO PUSH2 0x4373 JUMPI POP DUP1 JUMPDEST PUSH1 0x1F DUP6 ADD PUSH1 0x5 SHR DUP3 ADD SWAP2 POP JUMPDEST DUP2 DUP2 LT ISZERO PUSH2 0x4392 JUMPI DUP3 DUP2 SSTORE PUSH1 0x1 ADD PUSH2 0x437F JUMP JUMPDEST POP POP POP POP POP POP JUMP JUMPDEST DUP2 MLOAD PUSH8 0xFFFFFFFFFFFFFFFF DUP2 GT ISZERO PUSH2 0x43B4 JUMPI PUSH2 0x43B4 PUSH2 0x40D7 JUMP JUMPDEST PUSH2 0x43C8 DUP2 PUSH2 0x43C2 DUP5 SLOAD PUSH2 0x4237 JUMP JUMPDEST DUP5 PUSH2 0x434C JUMP JUMPDEST PUSH1 0x20 DUP1 PUSH1 0x1F DUP4 GT PUSH1 0x1 DUP2 EQ PUSH2 0x43FD JUMPI PUSH1 0x0 DUP5 ISZERO PUSH2 0x43E5 JUMPI POP DUP6 DUP4 ADD MLOAD JUMPDEST PUSH1 0x0 NOT PUSH1 0x3 DUP7 SWAP1 SHL SHR NOT AND PUSH1 0x1 DUP6 SWAP1 SHL OR DUP6 SSTORE PUSH2 0x4392 JUMP JUMPDEST PUSH1 0x0 DUP6 DUP2 MSTORE PUSH1 0x20 DUP2 KECCAK256 PUSH1 0x1F NOT DUP7 AND SWAP2 JUMPDEST DUP3 DUP2 LT ISZERO PUSH2 0x442C JUMPI DUP9 DUP7 ADD MLOAD DUP3 SSTORE SWAP5 DUP5 ADD SWAP5 PUSH1 0x1 SWAP1 SWAP2 ADD SWAP1 DUP5 ADD PUSH2 0x440D JUMP JUMPDEST POP DUP6 DUP3 LT ISZERO PUSH2 0x444A JUMPI DUP8 DUP6 ADD MLOAD PUSH1 0x0 NOT PUSH1 0x3 DUP9 SWAP1 SHL PUSH1 0xF8 AND SHR NOT AND DUP2 SSTORE JUMPDEST POP POP POP POP POP PUSH1 0x1 SWAP1 DUP2 SHL ADD SWAP1 SSTORE POP JUMP JUMPDEST DUP2 DUP2 SUB DUP2 DUP2 GT ISZERO PUSH2 0x523 JUMPI PUSH2 0x523 PUSH2 0x4302 JUMP JUMPDEST DUP4 DUP2 MSTORE PUSH1 0x40 PUSH1 0x20 DUP3 ADD MSTORE DUP2 PUSH1 0x40 DUP3 ADD MSTORE DUP2 DUP4 PUSH1 0x60 DUP4 ADD CALLDATACOPY PUSH1 0x0 DUP2 DUP4 ADD PUSH1 0x60 SWAP1 DUP2 ADD SWAP2 SWAP1 SWAP2 MSTORE PUSH1 0x1F SWAP1 SWAP3 ADD PUSH1 0x1F NOT AND ADD ADD SWAP3 SWAP2 POP POP JUMP JUMPDEST DUP5 DUP2 MSTORE PUSH1 0x0 PUSH1 0x20 DUP6 DUP2 DUP5 ADD MSTORE PUSH1 0x1 DUP1 PUSH1 0xA0 SHL SUB DUP6 AND PUSH1 0x40 DUP5 ADD MSTORE PUSH1 0x80 PUSH1 0x60 DUP5 ADD MSTORE PUSH1 0x0 DUP5 SLOAD PUSH2 0x44D1 DUP2 PUSH2 0x4237 JUMP JUMPDEST DUP1 PUSH1 0x80 DUP8 ADD MSTORE PUSH1 0xA0 PUSH1 0x1 DUP1 DUP5 AND PUSH1 0x0 DUP2 EQ PUSH2 0x44F3 JUMPI PUSH1 0x1 DUP2 EQ PUSH2 0x450D JUMPI PUSH2 0x453B JUMP JUMPDEST PUSH1 0xFF NOT DUP6 AND DUP10 DUP5 ADD MSTORE DUP4 ISZERO ISZERO PUSH1 0x5 SHL DUP10 ADD DUP4 ADD SWAP6 POP PUSH2 0x453B JUMP JUMPDEST DUP10 PUSH1 0x0 MSTORE DUP7 PUSH1 0x0 KECCAK256 PUSH1 0x0 JUMPDEST DUP6 DUP2 LT ISZERO PUSH2 0x4533 JUMPI DUP2 SLOAD DUP12 DUP3 ADD DUP7 ADD MSTORE SWAP1 DUP4 ADD SWAP1 DUP9 ADD PUSH2 0x4518 JUMP JUMPDEST DUP11 ADD DUP5 ADD SWAP7 POP POP JUMPDEST POP SWAP4 SWAP12 SWAP11 POP POP POP POP POP POP POP POP POP POP POP JUMP JUMPDEST PUSH4 0x4E487B71 PUSH1 0xE0 SHL PUSH1 0x0 MSTORE PUSH1 0x1 PUSH1 0x4 MSTORE PUSH1 0x24 PUSH1 0x0 REVERT JUMPDEST PUSH1 0x0 DUP4 MLOAD PUSH2 0x4574 DUP2 DUP5 PUSH1 0x20 DUP9 ADD PUSH2 0x399E JUMP JUMPDEST DUP4 MLOAD SWAP1 DUP4 ADD SWAP1 PUSH2 0x4588 DUP2 DUP4 PUSH1 0x20 DUP9 ADD PUSH2 0x399E JUMP JUMPDEST ADD SWAP5 SWAP4 POP POP POP POP JUMP JUMPDEST DUP1 DUP3 MUL DUP2 ISZERO DUP3 DUP3 DIV DUP5 EQ OR PUSH2 0x523 JUMPI PUSH2 0x523 PUSH2 0x4302 JUMP JUMPDEST PUSH4 0x4E487B71 PUSH1 0xE0 SHL PUSH1 0x0 MSTORE PUSH1 0x12 PUSH1 0x4 MSTORE PUSH1 0x24 PUSH1 0x0 REVERT JUMPDEST PUSH1 0x0 DUP3 PUSH2 0x45CD JUMPI PUSH2 0x45CD PUSH2 0x45A8 JUMP JUMPDEST POP DIV SWAP1 JUMP JUMPDEST DUP1 DUP3 ADD DUP1 DUP3 GT ISZERO PUSH2 0x523 JUMPI PUSH2 0x523 PUSH2 0x4302 JUMP JUMPDEST PUSH1 0x20 DUP1 DUP3 MSTORE PUSH1 0x25 SWAP1 DUP3 ADD MSTORE PUSH32 0x4552433732313A207472616E736665722066726F6D20696E636F727265637420 PUSH1 0x40 DUP3 ADD MSTORE PUSH5 0x37BBB732B9 PUSH1 0xD9 SHL PUSH1 0x60 DUP3 ADD MSTORE PUSH1 0x80 ADD SWAP1 JUMP JUMPDEST PUSH1 0x0 DUP3 PUSH2 0x4639 JUMPI PUSH2 0x4639 PUSH2 0x45A8 JUMP JUMPDEST POP MOD SWAP1 JUMP JUMPDEST PUSH1 0x20 DUP1 DUP3 MSTORE PUSH1 0x32 SWAP1 DUP3 ADD MSTORE PUSH32 0x4552433732313A207472616E7366657220746F206E6F6E204552433732315265 PUSH1 0x40 DUP3 ADD MSTORE PUSH18 0x31B2B4BB32B91034B6B83632B6B2B73A32B9 PUSH1 0x71 SHL PUSH1 0x60 DUP3 ADD MSTORE PUSH1 0x80 ADD SWAP1 JUMP JUMPDEST PUSH1 0x1 PUSH1 0x1 PUSH1 0xA0 SHL SUB DUP6 DUP2 AND DUP3 MSTORE DUP5 AND PUSH1 0x20 DUP3 ADD MSTORE PUSH1 0x40 DUP2 ADD DUP4 SWAP1 MSTORE PUSH1 0x80 PUSH1 0x60 DUP3 ADD DUP2 SWAP1 MSTORE PUSH1 0x0 SWAP1 PUSH2 0x46C3 SWAP1 DUP4 ADD DUP5 PUSH2 0x39C2 JUMP JUMPDEST SWAP7 SWAP6 POP POP POP POP POP POP JUMP JUMPDEST PUSH1 0x0 PUSH1 0x20 DUP3 DUP5 SUB SLT ISZERO PUSH2 0x46DF JUMPI PUSH1 0x0 DUP1 REVERT JUMPDEST DUP2 MLOAD PUSH2 0x1FD5 DUP2 PUSH2 0x396B JUMP JUMPDEST PUSH4 0x4E487B71 PUSH1 0xE0 SHL PUSH1 0x0 MSTORE PUSH1 0x31 PUSH1 0x4 MSTORE PUSH1 0x24 PUSH1 0x0 REVERT INVALID LOG2 PUSH5 0x6970667358 0x22 SLT KECCAK256 INVALID ADDRESS EXTCODECOPY NOT 0x2D 0x29 0xD2 SHR 0xB2 0xB7 DIV 0xF CALLDATASIZE DUP14 PUSH5 0xDDD2F4A363 DUP14 SWAP3 SWAP4 0x2C 0xD3 0xBA MULMOD 0xAD 0xD1 0x49 0xC1 0xD3 PUSH5 0x736F6C6343 STOP ADDMOD SGT STOP CALLER "
		},
		"gasEstimates": {
			"creation": {
				"codeDepositCost": "3646000",
				"executionCost": "infinite",
				"totalCost": "infinite"
			},
			"external": {
				"approve(address,uint256)": "infinite",
				"balanceOf(address)": "2678",
				"boxDropList(uint256)": "11070",
				"buyItemFromShop(uint256,uint256)": "infinite",
				"consume(uint256)": "infinite",
				"createItem(string,uint256[51],bool[9])": "infinite",
				"dropBox(uint256)": "infinite",
				"getApproved(uint256)": "4851",
				"getFighterItems(address,uint256)": "infinite",
				"getTokenAttributes(uint256)": "infinite",
				"getUserItems(address)": "infinite",
				"isApprovedForAll(address,address)": "infinite",
				"itemName(uint256)": "infinite",
				"mintBox(address,uint256)": "infinite",
				"name()": "infinite",
				"owner()": "2449",
				"ownerOf(uint256)": "2605",
				"safeAdd(uint256,uint256)": "502",
				"safeMul(uint256,uint256)": "631",
				"safeSub(uint256,uint256)": "506",
				"safeTransferFrom(address,address,uint256)": "infinite",
				"safeTransferFrom(address,address,uint256,bytes)": "infinite",
				"setApprovalForAll(address,bool)": "infinite",
				"setBoxDrop(uint256,uint256[4],uint256[],uint256[],uint256[],uint256[])": "infinite",
				"supportsInterface(bytes4)": "infinite",
				"symbol()": "infinite",
				"tokenByIndex(uint256)": "6827",
				"tokenOfOwnerByIndex(address,uint256)": "4976",
				"tokenURI(uint256)": "infinite",
				"totalSupply()": "2349",
				"transferFrom(address,address,uint256)": "infinite"
			},
			"internal": {
				"_setTokenAttributes(uint256,struct Items.ItemAttributes memory)": "infinite",
				"getRandomNumber()": "92",
				"max(uint256,uint256)": "infinite",
				"min(uint256,uint256)": "infinite",
				"returnRandomItemFromDropList(uint256[] memory)": "infinite"
			}
		},
		"methodIdentifiers": {
			"approve(address,uint256)": "095ea7b3",
			"balanceOf(address)": "70a08231",
			"boxDropList(uint256)": "f10bbe18",
			"buyItemFromShop(uint256,uint256)": "7f46914f",
			"consume(uint256)": "483f31ab",
			"createItem(string,uint256[51],bool[9])": "75023ca8",
			"dropBox(uint256)": "88feaacc",
			"getApproved(uint256)": "081812fc",
			"getFighterItems(address,uint256)": "513c1452",
			"getTokenAttributes(uint256)": "1f4f5a23",
			"getUserItems(address)": "ce6019b4",
			"isApprovedForAll(address,address)": "e985e9c5",
			"itemName(uint256)": "7310dc8a",
			"mintBox(address,uint256)": "fb5d7f10",
			"name()": "06fdde03",
			"owner()": "8da5cb5b",
			"ownerOf(uint256)": "6352211e",
			"safeAdd(uint256,uint256)": "e6cb9013",
			"safeMul(uint256,uint256)": "d05c78da",
			"safeSub(uint256,uint256)": "a293d1e8",
			"safeTransferFrom(address,address,uint256)": "42842e0e",
			"safeTransferFrom(address,address,uint256,bytes)": "b88d4fde",
			"setApprovalForAll(address,bool)": "a22cb465",
			"setBoxDrop(uint256,uint256[4],uint256[],uint256[],uint256[],uint256[])": "b4148054",
			"supportsInterface(bytes4)": "01ffc9a7",
			"symbol()": "95d89b41",
			"tokenByIndex(uint256)": "4f6ccce7",
			"tokenOfOwnerByIndex(address,uint256)": "2f745c59",
			"tokenURI(uint256)": "c87b56dd",
			"totalSupply()": "18160ddd",
			"transferFrom(address,address,uint256)": "23b872dd"
		}
	},
	"abi": [
		{
			"inputs": [],
			"stateMutability": "nonpayable",
			"type": "constructor"
		},
		{
			"anonymous": false,
			"inputs": [
				{
					"indexed": true,
					"internalType": "address",
					"name": "owner",
					"type": "address"
				},
				{
					"indexed": true,
					"internalType": "address",
					"name": "approved",
					"type": "address"
				},
				{
					"indexed": true,
					"internalType": "uint256",
					"name": "tokenId",
					"type": "uint256"
				}
			],
			"name": "Approval",
			"type": "event"
		},
		{
			"anonymous": false,
			"inputs": [
				{
					"indexed": true,
					"internalType": "address",
					"name": "owner",
					"type": "address"
				},
				{
					"indexed": true,
					"internalType": "address",
					"name": "operator",
					"type": "address"
				},
				{
					"indexed": false,
					"internalType": "bool",
					"name": "approved",
					"type": "bool"
				}
			],
			"name": "ApprovalForAll",
			"type": "event"
		},
		{
			"anonymous": false,
			"inputs": [
				{
					"indexed": false,
					"internalType": "uint256",
					"name": "level",
					"type": "uint256"
				},
				{
					"indexed": false,
					"internalType": "uint256",
					"name": "weaponsDropRate",
					"type": "uint256"
				},
				{
					"indexed": false,
					"internalType": "uint256",
					"name": "armourDropRate",
					"type": "uint256"
				},
				{
					"indexed": false,
					"internalType": "uint256",
					"name": "jewelsDropRate",
					"type": "uint256"
				},
				{
					"indexed": false,
					"internalType": "uint256",
					"name": "miscDropRate",
					"type": "uint256"
				}
			],
			"name": "BoxDropUpdated",
			"type": "event"
		},
		{
			"anonymous": false,
			"inputs": [
				{
					"indexed": false,
					"internalType": "address",
					"name": "owner",
					"type": "address"
				},
				{
					"indexed": false,
					"internalType": "uint256",
					"name": "tokenId",
					"type": "uint256"
				}
			],
			"name": "BoxDropped",
			"type": "event"
		},
		{
			"anonymous": false,
			"inputs": [
				{
					"indexed": false,
					"internalType": "uint256",
					"name": "tokenId",
					"type": "uint256"
				},
				{
					"indexed": false,
					"internalType": "uint256",
					"name": "itemId",
					"type": "uint256"
				},
				{
					"indexed": false,
					"internalType": "address",
					"name": "owner",
					"type": "address"
				},
				{
					"indexed": false,
					"internalType": "string",
					"name": "itemName",
					"type": "string"
				}
			],
			"name": "ItemBoughtFromShop",
			"type": "event"
		},
		{
			"anonymous": false,
			"inputs": [
				{
					"indexed": false,
					"internalType": "uint256",
					"name": "itemId",
					"type": "uint256"
				},
				{
					"indexed": false,
					"internalType": "string",
					"name": "name",
					"type": "string"
				}
			],
			"name": "ItemGenerated",
			"type": "event"
		},
		{
			"anonymous": false,
			"inputs": [
				{
					"indexed": false,
					"internalType": "uint8",
					"name": "",
					"type": "uint8"
				},
				{
					"indexed": false,
					"internalType": "uint256",
					"name": "",
					"type": "uint256"
				}
			],
			"name": "LogError",
			"type": "event"
		},
		{
			"anonymous": false,
			"inputs": [
				{
					"indexed": true,
					"internalType": "address",
					"name": "from",
					"type": "address"
				},
				{
					"indexed": true,
					"internalType": "address",
					"name": "to",
					"type": "address"
				},
				{
					"indexed": true,
					"internalType": "uint256",
					"name": "tokenId",
					"type": "uint256"
				}
			],
			"name": "Transfer",
			"type": "event"
		},
		{
			"inputs": [
				{
					"internalType": "address",
					"name": "to",
					"type": "address"
				},
				{
					"internalType": "uint256",
					"name": "tokenId",
					"type": "uint256"
				}
			],
			"name": "approve",
			"outputs": [],
			"stateMutability": "nonpayable",
			"type": "function"
		},
		{
			"inputs": [
				{
					"internalType": "address",
					"name": "owner",
					"type": "address"
				}
			],
			"name": "balanceOf",
			"outputs": [
				{
					"internalType": "uint256",
					"name": "",
					"type": "uint256"
				}
			],
			"stateMutability": "view",
			"type": "function"
		},
		{
			"inputs": [
				{
					"internalType": "uint256",
					"name": "",
					"type": "uint256"
				}
			],
			"name": "boxDropList",
			"outputs": [
				{
					"internalType": "uint256",
					"name": "level",
					"type": "uint256"
				},
				{
					"internalType": "uint256",
					"name": "weaponsDropRate",
					"type": "uint256"
				},
				{
					"internalType": "uint256",
					"name": "armourDropRate",
					"type": "uint256"
				},
				{
					"internalType": "uint256",
					"name": "jewelsDropRate",
					"type": "uint256"
				},
				{
					"internalType": "uint256",
					"name": "miscDropRate",
					"type": "uint256"
				}
			],
			"stateMutability": "view",
			"type": "function"
		},
		{
			"inputs": [
				{
					"internalType": "uint256",
					"name": "itemId",
					"type": "uint256"
				},
				{
					"internalType": "uint256",
					"name": "fighterId",
					"type": "uint256"
				}
			],
			"name": "buyItemFromShop",
			"outputs": [],
			"stateMutability": "nonpayable",
			"type": "function"
		},
		{
			"inputs": [
				{
					"internalType": "uint256",
					"name": "tokenId",
					"type": "uint256"
				}
			],
			"name": "consume",
			"outputs": [],
			"stateMutability": "nonpayable",
			"type": "function"
		},
		{
			"inputs": [
				{
					"internalType": "string",
					"name": "name",
					"type": "string"
				},
				{
					"internalType": "uint256[51]",
					"name": "uintValues",
					"type": "uint256[51]"
				},
				{
					"internalType": "bool[9]",
					"name": "boolValues",
					"type": "bool[9]"
				}
			],
			"name": "createItem",
			"outputs": [
				{
					"internalType": "uint256",
					"name": "tokenId",
					"type": "uint256"
				}
			],
			"stateMutability": "nonpayable",
			"type": "function"
		},
		{
			"inputs": [
				{
					"internalType": "uint256",
					"name": "tokenId",
					"type": "uint256"
				}
			],
			"name": "dropBox",
			"outputs": [
				{
					"internalType": "uint256",
					"name": "",
					"type": "uint256"
				}
			],
			"stateMutability": "nonpayable",
			"type": "function"
		},
		{
			"inputs": [
				{
					"internalType": "uint256",
					"name": "tokenId",
					"type": "uint256"
				}
			],
			"name": "getApproved",
			"outputs": [
				{
					"internalType": "address",
					"name": "",
					"type": "address"
				}
			],
			"stateMutability": "view",
			"type": "function"
		},
		{
			"inputs": [
				{
					"internalType": "address",
					"name": "userAddress",
					"type": "address"
				},
				{
					"internalType": "uint256",
					"name": "fighterId",
					"type": "uint256"
				}
			],
			"name": "getFighterItems",
			"outputs": [
				{
					"internalType": "uint256[2][]",
					"name": "",
					"type": "uint256[2][]"
				}
			],
			"stateMutability": "view",
			"type": "function"
		},
		{
			"inputs": [
				{
					"internalType": "uint256",
					"name": "tokenId",
					"type": "uint256"
				}
			],
			"name": "getTokenAttributes",
			"outputs": [
				{
					"components": [
						{
							"internalType": "string",
							"name": "name",
							"type": "string"
						},
						{
							"internalType": "uint256",
							"name": "tokenId",
							"type": "uint256"
						},
						{
							"internalType": "uint256",
							"name": "itemLevel",
							"type": "uint256"
						},
						{
							"internalType": "uint256",
							"name": "maxLevel",
							"type": "uint256"
						},
						{
							"internalType": "uint256",
							"name": "durability",
							"type": "uint256"
						},
						{
							"internalType": "uint256",
							"name": "classRequired",
							"type": "uint256"
						},
						{
							"internalType": "uint256",
							"name": "strengthRequired",
							"type": "uint256"
						},
						{
							"internalType": "uint256",
							"name": "agilityRequired",
							"type": "uint256"
						},
						{
							"internalType": "uint256",
							"name": "energyRequired",
							"type": "uint256"
						},
						{
							"internalType": "uint256",
							"name": "vitalityRequired",
							"type": "uint256"
						},
						{
							"internalType": "uint256",
							"name": "itemWidth",
							"type": "uint256"
						},
						{
							"internalType": "uint256",
							"name": "itemHeight",
							"type": "uint256"
						},
						{
							"internalType": "uint256",
							"name": "acceptableSlot1",
							"type": "uint256"
						},
						{
							"internalType": "uint256",
							"name": "acceptableSlot2",
							"type": "uint256"
						},
						{
							"internalType": "uint256",
							"name": "physicalDamage",
							"type": "uint256"
						},
						{
							"internalType": "uint256",
							"name": "magicDamage",
							"type": "uint256"
						},
						{
							"internalType": "uint256",
							"name": "defense",
							"type": "uint256"
						},
						{
							"internalType": "uint256",
							"name": "attackSpeed",
							"type": "uint256"
						},
						{
							"internalType": "uint256",
							"name": "defenseSuccessRate",
							"type": "uint256"
						},
						{
							"internalType": "uint256",
							"name": "additionalDamage",
							"type": "uint256"
						},
						{
							"internalType": "uint256",
							"name": "additionalDefense",
							"type": "uint256"
						},
						{
							"internalType": "uint256",
							"name": "increasedExperienceGain",
							"type": "uint256"
						},
						{
							"internalType": "uint256",
							"name": "damageIncrease",
							"type": "uint256"
						},
						{
							"internalType": "uint256",
							"name": "defenseSuccessRateIncrease",
							"type": "uint256"
						},
						{
							"internalType": "uint256",
							"name": "lifeAfterMonsterIncrease",
							"type": "uint256"
						},
						{
							"internalType": "uint256",
							"name": "manaAfterMonsterIncrease",
							"type": "uint256"
						},
						{
							"internalType": "uint256",
							"name": "zenAfterMonsterIncrease",
							"type": "uint256"
						},
						{
							"internalType": "uint256",
							"name": "doubleDamageProbabilityIncrease",
							"type": "uint256"
						},
						{
							"internalType": "uint256",
							"name": "excellentDamageProbabilityIncrease",
							"type": "uint256"
						},
						{
							"internalType": "uint256",
							"name": "ignoreOpponentsDefenseRateIncrease",
							"type": "uint256"
						},
						{
							"internalType": "uint256",
							"name": "reflectDamage",
							"type": "uint256"
						},
						{
							"internalType": "uint256",
							"name": "maxLifeIncrease",
							"type": "uint256"
						},
						{
							"internalType": "uint256",
							"name": "maxManaIncrease",
							"type": "uint256"
						},
						{
							"internalType": "uint256",
							"name": "excellentDamageRateIncrease",
							"type": "uint256"
						},
						{
							"internalType": "uint256",
							"name": "doubleDamageRateIncrease",
							"type": "uint256"
						},
						{
							"internalType": "uint256",
							"name": "ignoreOpponentsDefenseSuccessRateIncrease",
							"type": "uint256"
						},
						{
							"internalType": "uint256",
							"name": "attackDamageIncrease",
							"type": "uint256"
						},
						{
							"internalType": "uint256",
							"name": "defenseSuccessRateIncreaseAncient",
							"type": "uint256"
						},
						{
							"internalType": "uint256",
							"name": "reflectDamageRateIncrease",
							"type": "uint256"
						},
						{
							"internalType": "uint256",
							"name": "decreaseDamageRateIncrease",
							"type": "uint256"
						},
						{
							"internalType": "uint256",
							"name": "hpRecoveryRateIncrease",
							"type": "uint256"
						},
						{
							"internalType": "uint256",
							"name": "mpRecoveryRateIncrease",
							"type": "uint256"
						},
						{
							"internalType": "uint256",
							"name": "hpIncrease",
							"type": "uint256"
						},
						{
							"internalType": "uint256",
							"name": "mpIncrease",
							"type": "uint256"
						},
						{
							"internalType": "uint256",
							"name": "increaseDefenseRate",
							"type": "uint256"
						},
						{
							"internalType": "uint256",
							"name": "increaseStrength",
							"type": "uint256"
						},
						{
							"internalType": "uint256",
							"name": "increaseAgility",
							"type": "uint256"
						},
						{
							"internalType": "uint256",
							"name": "increaseEnergy",
							"type": "uint256"
						},
						{
							"internalType": "uint256",
							"name": "increaseVitality",
							"type": "uint256"
						},
						{
							"internalType": "uint256",
							"name": "attackSpeedIncrease",
							"type": "uint256"
						},
						{
							"internalType": "uint256",
							"name": "fighterId",
							"type": "uint256"
						},
						{
							"internalType": "uint256",
							"name": "lastUpdBlock",
							"type": "uint256"
						},
						{
							"internalType": "bool",
							"name": "luck",
							"type": "bool"
						},
						{
							"internalType": "bool",
							"name": "skill",
							"type": "bool"
						},
						{
							"internalType": "bool",
							"name": "isBox",
							"type": "bool"
						},
						{
							"internalType": "bool",
							"name": "isWeapon",
							"type": "bool"
						},
						{
							"internalType": "bool",
							"name": "isArmour",
							"type": "bool"
						},
						{
							"internalType": "bool",
							"name": "isJewel",
							"type": "bool"
						},
						{
							"internalType": "bool",
							"name": "isMisc",
							"type": "bool"
						},
						{
							"internalType": "bool",
							"name": "isConsumable",
							"type": "bool"
						},
						{
							"internalType": "bool",
							"name": "inShop",
							"type": "bool"
						}
					],
					"internalType": "struct Items.ItemAttributes",
					"name": "",
					"type": "tuple"
				}
			],
			"stateMutability": "view",
			"type": "function"
		},
		{
			"inputs": [
				{
					"internalType": "address",
					"name": "userAddress",
					"type": "address"
				}
			],
			"name": "getUserItems",
			"outputs": [
				{
					"internalType": "uint256[]",
					"name": "",
					"type": "uint256[]"
				}
			],
			"stateMutability": "view",
			"type": "function"
		},
		{
			"inputs": [
				{
					"internalType": "address",
					"name": "owner",
					"type": "address"
				},
				{
					"internalType": "address",
					"name": "operator",
					"type": "address"
				}
			],
			"name": "isApprovedForAll",
			"outputs": [
				{
					"internalType": "bool",
					"name": "",
					"type": "bool"
				}
			],
			"stateMutability": "view",
			"type": "function"
		},
		{
			"inputs": [
				{
					"internalType": "uint256",
					"name": "",
					"type": "uint256"
				}
			],
			"name": "itemName",
			"outputs": [
				{
					"internalType": "string",
					"name": "",
					"type": "string"
				}
			],
			"stateMutability": "view",
			"type": "function"
		},
		{
			"inputs": [
				{
					"internalType": "address",
					"name": "winner",
					"type": "address"
				},
				{
					"internalType": "uint256",
					"name": "opponentLevel",
					"type": "uint256"
				}
			],
			"name": "mintBox",
			"outputs": [],
			"stateMutability": "nonpayable",
			"type": "function"
		},
		{
			"inputs": [],
			"name": "name",
			"outputs": [
				{
					"internalType": "string",
					"name": "",
					"type": "string"
				}
			],
			"stateMutability": "view",
			"type": "function"
		},
		{
			"inputs": [],
			"name": "owner",
			"outputs": [
				{
					"internalType": "address",
					"name": "",
					"type": "address"
				}
			],
			"stateMutability": "view",
			"type": "function"
		},
		{
			"inputs": [
				{
					"internalType": "uint256",
					"name": "tokenId",
					"type": "uint256"
				}
			],
			"name": "ownerOf",
			"outputs": [
				{
					"internalType": "address",
					"name": "",
					"type": "address"
				}
			],
			"stateMutability": "view",
			"type": "function"
		},
		{
			"inputs": [
				{
					"internalType": "uint256",
					"name": "a",
					"type": "uint256"
				},
				{
					"internalType": "uint256",
					"name": "b",
					"type": "uint256"
				}
			],
			"name": "safeAdd",
			"outputs": [
				{
					"internalType": "uint256",
					"name": "",
					"type": "uint256"
				}
			],
			"stateMutability": "nonpayable",
			"type": "function"
		},
		{
			"inputs": [
				{
					"internalType": "uint256",
					"name": "a",
					"type": "uint256"
				},
				{
					"internalType": "uint256",
					"name": "b",
					"type": "uint256"
				}
			],
			"name": "safeMul",
			"outputs": [
				{
					"internalType": "uint256",
					"name": "",
					"type": "uint256"
				}
			],
			"stateMutability": "nonpayable",
			"type": "function"
		},
		{
			"inputs": [
				{
					"internalType": "uint256",
					"name": "a",
					"type": "uint256"
				},
				{
					"internalType": "uint256",
					"name": "b",
					"type": "uint256"
				}
			],
			"name": "safeSub",
			"outputs": [
				{
					"internalType": "uint256",
					"name": "",
					"type": "uint256"
				}
			],
			"stateMutability": "nonpayable",
			"type": "function"
		},
		{
			"inputs": [
				{
					"internalType": "address",
					"name": "from",
					"type": "address"
				},
				{
					"internalType": "address",
					"name": "to",
					"type": "address"
				},
				{
					"internalType": "uint256",
					"name": "tokenId",
					"type": "uint256"
				}
			],
			"name": "safeTransferFrom",
			"outputs": [],
			"stateMutability": "nonpayable",
			"type": "function"
		},
		{
			"inputs": [
				{
					"internalType": "address",
					"name": "from",
					"type": "address"
				},
				{
					"internalType": "address",
					"name": "to",
					"type": "address"
				},
				{
					"internalType": "uint256",
					"name": "tokenId",
					"type": "uint256"
				},
				{
					"internalType": "bytes",
					"name": "data",
					"type": "bytes"
				}
			],
			"name": "safeTransferFrom",
			"outputs": [],
			"stateMutability": "nonpayable",
			"type": "function"
		},
		{
			"inputs": [
				{
					"internalType": "address",
					"name": "operator",
					"type": "address"
				},
				{
					"internalType": "bool",
					"name": "approved",
					"type": "bool"
				}
			],
			"name": "setApprovalForAll",
			"outputs": [],
			"stateMutability": "nonpayable",
			"type": "function"
		},
		{
			"inputs": [
				{
					"internalType": "uint256",
					"name": "level",
					"type": "uint256"
				},
				{
					"internalType": "uint256[4]",
					"name": "dropRates",
					"type": "uint256[4]"
				},
				{
					"internalType": "uint256[]",
					"name": "weaponsList",
					"type": "uint256[]"
				},
				{
					"internalType": "uint256[]",
					"name": "armourList",
					"type": "uint256[]"
				},
				{
					"internalType": "uint256[]",
					"name": "jewelsList",
					"type": "uint256[]"
				},
				{
					"internalType": "uint256[]",
					"name": "miscList",
					"type": "uint256[]"
				}
			],
			"name": "setBoxDrop",
			"outputs": [],
			"stateMutability": "nonpayable",
			"type": "function"
		},
		{
			"inputs": [
				{
					"internalType": "bytes4",
					"name": "interfaceId",
					"type": "bytes4"
				}
			],
			"name": "supportsInterface",
			"outputs": [
				{
					"internalType": "bool",
					"name": "",
					"type": "bool"
				}
			],
			"stateMutability": "view",
			"type": "function"
		},
		{
			"inputs": [],
			"name": "symbol",
			"outputs": [
				{
					"internalType": "string",
					"name": "",
					"type": "string"
				}
			],
			"stateMutability": "view",
			"type": "function"
		},
		{
			"inputs": [
				{
					"internalType": "uint256",
					"name": "index",
					"type": "uint256"
				}
			],
			"name": "tokenByIndex",
			"outputs": [
				{
					"internalType": "uint256",
					"name": "",
					"type": "uint256"
				}
			],
			"stateMutability": "view",
			"type": "function"
		},
		{
			"inputs": [
				{
					"internalType": "address",
					"name": "owner",
					"type": "address"
				},
				{
					"internalType": "uint256",
					"name": "index",
					"type": "uint256"
				}
			],
			"name": "tokenOfOwnerByIndex",
			"outputs": [
				{
					"internalType": "uint256",
					"name": "",
					"type": "uint256"
				}
			],
			"stateMutability": "view",
			"type": "function"
		},
		{
			"inputs": [
				{
					"internalType": "uint256",
					"name": "tokenId",
					"type": "uint256"
				}
			],
			"name": "tokenURI",
			"outputs": [
				{
					"internalType": "string",
					"name": "",
					"type": "string"
				}
			],
			"stateMutability": "view",
			"type": "function"
		},
		{
			"inputs": [],
			"name": "totalSupply",
			"outputs": [
				{
					"internalType": "uint256",
					"name": "",
					"type": "uint256"
				}
			],
			"stateMutability": "view",
			"type": "function"
		},
		{
			"inputs": [
				{
					"internalType": "address",
					"name": "from",
					"type": "address"
				},
				{
					"internalType": "address",
					"name": "to",
					"type": "address"
				},
				{
					"internalType": "uint256",
					"name": "tokenId",
					"type": "uint256"
				}
			],
			"name": "transferFrom",
			"outputs": [],
			"stateMutability": "nonpayable",
			"type": "function"
		}
	]
}