{
	"data": {
		"bytecode": {
			"linkReferences": {},
			"object": "60806040523480156200001157600080fd5b5060405180604001604052806007815260200166436f6d6261747360c81b815250604051806040016040528060048152602001634974656d60e01b81525081600090816200006091906200014a565b5060016200006f82826200014a565b5050600a80546001600160a01b03191633179055506043805462ff000019166201000017905560016019819055601a5562000216565b634e487b7160e01b600052604160045260246000fd5b600181811c90821680620000d057607f821691505b602082108103620000f157634e487b7160e01b600052602260045260246000fd5b50919050565b601f8211156200014557600081815260208120601f850160051c81016020861015620001205750805b601f850160051c820191505b8181101562000141578281556001016200012c565b5050505b505050565b81516001600160401b03811115620001665762000166620000a5565b6200017e81620001778454620000bb565b84620000f7565b602080601f831160018114620001b657600084156200019d5750858301515b600019600386901b1c1916600185901b17855562000141565b600085815260208120601f198616915b82811015620001e757888601518255948401946001909101908401620001c6565b5085821015620002065787850151600019600388901b60f8161c191681555b5050505050600190811b01905550565b6145a280620002266000396000f3fe608060405234801561001057600080fd5b50600436106101da5760003560e01c80637f46914f11610104578063b88d4fde116100a2578063e6cb901311610071578063e6cb901314610419578063e985e9c51461042c578063f10bbe1814610468578063fb5d7f10146104cd57600080fd5b8063b88d4fde146103c0578063c87b56dd146103d3578063ce6019b4146103e6578063d05c78da1461040657600080fd5b806395d89b41116100de57806395d89b411461037f578063a22cb46514610387578063a293d1e81461039a578063b4148054146103ad57600080fd5b80637f46914f1461034657806388feaacc146103595780638da5cb5b1461036c57600080fd5b80632f745c591161017c5780636352211e1161014b5780636352211e146102fa57806370a082311461030d5780637310dc8a1461032057806375023ca81461033357600080fd5b80632f745c59146102a157806342842e0e146102b45780634f6ccce7146102c7578063513c1452146102da57600080fd5b8063095ea7b3116101b8578063095ea7b31461024757806318160ddd1461025c5780631f4f5a231461026e57806323b872dd1461028e57600080fd5b806301ffc9a7146101df57806306fdde0314610207578063081812fc1461021c575b600080fd5b6101f26101ed3660046137ed565b6104e0565b60405190151581526020015b60405180910390f35b61020f61050b565b6040516101fe919061385a565b61022f61022a36600461386d565b61059d565b6040516001600160a01b0390911681526020016101fe565b61025a6102553660046138a2565b6105c4565b005b6008545b6040519081526020016101fe565b61028161027c36600461386d565b6106de565b6040516101fe91906138cc565b61025a61029c366004613c39565b610a85565b6102606102af3660046138a2565b610ab6565b61025a6102c2366004613c39565b610b4c565b6102606102d536600461386d565b610b67565b6102ed6102e83660046138a2565b610bfa565b6040516101fe9190613c75565b61022f61030836600461386d565b610d08565b61026061031b366004613cde565b610d68565b61020f61032e36600461386d565b610dee565b610260610341366004613cf9565b610e88565b61025a610354366004613d9d565b61165e565b61026061036736600461386d565b611b01565b600a5461022f906001600160a01b031681565b61020f611eaa565b61025a610395366004613dcf565b611eb9565b6102606103a8366004613d9d565b611ec8565b61025a6103bb366004613e5f565b611eeb565b61025a6103ce366004613f59565b61213f565b61020f6103e136600461386d565b612177565b6103f96103f4366004613cde565b6121ea565b6040516101fe9190614035565b610260610414366004613d9d565b61228c565b610260610427366004613d9d565b6122bc565b6101f261043a366004614079565b6001600160a01b03918216600090815260056020908152604080832093909416825291909152205460ff1690565b6104a561047636600461386d565b604460205260009081526040902080546001820154600383015460058401546007909401549293919290919085565b604080519586526020860194909452928401919091526060830152608082015260a0016101fe565b61025a6104db3660046138a2565b6122e6565b60006001600160e01b0319821663780e9d6360e01b14806105055750610505826126b9565b92915050565b60606000805461051a906140a3565b80601f0160208091040260200160405190810160405280929190818152602001828054610546906140a3565b80156105935780601f1061056857610100808354040283529160200191610593565b820191906000526020600020905b81548152906001019060200180831161057657829003601f168201915b5050505050905090565b60006105a882612709565b506000908152600460205260409020546001600160a01b031690565b60006105cf82610d08565b9050806001600160a01b0316836001600160a01b0316036106415760405162461bcd60e51b815260206004820152602160248201527f4552433732313a20617070726f76616c20746f2063757272656e74206f776e656044820152603960f91b60648201526084015b60405180910390fd5b336001600160a01b038216148061065d575061065d813361043a565b6106cf5760405162461bcd60e51b815260206004820152603d60248201527f4552433732313a20617070726f76652063616c6c6572206973206e6f7420746f60448201527f6b656e206f776e6572206f7220617070726f76656420666f7220616c6c0000006064820152608401610638565b6106d9838361275c565b505050565b6106e661358f565b6106ef826127ca565b61070b5760405162461bcd60e51b8152600401610638906140dd565b6000828152600c60205260409081902081516107a08101909252805482908290610734906140a3565b80601f0160208091040260200160405190810160405280929190818152602001828054610760906140a3565b80156107ad5780601f10610782576101008083540402835291602001916107ad565b820191906000526020600020905b81548152906001019060200180831161079057829003601f168201915b50505091835250506001820154602080830191909152600283015460408301526003830154606083015260048301546080830152600583015460a0830152600683015460c0830152600783015460e08301526008830154610100808401919091526009840154610120840152600a840154610140840152600b840154610160840152600c840154610180840152600d8401546101a0840152600e8401546101c0840152600f8401546101e08401526010840154610200840152601184015461022084015260128401546102408401526013840154610260840152601484015461028084015260158401546102a084015260168401546102c084015260178401546102e084015260188401546103008401526019840154610320840152601a840154610340840152601b840154610360840152601c840154610380840152601d8401546103a0840152601e8401546103c0840152601f8401546103e084015290830154610400830152602183015461042083015260228301546104408301526023830154610460830152602483015461048083015260258301546104a083015260268301546104c083015260278301546104e083015260288301546105008301526029830154610520830152602a830154610540830152602b830154610560830152602c830154610580830152602d8301546105a0830152602e8301546105c0830152602f8301546105e0830152603083015461060083015260318301546106208301526032830154610640830152603383015461066083015260349092015460ff8082161515610680840152928104831615156106a0830152620100008104831615156106c083015263010000008104831615156106e0830152640100000000810483161515610700830152600160281b810483161515610720830152600160301b810483161515610740830152600160381b810483161515610760830152600160401b900490911615156107809091015292915050565b610a8f33826127e7565b610aab5760405162461bcd60e51b81526004016106389061410b565b6106d9838383612865565b6000610ac183610d68565b8210610b235760405162461bcd60e51b815260206004820152602b60248201527f455243373231456e756d657261626c653a206f776e657220696e646578206f7560448201526a74206f6620626f756e647360a81b6064820152608401610638565b506001600160a01b03919091166000908152600660209081526040808320938352929052205490565b6106d98383836040518060200160405280600081525061213f565b6000610b7260085490565b8210610bd55760405162461bcd60e51b815260206004820152602c60248201527f455243373231456e756d657261626c653a20676c6f62616c20696e646578206f60448201526b7574206f6620626f756e647360a01b6064820152608401610638565b60088281548110610be857610be8614158565b90600052602060002001549050919050565b60606000610c0784610d68565b905060008167ffffffffffffffff811115610c2457610c24613f43565b604051908082528060200260200182016040528015610c5d57816020015b610c4a613759565b815260200190600190039081610c425790505b509050600080805b84811015610cfc57610c778882610ab6565b6000818152600c6020526040902060320154909350879003610cdc576040518060400160405280848152602001600c600086815260200190815260200160002060330154815250848381518110610cd057610cd0614158565b60200260200101819052505b81610ce681614184565b9250508080610cf490614184565b915050610c65565b50919695505050505050565b6000818152600260205260408120546001600160a01b0316806105055760405162461bcd60e51b8152602060048201526018602482015277115490cdcc8c4e881a5b9d985b1a59081d1bdad95b88125160421b6044820152606401610638565b60006001600160a01b038216610dd25760405162461bcd60e51b815260206004820152602960248201527f4552433732313a2061646472657373207a65726f206973206e6f7420612076616044820152683634b21037bbb732b960b91b6064820152608401610638565b506001600160a01b031660009081526003602052604090205490565b600b6020526000908152604090208054610e07906140a3565b80601f0160208091040260200160405190810160405280929190818152602001828054610e33906140a3565b8015610e805780601f10610e5557610100808354040283529160200191610e80565b820191906000526020600020905b815481529060010190602001808311610e6357829003601f168201915b505050505081565b6000610e9261358f565b85858080601f01602080910402602001604051908101604052809392919081815260200183838082843760009201829052509385525086929150610ed39050565b6020908102919091013590820152836001602002013560408201528360026020020135606082015283600360200201356080820152836004602002013560a0820152836005602002013560c0820152836006602002013560e082015283600760200201356101008201528360086020020135610120820152836009602002013561014082015283600a602002013561016082015283600b602002013561018082015283600c60200201356101a082015283600d60200201356101c082015283600e60200201356101e082015283600f6020020135610200820152836010602002013561022082015283601160200201356102408201528360126020020135610260820152836013602002013561028082015283601460200201356102a082015283601560200201356102c082015283601660200201356102e082015283601760200201356103008201528360186020020135610320820152836019602002013561034082015283601a602002013561036082015283601b602002013561038082015283601c60200201356103a082015283601d60200201356103c082015283601e60200201356103e082015283601f602090810291909101356104008301528490602002013561042082015283602160200201356104408201528360226020020135610460820152836023602002013561048082015283602460200201356104a082015283602560200201356104c082015283602660200201356104e082015283602760200201356105008201528360286020020135610520820152836029602002013561054082015283602a602002013561056082015283602b602002013561058082015283602c60200201356105a082015283602d60200201356105c082015283602e60200201356105e082015283602f602002013561060082015283603060200201356106208201528360306020020135610620820152836031602002013561064082015283603260200201356106608201528260006020020160208101906111bf919061419d565b15156106808201526111d7604084016020850161419d565b15156106a08201526111ef606084016040850161419d565b15156106c0820152611207608084016060850161419d565b15156106e082015261121f60a084016080850161419d565b151561070082015261123760c0840160a0850161419d565b151561072082015261124f60e0840160c0850161419d565b1515610740820152611268610100840160e0850161419d565b15156107608201526112826101208401610100850161419d565b1515610780820152600d8054600181018255600091909152815182916035027fd7b6990105719101dabeb77144f2a3385c8033acd3af97e9423a695e81ad1eb5019081906112d09082614206565b5060208281015160018381019190915560408401516002840155606084015160038401556080840151600484015560a0840151600584015560c0840151600684015560e084015160078401556101008085015160088501556101208501516009850155610140850151600a850155610160850151600b850155610180850151600c8501556101a0850151600d808601919091556101c0860151600e8601556101e0860151600f860155610200860151601086015561022086015160118601556102408601516012860155610260860151601386015561028086015160148601556102a086015160158601556102c086015160168601556102e0860151601786015561030086015160188601556103208601516019860155610340860151601a860155610360860151601b860155610380860151601c8601556103a0860151601d8601556103c0860151601e8601556103e0860151601f8601556104008601519385019390935561042085015160218501556104408501516022850155610460850151602385015561048085015160248501556104a085015160258501556104c085015160268501556104e0850151602785015561050085015160288501556105208501516029850155610540850151602a850155610560850151602b850155610580850151602c8501556105a0850151602d8501556105c0850151602e8501556105e0850151602f8501556106008501516030850155610620850151603185015561064085015160328501556106608501516033850155610680850151603490940180546106a08701516106c08801516106e08901516107008a01516107208b01516107408c01516107608d0151610780909d015161ffff199097169b151561ff0019169b909b179415159097029390931763ffff00001916620100009215159290920263ff0000001916919091176301000000911515919091021765ffff0000000019166401000000009115159190910265ff0000000000191617600160281b931515939093029290921767ffff0000000000001916600160301b9515159590950260ff60381b191694909417600160381b951515959095029490941760ff60401b1916600160401b941515949094029390931790915554600091611615916142c6565b90507f0538ce8dba67be446d1a480a6e48683b27c6efb61d7c01d60767e15705e5d00f81888860405161164a939291906142d9565b60405180910390a19150505b949350505050565b600d828154811061167157611671614158565b906000526020600020906035020160340160089054906101000a900460ff166116e65760405162461bcd60e51b815260206004820152602160248201527f4974656d206e6f7420696e2073686f70206f7220646f65736e277420657869736044820152601d60fa1b6064820152608401610638565b6116f4600e80546001019055565b60006116ff600e5490565b905061170b33826129d6565b611a9c81600d858154811061172257611722614158565b9060005260206000209060350201604051806107a001604052908160008201805461174c906140a3565b80601f0160208091040260200160405190810160405280929190818152602001828054611778906140a3565b80156117c55780601f1061179a576101008083540402835291602001916117c5565b820191906000526020600020905b8154815290600101906020018083116117a857829003601f168201915b50505091835250506001820154602080830191909152600283015460408301526003830154606083015260048301546080830152600583015460a0830152600683015460c0830152600783015460e08301526008830154610100808401919091526009840154610120840152600a840154610140840152600b840154610160840152600c840154610180840152600d8401546101a0840152600e8401546101c0840152600f8401546101e08401526010840154610200840152601184015461022084015260128401546102408401526013840154610260840152601484015461028084015260158401546102a084015260168401546102c084015260178401546102e084015260188401546103008401526019840154610320840152601a840154610340840152601b840154610360840152601c840154610380840152601d8401546103a0840152601e8401546103c0840152601f8401546103e084015290830154610400830152602183015461042083015260228301546104408301526023830154610460830152602483015461048083015260258301546104a083015260268301546104c083015260278301546104e083015260288301546105008301526029830154610520830152602a830154610540830152602b830154610560830152602c830154610580830152602d8301546105a0830152602e8301546105c0830152602f8301546105e0830152603083015461060083015260318301546106208301526032830154610640830152603383015461066083015260349092015460ff8082161515610680840152928104831615156106a0830152620100008104831615156106c083015263010000008104831615156106e0830152640100000000810483161515610700830152600160281b810483161515610720830152600160301b810483161515610740830152600160381b810483161515610760830152600160401b90049091161515610780909101526129f0565b6000818152600c602052604090819020600181018390556032810184905543603382015590517f78cb587a56a0dc7913ec51993eb7f7bf182fca207bd1460930bc912747387edd91611af4918491879133919061430f565b60405180910390a1505050565b6000611b0c826127ca565b611b285760405162461bcd60e51b8152600401610638906140dd565b6000828152600c602052604090206034015462010000900460ff16611b7b5760405162461bcd60e51b815260206004820152600960248201526809cdee840c240c4def60bb1b6044820152606401610638565b6000828152600c60209081526040808320600290810154808552604484528285208351610120810185528154815260018201548187015292810180548551818802810188018752818152939796949592949286019392830182828015611c0057602002820191906000526020600020905b815481526020019060010190808311611bec575b505050505081526020016003820154815260200160048201805480602002602001604051908101604052809291908181526020018280548015611c6257602002820191906000526020600020905b815481526020019060010190808311611c4e575b505050505081526020016005820154815260200160068201805480602002602001604051908101604052809291908181526020018280548015611cc457602002820191906000526020600020905b815481526020019060010190808311611cb0575b505050505081526020016007820154815260200160088201805480602002602001604051908101604052809291908181526020018280548015611d2657602002820191906000526020600020905b815481526020019060010190808311611d12575b50505050508152505090506000611d55826020015161042784606001516104278660a001518760e001516122bc565b90506000611d61612d67565b905060008080600080868611611e005787602001518611611d945760019350611d8d8860400151612d7e565b9450611e11565b611da6886020015189606001516122bc565b8611611dbd5760019250611d8d8860800151612d7e565b611dd78860a001516104278a602001518b606001516122bc565b8611611dee5760019150611d8d8860c00151612d7e565b60019050611d8d886101000151612d7e565b5060009a9950505050505050505050565b611e1f600e80546001019055565b6000611e2a600e5490565b9050611e3633826129d6565b611e4d81600d888154811061172257611722614158565b6000818152600c602090815260409182902060010183905581513381529081018390527fca303f21e08537b41000f97158de2ebca16244cb81143c3d691b410b0a2b8a4c910160405180910390a19b9a5050505050505050505050565b60606001805461051a906140a3565b611ec4338383612dba565b5050565b600082821115611eda57611eda6143b8565b611ee482846142c6565b9392505050565b60006040518061012001604052808c81526020018b600060048110611f1257611f12614158565b602002013581526020018a8a808060200260200160405190810160405280939291908181526020018383602002808284376000920191909152505050908252506020018b6001602002013581526020018888808060200260200160405190810160405280939291908181526020018383602002808284376000920191909152505050908252506020018b6002602002013581526020018686808060200260200160405190810160405280939291908181526020018383602002808284376000920191909152505050908252506020018b60036020020135815260200184848080602002602001604051908101604052809392919081815260200183836020028082843760009201829052509390945250508d8152604460209081526040918290208451815581850151600182015591840151805194955085949293506120619260028501929190910190613777565b506060820151600382015560808201518051612087916004840191602090910190613777565b5060a0820151600582015560c082015180516120ad916006840191602090910190613777565b5060e0820151600782015561010082015180516120d4916008840191602090910190613777565b5050604080518d81528c356020828101919091528d013581830152908c01356060808301919091528c013560808201527f86f382a6bc7e045486af422eb9e8f96528c8a6c437f0088461c6879f4c80fed9915060a00160405180910390a15050505050505050505050565b61214933836127e7565b6121655760405162461bcd60e51b81526004016106389061410b565b61217184848484612e88565b50505050565b606061218282612709565b600061219960408051602081019091526000815290565b905060008151116121b95760405180602001604052806000815250611ee4565b806121c384612ebb565b6040516020016121d49291906143ce565b6040516020818303038152906040529392505050565b606060006121f783610d68565b905060008167ffffffffffffffff81111561221457612214613f43565b60405190808252806020026020018201604052801561223d578160200160208202803683370190505b50905060005b82811015612284576122558582610ab6565b82828151811061226757612267614158565b60209081029190910101528061227c81614184565b915050612243565b509392505050565b60008061229983856143fd565b90508315806122b05750826122ae858361442a565b145b611ee457611ee46143b8565b6000806122c9838561443e565b90508381101580156122b0575082811015611ee457611ee46143b8565b60006122f360328361442a565b9050612303600e80546001019055565b600061230e600e5490565b905061231a84826129d6565b6000600f604051806107a001604052908160008201805461233a906140a3565b80601f0160208091040260200160405190810160405280929190818152602001828054612366906140a3565b80156123b35780601f10612388576101008083540402835291602001916123b3565b820191906000526020600020905b81548152906001019060200180831161239657829003601f168201915b5050509183525050600182015460208083019190915260028301546040808401919091526003840154606084015260048401546080840152600584015460a0840152600684015460c0840152600784015460e08401526008840154610100808501919091526009850154610120850152600a850154610140850152600b850154610160850152600c850154610180850152600d8501546101a0850152600e8501546101c0850152600f808601546101e0860152601086015461020086015260118087015461022087015260128701546102408701526013870154610260870152601487015461028087015260158701546102a087015260168701546102c087015260178701546102e087015260188701546103008701526019870154610320870152601a870154610340870152601b870154610360870152601c870154610380870152601d8701546103a0870152601e8701546103c0870152601f8701546103e087015293860154610400860152602186015461042086015260228601546104408601526023860154610460860152602486015461048086015260258601546104a086015260268601546104c086015260278601546104e086015260288601546105008601526029860154610520860152602a860154610540860152602b860154610560860152602c860154610580860152602d8601546105a0860152602e8601546105c0860152602f8601546105e0860152603086015461060086015260318601546106208601526032860154610640860152603386015461066086015260349095015460ff8082161515610680870152918104821615156106a0860152620100008104821615156106c086015263010000008104821615156106e0860152640100000000810482161515610700860152600160281b810482161515610720860152600160301b810482161515610740860152600160381b810482161515610760860152600160401b90041615156107809093019290925286905580516107a0810190915281549293506126b2928592908290829061174c906140a3565b5050505050565b60006001600160e01b031982166380ac58cd60e01b14806126ea57506001600160e01b03198216635b5e139f60e01b145b8061050557506301ffc9a760e01b6001600160e01b0319831614610505565b612712816127ca565b6127595760405162461bcd60e51b8152602060048201526018602482015277115490cdcc8c4e881a5b9d985b1a59081d1bdad95b88125160421b6044820152606401610638565b50565b600081815260046020526040902080546001600160a01b0319166001600160a01b038416908117909155819061279182610d08565b6001600160a01b03167f8c5be1e5ebec7d5bd14f71427d1e84f3dd0314c0f7b2291e5b200ac8c7c3b92560405160405180910390a45050565b6000908152600260205260409020546001600160a01b0316151590565b6000806127f383610d08565b9050806001600160a01b0316846001600160a01b0316148061283a57506001600160a01b0380821660009081526005602090815260408083209388168352929052205460ff165b806116565750836001600160a01b03166128538461059d565b6001600160a01b031614949350505050565b826001600160a01b031661287882610d08565b6001600160a01b03161461289e5760405162461bcd60e51b815260040161063890614451565b6001600160a01b0382166129005760405162461bcd60e51b8152602060048201526024808201527f4552433732313a207472616e7366657220746f20746865207a65726f206164646044820152637265737360e01b6064820152608401610638565b61290d8383836001612f4e565b826001600160a01b031661292082610d08565b6001600160a01b0316146129465760405162461bcd60e51b815260040161063890614451565b600081815260046020908152604080832080546001600160a01b03199081169091556001600160a01b0387811680865260038552838620805460001901905590871680865283862080546001019055868652600290945282852080549092168417909155905184937fddf252ad1be2c89b69c2b068fc378daa952ba7f163c4a11628f55a4df523b3ef91a4505050565b611ec482826040518060200160405280600081525061307b565b6129f9826127ca565b612a155760405162461bcd60e51b8152600401610638906140dd565b6000828152600c6020526040902081518291908190612a349082614206565b50602082810151600183015560408301516002830155606083015160038301556080830151600483015560a0830151600583015560c0830151600683015560e083015160078301556101008084015160088401556101208401516009840155610140840151600a840155610160840151600b840155610180840151600c8401556101a0840151600d8401556101c0840151600e8401556101e0840151600f840155610200840151601084015561022084015160118401556102408401516012840155610260840151601384015561028084015160148401556102a084015160158401556102c084015160168401556102e0840151601784015561030084015160188401556103208401516019840155610340840151601a840155610360840151601b840155610380840151601c8401556103a0840151601d8401556103c0840151601e8401556103e0840151601f8401556104008401519183019190915561042083015160218301556104408301516022830155610460830151602383015561048083015160248301556104a083015160258301556104c083015160268301556104e0830151602783015561050083015160288301556105208301516029830155610540830151602a830155610560830151602b830155610580830151602c8301556105a0830151602d8301556105c0830151602e8301556105e0830151602f8301556106008301516030830155610620830151603183015561064083015160328301556106608301516033830155610680830151603490920180546106a08501516106c08601516106e08701516107008801516107208901516107408a01516107608b0151610780909b015161ffff1990971699151561ff001916999099179415159097029390931763ffff00001916620100009215159290920263ff0000001916919091176301000000911515919091021765ffff0000000019166401000000009115159190910265ff0000000000191617600160281b931515939093029290921767ffff0000000000001916600160301b9315159390930260ff60381b191692909217600160381b931515939093029290921760ff60401b1916600160401b921515929092029190911790555050565b60004481612d76606483614496565b509092915050565b600080612d89612d67565b835190915083612d998284614496565b81518110612da957612da9614158565b602002602001015192505050919050565b816001600160a01b0316836001600160a01b031603612e1b5760405162461bcd60e51b815260206004820152601960248201527f4552433732313a20617070726f766520746f2063616c6c6572000000000000006044820152606401610638565b6001600160a01b03838116600081815260056020908152604080832094871680845294825291829020805460ff191686151590811790915591519182527f17307eab39ab6107e8899845ad3d59bd9653f200f220920489ca2b5937696c31910160405180910390a3505050565b612e93848484612865565b612e9f848484846130ae565b6121715760405162461bcd60e51b8152600401610638906144aa565b60606000612ec8836131ac565b600101905060008167ffffffffffffffff811115612ee857612ee8613f43565b6040519080825280601f01601f191660200182016040528015612f12576020820181803683370190505b5090508181016020015b600019016f181899199a1a9b1b9c1cb0b131b232b360811b600a86061a8153600a8504945084612f1c57509392505050565b6001811115612fbd5760405162461bcd60e51b815260206004820152603560248201527f455243373231456e756d657261626c653a20636f6e7365637574697665207472604482015274185b9cd9995c9cc81b9bdd081cdd5c1c1bdc9d1959605a1b6064820152608401610638565b816001600160a01b0385166130195761301481600880546000838152600960205260408120829055600182018355919091527ff3f7a9fe364faab93b216da50a3214154f22a0a2b415b23a84c8169e8b636ee30155565b61303c565b836001600160a01b0316856001600160a01b03161461303c5761303c8582613284565b6001600160a01b0384166130585761305381613321565b6126b2565b846001600160a01b0316846001600160a01b0316146126b2576126b284826133d0565b6130858383613414565b61309260008484846130ae565b6106d95760405162461bcd60e51b8152600401610638906144aa565b60006001600160a01b0384163b156131a457604051630a85bd0160e11b81526001600160a01b0385169063150b7a02906130f29033908990889088906004016144fc565b6020604051808303816000875af192505050801561312d575060408051601f3d908101601f1916820190925261312a91810190614539565b60015b61318a573d80801561315b576040519150601f19603f3d011682016040523d82523d6000602084013e613160565b606091505b5080516000036131825760405162461bcd60e51b8152600401610638906144aa565b805181602001fd5b6001600160e01b031916630a85bd0160e11b149050611656565b506001611656565b60008072184f03e93ff9f4daa797ed6e38ed64bf6a1f0160401b83106131eb5772184f03e93ff9f4daa797ed6e38ed64bf6a1f0160401b830492506040015b6d04ee2d6d415b85acef81000000008310613217576d04ee2d6d415b85acef8100000000830492506020015b662386f26fc10000831061323557662386f26fc10000830492506010015b6305f5e100831061324d576305f5e100830492506008015b612710831061326157612710830492506004015b60648310613273576064830492506002015b600a83106105055760010192915050565b6000600161329184610d68565b61329b91906142c6565b6000838152600760205260409020549091508082146132ee576001600160a01b03841660009081526006602090815260408083208584528252808320548484528184208190558352600790915290208190555b5060009182526007602090815260408084208490556001600160a01b039094168352600681528383209183525290812055565b600854600090613333906001906142c6565b6000838152600960205260408120546008805493945090928490811061335b5761335b614158565b90600052602060002001549050806008838154811061337c5761337c614158565b60009182526020808320909101929092558281526009909152604080822084905585825281205560088054806133b4576133b4614556565b6001900381819060005260206000200160009055905550505050565b60006133db83610d68565b6001600160a01b039093166000908152600660209081526040808320868452825280832085905593825260079052919091209190915550565b6001600160a01b03821661346a5760405162461bcd60e51b815260206004820181905260248201527f4552433732313a206d696e7420746f20746865207a65726f20616464726573736044820152606401610638565b613473816127ca565b156134c05760405162461bcd60e51b815260206004820152601c60248201527f4552433732313a20746f6b656e20616c7265616479206d696e746564000000006044820152606401610638565b6134ce600083836001612f4e565b6134d7816127ca565b156135245760405162461bcd60e51b815260206004820152601c60248201527f4552433732313a20746f6b656e20616c7265616479206d696e746564000000006044820152606401610638565b6001600160a01b038216600081815260036020908152604080832080546001019055848352600290915280822080546001600160a01b0319168417905551839291907fddf252ad1be2c89b69c2b068fc378daa952ba7f163c4a11628f55a4df523b3ef908290a45050565b604051806107a00160405280606081526020016000815260200160008152602001600081526020016000815260200160008152602001600081526020016000815260200160008152602001600081526020016000815260200160008152602001600081526020016000815260200160008152602001600081526020016000815260200160008152602001600081526020016000815260200160008152602001600081526020016000815260200160008152602001600081526020016000815260200160008152602001600081526020016000815260200160008152602001600081526020016000815260200160008152602001600081526020016000815260200160008152602001600081526020016000815260200160008152602001600081526020016000815260200160008152602001600081526020016000815260200160008152602001600081526020016000815260200160008152602001600081526020016000815260200160008152602001600081526020016000151581526020016000151581526020016000151581526020016000151581526020016000151581526020016000151581526020016000151581526020016000151581526020016000151581525090565b60405180604001604052806002906020820280368337509192915050565b8280548282559060005260206000209081019282156137b2579160200282015b828111156137b2578251825591602001919060010190613797565b506137be9291506137c2565b5090565b5b808211156137be57600081556001016137c3565b6001600160e01b03198116811461275957600080fd5b6000602082840312156137ff57600080fd5b8135611ee4816137d7565b60005b8381101561382557818101518382015260200161380d565b50506000910152565b6000815180845261384681602086016020860161380a565b601f01601f19169290920160200192915050565b602081526000611ee4602083018461382e565b60006020828403121561387f57600080fd5b5035919050565b80356001600160a01b038116811461389d57600080fd5b919050565b600080604083850312156138b557600080fd5b6138be83613886565b946020939093013593505050565b60208152600082516107a08060208501526138eb6107c085018361382e565b602086015160408681019190915286015160608087019190915286015160808087019190915286015160a08087019190915286015160c08087019190915286015160e08087019190915286015161010080870191909152860151610120808701919091528601516101408087019190915286015161016080870191909152860151610180808701919091528601516101a0808701919091528601516101c0808701919091528601516101e08087019190915286015161020080870191909152860151610220808701919091528601516102408087019190915286015161026080870191909152860151610280808701919091528601516102a0808701919091528601516102c0808701919091528601516102e08087019190915286015161030080870191909152860151610320808701919091528601516103408087019190915286015161036080870191909152860151610380808701919091528601516103a0808701919091528601516103c0808701919091528601516103e08087019190915286015161040080870191909152860151610420808701919091528601516104408087019190915286015161046080870191909152860151610480808701919091528601516104a0808701919091528601516104c0808701919091528601516104e08087019190915286015161050080870191909152860151610520808701919091528601516105408087019190915286015161056080870191909152860151610580808701919091528601516105a0808701919091528601516105c0808701919091528601516105e08087019190915286015161060080870191909152860151610620808701919091528601516106408087019190915286015161066080870191909152860151610680808701919091528601519092506106a0613b948187018315159052565b86015190506106c0613ba98682018315159052565b86015190506106e0613bbe8682018315159052565b8601519050610700613bd38682018315159052565b8601519050610720613be88682018315159052565b8601519050610740613bfd8682018315159052565b8601519050610760613c128682018315159052565b8601519050610780613c278682018315159052565b90950151151593019290925250919050565b600080600060608486031215613c4e57600080fd5b613c5784613886565b9250613c6560208501613886565b9150604084013590509250925092565b60208082528251828201819052600091906040908185019086840185805b83811015613cd057825185835b6002811015613cbd57825182529189019190890190600101613ca0565b5050509385019391860191600101613c93565b509298975050505050505050565b600060208284031215613cf057600080fd5b611ee482613886565b6000806000806107a0808688031215613d1157600080fd5b853567ffffffffffffffff80821115613d2957600080fd5b818801915088601f830112613d3d57600080fd5b813581811115613d4c57600080fd5b896020828501011115613d5e57600080fd5b602083019750809650505050610680860187811115613d7c57600080fd5b602087019350878288011115613d9157600080fd5b94979396509194505050565b60008060408385031215613db057600080fd5b50508035926020909101359150565b8035801515811461389d57600080fd5b60008060408385031215613de257600080fd5b613deb83613886565b9150613df960208401613dbf565b90509250929050565b806080810183101561050557600080fd5b60008083601f840112613e2557600080fd5b50813567ffffffffffffffff811115613e3d57600080fd5b6020830191508360208260051b8501011115613e5857600080fd5b9250929050565b6000806000806000806000806000806101208b8d031215613e7f57600080fd5b8a359950613e908c60208d01613e02565b985060a08b013567ffffffffffffffff80821115613ead57600080fd5b613eb98e838f01613e13565b909a50985060c08d0135915080821115613ed257600080fd5b613ede8e838f01613e13565b909850965060e08d0135915080821115613ef757600080fd5b613f038e838f01613e13565b90965094506101008d0135915080821115613f1d57600080fd5b50613f2a8d828e01613e13565b915080935050809150509295989b9194979a5092959850565b634e487b7160e01b600052604160045260246000fd5b60008060008060808587031215613f6f57600080fd5b613f7885613886565b9350613f8660208601613886565b925060408501359150606085013567ffffffffffffffff80821115613faa57600080fd5b818701915087601f830112613fbe57600080fd5b813581811115613fd057613fd0613f43565b604051601f8201601f19908116603f01168101908382118183101715613ff857613ff8613f43565b816040528281528a602084870101111561401157600080fd5b82602086016020830137600060208483010152809550505050505092959194509250565b6020808252825182820181905260009190848201906040850190845b8181101561406d57835183529284019291840191600101614051565b50909695505050505050565b6000806040838503121561408c57600080fd5b61409583613886565b9150613df960208401613886565b600181811c908216806140b757607f821691505b6020821081036140d757634e487b7160e01b600052602260045260246000fd5b50919050565b602080825260149082015273151bdad95b88191bd95cc81b9bdd08195e1a5cdd60621b604082015260600190565b6020808252602d908201527f4552433732313a2063616c6c6572206973206e6f7420746f6b656e206f776e6560408201526c1c881bdc88185c1c1c9bdd9959609a1b606082015260800190565b634e487b7160e01b600052603260045260246000fd5b634e487b7160e01b600052601160045260246000fd5b6000600182016141965761419661416e565b5060010190565b6000602082840312156141af57600080fd5b611ee482613dbf565b601f8211156106d957600081815260208120601f850160051c810160208610156141df5750805b601f850160051c820191505b818110156141fe578281556001016141eb565b505050505050565b815167ffffffffffffffff81111561422057614220613f43565b6142348161422e84546140a3565b846141b8565b602080601f83116001811461426957600084156142515750858301515b600019600386901b1c1916600185901b1785556141fe565b600085815260208120601f198616915b8281101561429857888601518255948401946001909101908401614279565b50858210156142b65787850151600019600388901b60f8161c191681555b5050505050600190811b01905550565b818103818111156105055761050561416e565b83815260406020820152816040820152818360608301376000818301606090810191909152601f909201601f1916010192915050565b84815260006020858184015260018060a01b0385166040840152608060608401526000845461433d816140a3565b80608087015260a060018084166000811461435f5760018114614379576143a7565b60ff1985168984015283151560051b8901830195506143a7565b896000528660002060005b8581101561439f5781548b8201860152908301908801614384565b8a0184019650505b50939b9a5050505050505050505050565b634e487b7160e01b600052600160045260246000fd5b600083516143e081846020880161380a565b8351908301906143f481836020880161380a565b01949350505050565b80820281158282048414176105055761050561416e565b634e487b7160e01b600052601260045260246000fd5b60008261443957614439614414565b500490565b808201808211156105055761050561416e565b60208082526025908201527f4552433732313a207472616e736665722066726f6d20696e636f72726563742060408201526437bbb732b960d91b606082015260800190565b6000826144a5576144a5614414565b500690565b60208082526032908201527f4552433732313a207472616e7366657220746f206e6f6e20455243373231526560408201527131b2b4bb32b91034b6b83632b6b2b73a32b960711b606082015260800190565b6001600160a01b038581168252841660208201526040810183905260806060820181905260009061452f9083018461382e565b9695505050505050565b60006020828403121561454b57600080fd5b8151611ee4816137d7565b634e487b7160e01b600052603160045260246000fdfea26469706673582212209b240a438808cc07e46f9b9e2076c2941a73034cbd14491f6cad717c47cf709a64736f6c63430008130033",
			"opcodes": "PUSH1 0x80 PUSH1 0x40 MSTORE CALLVALUE DUP1 ISZERO PUSH3 0x11 JUMPI PUSH1 0x0 DUP1 REVERT JUMPDEST POP PUSH1 0x40 MLOAD DUP1 PUSH1 0x40 ADD PUSH1 0x40 MSTORE DUP1 PUSH1 0x7 DUP2 MSTORE PUSH1 0x20 ADD PUSH7 0x436F6D62617473 PUSH1 0xC8 SHL DUP2 MSTORE POP PUSH1 0x40 MLOAD DUP1 PUSH1 0x40 ADD PUSH1 0x40 MSTORE DUP1 PUSH1 0x4 DUP2 MSTORE PUSH1 0x20 ADD PUSH4 0x4974656D PUSH1 0xE0 SHL DUP2 MSTORE POP DUP2 PUSH1 0x0 SWAP1 DUP2 PUSH3 0x60 SWAP2 SWAP1 PUSH3 0x14A JUMP JUMPDEST POP PUSH1 0x1 PUSH3 0x6F DUP3 DUP3 PUSH3 0x14A JUMP JUMPDEST POP POP PUSH1 0xA DUP1 SLOAD PUSH1 0x1 PUSH1 0x1 PUSH1 0xA0 SHL SUB NOT AND CALLER OR SWAP1 SSTORE POP PUSH1 0x43 DUP1 SLOAD PUSH3 0xFF0000 NOT AND PUSH3 0x10000 OR SWAP1 SSTORE PUSH1 0x1 PUSH1 0x19 DUP2 SWAP1 SSTORE PUSH1 0x1A SSTORE PUSH3 0x216 JUMP JUMPDEST PUSH4 0x4E487B71 PUSH1 0xE0 SHL PUSH1 0x0 MSTORE PUSH1 0x41 PUSH1 0x4 MSTORE PUSH1 0x24 PUSH1 0x0 REVERT JUMPDEST PUSH1 0x1 DUP2 DUP2 SHR SWAP1 DUP3 AND DUP1 PUSH3 0xD0 JUMPI PUSH1 0x7F DUP3 AND SWAP2 POP JUMPDEST PUSH1 0x20 DUP3 LT DUP2 SUB PUSH3 0xF1 JUMPI PUSH4 0x4E487B71 PUSH1 0xE0 SHL PUSH1 0x0 MSTORE PUSH1 0x22 PUSH1 0x4 MSTORE PUSH1 0x24 PUSH1 0x0 REVERT JUMPDEST POP SWAP2 SWAP1 POP JUMP JUMPDEST PUSH1 0x1F DUP3 GT ISZERO PUSH3 0x145 JUMPI PUSH1 0x0 DUP2 DUP2 MSTORE PUSH1 0x20 DUP2 KECCAK256 PUSH1 0x1F DUP6 ADD PUSH1 0x5 SHR DUP2 ADD PUSH1 0x20 DUP7 LT ISZERO PUSH3 0x120 JUMPI POP DUP1 JUMPDEST PUSH1 0x1F DUP6 ADD PUSH1 0x5 SHR DUP3 ADD SWAP2 POP JUMPDEST DUP2 DUP2 LT ISZERO PUSH3 0x141 JUMPI DUP3 DUP2 SSTORE PUSH1 0x1 ADD PUSH3 0x12C JUMP JUMPDEST POP POP POP JUMPDEST POP POP POP JUMP JUMPDEST DUP2 MLOAD PUSH1 0x1 PUSH1 0x1 PUSH1 0x40 SHL SUB DUP2 GT ISZERO PUSH3 0x166 JUMPI PUSH3 0x166 PUSH3 0xA5 JUMP JUMPDEST PUSH3 0x17E DUP2 PUSH3 0x177 DUP5 SLOAD PUSH3 0xBB JUMP JUMPDEST DUP5 PUSH3 0xF7 JUMP JUMPDEST PUSH1 0x20 DUP1 PUSH1 0x1F DUP4 GT PUSH1 0x1 DUP2 EQ PUSH3 0x1B6 JUMPI PUSH1 0x0 DUP5 ISZERO PUSH3 0x19D JUMPI POP DUP6 DUP4 ADD MLOAD JUMPDEST PUSH1 0x0 NOT PUSH1 0x3 DUP7 SWAP1 SHL SHR NOT AND PUSH1 0x1 DUP6 SWAP1 SHL OR DUP6 SSTORE PUSH3 0x141 JUMP JUMPDEST PUSH1 0x0 DUP6 DUP2 MSTORE PUSH1 0x20 DUP2 KECCAK256 PUSH1 0x1F NOT DUP7 AND SWAP2 JUMPDEST DUP3 DUP2 LT ISZERO PUSH3 0x1E7 JUMPI DUP9 DUP7 ADD MLOAD DUP3 SSTORE SWAP5 DUP5 ADD SWAP5 PUSH1 0x1 SWAP1 SWAP2 ADD SWAP1 DUP5 ADD PUSH3 0x1C6 JUMP JUMPDEST POP DUP6 DUP3 LT ISZERO PUSH3 0x206 JUMPI DUP8 DUP6 ADD MLOAD PUSH1 0x0 NOT PUSH1 0x3 DUP9 SWAP1 SHL PUSH1 0xF8 AND SHR NOT AND DUP2 SSTORE JUMPDEST POP POP POP POP POP PUSH1 0x1 SWAP1 DUP2 SHL ADD SWAP1 SSTORE POP JUMP JUMPDEST PUSH2 0x45A2 DUP1 PUSH3 0x226 PUSH1 0x0 CODECOPY PUSH1 0x0 RETURN INVALID PUSH1 0x80 PUSH1 0x40 MSTORE CALLVALUE DUP1 ISZERO PUSH2 0x10 JUMPI PUSH1 0x0 DUP1 REVERT JUMPDEST POP PUSH1 0x4 CALLDATASIZE LT PUSH2 0x1DA JUMPI PUSH1 0x0 CALLDATALOAD PUSH1 0xE0 SHR DUP1 PUSH4 0x7F46914F GT PUSH2 0x104 JUMPI DUP1 PUSH4 0xB88D4FDE GT PUSH2 0xA2 JUMPI DUP1 PUSH4 0xE6CB9013 GT PUSH2 0x71 JUMPI DUP1 PUSH4 0xE6CB9013 EQ PUSH2 0x419 JUMPI DUP1 PUSH4 0xE985E9C5 EQ PUSH2 0x42C JUMPI DUP1 PUSH4 0xF10BBE18 EQ PUSH2 0x468 JUMPI DUP1 PUSH4 0xFB5D7F10 EQ PUSH2 0x4CD JUMPI PUSH1 0x0 DUP1 REVERT JUMPDEST DUP1 PUSH4 0xB88D4FDE EQ PUSH2 0x3C0 JUMPI DUP1 PUSH4 0xC87B56DD EQ PUSH2 0x3D3 JUMPI DUP1 PUSH4 0xCE6019B4 EQ PUSH2 0x3E6 JUMPI DUP1 PUSH4 0xD05C78DA EQ PUSH2 0x406 JUMPI PUSH1 0x0 DUP1 REVERT JUMPDEST DUP1 PUSH4 0x95D89B41 GT PUSH2 0xDE JUMPI DUP1 PUSH4 0x95D89B41 EQ PUSH2 0x37F JUMPI DUP1 PUSH4 0xA22CB465 EQ PUSH2 0x387 JUMPI DUP1 PUSH4 0xA293D1E8 EQ PUSH2 0x39A JUMPI DUP1 PUSH4 0xB4148054 EQ PUSH2 0x3AD JUMPI PUSH1 0x0 DUP1 REVERT JUMPDEST DUP1 PUSH4 0x7F46914F EQ PUSH2 0x346 JUMPI DUP1 PUSH4 0x88FEAACC EQ PUSH2 0x359 JUMPI DUP1 PUSH4 0x8DA5CB5B EQ PUSH2 0x36C JUMPI PUSH1 0x0 DUP1 REVERT JUMPDEST DUP1 PUSH4 0x2F745C59 GT PUSH2 0x17C JUMPI DUP1 PUSH4 0x6352211E GT PUSH2 0x14B JUMPI DUP1 PUSH4 0x6352211E EQ PUSH2 0x2FA JUMPI DUP1 PUSH4 0x70A08231 EQ PUSH2 0x30D JUMPI DUP1 PUSH4 0x7310DC8A EQ PUSH2 0x320 JUMPI DUP1 PUSH4 0x75023CA8 EQ PUSH2 0x333 JUMPI PUSH1 0x0 DUP1 REVERT JUMPDEST DUP1 PUSH4 0x2F745C59 EQ PUSH2 0x2A1 JUMPI DUP1 PUSH4 0x42842E0E EQ PUSH2 0x2B4 JUMPI DUP1 PUSH4 0x4F6CCCE7 EQ PUSH2 0x2C7 JUMPI DUP1 PUSH4 0x513C1452 EQ PUSH2 0x2DA JUMPI PUSH1 0x0 DUP1 REVERT JUMPDEST DUP1 PUSH4 0x95EA7B3 GT PUSH2 0x1B8 JUMPI DUP1 PUSH4 0x95EA7B3 EQ PUSH2 0x247 JUMPI DUP1 PUSH4 0x18160DDD EQ PUSH2 0x25C JUMPI DUP1 PUSH4 0x1F4F5A23 EQ PUSH2 0x26E JUMPI DUP1 PUSH4 0x23B872DD EQ PUSH2 0x28E JUMPI PUSH1 0x0 DUP1 REVERT JUMPDEST DUP1 PUSH4 0x1FFC9A7 EQ PUSH2 0x1DF JUMPI DUP1 PUSH4 0x6FDDE03 EQ PUSH2 0x207 JUMPI DUP1 PUSH4 0x81812FC EQ PUSH2 0x21C JUMPI JUMPDEST PUSH1 0x0 DUP1 REVERT JUMPDEST PUSH2 0x1F2 PUSH2 0x1ED CALLDATASIZE PUSH1 0x4 PUSH2 0x37ED JUMP JUMPDEST PUSH2 0x4E0 JUMP JUMPDEST PUSH1 0x40 MLOAD SWAP1 ISZERO ISZERO DUP2 MSTORE PUSH1 0x20 ADD JUMPDEST PUSH1 0x40 MLOAD DUP1 SWAP2 SUB SWAP1 RETURN JUMPDEST PUSH2 0x20F PUSH2 0x50B JUMP JUMPDEST PUSH1 0x40 MLOAD PUSH2 0x1FE SWAP2 SWAP1 PUSH2 0x385A JUMP JUMPDEST PUSH2 0x22F PUSH2 0x22A CALLDATASIZE PUSH1 0x4 PUSH2 0x386D JUMP JUMPDEST PUSH2 0x59D JUMP JUMPDEST PUSH1 0x40 MLOAD PUSH1 0x1 PUSH1 0x1 PUSH1 0xA0 SHL SUB SWAP1 SWAP2 AND DUP2 MSTORE PUSH1 0x20 ADD PUSH2 0x1FE JUMP JUMPDEST PUSH2 0x25A PUSH2 0x255 CALLDATASIZE PUSH1 0x4 PUSH2 0x38A2 JUMP JUMPDEST PUSH2 0x5C4 JUMP JUMPDEST STOP JUMPDEST PUSH1 0x8 SLOAD JUMPDEST PUSH1 0x40 MLOAD SWAP1 DUP2 MSTORE PUSH1 0x20 ADD PUSH2 0x1FE JUMP JUMPDEST PUSH2 0x281 PUSH2 0x27C CALLDATASIZE PUSH1 0x4 PUSH2 0x386D JUMP JUMPDEST PUSH2 0x6DE JUMP JUMPDEST PUSH1 0x40 MLOAD PUSH2 0x1FE SWAP2 SWAP1 PUSH2 0x38CC JUMP JUMPDEST PUSH2 0x25A PUSH2 0x29C CALLDATASIZE PUSH1 0x4 PUSH2 0x3C39 JUMP JUMPDEST PUSH2 0xA85 JUMP JUMPDEST PUSH2 0x260 PUSH2 0x2AF CALLDATASIZE PUSH1 0x4 PUSH2 0x38A2 JUMP JUMPDEST PUSH2 0xAB6 JUMP JUMPDEST PUSH2 0x25A PUSH2 0x2C2 CALLDATASIZE PUSH1 0x4 PUSH2 0x3C39 JUMP JUMPDEST PUSH2 0xB4C JUMP JUMPDEST PUSH2 0x260 PUSH2 0x2D5 CALLDATASIZE PUSH1 0x4 PUSH2 0x386D JUMP JUMPDEST PUSH2 0xB67 JUMP JUMPDEST PUSH2 0x2ED PUSH2 0x2E8 CALLDATASIZE PUSH1 0x4 PUSH2 0x38A2 JUMP JUMPDEST PUSH2 0xBFA JUMP JUMPDEST PUSH1 0x40 MLOAD PUSH2 0x1FE SWAP2 SWAP1 PUSH2 0x3C75 JUMP JUMPDEST PUSH2 0x22F PUSH2 0x308 CALLDATASIZE PUSH1 0x4 PUSH2 0x386D JUMP JUMPDEST PUSH2 0xD08 JUMP JUMPDEST PUSH2 0x260 PUSH2 0x31B CALLDATASIZE PUSH1 0x4 PUSH2 0x3CDE JUMP JUMPDEST PUSH2 0xD68 JUMP JUMPDEST PUSH2 0x20F PUSH2 0x32E CALLDATASIZE PUSH1 0x4 PUSH2 0x386D JUMP JUMPDEST PUSH2 0xDEE JUMP JUMPDEST PUSH2 0x260 PUSH2 0x341 CALLDATASIZE PUSH1 0x4 PUSH2 0x3CF9 JUMP JUMPDEST PUSH2 0xE88 JUMP JUMPDEST PUSH2 0x25A PUSH2 0x354 CALLDATASIZE PUSH1 0x4 PUSH2 0x3D9D JUMP JUMPDEST PUSH2 0x165E JUMP JUMPDEST PUSH2 0x260 PUSH2 0x367 CALLDATASIZE PUSH1 0x4 PUSH2 0x386D JUMP JUMPDEST PUSH2 0x1B01 JUMP JUMPDEST PUSH1 0xA SLOAD PUSH2 0x22F SWAP1 PUSH1 0x1 PUSH1 0x1 PUSH1 0xA0 SHL SUB AND DUP2 JUMP JUMPDEST PUSH2 0x20F PUSH2 0x1EAA JUMP JUMPDEST PUSH2 0x25A PUSH2 0x395 CALLDATASIZE PUSH1 0x4 PUSH2 0x3DCF JUMP JUMPDEST PUSH2 0x1EB9 JUMP JUMPDEST PUSH2 0x260 PUSH2 0x3A8 CALLDATASIZE PUSH1 0x4 PUSH2 0x3D9D JUMP JUMPDEST PUSH2 0x1EC8 JUMP JUMPDEST PUSH2 0x25A PUSH2 0x3BB CALLDATASIZE PUSH1 0x4 PUSH2 0x3E5F JUMP JUMPDEST PUSH2 0x1EEB JUMP JUMPDEST PUSH2 0x25A PUSH2 0x3CE CALLDATASIZE PUSH1 0x4 PUSH2 0x3F59 JUMP JUMPDEST PUSH2 0x213F JUMP JUMPDEST PUSH2 0x20F PUSH2 0x3E1 CALLDATASIZE PUSH1 0x4 PUSH2 0x386D JUMP JUMPDEST PUSH2 0x2177 JUMP JUMPDEST PUSH2 0x3F9 PUSH2 0x3F4 CALLDATASIZE PUSH1 0x4 PUSH2 0x3CDE JUMP JUMPDEST PUSH2 0x21EA JUMP JUMPDEST PUSH1 0x40 MLOAD PUSH2 0x1FE SWAP2 SWAP1 PUSH2 0x4035 JUMP JUMPDEST PUSH2 0x260 PUSH2 0x414 CALLDATASIZE PUSH1 0x4 PUSH2 0x3D9D JUMP JUMPDEST PUSH2 0x228C JUMP JUMPDEST PUSH2 0x260 PUSH2 0x427 CALLDATASIZE PUSH1 0x4 PUSH2 0x3D9D JUMP JUMPDEST PUSH2 0x22BC JUMP JUMPDEST PUSH2 0x1F2 PUSH2 0x43A CALLDATASIZE PUSH1 0x4 PUSH2 0x4079 JUMP JUMPDEST PUSH1 0x1 PUSH1 0x1 PUSH1 0xA0 SHL SUB SWAP2 DUP3 AND PUSH1 0x0 SWAP1 DUP2 MSTORE PUSH1 0x5 PUSH1 0x20 SWAP1 DUP2 MSTORE PUSH1 0x40 DUP1 DUP4 KECCAK256 SWAP4 SWAP1 SWAP5 AND DUP3 MSTORE SWAP2 SWAP1 SWAP2 MSTORE KECCAK256 SLOAD PUSH1 0xFF AND SWAP1 JUMP JUMPDEST PUSH2 0x4A5 PUSH2 0x476 CALLDATASIZE PUSH1 0x4 PUSH2 0x386D JUMP JUMPDEST PUSH1 0x44 PUSH1 0x20 MSTORE PUSH1 0x0 SWAP1 DUP2 MSTORE PUSH1 0x40 SWAP1 KECCAK256 DUP1 SLOAD PUSH1 0x1 DUP3 ADD SLOAD PUSH1 0x3 DUP4 ADD SLOAD PUSH1 0x5 DUP5 ADD SLOAD PUSH1 0x7 SWAP1 SWAP5 ADD SLOAD SWAP3 SWAP4 SWAP2 SWAP3 SWAP1 SWAP2 SWAP1 DUP6 JUMP JUMPDEST PUSH1 0x40 DUP1 MLOAD SWAP6 DUP7 MSTORE PUSH1 0x20 DUP7 ADD SWAP5 SWAP1 SWAP5 MSTORE SWAP3 DUP5 ADD SWAP2 SWAP1 SWAP2 MSTORE PUSH1 0x60 DUP4 ADD MSTORE PUSH1 0x80 DUP3 ADD MSTORE PUSH1 0xA0 ADD PUSH2 0x1FE JUMP JUMPDEST PUSH2 0x25A PUSH2 0x4DB CALLDATASIZE PUSH1 0x4 PUSH2 0x38A2 JUMP JUMPDEST PUSH2 0x22E6 JUMP JUMPDEST PUSH1 0x0 PUSH1 0x1 PUSH1 0x1 PUSH1 0xE0 SHL SUB NOT DUP3 AND PUSH4 0x780E9D63 PUSH1 0xE0 SHL EQ DUP1 PUSH2 0x505 JUMPI POP PUSH2 0x505 DUP3 PUSH2 0x26B9 JUMP JUMPDEST SWAP3 SWAP2 POP POP JUMP JUMPDEST PUSH1 0x60 PUSH1 0x0 DUP1 SLOAD PUSH2 0x51A SWAP1 PUSH2 0x40A3 JUMP JUMPDEST DUP1 PUSH1 0x1F ADD PUSH1 0x20 DUP1 SWAP2 DIV MUL PUSH1 0x20 ADD PUSH1 0x40 MLOAD SWAP1 DUP2 ADD PUSH1 0x40 MSTORE DUP1 SWAP3 SWAP2 SWAP1 DUP2 DUP2 MSTORE PUSH1 0x20 ADD DUP3 DUP1 SLOAD PUSH2 0x546 SWAP1 PUSH2 0x40A3 JUMP JUMPDEST DUP1 ISZERO PUSH2 0x593 JUMPI DUP1 PUSH1 0x1F LT PUSH2 0x568 JUMPI PUSH2 0x100 DUP1 DUP4 SLOAD DIV MUL DUP4 MSTORE SWAP2 PUSH1 0x20 ADD SWAP2 PUSH2 0x593 JUMP JUMPDEST DUP3 ADD SWAP2 SWAP1 PUSH1 0x0 MSTORE PUSH1 0x20 PUSH1 0x0 KECCAK256 SWAP1 JUMPDEST DUP2 SLOAD DUP2 MSTORE SWAP1 PUSH1 0x1 ADD SWAP1 PUSH1 0x20 ADD DUP1 DUP4 GT PUSH2 0x576 JUMPI DUP3 SWAP1 SUB PUSH1 0x1F AND DUP3 ADD SWAP2 JUMPDEST POP POP POP POP POP SWAP1 POP SWAP1 JUMP JUMPDEST PUSH1 0x0 PUSH2 0x5A8 DUP3 PUSH2 0x2709 JUMP JUMPDEST POP PUSH1 0x0 SWAP1 DUP2 MSTORE PUSH1 0x4 PUSH1 0x20 MSTORE PUSH1 0x40 SWAP1 KECCAK256 SLOAD PUSH1 0x1 PUSH1 0x1 PUSH1 0xA0 SHL SUB AND SWAP1 JUMP JUMPDEST PUSH1 0x0 PUSH2 0x5CF DUP3 PUSH2 0xD08 JUMP JUMPDEST SWAP1 POP DUP1 PUSH1 0x1 PUSH1 0x1 PUSH1 0xA0 SHL SUB AND DUP4 PUSH1 0x1 PUSH1 0x1 PUSH1 0xA0 SHL SUB AND SUB PUSH2 0x641 JUMPI PUSH1 0x40 MLOAD PUSH3 0x461BCD PUSH1 0xE5 SHL DUP2 MSTORE PUSH1 0x20 PUSH1 0x4 DUP3 ADD MSTORE PUSH1 0x21 PUSH1 0x24 DUP3 ADD MSTORE PUSH32 0x4552433732313A20617070726F76616C20746F2063757272656E74206F776E65 PUSH1 0x44 DUP3 ADD MSTORE PUSH1 0x39 PUSH1 0xF9 SHL PUSH1 0x64 DUP3 ADD MSTORE PUSH1 0x84 ADD JUMPDEST PUSH1 0x40 MLOAD DUP1 SWAP2 SUB SWAP1 REVERT JUMPDEST CALLER PUSH1 0x1 PUSH1 0x1 PUSH1 0xA0 SHL SUB DUP3 AND EQ DUP1 PUSH2 0x65D JUMPI POP PUSH2 0x65D DUP2 CALLER PUSH2 0x43A JUMP JUMPDEST PUSH2 0x6CF JUMPI PUSH1 0x40 MLOAD PUSH3 0x461BCD PUSH1 0xE5 SHL DUP2 MSTORE PUSH1 0x20 PUSH1 0x4 DUP3 ADD MSTORE PUSH1 0x3D PUSH1 0x24 DUP3 ADD MSTORE PUSH32 0x4552433732313A20617070726F76652063616C6C6572206973206E6F7420746F PUSH1 0x44 DUP3 ADD MSTORE PUSH32 0x6B656E206F776E6572206F7220617070726F76656420666F7220616C6C000000 PUSH1 0x64 DUP3 ADD MSTORE PUSH1 0x84 ADD PUSH2 0x638 JUMP JUMPDEST PUSH2 0x6D9 DUP4 DUP4 PUSH2 0x275C JUMP JUMPDEST POP POP POP JUMP JUMPDEST PUSH2 0x6E6 PUSH2 0x358F JUMP JUMPDEST PUSH2 0x6EF DUP3 PUSH2 0x27CA JUMP JUMPDEST PUSH2 0x70B JUMPI PUSH1 0x40 MLOAD PUSH3 0x461BCD PUSH1 0xE5 SHL DUP2 MSTORE PUSH1 0x4 ADD PUSH2 0x638 SWAP1 PUSH2 0x40DD JUMP JUMPDEST PUSH1 0x0 DUP3 DUP2 MSTORE PUSH1 0xC PUSH1 0x20 MSTORE PUSH1 0x40 SWAP1 DUP2 SWAP1 KECCAK256 DUP2 MLOAD PUSH2 0x7A0 DUP2 ADD SWAP1 SWAP3 MSTORE DUP1 SLOAD DUP3 SWAP1 DUP3 SWAP1 PUSH2 0x734 SWAP1 PUSH2 0x40A3 JUMP JUMPDEST DUP1 PUSH1 0x1F ADD PUSH1 0x20 DUP1 SWAP2 DIV MUL PUSH1 0x20 ADD PUSH1 0x40 MLOAD SWAP1 DUP2 ADD PUSH1 0x40 MSTORE DUP1 SWAP3 SWAP2 SWAP1 DUP2 DUP2 MSTORE PUSH1 0x20 ADD DUP3 DUP1 SLOAD PUSH2 0x760 SWAP1 PUSH2 0x40A3 JUMP JUMPDEST DUP1 ISZERO PUSH2 0x7AD JUMPI DUP1 PUSH1 0x1F LT PUSH2 0x782 JUMPI PUSH2 0x100 DUP1 DUP4 SLOAD DIV MUL DUP4 MSTORE SWAP2 PUSH1 0x20 ADD SWAP2 PUSH2 0x7AD JUMP JUMPDEST DUP3 ADD SWAP2 SWAP1 PUSH1 0x0 MSTORE PUSH1 0x20 PUSH1 0x0 KECCAK256 SWAP1 JUMPDEST DUP2 SLOAD DUP2 MSTORE SWAP1 PUSH1 0x1 ADD SWAP1 PUSH1 0x20 ADD DUP1 DUP4 GT PUSH2 0x790 JUMPI DUP3 SWAP1 SUB PUSH1 0x1F AND DUP3 ADD SWAP2 JUMPDEST POP POP POP SWAP2 DUP4 MSTORE POP POP PUSH1 0x1 DUP3 ADD SLOAD PUSH1 0x20 DUP1 DUP4 ADD SWAP2 SWAP1 SWAP2 MSTORE PUSH1 0x2 DUP4 ADD SLOAD PUSH1 0x40 DUP4 ADD MSTORE PUSH1 0x3 DUP4 ADD SLOAD PUSH1 0x60 DUP4 ADD MSTORE PUSH1 0x4 DUP4 ADD SLOAD PUSH1 0x80 DUP4 ADD MSTORE PUSH1 0x5 DUP4 ADD SLOAD PUSH1 0xA0 DUP4 ADD MSTORE PUSH1 0x6 DUP4 ADD SLOAD PUSH1 0xC0 DUP4 ADD MSTORE PUSH1 0x7 DUP4 ADD SLOAD PUSH1 0xE0 DUP4 ADD MSTORE PUSH1 0x8 DUP4 ADD SLOAD PUSH2 0x100 DUP1 DUP5 ADD SWAP2 SWAP1 SWAP2 MSTORE PUSH1 0x9 DUP5 ADD SLOAD PUSH2 0x120 DUP5 ADD MSTORE PUSH1 0xA DUP5 ADD SLOAD PUSH2 0x140 DUP5 ADD MSTORE PUSH1 0xB DUP5 ADD SLOAD PUSH2 0x160 DUP5 ADD MSTORE PUSH1 0xC DUP5 ADD SLOAD PUSH2 0x180 DUP5 ADD MSTORE PUSH1 0xD DUP5 ADD SLOAD PUSH2 0x1A0 DUP5 ADD MSTORE PUSH1 0xE DUP5 ADD SLOAD PUSH2 0x1C0 DUP5 ADD MSTORE PUSH1 0xF DUP5 ADD SLOAD PUSH2 0x1E0 DUP5 ADD MSTORE PUSH1 0x10 DUP5 ADD SLOAD PUSH2 0x200 DUP5 ADD MSTORE PUSH1 0x11 DUP5 ADD SLOAD PUSH2 0x220 DUP5 ADD MSTORE PUSH1 0x12 DUP5 ADD SLOAD PUSH2 0x240 DUP5 ADD MSTORE PUSH1 0x13 DUP5 ADD SLOAD PUSH2 0x260 DUP5 ADD MSTORE PUSH1 0x14 DUP5 ADD SLOAD PUSH2 0x280 DUP5 ADD MSTORE PUSH1 0x15 DUP5 ADD SLOAD PUSH2 0x2A0 DUP5 ADD MSTORE PUSH1 0x16 DUP5 ADD SLOAD PUSH2 0x2C0 DUP5 ADD MSTORE PUSH1 0x17 DUP5 ADD SLOAD PUSH2 0x2E0 DUP5 ADD MSTORE PUSH1 0x18 DUP5 ADD SLOAD PUSH2 0x300 DUP5 ADD MSTORE PUSH1 0x19 DUP5 ADD SLOAD PUSH2 0x320 DUP5 ADD MSTORE PUSH1 0x1A DUP5 ADD SLOAD PUSH2 0x340 DUP5 ADD MSTORE PUSH1 0x1B DUP5 ADD SLOAD PUSH2 0x360 DUP5 ADD MSTORE PUSH1 0x1C DUP5 ADD SLOAD PUSH2 0x380 DUP5 ADD MSTORE PUSH1 0x1D DUP5 ADD SLOAD PUSH2 0x3A0 DUP5 ADD MSTORE PUSH1 0x1E DUP5 ADD SLOAD PUSH2 0x3C0 DUP5 ADD MSTORE PUSH1 0x1F DUP5 ADD SLOAD PUSH2 0x3E0 DUP5 ADD MSTORE SWAP1 DUP4 ADD SLOAD PUSH2 0x400 DUP4 ADD MSTORE PUSH1 0x21 DUP4 ADD SLOAD PUSH2 0x420 DUP4 ADD MSTORE PUSH1 0x22 DUP4 ADD SLOAD PUSH2 0x440 DUP4 ADD MSTORE PUSH1 0x23 DUP4 ADD SLOAD PUSH2 0x460 DUP4 ADD MSTORE PUSH1 0x24 DUP4 ADD SLOAD PUSH2 0x480 DUP4 ADD MSTORE PUSH1 0x25 DUP4 ADD SLOAD PUSH2 0x4A0 DUP4 ADD MSTORE PUSH1 0x26 DUP4 ADD SLOAD PUSH2 0x4C0 DUP4 ADD MSTORE PUSH1 0x27 DUP4 ADD SLOAD PUSH2 0x4E0 DUP4 ADD MSTORE PUSH1 0x28 DUP4 ADD SLOAD PUSH2 0x500 DUP4 ADD MSTORE PUSH1 0x29 DUP4 ADD SLOAD PUSH2 0x520 DUP4 ADD MSTORE PUSH1 0x2A DUP4 ADD SLOAD PUSH2 0x540 DUP4 ADD MSTORE PUSH1 0x2B DUP4 ADD SLOAD PUSH2 0x560 DUP4 ADD MSTORE PUSH1 0x2C DUP4 ADD SLOAD PUSH2 0x580 DUP4 ADD MSTORE PUSH1 0x2D DUP4 ADD SLOAD PUSH2 0x5A0 DUP4 ADD MSTORE PUSH1 0x2E DUP4 ADD SLOAD PUSH2 0x5C0 DUP4 ADD MSTORE PUSH1 0x2F DUP4 ADD SLOAD PUSH2 0x5E0 DUP4 ADD MSTORE PUSH1 0x30 DUP4 ADD SLOAD PUSH2 0x600 DUP4 ADD MSTORE PUSH1 0x31 DUP4 ADD SLOAD PUSH2 0x620 DUP4 ADD MSTORE PUSH1 0x32 DUP4 ADD SLOAD PUSH2 0x640 DUP4 ADD MSTORE PUSH1 0x33 DUP4 ADD SLOAD PUSH2 0x660 DUP4 ADD MSTORE PUSH1 0x34 SWAP1 SWAP3 ADD SLOAD PUSH1 0xFF DUP1 DUP3 AND ISZERO ISZERO PUSH2 0x680 DUP5 ADD MSTORE SWAP3 DUP2 DIV DUP4 AND ISZERO ISZERO PUSH2 0x6A0 DUP4 ADD MSTORE PUSH3 0x10000 DUP2 DIV DUP4 AND ISZERO ISZERO PUSH2 0x6C0 DUP4 ADD MSTORE PUSH4 0x1000000 DUP2 DIV DUP4 AND ISZERO ISZERO PUSH2 0x6E0 DUP4 ADD MSTORE PUSH5 0x100000000 DUP2 DIV DUP4 AND ISZERO ISZERO PUSH2 0x700 DUP4 ADD MSTORE PUSH1 0x1 PUSH1 0x28 SHL DUP2 DIV DUP4 AND ISZERO ISZERO PUSH2 0x720 DUP4 ADD MSTORE PUSH1 0x1 PUSH1 0x30 SHL DUP2 DIV DUP4 AND ISZERO ISZERO PUSH2 0x740 DUP4 ADD MSTORE PUSH1 0x1 PUSH1 0x38 SHL DUP2 DIV DUP4 AND ISZERO ISZERO PUSH2 0x760 DUP4 ADD MSTORE PUSH1 0x1 PUSH1 0x40 SHL SWAP1 DIV SWAP1 SWAP2 AND ISZERO ISZERO PUSH2 0x780 SWAP1 SWAP2 ADD MSTORE SWAP3 SWAP2 POP POP JUMP JUMPDEST PUSH2 0xA8F CALLER DUP3 PUSH2 0x27E7 JUMP JUMPDEST PUSH2 0xAAB JUMPI PUSH1 0x40 MLOAD PUSH3 0x461BCD PUSH1 0xE5 SHL DUP2 MSTORE PUSH1 0x4 ADD PUSH2 0x638 SWAP1 PUSH2 0x410B JUMP JUMPDEST PUSH2 0x6D9 DUP4 DUP4 DUP4 PUSH2 0x2865 JUMP JUMPDEST PUSH1 0x0 PUSH2 0xAC1 DUP4 PUSH2 0xD68 JUMP JUMPDEST DUP3 LT PUSH2 0xB23 JUMPI PUSH1 0x40 MLOAD PUSH3 0x461BCD PUSH1 0xE5 SHL DUP2 MSTORE PUSH1 0x20 PUSH1 0x4 DUP3 ADD MSTORE PUSH1 0x2B PUSH1 0x24 DUP3 ADD MSTORE PUSH32 0x455243373231456E756D657261626C653A206F776E657220696E646578206F75 PUSH1 0x44 DUP3 ADD MSTORE PUSH11 0x74206F6620626F756E6473 PUSH1 0xA8 SHL PUSH1 0x64 DUP3 ADD MSTORE PUSH1 0x84 ADD PUSH2 0x638 JUMP JUMPDEST POP PUSH1 0x1 PUSH1 0x1 PUSH1 0xA0 SHL SUB SWAP2 SWAP1 SWAP2 AND PUSH1 0x0 SWAP1 DUP2 MSTORE PUSH1 0x6 PUSH1 0x20 SWAP1 DUP2 MSTORE PUSH1 0x40 DUP1 DUP4 KECCAK256 SWAP4 DUP4 MSTORE SWAP3 SWAP1 MSTORE KECCAK256 SLOAD SWAP1 JUMP JUMPDEST PUSH2 0x6D9 DUP4 DUP4 DUP4 PUSH1 0x40 MLOAD DUP1 PUSH1 0x20 ADD PUSH1 0x40 MSTORE DUP1 PUSH1 0x0 DUP2 MSTORE POP PUSH2 0x213F JUMP JUMPDEST PUSH1 0x0 PUSH2 0xB72 PUSH1 0x8 SLOAD SWAP1 JUMP JUMPDEST DUP3 LT PUSH2 0xBD5 JUMPI PUSH1 0x40 MLOAD PUSH3 0x461BCD PUSH1 0xE5 SHL DUP2 MSTORE PUSH1 0x20 PUSH1 0x4 DUP3 ADD MSTORE PUSH1 0x2C PUSH1 0x24 DUP3 ADD MSTORE PUSH32 0x455243373231456E756D657261626C653A20676C6F62616C20696E646578206F PUSH1 0x44 DUP3 ADD MSTORE PUSH12 0x7574206F6620626F756E6473 PUSH1 0xA0 SHL PUSH1 0x64 DUP3 ADD MSTORE PUSH1 0x84 ADD PUSH2 0x638 JUMP JUMPDEST PUSH1 0x8 DUP3 DUP2 SLOAD DUP2 LT PUSH2 0xBE8 JUMPI PUSH2 0xBE8 PUSH2 0x4158 JUMP JUMPDEST SWAP1 PUSH1 0x0 MSTORE PUSH1 0x20 PUSH1 0x0 KECCAK256 ADD SLOAD SWAP1 POP SWAP2 SWAP1 POP JUMP JUMPDEST PUSH1 0x60 PUSH1 0x0 PUSH2 0xC07 DUP5 PUSH2 0xD68 JUMP JUMPDEST SWAP1 POP PUSH1 0x0 DUP2 PUSH8 0xFFFFFFFFFFFFFFFF DUP2 GT ISZERO PUSH2 0xC24 JUMPI PUSH2 0xC24 PUSH2 0x3F43 JUMP JUMPDEST PUSH1 0x40 MLOAD SWAP1 DUP1 DUP3 MSTORE DUP1 PUSH1 0x20 MUL PUSH1 0x20 ADD DUP3 ADD PUSH1 0x40 MSTORE DUP1 ISZERO PUSH2 0xC5D JUMPI DUP2 PUSH1 0x20 ADD JUMPDEST PUSH2 0xC4A PUSH2 0x3759 JUMP JUMPDEST DUP2 MSTORE PUSH1 0x20 ADD SWAP1 PUSH1 0x1 SWAP1 SUB SWAP1 DUP2 PUSH2 0xC42 JUMPI SWAP1 POP JUMPDEST POP SWAP1 POP PUSH1 0x0 DUP1 DUP1 JUMPDEST DUP5 DUP2 LT ISZERO PUSH2 0xCFC JUMPI PUSH2 0xC77 DUP9 DUP3 PUSH2 0xAB6 JUMP JUMPDEST PUSH1 0x0 DUP2 DUP2 MSTORE PUSH1 0xC PUSH1 0x20 MSTORE PUSH1 0x40 SWAP1 KECCAK256 PUSH1 0x32 ADD SLOAD SWAP1 SWAP4 POP DUP8 SWAP1 SUB PUSH2 0xCDC JUMPI PUSH1 0x40 MLOAD DUP1 PUSH1 0x40 ADD PUSH1 0x40 MSTORE DUP1 DUP5 DUP2 MSTORE PUSH1 0x20 ADD PUSH1 0xC PUSH1 0x0 DUP7 DUP2 MSTORE PUSH1 0x20 ADD SWAP1 DUP2 MSTORE PUSH1 0x20 ADD PUSH1 0x0 KECCAK256 PUSH1 0x33 ADD SLOAD DUP2 MSTORE POP DUP5 DUP4 DUP2 MLOAD DUP2 LT PUSH2 0xCD0 JUMPI PUSH2 0xCD0 PUSH2 0x4158 JUMP JUMPDEST PUSH1 0x20 MUL PUSH1 0x20 ADD ADD DUP2 SWAP1 MSTORE POP JUMPDEST DUP2 PUSH2 0xCE6 DUP2 PUSH2 0x4184 JUMP JUMPDEST SWAP3 POP POP DUP1 DUP1 PUSH2 0xCF4 SWAP1 PUSH2 0x4184 JUMP JUMPDEST SWAP2 POP POP PUSH2 0xC65 JUMP JUMPDEST POP SWAP2 SWAP7 SWAP6 POP POP POP POP POP POP JUMP JUMPDEST PUSH1 0x0 DUP2 DUP2 MSTORE PUSH1 0x2 PUSH1 0x20 MSTORE PUSH1 0x40 DUP2 KECCAK256 SLOAD PUSH1 0x1 PUSH1 0x1 PUSH1 0xA0 SHL SUB AND DUP1 PUSH2 0x505 JUMPI PUSH1 0x40 MLOAD PUSH3 0x461BCD PUSH1 0xE5 SHL DUP2 MSTORE PUSH1 0x20 PUSH1 0x4 DUP3 ADD MSTORE PUSH1 0x18 PUSH1 0x24 DUP3 ADD MSTORE PUSH24 0x115490CDCC8C4E881A5B9D985B1A59081D1BDAD95B881251 PUSH1 0x42 SHL PUSH1 0x44 DUP3 ADD MSTORE PUSH1 0x64 ADD PUSH2 0x638 JUMP JUMPDEST PUSH1 0x0 PUSH1 0x1 PUSH1 0x1 PUSH1 0xA0 SHL SUB DUP3 AND PUSH2 0xDD2 JUMPI PUSH1 0x40 MLOAD PUSH3 0x461BCD PUSH1 0xE5 SHL DUP2 MSTORE PUSH1 0x20 PUSH1 0x4 DUP3 ADD MSTORE PUSH1 0x29 PUSH1 0x24 DUP3 ADD MSTORE PUSH32 0x4552433732313A2061646472657373207A65726F206973206E6F742061207661 PUSH1 0x44 DUP3 ADD MSTORE PUSH9 0x3634B21037BBB732B9 PUSH1 0xB9 SHL PUSH1 0x64 DUP3 ADD MSTORE PUSH1 0x84 ADD PUSH2 0x638 JUMP JUMPDEST POP PUSH1 0x1 PUSH1 0x1 PUSH1 0xA0 SHL SUB AND PUSH1 0x0 SWAP1 DUP2 MSTORE PUSH1 0x3 PUSH1 0x20 MSTORE PUSH1 0x40 SWAP1 KECCAK256 SLOAD SWAP1 JUMP JUMPDEST PUSH1 0xB PUSH1 0x20 MSTORE PUSH1 0x0 SWAP1 DUP2 MSTORE PUSH1 0x40 SWAP1 KECCAK256 DUP1 SLOAD PUSH2 0xE07 SWAP1 PUSH2 0x40A3 JUMP JUMPDEST DUP1 PUSH1 0x1F ADD PUSH1 0x20 DUP1 SWAP2 DIV MUL PUSH1 0x20 ADD PUSH1 0x40 MLOAD SWAP1 DUP2 ADD PUSH1 0x40 MSTORE DUP1 SWAP3 SWAP2 SWAP1 DUP2 DUP2 MSTORE PUSH1 0x20 ADD DUP3 DUP1 SLOAD PUSH2 0xE33 SWAP1 PUSH2 0x40A3 JUMP JUMPDEST DUP1 ISZERO PUSH2 0xE80 JUMPI DUP1 PUSH1 0x1F LT PUSH2 0xE55 JUMPI PUSH2 0x100 DUP1 DUP4 SLOAD DIV MUL DUP4 MSTORE SWAP2 PUSH1 0x20 ADD SWAP2 PUSH2 0xE80 JUMP JUMPDEST DUP3 ADD SWAP2 SWAP1 PUSH1 0x0 MSTORE PUSH1 0x20 PUSH1 0x0 KECCAK256 SWAP1 JUMPDEST DUP2 SLOAD DUP2 MSTORE SWAP1 PUSH1 0x1 ADD SWAP1 PUSH1 0x20 ADD DUP1 DUP4 GT PUSH2 0xE63 JUMPI DUP3 SWAP1 SUB PUSH1 0x1F AND DUP3 ADD SWAP2 JUMPDEST POP POP POP POP POP DUP2 JUMP JUMPDEST PUSH1 0x0 PUSH2 0xE92 PUSH2 0x358F JUMP JUMPDEST DUP6 DUP6 DUP1 DUP1 PUSH1 0x1F ADD PUSH1 0x20 DUP1 SWAP2 DIV MUL PUSH1 0x20 ADD PUSH1 0x40 MLOAD SWAP1 DUP2 ADD PUSH1 0x40 MSTORE DUP1 SWAP4 SWAP3 SWAP2 SWAP1 DUP2 DUP2 MSTORE PUSH1 0x20 ADD DUP4 DUP4 DUP1 DUP3 DUP5 CALLDATACOPY PUSH1 0x0 SWAP3 ADD DUP3 SWAP1 MSTORE POP SWAP4 DUP6 MSTORE POP DUP7 SWAP3 SWAP2 POP PUSH2 0xED3 SWAP1 POP JUMP JUMPDEST PUSH1 0x20 SWAP1 DUP2 MUL SWAP2 SWAP1 SWAP2 ADD CALLDATALOAD SWAP1 DUP3 ADD MSTORE DUP4 PUSH1 0x1 PUSH1 0x20 MUL ADD CALLDATALOAD PUSH1 0x40 DUP3 ADD MSTORE DUP4 PUSH1 0x2 PUSH1 0x20 MUL ADD CALLDATALOAD PUSH1 0x60 DUP3 ADD MSTORE DUP4 PUSH1 0x3 PUSH1 0x20 MUL ADD CALLDATALOAD PUSH1 0x80 DUP3 ADD MSTORE DUP4 PUSH1 0x4 PUSH1 0x20 MUL ADD CALLDATALOAD PUSH1 0xA0 DUP3 ADD MSTORE DUP4 PUSH1 0x5 PUSH1 0x20 MUL ADD CALLDATALOAD PUSH1 0xC0 DUP3 ADD MSTORE DUP4 PUSH1 0x6 PUSH1 0x20 MUL ADD CALLDATALOAD PUSH1 0xE0 DUP3 ADD MSTORE DUP4 PUSH1 0x7 PUSH1 0x20 MUL ADD CALLDATALOAD PUSH2 0x100 DUP3 ADD MSTORE DUP4 PUSH1 0x8 PUSH1 0x20 MUL ADD CALLDATALOAD PUSH2 0x120 DUP3 ADD MSTORE DUP4 PUSH1 0x9 PUSH1 0x20 MUL ADD CALLDATALOAD PUSH2 0x140 DUP3 ADD MSTORE DUP4 PUSH1 0xA PUSH1 0x20 MUL ADD CALLDATALOAD PUSH2 0x160 DUP3 ADD MSTORE DUP4 PUSH1 0xB PUSH1 0x20 MUL ADD CALLDATALOAD PUSH2 0x180 DUP3 ADD MSTORE DUP4 PUSH1 0xC PUSH1 0x20 MUL ADD CALLDATALOAD PUSH2 0x1A0 DUP3 ADD MSTORE DUP4 PUSH1 0xD PUSH1 0x20 MUL ADD CALLDATALOAD PUSH2 0x1C0 DUP3 ADD MSTORE DUP4 PUSH1 0xE PUSH1 0x20 MUL ADD CALLDATALOAD PUSH2 0x1E0 DUP3 ADD MSTORE DUP4 PUSH1 0xF PUSH1 0x20 MUL ADD CALLDATALOAD PUSH2 0x200 DUP3 ADD MSTORE DUP4 PUSH1 0x10 PUSH1 0x20 MUL ADD CALLDATALOAD PUSH2 0x220 DUP3 ADD MSTORE DUP4 PUSH1 0x11 PUSH1 0x20 MUL ADD CALLDATALOAD PUSH2 0x240 DUP3 ADD MSTORE DUP4 PUSH1 0x12 PUSH1 0x20 MUL ADD CALLDATALOAD PUSH2 0x260 DUP3 ADD MSTORE DUP4 PUSH1 0x13 PUSH1 0x20 MUL ADD CALLDATALOAD PUSH2 0x280 DUP3 ADD MSTORE DUP4 PUSH1 0x14 PUSH1 0x20 MUL ADD CALLDATALOAD PUSH2 0x2A0 DUP3 ADD MSTORE DUP4 PUSH1 0x15 PUSH1 0x20 MUL ADD CALLDATALOAD PUSH2 0x2C0 DUP3 ADD MSTORE DUP4 PUSH1 0x16 PUSH1 0x20 MUL ADD CALLDATALOAD PUSH2 0x2E0 DUP3 ADD MSTORE DUP4 PUSH1 0x17 PUSH1 0x20 MUL ADD CALLDATALOAD PUSH2 0x300 DUP3 ADD MSTORE DUP4 PUSH1 0x18 PUSH1 0x20 MUL ADD CALLDATALOAD PUSH2 0x320 DUP3 ADD MSTORE DUP4 PUSH1 0x19 PUSH1 0x20 MUL ADD CALLDATALOAD PUSH2 0x340 DUP3 ADD MSTORE DUP4 PUSH1 0x1A PUSH1 0x20 MUL ADD CALLDATALOAD PUSH2 0x360 DUP3 ADD MSTORE DUP4 PUSH1 0x1B PUSH1 0x20 MUL ADD CALLDATALOAD PUSH2 0x380 DUP3 ADD MSTORE DUP4 PUSH1 0x1C PUSH1 0x20 MUL ADD CALLDATALOAD PUSH2 0x3A0 DUP3 ADD MSTORE DUP4 PUSH1 0x1D PUSH1 0x20 MUL ADD CALLDATALOAD PUSH2 0x3C0 DUP3 ADD MSTORE DUP4 PUSH1 0x1E PUSH1 0x20 MUL ADD CALLDATALOAD PUSH2 0x3E0 DUP3 ADD MSTORE DUP4 PUSH1 0x1F PUSH1 0x20 SWAP1 DUP2 MUL SWAP2 SWAP1 SWAP2 ADD CALLDATALOAD PUSH2 0x400 DUP4 ADD MSTORE DUP5 SWAP1 PUSH1 0x20 MUL ADD CALLDATALOAD PUSH2 0x420 DUP3 ADD MSTORE DUP4 PUSH1 0x21 PUSH1 0x20 MUL ADD CALLDATALOAD PUSH2 0x440 DUP3 ADD MSTORE DUP4 PUSH1 0x22 PUSH1 0x20 MUL ADD CALLDATALOAD PUSH2 0x460 DUP3 ADD MSTORE DUP4 PUSH1 0x23 PUSH1 0x20 MUL ADD CALLDATALOAD PUSH2 0x480 DUP3 ADD MSTORE DUP4 PUSH1 0x24 PUSH1 0x20 MUL ADD CALLDATALOAD PUSH2 0x4A0 DUP3 ADD MSTORE DUP4 PUSH1 0x25 PUSH1 0x20 MUL ADD CALLDATALOAD PUSH2 0x4C0 DUP3 ADD MSTORE DUP4 PUSH1 0x26 PUSH1 0x20 MUL ADD CALLDATALOAD PUSH2 0x4E0 DUP3 ADD MSTORE DUP4 PUSH1 0x27 PUSH1 0x20 MUL ADD CALLDATALOAD PUSH2 0x500 DUP3 ADD MSTORE DUP4 PUSH1 0x28 PUSH1 0x20 MUL ADD CALLDATALOAD PUSH2 0x520 DUP3 ADD MSTORE DUP4 PUSH1 0x29 PUSH1 0x20 MUL ADD CALLDATALOAD PUSH2 0x540 DUP3 ADD MSTORE DUP4 PUSH1 0x2A PUSH1 0x20 MUL ADD CALLDATALOAD PUSH2 0x560 DUP3 ADD MSTORE DUP4 PUSH1 0x2B PUSH1 0x20 MUL ADD CALLDATALOAD PUSH2 0x580 DUP3 ADD MSTORE DUP4 PUSH1 0x2C PUSH1 0x20 MUL ADD CALLDATALOAD PUSH2 0x5A0 DUP3 ADD MSTORE DUP4 PUSH1 0x2D PUSH1 0x20 MUL ADD CALLDATALOAD PUSH2 0x5C0 DUP3 ADD MSTORE DUP4 PUSH1 0x2E PUSH1 0x20 MUL ADD CALLDATALOAD PUSH2 0x5E0 DUP3 ADD MSTORE DUP4 PUSH1 0x2F PUSH1 0x20 MUL ADD CALLDATALOAD PUSH2 0x600 DUP3 ADD MSTORE DUP4 PUSH1 0x30 PUSH1 0x20 MUL ADD CALLDATALOAD PUSH2 0x620 DUP3 ADD MSTORE DUP4 PUSH1 0x30 PUSH1 0x20 MUL ADD CALLDATALOAD PUSH2 0x620 DUP3 ADD MSTORE DUP4 PUSH1 0x31 PUSH1 0x20 MUL ADD CALLDATALOAD PUSH2 0x640 DUP3 ADD MSTORE DUP4 PUSH1 0x32 PUSH1 0x20 MUL ADD CALLDATALOAD PUSH2 0x660 DUP3 ADD MSTORE DUP3 PUSH1 0x0 PUSH1 0x20 MUL ADD PUSH1 0x20 DUP2 ADD SWAP1 PUSH2 0x11BF SWAP2 SWAP1 PUSH2 0x419D JUMP JUMPDEST ISZERO ISZERO PUSH2 0x680 DUP3 ADD MSTORE PUSH2 0x11D7 PUSH1 0x40 DUP5 ADD PUSH1 0x20 DUP6 ADD PUSH2 0x419D JUMP JUMPDEST ISZERO ISZERO PUSH2 0x6A0 DUP3 ADD MSTORE PUSH2 0x11EF PUSH1 0x60 DUP5 ADD PUSH1 0x40 DUP6 ADD PUSH2 0x419D JUMP JUMPDEST ISZERO ISZERO PUSH2 0x6C0 DUP3 ADD MSTORE PUSH2 0x1207 PUSH1 0x80 DUP5 ADD PUSH1 0x60 DUP6 ADD PUSH2 0x419D JUMP JUMPDEST ISZERO ISZERO PUSH2 0x6E0 DUP3 ADD MSTORE PUSH2 0x121F PUSH1 0xA0 DUP5 ADD PUSH1 0x80 DUP6 ADD PUSH2 0x419D JUMP JUMPDEST ISZERO ISZERO PUSH2 0x700 DUP3 ADD MSTORE PUSH2 0x1237 PUSH1 0xC0 DUP5 ADD PUSH1 0xA0 DUP6 ADD PUSH2 0x419D JUMP JUMPDEST ISZERO ISZERO PUSH2 0x720 DUP3 ADD MSTORE PUSH2 0x124F PUSH1 0xE0 DUP5 ADD PUSH1 0xC0 DUP6 ADD PUSH2 0x419D JUMP JUMPDEST ISZERO ISZERO PUSH2 0x740 DUP3 ADD MSTORE PUSH2 0x1268 PUSH2 0x100 DUP5 ADD PUSH1 0xE0 DUP6 ADD PUSH2 0x419D JUMP JUMPDEST ISZERO ISZERO PUSH2 0x760 DUP3 ADD MSTORE PUSH2 0x1282 PUSH2 0x120 DUP5 ADD PUSH2 0x100 DUP6 ADD PUSH2 0x419D JUMP JUMPDEST ISZERO ISZERO PUSH2 0x780 DUP3 ADD MSTORE PUSH1 0xD DUP1 SLOAD PUSH1 0x1 DUP2 ADD DUP3 SSTORE PUSH1 0x0 SWAP2 SWAP1 SWAP2 MSTORE DUP2 MLOAD DUP3 SWAP2 PUSH1 0x35 MUL PUSH32 0xD7B6990105719101DABEB77144F2A3385C8033ACD3AF97E9423A695E81AD1EB5 ADD SWAP1 DUP2 SWAP1 PUSH2 0x12D0 SWAP1 DUP3 PUSH2 0x4206 JUMP JUMPDEST POP PUSH1 0x20 DUP3 DUP2 ADD MLOAD PUSH1 0x1 DUP4 DUP2 ADD SWAP2 SWAP1 SWAP2 SSTORE PUSH1 0x40 DUP5 ADD MLOAD PUSH1 0x2 DUP5 ADD SSTORE PUSH1 0x60 DUP5 ADD MLOAD PUSH1 0x3 DUP5 ADD SSTORE PUSH1 0x80 DUP5 ADD MLOAD PUSH1 0x4 DUP5 ADD SSTORE PUSH1 0xA0 DUP5 ADD MLOAD PUSH1 0x5 DUP5 ADD SSTORE PUSH1 0xC0 DUP5 ADD MLOAD PUSH1 0x6 DUP5 ADD SSTORE PUSH1 0xE0 DUP5 ADD MLOAD PUSH1 0x7 DUP5 ADD SSTORE PUSH2 0x100 DUP1 DUP6 ADD MLOAD PUSH1 0x8 DUP6 ADD SSTORE PUSH2 0x120 DUP6 ADD MLOAD PUSH1 0x9 DUP6 ADD SSTORE PUSH2 0x140 DUP6 ADD MLOAD PUSH1 0xA DUP6 ADD SSTORE PUSH2 0x160 DUP6 ADD MLOAD PUSH1 0xB DUP6 ADD SSTORE PUSH2 0x180 DUP6 ADD MLOAD PUSH1 0xC DUP6 ADD SSTORE PUSH2 0x1A0 DUP6 ADD MLOAD PUSH1 0xD DUP1 DUP7 ADD SWAP2 SWAP1 SWAP2 SSTORE PUSH2 0x1C0 DUP7 ADD MLOAD PUSH1 0xE DUP7 ADD SSTORE PUSH2 0x1E0 DUP7 ADD MLOAD PUSH1 0xF DUP7 ADD SSTORE PUSH2 0x200 DUP7 ADD MLOAD PUSH1 0x10 DUP7 ADD SSTORE PUSH2 0x220 DUP7 ADD MLOAD PUSH1 0x11 DUP7 ADD SSTORE PUSH2 0x240 DUP7 ADD MLOAD PUSH1 0x12 DUP7 ADD SSTORE PUSH2 0x260 DUP7 ADD MLOAD PUSH1 0x13 DUP7 ADD SSTORE PUSH2 0x280 DUP7 ADD MLOAD PUSH1 0x14 DUP7 ADD SSTORE PUSH2 0x2A0 DUP7 ADD MLOAD PUSH1 0x15 DUP7 ADD SSTORE PUSH2 0x2C0 DUP7 ADD MLOAD PUSH1 0x16 DUP7 ADD SSTORE PUSH2 0x2E0 DUP7 ADD MLOAD PUSH1 0x17 DUP7 ADD SSTORE PUSH2 0x300 DUP7 ADD MLOAD PUSH1 0x18 DUP7 ADD SSTORE PUSH2 0x320 DUP7 ADD MLOAD PUSH1 0x19 DUP7 ADD SSTORE PUSH2 0x340 DUP7 ADD MLOAD PUSH1 0x1A DUP7 ADD SSTORE PUSH2 0x360 DUP7 ADD MLOAD PUSH1 0x1B DUP7 ADD SSTORE PUSH2 0x380 DUP7 ADD MLOAD PUSH1 0x1C DUP7 ADD SSTORE PUSH2 0x3A0 DUP7 ADD MLOAD PUSH1 0x1D DUP7 ADD SSTORE PUSH2 0x3C0 DUP7 ADD MLOAD PUSH1 0x1E DUP7 ADD SSTORE PUSH2 0x3E0 DUP7 ADD MLOAD PUSH1 0x1F DUP7 ADD SSTORE PUSH2 0x400 DUP7 ADD MLOAD SWAP4 DUP6 ADD SWAP4 SWAP1 SWAP4 SSTORE PUSH2 0x420 DUP6 ADD MLOAD PUSH1 0x21 DUP6 ADD SSTORE PUSH2 0x440 DUP6 ADD MLOAD PUSH1 0x22 DUP6 ADD SSTORE PUSH2 0x460 DUP6 ADD MLOAD PUSH1 0x23 DUP6 ADD SSTORE PUSH2 0x480 DUP6 ADD MLOAD PUSH1 0x24 DUP6 ADD SSTORE PUSH2 0x4A0 DUP6 ADD MLOAD PUSH1 0x25 DUP6 ADD SSTORE PUSH2 0x4C0 DUP6 ADD MLOAD PUSH1 0x26 DUP6 ADD SSTORE PUSH2 0x4E0 DUP6 ADD MLOAD PUSH1 0x27 DUP6 ADD SSTORE PUSH2 0x500 DUP6 ADD MLOAD PUSH1 0x28 DUP6 ADD SSTORE PUSH2 0x520 DUP6 ADD MLOAD PUSH1 0x29 DUP6 ADD SSTORE PUSH2 0x540 DUP6 ADD MLOAD PUSH1 0x2A DUP6 ADD SSTORE PUSH2 0x560 DUP6 ADD MLOAD PUSH1 0x2B DUP6 ADD SSTORE PUSH2 0x580 DUP6 ADD MLOAD PUSH1 0x2C DUP6 ADD SSTORE PUSH2 0x5A0 DUP6 ADD MLOAD PUSH1 0x2D DUP6 ADD SSTORE PUSH2 0x5C0 DUP6 ADD MLOAD PUSH1 0x2E DUP6 ADD SSTORE PUSH2 0x5E0 DUP6 ADD MLOAD PUSH1 0x2F DUP6 ADD SSTORE PUSH2 0x600 DUP6 ADD MLOAD PUSH1 0x30 DUP6 ADD SSTORE PUSH2 0x620 DUP6 ADD MLOAD PUSH1 0x31 DUP6 ADD SSTORE PUSH2 0x640 DUP6 ADD MLOAD PUSH1 0x32 DUP6 ADD SSTORE PUSH2 0x660 DUP6 ADD MLOAD PUSH1 0x33 DUP6 ADD SSTORE PUSH2 0x680 DUP6 ADD MLOAD PUSH1 0x34 SWAP1 SWAP5 ADD DUP1 SLOAD PUSH2 0x6A0 DUP8 ADD MLOAD PUSH2 0x6C0 DUP9 ADD MLOAD PUSH2 0x6E0 DUP10 ADD MLOAD PUSH2 0x700 DUP11 ADD MLOAD PUSH2 0x720 DUP12 ADD MLOAD PUSH2 0x740 DUP13 ADD MLOAD PUSH2 0x760 DUP14 ADD MLOAD PUSH2 0x780 SWAP1 SWAP14 ADD MLOAD PUSH2 0xFFFF NOT SWAP1 SWAP8 AND SWAP12 ISZERO ISZERO PUSH2 0xFF00 NOT AND SWAP12 SWAP1 SWAP12 OR SWAP5 ISZERO ISZERO SWAP1 SWAP8 MUL SWAP4 SWAP1 SWAP4 OR PUSH4 0xFFFF0000 NOT AND PUSH3 0x10000 SWAP3 ISZERO ISZERO SWAP3 SWAP1 SWAP3 MUL PUSH4 0xFF000000 NOT AND SWAP2 SWAP1 SWAP2 OR PUSH4 0x1000000 SWAP2 ISZERO ISZERO SWAP2 SWAP1 SWAP2 MUL OR PUSH6 0xFFFF00000000 NOT AND PUSH5 0x100000000 SWAP2 ISZERO ISZERO SWAP2 SWAP1 SWAP2 MUL PUSH6 0xFF0000000000 NOT AND OR PUSH1 0x1 PUSH1 0x28 SHL SWAP4 ISZERO ISZERO SWAP4 SWAP1 SWAP4 MUL SWAP3 SWAP1 SWAP3 OR PUSH8 0xFFFF000000000000 NOT AND PUSH1 0x1 PUSH1 0x30 SHL SWAP6 ISZERO ISZERO SWAP6 SWAP1 SWAP6 MUL PUSH1 0xFF PUSH1 0x38 SHL NOT AND SWAP5 SWAP1 SWAP5 OR PUSH1 0x1 PUSH1 0x38 SHL SWAP6 ISZERO ISZERO SWAP6 SWAP1 SWAP6 MUL SWAP5 SWAP1 SWAP5 OR PUSH1 0xFF PUSH1 0x40 SHL NOT AND PUSH1 0x1 PUSH1 0x40 SHL SWAP5 ISZERO ISZERO SWAP5 SWAP1 SWAP5 MUL SWAP4 SWAP1 SWAP4 OR SWAP1 SWAP2 SSTORE SLOAD PUSH1 0x0 SWAP2 PUSH2 0x1615 SWAP2 PUSH2 0x42C6 JUMP JUMPDEST SWAP1 POP PUSH32 0x538CE8DBA67BE446D1A480A6E48683B27C6EFB61D7C01D60767E15705E5D00F DUP2 DUP9 DUP9 PUSH1 0x40 MLOAD PUSH2 0x164A SWAP4 SWAP3 SWAP2 SWAP1 PUSH2 0x42D9 JUMP JUMPDEST PUSH1 0x40 MLOAD DUP1 SWAP2 SUB SWAP1 LOG1 SWAP2 POP POP JUMPDEST SWAP5 SWAP4 POP POP POP POP JUMP JUMPDEST PUSH1 0xD DUP3 DUP2 SLOAD DUP2 LT PUSH2 0x1671 JUMPI PUSH2 0x1671 PUSH2 0x4158 JUMP JUMPDEST SWAP1 PUSH1 0x0 MSTORE PUSH1 0x20 PUSH1 0x0 KECCAK256 SWAP1 PUSH1 0x35 MUL ADD PUSH1 0x34 ADD PUSH1 0x8 SWAP1 SLOAD SWAP1 PUSH2 0x100 EXP SWAP1 DIV PUSH1 0xFF AND PUSH2 0x16E6 JUMPI PUSH1 0x40 MLOAD PUSH3 0x461BCD PUSH1 0xE5 SHL DUP2 MSTORE PUSH1 0x20 PUSH1 0x4 DUP3 ADD MSTORE PUSH1 0x21 PUSH1 0x24 DUP3 ADD MSTORE PUSH32 0x4974656D206E6F7420696E2073686F70206F7220646F65736E27742065786973 PUSH1 0x44 DUP3 ADD MSTORE PUSH1 0x1D PUSH1 0xFA SHL PUSH1 0x64 DUP3 ADD MSTORE PUSH1 0x84 ADD PUSH2 0x638 JUMP JUMPDEST PUSH2 0x16F4 PUSH1 0xE DUP1 SLOAD PUSH1 0x1 ADD SWAP1 SSTORE JUMP JUMPDEST PUSH1 0x0 PUSH2 0x16FF PUSH1 0xE SLOAD SWAP1 JUMP JUMPDEST SWAP1 POP PUSH2 0x170B CALLER DUP3 PUSH2 0x29D6 JUMP JUMPDEST PUSH2 0x1A9C DUP2 PUSH1 0xD DUP6 DUP2 SLOAD DUP2 LT PUSH2 0x1722 JUMPI PUSH2 0x1722 PUSH2 0x4158 JUMP JUMPDEST SWAP1 PUSH1 0x0 MSTORE PUSH1 0x20 PUSH1 0x0 KECCAK256 SWAP1 PUSH1 0x35 MUL ADD PUSH1 0x40 MLOAD DUP1 PUSH2 0x7A0 ADD PUSH1 0x40 MSTORE SWAP1 DUP2 PUSH1 0x0 DUP3 ADD DUP1 SLOAD PUSH2 0x174C SWAP1 PUSH2 0x40A3 JUMP JUMPDEST DUP1 PUSH1 0x1F ADD PUSH1 0x20 DUP1 SWAP2 DIV MUL PUSH1 0x20 ADD PUSH1 0x40 MLOAD SWAP1 DUP2 ADD PUSH1 0x40 MSTORE DUP1 SWAP3 SWAP2 SWAP1 DUP2 DUP2 MSTORE PUSH1 0x20 ADD DUP3 DUP1 SLOAD PUSH2 0x1778 SWAP1 PUSH2 0x40A3 JUMP JUMPDEST DUP1 ISZERO PUSH2 0x17C5 JUMPI DUP1 PUSH1 0x1F LT PUSH2 0x179A JUMPI PUSH2 0x100 DUP1 DUP4 SLOAD DIV MUL DUP4 MSTORE SWAP2 PUSH1 0x20 ADD SWAP2 PUSH2 0x17C5 JUMP JUMPDEST DUP3 ADD SWAP2 SWAP1 PUSH1 0x0 MSTORE PUSH1 0x20 PUSH1 0x0 KECCAK256 SWAP1 JUMPDEST DUP2 SLOAD DUP2 MSTORE SWAP1 PUSH1 0x1 ADD SWAP1 PUSH1 0x20 ADD DUP1 DUP4 GT PUSH2 0x17A8 JUMPI DUP3 SWAP1 SUB PUSH1 0x1F AND DUP3 ADD SWAP2 JUMPDEST POP POP POP SWAP2 DUP4 MSTORE POP POP PUSH1 0x1 DUP3 ADD SLOAD PUSH1 0x20 DUP1 DUP4 ADD SWAP2 SWAP1 SWAP2 MSTORE PUSH1 0x2 DUP4 ADD SLOAD PUSH1 0x40 DUP4 ADD MSTORE PUSH1 0x3 DUP4 ADD SLOAD PUSH1 0x60 DUP4 ADD MSTORE PUSH1 0x4 DUP4 ADD SLOAD PUSH1 0x80 DUP4 ADD MSTORE PUSH1 0x5 DUP4 ADD SLOAD PUSH1 0xA0 DUP4 ADD MSTORE PUSH1 0x6 DUP4 ADD SLOAD PUSH1 0xC0 DUP4 ADD MSTORE PUSH1 0x7 DUP4 ADD SLOAD PUSH1 0xE0 DUP4 ADD MSTORE PUSH1 0x8 DUP4 ADD SLOAD PUSH2 0x100 DUP1 DUP5 ADD SWAP2 SWAP1 SWAP2 MSTORE PUSH1 0x9 DUP5 ADD SLOAD PUSH2 0x120 DUP5 ADD MSTORE PUSH1 0xA DUP5 ADD SLOAD PUSH2 0x140 DUP5 ADD MSTORE PUSH1 0xB DUP5 ADD SLOAD PUSH2 0x160 DUP5 ADD MSTORE PUSH1 0xC DUP5 ADD SLOAD PUSH2 0x180 DUP5 ADD MSTORE PUSH1 0xD DUP5 ADD SLOAD PUSH2 0x1A0 DUP5 ADD MSTORE PUSH1 0xE DUP5 ADD SLOAD PUSH2 0x1C0 DUP5 ADD MSTORE PUSH1 0xF DUP5 ADD SLOAD PUSH2 0x1E0 DUP5 ADD MSTORE PUSH1 0x10 DUP5 ADD SLOAD PUSH2 0x200 DUP5 ADD MSTORE PUSH1 0x11 DUP5 ADD SLOAD PUSH2 0x220 DUP5 ADD MSTORE PUSH1 0x12 DUP5 ADD SLOAD PUSH2 0x240 DUP5 ADD MSTORE PUSH1 0x13 DUP5 ADD SLOAD PUSH2 0x260 DUP5 ADD MSTORE PUSH1 0x14 DUP5 ADD SLOAD PUSH2 0x280 DUP5 ADD MSTORE PUSH1 0x15 DUP5 ADD SLOAD PUSH2 0x2A0 DUP5 ADD MSTORE PUSH1 0x16 DUP5 ADD SLOAD PUSH2 0x2C0 DUP5 ADD MSTORE PUSH1 0x17 DUP5 ADD SLOAD PUSH2 0x2E0 DUP5 ADD MSTORE PUSH1 0x18 DUP5 ADD SLOAD PUSH2 0x300 DUP5 ADD MSTORE PUSH1 0x19 DUP5 ADD SLOAD PUSH2 0x320 DUP5 ADD MSTORE PUSH1 0x1A DUP5 ADD SLOAD PUSH2 0x340 DUP5 ADD MSTORE PUSH1 0x1B DUP5 ADD SLOAD PUSH2 0x360 DUP5 ADD MSTORE PUSH1 0x1C DUP5 ADD SLOAD PUSH2 0x380 DUP5 ADD MSTORE PUSH1 0x1D DUP5 ADD SLOAD PUSH2 0x3A0 DUP5 ADD MSTORE PUSH1 0x1E DUP5 ADD SLOAD PUSH2 0x3C0 DUP5 ADD MSTORE PUSH1 0x1F DUP5 ADD SLOAD PUSH2 0x3E0 DUP5 ADD MSTORE SWAP1 DUP4 ADD SLOAD PUSH2 0x400 DUP4 ADD MSTORE PUSH1 0x21 DUP4 ADD SLOAD PUSH2 0x420 DUP4 ADD MSTORE PUSH1 0x22 DUP4 ADD SLOAD PUSH2 0x440 DUP4 ADD MSTORE PUSH1 0x23 DUP4 ADD SLOAD PUSH2 0x460 DUP4 ADD MSTORE PUSH1 0x24 DUP4 ADD SLOAD PUSH2 0x480 DUP4 ADD MSTORE PUSH1 0x25 DUP4 ADD SLOAD PUSH2 0x4A0 DUP4 ADD MSTORE PUSH1 0x26 DUP4 ADD SLOAD PUSH2 0x4C0 DUP4 ADD MSTORE PUSH1 0x27 DUP4 ADD SLOAD PUSH2 0x4E0 DUP4 ADD MSTORE PUSH1 0x28 DUP4 ADD SLOAD PUSH2 0x500 DUP4 ADD MSTORE PUSH1 0x29 DUP4 ADD SLOAD PUSH2 0x520 DUP4 ADD MSTORE PUSH1 0x2A DUP4 ADD SLOAD PUSH2 0x540 DUP4 ADD MSTORE PUSH1 0x2B DUP4 ADD SLOAD PUSH2 0x560 DUP4 ADD MSTORE PUSH1 0x2C DUP4 ADD SLOAD PUSH2 0x580 DUP4 ADD MSTORE PUSH1 0x2D DUP4 ADD SLOAD PUSH2 0x5A0 DUP4 ADD MSTORE PUSH1 0x2E DUP4 ADD SLOAD PUSH2 0x5C0 DUP4 ADD MSTORE PUSH1 0x2F DUP4 ADD SLOAD PUSH2 0x5E0 DUP4 ADD MSTORE PUSH1 0x30 DUP4 ADD SLOAD PUSH2 0x600 DUP4 ADD MSTORE PUSH1 0x31 DUP4 ADD SLOAD PUSH2 0x620 DUP4 ADD MSTORE PUSH1 0x32 DUP4 ADD SLOAD PUSH2 0x640 DUP4 ADD MSTORE PUSH1 0x33 DUP4 ADD SLOAD PUSH2 0x660 DUP4 ADD MSTORE PUSH1 0x34 SWAP1 SWAP3 ADD SLOAD PUSH1 0xFF DUP1 DUP3 AND ISZERO ISZERO PUSH2 0x680 DUP5 ADD MSTORE SWAP3 DUP2 DIV DUP4 AND ISZERO ISZERO PUSH2 0x6A0 DUP4 ADD MSTORE PUSH3 0x10000 DUP2 DIV DUP4 AND ISZERO ISZERO PUSH2 0x6C0 DUP4 ADD MSTORE PUSH4 0x1000000 DUP2 DIV DUP4 AND ISZERO ISZERO PUSH2 0x6E0 DUP4 ADD MSTORE PUSH5 0x100000000 DUP2 DIV DUP4 AND ISZERO ISZERO PUSH2 0x700 DUP4 ADD MSTORE PUSH1 0x1 PUSH1 0x28 SHL DUP2 DIV DUP4 AND ISZERO ISZERO PUSH2 0x720 DUP4 ADD MSTORE PUSH1 0x1 PUSH1 0x30 SHL DUP2 DIV DUP4 AND ISZERO ISZERO PUSH2 0x740 DUP4 ADD MSTORE PUSH1 0x1 PUSH1 0x38 SHL DUP2 DIV DUP4 AND ISZERO ISZERO PUSH2 0x760 DUP4 ADD MSTORE PUSH1 0x1 PUSH1 0x40 SHL SWAP1 DIV SWAP1 SWAP2 AND ISZERO ISZERO PUSH2 0x780 SWAP1 SWAP2 ADD MSTORE PUSH2 0x29F0 JUMP JUMPDEST PUSH1 0x0 DUP2 DUP2 MSTORE PUSH1 0xC PUSH1 0x20 MSTORE PUSH1 0x40 SWAP1 DUP2 SWAP1 KECCAK256 PUSH1 0x1 DUP2 ADD DUP4 SWAP1 SSTORE PUSH1 0x32 DUP2 ADD DUP5 SWAP1 SSTORE NUMBER PUSH1 0x33 DUP3 ADD SSTORE SWAP1 MLOAD PUSH32 0x78CB587A56A0DC7913EC51993EB7F7BF182FCA207BD1460930BC912747387EDD SWAP2 PUSH2 0x1AF4 SWAP2 DUP5 SWAP2 DUP8 SWAP2 CALLER SWAP2 SWAP1 PUSH2 0x430F JUMP JUMPDEST PUSH1 0x40 MLOAD DUP1 SWAP2 SUB SWAP1 LOG1 POP POP POP JUMP JUMPDEST PUSH1 0x0 PUSH2 0x1B0C DUP3 PUSH2 0x27CA JUMP JUMPDEST PUSH2 0x1B28 JUMPI PUSH1 0x40 MLOAD PUSH3 0x461BCD PUSH1 0xE5 SHL DUP2 MSTORE PUSH1 0x4 ADD PUSH2 0x638 SWAP1 PUSH2 0x40DD JUMP JUMPDEST PUSH1 0x0 DUP3 DUP2 MSTORE PUSH1 0xC PUSH1 0x20 MSTORE PUSH1 0x40 SWAP1 KECCAK256 PUSH1 0x34 ADD SLOAD PUSH3 0x10000 SWAP1 DIV PUSH1 0xFF AND PUSH2 0x1B7B JUMPI PUSH1 0x40 MLOAD PUSH3 0x461BCD PUSH1 0xE5 SHL DUP2 MSTORE PUSH1 0x20 PUSH1 0x4 DUP3 ADD MSTORE PUSH1 0x9 PUSH1 0x24 DUP3 ADD MSTORE PUSH9 0x9CDEE840C240C4DEF PUSH1 0xBB SHL PUSH1 0x44 DUP3 ADD MSTORE PUSH1 0x64 ADD PUSH2 0x638 JUMP JUMPDEST PUSH1 0x0 DUP3 DUP2 MSTORE PUSH1 0xC PUSH1 0x20 SWAP1 DUP2 MSTORE PUSH1 0x40 DUP1 DUP4 KECCAK256 PUSH1 0x2 SWAP1 DUP2 ADD SLOAD DUP1 DUP6 MSTORE PUSH1 0x44 DUP5 MSTORE DUP3 DUP6 KECCAK256 DUP4 MLOAD PUSH2 0x120 DUP2 ADD DUP6 MSTORE DUP2 SLOAD DUP2 MSTORE PUSH1 0x1 DUP3 ADD SLOAD DUP2 DUP8 ADD MSTORE SWAP3 DUP2 ADD DUP1 SLOAD DUP6 MLOAD DUP2 DUP9 MUL DUP2 ADD DUP9 ADD DUP8 MSTORE DUP2 DUP2 MSTORE SWAP4 SWAP8 SWAP7 SWAP5 SWAP6 SWAP3 SWAP5 SWAP3 DUP7 ADD SWAP4 SWAP3 DUP4 ADD DUP3 DUP3 DUP1 ISZERO PUSH2 0x1C00 JUMPI PUSH1 0x20 MUL DUP3 ADD SWAP2 SWAP1 PUSH1 0x0 MSTORE PUSH1 0x20 PUSH1 0x0 KECCAK256 SWAP1 JUMPDEST DUP2 SLOAD DUP2 MSTORE PUSH1 0x20 ADD SWAP1 PUSH1 0x1 ADD SWAP1 DUP1 DUP4 GT PUSH2 0x1BEC JUMPI JUMPDEST POP POP POP POP POP DUP2 MSTORE PUSH1 0x20 ADD PUSH1 0x3 DUP3 ADD SLOAD DUP2 MSTORE PUSH1 0x20 ADD PUSH1 0x4 DUP3 ADD DUP1 SLOAD DUP1 PUSH1 0x20 MUL PUSH1 0x20 ADD PUSH1 0x40 MLOAD SWAP1 DUP2 ADD PUSH1 0x40 MSTORE DUP1 SWAP3 SWAP2 SWAP1 DUP2 DUP2 MSTORE PUSH1 0x20 ADD DUP3 DUP1 SLOAD DUP1 ISZERO PUSH2 0x1C62 JUMPI PUSH1 0x20 MUL DUP3 ADD SWAP2 SWAP1 PUSH1 0x0 MSTORE PUSH1 0x20 PUSH1 0x0 KECCAK256 SWAP1 JUMPDEST DUP2 SLOAD DUP2 MSTORE PUSH1 0x20 ADD SWAP1 PUSH1 0x1 ADD SWAP1 DUP1 DUP4 GT PUSH2 0x1C4E JUMPI JUMPDEST POP POP POP POP POP DUP2 MSTORE PUSH1 0x20 ADD PUSH1 0x5 DUP3 ADD SLOAD DUP2 MSTORE PUSH1 0x20 ADD PUSH1 0x6 DUP3 ADD DUP1 SLOAD DUP1 PUSH1 0x20 MUL PUSH1 0x20 ADD PUSH1 0x40 MLOAD SWAP1 DUP2 ADD PUSH1 0x40 MSTORE DUP1 SWAP3 SWAP2 SWAP1 DUP2 DUP2 MSTORE PUSH1 0x20 ADD DUP3 DUP1 SLOAD DUP1 ISZERO PUSH2 0x1CC4 JUMPI PUSH1 0x20 MUL DUP3 ADD SWAP2 SWAP1 PUSH1 0x0 MSTORE PUSH1 0x20 PUSH1 0x0 KECCAK256 SWAP1 JUMPDEST DUP2 SLOAD DUP2 MSTORE PUSH1 0x20 ADD SWAP1 PUSH1 0x1 ADD SWAP1 DUP1 DUP4 GT PUSH2 0x1CB0 JUMPI JUMPDEST POP POP POP POP POP DUP2 MSTORE PUSH1 0x20 ADD PUSH1 0x7 DUP3 ADD SLOAD DUP2 MSTORE PUSH1 0x20 ADD PUSH1 0x8 DUP3 ADD DUP1 SLOAD DUP1 PUSH1 0x20 MUL PUSH1 0x20 ADD PUSH1 0x40 MLOAD SWAP1 DUP2 ADD PUSH1 0x40 MSTORE DUP1 SWAP3 SWAP2 SWAP1 DUP2 DUP2 MSTORE PUSH1 0x20 ADD DUP3 DUP1 SLOAD DUP1 ISZERO PUSH2 0x1D26 JUMPI PUSH1 0x20 MUL DUP3 ADD SWAP2 SWAP1 PUSH1 0x0 MSTORE PUSH1 0x20 PUSH1 0x0 KECCAK256 SWAP1 JUMPDEST DUP2 SLOAD DUP2 MSTORE PUSH1 0x20 ADD SWAP1 PUSH1 0x1 ADD SWAP1 DUP1 DUP4 GT PUSH2 0x1D12 JUMPI JUMPDEST POP POP POP POP POP DUP2 MSTORE POP POP SWAP1 POP PUSH1 0x0 PUSH2 0x1D55 DUP3 PUSH1 0x20 ADD MLOAD PUSH2 0x427 DUP5 PUSH1 0x60 ADD MLOAD PUSH2 0x427 DUP7 PUSH1 0xA0 ADD MLOAD DUP8 PUSH1 0xE0 ADD MLOAD PUSH2 0x22BC JUMP JUMPDEST SWAP1 POP PUSH1 0x0 PUSH2 0x1D61 PUSH2 0x2D67 JUMP JUMPDEST SWAP1 POP PUSH1 0x0 DUP1 DUP1 PUSH1 0x0 DUP1 DUP7 DUP7 GT PUSH2 0x1E00 JUMPI DUP8 PUSH1 0x20 ADD MLOAD DUP7 GT PUSH2 0x1D94 JUMPI PUSH1 0x1 SWAP4 POP PUSH2 0x1D8D DUP9 PUSH1 0x40 ADD MLOAD PUSH2 0x2D7E JUMP JUMPDEST SWAP5 POP PUSH2 0x1E11 JUMP JUMPDEST PUSH2 0x1DA6 DUP9 PUSH1 0x20 ADD MLOAD DUP10 PUSH1 0x60 ADD MLOAD PUSH2 0x22BC JUMP JUMPDEST DUP7 GT PUSH2 0x1DBD JUMPI PUSH1 0x1 SWAP3 POP PUSH2 0x1D8D DUP9 PUSH1 0x80 ADD MLOAD PUSH2 0x2D7E JUMP JUMPDEST PUSH2 0x1DD7 DUP9 PUSH1 0xA0 ADD MLOAD PUSH2 0x427 DUP11 PUSH1 0x20 ADD MLOAD DUP12 PUSH1 0x60 ADD MLOAD PUSH2 0x22BC JUMP JUMPDEST DUP7 GT PUSH2 0x1DEE JUMPI PUSH1 0x1 SWAP2 POP PUSH2 0x1D8D DUP9 PUSH1 0xC0 ADD MLOAD PUSH2 0x2D7E JUMP JUMPDEST PUSH1 0x1 SWAP1 POP PUSH2 0x1D8D DUP9 PUSH2 0x100 ADD MLOAD PUSH2 0x2D7E JUMP JUMPDEST POP PUSH1 0x0 SWAP11 SWAP10 POP POP POP POP POP POP POP POP POP POP JUMP JUMPDEST PUSH2 0x1E1F PUSH1 0xE DUP1 SLOAD PUSH1 0x1 ADD SWAP1 SSTORE JUMP JUMPDEST PUSH1 0x0 PUSH2 0x1E2A PUSH1 0xE SLOAD SWAP1 JUMP JUMPDEST SWAP1 POP PUSH2 0x1E36 CALLER DUP3 PUSH2 0x29D6 JUMP JUMPDEST PUSH2 0x1E4D DUP2 PUSH1 0xD DUP9 DUP2 SLOAD DUP2 LT PUSH2 0x1722 JUMPI PUSH2 0x1722 PUSH2 0x4158 JUMP JUMPDEST PUSH1 0x0 DUP2 DUP2 MSTORE PUSH1 0xC PUSH1 0x20 SWAP1 DUP2 MSTORE PUSH1 0x40 SWAP2 DUP3 SWAP1 KECCAK256 PUSH1 0x1 ADD DUP4 SWAP1 SSTORE DUP2 MLOAD CALLER DUP2 MSTORE SWAP1 DUP2 ADD DUP4 SWAP1 MSTORE PUSH32 0xCA303F21E08537B41000F97158DE2EBCA16244CB81143C3D691B410B0A2B8A4C SWAP2 ADD PUSH1 0x40 MLOAD DUP1 SWAP2 SUB SWAP1 LOG1 SWAP12 SWAP11 POP POP POP POP POP POP POP POP POP POP POP JUMP JUMPDEST PUSH1 0x60 PUSH1 0x1 DUP1 SLOAD PUSH2 0x51A SWAP1 PUSH2 0x40A3 JUMP JUMPDEST PUSH2 0x1EC4 CALLER DUP4 DUP4 PUSH2 0x2DBA JUMP JUMPDEST POP POP JUMP JUMPDEST PUSH1 0x0 DUP3 DUP3 GT ISZERO PUSH2 0x1EDA JUMPI PUSH2 0x1EDA PUSH2 0x43B8 JUMP JUMPDEST PUSH2 0x1EE4 DUP3 DUP5 PUSH2 0x42C6 JUMP JUMPDEST SWAP4 SWAP3 POP POP POP JUMP JUMPDEST PUSH1 0x0 PUSH1 0x40 MLOAD DUP1 PUSH2 0x120 ADD PUSH1 0x40 MSTORE DUP1 DUP13 DUP2 MSTORE PUSH1 0x20 ADD DUP12 PUSH1 0x0 PUSH1 0x4 DUP2 LT PUSH2 0x1F12 JUMPI PUSH2 0x1F12 PUSH2 0x4158 JUMP JUMPDEST PUSH1 0x20 MUL ADD CALLDATALOAD DUP2 MSTORE PUSH1 0x20 ADD DUP11 DUP11 DUP1 DUP1 PUSH1 0x20 MUL PUSH1 0x20 ADD PUSH1 0x40 MLOAD SWAP1 DUP2 ADD PUSH1 0x40 MSTORE DUP1 SWAP4 SWAP3 SWAP2 SWAP1 DUP2 DUP2 MSTORE PUSH1 0x20 ADD DUP4 DUP4 PUSH1 0x20 MUL DUP1 DUP3 DUP5 CALLDATACOPY PUSH1 0x0 SWAP3 ADD SWAP2 SWAP1 SWAP2 MSTORE POP POP POP SWAP1 DUP3 MSTORE POP PUSH1 0x20 ADD DUP12 PUSH1 0x1 PUSH1 0x20 MUL ADD CALLDATALOAD DUP2 MSTORE PUSH1 0x20 ADD DUP9 DUP9 DUP1 DUP1 PUSH1 0x20 MUL PUSH1 0x20 ADD PUSH1 0x40 MLOAD SWAP1 DUP2 ADD PUSH1 0x40 MSTORE DUP1 SWAP4 SWAP3 SWAP2 SWAP1 DUP2 DUP2 MSTORE PUSH1 0x20 ADD DUP4 DUP4 PUSH1 0x20 MUL DUP1 DUP3 DUP5 CALLDATACOPY PUSH1 0x0 SWAP3 ADD SWAP2 SWAP1 SWAP2 MSTORE POP POP POP SWAP1 DUP3 MSTORE POP PUSH1 0x20 ADD DUP12 PUSH1 0x2 PUSH1 0x20 MUL ADD CALLDATALOAD DUP2 MSTORE PUSH1 0x20 ADD DUP7 DUP7 DUP1 DUP1 PUSH1 0x20 MUL PUSH1 0x20 ADD PUSH1 0x40 MLOAD SWAP1 DUP2 ADD PUSH1 0x40 MSTORE DUP1 SWAP4 SWAP3 SWAP2 SWAP1 DUP2 DUP2 MSTORE PUSH1 0x20 ADD DUP4 DUP4 PUSH1 0x20 MUL DUP1 DUP3 DUP5 CALLDATACOPY PUSH1 0x0 SWAP3 ADD SWAP2 SWAP1 SWAP2 MSTORE POP POP POP SWAP1 DUP3 MSTORE POP PUSH1 0x20 ADD DUP12 PUSH1 0x3 PUSH1 0x20 MUL ADD CALLDATALOAD DUP2 MSTORE PUSH1 0x20 ADD DUP5 DUP5 DUP1 DUP1 PUSH1 0x20 MUL PUSH1 0x20 ADD PUSH1 0x40 MLOAD SWAP1 DUP2 ADD PUSH1 0x40 MSTORE DUP1 SWAP4 SWAP3 SWAP2 SWAP1 DUP2 DUP2 MSTORE PUSH1 0x20 ADD DUP4 DUP4 PUSH1 0x20 MUL DUP1 DUP3 DUP5 CALLDATACOPY PUSH1 0x0 SWAP3 ADD DUP3 SWAP1 MSTORE POP SWAP4 SWAP1 SWAP5 MSTORE POP POP DUP14 DUP2 MSTORE PUSH1 0x44 PUSH1 0x20 SWAP1 DUP2 MSTORE PUSH1 0x40 SWAP2 DUP3 SWAP1 KECCAK256 DUP5 MLOAD DUP2 SSTORE DUP2 DUP6 ADD MLOAD PUSH1 0x1 DUP3 ADD SSTORE SWAP2 DUP5 ADD MLOAD DUP1 MLOAD SWAP5 SWAP6 POP DUP6 SWAP5 SWAP3 SWAP4 POP PUSH2 0x2061 SWAP3 PUSH1 0x2 DUP6 ADD SWAP3 SWAP2 SWAP1 SWAP2 ADD SWAP1 PUSH2 0x3777 JUMP JUMPDEST POP PUSH1 0x60 DUP3 ADD MLOAD PUSH1 0x3 DUP3 ADD SSTORE PUSH1 0x80 DUP3 ADD MLOAD DUP1 MLOAD PUSH2 0x2087 SWAP2 PUSH1 0x4 DUP5 ADD SWAP2 PUSH1 0x20 SWAP1 SWAP2 ADD SWAP1 PUSH2 0x3777 JUMP JUMPDEST POP PUSH1 0xA0 DUP3 ADD MLOAD PUSH1 0x5 DUP3 ADD SSTORE PUSH1 0xC0 DUP3 ADD MLOAD DUP1 MLOAD PUSH2 0x20AD SWAP2 PUSH1 0x6 DUP5 ADD SWAP2 PUSH1 0x20 SWAP1 SWAP2 ADD SWAP1 PUSH2 0x3777 JUMP JUMPDEST POP PUSH1 0xE0 DUP3 ADD MLOAD PUSH1 0x7 DUP3 ADD SSTORE PUSH2 0x100 DUP3 ADD MLOAD DUP1 MLOAD PUSH2 0x20D4 SWAP2 PUSH1 0x8 DUP5 ADD SWAP2 PUSH1 0x20 SWAP1 SWAP2 ADD SWAP1 PUSH2 0x3777 JUMP JUMPDEST POP POP PUSH1 0x40 DUP1 MLOAD DUP14 DUP2 MSTORE DUP13 CALLDATALOAD PUSH1 0x20 DUP3 DUP2 ADD SWAP2 SWAP1 SWAP2 MSTORE DUP14 ADD CALLDATALOAD DUP2 DUP4 ADD MSTORE SWAP1 DUP13 ADD CALLDATALOAD PUSH1 0x60 DUP1 DUP4 ADD SWAP2 SWAP1 SWAP2 MSTORE DUP13 ADD CALLDATALOAD PUSH1 0x80 DUP3 ADD MSTORE PUSH32 0x86F382A6BC7E045486AF422EB9E8F96528C8A6C437F0088461C6879F4C80FED9 SWAP2 POP PUSH1 0xA0 ADD PUSH1 0x40 MLOAD DUP1 SWAP2 SUB SWAP1 LOG1 POP POP POP POP POP POP POP POP POP POP POP JUMP JUMPDEST PUSH2 0x2149 CALLER DUP4 PUSH2 0x27E7 JUMP JUMPDEST PUSH2 0x2165 JUMPI PUSH1 0x40 MLOAD PUSH3 0x461BCD PUSH1 0xE5 SHL DUP2 MSTORE PUSH1 0x4 ADD PUSH2 0x638 SWAP1 PUSH2 0x410B JUMP JUMPDEST PUSH2 0x2171 DUP5 DUP5 DUP5 DUP5 PUSH2 0x2E88 JUMP JUMPDEST POP POP POP POP JUMP JUMPDEST PUSH1 0x60 PUSH2 0x2182 DUP3 PUSH2 0x2709 JUMP JUMPDEST PUSH1 0x0 PUSH2 0x2199 PUSH1 0x40 DUP1 MLOAD PUSH1 0x20 DUP2 ADD SWAP1 SWAP2 MSTORE PUSH1 0x0 DUP2 MSTORE SWAP1 JUMP JUMPDEST SWAP1 POP PUSH1 0x0 DUP2 MLOAD GT PUSH2 0x21B9 JUMPI PUSH1 0x40 MLOAD DUP1 PUSH1 0x20 ADD PUSH1 0x40 MSTORE DUP1 PUSH1 0x0 DUP2 MSTORE POP PUSH2 0x1EE4 JUMP JUMPDEST DUP1 PUSH2 0x21C3 DUP5 PUSH2 0x2EBB JUMP JUMPDEST PUSH1 0x40 MLOAD PUSH1 0x20 ADD PUSH2 0x21D4 SWAP3 SWAP2 SWAP1 PUSH2 0x43CE JUMP JUMPDEST PUSH1 0x40 MLOAD PUSH1 0x20 DUP2 DUP4 SUB SUB DUP2 MSTORE SWAP1 PUSH1 0x40 MSTORE SWAP4 SWAP3 POP POP POP JUMP JUMPDEST PUSH1 0x60 PUSH1 0x0 PUSH2 0x21F7 DUP4 PUSH2 0xD68 JUMP JUMPDEST SWAP1 POP PUSH1 0x0 DUP2 PUSH8 0xFFFFFFFFFFFFFFFF DUP2 GT ISZERO PUSH2 0x2214 JUMPI PUSH2 0x2214 PUSH2 0x3F43 JUMP JUMPDEST PUSH1 0x40 MLOAD SWAP1 DUP1 DUP3 MSTORE DUP1 PUSH1 0x20 MUL PUSH1 0x20 ADD DUP3 ADD PUSH1 0x40 MSTORE DUP1 ISZERO PUSH2 0x223D JUMPI DUP2 PUSH1 0x20 ADD PUSH1 0x20 DUP3 MUL DUP1 CALLDATASIZE DUP4 CALLDATACOPY ADD SWAP1 POP JUMPDEST POP SWAP1 POP PUSH1 0x0 JUMPDEST DUP3 DUP2 LT ISZERO PUSH2 0x2284 JUMPI PUSH2 0x2255 DUP6 DUP3 PUSH2 0xAB6 JUMP JUMPDEST DUP3 DUP3 DUP2 MLOAD DUP2 LT PUSH2 0x2267 JUMPI PUSH2 0x2267 PUSH2 0x4158 JUMP JUMPDEST PUSH1 0x20 SWAP1 DUP2 MUL SWAP2 SWAP1 SWAP2 ADD ADD MSTORE DUP1 PUSH2 0x227C DUP2 PUSH2 0x4184 JUMP JUMPDEST SWAP2 POP POP PUSH2 0x2243 JUMP JUMPDEST POP SWAP4 SWAP3 POP POP POP JUMP JUMPDEST PUSH1 0x0 DUP1 PUSH2 0x2299 DUP4 DUP6 PUSH2 0x43FD JUMP JUMPDEST SWAP1 POP DUP4 ISZERO DUP1 PUSH2 0x22B0 JUMPI POP DUP3 PUSH2 0x22AE DUP6 DUP4 PUSH2 0x442A JUMP JUMPDEST EQ JUMPDEST PUSH2 0x1EE4 JUMPI PUSH2 0x1EE4 PUSH2 0x43B8 JUMP JUMPDEST PUSH1 0x0 DUP1 PUSH2 0x22C9 DUP4 DUP6 PUSH2 0x443E JUMP JUMPDEST SWAP1 POP DUP4 DUP2 LT ISZERO DUP1 ISZERO PUSH2 0x22B0 JUMPI POP DUP3 DUP2 LT ISZERO PUSH2 0x1EE4 JUMPI PUSH2 0x1EE4 PUSH2 0x43B8 JUMP JUMPDEST PUSH1 0x0 PUSH2 0x22F3 PUSH1 0x32 DUP4 PUSH2 0x442A JUMP JUMPDEST SWAP1 POP PUSH2 0x2303 PUSH1 0xE DUP1 SLOAD PUSH1 0x1 ADD SWAP1 SSTORE JUMP JUMPDEST PUSH1 0x0 PUSH2 0x230E PUSH1 0xE SLOAD SWAP1 JUMP JUMPDEST SWAP1 POP PUSH2 0x231A DUP5 DUP3 PUSH2 0x29D6 JUMP JUMPDEST PUSH1 0x0 PUSH1 0xF PUSH1 0x40 MLOAD DUP1 PUSH2 0x7A0 ADD PUSH1 0x40 MSTORE SWAP1 DUP2 PUSH1 0x0 DUP3 ADD DUP1 SLOAD PUSH2 0x233A SWAP1 PUSH2 0x40A3 JUMP JUMPDEST DUP1 PUSH1 0x1F ADD PUSH1 0x20 DUP1 SWAP2 DIV MUL PUSH1 0x20 ADD PUSH1 0x40 MLOAD SWAP1 DUP2 ADD PUSH1 0x40 MSTORE DUP1 SWAP3 SWAP2 SWAP1 DUP2 DUP2 MSTORE PUSH1 0x20 ADD DUP3 DUP1 SLOAD PUSH2 0x2366 SWAP1 PUSH2 0x40A3 JUMP JUMPDEST DUP1 ISZERO PUSH2 0x23B3 JUMPI DUP1 PUSH1 0x1F LT PUSH2 0x2388 JUMPI PUSH2 0x100 DUP1 DUP4 SLOAD DIV MUL DUP4 MSTORE SWAP2 PUSH1 0x20 ADD SWAP2 PUSH2 0x23B3 JUMP JUMPDEST DUP3 ADD SWAP2 SWAP1 PUSH1 0x0 MSTORE PUSH1 0x20 PUSH1 0x0 KECCAK256 SWAP1 JUMPDEST DUP2 SLOAD DUP2 MSTORE SWAP1 PUSH1 0x1 ADD SWAP1 PUSH1 0x20 ADD DUP1 DUP4 GT PUSH2 0x2396 JUMPI DUP3 SWAP1 SUB PUSH1 0x1F AND DUP3 ADD SWAP2 JUMPDEST POP POP POP SWAP2 DUP4 MSTORE POP POP PUSH1 0x1 DUP3 ADD SLOAD PUSH1 0x20 DUP1 DUP4 ADD SWAP2 SWAP1 SWAP2 MSTORE PUSH1 0x2 DUP4 ADD SLOAD PUSH1 0x40 DUP1 DUP5 ADD SWAP2 SWAP1 SWAP2 MSTORE PUSH1 0x3 DUP5 ADD SLOAD PUSH1 0x60 DUP5 ADD MSTORE PUSH1 0x4 DUP5 ADD SLOAD PUSH1 0x80 DUP5 ADD MSTORE PUSH1 0x5 DUP5 ADD SLOAD PUSH1 0xA0 DUP5 ADD MSTORE PUSH1 0x6 DUP5 ADD SLOAD PUSH1 0xC0 DUP5 ADD MSTORE PUSH1 0x7 DUP5 ADD SLOAD PUSH1 0xE0 DUP5 ADD MSTORE PUSH1 0x8 DUP5 ADD SLOAD PUSH2 0x100 DUP1 DUP6 ADD SWAP2 SWAP1 SWAP2 MSTORE PUSH1 0x9 DUP6 ADD SLOAD PUSH2 0x120 DUP6 ADD MSTORE PUSH1 0xA DUP6 ADD SLOAD PUSH2 0x140 DUP6 ADD MSTORE PUSH1 0xB DUP6 ADD SLOAD PUSH2 0x160 DUP6 ADD MSTORE PUSH1 0xC DUP6 ADD SLOAD PUSH2 0x180 DUP6 ADD MSTORE PUSH1 0xD DUP6 ADD SLOAD PUSH2 0x1A0 DUP6 ADD MSTORE PUSH1 0xE DUP6 ADD SLOAD PUSH2 0x1C0 DUP6 ADD MSTORE PUSH1 0xF DUP1 DUP7 ADD SLOAD PUSH2 0x1E0 DUP7 ADD MSTORE PUSH1 0x10 DUP7 ADD SLOAD PUSH2 0x200 DUP7 ADD MSTORE PUSH1 0x11 DUP1 DUP8 ADD SLOAD PUSH2 0x220 DUP8 ADD MSTORE PUSH1 0x12 DUP8 ADD SLOAD PUSH2 0x240 DUP8 ADD MSTORE PUSH1 0x13 DUP8 ADD SLOAD PUSH2 0x260 DUP8 ADD MSTORE PUSH1 0x14 DUP8 ADD SLOAD PUSH2 0x280 DUP8 ADD MSTORE PUSH1 0x15 DUP8 ADD SLOAD PUSH2 0x2A0 DUP8 ADD MSTORE PUSH1 0x16 DUP8 ADD SLOAD PUSH2 0x2C0 DUP8 ADD MSTORE PUSH1 0x17 DUP8 ADD SLOAD PUSH2 0x2E0 DUP8 ADD MSTORE PUSH1 0x18 DUP8 ADD SLOAD PUSH2 0x300 DUP8 ADD MSTORE PUSH1 0x19 DUP8 ADD SLOAD PUSH2 0x320 DUP8 ADD MSTORE PUSH1 0x1A DUP8 ADD SLOAD PUSH2 0x340 DUP8 ADD MSTORE PUSH1 0x1B DUP8 ADD SLOAD PUSH2 0x360 DUP8 ADD MSTORE PUSH1 0x1C DUP8 ADD SLOAD PUSH2 0x380 DUP8 ADD MSTORE PUSH1 0x1D DUP8 ADD SLOAD PUSH2 0x3A0 DUP8 ADD MSTORE PUSH1 0x1E DUP8 ADD SLOAD PUSH2 0x3C0 DUP8 ADD MSTORE PUSH1 0x1F DUP8 ADD SLOAD PUSH2 0x3E0 DUP8 ADD MSTORE SWAP4 DUP7 ADD SLOAD PUSH2 0x400 DUP7 ADD MSTORE PUSH1 0x21 DUP7 ADD SLOAD PUSH2 0x420 DUP7 ADD MSTORE PUSH1 0x22 DUP7 ADD SLOAD PUSH2 0x440 DUP7 ADD MSTORE PUSH1 0x23 DUP7 ADD SLOAD PUSH2 0x460 DUP7 ADD MSTORE PUSH1 0x24 DUP7 ADD SLOAD PUSH2 0x480 DUP7 ADD MSTORE PUSH1 0x25 DUP7 ADD SLOAD PUSH2 0x4A0 DUP7 ADD MSTORE PUSH1 0x26 DUP7 ADD SLOAD PUSH2 0x4C0 DUP7 ADD MSTORE PUSH1 0x27 DUP7 ADD SLOAD PUSH2 0x4E0 DUP7 ADD MSTORE PUSH1 0x28 DUP7 ADD SLOAD PUSH2 0x500 DUP7 ADD MSTORE PUSH1 0x29 DUP7 ADD SLOAD PUSH2 0x520 DUP7 ADD MSTORE PUSH1 0x2A DUP7 ADD SLOAD PUSH2 0x540 DUP7 ADD MSTORE PUSH1 0x2B DUP7 ADD SLOAD PUSH2 0x560 DUP7 ADD MSTORE PUSH1 0x2C DUP7 ADD SLOAD PUSH2 0x580 DUP7 ADD MSTORE PUSH1 0x2D DUP7 ADD SLOAD PUSH2 0x5A0 DUP7 ADD MSTORE PUSH1 0x2E DUP7 ADD SLOAD PUSH2 0x5C0 DUP7 ADD MSTORE PUSH1 0x2F DUP7 ADD SLOAD PUSH2 0x5E0 DUP7 ADD MSTORE PUSH1 0x30 DUP7 ADD SLOAD PUSH2 0x600 DUP7 ADD MSTORE PUSH1 0x31 DUP7 ADD SLOAD PUSH2 0x620 DUP7 ADD MSTORE PUSH1 0x32 DUP7 ADD SLOAD PUSH2 0x640 DUP7 ADD MSTORE PUSH1 0x33 DUP7 ADD SLOAD PUSH2 0x660 DUP7 ADD MSTORE PUSH1 0x34 SWAP1 SWAP6 ADD SLOAD PUSH1 0xFF DUP1 DUP3 AND ISZERO ISZERO PUSH2 0x680 DUP8 ADD MSTORE SWAP2 DUP2 DIV DUP3 AND ISZERO ISZERO PUSH2 0x6A0 DUP7 ADD MSTORE PUSH3 0x10000 DUP2 DIV DUP3 AND ISZERO ISZERO PUSH2 0x6C0 DUP7 ADD MSTORE PUSH4 0x1000000 DUP2 DIV DUP3 AND ISZERO ISZERO PUSH2 0x6E0 DUP7 ADD MSTORE PUSH5 0x100000000 DUP2 DIV DUP3 AND ISZERO ISZERO PUSH2 0x700 DUP7 ADD MSTORE PUSH1 0x1 PUSH1 0x28 SHL DUP2 DIV DUP3 AND ISZERO ISZERO PUSH2 0x720 DUP7 ADD MSTORE PUSH1 0x1 PUSH1 0x30 SHL DUP2 DIV DUP3 AND ISZERO ISZERO PUSH2 0x740 DUP7 ADD MSTORE PUSH1 0x1 PUSH1 0x38 SHL DUP2 DIV DUP3 AND ISZERO ISZERO PUSH2 0x760 DUP7 ADD MSTORE PUSH1 0x1 PUSH1 0x40 SHL SWAP1 DIV AND ISZERO ISZERO PUSH2 0x780 SWAP1 SWAP4 ADD SWAP3 SWAP1 SWAP3 MSTORE DUP7 SWAP1 SSTORE DUP1 MLOAD PUSH2 0x7A0 DUP2 ADD SWAP1 SWAP2 MSTORE DUP2 SLOAD SWAP3 SWAP4 POP PUSH2 0x26B2 SWAP3 DUP6 SWAP3 SWAP1 DUP3 SWAP1 DUP3 SWAP1 PUSH2 0x174C SWAP1 PUSH2 0x40A3 JUMP JUMPDEST POP POP POP POP POP JUMP JUMPDEST PUSH1 0x0 PUSH1 0x1 PUSH1 0x1 PUSH1 0xE0 SHL SUB NOT DUP3 AND PUSH4 0x80AC58CD PUSH1 0xE0 SHL EQ DUP1 PUSH2 0x26EA JUMPI POP PUSH1 0x1 PUSH1 0x1 PUSH1 0xE0 SHL SUB NOT DUP3 AND PUSH4 0x5B5E139F PUSH1 0xE0 SHL EQ JUMPDEST DUP1 PUSH2 0x505 JUMPI POP PUSH4 0x1FFC9A7 PUSH1 0xE0 SHL PUSH1 0x1 PUSH1 0x1 PUSH1 0xE0 SHL SUB NOT DUP4 AND EQ PUSH2 0x505 JUMP JUMPDEST PUSH2 0x2712 DUP2 PUSH2 0x27CA JUMP JUMPDEST PUSH2 0x2759 JUMPI PUSH1 0x40 MLOAD PUSH3 0x461BCD PUSH1 0xE5 SHL DUP2 MSTORE PUSH1 0x20 PUSH1 0x4 DUP3 ADD MSTORE PUSH1 0x18 PUSH1 0x24 DUP3 ADD MSTORE PUSH24 0x115490CDCC8C4E881A5B9D985B1A59081D1BDAD95B881251 PUSH1 0x42 SHL PUSH1 0x44 DUP3 ADD MSTORE PUSH1 0x64 ADD PUSH2 0x638 JUMP JUMPDEST POP JUMP JUMPDEST PUSH1 0x0 DUP2 DUP2 MSTORE PUSH1 0x4 PUSH1 0x20 MSTORE PUSH1 0x40 SWAP1 KECCAK256 DUP1 SLOAD PUSH1 0x1 PUSH1 0x1 PUSH1 0xA0 SHL SUB NOT AND PUSH1 0x1 PUSH1 0x1 PUSH1 0xA0 SHL SUB DUP5 AND SWAP1 DUP2 OR SWAP1 SWAP2 SSTORE DUP2 SWAP1 PUSH2 0x2791 DUP3 PUSH2 0xD08 JUMP JUMPDEST PUSH1 0x1 PUSH1 0x1 PUSH1 0xA0 SHL SUB AND PUSH32 0x8C5BE1E5EBEC7D5BD14F71427D1E84F3DD0314C0F7B2291E5B200AC8C7C3B925 PUSH1 0x40 MLOAD PUSH1 0x40 MLOAD DUP1 SWAP2 SUB SWAP1 LOG4 POP POP JUMP JUMPDEST PUSH1 0x0 SWAP1 DUP2 MSTORE PUSH1 0x2 PUSH1 0x20 MSTORE PUSH1 0x40 SWAP1 KECCAK256 SLOAD PUSH1 0x1 PUSH1 0x1 PUSH1 0xA0 SHL SUB AND ISZERO ISZERO SWAP1 JUMP JUMPDEST PUSH1 0x0 DUP1 PUSH2 0x27F3 DUP4 PUSH2 0xD08 JUMP JUMPDEST SWAP1 POP DUP1 PUSH1 0x1 PUSH1 0x1 PUSH1 0xA0 SHL SUB AND DUP5 PUSH1 0x1 PUSH1 0x1 PUSH1 0xA0 SHL SUB AND EQ DUP1 PUSH2 0x283A JUMPI POP PUSH1 0x1 PUSH1 0x1 PUSH1 0xA0 SHL SUB DUP1 DUP3 AND PUSH1 0x0 SWAP1 DUP2 MSTORE PUSH1 0x5 PUSH1 0x20 SWAP1 DUP2 MSTORE PUSH1 0x40 DUP1 DUP4 KECCAK256 SWAP4 DUP9 AND DUP4 MSTORE SWAP3 SWAP1 MSTORE KECCAK256 SLOAD PUSH1 0xFF AND JUMPDEST DUP1 PUSH2 0x1656 JUMPI POP DUP4 PUSH1 0x1 PUSH1 0x1 PUSH1 0xA0 SHL SUB AND PUSH2 0x2853 DUP5 PUSH2 0x59D JUMP JUMPDEST PUSH1 0x1 PUSH1 0x1 PUSH1 0xA0 SHL SUB AND EQ SWAP5 SWAP4 POP POP POP POP JUMP JUMPDEST DUP3 PUSH1 0x1 PUSH1 0x1 PUSH1 0xA0 SHL SUB AND PUSH2 0x2878 DUP3 PUSH2 0xD08 JUMP JUMPDEST PUSH1 0x1 PUSH1 0x1 PUSH1 0xA0 SHL SUB AND EQ PUSH2 0x289E JUMPI PUSH1 0x40 MLOAD PUSH3 0x461BCD PUSH1 0xE5 SHL DUP2 MSTORE PUSH1 0x4 ADD PUSH2 0x638 SWAP1 PUSH2 0x4451 JUMP JUMPDEST PUSH1 0x1 PUSH1 0x1 PUSH1 0xA0 SHL SUB DUP3 AND PUSH2 0x2900 JUMPI PUSH1 0x40 MLOAD PUSH3 0x461BCD PUSH1 0xE5 SHL DUP2 MSTORE PUSH1 0x20 PUSH1 0x4 DUP3 ADD MSTORE PUSH1 0x24 DUP1 DUP3 ADD MSTORE PUSH32 0x4552433732313A207472616E7366657220746F20746865207A65726F20616464 PUSH1 0x44 DUP3 ADD MSTORE PUSH4 0x72657373 PUSH1 0xE0 SHL PUSH1 0x64 DUP3 ADD MSTORE PUSH1 0x84 ADD PUSH2 0x638 JUMP JUMPDEST PUSH2 0x290D DUP4 DUP4 DUP4 PUSH1 0x1 PUSH2 0x2F4E JUMP JUMPDEST DUP3 PUSH1 0x1 PUSH1 0x1 PUSH1 0xA0 SHL SUB AND PUSH2 0x2920 DUP3 PUSH2 0xD08 JUMP JUMPDEST PUSH1 0x1 PUSH1 0x1 PUSH1 0xA0 SHL SUB AND EQ PUSH2 0x2946 JUMPI PUSH1 0x40 MLOAD PUSH3 0x461BCD PUSH1 0xE5 SHL DUP2 MSTORE PUSH1 0x4 ADD PUSH2 0x638 SWAP1 PUSH2 0x4451 JUMP JUMPDEST PUSH1 0x0 DUP2 DUP2 MSTORE PUSH1 0x4 PUSH1 0x20 SWAP1 DUP2 MSTORE PUSH1 0x40 DUP1 DUP4 KECCAK256 DUP1 SLOAD PUSH1 0x1 PUSH1 0x1 PUSH1 0xA0 SHL SUB NOT SWAP1 DUP2 AND SWAP1 SWAP2 SSTORE PUSH1 0x1 PUSH1 0x1 PUSH1 0xA0 SHL SUB DUP8 DUP2 AND DUP1 DUP7 MSTORE PUSH1 0x3 DUP6 MSTORE DUP4 DUP7 KECCAK256 DUP1 SLOAD PUSH1 0x0 NOT ADD SWAP1 SSTORE SWAP1 DUP8 AND DUP1 DUP7 MSTORE DUP4 DUP7 KECCAK256 DUP1 SLOAD PUSH1 0x1 ADD SWAP1 SSTORE DUP7 DUP7 MSTORE PUSH1 0x2 SWAP1 SWAP5 MSTORE DUP3 DUP6 KECCAK256 DUP1 SLOAD SWAP1 SWAP3 AND DUP5 OR SWAP1 SWAP2 SSTORE SWAP1 MLOAD DUP5 SWAP4 PUSH32 0xDDF252AD1BE2C89B69C2B068FC378DAA952BA7F163C4A11628F55A4DF523B3EF SWAP2 LOG4 POP POP POP JUMP JUMPDEST PUSH2 0x1EC4 DUP3 DUP3 PUSH1 0x40 MLOAD DUP1 PUSH1 0x20 ADD PUSH1 0x40 MSTORE DUP1 PUSH1 0x0 DUP2 MSTORE POP PUSH2 0x307B JUMP JUMPDEST PUSH2 0x29F9 DUP3 PUSH2 0x27CA JUMP JUMPDEST PUSH2 0x2A15 JUMPI PUSH1 0x40 MLOAD PUSH3 0x461BCD PUSH1 0xE5 SHL DUP2 MSTORE PUSH1 0x4 ADD PUSH2 0x638 SWAP1 PUSH2 0x40DD JUMP JUMPDEST PUSH1 0x0 DUP3 DUP2 MSTORE PUSH1 0xC PUSH1 0x20 MSTORE PUSH1 0x40 SWAP1 KECCAK256 DUP2 MLOAD DUP3 SWAP2 SWAP1 DUP2 SWAP1 PUSH2 0x2A34 SWAP1 DUP3 PUSH2 0x4206 JUMP JUMPDEST POP PUSH1 0x20 DUP3 DUP2 ADD MLOAD PUSH1 0x1 DUP4 ADD SSTORE PUSH1 0x40 DUP4 ADD MLOAD PUSH1 0x2 DUP4 ADD SSTORE PUSH1 0x60 DUP4 ADD MLOAD PUSH1 0x3 DUP4 ADD SSTORE PUSH1 0x80 DUP4 ADD MLOAD PUSH1 0x4 DUP4 ADD SSTORE PUSH1 0xA0 DUP4 ADD MLOAD PUSH1 0x5 DUP4 ADD SSTORE PUSH1 0xC0 DUP4 ADD MLOAD PUSH1 0x6 DUP4 ADD SSTORE PUSH1 0xE0 DUP4 ADD MLOAD PUSH1 0x7 DUP4 ADD SSTORE PUSH2 0x100 DUP1 DUP5 ADD MLOAD PUSH1 0x8 DUP5 ADD SSTORE PUSH2 0x120 DUP5 ADD MLOAD PUSH1 0x9 DUP5 ADD SSTORE PUSH2 0x140 DUP5 ADD MLOAD PUSH1 0xA DUP5 ADD SSTORE PUSH2 0x160 DUP5 ADD MLOAD PUSH1 0xB DUP5 ADD SSTORE PUSH2 0x180 DUP5 ADD MLOAD PUSH1 0xC DUP5 ADD SSTORE PUSH2 0x1A0 DUP5 ADD MLOAD PUSH1 0xD DUP5 ADD SSTORE PUSH2 0x1C0 DUP5 ADD MLOAD PUSH1 0xE DUP5 ADD SSTORE PUSH2 0x1E0 DUP5 ADD MLOAD PUSH1 0xF DUP5 ADD SSTORE PUSH2 0x200 DUP5 ADD MLOAD PUSH1 0x10 DUP5 ADD SSTORE PUSH2 0x220 DUP5 ADD MLOAD PUSH1 0x11 DUP5 ADD SSTORE PUSH2 0x240 DUP5 ADD MLOAD PUSH1 0x12 DUP5 ADD SSTORE PUSH2 0x260 DUP5 ADD MLOAD PUSH1 0x13 DUP5 ADD SSTORE PUSH2 0x280 DUP5 ADD MLOAD PUSH1 0x14 DUP5 ADD SSTORE PUSH2 0x2A0 DUP5 ADD MLOAD PUSH1 0x15 DUP5 ADD SSTORE PUSH2 0x2C0 DUP5 ADD MLOAD PUSH1 0x16 DUP5 ADD SSTORE PUSH2 0x2E0 DUP5 ADD MLOAD PUSH1 0x17 DUP5 ADD SSTORE PUSH2 0x300 DUP5 ADD MLOAD PUSH1 0x18 DUP5 ADD SSTORE PUSH2 0x320 DUP5 ADD MLOAD PUSH1 0x19 DUP5 ADD SSTORE PUSH2 0x340 DUP5 ADD MLOAD PUSH1 0x1A DUP5 ADD SSTORE PUSH2 0x360 DUP5 ADD MLOAD PUSH1 0x1B DUP5 ADD SSTORE PUSH2 0x380 DUP5 ADD MLOAD PUSH1 0x1C DUP5 ADD SSTORE PUSH2 0x3A0 DUP5 ADD MLOAD PUSH1 0x1D DUP5 ADD SSTORE PUSH2 0x3C0 DUP5 ADD MLOAD PUSH1 0x1E DUP5 ADD SSTORE PUSH2 0x3E0 DUP5 ADD MLOAD PUSH1 0x1F DUP5 ADD SSTORE PUSH2 0x400 DUP5 ADD MLOAD SWAP2 DUP4 ADD SWAP2 SWAP1 SWAP2 SSTORE PUSH2 0x420 DUP4 ADD MLOAD PUSH1 0x21 DUP4 ADD SSTORE PUSH2 0x440 DUP4 ADD MLOAD PUSH1 0x22 DUP4 ADD SSTORE PUSH2 0x460 DUP4 ADD MLOAD PUSH1 0x23 DUP4 ADD SSTORE PUSH2 0x480 DUP4 ADD MLOAD PUSH1 0x24 DUP4 ADD SSTORE PUSH2 0x4A0 DUP4 ADD MLOAD PUSH1 0x25 DUP4 ADD SSTORE PUSH2 0x4C0 DUP4 ADD MLOAD PUSH1 0x26 DUP4 ADD SSTORE PUSH2 0x4E0 DUP4 ADD MLOAD PUSH1 0x27 DUP4 ADD SSTORE PUSH2 0x500 DUP4 ADD MLOAD PUSH1 0x28 DUP4 ADD SSTORE PUSH2 0x520 DUP4 ADD MLOAD PUSH1 0x29 DUP4 ADD SSTORE PUSH2 0x540 DUP4 ADD MLOAD PUSH1 0x2A DUP4 ADD SSTORE PUSH2 0x560 DUP4 ADD MLOAD PUSH1 0x2B DUP4 ADD SSTORE PUSH2 0x580 DUP4 ADD MLOAD PUSH1 0x2C DUP4 ADD SSTORE PUSH2 0x5A0 DUP4 ADD MLOAD PUSH1 0x2D DUP4 ADD SSTORE PUSH2 0x5C0 DUP4 ADD MLOAD PUSH1 0x2E DUP4 ADD SSTORE PUSH2 0x5E0 DUP4 ADD MLOAD PUSH1 0x2F DUP4 ADD SSTORE PUSH2 0x600 DUP4 ADD MLOAD PUSH1 0x30 DUP4 ADD SSTORE PUSH2 0x620 DUP4 ADD MLOAD PUSH1 0x31 DUP4 ADD SSTORE PUSH2 0x640 DUP4 ADD MLOAD PUSH1 0x32 DUP4 ADD SSTORE PUSH2 0x660 DUP4 ADD MLOAD PUSH1 0x33 DUP4 ADD SSTORE PUSH2 0x680 DUP4 ADD MLOAD PUSH1 0x34 SWAP1 SWAP3 ADD DUP1 SLOAD PUSH2 0x6A0 DUP6 ADD MLOAD PUSH2 0x6C0 DUP7 ADD MLOAD PUSH2 0x6E0 DUP8 ADD MLOAD PUSH2 0x700 DUP9 ADD MLOAD PUSH2 0x720 DUP10 ADD MLOAD PUSH2 0x740 DUP11 ADD MLOAD PUSH2 0x760 DUP12 ADD MLOAD PUSH2 0x780 SWAP1 SWAP12 ADD MLOAD PUSH2 0xFFFF NOT SWAP1 SWAP8 AND SWAP10 ISZERO ISZERO PUSH2 0xFF00 NOT AND SWAP10 SWAP1 SWAP10 OR SWAP5 ISZERO ISZERO SWAP1 SWAP8 MUL SWAP4 SWAP1 SWAP4 OR PUSH4 0xFFFF0000 NOT AND PUSH3 0x10000 SWAP3 ISZERO ISZERO SWAP3 SWAP1 SWAP3 MUL PUSH4 0xFF000000 NOT AND SWAP2 SWAP1 SWAP2 OR PUSH4 0x1000000 SWAP2 ISZERO ISZERO SWAP2 SWAP1 SWAP2 MUL OR PUSH6 0xFFFF00000000 NOT AND PUSH5 0x100000000 SWAP2 ISZERO ISZERO SWAP2 SWAP1 SWAP2 MUL PUSH6 0xFF0000000000 NOT AND OR PUSH1 0x1 PUSH1 0x28 SHL SWAP4 ISZERO ISZERO SWAP4 SWAP1 SWAP4 MUL SWAP3 SWAP1 SWAP3 OR PUSH8 0xFFFF000000000000 NOT AND PUSH1 0x1 PUSH1 0x30 SHL SWAP4 ISZERO ISZERO SWAP4 SWAP1 SWAP4 MUL PUSH1 0xFF PUSH1 0x38 SHL NOT AND SWAP3 SWAP1 SWAP3 OR PUSH1 0x1 PUSH1 0x38 SHL SWAP4 ISZERO ISZERO SWAP4 SWAP1 SWAP4 MUL SWAP3 SWAP1 SWAP3 OR PUSH1 0xFF PUSH1 0x40 SHL NOT AND PUSH1 0x1 PUSH1 0x40 SHL SWAP3 ISZERO ISZERO SWAP3 SWAP1 SWAP3 MUL SWAP2 SWAP1 SWAP2 OR SWAP1 SSTORE POP POP JUMP JUMPDEST PUSH1 0x0 PREVRANDAO DUP2 PUSH2 0x2D76 PUSH1 0x64 DUP4 PUSH2 0x4496 JUMP JUMPDEST POP SWAP1 SWAP3 SWAP2 POP POP JUMP JUMPDEST PUSH1 0x0 DUP1 PUSH2 0x2D89 PUSH2 0x2D67 JUMP JUMPDEST DUP4 MLOAD SWAP1 SWAP2 POP DUP4 PUSH2 0x2D99 DUP3 DUP5 PUSH2 0x4496 JUMP JUMPDEST DUP2 MLOAD DUP2 LT PUSH2 0x2DA9 JUMPI PUSH2 0x2DA9 PUSH2 0x4158 JUMP JUMPDEST PUSH1 0x20 MUL PUSH1 0x20 ADD ADD MLOAD SWAP3 POP POP POP SWAP2 SWAP1 POP JUMP JUMPDEST DUP2 PUSH1 0x1 PUSH1 0x1 PUSH1 0xA0 SHL SUB AND DUP4 PUSH1 0x1 PUSH1 0x1 PUSH1 0xA0 SHL SUB AND SUB PUSH2 0x2E1B JUMPI PUSH1 0x40 MLOAD PUSH3 0x461BCD PUSH1 0xE5 SHL DUP2 MSTORE PUSH1 0x20 PUSH1 0x4 DUP3 ADD MSTORE PUSH1 0x19 PUSH1 0x24 DUP3 ADD MSTORE PUSH32 0x4552433732313A20617070726F766520746F2063616C6C657200000000000000 PUSH1 0x44 DUP3 ADD MSTORE PUSH1 0x64 ADD PUSH2 0x638 JUMP JUMPDEST PUSH1 0x1 PUSH1 0x1 PUSH1 0xA0 SHL SUB DUP4 DUP2 AND PUSH1 0x0 DUP2 DUP2 MSTORE PUSH1 0x5 PUSH1 0x20 SWAP1 DUP2 MSTORE PUSH1 0x40 DUP1 DUP4 KECCAK256 SWAP5 DUP8 AND DUP1 DUP5 MSTORE SWAP5 DUP3 MSTORE SWAP2 DUP3 SWAP1 KECCAK256 DUP1 SLOAD PUSH1 0xFF NOT AND DUP7 ISZERO ISZERO SWAP1 DUP2 OR SWAP1 SWAP2 SSTORE SWAP2 MLOAD SWAP2 DUP3 MSTORE PUSH32 0x17307EAB39AB6107E8899845AD3D59BD9653F200F220920489CA2B5937696C31 SWAP2 ADD PUSH1 0x40 MLOAD DUP1 SWAP2 SUB SWAP1 LOG3 POP POP POP JUMP JUMPDEST PUSH2 0x2E93 DUP5 DUP5 DUP5 PUSH2 0x2865 JUMP JUMPDEST PUSH2 0x2E9F DUP5 DUP5 DUP5 DUP5 PUSH2 0x30AE JUMP JUMPDEST PUSH2 0x2171 JUMPI PUSH1 0x40 MLOAD PUSH3 0x461BCD PUSH1 0xE5 SHL DUP2 MSTORE PUSH1 0x4 ADD PUSH2 0x638 SWAP1 PUSH2 0x44AA JUMP JUMPDEST PUSH1 0x60 PUSH1 0x0 PUSH2 0x2EC8 DUP4 PUSH2 0x31AC JUMP JUMPDEST PUSH1 0x1 ADD SWAP1 POP PUSH1 0x0 DUP2 PUSH8 0xFFFFFFFFFFFFFFFF DUP2 GT ISZERO PUSH2 0x2EE8 JUMPI PUSH2 0x2EE8 PUSH2 0x3F43 JUMP JUMPDEST PUSH1 0x40 MLOAD SWAP1 DUP1 DUP3 MSTORE DUP1 PUSH1 0x1F ADD PUSH1 0x1F NOT AND PUSH1 0x20 ADD DUP3 ADD PUSH1 0x40 MSTORE DUP1 ISZERO PUSH2 0x2F12 JUMPI PUSH1 0x20 DUP3 ADD DUP2 DUP1 CALLDATASIZE DUP4 CALLDATACOPY ADD SWAP1 POP JUMPDEST POP SWAP1 POP DUP2 DUP2 ADD PUSH1 0x20 ADD JUMPDEST PUSH1 0x0 NOT ADD PUSH16 0x181899199A1A9B1B9C1CB0B131B232B3 PUSH1 0x81 SHL PUSH1 0xA DUP7 MOD BYTE DUP2 MSTORE8 PUSH1 0xA DUP6 DIV SWAP5 POP DUP5 PUSH2 0x2F1C JUMPI POP SWAP4 SWAP3 POP POP POP JUMP JUMPDEST PUSH1 0x1 DUP2 GT ISZERO PUSH2 0x2FBD JUMPI PUSH1 0x40 MLOAD PUSH3 0x461BCD PUSH1 0xE5 SHL DUP2 MSTORE PUSH1 0x20 PUSH1 0x4 DUP3 ADD MSTORE PUSH1 0x35 PUSH1 0x24 DUP3 ADD MSTORE PUSH32 0x455243373231456E756D657261626C653A20636F6E7365637574697665207472 PUSH1 0x44 DUP3 ADD MSTORE PUSH21 0x185B9CD9995C9CC81B9BDD081CDD5C1C1BDC9D1959 PUSH1 0x5A SHL PUSH1 0x64 DUP3 ADD MSTORE PUSH1 0x84 ADD PUSH2 0x638 JUMP JUMPDEST DUP2 PUSH1 0x1 PUSH1 0x1 PUSH1 0xA0 SHL SUB DUP6 AND PUSH2 0x3019 JUMPI PUSH2 0x3014 DUP2 PUSH1 0x8 DUP1 SLOAD PUSH1 0x0 DUP4 DUP2 MSTORE PUSH1 0x9 PUSH1 0x20 MSTORE PUSH1 0x40 DUP2 KECCAK256 DUP3 SWAP1 SSTORE PUSH1 0x1 DUP3 ADD DUP4 SSTORE SWAP2 SWAP1 SWAP2 MSTORE PUSH32 0xF3F7A9FE364FAAB93B216DA50A3214154F22A0A2B415B23A84C8169E8B636EE3 ADD SSTORE JUMP JUMPDEST PUSH2 0x303C JUMP JUMPDEST DUP4 PUSH1 0x1 PUSH1 0x1 PUSH1 0xA0 SHL SUB AND DUP6 PUSH1 0x1 PUSH1 0x1 PUSH1 0xA0 SHL SUB AND EQ PUSH2 0x303C JUMPI PUSH2 0x303C DUP6 DUP3 PUSH2 0x3284 JUMP JUMPDEST PUSH1 0x1 PUSH1 0x1 PUSH1 0xA0 SHL SUB DUP5 AND PUSH2 0x3058 JUMPI PUSH2 0x3053 DUP2 PUSH2 0x3321 JUMP JUMPDEST PUSH2 0x26B2 JUMP JUMPDEST DUP5 PUSH1 0x1 PUSH1 0x1 PUSH1 0xA0 SHL SUB AND DUP5 PUSH1 0x1 PUSH1 0x1 PUSH1 0xA0 SHL SUB AND EQ PUSH2 0x26B2 JUMPI PUSH2 0x26B2 DUP5 DUP3 PUSH2 0x33D0 JUMP JUMPDEST PUSH2 0x3085 DUP4 DUP4 PUSH2 0x3414 JUMP JUMPDEST PUSH2 0x3092 PUSH1 0x0 DUP5 DUP5 DUP5 PUSH2 0x30AE JUMP JUMPDEST PUSH2 0x6D9 JUMPI PUSH1 0x40 MLOAD PUSH3 0x461BCD PUSH1 0xE5 SHL DUP2 MSTORE PUSH1 0x4 ADD PUSH2 0x638 SWAP1 PUSH2 0x44AA JUMP JUMPDEST PUSH1 0x0 PUSH1 0x1 PUSH1 0x1 PUSH1 0xA0 SHL SUB DUP5 AND EXTCODESIZE ISZERO PUSH2 0x31A4 JUMPI PUSH1 0x40 MLOAD PUSH4 0xA85BD01 PUSH1 0xE1 SHL DUP2 MSTORE PUSH1 0x1 PUSH1 0x1 PUSH1 0xA0 SHL SUB DUP6 AND SWAP1 PUSH4 0x150B7A02 SWAP1 PUSH2 0x30F2 SWAP1 CALLER SWAP1 DUP10 SWAP1 DUP9 SWAP1 DUP9 SWAP1 PUSH1 0x4 ADD PUSH2 0x44FC JUMP JUMPDEST PUSH1 0x20 PUSH1 0x40 MLOAD DUP1 DUP4 SUB DUP2 PUSH1 0x0 DUP8 GAS CALL SWAP3 POP POP POP DUP1 ISZERO PUSH2 0x312D JUMPI POP PUSH1 0x40 DUP1 MLOAD PUSH1 0x1F RETURNDATASIZE SWAP1 DUP2 ADD PUSH1 0x1F NOT AND DUP3 ADD SWAP1 SWAP3 MSTORE PUSH2 0x312A SWAP2 DUP2 ADD SWAP1 PUSH2 0x4539 JUMP JUMPDEST PUSH1 0x1 JUMPDEST PUSH2 0x318A JUMPI RETURNDATASIZE DUP1 DUP1 ISZERO PUSH2 0x315B JUMPI PUSH1 0x40 MLOAD SWAP2 POP PUSH1 0x1F NOT PUSH1 0x3F RETURNDATASIZE ADD AND DUP3 ADD PUSH1 0x40 MSTORE RETURNDATASIZE DUP3 MSTORE RETURNDATASIZE PUSH1 0x0 PUSH1 0x20 DUP5 ADD RETURNDATACOPY PUSH2 0x3160 JUMP JUMPDEST PUSH1 0x60 SWAP2 POP JUMPDEST POP DUP1 MLOAD PUSH1 0x0 SUB PUSH2 0x3182 JUMPI PUSH1 0x40 MLOAD PUSH3 0x461BCD PUSH1 0xE5 SHL DUP2 MSTORE PUSH1 0x4 ADD PUSH2 0x638 SWAP1 PUSH2 0x44AA JUMP JUMPDEST DUP1 MLOAD DUP2 PUSH1 0x20 ADD REVERT JUMPDEST PUSH1 0x1 PUSH1 0x1 PUSH1 0xE0 SHL SUB NOT AND PUSH4 0xA85BD01 PUSH1 0xE1 SHL EQ SWAP1 POP PUSH2 0x1656 JUMP JUMPDEST POP PUSH1 0x1 PUSH2 0x1656 JUMP JUMPDEST PUSH1 0x0 DUP1 PUSH19 0x184F03E93FF9F4DAA797ED6E38ED64BF6A1F01 PUSH1 0x40 SHL DUP4 LT PUSH2 0x31EB JUMPI PUSH19 0x184F03E93FF9F4DAA797ED6E38ED64BF6A1F01 PUSH1 0x40 SHL DUP4 DIV SWAP3 POP PUSH1 0x40 ADD JUMPDEST PUSH14 0x4EE2D6D415B85ACEF8100000000 DUP4 LT PUSH2 0x3217 JUMPI PUSH14 0x4EE2D6D415B85ACEF8100000000 DUP4 DIV SWAP3 POP PUSH1 0x20 ADD JUMPDEST PUSH7 0x2386F26FC10000 DUP4 LT PUSH2 0x3235 JUMPI PUSH7 0x2386F26FC10000 DUP4 DIV SWAP3 POP PUSH1 0x10 ADD JUMPDEST PUSH4 0x5F5E100 DUP4 LT PUSH2 0x324D JUMPI PUSH4 0x5F5E100 DUP4 DIV SWAP3 POP PUSH1 0x8 ADD JUMPDEST PUSH2 0x2710 DUP4 LT PUSH2 0x3261 JUMPI PUSH2 0x2710 DUP4 DIV SWAP3 POP PUSH1 0x4 ADD JUMPDEST PUSH1 0x64 DUP4 LT PUSH2 0x3273 JUMPI PUSH1 0x64 DUP4 DIV SWAP3 POP PUSH1 0x2 ADD JUMPDEST PUSH1 0xA DUP4 LT PUSH2 0x505 JUMPI PUSH1 0x1 ADD SWAP3 SWAP2 POP POP JUMP JUMPDEST PUSH1 0x0 PUSH1 0x1 PUSH2 0x3291 DUP5 PUSH2 0xD68 JUMP JUMPDEST PUSH2 0x329B SWAP2 SWAP1 PUSH2 0x42C6 JUMP JUMPDEST PUSH1 0x0 DUP4 DUP2 MSTORE PUSH1 0x7 PUSH1 0x20 MSTORE PUSH1 0x40 SWAP1 KECCAK256 SLOAD SWAP1 SWAP2 POP DUP1 DUP3 EQ PUSH2 0x32EE JUMPI PUSH1 0x1 PUSH1 0x1 PUSH1 0xA0 SHL SUB DUP5 AND PUSH1 0x0 SWAP1 DUP2 MSTORE PUSH1 0x6 PUSH1 0x20 SWAP1 DUP2 MSTORE PUSH1 0x40 DUP1 DUP4 KECCAK256 DUP6 DUP5 MSTORE DUP3 MSTORE DUP1 DUP4 KECCAK256 SLOAD DUP5 DUP5 MSTORE DUP2 DUP5 KECCAK256 DUP2 SWAP1 SSTORE DUP4 MSTORE PUSH1 0x7 SWAP1 SWAP2 MSTORE SWAP1 KECCAK256 DUP2 SWAP1 SSTORE JUMPDEST POP PUSH1 0x0 SWAP2 DUP3 MSTORE PUSH1 0x7 PUSH1 0x20 SWAP1 DUP2 MSTORE PUSH1 0x40 DUP1 DUP5 KECCAK256 DUP5 SWAP1 SSTORE PUSH1 0x1 PUSH1 0x1 PUSH1 0xA0 SHL SUB SWAP1 SWAP5 AND DUP4 MSTORE PUSH1 0x6 DUP2 MSTORE DUP4 DUP4 KECCAK256 SWAP2 DUP4 MSTORE MSTORE SWAP1 DUP2 KECCAK256 SSTORE JUMP JUMPDEST PUSH1 0x8 SLOAD PUSH1 0x0 SWAP1 PUSH2 0x3333 SWAP1 PUSH1 0x1 SWAP1 PUSH2 0x42C6 JUMP JUMPDEST PUSH1 0x0 DUP4 DUP2 MSTORE PUSH1 0x9 PUSH1 0x20 MSTORE PUSH1 0x40 DUP2 KECCAK256 SLOAD PUSH1 0x8 DUP1 SLOAD SWAP4 SWAP5 POP SWAP1 SWAP3 DUP5 SWAP1 DUP2 LT PUSH2 0x335B JUMPI PUSH2 0x335B PUSH2 0x4158 JUMP JUMPDEST SWAP1 PUSH1 0x0 MSTORE PUSH1 0x20 PUSH1 0x0 KECCAK256 ADD SLOAD SWAP1 POP DUP1 PUSH1 0x8 DUP4 DUP2 SLOAD DUP2 LT PUSH2 0x337C JUMPI PUSH2 0x337C PUSH2 0x4158 JUMP JUMPDEST PUSH1 0x0 SWAP2 DUP3 MSTORE PUSH1 0x20 DUP1 DUP4 KECCAK256 SWAP1 SWAP2 ADD SWAP3 SWAP1 SWAP3 SSTORE DUP3 DUP2 MSTORE PUSH1 0x9 SWAP1 SWAP2 MSTORE PUSH1 0x40 DUP1 DUP3 KECCAK256 DUP5 SWAP1 SSTORE DUP6 DUP3 MSTORE DUP2 KECCAK256 SSTORE PUSH1 0x8 DUP1 SLOAD DUP1 PUSH2 0x33B4 JUMPI PUSH2 0x33B4 PUSH2 0x4556 JUMP JUMPDEST PUSH1 0x1 SWAP1 SUB DUP2 DUP2 SWAP1 PUSH1 0x0 MSTORE PUSH1 0x20 PUSH1 0x0 KECCAK256 ADD PUSH1 0x0 SWAP1 SSTORE SWAP1 SSTORE POP POP POP POP JUMP JUMPDEST PUSH1 0x0 PUSH2 0x33DB DUP4 PUSH2 0xD68 JUMP JUMPDEST PUSH1 0x1 PUSH1 0x1 PUSH1 0xA0 SHL SUB SWAP1 SWAP4 AND PUSH1 0x0 SWAP1 DUP2 MSTORE PUSH1 0x6 PUSH1 0x20 SWAP1 DUP2 MSTORE PUSH1 0x40 DUP1 DUP4 KECCAK256 DUP7 DUP5 MSTORE DUP3 MSTORE DUP1 DUP4 KECCAK256 DUP6 SWAP1 SSTORE SWAP4 DUP3 MSTORE PUSH1 0x7 SWAP1 MSTORE SWAP2 SWAP1 SWAP2 KECCAK256 SWAP2 SWAP1 SWAP2 SSTORE POP JUMP JUMPDEST PUSH1 0x1 PUSH1 0x1 PUSH1 0xA0 SHL SUB DUP3 AND PUSH2 0x346A JUMPI PUSH1 0x40 MLOAD PUSH3 0x461BCD PUSH1 0xE5 SHL DUP2 MSTORE PUSH1 0x20 PUSH1 0x4 DUP3 ADD DUP2 SWAP1 MSTORE PUSH1 0x24 DUP3 ADD MSTORE PUSH32 0x4552433732313A206D696E7420746F20746865207A65726F2061646472657373 PUSH1 0x44 DUP3 ADD MSTORE PUSH1 0x64 ADD PUSH2 0x638 JUMP JUMPDEST PUSH2 0x3473 DUP2 PUSH2 0x27CA JUMP JUMPDEST ISZERO PUSH2 0x34C0 JUMPI PUSH1 0x40 MLOAD PUSH3 0x461BCD PUSH1 0xE5 SHL DUP2 MSTORE PUSH1 0x20 PUSH1 0x4 DUP3 ADD MSTORE PUSH1 0x1C PUSH1 0x24 DUP3 ADD MSTORE PUSH32 0x4552433732313A20746F6B656E20616C7265616479206D696E74656400000000 PUSH1 0x44 DUP3 ADD MSTORE PUSH1 0x64 ADD PUSH2 0x638 JUMP JUMPDEST PUSH2 0x34CE PUSH1 0x0 DUP4 DUP4 PUSH1 0x1 PUSH2 0x2F4E JUMP JUMPDEST PUSH2 0x34D7 DUP2 PUSH2 0x27CA JUMP JUMPDEST ISZERO PUSH2 0x3524 JUMPI PUSH1 0x40 MLOAD PUSH3 0x461BCD PUSH1 0xE5 SHL DUP2 MSTORE PUSH1 0x20 PUSH1 0x4 DUP3 ADD MSTORE PUSH1 0x1C PUSH1 0x24 DUP3 ADD MSTORE PUSH32 0x4552433732313A20746F6B656E20616C7265616479206D696E74656400000000 PUSH1 0x44 DUP3 ADD MSTORE PUSH1 0x64 ADD PUSH2 0x638 JUMP JUMPDEST PUSH1 0x1 PUSH1 0x1 PUSH1 0xA0 SHL SUB DUP3 AND PUSH1 0x0 DUP2 DUP2 MSTORE PUSH1 0x3 PUSH1 0x20 SWAP1 DUP2 MSTORE PUSH1 0x40 DUP1 DUP4 KECCAK256 DUP1 SLOAD PUSH1 0x1 ADD SWAP1 SSTORE DUP5 DUP4 MSTORE PUSH1 0x2 SWAP1 SWAP2 MSTORE DUP1 DUP3 KECCAK256 DUP1 SLOAD PUSH1 0x1 PUSH1 0x1 PUSH1 0xA0 SHL SUB NOT AND DUP5 OR SWAP1 SSTORE MLOAD DUP4 SWAP3 SWAP2 SWAP1 PUSH32 0xDDF252AD1BE2C89B69C2B068FC378DAA952BA7F163C4A11628F55A4DF523B3EF SWAP1 DUP3 SWAP1 LOG4 POP POP JUMP JUMPDEST PUSH1 0x40 MLOAD DUP1 PUSH2 0x7A0 ADD PUSH1 0x40 MSTORE DUP1 PUSH1 0x60 DUP2 MSTORE PUSH1 0x20 ADD PUSH1 0x0 DUP2 MSTORE PUSH1 0x20 ADD PUSH1 0x0 DUP2 MSTORE PUSH1 0x20 ADD PUSH1 0x0 DUP2 MSTORE PUSH1 0x20 ADD PUSH1 0x0 DUP2 MSTORE PUSH1 0x20 ADD PUSH1 0x0 DUP2 MSTORE PUSH1 0x20 ADD PUSH1 0x0 DUP2 MSTORE PUSH1 0x20 ADD PUSH1 0x0 DUP2 MSTORE PUSH1 0x20 ADD PUSH1 0x0 DUP2 MSTORE PUSH1 0x20 ADD PUSH1 0x0 DUP2 MSTORE PUSH1 0x20 ADD PUSH1 0x0 DUP2 MSTORE PUSH1 0x20 ADD PUSH1 0x0 DUP2 MSTORE PUSH1 0x20 ADD PUSH1 0x0 DUP2 MSTORE PUSH1 0x20 ADD PUSH1 0x0 DUP2 MSTORE PUSH1 0x20 ADD PUSH1 0x0 DUP2 MSTORE PUSH1 0x20 ADD PUSH1 0x0 DUP2 MSTORE PUSH1 0x20 ADD PUSH1 0x0 DUP2 MSTORE PUSH1 0x20 ADD PUSH1 0x0 DUP2 MSTORE PUSH1 0x20 ADD PUSH1 0x0 DUP2 MSTORE PUSH1 0x20 ADD PUSH1 0x0 DUP2 MSTORE PUSH1 0x20 ADD PUSH1 0x0 DUP2 MSTORE PUSH1 0x20 ADD PUSH1 0x0 DUP2 MSTORE PUSH1 0x20 ADD PUSH1 0x0 DUP2 MSTORE PUSH1 0x20 ADD PUSH1 0x0 DUP2 MSTORE PUSH1 0x20 ADD PUSH1 0x0 DUP2 MSTORE PUSH1 0x20 ADD PUSH1 0x0 DUP2 MSTORE PUSH1 0x20 ADD PUSH1 0x0 DUP2 MSTORE PUSH1 0x20 ADD PUSH1 0x0 DUP2 MSTORE PUSH1 0x20 ADD PUSH1 0x0 DUP2 MSTORE PUSH1 0x20 ADD PUSH1 0x0 DUP2 MSTORE PUSH1 0x20 ADD PUSH1 0x0 DUP2 MSTORE PUSH1 0x20 ADD PUSH1 0x0 DUP2 MSTORE PUSH1 0x20 ADD PUSH1 0x0 DUP2 MSTORE PUSH1 0x20 ADD PUSH1 0x0 DUP2 MSTORE PUSH1 0x20 ADD PUSH1 0x0 DUP2 MSTORE PUSH1 0x20 ADD PUSH1 0x0 DUP2 MSTORE PUSH1 0x20 ADD PUSH1 0x0 DUP2 MSTORE PUSH1 0x20 ADD PUSH1 0x0 DUP2 MSTORE PUSH1 0x20 ADD PUSH1 0x0 DUP2 MSTORE PUSH1 0x20 ADD PUSH1 0x0 DUP2 MSTORE PUSH1 0x20 ADD PUSH1 0x0 DUP2 MSTORE PUSH1 0x20 ADD PUSH1 0x0 DUP2 MSTORE PUSH1 0x20 ADD PUSH1 0x0 DUP2 MSTORE PUSH1 0x20 ADD PUSH1 0x0 DUP2 MSTORE PUSH1 0x20 ADD PUSH1 0x0 DUP2 MSTORE PUSH1 0x20 ADD PUSH1 0x0 DUP2 MSTORE PUSH1 0x20 ADD PUSH1 0x0 DUP2 MSTORE PUSH1 0x20 ADD PUSH1 0x0 DUP2 MSTORE PUSH1 0x20 ADD PUSH1 0x0 DUP2 MSTORE PUSH1 0x20 ADD PUSH1 0x0 DUP2 MSTORE PUSH1 0x20 ADD PUSH1 0x0 DUP2 MSTORE PUSH1 0x20 ADD PUSH1 0x0 DUP2 MSTORE PUSH1 0x20 ADD PUSH1 0x0 ISZERO ISZERO DUP2 MSTORE PUSH1 0x20 ADD PUSH1 0x0 ISZERO ISZERO DUP2 MSTORE PUSH1 0x20 ADD PUSH1 0x0 ISZERO ISZERO DUP2 MSTORE PUSH1 0x20 ADD PUSH1 0x0 ISZERO ISZERO DUP2 MSTORE PUSH1 0x20 ADD PUSH1 0x0 ISZERO ISZERO DUP2 MSTORE PUSH1 0x20 ADD PUSH1 0x0 ISZERO ISZERO DUP2 MSTORE PUSH1 0x20 ADD PUSH1 0x0 ISZERO ISZERO DUP2 MSTORE PUSH1 0x20 ADD PUSH1 0x0 ISZERO ISZERO DUP2 MSTORE PUSH1 0x20 ADD PUSH1 0x0 ISZERO ISZERO DUP2 MSTORE POP SWAP1 JUMP JUMPDEST PUSH1 0x40 MLOAD DUP1 PUSH1 0x40 ADD PUSH1 0x40 MSTORE DUP1 PUSH1 0x2 SWAP1 PUSH1 0x20 DUP3 MUL DUP1 CALLDATASIZE DUP4 CALLDATACOPY POP SWAP2 SWAP3 SWAP2 POP POP JUMP JUMPDEST DUP3 DUP1 SLOAD DUP3 DUP3 SSTORE SWAP1 PUSH1 0x0 MSTORE PUSH1 0x20 PUSH1 0x0 KECCAK256 SWAP1 DUP2 ADD SWAP3 DUP3 ISZERO PUSH2 0x37B2 JUMPI SWAP2 PUSH1 0x20 MUL DUP3 ADD JUMPDEST DUP3 DUP2 GT ISZERO PUSH2 0x37B2 JUMPI DUP3 MLOAD DUP3 SSTORE SWAP2 PUSH1 0x20 ADD SWAP2 SWAP1 PUSH1 0x1 ADD SWAP1 PUSH2 0x3797 JUMP JUMPDEST POP PUSH2 0x37BE SWAP3 SWAP2 POP PUSH2 0x37C2 JUMP JUMPDEST POP SWAP1 JUMP JUMPDEST JUMPDEST DUP1 DUP3 GT ISZERO PUSH2 0x37BE JUMPI PUSH1 0x0 DUP2 SSTORE PUSH1 0x1 ADD PUSH2 0x37C3 JUMP JUMPDEST PUSH1 0x1 PUSH1 0x1 PUSH1 0xE0 SHL SUB NOT DUP2 AND DUP2 EQ PUSH2 0x2759 JUMPI PUSH1 0x0 DUP1 REVERT JUMPDEST PUSH1 0x0 PUSH1 0x20 DUP3 DUP5 SUB SLT ISZERO PUSH2 0x37FF JUMPI PUSH1 0x0 DUP1 REVERT JUMPDEST DUP2 CALLDATALOAD PUSH2 0x1EE4 DUP2 PUSH2 0x37D7 JUMP JUMPDEST PUSH1 0x0 JUMPDEST DUP4 DUP2 LT ISZERO PUSH2 0x3825 JUMPI DUP2 DUP2 ADD MLOAD DUP4 DUP3 ADD MSTORE PUSH1 0x20 ADD PUSH2 0x380D JUMP JUMPDEST POP POP PUSH1 0x0 SWAP2 ADD MSTORE JUMP JUMPDEST PUSH1 0x0 DUP2 MLOAD DUP1 DUP5 MSTORE PUSH2 0x3846 DUP2 PUSH1 0x20 DUP7 ADD PUSH1 0x20 DUP7 ADD PUSH2 0x380A JUMP JUMPDEST PUSH1 0x1F ADD PUSH1 0x1F NOT AND SWAP3 SWAP1 SWAP3 ADD PUSH1 0x20 ADD SWAP3 SWAP2 POP POP JUMP JUMPDEST PUSH1 0x20 DUP2 MSTORE PUSH1 0x0 PUSH2 0x1EE4 PUSH1 0x20 DUP4 ADD DUP5 PUSH2 0x382E JUMP JUMPDEST PUSH1 0x0 PUSH1 0x20 DUP3 DUP5 SUB SLT ISZERO PUSH2 0x387F JUMPI PUSH1 0x0 DUP1 REVERT JUMPDEST POP CALLDATALOAD SWAP2 SWAP1 POP JUMP JUMPDEST DUP1 CALLDATALOAD PUSH1 0x1 PUSH1 0x1 PUSH1 0xA0 SHL SUB DUP2 AND DUP2 EQ PUSH2 0x389D JUMPI PUSH1 0x0 DUP1 REVERT JUMPDEST SWAP2 SWAP1 POP JUMP JUMPDEST PUSH1 0x0 DUP1 PUSH1 0x40 DUP4 DUP6 SUB SLT ISZERO PUSH2 0x38B5 JUMPI PUSH1 0x0 DUP1 REVERT JUMPDEST PUSH2 0x38BE DUP4 PUSH2 0x3886 JUMP JUMPDEST SWAP5 PUSH1 0x20 SWAP4 SWAP1 SWAP4 ADD CALLDATALOAD SWAP4 POP POP POP JUMP JUMPDEST PUSH1 0x20 DUP2 MSTORE PUSH1 0x0 DUP3 MLOAD PUSH2 0x7A0 DUP1 PUSH1 0x20 DUP6 ADD MSTORE PUSH2 0x38EB PUSH2 0x7C0 DUP6 ADD DUP4 PUSH2 0x382E JUMP JUMPDEST PUSH1 0x20 DUP7 ADD MLOAD PUSH1 0x40 DUP7 DUP2 ADD SWAP2 SWAP1 SWAP2 MSTORE DUP7 ADD MLOAD PUSH1 0x60 DUP1 DUP8 ADD SWAP2 SWAP1 SWAP2 MSTORE DUP7 ADD MLOAD PUSH1 0x80 DUP1 DUP8 ADD SWAP2 SWAP1 SWAP2 MSTORE DUP7 ADD MLOAD PUSH1 0xA0 DUP1 DUP8 ADD SWAP2 SWAP1 SWAP2 MSTORE DUP7 ADD MLOAD PUSH1 0xC0 DUP1 DUP8 ADD SWAP2 SWAP1 SWAP2 MSTORE DUP7 ADD MLOAD PUSH1 0xE0 DUP1 DUP8 ADD SWAP2 SWAP1 SWAP2 MSTORE DUP7 ADD MLOAD PUSH2 0x100 DUP1 DUP8 ADD SWAP2 SWAP1 SWAP2 MSTORE DUP7 ADD MLOAD PUSH2 0x120 DUP1 DUP8 ADD SWAP2 SWAP1 SWAP2 MSTORE DUP7 ADD MLOAD PUSH2 0x140 DUP1 DUP8 ADD SWAP2 SWAP1 SWAP2 MSTORE DUP7 ADD MLOAD PUSH2 0x160 DUP1 DUP8 ADD SWAP2 SWAP1 SWAP2 MSTORE DUP7 ADD MLOAD PUSH2 0x180 DUP1 DUP8 ADD SWAP2 SWAP1 SWAP2 MSTORE DUP7 ADD MLOAD PUSH2 0x1A0 DUP1 DUP8 ADD SWAP2 SWAP1 SWAP2 MSTORE DUP7 ADD MLOAD PUSH2 0x1C0 DUP1 DUP8 ADD SWAP2 SWAP1 SWAP2 MSTORE DUP7 ADD MLOAD PUSH2 0x1E0 DUP1 DUP8 ADD SWAP2 SWAP1 SWAP2 MSTORE DUP7 ADD MLOAD PUSH2 0x200 DUP1 DUP8 ADD SWAP2 SWAP1 SWAP2 MSTORE DUP7 ADD MLOAD PUSH2 0x220 DUP1 DUP8 ADD SWAP2 SWAP1 SWAP2 MSTORE DUP7 ADD MLOAD PUSH2 0x240 DUP1 DUP8 ADD SWAP2 SWAP1 SWAP2 MSTORE DUP7 ADD MLOAD PUSH2 0x260 DUP1 DUP8 ADD SWAP2 SWAP1 SWAP2 MSTORE DUP7 ADD MLOAD PUSH2 0x280 DUP1 DUP8 ADD SWAP2 SWAP1 SWAP2 MSTORE DUP7 ADD MLOAD PUSH2 0x2A0 DUP1 DUP8 ADD SWAP2 SWAP1 SWAP2 MSTORE DUP7 ADD MLOAD PUSH2 0x2C0 DUP1 DUP8 ADD SWAP2 SWAP1 SWAP2 MSTORE DUP7 ADD MLOAD PUSH2 0x2E0 DUP1 DUP8 ADD SWAP2 SWAP1 SWAP2 MSTORE DUP7 ADD MLOAD PUSH2 0x300 DUP1 DUP8 ADD SWAP2 SWAP1 SWAP2 MSTORE DUP7 ADD MLOAD PUSH2 0x320 DUP1 DUP8 ADD SWAP2 SWAP1 SWAP2 MSTORE DUP7 ADD MLOAD PUSH2 0x340 DUP1 DUP8 ADD SWAP2 SWAP1 SWAP2 MSTORE DUP7 ADD MLOAD PUSH2 0x360 DUP1 DUP8 ADD SWAP2 SWAP1 SWAP2 MSTORE DUP7 ADD MLOAD PUSH2 0x380 DUP1 DUP8 ADD SWAP2 SWAP1 SWAP2 MSTORE DUP7 ADD MLOAD PUSH2 0x3A0 DUP1 DUP8 ADD SWAP2 SWAP1 SWAP2 MSTORE DUP7 ADD MLOAD PUSH2 0x3C0 DUP1 DUP8 ADD SWAP2 SWAP1 SWAP2 MSTORE DUP7 ADD MLOAD PUSH2 0x3E0 DUP1 DUP8 ADD SWAP2 SWAP1 SWAP2 MSTORE DUP7 ADD MLOAD PUSH2 0x400 DUP1 DUP8 ADD SWAP2 SWAP1 SWAP2 MSTORE DUP7 ADD MLOAD PUSH2 0x420 DUP1 DUP8 ADD SWAP2 SWAP1 SWAP2 MSTORE DUP7 ADD MLOAD PUSH2 0x440 DUP1 DUP8 ADD SWAP2 SWAP1 SWAP2 MSTORE DUP7 ADD MLOAD PUSH2 0x460 DUP1 DUP8 ADD SWAP2 SWAP1 SWAP2 MSTORE DUP7 ADD MLOAD PUSH2 0x480 DUP1 DUP8 ADD SWAP2 SWAP1 SWAP2 MSTORE DUP7 ADD MLOAD PUSH2 0x4A0 DUP1 DUP8 ADD SWAP2 SWAP1 SWAP2 MSTORE DUP7 ADD MLOAD PUSH2 0x4C0 DUP1 DUP8 ADD SWAP2 SWAP1 SWAP2 MSTORE DUP7 ADD MLOAD PUSH2 0x4E0 DUP1 DUP8 ADD SWAP2 SWAP1 SWAP2 MSTORE DUP7 ADD MLOAD PUSH2 0x500 DUP1 DUP8 ADD SWAP2 SWAP1 SWAP2 MSTORE DUP7 ADD MLOAD PUSH2 0x520 DUP1 DUP8 ADD SWAP2 SWAP1 SWAP2 MSTORE DUP7 ADD MLOAD PUSH2 0x540 DUP1 DUP8 ADD SWAP2 SWAP1 SWAP2 MSTORE DUP7 ADD MLOAD PUSH2 0x560 DUP1 DUP8 ADD SWAP2 SWAP1 SWAP2 MSTORE DUP7 ADD MLOAD PUSH2 0x580 DUP1 DUP8 ADD SWAP2 SWAP1 SWAP2 MSTORE DUP7 ADD MLOAD PUSH2 0x5A0 DUP1 DUP8 ADD SWAP2 SWAP1 SWAP2 MSTORE DUP7 ADD MLOAD PUSH2 0x5C0 DUP1 DUP8 ADD SWAP2 SWAP1 SWAP2 MSTORE DUP7 ADD MLOAD PUSH2 0x5E0 DUP1 DUP8 ADD SWAP2 SWAP1 SWAP2 MSTORE DUP7 ADD MLOAD PUSH2 0x600 DUP1 DUP8 ADD SWAP2 SWAP1 SWAP2 MSTORE DUP7 ADD MLOAD PUSH2 0x620 DUP1 DUP8 ADD SWAP2 SWAP1 SWAP2 MSTORE DUP7 ADD MLOAD PUSH2 0x640 DUP1 DUP8 ADD SWAP2 SWAP1 SWAP2 MSTORE DUP7 ADD MLOAD PUSH2 0x660 DUP1 DUP8 ADD SWAP2 SWAP1 SWAP2 MSTORE DUP7 ADD MLOAD PUSH2 0x680 DUP1 DUP8 ADD SWAP2 SWAP1 SWAP2 MSTORE DUP7 ADD MLOAD SWAP1 SWAP3 POP PUSH2 0x6A0 PUSH2 0x3B94 DUP2 DUP8 ADD DUP4 ISZERO ISZERO SWAP1 MSTORE JUMP JUMPDEST DUP7 ADD MLOAD SWAP1 POP PUSH2 0x6C0 PUSH2 0x3BA9 DUP7 DUP3 ADD DUP4 ISZERO ISZERO SWAP1 MSTORE JUMP JUMPDEST DUP7 ADD MLOAD SWAP1 POP PUSH2 0x6E0 PUSH2 0x3BBE DUP7 DUP3 ADD DUP4 ISZERO ISZERO SWAP1 MSTORE JUMP JUMPDEST DUP7 ADD MLOAD SWAP1 POP PUSH2 0x700 PUSH2 0x3BD3 DUP7 DUP3 ADD DUP4 ISZERO ISZERO SWAP1 MSTORE JUMP JUMPDEST DUP7 ADD MLOAD SWAP1 POP PUSH2 0x720 PUSH2 0x3BE8 DUP7 DUP3 ADD DUP4 ISZERO ISZERO SWAP1 MSTORE JUMP JUMPDEST DUP7 ADD MLOAD SWAP1 POP PUSH2 0x740 PUSH2 0x3BFD DUP7 DUP3 ADD DUP4 ISZERO ISZERO SWAP1 MSTORE JUMP JUMPDEST DUP7 ADD MLOAD SWAP1 POP PUSH2 0x760 PUSH2 0x3C12 DUP7 DUP3 ADD DUP4 ISZERO ISZERO SWAP1 MSTORE JUMP JUMPDEST DUP7 ADD MLOAD SWAP1 POP PUSH2 0x780 PUSH2 0x3C27 DUP7 DUP3 ADD DUP4 ISZERO ISZERO SWAP1 MSTORE JUMP JUMPDEST SWAP1 SWAP6 ADD MLOAD ISZERO ISZERO SWAP4 ADD SWAP3 SWAP1 SWAP3 MSTORE POP SWAP2 SWAP1 POP JUMP JUMPDEST PUSH1 0x0 DUP1 PUSH1 0x0 PUSH1 0x60 DUP5 DUP7 SUB SLT ISZERO PUSH2 0x3C4E JUMPI PUSH1 0x0 DUP1 REVERT JUMPDEST PUSH2 0x3C57 DUP5 PUSH2 0x3886 JUMP JUMPDEST SWAP3 POP PUSH2 0x3C65 PUSH1 0x20 DUP6 ADD PUSH2 0x3886 JUMP JUMPDEST SWAP2 POP PUSH1 0x40 DUP5 ADD CALLDATALOAD SWAP1 POP SWAP3 POP SWAP3 POP SWAP3 JUMP JUMPDEST PUSH1 0x20 DUP1 DUP3 MSTORE DUP3 MLOAD DUP3 DUP3 ADD DUP2 SWAP1 MSTORE PUSH1 0x0 SWAP2 SWAP1 PUSH1 0x40 SWAP1 DUP2 DUP6 ADD SWAP1 DUP7 DUP5 ADD DUP6 DUP1 JUMPDEST DUP4 DUP2 LT ISZERO PUSH2 0x3CD0 JUMPI DUP3 MLOAD DUP6 DUP4 JUMPDEST PUSH1 0x2 DUP2 LT ISZERO PUSH2 0x3CBD JUMPI DUP3 MLOAD DUP3 MSTORE SWAP2 DUP10 ADD SWAP2 SWAP1 DUP10 ADD SWAP1 PUSH1 0x1 ADD PUSH2 0x3CA0 JUMP JUMPDEST POP POP POP SWAP4 DUP6 ADD SWAP4 SWAP2 DUP7 ADD SWAP2 PUSH1 0x1 ADD PUSH2 0x3C93 JUMP JUMPDEST POP SWAP3 SWAP9 SWAP8 POP POP POP POP POP POP POP POP JUMP JUMPDEST PUSH1 0x0 PUSH1 0x20 DUP3 DUP5 SUB SLT ISZERO PUSH2 0x3CF0 JUMPI PUSH1 0x0 DUP1 REVERT JUMPDEST PUSH2 0x1EE4 DUP3 PUSH2 0x3886 JUMP JUMPDEST PUSH1 0x0 DUP1 PUSH1 0x0 DUP1 PUSH2 0x7A0 DUP1 DUP7 DUP9 SUB SLT ISZERO PUSH2 0x3D11 JUMPI PUSH1 0x0 DUP1 REVERT JUMPDEST DUP6 CALLDATALOAD PUSH8 0xFFFFFFFFFFFFFFFF DUP1 DUP3 GT ISZERO PUSH2 0x3D29 JUMPI PUSH1 0x0 DUP1 REVERT JUMPDEST DUP2 DUP9 ADD SWAP2 POP DUP9 PUSH1 0x1F DUP4 ADD SLT PUSH2 0x3D3D JUMPI PUSH1 0x0 DUP1 REVERT JUMPDEST DUP2 CALLDATALOAD DUP2 DUP2 GT ISZERO PUSH2 0x3D4C JUMPI PUSH1 0x0 DUP1 REVERT JUMPDEST DUP10 PUSH1 0x20 DUP3 DUP6 ADD ADD GT ISZERO PUSH2 0x3D5E JUMPI PUSH1 0x0 DUP1 REVERT JUMPDEST PUSH1 0x20 DUP4 ADD SWAP8 POP DUP1 SWAP7 POP POP POP POP PUSH2 0x680 DUP7 ADD DUP8 DUP2 GT ISZERO PUSH2 0x3D7C JUMPI PUSH1 0x0 DUP1 REVERT JUMPDEST PUSH1 0x20 DUP8 ADD SWAP4 POP DUP8 DUP3 DUP9 ADD GT ISZERO PUSH2 0x3D91 JUMPI PUSH1 0x0 DUP1 REVERT JUMPDEST SWAP5 SWAP8 SWAP4 SWAP7 POP SWAP2 SWAP5 POP POP POP JUMP JUMPDEST PUSH1 0x0 DUP1 PUSH1 0x40 DUP4 DUP6 SUB SLT ISZERO PUSH2 0x3DB0 JUMPI PUSH1 0x0 DUP1 REVERT JUMPDEST POP POP DUP1 CALLDATALOAD SWAP3 PUSH1 0x20 SWAP1 SWAP2 ADD CALLDATALOAD SWAP2 POP JUMP JUMPDEST DUP1 CALLDATALOAD DUP1 ISZERO ISZERO DUP2 EQ PUSH2 0x389D JUMPI PUSH1 0x0 DUP1 REVERT JUMPDEST PUSH1 0x0 DUP1 PUSH1 0x40 DUP4 DUP6 SUB SLT ISZERO PUSH2 0x3DE2 JUMPI PUSH1 0x0 DUP1 REVERT JUMPDEST PUSH2 0x3DEB DUP4 PUSH2 0x3886 JUMP JUMPDEST SWAP2 POP PUSH2 0x3DF9 PUSH1 0x20 DUP5 ADD PUSH2 0x3DBF JUMP JUMPDEST SWAP1 POP SWAP3 POP SWAP3 SWAP1 POP JUMP JUMPDEST DUP1 PUSH1 0x80 DUP2 ADD DUP4 LT ISZERO PUSH2 0x505 JUMPI PUSH1 0x0 DUP1 REVERT JUMPDEST PUSH1 0x0 DUP1 DUP4 PUSH1 0x1F DUP5 ADD SLT PUSH2 0x3E25 JUMPI PUSH1 0x0 DUP1 REVERT JUMPDEST POP DUP2 CALLDATALOAD PUSH8 0xFFFFFFFFFFFFFFFF DUP2 GT ISZERO PUSH2 0x3E3D JUMPI PUSH1 0x0 DUP1 REVERT JUMPDEST PUSH1 0x20 DUP4 ADD SWAP2 POP DUP4 PUSH1 0x20 DUP3 PUSH1 0x5 SHL DUP6 ADD ADD GT ISZERO PUSH2 0x3E58 JUMPI PUSH1 0x0 DUP1 REVERT JUMPDEST SWAP3 POP SWAP3 SWAP1 POP JUMP JUMPDEST PUSH1 0x0 DUP1 PUSH1 0x0 DUP1 PUSH1 0x0 DUP1 PUSH1 0x0 DUP1 PUSH1 0x0 DUP1 PUSH2 0x120 DUP12 DUP14 SUB SLT ISZERO PUSH2 0x3E7F JUMPI PUSH1 0x0 DUP1 REVERT JUMPDEST DUP11 CALLDATALOAD SWAP10 POP PUSH2 0x3E90 DUP13 PUSH1 0x20 DUP14 ADD PUSH2 0x3E02 JUMP JUMPDEST SWAP9 POP PUSH1 0xA0 DUP12 ADD CALLDATALOAD PUSH8 0xFFFFFFFFFFFFFFFF DUP1 DUP3 GT ISZERO PUSH2 0x3EAD JUMPI PUSH1 0x0 DUP1 REVERT JUMPDEST PUSH2 0x3EB9 DUP15 DUP4 DUP16 ADD PUSH2 0x3E13 JUMP JUMPDEST SWAP1 SWAP11 POP SWAP9 POP PUSH1 0xC0 DUP14 ADD CALLDATALOAD SWAP2 POP DUP1 DUP3 GT ISZERO PUSH2 0x3ED2 JUMPI PUSH1 0x0 DUP1 REVERT JUMPDEST PUSH2 0x3EDE DUP15 DUP4 DUP16 ADD PUSH2 0x3E13 JUMP JUMPDEST SWAP1 SWAP9 POP SWAP7 POP PUSH1 0xE0 DUP14 ADD CALLDATALOAD SWAP2 POP DUP1 DUP3 GT ISZERO PUSH2 0x3EF7 JUMPI PUSH1 0x0 DUP1 REVERT JUMPDEST PUSH2 0x3F03 DUP15 DUP4 DUP16 ADD PUSH2 0x3E13 JUMP JUMPDEST SWAP1 SWAP7 POP SWAP5 POP PUSH2 0x100 DUP14 ADD CALLDATALOAD SWAP2 POP DUP1 DUP3 GT ISZERO PUSH2 0x3F1D JUMPI PUSH1 0x0 DUP1 REVERT JUMPDEST POP PUSH2 0x3F2A DUP14 DUP3 DUP15 ADD PUSH2 0x3E13 JUMP JUMPDEST SWAP2 POP DUP1 SWAP4 POP POP DUP1 SWAP2 POP POP SWAP3 SWAP6 SWAP9 SWAP12 SWAP2 SWAP5 SWAP8 SWAP11 POP SWAP3 SWAP6 SWAP9 POP JUMP JUMPDEST PUSH4 0x4E487B71 PUSH1 0xE0 SHL PUSH1 0x0 MSTORE PUSH1 0x41 PUSH1 0x4 MSTORE PUSH1 0x24 PUSH1 0x0 REVERT JUMPDEST PUSH1 0x0 DUP1 PUSH1 0x0 DUP1 PUSH1 0x80 DUP6 DUP8 SUB SLT ISZERO PUSH2 0x3F6F JUMPI PUSH1 0x0 DUP1 REVERT JUMPDEST PUSH2 0x3F78 DUP6 PUSH2 0x3886 JUMP JUMPDEST SWAP4 POP PUSH2 0x3F86 PUSH1 0x20 DUP7 ADD PUSH2 0x3886 JUMP JUMPDEST SWAP3 POP PUSH1 0x40 DUP6 ADD CALLDATALOAD SWAP2 POP PUSH1 0x60 DUP6 ADD CALLDATALOAD PUSH8 0xFFFFFFFFFFFFFFFF DUP1 DUP3 GT ISZERO PUSH2 0x3FAA JUMPI PUSH1 0x0 DUP1 REVERT JUMPDEST DUP2 DUP8 ADD SWAP2 POP DUP8 PUSH1 0x1F DUP4 ADD SLT PUSH2 0x3FBE JUMPI PUSH1 0x0 DUP1 REVERT JUMPDEST DUP2 CALLDATALOAD DUP2 DUP2 GT ISZERO PUSH2 0x3FD0 JUMPI PUSH2 0x3FD0 PUSH2 0x3F43 JUMP JUMPDEST PUSH1 0x40 MLOAD PUSH1 0x1F DUP3 ADD PUSH1 0x1F NOT SWAP1 DUP2 AND PUSH1 0x3F ADD AND DUP2 ADD SWAP1 DUP4 DUP3 GT DUP2 DUP4 LT OR ISZERO PUSH2 0x3FF8 JUMPI PUSH2 0x3FF8 PUSH2 0x3F43 JUMP JUMPDEST DUP2 PUSH1 0x40 MSTORE DUP3 DUP2 MSTORE DUP11 PUSH1 0x20 DUP5 DUP8 ADD ADD GT ISZERO PUSH2 0x4011 JUMPI PUSH1 0x0 DUP1 REVERT JUMPDEST DUP3 PUSH1 0x20 DUP7 ADD PUSH1 0x20 DUP4 ADD CALLDATACOPY PUSH1 0x0 PUSH1 0x20 DUP5 DUP4 ADD ADD MSTORE DUP1 SWAP6 POP POP POP POP POP POP SWAP3 SWAP6 SWAP2 SWAP5 POP SWAP3 POP JUMP JUMPDEST PUSH1 0x20 DUP1 DUP3 MSTORE DUP3 MLOAD DUP3 DUP3 ADD DUP2 SWAP1 MSTORE PUSH1 0x0 SWAP2 SWAP1 DUP5 DUP3 ADD SWAP1 PUSH1 0x40 DUP6 ADD SWAP1 DUP5 JUMPDEST DUP2 DUP2 LT ISZERO PUSH2 0x406D JUMPI DUP4 MLOAD DUP4 MSTORE SWAP3 DUP5 ADD SWAP3 SWAP2 DUP5 ADD SWAP2 PUSH1 0x1 ADD PUSH2 0x4051 JUMP JUMPDEST POP SWAP1 SWAP7 SWAP6 POP POP POP POP POP POP JUMP JUMPDEST PUSH1 0x0 DUP1 PUSH1 0x40 DUP4 DUP6 SUB SLT ISZERO PUSH2 0x408C JUMPI PUSH1 0x0 DUP1 REVERT JUMPDEST PUSH2 0x4095 DUP4 PUSH2 0x3886 JUMP JUMPDEST SWAP2 POP PUSH2 0x3DF9 PUSH1 0x20 DUP5 ADD PUSH2 0x3886 JUMP JUMPDEST PUSH1 0x1 DUP2 DUP2 SHR SWAP1 DUP3 AND DUP1 PUSH2 0x40B7 JUMPI PUSH1 0x7F DUP3 AND SWAP2 POP JUMPDEST PUSH1 0x20 DUP3 LT DUP2 SUB PUSH2 0x40D7 JUMPI PUSH4 0x4E487B71 PUSH1 0xE0 SHL PUSH1 0x0 MSTORE PUSH1 0x22 PUSH1 0x4 MSTORE PUSH1 0x24 PUSH1 0x0 REVERT JUMPDEST POP SWAP2 SWAP1 POP JUMP JUMPDEST PUSH1 0x20 DUP1 DUP3 MSTORE PUSH1 0x14 SWAP1 DUP3 ADD MSTORE PUSH20 0x151BDAD95B88191BD95CC81B9BDD08195E1A5CDD PUSH1 0x62 SHL PUSH1 0x40 DUP3 ADD MSTORE PUSH1 0x60 ADD SWAP1 JUMP JUMPDEST PUSH1 0x20 DUP1 DUP3 MSTORE PUSH1 0x2D SWAP1 DUP3 ADD MSTORE PUSH32 0x4552433732313A2063616C6C6572206973206E6F7420746F6B656E206F776E65 PUSH1 0x40 DUP3 ADD MSTORE PUSH13 0x1C881BDC88185C1C1C9BDD9959 PUSH1 0x9A SHL PUSH1 0x60 DUP3 ADD MSTORE PUSH1 0x80 ADD SWAP1 JUMP JUMPDEST PUSH4 0x4E487B71 PUSH1 0xE0 SHL PUSH1 0x0 MSTORE PUSH1 0x32 PUSH1 0x4 MSTORE PUSH1 0x24 PUSH1 0x0 REVERT JUMPDEST PUSH4 0x4E487B71 PUSH1 0xE0 SHL PUSH1 0x0 MSTORE PUSH1 0x11 PUSH1 0x4 MSTORE PUSH1 0x24 PUSH1 0x0 REVERT JUMPDEST PUSH1 0x0 PUSH1 0x1 DUP3 ADD PUSH2 0x4196 JUMPI PUSH2 0x4196 PUSH2 0x416E JUMP JUMPDEST POP PUSH1 0x1 ADD SWAP1 JUMP JUMPDEST PUSH1 0x0 PUSH1 0x20 DUP3 DUP5 SUB SLT ISZERO PUSH2 0x41AF JUMPI PUSH1 0x0 DUP1 REVERT JUMPDEST PUSH2 0x1EE4 DUP3 PUSH2 0x3DBF JUMP JUMPDEST PUSH1 0x1F DUP3 GT ISZERO PUSH2 0x6D9 JUMPI PUSH1 0x0 DUP2 DUP2 MSTORE PUSH1 0x20 DUP2 KECCAK256 PUSH1 0x1F DUP6 ADD PUSH1 0x5 SHR DUP2 ADD PUSH1 0x20 DUP7 LT ISZERO PUSH2 0x41DF JUMPI POP DUP1 JUMPDEST PUSH1 0x1F DUP6 ADD PUSH1 0x5 SHR DUP3 ADD SWAP2 POP JUMPDEST DUP2 DUP2 LT ISZERO PUSH2 0x41FE JUMPI DUP3 DUP2 SSTORE PUSH1 0x1 ADD PUSH2 0x41EB JUMP JUMPDEST POP POP POP POP POP POP JUMP JUMPDEST DUP2 MLOAD PUSH8 0xFFFFFFFFFFFFFFFF DUP2 GT ISZERO PUSH2 0x4220 JUMPI PUSH2 0x4220 PUSH2 0x3F43 JUMP JUMPDEST PUSH2 0x4234 DUP2 PUSH2 0x422E DUP5 SLOAD PUSH2 0x40A3 JUMP JUMPDEST DUP5 PUSH2 0x41B8 JUMP JUMPDEST PUSH1 0x20 DUP1 PUSH1 0x1F DUP4 GT PUSH1 0x1 DUP2 EQ PUSH2 0x4269 JUMPI PUSH1 0x0 DUP5 ISZERO PUSH2 0x4251 JUMPI POP DUP6 DUP4 ADD MLOAD JUMPDEST PUSH1 0x0 NOT PUSH1 0x3 DUP7 SWAP1 SHL SHR NOT AND PUSH1 0x1 DUP6 SWAP1 SHL OR DUP6 SSTORE PUSH2 0x41FE JUMP JUMPDEST PUSH1 0x0 DUP6 DUP2 MSTORE PUSH1 0x20 DUP2 KECCAK256 PUSH1 0x1F NOT DUP7 AND SWAP2 JUMPDEST DUP3 DUP2 LT ISZERO PUSH2 0x4298 JUMPI DUP9 DUP7 ADD MLOAD DUP3 SSTORE SWAP5 DUP5 ADD SWAP5 PUSH1 0x1 SWAP1 SWAP2 ADD SWAP1 DUP5 ADD PUSH2 0x4279 JUMP JUMPDEST POP DUP6 DUP3 LT ISZERO PUSH2 0x42B6 JUMPI DUP8 DUP6 ADD MLOAD PUSH1 0x0 NOT PUSH1 0x3 DUP9 SWAP1 SHL PUSH1 0xF8 AND SHR NOT AND DUP2 SSTORE JUMPDEST POP POP POP POP POP PUSH1 0x1 SWAP1 DUP2 SHL ADD SWAP1 SSTORE POP JUMP JUMPDEST DUP2 DUP2 SUB DUP2 DUP2 GT ISZERO PUSH2 0x505 JUMPI PUSH2 0x505 PUSH2 0x416E JUMP JUMPDEST DUP4 DUP2 MSTORE PUSH1 0x40 PUSH1 0x20 DUP3 ADD MSTORE DUP2 PUSH1 0x40 DUP3 ADD MSTORE DUP2 DUP4 PUSH1 0x60 DUP4 ADD CALLDATACOPY PUSH1 0x0 DUP2 DUP4 ADD PUSH1 0x60 SWAP1 DUP2 ADD SWAP2 SWAP1 SWAP2 MSTORE PUSH1 0x1F SWAP1 SWAP3 ADD PUSH1 0x1F NOT AND ADD ADD SWAP3 SWAP2 POP POP JUMP JUMPDEST DUP5 DUP2 MSTORE PUSH1 0x0 PUSH1 0x20 DUP6 DUP2 DUP5 ADD MSTORE PUSH1 0x1 DUP1 PUSH1 0xA0 SHL SUB DUP6 AND PUSH1 0x40 DUP5 ADD MSTORE PUSH1 0x80 PUSH1 0x60 DUP5 ADD MSTORE PUSH1 0x0 DUP5 SLOAD PUSH2 0x433D DUP2 PUSH2 0x40A3 JUMP JUMPDEST DUP1 PUSH1 0x80 DUP8 ADD MSTORE PUSH1 0xA0 PUSH1 0x1 DUP1 DUP5 AND PUSH1 0x0 DUP2 EQ PUSH2 0x435F JUMPI PUSH1 0x1 DUP2 EQ PUSH2 0x4379 JUMPI PUSH2 0x43A7 JUMP JUMPDEST PUSH1 0xFF NOT DUP6 AND DUP10 DUP5 ADD MSTORE DUP4 ISZERO ISZERO PUSH1 0x5 SHL DUP10 ADD DUP4 ADD SWAP6 POP PUSH2 0x43A7 JUMP JUMPDEST DUP10 PUSH1 0x0 MSTORE DUP7 PUSH1 0x0 KECCAK256 PUSH1 0x0 JUMPDEST DUP6 DUP2 LT ISZERO PUSH2 0x439F JUMPI DUP2 SLOAD DUP12 DUP3 ADD DUP7 ADD MSTORE SWAP1 DUP4 ADD SWAP1 DUP9 ADD PUSH2 0x4384 JUMP JUMPDEST DUP11 ADD DUP5 ADD SWAP7 POP POP JUMPDEST POP SWAP4 SWAP12 SWAP11 POP POP POP POP POP POP POP POP POP POP POP JUMP JUMPDEST PUSH4 0x4E487B71 PUSH1 0xE0 SHL PUSH1 0x0 MSTORE PUSH1 0x1 PUSH1 0x4 MSTORE PUSH1 0x24 PUSH1 0x0 REVERT JUMPDEST PUSH1 0x0 DUP4 MLOAD PUSH2 0x43E0 DUP2 DUP5 PUSH1 0x20 DUP9 ADD PUSH2 0x380A JUMP JUMPDEST DUP4 MLOAD SWAP1 DUP4 ADD SWAP1 PUSH2 0x43F4 DUP2 DUP4 PUSH1 0x20 DUP9 ADD PUSH2 0x380A JUMP JUMPDEST ADD SWAP5 SWAP4 POP POP POP POP JUMP JUMPDEST DUP1 DUP3 MUL DUP2 ISZERO DUP3 DUP3 DIV DUP5 EQ OR PUSH2 0x505 JUMPI PUSH2 0x505 PUSH2 0x416E JUMP JUMPDEST PUSH4 0x4E487B71 PUSH1 0xE0 SHL PUSH1 0x0 MSTORE PUSH1 0x12 PUSH1 0x4 MSTORE PUSH1 0x24 PUSH1 0x0 REVERT JUMPDEST PUSH1 0x0 DUP3 PUSH2 0x4439 JUMPI PUSH2 0x4439 PUSH2 0x4414 JUMP JUMPDEST POP DIV SWAP1 JUMP JUMPDEST DUP1 DUP3 ADD DUP1 DUP3 GT ISZERO PUSH2 0x505 JUMPI PUSH2 0x505 PUSH2 0x416E JUMP JUMPDEST PUSH1 0x20 DUP1 DUP3 MSTORE PUSH1 0x25 SWAP1 DUP3 ADD MSTORE PUSH32 0x4552433732313A207472616E736665722066726F6D20696E636F727265637420 PUSH1 0x40 DUP3 ADD MSTORE PUSH5 0x37BBB732B9 PUSH1 0xD9 SHL PUSH1 0x60 DUP3 ADD MSTORE PUSH1 0x80 ADD SWAP1 JUMP JUMPDEST PUSH1 0x0 DUP3 PUSH2 0x44A5 JUMPI PUSH2 0x44A5 PUSH2 0x4414 JUMP JUMPDEST POP MOD SWAP1 JUMP JUMPDEST PUSH1 0x20 DUP1 DUP3 MSTORE PUSH1 0x32 SWAP1 DUP3 ADD MSTORE PUSH32 0x4552433732313A207472616E7366657220746F206E6F6E204552433732315265 PUSH1 0x40 DUP3 ADD MSTORE PUSH18 0x31B2B4BB32B91034B6B83632B6B2B73A32B9 PUSH1 0x71 SHL PUSH1 0x60 DUP3 ADD MSTORE PUSH1 0x80 ADD SWAP1 JUMP JUMPDEST PUSH1 0x1 PUSH1 0x1 PUSH1 0xA0 SHL SUB DUP6 DUP2 AND DUP3 MSTORE DUP5 AND PUSH1 0x20 DUP3 ADD MSTORE PUSH1 0x40 DUP2 ADD DUP4 SWAP1 MSTORE PUSH1 0x80 PUSH1 0x60 DUP3 ADD DUP2 SWAP1 MSTORE PUSH1 0x0 SWAP1 PUSH2 0x452F SWAP1 DUP4 ADD DUP5 PUSH2 0x382E JUMP JUMPDEST SWAP7 SWAP6 POP POP POP POP POP POP JUMP JUMPDEST PUSH1 0x0 PUSH1 0x20 DUP3 DUP5 SUB SLT ISZERO PUSH2 0x454B JUMPI PUSH1 0x0 DUP1 REVERT JUMPDEST DUP2 MLOAD PUSH2 0x1EE4 DUP2 PUSH2 0x37D7 JUMP JUMPDEST PUSH4 0x4E487B71 PUSH1 0xE0 SHL PUSH1 0x0 MSTORE PUSH1 0x31 PUSH1 0x4 MSTORE PUSH1 0x24 PUSH1 0x0 REVERT INVALID LOG2 PUSH5 0x6970667358 0x22 SLT KECCAK256 SWAP12 0x24 EXP NUMBER DUP9 ADDMOD 0xCC SMOD 0xE4 PUSH16 0x9B9E2076C2941A73034CBD14491F6CAD PUSH18 0x7C47CF709A64736F6C634300081300330000 "
		},
		"gasEstimates": {
			"creation": {
				"codeDepositCost": "3565200",
				"executionCost": "infinite",
				"totalCost": "infinite"
			},
			"external": {
				"approve(address,uint256)": "infinite",
				"balanceOf(address)": "2656",
				"boxDropList(uint256)": "11070",
				"buyItemFromShop(uint256,uint256)": "infinite",
				"createItem(string,uint256[51],bool[9])": "infinite",
				"dropBox(uint256)": "infinite",
				"getApproved(uint256)": "4851",
				"getFighterItems(address,uint256)": "infinite",
				"getTokenAttributes(uint256)": "infinite",
				"getUserItems(address)": "infinite",
				"isApprovedForAll(address,address)": "infinite",
				"itemName(uint256)": "infinite",
				"mintBox(address,uint256)": "infinite",
				"name()": "infinite",
				"owner()": "2427",
				"ownerOf(uint256)": "2583",
				"safeAdd(uint256,uint256)": "502",
				"safeMul(uint256,uint256)": "631",
				"safeSub(uint256,uint256)": "506",
				"safeTransferFrom(address,address,uint256)": "infinite",
				"safeTransferFrom(address,address,uint256,bytes)": "infinite",
				"setApprovalForAll(address,bool)": "infinite",
				"setBoxDrop(uint256,uint256[4],uint256[],uint256[],uint256[],uint256[])": "infinite",
				"supportsInterface(bytes4)": "infinite",
				"symbol()": "infinite",
				"tokenByIndex(uint256)": "6805",
				"tokenOfOwnerByIndex(address,uint256)": "4976",
				"tokenURI(uint256)": "infinite",
				"totalSupply()": "2349",
				"transferFrom(address,address,uint256)": "infinite"
			},
			"internal": {
				"_setTokenAttributes(uint256,struct Items.ItemAttributes memory)": "infinite",
				"getRandomNumber()": "92",
				"max(uint256,uint256)": "infinite",
				"min(uint256,uint256)": "infinite",
				"returnRandomItemFromDropList(uint256[] memory)": "infinite"
			}
		},
		"methodIdentifiers": {
			"approve(address,uint256)": "095ea7b3",
			"balanceOf(address)": "70a08231",
			"boxDropList(uint256)": "f10bbe18",
			"buyItemFromShop(uint256,uint256)": "7f46914f",
			"createItem(string,uint256[51],bool[9])": "75023ca8",
			"dropBox(uint256)": "88feaacc",
			"getApproved(uint256)": "081812fc",
			"getFighterItems(address,uint256)": "513c1452",
			"getTokenAttributes(uint256)": "1f4f5a23",
			"getUserItems(address)": "ce6019b4",
			"isApprovedForAll(address,address)": "e985e9c5",
			"itemName(uint256)": "7310dc8a",
			"mintBox(address,uint256)": "fb5d7f10",
			"name()": "06fdde03",
			"owner()": "8da5cb5b",
			"ownerOf(uint256)": "6352211e",
			"safeAdd(uint256,uint256)": "e6cb9013",
			"safeMul(uint256,uint256)": "d05c78da",
			"safeSub(uint256,uint256)": "a293d1e8",
			"safeTransferFrom(address,address,uint256)": "42842e0e",
			"safeTransferFrom(address,address,uint256,bytes)": "b88d4fde",
			"setApprovalForAll(address,bool)": "a22cb465",
			"setBoxDrop(uint256,uint256[4],uint256[],uint256[],uint256[],uint256[])": "b4148054",
			"supportsInterface(bytes4)": "01ffc9a7",
			"symbol()": "95d89b41",
			"tokenByIndex(uint256)": "4f6ccce7",
			"tokenOfOwnerByIndex(address,uint256)": "2f745c59",
			"tokenURI(uint256)": "c87b56dd",
			"totalSupply()": "18160ddd",
			"transferFrom(address,address,uint256)": "23b872dd"
		}
	},
	"abi": [
		{
			"inputs": [],
			"stateMutability": "nonpayable",
			"type": "constructor"
		},
		{
			"anonymous": false,
			"inputs": [
				{
					"indexed": true,
					"internalType": "address",
					"name": "owner",
					"type": "address"
				},
				{
					"indexed": true,
					"internalType": "address",
					"name": "approved",
					"type": "address"
				},
				{
					"indexed": true,
					"internalType": "uint256",
					"name": "tokenId",
					"type": "uint256"
				}
			],
			"name": "Approval",
			"type": "event"
		},
		{
			"anonymous": false,
			"inputs": [
				{
					"indexed": true,
					"internalType": "address",
					"name": "owner",
					"type": "address"
				},
				{
					"indexed": true,
					"internalType": "address",
					"name": "operator",
					"type": "address"
				},
				{
					"indexed": false,
					"internalType": "bool",
					"name": "approved",
					"type": "bool"
				}
			],
			"name": "ApprovalForAll",
			"type": "event"
		},
		{
			"anonymous": false,
			"inputs": [
				{
					"indexed": false,
					"internalType": "uint256",
					"name": "level",
					"type": "uint256"
				},
				{
					"indexed": false,
					"internalType": "uint256",
					"name": "weaponsDropRate",
					"type": "uint256"
				},
				{
					"indexed": false,
					"internalType": "uint256",
					"name": "armourDropRate",
					"type": "uint256"
				},
				{
					"indexed": false,
					"internalType": "uint256",
					"name": "jewelsDropRate",
					"type": "uint256"
				},
				{
					"indexed": false,
					"internalType": "uint256",
					"name": "miscDropRate",
					"type": "uint256"
				}
			],
			"name": "BoxDropUpdated",
			"type": "event"
		},
		{
			"anonymous": false,
			"inputs": [
				{
					"indexed": false,
					"internalType": "address",
					"name": "owner",
					"type": "address"
				},
				{
					"indexed": false,
					"internalType": "uint256",
					"name": "tokenId",
					"type": "uint256"
				}
			],
			"name": "BoxDropped",
			"type": "event"
		},
		{
			"anonymous": false,
			"inputs": [
				{
					"indexed": false,
					"internalType": "uint256",
					"name": "tokenId",
					"type": "uint256"
				},
				{
					"indexed": false,
					"internalType": "uint256",
					"name": "itemId",
					"type": "uint256"
				},
				{
					"indexed": false,
					"internalType": "address",
					"name": "owner",
					"type": "address"
				},
				{
					"indexed": false,
					"internalType": "string",
					"name": "itemName",
					"type": "string"
				}
			],
			"name": "ItemBoughtFromShop",
			"type": "event"
		},
		{
			"anonymous": false,
			"inputs": [
				{
					"indexed": false,
					"internalType": "uint256",
					"name": "itemId",
					"type": "uint256"
				},
				{
					"indexed": false,
					"internalType": "string",
					"name": "name",
					"type": "string"
				}
			],
			"name": "ItemGenerated",
			"type": "event"
		},
		{
			"anonymous": false,
			"inputs": [
				{
					"indexed": false,
					"internalType": "uint8",
					"name": "",
					"type": "uint8"
				},
				{
					"indexed": false,
					"internalType": "uint256",
					"name": "",
					"type": "uint256"
				}
			],
			"name": "LogError",
			"type": "event"
		},
		{
			"anonymous": false,
			"inputs": [
				{
					"indexed": true,
					"internalType": "address",
					"name": "from",
					"type": "address"
				},
				{
					"indexed": true,
					"internalType": "address",
					"name": "to",
					"type": "address"
				},
				{
					"indexed": true,
					"internalType": "uint256",
					"name": "tokenId",
					"type": "uint256"
				}
			],
			"name": "Transfer",
			"type": "event"
		},
		{
			"inputs": [
				{
					"internalType": "address",
					"name": "to",
					"type": "address"
				},
				{
					"internalType": "uint256",
					"name": "tokenId",
					"type": "uint256"
				}
			],
			"name": "approve",
			"outputs": [],
			"stateMutability": "nonpayable",
			"type": "function"
		},
		{
			"inputs": [
				{
					"internalType": "address",
					"name": "owner",
					"type": "address"
				}
			],
			"name": "balanceOf",
			"outputs": [
				{
					"internalType": "uint256",
					"name": "",
					"type": "uint256"
				}
			],
			"stateMutability": "view",
			"type": "function"
		},
		{
			"inputs": [
				{
					"internalType": "uint256",
					"name": "",
					"type": "uint256"
				}
			],
			"name": "boxDropList",
			"outputs": [
				{
					"internalType": "uint256",
					"name": "level",
					"type": "uint256"
				},
				{
					"internalType": "uint256",
					"name": "weaponsDropRate",
					"type": "uint256"
				},
				{
					"internalType": "uint256",
					"name": "armourDropRate",
					"type": "uint256"
				},
				{
					"internalType": "uint256",
					"name": "jewelsDropRate",
					"type": "uint256"
				},
				{
					"internalType": "uint256",
					"name": "miscDropRate",
					"type": "uint256"
				}
			],
			"stateMutability": "view",
			"type": "function"
		},
		{
			"inputs": [
				{
					"internalType": "uint256",
					"name": "itemId",
					"type": "uint256"
				},
				{
					"internalType": "uint256",
					"name": "fighterId",
					"type": "uint256"
				}
			],
			"name": "buyItemFromShop",
			"outputs": [],
			"stateMutability": "nonpayable",
			"type": "function"
		},
		{
			"inputs": [
				{
					"internalType": "string",
					"name": "name",
					"type": "string"
				},
				{
					"internalType": "uint256[51]",
					"name": "uintValues",
					"type": "uint256[51]"
				},
				{
					"internalType": "bool[9]",
					"name": "boolValues",
					"type": "bool[9]"
				}
			],
			"name": "createItem",
			"outputs": [
				{
					"internalType": "uint256",
					"name": "tokenId",
					"type": "uint256"
				}
			],
			"stateMutability": "nonpayable",
			"type": "function"
		},
		{
			"inputs": [
				{
					"internalType": "uint256",
					"name": "tokenId",
					"type": "uint256"
				}
			],
			"name": "dropBox",
			"outputs": [
				{
					"internalType": "uint256",
					"name": "",
					"type": "uint256"
				}
			],
			"stateMutability": "nonpayable",
			"type": "function"
		},
		{
			"inputs": [
				{
					"internalType": "uint256",
					"name": "tokenId",
					"type": "uint256"
				}
			],
			"name": "getApproved",
			"outputs": [
				{
					"internalType": "address",
					"name": "",
					"type": "address"
				}
			],
			"stateMutability": "view",
			"type": "function"
		},
		{
			"inputs": [
				{
					"internalType": "address",
					"name": "userAddress",
					"type": "address"
				},
				{
					"internalType": "uint256",
					"name": "fighterId",
					"type": "uint256"
				}
			],
			"name": "getFighterItems",
			"outputs": [
				{
					"internalType": "uint256[2][]",
					"name": "",
					"type": "uint256[2][]"
				}
			],
			"stateMutability": "view",
			"type": "function"
		},
		{
			"inputs": [
				{
					"internalType": "uint256",
					"name": "tokenId",
					"type": "uint256"
				}
			],
			"name": "getTokenAttributes",
			"outputs": [
				{
					"components": [
						{
							"internalType": "string",
							"name": "name",
							"type": "string"
						},
						{
							"internalType": "uint256",
							"name": "tokenId",
							"type": "uint256"
						},
						{
							"internalType": "uint256",
							"name": "itemLevel",
							"type": "uint256"
						},
						{
							"internalType": "uint256",
							"name": "maxLevel",
							"type": "uint256"
						},
						{
							"internalType": "uint256",
							"name": "durability",
							"type": "uint256"
						},
						{
							"internalType": "uint256",
							"name": "classRequired",
							"type": "uint256"
						},
						{
							"internalType": "uint256",
							"name": "strengthRequired",
							"type": "uint256"
						},
						{
							"internalType": "uint256",
							"name": "agilityRequired",
							"type": "uint256"
						},
						{
							"internalType": "uint256",
							"name": "energyRequired",
							"type": "uint256"
						},
						{
							"internalType": "uint256",
							"name": "vitalityRequired",
							"type": "uint256"
						},
						{
							"internalType": "uint256",
							"name": "itemWidth",
							"type": "uint256"
						},
						{
							"internalType": "uint256",
							"name": "itemHeight",
							"type": "uint256"
						},
						{
							"internalType": "uint256",
							"name": "acceptableSlot1",
							"type": "uint256"
						},
						{
							"internalType": "uint256",
							"name": "acceptableSlot2",
							"type": "uint256"
						},
						{
							"internalType": "uint256",
							"name": "physicalDamage",
							"type": "uint256"
						},
						{
							"internalType": "uint256",
							"name": "magicDamage",
							"type": "uint256"
						},
						{
							"internalType": "uint256",
							"name": "defense",
							"type": "uint256"
						},
						{
							"internalType": "uint256",
							"name": "attackSpeed",
							"type": "uint256"
						},
						{
							"internalType": "uint256",
							"name": "defenseSuccessRate",
							"type": "uint256"
						},
						{
							"internalType": "uint256",
							"name": "additionalDamage",
							"type": "uint256"
						},
						{
							"internalType": "uint256",
							"name": "additionalDefense",
							"type": "uint256"
						},
						{
							"internalType": "uint256",
							"name": "increasedExperienceGain",
							"type": "uint256"
						},
						{
							"internalType": "uint256",
							"name": "damageIncrease",
							"type": "uint256"
						},
						{
							"internalType": "uint256",
							"name": "defenseSuccessRateIncrease",
							"type": "uint256"
						},
						{
							"internalType": "uint256",
							"name": "lifeAfterMonsterIncrease",
							"type": "uint256"
						},
						{
							"internalType": "uint256",
							"name": "manaAfterMonsterIncrease",
							"type": "uint256"
						},
						{
							"internalType": "uint256",
							"name": "zenAfterMonsterIncrease",
							"type": "uint256"
						},
						{
							"internalType": "uint256",
							"name": "doubleDamageProbabilityIncrease",
							"type": "uint256"
						},
						{
							"internalType": "uint256",
							"name": "excellentDamageProbabilityIncrease",
							"type": "uint256"
						},
						{
							"internalType": "uint256",
							"name": "ignoreOpponentsDefenseRateIncrease",
							"type": "uint256"
						},
						{
							"internalType": "uint256",
							"name": "reflectDamage",
							"type": "uint256"
						},
						{
							"internalType": "uint256",
							"name": "maxLifeIncrease",
							"type": "uint256"
						},
						{
							"internalType": "uint256",
							"name": "maxManaIncrease",
							"type": "uint256"
						},
						{
							"internalType": "uint256",
							"name": "excellentDamageRateIncrease",
							"type": "uint256"
						},
						{
							"internalType": "uint256",
							"name": "doubleDamageRateIncrease",
							"type": "uint256"
						},
						{
							"internalType": "uint256",
							"name": "ignoreOpponentsDefenseSuccessRateIncrease",
							"type": "uint256"
						},
						{
							"internalType": "uint256",
							"name": "attackDamageIncrease",
							"type": "uint256"
						},
						{
							"internalType": "uint256",
							"name": "defenseSuccessRateIncreaseAncient",
							"type": "uint256"
						},
						{
							"internalType": "uint256",
							"name": "reflectDamageRateIncrease",
							"type": "uint256"
						},
						{
							"internalType": "uint256",
							"name": "decreaseDamageRateIncrease",
							"type": "uint256"
						},
						{
							"internalType": "uint256",
							"name": "hpRecoveryRateIncrease",
							"type": "uint256"
						},
						{
							"internalType": "uint256",
							"name": "mpRecoveryRateIncrease",
							"type": "uint256"
						},
						{
							"internalType": "uint256",
							"name": "hpIncrease",
							"type": "uint256"
						},
						{
							"internalType": "uint256",
							"name": "mpIncrease",
							"type": "uint256"
						},
						{
							"internalType": "uint256",
							"name": "increaseDefenseRate",
							"type": "uint256"
						},
						{
							"internalType": "uint256",
							"name": "increaseStrength",
							"type": "uint256"
						},
						{
							"internalType": "uint256",
							"name": "increaseAgility",
							"type": "uint256"
						},
						{
							"internalType": "uint256",
							"name": "increaseEnergy",
							"type": "uint256"
						},
						{
							"internalType": "uint256",
							"name": "increaseVitality",
							"type": "uint256"
						},
						{
							"internalType": "uint256",
							"name": "attackSpeedIncrease",
							"type": "uint256"
						},
						{
							"internalType": "uint256",
							"name": "fighterId",
							"type": "uint256"
						},
						{
							"internalType": "uint256",
							"name": "lastUpdBlock",
							"type": "uint256"
						},
						{
							"internalType": "bool",
							"name": "luck",
							"type": "bool"
						},
						{
							"internalType": "bool",
							"name": "skill",
							"type": "bool"
						},
						{
							"internalType": "bool",
							"name": "isBox",
							"type": "bool"
						},
						{
							"internalType": "bool",
							"name": "isWeapon",
							"type": "bool"
						},
						{
							"internalType": "bool",
							"name": "isArmour",
							"type": "bool"
						},
						{
							"internalType": "bool",
							"name": "isJewel",
							"type": "bool"
						},
						{
							"internalType": "bool",
							"name": "isMisc",
							"type": "bool"
						},
						{
							"internalType": "bool",
							"name": "isConsumable",
							"type": "bool"
						},
						{
							"internalType": "bool",
							"name": "inShop",
							"type": "bool"
						}
					],
					"internalType": "struct Items.ItemAttributes",
					"name": "",
					"type": "tuple"
				}
			],
			"stateMutability": "view",
			"type": "function"
		},
		{
			"inputs": [
				{
					"internalType": "address",
					"name": "userAddress",
					"type": "address"
				}
			],
			"name": "getUserItems",
			"outputs": [
				{
					"internalType": "uint256[]",
					"name": "",
					"type": "uint256[]"
				}
			],
			"stateMutability": "view",
			"type": "function"
		},
		{
			"inputs": [
				{
					"internalType": "address",
					"name": "owner",
					"type": "address"
				},
				{
					"internalType": "address",
					"name": "operator",
					"type": "address"
				}
			],
			"name": "isApprovedForAll",
			"outputs": [
				{
					"internalType": "bool",
					"name": "",
					"type": "bool"
				}
			],
			"stateMutability": "view",
			"type": "function"
		},
		{
			"inputs": [
				{
					"internalType": "uint256",
					"name": "",
					"type": "uint256"
				}
			],
			"name": "itemName",
			"outputs": [
				{
					"internalType": "string",
					"name": "",
					"type": "string"
				}
			],
			"stateMutability": "view",
			"type": "function"
		},
		{
			"inputs": [
				{
					"internalType": "address",
					"name": "winner",
					"type": "address"
				},
				{
					"internalType": "uint256",
					"name": "opponentLevel",
					"type": "uint256"
				}
			],
			"name": "mintBox",
			"outputs": [],
			"stateMutability": "nonpayable",
			"type": "function"
		},
		{
			"inputs": [],
			"name": "name",
			"outputs": [
				{
					"internalType": "string",
					"name": "",
					"type": "string"
				}
			],
			"stateMutability": "view",
			"type": "function"
		},
		{
			"inputs": [],
			"name": "owner",
			"outputs": [
				{
					"internalType": "address",
					"name": "",
					"type": "address"
				}
			],
			"stateMutability": "view",
			"type": "function"
		},
		{
			"inputs": [
				{
					"internalType": "uint256",
					"name": "tokenId",
					"type": "uint256"
				}
			],
			"name": "ownerOf",
			"outputs": [
				{
					"internalType": "address",
					"name": "",
					"type": "address"
				}
			],
			"stateMutability": "view",
			"type": "function"
		},
		{
			"inputs": [
				{
					"internalType": "uint256",
					"name": "a",
					"type": "uint256"
				},
				{
					"internalType": "uint256",
					"name": "b",
					"type": "uint256"
				}
			],
			"name": "safeAdd",
			"outputs": [
				{
					"internalType": "uint256",
					"name": "",
					"type": "uint256"
				}
			],
			"stateMutability": "nonpayable",
			"type": "function"
		},
		{
			"inputs": [
				{
					"internalType": "uint256",
					"name": "a",
					"type": "uint256"
				},
				{
					"internalType": "uint256",
					"name": "b",
					"type": "uint256"
				}
			],
			"name": "safeMul",
			"outputs": [
				{
					"internalType": "uint256",
					"name": "",
					"type": "uint256"
				}
			],
			"stateMutability": "nonpayable",
			"type": "function"
		},
		{
			"inputs": [
				{
					"internalType": "uint256",
					"name": "a",
					"type": "uint256"
				},
				{
					"internalType": "uint256",
					"name": "b",
					"type": "uint256"
				}
			],
			"name": "safeSub",
			"outputs": [
				{
					"internalType": "uint256",
					"name": "",
					"type": "uint256"
				}
			],
			"stateMutability": "nonpayable",
			"type": "function"
		},
		{
			"inputs": [
				{
					"internalType": "address",
					"name": "from",
					"type": "address"
				},
				{
					"internalType": "address",
					"name": "to",
					"type": "address"
				},
				{
					"internalType": "uint256",
					"name": "tokenId",
					"type": "uint256"
				}
			],
			"name": "safeTransferFrom",
			"outputs": [],
			"stateMutability": "nonpayable",
			"type": "function"
		},
		{
			"inputs": [
				{
					"internalType": "address",
					"name": "from",
					"type": "address"
				},
				{
					"internalType": "address",
					"name": "to",
					"type": "address"
				},
				{
					"internalType": "uint256",
					"name": "tokenId",
					"type": "uint256"
				},
				{
					"internalType": "bytes",
					"name": "data",
					"type": "bytes"
				}
			],
			"name": "safeTransferFrom",
			"outputs": [],
			"stateMutability": "nonpayable",
			"type": "function"
		},
		{
			"inputs": [
				{
					"internalType": "address",
					"name": "operator",
					"type": "address"
				},
				{
					"internalType": "bool",
					"name": "approved",
					"type": "bool"
				}
			],
			"name": "setApprovalForAll",
			"outputs": [],
			"stateMutability": "nonpayable",
			"type": "function"
		},
		{
			"inputs": [
				{
					"internalType": "uint256",
					"name": "level",
					"type": "uint256"
				},
				{
					"internalType": "uint256[4]",
					"name": "dropRates",
					"type": "uint256[4]"
				},
				{
					"internalType": "uint256[]",
					"name": "weaponsList",
					"type": "uint256[]"
				},
				{
					"internalType": "uint256[]",
					"name": "armourList",
					"type": "uint256[]"
				},
				{
					"internalType": "uint256[]",
					"name": "jewelsList",
					"type": "uint256[]"
				},
				{
					"internalType": "uint256[]",
					"name": "miscList",
					"type": "uint256[]"
				}
			],
			"name": "setBoxDrop",
			"outputs": [],
			"stateMutability": "nonpayable",
			"type": "function"
		},
		{
			"inputs": [
				{
					"internalType": "bytes4",
					"name": "interfaceId",
					"type": "bytes4"
				}
			],
			"name": "supportsInterface",
			"outputs": [
				{
					"internalType": "bool",
					"name": "",
					"type": "bool"
				}
			],
			"stateMutability": "view",
			"type": "function"
		},
		{
			"inputs": [],
			"name": "symbol",
			"outputs": [
				{
					"internalType": "string",
					"name": "",
					"type": "string"
				}
			],
			"stateMutability": "view",
			"type": "function"
		},
		{
			"inputs": [
				{
					"internalType": "uint256",
					"name": "index",
					"type": "uint256"
				}
			],
			"name": "tokenByIndex",
			"outputs": [
				{
					"internalType": "uint256",
					"name": "",
					"type": "uint256"
				}
			],
			"stateMutability": "view",
			"type": "function"
		},
		{
			"inputs": [
				{
					"internalType": "address",
					"name": "owner",
					"type": "address"
				},
				{
					"internalType": "uint256",
					"name": "index",
					"type": "uint256"
				}
			],
			"name": "tokenOfOwnerByIndex",
			"outputs": [
				{
					"internalType": "uint256",
					"name": "",
					"type": "uint256"
				}
			],
			"stateMutability": "view",
			"type": "function"
		},
		{
			"inputs": [
				{
					"internalType": "uint256",
					"name": "tokenId",
					"type": "uint256"
				}
			],
			"name": "tokenURI",
			"outputs": [
				{
					"internalType": "string",
					"name": "",
					"type": "string"
				}
			],
			"stateMutability": "view",
			"type": "function"
		},
		{
			"inputs": [],
			"name": "totalSupply",
			"outputs": [
				{
					"internalType": "uint256",
					"name": "",
					"type": "uint256"
				}
			],
			"stateMutability": "view",
			"type": "function"
		},
		{
			"inputs": [
				{
					"internalType": "address",
					"name": "from",
					"type": "address"
				},
				{
					"internalType": "address",
					"name": "to",
					"type": "address"
				},
				{
					"internalType": "uint256",
					"name": "tokenId",
					"type": "uint256"
				}
			],
			"name": "transferFrom",
			"outputs": [],
			"stateMutability": "nonpayable",
			"type": "function"
		}
	]
}