{
	"data": {
		"bytecode": {
			"linkReferences": {},
			"object": "60806040523480156200001157600080fd5b5060405180604001604052806007815260200166436f6d6261747360c81b815250604051806040016040528060048152602001634974656d60e01b81525081600090816200006091906200014a565b5060016200006f82826200014a565b5050600680546001600160a01b0319163317905550603d805462ff00001916620100001790556001601581905560165562000216565b634e487b7160e01b600052604160045260246000fd5b600181811c90821680620000d057607f821691505b602082108103620000f157634e487b7160e01b600052602260045260246000fd5b50919050565b601f8211156200014557600081815260208120601f850160051c81016020861015620001205750805b601f850160051c820191505b8181101562000141578281556001016200012c565b5050505b505050565b81516001600160401b03811115620001665762000166620000a5565b6200017e81620001778454620000bb565b84620000f7565b602080601f831160018114620001b657600084156200019d5750858301515b600019600386901b1c1916600185901b17855562000141565b600085815260208120601f198616915b82811015620001e757888601518255948401946001909101908401620001c6565b5085821015620002065787850151600019600388901b60f8161c191681555b5050505050600190811b01905550565b61359980620002266000396000f3fe608060405234801561001057600080fd5b50600436106101585760003560e01c80638da5cb5b116100c3578063c87b56dd1161007c578063c87b56dd146102e7578063d05c78da146102fa578063e6cb90131461030d578063e985e9c514610320578063f10bbe181461035c578063fb5d7f10146103c157600080fd5b80638da5cb5b1461028057806395d89b4114610293578063a22cb4651461029b578063a293d1e8146102ae578063b4148054146102c1578063b88d4fde146102d457600080fd5b8063521e16c511610115578063521e16c5146102005780636352211e1461022157806370a08231146102345780637310dc8a146102475780637f46914f1461025a57806388feaacc1461026d57600080fd5b806301ffc9a71461015d57806306fdde0314610185578063081812fc1461019a578063095ea7b3146101c557806323b872dd146101da57806342842e0e146101ed575b600080fd5b61017061016b366004612c91565b6103d4565b60405190151581526020015b60405180910390f35b61018d610426565b60405161017c9190612cfe565b6101ad6101a8366004612d11565b6104b8565b6040516001600160a01b03909116815260200161017c565b6101d86101d3366004612d46565b6104df565b005b6101d86101e8366004612d70565b6105f9565b6101d86101fb366004612d70565b61062a565b61021361020e366004612dac565b610645565b60405190815260200161017c565b6101ad61022f366004612d11565b610f28565b610213610242366004612e50565b610f88565b61018d610255366004612d11565b61100e565b6101d8610268366004612e6b565b6110a8565b61021361027b366004612d11565b611509565b6006546101ad906001600160a01b031681565b61018d6118e6565b6101d86102a9366004612e9d565b6118f5565b6102136102bc366004612e6b565b611904565b6101d86102cf366004612f2d565b611927565b6101d86102e2366004613027565b611b7b565b61018d6102f5366004612d11565b611bb3565b610213610308366004612e6b565b611c26565b61021361031b366004612e6b565b611c56565b61017061032e366004613103565b6001600160a01b03918216600090815260056020908152604080832093909416825291909152205460ff1690565b61039961036a366004612d11565b603e60205260009081526040902080546001820154600383015460058401546007909401549293919290919085565b604080519586526020860194909452928401919091526060830152608082015260a00161017c565b6101d86103cf366004612d46565b611c80565b60006001600160e01b031982166380ac58cd60e01b148061040557506001600160e01b03198216635b5e139f60e01b145b8061042057506301ffc9a760e01b6001600160e01b03198316145b92915050565b6060600080546104359061312d565b80601f01602080910402602001604051908101604052809291908181526020018280546104619061312d565b80156104ae5780601f10610483576101008083540402835291602001916104ae565b820191906000526020600020905b81548152906001019060200180831161049157829003601f168201915b5050505050905090565b60006104c38261203d565b506000908152600460205260409020546001600160a01b031690565b60006104ea82610f28565b9050806001600160a01b0316836001600160a01b03160361055c5760405162461bcd60e51b815260206004820152602160248201527f4552433732313a20617070726f76616c20746f2063757272656e74206f776e656044820152603960f91b60648201526084015b60405180910390fd5b336001600160a01b03821614806105785750610578813361032e565b6105ea5760405162461bcd60e51b815260206004820152603d60248201527f4552433732313a20617070726f76652063616c6c6572206973206e6f7420746f60448201527f6b656e206f776e6572206f7220617070726f76656420666f7220616c6c0000006064820152608401610553565b6105f4838361209f565b505050565b610603338261210d565b61061f5760405162461bcd60e51b815260040161055390613167565b6105f483838361218b565b6105f483838360405180602001604052806000815250611b7b565b600061080660405180610760016040528060608152602001600081526020016000815260200160008152602001600081526020016000815260200160008152602001600081526020016000815260200160008152602001600081526020016000815260200160008152602001600081526020016000815260200160008152602001600081526020016000815260200160008152602001600081526020016000815260200160008152602001600081526020016000815260200160008152602001600081526020016000815260200160008152602001600081526020016000815260200160008152602001600081526020016000815260200160008152602001600081526020016000815260200160008152602001600081526020016000815260200160008152602001600081526020016000815260200160008152602001600081526020016000815260200160008152602001600081526020016000815260200160008152602001600081526020016000151581526020016000151581526020016000151581526020016000151581526020016000151581526020016000151581526020016000151581526020016000151581526020016000151581525090565b85858080601f016020809104026020016040519081016040528093929190818152602001838380828437600092018290525093855250869291506108479050565b6020908102919091013590820152836001602002013560408201528360026020020135606082015283600360200201356080820152836004602002013560a0820152836005602002013560c0820152836006602002013560e082015283600760200201356101008201528360086020020135610120820152836009602002013561014082015283600a602002013561016082015283600b602002013561018082015283600c60200201356101a082015283600d60200201356101c082015283600e60200201356101e082015283600f6020020135610200820152836010602002013561022082015283601160200201356102408201528360126020020135610260820152836013602002013561028082015283601460200201356102a082015283601560200201356102c082015283601660200201356102e082015283601760200201356103008201528360186020020135610320820152836019602002013561034082015283601a602002013561036082015283601b602002013561038082015283601c60200201356103a082015283601d60200201356103c082015283601e60200201356103e082015283601f602090810291909101356104008301528490602002013561042082015283602160200201356104408201528360226020020135610460820152836023602002013561048082015283602460200201356104a082015283602560200201356104c082015283602660200201356104e082015283602760200201356105008201528360286020020135610520820152836029602002013561054082015283602a602002013561056082015283602b602002013561058082015283602c60200201356105a082015283602d60200201356105c082015283602e60200201356105e082015283602f60200201356106008201528360306020020135610620820152826000602002016020810190610b0991906131ca565b1515610640820152610b2160408401602085016131ca565b1515610660820152610b3960608401604085016131ca565b1515610680820152610b5160808401606085016131ca565b15156106a0820152610b6960a08401608085016131ca565b15156106c0820152610b8160c0840160a085016131ca565b15156106e0820152610b9960e0840160c085016131ca565b1515610700820152610bb2610100840160e085016131ca565b1515610720820152610bcc610120840161010085016131ca565b15156107408201526009805490829082610be46131b4565b600091825260209091208251603390920201908190610c039082613233565b50602082810151600183015560408301516002830155606083015160038301556080830151600483015560a0830151600583015560c0830151600683015560e083015160078301556101008084015160088401556101208401516009840155610140840151600a840155610160840151600b840155610180840151600c8401556101a0840151600d8401556101c0840151600e8401556101e0840151600f840155610200840151601084015561022084015160118401556102408401516012840155610260840151601384015561028084015160148401556102a084015160158401556102c084015160168401556102e0840151601784015561030084015160188401556103208401516019840155610340840151601a840155610360840151601b840155610380840151601c8401556103a0840151601d8401556103c0840151601e8401556103e0840151601f8401556104008401519183019190915561042083015160218301556104408301516022830155610460830151602383015561048083015160248301556104a083015160258301556104c083015160268301556104e0830151602783015561050083015160288301556105208301516029830155610540830151602a830155610560830151602b830155610580830151602c8301556105a0830151602d8301556105c0830151602e8301556105e0830151602f83015561060083015160308301556106208301516031830155610640830151603290920180546106608501516106808601516106a08701516106c08801516106e08901516107008a01516107208b0151610740909b015161ffff1990971699151561ff001916999099179415159097029390931763ffff00001916620100009215159290920263ff0000001916919091176301000000911515919091021765ffff0000000019166401000000009115159190910265ff0000000000191617600160281b931515939093029290921767ffff0000000000001916600160301b9315159390930260ff60381b191692909217600160381b931515939093029290921760ff60401b1916600160401b921515929092029190911790559150505b949350505050565b6000818152600260205260408120546001600160a01b0316806104205760405162461bcd60e51b8152602060048201526018602482015277115490cdcc8c4e881a5b9d985b1a59081d1bdad95b88125160421b6044820152606401610553565b60006001600160a01b038216610ff25760405162461bcd60e51b815260206004820152602960248201527f4552433732313a2061646472657373207a65726f206973206e6f7420612076616044820152683634b21037bbb732b960b91b6064820152608401610553565b506001600160a01b031660009081526003602052604090205490565b600760205260009081526040902080546110279061312d565b80601f01602080910402602001604051908101604052809291908181526020018280546110539061312d565b80156110a05780601f10611075576101008083540402835291602001916110a0565b820191906000526020600020905b81548152906001019060200180831161108357829003601f168201915b505050505081565b6000600983815481106110bd576110bd6131b4565b906000526020600020906033020160040154116111115760405162461bcd60e51b8152602060048201526012602482015271125d195b48191bd95cdb89dd08195e1a5cdd60721b6044820152606401610553565b61111f600a80546001019055565b600061112a600a5490565b905061113633826122ef565b6114b1816009858154811061114d5761114d6131b4565b9060005260206000209060330201604051806107600160405290816000820180546111779061312d565b80601f01602080910402602001604051908101604052809291908181526020018280546111a39061312d565b80156111f05780601f106111c5576101008083540402835291602001916111f0565b820191906000526020600020905b8154815290600101906020018083116111d357829003601f168201915b50505091835250506001820154602080830191909152600283015460408301526003830154606083015260048301546080830152600583015460a0830152600683015460c0830152600783015460e08301526008830154610100808401919091526009840154610120840152600a840154610140840152600b840154610160840152600c840154610180840152600d8401546101a0840152600e8401546101c0840152600f8401546101e08401526010840154610200840152601184015461022084015260128401546102408401526013840154610260840152601484015461028084015260158401546102a084015260168401546102c084015260178401546102e084015260188401546103008401526019840154610320840152601a840154610340840152601b840154610360840152601c840154610380840152601d8401546103a0840152601e8401546103c0840152601f8401546103e084015290830154610400830152602183015461042083015260228301546104408301526023830154610460830152602483015461048083015260258301546104a083015260268301546104c083015260278301546104e083015260288301546105008301526029830154610520830152602a830154610540830152602b830154610560830152602c830154610580830152602d8301546105a0830152602e8301546105c0830152602f8301546105e08301526030830154610600830152603183015461062083015260329092015460ff8082161515610640840152928104831615156106608301526201000081048316151561068083015263010000008104831615156106a08301526401000000008104831615156106c0830152600160281b8104831615156106e0830152600160301b810483161515610700830152600160381b810483161515610720830152600160401b9004909116151561074090910152612309565b600081815260086020526040908190206001810183905590517f78cb587a56a0dc7913ec51993eb7f7bf182fca207bd1460930bc912747387edd916114fc91849187913391906132f3565b60405180910390a1505050565b6000818152600260205260408120546001600160a01b03166115645760405162461bcd60e51b8152602060048201526014602482015273151bdad95b88191bd95cc81b9bdd08195e1a5cdd60621b6044820152606401610553565b60008281526008602052604090206032015462010000900460ff166115b75760405162461bcd60e51b815260206004820152600960248201526809cdee840c240c4def60bb1b6044820152606401610553565b6000828152600860209081526040808320600290810154808552603e8452828520835161012081018552815481526001820154818701529281018054855181880281018801875281815293979694959294928601939283018282801561163c57602002820191906000526020600020905b815481526020019060010190808311611628575b50505050508152602001600382015481526020016004820180548060200260200160405190810160405280929190818152602001828054801561169e57602002820191906000526020600020905b81548152602001906001019080831161168a575b50505050508152602001600582015481526020016006820180548060200260200160405190810160405280929190818152602001828054801561170057602002820191906000526020600020905b8154815260200190600101908083116116ec575b50505050508152602001600782015481526020016008820180548060200260200160405190810160405280929190818152602001828054801561176257602002820191906000526020600020905b81548152602001906001019080831161174e575b50505050508152505090506000611791826020015161031b846060015161031b8660a001518760e00151611c56565b9050600061179d6126a0565b90506000808060008086861161183c57876020015186116117d057600193506117c988604001516126b7565b945061184d565b6117e288602001518960600151611c56565b86116117f957600192506117c988608001516126b7565b6118138860a0015161031b8a602001518b60600151611c56565b861161182a57600191506117c98860c001516126b7565b600190506117c98861010001516126b7565b5060009a9950505050505050505050565b61185b600a80546001019055565b6000611866600a5490565b905061187233826122ef565b611889816009888154811061114d5761114d6131b4565b60008181526008602090815260409182902060010183905581513381529081018390527fca303f21e08537b41000f97158de2ebca16244cb81143c3d691b410b0a2b8a4c910160405180910390a19b9a5050505050505050505050565b6060600180546104359061312d565b6119003383836126f3565b5050565b6000828211156119165761191661339c565b61192082846133c8565b9392505050565b60006040518061012001604052808c81526020018b60006004811061194e5761194e6131b4565b602002013581526020018a8a808060200260200160405190810160405280939291908181526020018383602002808284376000920191909152505050908252506020018b6001602002013581526020018888808060200260200160405190810160405280939291908181526020018383602002808284376000920191909152505050908252506020018b6002602002013581526020018686808060200260200160405190810160405280939291908181526020018383602002808284376000920191909152505050908252506020018b60036020020135815260200184848080602002602001604051908101604052809392919081815260200183836020028082843760009201829052509390945250508d8152603e6020908152604091829020845181558185015160018201559184015180519495508594929350611a9d9260028501929190910190612c1b565b506060820151600382015560808201518051611ac3916004840191602090910190612c1b565b5060a0820151600582015560c08201518051611ae9916006840191602090910190612c1b565b5060e082015160078201556101008201518051611b10916008840191602090910190612c1b565b5050604080518d81528c356020828101919091528d013581830152908c01356060808301919091528c013560808201527f86f382a6bc7e045486af422eb9e8f96528c8a6c437f0088461c6879f4c80fed9915060a00160405180910390a15050505050505050505050565b611b85338361210d565b611ba15760405162461bcd60e51b815260040161055390613167565b611bad848484846127c1565b50505050565b6060611bbe8261203d565b6000611bd560408051602081019091526000815290565b90506000815111611bf55760405180602001604052806000815250611920565b80611bff846127f4565b604051602001611c109291906133db565b6040516020818303038152906040529392505050565b600080611c33838561340a565b9050831580611c4a575082611c488583613437565b145b6119205761192061339c565b600080611c63838561344b565b9050838110158015611c4a5750828110156119205761192061339c565b6000611c8d603283613437565b9050611c9d600a80546001019055565b6000611ca8600a5490565b9050611cb484826122ef565b6000600b60405180610760016040529081600082018054611cd49061312d565b80601f0160208091040260200160405190810160405280929190818152602001828054611d009061312d565b8015611d4d5780601f10611d2257610100808354040283529160200191611d4d565b820191906000526020600020905b815481529060010190602001808311611d3057829003601f168201915b5050509183525050600182015460208083019190915260028301546040808401919091526003840154606084015260048401546080840152600584015460a0840152600684015460c0840152600784015460e08401526008840154610100808501919091526009850154610120850152600a850154610140850152600b80860154610160860152600c860154610180860152600d808701546101a0870152600e8701546101c0870152600f8701546101e08701526010870154610200870152601187015461022087015260128701546102408701526013870154610260870152601487015461028087015260158701546102a087015260168701546102c087015260178701546102e087015260188701546103008701526019870154610320870152601a870154610340870152601b870154610360870152601c870154610380870152601d8701546103a0870152601e8701546103c0870152601f8701546103e087015293860154610400860152602186015461042086015260228601546104408601526023860154610460860152602486015461048086015260258601546104a086015260268601546104c086015260278601546104e086015260288601546105008601526029860154610520860152602a860154610540860152602b860154610560860152602c860154610580860152602d8601546105a0860152602e8601546105c0860152602f8601546105e08601526030860154610600860152603186015461062086015260329095015460ff8082161515610640870152918104821615156106608601526201000081048216151561068086015263010000008104821615156106a08601526401000000008104821615156106c0860152600160281b8104821615156106e0860152600160301b810482161515610700860152600160381b810482161515610720860152600160401b90041615156107409093019290925286905580516107608101909152815492935061203692859290829082906111779061312d565b5050505050565b6000818152600260205260409020546001600160a01b031661209c5760405162461bcd60e51b8152602060048201526018602482015277115490cdcc8c4e881a5b9d985b1a59081d1bdad95b88125160421b6044820152606401610553565b50565b600081815260046020526040902080546001600160a01b0319166001600160a01b03841690811790915581906120d482610f28565b6001600160a01b03167f8c5be1e5ebec7d5bd14f71427d1e84f3dd0314c0f7b2291e5b200ac8c7c3b92560405160405180910390a45050565b60008061211983610f28565b9050806001600160a01b0316846001600160a01b0316148061216057506001600160a01b0380821660009081526005602090815260408083209388168352929052205460ff165b80610f205750836001600160a01b0316612179846104b8565b6001600160a01b031614949350505050565b826001600160a01b031661219e82610f28565b6001600160a01b0316146121c45760405162461bcd60e51b81526004016105539061345e565b6001600160a01b0382166122265760405162461bcd60e51b8152602060048201526024808201527f4552433732313a207472616e7366657220746f20746865207a65726f206164646044820152637265737360e01b6064820152608401610553565b826001600160a01b031661223982610f28565b6001600160a01b03161461225f5760405162461bcd60e51b81526004016105539061345e565b600081815260046020908152604080832080546001600160a01b03199081169091556001600160a01b0387811680865260038552838620805460001901905590871680865283862080546001019055868652600290945282852080549092168417909155905184937fddf252ad1be2c89b69c2b068fc378daa952ba7f163c4a11628f55a4df523b3ef91a4505050565b611900828260405180602001604052806000815250612887565b6000828152600260205260409020546001600160a01b03166123645760405162461bcd60e51b8152602060048201526014602482015273151bdad95b88191bd95cc81b9bdd08195e1a5cdd60621b6044820152606401610553565b6000828152600860205260409020815182919081906123839082613233565b50602082810151600183015560408301516002830155606083015160038301556080830151600483015560a0830151600583015560c0830151600683015560e083015160078301556101008084015160088401556101208401516009840155610140840151600a840155610160840151600b840155610180840151600c8401556101a0840151600d8401556101c0840151600e8401556101e0840151600f840155610200840151601084015561022084015160118401556102408401516012840155610260840151601384015561028084015160148401556102a084015160158401556102c084015160168401556102e0840151601784015561030084015160188401556103208401516019840155610340840151601a840155610360840151601b840155610380840151601c8401556103a0840151601d8401556103c0840151601e8401556103e0840151601f8401556104008401519183019190915561042083015160218301556104408301516022830155610460830151602383015561048083015160248301556104a083015160258301556104c083015160268301556104e0830151602783015561050083015160288301556105208301516029830155610540830151602a830155610560830151602b830155610580830151602c8301556105a0830151602d8301556105c0830151602e8301556105e0830151602f83015561060083015160308301556106208301516031830155610640830151603290920180546106608501516106808601516106a08701516106c08801516106e08901516107008a01516107208b0151610740909b015161ffff1990971699151561ff001916999099179415159097029390931763ffff00001916620100009215159290920263ff0000001916919091176301000000911515919091021765ffff0000000019166401000000009115159190910265ff0000000000191617600160281b931515939093029290921767ffff0000000000001916600160301b9315159390930260ff60381b191692909217600160381b931515939093029290921760ff60401b1916600160401b921515929092029190911790555050565b600044816126af6064836134a3565b509092915050565b6000806126c26126a0565b8351909150836126d282846134a3565b815181106126e2576126e26131b4565b602002602001015192505050919050565b816001600160a01b0316836001600160a01b0316036127545760405162461bcd60e51b815260206004820152601960248201527f4552433732313a20617070726f766520746f2063616c6c6572000000000000006044820152606401610553565b6001600160a01b03838116600081815260056020908152604080832094871680845294825291829020805460ff191686151590811790915591519182527f17307eab39ab6107e8899845ad3d59bd9653f200f220920489ca2b5937696c31910160405180910390a3505050565b6127cc84848461218b565b6127d8848484846128ba565b611bad5760405162461bcd60e51b8152600401610553906134b7565b60606000612801836129b8565b600101905060008167ffffffffffffffff81111561282157612821613011565b6040519080825280601f01601f19166020018201604052801561284b576020820181803683370190505b5090508181016020015b600019016f181899199a1a9b1b9c1cb0b131b232b360811b600a86061a8153600a850494508461285557509392505050565b6128918383612a90565b61289e60008484846128ba565b6105f45760405162461bcd60e51b8152600401610553906134b7565b60006001600160a01b0384163b156129b057604051630a85bd0160e11b81526001600160a01b0385169063150b7a02906128fe903390899088908890600401613509565b6020604051808303816000875af1925050508015612939575060408051601f3d908101601f1916820190925261293691810190613546565b60015b612996573d808015612967576040519150601f19603f3d011682016040523d82523d6000602084013e61296c565b606091505b50805160000361298e5760405162461bcd60e51b8152600401610553906134b7565b805181602001fd5b6001600160e01b031916630a85bd0160e11b149050610f20565b506001610f20565b60008072184f03e93ff9f4daa797ed6e38ed64bf6a1f0160401b83106129f75772184f03e93ff9f4daa797ed6e38ed64bf6a1f0160401b830492506040015b6d04ee2d6d415b85acef81000000008310612a23576d04ee2d6d415b85acef8100000000830492506020015b662386f26fc100008310612a4157662386f26fc10000830492506010015b6305f5e1008310612a59576305f5e100830492506008015b6127108310612a6d57612710830492506004015b60648310612a7f576064830492506002015b600a83106104205760010192915050565b6001600160a01b038216612ae65760405162461bcd60e51b815260206004820181905260248201527f4552433732313a206d696e7420746f20746865207a65726f20616464726573736044820152606401610553565b6000818152600260205260409020546001600160a01b031615612b4b5760405162461bcd60e51b815260206004820152601c60248201527f4552433732313a20746f6b656e20616c7265616479206d696e746564000000006044820152606401610553565b6000818152600260205260409020546001600160a01b031615612bb05760405162461bcd60e51b815260206004820152601c60248201527f4552433732313a20746f6b656e20616c7265616479206d696e746564000000006044820152606401610553565b6001600160a01b038216600081815260036020908152604080832080546001019055848352600290915280822080546001600160a01b0319168417905551839291907fddf252ad1be2c89b69c2b068fc378daa952ba7f163c4a11628f55a4df523b3ef908290a45050565b828054828255906000526020600020908101928215612c56579160200282015b82811115612c56578251825591602001919060010190612c3b565b50612c62929150612c66565b5090565b5b80821115612c625760008155600101612c67565b6001600160e01b03198116811461209c57600080fd5b600060208284031215612ca357600080fd5b813561192081612c7b565b60005b83811015612cc9578181015183820152602001612cb1565b50506000910152565b60008151808452612cea816020860160208601612cae565b601f01601f19169290920160200192915050565b6020815260006119206020830184612cd2565b600060208284031215612d2357600080fd5b5035919050565b80356001600160a01b0381168114612d4157600080fd5b919050565b60008060408385031215612d5957600080fd5b612d6283612d2a565b946020939093013593505050565b600080600060608486031215612d8557600080fd5b612d8e84612d2a565b9250612d9c60208501612d2a565b9150604084013590509250925092565b600080600080610760808688031215612dc457600080fd5b853567ffffffffffffffff80821115612ddc57600080fd5b818801915088601f830112612df057600080fd5b813581811115612dff57600080fd5b896020828501011115612e1157600080fd5b602083019750809650505050610640860187811115612e2f57600080fd5b602087019350878288011115612e4457600080fd5b94979396509194505050565b600060208284031215612e6257600080fd5b61192082612d2a565b60008060408385031215612e7e57600080fd5b50508035926020909101359150565b80358015158114612d4157600080fd5b60008060408385031215612eb057600080fd5b612eb983612d2a565b9150612ec760208401612e8d565b90509250929050565b806080810183101561042057600080fd5b60008083601f840112612ef357600080fd5b50813567ffffffffffffffff811115612f0b57600080fd5b6020830191508360208260051b8501011115612f2657600080fd5b9250929050565b6000806000806000806000806000806101208b8d031215612f4d57600080fd5b8a359950612f5e8c60208d01612ed0565b985060a08b013567ffffffffffffffff80821115612f7b57600080fd5b612f878e838f01612ee1565b909a50985060c08d0135915080821115612fa057600080fd5b612fac8e838f01612ee1565b909850965060e08d0135915080821115612fc557600080fd5b612fd18e838f01612ee1565b90965094506101008d0135915080821115612feb57600080fd5b50612ff88d828e01612ee1565b915080935050809150509295989b9194979a5092959850565b634e487b7160e01b600052604160045260246000fd5b6000806000806080858703121561303d57600080fd5b61304685612d2a565b935061305460208601612d2a565b925060408501359150606085013567ffffffffffffffff8082111561307857600080fd5b818701915087601f83011261308c57600080fd5b81358181111561309e5761309e613011565b604051601f8201601f19908116603f011681019083821181831017156130c6576130c6613011565b816040528281528a60208487010111156130df57600080fd5b82602086016020830137600060208483010152809550505050505092959194509250565b6000806040838503121561311657600080fd5b61311f83612d2a565b9150612ec760208401612d2a565b600181811c9082168061314157607f821691505b60208210810361316157634e487b7160e01b600052602260045260246000fd5b50919050565b6020808252602d908201527f4552433732313a2063616c6c6572206973206e6f7420746f6b656e206f776e6560408201526c1c881bdc88185c1c1c9bdd9959609a1b606082015260800190565b634e487b7160e01b600052603260045260246000fd5b6000602082840312156131dc57600080fd5b61192082612e8d565b601f8211156105f457600081815260208120601f850160051c8101602086101561320c5750805b601f850160051c820191505b8181101561322b57828155600101613218565b505050505050565b815167ffffffffffffffff81111561324d5761324d613011565b6132618161325b845461312d565b846131e5565b602080601f831160018114613296576000841561327e5750858301515b600019600386901b1c1916600185901b17855561322b565b600085815260208120601f198616915b828110156132c5578886015182559484019460019091019084016132a6565b50858210156132e35787850151600019600388901b60f8161c191681555b5050505050600190811b01905550565b84815260006020858184015260018060a01b038516604084015260806060840152600084546133218161312d565b80608087015260a0600180841660008114613343576001811461335d5761338b565b60ff1985168984015283151560051b89018301955061338b565b896000528660002060005b858110156133835781548b8201860152908301908801613368565b8a0184019650505b50939b9a5050505050505050505050565b634e487b7160e01b600052600160045260246000fd5b634e487b7160e01b600052601160045260246000fd5b81810381811115610420576104206133b2565b600083516133ed818460208801612cae565b835190830190613401818360208801612cae565b01949350505050565b8082028115828204841417610420576104206133b2565b634e487b7160e01b600052601260045260246000fd5b60008261344657613446613421565b500490565b80820180821115610420576104206133b2565b60208082526025908201527f4552433732313a207472616e736665722066726f6d20696e636f72726563742060408201526437bbb732b960d91b606082015260800190565b6000826134b2576134b2613421565b500690565b60208082526032908201527f4552433732313a207472616e7366657220746f206e6f6e20455243373231526560408201527131b2b4bb32b91034b6b83632b6b2b73a32b960711b606082015260800190565b6001600160a01b038581168252841660208201526040810183905260806060820181905260009061353c90830184612cd2565b9695505050505050565b60006020828403121561355857600080fd5b815161192081612c7b56fea2646970667358221220d8c7445d17d719e3ccc0fdc962dae0fcd2e438fe4f462ccae4bd46bb5ffa86a364736f6c63430008130033",
			"opcodes": "PUSH1 0x80 PUSH1 0x40 MSTORE CALLVALUE DUP1 ISZERO PUSH3 0x11 JUMPI PUSH1 0x0 DUP1 REVERT JUMPDEST POP PUSH1 0x40 MLOAD DUP1 PUSH1 0x40 ADD PUSH1 0x40 MSTORE DUP1 PUSH1 0x7 DUP2 MSTORE PUSH1 0x20 ADD PUSH7 0x436F6D62617473 PUSH1 0xC8 SHL DUP2 MSTORE POP PUSH1 0x40 MLOAD DUP1 PUSH1 0x40 ADD PUSH1 0x40 MSTORE DUP1 PUSH1 0x4 DUP2 MSTORE PUSH1 0x20 ADD PUSH4 0x4974656D PUSH1 0xE0 SHL DUP2 MSTORE POP DUP2 PUSH1 0x0 SWAP1 DUP2 PUSH3 0x60 SWAP2 SWAP1 PUSH3 0x14A JUMP JUMPDEST POP PUSH1 0x1 PUSH3 0x6F DUP3 DUP3 PUSH3 0x14A JUMP JUMPDEST POP POP PUSH1 0x6 DUP1 SLOAD PUSH1 0x1 PUSH1 0x1 PUSH1 0xA0 SHL SUB NOT AND CALLER OR SWAP1 SSTORE POP PUSH1 0x3D DUP1 SLOAD PUSH3 0xFF0000 NOT AND PUSH3 0x10000 OR SWAP1 SSTORE PUSH1 0x1 PUSH1 0x15 DUP2 SWAP1 SSTORE PUSH1 0x16 SSTORE PUSH3 0x216 JUMP JUMPDEST PUSH4 0x4E487B71 PUSH1 0xE0 SHL PUSH1 0x0 MSTORE PUSH1 0x41 PUSH1 0x4 MSTORE PUSH1 0x24 PUSH1 0x0 REVERT JUMPDEST PUSH1 0x1 DUP2 DUP2 SHR SWAP1 DUP3 AND DUP1 PUSH3 0xD0 JUMPI PUSH1 0x7F DUP3 AND SWAP2 POP JUMPDEST PUSH1 0x20 DUP3 LT DUP2 SUB PUSH3 0xF1 JUMPI PUSH4 0x4E487B71 PUSH1 0xE0 SHL PUSH1 0x0 MSTORE PUSH1 0x22 PUSH1 0x4 MSTORE PUSH1 0x24 PUSH1 0x0 REVERT JUMPDEST POP SWAP2 SWAP1 POP JUMP JUMPDEST PUSH1 0x1F DUP3 GT ISZERO PUSH3 0x145 JUMPI PUSH1 0x0 DUP2 DUP2 MSTORE PUSH1 0x20 DUP2 KECCAK256 PUSH1 0x1F DUP6 ADD PUSH1 0x5 SHR DUP2 ADD PUSH1 0x20 DUP7 LT ISZERO PUSH3 0x120 JUMPI POP DUP1 JUMPDEST PUSH1 0x1F DUP6 ADD PUSH1 0x5 SHR DUP3 ADD SWAP2 POP JUMPDEST DUP2 DUP2 LT ISZERO PUSH3 0x141 JUMPI DUP3 DUP2 SSTORE PUSH1 0x1 ADD PUSH3 0x12C JUMP JUMPDEST POP POP POP JUMPDEST POP POP POP JUMP JUMPDEST DUP2 MLOAD PUSH1 0x1 PUSH1 0x1 PUSH1 0x40 SHL SUB DUP2 GT ISZERO PUSH3 0x166 JUMPI PUSH3 0x166 PUSH3 0xA5 JUMP JUMPDEST PUSH3 0x17E DUP2 PUSH3 0x177 DUP5 SLOAD PUSH3 0xBB JUMP JUMPDEST DUP5 PUSH3 0xF7 JUMP JUMPDEST PUSH1 0x20 DUP1 PUSH1 0x1F DUP4 GT PUSH1 0x1 DUP2 EQ PUSH3 0x1B6 JUMPI PUSH1 0x0 DUP5 ISZERO PUSH3 0x19D JUMPI POP DUP6 DUP4 ADD MLOAD JUMPDEST PUSH1 0x0 NOT PUSH1 0x3 DUP7 SWAP1 SHL SHR NOT AND PUSH1 0x1 DUP6 SWAP1 SHL OR DUP6 SSTORE PUSH3 0x141 JUMP JUMPDEST PUSH1 0x0 DUP6 DUP2 MSTORE PUSH1 0x20 DUP2 KECCAK256 PUSH1 0x1F NOT DUP7 AND SWAP2 JUMPDEST DUP3 DUP2 LT ISZERO PUSH3 0x1E7 JUMPI DUP9 DUP7 ADD MLOAD DUP3 SSTORE SWAP5 DUP5 ADD SWAP5 PUSH1 0x1 SWAP1 SWAP2 ADD SWAP1 DUP5 ADD PUSH3 0x1C6 JUMP JUMPDEST POP DUP6 DUP3 LT ISZERO PUSH3 0x206 JUMPI DUP8 DUP6 ADD MLOAD PUSH1 0x0 NOT PUSH1 0x3 DUP9 SWAP1 SHL PUSH1 0xF8 AND SHR NOT AND DUP2 SSTORE JUMPDEST POP POP POP POP POP PUSH1 0x1 SWAP1 DUP2 SHL ADD SWAP1 SSTORE POP JUMP JUMPDEST PUSH2 0x3599 DUP1 PUSH3 0x226 PUSH1 0x0 CODECOPY PUSH1 0x0 RETURN INVALID PUSH1 0x80 PUSH1 0x40 MSTORE CALLVALUE DUP1 ISZERO PUSH2 0x10 JUMPI PUSH1 0x0 DUP1 REVERT JUMPDEST POP PUSH1 0x4 CALLDATASIZE LT PUSH2 0x158 JUMPI PUSH1 0x0 CALLDATALOAD PUSH1 0xE0 SHR DUP1 PUSH4 0x8DA5CB5B GT PUSH2 0xC3 JUMPI DUP1 PUSH4 0xC87B56DD GT PUSH2 0x7C JUMPI DUP1 PUSH4 0xC87B56DD EQ PUSH2 0x2E7 JUMPI DUP1 PUSH4 0xD05C78DA EQ PUSH2 0x2FA JUMPI DUP1 PUSH4 0xE6CB9013 EQ PUSH2 0x30D JUMPI DUP1 PUSH4 0xE985E9C5 EQ PUSH2 0x320 JUMPI DUP1 PUSH4 0xF10BBE18 EQ PUSH2 0x35C JUMPI DUP1 PUSH4 0xFB5D7F10 EQ PUSH2 0x3C1 JUMPI PUSH1 0x0 DUP1 REVERT JUMPDEST DUP1 PUSH4 0x8DA5CB5B EQ PUSH2 0x280 JUMPI DUP1 PUSH4 0x95D89B41 EQ PUSH2 0x293 JUMPI DUP1 PUSH4 0xA22CB465 EQ PUSH2 0x29B JUMPI DUP1 PUSH4 0xA293D1E8 EQ PUSH2 0x2AE JUMPI DUP1 PUSH4 0xB4148054 EQ PUSH2 0x2C1 JUMPI DUP1 PUSH4 0xB88D4FDE EQ PUSH2 0x2D4 JUMPI PUSH1 0x0 DUP1 REVERT JUMPDEST DUP1 PUSH4 0x521E16C5 GT PUSH2 0x115 JUMPI DUP1 PUSH4 0x521E16C5 EQ PUSH2 0x200 JUMPI DUP1 PUSH4 0x6352211E EQ PUSH2 0x221 JUMPI DUP1 PUSH4 0x70A08231 EQ PUSH2 0x234 JUMPI DUP1 PUSH4 0x7310DC8A EQ PUSH2 0x247 JUMPI DUP1 PUSH4 0x7F46914F EQ PUSH2 0x25A JUMPI DUP1 PUSH4 0x88FEAACC EQ PUSH2 0x26D JUMPI PUSH1 0x0 DUP1 REVERT JUMPDEST DUP1 PUSH4 0x1FFC9A7 EQ PUSH2 0x15D JUMPI DUP1 PUSH4 0x6FDDE03 EQ PUSH2 0x185 JUMPI DUP1 PUSH4 0x81812FC EQ PUSH2 0x19A JUMPI DUP1 PUSH4 0x95EA7B3 EQ PUSH2 0x1C5 JUMPI DUP1 PUSH4 0x23B872DD EQ PUSH2 0x1DA JUMPI DUP1 PUSH4 0x42842E0E EQ PUSH2 0x1ED JUMPI JUMPDEST PUSH1 0x0 DUP1 REVERT JUMPDEST PUSH2 0x170 PUSH2 0x16B CALLDATASIZE PUSH1 0x4 PUSH2 0x2C91 JUMP JUMPDEST PUSH2 0x3D4 JUMP JUMPDEST PUSH1 0x40 MLOAD SWAP1 ISZERO ISZERO DUP2 MSTORE PUSH1 0x20 ADD JUMPDEST PUSH1 0x40 MLOAD DUP1 SWAP2 SUB SWAP1 RETURN JUMPDEST PUSH2 0x18D PUSH2 0x426 JUMP JUMPDEST PUSH1 0x40 MLOAD PUSH2 0x17C SWAP2 SWAP1 PUSH2 0x2CFE JUMP JUMPDEST PUSH2 0x1AD PUSH2 0x1A8 CALLDATASIZE PUSH1 0x4 PUSH2 0x2D11 JUMP JUMPDEST PUSH2 0x4B8 JUMP JUMPDEST PUSH1 0x40 MLOAD PUSH1 0x1 PUSH1 0x1 PUSH1 0xA0 SHL SUB SWAP1 SWAP2 AND DUP2 MSTORE PUSH1 0x20 ADD PUSH2 0x17C JUMP JUMPDEST PUSH2 0x1D8 PUSH2 0x1D3 CALLDATASIZE PUSH1 0x4 PUSH2 0x2D46 JUMP JUMPDEST PUSH2 0x4DF JUMP JUMPDEST STOP JUMPDEST PUSH2 0x1D8 PUSH2 0x1E8 CALLDATASIZE PUSH1 0x4 PUSH2 0x2D70 JUMP JUMPDEST PUSH2 0x5F9 JUMP JUMPDEST PUSH2 0x1D8 PUSH2 0x1FB CALLDATASIZE PUSH1 0x4 PUSH2 0x2D70 JUMP JUMPDEST PUSH2 0x62A JUMP JUMPDEST PUSH2 0x213 PUSH2 0x20E CALLDATASIZE PUSH1 0x4 PUSH2 0x2DAC JUMP JUMPDEST PUSH2 0x645 JUMP JUMPDEST PUSH1 0x40 MLOAD SWAP1 DUP2 MSTORE PUSH1 0x20 ADD PUSH2 0x17C JUMP JUMPDEST PUSH2 0x1AD PUSH2 0x22F CALLDATASIZE PUSH1 0x4 PUSH2 0x2D11 JUMP JUMPDEST PUSH2 0xF28 JUMP JUMPDEST PUSH2 0x213 PUSH2 0x242 CALLDATASIZE PUSH1 0x4 PUSH2 0x2E50 JUMP JUMPDEST PUSH2 0xF88 JUMP JUMPDEST PUSH2 0x18D PUSH2 0x255 CALLDATASIZE PUSH1 0x4 PUSH2 0x2D11 JUMP JUMPDEST PUSH2 0x100E JUMP JUMPDEST PUSH2 0x1D8 PUSH2 0x268 CALLDATASIZE PUSH1 0x4 PUSH2 0x2E6B JUMP JUMPDEST PUSH2 0x10A8 JUMP JUMPDEST PUSH2 0x213 PUSH2 0x27B CALLDATASIZE PUSH1 0x4 PUSH2 0x2D11 JUMP JUMPDEST PUSH2 0x1509 JUMP JUMPDEST PUSH1 0x6 SLOAD PUSH2 0x1AD SWAP1 PUSH1 0x1 PUSH1 0x1 PUSH1 0xA0 SHL SUB AND DUP2 JUMP JUMPDEST PUSH2 0x18D PUSH2 0x18E6 JUMP JUMPDEST PUSH2 0x1D8 PUSH2 0x2A9 CALLDATASIZE PUSH1 0x4 PUSH2 0x2E9D JUMP JUMPDEST PUSH2 0x18F5 JUMP JUMPDEST PUSH2 0x213 PUSH2 0x2BC CALLDATASIZE PUSH1 0x4 PUSH2 0x2E6B JUMP JUMPDEST PUSH2 0x1904 JUMP JUMPDEST PUSH2 0x1D8 PUSH2 0x2CF CALLDATASIZE PUSH1 0x4 PUSH2 0x2F2D JUMP JUMPDEST PUSH2 0x1927 JUMP JUMPDEST PUSH2 0x1D8 PUSH2 0x2E2 CALLDATASIZE PUSH1 0x4 PUSH2 0x3027 JUMP JUMPDEST PUSH2 0x1B7B JUMP JUMPDEST PUSH2 0x18D PUSH2 0x2F5 CALLDATASIZE PUSH1 0x4 PUSH2 0x2D11 JUMP JUMPDEST PUSH2 0x1BB3 JUMP JUMPDEST PUSH2 0x213 PUSH2 0x308 CALLDATASIZE PUSH1 0x4 PUSH2 0x2E6B JUMP JUMPDEST PUSH2 0x1C26 JUMP JUMPDEST PUSH2 0x213 PUSH2 0x31B CALLDATASIZE PUSH1 0x4 PUSH2 0x2E6B JUMP JUMPDEST PUSH2 0x1C56 JUMP JUMPDEST PUSH2 0x170 PUSH2 0x32E CALLDATASIZE PUSH1 0x4 PUSH2 0x3103 JUMP JUMPDEST PUSH1 0x1 PUSH1 0x1 PUSH1 0xA0 SHL SUB SWAP2 DUP3 AND PUSH1 0x0 SWAP1 DUP2 MSTORE PUSH1 0x5 PUSH1 0x20 SWAP1 DUP2 MSTORE PUSH1 0x40 DUP1 DUP4 KECCAK256 SWAP4 SWAP1 SWAP5 AND DUP3 MSTORE SWAP2 SWAP1 SWAP2 MSTORE KECCAK256 SLOAD PUSH1 0xFF AND SWAP1 JUMP JUMPDEST PUSH2 0x399 PUSH2 0x36A CALLDATASIZE PUSH1 0x4 PUSH2 0x2D11 JUMP JUMPDEST PUSH1 0x3E PUSH1 0x20 MSTORE PUSH1 0x0 SWAP1 DUP2 MSTORE PUSH1 0x40 SWAP1 KECCAK256 DUP1 SLOAD PUSH1 0x1 DUP3 ADD SLOAD PUSH1 0x3 DUP4 ADD SLOAD PUSH1 0x5 DUP5 ADD SLOAD PUSH1 0x7 SWAP1 SWAP5 ADD SLOAD SWAP3 SWAP4 SWAP2 SWAP3 SWAP1 SWAP2 SWAP1 DUP6 JUMP JUMPDEST PUSH1 0x40 DUP1 MLOAD SWAP6 DUP7 MSTORE PUSH1 0x20 DUP7 ADD SWAP5 SWAP1 SWAP5 MSTORE SWAP3 DUP5 ADD SWAP2 SWAP1 SWAP2 MSTORE PUSH1 0x60 DUP4 ADD MSTORE PUSH1 0x80 DUP3 ADD MSTORE PUSH1 0xA0 ADD PUSH2 0x17C JUMP JUMPDEST PUSH2 0x1D8 PUSH2 0x3CF CALLDATASIZE PUSH1 0x4 PUSH2 0x2D46 JUMP JUMPDEST PUSH2 0x1C80 JUMP JUMPDEST PUSH1 0x0 PUSH1 0x1 PUSH1 0x1 PUSH1 0xE0 SHL SUB NOT DUP3 AND PUSH4 0x80AC58CD PUSH1 0xE0 SHL EQ DUP1 PUSH2 0x405 JUMPI POP PUSH1 0x1 PUSH1 0x1 PUSH1 0xE0 SHL SUB NOT DUP3 AND PUSH4 0x5B5E139F PUSH1 0xE0 SHL EQ JUMPDEST DUP1 PUSH2 0x420 JUMPI POP PUSH4 0x1FFC9A7 PUSH1 0xE0 SHL PUSH1 0x1 PUSH1 0x1 PUSH1 0xE0 SHL SUB NOT DUP4 AND EQ JUMPDEST SWAP3 SWAP2 POP POP JUMP JUMPDEST PUSH1 0x60 PUSH1 0x0 DUP1 SLOAD PUSH2 0x435 SWAP1 PUSH2 0x312D JUMP JUMPDEST DUP1 PUSH1 0x1F ADD PUSH1 0x20 DUP1 SWAP2 DIV MUL PUSH1 0x20 ADD PUSH1 0x40 MLOAD SWAP1 DUP2 ADD PUSH1 0x40 MSTORE DUP1 SWAP3 SWAP2 SWAP1 DUP2 DUP2 MSTORE PUSH1 0x20 ADD DUP3 DUP1 SLOAD PUSH2 0x461 SWAP1 PUSH2 0x312D JUMP JUMPDEST DUP1 ISZERO PUSH2 0x4AE JUMPI DUP1 PUSH1 0x1F LT PUSH2 0x483 JUMPI PUSH2 0x100 DUP1 DUP4 SLOAD DIV MUL DUP4 MSTORE SWAP2 PUSH1 0x20 ADD SWAP2 PUSH2 0x4AE JUMP JUMPDEST DUP3 ADD SWAP2 SWAP1 PUSH1 0x0 MSTORE PUSH1 0x20 PUSH1 0x0 KECCAK256 SWAP1 JUMPDEST DUP2 SLOAD DUP2 MSTORE SWAP1 PUSH1 0x1 ADD SWAP1 PUSH1 0x20 ADD DUP1 DUP4 GT PUSH2 0x491 JUMPI DUP3 SWAP1 SUB PUSH1 0x1F AND DUP3 ADD SWAP2 JUMPDEST POP POP POP POP POP SWAP1 POP SWAP1 JUMP JUMPDEST PUSH1 0x0 PUSH2 0x4C3 DUP3 PUSH2 0x203D JUMP JUMPDEST POP PUSH1 0x0 SWAP1 DUP2 MSTORE PUSH1 0x4 PUSH1 0x20 MSTORE PUSH1 0x40 SWAP1 KECCAK256 SLOAD PUSH1 0x1 PUSH1 0x1 PUSH1 0xA0 SHL SUB AND SWAP1 JUMP JUMPDEST PUSH1 0x0 PUSH2 0x4EA DUP3 PUSH2 0xF28 JUMP JUMPDEST SWAP1 POP DUP1 PUSH1 0x1 PUSH1 0x1 PUSH1 0xA0 SHL SUB AND DUP4 PUSH1 0x1 PUSH1 0x1 PUSH1 0xA0 SHL SUB AND SUB PUSH2 0x55C JUMPI PUSH1 0x40 MLOAD PUSH3 0x461BCD PUSH1 0xE5 SHL DUP2 MSTORE PUSH1 0x20 PUSH1 0x4 DUP3 ADD MSTORE PUSH1 0x21 PUSH1 0x24 DUP3 ADD MSTORE PUSH32 0x4552433732313A20617070726F76616C20746F2063757272656E74206F776E65 PUSH1 0x44 DUP3 ADD MSTORE PUSH1 0x39 PUSH1 0xF9 SHL PUSH1 0x64 DUP3 ADD MSTORE PUSH1 0x84 ADD JUMPDEST PUSH1 0x40 MLOAD DUP1 SWAP2 SUB SWAP1 REVERT JUMPDEST CALLER PUSH1 0x1 PUSH1 0x1 PUSH1 0xA0 SHL SUB DUP3 AND EQ DUP1 PUSH2 0x578 JUMPI POP PUSH2 0x578 DUP2 CALLER PUSH2 0x32E JUMP JUMPDEST PUSH2 0x5EA JUMPI PUSH1 0x40 MLOAD PUSH3 0x461BCD PUSH1 0xE5 SHL DUP2 MSTORE PUSH1 0x20 PUSH1 0x4 DUP3 ADD MSTORE PUSH1 0x3D PUSH1 0x24 DUP3 ADD MSTORE PUSH32 0x4552433732313A20617070726F76652063616C6C6572206973206E6F7420746F PUSH1 0x44 DUP3 ADD MSTORE PUSH32 0x6B656E206F776E6572206F7220617070726F76656420666F7220616C6C000000 PUSH1 0x64 DUP3 ADD MSTORE PUSH1 0x84 ADD PUSH2 0x553 JUMP JUMPDEST PUSH2 0x5F4 DUP4 DUP4 PUSH2 0x209F JUMP JUMPDEST POP POP POP JUMP JUMPDEST PUSH2 0x603 CALLER DUP3 PUSH2 0x210D JUMP JUMPDEST PUSH2 0x61F JUMPI PUSH1 0x40 MLOAD PUSH3 0x461BCD PUSH1 0xE5 SHL DUP2 MSTORE PUSH1 0x4 ADD PUSH2 0x553 SWAP1 PUSH2 0x3167 JUMP JUMPDEST PUSH2 0x5F4 DUP4 DUP4 DUP4 PUSH2 0x218B JUMP JUMPDEST PUSH2 0x5F4 DUP4 DUP4 DUP4 PUSH1 0x40 MLOAD DUP1 PUSH1 0x20 ADD PUSH1 0x40 MSTORE DUP1 PUSH1 0x0 DUP2 MSTORE POP PUSH2 0x1B7B JUMP JUMPDEST PUSH1 0x0 PUSH2 0x806 PUSH1 0x40 MLOAD DUP1 PUSH2 0x760 ADD PUSH1 0x40 MSTORE DUP1 PUSH1 0x60 DUP2 MSTORE PUSH1 0x20 ADD PUSH1 0x0 DUP2 MSTORE PUSH1 0x20 ADD PUSH1 0x0 DUP2 MSTORE PUSH1 0x20 ADD PUSH1 0x0 DUP2 MSTORE PUSH1 0x20 ADD PUSH1 0x0 DUP2 MSTORE PUSH1 0x20 ADD PUSH1 0x0 DUP2 MSTORE PUSH1 0x20 ADD PUSH1 0x0 DUP2 MSTORE PUSH1 0x20 ADD PUSH1 0x0 DUP2 MSTORE PUSH1 0x20 ADD PUSH1 0x0 DUP2 MSTORE PUSH1 0x20 ADD PUSH1 0x0 DUP2 MSTORE PUSH1 0x20 ADD PUSH1 0x0 DUP2 MSTORE PUSH1 0x20 ADD PUSH1 0x0 DUP2 MSTORE PUSH1 0x20 ADD PUSH1 0x0 DUP2 MSTORE PUSH1 0x20 ADD PUSH1 0x0 DUP2 MSTORE PUSH1 0x20 ADD PUSH1 0x0 DUP2 MSTORE PUSH1 0x20 ADD PUSH1 0x0 DUP2 MSTORE PUSH1 0x20 ADD PUSH1 0x0 DUP2 MSTORE PUSH1 0x20 ADD PUSH1 0x0 DUP2 MSTORE PUSH1 0x20 ADD PUSH1 0x0 DUP2 MSTORE PUSH1 0x20 ADD PUSH1 0x0 DUP2 MSTORE PUSH1 0x20 ADD PUSH1 0x0 DUP2 MSTORE PUSH1 0x20 ADD PUSH1 0x0 DUP2 MSTORE PUSH1 0x20 ADD PUSH1 0x0 DUP2 MSTORE PUSH1 0x20 ADD PUSH1 0x0 DUP2 MSTORE PUSH1 0x20 ADD PUSH1 0x0 DUP2 MSTORE PUSH1 0x20 ADD PUSH1 0x0 DUP2 MSTORE PUSH1 0x20 ADD PUSH1 0x0 DUP2 MSTORE PUSH1 0x20 ADD PUSH1 0x0 DUP2 MSTORE PUSH1 0x20 ADD PUSH1 0x0 DUP2 MSTORE PUSH1 0x20 ADD PUSH1 0x0 DUP2 MSTORE PUSH1 0x20 ADD PUSH1 0x0 DUP2 MSTORE PUSH1 0x20 ADD PUSH1 0x0 DUP2 MSTORE PUSH1 0x20 ADD PUSH1 0x0 DUP2 MSTORE PUSH1 0x20 ADD PUSH1 0x0 DUP2 MSTORE PUSH1 0x20 ADD PUSH1 0x0 DUP2 MSTORE PUSH1 0x20 ADD PUSH1 0x0 DUP2 MSTORE PUSH1 0x20 ADD PUSH1 0x0 DUP2 MSTORE PUSH1 0x20 ADD PUSH1 0x0 DUP2 MSTORE PUSH1 0x20 ADD PUSH1 0x0 DUP2 MSTORE PUSH1 0x20 ADD PUSH1 0x0 DUP2 MSTORE PUSH1 0x20 ADD PUSH1 0x0 DUP2 MSTORE PUSH1 0x20 ADD PUSH1 0x0 DUP2 MSTORE PUSH1 0x20 ADD PUSH1 0x0 DUP2 MSTORE PUSH1 0x20 ADD PUSH1 0x0 DUP2 MSTORE PUSH1 0x20 ADD PUSH1 0x0 DUP2 MSTORE PUSH1 0x20 ADD PUSH1 0x0 DUP2 MSTORE PUSH1 0x20 ADD PUSH1 0x0 DUP2 MSTORE PUSH1 0x20 ADD PUSH1 0x0 DUP2 MSTORE PUSH1 0x20 ADD PUSH1 0x0 DUP2 MSTORE PUSH1 0x20 ADD PUSH1 0x0 DUP2 MSTORE PUSH1 0x20 ADD PUSH1 0x0 ISZERO ISZERO DUP2 MSTORE PUSH1 0x20 ADD PUSH1 0x0 ISZERO ISZERO DUP2 MSTORE PUSH1 0x20 ADD PUSH1 0x0 ISZERO ISZERO DUP2 MSTORE PUSH1 0x20 ADD PUSH1 0x0 ISZERO ISZERO DUP2 MSTORE PUSH1 0x20 ADD PUSH1 0x0 ISZERO ISZERO DUP2 MSTORE PUSH1 0x20 ADD PUSH1 0x0 ISZERO ISZERO DUP2 MSTORE PUSH1 0x20 ADD PUSH1 0x0 ISZERO ISZERO DUP2 MSTORE PUSH1 0x20 ADD PUSH1 0x0 ISZERO ISZERO DUP2 MSTORE PUSH1 0x20 ADD PUSH1 0x0 ISZERO ISZERO DUP2 MSTORE POP SWAP1 JUMP JUMPDEST DUP6 DUP6 DUP1 DUP1 PUSH1 0x1F ADD PUSH1 0x20 DUP1 SWAP2 DIV MUL PUSH1 0x20 ADD PUSH1 0x40 MLOAD SWAP1 DUP2 ADD PUSH1 0x40 MSTORE DUP1 SWAP4 SWAP3 SWAP2 SWAP1 DUP2 DUP2 MSTORE PUSH1 0x20 ADD DUP4 DUP4 DUP1 DUP3 DUP5 CALLDATACOPY PUSH1 0x0 SWAP3 ADD DUP3 SWAP1 MSTORE POP SWAP4 DUP6 MSTORE POP DUP7 SWAP3 SWAP2 POP PUSH2 0x847 SWAP1 POP JUMP JUMPDEST PUSH1 0x20 SWAP1 DUP2 MUL SWAP2 SWAP1 SWAP2 ADD CALLDATALOAD SWAP1 DUP3 ADD MSTORE DUP4 PUSH1 0x1 PUSH1 0x20 MUL ADD CALLDATALOAD PUSH1 0x40 DUP3 ADD MSTORE DUP4 PUSH1 0x2 PUSH1 0x20 MUL ADD CALLDATALOAD PUSH1 0x60 DUP3 ADD MSTORE DUP4 PUSH1 0x3 PUSH1 0x20 MUL ADD CALLDATALOAD PUSH1 0x80 DUP3 ADD MSTORE DUP4 PUSH1 0x4 PUSH1 0x20 MUL ADD CALLDATALOAD PUSH1 0xA0 DUP3 ADD MSTORE DUP4 PUSH1 0x5 PUSH1 0x20 MUL ADD CALLDATALOAD PUSH1 0xC0 DUP3 ADD MSTORE DUP4 PUSH1 0x6 PUSH1 0x20 MUL ADD CALLDATALOAD PUSH1 0xE0 DUP3 ADD MSTORE DUP4 PUSH1 0x7 PUSH1 0x20 MUL ADD CALLDATALOAD PUSH2 0x100 DUP3 ADD MSTORE DUP4 PUSH1 0x8 PUSH1 0x20 MUL ADD CALLDATALOAD PUSH2 0x120 DUP3 ADD MSTORE DUP4 PUSH1 0x9 PUSH1 0x20 MUL ADD CALLDATALOAD PUSH2 0x140 DUP3 ADD MSTORE DUP4 PUSH1 0xA PUSH1 0x20 MUL ADD CALLDATALOAD PUSH2 0x160 DUP3 ADD MSTORE DUP4 PUSH1 0xB PUSH1 0x20 MUL ADD CALLDATALOAD PUSH2 0x180 DUP3 ADD MSTORE DUP4 PUSH1 0xC PUSH1 0x20 MUL ADD CALLDATALOAD PUSH2 0x1A0 DUP3 ADD MSTORE DUP4 PUSH1 0xD PUSH1 0x20 MUL ADD CALLDATALOAD PUSH2 0x1C0 DUP3 ADD MSTORE DUP4 PUSH1 0xE PUSH1 0x20 MUL ADD CALLDATALOAD PUSH2 0x1E0 DUP3 ADD MSTORE DUP4 PUSH1 0xF PUSH1 0x20 MUL ADD CALLDATALOAD PUSH2 0x200 DUP3 ADD MSTORE DUP4 PUSH1 0x10 PUSH1 0x20 MUL ADD CALLDATALOAD PUSH2 0x220 DUP3 ADD MSTORE DUP4 PUSH1 0x11 PUSH1 0x20 MUL ADD CALLDATALOAD PUSH2 0x240 DUP3 ADD MSTORE DUP4 PUSH1 0x12 PUSH1 0x20 MUL ADD CALLDATALOAD PUSH2 0x260 DUP3 ADD MSTORE DUP4 PUSH1 0x13 PUSH1 0x20 MUL ADD CALLDATALOAD PUSH2 0x280 DUP3 ADD MSTORE DUP4 PUSH1 0x14 PUSH1 0x20 MUL ADD CALLDATALOAD PUSH2 0x2A0 DUP3 ADD MSTORE DUP4 PUSH1 0x15 PUSH1 0x20 MUL ADD CALLDATALOAD PUSH2 0x2C0 DUP3 ADD MSTORE DUP4 PUSH1 0x16 PUSH1 0x20 MUL ADD CALLDATALOAD PUSH2 0x2E0 DUP3 ADD MSTORE DUP4 PUSH1 0x17 PUSH1 0x20 MUL ADD CALLDATALOAD PUSH2 0x300 DUP3 ADD MSTORE DUP4 PUSH1 0x18 PUSH1 0x20 MUL ADD CALLDATALOAD PUSH2 0x320 DUP3 ADD MSTORE DUP4 PUSH1 0x19 PUSH1 0x20 MUL ADD CALLDATALOAD PUSH2 0x340 DUP3 ADD MSTORE DUP4 PUSH1 0x1A PUSH1 0x20 MUL ADD CALLDATALOAD PUSH2 0x360 DUP3 ADD MSTORE DUP4 PUSH1 0x1B PUSH1 0x20 MUL ADD CALLDATALOAD PUSH2 0x380 DUP3 ADD MSTORE DUP4 PUSH1 0x1C PUSH1 0x20 MUL ADD CALLDATALOAD PUSH2 0x3A0 DUP3 ADD MSTORE DUP4 PUSH1 0x1D PUSH1 0x20 MUL ADD CALLDATALOAD PUSH2 0x3C0 DUP3 ADD MSTORE DUP4 PUSH1 0x1E PUSH1 0x20 MUL ADD CALLDATALOAD PUSH2 0x3E0 DUP3 ADD MSTORE DUP4 PUSH1 0x1F PUSH1 0x20 SWAP1 DUP2 MUL SWAP2 SWAP1 SWAP2 ADD CALLDATALOAD PUSH2 0x400 DUP4 ADD MSTORE DUP5 SWAP1 PUSH1 0x20 MUL ADD CALLDATALOAD PUSH2 0x420 DUP3 ADD MSTORE DUP4 PUSH1 0x21 PUSH1 0x20 MUL ADD CALLDATALOAD PUSH2 0x440 DUP3 ADD MSTORE DUP4 PUSH1 0x22 PUSH1 0x20 MUL ADD CALLDATALOAD PUSH2 0x460 DUP3 ADD MSTORE DUP4 PUSH1 0x23 PUSH1 0x20 MUL ADD CALLDATALOAD PUSH2 0x480 DUP3 ADD MSTORE DUP4 PUSH1 0x24 PUSH1 0x20 MUL ADD CALLDATALOAD PUSH2 0x4A0 DUP3 ADD MSTORE DUP4 PUSH1 0x25 PUSH1 0x20 MUL ADD CALLDATALOAD PUSH2 0x4C0 DUP3 ADD MSTORE DUP4 PUSH1 0x26 PUSH1 0x20 MUL ADD CALLDATALOAD PUSH2 0x4E0 DUP3 ADD MSTORE DUP4 PUSH1 0x27 PUSH1 0x20 MUL ADD CALLDATALOAD PUSH2 0x500 DUP3 ADD MSTORE DUP4 PUSH1 0x28 PUSH1 0x20 MUL ADD CALLDATALOAD PUSH2 0x520 DUP3 ADD MSTORE DUP4 PUSH1 0x29 PUSH1 0x20 MUL ADD CALLDATALOAD PUSH2 0x540 DUP3 ADD MSTORE DUP4 PUSH1 0x2A PUSH1 0x20 MUL ADD CALLDATALOAD PUSH2 0x560 DUP3 ADD MSTORE DUP4 PUSH1 0x2B PUSH1 0x20 MUL ADD CALLDATALOAD PUSH2 0x580 DUP3 ADD MSTORE DUP4 PUSH1 0x2C PUSH1 0x20 MUL ADD CALLDATALOAD PUSH2 0x5A0 DUP3 ADD MSTORE DUP4 PUSH1 0x2D PUSH1 0x20 MUL ADD CALLDATALOAD PUSH2 0x5C0 DUP3 ADD MSTORE DUP4 PUSH1 0x2E PUSH1 0x20 MUL ADD CALLDATALOAD PUSH2 0x5E0 DUP3 ADD MSTORE DUP4 PUSH1 0x2F PUSH1 0x20 MUL ADD CALLDATALOAD PUSH2 0x600 DUP3 ADD MSTORE DUP4 PUSH1 0x30 PUSH1 0x20 MUL ADD CALLDATALOAD PUSH2 0x620 DUP3 ADD MSTORE DUP3 PUSH1 0x0 PUSH1 0x20 MUL ADD PUSH1 0x20 DUP2 ADD SWAP1 PUSH2 0xB09 SWAP2 SWAP1 PUSH2 0x31CA JUMP JUMPDEST ISZERO ISZERO PUSH2 0x640 DUP3 ADD MSTORE PUSH2 0xB21 PUSH1 0x40 DUP5 ADD PUSH1 0x20 DUP6 ADD PUSH2 0x31CA JUMP JUMPDEST ISZERO ISZERO PUSH2 0x660 DUP3 ADD MSTORE PUSH2 0xB39 PUSH1 0x60 DUP5 ADD PUSH1 0x40 DUP6 ADD PUSH2 0x31CA JUMP JUMPDEST ISZERO ISZERO PUSH2 0x680 DUP3 ADD MSTORE PUSH2 0xB51 PUSH1 0x80 DUP5 ADD PUSH1 0x60 DUP6 ADD PUSH2 0x31CA JUMP JUMPDEST ISZERO ISZERO PUSH2 0x6A0 DUP3 ADD MSTORE PUSH2 0xB69 PUSH1 0xA0 DUP5 ADD PUSH1 0x80 DUP6 ADD PUSH2 0x31CA JUMP JUMPDEST ISZERO ISZERO PUSH2 0x6C0 DUP3 ADD MSTORE PUSH2 0xB81 PUSH1 0xC0 DUP5 ADD PUSH1 0xA0 DUP6 ADD PUSH2 0x31CA JUMP JUMPDEST ISZERO ISZERO PUSH2 0x6E0 DUP3 ADD MSTORE PUSH2 0xB99 PUSH1 0xE0 DUP5 ADD PUSH1 0xC0 DUP6 ADD PUSH2 0x31CA JUMP JUMPDEST ISZERO ISZERO PUSH2 0x700 DUP3 ADD MSTORE PUSH2 0xBB2 PUSH2 0x100 DUP5 ADD PUSH1 0xE0 DUP6 ADD PUSH2 0x31CA JUMP JUMPDEST ISZERO ISZERO PUSH2 0x720 DUP3 ADD MSTORE PUSH2 0xBCC PUSH2 0x120 DUP5 ADD PUSH2 0x100 DUP6 ADD PUSH2 0x31CA JUMP JUMPDEST ISZERO ISZERO PUSH2 0x740 DUP3 ADD MSTORE PUSH1 0x9 DUP1 SLOAD SWAP1 DUP3 SWAP1 DUP3 PUSH2 0xBE4 PUSH2 0x31B4 JUMP JUMPDEST PUSH1 0x0 SWAP2 DUP3 MSTORE PUSH1 0x20 SWAP1 SWAP2 KECCAK256 DUP3 MLOAD PUSH1 0x33 SWAP1 SWAP3 MUL ADD SWAP1 DUP2 SWAP1 PUSH2 0xC03 SWAP1 DUP3 PUSH2 0x3233 JUMP JUMPDEST POP PUSH1 0x20 DUP3 DUP2 ADD MLOAD PUSH1 0x1 DUP4 ADD SSTORE PUSH1 0x40 DUP4 ADD MLOAD PUSH1 0x2 DUP4 ADD SSTORE PUSH1 0x60 DUP4 ADD MLOAD PUSH1 0x3 DUP4 ADD SSTORE PUSH1 0x80 DUP4 ADD MLOAD PUSH1 0x4 DUP4 ADD SSTORE PUSH1 0xA0 DUP4 ADD MLOAD PUSH1 0x5 DUP4 ADD SSTORE PUSH1 0xC0 DUP4 ADD MLOAD PUSH1 0x6 DUP4 ADD SSTORE PUSH1 0xE0 DUP4 ADD MLOAD PUSH1 0x7 DUP4 ADD SSTORE PUSH2 0x100 DUP1 DUP5 ADD MLOAD PUSH1 0x8 DUP5 ADD SSTORE PUSH2 0x120 DUP5 ADD MLOAD PUSH1 0x9 DUP5 ADD SSTORE PUSH2 0x140 DUP5 ADD MLOAD PUSH1 0xA DUP5 ADD SSTORE PUSH2 0x160 DUP5 ADD MLOAD PUSH1 0xB DUP5 ADD SSTORE PUSH2 0x180 DUP5 ADD MLOAD PUSH1 0xC DUP5 ADD SSTORE PUSH2 0x1A0 DUP5 ADD MLOAD PUSH1 0xD DUP5 ADD SSTORE PUSH2 0x1C0 DUP5 ADD MLOAD PUSH1 0xE DUP5 ADD SSTORE PUSH2 0x1E0 DUP5 ADD MLOAD PUSH1 0xF DUP5 ADD SSTORE PUSH2 0x200 DUP5 ADD MLOAD PUSH1 0x10 DUP5 ADD SSTORE PUSH2 0x220 DUP5 ADD MLOAD PUSH1 0x11 DUP5 ADD SSTORE PUSH2 0x240 DUP5 ADD MLOAD PUSH1 0x12 DUP5 ADD SSTORE PUSH2 0x260 DUP5 ADD MLOAD PUSH1 0x13 DUP5 ADD SSTORE PUSH2 0x280 DUP5 ADD MLOAD PUSH1 0x14 DUP5 ADD SSTORE PUSH2 0x2A0 DUP5 ADD MLOAD PUSH1 0x15 DUP5 ADD SSTORE PUSH2 0x2C0 DUP5 ADD MLOAD PUSH1 0x16 DUP5 ADD SSTORE PUSH2 0x2E0 DUP5 ADD MLOAD PUSH1 0x17 DUP5 ADD SSTORE PUSH2 0x300 DUP5 ADD MLOAD PUSH1 0x18 DUP5 ADD SSTORE PUSH2 0x320 DUP5 ADD MLOAD PUSH1 0x19 DUP5 ADD SSTORE PUSH2 0x340 DUP5 ADD MLOAD PUSH1 0x1A DUP5 ADD SSTORE PUSH2 0x360 DUP5 ADD MLOAD PUSH1 0x1B DUP5 ADD SSTORE PUSH2 0x380 DUP5 ADD MLOAD PUSH1 0x1C DUP5 ADD SSTORE PUSH2 0x3A0 DUP5 ADD MLOAD PUSH1 0x1D DUP5 ADD SSTORE PUSH2 0x3C0 DUP5 ADD MLOAD PUSH1 0x1E DUP5 ADD SSTORE PUSH2 0x3E0 DUP5 ADD MLOAD PUSH1 0x1F DUP5 ADD SSTORE PUSH2 0x400 DUP5 ADD MLOAD SWAP2 DUP4 ADD SWAP2 SWAP1 SWAP2 SSTORE PUSH2 0x420 DUP4 ADD MLOAD PUSH1 0x21 DUP4 ADD SSTORE PUSH2 0x440 DUP4 ADD MLOAD PUSH1 0x22 DUP4 ADD SSTORE PUSH2 0x460 DUP4 ADD MLOAD PUSH1 0x23 DUP4 ADD SSTORE PUSH2 0x480 DUP4 ADD MLOAD PUSH1 0x24 DUP4 ADD SSTORE PUSH2 0x4A0 DUP4 ADD MLOAD PUSH1 0x25 DUP4 ADD SSTORE PUSH2 0x4C0 DUP4 ADD MLOAD PUSH1 0x26 DUP4 ADD SSTORE PUSH2 0x4E0 DUP4 ADD MLOAD PUSH1 0x27 DUP4 ADD SSTORE PUSH2 0x500 DUP4 ADD MLOAD PUSH1 0x28 DUP4 ADD SSTORE PUSH2 0x520 DUP4 ADD MLOAD PUSH1 0x29 DUP4 ADD SSTORE PUSH2 0x540 DUP4 ADD MLOAD PUSH1 0x2A DUP4 ADD SSTORE PUSH2 0x560 DUP4 ADD MLOAD PUSH1 0x2B DUP4 ADD SSTORE PUSH2 0x580 DUP4 ADD MLOAD PUSH1 0x2C DUP4 ADD SSTORE PUSH2 0x5A0 DUP4 ADD MLOAD PUSH1 0x2D DUP4 ADD SSTORE PUSH2 0x5C0 DUP4 ADD MLOAD PUSH1 0x2E DUP4 ADD SSTORE PUSH2 0x5E0 DUP4 ADD MLOAD PUSH1 0x2F DUP4 ADD SSTORE PUSH2 0x600 DUP4 ADD MLOAD PUSH1 0x30 DUP4 ADD SSTORE PUSH2 0x620 DUP4 ADD MLOAD PUSH1 0x31 DUP4 ADD SSTORE PUSH2 0x640 DUP4 ADD MLOAD PUSH1 0x32 SWAP1 SWAP3 ADD DUP1 SLOAD PUSH2 0x660 DUP6 ADD MLOAD PUSH2 0x680 DUP7 ADD MLOAD PUSH2 0x6A0 DUP8 ADD MLOAD PUSH2 0x6C0 DUP9 ADD MLOAD PUSH2 0x6E0 DUP10 ADD MLOAD PUSH2 0x700 DUP11 ADD MLOAD PUSH2 0x720 DUP12 ADD MLOAD PUSH2 0x740 SWAP1 SWAP12 ADD MLOAD PUSH2 0xFFFF NOT SWAP1 SWAP8 AND SWAP10 ISZERO ISZERO PUSH2 0xFF00 NOT AND SWAP10 SWAP1 SWAP10 OR SWAP5 ISZERO ISZERO SWAP1 SWAP8 MUL SWAP4 SWAP1 SWAP4 OR PUSH4 0xFFFF0000 NOT AND PUSH3 0x10000 SWAP3 ISZERO ISZERO SWAP3 SWAP1 SWAP3 MUL PUSH4 0xFF000000 NOT AND SWAP2 SWAP1 SWAP2 OR PUSH4 0x1000000 SWAP2 ISZERO ISZERO SWAP2 SWAP1 SWAP2 MUL OR PUSH6 0xFFFF00000000 NOT AND PUSH5 0x100000000 SWAP2 ISZERO ISZERO SWAP2 SWAP1 SWAP2 MUL PUSH6 0xFF0000000000 NOT AND OR PUSH1 0x1 PUSH1 0x28 SHL SWAP4 ISZERO ISZERO SWAP4 SWAP1 SWAP4 MUL SWAP3 SWAP1 SWAP3 OR PUSH8 0xFFFF000000000000 NOT AND PUSH1 0x1 PUSH1 0x30 SHL SWAP4 ISZERO ISZERO SWAP4 SWAP1 SWAP4 MUL PUSH1 0xFF PUSH1 0x38 SHL NOT AND SWAP3 SWAP1 SWAP3 OR PUSH1 0x1 PUSH1 0x38 SHL SWAP4 ISZERO ISZERO SWAP4 SWAP1 SWAP4 MUL SWAP3 SWAP1 SWAP3 OR PUSH1 0xFF PUSH1 0x40 SHL NOT AND PUSH1 0x1 PUSH1 0x40 SHL SWAP3 ISZERO ISZERO SWAP3 SWAP1 SWAP3 MUL SWAP2 SWAP1 SWAP2 OR SWAP1 SSTORE SWAP2 POP POP JUMPDEST SWAP5 SWAP4 POP POP POP POP JUMP JUMPDEST PUSH1 0x0 DUP2 DUP2 MSTORE PUSH1 0x2 PUSH1 0x20 MSTORE PUSH1 0x40 DUP2 KECCAK256 SLOAD PUSH1 0x1 PUSH1 0x1 PUSH1 0xA0 SHL SUB AND DUP1 PUSH2 0x420 JUMPI PUSH1 0x40 MLOAD PUSH3 0x461BCD PUSH1 0xE5 SHL DUP2 MSTORE PUSH1 0x20 PUSH1 0x4 DUP3 ADD MSTORE PUSH1 0x18 PUSH1 0x24 DUP3 ADD MSTORE PUSH24 0x115490CDCC8C4E881A5B9D985B1A59081D1BDAD95B881251 PUSH1 0x42 SHL PUSH1 0x44 DUP3 ADD MSTORE PUSH1 0x64 ADD PUSH2 0x553 JUMP JUMPDEST PUSH1 0x0 PUSH1 0x1 PUSH1 0x1 PUSH1 0xA0 SHL SUB DUP3 AND PUSH2 0xFF2 JUMPI PUSH1 0x40 MLOAD PUSH3 0x461BCD PUSH1 0xE5 SHL DUP2 MSTORE PUSH1 0x20 PUSH1 0x4 DUP3 ADD MSTORE PUSH1 0x29 PUSH1 0x24 DUP3 ADD MSTORE PUSH32 0x4552433732313A2061646472657373207A65726F206973206E6F742061207661 PUSH1 0x44 DUP3 ADD MSTORE PUSH9 0x3634B21037BBB732B9 PUSH1 0xB9 SHL PUSH1 0x64 DUP3 ADD MSTORE PUSH1 0x84 ADD PUSH2 0x553 JUMP JUMPDEST POP PUSH1 0x1 PUSH1 0x1 PUSH1 0xA0 SHL SUB AND PUSH1 0x0 SWAP1 DUP2 MSTORE PUSH1 0x3 PUSH1 0x20 MSTORE PUSH1 0x40 SWAP1 KECCAK256 SLOAD SWAP1 JUMP JUMPDEST PUSH1 0x7 PUSH1 0x20 MSTORE PUSH1 0x0 SWAP1 DUP2 MSTORE PUSH1 0x40 SWAP1 KECCAK256 DUP1 SLOAD PUSH2 0x1027 SWAP1 PUSH2 0x312D JUMP JUMPDEST DUP1 PUSH1 0x1F ADD PUSH1 0x20 DUP1 SWAP2 DIV MUL PUSH1 0x20 ADD PUSH1 0x40 MLOAD SWAP1 DUP2 ADD PUSH1 0x40 MSTORE DUP1 SWAP3 SWAP2 SWAP1 DUP2 DUP2 MSTORE PUSH1 0x20 ADD DUP3 DUP1 SLOAD PUSH2 0x1053 SWAP1 PUSH2 0x312D JUMP JUMPDEST DUP1 ISZERO PUSH2 0x10A0 JUMPI DUP1 PUSH1 0x1F LT PUSH2 0x1075 JUMPI PUSH2 0x100 DUP1 DUP4 SLOAD DIV MUL DUP4 MSTORE SWAP2 PUSH1 0x20 ADD SWAP2 PUSH2 0x10A0 JUMP JUMPDEST DUP3 ADD SWAP2 SWAP1 PUSH1 0x0 MSTORE PUSH1 0x20 PUSH1 0x0 KECCAK256 SWAP1 JUMPDEST DUP2 SLOAD DUP2 MSTORE SWAP1 PUSH1 0x1 ADD SWAP1 PUSH1 0x20 ADD DUP1 DUP4 GT PUSH2 0x1083 JUMPI DUP3 SWAP1 SUB PUSH1 0x1F AND DUP3 ADD SWAP2 JUMPDEST POP POP POP POP POP DUP2 JUMP JUMPDEST PUSH1 0x0 PUSH1 0x9 DUP4 DUP2 SLOAD DUP2 LT PUSH2 0x10BD JUMPI PUSH2 0x10BD PUSH2 0x31B4 JUMP JUMPDEST SWAP1 PUSH1 0x0 MSTORE PUSH1 0x20 PUSH1 0x0 KECCAK256 SWAP1 PUSH1 0x33 MUL ADD PUSH1 0x4 ADD SLOAD GT PUSH2 0x1111 JUMPI PUSH1 0x40 MLOAD PUSH3 0x461BCD PUSH1 0xE5 SHL DUP2 MSTORE PUSH1 0x20 PUSH1 0x4 DUP3 ADD MSTORE PUSH1 0x12 PUSH1 0x24 DUP3 ADD MSTORE PUSH18 0x125D195B48191BD95CDB89DD08195E1A5CDD PUSH1 0x72 SHL PUSH1 0x44 DUP3 ADD MSTORE PUSH1 0x64 ADD PUSH2 0x553 JUMP JUMPDEST PUSH2 0x111F PUSH1 0xA DUP1 SLOAD PUSH1 0x1 ADD SWAP1 SSTORE JUMP JUMPDEST PUSH1 0x0 PUSH2 0x112A PUSH1 0xA SLOAD SWAP1 JUMP JUMPDEST SWAP1 POP PUSH2 0x1136 CALLER DUP3 PUSH2 0x22EF JUMP JUMPDEST PUSH2 0x14B1 DUP2 PUSH1 0x9 DUP6 DUP2 SLOAD DUP2 LT PUSH2 0x114D JUMPI PUSH2 0x114D PUSH2 0x31B4 JUMP JUMPDEST SWAP1 PUSH1 0x0 MSTORE PUSH1 0x20 PUSH1 0x0 KECCAK256 SWAP1 PUSH1 0x33 MUL ADD PUSH1 0x40 MLOAD DUP1 PUSH2 0x760 ADD PUSH1 0x40 MSTORE SWAP1 DUP2 PUSH1 0x0 DUP3 ADD DUP1 SLOAD PUSH2 0x1177 SWAP1 PUSH2 0x312D JUMP JUMPDEST DUP1 PUSH1 0x1F ADD PUSH1 0x20 DUP1 SWAP2 DIV MUL PUSH1 0x20 ADD PUSH1 0x40 MLOAD SWAP1 DUP2 ADD PUSH1 0x40 MSTORE DUP1 SWAP3 SWAP2 SWAP1 DUP2 DUP2 MSTORE PUSH1 0x20 ADD DUP3 DUP1 SLOAD PUSH2 0x11A3 SWAP1 PUSH2 0x312D JUMP JUMPDEST DUP1 ISZERO PUSH2 0x11F0 JUMPI DUP1 PUSH1 0x1F LT PUSH2 0x11C5 JUMPI PUSH2 0x100 DUP1 DUP4 SLOAD DIV MUL DUP4 MSTORE SWAP2 PUSH1 0x20 ADD SWAP2 PUSH2 0x11F0 JUMP JUMPDEST DUP3 ADD SWAP2 SWAP1 PUSH1 0x0 MSTORE PUSH1 0x20 PUSH1 0x0 KECCAK256 SWAP1 JUMPDEST DUP2 SLOAD DUP2 MSTORE SWAP1 PUSH1 0x1 ADD SWAP1 PUSH1 0x20 ADD DUP1 DUP4 GT PUSH2 0x11D3 JUMPI DUP3 SWAP1 SUB PUSH1 0x1F AND DUP3 ADD SWAP2 JUMPDEST POP POP POP SWAP2 DUP4 MSTORE POP POP PUSH1 0x1 DUP3 ADD SLOAD PUSH1 0x20 DUP1 DUP4 ADD SWAP2 SWAP1 SWAP2 MSTORE PUSH1 0x2 DUP4 ADD SLOAD PUSH1 0x40 DUP4 ADD MSTORE PUSH1 0x3 DUP4 ADD SLOAD PUSH1 0x60 DUP4 ADD MSTORE PUSH1 0x4 DUP4 ADD SLOAD PUSH1 0x80 DUP4 ADD MSTORE PUSH1 0x5 DUP4 ADD SLOAD PUSH1 0xA0 DUP4 ADD MSTORE PUSH1 0x6 DUP4 ADD SLOAD PUSH1 0xC0 DUP4 ADD MSTORE PUSH1 0x7 DUP4 ADD SLOAD PUSH1 0xE0 DUP4 ADD MSTORE PUSH1 0x8 DUP4 ADD SLOAD PUSH2 0x100 DUP1 DUP5 ADD SWAP2 SWAP1 SWAP2 MSTORE PUSH1 0x9 DUP5 ADD SLOAD PUSH2 0x120 DUP5 ADD MSTORE PUSH1 0xA DUP5 ADD SLOAD PUSH2 0x140 DUP5 ADD MSTORE PUSH1 0xB DUP5 ADD SLOAD PUSH2 0x160 DUP5 ADD MSTORE PUSH1 0xC DUP5 ADD SLOAD PUSH2 0x180 DUP5 ADD MSTORE PUSH1 0xD DUP5 ADD SLOAD PUSH2 0x1A0 DUP5 ADD MSTORE PUSH1 0xE DUP5 ADD SLOAD PUSH2 0x1C0 DUP5 ADD MSTORE PUSH1 0xF DUP5 ADD SLOAD PUSH2 0x1E0 DUP5 ADD MSTORE PUSH1 0x10 DUP5 ADD SLOAD PUSH2 0x200 DUP5 ADD MSTORE PUSH1 0x11 DUP5 ADD SLOAD PUSH2 0x220 DUP5 ADD MSTORE PUSH1 0x12 DUP5 ADD SLOAD PUSH2 0x240 DUP5 ADD MSTORE PUSH1 0x13 DUP5 ADD SLOAD PUSH2 0x260 DUP5 ADD MSTORE PUSH1 0x14 DUP5 ADD SLOAD PUSH2 0x280 DUP5 ADD MSTORE PUSH1 0x15 DUP5 ADD SLOAD PUSH2 0x2A0 DUP5 ADD MSTORE PUSH1 0x16 DUP5 ADD SLOAD PUSH2 0x2C0 DUP5 ADD MSTORE PUSH1 0x17 DUP5 ADD SLOAD PUSH2 0x2E0 DUP5 ADD MSTORE PUSH1 0x18 DUP5 ADD SLOAD PUSH2 0x300 DUP5 ADD MSTORE PUSH1 0x19 DUP5 ADD SLOAD PUSH2 0x320 DUP5 ADD MSTORE PUSH1 0x1A DUP5 ADD SLOAD PUSH2 0x340 DUP5 ADD MSTORE PUSH1 0x1B DUP5 ADD SLOAD PUSH2 0x360 DUP5 ADD MSTORE PUSH1 0x1C DUP5 ADD SLOAD PUSH2 0x380 DUP5 ADD MSTORE PUSH1 0x1D DUP5 ADD SLOAD PUSH2 0x3A0 DUP5 ADD MSTORE PUSH1 0x1E DUP5 ADD SLOAD PUSH2 0x3C0 DUP5 ADD MSTORE PUSH1 0x1F DUP5 ADD SLOAD PUSH2 0x3E0 DUP5 ADD MSTORE SWAP1 DUP4 ADD SLOAD PUSH2 0x400 DUP4 ADD MSTORE PUSH1 0x21 DUP4 ADD SLOAD PUSH2 0x420 DUP4 ADD MSTORE PUSH1 0x22 DUP4 ADD SLOAD PUSH2 0x440 DUP4 ADD MSTORE PUSH1 0x23 DUP4 ADD SLOAD PUSH2 0x460 DUP4 ADD MSTORE PUSH1 0x24 DUP4 ADD SLOAD PUSH2 0x480 DUP4 ADD MSTORE PUSH1 0x25 DUP4 ADD SLOAD PUSH2 0x4A0 DUP4 ADD MSTORE PUSH1 0x26 DUP4 ADD SLOAD PUSH2 0x4C0 DUP4 ADD MSTORE PUSH1 0x27 DUP4 ADD SLOAD PUSH2 0x4E0 DUP4 ADD MSTORE PUSH1 0x28 DUP4 ADD SLOAD PUSH2 0x500 DUP4 ADD MSTORE PUSH1 0x29 DUP4 ADD SLOAD PUSH2 0x520 DUP4 ADD MSTORE PUSH1 0x2A DUP4 ADD SLOAD PUSH2 0x540 DUP4 ADD MSTORE PUSH1 0x2B DUP4 ADD SLOAD PUSH2 0x560 DUP4 ADD MSTORE PUSH1 0x2C DUP4 ADD SLOAD PUSH2 0x580 DUP4 ADD MSTORE PUSH1 0x2D DUP4 ADD SLOAD PUSH2 0x5A0 DUP4 ADD MSTORE PUSH1 0x2E DUP4 ADD SLOAD PUSH2 0x5C0 DUP4 ADD MSTORE PUSH1 0x2F DUP4 ADD SLOAD PUSH2 0x5E0 DUP4 ADD MSTORE PUSH1 0x30 DUP4 ADD SLOAD PUSH2 0x600 DUP4 ADD MSTORE PUSH1 0x31 DUP4 ADD SLOAD PUSH2 0x620 DUP4 ADD MSTORE PUSH1 0x32 SWAP1 SWAP3 ADD SLOAD PUSH1 0xFF DUP1 DUP3 AND ISZERO ISZERO PUSH2 0x640 DUP5 ADD MSTORE SWAP3 DUP2 DIV DUP4 AND ISZERO ISZERO PUSH2 0x660 DUP4 ADD MSTORE PUSH3 0x10000 DUP2 DIV DUP4 AND ISZERO ISZERO PUSH2 0x680 DUP4 ADD MSTORE PUSH4 0x1000000 DUP2 DIV DUP4 AND ISZERO ISZERO PUSH2 0x6A0 DUP4 ADD MSTORE PUSH5 0x100000000 DUP2 DIV DUP4 AND ISZERO ISZERO PUSH2 0x6C0 DUP4 ADD MSTORE PUSH1 0x1 PUSH1 0x28 SHL DUP2 DIV DUP4 AND ISZERO ISZERO PUSH2 0x6E0 DUP4 ADD MSTORE PUSH1 0x1 PUSH1 0x30 SHL DUP2 DIV DUP4 AND ISZERO ISZERO PUSH2 0x700 DUP4 ADD MSTORE PUSH1 0x1 PUSH1 0x38 SHL DUP2 DIV DUP4 AND ISZERO ISZERO PUSH2 0x720 DUP4 ADD MSTORE PUSH1 0x1 PUSH1 0x40 SHL SWAP1 DIV SWAP1 SWAP2 AND ISZERO ISZERO PUSH2 0x740 SWAP1 SWAP2 ADD MSTORE PUSH2 0x2309 JUMP JUMPDEST PUSH1 0x0 DUP2 DUP2 MSTORE PUSH1 0x8 PUSH1 0x20 MSTORE PUSH1 0x40 SWAP1 DUP2 SWAP1 KECCAK256 PUSH1 0x1 DUP2 ADD DUP4 SWAP1 SSTORE SWAP1 MLOAD PUSH32 0x78CB587A56A0DC7913EC51993EB7F7BF182FCA207BD1460930BC912747387EDD SWAP2 PUSH2 0x14FC SWAP2 DUP5 SWAP2 DUP8 SWAP2 CALLER SWAP2 SWAP1 PUSH2 0x32F3 JUMP JUMPDEST PUSH1 0x40 MLOAD DUP1 SWAP2 SUB SWAP1 LOG1 POP POP POP JUMP JUMPDEST PUSH1 0x0 DUP2 DUP2 MSTORE PUSH1 0x2 PUSH1 0x20 MSTORE PUSH1 0x40 DUP2 KECCAK256 SLOAD PUSH1 0x1 PUSH1 0x1 PUSH1 0xA0 SHL SUB AND PUSH2 0x1564 JUMPI PUSH1 0x40 MLOAD PUSH3 0x461BCD PUSH1 0xE5 SHL DUP2 MSTORE PUSH1 0x20 PUSH1 0x4 DUP3 ADD MSTORE PUSH1 0x14 PUSH1 0x24 DUP3 ADD MSTORE PUSH20 0x151BDAD95B88191BD95CC81B9BDD08195E1A5CDD PUSH1 0x62 SHL PUSH1 0x44 DUP3 ADD MSTORE PUSH1 0x64 ADD PUSH2 0x553 JUMP JUMPDEST PUSH1 0x0 DUP3 DUP2 MSTORE PUSH1 0x8 PUSH1 0x20 MSTORE PUSH1 0x40 SWAP1 KECCAK256 PUSH1 0x32 ADD SLOAD PUSH3 0x10000 SWAP1 DIV PUSH1 0xFF AND PUSH2 0x15B7 JUMPI PUSH1 0x40 MLOAD PUSH3 0x461BCD PUSH1 0xE5 SHL DUP2 MSTORE PUSH1 0x20 PUSH1 0x4 DUP3 ADD MSTORE PUSH1 0x9 PUSH1 0x24 DUP3 ADD MSTORE PUSH9 0x9CDEE840C240C4DEF PUSH1 0xBB SHL PUSH1 0x44 DUP3 ADD MSTORE PUSH1 0x64 ADD PUSH2 0x553 JUMP JUMPDEST PUSH1 0x0 DUP3 DUP2 MSTORE PUSH1 0x8 PUSH1 0x20 SWAP1 DUP2 MSTORE PUSH1 0x40 DUP1 DUP4 KECCAK256 PUSH1 0x2 SWAP1 DUP2 ADD SLOAD DUP1 DUP6 MSTORE PUSH1 0x3E DUP5 MSTORE DUP3 DUP6 KECCAK256 DUP4 MLOAD PUSH2 0x120 DUP2 ADD DUP6 MSTORE DUP2 SLOAD DUP2 MSTORE PUSH1 0x1 DUP3 ADD SLOAD DUP2 DUP8 ADD MSTORE SWAP3 DUP2 ADD DUP1 SLOAD DUP6 MLOAD DUP2 DUP9 MUL DUP2 ADD DUP9 ADD DUP8 MSTORE DUP2 DUP2 MSTORE SWAP4 SWAP8 SWAP7 SWAP5 SWAP6 SWAP3 SWAP5 SWAP3 DUP7 ADD SWAP4 SWAP3 DUP4 ADD DUP3 DUP3 DUP1 ISZERO PUSH2 0x163C JUMPI PUSH1 0x20 MUL DUP3 ADD SWAP2 SWAP1 PUSH1 0x0 MSTORE PUSH1 0x20 PUSH1 0x0 KECCAK256 SWAP1 JUMPDEST DUP2 SLOAD DUP2 MSTORE PUSH1 0x20 ADD SWAP1 PUSH1 0x1 ADD SWAP1 DUP1 DUP4 GT PUSH2 0x1628 JUMPI JUMPDEST POP POP POP POP POP DUP2 MSTORE PUSH1 0x20 ADD PUSH1 0x3 DUP3 ADD SLOAD DUP2 MSTORE PUSH1 0x20 ADD PUSH1 0x4 DUP3 ADD DUP1 SLOAD DUP1 PUSH1 0x20 MUL PUSH1 0x20 ADD PUSH1 0x40 MLOAD SWAP1 DUP2 ADD PUSH1 0x40 MSTORE DUP1 SWAP3 SWAP2 SWAP1 DUP2 DUP2 MSTORE PUSH1 0x20 ADD DUP3 DUP1 SLOAD DUP1 ISZERO PUSH2 0x169E JUMPI PUSH1 0x20 MUL DUP3 ADD SWAP2 SWAP1 PUSH1 0x0 MSTORE PUSH1 0x20 PUSH1 0x0 KECCAK256 SWAP1 JUMPDEST DUP2 SLOAD DUP2 MSTORE PUSH1 0x20 ADD SWAP1 PUSH1 0x1 ADD SWAP1 DUP1 DUP4 GT PUSH2 0x168A JUMPI JUMPDEST POP POP POP POP POP DUP2 MSTORE PUSH1 0x20 ADD PUSH1 0x5 DUP3 ADD SLOAD DUP2 MSTORE PUSH1 0x20 ADD PUSH1 0x6 DUP3 ADD DUP1 SLOAD DUP1 PUSH1 0x20 MUL PUSH1 0x20 ADD PUSH1 0x40 MLOAD SWAP1 DUP2 ADD PUSH1 0x40 MSTORE DUP1 SWAP3 SWAP2 SWAP1 DUP2 DUP2 MSTORE PUSH1 0x20 ADD DUP3 DUP1 SLOAD DUP1 ISZERO PUSH2 0x1700 JUMPI PUSH1 0x20 MUL DUP3 ADD SWAP2 SWAP1 PUSH1 0x0 MSTORE PUSH1 0x20 PUSH1 0x0 KECCAK256 SWAP1 JUMPDEST DUP2 SLOAD DUP2 MSTORE PUSH1 0x20 ADD SWAP1 PUSH1 0x1 ADD SWAP1 DUP1 DUP4 GT PUSH2 0x16EC JUMPI JUMPDEST POP POP POP POP POP DUP2 MSTORE PUSH1 0x20 ADD PUSH1 0x7 DUP3 ADD SLOAD DUP2 MSTORE PUSH1 0x20 ADD PUSH1 0x8 DUP3 ADD DUP1 SLOAD DUP1 PUSH1 0x20 MUL PUSH1 0x20 ADD PUSH1 0x40 MLOAD SWAP1 DUP2 ADD PUSH1 0x40 MSTORE DUP1 SWAP3 SWAP2 SWAP1 DUP2 DUP2 MSTORE PUSH1 0x20 ADD DUP3 DUP1 SLOAD DUP1 ISZERO PUSH2 0x1762 JUMPI PUSH1 0x20 MUL DUP3 ADD SWAP2 SWAP1 PUSH1 0x0 MSTORE PUSH1 0x20 PUSH1 0x0 KECCAK256 SWAP1 JUMPDEST DUP2 SLOAD DUP2 MSTORE PUSH1 0x20 ADD SWAP1 PUSH1 0x1 ADD SWAP1 DUP1 DUP4 GT PUSH2 0x174E JUMPI JUMPDEST POP POP POP POP POP DUP2 MSTORE POP POP SWAP1 POP PUSH1 0x0 PUSH2 0x1791 DUP3 PUSH1 0x20 ADD MLOAD PUSH2 0x31B DUP5 PUSH1 0x60 ADD MLOAD PUSH2 0x31B DUP7 PUSH1 0xA0 ADD MLOAD DUP8 PUSH1 0xE0 ADD MLOAD PUSH2 0x1C56 JUMP JUMPDEST SWAP1 POP PUSH1 0x0 PUSH2 0x179D PUSH2 0x26A0 JUMP JUMPDEST SWAP1 POP PUSH1 0x0 DUP1 DUP1 PUSH1 0x0 DUP1 DUP7 DUP7 GT PUSH2 0x183C JUMPI DUP8 PUSH1 0x20 ADD MLOAD DUP7 GT PUSH2 0x17D0 JUMPI PUSH1 0x1 SWAP4 POP PUSH2 0x17C9 DUP9 PUSH1 0x40 ADD MLOAD PUSH2 0x26B7 JUMP JUMPDEST SWAP5 POP PUSH2 0x184D JUMP JUMPDEST PUSH2 0x17E2 DUP9 PUSH1 0x20 ADD MLOAD DUP10 PUSH1 0x60 ADD MLOAD PUSH2 0x1C56 JUMP JUMPDEST DUP7 GT PUSH2 0x17F9 JUMPI PUSH1 0x1 SWAP3 POP PUSH2 0x17C9 DUP9 PUSH1 0x80 ADD MLOAD PUSH2 0x26B7 JUMP JUMPDEST PUSH2 0x1813 DUP9 PUSH1 0xA0 ADD MLOAD PUSH2 0x31B DUP11 PUSH1 0x20 ADD MLOAD DUP12 PUSH1 0x60 ADD MLOAD PUSH2 0x1C56 JUMP JUMPDEST DUP7 GT PUSH2 0x182A JUMPI PUSH1 0x1 SWAP2 POP PUSH2 0x17C9 DUP9 PUSH1 0xC0 ADD MLOAD PUSH2 0x26B7 JUMP JUMPDEST PUSH1 0x1 SWAP1 POP PUSH2 0x17C9 DUP9 PUSH2 0x100 ADD MLOAD PUSH2 0x26B7 JUMP JUMPDEST POP PUSH1 0x0 SWAP11 SWAP10 POP POP POP POP POP POP POP POP POP POP JUMP JUMPDEST PUSH2 0x185B PUSH1 0xA DUP1 SLOAD PUSH1 0x1 ADD SWAP1 SSTORE JUMP JUMPDEST PUSH1 0x0 PUSH2 0x1866 PUSH1 0xA SLOAD SWAP1 JUMP JUMPDEST SWAP1 POP PUSH2 0x1872 CALLER DUP3 PUSH2 0x22EF JUMP JUMPDEST PUSH2 0x1889 DUP2 PUSH1 0x9 DUP9 DUP2 SLOAD DUP2 LT PUSH2 0x114D JUMPI PUSH2 0x114D PUSH2 0x31B4 JUMP JUMPDEST PUSH1 0x0 DUP2 DUP2 MSTORE PUSH1 0x8 PUSH1 0x20 SWAP1 DUP2 MSTORE PUSH1 0x40 SWAP2 DUP3 SWAP1 KECCAK256 PUSH1 0x1 ADD DUP4 SWAP1 SSTORE DUP2 MLOAD CALLER DUP2 MSTORE SWAP1 DUP2 ADD DUP4 SWAP1 MSTORE PUSH32 0xCA303F21E08537B41000F97158DE2EBCA16244CB81143C3D691B410B0A2B8A4C SWAP2 ADD PUSH1 0x40 MLOAD DUP1 SWAP2 SUB SWAP1 LOG1 SWAP12 SWAP11 POP POP POP POP POP POP POP POP POP POP POP JUMP JUMPDEST PUSH1 0x60 PUSH1 0x1 DUP1 SLOAD PUSH2 0x435 SWAP1 PUSH2 0x312D JUMP JUMPDEST PUSH2 0x1900 CALLER DUP4 DUP4 PUSH2 0x26F3 JUMP JUMPDEST POP POP JUMP JUMPDEST PUSH1 0x0 DUP3 DUP3 GT ISZERO PUSH2 0x1916 JUMPI PUSH2 0x1916 PUSH2 0x339C JUMP JUMPDEST PUSH2 0x1920 DUP3 DUP5 PUSH2 0x33C8 JUMP JUMPDEST SWAP4 SWAP3 POP POP POP JUMP JUMPDEST PUSH1 0x0 PUSH1 0x40 MLOAD DUP1 PUSH2 0x120 ADD PUSH1 0x40 MSTORE DUP1 DUP13 DUP2 MSTORE PUSH1 0x20 ADD DUP12 PUSH1 0x0 PUSH1 0x4 DUP2 LT PUSH2 0x194E JUMPI PUSH2 0x194E PUSH2 0x31B4 JUMP JUMPDEST PUSH1 0x20 MUL ADD CALLDATALOAD DUP2 MSTORE PUSH1 0x20 ADD DUP11 DUP11 DUP1 DUP1 PUSH1 0x20 MUL PUSH1 0x20 ADD PUSH1 0x40 MLOAD SWAP1 DUP2 ADD PUSH1 0x40 MSTORE DUP1 SWAP4 SWAP3 SWAP2 SWAP1 DUP2 DUP2 MSTORE PUSH1 0x20 ADD DUP4 DUP4 PUSH1 0x20 MUL DUP1 DUP3 DUP5 CALLDATACOPY PUSH1 0x0 SWAP3 ADD SWAP2 SWAP1 SWAP2 MSTORE POP POP POP SWAP1 DUP3 MSTORE POP PUSH1 0x20 ADD DUP12 PUSH1 0x1 PUSH1 0x20 MUL ADD CALLDATALOAD DUP2 MSTORE PUSH1 0x20 ADD DUP9 DUP9 DUP1 DUP1 PUSH1 0x20 MUL PUSH1 0x20 ADD PUSH1 0x40 MLOAD SWAP1 DUP2 ADD PUSH1 0x40 MSTORE DUP1 SWAP4 SWAP3 SWAP2 SWAP1 DUP2 DUP2 MSTORE PUSH1 0x20 ADD DUP4 DUP4 PUSH1 0x20 MUL DUP1 DUP3 DUP5 CALLDATACOPY PUSH1 0x0 SWAP3 ADD SWAP2 SWAP1 SWAP2 MSTORE POP POP POP SWAP1 DUP3 MSTORE POP PUSH1 0x20 ADD DUP12 PUSH1 0x2 PUSH1 0x20 MUL ADD CALLDATALOAD DUP2 MSTORE PUSH1 0x20 ADD DUP7 DUP7 DUP1 DUP1 PUSH1 0x20 MUL PUSH1 0x20 ADD PUSH1 0x40 MLOAD SWAP1 DUP2 ADD PUSH1 0x40 MSTORE DUP1 SWAP4 SWAP3 SWAP2 SWAP1 DUP2 DUP2 MSTORE PUSH1 0x20 ADD DUP4 DUP4 PUSH1 0x20 MUL DUP1 DUP3 DUP5 CALLDATACOPY PUSH1 0x0 SWAP3 ADD SWAP2 SWAP1 SWAP2 MSTORE POP POP POP SWAP1 DUP3 MSTORE POP PUSH1 0x20 ADD DUP12 PUSH1 0x3 PUSH1 0x20 MUL ADD CALLDATALOAD DUP2 MSTORE PUSH1 0x20 ADD DUP5 DUP5 DUP1 DUP1 PUSH1 0x20 MUL PUSH1 0x20 ADD PUSH1 0x40 MLOAD SWAP1 DUP2 ADD PUSH1 0x40 MSTORE DUP1 SWAP4 SWAP3 SWAP2 SWAP1 DUP2 DUP2 MSTORE PUSH1 0x20 ADD DUP4 DUP4 PUSH1 0x20 MUL DUP1 DUP3 DUP5 CALLDATACOPY PUSH1 0x0 SWAP3 ADD DUP3 SWAP1 MSTORE POP SWAP4 SWAP1 SWAP5 MSTORE POP POP DUP14 DUP2 MSTORE PUSH1 0x3E PUSH1 0x20 SWAP1 DUP2 MSTORE PUSH1 0x40 SWAP2 DUP3 SWAP1 KECCAK256 DUP5 MLOAD DUP2 SSTORE DUP2 DUP6 ADD MLOAD PUSH1 0x1 DUP3 ADD SSTORE SWAP2 DUP5 ADD MLOAD DUP1 MLOAD SWAP5 SWAP6 POP DUP6 SWAP5 SWAP3 SWAP4 POP PUSH2 0x1A9D SWAP3 PUSH1 0x2 DUP6 ADD SWAP3 SWAP2 SWAP1 SWAP2 ADD SWAP1 PUSH2 0x2C1B JUMP JUMPDEST POP PUSH1 0x60 DUP3 ADD MLOAD PUSH1 0x3 DUP3 ADD SSTORE PUSH1 0x80 DUP3 ADD MLOAD DUP1 MLOAD PUSH2 0x1AC3 SWAP2 PUSH1 0x4 DUP5 ADD SWAP2 PUSH1 0x20 SWAP1 SWAP2 ADD SWAP1 PUSH2 0x2C1B JUMP JUMPDEST POP PUSH1 0xA0 DUP3 ADD MLOAD PUSH1 0x5 DUP3 ADD SSTORE PUSH1 0xC0 DUP3 ADD MLOAD DUP1 MLOAD PUSH2 0x1AE9 SWAP2 PUSH1 0x6 DUP5 ADD SWAP2 PUSH1 0x20 SWAP1 SWAP2 ADD SWAP1 PUSH2 0x2C1B JUMP JUMPDEST POP PUSH1 0xE0 DUP3 ADD MLOAD PUSH1 0x7 DUP3 ADD SSTORE PUSH2 0x100 DUP3 ADD MLOAD DUP1 MLOAD PUSH2 0x1B10 SWAP2 PUSH1 0x8 DUP5 ADD SWAP2 PUSH1 0x20 SWAP1 SWAP2 ADD SWAP1 PUSH2 0x2C1B JUMP JUMPDEST POP POP PUSH1 0x40 DUP1 MLOAD DUP14 DUP2 MSTORE DUP13 CALLDATALOAD PUSH1 0x20 DUP3 DUP2 ADD SWAP2 SWAP1 SWAP2 MSTORE DUP14 ADD CALLDATALOAD DUP2 DUP4 ADD MSTORE SWAP1 DUP13 ADD CALLDATALOAD PUSH1 0x60 DUP1 DUP4 ADD SWAP2 SWAP1 SWAP2 MSTORE DUP13 ADD CALLDATALOAD PUSH1 0x80 DUP3 ADD MSTORE PUSH32 0x86F382A6BC7E045486AF422EB9E8F96528C8A6C437F0088461C6879F4C80FED9 SWAP2 POP PUSH1 0xA0 ADD PUSH1 0x40 MLOAD DUP1 SWAP2 SUB SWAP1 LOG1 POP POP POP POP POP POP POP POP POP POP POP JUMP JUMPDEST PUSH2 0x1B85 CALLER DUP4 PUSH2 0x210D JUMP JUMPDEST PUSH2 0x1BA1 JUMPI PUSH1 0x40 MLOAD PUSH3 0x461BCD PUSH1 0xE5 SHL DUP2 MSTORE PUSH1 0x4 ADD PUSH2 0x553 SWAP1 PUSH2 0x3167 JUMP JUMPDEST PUSH2 0x1BAD DUP5 DUP5 DUP5 DUP5 PUSH2 0x27C1 JUMP JUMPDEST POP POP POP POP JUMP JUMPDEST PUSH1 0x60 PUSH2 0x1BBE DUP3 PUSH2 0x203D JUMP JUMPDEST PUSH1 0x0 PUSH2 0x1BD5 PUSH1 0x40 DUP1 MLOAD PUSH1 0x20 DUP2 ADD SWAP1 SWAP2 MSTORE PUSH1 0x0 DUP2 MSTORE SWAP1 JUMP JUMPDEST SWAP1 POP PUSH1 0x0 DUP2 MLOAD GT PUSH2 0x1BF5 JUMPI PUSH1 0x40 MLOAD DUP1 PUSH1 0x20 ADD PUSH1 0x40 MSTORE DUP1 PUSH1 0x0 DUP2 MSTORE POP PUSH2 0x1920 JUMP JUMPDEST DUP1 PUSH2 0x1BFF DUP5 PUSH2 0x27F4 JUMP JUMPDEST PUSH1 0x40 MLOAD PUSH1 0x20 ADD PUSH2 0x1C10 SWAP3 SWAP2 SWAP1 PUSH2 0x33DB JUMP JUMPDEST PUSH1 0x40 MLOAD PUSH1 0x20 DUP2 DUP4 SUB SUB DUP2 MSTORE SWAP1 PUSH1 0x40 MSTORE SWAP4 SWAP3 POP POP POP JUMP JUMPDEST PUSH1 0x0 DUP1 PUSH2 0x1C33 DUP4 DUP6 PUSH2 0x340A JUMP JUMPDEST SWAP1 POP DUP4 ISZERO DUP1 PUSH2 0x1C4A JUMPI POP DUP3 PUSH2 0x1C48 DUP6 DUP4 PUSH2 0x3437 JUMP JUMPDEST EQ JUMPDEST PUSH2 0x1920 JUMPI PUSH2 0x1920 PUSH2 0x339C JUMP JUMPDEST PUSH1 0x0 DUP1 PUSH2 0x1C63 DUP4 DUP6 PUSH2 0x344B JUMP JUMPDEST SWAP1 POP DUP4 DUP2 LT ISZERO DUP1 ISZERO PUSH2 0x1C4A JUMPI POP DUP3 DUP2 LT ISZERO PUSH2 0x1920 JUMPI PUSH2 0x1920 PUSH2 0x339C JUMP JUMPDEST PUSH1 0x0 PUSH2 0x1C8D PUSH1 0x32 DUP4 PUSH2 0x3437 JUMP JUMPDEST SWAP1 POP PUSH2 0x1C9D PUSH1 0xA DUP1 SLOAD PUSH1 0x1 ADD SWAP1 SSTORE JUMP JUMPDEST PUSH1 0x0 PUSH2 0x1CA8 PUSH1 0xA SLOAD SWAP1 JUMP JUMPDEST SWAP1 POP PUSH2 0x1CB4 DUP5 DUP3 PUSH2 0x22EF JUMP JUMPDEST PUSH1 0x0 PUSH1 0xB PUSH1 0x40 MLOAD DUP1 PUSH2 0x760 ADD PUSH1 0x40 MSTORE SWAP1 DUP2 PUSH1 0x0 DUP3 ADD DUP1 SLOAD PUSH2 0x1CD4 SWAP1 PUSH2 0x312D JUMP JUMPDEST DUP1 PUSH1 0x1F ADD PUSH1 0x20 DUP1 SWAP2 DIV MUL PUSH1 0x20 ADD PUSH1 0x40 MLOAD SWAP1 DUP2 ADD PUSH1 0x40 MSTORE DUP1 SWAP3 SWAP2 SWAP1 DUP2 DUP2 MSTORE PUSH1 0x20 ADD DUP3 DUP1 SLOAD PUSH2 0x1D00 SWAP1 PUSH2 0x312D JUMP JUMPDEST DUP1 ISZERO PUSH2 0x1D4D JUMPI DUP1 PUSH1 0x1F LT PUSH2 0x1D22 JUMPI PUSH2 0x100 DUP1 DUP4 SLOAD DIV MUL DUP4 MSTORE SWAP2 PUSH1 0x20 ADD SWAP2 PUSH2 0x1D4D JUMP JUMPDEST DUP3 ADD SWAP2 SWAP1 PUSH1 0x0 MSTORE PUSH1 0x20 PUSH1 0x0 KECCAK256 SWAP1 JUMPDEST DUP2 SLOAD DUP2 MSTORE SWAP1 PUSH1 0x1 ADD SWAP1 PUSH1 0x20 ADD DUP1 DUP4 GT PUSH2 0x1D30 JUMPI DUP3 SWAP1 SUB PUSH1 0x1F AND DUP3 ADD SWAP2 JUMPDEST POP POP POP SWAP2 DUP4 MSTORE POP POP PUSH1 0x1 DUP3 ADD SLOAD PUSH1 0x20 DUP1 DUP4 ADD SWAP2 SWAP1 SWAP2 MSTORE PUSH1 0x2 DUP4 ADD SLOAD PUSH1 0x40 DUP1 DUP5 ADD SWAP2 SWAP1 SWAP2 MSTORE PUSH1 0x3 DUP5 ADD SLOAD PUSH1 0x60 DUP5 ADD MSTORE PUSH1 0x4 DUP5 ADD SLOAD PUSH1 0x80 DUP5 ADD MSTORE PUSH1 0x5 DUP5 ADD SLOAD PUSH1 0xA0 DUP5 ADD MSTORE PUSH1 0x6 DUP5 ADD SLOAD PUSH1 0xC0 DUP5 ADD MSTORE PUSH1 0x7 DUP5 ADD SLOAD PUSH1 0xE0 DUP5 ADD MSTORE PUSH1 0x8 DUP5 ADD SLOAD PUSH2 0x100 DUP1 DUP6 ADD SWAP2 SWAP1 SWAP2 MSTORE PUSH1 0x9 DUP6 ADD SLOAD PUSH2 0x120 DUP6 ADD MSTORE PUSH1 0xA DUP6 ADD SLOAD PUSH2 0x140 DUP6 ADD MSTORE PUSH1 0xB DUP1 DUP7 ADD SLOAD PUSH2 0x160 DUP7 ADD MSTORE PUSH1 0xC DUP7 ADD SLOAD PUSH2 0x180 DUP7 ADD MSTORE PUSH1 0xD DUP1 DUP8 ADD SLOAD PUSH2 0x1A0 DUP8 ADD MSTORE PUSH1 0xE DUP8 ADD SLOAD PUSH2 0x1C0 DUP8 ADD MSTORE PUSH1 0xF DUP8 ADD SLOAD PUSH2 0x1E0 DUP8 ADD MSTORE PUSH1 0x10 DUP8 ADD SLOAD PUSH2 0x200 DUP8 ADD MSTORE PUSH1 0x11 DUP8 ADD SLOAD PUSH2 0x220 DUP8 ADD MSTORE PUSH1 0x12 DUP8 ADD SLOAD PUSH2 0x240 DUP8 ADD MSTORE PUSH1 0x13 DUP8 ADD SLOAD PUSH2 0x260 DUP8 ADD MSTORE PUSH1 0x14 DUP8 ADD SLOAD PUSH2 0x280 DUP8 ADD MSTORE PUSH1 0x15 DUP8 ADD SLOAD PUSH2 0x2A0 DUP8 ADD MSTORE PUSH1 0x16 DUP8 ADD SLOAD PUSH2 0x2C0 DUP8 ADD MSTORE PUSH1 0x17 DUP8 ADD SLOAD PUSH2 0x2E0 DUP8 ADD MSTORE PUSH1 0x18 DUP8 ADD SLOAD PUSH2 0x300 DUP8 ADD MSTORE PUSH1 0x19 DUP8 ADD SLOAD PUSH2 0x320 DUP8 ADD MSTORE PUSH1 0x1A DUP8 ADD SLOAD PUSH2 0x340 DUP8 ADD MSTORE PUSH1 0x1B DUP8 ADD SLOAD PUSH2 0x360 DUP8 ADD MSTORE PUSH1 0x1C DUP8 ADD SLOAD PUSH2 0x380 DUP8 ADD MSTORE PUSH1 0x1D DUP8 ADD SLOAD PUSH2 0x3A0 DUP8 ADD MSTORE PUSH1 0x1E DUP8 ADD SLOAD PUSH2 0x3C0 DUP8 ADD MSTORE PUSH1 0x1F DUP8 ADD SLOAD PUSH2 0x3E0 DUP8 ADD MSTORE SWAP4 DUP7 ADD SLOAD PUSH2 0x400 DUP7 ADD MSTORE PUSH1 0x21 DUP7 ADD SLOAD PUSH2 0x420 DUP7 ADD MSTORE PUSH1 0x22 DUP7 ADD SLOAD PUSH2 0x440 DUP7 ADD MSTORE PUSH1 0x23 DUP7 ADD SLOAD PUSH2 0x460 DUP7 ADD MSTORE PUSH1 0x24 DUP7 ADD SLOAD PUSH2 0x480 DUP7 ADD MSTORE PUSH1 0x25 DUP7 ADD SLOAD PUSH2 0x4A0 DUP7 ADD MSTORE PUSH1 0x26 DUP7 ADD SLOAD PUSH2 0x4C0 DUP7 ADD MSTORE PUSH1 0x27 DUP7 ADD SLOAD PUSH2 0x4E0 DUP7 ADD MSTORE PUSH1 0x28 DUP7 ADD SLOAD PUSH2 0x500 DUP7 ADD MSTORE PUSH1 0x29 DUP7 ADD SLOAD PUSH2 0x520 DUP7 ADD MSTORE PUSH1 0x2A DUP7 ADD SLOAD PUSH2 0x540 DUP7 ADD MSTORE PUSH1 0x2B DUP7 ADD SLOAD PUSH2 0x560 DUP7 ADD MSTORE PUSH1 0x2C DUP7 ADD SLOAD PUSH2 0x580 DUP7 ADD MSTORE PUSH1 0x2D DUP7 ADD SLOAD PUSH2 0x5A0 DUP7 ADD MSTORE PUSH1 0x2E DUP7 ADD SLOAD PUSH2 0x5C0 DUP7 ADD MSTORE PUSH1 0x2F DUP7 ADD SLOAD PUSH2 0x5E0 DUP7 ADD MSTORE PUSH1 0x30 DUP7 ADD SLOAD PUSH2 0x600 DUP7 ADD MSTORE PUSH1 0x31 DUP7 ADD SLOAD PUSH2 0x620 DUP7 ADD MSTORE PUSH1 0x32 SWAP1 SWAP6 ADD SLOAD PUSH1 0xFF DUP1 DUP3 AND ISZERO ISZERO PUSH2 0x640 DUP8 ADD MSTORE SWAP2 DUP2 DIV DUP3 AND ISZERO ISZERO PUSH2 0x660 DUP7 ADD MSTORE PUSH3 0x10000 DUP2 DIV DUP3 AND ISZERO ISZERO PUSH2 0x680 DUP7 ADD MSTORE PUSH4 0x1000000 DUP2 DIV DUP3 AND ISZERO ISZERO PUSH2 0x6A0 DUP7 ADD MSTORE PUSH5 0x100000000 DUP2 DIV DUP3 AND ISZERO ISZERO PUSH2 0x6C0 DUP7 ADD MSTORE PUSH1 0x1 PUSH1 0x28 SHL DUP2 DIV DUP3 AND ISZERO ISZERO PUSH2 0x6E0 DUP7 ADD MSTORE PUSH1 0x1 PUSH1 0x30 SHL DUP2 DIV DUP3 AND ISZERO ISZERO PUSH2 0x700 DUP7 ADD MSTORE PUSH1 0x1 PUSH1 0x38 SHL DUP2 DIV DUP3 AND ISZERO ISZERO PUSH2 0x720 DUP7 ADD MSTORE PUSH1 0x1 PUSH1 0x40 SHL SWAP1 DIV AND ISZERO ISZERO PUSH2 0x740 SWAP1 SWAP4 ADD SWAP3 SWAP1 SWAP3 MSTORE DUP7 SWAP1 SSTORE DUP1 MLOAD PUSH2 0x760 DUP2 ADD SWAP1 SWAP2 MSTORE DUP2 SLOAD SWAP3 SWAP4 POP PUSH2 0x2036 SWAP3 DUP6 SWAP3 SWAP1 DUP3 SWAP1 DUP3 SWAP1 PUSH2 0x1177 SWAP1 PUSH2 0x312D JUMP JUMPDEST POP POP POP POP POP JUMP JUMPDEST PUSH1 0x0 DUP2 DUP2 MSTORE PUSH1 0x2 PUSH1 0x20 MSTORE PUSH1 0x40 SWAP1 KECCAK256 SLOAD PUSH1 0x1 PUSH1 0x1 PUSH1 0xA0 SHL SUB AND PUSH2 0x209C JUMPI PUSH1 0x40 MLOAD PUSH3 0x461BCD PUSH1 0xE5 SHL DUP2 MSTORE PUSH1 0x20 PUSH1 0x4 DUP3 ADD MSTORE PUSH1 0x18 PUSH1 0x24 DUP3 ADD MSTORE PUSH24 0x115490CDCC8C4E881A5B9D985B1A59081D1BDAD95B881251 PUSH1 0x42 SHL PUSH1 0x44 DUP3 ADD MSTORE PUSH1 0x64 ADD PUSH2 0x553 JUMP JUMPDEST POP JUMP JUMPDEST PUSH1 0x0 DUP2 DUP2 MSTORE PUSH1 0x4 PUSH1 0x20 MSTORE PUSH1 0x40 SWAP1 KECCAK256 DUP1 SLOAD PUSH1 0x1 PUSH1 0x1 PUSH1 0xA0 SHL SUB NOT AND PUSH1 0x1 PUSH1 0x1 PUSH1 0xA0 SHL SUB DUP5 AND SWAP1 DUP2 OR SWAP1 SWAP2 SSTORE DUP2 SWAP1 PUSH2 0x20D4 DUP3 PUSH2 0xF28 JUMP JUMPDEST PUSH1 0x1 PUSH1 0x1 PUSH1 0xA0 SHL SUB AND PUSH32 0x8C5BE1E5EBEC7D5BD14F71427D1E84F3DD0314C0F7B2291E5B200AC8C7C3B925 PUSH1 0x40 MLOAD PUSH1 0x40 MLOAD DUP1 SWAP2 SUB SWAP1 LOG4 POP POP JUMP JUMPDEST PUSH1 0x0 DUP1 PUSH2 0x2119 DUP4 PUSH2 0xF28 JUMP JUMPDEST SWAP1 POP DUP1 PUSH1 0x1 PUSH1 0x1 PUSH1 0xA0 SHL SUB AND DUP5 PUSH1 0x1 PUSH1 0x1 PUSH1 0xA0 SHL SUB AND EQ DUP1 PUSH2 0x2160 JUMPI POP PUSH1 0x1 PUSH1 0x1 PUSH1 0xA0 SHL SUB DUP1 DUP3 AND PUSH1 0x0 SWAP1 DUP2 MSTORE PUSH1 0x5 PUSH1 0x20 SWAP1 DUP2 MSTORE PUSH1 0x40 DUP1 DUP4 KECCAK256 SWAP4 DUP9 AND DUP4 MSTORE SWAP3 SWAP1 MSTORE KECCAK256 SLOAD PUSH1 0xFF AND JUMPDEST DUP1 PUSH2 0xF20 JUMPI POP DUP4 PUSH1 0x1 PUSH1 0x1 PUSH1 0xA0 SHL SUB AND PUSH2 0x2179 DUP5 PUSH2 0x4B8 JUMP JUMPDEST PUSH1 0x1 PUSH1 0x1 PUSH1 0xA0 SHL SUB AND EQ SWAP5 SWAP4 POP POP POP POP JUMP JUMPDEST DUP3 PUSH1 0x1 PUSH1 0x1 PUSH1 0xA0 SHL SUB AND PUSH2 0x219E DUP3 PUSH2 0xF28 JUMP JUMPDEST PUSH1 0x1 PUSH1 0x1 PUSH1 0xA0 SHL SUB AND EQ PUSH2 0x21C4 JUMPI PUSH1 0x40 MLOAD PUSH3 0x461BCD PUSH1 0xE5 SHL DUP2 MSTORE PUSH1 0x4 ADD PUSH2 0x553 SWAP1 PUSH2 0x345E JUMP JUMPDEST PUSH1 0x1 PUSH1 0x1 PUSH1 0xA0 SHL SUB DUP3 AND PUSH2 0x2226 JUMPI PUSH1 0x40 MLOAD PUSH3 0x461BCD PUSH1 0xE5 SHL DUP2 MSTORE PUSH1 0x20 PUSH1 0x4 DUP3 ADD MSTORE PUSH1 0x24 DUP1 DUP3 ADD MSTORE PUSH32 0x4552433732313A207472616E7366657220746F20746865207A65726F20616464 PUSH1 0x44 DUP3 ADD MSTORE PUSH4 0x72657373 PUSH1 0xE0 SHL PUSH1 0x64 DUP3 ADD MSTORE PUSH1 0x84 ADD PUSH2 0x553 JUMP JUMPDEST DUP3 PUSH1 0x1 PUSH1 0x1 PUSH1 0xA0 SHL SUB AND PUSH2 0x2239 DUP3 PUSH2 0xF28 JUMP JUMPDEST PUSH1 0x1 PUSH1 0x1 PUSH1 0xA0 SHL SUB AND EQ PUSH2 0x225F JUMPI PUSH1 0x40 MLOAD PUSH3 0x461BCD PUSH1 0xE5 SHL DUP2 MSTORE PUSH1 0x4 ADD PUSH2 0x553 SWAP1 PUSH2 0x345E JUMP JUMPDEST PUSH1 0x0 DUP2 DUP2 MSTORE PUSH1 0x4 PUSH1 0x20 SWAP1 DUP2 MSTORE PUSH1 0x40 DUP1 DUP4 KECCAK256 DUP1 SLOAD PUSH1 0x1 PUSH1 0x1 PUSH1 0xA0 SHL SUB NOT SWAP1 DUP2 AND SWAP1 SWAP2 SSTORE PUSH1 0x1 PUSH1 0x1 PUSH1 0xA0 SHL SUB DUP8 DUP2 AND DUP1 DUP7 MSTORE PUSH1 0x3 DUP6 MSTORE DUP4 DUP7 KECCAK256 DUP1 SLOAD PUSH1 0x0 NOT ADD SWAP1 SSTORE SWAP1 DUP8 AND DUP1 DUP7 MSTORE DUP4 DUP7 KECCAK256 DUP1 SLOAD PUSH1 0x1 ADD SWAP1 SSTORE DUP7 DUP7 MSTORE PUSH1 0x2 SWAP1 SWAP5 MSTORE DUP3 DUP6 KECCAK256 DUP1 SLOAD SWAP1 SWAP3 AND DUP5 OR SWAP1 SWAP2 SSTORE SWAP1 MLOAD DUP5 SWAP4 PUSH32 0xDDF252AD1BE2C89B69C2B068FC378DAA952BA7F163C4A11628F55A4DF523B3EF SWAP2 LOG4 POP POP POP JUMP JUMPDEST PUSH2 0x1900 DUP3 DUP3 PUSH1 0x40 MLOAD DUP1 PUSH1 0x20 ADD PUSH1 0x40 MSTORE DUP1 PUSH1 0x0 DUP2 MSTORE POP PUSH2 0x2887 JUMP JUMPDEST PUSH1 0x0 DUP3 DUP2 MSTORE PUSH1 0x2 PUSH1 0x20 MSTORE PUSH1 0x40 SWAP1 KECCAK256 SLOAD PUSH1 0x1 PUSH1 0x1 PUSH1 0xA0 SHL SUB AND PUSH2 0x2364 JUMPI PUSH1 0x40 MLOAD PUSH3 0x461BCD PUSH1 0xE5 SHL DUP2 MSTORE PUSH1 0x20 PUSH1 0x4 DUP3 ADD MSTORE PUSH1 0x14 PUSH1 0x24 DUP3 ADD MSTORE PUSH20 0x151BDAD95B88191BD95CC81B9BDD08195E1A5CDD PUSH1 0x62 SHL PUSH1 0x44 DUP3 ADD MSTORE PUSH1 0x64 ADD PUSH2 0x553 JUMP JUMPDEST PUSH1 0x0 DUP3 DUP2 MSTORE PUSH1 0x8 PUSH1 0x20 MSTORE PUSH1 0x40 SWAP1 KECCAK256 DUP2 MLOAD DUP3 SWAP2 SWAP1 DUP2 SWAP1 PUSH2 0x2383 SWAP1 DUP3 PUSH2 0x3233 JUMP JUMPDEST POP PUSH1 0x20 DUP3 DUP2 ADD MLOAD PUSH1 0x1 DUP4 ADD SSTORE PUSH1 0x40 DUP4 ADD MLOAD PUSH1 0x2 DUP4 ADD SSTORE PUSH1 0x60 DUP4 ADD MLOAD PUSH1 0x3 DUP4 ADD SSTORE PUSH1 0x80 DUP4 ADD MLOAD PUSH1 0x4 DUP4 ADD SSTORE PUSH1 0xA0 DUP4 ADD MLOAD PUSH1 0x5 DUP4 ADD SSTORE PUSH1 0xC0 DUP4 ADD MLOAD PUSH1 0x6 DUP4 ADD SSTORE PUSH1 0xE0 DUP4 ADD MLOAD PUSH1 0x7 DUP4 ADD SSTORE PUSH2 0x100 DUP1 DUP5 ADD MLOAD PUSH1 0x8 DUP5 ADD SSTORE PUSH2 0x120 DUP5 ADD MLOAD PUSH1 0x9 DUP5 ADD SSTORE PUSH2 0x140 DUP5 ADD MLOAD PUSH1 0xA DUP5 ADD SSTORE PUSH2 0x160 DUP5 ADD MLOAD PUSH1 0xB DUP5 ADD SSTORE PUSH2 0x180 DUP5 ADD MLOAD PUSH1 0xC DUP5 ADD SSTORE PUSH2 0x1A0 DUP5 ADD MLOAD PUSH1 0xD DUP5 ADD SSTORE PUSH2 0x1C0 DUP5 ADD MLOAD PUSH1 0xE DUP5 ADD SSTORE PUSH2 0x1E0 DUP5 ADD MLOAD PUSH1 0xF DUP5 ADD SSTORE PUSH2 0x200 DUP5 ADD MLOAD PUSH1 0x10 DUP5 ADD SSTORE PUSH2 0x220 DUP5 ADD MLOAD PUSH1 0x11 DUP5 ADD SSTORE PUSH2 0x240 DUP5 ADD MLOAD PUSH1 0x12 DUP5 ADD SSTORE PUSH2 0x260 DUP5 ADD MLOAD PUSH1 0x13 DUP5 ADD SSTORE PUSH2 0x280 DUP5 ADD MLOAD PUSH1 0x14 DUP5 ADD SSTORE PUSH2 0x2A0 DUP5 ADD MLOAD PUSH1 0x15 DUP5 ADD SSTORE PUSH2 0x2C0 DUP5 ADD MLOAD PUSH1 0x16 DUP5 ADD SSTORE PUSH2 0x2E0 DUP5 ADD MLOAD PUSH1 0x17 DUP5 ADD SSTORE PUSH2 0x300 DUP5 ADD MLOAD PUSH1 0x18 DUP5 ADD SSTORE PUSH2 0x320 DUP5 ADD MLOAD PUSH1 0x19 DUP5 ADD SSTORE PUSH2 0x340 DUP5 ADD MLOAD PUSH1 0x1A DUP5 ADD SSTORE PUSH2 0x360 DUP5 ADD MLOAD PUSH1 0x1B DUP5 ADD SSTORE PUSH2 0x380 DUP5 ADD MLOAD PUSH1 0x1C DUP5 ADD SSTORE PUSH2 0x3A0 DUP5 ADD MLOAD PUSH1 0x1D DUP5 ADD SSTORE PUSH2 0x3C0 DUP5 ADD MLOAD PUSH1 0x1E DUP5 ADD SSTORE PUSH2 0x3E0 DUP5 ADD MLOAD PUSH1 0x1F DUP5 ADD SSTORE PUSH2 0x400 DUP5 ADD MLOAD SWAP2 DUP4 ADD SWAP2 SWAP1 SWAP2 SSTORE PUSH2 0x420 DUP4 ADD MLOAD PUSH1 0x21 DUP4 ADD SSTORE PUSH2 0x440 DUP4 ADD MLOAD PUSH1 0x22 DUP4 ADD SSTORE PUSH2 0x460 DUP4 ADD MLOAD PUSH1 0x23 DUP4 ADD SSTORE PUSH2 0x480 DUP4 ADD MLOAD PUSH1 0x24 DUP4 ADD SSTORE PUSH2 0x4A0 DUP4 ADD MLOAD PUSH1 0x25 DUP4 ADD SSTORE PUSH2 0x4C0 DUP4 ADD MLOAD PUSH1 0x26 DUP4 ADD SSTORE PUSH2 0x4E0 DUP4 ADD MLOAD PUSH1 0x27 DUP4 ADD SSTORE PUSH2 0x500 DUP4 ADD MLOAD PUSH1 0x28 DUP4 ADD SSTORE PUSH2 0x520 DUP4 ADD MLOAD PUSH1 0x29 DUP4 ADD SSTORE PUSH2 0x540 DUP4 ADD MLOAD PUSH1 0x2A DUP4 ADD SSTORE PUSH2 0x560 DUP4 ADD MLOAD PUSH1 0x2B DUP4 ADD SSTORE PUSH2 0x580 DUP4 ADD MLOAD PUSH1 0x2C DUP4 ADD SSTORE PUSH2 0x5A0 DUP4 ADD MLOAD PUSH1 0x2D DUP4 ADD SSTORE PUSH2 0x5C0 DUP4 ADD MLOAD PUSH1 0x2E DUP4 ADD SSTORE PUSH2 0x5E0 DUP4 ADD MLOAD PUSH1 0x2F DUP4 ADD SSTORE PUSH2 0x600 DUP4 ADD MLOAD PUSH1 0x30 DUP4 ADD SSTORE PUSH2 0x620 DUP4 ADD MLOAD PUSH1 0x31 DUP4 ADD SSTORE PUSH2 0x640 DUP4 ADD MLOAD PUSH1 0x32 SWAP1 SWAP3 ADD DUP1 SLOAD PUSH2 0x660 DUP6 ADD MLOAD PUSH2 0x680 DUP7 ADD MLOAD PUSH2 0x6A0 DUP8 ADD MLOAD PUSH2 0x6C0 DUP9 ADD MLOAD PUSH2 0x6E0 DUP10 ADD MLOAD PUSH2 0x700 DUP11 ADD MLOAD PUSH2 0x720 DUP12 ADD MLOAD PUSH2 0x740 SWAP1 SWAP12 ADD MLOAD PUSH2 0xFFFF NOT SWAP1 SWAP8 AND SWAP10 ISZERO ISZERO PUSH2 0xFF00 NOT AND SWAP10 SWAP1 SWAP10 OR SWAP5 ISZERO ISZERO SWAP1 SWAP8 MUL SWAP4 SWAP1 SWAP4 OR PUSH4 0xFFFF0000 NOT AND PUSH3 0x10000 SWAP3 ISZERO ISZERO SWAP3 SWAP1 SWAP3 MUL PUSH4 0xFF000000 NOT AND SWAP2 SWAP1 SWAP2 OR PUSH4 0x1000000 SWAP2 ISZERO ISZERO SWAP2 SWAP1 SWAP2 MUL OR PUSH6 0xFFFF00000000 NOT AND PUSH5 0x100000000 SWAP2 ISZERO ISZERO SWAP2 SWAP1 SWAP2 MUL PUSH6 0xFF0000000000 NOT AND OR PUSH1 0x1 PUSH1 0x28 SHL SWAP4 ISZERO ISZERO SWAP4 SWAP1 SWAP4 MUL SWAP3 SWAP1 SWAP3 OR PUSH8 0xFFFF000000000000 NOT AND PUSH1 0x1 PUSH1 0x30 SHL SWAP4 ISZERO ISZERO SWAP4 SWAP1 SWAP4 MUL PUSH1 0xFF PUSH1 0x38 SHL NOT AND SWAP3 SWAP1 SWAP3 OR PUSH1 0x1 PUSH1 0x38 SHL SWAP4 ISZERO ISZERO SWAP4 SWAP1 SWAP4 MUL SWAP3 SWAP1 SWAP3 OR PUSH1 0xFF PUSH1 0x40 SHL NOT AND PUSH1 0x1 PUSH1 0x40 SHL SWAP3 ISZERO ISZERO SWAP3 SWAP1 SWAP3 MUL SWAP2 SWAP1 SWAP2 OR SWAP1 SSTORE POP POP JUMP JUMPDEST PUSH1 0x0 PREVRANDAO DUP2 PUSH2 0x26AF PUSH1 0x64 DUP4 PUSH2 0x34A3 JUMP JUMPDEST POP SWAP1 SWAP3 SWAP2 POP POP JUMP JUMPDEST PUSH1 0x0 DUP1 PUSH2 0x26C2 PUSH2 0x26A0 JUMP JUMPDEST DUP4 MLOAD SWAP1 SWAP2 POP DUP4 PUSH2 0x26D2 DUP3 DUP5 PUSH2 0x34A3 JUMP JUMPDEST DUP2 MLOAD DUP2 LT PUSH2 0x26E2 JUMPI PUSH2 0x26E2 PUSH2 0x31B4 JUMP JUMPDEST PUSH1 0x20 MUL PUSH1 0x20 ADD ADD MLOAD SWAP3 POP POP POP SWAP2 SWAP1 POP JUMP JUMPDEST DUP2 PUSH1 0x1 PUSH1 0x1 PUSH1 0xA0 SHL SUB AND DUP4 PUSH1 0x1 PUSH1 0x1 PUSH1 0xA0 SHL SUB AND SUB PUSH2 0x2754 JUMPI PUSH1 0x40 MLOAD PUSH3 0x461BCD PUSH1 0xE5 SHL DUP2 MSTORE PUSH1 0x20 PUSH1 0x4 DUP3 ADD MSTORE PUSH1 0x19 PUSH1 0x24 DUP3 ADD MSTORE PUSH32 0x4552433732313A20617070726F766520746F2063616C6C657200000000000000 PUSH1 0x44 DUP3 ADD MSTORE PUSH1 0x64 ADD PUSH2 0x553 JUMP JUMPDEST PUSH1 0x1 PUSH1 0x1 PUSH1 0xA0 SHL SUB DUP4 DUP2 AND PUSH1 0x0 DUP2 DUP2 MSTORE PUSH1 0x5 PUSH1 0x20 SWAP1 DUP2 MSTORE PUSH1 0x40 DUP1 DUP4 KECCAK256 SWAP5 DUP8 AND DUP1 DUP5 MSTORE SWAP5 DUP3 MSTORE SWAP2 DUP3 SWAP1 KECCAK256 DUP1 SLOAD PUSH1 0xFF NOT AND DUP7 ISZERO ISZERO SWAP1 DUP2 OR SWAP1 SWAP2 SSTORE SWAP2 MLOAD SWAP2 DUP3 MSTORE PUSH32 0x17307EAB39AB6107E8899845AD3D59BD9653F200F220920489CA2B5937696C31 SWAP2 ADD PUSH1 0x40 MLOAD DUP1 SWAP2 SUB SWAP1 LOG3 POP POP POP JUMP JUMPDEST PUSH2 0x27CC DUP5 DUP5 DUP5 PUSH2 0x218B JUMP JUMPDEST PUSH2 0x27D8 DUP5 DUP5 DUP5 DUP5 PUSH2 0x28BA JUMP JUMPDEST PUSH2 0x1BAD JUMPI PUSH1 0x40 MLOAD PUSH3 0x461BCD PUSH1 0xE5 SHL DUP2 MSTORE PUSH1 0x4 ADD PUSH2 0x553 SWAP1 PUSH2 0x34B7 JUMP JUMPDEST PUSH1 0x60 PUSH1 0x0 PUSH2 0x2801 DUP4 PUSH2 0x29B8 JUMP JUMPDEST PUSH1 0x1 ADD SWAP1 POP PUSH1 0x0 DUP2 PUSH8 0xFFFFFFFFFFFFFFFF DUP2 GT ISZERO PUSH2 0x2821 JUMPI PUSH2 0x2821 PUSH2 0x3011 JUMP JUMPDEST PUSH1 0x40 MLOAD SWAP1 DUP1 DUP3 MSTORE DUP1 PUSH1 0x1F ADD PUSH1 0x1F NOT AND PUSH1 0x20 ADD DUP3 ADD PUSH1 0x40 MSTORE DUP1 ISZERO PUSH2 0x284B JUMPI PUSH1 0x20 DUP3 ADD DUP2 DUP1 CALLDATASIZE DUP4 CALLDATACOPY ADD SWAP1 POP JUMPDEST POP SWAP1 POP DUP2 DUP2 ADD PUSH1 0x20 ADD JUMPDEST PUSH1 0x0 NOT ADD PUSH16 0x181899199A1A9B1B9C1CB0B131B232B3 PUSH1 0x81 SHL PUSH1 0xA DUP7 MOD BYTE DUP2 MSTORE8 PUSH1 0xA DUP6 DIV SWAP5 POP DUP5 PUSH2 0x2855 JUMPI POP SWAP4 SWAP3 POP POP POP JUMP JUMPDEST PUSH2 0x2891 DUP4 DUP4 PUSH2 0x2A90 JUMP JUMPDEST PUSH2 0x289E PUSH1 0x0 DUP5 DUP5 DUP5 PUSH2 0x28BA JUMP JUMPDEST PUSH2 0x5F4 JUMPI PUSH1 0x40 MLOAD PUSH3 0x461BCD PUSH1 0xE5 SHL DUP2 MSTORE PUSH1 0x4 ADD PUSH2 0x553 SWAP1 PUSH2 0x34B7 JUMP JUMPDEST PUSH1 0x0 PUSH1 0x1 PUSH1 0x1 PUSH1 0xA0 SHL SUB DUP5 AND EXTCODESIZE ISZERO PUSH2 0x29B0 JUMPI PUSH1 0x40 MLOAD PUSH4 0xA85BD01 PUSH1 0xE1 SHL DUP2 MSTORE PUSH1 0x1 PUSH1 0x1 PUSH1 0xA0 SHL SUB DUP6 AND SWAP1 PUSH4 0x150B7A02 SWAP1 PUSH2 0x28FE SWAP1 CALLER SWAP1 DUP10 SWAP1 DUP9 SWAP1 DUP9 SWAP1 PUSH1 0x4 ADD PUSH2 0x3509 JUMP JUMPDEST PUSH1 0x20 PUSH1 0x40 MLOAD DUP1 DUP4 SUB DUP2 PUSH1 0x0 DUP8 GAS CALL SWAP3 POP POP POP DUP1 ISZERO PUSH2 0x2939 JUMPI POP PUSH1 0x40 DUP1 MLOAD PUSH1 0x1F RETURNDATASIZE SWAP1 DUP2 ADD PUSH1 0x1F NOT AND DUP3 ADD SWAP1 SWAP3 MSTORE PUSH2 0x2936 SWAP2 DUP2 ADD SWAP1 PUSH2 0x3546 JUMP JUMPDEST PUSH1 0x1 JUMPDEST PUSH2 0x2996 JUMPI RETURNDATASIZE DUP1 DUP1 ISZERO PUSH2 0x2967 JUMPI PUSH1 0x40 MLOAD SWAP2 POP PUSH1 0x1F NOT PUSH1 0x3F RETURNDATASIZE ADD AND DUP3 ADD PUSH1 0x40 MSTORE RETURNDATASIZE DUP3 MSTORE RETURNDATASIZE PUSH1 0x0 PUSH1 0x20 DUP5 ADD RETURNDATACOPY PUSH2 0x296C JUMP JUMPDEST PUSH1 0x60 SWAP2 POP JUMPDEST POP DUP1 MLOAD PUSH1 0x0 SUB PUSH2 0x298E JUMPI PUSH1 0x40 MLOAD PUSH3 0x461BCD PUSH1 0xE5 SHL DUP2 MSTORE PUSH1 0x4 ADD PUSH2 0x553 SWAP1 PUSH2 0x34B7 JUMP JUMPDEST DUP1 MLOAD DUP2 PUSH1 0x20 ADD REVERT JUMPDEST PUSH1 0x1 PUSH1 0x1 PUSH1 0xE0 SHL SUB NOT AND PUSH4 0xA85BD01 PUSH1 0xE1 SHL EQ SWAP1 POP PUSH2 0xF20 JUMP JUMPDEST POP PUSH1 0x1 PUSH2 0xF20 JUMP JUMPDEST PUSH1 0x0 DUP1 PUSH19 0x184F03E93FF9F4DAA797ED6E38ED64BF6A1F01 PUSH1 0x40 SHL DUP4 LT PUSH2 0x29F7 JUMPI PUSH19 0x184F03E93FF9F4DAA797ED6E38ED64BF6A1F01 PUSH1 0x40 SHL DUP4 DIV SWAP3 POP PUSH1 0x40 ADD JUMPDEST PUSH14 0x4EE2D6D415B85ACEF8100000000 DUP4 LT PUSH2 0x2A23 JUMPI PUSH14 0x4EE2D6D415B85ACEF8100000000 DUP4 DIV SWAP3 POP PUSH1 0x20 ADD JUMPDEST PUSH7 0x2386F26FC10000 DUP4 LT PUSH2 0x2A41 JUMPI PUSH7 0x2386F26FC10000 DUP4 DIV SWAP3 POP PUSH1 0x10 ADD JUMPDEST PUSH4 0x5F5E100 DUP4 LT PUSH2 0x2A59 JUMPI PUSH4 0x5F5E100 DUP4 DIV SWAP3 POP PUSH1 0x8 ADD JUMPDEST PUSH2 0x2710 DUP4 LT PUSH2 0x2A6D JUMPI PUSH2 0x2710 DUP4 DIV SWAP3 POP PUSH1 0x4 ADD JUMPDEST PUSH1 0x64 DUP4 LT PUSH2 0x2A7F JUMPI PUSH1 0x64 DUP4 DIV SWAP3 POP PUSH1 0x2 ADD JUMPDEST PUSH1 0xA DUP4 LT PUSH2 0x420 JUMPI PUSH1 0x1 ADD SWAP3 SWAP2 POP POP JUMP JUMPDEST PUSH1 0x1 PUSH1 0x1 PUSH1 0xA0 SHL SUB DUP3 AND PUSH2 0x2AE6 JUMPI PUSH1 0x40 MLOAD PUSH3 0x461BCD PUSH1 0xE5 SHL DUP2 MSTORE PUSH1 0x20 PUSH1 0x4 DUP3 ADD DUP2 SWAP1 MSTORE PUSH1 0x24 DUP3 ADD MSTORE PUSH32 0x4552433732313A206D696E7420746F20746865207A65726F2061646472657373 PUSH1 0x44 DUP3 ADD MSTORE PUSH1 0x64 ADD PUSH2 0x553 JUMP JUMPDEST PUSH1 0x0 DUP2 DUP2 MSTORE PUSH1 0x2 PUSH1 0x20 MSTORE PUSH1 0x40 SWAP1 KECCAK256 SLOAD PUSH1 0x1 PUSH1 0x1 PUSH1 0xA0 SHL SUB AND ISZERO PUSH2 0x2B4B JUMPI PUSH1 0x40 MLOAD PUSH3 0x461BCD PUSH1 0xE5 SHL DUP2 MSTORE PUSH1 0x20 PUSH1 0x4 DUP3 ADD MSTORE PUSH1 0x1C PUSH1 0x24 DUP3 ADD MSTORE PUSH32 0x4552433732313A20746F6B656E20616C7265616479206D696E74656400000000 PUSH1 0x44 DUP3 ADD MSTORE PUSH1 0x64 ADD PUSH2 0x553 JUMP JUMPDEST PUSH1 0x0 DUP2 DUP2 MSTORE PUSH1 0x2 PUSH1 0x20 MSTORE PUSH1 0x40 SWAP1 KECCAK256 SLOAD PUSH1 0x1 PUSH1 0x1 PUSH1 0xA0 SHL SUB AND ISZERO PUSH2 0x2BB0 JUMPI PUSH1 0x40 MLOAD PUSH3 0x461BCD PUSH1 0xE5 SHL DUP2 MSTORE PUSH1 0x20 PUSH1 0x4 DUP3 ADD MSTORE PUSH1 0x1C PUSH1 0x24 DUP3 ADD MSTORE PUSH32 0x4552433732313A20746F6B656E20616C7265616479206D696E74656400000000 PUSH1 0x44 DUP3 ADD MSTORE PUSH1 0x64 ADD PUSH2 0x553 JUMP JUMPDEST PUSH1 0x1 PUSH1 0x1 PUSH1 0xA0 SHL SUB DUP3 AND PUSH1 0x0 DUP2 DUP2 MSTORE PUSH1 0x3 PUSH1 0x20 SWAP1 DUP2 MSTORE PUSH1 0x40 DUP1 DUP4 KECCAK256 DUP1 SLOAD PUSH1 0x1 ADD SWAP1 SSTORE DUP5 DUP4 MSTORE PUSH1 0x2 SWAP1 SWAP2 MSTORE DUP1 DUP3 KECCAK256 DUP1 SLOAD PUSH1 0x1 PUSH1 0x1 PUSH1 0xA0 SHL SUB NOT AND DUP5 OR SWAP1 SSTORE MLOAD DUP4 SWAP3 SWAP2 SWAP1 PUSH32 0xDDF252AD1BE2C89B69C2B068FC378DAA952BA7F163C4A11628F55A4DF523B3EF SWAP1 DUP3 SWAP1 LOG4 POP POP JUMP JUMPDEST DUP3 DUP1 SLOAD DUP3 DUP3 SSTORE SWAP1 PUSH1 0x0 MSTORE PUSH1 0x20 PUSH1 0x0 KECCAK256 SWAP1 DUP2 ADD SWAP3 DUP3 ISZERO PUSH2 0x2C56 JUMPI SWAP2 PUSH1 0x20 MUL DUP3 ADD JUMPDEST DUP3 DUP2 GT ISZERO PUSH2 0x2C56 JUMPI DUP3 MLOAD DUP3 SSTORE SWAP2 PUSH1 0x20 ADD SWAP2 SWAP1 PUSH1 0x1 ADD SWAP1 PUSH2 0x2C3B JUMP JUMPDEST POP PUSH2 0x2C62 SWAP3 SWAP2 POP PUSH2 0x2C66 JUMP JUMPDEST POP SWAP1 JUMP JUMPDEST JUMPDEST DUP1 DUP3 GT ISZERO PUSH2 0x2C62 JUMPI PUSH1 0x0 DUP2 SSTORE PUSH1 0x1 ADD PUSH2 0x2C67 JUMP JUMPDEST PUSH1 0x1 PUSH1 0x1 PUSH1 0xE0 SHL SUB NOT DUP2 AND DUP2 EQ PUSH2 0x209C JUMPI PUSH1 0x0 DUP1 REVERT JUMPDEST PUSH1 0x0 PUSH1 0x20 DUP3 DUP5 SUB SLT ISZERO PUSH2 0x2CA3 JUMPI PUSH1 0x0 DUP1 REVERT JUMPDEST DUP2 CALLDATALOAD PUSH2 0x1920 DUP2 PUSH2 0x2C7B JUMP JUMPDEST PUSH1 0x0 JUMPDEST DUP4 DUP2 LT ISZERO PUSH2 0x2CC9 JUMPI DUP2 DUP2 ADD MLOAD DUP4 DUP3 ADD MSTORE PUSH1 0x20 ADD PUSH2 0x2CB1 JUMP JUMPDEST POP POP PUSH1 0x0 SWAP2 ADD MSTORE JUMP JUMPDEST PUSH1 0x0 DUP2 MLOAD DUP1 DUP5 MSTORE PUSH2 0x2CEA DUP2 PUSH1 0x20 DUP7 ADD PUSH1 0x20 DUP7 ADD PUSH2 0x2CAE JUMP JUMPDEST PUSH1 0x1F ADD PUSH1 0x1F NOT AND SWAP3 SWAP1 SWAP3 ADD PUSH1 0x20 ADD SWAP3 SWAP2 POP POP JUMP JUMPDEST PUSH1 0x20 DUP2 MSTORE PUSH1 0x0 PUSH2 0x1920 PUSH1 0x20 DUP4 ADD DUP5 PUSH2 0x2CD2 JUMP JUMPDEST PUSH1 0x0 PUSH1 0x20 DUP3 DUP5 SUB SLT ISZERO PUSH2 0x2D23 JUMPI PUSH1 0x0 DUP1 REVERT JUMPDEST POP CALLDATALOAD SWAP2 SWAP1 POP JUMP JUMPDEST DUP1 CALLDATALOAD PUSH1 0x1 PUSH1 0x1 PUSH1 0xA0 SHL SUB DUP2 AND DUP2 EQ PUSH2 0x2D41 JUMPI PUSH1 0x0 DUP1 REVERT JUMPDEST SWAP2 SWAP1 POP JUMP JUMPDEST PUSH1 0x0 DUP1 PUSH1 0x40 DUP4 DUP6 SUB SLT ISZERO PUSH2 0x2D59 JUMPI PUSH1 0x0 DUP1 REVERT JUMPDEST PUSH2 0x2D62 DUP4 PUSH2 0x2D2A JUMP JUMPDEST SWAP5 PUSH1 0x20 SWAP4 SWAP1 SWAP4 ADD CALLDATALOAD SWAP4 POP POP POP JUMP JUMPDEST PUSH1 0x0 DUP1 PUSH1 0x0 PUSH1 0x60 DUP5 DUP7 SUB SLT ISZERO PUSH2 0x2D85 JUMPI PUSH1 0x0 DUP1 REVERT JUMPDEST PUSH2 0x2D8E DUP5 PUSH2 0x2D2A JUMP JUMPDEST SWAP3 POP PUSH2 0x2D9C PUSH1 0x20 DUP6 ADD PUSH2 0x2D2A JUMP JUMPDEST SWAP2 POP PUSH1 0x40 DUP5 ADD CALLDATALOAD SWAP1 POP SWAP3 POP SWAP3 POP SWAP3 JUMP JUMPDEST PUSH1 0x0 DUP1 PUSH1 0x0 DUP1 PUSH2 0x760 DUP1 DUP7 DUP9 SUB SLT ISZERO PUSH2 0x2DC4 JUMPI PUSH1 0x0 DUP1 REVERT JUMPDEST DUP6 CALLDATALOAD PUSH8 0xFFFFFFFFFFFFFFFF DUP1 DUP3 GT ISZERO PUSH2 0x2DDC JUMPI PUSH1 0x0 DUP1 REVERT JUMPDEST DUP2 DUP9 ADD SWAP2 POP DUP9 PUSH1 0x1F DUP4 ADD SLT PUSH2 0x2DF0 JUMPI PUSH1 0x0 DUP1 REVERT JUMPDEST DUP2 CALLDATALOAD DUP2 DUP2 GT ISZERO PUSH2 0x2DFF JUMPI PUSH1 0x0 DUP1 REVERT JUMPDEST DUP10 PUSH1 0x20 DUP3 DUP6 ADD ADD GT ISZERO PUSH2 0x2E11 JUMPI PUSH1 0x0 DUP1 REVERT JUMPDEST PUSH1 0x20 DUP4 ADD SWAP8 POP DUP1 SWAP7 POP POP POP POP PUSH2 0x640 DUP7 ADD DUP8 DUP2 GT ISZERO PUSH2 0x2E2F JUMPI PUSH1 0x0 DUP1 REVERT JUMPDEST PUSH1 0x20 DUP8 ADD SWAP4 POP DUP8 DUP3 DUP9 ADD GT ISZERO PUSH2 0x2E44 JUMPI PUSH1 0x0 DUP1 REVERT JUMPDEST SWAP5 SWAP8 SWAP4 SWAP7 POP SWAP2 SWAP5 POP POP POP JUMP JUMPDEST PUSH1 0x0 PUSH1 0x20 DUP3 DUP5 SUB SLT ISZERO PUSH2 0x2E62 JUMPI PUSH1 0x0 DUP1 REVERT JUMPDEST PUSH2 0x1920 DUP3 PUSH2 0x2D2A JUMP JUMPDEST PUSH1 0x0 DUP1 PUSH1 0x40 DUP4 DUP6 SUB SLT ISZERO PUSH2 0x2E7E JUMPI PUSH1 0x0 DUP1 REVERT JUMPDEST POP POP DUP1 CALLDATALOAD SWAP3 PUSH1 0x20 SWAP1 SWAP2 ADD CALLDATALOAD SWAP2 POP JUMP JUMPDEST DUP1 CALLDATALOAD DUP1 ISZERO ISZERO DUP2 EQ PUSH2 0x2D41 JUMPI PUSH1 0x0 DUP1 REVERT JUMPDEST PUSH1 0x0 DUP1 PUSH1 0x40 DUP4 DUP6 SUB SLT ISZERO PUSH2 0x2EB0 JUMPI PUSH1 0x0 DUP1 REVERT JUMPDEST PUSH2 0x2EB9 DUP4 PUSH2 0x2D2A JUMP JUMPDEST SWAP2 POP PUSH2 0x2EC7 PUSH1 0x20 DUP5 ADD PUSH2 0x2E8D JUMP JUMPDEST SWAP1 POP SWAP3 POP SWAP3 SWAP1 POP JUMP JUMPDEST DUP1 PUSH1 0x80 DUP2 ADD DUP4 LT ISZERO PUSH2 0x420 JUMPI PUSH1 0x0 DUP1 REVERT JUMPDEST PUSH1 0x0 DUP1 DUP4 PUSH1 0x1F DUP5 ADD SLT PUSH2 0x2EF3 JUMPI PUSH1 0x0 DUP1 REVERT JUMPDEST POP DUP2 CALLDATALOAD PUSH8 0xFFFFFFFFFFFFFFFF DUP2 GT ISZERO PUSH2 0x2F0B JUMPI PUSH1 0x0 DUP1 REVERT JUMPDEST PUSH1 0x20 DUP4 ADD SWAP2 POP DUP4 PUSH1 0x20 DUP3 PUSH1 0x5 SHL DUP6 ADD ADD GT ISZERO PUSH2 0x2F26 JUMPI PUSH1 0x0 DUP1 REVERT JUMPDEST SWAP3 POP SWAP3 SWAP1 POP JUMP JUMPDEST PUSH1 0x0 DUP1 PUSH1 0x0 DUP1 PUSH1 0x0 DUP1 PUSH1 0x0 DUP1 PUSH1 0x0 DUP1 PUSH2 0x120 DUP12 DUP14 SUB SLT ISZERO PUSH2 0x2F4D JUMPI PUSH1 0x0 DUP1 REVERT JUMPDEST DUP11 CALLDATALOAD SWAP10 POP PUSH2 0x2F5E DUP13 PUSH1 0x20 DUP14 ADD PUSH2 0x2ED0 JUMP JUMPDEST SWAP9 POP PUSH1 0xA0 DUP12 ADD CALLDATALOAD PUSH8 0xFFFFFFFFFFFFFFFF DUP1 DUP3 GT ISZERO PUSH2 0x2F7B JUMPI PUSH1 0x0 DUP1 REVERT JUMPDEST PUSH2 0x2F87 DUP15 DUP4 DUP16 ADD PUSH2 0x2EE1 JUMP JUMPDEST SWAP1 SWAP11 POP SWAP9 POP PUSH1 0xC0 DUP14 ADD CALLDATALOAD SWAP2 POP DUP1 DUP3 GT ISZERO PUSH2 0x2FA0 JUMPI PUSH1 0x0 DUP1 REVERT JUMPDEST PUSH2 0x2FAC DUP15 DUP4 DUP16 ADD PUSH2 0x2EE1 JUMP JUMPDEST SWAP1 SWAP9 POP SWAP7 POP PUSH1 0xE0 DUP14 ADD CALLDATALOAD SWAP2 POP DUP1 DUP3 GT ISZERO PUSH2 0x2FC5 JUMPI PUSH1 0x0 DUP1 REVERT JUMPDEST PUSH2 0x2FD1 DUP15 DUP4 DUP16 ADD PUSH2 0x2EE1 JUMP JUMPDEST SWAP1 SWAP7 POP SWAP5 POP PUSH2 0x100 DUP14 ADD CALLDATALOAD SWAP2 POP DUP1 DUP3 GT ISZERO PUSH2 0x2FEB JUMPI PUSH1 0x0 DUP1 REVERT JUMPDEST POP PUSH2 0x2FF8 DUP14 DUP3 DUP15 ADD PUSH2 0x2EE1 JUMP JUMPDEST SWAP2 POP DUP1 SWAP4 POP POP DUP1 SWAP2 POP POP SWAP3 SWAP6 SWAP9 SWAP12 SWAP2 SWAP5 SWAP8 SWAP11 POP SWAP3 SWAP6 SWAP9 POP JUMP JUMPDEST PUSH4 0x4E487B71 PUSH1 0xE0 SHL PUSH1 0x0 MSTORE PUSH1 0x41 PUSH1 0x4 MSTORE PUSH1 0x24 PUSH1 0x0 REVERT JUMPDEST PUSH1 0x0 DUP1 PUSH1 0x0 DUP1 PUSH1 0x80 DUP6 DUP8 SUB SLT ISZERO PUSH2 0x303D JUMPI PUSH1 0x0 DUP1 REVERT JUMPDEST PUSH2 0x3046 DUP6 PUSH2 0x2D2A JUMP JUMPDEST SWAP4 POP PUSH2 0x3054 PUSH1 0x20 DUP7 ADD PUSH2 0x2D2A JUMP JUMPDEST SWAP3 POP PUSH1 0x40 DUP6 ADD CALLDATALOAD SWAP2 POP PUSH1 0x60 DUP6 ADD CALLDATALOAD PUSH8 0xFFFFFFFFFFFFFFFF DUP1 DUP3 GT ISZERO PUSH2 0x3078 JUMPI PUSH1 0x0 DUP1 REVERT JUMPDEST DUP2 DUP8 ADD SWAP2 POP DUP8 PUSH1 0x1F DUP4 ADD SLT PUSH2 0x308C JUMPI PUSH1 0x0 DUP1 REVERT JUMPDEST DUP2 CALLDATALOAD DUP2 DUP2 GT ISZERO PUSH2 0x309E JUMPI PUSH2 0x309E PUSH2 0x3011 JUMP JUMPDEST PUSH1 0x40 MLOAD PUSH1 0x1F DUP3 ADD PUSH1 0x1F NOT SWAP1 DUP2 AND PUSH1 0x3F ADD AND DUP2 ADD SWAP1 DUP4 DUP3 GT DUP2 DUP4 LT OR ISZERO PUSH2 0x30C6 JUMPI PUSH2 0x30C6 PUSH2 0x3011 JUMP JUMPDEST DUP2 PUSH1 0x40 MSTORE DUP3 DUP2 MSTORE DUP11 PUSH1 0x20 DUP5 DUP8 ADD ADD GT ISZERO PUSH2 0x30DF JUMPI PUSH1 0x0 DUP1 REVERT JUMPDEST DUP3 PUSH1 0x20 DUP7 ADD PUSH1 0x20 DUP4 ADD CALLDATACOPY PUSH1 0x0 PUSH1 0x20 DUP5 DUP4 ADD ADD MSTORE DUP1 SWAP6 POP POP POP POP POP POP SWAP3 SWAP6 SWAP2 SWAP5 POP SWAP3 POP JUMP JUMPDEST PUSH1 0x0 DUP1 PUSH1 0x40 DUP4 DUP6 SUB SLT ISZERO PUSH2 0x3116 JUMPI PUSH1 0x0 DUP1 REVERT JUMPDEST PUSH2 0x311F DUP4 PUSH2 0x2D2A JUMP JUMPDEST SWAP2 POP PUSH2 0x2EC7 PUSH1 0x20 DUP5 ADD PUSH2 0x2D2A JUMP JUMPDEST PUSH1 0x1 DUP2 DUP2 SHR SWAP1 DUP3 AND DUP1 PUSH2 0x3141 JUMPI PUSH1 0x7F DUP3 AND SWAP2 POP JUMPDEST PUSH1 0x20 DUP3 LT DUP2 SUB PUSH2 0x3161 JUMPI PUSH4 0x4E487B71 PUSH1 0xE0 SHL PUSH1 0x0 MSTORE PUSH1 0x22 PUSH1 0x4 MSTORE PUSH1 0x24 PUSH1 0x0 REVERT JUMPDEST POP SWAP2 SWAP1 POP JUMP JUMPDEST PUSH1 0x20 DUP1 DUP3 MSTORE PUSH1 0x2D SWAP1 DUP3 ADD MSTORE PUSH32 0x4552433732313A2063616C6C6572206973206E6F7420746F6B656E206F776E65 PUSH1 0x40 DUP3 ADD MSTORE PUSH13 0x1C881BDC88185C1C1C9BDD9959 PUSH1 0x9A SHL PUSH1 0x60 DUP3 ADD MSTORE PUSH1 0x80 ADD SWAP1 JUMP JUMPDEST PUSH4 0x4E487B71 PUSH1 0xE0 SHL PUSH1 0x0 MSTORE PUSH1 0x32 PUSH1 0x4 MSTORE PUSH1 0x24 PUSH1 0x0 REVERT JUMPDEST PUSH1 0x0 PUSH1 0x20 DUP3 DUP5 SUB SLT ISZERO PUSH2 0x31DC JUMPI PUSH1 0x0 DUP1 REVERT JUMPDEST PUSH2 0x1920 DUP3 PUSH2 0x2E8D JUMP JUMPDEST PUSH1 0x1F DUP3 GT ISZERO PUSH2 0x5F4 JUMPI PUSH1 0x0 DUP2 DUP2 MSTORE PUSH1 0x20 DUP2 KECCAK256 PUSH1 0x1F DUP6 ADD PUSH1 0x5 SHR DUP2 ADD PUSH1 0x20 DUP7 LT ISZERO PUSH2 0x320C JUMPI POP DUP1 JUMPDEST PUSH1 0x1F DUP6 ADD PUSH1 0x5 SHR DUP3 ADD SWAP2 POP JUMPDEST DUP2 DUP2 LT ISZERO PUSH2 0x322B JUMPI DUP3 DUP2 SSTORE PUSH1 0x1 ADD PUSH2 0x3218 JUMP JUMPDEST POP POP POP POP POP POP JUMP JUMPDEST DUP2 MLOAD PUSH8 0xFFFFFFFFFFFFFFFF DUP2 GT ISZERO PUSH2 0x324D JUMPI PUSH2 0x324D PUSH2 0x3011 JUMP JUMPDEST PUSH2 0x3261 DUP2 PUSH2 0x325B DUP5 SLOAD PUSH2 0x312D JUMP JUMPDEST DUP5 PUSH2 0x31E5 JUMP JUMPDEST PUSH1 0x20 DUP1 PUSH1 0x1F DUP4 GT PUSH1 0x1 DUP2 EQ PUSH2 0x3296 JUMPI PUSH1 0x0 DUP5 ISZERO PUSH2 0x327E JUMPI POP DUP6 DUP4 ADD MLOAD JUMPDEST PUSH1 0x0 NOT PUSH1 0x3 DUP7 SWAP1 SHL SHR NOT AND PUSH1 0x1 DUP6 SWAP1 SHL OR DUP6 SSTORE PUSH2 0x322B JUMP JUMPDEST PUSH1 0x0 DUP6 DUP2 MSTORE PUSH1 0x20 DUP2 KECCAK256 PUSH1 0x1F NOT DUP7 AND SWAP2 JUMPDEST DUP3 DUP2 LT ISZERO PUSH2 0x32C5 JUMPI DUP9 DUP7 ADD MLOAD DUP3 SSTORE SWAP5 DUP5 ADD SWAP5 PUSH1 0x1 SWAP1 SWAP2 ADD SWAP1 DUP5 ADD PUSH2 0x32A6 JUMP JUMPDEST POP DUP6 DUP3 LT ISZERO PUSH2 0x32E3 JUMPI DUP8 DUP6 ADD MLOAD PUSH1 0x0 NOT PUSH1 0x3 DUP9 SWAP1 SHL PUSH1 0xF8 AND SHR NOT AND DUP2 SSTORE JUMPDEST POP POP POP POP POP PUSH1 0x1 SWAP1 DUP2 SHL ADD SWAP1 SSTORE POP JUMP JUMPDEST DUP5 DUP2 MSTORE PUSH1 0x0 PUSH1 0x20 DUP6 DUP2 DUP5 ADD MSTORE PUSH1 0x1 DUP1 PUSH1 0xA0 SHL SUB DUP6 AND PUSH1 0x40 DUP5 ADD MSTORE PUSH1 0x80 PUSH1 0x60 DUP5 ADD MSTORE PUSH1 0x0 DUP5 SLOAD PUSH2 0x3321 DUP2 PUSH2 0x312D JUMP JUMPDEST DUP1 PUSH1 0x80 DUP8 ADD MSTORE PUSH1 0xA0 PUSH1 0x1 DUP1 DUP5 AND PUSH1 0x0 DUP2 EQ PUSH2 0x3343 JUMPI PUSH1 0x1 DUP2 EQ PUSH2 0x335D JUMPI PUSH2 0x338B JUMP JUMPDEST PUSH1 0xFF NOT DUP6 AND DUP10 DUP5 ADD MSTORE DUP4 ISZERO ISZERO PUSH1 0x5 SHL DUP10 ADD DUP4 ADD SWAP6 POP PUSH2 0x338B JUMP JUMPDEST DUP10 PUSH1 0x0 MSTORE DUP7 PUSH1 0x0 KECCAK256 PUSH1 0x0 JUMPDEST DUP6 DUP2 LT ISZERO PUSH2 0x3383 JUMPI DUP2 SLOAD DUP12 DUP3 ADD DUP7 ADD MSTORE SWAP1 DUP4 ADD SWAP1 DUP9 ADD PUSH2 0x3368 JUMP JUMPDEST DUP11 ADD DUP5 ADD SWAP7 POP POP JUMPDEST POP SWAP4 SWAP12 SWAP11 POP POP POP POP POP POP POP POP POP POP POP JUMP JUMPDEST PUSH4 0x4E487B71 PUSH1 0xE0 SHL PUSH1 0x0 MSTORE PUSH1 0x1 PUSH1 0x4 MSTORE PUSH1 0x24 PUSH1 0x0 REVERT JUMPDEST PUSH4 0x4E487B71 PUSH1 0xE0 SHL PUSH1 0x0 MSTORE PUSH1 0x11 PUSH1 0x4 MSTORE PUSH1 0x24 PUSH1 0x0 REVERT JUMPDEST DUP2 DUP2 SUB DUP2 DUP2 GT ISZERO PUSH2 0x420 JUMPI PUSH2 0x420 PUSH2 0x33B2 JUMP JUMPDEST PUSH1 0x0 DUP4 MLOAD PUSH2 0x33ED DUP2 DUP5 PUSH1 0x20 DUP9 ADD PUSH2 0x2CAE JUMP JUMPDEST DUP4 MLOAD SWAP1 DUP4 ADD SWAP1 PUSH2 0x3401 DUP2 DUP4 PUSH1 0x20 DUP9 ADD PUSH2 0x2CAE JUMP JUMPDEST ADD SWAP5 SWAP4 POP POP POP POP JUMP JUMPDEST DUP1 DUP3 MUL DUP2 ISZERO DUP3 DUP3 DIV DUP5 EQ OR PUSH2 0x420 JUMPI PUSH2 0x420 PUSH2 0x33B2 JUMP JUMPDEST PUSH4 0x4E487B71 PUSH1 0xE0 SHL PUSH1 0x0 MSTORE PUSH1 0x12 PUSH1 0x4 MSTORE PUSH1 0x24 PUSH1 0x0 REVERT JUMPDEST PUSH1 0x0 DUP3 PUSH2 0x3446 JUMPI PUSH2 0x3446 PUSH2 0x3421 JUMP JUMPDEST POP DIV SWAP1 JUMP JUMPDEST DUP1 DUP3 ADD DUP1 DUP3 GT ISZERO PUSH2 0x420 JUMPI PUSH2 0x420 PUSH2 0x33B2 JUMP JUMPDEST PUSH1 0x20 DUP1 DUP3 MSTORE PUSH1 0x25 SWAP1 DUP3 ADD MSTORE PUSH32 0x4552433732313A207472616E736665722066726F6D20696E636F727265637420 PUSH1 0x40 DUP3 ADD MSTORE PUSH5 0x37BBB732B9 PUSH1 0xD9 SHL PUSH1 0x60 DUP3 ADD MSTORE PUSH1 0x80 ADD SWAP1 JUMP JUMPDEST PUSH1 0x0 DUP3 PUSH2 0x34B2 JUMPI PUSH2 0x34B2 PUSH2 0x3421 JUMP JUMPDEST POP MOD SWAP1 JUMP JUMPDEST PUSH1 0x20 DUP1 DUP3 MSTORE PUSH1 0x32 SWAP1 DUP3 ADD MSTORE PUSH32 0x4552433732313A207472616E7366657220746F206E6F6E204552433732315265 PUSH1 0x40 DUP3 ADD MSTORE PUSH18 0x31B2B4BB32B91034B6B83632B6B2B73A32B9 PUSH1 0x71 SHL PUSH1 0x60 DUP3 ADD MSTORE PUSH1 0x80 ADD SWAP1 JUMP JUMPDEST PUSH1 0x1 PUSH1 0x1 PUSH1 0xA0 SHL SUB DUP6 DUP2 AND DUP3 MSTORE DUP5 AND PUSH1 0x20 DUP3 ADD MSTORE PUSH1 0x40 DUP2 ADD DUP4 SWAP1 MSTORE PUSH1 0x80 PUSH1 0x60 DUP3 ADD DUP2 SWAP1 MSTORE PUSH1 0x0 SWAP1 PUSH2 0x353C SWAP1 DUP4 ADD DUP5 PUSH2 0x2CD2 JUMP JUMPDEST SWAP7 SWAP6 POP POP POP POP POP POP JUMP JUMPDEST PUSH1 0x0 PUSH1 0x20 DUP3 DUP5 SUB SLT ISZERO PUSH2 0x3558 JUMPI PUSH1 0x0 DUP1 REVERT JUMPDEST DUP2 MLOAD PUSH2 0x1920 DUP2 PUSH2 0x2C7B JUMP INVALID LOG2 PUSH5 0x6970667358 0x22 SLT KECCAK256 0xD8 0xC7 PREVRANDAO 0x5D OR 0xD7 NOT 0xE3 0xCC 0xC0 REVERT 0xC9 PUSH3 0xDAE0FC 0xD2 0xE4 CODESIZE INVALID 0x4F CHAINID 0x2C 0xCA 0xE4 0xBD CHAINID 0xBB 0x5F STATICCALL DUP7 LOG3 PUSH5 0x736F6C6343 STOP ADDMOD SGT STOP CALLER "
		},
		"gasEstimates": {
			"creation": {
				"codeDepositCost": "2744200",
				"executionCost": "infinite",
				"totalCost": "infinite"
			},
			"external": {
				"approve(address,uint256)": "infinite",
				"balanceOf(address)": "2656",
				"boxDropList(uint256)": "11092",
				"buyItemFromShop(uint256,uint256)": "infinite",
				"createItem(string,uint256[49],bool[9])": "infinite",
				"dropBox(uint256)": "infinite",
				"getApproved(uint256)": "4792",
				"isApprovedForAll(address,address)": "infinite",
				"itemName(uint256)": "infinite",
				"mintBox(address,uint256)": "infinite",
				"name()": "infinite",
				"owner()": "2360",
				"ownerOf(uint256)": "2583",
				"safeAdd(uint256,uint256)": "524",
				"safeMul(uint256,uint256)": "564",
				"safeSub(uint256,uint256)": "506",
				"safeTransferFrom(address,address,uint256)": "infinite",
				"safeTransferFrom(address,address,uint256,bytes)": "infinite",
				"setApprovalForAll(address,bool)": "infinite",
				"setBoxDrop(uint256,uint256[4],uint256[],uint256[],uint256[],uint256[])": "infinite",
				"supportsInterface(bytes4)": "534",
				"symbol()": "infinite",
				"tokenURI(uint256)": "infinite",
				"transferFrom(address,address,uint256)": "infinite"
			},
			"internal": {
				"_setTokenAttributes(uint256,struct Items.ItemAttributes memory)": "infinite",
				"getRandomNumber()": "92",
				"max(uint256,uint256)": "infinite",
				"min(uint256,uint256)": "infinite",
				"returnRandomItemFromDropList(uint256[] memory)": "infinite"
			}
		},
		"methodIdentifiers": {
			"approve(address,uint256)": "095ea7b3",
			"balanceOf(address)": "70a08231",
			"boxDropList(uint256)": "f10bbe18",
			"buyItemFromShop(uint256,uint256)": "7f46914f",
			"createItem(string,uint256[49],bool[9])": "521e16c5",
			"dropBox(uint256)": "88feaacc",
			"getApproved(uint256)": "081812fc",
			"isApprovedForAll(address,address)": "e985e9c5",
			"itemName(uint256)": "7310dc8a",
			"mintBox(address,uint256)": "fb5d7f10",
			"name()": "06fdde03",
			"owner()": "8da5cb5b",
			"ownerOf(uint256)": "6352211e",
			"safeAdd(uint256,uint256)": "e6cb9013",
			"safeMul(uint256,uint256)": "d05c78da",
			"safeSub(uint256,uint256)": "a293d1e8",
			"safeTransferFrom(address,address,uint256)": "42842e0e",
			"safeTransferFrom(address,address,uint256,bytes)": "b88d4fde",
			"setApprovalForAll(address,bool)": "a22cb465",
			"setBoxDrop(uint256,uint256[4],uint256[],uint256[],uint256[],uint256[])": "b4148054",
			"supportsInterface(bytes4)": "01ffc9a7",
			"symbol()": "95d89b41",
			"tokenURI(uint256)": "c87b56dd",
			"transferFrom(address,address,uint256)": "23b872dd"
		}
	},
	"abi": [
		{
			"inputs": [],
			"stateMutability": "nonpayable",
			"type": "constructor"
		},
		{
			"anonymous": false,
			"inputs": [
				{
					"indexed": true,
					"internalType": "address",
					"name": "owner",
					"type": "address"
				},
				{
					"indexed": true,
					"internalType": "address",
					"name": "approved",
					"type": "address"
				},
				{
					"indexed": true,
					"internalType": "uint256",
					"name": "tokenId",
					"type": "uint256"
				}
			],
			"name": "Approval",
			"type": "event"
		},
		{
			"anonymous": false,
			"inputs": [
				{
					"indexed": true,
					"internalType": "address",
					"name": "owner",
					"type": "address"
				},
				{
					"indexed": true,
					"internalType": "address",
					"name": "operator",
					"type": "address"
				},
				{
					"indexed": false,
					"internalType": "bool",
					"name": "approved",
					"type": "bool"
				}
			],
			"name": "ApprovalForAll",
			"type": "event"
		},
		{
			"anonymous": false,
			"inputs": [
				{
					"indexed": false,
					"internalType": "uint256",
					"name": "level",
					"type": "uint256"
				},
				{
					"indexed": false,
					"internalType": "uint256",
					"name": "weaponsDropRate",
					"type": "uint256"
				},
				{
					"indexed": false,
					"internalType": "uint256",
					"name": "armourDropRate",
					"type": "uint256"
				},
				{
					"indexed": false,
					"internalType": "uint256",
					"name": "jewelsDropRate",
					"type": "uint256"
				},
				{
					"indexed": false,
					"internalType": "uint256",
					"name": "miscDropRate",
					"type": "uint256"
				}
			],
			"name": "BoxDropUpdated",
			"type": "event"
		},
		{
			"anonymous": false,
			"inputs": [
				{
					"indexed": false,
					"internalType": "address",
					"name": "owner",
					"type": "address"
				},
				{
					"indexed": false,
					"internalType": "uint256",
					"name": "tokenId",
					"type": "uint256"
				}
			],
			"name": "BoxDropped",
			"type": "event"
		},
		{
			"anonymous": false,
			"inputs": [
				{
					"indexed": false,
					"internalType": "uint256",
					"name": "tokenId",
					"type": "uint256"
				},
				{
					"indexed": false,
					"internalType": "uint256",
					"name": "itemId",
					"type": "uint256"
				},
				{
					"indexed": false,
					"internalType": "address",
					"name": "owner",
					"type": "address"
				},
				{
					"indexed": false,
					"internalType": "string",
					"name": "itemName",
					"type": "string"
				}
			],
			"name": "ItemBoughtFromShop",
			"type": "event"
		},
		{
			"anonymous": false,
			"inputs": [
				{
					"indexed": true,
					"internalType": "address",
					"name": "from",
					"type": "address"
				},
				{
					"indexed": true,
					"internalType": "address",
					"name": "to",
					"type": "address"
				},
				{
					"indexed": true,
					"internalType": "uint256",
					"name": "tokenId",
					"type": "uint256"
				}
			],
			"name": "Transfer",
			"type": "event"
		},
		{
			"inputs": [
				{
					"internalType": "address",
					"name": "to",
					"type": "address"
				},
				{
					"internalType": "uint256",
					"name": "tokenId",
					"type": "uint256"
				}
			],
			"name": "approve",
			"outputs": [],
			"stateMutability": "nonpayable",
			"type": "function"
		},
		{
			"inputs": [
				{
					"internalType": "address",
					"name": "owner",
					"type": "address"
				}
			],
			"name": "balanceOf",
			"outputs": [
				{
					"internalType": "uint256",
					"name": "",
					"type": "uint256"
				}
			],
			"stateMutability": "view",
			"type": "function"
		},
		{
			"inputs": [
				{
					"internalType": "uint256",
					"name": "",
					"type": "uint256"
				}
			],
			"name": "boxDropList",
			"outputs": [
				{
					"internalType": "uint256",
					"name": "level",
					"type": "uint256"
				},
				{
					"internalType": "uint256",
					"name": "weaponsDropRate",
					"type": "uint256"
				},
				{
					"internalType": "uint256",
					"name": "armourDropRate",
					"type": "uint256"
				},
				{
					"internalType": "uint256",
					"name": "jewelsDropRate",
					"type": "uint256"
				},
				{
					"internalType": "uint256",
					"name": "miscDropRate",
					"type": "uint256"
				}
			],
			"stateMutability": "view",
			"type": "function"
		},
		{
			"inputs": [
				{
					"internalType": "uint256",
					"name": "itemId",
					"type": "uint256"
				},
				{
					"internalType": "uint256",
					"name": "fighterId",
					"type": "uint256"
				}
			],
			"name": "buyItemFromShop",
			"outputs": [],
			"stateMutability": "nonpayable",
			"type": "function"
		},
		{
			"inputs": [
				{
					"internalType": "string",
					"name": "name",
					"type": "string"
				},
				{
					"internalType": "uint256[49]",
					"name": "uintValues",
					"type": "uint256[49]"
				},
				{
					"internalType": "bool[9]",
					"name": "boolValues",
					"type": "bool[9]"
				}
			],
			"name": "createItem",
			"outputs": [
				{
					"internalType": "uint256",
					"name": "tokenId",
					"type": "uint256"
				}
			],
			"stateMutability": "nonpayable",
			"type": "function"
		},
		{
			"inputs": [
				{
					"internalType": "uint256",
					"name": "tokenId",
					"type": "uint256"
				}
			],
			"name": "dropBox",
			"outputs": [
				{
					"internalType": "uint256",
					"name": "",
					"type": "uint256"
				}
			],
			"stateMutability": "nonpayable",
			"type": "function"
		},
		{
			"inputs": [
				{
					"internalType": "uint256",
					"name": "tokenId",
					"type": "uint256"
				}
			],
			"name": "getApproved",
			"outputs": [
				{
					"internalType": "address",
					"name": "",
					"type": "address"
				}
			],
			"stateMutability": "view",
			"type": "function"
		},
		{
			"inputs": [
				{
					"internalType": "address",
					"name": "owner",
					"type": "address"
				},
				{
					"internalType": "address",
					"name": "operator",
					"type": "address"
				}
			],
			"name": "isApprovedForAll",
			"outputs": [
				{
					"internalType": "bool",
					"name": "",
					"type": "bool"
				}
			],
			"stateMutability": "view",
			"type": "function"
		},
		{
			"inputs": [
				{
					"internalType": "uint256",
					"name": "",
					"type": "uint256"
				}
			],
			"name": "itemName",
			"outputs": [
				{
					"internalType": "string",
					"name": "",
					"type": "string"
				}
			],
			"stateMutability": "view",
			"type": "function"
		},
		{
			"inputs": [
				{
					"internalType": "address",
					"name": "winner",
					"type": "address"
				},
				{
					"internalType": "uint256",
					"name": "opponentLevel",
					"type": "uint256"
				}
			],
			"name": "mintBox",
			"outputs": [],
			"stateMutability": "nonpayable",
			"type": "function"
		},
		{
			"inputs": [],
			"name": "name",
			"outputs": [
				{
					"internalType": "string",
					"name": "",
					"type": "string"
				}
			],
			"stateMutability": "view",
			"type": "function"
		},
		{
			"inputs": [],
			"name": "owner",
			"outputs": [
				{
					"internalType": "address",
					"name": "",
					"type": "address"
				}
			],
			"stateMutability": "view",
			"type": "function"
		},
		{
			"inputs": [
				{
					"internalType": "uint256",
					"name": "tokenId",
					"type": "uint256"
				}
			],
			"name": "ownerOf",
			"outputs": [
				{
					"internalType": "address",
					"name": "",
					"type": "address"
				}
			],
			"stateMutability": "view",
			"type": "function"
		},
		{
			"inputs": [
				{
					"internalType": "uint256",
					"name": "a",
					"type": "uint256"
				},
				{
					"internalType": "uint256",
					"name": "b",
					"type": "uint256"
				}
			],
			"name": "safeAdd",
			"outputs": [
				{
					"internalType": "uint256",
					"name": "",
					"type": "uint256"
				}
			],
			"stateMutability": "nonpayable",
			"type": "function"
		},
		{
			"inputs": [
				{
					"internalType": "uint256",
					"name": "a",
					"type": "uint256"
				},
				{
					"internalType": "uint256",
					"name": "b",
					"type": "uint256"
				}
			],
			"name": "safeMul",
			"outputs": [
				{
					"internalType": "uint256",
					"name": "",
					"type": "uint256"
				}
			],
			"stateMutability": "nonpayable",
			"type": "function"
		},
		{
			"inputs": [
				{
					"internalType": "uint256",
					"name": "a",
					"type": "uint256"
				},
				{
					"internalType": "uint256",
					"name": "b",
					"type": "uint256"
				}
			],
			"name": "safeSub",
			"outputs": [
				{
					"internalType": "uint256",
					"name": "",
					"type": "uint256"
				}
			],
			"stateMutability": "nonpayable",
			"type": "function"
		},
		{
			"inputs": [
				{
					"internalType": "address",
					"name": "from",
					"type": "address"
				},
				{
					"internalType": "address",
					"name": "to",
					"type": "address"
				},
				{
					"internalType": "uint256",
					"name": "tokenId",
					"type": "uint256"
				}
			],
			"name": "safeTransferFrom",
			"outputs": [],
			"stateMutability": "nonpayable",
			"type": "function"
		},
		{
			"inputs": [
				{
					"internalType": "address",
					"name": "from",
					"type": "address"
				},
				{
					"internalType": "address",
					"name": "to",
					"type": "address"
				},
				{
					"internalType": "uint256",
					"name": "tokenId",
					"type": "uint256"
				},
				{
					"internalType": "bytes",
					"name": "data",
					"type": "bytes"
				}
			],
			"name": "safeTransferFrom",
			"outputs": [],
			"stateMutability": "nonpayable",
			"type": "function"
		},
		{
			"inputs": [
				{
					"internalType": "address",
					"name": "operator",
					"type": "address"
				},
				{
					"internalType": "bool",
					"name": "approved",
					"type": "bool"
				}
			],
			"name": "setApprovalForAll",
			"outputs": [],
			"stateMutability": "nonpayable",
			"type": "function"
		},
		{
			"inputs": [
				{
					"internalType": "uint256",
					"name": "level",
					"type": "uint256"
				},
				{
					"internalType": "uint256[4]",
					"name": "dropRates",
					"type": "uint256[4]"
				},
				{
					"internalType": "uint256[]",
					"name": "weaponsList",
					"type": "uint256[]"
				},
				{
					"internalType": "uint256[]",
					"name": "armourList",
					"type": "uint256[]"
				},
				{
					"internalType": "uint256[]",
					"name": "jewelsList",
					"type": "uint256[]"
				},
				{
					"internalType": "uint256[]",
					"name": "miscList",
					"type": "uint256[]"
				}
			],
			"name": "setBoxDrop",
			"outputs": [],
			"stateMutability": "nonpayable",
			"type": "function"
		},
		{
			"inputs": [
				{
					"internalType": "bytes4",
					"name": "interfaceId",
					"type": "bytes4"
				}
			],
			"name": "supportsInterface",
			"outputs": [
				{
					"internalType": "bool",
					"name": "",
					"type": "bool"
				}
			],
			"stateMutability": "view",
			"type": "function"
		},
		{
			"inputs": [],
			"name": "symbol",
			"outputs": [
				{
					"internalType": "string",
					"name": "",
					"type": "string"
				}
			],
			"stateMutability": "view",
			"type": "function"
		},
		{
			"inputs": [
				{
					"internalType": "uint256",
					"name": "tokenId",
					"type": "uint256"
				}
			],
			"name": "tokenURI",
			"outputs": [
				{
					"internalType": "string",
					"name": "",
					"type": "string"
				}
			],
			"stateMutability": "view",
			"type": "function"
		},
		{
			"inputs": [
				{
					"internalType": "address",
					"name": "from",
					"type": "address"
				},
				{
					"internalType": "address",
					"name": "to",
					"type": "address"
				},
				{
					"internalType": "uint256",
					"name": "tokenId",
					"type": "uint256"
				}
			],
			"name": "transferFrom",
			"outputs": [],
			"stateMutability": "nonpayable",
			"type": "function"
		}
	]
}